{"abi":[{"type":"receive","stateMutability":"payable"},{"type":"function","name":"DAI","inputs":[],"outputs":[{"name":"","type":"address","internalType":"address"}],"stateMutability":"view"},{"type":"function","name":"USDC","inputs":[],"outputs":[{"name":"","type":"address","internalType":"address"}],"stateMutability":"view"},{"type":"function","name":"WETH9","inputs":[],"outputs":[{"name":"","type":"address","internalType":"address"}],"stateMutability":"view"},{"type":"function","name":"dai","inputs":[],"outputs":[{"name":"","type":"address","internalType":"contract ERC20"}],"stateMutability":"view"},{"type":"function","name":"deposit","inputs":[{"name":"amount","type":"uint256","internalType":"uint256"}],"outputs":[],"stateMutability":"nonpayable"},{"type":"function","name":"swapRouter","inputs":[],"outputs":[{"name":"","type":"address","internalType":"contract ISwapRouter"}],"stateMutability":"view"},{"type":"function","name":"weth","inputs":[],"outputs":[{"name":"","type":"address","internalType":"contract IWETH"}],"stateMutability":"view"}],"bytecode":{"object":"0x6080604052600080546001600160a01b0319908116736b175474e89094c44da98b954eedeac495271d0f179091556001805490911673c02aaa39b223fe8d0a0e5c4f27ead9083c756cc2179055348015605757600080fd5b50610464806100676000396000f3fe6080604052600436106100745760003560e01c8063b6b55f251161004e578063b6b55f251461010c578063c31c9c071461012e578063e0bab4c414610156578063f4b9fa751461017e57600080fd5b80633fc8cef3146100805780634aa4a4fc146100bc57806389a30271146100e457600080fd5b3661007b57005b600080fd5b34801561008c57600080fd5b506001546100a0906001600160a01b031681565b6040516001600160a01b03909116815260200160405180910390f35b3480156100c857600080fd5b506100a073c02aaa39b223fe8d0a0e5c4f27ead9083c756cc281565b3480156100f057600080fd5b506100a073a0b86991c6218b36c1d19d4a2e9eb0ce3606eb4881565b34801561011857600080fd5b5061012c6101273660046103d3565b61019e565b005b34801561013a57600080fd5b506100a073e592427a0aece92de3edee1f18e0157c0586156481565b34801561016257600080fd5b506100a0736b175474e89094c44da98b954eedeac495271d0f81565b34801561018a57600080fd5b506000546100a0906001600160a01b031681565b6000546040516323b872dd60e01b8152336004820152306024820152604481018390526001600160a01b03909116906323b872dd906064016020604051808303816000875af11580156101f5573d6000803e3d6000fd5b505050506040513d601f19601f8201168201806040525081019061021991906103ec565b5060005460405163095ea7b360e01b815273e592427a0aece92de3edee1f18e0157c058615646004820152602481018390526001600160a01b039091169063095ea7b3906044016020604051808303816000875af115801561027f573d6000803e3d6000fd5b505050506040513d601f19601f820116820180604052508101906102a391906103ec565b506040805161010081018252736b175474e89094c44da98b954eedeac495271d0f815273c02aaa39b223fe8d0a0e5c4f27ead9083c756cc260208201908152610bb88284019081523060608401908152426080850190815260a08501878152600060c0870181815260e08801918252975163414bf38960e01b815287516001600160a01b039081166004830152965187166024820152945162ffffff166044860152925185166064850152905160848401525160a4830152935160c482015292511660e48301529073e592427a0aece92de3edee1f18e0157c058615649063414bf38990610104016020604051808303816000875af11580156103aa573d6000803e3d6000fd5b505050506040513d601f19601f820116820180604052508101906103ce9190610415565b505050565b6000602082840312156103e557600080fd5b5035919050565b6000602082840312156103fe57600080fd5b8151801515811461040e57600080fd5b9392505050565b60006020828403121561042757600080fd5b505191905056fea264697066735822122024c179dc41eeae3653be2c87996e0befdb6b00d2daf4472517083ef7c61cddbc64736f6c63430008190033","linkReferences":{}},"methodIdentifiers":{"DAI()":"e0bab4c4","USDC()":"89a30271","WETH9()":"4aa4a4fc","dai()":"f4b9fa75","deposit(uint256)":"b6b55f25","swapRouter()":"c31c9c07","weth()":"3fc8cef3"},"id":20}