{"abi":[{"type":"receive","stateMutability":"payable"},{"type":"function","name":"factoryStorage","inputs":[],"outputs":[{"name":"","type":"address","internalType":"contract IndexFactoryStorage"}],"stateMutability":"view"},{"type":"function","name":"getPendingRequest","inputs":[{"name":"requestId","type":"bytes32","internalType":"bytes32"}],"outputs":[{"name":"","type":"address","internalType":"address"}],"stateMutability":"view"},{"type":"function","name":"initialize","inputs":[{"name":"_factoryStorage","type":"address","internalType":"address payable"}],"outputs":[],"stateMutability":"nonpayable"},{"type":"function","name":"owner","inputs":[],"outputs":[{"name":"","type":"address","internalType":"address"}],"stateMutability":"view"},{"type":"function","name":"pause","inputs":[],"outputs":[],"stateMutability":"nonpayable"},{"type":"function","name":"paused","inputs":[],"outputs":[{"name":"","type":"bool","internalType":"bool"}],"stateMutability":"view"},{"type":"function","name":"proposeOwner","inputs":[{"name":"_proposedOwner","type":"address","internalType":"address"}],"outputs":[],"stateMutability":"nonpayable"},{"type":"function","name":"proposedOwner","inputs":[],"outputs":[{"name":"","type":"address","internalType":"address"}],"stateMutability":"view"},{"type":"function","name":"reIndexAndReweight","inputs":[],"outputs":[],"stateMutability":"nonpayable"},{"type":"function","name":"renounceOwnership","inputs":[],"outputs":[],"stateMutability":"nonpayable"},{"type":"function","name":"transferOwnership","inputs":[{"name":"newOwner","type":"address","internalType":"address"}],"outputs":[],"stateMutability":"nonpayable"},{"type":"function","name":"unpause","inputs":[],"outputs":[],"stateMutability":"nonpayable"},{"type":"function","name":"withdraw","inputs":[{"name":"amount","type":"uint256","internalType":"uint256"}],"outputs":[],"stateMutability":"nonpayable"},{"type":"event","name":"ChainlinkCancelled","inputs":[{"name":"id","type":"bytes32","indexed":true,"internalType":"bytes32"}],"anonymous":false},{"type":"event","name":"ChainlinkFulfilled","inputs":[{"name":"id","type":"bytes32","indexed":true,"internalType":"bytes32"}],"anonymous":false},{"type":"event","name":"ChainlinkRequested","inputs":[{"name":"id","type":"bytes32","indexed":true,"internalType":"bytes32"}],"anonymous":false},{"type":"event","name":"Initialized","inputs":[{"name":"version","type":"uint8","indexed":false,"internalType":"uint8"}],"anonymous":false},{"type":"event","name":"OwnershipTransferred","inputs":[{"name":"previousOwner","type":"address","indexed":true,"internalType":"address"},{"name":"newOwner","type":"address","indexed":true,"internalType":"address"}],"anonymous":false},{"type":"event","name":"Paused","inputs":[{"name":"account","type":"address","indexed":false,"internalType":"address"}],"anonymous":false},{"type":"event","name":"Unpaused","inputs":[{"name":"account","type":"address","indexed":false,"internalType":"address"}],"anonymous":false}],"bytecode":{"object":"0x608060405234801561001057600080fd5b5061330a806100206000396000f3fe6080604052600436106100c65760003560e01c80638da5cb5b1161007f578063c06e1ae211610059578063c06e1ae21461024c578063c4d66de814610277578063d153b60c146102a0578063f2fde38b146102cb57610106565b80638da5cb5b146101e1578063a2ab905d1461020c578063b5ed298a1461022357610106565b80632e1a7d4d1461010b5780633f4ba83a146101345780635c975abb1461014b578063715018a6146101765780638456cb591461018d57806388b12d55146101a457610106565b36610106576040517f08c379a00000000000000000000000000000000000000000000000000000000081526004016100fd906129c4565b60405180910390fd5b600080fd5b34801561011757600080fd5b50610132600480360381019061012d919061234e565b6102f4565b005b34801561014057600080fd5b506101496103f6565b005b34801561015757600080fd5b50610160610408565b60405161016d91906127f3565b60405180910390f35b34801561018257600080fd5b5061018b61041f565b005b34801561019957600080fd5b506101a2610433565b005b3480156101b057600080fd5b506101cb60048036038101906101c69190612240565b610445565b6040516101d89190612778565b60405180910390f35b3480156101ed57600080fd5b506101f6610482565b6040516102039190612778565b60405180910390f35b34801561021857600080fd5b506102216104ac565b005b34801561022f57600080fd5b5061024a60048036038101906102459190612143565b610ff1565b005b34801561025857600080fd5b506102616110ad565b60405161026e919061280e565b60405180910390f35b34801561028357600080fd5b5061029e6004803603810190610299919061219d565b6110d3565b005b3480156102ac57600080fd5b506102b56112d2565b6040516102c29190612778565b60405180910390f35b3480156102d757600080fd5b506102f260048036038101906102ed9190612143565b6112f8565b005b6102fc611472565b4781111561033f576040517f08c379a0000000000000000000000000000000000000000000000000000000008152600401610336906128c4565b60405180910390fd5b6000610349610482565b73ffffffffffffffffffffffffffffffffffffffff168260405161036c90612763565b60006040518083038185875af1925050503d80600081146103a9576040519150601f19603f3d011682016040523d82523d6000602084013e6103ae565b606091505b50509050806103f2576040517f08c379a00000000000000000000000000000000000000000000000000000000081526004016103e9906128a4565b60405180910390fd5b5050565b6103fe611472565b6104066114f0565b565b6000609e60009054906101000a900460ff16905090565b610427611472565b6104316000611553565b565b61043b611472565b610443611619565b565b60006005600083815260200190815260200160002060009054906101000a900473ffffffffffffffffffffffffffffffffffffffff169050919050565b6000603960009054906101000a900473ffffffffffffffffffffffffffffffffffffffff16905090565b6104b4611472565b600060d060009054906101000a900473ffffffffffffffffffffffffffffffffffffffff1673ffffffffffffffffffffffffffffffffffffffff16633fc8cef36040518163ffffffff1660e01b815260040160206040518083038186803b15801561051e57600080fd5b505afa158015610532573d6000803e3d6000fd5b505050506040513d601f19601f8201168201806040525081019061055691906122c7565b9050600060d060009054906101000a900473ffffffffffffffffffffffffffffffffffffffff1673ffffffffffffffffffffffffffffffffffffffff1663fbfa77cf6040518163ffffffff1660e01b815260040160206040518083038186803b1580156105c257600080fd5b505afa1580156105d6573d6000803e3d6000fd5b505050506040513d601f19601f820116820180604052508101906105fa91906122f4565b9050600060d060009054906101000a900473ffffffffffffffffffffffffffffffffffffffff1673ffffffffffffffffffffffffffffffffffffffff166353fd43326040518163ffffffff1660e01b815260040160206040518083038186803b15801561066657600080fd5b505afa15801561067a573d6000803e3d6000fd5b505050506040513d601f19601f8201168201806040525081019061069e919061237b565b9050600060d060009054906101000a900473ffffffffffffffffffffffffffffffffffffffff1673ffffffffffffffffffffffffffffffffffffffff1663c8599ded6040518163ffffffff1660e01b815260040160206040518083038186803b15801561070a57600080fd5b505afa15801561071e573d6000803e3d6000fd5b505050506040513d601f19601f82011682018060405250810190610742919061237b565b905060005b82811015610b2f57600060d060009054906101000a900473ffffffffffffffffffffffffffffffffffffffff1673ffffffffffffffffffffffffffffffffffffffff16639932ba4c836040518263ffffffff1660e01b81526004016107ac9190612a20565b60206040518083038186803b1580156107c457600080fd5b505afa1580156107d8573d6000803e3d6000fd5b505050506040513d601f19601f820116820180604052508101906107fc9190612170565b9050600060d060009054906101000a900473ffffffffffffffffffffffffffffffffffffffff1673ffffffffffffffffffffffffffffffffffffffff166332599665836040518263ffffffff1660e01b815260040161085b9190612778565b60206040518083038186803b15801561087357600080fd5b505afa158015610887573d6000803e3d6000fd5b505050506040513d601f19601f820116820180604052508101906108ab9190612321565b90508673ffffffffffffffffffffffffffffffffffffffff168273ffffffffffffffffffffffffffffffffffffffff1614610b1a5760008673ffffffffffffffffffffffffffffffffffffffff16631c20fadd84308673ffffffffffffffffffffffffffffffffffffffff166370a082318c6040518263ffffffff1660e01b81526004016109399190612778565b60206040518083038186803b15801561095157600080fd5b505afa158015610965573d6000803e3d6000fd5b505050506040513d601f19601f82011682018060405250810190610989919061237b565b6040518463ffffffff1660e01b81526004016109a793929190612793565b602060405180830381600087803b1580156109c157600080fd5b505af11580156109d5573d6000803e3d6000fd5b505050506040513d601f19601f820116820180604052508101906109f99190612213565b905080610a3b576040517f08c379a0000000000000000000000000000000000000000000000000000000008152600401610a3290612964565b60405180910390fd5b6000610ad2848a8673ffffffffffffffffffffffffffffffffffffffff166370a082318c6040518263ffffffff1660e01b8152600401610a7b9190612778565b60206040518083038186803b158015610a9357600080fd5b505afa158015610aa7573d6000803e3d6000fd5b505050506040513d601f19601f82011682018060405250810190610acb919061237b565b8b8761167c565b905060008111610b17576040517f08c379a0000000000000000000000000000000000000000000000000000000008152600401610b0e90612884565b60405180910390fd5b50505b50508080610b2790612d9f565b915050610747565b5060008473ffffffffffffffffffffffffffffffffffffffff166370a08231306040518263ffffffff1660e01b8152600401610b6b9190612778565b60206040518083038186803b158015610b8357600080fd5b505afa158015610b97573d6000803e3d6000fd5b505050506040513d601f19601f82011682018060405250810190610bbb919061237b565b905060005b82811015610fe957600060d060009054906101000a900473ffffffffffffffffffffffffffffffffffffffff1673ffffffffffffffffffffffffffffffffffffffff1663239aad0d836040518263ffffffff1660e01b8152600401610c259190612a20565b60206040518083038186803b158015610c3d57600080fd5b505afa158015610c51573d6000803e3d6000fd5b505050506040513d601f19601f82011682018060405250810190610c759190612170565b9050600060d060009054906101000a900473ffffffffffffffffffffffffffffffffffffffff1673ffffffffffffffffffffffffffffffffffffffff166332599665836040518263ffffffff1660e01b8152600401610cd49190612778565b60206040518083038186803b158015610cec57600080fd5b505afa158015610d00573d6000803e3d6000fd5b505050506040513d601f19601f82011682018060405250810190610d249190612321565b9050600060d060009054906101000a900473ffffffffffffffffffffffffffffffffffffffff1673ffffffffffffffffffffffffffffffffffffffff16634b3e0b80846040518263ffffffff1660e01b8152600401610d839190612778565b60206040518083038186803b158015610d9b57600080fd5b505afa158015610daf573d6000803e3d6000fd5b505050506040513d601f19601f82011682018060405250810190610dd3919061237b565b90508873ffffffffffffffffffffffffffffffffffffffff168373ffffffffffffffffffffffffffffffffffffffff1614610f515760008873ffffffffffffffffffffffffffffffffffffffff16631c20fadd8b30896040518463ffffffff1660e01b8152600401610e4793929190612793565b602060405180830381600087803b158015610e6157600080fd5b505af1158015610e75573d6000803e3d6000fd5b505050506040513d601f19601f82011682018060405250810190610e999190612213565b905080610edb576040517f08c379a0000000000000000000000000000000000000000000000000000000008152600401610ed290612964565b60405180910390fd5b6000610f098b8668056bc75e2d63100000868b610ef89190612bf2565b610f029190612bc1565b8d8861167c565b905060008111610f4e576040517f08c379a0000000000000000000000000000000000000000000000000000000008152600401610f4590612884565b60405180910390fd5b50505b60d060009054906101000a900473ffffffffffffffffffffffffffffffffffffffff1673ffffffffffffffffffffffffffffffffffffffff16638baa6bf16040518163ffffffff1660e01b8152600401600060405180830381600087803b158015610fbb57600080fd5b505af1158015610fcf573d6000803e3d6000fd5b505050505050508080610fe190612d9f565b915050610bc0565b505050505050565b610ff9611472565b600073ffffffffffffffffffffffffffffffffffffffff168173ffffffffffffffffffffffffffffffffffffffff161415611069576040517f08c379a0000000000000000000000000000000000000000000000000000000008152600401611060906129a4565b60405180910390fd5b80606b60006101000a81548173ffffffffffffffffffffffffffffffffffffffff021916908373ffffffffffffffffffffffffffffffffffffffff16021790555050565b60d060009054906101000a900473ffffffffffffffffffffffffffffffffffffffff1681565b6000600660019054906101000a900460ff1615905080801561110757506001600660009054906101000a900460ff1660ff16105b806111365750611116306118af565b15801561113557506001600660009054906101000a900460ff1660ff16145b5b611175576040517f08c379a000000000000000000000000000000000000000000000000000000000815260040161116c90612944565b60405180910390fd5b6001600660006101000a81548160ff021916908360ff16021790555080156111b3576001600660016101000a81548160ff0219169083151502179055505b600073ffffffffffffffffffffffffffffffffffffffff168273ffffffffffffffffffffffffffffffffffffffff161415611223576040517f08c379a000000000000000000000000000000000000000000000000000000000815260040161121a90612844565b60405180910390fd5b61122b6118d2565b61123361192b565b8160d060006101000a81548173ffffffffffffffffffffffffffffffffffffffff021916908373ffffffffffffffffffffffffffffffffffffffff16021790555080156112ce576000600660016101000a81548160ff0219169083151502179055507f7f26b83ff96e1f2b6a682f133852f6798a09c465da95921460cefb384740249860016040516112c59190612829565b60405180910390a15b5050565b606b60009054906101000a900473ffffffffffffffffffffffffffffffffffffffff1681565b600073ffffffffffffffffffffffffffffffffffffffff168173ffffffffffffffffffffffffffffffffffffffff161415611368576040517f08c379a000000000000000000000000000000000000000000000000000000000815260040161135f906129a4565b60405180910390fd5b606b60009054906101000a900473ffffffffffffffffffffffffffffffffffffffff1673ffffffffffffffffffffffffffffffffffffffff168173ffffffffffffffffffffffffffffffffffffffff16146113f8576040517f08c379a00000000000000000000000000000000000000000000000000000000081526004016113ef906128e4565b60405180910390fd5b3373ffffffffffffffffffffffffffffffffffffffff168173ffffffffffffffffffffffffffffffffffffffff1614611466576040517f08c379a000000000000000000000000000000000000000000000000000000000815260040161145d90612924565b60405180910390fd5b61146f81611553565b50565b61147a611984565b73ffffffffffffffffffffffffffffffffffffffff16611498610482565b73ffffffffffffffffffffffffffffffffffffffff16146114ee576040517f08c379a00000000000000000000000000000000000000000000000000000000081526004016114e590612984565b60405180910390fd5b565b6114f861198c565b6000609e60006101000a81548160ff0219169083151502179055507f5db9ee0a495bf2e6ff9c91a7834c1ba4fdd244a5e8aa4e537bd38aeae4b073aa61153c611984565b6040516115499190612778565b60405180910390a1565b6000603960009054906101000a900473ffffffffffffffffffffffffffffffffffffffff16905081603960006101000a81548173ffffffffffffffffffffffffffffffffffffffff021916908373ffffffffffffffffffffffffffffffffffffffff1602179055508173ffffffffffffffffffffffffffffffffffffffff168173ffffffffffffffffffffffffffffffffffffffff167f8be0079c531659141344cd1fd0a4f28419497f9722a3daafe3b4186f6b6457e060405160405180910390a35050565b6116216119d5565b6001609e60006101000a81548160ff0219169083151502179055507f62e78cea01bee320cd4e420270b5ea74000d11b0c9f74754ebdbfc544b05a258611665611984565b6040516116729190612778565b60405180910390a1565b60008060d060009054906101000a900473ffffffffffffffffffffffffffffffffffffffff1673ffffffffffffffffffffffffffffffffffffffff1663b631e80b6040518163ffffffff1660e01b815260040160206040518083038186803b1580156116e757600080fd5b505afa1580156116fb573d6000803e3d6000fd5b505050506040513d601f19601f8201168201806040525081019061171f919061226d565b9050600060d060009054906101000a900473ffffffffffffffffffffffffffffffffffffffff1673ffffffffffffffffffffffffffffffffffffffff1663744fbc7a6040518163ffffffff1660e01b815260040160206040518083038186803b15801561178b57600080fd5b505afa15801561179f573d6000803e3d6000fd5b505050506040513d601f19601f820116820180604052508101906117c3919061229a565b90508773ffffffffffffffffffffffffffffffffffffffff166323b872dd3330896040518463ffffffff1660e01b815260040161180293929190612793565b602060405180830381600087803b15801561181c57600080fd5b505af1158015611830573d6000803e3d6000fd5b505050506040513d601f19601f820116820180604052508101906118549190612213565b611893576040517f08c379a000000000000000000000000000000000000000000000000000000000815260040161188a906128a4565b60405180910390fd5b6118a28282868b8b8b8b611a1f565b9250505095945050505050565b6000808273ffffffffffffffffffffffffffffffffffffffff163b119050919050565b600660019054906101000a900460ff16611921576040517f08c379a0000000000000000000000000000000000000000000000000000000008152600401611918906129e4565b60405180910390fd5b611929611a5e565b565b600660019054906101000a900460ff1661197a576040517f08c379a0000000000000000000000000000000000000000000000000000000008152600401611971906129e4565b60405180910390fd5b611982611abf565b565b600033905090565b611994610408565b6119d3576040517f08c379a00000000000000000000000000000000000000000000000000000000081526004016119ca90612864565b60405180910390fd5b565b6119dd610408565b15611a1d576040517f08c379a0000000000000000000000000000000000000000000000000000000008152600401611a1490612904565b60405180910390fd5b565b6000808662ffffff161115611a4357611a3c888787878787611b2b565b9050611a53565b611a508786868686611cfd565b90505b979650505050505050565b600660019054906101000a900460ff16611aad576040517f08c379a0000000000000000000000000000000000000000000000000000000008152600401611aa4906129e4565b60405180910390fd5b611abd611ab8611984565b611553565b565b600660019054906101000a900460ff16611b0e576040517f08c379a0000000000000000000000000000000000000000000000000000000008152600401611b05906129e4565b60405180910390fd5b6000609e60006101000a81548160ff021916908315150217905550565b60008473ffffffffffffffffffffffffffffffffffffffff1663095ea7b388856040518363ffffffff1660e01b8152600401611b689291906127ca565b602060405180830381600087803b158015611b8257600080fd5b505af1158015611b96573d6000803e3d6000fd5b505050506040513d601f19601f82011682018060405250810190611bba9190612213565b5060006040518061010001604052808773ffffffffffffffffffffffffffffffffffffffff1681526020018673ffffffffffffffffffffffffffffffffffffffff1681526020018862ffffff1681526020018473ffffffffffffffffffffffffffffffffffffffff16815260200161012c42611c369190612b6b565b815260200185815260200160008152602001600073ffffffffffffffffffffffffffffffffffffffff1681525090508773ffffffffffffffffffffffffffffffffffffffff1663414bf389826040518263ffffffff1660e01b8152600401611c9e9190612a04565b602060405180830381600087803b158015611cb857600080fd5b505af1158015611ccc573d6000803e3d6000fd5b505050506040513d601f19601f82011682018060405250810190611cf0919061237b565b9150509695505050505050565b600080600267ffffffffffffffff811115611d1b57611d1a612e75565b5b604051908082528060200260200182016040528015611d495781602001602082028036833780820191505090505b5090508581600081518110611d6157611d60612e46565b5b602002602001019073ffffffffffffffffffffffffffffffffffffffff16908173ffffffffffffffffffffffffffffffffffffffff16815250508481600181518110611db057611daf612e46565b5b602002602001019073ffffffffffffffffffffffffffffffffffffffff16908173ffffffffffffffffffffffffffffffffffffffff168152505060008773ffffffffffffffffffffffffffffffffffffffff1663d06ca61f86846040518363ffffffff1660e01b8152600401611e27929190612a3b565b60006040518083038186803b158015611e3f57600080fd5b505afa158015611e53573d6000803e3d6000fd5b505050506040513d6000823e3d601f19601f82011682018060405250810190611e7c91906121ca565b90508673ffffffffffffffffffffffffffffffffffffffff1663095ea7b389876040518363ffffffff1660e01b8152600401611eb99291906127ca565b602060405180830381600087803b158015611ed357600080fd5b505af1158015611ee7573d6000803e3d6000fd5b505050506040513d601f19601f82011682018060405250810190611f0b9190612213565b508773ffffffffffffffffffffffffffffffffffffffff16635c11d7958660008588426040518663ffffffff1660e01b8152600401611f4e959493929190612a6b565b600060405180830381600087803b158015611f6857600080fd5b505af1158015611f7c573d6000803e3d6000fd5b5050505080600181518110611f9457611f93612e46565b5b60200260200101519250505095945050505050565b6000611fbc611fb784612aea565b612ac5565b90508083825260208201905082856020860282011115611fdf57611fde612ea9565b5b60005b8581101561200f5781611ff5888261212e565b845260208401935060208301925050600181019050611fe2565b5050509392505050565b600081359050612028816131ee565b92915050565b60008151905061203d816131ee565b92915050565b60008135905061205281613205565b92915050565b600082601f83011261206d5761206c612ea4565b5b815161207d848260208601611fa9565b91505092915050565b6000815190506120958161321c565b92915050565b6000813590506120aa81613233565b92915050565b6000815190506120bf8161324a565b92915050565b6000815190506120d481613261565b92915050565b6000815190506120e981613278565b92915050565b6000815190506120fe8161328f565b92915050565b600081519050612113816132a6565b92915050565b600081359050612128816132bd565b92915050565b60008151905061213d816132bd565b92915050565b60006020828403121561215957612158612eb3565b5b600061216784828501612019565b91505092915050565b60006020828403121561218657612185612eb3565b5b60006121948482850161202e565b91505092915050565b6000602082840312156121b3576121b2612eb3565b5b60006121c184828501612043565b91505092915050565b6000602082840312156121e0576121df612eb3565b5b600082015167ffffffffffffffff8111156121fe576121fd612eae565b5b61220a84828501612058565b91505092915050565b60006020828403121561222957612228612eb3565b5b600061223784828501612086565b91505092915050565b60006020828403121561225657612255612eb3565b5b60006122648482850161209b565b91505092915050565b60006020828403121561228357612282612eb3565b5b6000612291848285016120b0565b91505092915050565b6000602082840312156122b0576122af612eb3565b5b60006122be848285016120c5565b91505092915050565b6000602082840312156122dd576122dc612eb3565b5b60006122eb848285016120da565b91505092915050565b60006020828403121561230a57612309612eb3565b5b6000612318848285016120ef565b91505092915050565b60006020828403121561233757612336612eb3565b5b600061234584828501612104565b91505092915050565b60006020828403121561236457612363612eb3565b5b600061237284828501612119565b91505092915050565b60006020828403121561239157612390612eb3565b5b600061239f8482850161212e565b91505092915050565b60006123b483836123c0565b60208301905092915050565b6123c981612c4c565b82525050565b6123d881612c4c565b82525050565b60006123e982612b26565b6123f38185612b3e565b93506123fe83612b16565b8060005b8381101561242f57815161241688826123a8565b975061242183612b31565b925050600181019050612402565b5085935050505092915050565b61244581612c70565b82525050565b61245481612d14565b82525050565b61246381612d26565b82525050565b61247281612d38565b82525050565b6000612485601f83612b5a565b915061249082612ec9565b602082019050919050565b60006124a8601483612b5a565b91506124b382612ef2565b602082019050919050565b60006124cb600b83612b5a565b91506124d682612f1b565b602082019050919050565b60006124ee600f83612b5a565b91506124f982612f44565b602082019050919050565b6000612511601483612b5a565b915061251c82612f6d565b602082019050919050565b6000612534603283612b5a565b915061253f82612f96565b604082019050919050565b6000612557601083612b5a565b915061256282612fe5565b602082019050919050565b600061257a603a83612b5a565b91506125858261300e565b604082019050919050565b600061259d602e83612b5a565b91506125a88261305d565b604082019050919050565b60006125c0601783612b5a565b91506125cb826130ac565b602082019050919050565b60006125e3602083612b5a565b91506125ee826130d5565b602082019050919050565b6000612606603083612b5a565b9150612611826130fe565b604082019050919050565b6000612629602383612b5a565b91506126348261314d565b604082019050919050565b600061264c600083612b4f565b91506126578261319c565b600082019050919050565b600061266f602b83612b5a565b915061267a8261319f565b604082019050919050565b6101008201600082015161269c60008501826123c0565b5060208201516126af60208501826123c0565b5060408201516126c26040850182612736565b5060608201516126d560608501826123c0565b5060808201516126e86080850182612745565b5060a08201516126fb60a0850182612745565b5060c082015161270e60c0850182612745565b5060e082015161272160e0850182612727565b50505050565b61273081612cce565b82525050565b61273f81612cee565b82525050565b61274e81612cfd565b82525050565b61275d81612cfd565b82525050565b600061276e8261263f565b9150819050919050565b600060208201905061278d60008301846123cf565b92915050565b60006060820190506127a860008301866123cf565b6127b560208301856123cf565b6127c26040830184612754565b949350505050565b60006040820190506127df60008301856123cf565b6127ec6020830184612754565b9392505050565b6000602082019050612808600083018461243c565b92915050565b6000602082019050612823600083018461244b565b92915050565b600060208201905061283e6000830184612469565b92915050565b6000602082019050818103600083015261285d81612478565b9050919050565b6000602082019050818103600083015261287d8161249b565b9050919050565b6000602082019050818103600083015261289d816124be565b9050919050565b600060208201905081810360008301526128bd816124e1565b9050919050565b600060208201905081810360008301526128dd81612504565b9050919050565b600060208201905081810360008301526128fd81612527565b9050919050565b6000602082019050818103600083015261291d8161254a565b9050919050565b6000602082019050818103600083015261293d8161256d565b9050919050565b6000602082019050818103600083015261295d81612590565b9050919050565b6000602082019050818103600083015261297d816125b3565b9050919050565b6000602082019050818103600083015261299d816125d6565b9050919050565b600060208201905081810360008301526129bd816125f9565b9050919050565b600060208201905081810360008301526129dd8161261c565b9050919050565b600060208201905081810360008301526129fd81612662565b9050919050565b600061010082019050612a1a6000830184612685565b92915050565b6000602082019050612a356000830184612754565b92915050565b6000604082019050612a506000830185612754565b8181036020830152612a6281846123de565b90509392505050565b600060a082019050612a806000830188612754565b612a8d602083018761245a565b8181036040830152612a9f81866123de565b9050612aae60608301856123cf565b612abb6080830184612754565b9695505050505050565b6000612acf612ae0565b9050612adb8282612d6e565b919050565b6000604051905090565b600067ffffffffffffffff821115612b0557612b04612e75565b5b602082029050602081019050919050565b6000819050602082019050919050565b600081519050919050565b6000602082019050919050565b600082825260208201905092915050565b600081905092915050565b600082825260208201905092915050565b6000612b7682612cfd565b9150612b8183612cfd565b9250827fffffffffffffffffffffffffffffffffffffffffffffffffffffffffffffffff03821115612bb657612bb5612de8565b5b828201905092915050565b6000612bcc82612cfd565b9150612bd783612cfd565b925082612be757612be6612e17565b5b828204905092915050565b6000612bfd82612cfd565b9150612c0883612cfd565b9250817fffffffffffffffffffffffffffffffffffffffffffffffffffffffffffffffff0483118215151615612c4157612c40612de8565b5b828202905092915050565b6000612c5782612cce565b9050919050565b6000612c6982612cce565b9050919050565b60008115159050919050565b6000819050919050565b6000612c9182612c4c565b9050919050565b6000612ca382612c4c565b9050919050565b6000612cb582612c4c565b9050919050565b6000612cc782612c4c565b9050919050565b600073ffffffffffffffffffffffffffffffffffffffff82169050919050565b600062ffffff82169050919050565b6000819050919050565b600060ff82169050919050565b6000612d1f82612d4a565b9050919050565b6000612d3182612cfd565b9050919050565b6000612d4382612d07565b9050919050565b6000612d5582612d5c565b9050919050565b6000612d6782612cce565b9050919050565b612d7782612eb8565b810181811067ffffffffffffffff82111715612d9657612d95612e75565b5b80604052505050565b6000612daa82612cfd565b91507fffffffffffffffffffffffffffffffffffffffffffffffffffffffffffffffff821415612ddd57612ddc612de8565b5b600182019050919050565b7f4e487b7100000000000000000000000000000000000000000000000000000000600052601160045260246000fd5b7f4e487b7100000000000000000000000000000000000000000000000000000000600052601260045260246000fd5b7f4e487b7100000000000000000000000000000000000000000000000000000000600052603260045260246000fd5b7f4e487b7100000000000000000000000000000000000000000000000000000000600052604160045260246000fd5b600080fd5b600080fd5b600080fd5b600080fd5b6000601f19601f8301169050919050565b7f496e76616c696420666163746f72792073746f72616765206164647265737300600082015250565b7f5061757361626c653a206e6f7420706175736564000000000000000000000000600082015250565b7f53776170206661696c6564000000000000000000000000000000000000000000600082015250565b7f5472616e73666572206661696c65640000000000000000000000000000000000600082015250565b7f496e73756666696369656e742062616c616e6365000000000000000000000000600082015250565b7f50726f706f7361626c654f776e61626c653a206e6577206f776e65722069732060008201527f6e6f742070726f706f736564206f776e65720000000000000000000000000000602082015250565b7f5061757361626c653a2070617573656400000000000000000000000000000000600082015250565b7f50726f706f7361626c654f776e61626c653a20746869732063616c6c206d757360008201527f74206265206d61646520627920746865206e6577206f776e6572000000000000602082015250565b7f496e697469616c697a61626c653a20636f6e747261637420697320616c72656160008201527f647920696e697469616c697a6564000000000000000000000000000000000000602082015250565b7f5661756c74207769746864726177616c206661696c6564000000000000000000600082015250565b7f4f776e61626c653a2063616c6c6572206973206e6f7420746865206f776e6572600082015250565b7f50726f706f7361626c654f776e61626c653a206e6577206f776e65722069732060008201527f746865207a65726f206164647265737300000000000000000000000000000000602082015250565b7f446f4e6f7453656e6446756e64734469726563746c79546f546865436f6e747260008201527f6163740000000000000000000000000000000000000000000000000000000000602082015250565b50565b7f496e697469616c697a61626c653a20636f6e7472616374206973206e6f74206960008201527f6e697469616c697a696e67000000000000000000000000000000000000000000602082015250565b6131f781612c4c565b811461320257600080fd5b50565b61320e81612c5e565b811461321957600080fd5b50565b61322581612c70565b811461323057600080fd5b50565b61323c81612c7c565b811461324757600080fd5b50565b61325381612c86565b811461325e57600080fd5b50565b61326a81612c98565b811461327557600080fd5b50565b61328181612caa565b811461328c57600080fd5b50565b61329881612cbc565b81146132a357600080fd5b50565b6132af81612cee565b81146132ba57600080fd5b50565b6132c681612cfd565b81146132d157600080fd5b5056fea26469706673582212200375ff489bfd6e7bd4d1881d2f7ef3702dcef832f67b563187ed8674b87e9a6f64736f6c63430008070033","linkReferences":{}},"methodIdentifiers":{"factoryStorage()":"c06e1ae2","getPendingRequest(bytes32)":"88b12d55","initialize(address)":"c4d66de8","owner()":"8da5cb5b","pause()":"8456cb59","paused()":"5c975abb","proposeOwner(address)":"b5ed298a","proposedOwner()":"d153b60c","reIndexAndReweight()":"a2ab905d","renounceOwnership()":"715018a6","transferOwnership(address)":"f2fde38b","unpause()":"3f4ba83a","withdraw(uint256)":"2e1a7d4d"},"id":3}