{"abi":[{"type":"receive","stateMutability":"payable"},{"type":"function","name":"factoryStorage","inputs":[],"outputs":[{"name":"","type":"address","internalType":"contract IndexFactoryStorage"}],"stateMutability":"view"},{"type":"function","name":"getPendingRequest","inputs":[{"name":"requestId","type":"bytes32","internalType":"bytes32"}],"outputs":[{"name":"","type":"address","internalType":"address"}],"stateMutability":"view"},{"type":"function","name":"initialize","inputs":[{"name":"_factoryStorage","type":"address","internalType":"address payable"}],"outputs":[],"stateMutability":"nonpayable"},{"type":"function","name":"owner","inputs":[],"outputs":[{"name":"","type":"address","internalType":"address"}],"stateMutability":"view"},{"type":"function","name":"pause","inputs":[],"outputs":[],"stateMutability":"nonpayable"},{"type":"function","name":"paused","inputs":[],"outputs":[{"name":"","type":"bool","internalType":"bool"}],"stateMutability":"view"},{"type":"function","name":"proposeOwner","inputs":[{"name":"_proposedOwner","type":"address","internalType":"address"}],"outputs":[],"stateMutability":"nonpayable"},{"type":"function","name":"proposedOwner","inputs":[],"outputs":[{"name":"","type":"address","internalType":"address"}],"stateMutability":"view"},{"type":"function","name":"reIndexAndReweight","inputs":[],"outputs":[],"stateMutability":"nonpayable"},{"type":"function","name":"renounceOwnership","inputs":[],"outputs":[],"stateMutability":"nonpayable"},{"type":"function","name":"transferOwnership","inputs":[{"name":"newOwner","type":"address","internalType":"address"}],"outputs":[],"stateMutability":"nonpayable"},{"type":"function","name":"unpause","inputs":[],"outputs":[],"stateMutability":"nonpayable"},{"type":"function","name":"withdraw","inputs":[{"name":"amount","type":"uint256","internalType":"uint256"}],"outputs":[],"stateMutability":"nonpayable"},{"type":"event","name":"ChainlinkCancelled","inputs":[{"name":"id","type":"bytes32","indexed":true,"internalType":"bytes32"}],"anonymous":false},{"type":"event","name":"ChainlinkFulfilled","inputs":[{"name":"id","type":"bytes32","indexed":true,"internalType":"bytes32"}],"anonymous":false},{"type":"event","name":"ChainlinkRequested","inputs":[{"name":"id","type":"bytes32","indexed":true,"internalType":"bytes32"}],"anonymous":false},{"type":"event","name":"Initialized","inputs":[{"name":"version","type":"uint8","indexed":false,"internalType":"uint8"}],"anonymous":false},{"type":"event","name":"OwnershipTransferred","inputs":[{"name":"previousOwner","type":"address","indexed":true,"internalType":"address"},{"name":"newOwner","type":"address","indexed":true,"internalType":"address"}],"anonymous":false},{"type":"event","name":"Paused","inputs":[{"name":"account","type":"address","indexed":false,"internalType":"address"}],"anonymous":false},{"type":"event","name":"Unpaused","inputs":[{"name":"account","type":"address","indexed":false,"internalType":"address"}],"anonymous":false}],"bytecode":{"object":"0x608060405234801561001057600080fd5b50611cd0806100206000396000f3fe6080604052600436106100c65760003560e01c80638da5cb5b1161007f578063c06e1ae211610059578063c06e1ae214610253578063c4d66de814610273578063d153b60c14610293578063f2fde38b146102b357600080fd5b80638da5cb5b14610200578063a2ab905d1461021e578063b5ed298a1461023357600080fd5b80632e1a7d4d146101295780633f4ba83a1461014b5780635c975abb14610160578063715018a6146101885780638456cb591461019d57806388b12d55146101b257600080fd5b366101245760405162461bcd60e51b815260206004820152602360248201527f446f4e6f7453656e6446756e64734469726563746c79546f546865436f6e74726044820152621858dd60ea1b60648201526084015b60405180910390fd5b600080fd5b34801561013557600080fd5b50610149610144366004611a3c565b6102d3565b005b34801561015757600080fd5b506101496103cc565b34801561016c57600080fd5b50609e5460ff1660405190151581526020015b60405180910390f35b34801561019457600080fd5b506101496103de565b3480156101a957600080fd5b506101496103f0565b3480156101be57600080fd5b506101e86101cd366004611a3c565b6000908152600560205260409020546001600160a01b031690565b6040516001600160a01b03909116815260200161017f565b34801561020c57600080fd5b506039546001600160a01b03166101e8565b34801561022a57600080fd5b50610149610400565b34801561023f57600080fd5b5061014961024e366004611914565b610d78565b34801561025f57600080fd5b5060d0546101e8906001600160a01b031681565b34801561027f57600080fd5b5061014961028e366004611914565b610dc8565b34801561029f57600080fd5b50606b546101e8906001600160a01b031681565b3480156102bf57600080fd5b506101496102ce366004611914565b610f52565b6102db61107a565b478111156103225760405162461bcd60e51b8152602060048201526014602482015273496e73756666696369656e742062616c616e636560601b604482015260640161011b565b60006103366039546001600160a01b031690565b6001600160a01b03168260405160006040518083038185875af1925050503d8060008114610380576040519150601f19603f3d011682016040523d82523d6000602084013e610385565b606091505b50509050806103c85760405162461bcd60e51b815260206004820152600f60248201526e151c985b9cd9995c8819985a5b1959608a1b604482015260640161011b565b5050565b6103d461107a565b6103dc6110d4565b565b6103e661107a565b6103dc6000611126565b6103f861107a565b6103dc611178565b61040861107a565b60d05460408051633fc8cef360e01b815290516000926001600160a01b031691633fc8cef3916004808301926020929190829003018186803b15801561044d57600080fd5b505afa158015610461573d6000803e3d6000fd5b505050506040513d601f19601f820116820180604052508101906104859190611938565b9050600060d060009054906101000a90046001600160a01b03166001600160a01b031663fbfa77cf6040518163ffffffff1660e01b815260040160206040518083038186803b1580156104d757600080fd5b505afa1580156104eb573d6000803e3d6000fd5b505050506040513d601f19601f8201168201806040525081019061050f9190611938565b9050600060d060009054906101000a90046001600160a01b03166001600160a01b03166353fd43326040518163ffffffff1660e01b815260040160206040518083038186803b15801561056157600080fd5b505afa158015610575573d6000803e3d6000fd5b505050506040513d601f19601f820116820180604052508101906105999190611a7a565b9050600060d060009054906101000a90046001600160a01b03166001600160a01b031663c8599ded6040518163ffffffff1660e01b815260040160206040518083038186803b1580156105eb57600080fd5b505afa1580156105ff573d6000803e3d6000fd5b505050506040513d601f19601f820116820180604052508101906106239190611a7a565b905060005b828110156109895760d05460405163264cae9360e21b8152600481018390526000916001600160a01b031690639932ba4c9060240160206040518083038186803b15801561067557600080fd5b505afa158015610689573d6000803e3d6000fd5b505050506040513d601f19601f820116820180604052508101906106ad9190611938565b60d054604051633259966560e01b81526001600160a01b0380841660048301529293506000929091169063325996659060240160206040518083038186803b1580156106f857600080fd5b505afa15801561070c573d6000803e3d6000fd5b505050506040513d601f19601f820116820180604052508101906107309190611a55565b9050866001600160a01b0316826001600160a01b031614610974576040516370a0823160e01b81526001600160a01b03808816600483018190526000929091631c20fadd9186913091908316906370a082319060240160206040518083038186803b15801561079e57600080fd5b505afa1580156107b2573d6000803e3d6000fd5b505050506040513d601f19601f820116820180604052508101906107d69190611a7a565b6040516001600160e01b031960e086901b1681526001600160a01b0393841660048201529290911660248301526044820152606401602060405180830381600087803b15801561082557600080fd5b505af1158015610839573d6000803e3d6000fd5b505050506040513d601f19601f8201168201806040525081019061085d9190611a1a565b9050806108a65760405162461bcd60e51b815260206004820152601760248201527615985d5b1d081dda5d1a191c985dd85b0819985a5b1959604a1b604482015260640161011b565b6040516370a0823160e01b81526001600160a01b0388811660048301526000916109319186918c918316906370a082319060240160206040518083038186803b1580156108f257600080fd5b505afa158015610906573d6000803e3d6000fd5b505050506040513d601f19601f8201168201806040525081019061092a9190611a7a565b8b876111b5565b9050600081116109715760405162461bcd60e51b815260206004820152600b60248201526a14ddd85c0819985a5b195960aa1b604482015260640161011b565b50505b5050808061098190611c28565b915050610628565b506040516370a0823160e01b81523060048201526000906001600160a01b038616906370a082319060240160206040518083038186803b1580156109cc57600080fd5b505afa1580156109e0573d6000803e3d6000fd5b505050506040513d601f19601f82011682018060405250810190610a049190611a7a565b905060005b82811015610d705760d05460405163239aad0d60e01b8152600481018390526000916001600160a01b03169063239aad0d9060240160206040518083038186803b158015610a5657600080fd5b505afa158015610a6a573d6000803e3d6000fd5b505050506040513d601f19601f82011682018060405250810190610a8e9190611938565b60d054604051633259966560e01b81526001600160a01b0380841660048301529293506000929091169063325996659060240160206040518083038186803b158015610ad957600080fd5b505afa158015610aed573d6000803e3d6000fd5b505050506040513d601f19601f82011682018060405250810190610b119190611a55565b60d05460405162967c1760e71b81526001600160a01b03858116600483015292935060009290911690634b3e0b809060240160206040518083038186803b158015610b5b57600080fd5b505afa158015610b6f573d6000803e3d6000fd5b505050506040513d601f19601f82011682018060405250810190610b939190611a7a565b9050886001600160a01b0316836001600160a01b031614610cf257604051631c20fadd60e01b81526001600160a01b038a8116600483015230602483015260448201879052600091908a1690631c20fadd90606401602060405180830381600087803b158015610c0257600080fd5b505af1158015610c16573d6000803e3d6000fd5b505050506040513d601f19601f82011682018060405250810190610c3a9190611a1a565b905080610c835760405162461bcd60e51b815260206004820152601760248201527615985d5b1d081dda5d1a191c985dd85b0819985a5b1959604a1b604482015260640161011b565b6000610caf8b8668056bc75e2d63100000610c9e878c611c09565b610ca89190611be7565b8d886111b5565b905060008111610cef5760405162461bcd60e51b815260206004820152600b60248201526a14ddd85c0819985a5b195960aa1b604482015260640161011b565b50505b60d060009054906101000a90046001600160a01b03166001600160a01b0316638baa6bf16040518163ffffffff1660e01b8152600401600060405180830381600087803b158015610d4257600080fd5b505af1158015610d56573d6000803e3d6000fd5b505050505050508080610d6890611c28565b915050610a09565b505050505050565b610d8061107a565b6001600160a01b038116610da65760405162461bcd60e51b815260040161011b90611ad7565b606b80546001600160a01b0319166001600160a01b0392909216919091179055565b600654610100900460ff1615808015610de85750600654600160ff909116105b80610e025750303b158015610e02575060065460ff166001145b610e655760405162461bcd60e51b815260206004820152602e60248201527f496e697469616c697a61626c653a20636f6e747261637420697320616c72656160448201526d191e481a5b9a5d1a585b1a5e995960921b606482015260840161011b565b6006805460ff191660011790558015610e88576006805461ff0019166101001790555b6001600160a01b038216610ede5760405162461bcd60e51b815260206004820152601f60248201527f496e76616c696420666163746f72792073746f72616765206164647265737300604482015260640161011b565b610ee66113aa565b610eee6113d9565b60d080546001600160a01b0319166001600160a01b03841617905580156103c8576006805461ff0019169055604051600181527f7f26b83ff96e1f2b6a682f133852f6798a09c465da95921460cefb38474024989060200160405180910390a15050565b6001600160a01b038116610f785760405162461bcd60e51b815260040161011b90611ad7565b606b546001600160a01b03828116911614610ff05760405162461bcd60e51b815260206004820152603260248201527f50726f706f7361626c654f776e61626c653a206e6577206f776e6572206973206044820152713737ba10383937b837b9b2b21037bbb732b960711b606482015260840161011b565b6001600160a01b038116331461106e5760405162461bcd60e51b815260206004820152603a60248201527f50726f706f7361626c654f776e61626c653a20746869732063616c6c206d757360448201527f74206265206d61646520627920746865206e6577206f776e6572000000000000606482015260840161011b565b61107781611126565b50565b6039546001600160a01b031633146103dc5760405162461bcd60e51b815260206004820181905260248201527f4f776e61626c653a2063616c6c6572206973206e6f7420746865206f776e6572604482015260640161011b565b6110dc611408565b609e805460ff191690557f5db9ee0a495bf2e6ff9c91a7834c1ba4fdd244a5e8aa4e537bd38aeae4b073aa335b6040516001600160a01b03909116815260200160405180910390a1565b603980546001600160a01b038381166001600160a01b0319831681179093556040519116919082907f8be0079c531659141344cd1fd0a4f28419497f9722a3daafe3b4186f6b6457e090600090a35050565b611180611451565b609e805460ff191660011790557f62e78cea01bee320cd4e420270b5ea74000d11b0c9f74754ebdbfc544b05a2586111093390565b60008060d060009054906101000a90046001600160a01b03166001600160a01b031663b631e80b6040518163ffffffff1660e01b815260040160206040518083038186803b15801561120657600080fd5b505afa15801561121a573d6000803e3d6000fd5b505050506040513d601f19601f8201168201806040525081019061123e9190611938565b9050600060d060009054906101000a90046001600160a01b03166001600160a01b031663744fbc7a6040518163ffffffff1660e01b815260040160206040518083038186803b15801561129057600080fd5b505afa1580156112a4573d6000803e3d6000fd5b505050506040513d601f19601f820116820180604052508101906112c89190611938565b6040516323b872dd60e01b8152336004820152306024820152604481018890529091506001600160a01b038916906323b872dd90606401602060405180830381600087803b15801561131957600080fd5b505af115801561132d573d6000803e3d6000fd5b505050506040513d601f19601f820116820180604052508101906113519190611a1a565b61138f5760405162461bcd60e51b815260206004820152600f60248201526e151c985b9cd9995c8819985a5b1959608a1b604482015260640161011b565b61139e8282868b8b8b8b611497565b98975050505050505050565b600654610100900460ff166113d15760405162461bcd60e51b815260040161011b90611b27565b6103dc6114d4565b600654610100900460ff166114005760405162461bcd60e51b815260040161011b90611b27565b6103dc611504565b609e5460ff166103dc5760405162461bcd60e51b815260206004820152601460248201527314185d5cd8589b194e881b9bdd081c185d5cd95960621b604482015260640161011b565b609e5460ff16156103dc5760405162461bcd60e51b815260206004820152601060248201526f14185d5cd8589b194e881c185d5cd95960821b604482015260640161011b565b600062ffffff8616156114b9576114b2888787878787611537565b90506114c9565b6114c687868686866116fe565b90505b979650505050505050565b600654610100900460ff166114fb5760405162461bcd60e51b815260040161011b90611b27565b6103dc33611126565b600654610100900460ff1661152b5760405162461bcd60e51b815260040161011b90611b27565b609e805460ff19169055565b60405163095ea7b360e01b81526001600160a01b038781166004830152602482018490526000919086169063095ea7b390604401602060405180830381600087803b15801561158557600080fd5b505af1158015611599573d6000803e3d6000fd5b505050506040513d601f19601f820116820180604052508101906115bd9190611a1a565b506000604051806101000160405280876001600160a01b03168152602001866001600160a01b031681526020018862ffffff168152602001846001600160a01b031681526020014261012c6116129190611bcf565b8152602080820187905260006040808401829052606093840191909152805163414bf38960e01b815284516001600160a01b03908116600483015292850151831660248201529084015162ffffff16604482015291830151811660648301526080830151608483015260a083015160a483015260c083015160c483015260e0830151811660e48301529192509089169063414bf3899061010401602060405180830381600087803b1580156116c657600080fd5b505af11580156116da573d6000803e3d6000fd5b505050506040513d601f19601f8201168201806040525081019061139e9190611a7a565b60408051600280825260608201835260009283929190602083019080368337019050509050858160008151811061173757611737611c59565b60200260200101906001600160a01b031690816001600160a01b031681525050848160018151811061176b5761176b611c59565b6001600160a01b03928316602091820292909201015260405163d06ca61f60e01b815260009189169063d06ca61f906117aa9088908690600401611b72565b60006040518083038186803b1580156117c257600080fd5b505afa1580156117d6573d6000803e3d6000fd5b505050506040513d6000823e601f3d908101601f191682016040526117fe9190810190611955565b60405163095ea7b360e01b81526001600160a01b038a81166004830152602482018890529192509088169063095ea7b390604401602060405180830381600087803b15801561184c57600080fd5b505af1158015611860573d6000803e3d6000fd5b505050506040513d601f19601f820116820180604052508101906118849190611a1a565b50604051635c11d79560e01b81526001600160a01b03891690635c11d795906118ba90889060009087908a904290600401611b93565b600060405180830381600087803b1580156118d457600080fd5b505af11580156118e8573d6000803e3d6000fd5b50505050806001815181106118ff576118ff611c59565b60200260200101519250505095945050505050565b60006020828403121561192657600080fd5b813561193181611c85565b9392505050565b60006020828403121561194a57600080fd5b815161193181611c85565b6000602080838503121561196857600080fd5b825167ffffffffffffffff8082111561198057600080fd5b818501915085601f83011261199457600080fd5b8151818111156119a6576119a6611c6f565b8060051b604051601f19603f830116810181811085821117156119cb576119cb611c6f565b604052828152858101935084860182860187018a10156119ea57600080fd5b600095505b83861015611a0d5780518552600195909501949386019386016119ef565b5098975050505050505050565b600060208284031215611a2c57600080fd5b8151801515811461193157600080fd5b600060208284031215611a4e57600080fd5b5035919050565b600060208284031215611a6757600080fd5b815162ffffff8116811461193157600080fd5b600060208284031215611a8c57600080fd5b5051919050565b600081518084526020808501945080840160005b83811015611acc5781516001600160a01b031687529582019590820190600101611aa7565b509495945050505050565b60208082526030908201527f50726f706f7361626c654f776e61626c653a206e6577206f776e65722069732060408201526f746865207a65726f206164647265737360801b606082015260800190565b6020808252602b908201527f496e697469616c697a61626c653a20636f6e7472616374206973206e6f74206960408201526a6e697469616c697a696e6760a81b606082015260800190565b828152604060208201526000611b8b6040830184611a93565b949350505050565b85815284602082015260a060408201526000611bb260a0830186611a93565b6001600160a01b0394909416606083015250608001529392505050565b60008219821115611be257611be2611c43565b500190565b600082611c0457634e487b7160e01b600052601260045260246000fd5b500490565b6000816000190483118215151615611c2357611c23611c43565b500290565b6000600019821415611c3c57611c3c611c43565b5060010190565b634e487b7160e01b600052601160045260246000fd5b634e487b7160e01b600052603260045260246000fd5b634e487b7160e01b600052604160045260246000fd5b6001600160a01b038116811461107757600080fdfea26469706673582212208fde573e491fc2558672e9722adacd432f5266a08ec6811ce649c48b86243ebf64736f6c63430008070033","linkReferences":{}},"methodIdentifiers":{"factoryStorage()":"c06e1ae2","getPendingRequest(bytes32)":"88b12d55","initialize(address)":"c4d66de8","owner()":"8da5cb5b","pause()":"8456cb59","paused()":"5c975abb","proposeOwner(address)":"b5ed298a","proposedOwner()":"d153b60c","reIndexAndReweight()":"a2ab905d","renounceOwnership()":"715018a6","transferOwnership(address)":"f2fde38b","unpause()":"3f4ba83a","withdraw(uint256)":"2e1a7d4d"},"id":3}