{"abi":[{"type":"receive","stateMutability":"payable"},{"type":"function","name":"factoryStorage","inputs":[],"outputs":[{"name":"","type":"address","internalType":"contract IndexFactoryStorage"}],"stateMutability":"view"},{"type":"function","name":"initialize","inputs":[{"name":"_factoryStorage","type":"address","internalType":"address payable"}],"outputs":[],"stateMutability":"nonpayable"},{"type":"function","name":"owner","inputs":[],"outputs":[{"name":"","type":"address","internalType":"address"}],"stateMutability":"view"},{"type":"function","name":"pause","inputs":[],"outputs":[],"stateMutability":"nonpayable"},{"type":"function","name":"paused","inputs":[],"outputs":[{"name":"","type":"bool","internalType":"bool"}],"stateMutability":"view"},{"type":"function","name":"proposeOwner","inputs":[{"name":"_proposedOwner","type":"address","internalType":"address"}],"outputs":[],"stateMutability":"nonpayable"},{"type":"function","name":"proposedOwner","inputs":[],"outputs":[{"name":"","type":"address","internalType":"address"}],"stateMutability":"view"},{"type":"function","name":"reIndexAndReweight","inputs":[],"outputs":[],"stateMutability":"nonpayable"},{"type":"function","name":"renounceOwnership","inputs":[],"outputs":[],"stateMutability":"nonpayable"},{"type":"function","name":"transferOwnership","inputs":[{"name":"newOwner","type":"address","internalType":"address"}],"outputs":[],"stateMutability":"nonpayable"},{"type":"function","name":"unpause","inputs":[],"outputs":[],"stateMutability":"nonpayable"},{"type":"event","name":"ChainlinkCancelled","inputs":[{"name":"id","type":"bytes32","indexed":true,"internalType":"bytes32"}],"anonymous":false},{"type":"event","name":"ChainlinkFulfilled","inputs":[{"name":"id","type":"bytes32","indexed":true,"internalType":"bytes32"}],"anonymous":false},{"type":"event","name":"ChainlinkRequested","inputs":[{"name":"id","type":"bytes32","indexed":true,"internalType":"bytes32"}],"anonymous":false},{"type":"event","name":"Initialized","inputs":[{"name":"version","type":"uint8","indexed":false,"internalType":"uint8"}],"anonymous":false},{"type":"event","name":"OwnershipTransferred","inputs":[{"name":"previousOwner","type":"address","indexed":true,"internalType":"address"},{"name":"newOwner","type":"address","indexed":true,"internalType":"address"}],"anonymous":false},{"type":"event","name":"Paused","inputs":[{"name":"account","type":"address","indexed":false,"internalType":"address"}],"anonymous":false},{"type":"event","name":"Unpaused","inputs":[{"name":"account","type":"address","indexed":false,"internalType":"address"}],"anonymous":false}],"bytecode":{"object":"0x608060405234801561001057600080fd5b5061165b806100206000396000f3fe6080604052600436106100a05760003560e01c8063a2ab905d11610064578063a2ab905d14610147578063b5ed298a1461015c578063c06e1ae21461017c578063c4d66de81461019c578063d153b60c146101bc578063f2fde38b146101dc57600080fd5b80633f4ba83a146100ac5780635c975abb146100c3578063715018a6146100eb5780638456cb59146101005780638da5cb5b1461011557600080fd5b366100a757005b600080fd5b3480156100b857600080fd5b506100c16101fc565b005b3480156100cf57600080fd5b50609e5460ff1660405190151581526020015b60405180910390f35b3480156100f757600080fd5b506100c161020e565b34801561010c57600080fd5b506100c1610220565b34801561012157600080fd5b506039546001600160a01b03165b6040516001600160a01b0390911681526020016100e2565b34801561015357600080fd5b506100c1610230565b34801561016857600080fd5b506100c16101773660046113c3565b6109e1565b34801561018857600080fd5b5060d05461012f906001600160a01b031681565b3480156101a857600080fd5b506100c16101b73660046113c3565b610a3a565b3480156101c857600080fd5b50606b5461012f906001600160a01b031681565b3480156101e857600080fd5b506100c16101f73660046113c3565b610b6f565b610204610c97565b61020c610cf1565b565b610216610c97565b61020c6000610d43565b610228610c97565b61020c610d95565b610238610c97565b60d05460408051633fc8cef360e01b815290516000926001600160a01b031691633fc8cef3916004808301926020929190829003018186803b15801561027d57600080fd5b505afa158015610291573d6000803e3d6000fd5b505050506040513d601f19601f820116820180604052508101906102b591906113e7565b9050600060d060009054906101000a90046001600160a01b03166001600160a01b031663fbfa77cf6040518163ffffffff1660e01b815260040160206040518083038186803b15801561030757600080fd5b505afa15801561031b573d6000803e3d6000fd5b505050506040513d601f19601f8201168201806040525081019061033f91906113e7565b9050600060d060009054906101000a90046001600160a01b03166001600160a01b03166353fd43326040518163ffffffff1660e01b815260040160206040518083038186803b15801561039157600080fd5b505afa1580156103a5573d6000803e3d6000fd5b505050506040513d601f19601f820116820180604052508101906103c9919061144b565b9050600060d060009054906101000a90046001600160a01b03166001600160a01b031663c8599ded6040518163ffffffff1660e01b815260040160206040518083038186803b15801561041b57600080fd5b505afa15801561042f573d6000803e3d6000fd5b505050506040513d601f19601f82011682018060405250810190610453919061144b565b905060005b828110156107085760d05460405163264cae9360e21b8152600481018390526000916001600160a01b031690639932ba4c9060240160206040518083038186803b1580156104a557600080fd5b505afa1580156104b9573d6000803e3d6000fd5b505050506040513d601f19601f820116820180604052508101906104dd91906113e7565b60d054604051633259966560e01b81526001600160a01b0380841660048301529293506000929091169063325996659060240160206040518083038186803b15801561052857600080fd5b505afa15801561053c573d6000803e3d6000fd5b505050506040513d601f19601f820116820180604052508101906105609190611426565b9050866001600160a01b0316826001600160a01b0316146106f3576040516370a0823160e01b81526001600160a01b038088166004830181905291631c20fadd91859130918316906370a082319060240160206040518083038186803b1580156105c957600080fd5b505afa1580156105dd573d6000803e3d6000fd5b505050506040513d601f19601f82011682018060405250810190610601919061144b565b6040516001600160e01b031960e086901b1681526001600160a01b0393841660048201529290911660248301526044820152606401600060405180830381600087803b15801561065057600080fd5b505af1158015610664573d6000803e3d6000fd5b50506040516370a0823160e01b81526001600160a01b0389811660048301526106f193508592508a91908316906370a082319060240160206040518083038186803b1580156106b257600080fd5b505afa1580156106c6573d6000803e3d6000fd5b505050506040513d601f19601f820116820180604052508101906106ea919061144b565b8985610dd2565b505b50508080610700906115c9565b915050610458565b506040516370a0823160e01b81523060048201526000906001600160a01b038616906370a082319060240160206040518083038186803b15801561074b57600080fd5b505afa15801561075f573d6000803e3d6000fd5b505050506040513d601f19601f82011682018060405250810190610783919061144b565b905060005b828110156109d95760d05460405163239aad0d60e01b8152600481018390526000916001600160a01b03169063239aad0d9060240160206040518083038186803b1580156107d557600080fd5b505afa1580156107e9573d6000803e3d6000fd5b505050506040513d601f19601f8201168201806040525081019061080d91906113e7565b60d054604051633259966560e01b81526001600160a01b0380841660048301529293506000929091169063325996659060240160206040518083038186803b15801561085857600080fd5b505afa15801561086c573d6000803e3d6000fd5b505050506040513d601f19601f820116820180604052508101906108909190611426565b60d05460405162967c1760e71b81526001600160a01b03858116600483015292935060009290911690634b3e0b809060240160206040518083038186803b1580156108da57600080fd5b505afa1580156108ee573d6000803e3d6000fd5b505050506040513d601f19601f82011682018060405250810190610912919061144b565b9050886001600160a01b0316836001600160a01b0316146109c357604051631c20fadd60e01b81526001600160a01b038a8116600483015230602483015260448201879052891690631c20fadd90606401600060405180830381600087803b15801561097d57600080fd5b505af1158015610991573d6000803e3d6000fd5b505050506109c1898468056bc75e2d6310000084896109b091906115aa565b6109ba9190611588565b8b86610dd2565b505b50505080806109d1906115c9565b915050610788565b505050505050565b6109e9610c97565b6001600160a01b038116610a185760405162461bcd60e51b8152600401610a0f90611464565b60405180910390fd5b606b80546001600160a01b0319166001600160a01b0392909216919091179055565b600654610100900460ff1615808015610a5a5750600654600160ff909116105b80610a745750303b158015610a74575060065460ff166001145b610ad75760405162461bcd60e51b815260206004820152602e60248201527f496e697469616c697a61626c653a20636f6e747261637420697320616c72656160448201526d191e481a5b9a5d1a585b1a5e995960921b6064820152608401610a0f565b6006805460ff191660011790558015610afa576006805461ff0019166101001790555b610b02610f01565b610b0a610f30565b60d080546001600160a01b0319166001600160a01b0384161790558015610b6b576006805461ff0019169055604051600181527f7f26b83ff96e1f2b6a682f133852f6798a09c465da95921460cefb38474024989060200160405180910390a15b5050565b6001600160a01b038116610b955760405162461bcd60e51b8152600401610a0f90611464565b606b546001600160a01b03828116911614610c0d5760405162461bcd60e51b815260206004820152603260248201527f50726f706f7361626c654f776e61626c653a206e6577206f776e6572206973206044820152713737ba10383937b837b9b2b21037bbb732b960711b6064820152608401610a0f565b6001600160a01b0381163314610c8b5760405162461bcd60e51b815260206004820152603a60248201527f50726f706f7361626c654f776e61626c653a20746869732063616c6c206d757360448201527f74206265206d61646520627920746865206e6577206f776e65720000000000006064820152608401610a0f565b610c9481610d43565b50565b6039546001600160a01b0316331461020c5760405162461bcd60e51b815260206004820181905260248201527f4f776e61626c653a2063616c6c6572206973206e6f7420746865206f776e65726044820152606401610a0f565b610cf9610f5f565b609e805460ff191690557f5db9ee0a495bf2e6ff9c91a7834c1ba4fdd244a5e8aa4e537bd38aeae4b073aa335b6040516001600160a01b03909116815260200160405180910390a1565b603980546001600160a01b038381166001600160a01b0319831681179093556040519116919082907f8be0079c531659141344cd1fd0a4f28419497f9722a3daafe3b4186f6b6457e090600090a35050565b610d9d610fa8565b609e805460ff191660011790557f62e78cea01bee320cd4e420270b5ea74000d11b0c9f74754ebdbfc544b05a258610d263390565b60008060d060009054906101000a90046001600160a01b03166001600160a01b031663b631e80b6040518163ffffffff1660e01b815260040160206040518083038186803b158015610e2357600080fd5b505afa158015610e37573d6000803e3d6000fd5b505050506040513d601f19601f82011682018060405250810190610e5b91906113e7565b9050600060d060009054906101000a90046001600160a01b03166001600160a01b031663744fbc7a6040518163ffffffff1660e01b815260040160206040518083038186803b158015610ead57600080fd5b505afa158015610ec1573d6000803e3d6000fd5b505050506040513d601f19601f82011682018060405250810190610ee591906113e7565b9050610ef68282868b8b8b8b610fee565b505095945050505050565b600654610100900460ff16610f285760405162461bcd60e51b8152600401610a0f906114b4565b61020c611023565b600654610100900460ff16610f575760405162461bcd60e51b8152600401610a0f906114b4565b61020c611053565b609e5460ff1661020c5760405162461bcd60e51b815260206004820152601460248201527314185d5cd8589b194e881b9bdd081c185d5cd95960621b6044820152606401610a0f565b609e5460ff161561020c5760405162461bcd60e51b815260206004820152601060248201526f14185d5cd8589b194e881c185d5cd95960821b6044820152606401610a0f565b62ffffff85161561100d57611007878686868686611086565b5061101a565b61101a8685858585611259565b50505050505050565b600654610100900460ff1661104a5760405162461bcd60e51b8152600401610a0f906114b4565b61020c33610d43565b600654610100900460ff1661107a5760405162461bcd60e51b8152600401610a0f906114b4565b609e805460ff19169055565b60405163095ea7b360e01b81526001600160a01b038781166004830152602482018490526000919086169063095ea7b390604401602060405180830381600087803b1580156110d457600080fd5b505af11580156110e8573d6000803e3d6000fd5b505050506040513d601f19601f8201168201806040525081019061110c9190611404565b506000604051806101000160405280876001600160a01b03168152602001866001600160a01b031681526020018862ffffff168152602001846001600160a01b031681526020014261012c6111619190611570565b8152602080820187905260006040808401829052606093840191909152805163414bf38960e01b815284516001600160a01b03908116600483015292850151831660248201529084015162ffffff16604482015291830151811660648301526080830151608483015260a083015160a483015260c083015160c483015260e0830151811660e48301529192509089169063414bf3899061010401602060405180830381600087803b15801561121557600080fd5b505af1158015611229573d6000803e3d6000fd5b505050506040513d601f19601f8201168201806040525081019061124d919061144b565b98975050505050505050565b604080516002808252606082018352600092602083019080368337019050509050848160008151811061128e5761128e6115fa565b60200260200101906001600160a01b031690816001600160a01b03168152505083816001815181106112c2576112c26115fa565b6001600160a01b03928316602091820292909201015260405163095ea7b360e01b81528782166004820152602481018590529086169063095ea7b390604401602060405180830381600087803b15801561131b57600080fd5b505af115801561132f573d6000803e3d6000fd5b505050506040513d601f19601f820116820180604052508101906113539190611404565b50604051635c11d79560e01b81526001600160a01b03871690635c11d795906113899086906000908690889042906004016114ff565b600060405180830381600087803b1580156113a357600080fd5b505af11580156113b7573d6000803e3d6000fd5b50505050505050505050565b6000602082840312156113d557600080fd5b81356113e081611610565b9392505050565b6000602082840312156113f957600080fd5b81516113e081611610565b60006020828403121561141657600080fd5b815180151581146113e057600080fd5b60006020828403121561143857600080fd5b815162ffffff811681146113e057600080fd5b60006020828403121561145d57600080fd5b5051919050565b60208082526030908201527f50726f706f7361626c654f776e61626c653a206e6577206f776e65722069732060408201526f746865207a65726f206164647265737360801b606082015260800190565b6020808252602b908201527f496e697469616c697a61626c653a20636f6e7472616374206973206e6f74206960408201526a6e697469616c697a696e6760a81b606082015260800190565b600060a082018783526020878185015260a0604085015281875180845260c086019150828901935060005b8181101561154f5784516001600160a01b03168352938301939183019160010161152a565b50506001600160a01b03969096166060850152505050608001529392505050565b60008219821115611583576115836115e4565b500190565b6000826115a557634e487b7160e01b600052601260045260246000fd5b500490565b60008160001904831182151516156115c4576115c46115e4565b500290565b60006000198214156115dd576115dd6115e4565b5060010190565b634e487b7160e01b600052601160045260246000fd5b634e487b7160e01b600052603260045260246000fd5b6001600160a01b0381168114610c9457600080fdfea264697066735822122067f88926b9e34677b0fc22739e54b776fcda6f3982b4cf1e42771834056b725164736f6c63430008070033","linkReferences":{}},"methodIdentifiers":{"factoryStorage()":"c06e1ae2","initialize(address)":"c4d66de8","owner()":"8da5cb5b","pause()":"8456cb59","paused()":"5c975abb","proposeOwner(address)":"b5ed298a","proposedOwner()":"d153b60c","reIndexAndReweight()":"a2ab905d","renounceOwnership()":"715018a6","transferOwnership(address)":"f2fde38b","unpause()":"3f4ba83a"},"id":3}