{"abi":[{"type":"receive","stateMutability":"payable"},{"type":"function","name":"factoryStorage","inputs":[],"outputs":[{"name":"","type":"address","internalType":"contract IndexFactoryStorage"}],"stateMutability":"view"},{"type":"function","name":"initialize","inputs":[{"name":"_factoryStorage","type":"address","internalType":"address payable"}],"outputs":[],"stateMutability":"nonpayable"},{"type":"function","name":"owner","inputs":[],"outputs":[{"name":"","type":"address","internalType":"address"}],"stateMutability":"view"},{"type":"function","name":"pause","inputs":[],"outputs":[],"stateMutability":"nonpayable"},{"type":"function","name":"paused","inputs":[],"outputs":[{"name":"","type":"bool","internalType":"bool"}],"stateMutability":"view"},{"type":"function","name":"proposeOwner","inputs":[{"name":"_proposedOwner","type":"address","internalType":"address"}],"outputs":[],"stateMutability":"nonpayable"},{"type":"function","name":"proposedOwner","inputs":[],"outputs":[{"name":"","type":"address","internalType":"address"}],"stateMutability":"view"},{"type":"function","name":"reIndexAndReweight","inputs":[],"outputs":[],"stateMutability":"nonpayable"},{"type":"function","name":"renounceOwnership","inputs":[],"outputs":[],"stateMutability":"nonpayable"},{"type":"function","name":"transferOwnership","inputs":[{"name":"newOwner","type":"address","internalType":"address"}],"outputs":[],"stateMutability":"nonpayable"},{"type":"function","name":"unpause","inputs":[],"outputs":[],"stateMutability":"nonpayable"},{"type":"function","name":"withdraw","inputs":[{"name":"amount","type":"uint256","internalType":"uint256"}],"outputs":[],"stateMutability":"nonpayable"},{"type":"event","name":"ChainlinkCancelled","inputs":[{"name":"id","type":"bytes32","indexed":true,"internalType":"bytes32"}],"anonymous":false},{"type":"event","name":"ChainlinkFulfilled","inputs":[{"name":"id","type":"bytes32","indexed":true,"internalType":"bytes32"}],"anonymous":false},{"type":"event","name":"ChainlinkRequested","inputs":[{"name":"id","type":"bytes32","indexed":true,"internalType":"bytes32"}],"anonymous":false},{"type":"event","name":"Initialized","inputs":[{"name":"version","type":"uint8","indexed":false,"internalType":"uint8"}],"anonymous":false},{"type":"event","name":"OwnershipTransferred","inputs":[{"name":"previousOwner","type":"address","indexed":true,"internalType":"address"},{"name":"newOwner","type":"address","indexed":true,"internalType":"address"}],"anonymous":false},{"type":"event","name":"Paused","inputs":[{"name":"account","type":"address","indexed":false,"internalType":"address"}],"anonymous":false},{"type":"event","name":"Unpaused","inputs":[{"name":"account","type":"address","indexed":false,"internalType":"address"}],"anonymous":false}],"bytecode":{"object":"0x608060405234801561001057600080fd5b50611c7b806100206000396000f3fe6080604052600436106100ab5760003560e01c8063a2ab905d11610064578063a2ab905d146101c9578063b5ed298a146101de578063c06e1ae2146101fe578063c4d66de81461021e578063d153b60c1461023e578063f2fde38b1461025e57600080fd5b80632e1a7d4d1461010e5780633f4ba83a146101305780635c975abb14610145578063715018a61461016d5780638456cb59146101825780638da5cb5b1461019757600080fd5b366101095760405162461bcd60e51b815260206004820152602360248201527f446f4e6f7453656e6446756e64734469726563746c79546f546865436f6e74726044820152621858dd60ea1b60648201526084015b60405180910390fd5b600080fd5b34801561011a57600080fd5b5061012e610129366004611a0c565b61027e565b005b34801561013c57600080fd5b5061012e610377565b34801561015157600080fd5b50609e5460ff1660405190151581526020015b60405180910390f35b34801561017957600080fd5b5061012e610389565b34801561018e57600080fd5b5061012e61039b565b3480156101a357600080fd5b506039546001600160a01b03165b6040516001600160a01b039091168152602001610164565b3480156101d557600080fd5b5061012e6103ab565b3480156101ea57600080fd5b5061012e6101f93660046118bf565b610d23565b34801561020a57600080fd5b5060d0546101b1906001600160a01b031681565b34801561022a57600080fd5b5061012e6102393660046118bf565b610d73565b34801561024a57600080fd5b50606b546101b1906001600160a01b031681565b34801561026a57600080fd5b5061012e6102793660046118bf565b610efd565b610286611025565b478111156102cd5760405162461bcd60e51b8152602060048201526014602482015273496e73756666696369656e742062616c616e636560601b6044820152606401610100565b60006102e16039546001600160a01b031690565b6001600160a01b03168260405160006040518083038185875af1925050503d806000811461032b576040519150601f19603f3d011682016040523d82523d6000602084013e610330565b606091505b50509050806103735760405162461bcd60e51b815260206004820152600f60248201526e151c985b9cd9995c8819985a5b1959608a1b6044820152606401610100565b5050565b61037f611025565b61038761107f565b565b610391611025565b61038760006110d1565b6103a3611025565b610387611123565b6103b3611025565b60d05460408051633fc8cef360e01b815290516000926001600160a01b031691633fc8cef3916004808301926020929190829003018186803b1580156103f857600080fd5b505afa15801561040c573d6000803e3d6000fd5b505050506040513d601f19601f8201168201806040525081019061043091906118e3565b9050600060d060009054906101000a90046001600160a01b03166001600160a01b031663fbfa77cf6040518163ffffffff1660e01b815260040160206040518083038186803b15801561048257600080fd5b505afa158015610496573d6000803e3d6000fd5b505050506040513d601f19601f820116820180604052508101906104ba91906118e3565b9050600060d060009054906101000a90046001600160a01b03166001600160a01b03166353fd43326040518163ffffffff1660e01b815260040160206040518083038186803b15801561050c57600080fd5b505afa158015610520573d6000803e3d6000fd5b505050506040513d601f19601f820116820180604052508101906105449190611a25565b9050600060d060009054906101000a90046001600160a01b03166001600160a01b031663c8599ded6040518163ffffffff1660e01b815260040160206040518083038186803b15801561059657600080fd5b505afa1580156105aa573d6000803e3d6000fd5b505050506040513d601f19601f820116820180604052508101906105ce9190611a25565b905060005b828110156109345760d05460405163264cae9360e21b8152600481018390526000916001600160a01b031690639932ba4c9060240160206040518083038186803b15801561062057600080fd5b505afa158015610634573d6000803e3d6000fd5b505050506040513d601f19601f8201168201806040525081019061065891906118e3565b60d054604051633259966560e01b81526001600160a01b0380841660048301529293506000929091169063325996659060240160206040518083038186803b1580156106a357600080fd5b505afa1580156106b7573d6000803e3d6000fd5b505050506040513d601f19601f820116820180604052508101906106db91906119e7565b9050866001600160a01b0316826001600160a01b03161461091f576040516370a0823160e01b81526001600160a01b03808816600483018190526000929091631c20fadd9186913091908316906370a082319060240160206040518083038186803b15801561074957600080fd5b505afa15801561075d573d6000803e3d6000fd5b505050506040513d601f19601f820116820180604052508101906107819190611a25565b6040516001600160e01b031960e086901b1681526001600160a01b0393841660048201529290911660248301526044820152606401602060405180830381600087803b1580156107d057600080fd5b505af11580156107e4573d6000803e3d6000fd5b505050506040513d601f19601f8201168201806040525081019061080891906119c5565b9050806108515760405162461bcd60e51b815260206004820152601760248201527615985d5b1d081dda5d1a191c985dd85b0819985a5b1959604a1b6044820152606401610100565b6040516370a0823160e01b81526001600160a01b0388811660048301526000916108dc9186918c918316906370a082319060240160206040518083038186803b15801561089d57600080fd5b505afa1580156108b1573d6000803e3d6000fd5b505050506040513d601f19601f820116820180604052508101906108d59190611a25565b8b87611160565b90506000811161091c5760405162461bcd60e51b815260206004820152600b60248201526a14ddd85c0819985a5b195960aa1b6044820152606401610100565b50505b5050808061092c90611bd3565b9150506105d3565b506040516370a0823160e01b81523060048201526000906001600160a01b038616906370a082319060240160206040518083038186803b15801561097757600080fd5b505afa15801561098b573d6000803e3d6000fd5b505050506040513d601f19601f820116820180604052508101906109af9190611a25565b905060005b82811015610d1b5760d05460405163239aad0d60e01b8152600481018390526000916001600160a01b03169063239aad0d9060240160206040518083038186803b158015610a0157600080fd5b505afa158015610a15573d6000803e3d6000fd5b505050506040513d601f19601f82011682018060405250810190610a3991906118e3565b60d054604051633259966560e01b81526001600160a01b0380841660048301529293506000929091169063325996659060240160206040518083038186803b158015610a8457600080fd5b505afa158015610a98573d6000803e3d6000fd5b505050506040513d601f19601f82011682018060405250810190610abc91906119e7565b60d05460405162967c1760e71b81526001600160a01b03858116600483015292935060009290911690634b3e0b809060240160206040518083038186803b158015610b0657600080fd5b505afa158015610b1a573d6000803e3d6000fd5b505050506040513d601f19601f82011682018060405250810190610b3e9190611a25565b9050886001600160a01b0316836001600160a01b031614610c9d57604051631c20fadd60e01b81526001600160a01b038a8116600483015230602483015260448201879052600091908a1690631c20fadd90606401602060405180830381600087803b158015610bad57600080fd5b505af1158015610bc1573d6000803e3d6000fd5b505050506040513d601f19601f82011682018060405250810190610be591906119c5565b905080610c2e5760405162461bcd60e51b815260206004820152601760248201527615985d5b1d081dda5d1a191c985dd85b0819985a5b1959604a1b6044820152606401610100565b6000610c5a8b8668056bc75e2d63100000610c49878c611bb4565b610c539190611b92565b8d88611160565b905060008111610c9a5760405162461bcd60e51b815260206004820152600b60248201526a14ddd85c0819985a5b195960aa1b6044820152606401610100565b50505b60d060009054906101000a90046001600160a01b03166001600160a01b0316638baa6bf16040518163ffffffff1660e01b8152600401600060405180830381600087803b158015610ced57600080fd5b505af1158015610d01573d6000803e3d6000fd5b505050505050508080610d1390611bd3565b9150506109b4565b505050505050565b610d2b611025565b6001600160a01b038116610d515760405162461bcd60e51b815260040161010090611a82565b606b80546001600160a01b0319166001600160a01b0392909216919091179055565b600654610100900460ff1615808015610d935750600654600160ff909116105b80610dad5750303b158015610dad575060065460ff166001145b610e105760405162461bcd60e51b815260206004820152602e60248201527f496e697469616c697a61626c653a20636f6e747261637420697320616c72656160448201526d191e481a5b9a5d1a585b1a5e995960921b6064820152608401610100565b6006805460ff191660011790558015610e33576006805461ff0019166101001790555b6001600160a01b038216610e895760405162461bcd60e51b815260206004820152601f60248201527f496e76616c696420666163746f72792073746f726167652061646472657373006044820152606401610100565b610e91611355565b610e99611384565b60d080546001600160a01b0319166001600160a01b0384161790558015610373576006805461ff0019169055604051600181527f7f26b83ff96e1f2b6a682f133852f6798a09c465da95921460cefb38474024989060200160405180910390a15050565b6001600160a01b038116610f235760405162461bcd60e51b815260040161010090611a82565b606b546001600160a01b03828116911614610f9b5760405162461bcd60e51b815260206004820152603260248201527f50726f706f7361626c654f776e61626c653a206e6577206f776e6572206973206044820152713737ba10383937b837b9b2b21037bbb732b960711b6064820152608401610100565b6001600160a01b03811633146110195760405162461bcd60e51b815260206004820152603a60248201527f50726f706f7361626c654f776e61626c653a20746869732063616c6c206d757360448201527f74206265206d61646520627920746865206e6577206f776e65720000000000006064820152608401610100565b611022816110d1565b50565b6039546001600160a01b031633146103875760405162461bcd60e51b815260206004820181905260248201527f4f776e61626c653a2063616c6c6572206973206e6f7420746865206f776e65726044820152606401610100565b6110876113b3565b609e805460ff191690557f5db9ee0a495bf2e6ff9c91a7834c1ba4fdd244a5e8aa4e537bd38aeae4b073aa335b6040516001600160a01b03909116815260200160405180910390a1565b603980546001600160a01b038381166001600160a01b0319831681179093556040519116919082907f8be0079c531659141344cd1fd0a4f28419497f9722a3daafe3b4186f6b6457e090600090a35050565b61112b6113fc565b609e805460ff191660011790557f62e78cea01bee320cd4e420270b5ea74000d11b0c9f74754ebdbfc544b05a2586110b43390565b60008060d060009054906101000a90046001600160a01b03166001600160a01b031663b631e80b6040518163ffffffff1660e01b815260040160206040518083038186803b1580156111b157600080fd5b505afa1580156111c5573d6000803e3d6000fd5b505050506040513d601f19601f820116820180604052508101906111e991906118e3565b9050600060d060009054906101000a90046001600160a01b03166001600160a01b031663744fbc7a6040518163ffffffff1660e01b815260040160206040518083038186803b15801561123b57600080fd5b505afa15801561124f573d6000803e3d6000fd5b505050506040513d601f19601f8201168201806040525081019061127391906118e3565b6040516323b872dd60e01b8152336004820152306024820152604481018890529091506001600160a01b038916906323b872dd90606401602060405180830381600087803b1580156112c457600080fd5b505af11580156112d8573d6000803e3d6000fd5b505050506040513d601f19601f820116820180604052508101906112fc91906119c5565b61133a5760405162461bcd60e51b815260206004820152600f60248201526e151c985b9cd9995c8819985a5b1959608a1b6044820152606401610100565b6113498282868b8b8b8b611442565b98975050505050505050565b600654610100900460ff1661137c5760405162461bcd60e51b815260040161010090611ad2565b61038761147f565b600654610100900460ff166113ab5760405162461bcd60e51b815260040161010090611ad2565b6103876114af565b609e5460ff166103875760405162461bcd60e51b815260206004820152601460248201527314185d5cd8589b194e881b9bdd081c185d5cd95960621b6044820152606401610100565b609e5460ff16156103875760405162461bcd60e51b815260206004820152601060248201526f14185d5cd8589b194e881c185d5cd95960821b6044820152606401610100565b600062ffffff8616156114645761145d8887878787876114e2565b9050611474565b61147187868686866116a9565b90505b979650505050505050565b600654610100900460ff166114a65760405162461bcd60e51b815260040161010090611ad2565b610387336110d1565b600654610100900460ff166114d65760405162461bcd60e51b815260040161010090611ad2565b609e805460ff19169055565b60405163095ea7b360e01b81526001600160a01b038781166004830152602482018490526000919086169063095ea7b390604401602060405180830381600087803b15801561153057600080fd5b505af1158015611544573d6000803e3d6000fd5b505050506040513d601f19601f8201168201806040525081019061156891906119c5565b506000604051806101000160405280876001600160a01b03168152602001866001600160a01b031681526020018862ffffff168152602001846001600160a01b031681526020014261012c6115bd9190611b7a565b8152602080820187905260006040808401829052606093840191909152805163414bf38960e01b815284516001600160a01b03908116600483015292850151831660248201529084015162ffffff16604482015291830151811660648301526080830151608483015260a083015160a483015260c083015160c483015260e0830151811660e48301529192509089169063414bf3899061010401602060405180830381600087803b15801561167157600080fd5b505af1158015611685573d6000803e3d6000fd5b505050506040513d601f19601f820116820180604052508101906113499190611a25565b6040805160028082526060820183526000928392919060208301908036833701905050905085816000815181106116e2576116e2611c04565b60200260200101906001600160a01b031690816001600160a01b031681525050848160018151811061171657611716611c04565b6001600160a01b03928316602091820292909201015260405163d06ca61f60e01b815260009189169063d06ca61f906117559088908690600401611b1d565b60006040518083038186803b15801561176d57600080fd5b505afa158015611781573d6000803e3d6000fd5b505050506040513d6000823e601f3d908101601f191682016040526117a99190810190611900565b60405163095ea7b360e01b81526001600160a01b038a81166004830152602482018890529192509088169063095ea7b390604401602060405180830381600087803b1580156117f757600080fd5b505af115801561180b573d6000803e3d6000fd5b505050506040513d601f19601f8201168201806040525081019061182f91906119c5565b50604051635c11d79560e01b81526001600160a01b03891690635c11d7959061186590889060009087908a904290600401611b3e565b600060405180830381600087803b15801561187f57600080fd5b505af1158015611893573d6000803e3d6000fd5b50505050806001815181106118aa576118aa611c04565b60200260200101519250505095945050505050565b6000602082840312156118d157600080fd5b81356118dc81611c30565b9392505050565b6000602082840312156118f557600080fd5b81516118dc81611c30565b6000602080838503121561191357600080fd5b825167ffffffffffffffff8082111561192b57600080fd5b818501915085601f83011261193f57600080fd5b81518181111561195157611951611c1a565b8060051b604051601f19603f8301168101818110858211171561197657611976611c1a565b604052828152858101935084860182860187018a101561199557600080fd5b600095505b838610156119b857805185526001959095019493860193860161199a565b5098975050505050505050565b6000602082840312156119d757600080fd5b815180151581146118dc57600080fd5b6000602082840312156119f957600080fd5b815162ffffff811681146118dc57600080fd5b600060208284031215611a1e57600080fd5b5035919050565b600060208284031215611a3757600080fd5b5051919050565b600081518084526020808501945080840160005b83811015611a775781516001600160a01b031687529582019590820190600101611a52565b509495945050505050565b60208082526030908201527f50726f706f7361626c654f776e61626c653a206e6577206f776e65722069732060408201526f746865207a65726f206164647265737360801b606082015260800190565b6020808252602b908201527f496e697469616c697a61626c653a20636f6e7472616374206973206e6f74206960408201526a6e697469616c697a696e6760a81b606082015260800190565b828152604060208201526000611b366040830184611a3e565b949350505050565b85815284602082015260a060408201526000611b5d60a0830186611a3e565b6001600160a01b0394909416606083015250608001529392505050565b60008219821115611b8d57611b8d611bee565b500190565b600082611baf57634e487b7160e01b600052601260045260246000fd5b500490565b6000816000190483118215151615611bce57611bce611bee565b500290565b6000600019821415611be757611be7611bee565b5060010190565b634e487b7160e01b600052601160045260246000fd5b634e487b7160e01b600052603260045260246000fd5b634e487b7160e01b600052604160045260246000fd5b6001600160a01b038116811461102257600080fdfea2646970667358221220242f5deea58a88428be666934f2e560db8146987cf78788da1a096a4fb47a62564736f6c63430008070033","linkReferences":{}},"methodIdentifiers":{"factoryStorage()":"c06e1ae2","initialize(address)":"c4d66de8","owner()":"8da5cb5b","pause()":"8456cb59","paused()":"5c975abb","proposeOwner(address)":"b5ed298a","proposedOwner()":"d153b60c","reIndexAndReweight()":"a2ab905d","renounceOwnership()":"715018a6","transferOwnership(address)":"f2fde38b","unpause()":"3f4ba83a","withdraw(uint256)":"2e1a7d4d"},"id":3}