{"abi":[{"type":"receive","stateMutability":"payable"},{"type":"function","name":"factoryStorage","inputs":[],"outputs":[{"name":"","type":"address","internalType":"contract IndexFactoryStorage"}],"stateMutability":"view"},{"type":"function","name":"initialize","inputs":[{"name":"_factoryStorage","type":"address","internalType":"address payable"}],"outputs":[],"stateMutability":"nonpayable"},{"type":"function","name":"owner","inputs":[],"outputs":[{"name":"","type":"address","internalType":"address"}],"stateMutability":"view"},{"type":"function","name":"pause","inputs":[],"outputs":[],"stateMutability":"nonpayable"},{"type":"function","name":"paused","inputs":[],"outputs":[{"name":"","type":"bool","internalType":"bool"}],"stateMutability":"view"},{"type":"function","name":"proposeOwner","inputs":[{"name":"_proposedOwner","type":"address","internalType":"address"}],"outputs":[],"stateMutability":"nonpayable"},{"type":"function","name":"proposedOwner","inputs":[],"outputs":[{"name":"","type":"address","internalType":"address"}],"stateMutability":"view"},{"type":"function","name":"reIndexAndReweight","inputs":[],"outputs":[],"stateMutability":"nonpayable"},{"type":"function","name":"renounceOwnership","inputs":[],"outputs":[],"stateMutability":"nonpayable"},{"type":"function","name":"transferOwnership","inputs":[{"name":"newOwner","type":"address","internalType":"address"}],"outputs":[],"stateMutability":"nonpayable"},{"type":"function","name":"unpause","inputs":[],"outputs":[],"stateMutability":"nonpayable"},{"type":"function","name":"withdraw","inputs":[{"name":"amount","type":"uint256","internalType":"uint256"}],"outputs":[],"stateMutability":"nonpayable"},{"type":"event","name":"ChainlinkCancelled","inputs":[{"name":"id","type":"bytes32","indexed":true,"internalType":"bytes32"}],"anonymous":false},{"type":"event","name":"ChainlinkFulfilled","inputs":[{"name":"id","type":"bytes32","indexed":true,"internalType":"bytes32"}],"anonymous":false},{"type":"event","name":"ChainlinkRequested","inputs":[{"name":"id","type":"bytes32","indexed":true,"internalType":"bytes32"}],"anonymous":false},{"type":"event","name":"Initialized","inputs":[{"name":"version","type":"uint8","indexed":false,"internalType":"uint8"}],"anonymous":false},{"type":"event","name":"OwnershipTransferred","inputs":[{"name":"previousOwner","type":"address","indexed":true,"internalType":"address"},{"name":"newOwner","type":"address","indexed":true,"internalType":"address"}],"anonymous":false},{"type":"event","name":"Paused","inputs":[{"name":"account","type":"address","indexed":false,"internalType":"address"}],"anonymous":false},{"type":"event","name":"Unpaused","inputs":[{"name":"account","type":"address","indexed":false,"internalType":"address"}],"anonymous":false}],"bytecode":{"object":"0x608060405234801561001057600080fd5b50611b45806100206000396000f3fe6080604052600436106100ab5760003560e01c8063a2ab905d11610064578063a2ab905d14610172578063b5ed298a14610187578063c06e1ae2146101a7578063c4d66de8146101c7578063d153b60c146101e7578063f2fde38b1461020757600080fd5b80632e1a7d4d146100b75780633f4ba83a146100d95780635c975abb146100ee578063715018a6146101165780638456cb591461012b5780638da5cb5b1461014057600080fd5b366100b257005b600080fd5b3480156100c357600080fd5b506100d76100d23660046118d6565b610227565b005b3480156100e557600080fd5b506100d76102b9565b3480156100fa57600080fd5b50609e5460ff1660405190151581526020015b60405180910390f35b34801561012257600080fd5b506100d76102cb565b34801561013757600080fd5b506100d76102dd565b34801561014c57600080fd5b506039546001600160a01b03165b6040516001600160a01b03909116815260200161010d565b34801561017e57600080fd5b506100d76102ed565b34801561019357600080fd5b506100d76101a2366004611789565b610be1565b3480156101b357600080fd5b5060d05461015a906001600160a01b031681565b3480156101d357600080fd5b506100d76101e2366004611789565b610c31565b3480156101f357600080fd5b50606b5461015a906001600160a01b031681565b34801561021357600080fd5b506100d7610222366004611789565b610dbb565b61022f610ee3565b4781111561027b5760405162461bcd60e51b8152602060048201526014602482015273496e73756666696369656e742062616c616e636560601b60448201526064015b60405180910390fd5b6039546040516001600160a01b039091169082156108fc029083906000818181858888f193505050501580156102b5573d6000803e3d6000fd5b5050565b6102c1610ee3565b6102c9610f3d565b565b6102d3610ee3565b6102c96000610f8f565b6102e5610ee3565b6102c9610fe1565b6102f5610ee3565b60d05460408051633fc8cef360e01b815290516000926001600160a01b031691633fc8cef3916004808301926020929190829003018186803b15801561033a57600080fd5b505afa15801561034e573d6000803e3d6000fd5b505050506040513d601f19601f8201168201806040525081019061037291906117ad565b9050600060d060009054906101000a90046001600160a01b03166001600160a01b031663fbfa77cf6040518163ffffffff1660e01b815260040160206040518083038186803b1580156103c457600080fd5b505afa1580156103d8573d6000803e3d6000fd5b505050506040513d601f19601f820116820180604052508101906103fc91906117ad565b9050600060d060009054906101000a90046001600160a01b03166001600160a01b03166353fd43326040518163ffffffff1660e01b815260040160206040518083038186803b15801561044e57600080fd5b505afa158015610462573d6000803e3d6000fd5b505050506040513d601f19601f8201168201806040525081019061048691906118ef565b9050600060d060009054906101000a90046001600160a01b03166001600160a01b031663c8599ded6040518163ffffffff1660e01b815260040160206040518083038186803b1580156104d857600080fd5b505afa1580156104ec573d6000803e3d6000fd5b505050506040513d601f19601f8201168201806040525081019061051091906118ef565b905060005b828110156108345760d05460405163264cae9360e21b8152600481018390526000916001600160a01b031690639932ba4c9060240160206040518083038186803b15801561056257600080fd5b505afa158015610576573d6000803e3d6000fd5b505050506040513d601f19601f8201168201806040525081019061059a91906117ad565b60d054604051633259966560e01b81526001600160a01b0380841660048301529293506000929091169063325996659060240160206040518083038186803b1580156105e557600080fd5b505afa1580156105f9573d6000803e3d6000fd5b505050506040513d601f19601f8201168201806040525081019061061d91906118b1565b9050866001600160a01b0316826001600160a01b03161461081f576040516370a0823160e01b81526001600160a01b03808816600483018190526000929091631c20fadd9186913091908316906370a082319060240160206040518083038186803b15801561068b57600080fd5b505afa15801561069f573d6000803e3d6000fd5b505050506040513d601f19601f820116820180604052508101906106c391906118ef565b6040516001600160e01b031960e086901b1681526001600160a01b0393841660048201529290911660248301526044820152606401602060405180830381600087803b15801561071257600080fd5b505af1158015610726573d6000803e3d6000fd5b505050506040513d601f19601f8201168201806040525081019061074a919061188f565b9050806107935760405162461bcd60e51b815260206004820152601760248201527615985d5b1d081dda5d1a191c985dd85b0819985a5b1959604a1b6044820152606401610272565b6040516370a0823160e01b81526001600160a01b03888116600483015261081c9185918b91908316906370a082319060240160206040518083038186803b1580156107dd57600080fd5b505afa1580156107f1573d6000803e3d6000fd5b505050506040513d601f19601f8201168201806040525081019061081591906118ef565b8a8661101e565b50505b5050808061082c90611a9d565b915050610515565b506040516370a0823160e01b81523060048201526000906001600160a01b038616906370a082319060240160206040518083038186803b15801561087757600080fd5b505afa15801561088b573d6000803e3d6000fd5b505050506040513d601f19601f820116820180604052508101906108af91906118ef565b905060005b82811015610bd95760d05460405163239aad0d60e01b8152600481018390526000916001600160a01b03169063239aad0d9060240160206040518083038186803b15801561090157600080fd5b505afa158015610915573d6000803e3d6000fd5b505050506040513d601f19601f8201168201806040525081019061093991906117ad565b60d054604051633259966560e01b81526001600160a01b0380841660048301529293506000929091169063325996659060240160206040518083038186803b15801561098457600080fd5b505afa158015610998573d6000803e3d6000fd5b505050506040513d601f19601f820116820180604052508101906109bc91906118b1565b60d05460405162967c1760e71b81526001600160a01b03858116600483015292935060009290911690634b3e0b809060240160206040518083038186803b158015610a0657600080fd5b505afa158015610a1a573d6000803e3d6000fd5b505050506040513d601f19601f82011682018060405250810190610a3e91906118ef565b9050886001600160a01b0316836001600160a01b031614610b5b57604051631c20fadd60e01b81526001600160a01b038a8116600483015230602483015260448201879052600091908a1690631c20fadd90606401602060405180830381600087803b158015610aad57600080fd5b505af1158015610ac1573d6000803e3d6000fd5b505050506040513d601f19601f82011682018060405250810190610ae5919061188f565b905080610b2e5760405162461bcd60e51b815260206004820152601760248201527615985d5b1d081dda5d1a191c985dd85b0819985a5b1959604a1b6044820152606401610272565b610b588a8568056bc75e2d63100000610b47868b611a7e565b610b519190611a5c565b8c8761101e565b50505b60d060009054906101000a90046001600160a01b03166001600160a01b0316638baa6bf16040518163ffffffff1660e01b8152600401600060405180830381600087803b158015610bab57600080fd5b505af1158015610bbf573d6000803e3d6000fd5b505050505050508080610bd190611a9d565b9150506108b4565b505050505050565b610be9610ee3565b6001600160a01b038116610c0f5760405162461bcd60e51b81526004016102729061194c565b606b80546001600160a01b0319166001600160a01b0392909216919091179055565b600654610100900460ff1615808015610c515750600654600160ff909116105b80610c6b5750303b158015610c6b575060065460ff166001145b610cce5760405162461bcd60e51b815260206004820152602e60248201527f496e697469616c697a61626c653a20636f6e747261637420697320616c72656160448201526d191e481a5b9a5d1a585b1a5e995960921b6064820152608401610272565b6006805460ff191660011790558015610cf1576006805461ff0019166101001790555b6001600160a01b038216610d475760405162461bcd60e51b815260206004820152601f60248201527f496e76616c696420666163746f72792073746f726167652061646472657373006044820152606401610272565b610d4f611213565b610d57611242565b60d080546001600160a01b0319166001600160a01b03841617905580156102b5576006805461ff0019169055604051600181527f7f26b83ff96e1f2b6a682f133852f6798a09c465da95921460cefb38474024989060200160405180910390a15050565b6001600160a01b038116610de15760405162461bcd60e51b81526004016102729061194c565b606b546001600160a01b03828116911614610e595760405162461bcd60e51b815260206004820152603260248201527f50726f706f7361626c654f776e61626c653a206e6577206f776e6572206973206044820152713737ba10383937b837b9b2b21037bbb732b960711b6064820152608401610272565b6001600160a01b0381163314610ed75760405162461bcd60e51b815260206004820152603a60248201527f50726f706f7361626c654f776e61626c653a20746869732063616c6c206d757360448201527f74206265206d61646520627920746865206e6577206f776e65720000000000006064820152608401610272565b610ee081610f8f565b50565b6039546001600160a01b031633146102c95760405162461bcd60e51b815260206004820181905260248201527f4f776e61626c653a2063616c6c6572206973206e6f7420746865206f776e65726044820152606401610272565b610f45611271565b609e805460ff191690557f5db9ee0a495bf2e6ff9c91a7834c1ba4fdd244a5e8aa4e537bd38aeae4b073aa335b6040516001600160a01b03909116815260200160405180910390a1565b603980546001600160a01b038381166001600160a01b0319831681179093556040519116919082907f8be0079c531659141344cd1fd0a4f28419497f9722a3daafe3b4186f6b6457e090600090a35050565b610fe96112ba565b609e805460ff191660011790557f62e78cea01bee320cd4e420270b5ea74000d11b0c9f74754ebdbfc544b05a258610f723390565b60008060d060009054906101000a90046001600160a01b03166001600160a01b031663b631e80b6040518163ffffffff1660e01b815260040160206040518083038186803b15801561106f57600080fd5b505afa158015611083573d6000803e3d6000fd5b505050506040513d601f19601f820116820180604052508101906110a791906117ad565b9050600060d060009054906101000a90046001600160a01b03166001600160a01b031663744fbc7a6040518163ffffffff1660e01b815260040160206040518083038186803b1580156110f957600080fd5b505afa15801561110d573d6000803e3d6000fd5b505050506040513d601f19601f8201168201806040525081019061113191906117ad565b6040516323b872dd60e01b8152336004820152306024820152604481018890529091506001600160a01b038916906323b872dd90606401602060405180830381600087803b15801561118257600080fd5b505af1158015611196573d6000803e3d6000fd5b505050506040513d601f19601f820116820180604052508101906111ba919061188f565b6111f85760405162461bcd60e51b815260206004820152600f60248201526e151c985b9cd9995c8819985a5b1959608a1b6044820152606401610272565b6112078282868b8b8b8b611300565b50505095945050505050565b600654610100900460ff1661123a5760405162461bcd60e51b81526004016102729061199c565b6102c961133d565b600654610100900460ff166112695760405162461bcd60e51b81526004016102729061199c565b6102c961136d565b609e5460ff166102c95760405162461bcd60e51b815260206004820152601460248201527314185d5cd8589b194e881b9bdd081c185d5cd95960621b6044820152606401610272565b609e5460ff16156102c95760405162461bcd60e51b815260206004820152601060248201526f14185d5cd8589b194e881c185d5cd95960821b6044820152606401610272565b600062ffffff8616156113225761131b8887878787876113a0565b9050611332565b61132f8786868686611573565b90505b979650505050505050565b600654610100900460ff166113645760405162461bcd60e51b81526004016102729061199c565b6102c933610f8f565b600654610100900460ff166113945760405162461bcd60e51b81526004016102729061199c565b609e805460ff19169055565b60405163095ea7b360e01b81526001600160a01b038781166004830152602482018490526000919086169063095ea7b390604401602060405180830381600087803b1580156113ee57600080fd5b505af1158015611402573d6000803e3d6000fd5b505050506040513d601f19601f82011682018060405250810190611426919061188f565b506000604051806101000160405280876001600160a01b03168152602001866001600160a01b031681526020018862ffffff168152602001846001600160a01b031681526020014261012c61147b9190611a44565b8152602080820187905260006040808401829052606093840191909152805163414bf38960e01b815284516001600160a01b03908116600483015292850151831660248201529084015162ffffff16604482015291830151811660648301526080830151608483015260a083015160a483015260c083015160c483015260e0830151811660e48301529192509089169063414bf3899061010401602060405180830381600087803b15801561152f57600080fd5b505af1158015611543573d6000803e3d6000fd5b505050506040513d601f19601f8201168201806040525081019061156791906118ef565b98975050505050505050565b6040805160028082526060820183526000928392919060208301908036833701905050905085816000815181106115ac576115ac611ace565b60200260200101906001600160a01b031690816001600160a01b03168152505084816001815181106115e0576115e0611ace565b6001600160a01b03928316602091820292909201015260405163d06ca61f60e01b815260009189169063d06ca61f9061161f90889086906004016119e7565b60006040518083038186803b15801561163757600080fd5b505afa15801561164b573d6000803e3d6000fd5b505050506040513d6000823e601f3d908101601f1916820160405261167391908101906117ca565b60405163095ea7b360e01b81526001600160a01b038a81166004830152602482018890529192509088169063095ea7b390604401602060405180830381600087803b1580156116c157600080fd5b505af11580156116d5573d6000803e3d6000fd5b505050506040513d601f19601f820116820180604052508101906116f9919061188f565b50604051635c11d79560e01b81526001600160a01b03891690635c11d7959061172f90889060009087908a904290600401611a08565b600060405180830381600087803b15801561174957600080fd5b505af115801561175d573d6000803e3d6000fd5b505050508060018151811061177457611774611ace565b60200260200101519250505095945050505050565b60006020828403121561179b57600080fd5b81356117a681611afa565b9392505050565b6000602082840312156117bf57600080fd5b81516117a681611afa565b600060208083850312156117dd57600080fd5b825167ffffffffffffffff808211156117f557600080fd5b818501915085601f83011261180957600080fd5b81518181111561181b5761181b611ae4565b8060051b604051601f19603f8301168101818110858211171561184057611840611ae4565b604052828152858101935084860182860187018a101561185f57600080fd5b600095505b83861015611882578051855260019590950194938601938601611864565b5098975050505050505050565b6000602082840312156118a157600080fd5b815180151581146117a657600080fd5b6000602082840312156118c357600080fd5b815162ffffff811681146117a657600080fd5b6000602082840312156118e857600080fd5b5035919050565b60006020828403121561190157600080fd5b5051919050565b600081518084526020808501945080840160005b838110156119415781516001600160a01b03168752958201959082019060010161191c565b509495945050505050565b60208082526030908201527f50726f706f7361626c654f776e61626c653a206e6577206f776e65722069732060408201526f746865207a65726f206164647265737360801b606082015260800190565b6020808252602b908201527f496e697469616c697a61626c653a20636f6e7472616374206973206e6f74206960408201526a6e697469616c697a696e6760a81b606082015260800190565b828152604060208201526000611a006040830184611908565b949350505050565b85815284602082015260a060408201526000611a2760a0830186611908565b6001600160a01b0394909416606083015250608001529392505050565b60008219821115611a5757611a57611ab8565b500190565b600082611a7957634e487b7160e01b600052601260045260246000fd5b500490565b6000816000190483118215151615611a9857611a98611ab8565b500290565b6000600019821415611ab157611ab1611ab8565b5060010190565b634e487b7160e01b600052601160045260246000fd5b634e487b7160e01b600052603260045260246000fd5b634e487b7160e01b600052604160045260246000fd5b6001600160a01b0381168114610ee057600080fdfea26469706673582212202cceb7f2788e3123f4b80741a2129d290bb4850edb41256fc9a481bfca3ff80164736f6c63430008070033","linkReferences":{}},"methodIdentifiers":{"factoryStorage()":"c06e1ae2","initialize(address)":"c4d66de8","owner()":"8da5cb5b","pause()":"8456cb59","paused()":"5c975abb","proposeOwner(address)":"b5ed298a","proposedOwner()":"d153b60c","reIndexAndReweight()":"a2ab905d","renounceOwnership()":"715018a6","transferOwnership(address)":"f2fde38b","unpause()":"3f4ba83a","withdraw(uint256)":"2e1a7d4d"},"id":3}