{
  "abi": [
    {
      "anonymous": false,
      "inputs": [
        {
          "indexed": true,
          "internalType": "address",
          "name": "owner",
          "type": "address"
        },
        {
          "indexed": true,
          "internalType": "address",
          "name": "spender",
          "type": "address"
        },
        {
          "indexed": false,
          "internalType": "uint256",
          "name": "value",
          "type": "uint256"
        }
      ],
      "name": "Approval",
      "type": "event"
    },
    {
      "anonymous": false,
      "inputs": [
        {
          "indexed": true,
          "internalType": "uint256",
          "name": "feeRatePerDayScaled",
          "type": "uint256"
        }
      ],
      "name": "FeeRateSet",
      "type": "event"
    },
    {
      "anonymous": false,
      "inputs": [
        {
          "indexed": true,
          "internalType": "address",
          "name": "feeReceiver",
          "type": "address"
        }
      ],
      "name": "FeeReceiverSet",
      "type": "event"
    },
    {
      "anonymous": false,
      "inputs": [
        {
          "indexed": false,
          "internalType": "uint8",
          "name": "version",
          "type": "uint8"
        }
      ],
      "name": "Initialized",
      "type": "event"
    },
    {
      "anonymous": false,
      "inputs": [
        {
          "indexed": true,
          "internalType": "address",
          "name": "methodologist",
          "type": "address"
        }
      ],
      "name": "MethodologistSet",
      "type": "event"
    },
    {
      "anonymous": false,
      "inputs": [
        {
          "indexed": false,
          "internalType": "string",
          "name": "methodology",
          "type": "string"
        }
      ],
      "name": "MethodologySet",
      "type": "event"
    },
    {
      "anonymous": false,
      "inputs": [
        {
          "indexed": false,
          "internalType": "address",
          "name": "feeReceiver",
          "type": "address"
        },
        {
          "indexed": false,
          "internalType": "uint256",
          "name": "timestamp",
          "type": "uint256"
        },
        {
          "indexed": false,
          "internalType": "uint256",
          "name": "totalSupply",
          "type": "uint256"
        },
        {
          "indexed": false,
          "internalType": "uint256",
          "name": "amount",
          "type": "uint256"
        }
      ],
      "name": "MintFeeToReceiver",
      "type": "event"
    },
    {
      "anonymous": false,
      "inputs": [
        {
          "indexed": true,
          "internalType": "address",
          "name": "minter",
          "type": "address"
        }
      ],
      "name": "MinterSet",
      "type": "event"
    },
    {
      "anonymous": false,
      "inputs": [
        {
          "indexed": true,
          "internalType": "address",
          "name": "previousOwner",
          "type": "address"
        },
        {
          "indexed": true,
          "internalType": "address",
          "name": "newOwner",
          "type": "address"
        }
      ],
      "name": "OwnershipTransferred",
      "type": "event"
    },
    {
      "anonymous": false,
      "inputs": [
        {
          "indexed": false,
          "internalType": "address",
          "name": "account",
          "type": "address"
        }
      ],
      "name": "Paused",
      "type": "event"
    },
    {
      "anonymous": false,
      "inputs": [
        {
          "indexed": false,
          "internalType": "uint256",
          "name": "supplyCeiling",
          "type": "uint256"
        }
      ],
      "name": "SupplyCeilingSet",
      "type": "event"
    },
    {
      "anonymous": false,
      "inputs": [
        {
          "indexed": true,
          "internalType": "address",
          "name": "account",
          "type": "address"
        },
        {
          "indexed": false,
          "internalType": "bool",
          "name": "isRestricted",
          "type": "bool"
        }
      ],
      "name": "ToggledRestricted",
      "type": "event"
    },
    {
      "anonymous": false,
      "inputs": [
        {
          "indexed": true,
          "internalType": "address",
          "name": "from",
          "type": "address"
        },
        {
          "indexed": true,
          "internalType": "address",
          "name": "to",
          "type": "address"
        },
        {
          "indexed": false,
          "internalType": "uint256",
          "name": "value",
          "type": "uint256"
        }
      ],
      "name": "Transfer",
      "type": "event"
    },
    {
      "anonymous": false,
      "inputs": [
        {
          "indexed": false,
          "internalType": "address",
          "name": "account",
          "type": "address"
        }
      ],
      "name": "Unpaused",
      "type": "event"
    },
    {
      "inputs": [
        {
          "internalType": "address",
          "name": "owner",
          "type": "address"
        },
        {
          "internalType": "address",
          "name": "spender",
          "type": "address"
        }
      ],
      "name": "allowance",
      "outputs": [
        {
          "internalType": "uint256",
          "name": "",
          "type": "uint256"
        }
      ],
      "stateMutability": "view",
      "type": "function"
    },
    {
      "inputs": [
        {
          "internalType": "address",
          "name": "spender",
          "type": "address"
        },
        {
          "internalType": "uint256",
          "name": "amount",
          "type": "uint256"
        }
      ],
      "name": "approve",
      "outputs": [
        {
          "internalType": "bool",
          "name": "",
          "type": "bool"
        }
      ],
      "stateMutability": "nonpayable",
      "type": "function"
    },
    {
      "inputs": [
        {
          "internalType": "address",
          "name": "_token",
          "type": "address"
        },
        {
          "internalType": "address",
          "name": "_to",
          "type": "address"
        },
        {
          "internalType": "uint256",
          "name": "_amount",
          "type": "uint256"
        }
      ],
      "name": "approveSwapToken",
      "outputs": [],
      "stateMutability": "nonpayable",
      "type": "function"
    },
    {
      "inputs": [
        {
          "internalType": "address",
          "name": "account",
          "type": "address"
        }
      ],
      "name": "balanceOf",
      "outputs": [
        {
          "internalType": "uint256",
          "name": "",
          "type": "uint256"
        }
      ],
      "stateMutability": "view",
      "type": "function"
    },
    {
      "inputs": [
        {
          "internalType": "address",
          "name": "from",
          "type": "address"
        },
        {
          "internalType": "uint256",
          "name": "amount",
          "type": "uint256"
        }
      ],
      "name": "burn",
      "outputs": [],
      "stateMutability": "nonpayable",
      "type": "function"
    },
    {
      "inputs": [],
      "name": "decimals",
      "outputs": [
        {
          "internalType": "uint8",
          "name": "",
          "type": "uint8"
        }
      ],
      "stateMutability": "view",
      "type": "function"
    },
    {
      "inputs": [
        {
          "internalType": "address",
          "name": "spender",
          "type": "address"
        },
        {
          "internalType": "uint256",
          "name": "subtractedValue",
          "type": "uint256"
        }
      ],
      "name": "decreaseAllowance",
      "outputs": [
        {
          "internalType": "bool",
          "name": "",
          "type": "bool"
        }
      ],
      "stateMutability": "nonpayable",
      "type": "function"
    },
    {
      "inputs": [],
      "name": "factoryV2",
      "outputs": [
        {
          "internalType": "contract IUniswapV2Factory",
          "name": "",
          "type": "address"
        }
      ],
      "stateMutability": "view",
      "type": "function"
    },
    {
      "inputs": [],
      "name": "factoryV3",
      "outputs": [
        {
          "internalType": "contract IUniswapV3Factory",
          "name": "",
          "type": "address"
        }
      ],
      "stateMutability": "view",
      "type": "function"
    },
    {
      "inputs": [],
      "name": "fee",
      "outputs": [
        {
          "internalType": "uint256",
          "name": "",
          "type": "uint256"
        }
      ],
      "stateMutability": "view",
      "type": "function"
    },
    {
      "inputs": [],
      "name": "feeRatePerDayScaled",
      "outputs": [
        {
          "internalType": "uint256",
          "name": "",
          "type": "uint256"
        }
      ],
      "stateMutability": "view",
      "type": "function"
    },
    {
      "inputs": [],
      "name": "feeReceiver",
      "outputs": [
        {
          "internalType": "address",
          "name": "",
          "type": "address"
        }
      ],
      "stateMutability": "view",
      "type": "function"
    },
    {
      "inputs": [],
      "name": "feeTimestamp",
      "outputs": [
        {
          "internalType": "uint256",
          "name": "",
          "type": "uint256"
        }
      ],
      "stateMutability": "view",
      "type": "function"
    },
    {
      "inputs": [
        {
          "internalType": "address",
          "name": "spender",
          "type": "address"
        },
        {
          "internalType": "uint256",
          "name": "addedValue",
          "type": "uint256"
        }
      ],
      "name": "increaseAllowance",
      "outputs": [
        {
          "internalType": "bool",
          "name": "",
          "type": "bool"
        }
      ],
      "stateMutability": "nonpayable",
      "type": "function"
    },
    {
      "inputs": [
        {
          "internalType": "string",
          "name": "tokenName",
          "type": "string"
        },
        {
          "internalType": "string",
          "name": "tokenSymbol",
          "type": "string"
        },
        {
          "internalType": "uint256",
          "name": "_feeRatePerDayScaled",
          "type": "uint256"
        },
        {
          "internalType": "address",
          "name": "_feeReceiver",
          "type": "address"
        },
        {
          "internalType": "uint256",
          "name": "_supplyCeiling",
          "type": "uint256"
        },
        {
          "internalType": "address",
          "name": "_weth",
          "type": "address"
        },
        {
          "internalType": "address",
          "name": "_quoter",
          "type": "address"
        },
        {
          "internalType": "address",
          "name": "_swapRouterV3",
          "type": "address"
        },
        {
          "internalType": "address",
          "name": "_factoryV3",
          "type": "address"
        },
        {
          "internalType": "address",
          "name": "_swapRouterV2",
          "type": "address"
        },
        {
          "internalType": "address",
          "name": "_factoryV2",
          "type": "address"
        }
      ],
      "name": "initialize",
      "outputs": [],
      "stateMutability": "nonpayable",
      "type": "function"
    },
    {
      "inputs": [
        {
          "internalType": "address",
          "name": "",
          "type": "address"
        }
      ],
      "name": "isRestricted",
      "outputs": [
        {
          "internalType": "bool",
          "name": "",
          "type": "bool"
        }
      ],
      "stateMutability": "view",
      "type": "function"
    },
    {
      "inputs": [],
      "name": "methodologist",
      "outputs": [
        {
          "internalType": "address",
          "name": "",
          "type": "address"
        }
      ],
      "stateMutability": "view",
      "type": "function"
    },
    {
      "inputs": [],
      "name": "methodology",
      "outputs": [
        {
          "internalType": "string",
          "name": "",
          "type": "string"
        }
      ],
      "stateMutability": "view",
      "type": "function"
    },
    {
      "inputs": [
        {
          "internalType": "address",
          "name": "to",
          "type": "address"
        },
        {
          "internalType": "uint256",
          "name": "amount",
          "type": "uint256"
        }
      ],
      "name": "mint",
      "outputs": [],
      "stateMutability": "nonpayable",
      "type": "function"
    },
    {
      "inputs": [],
      "name": "mintToFeeReceiver",
      "outputs": [],
      "stateMutability": "nonpayable",
      "type": "function"
    },
    {
      "inputs": [],
      "name": "minter",
      "outputs": [
        {
          "internalType": "address",
          "name": "",
          "type": "address"
        }
      ],
      "stateMutability": "view",
      "type": "function"
    },
    {
      "inputs": [],
      "name": "name",
      "outputs": [
        {
          "internalType": "string",
          "name": "",
          "type": "string"
        }
      ],
      "stateMutability": "view",
      "type": "function"
    },
    {
      "inputs": [],
      "name": "owner",
      "outputs": [
        {
          "internalType": "address",
          "name": "",
          "type": "address"
        }
      ],
      "stateMutability": "view",
      "type": "function"
    },
    {
      "inputs": [],
      "name": "pause",
      "outputs": [],
      "stateMutability": "nonpayable",
      "type": "function"
    },
    {
      "inputs": [],
      "name": "paused",
      "outputs": [
        {
          "internalType": "bool",
          "name": "",
          "type": "bool"
        }
      ],
      "stateMutability": "view",
      "type": "function"
    },
    {
      "inputs": [
        {
          "internalType": "address",
          "name": "_proposedOwner",
          "type": "address"
        }
      ],
      "name": "proposeOwner",
      "outputs": [],
      "stateMutability": "nonpayable",
      "type": "function"
    },
    {
      "inputs": [],
      "name": "proposedOwner",
      "outputs": [
        {
          "internalType": "address",
          "name": "",
          "type": "address"
        }
      ],
      "stateMutability": "view",
      "type": "function"
    },
    {
      "inputs": [],
      "name": "quoter",
      "outputs": [
        {
          "internalType": "contract IQuoter",
          "name": "",
          "type": "address"
        }
      ],
      "stateMutability": "view",
      "type": "function"
    },
    {
      "inputs": [],
      "name": "renounceOwnership",
      "outputs": [],
      "stateMutability": "nonpayable",
      "type": "function"
    },
    {
      "inputs": [
        {
          "internalType": "uint256",
          "name": "_feeRatePerDayScaled",
          "type": "uint256"
        }
      ],
      "name": "setFeeRate",
      "outputs": [],
      "stateMutability": "nonpayable",
      "type": "function"
    },
    {
      "inputs": [
        {
          "internalType": "address",
          "name": "_feeReceiver",
          "type": "address"
        }
      ],
      "name": "setFeeReceiver",
      "outputs": [],
      "stateMutability": "nonpayable",
      "type": "function"
    },
    {
      "inputs": [
        {
          "internalType": "address",
          "name": "_methodologist",
          "type": "address"
        }
      ],
      "name": "setMethodologist",
      "outputs": [],
      "stateMutability": "nonpayable",
      "type": "function"
    },
    {
      "inputs": [
        {
          "internalType": "string",
          "name": "_methodology",
          "type": "string"
        }
      ],
      "name": "setMethodology",
      "outputs": [],
      "stateMutability": "nonpayable",
      "type": "function"
    },
    {
      "inputs": [
        {
          "internalType": "address",
          "name": "_minter",
          "type": "address"
        }
      ],
      "name": "setMinter",
      "outputs": [],
      "stateMutability": "nonpayable",
      "type": "function"
    },
    {
      "inputs": [
        {
          "internalType": "uint256",
          "name": "_supplyCeiling",
          "type": "uint256"
        }
      ],
      "name": "setSupplyCeiling",
      "outputs": [],
      "stateMutability": "nonpayable",
      "type": "function"
    },
    {
      "inputs": [],
      "name": "supplyCeiling",
      "outputs": [
        {
          "internalType": "uint256",
          "name": "",
          "type": "uint256"
        }
      ],
      "stateMutability": "view",
      "type": "function"
    },
    {
      "inputs": [],
      "name": "swapRouterV2",
      "outputs": [
        {
          "internalType": "contract IUniswapV2Router02",
          "name": "",
          "type": "address"
        }
      ],
      "stateMutability": "view",
      "type": "function"
    },
    {
      "inputs": [],
      "name": "swapRouterV3",
      "outputs": [
        {
          "internalType": "contract ISwapRouter",
          "name": "",
          "type": "address"
        }
      ],
      "stateMutability": "view",
      "type": "function"
    },
    {
      "inputs": [
        {
          "internalType": "address",
          "name": "tokenIn",
          "type": "address"
        },
        {
          "internalType": "address",
          "name": "tokenOut",
          "type": "address"
        },
        {
          "internalType": "uint256",
          "name": "amountIn",
          "type": "uint256"
        },
        {
          "internalType": "address",
          "name": "_recipient",
          "type": "address"
        },
        {
          "internalType": "uint256",
          "name": "_swapVersion",
          "type": "uint256"
        }
      ],
      "name": "swapSingle",
      "outputs": [
        {
          "internalType": "uint256",
          "name": "",
          "type": "uint256"
        }
      ],
      "stateMutability": "nonpayable",
      "type": "function"
    },
    {
      "inputs": [],
      "name": "symbol",
      "outputs": [
        {
          "internalType": "string",
          "name": "",
          "type": "string"
        }
      ],
      "stateMutability": "view",
      "type": "function"
    },
    {
      "inputs": [
        {
          "internalType": "address",
          "name": "who",
          "type": "address"
        }
      ],
      "name": "toggleRestriction",
      "outputs": [],
      "stateMutability": "nonpayable",
      "type": "function"
    },
    {
      "inputs": [
        {
          "internalType": "address",
          "name": "",
          "type": "address"
        }
      ],
      "name": "tokenMarketShare",
      "outputs": [
        {
          "internalType": "uint256",
          "name": "",
          "type": "uint256"
        }
      ],
      "stateMutability": "view",
      "type": "function"
    },
    {
      "inputs": [
        {
          "internalType": "address",
          "name": "",
          "type": "address"
        }
      ],
      "name": "tokenSwapVersion",
      "outputs": [
        {
          "internalType": "uint256",
          "name": "",
          "type": "uint256"
        }
      ],
      "stateMutability": "view",
      "type": "function"
    },
    {
      "inputs": [],
      "name": "totalSupply",
      "outputs": [
        {
          "internalType": "uint256",
          "name": "",
          "type": "uint256"
        }
      ],
      "stateMutability": "view",
      "type": "function"
    },
    {
      "inputs": [
        {
          "internalType": "address",
          "name": "to",
          "type": "address"
        },
        {
          "internalType": "uint256",
          "name": "amount",
          "type": "uint256"
        }
      ],
      "name": "transfer",
      "outputs": [
        {
          "internalType": "bool",
          "name": "",
          "type": "bool"
        }
      ],
      "stateMutability": "nonpayable",
      "type": "function"
    },
    {
      "inputs": [
        {
          "internalType": "address",
          "name": "from",
          "type": "address"
        },
        {
          "internalType": "address",
          "name": "to",
          "type": "address"
        },
        {
          "internalType": "uint256",
          "name": "amount",
          "type": "uint256"
        }
      ],
      "name": "transferFrom",
      "outputs": [
        {
          "internalType": "bool",
          "name": "",
          "type": "bool"
        }
      ],
      "stateMutability": "nonpayable",
      "type": "function"
    },
    {
      "inputs": [
        {
          "internalType": "address",
          "name": "newOwner",
          "type": "address"
        }
      ],
      "name": "transferOwnership",
      "outputs": [],
      "stateMutability": "nonpayable",
      "type": "function"
    },
    {
      "inputs": [],
      "name": "unpause",
      "outputs": [],
      "stateMutability": "nonpayable",
      "type": "function"
    },
    {
      "inputs": [],
      "name": "weth",
      "outputs": [
        {
          "internalType": "contract IWETH",
          "name": "",
          "type": "address"
        }
      ],
      "stateMutability": "view",
      "type": "function"
    },
    {
      "inputs": [
        {
          "internalType": "address",
          "name": "to",
          "type": "address"
        },
        {
          "internalType": "uint256",
          "name": "amount",
          "type": "uint256"
        }
      ],
      "name": "wethTransfer",
      "outputs": [],
      "stateMutability": "nonpayable",
      "type": "function"
    },
    {
      "stateMutability": "payable",
      "type": "receive"
    }
  ],
  "bytecode": {
    "object": "0x608060405234801561001057600080fd5b50612a54806100206000396000f3fe6080604052600436106102cd5760003560e01c80638456cb5911610175578063b631e80b116100dc578063ddca3f4311610095578063f2fde38b1161006f578063f2fde38b1461089e578063f734e22a146108be578063fca3b5aa146108d3578063fcaae87b146108f357600080fd5b8063ddca3f4314610848578063ed1c11cb1461085e578063efdcd9741461087e57600080fd5b8063b631e80b14610767578063c01bc98214610788578063c6bbd5a7146107b9578063d153b60c146107da578063d90bc211146107fa578063dd62ed3e1461082857600080fd5b80639f8e67bf1161012e5780639f8e67bf146106a6578063a457c2d7146106c7578063a9059cbb146106e7578063aaa4a18414610707578063b3f0067414610727578063b5ed298a1461074757600080fd5b80638456cb59146106095780638da5cb5b1461061e57806391fe1b921461063c57806395d89b411461065c5780639dc29fac146106715780639eeb1d501461069157600080fd5b80633fc8cef31161023457806368e0d4e1116101ed578063715018a6116101c7578063715018a614610593578063744fbc7a146105a857806377524af9146105c957806379e34b4d146105e957600080fd5b806368e0d4e11461051c5780636e01a6861461053d57806370a082311461055d57600080fd5b80633fc8cef31461046357806340c10f191461048457806345596e2e146104a45780635c975abb146104c45780635f370ed0146104dc578063660db484146104fc57600080fd5b806323b872dd1161028657806323b872dd146103c35780632b52684d146103e35780632fecd589146103fa578063313ce56714610410578063395093511461042c5780633f4ba83a1461044c57600080fd5b806306fdde03146102d95780630754617214610304578063095ea7b31461033d57806318160ddd1461036d578063184a732f1461038c5780631d5f45f5146103a257600080fd5b366102d457005b600080fd5b3480156102e557600080fd5b506102ee610921565b6040516102fb919061272b565b60405180910390f35b34801561031057600080fd5b5061010154610325906001600160a01b031681565b6040516001600160a01b0390911681526020016102fb565b34801561034957600080fd5b5061035d610358366004612581565b6109b3565b60405190151581526020016102fb565b34801561037957600080fd5b506035545b6040519081526020016102fb565b34801561039857600080fd5b5061037e60fe5481565b3480156103ae57600080fd5b5061010854610325906001600160a01b031681565b3480156103cf57600080fd5b5061035d6103de3660046124f0565b6109cb565b3480156103ef57600080fd5b5061037e6101035481565b34801561040657600080fd5b5061037e60fd5481565b34801561041c57600080fd5b50604051601281526020016102fb565b34801561043857600080fd5b5061035d610447366004612581565b610abe565b34801561045857600080fd5b50610461610ae0565b005b34801561046f57600080fd5b5061010b54610325906001600160a01b031681565b34801561049057600080fd5b5061046161049f366004612581565b610af2565b3480156104b057600080fd5b506104616104bf3660046126f9565b610c0c565b3480156104d057600080fd5b5060ca5460ff1661035d565b3480156104e857600080fd5b5061037e6104f736600461252c565b610c4f565b34801561050857600080fd5b5061046161051736600461249b565b610f9c565b34801561052857600080fd5b5061010a54610325906001600160a01b031681565b34801561054957600080fd5b506104616105583660046126f9565b611002565b34801561056957600080fd5b5061037e61057836600461249b565b6001600160a01b031660009081526033602052604090205490565b34801561059f57600080fd5b50610461611047565b3480156105b457600080fd5b5061010954610325906001600160a01b031681565b3480156105d557600080fd5b506104616105e4366004612581565b611059565b3480156105f557600080fd5b506104616106043660046124f0565b611110565b34801561061557600080fd5b506104616111c3565b34801561062a57600080fd5b506065546001600160a01b0316610325565b34801561064857600080fd5b506104616106573660046125cd565b6111d3565b34801561066857600080fd5b506102ee611286565b34801561067d57600080fd5b5061046161068c366004612581565b611295565b34801561069d57600080fd5b506102ee61136a565b3480156106b257600080fd5b5061010054610325906001600160a01b031681565b3480156106d357600080fd5b5061035d6106e2366004612581565b6113f9565b3480156106f357600080fd5b5061035d610702366004612581565b61147f565b34801561071357600080fd5b5061046161072236600461249b565b611508565b34801561073357600080fd5b5060ff54610325906001600160a01b031681565b34801561075357600080fd5b5061046161076236600461249b565b61157c565b34801561077357600080fd5b5061010754610325906001600160a01b031681565b34801561079457600080fd5b5061035d6107a336600461249b565b6101046020526000908152604090205460ff1681565b3480156107c557600080fd5b5061010c54610325906001600160a01b031681565b3480156107e657600080fd5b50609754610325906001600160a01b031681565b34801561080657600080fd5b5061037e61081536600461249b565b6101066020526000908152604090205481565b34801561083457600080fd5b5061037e6108433660046124bd565b6115cc565b34801561085457600080fd5b5061037e60fc5481565b34801561086a57600080fd5b5061046161087936600461260a565b6115f7565b34801561088a57600080fd5b5061046161089936600461249b565b6117c3565b3480156108aa57600080fd5b506104616108b936600461249b565b611828565b3480156108ca57600080fd5b50610461611950565b3480156108df57600080fd5b506104616108ee36600461249b565b611960565b3480156108ff57600080fd5b5061037e61090e36600461249b565b6101056020526000908152604090205481565b606060368054610930906129a1565b80601f016020809104026020016040519081016040528092919081815260200182805461095c906129a1565b80156109a95780601f1061097e576101008083540402835291602001916109a9565b820191906000526020600020905b81548152906001019060200180831161098c57829003601f168201915b5050505050905090565b6000336109c18185856119c6565b5060019392505050565b60006109d5611aea565b336000908152610104602052604090205460ff1615610a0f5760405162461bcd60e51b8152600401610a06906127aa565b60405180910390fd5b6001600160a01b0383166000908152610104602052604090205460ff1615610a495760405162461bcd60e51b8152600401610a0690612780565b6001600160a01b0384166000908152610104602052604090205460ff1615610aa85760405162461bcd60e51b8152602060048201526012602482015271199c9bdb481a5cc81c995cdd1c9a58dd195960721b6044820152606401610a06565b610ab3843384611b30565b6109c1848484611ba4565b6000336109c1818585610ad183836115cc565b610adb9190612931565b6119c6565b610ae8611d4f565b610af0611da9565b565b610afa611aea565b610101546001600160a01b03163314610b255760405162461bcd60e51b8152600401610a06906127e1565b6101035481610b3360355490565b610b3d9190612931565b1115610b8b5760405162461bcd60e51b815260206004820152601a60248201527f77696c6c2065786365656420737570706c79206365696c696e670000000000006044820152606401610a06565b6001600160a01b0382166000908152610104602052604090205460ff1615610bc55760405162461bcd60e51b8152600401610a0690612780565b336000908152610104602052604090205460ff1615610bf65760405162461bcd60e51b8152600401610a06906127aa565b610bfe611dfb565b610c088282611f29565b5050565b610c14611d4f565b610c1c611dfb565b60fd81905560405181907f45398c451b1a31b88dbaed4e7b89a632f43cc4b50149d437db03a5300afe40d190600090a250565b610101546000906001600160a01b03163314610c7d5760405162461bcd60e51b8152600401610a06906127e1565b8160031415610e22576101075460405163095ea7b360e01b81526001600160a01b039182166004820152602481018690529087169063095ea7b390604401602060405180830381600087803b158015610cd557600080fd5b505af1158015610ce9573d6000803e3d6000fd5b505050506040513d601f19601f82011682018060405250810190610d0d91906125ab565b5060408051610100810182526001600160a01b03888116825287811660208301908152610bb883850190815287831660608501908152426080860190815260a086018b8152600060c0880181815260e08901828152610107549a5163414bf38960e01b81528a518a166004820152975189166024890152955162ffffff166044880152935187166064870152915160848601525160a4850152905160c48401529051831660e483015292939091169063414bf3899061010401602060405180830381600087803b158015610de057600080fd5b505af1158015610df4573d6000803e3d6000fd5b505050506040513d601f19601f82011682018060405250810190610e189190612712565b9250610f93915050565b6040805160028082526060820183526000926020830190803683370190505090508681600081518110610e5757610e576129f2565b60200260200101906001600160a01b031690816001600160a01b0316815250508581600181518110610e8b57610e8b6129f2565b6001600160a01b0392831660209182029290920101526101095460405163095ea7b360e01b81529082166004820152602481018790529088169063095ea7b390604401602060405180830381600087803b158015610ee857600080fd5b505af1158015610efc573d6000803e3d6000fd5b505050506040513d601f19601f82011682018060405250810190610f2091906125ab565b5061010954604051635c11d79560e01b81526001600160a01b0390911690635c11d79590610f5b90889060009086908a9042906004016128c0565b600060405180830381600087803b158015610f7557600080fd5b505af1158015610f89573d6000803e3d6000fd5b5050505060009150505b95945050505050565b610fa4611d4f565b6001600160a01b038116610fb757600080fd5b61010080546001600160a01b0319166001600160a01b0383169081179091556040517f164d8ef0d742b45087644f55c61abeb84557df70d06730591e451f0981e278ca90600090a250565b61100a611d4f565b6101038190556040518181527fe35be406f69e9d11d6ac8e5b54bbc8b6c4baf2fa2359f84a56baa5ea5d07dc8f906020015b60405180910390a150565b61104f611d4f565b610af06000611fea565b610101546001600160a01b031633146110845760405162461bcd60e51b8152600401610a06906127e1565b61010b5460405163a9059cbb60e01b81526001600160a01b038481166004830152602482018490529091169063a9059cbb90604401602060405180830381600087803b1580156110d357600080fd5b505af11580156110e7573d6000803e3d6000fd5b505050506040513d601f19601f8201168201806040525081019061110b91906125ab565b505050565b610101546001600160a01b0316331461113b5760405162461bcd60e51b8152600401610a06906127e1565b60405163095ea7b360e01b81526001600160a01b0383811660048301526024820183905284169063095ea7b390604401602060405180830381600087803b15801561118557600080fd5b505af1158015611199573d6000803e3d6000fd5b505050506040513d601f19601f820116820180604052508101906111bd91906125ab565b50505050565b6111cb611d4f565b610af061203c565b610100546001600160a01b031633146112425760405162461bcd60e51b815260206004820152602b60248201527f496e646578546f6b656e3a2063616c6c6572206973206e6f7420746865206d6560448201526a1d1a1bd91bdb1bd9da5cdd60aa1b6064820152608401610a06565b805161125690610102906020840190612359565b507fe6be68107100e39cb16d675c1086a4d5479fbd01108d721dabbccaa2249b995f8160405161103c919061272b565b606060378054610930906129a1565b61129d611aea565b610101546001600160a01b031633146112c85760405162461bcd60e51b8152600401610a06906127e1565b6001600160a01b0382166000908152610104602052604090205460ff16156113275760405162461bcd60e51b8152602060048201526012602482015271199c9bdb481a5cc81c995cdd1c9a58dd195960721b6044820152606401610a06565b336000908152610104602052604090205460ff16156113585760405162461bcd60e51b8152600401610a06906127aa565b611360611dfb565b610c088282612079565b6101028054611378906129a1565b80601f01602080910402602001604051908101604052809291908181526020018280546113a4906129a1565b80156113f15780601f106113c6576101008083540402835291602001916113f1565b820191906000526020600020905b8154815290600101906020018083116113d457829003601f168201915b505050505081565b6000338161140782866115cc565b9050838110156114675760405162461bcd60e51b815260206004820152602560248201527f45524332303a2064656372656173656420616c6c6f77616e63652062656c6f77604482015264207a65726f60d81b6064820152608401610a06565b61147482868684036119c6565b506001949350505050565b6000611489611aea565b336000908152610104602052604090205460ff16156114ba5760405162461bcd60e51b8152600401610a06906127aa565b6001600160a01b0383166000908152610104602052604090205460ff16156114f45760405162461bcd60e51b8152600401610a0690612780565b6114ff338484611ba4565b50600192915050565b611510611d4f565b6001600160a01b0381166000818152610104602052604090819020805460ff19811660ff9182161590811790925591517f14ddf324cc5d8b14a3c3b12c84b0a7d578d72c8d60655c06d6a457e71431d5ee9261157192161515815260200190565b60405180910390a250565b611584611d4f565b6001600160a01b0381166115aa5760405162461bcd60e51b8152600401610a0690612825565b609780546001600160a01b0319166001600160a01b0392909216919091179055565b6001600160a01b03918216600090815260346020908152604080832093909416825291909152205490565b600054610100900460ff16158080156116175750600054600160ff909116105b806116315750303b158015611631575060005460ff166001145b6116945760405162461bcd60e51b815260206004820152602e60248201527f496e697469616c697a61626c653a20636f6e747261637420697320616c72656160448201526d191e481a5b9a5d1a585b1a5e995960921b6064820152608401610a06565b6000805460ff1916600117905580156116b7576000805461ff0019166101001790555b6001600160a01b0389166116ca57600080fd5b6116d26121ad565b6116da6121dc565b6116e48c8c61220b565b6116ec61223c565b60fd8a905560ff80546001600160a01b03199081166001600160a01b038c8116919091179092556101038a90554260fe5561010b805482168a841617905561010c8054821689841617905561010780548216888416179055610108805482168784161790556101098054821686841617905561010a805490911691841691909117905580156117b5576000805461ff0019169055604051600181527f7f26b83ff96e1f2b6a682f133852f6798a09c465da95921460cefb38474024989060200160405180910390a15b505050505050505050505050565b6117cb611d4f565b6001600160a01b0381166117de57600080fd5b60ff80546001600160a01b0319166001600160a01b0383169081179091556040517fbdf37c276f641820b141429d245add2552b4118c0866e5a78638e3de5ef18d9d90600090a250565b6001600160a01b03811661184e5760405162461bcd60e51b8152600401610a0690612825565b6097546001600160a01b038281169116146118c65760405162461bcd60e51b815260206004820152603260248201527f50726f706f7361626c654f776e61626c653a206e6577206f776e6572206973206044820152713737ba10383937b837b9b2b21037bbb732b960711b6064820152608401610a06565b6001600160a01b03811633146119445760405162461bcd60e51b815260206004820152603a60248201527f50726f706f7361626c654f776e61626c653a20746869732063616c6c206d757360448201527f74206265206d61646520627920746865206e6577206f776e65720000000000006064820152608401610a06565b61194d81611fea565b50565b611958611d4f565b610af0611dfb565b611968611d4f565b6001600160a01b03811661197b57600080fd5b61010180546001600160a01b0319166001600160a01b0383169081179091556040517f726b590ef91a8c76ad05bbe91a57ef84605276528f49cd47d787f558a4e755b690600090a250565b6001600160a01b038316611a285760405162461bcd60e51b8152602060048201526024808201527f45524332303a20617070726f76652066726f6d20746865207a65726f206164646044820152637265737360e01b6064820152608401610a06565b6001600160a01b038216611a895760405162461bcd60e51b815260206004820152602260248201527f45524332303a20617070726f766520746f20746865207a65726f206164647265604482015261737360f01b6064820152608401610a06565b6001600160a01b0383811660008181526034602090815260408083209487168084529482529182902085905590518481527f8c5be1e5ebec7d5bd14f71427d1e84f3dd0314c0f7b2291e5b200ac8c7c3b925910160405180910390a3505050565b60ca5460ff1615610af05760405162461bcd60e51b815260206004820152601060248201526f14185d5cd8589b194e881c185d5cd95960821b6044820152606401610a06565b6000611b3c84846115cc565b905060001981146111bd5781811015611b975760405162461bcd60e51b815260206004820152601d60248201527f45524332303a20696e73756666696369656e7420616c6c6f77616e63650000006044820152606401610a06565b6111bd84848484036119c6565b6001600160a01b038316611c085760405162461bcd60e51b815260206004820152602560248201527f45524332303a207472616e736665722066726f6d20746865207a65726f206164604482015264647265737360d81b6064820152608401610a06565b6001600160a01b038216611c6a5760405162461bcd60e51b815260206004820152602360248201527f45524332303a207472616e7366657220746f20746865207a65726f206164647260448201526265737360e81b6064820152608401610a06565b6001600160a01b03831660009081526033602052604090205481811015611ce25760405162461bcd60e51b815260206004820152602660248201527f45524332303a207472616e7366657220616d6f756e7420657863656564732062604482015265616c616e636560d01b6064820152608401610a06565b6001600160a01b0380851660008181526033602052604080822086860390559286168082529083902080548601905591517fddf252ad1be2c89b69c2b068fc378daa952ba7f163c4a11628f55a4df523b3ef90611d429086815260200190565b60405180910390a36111bd565b6065546001600160a01b03163314610af05760405162461bcd60e51b815260206004820181905260248201527f4f776e61626c653a2063616c6c6572206973206e6f7420746865206f776e65726044820152606401610a06565b611db1612263565b60ca805460ff191690557f5db9ee0a495bf2e6ff9c91a7834c1ba4fdd244a5e8aa4e537bd38aeae4b073aa335b6040516001600160a01b03909116815260200160405180910390a1565b60006201518060fe5442611e0f919061298a565b611e199190612949565b90506001811061194d576000611e2e60355490565b60fd54909150819060005b84811015611e735768056bc75e2d63100000611e55838561296b565b611e5f9190612949565b611e699084612931565b9250600101611e39565b506000611e80848461298a565b9050611e8f856201518061296b565b60fe6000828254611ea09190612931565b909155505060ff54611ebb906001600160a01b031682611f29565b60ff547f07982395c678b2ffc23fcf59aaec243ca79418c285af0d0e10b4e65bc4189f4c906001600160a01b031642611ef360355490565b604080516001600160a01b0390941684526020840192909252908201526060810183905260800160405180910390a15050505050565b6001600160a01b038216611f7f5760405162461bcd60e51b815260206004820152601f60248201527f45524332303a206d696e7420746f20746865207a65726f2061646472657373006044820152606401610a06565b8060356000828254611f919190612931565b90915550506001600160a01b0382166000818152603360209081526040808320805486019055518481527fddf252ad1be2c89b69c2b068fc378daa952ba7f163c4a11628f55a4df523b3ef910160405180910390a35050565b606580546001600160a01b038381166001600160a01b0319831681179093556040519116919082907f8be0079c531659141344cd1fd0a4f28419497f9722a3daafe3b4186f6b6457e090600090a35050565b612044611aea565b60ca805460ff191660011790557f62e78cea01bee320cd4e420270b5ea74000d11b0c9f74754ebdbfc544b05a258611dde3390565b6001600160a01b0382166120d95760405162461bcd60e51b815260206004820152602160248201527f45524332303a206275726e2066726f6d20746865207a65726f206164647265736044820152607360f81b6064820152608401610a06565b6001600160a01b0382166000908152603360205260409020548181101561214d5760405162461bcd60e51b815260206004820152602260248201527f45524332303a206275726e20616d6f756e7420657863656564732062616c616e604482015261636560f01b6064820152608401610a06565b6001600160a01b03831660008181526033602090815260408083208686039055603580548790039055518581529192917fddf252ad1be2c89b69c2b068fc378daa952ba7f163c4a11628f55a4df523b3ef910160405180910390a3505050565b600054610100900460ff166121d45760405162461bcd60e51b8152600401610a0690612875565b610af06122ac565b600054610100900460ff166122035760405162461bcd60e51b8152600401610a0690612875565b610af06122dc565b600054610100900460ff166122325760405162461bcd60e51b8152600401610a0690612875565b610c08828261230f565b600054610100900460ff16610af05760405162461bcd60e51b8152600401610a0690612875565b60ca5460ff16610af05760405162461bcd60e51b815260206004820152601460248201527314185d5cd8589b194e881b9bdd081c185d5cd95960621b6044820152606401610a06565b600054610100900460ff166122d35760405162461bcd60e51b8152600401610a0690612875565b610af033611fea565b600054610100900460ff166123035760405162461bcd60e51b8152600401610a0690612875565b60ca805460ff19169055565b600054610100900460ff166123365760405162461bcd60e51b8152600401610a0690612875565b8151612349906036906020850190612359565b50805161110b9060379060208401905b828054612365906129a1565b90600052602060002090601f01602090048101928261238757600085556123cd565b82601f106123a057805160ff19168380011785556123cd565b828001600101855582156123cd579182015b828111156123cd5782518255916020019190600101906123b2565b506123d99291506123dd565b5090565b5b808211156123d957600081556001016123de565b80356001600160a01b038116811461240957600080fd5b919050565b600082601f83011261241f57600080fd5b813567ffffffffffffffff8082111561243a5761243a612a08565b604051601f8301601f19908116603f0116810190828211818310171561246257612462612a08565b8160405283815286602085880101111561247b57600080fd5b836020870160208301376000602085830101528094505050505092915050565b6000602082840312156124ad57600080fd5b6124b6826123f2565b9392505050565b600080604083850312156124d057600080fd5b6124d9836123f2565b91506124e7602084016123f2565b90509250929050565b60008060006060848603121561250557600080fd5b61250e846123f2565b925061251c602085016123f2565b9150604084013590509250925092565b600080600080600060a0868803121561254457600080fd5b61254d866123f2565b945061255b602087016123f2565b935060408601359250612570606087016123f2565b949793965091946080013592915050565b6000806040838503121561259457600080fd5b61259d836123f2565b946020939093013593505050565b6000602082840312156125bd57600080fd5b815180151581146124b657600080fd5b6000602082840312156125df57600080fd5b813567ffffffffffffffff8111156125f657600080fd5b6126028482850161240e565b949350505050565b60008060008060008060008060008060006101608c8e03121561262c57600080fd5b67ffffffffffffffff808d35111561264357600080fd5b6126508e8e358f0161240e565b9b508060208e0135111561266357600080fd5b506126748d60208e01358e0161240e565b995060408c0135985061268960608d016123f2565b975060808c0135965061269e60a08d016123f2565b95506126ac60c08d016123f2565b94506126ba60e08d016123f2565b93506126c96101008d016123f2565b92506126d86101208d016123f2565b91506126e76101408d016123f2565b90509295989b509295989b9093969950565b60006020828403121561270b57600080fd5b5035919050565b60006020828403121561272457600080fd5b5051919050565b600060208083528351808285015260005b818110156127585785810183015185820160400152820161273c565b8181111561276a576000604083870101525b50601f01601f1916929092016040019392505050565b60208082526010908201526f1d1bc81a5cc81c995cdd1c9a58dd195960821b604082015260600190565b60208082526018908201527f6d73672e73656e64657220697320726573747269637465640000000000000000604082015260600190565b60208082526024908201527f496e646578546f6b656e3a2063616c6c6572206973206e6f7420746865206d69604082015263373a32b960e11b606082015260800190565b60208082526030908201527f50726f706f7361626c654f776e61626c653a206e6577206f776e65722069732060408201526f746865207a65726f206164647265737360801b606082015260800190565b6020808252602b908201527f496e697469616c697a61626c653a20636f6e7472616374206973206e6f74206960408201526a6e697469616c697a696e6760a81b606082015260800190565b600060a082018783526020878185015260a0604085015281875180845260c086019150828901935060005b818110156129105784516001600160a01b0316835293830193918301916001016128eb565b50506001600160a01b03969096166060850152505050608001529392505050565b60008219821115612944576129446129dc565b500190565b60008261296657634e487b7160e01b600052601260045260246000fd5b500490565b6000816000190483118215151615612985576129856129dc565b500290565b60008282101561299c5761299c6129dc565b500390565b600181811c908216806129b557607f821691505b602082108114156129d657634e487b7160e01b600052602260045260246000fd5b50919050565b634e487b7160e01b600052601160045260246000fd5b634e487b7160e01b600052603260045260246000fd5b634e487b7160e01b600052604160045260246000fdfea2646970667358221220b8921af9a0af5bbfa65356f8906b98cf4c391bcca9e11ff10128a4239c179ffe64736f6c63430008070033",
    "linkReferences": {}
  },
  "methodIdentifiers": {
    "allowance(address,address)": "dd62ed3e",
    "approve(address,uint256)": "095ea7b3",
    "approveSwapToken(address,address,uint256)": "79e34b4d",
    "balanceOf(address)": "70a08231",
    "burn(address,uint256)": "9dc29fac",
    "decimals()": "313ce567",
    "decreaseAllowance(address,uint256)": "a457c2d7",
    "factoryV2()": "68e0d4e1",
    "factoryV3()": "1d5f45f5",
    "fee()": "ddca3f43",
    "feeRatePerDayScaled()": "2fecd589",
    "feeReceiver()": "b3f00674",
    "feeTimestamp()": "184a732f",
    "increaseAllowance(address,uint256)": "39509351",
    "initialize(string,string,uint256,address,uint256,address,address,address,address,address,address)": "ed1c11cb",
    "isRestricted(address)": "c01bc982",
    "methodologist()": "9f8e67bf",
    "methodology()": "9eeb1d50",
    "mint(address,uint256)": "40c10f19",
    "mintToFeeReceiver()": "f734e22a",
    "minter()": "07546172",
    "name()": "06fdde03",
    "owner()": "8da5cb5b",
    "pause()": "8456cb59",
    "paused()": "5c975abb",
    "proposeOwner(address)": "b5ed298a",
    "proposedOwner()": "d153b60c",
    "quoter()": "c6bbd5a7",
    "renounceOwnership()": "715018a6",
    "setFeeRate(uint256)": "45596e2e",
    "setFeeReceiver(address)": "efdcd974",
    "setMethodologist(address)": "660db484",
    "setMethodology(string)": "91fe1b92",
    "setMinter(address)": "fca3b5aa",
    "setSupplyCeiling(uint256)": "6e01a686",
    "supplyCeiling()": "2b52684d",
    "swapRouterV2()": "744fbc7a",
    "swapRouterV3()": "b631e80b",
    "swapSingle(address,address,uint256,address,uint256)": "5f370ed0",
    "symbol()": "95d89b41",
    "toggleRestriction(address)": "aaa4a184",
    "tokenMarketShare(address)": "fcaae87b",
    "tokenSwapVersion(address)": "d90bc211",
    "totalSupply()": "18160ddd",
    "transfer(address,uint256)": "a9059cbb",
    "transferFrom(address,address,uint256)": "23b872dd",
    "transferOwnership(address)": "f2fde38b",
    "unpause()": "3f4ba83a",
    "weth()": "3fc8cef3",
    "wethTransfer(address,uint256)": "77524af9"
  },
  "id": 31
}