{"abi":[{"type":"receive","stateMutability":"payable"},{"type":"function","name":"allowance","inputs":[{"name":"owner","type":"address","internalType":"address"},{"name":"spender","type":"address","internalType":"address"}],"outputs":[{"name":"","type":"uint256","internalType":"uint256"}],"stateMutability":"view"},{"type":"function","name":"approve","inputs":[{"name":"spender","type":"address","internalType":"address"},{"name":"amount","type":"uint256","internalType":"uint256"}],"outputs":[{"name":"","type":"bool","internalType":"bool"}],"stateMutability":"nonpayable"},{"type":"function","name":"approveSwapToken","inputs":[{"name":"_token","type":"address","internalType":"address"},{"name":"_to","type":"address","internalType":"address"},{"name":"_amount","type":"uint256","internalType":"uint256"}],"outputs":[],"stateMutability":"nonpayable"},{"type":"function","name":"balanceOf","inputs":[{"name":"account","type":"address","internalType":"address"}],"outputs":[{"name":"","type":"uint256","internalType":"uint256"}],"stateMutability":"view"},{"type":"function","name":"burn","inputs":[{"name":"from","type":"address","internalType":"address"},{"name":"amount","type":"uint256","internalType":"uint256"}],"outputs":[],"stateMutability":"nonpayable"},{"type":"function","name":"decimals","inputs":[],"outputs":[{"name":"","type":"uint8","internalType":"uint8"}],"stateMutability":"view"},{"type":"function","name":"decreaseAllowance","inputs":[{"name":"spender","type":"address","internalType":"address"},{"name":"subtractedValue","type":"uint256","internalType":"uint256"}],"outputs":[{"name":"","type":"bool","internalType":"bool"}],"stateMutability":"nonpayable"},{"type":"function","name":"factoryV2","inputs":[],"outputs":[{"name":"","type":"address","internalType":"contract IUniswapV2Factory"}],"stateMutability":"view"},{"type":"function","name":"factoryV3","inputs":[],"outputs":[{"name":"","type":"address","internalType":"contract IUniswapV3Factory"}],"stateMutability":"view"},{"type":"function","name":"fee","inputs":[],"outputs":[{"name":"","type":"uint256","internalType":"uint256"}],"stateMutability":"view"},{"type":"function","name":"feeRatePerDayScaled","inputs":[],"outputs":[{"name":"","type":"uint256","internalType":"uint256"}],"stateMutability":"view"},{"type":"function","name":"feeReceiver","inputs":[],"outputs":[{"name":"","type":"address","internalType":"address"}],"stateMutability":"view"},{"type":"function","name":"feeTimestamp","inputs":[],"outputs":[{"name":"","type":"uint256","internalType":"uint256"}],"stateMutability":"view"},{"type":"function","name":"increaseAllowance","inputs":[{"name":"spender","type":"address","internalType":"address"},{"name":"addedValue","type":"uint256","internalType":"uint256"}],"outputs":[{"name":"","type":"bool","internalType":"bool"}],"stateMutability":"nonpayable"},{"type":"function","name":"initialize","inputs":[{"name":"tokenName","type":"string","internalType":"string"},{"name":"tokenSymbol","type":"string","internalType":"string"},{"name":"_feeRatePerDayScaled","type":"uint256","internalType":"uint256"},{"name":"_feeReceiver","type":"address","internalType":"address"},{"name":"_supplyCeiling","type":"uint256","internalType":"uint256"},{"name":"_weth","type":"address","internalType":"address"},{"name":"_quoter","type":"address","internalType":"address"},{"name":"_swapRouterV3","type":"address","internalType":"address"},{"name":"_factoryV3","type":"address","internalType":"address"},{"name":"_swapRouterV2","type":"address","internalType":"address"},{"name":"_factoryV2","type":"address","internalType":"address"}],"outputs":[],"stateMutability":"nonpayable"},{"type":"function","name":"isRestricted","inputs":[{"name":"","type":"address","internalType":"address"}],"outputs":[{"name":"","type":"bool","internalType":"bool"}],"stateMutability":"view"},{"type":"function","name":"methodologist","inputs":[],"outputs":[{"name":"","type":"address","internalType":"address"}],"stateMutability":"view"},{"type":"function","name":"methodology","inputs":[],"outputs":[{"name":"","type":"string","internalType":"string"}],"stateMutability":"view"},{"type":"function","name":"mint","inputs":[{"name":"to","type":"address","internalType":"address"},{"name":"amount","type":"uint256","internalType":"uint256"}],"outputs":[],"stateMutability":"nonpayable"},{"type":"function","name":"mintToFeeReceiver","inputs":[],"outputs":[],"stateMutability":"nonpayable"},{"type":"function","name":"minter","inputs":[],"outputs":[{"name":"","type":"address","internalType":"address"}],"stateMutability":"view"},{"type":"function","name":"name","inputs":[],"outputs":[{"name":"","type":"string","internalType":"string"}],"stateMutability":"view"},{"type":"function","name":"owner","inputs":[],"outputs":[{"name":"","type":"address","internalType":"address"}],"stateMutability":"view"},{"type":"function","name":"pause","inputs":[],"outputs":[],"stateMutability":"nonpayable"},{"type":"function","name":"paused","inputs":[],"outputs":[{"name":"","type":"bool","internalType":"bool"}],"stateMutability":"view"},{"type":"function","name":"priceOracle","inputs":[],"outputs":[{"name":"","type":"address","internalType":"address"}],"stateMutability":"view"},{"type":"function","name":"proposeOwner","inputs":[{"name":"_proposedOwner","type":"address","internalType":"address"}],"outputs":[],"stateMutability":"nonpayable"},{"type":"function","name":"proposedOwner","inputs":[],"outputs":[{"name":"","type":"address","internalType":"address"}],"stateMutability":"view"},{"type":"function","name":"quoter","inputs":[],"outputs":[{"name":"","type":"address","internalType":"contract IQuoter"}],"stateMutability":"view"},{"type":"function","name":"renounceOwnership","inputs":[],"outputs":[],"stateMutability":"nonpayable"},{"type":"function","name":"setFeeRate","inputs":[{"name":"_feeRatePerDayScaled","type":"uint256","internalType":"uint256"}],"outputs":[],"stateMutability":"nonpayable"},{"type":"function","name":"setFeeReceiver","inputs":[{"name":"_feeReceiver","type":"address","internalType":"address"}],"outputs":[],"stateMutability":"nonpayable"},{"type":"function","name":"setMethodologist","inputs":[{"name":"_methodologist","type":"address","internalType":"address"}],"outputs":[],"stateMutability":"nonpayable"},{"type":"function","name":"setMethodology","inputs":[{"name":"_methodology","type":"string","internalType":"string"}],"outputs":[],"stateMutability":"nonpayable"},{"type":"function","name":"setMinter","inputs":[{"name":"_minter","type":"address","internalType":"address"}],"outputs":[],"stateMutability":"nonpayable"},{"type":"function","name":"setSupplyCeiling","inputs":[{"name":"_supplyCeiling","type":"uint256","internalType":"uint256"}],"outputs":[],"stateMutability":"nonpayable"},{"type":"function","name":"supplyCeiling","inputs":[],"outputs":[{"name":"","type":"uint256","internalType":"uint256"}],"stateMutability":"view"},{"type":"function","name":"swapRouterV2","inputs":[],"outputs":[{"name":"","type":"address","internalType":"contract IUniswapV2Router02"}],"stateMutability":"view"},{"type":"function","name":"swapRouterV3","inputs":[],"outputs":[{"name":"","type":"address","internalType":"contract ISwapRouter"}],"stateMutability":"view"},{"type":"function","name":"swapSingle","inputs":[{"name":"tokenIn","type":"address","internalType":"address"},{"name":"tokenOut","type":"address","internalType":"address"},{"name":"amountIn","type":"uint256","internalType":"uint256"},{"name":"_recipient","type":"address","internalType":"address"},{"name":"_swapVersion","type":"uint256","internalType":"uint256"}],"outputs":[{"name":"","type":"uint256","internalType":"uint256"}],"stateMutability":"nonpayable"},{"type":"function","name":"symbol","inputs":[],"outputs":[{"name":"","type":"string","internalType":"string"}],"stateMutability":"view"},{"type":"function","name":"toggleRestriction","inputs":[{"name":"who","type":"address","internalType":"address"}],"outputs":[],"stateMutability":"nonpayable"},{"type":"function","name":"tokenMarketShare","inputs":[{"name":"","type":"address","internalType":"address"}],"outputs":[{"name":"","type":"uint256","internalType":"uint256"}],"stateMutability":"view"},{"type":"function","name":"tokenSwapVersion","inputs":[{"name":"","type":"address","internalType":"address"}],"outputs":[{"name":"","type":"uint256","internalType":"uint256"}],"stateMutability":"view"},{"type":"function","name":"totalSupply","inputs":[],"outputs":[{"name":"","type":"uint256","internalType":"uint256"}],"stateMutability":"view"},{"type":"function","name":"transfer","inputs":[{"name":"to","type":"address","internalType":"address"},{"name":"amount","type":"uint256","internalType":"uint256"}],"outputs":[{"name":"","type":"bool","internalType":"bool"}],"stateMutability":"nonpayable"},{"type":"function","name":"transferFrom","inputs":[{"name":"from","type":"address","internalType":"address"},{"name":"to","type":"address","internalType":"address"},{"name":"amount","type":"uint256","internalType":"uint256"}],"outputs":[{"name":"","type":"bool","internalType":"bool"}],"stateMutability":"nonpayable"},{"type":"function","name":"transferOwnership","inputs":[{"name":"newOwner","type":"address","internalType":"address"}],"outputs":[],"stateMutability":"nonpayable"},{"type":"function","name":"unpause","inputs":[],"outputs":[],"stateMutability":"nonpayable"},{"type":"function","name":"weth","inputs":[],"outputs":[{"name":"","type":"address","internalType":"contract IWETH"}],"stateMutability":"view"},{"type":"function","name":"wethTransfer","inputs":[{"name":"to","type":"address","internalType":"address"},{"name":"amount","type":"uint256","internalType":"uint256"}],"outputs":[],"stateMutability":"nonpayable"},{"type":"event","name":"Approval","inputs":[{"name":"owner","type":"address","indexed":true,"internalType":"address"},{"name":"spender","type":"address","indexed":true,"internalType":"address"},{"name":"value","type":"uint256","indexed":false,"internalType":"uint256"}],"anonymous":false},{"type":"event","name":"FeeRateSet","inputs":[{"name":"feeRatePerDayScaled","type":"uint256","indexed":true,"internalType":"uint256"}],"anonymous":false},{"type":"event","name":"FeeReceiverSet","inputs":[{"name":"feeReceiver","type":"address","indexed":true,"internalType":"address"}],"anonymous":false},{"type":"event","name":"Initialized","inputs":[{"name":"version","type":"uint8","indexed":false,"internalType":"uint8"}],"anonymous":false},{"type":"event","name":"MethodologistSet","inputs":[{"name":"methodologist","type":"address","indexed":true,"internalType":"address"}],"anonymous":false},{"type":"event","name":"MethodologySet","inputs":[{"name":"methodology","type":"string","indexed":false,"internalType":"string"}],"anonymous":false},{"type":"event","name":"MintFeeToReceiver","inputs":[{"name":"feeReceiver","type":"address","indexed":false,"internalType":"address"},{"name":"timestamp","type":"uint256","indexed":false,"internalType":"uint256"},{"name":"totalSupply","type":"uint256","indexed":false,"internalType":"uint256"},{"name":"amount","type":"uint256","indexed":false,"internalType":"uint256"}],"anonymous":false},{"type":"event","name":"MinterSet","inputs":[{"name":"minter","type":"address","indexed":true,"internalType":"address"}],"anonymous":false},{"type":"event","name":"OwnershipTransferred","inputs":[{"name":"previousOwner","type":"address","indexed":true,"internalType":"address"},{"name":"newOwner","type":"address","indexed":true,"internalType":"address"}],"anonymous":false},{"type":"event","name":"Paused","inputs":[{"name":"account","type":"address","indexed":false,"internalType":"address"}],"anonymous":false},{"type":"event","name":"SupplyCeilingSet","inputs":[{"name":"supplyCeiling","type":"uint256","indexed":false,"internalType":"uint256"}],"anonymous":false},{"type":"event","name":"ToggledRestricted","inputs":[{"name":"account","type":"address","indexed":true,"internalType":"address"},{"name":"isRestricted","type":"bool","indexed":false,"internalType":"bool"}],"anonymous":false},{"type":"event","name":"Transfer","inputs":[{"name":"from","type":"address","indexed":true,"internalType":"address"},{"name":"to","type":"address","indexed":true,"internalType":"address"},{"name":"value","type":"uint256","indexed":false,"internalType":"uint256"}],"anonymous":false},{"type":"event","name":"Unpaused","inputs":[{"name":"account","type":"address","indexed":false,"internalType":"address"}],"anonymous":false}],"bytecode":{"object":"0x608060405234801561001057600080fd5b5061548d806100206000396000f3fe6080604052600436106102e85760003560e01c806379e34b4d11610190578063b631e80b116100dc578063ddca3f4311610095578063f2fde38b1161006f578063f2fde38b14610b39578063f734e22a14610b62578063fca3b5aa14610b79578063fcaae87b14610ba2576102ef565b8063ddca3f4314610abc578063ed1c11cb14610ae7578063efdcd97414610b10576102ef565b8063b631e80b14610984578063c01bc982146109af578063c6bbd5a7146109ec578063d153b60c14610a17578063d90bc21114610a42578063dd62ed3e14610a7f576102ef565b80639eeb1d5011610149578063a9059cbb11610123578063a9059cbb146108ca578063aaa4a18414610907578063b3f0067414610930578063b5ed298a1461095b576102ef565b80639eeb1d50146108375780639f8e67bf14610862578063a457c2d71461088d576102ef565b806379e34b4d1461074f5780638456cb59146107785780638da5cb5b1461078f57806391fe1b92146107ba57806395d89b41146107e35780639dc29fac1461080e576102ef565b80633f4ba83a1161024f578063660db4841161020857806370a08231116101e257806370a08231146106a7578063715018a6146106e4578063744fbc7a146106fb57806377524af914610726576102ef565b8063660db4841461062a57806368e0d4e1146106535780636e01a6861461067e576102ef565b80633f4ba83a1461052e5780633fc8cef31461054557806340c10f191461057057806345596e2e146105995780635c975abb146105c25780635f370ed0146105ed576102ef565b806323b872dd116102a157806323b872dd146104085780632630c12f146104455780632b52684d146104705780632fecd5891461049b578063313ce567146104c657806339509351146104f1576102ef565b806306fdde03146102f4578063075461721461031f578063095ea7b31461034a57806318160ddd14610387578063184a732f146103b25780631d5f45f5146103dd576102ef565b366102ef57005b600080fd5b34801561030057600080fd5b50610309610bdf565b60405161031691906145a5565b60405180910390f35b34801561032b57600080fd5b50610334610c71565b6040516103419190614444565b60405180910390f35b34801561035657600080fd5b50610371600480360381019061036c9190613c7f565b610c98565b60405161037e91906144cd565b60405180910390f35b34801561039357600080fd5b5061039c610cbb565b6040516103a991906148e3565b60405180910390f35b3480156103be57600080fd5b506103c7610cc5565b6040516103d491906148e3565b60405180910390f35b3480156103e957600080fd5b506103f2610ccb565b6040516103ff9190614554565b60405180910390f35b34801561041457600080fd5b5061042f600480360381019061042a9190613bb1565b610cf2565b60405161043c91906144cd565b60405180910390f35b34801561045157600080fd5b5061045a610ec7565b6040516104679190614444565b60405180910390f35b34801561047c57600080fd5b50610485610eee565b60405161049291906148e3565b60405180910390f35b3480156104a757600080fd5b506104b0610ef5565b6040516104bd91906148e3565b60405180910390f35b3480156104d257600080fd5b506104db610efb565b6040516104e89190614958565b60405180910390f35b3480156104fd57600080fd5b5061051860048036038101906105139190613c7f565b610f04565b60405161052591906144cd565b60405180910390f35b34801561053a57600080fd5b50610543610f3b565b005b34801561055157600080fd5b5061055a610f4d565b604051610567919061456f565b60405180910390f35b34801561057c57600080fd5b5061059760048036038101906105929190613c7f565b610f74565b005b3480156105a557600080fd5b506105c060048036038101906105bb9190613e61565b611197565b005b3480156105ce57600080fd5b506105d76111de565b6040516105e491906144cd565b60405180910390f35b3480156105f957600080fd5b50610614600480360381019061060f9190613c04565b6111f5565b60405161062191906148e3565b60405180910390f35b34801561063657600080fd5b50610651600480360381019061064c9190613b44565b6116e0565b005b34801561065f57600080fd5b506106686117aa565b604051610675919061451e565b60405180910390f35b34801561068a57600080fd5b506106a560048036038101906106a09190613e61565b6117d1565b005b3480156106b357600080fd5b506106ce60048036038101906106c99190613b44565b61181b565b6040516106db91906148e3565b60405180910390f35b3480156106f057600080fd5b506106f9611864565b005b34801561070757600080fd5b50610710611878565b60405161071d9190614539565b60405180910390f35b34801561073257600080fd5b5061074d60048036038101906107489190613c7f565b61189f565b005b34801561075b57600080fd5b5061077660048036038101906107719190613bb1565b6119e5565b005b34801561078457600080fd5b5061078d611b09565b005b34801561079b57600080fd5b506107a4611b1b565b6040516107b19190614444565b60405180910390f35b3480156107c657600080fd5b506107e160048036038101906107dc9190613cec565b611b45565b005b3480156107ef57600080fd5b506107f8611c28565b60405161080591906145a5565b60405180910390f35b34801561081a57600080fd5b5061083560048036038101906108309190613c7f565b611cba565b005b34801561084357600080fd5b5061084c611e85565b60405161085991906145a5565b60405180910390f35b34801561086e57600080fd5b50610877611f14565b6040516108849190614444565b60405180910390f35b34801561089957600080fd5b506108b460048036038101906108af9190613c7f565b611f3b565b6040516108c191906144cd565b60405180910390f35b3480156108d657600080fd5b506108f160048036038101906108ec9190613c7f565b611fb2565b6040516108fe91906144cd565b60405180910390f35b34801561091357600080fd5b5061092e60048036038101906109299190613b44565b6120ed565b005b34801561093c57600080fd5b50610945612239565b6040516109529190614444565b60405180910390f35b34801561096757600080fd5b50610982600480360381019061097d9190613b44565b61225f565b005b34801561099057600080fd5b5061099961231b565b6040516109a69190614503565b60405180910390f35b3480156109bb57600080fd5b506109d660048036038101906109d19190613b44565b612342565b6040516109e391906144cd565b60405180910390f35b3480156109f857600080fd5b50610a01612363565b604051610a0e91906144e8565b60405180910390f35b348015610a2357600080fd5b50610a2c61238a565b604051610a399190614444565b60405180910390f35b348015610a4e57600080fd5b50610a696004803603810190610a649190613b44565b6123b0565b604051610a7691906148e3565b60405180910390f35b348015610a8b57600080fd5b50610aa66004803603810190610aa19190613b71565b6123c9565b604051610ab391906148e3565b60405180910390f35b348015610ac857600080fd5b50610ad1612450565b604051610ade91906148e3565b60405180910390f35b348015610af357600080fd5b50610b0e6004803603810190610b099190613d35565b612456565b005b348015610b1c57600080fd5b50610b376004803603810190610b329190613b44565b6127d6565b005b348015610b4557600080fd5b50610b606004803603810190610b5b9190613b44565b61289f565b005b348015610b6e57600080fd5b50610b77612a19565b005b348015610b8557600080fd5b50610ba06004803603810190610b9b9190613b44565b612a2b565b005b348015610bae57600080fd5b50610bc96004803603810190610bc49190613b44565b612af5565b604051610bd691906148e3565b60405180910390f35b606060368054610bee90614c8d565b80601f0160208091040260200160405190810160405280929190818152602001828054610c1a90614c8d565b8015610c675780601f10610c3c57610100808354040283529160200191610c67565b820191906000526020600020905b815481529060010190602001808311610c4a57829003601f168201915b5050505050905090565b61010160009054906101000a900473ffffffffffffffffffffffffffffffffffffffff1681565b600080610ca3612b0e565b9050610cb0818585612b16565b600191505092915050565b6000603554905090565b60fe5481565b61010960009054906101000a900473ffffffffffffffffffffffffffffffffffffffff1681565b6000610cfc612ce1565b61010560003373ffffffffffffffffffffffffffffffffffffffff1673ffffffffffffffffffffffffffffffffffffffff16815260200190815260200160002060009054906101000a900460ff1615610d8a576040517f08c379a0000000000000000000000000000000000000000000000000000000008152600401610d8190614667565b60405180910390fd5b61010560008473ffffffffffffffffffffffffffffffffffffffff1673ffffffffffffffffffffffffffffffffffffffff16815260200190815260200160002060009054906101000a900460ff1615610e18576040517f08c379a0000000000000000000000000000000000000000000000000000000008152600401610e0f90614627565b60405180910390fd5b61010560008573ffffffffffffffffffffffffffffffffffffffff1673ffffffffffffffffffffffffffffffffffffffff16815260200190815260200160002060009054906101000a900460ff1615610ea6576040517f08c379a0000000000000000000000000000000000000000000000000000000008152600401610e9d90614867565b60405180910390fd5b610eb1843384612d2b565b610ebc848484612db7565b600190509392505050565b61010460009054906101000a900473ffffffffffffffffffffffffffffffffffffffff1681565b6101035481565b60fd5481565b60006012905090565b600080610f0f612b0e565b9050610f30818585610f2185896123c9565b610f2b9190614a1e565b612b16565b600191505092915050565b610f43613032565b610f4b6130b0565b565b61010c60009054906101000a900473ffffffffffffffffffffffffffffffffffffffff1681565b610f7c612ce1565b61010160009054906101000a900473ffffffffffffffffffffffffffffffffffffffff1673ffffffffffffffffffffffffffffffffffffffff163373ffffffffffffffffffffffffffffffffffffffff161461100d576040517f08c379a000000000000000000000000000000000000000000000000000000000815260040161100490614687565b60405180910390fd5b610103548161101a610cbb565b6110249190614a1e565b1115611065576040517f08c379a000000000000000000000000000000000000000000000000000000000815260040161105c90614807565b60405180910390fd5b61010560008373ffffffffffffffffffffffffffffffffffffffff1673ffffffffffffffffffffffffffffffffffffffff16815260200190815260200160002060009054906101000a900460ff16156110f3576040517f08c379a00000000000000000000000000000000000000000000000000000000081526004016110ea90614627565b60405180910390fd5b61010560003373ffffffffffffffffffffffffffffffffffffffff1673ffffffffffffffffffffffffffffffffffffffff16815260200190815260200160002060009054906101000a900460ff1615611181576040517f08c379a000000000000000000000000000000000000000000000000000000000815260040161117890614667565b60405180910390fd5b611189613113565b6111938282613268565b5050565b61119f613032565b6111a7613113565b8060fd81905550807f45398c451b1a31b88dbaed4e7b89a632f43cc4b50149d437db03a5300afe40d160405160405180910390a250565b600060ca60009054906101000a900460ff16905090565b600061010160009054906101000a900473ffffffffffffffffffffffffffffffffffffffff1673ffffffffffffffffffffffffffffffffffffffff163373ffffffffffffffffffffffffffffffffffffffff1614611288576040517f08c379a000000000000000000000000000000000000000000000000000000000815260040161127f90614687565b60405180910390fd5b600382141561149d578573ffffffffffffffffffffffffffffffffffffffff1663095ea7b361010860009054906101000a900473ffffffffffffffffffffffffffffffffffffffff16866040518363ffffffff1660e01b81526004016112ef92919061445f565b602060405180830381600087803b15801561130957600080fd5b505af115801561131d573d6000803e3d6000fd5b505050506040513d601f19601f820116820180604052508101906113419190613cbf565b5060006040518061010001604052808873ffffffffffffffffffffffffffffffffffffffff1681526020018773ffffffffffffffffffffffffffffffffffffffff168152602001610bb862ffffff1681526020018573ffffffffffffffffffffffffffffffffffffffff16815260200142815260200186815260200160008152602001600073ffffffffffffffffffffffffffffffffffffffff168152509050600061010860009054906101000a900473ffffffffffffffffffffffffffffffffffffffff1673ffffffffffffffffffffffffffffffffffffffff1663414bf389836040518263ffffffff1660e01b815260040161143f91906148c7565b602060405180830381600087803b15801561145957600080fd5b505af115801561146d573d6000803e3d6000fd5b505050506040513d601f19601f820116820180604052508101906114919190613e8e565b905080925050506116d7565b6000600267ffffffffffffffff8111156114ba576114b9614dac565b5b6040519080825280602002602001820160405280156114e85781602001602082028036833780820191505090505b5090508681600081518110611500576114ff614d7d565b5b602002602001019073ffffffffffffffffffffffffffffffffffffffff16908173ffffffffffffffffffffffffffffffffffffffff1681525050858160018151811061154f5761154e614d7d565b5b602002602001019073ffffffffffffffffffffffffffffffffffffffff16908173ffffffffffffffffffffffffffffffffffffffff16815250508673ffffffffffffffffffffffffffffffffffffffff1663095ea7b361010a60009054906101000a900473ffffffffffffffffffffffffffffffffffffffff16876040518363ffffffff1660e01b81526004016115e792919061445f565b602060405180830381600087803b15801561160157600080fd5b505af1158015611615573d6000803e3d6000fd5b505050506040513d601f19601f820116820180604052508101906116399190613cbf565b5061010a60009054906101000a900473ffffffffffffffffffffffffffffffffffffffff1673ffffffffffffffffffffffffffffffffffffffff16635c11d7958660008488426040518663ffffffff1660e01b815260040161169f9594939291906148fe565b600060405180830381600087803b1580156116b957600080fd5b505af11580156116cd573d6000803e3d6000fd5b5050505060009150505b95945050505050565b6116e8613032565b600073ffffffffffffffffffffffffffffffffffffffff168173ffffffffffffffffffffffffffffffffffffffff16141561172257600080fd5b8061010060006101000a81548173ffffffffffffffffffffffffffffffffffffffff021916908373ffffffffffffffffffffffffffffffffffffffff1602179055508073ffffffffffffffffffffffffffffffffffffffff167f164d8ef0d742b45087644f55c61abeb84557df70d06730591e451f0981e278ca60405160405180910390a250565b61010b60009054906101000a900473ffffffffffffffffffffffffffffffffffffffff1681565b6117d9613032565b80610103819055507fe35be406f69e9d11d6ac8e5b54bbc8b6c4baf2fa2359f84a56baa5ea5d07dc8f8160405161181091906148e3565b60405180910390a150565b6000603360008373ffffffffffffffffffffffffffffffffffffffff1673ffffffffffffffffffffffffffffffffffffffff168152602001908152602001600020549050919050565b61186c613032565b61187660006133c0565b565b61010a60009054906101000a900473ffffffffffffffffffffffffffffffffffffffff1681565b61010160009054906101000a900473ffffffffffffffffffffffffffffffffffffffff1673ffffffffffffffffffffffffffffffffffffffff163373ffffffffffffffffffffffffffffffffffffffff1614611930576040517f08c379a000000000000000000000000000000000000000000000000000000000815260040161192790614687565b60405180910390fd5b61010c60009054906101000a900473ffffffffffffffffffffffffffffffffffffffff1673ffffffffffffffffffffffffffffffffffffffff1663a9059cbb83836040518363ffffffff1660e01b815260040161198e92919061445f565b602060405180830381600087803b1580156119a857600080fd5b505af11580156119bc573d6000803e3d6000fd5b505050506040513d601f19601f820116820180604052508101906119e09190613cbf565b505050565b61010160009054906101000a900473ffffffffffffffffffffffffffffffffffffffff1673ffffffffffffffffffffffffffffffffffffffff163373ffffffffffffffffffffffffffffffffffffffff1614611a76576040517f08c379a0000000000000000000000000000000000000000000000000000000008152600401611a6d90614687565b60405180910390fd5b8273ffffffffffffffffffffffffffffffffffffffff1663095ea7b383836040518363ffffffff1660e01b8152600401611ab192919061445f565b602060405180830381600087803b158015611acb57600080fd5b505af1158015611adf573d6000803e3d6000fd5b505050506040513d601f19601f82011682018060405250810190611b039190613cbf565b50505050565b611b11613032565b611b19613486565b565b6000606560009054906101000a900473ffffffffffffffffffffffffffffffffffffffff16905090565b61010060009054906101000a900473ffffffffffffffffffffffffffffffffffffffff1673ffffffffffffffffffffffffffffffffffffffff163373ffffffffffffffffffffffffffffffffffffffff1614611bd6576040517f08c379a0000000000000000000000000000000000000000000000000000000008152600401611bcd90614707565b60405180910390fd5b806101029080519060200190611bed9291906139dd565b507fe6be68107100e39cb16d675c1086a4d5479fbd01108d721dabbccaa2249b995f81604051611c1d91906145a5565b60405180910390a150565b606060378054611c3790614c8d565b80601f0160208091040260200160405190810160405280929190818152602001828054611c6390614c8d565b8015611cb05780601f10611c8557610100808354040283529160200191611cb0565b820191906000526020600020905b815481529060010190602001808311611c9357829003601f168201915b5050505050905090565b611cc2612ce1565b61010160009054906101000a900473ffffffffffffffffffffffffffffffffffffffff1673ffffffffffffffffffffffffffffffffffffffff163373ffffffffffffffffffffffffffffffffffffffff1614611d53576040517f08c379a0000000000000000000000000000000000000000000000000000000008152600401611d4a90614687565b60405180910390fd5b61010560008373ffffffffffffffffffffffffffffffffffffffff1673ffffffffffffffffffffffffffffffffffffffff16815260200190815260200160002060009054906101000a900460ff1615611de1576040517f08c379a0000000000000000000000000000000000000000000000000000000008152600401611dd890614867565b60405180910390fd5b61010560003373ffffffffffffffffffffffffffffffffffffffff1673ffffffffffffffffffffffffffffffffffffffff16815260200190815260200160002060009054906101000a900460ff1615611e6f576040517f08c379a0000000000000000000000000000000000000000000000000000000008152600401611e6690614667565b60405180910390fd5b611e77613113565b611e8182826134e9565b5050565b6101028054611e9390614c8d565b80601f0160208091040260200160405190810160405280929190818152602001828054611ebf90614c8d565b8015611f0c5780601f10611ee157610100808354040283529160200191611f0c565b820191906000526020600020905b815481529060010190602001808311611eef57829003601f168201915b505050505081565b61010060009054906101000a900473ffffffffffffffffffffffffffffffffffffffff1681565b600080611f46612b0e565b90506000611f5482866123c9565b905083811015611f99576040517f08c379a0000000000000000000000000000000000000000000000000000000008152600401611f9090614887565b60405180910390fd5b611fa68286868403612b16565b60019250505092915050565b6000611fbc612ce1565b61010560003373ffffffffffffffffffffffffffffffffffffffff1673ffffffffffffffffffffffffffffffffffffffff16815260200190815260200160002060009054906101000a900460ff161561204a576040517f08c379a000000000000000000000000000000000000000000000000000000000815260040161204190614667565b60405180910390fd5b61010560008473ffffffffffffffffffffffffffffffffffffffff1673ffffffffffffffffffffffffffffffffffffffff16815260200190815260200160002060009054906101000a900460ff16156120d8576040517f08c379a00000000000000000000000000000000000000000000000000000000081526004016120cf90614627565b60405180910390fd5b6120e3338484612db7565b6001905092915050565b6120f5613032565b61010560008273ffffffffffffffffffffffffffffffffffffffff1673ffffffffffffffffffffffffffffffffffffffff16815260200190815260200160002060009054906101000a900460ff161561010560008373ffffffffffffffffffffffffffffffffffffffff1673ffffffffffffffffffffffffffffffffffffffff16815260200190815260200160002060006101000a81548160ff0219169083151502179055508073ffffffffffffffffffffffffffffffffffffffff167f14ddf324cc5d8b14a3c3b12c84b0a7d578d72c8d60655c06d6a457e71431d5ee61010560008473ffffffffffffffffffffffffffffffffffffffff1673ffffffffffffffffffffffffffffffffffffffff16815260200190815260200160002060009054906101000a900460ff1660405161222e91906144cd565b60405180910390a250565b60ff60009054906101000a900473ffffffffffffffffffffffffffffffffffffffff1681565b612267613032565b600073ffffffffffffffffffffffffffffffffffffffff168173ffffffffffffffffffffffffffffffffffffffff1614156122d7576040517f08c379a00000000000000000000000000000000000000000000000000000000081526004016122ce906147a7565b60405180910390fd5b80609760006101000a81548173ffffffffffffffffffffffffffffffffffffffff021916908373ffffffffffffffffffffffffffffffffffffffff16021790555050565b61010860009054906101000a900473ffffffffffffffffffffffffffffffffffffffff1681565b6101056020528060005260406000206000915054906101000a900460ff1681565b61010d60009054906101000a900473ffffffffffffffffffffffffffffffffffffffff1681565b609760009054906101000a900473ffffffffffffffffffffffffffffffffffffffff1681565b6101076020528060005260406000206000915090505481565b6000603460008473ffffffffffffffffffffffffffffffffffffffff1673ffffffffffffffffffffffffffffffffffffffff16815260200190815260200160002060008373ffffffffffffffffffffffffffffffffffffffff1673ffffffffffffffffffffffffffffffffffffffff16815260200190815260200160002054905092915050565b60fc5481565b60008060019054906101000a900460ff161590508080156124875750600160008054906101000a900460ff1660ff16105b806124b45750612496306136b9565b1580156124b35750600160008054906101000a900460ff1660ff16145b5b6124f3576040517f08c379a00000000000000000000000000000000000000000000000000000000081526004016124ea90614767565b60405180910390fd5b60016000806101000a81548160ff021916908360ff1602179055508015612530576001600060016101000a81548160ff0219169083151502179055505b600073ffffffffffffffffffffffffffffffffffffffff168973ffffffffffffffffffffffffffffffffffffffff16141561256a57600080fd5b6125726136dc565b61257a613735565b6125848c8c61378e565b61258c6137eb565b8960fd819055508860ff60006101000a81548173ffffffffffffffffffffffffffffffffffffffff021916908373ffffffffffffffffffffffffffffffffffffffff16021790555087610103819055504260fe819055508661010c60006101000a81548173ffffffffffffffffffffffffffffffffffffffff021916908373ffffffffffffffffffffffffffffffffffffffff1602179055508561010d60006101000a81548173ffffffffffffffffffffffffffffffffffffffff021916908373ffffffffffffffffffffffffffffffffffffffff1602179055508461010860006101000a81548173ffffffffffffffffffffffffffffffffffffffff021916908373ffffffffffffffffffffffffffffffffffffffff1602179055508361010960006101000a81548173ffffffffffffffffffffffffffffffffffffffff021916908373ffffffffffffffffffffffffffffffffffffffff1602179055508261010a60006101000a81548173ffffffffffffffffffffffffffffffffffffffff021916908373ffffffffffffffffffffffffffffffffffffffff1602179055508161010b60006101000a81548173ffffffffffffffffffffffffffffffffffffffff021916908373ffffffffffffffffffffffffffffffffffffffff16021790555080156127c85760008060016101000a81548160ff0219169083151502179055507f7f26b83ff96e1f2b6a682f133852f6798a09c465da95921460cefb384740249860016040516127bf919061458a565b60405180910390a15b505050505050505050505050565b6127de613032565b600073ffffffffffffffffffffffffffffffffffffffff168173ffffffffffffffffffffffffffffffffffffffff16141561281857600080fd5b8060ff60006101000a81548173ffffffffffffffffffffffffffffffffffffffff021916908373ffffffffffffffffffffffffffffffffffffffff1602179055508073ffffffffffffffffffffffffffffffffffffffff167fbdf37c276f641820b141429d245add2552b4118c0866e5a78638e3de5ef18d9d60405160405180910390a250565b600073ffffffffffffffffffffffffffffffffffffffff168173ffffffffffffffffffffffffffffffffffffffff16141561290f576040517f08c379a0000000000000000000000000000000000000000000000000000000008152600401612906906147a7565b60405180910390fd5b609760009054906101000a900473ffffffffffffffffffffffffffffffffffffffff1673ffffffffffffffffffffffffffffffffffffffff168173ffffffffffffffffffffffffffffffffffffffff161461299f576040517f08c379a0000000000000000000000000000000000000000000000000000000008152600401612996906146e7565b60405180910390fd5b3373ffffffffffffffffffffffffffffffffffffffff168173ffffffffffffffffffffffffffffffffffffffff1614612a0d576040517f08c379a0000000000000000000000000000000000000000000000000000000008152600401612a0490614747565b60405180910390fd5b612a16816133c0565b50565b612a21613032565b612a29613113565b565b612a33613032565b600073ffffffffffffffffffffffffffffffffffffffff168173ffffffffffffffffffffffffffffffffffffffff161415612a6d57600080fd5b8061010160006101000a81548173ffffffffffffffffffffffffffffffffffffffff021916908373ffffffffffffffffffffffffffffffffffffffff1602179055508073ffffffffffffffffffffffffffffffffffffffff167f726b590ef91a8c76ad05bbe91a57ef84605276528f49cd47d787f558a4e755b660405160405180910390a250565b6101066020528060005260406000206000915090505481565b600033905090565b600073ffffffffffffffffffffffffffffffffffffffff168373ffffffffffffffffffffffffffffffffffffffff161415612b86576040517f08c379a0000000000000000000000000000000000000000000000000000000008152600401612b7d90614827565b60405180910390fd5b600073ffffffffffffffffffffffffffffffffffffffff168273ffffffffffffffffffffffffffffffffffffffff161415612bf6576040517f08c379a0000000000000000000000000000000000000000000000000000000008152600401612bed90614647565b60405180910390fd5b80603460008573ffffffffffffffffffffffffffffffffffffffff1673ffffffffffffffffffffffffffffffffffffffff16815260200190815260200160002060008473ffffffffffffffffffffffffffffffffffffffff1673ffffffffffffffffffffffffffffffffffffffff168152602001908152602001600020819055508173ffffffffffffffffffffffffffffffffffffffff168373ffffffffffffffffffffffffffffffffffffffff167f8c5be1e5ebec7d5bd14f71427d1e84f3dd0314c0f7b2291e5b200ac8c7c3b92583604051612cd491906148e3565b60405180910390a3505050565b612ce96111de565b15612d29576040517f08c379a0000000000000000000000000000000000000000000000000000000008152600401612d2090614727565b60405180910390fd5b565b6000612d3784846123c9565b90507fffffffffffffffffffffffffffffffffffffffffffffffffffffffffffffffff8114612db15781811015612da3576040517f08c379a0000000000000000000000000000000000000000000000000000000008152600401612d9a906146a7565b60405180910390fd5b612db08484848403612b16565b5b50505050565b600073ffffffffffffffffffffffffffffffffffffffff168373ffffffffffffffffffffffffffffffffffffffff161415612e27576040517f08c379a0000000000000000000000000000000000000000000000000000000008152600401612e1e906147e7565b60405180910390fd5b600073ffffffffffffffffffffffffffffffffffffffff168273ffffffffffffffffffffffffffffffffffffffff161415612e97576040517f08c379a0000000000000000000000000000000000000000000000000000000008152600401612e8e906145c7565b60405180910390fd5b612ea283838361383c565b6000603360008573ffffffffffffffffffffffffffffffffffffffff1673ffffffffffffffffffffffffffffffffffffffff16815260200190815260200160002054905081811015612f29576040517f08c379a0000000000000000000000000000000000000000000000000000000008152600401612f20906146c7565b60405180910390fd5b818103603360008673ffffffffffffffffffffffffffffffffffffffff1673ffffffffffffffffffffffffffffffffffffffff1681526020019081526020016000208190555081603360008573ffffffffffffffffffffffffffffffffffffffff1673ffffffffffffffffffffffffffffffffffffffff168152602001908152602001600020600082825401925050819055508273ffffffffffffffffffffffffffffffffffffffff168473ffffffffffffffffffffffffffffffffffffffff167fddf252ad1be2c89b69c2b068fc378daa952ba7f163c4a11628f55a4df523b3ef8460405161301991906148e3565b60405180910390a361302c848484613841565b50505050565b61303a612b0e565b73ffffffffffffffffffffffffffffffffffffffff16613058611b1b565b73ffffffffffffffffffffffffffffffffffffffff16146130ae576040517f08c379a00000000000000000000000000000000000000000000000000000000081526004016130a590614787565b60405180910390fd5b565b6130b8613846565b600060ca60006101000a81548160ff0219169083151502179055507f5db9ee0a495bf2e6ff9c91a7834c1ba4fdd244a5e8aa4e537bd38aeae4b073aa6130fc612b0e565b6040516131099190614444565b60405180910390a1565b60006201518060fe54426131279190614aff565b6131319190614a74565b905060018110613265576000613145610cbb565b90506000819050600060fd54905060005b848110156131965768056bc75e2d6310000082846131749190614aa5565b61317e9190614a74565b836131899190614a1e565b9250806001019050613156565b50600083836131a59190614aff565b905084620151806131b69190614aa5565b60fe60008282546131c79190614a1e565b925050819055506131fa60ff60009054906101000a900473ffffffffffffffffffffffffffffffffffffffff1682613268565b7f07982395c678b2ffc23fcf59aaec243ca79418c285af0d0e10b4e65bc4189f4c60ff60009054906101000a900473ffffffffffffffffffffffffffffffffffffffff1642613247610cbb565b846040516132589493929190614488565b60405180910390a1505050505b50565b600073ffffffffffffffffffffffffffffffffffffffff168273ffffffffffffffffffffffffffffffffffffffff1614156132d8576040517f08c379a00000000000000000000000000000000000000000000000000000000081526004016132cf906148a7565b60405180910390fd5b6132e46000838361383c565b80603560008282546132f69190614a1e565b9250508190555080603360008473ffffffffffffffffffffffffffffffffffffffff1673ffffffffffffffffffffffffffffffffffffffff168152602001908152602001600020600082825401925050819055508173ffffffffffffffffffffffffffffffffffffffff16600073ffffffffffffffffffffffffffffffffffffffff167fddf252ad1be2c89b69c2b068fc378daa952ba7f163c4a11628f55a4df523b3ef836040516133a891906148e3565b60405180910390a36133bc60008383613841565b5050565b6000606560009054906101000a900473ffffffffffffffffffffffffffffffffffffffff16905081606560006101000a81548173ffffffffffffffffffffffffffffffffffffffff021916908373ffffffffffffffffffffffffffffffffffffffff1602179055508173ffffffffffffffffffffffffffffffffffffffff168173ffffffffffffffffffffffffffffffffffffffff167f8be0079c531659141344cd1fd0a4f28419497f9722a3daafe3b4186f6b6457e060405160405180910390a35050565b61348e612ce1565b600160ca60006101000a81548160ff0219169083151502179055507f62e78cea01bee320cd4e420270b5ea74000d11b0c9f74754ebdbfc544b05a2586134d2612b0e565b6040516134df9190614444565b60405180910390a1565b600073ffffffffffffffffffffffffffffffffffffffff168273ffffffffffffffffffffffffffffffffffffffff161415613559576040517f08c379a0000000000000000000000000000000000000000000000000000000008152600401613550906147c7565b60405180910390fd5b6135658260008361383c565b6000603360008473ffffffffffffffffffffffffffffffffffffffff1673ffffffffffffffffffffffffffffffffffffffff168152602001908152602001600020549050818110156135ec576040517f08c379a00000000000000000000000000000000000000000000000000000000081526004016135e390614607565b60405180910390fd5b818103603360008573ffffffffffffffffffffffffffffffffffffffff1673ffffffffffffffffffffffffffffffffffffffff1681526020019081526020016000208190555081603560008282540392505081905550600073ffffffffffffffffffffffffffffffffffffffff168373ffffffffffffffffffffffffffffffffffffffff167fddf252ad1be2c89b69c2b068fc378daa952ba7f163c4a11628f55a4df523b3ef846040516136a091906148e3565b60405180910390a36136b483600084613841565b505050565b6000808273ffffffffffffffffffffffffffffffffffffffff163b119050919050565b600060019054906101000a900460ff1661372b576040517f08c379a000000000000000000000000000000000000000000000000000000000815260040161372290614847565b60405180910390fd5b61373361388f565b565b600060019054906101000a900460ff16613784576040517f08c379a000000000000000000000000000000000000000000000000000000000815260040161377b90614847565b60405180910390fd5b61378c6138f0565b565b600060019054906101000a900460ff166137dd576040517f08c379a00000000000000000000000000000000000000000000000000000000081526004016137d490614847565b60405180910390fd5b6137e7828261395c565b5050565b600060019054906101000a900460ff1661383a576040517f08c379a000000000000000000000000000000000000000000000000000000000815260040161383190614847565b60405180910390fd5b565b505050565b505050565b61384e6111de565b61388d576040517f08c379a0000000000000000000000000000000000000000000000000000000008152600401613884906145e7565b60405180910390fd5b565b600060019054906101000a900460ff166138de576040517f08c379a00000000000000000000000000000000000000000000000000000000081526004016138d590614847565b60405180910390fd5b6138ee6138e9612b0e565b6133c0565b565b600060019054906101000a900460ff1661393f576040517f08c379a000000000000000000000000000000000000000000000000000000000815260040161393690614847565b60405180910390fd5b600060ca60006101000a81548160ff021916908315150217905550565b600060019054906101000a900460ff166139ab576040517f08c379a00000000000000000000000000000000000000000000000000000000081526004016139a290614847565b60405180910390fd5b81603690805190602001906139c19291906139dd565b5080603790805190602001906139d89291906139dd565b505050565b8280546139e990614c8d565b90600052602060002090601f016020900481019282613a0b5760008555613a52565b82601f10613a2457805160ff1916838001178555613a52565b82800160010185558215613a52579182015b82811115613a51578251825591602001919060010190613a36565b5b509050613a5f9190613a63565b5090565b5b80821115613a7c576000816000905550600101613a64565b5090565b6000613a93613a8e84614998565b614973565b905082815260208101848484011115613aaf57613aae614de0565b5b613aba848285614c4b565b509392505050565b600081359050613ad181615412565b92915050565b600081519050613ae681615429565b92915050565b600082601f830112613b0157613b00614ddb565b5b8135613b11848260208601613a80565b91505092915050565b600081359050613b2981615440565b92915050565b600081519050613b3e81615440565b92915050565b600060208284031215613b5a57613b59614dea565b5b6000613b6884828501613ac2565b91505092915050565b60008060408385031215613b8857613b87614dea565b5b6000613b9685828601613ac2565b9250506020613ba785828601613ac2565b9150509250929050565b600080600060608486031215613bca57613bc9614dea565b5b6000613bd886828701613ac2565b9350506020613be986828701613ac2565b9250506040613bfa86828701613b1a565b9150509250925092565b600080600080600060a08688031215613c2057613c1f614dea565b5b6000613c2e88828901613ac2565b9550506020613c3f88828901613ac2565b9450506040613c5088828901613b1a565b9350506060613c6188828901613ac2565b9250506080613c7288828901613b1a565b9150509295509295909350565b60008060408385031215613c9657613c95614dea565b5b6000613ca485828601613ac2565b9250506020613cb585828601613b1a565b9150509250929050565b600060208284031215613cd557613cd4614dea565b5b6000613ce384828501613ad7565b91505092915050565b600060208284031215613d0257613d01614dea565b5b600082013567ffffffffffffffff811115613d2057613d1f614de5565b5b613d2c84828501613aec565b91505092915050565b60008060008060008060008060008060006101608c8e031215613d5b57613d5a614dea565b5b60008c013567ffffffffffffffff811115613d7957613d78614de5565b5b613d858e828f01613aec565b9b505060208c013567ffffffffffffffff811115613da657613da5614de5565b5b613db28e828f01613aec565b9a50506040613dc38e828f01613b1a565b9950506060613dd48e828f01613ac2565b9850506080613de58e828f01613b1a565b97505060a0613df68e828f01613ac2565b96505060c0613e078e828f01613ac2565b95505060e0613e188e828f01613ac2565b945050610100613e2a8e828f01613ac2565b935050610120613e3c8e828f01613ac2565b925050610140613e4e8e828f01613ac2565b9150509295989b509295989b9093969950565b600060208284031215613e7757613e76614dea565b5b6000613e8584828501613b1a565b91505092915050565b600060208284031215613ea457613ea3614dea565b5b6000613eb284828501613b2f565b91505092915050565b6000613ec78383613ed3565b60208301905092915050565b613edc81614b33565b82525050565b613eeb81614b33565b82525050565b6000613efc826149d9565b613f0681856149fc565b9350613f11836149c9565b8060005b83811015613f42578151613f298882613ebb565b9750613f34836149ef565b925050600181019050613f15565b5085935050505092915050565b613f5881614b45565b82525050565b613f6781614b97565b82525050565b613f7681614ba9565b82525050565b613f8581614bbb565b82525050565b613f9481614bcd565b82525050565b613fa381614bdf565b82525050565b613fb281614bf1565b82525050565b613fc181614c03565b82525050565b613fd081614c15565b82525050565b6000613fe1826149e4565b613feb8185614a0d565b9350613ffb818560208601614c5a565b61400481614def565b840191505092915050565b600061401c602383614a0d565b915061402782614e00565b604082019050919050565b600061403f601483614a0d565b915061404a82614e4f565b602082019050919050565b6000614062602283614a0d565b915061406d82614e78565b604082019050919050565b6000614085601083614a0d565b915061409082614ec7565b602082019050919050565b60006140a8602283614a0d565b91506140b382614ef0565b604082019050919050565b60006140cb601883614a0d565b91506140d682614f3f565b602082019050919050565b60006140ee602483614a0d565b91506140f982614f68565b604082019050919050565b6000614111601d83614a0d565b915061411c82614fb7565b602082019050919050565b6000614134602683614a0d565b915061413f82614fe0565b604082019050919050565b6000614157603283614a0d565b91506141628261502f565b604082019050919050565b600061417a602b83614a0d565b91506141858261507e565b604082019050919050565b600061419d601083614a0d565b91506141a8826150cd565b602082019050919050565b60006141c0603a83614a0d565b91506141cb826150f6565b604082019050919050565b60006141e3602e83614a0d565b91506141ee82615145565b604082019050919050565b6000614206602083614a0d565b915061421182615194565b602082019050919050565b6000614229603083614a0d565b9150614234826151bd565b604082019050919050565b600061424c602183614a0d565b91506142578261520c565b604082019050919050565b600061426f602583614a0d565b915061427a8261525b565b604082019050919050565b6000614292601a83614a0d565b915061429d826152aa565b602082019050919050565b60006142b5602483614a0d565b91506142c0826152d3565b604082019050919050565b60006142d8602b83614a0d565b91506142e382615322565b604082019050919050565b60006142fb601283614a0d565b915061430682615371565b602082019050919050565b600061431e602583614a0d565b91506143298261539a565b604082019050919050565b6000614341601f83614a0d565b915061434c826153e9565b602082019050919050565b6101008201600082015161436e6000850182613ed3565b5060208201516143816020850182613ed3565b5060408201516143946040850182614408565b5060608201516143a76060850182613ed3565b5060808201516143ba6080850182614417565b5060a08201516143cd60a0850182614417565b5060c08201516143e060c0850182614417565b5060e08201516143f360e08501826143f9565b50505050565b61440281614b51565b82525050565b61441181614b71565b82525050565b61442081614b80565b82525050565b61442f81614b80565b82525050565b61443e81614b8a565b82525050565b60006020820190506144596000830184613ee2565b92915050565b60006040820190506144746000830185613ee2565b6144816020830184614426565b9392505050565b600060808201905061449d6000830187613ee2565b6144aa6020830186614426565b6144b76040830185614426565b6144c46060830184614426565b95945050505050565b60006020820190506144e26000830184613f4f565b92915050565b60006020820190506144fd6000830184613f5e565b92915050565b60006020820190506145186000830184613f6d565b92915050565b60006020820190506145336000830184613f7c565b92915050565b600060208201905061454e6000830184613f8b565b92915050565b60006020820190506145696000830184613f9a565b92915050565b60006020820190506145846000830184613fa9565b92915050565b600060208201905061459f6000830184613fc7565b92915050565b600060208201905081810360008301526145bf8184613fd6565b905092915050565b600060208201905081810360008301526145e08161400f565b9050919050565b6000602082019050818103600083015261460081614032565b9050919050565b6000602082019050818103600083015261462081614055565b9050919050565b6000602082019050818103600083015261464081614078565b9050919050565b600060208201905081810360008301526146608161409b565b9050919050565b60006020820190508181036000830152614680816140be565b9050919050565b600060208201905081810360008301526146a0816140e1565b9050919050565b600060208201905081810360008301526146c081614104565b9050919050565b600060208201905081810360008301526146e081614127565b9050919050565b600060208201905081810360008301526147008161414a565b9050919050565b600060208201905081810360008301526147208161416d565b9050919050565b6000602082019050818103600083015261474081614190565b9050919050565b60006020820190508181036000830152614760816141b3565b9050919050565b60006020820190508181036000830152614780816141d6565b9050919050565b600060208201905081810360008301526147a0816141f9565b9050919050565b600060208201905081810360008301526147c08161421c565b9050919050565b600060208201905081810360008301526147e08161423f565b9050919050565b6000602082019050818103600083015261480081614262565b9050919050565b6000602082019050818103600083015261482081614285565b9050919050565b60006020820190508181036000830152614840816142a8565b9050919050565b60006020820190508181036000830152614860816142cb565b9050919050565b60006020820190508181036000830152614880816142ee565b9050919050565b600060208201905081810360008301526148a081614311565b9050919050565b600060208201905081810360008301526148c081614334565b9050919050565b6000610100820190506148dd6000830184614357565b92915050565b60006020820190506148f86000830184614426565b92915050565b600060a0820190506149136000830188614426565b6149206020830187613fb8565b81810360408301526149328186613ef1565b90506149416060830185613ee2565b61494e6080830184614426565b9695505050505050565b600060208201905061496d6000830184614435565b92915050565b600061497d61498e565b90506149898282614cbf565b919050565b6000604051905090565b600067ffffffffffffffff8211156149b3576149b2614dac565b5b6149bc82614def565b9050602081019050919050565b6000819050602082019050919050565b600081519050919050565b600081519050919050565b6000602082019050919050565b600082825260208201905092915050565b600082825260208201905092915050565b6000614a2982614b80565b9150614a3483614b80565b9250827fffffffffffffffffffffffffffffffffffffffffffffffffffffffffffffffff03821115614a6957614a68614cf0565b5b828201905092915050565b6000614a7f82614b80565b9150614a8a83614b80565b925082614a9a57614a99614d1f565b5b828204905092915050565b6000614ab082614b80565b9150614abb83614b80565b9250817fffffffffffffffffffffffffffffffffffffffffffffffffffffffffffffffff0483118215151615614af457614af3614cf0565b5b828202905092915050565b6000614b0a82614b80565b9150614b1583614b80565b925082821015614b2857614b27614cf0565b5b828203905092915050565b6000614b3e82614b51565b9050919050565b60008115159050919050565b600073ffffffffffffffffffffffffffffffffffffffff82169050919050565b600062ffffff82169050919050565b6000819050919050565b600060ff82169050919050565b6000614ba282614c27565b9050919050565b6000614bb482614c27565b9050919050565b6000614bc682614c27565b9050919050565b6000614bd882614c27565b9050919050565b6000614bea82614c27565b9050919050565b6000614bfc82614c27565b9050919050565b6000614c0e82614b80565b9050919050565b6000614c2082614b8a565b9050919050565b6000614c3282614c39565b9050919050565b6000614c4482614b51565b9050919050565b82818337600083830152505050565b60005b83811015614c78578082015181840152602081019050614c5d565b83811115614c87576000848401525b50505050565b60006002820490506001821680614ca557607f821691505b60208210811415614cb957614cb8614d4e565b5b50919050565b614cc882614def565b810181811067ffffffffffffffff82111715614ce757614ce6614dac565b5b80604052505050565b7f4e487b7100000000000000000000000000000000000000000000000000000000600052601160045260246000fd5b7f4e487b7100000000000000000000000000000000000000000000000000000000600052601260045260246000fd5b7f4e487b7100000000000000000000000000000000000000000000000000000000600052602260045260246000fd5b7f4e487b7100000000000000000000000000000000000000000000000000000000600052603260045260246000fd5b7f4e487b7100000000000000000000000000000000000000000000000000000000600052604160045260246000fd5b600080fd5b600080fd5b600080fd5b600080fd5b6000601f19601f8301169050919050565b7f45524332303a207472616e7366657220746f20746865207a65726f206164647260008201527f6573730000000000000000000000000000000000000000000000000000000000602082015250565b7f5061757361626c653a206e6f7420706175736564000000000000000000000000600082015250565b7f45524332303a206275726e20616d6f756e7420657863656564732062616c616e60008201527f6365000000000000000000000000000000000000000000000000000000000000602082015250565b7f746f206973207265737472696374656400000000000000000000000000000000600082015250565b7f45524332303a20617070726f766520746f20746865207a65726f20616464726560008201527f7373000000000000000000000000000000000000000000000000000000000000602082015250565b7f6d73672e73656e64657220697320726573747269637465640000000000000000600082015250565b7f496e646578546f6b656e3a2063616c6c6572206973206e6f7420746865206d6960008201527f6e74657200000000000000000000000000000000000000000000000000000000602082015250565b7f45524332303a20696e73756666696369656e7420616c6c6f77616e6365000000600082015250565b7f45524332303a207472616e7366657220616d6f756e742065786365656473206260008201527f616c616e63650000000000000000000000000000000000000000000000000000602082015250565b7f50726f706f7361626c654f776e61626c653a206e6577206f776e65722069732060008201527f6e6f742070726f706f736564206f776e65720000000000000000000000000000602082015250565b7f496e646578546f6b656e3a2063616c6c6572206973206e6f7420746865206d6560008201527f74686f646f6c6f67697374000000000000000000000000000000000000000000602082015250565b7f5061757361626c653a2070617573656400000000000000000000000000000000600082015250565b7f50726f706f7361626c654f776e61626c653a20746869732063616c6c206d757360008201527f74206265206d61646520627920746865206e6577206f776e6572000000000000602082015250565b7f496e697469616c697a61626c653a20636f6e747261637420697320616c72656160008201527f647920696e697469616c697a6564000000000000000000000000000000000000602082015250565b7f4f776e61626c653a2063616c6c6572206973206e6f7420746865206f776e6572600082015250565b7f50726f706f7361626c654f776e61626c653a206e6577206f776e65722069732060008201527f746865207a65726f206164647265737300000000000000000000000000000000602082015250565b7f45524332303a206275726e2066726f6d20746865207a65726f2061646472657360008201527f7300000000000000000000000000000000000000000000000000000000000000602082015250565b7f45524332303a207472616e736665722066726f6d20746865207a65726f20616460008201527f6472657373000000000000000000000000000000000000000000000000000000602082015250565b7f77696c6c2065786365656420737570706c79206365696c696e67000000000000600082015250565b7f45524332303a20617070726f76652066726f6d20746865207a65726f2061646460008201527f7265737300000000000000000000000000000000000000000000000000000000602082015250565b7f496e697469616c697a61626c653a20636f6e7472616374206973206e6f74206960008201527f6e697469616c697a696e67000000000000000000000000000000000000000000602082015250565b7f66726f6d20697320726573747269637465640000000000000000000000000000600082015250565b7f45524332303a2064656372656173656420616c6c6f77616e63652062656c6f7760008201527f207a65726f000000000000000000000000000000000000000000000000000000602082015250565b7f45524332303a206d696e7420746f20746865207a65726f206164647265737300600082015250565b61541b81614b33565b811461542657600080fd5b50565b61543281614b45565b811461543d57600080fd5b50565b61544981614b80565b811461545457600080fd5b5056fea2646970667358221220fd150fbaf882440ae6e14d850d42913f2ecd2c65cdb3051ff0452db9f08c6cb764736f6c63430008070033","linkReferences":{}},"methodIdentifiers":{"allowance(address,address)":"dd62ed3e","approve(address,uint256)":"095ea7b3","approveSwapToken(address,address,uint256)":"79e34b4d","balanceOf(address)":"70a08231","burn(address,uint256)":"9dc29fac","decimals()":"313ce567","decreaseAllowance(address,uint256)":"a457c2d7","factoryV2()":"68e0d4e1","factoryV3()":"1d5f45f5","fee()":"ddca3f43","feeRatePerDayScaled()":"2fecd589","feeReceiver()":"b3f00674","feeTimestamp()":"184a732f","increaseAllowance(address,uint256)":"39509351","initialize(string,string,uint256,address,uint256,address,address,address,address,address,address)":"ed1c11cb","isRestricted(address)":"c01bc982","methodologist()":"9f8e67bf","methodology()":"9eeb1d50","mint(address,uint256)":"40c10f19","mintToFeeReceiver()":"f734e22a","minter()":"07546172","name()":"06fdde03","owner()":"8da5cb5b","pause()":"8456cb59","paused()":"5c975abb","priceOracle()":"2630c12f","proposeOwner(address)":"b5ed298a","proposedOwner()":"d153b60c","quoter()":"c6bbd5a7","renounceOwnership()":"715018a6","setFeeRate(uint256)":"45596e2e","setFeeReceiver(address)":"efdcd974","setMethodologist(address)":"660db484","setMethodology(string)":"91fe1b92","setMinter(address)":"fca3b5aa","setSupplyCeiling(uint256)":"6e01a686","supplyCeiling()":"2b52684d","swapRouterV2()":"744fbc7a","swapRouterV3()":"b631e80b","swapSingle(address,address,uint256,address,uint256)":"5f370ed0","symbol()":"95d89b41","toggleRestriction(address)":"aaa4a184","tokenMarketShare(address)":"fcaae87b","tokenSwapVersion(address)":"d90bc211","totalSupply()":"18160ddd","transfer(address,uint256)":"a9059cbb","transferFrom(address,address,uint256)":"23b872dd","transferOwnership(address)":"f2fde38b","unpause()":"3f4ba83a","weth()":"3fc8cef3","wethTransfer(address,uint256)":"77524af9"},"id":27}