{
  "abi": [
    {
      "anonymous": false,
      "inputs": [
        {
          "indexed": true,
          "internalType": "address",
          "name": "owner",
          "type": "address"
        },
        {
          "indexed": true,
          "internalType": "address",
          "name": "spender",
          "type": "address"
        },
        {
          "indexed": false,
          "internalType": "uint256",
          "name": "value",
          "type": "uint256"
        }
      ],
      "name": "Approval",
      "type": "event"
    },
    {
      "anonymous": false,
      "inputs": [
        {
          "indexed": true,
          "internalType": "uint256",
          "name": "feeRatePerDayScaled",
          "type": "uint256"
        }
      ],
      "name": "FeeRateSet",
      "type": "event"
    },
    {
      "anonymous": false,
      "inputs": [
        {
          "indexed": true,
          "internalType": "address",
          "name": "feeReceiver",
          "type": "address"
        }
      ],
      "name": "FeeReceiverSet",
      "type": "event"
    },
    {
      "anonymous": false,
      "inputs": [
        {
          "indexed": false,
          "internalType": "uint8",
          "name": "version",
          "type": "uint8"
        }
      ],
      "name": "Initialized",
      "type": "event"
    },
    {
      "anonymous": false,
      "inputs": [
        {
          "indexed": true,
          "internalType": "address",
          "name": "methodologist",
          "type": "address"
        }
      ],
      "name": "MethodologistSet",
      "type": "event"
    },
    {
      "anonymous": false,
      "inputs": [
        {
          "indexed": false,
          "internalType": "string",
          "name": "methodology",
          "type": "string"
        }
      ],
      "name": "MethodologySet",
      "type": "event"
    },
    {
      "anonymous": false,
      "inputs": [
        {
          "indexed": false,
          "internalType": "address",
          "name": "feeReceiver",
          "type": "address"
        },
        {
          "indexed": false,
          "internalType": "uint256",
          "name": "timestamp",
          "type": "uint256"
        },
        {
          "indexed": false,
          "internalType": "uint256",
          "name": "totalSupply",
          "type": "uint256"
        },
        {
          "indexed": false,
          "internalType": "uint256",
          "name": "amount",
          "type": "uint256"
        }
      ],
      "name": "MintFeeToReceiver",
      "type": "event"
    },
    {
      "anonymous": false,
      "inputs": [
        {
          "indexed": true,
          "internalType": "address",
          "name": "minter",
          "type": "address"
        }
      ],
      "name": "MinterSet",
      "type": "event"
    },
    {
      "anonymous": false,
      "inputs": [
        {
          "indexed": true,
          "internalType": "address",
          "name": "previousOwner",
          "type": "address"
        },
        {
          "indexed": true,
          "internalType": "address",
          "name": "newOwner",
          "type": "address"
        }
      ],
      "name": "OwnershipTransferred",
      "type": "event"
    },
    {
      "anonymous": false,
      "inputs": [
        {
          "indexed": false,
          "internalType": "address",
          "name": "account",
          "type": "address"
        }
      ],
      "name": "Paused",
      "type": "event"
    },
    {
      "anonymous": false,
      "inputs": [
        {
          "indexed": false,
          "internalType": "uint256",
          "name": "supplyCeiling",
          "type": "uint256"
        }
      ],
      "name": "SupplyCeilingSet",
      "type": "event"
    },
    {
      "anonymous": false,
      "inputs": [
        {
          "indexed": true,
          "internalType": "address",
          "name": "account",
          "type": "address"
        },
        {
          "indexed": false,
          "internalType": "bool",
          "name": "isRestricted",
          "type": "bool"
        }
      ],
      "name": "ToggledRestricted",
      "type": "event"
    },
    {
      "anonymous": false,
      "inputs": [
        {
          "indexed": true,
          "internalType": "address",
          "name": "from",
          "type": "address"
        },
        {
          "indexed": true,
          "internalType": "address",
          "name": "to",
          "type": "address"
        },
        {
          "indexed": false,
          "internalType": "uint256",
          "name": "value",
          "type": "uint256"
        }
      ],
      "name": "Transfer",
      "type": "event"
    },
    {
      "anonymous": false,
      "inputs": [
        {
          "indexed": false,
          "internalType": "address",
          "name": "account",
          "type": "address"
        }
      ],
      "name": "Unpaused",
      "type": "event"
    },
    {
      "inputs": [
        {
          "internalType": "address",
          "name": "owner",
          "type": "address"
        },
        {
          "internalType": "address",
          "name": "spender",
          "type": "address"
        }
      ],
      "name": "allowance",
      "outputs": [
        {
          "internalType": "uint256",
          "name": "",
          "type": "uint256"
        }
      ],
      "stateMutability": "view",
      "type": "function"
    },
    {
      "inputs": [
        {
          "internalType": "address",
          "name": "spender",
          "type": "address"
        },
        {
          "internalType": "uint256",
          "name": "amount",
          "type": "uint256"
        }
      ],
      "name": "approve",
      "outputs": [
        {
          "internalType": "bool",
          "name": "",
          "type": "bool"
        }
      ],
      "stateMutability": "nonpayable",
      "type": "function"
    },
    {
      "inputs": [
        {
          "internalType": "address",
          "name": "_token",
          "type": "address"
        },
        {
          "internalType": "address",
          "name": "_to",
          "type": "address"
        },
        {
          "internalType": "uint256",
          "name": "_amount",
          "type": "uint256"
        }
      ],
      "name": "approveSwapToken",
      "outputs": [],
      "stateMutability": "nonpayable",
      "type": "function"
    },
    {
      "inputs": [
        {
          "internalType": "address",
          "name": "account",
          "type": "address"
        }
      ],
      "name": "balanceOf",
      "outputs": [
        {
          "internalType": "uint256",
          "name": "",
          "type": "uint256"
        }
      ],
      "stateMutability": "view",
      "type": "function"
    },
    {
      "inputs": [
        {
          "internalType": "address",
          "name": "from",
          "type": "address"
        },
        {
          "internalType": "uint256",
          "name": "amount",
          "type": "uint256"
        }
      ],
      "name": "burn",
      "outputs": [],
      "stateMutability": "nonpayable",
      "type": "function"
    },
    {
      "inputs": [],
      "name": "decimals",
      "outputs": [
        {
          "internalType": "uint8",
          "name": "",
          "type": "uint8"
        }
      ],
      "stateMutability": "view",
      "type": "function"
    },
    {
      "inputs": [
        {
          "internalType": "address",
          "name": "spender",
          "type": "address"
        },
        {
          "internalType": "uint256",
          "name": "subtractedValue",
          "type": "uint256"
        }
      ],
      "name": "decreaseAllowance",
      "outputs": [
        {
          "internalType": "bool",
          "name": "",
          "type": "bool"
        }
      ],
      "stateMutability": "nonpayable",
      "type": "function"
    },
    {
      "inputs": [],
      "name": "factoryV2",
      "outputs": [
        {
          "internalType": "contract IUniswapV2Factory",
          "name": "",
          "type": "address"
        }
      ],
      "stateMutability": "view",
      "type": "function"
    },
    {
      "inputs": [],
      "name": "factoryV3",
      "outputs": [
        {
          "internalType": "contract IUniswapV3Factory",
          "name": "",
          "type": "address"
        }
      ],
      "stateMutability": "view",
      "type": "function"
    },
    {
      "inputs": [],
      "name": "fee",
      "outputs": [
        {
          "internalType": "uint256",
          "name": "",
          "type": "uint256"
        }
      ],
      "stateMutability": "view",
      "type": "function"
    },
    {
      "inputs": [],
      "name": "feeRatePerDayScaled",
      "outputs": [
        {
          "internalType": "uint256",
          "name": "",
          "type": "uint256"
        }
      ],
      "stateMutability": "view",
      "type": "function"
    },
    {
      "inputs": [],
      "name": "feeReceiver",
      "outputs": [
        {
          "internalType": "address",
          "name": "",
          "type": "address"
        }
      ],
      "stateMutability": "view",
      "type": "function"
    },
    {
      "inputs": [],
      "name": "feeTimestamp",
      "outputs": [
        {
          "internalType": "uint256",
          "name": "",
          "type": "uint256"
        }
      ],
      "stateMutability": "view",
      "type": "function"
    },
    {
      "inputs": [
        {
          "internalType": "address",
          "name": "spender",
          "type": "address"
        },
        {
          "internalType": "uint256",
          "name": "addedValue",
          "type": "uint256"
        }
      ],
      "name": "increaseAllowance",
      "outputs": [
        {
          "internalType": "bool",
          "name": "",
          "type": "bool"
        }
      ],
      "stateMutability": "nonpayable",
      "type": "function"
    },
    {
      "inputs": [
        {
          "internalType": "string",
          "name": "tokenName",
          "type": "string"
        },
        {
          "internalType": "string",
          "name": "tokenSymbol",
          "type": "string"
        },
        {
          "internalType": "uint256",
          "name": "_feeRatePerDayScaled",
          "type": "uint256"
        },
        {
          "internalType": "address",
          "name": "_feeReceiver",
          "type": "address"
        },
        {
          "internalType": "uint256",
          "name": "_supplyCeiling",
          "type": "uint256"
        },
        {
          "internalType": "address",
          "name": "_weth",
          "type": "address"
        },
        {
          "internalType": "address",
          "name": "_quoter",
          "type": "address"
        },
        {
          "internalType": "address",
          "name": "_swapRouterV3",
          "type": "address"
        },
        {
          "internalType": "address",
          "name": "_factoryV3",
          "type": "address"
        },
        {
          "internalType": "address",
          "name": "_swapRouterV2",
          "type": "address"
        },
        {
          "internalType": "address",
          "name": "_factoryV2",
          "type": "address"
        }
      ],
      "name": "initialize",
      "outputs": [],
      "stateMutability": "nonpayable",
      "type": "function"
    },
    {
      "inputs": [
        {
          "internalType": "address",
          "name": "",
          "type": "address"
        }
      ],
      "name": "isRestricted",
      "outputs": [
        {
          "internalType": "bool",
          "name": "",
          "type": "bool"
        }
      ],
      "stateMutability": "view",
      "type": "function"
    },
    {
      "inputs": [],
      "name": "methodologist",
      "outputs": [
        {
          "internalType": "address",
          "name": "",
          "type": "address"
        }
      ],
      "stateMutability": "view",
      "type": "function"
    },
    {
      "inputs": [],
      "name": "methodology",
      "outputs": [
        {
          "internalType": "string",
          "name": "",
          "type": "string"
        }
      ],
      "stateMutability": "view",
      "type": "function"
    },
    {
      "inputs": [
        {
          "internalType": "address",
          "name": "to",
          "type": "address"
        },
        {
          "internalType": "uint256",
          "name": "amount",
          "type": "uint256"
        }
      ],
      "name": "mint",
      "outputs": [],
      "stateMutability": "nonpayable",
      "type": "function"
    },
    {
      "inputs": [],
      "name": "mintToFeeReceiver",
      "outputs": [],
      "stateMutability": "nonpayable",
      "type": "function"
    },
    {
      "inputs": [],
      "name": "minter",
      "outputs": [
        {
          "internalType": "address",
          "name": "",
          "type": "address"
        }
      ],
      "stateMutability": "view",
      "type": "function"
    },
    {
      "inputs": [],
      "name": "name",
      "outputs": [
        {
          "internalType": "string",
          "name": "",
          "type": "string"
        }
      ],
      "stateMutability": "view",
      "type": "function"
    },
    {
      "inputs": [],
      "name": "owner",
      "outputs": [
        {
          "internalType": "address",
          "name": "",
          "type": "address"
        }
      ],
      "stateMutability": "view",
      "type": "function"
    },
    {
      "inputs": [],
      "name": "pause",
      "outputs": [],
      "stateMutability": "nonpayable",
      "type": "function"
    },
    {
      "inputs": [],
      "name": "paused",
      "outputs": [
        {
          "internalType": "bool",
          "name": "",
          "type": "bool"
        }
      ],
      "stateMutability": "view",
      "type": "function"
    },
    {
      "inputs": [
        {
          "internalType": "address",
          "name": "_proposedOwner",
          "type": "address"
        }
      ],
      "name": "proposeOwner",
      "outputs": [],
      "stateMutability": "nonpayable",
      "type": "function"
    },
    {
      "inputs": [],
      "name": "proposedOwner",
      "outputs": [
        {
          "internalType": "address",
          "name": "",
          "type": "address"
        }
      ],
      "stateMutability": "view",
      "type": "function"
    },
    {
      "inputs": [],
      "name": "quoter",
      "outputs": [
        {
          "internalType": "contract IQuoter",
          "name": "",
          "type": "address"
        }
      ],
      "stateMutability": "view",
      "type": "function"
    },
    {
      "inputs": [],
      "name": "renounceOwnership",
      "outputs": [],
      "stateMutability": "nonpayable",
      "type": "function"
    },
    {
      "inputs": [
        {
          "internalType": "uint256",
          "name": "_feeRatePerDayScaled",
          "type": "uint256"
        }
      ],
      "name": "setFeeRate",
      "outputs": [],
      "stateMutability": "nonpayable",
      "type": "function"
    },
    {
      "inputs": [
        {
          "internalType": "address",
          "name": "_feeReceiver",
          "type": "address"
        }
      ],
      "name": "setFeeReceiver",
      "outputs": [],
      "stateMutability": "nonpayable",
      "type": "function"
    },
    {
      "inputs": [
        {
          "internalType": "address",
          "name": "_methodologist",
          "type": "address"
        }
      ],
      "name": "setMethodologist",
      "outputs": [],
      "stateMutability": "nonpayable",
      "type": "function"
    },
    {
      "inputs": [
        {
          "internalType": "string",
          "name": "_methodology",
          "type": "string"
        }
      ],
      "name": "setMethodology",
      "outputs": [],
      "stateMutability": "nonpayable",
      "type": "function"
    },
    {
      "inputs": [
        {
          "internalType": "address",
          "name": "_minter",
          "type": "address"
        }
      ],
      "name": "setMinter",
      "outputs": [],
      "stateMutability": "nonpayable",
      "type": "function"
    },
    {
      "inputs": [
        {
          "internalType": "uint256",
          "name": "_supplyCeiling",
          "type": "uint256"
        }
      ],
      "name": "setSupplyCeiling",
      "outputs": [],
      "stateMutability": "nonpayable",
      "type": "function"
    },
    {
      "inputs": [],
      "name": "supplyCeiling",
      "outputs": [
        {
          "internalType": "uint256",
          "name": "",
          "type": "uint256"
        }
      ],
      "stateMutability": "view",
      "type": "function"
    },
    {
      "inputs": [],
      "name": "swapRouterV2",
      "outputs": [
        {
          "internalType": "contract IUniswapV2Router02",
          "name": "",
          "type": "address"
        }
      ],
      "stateMutability": "view",
      "type": "function"
    },
    {
      "inputs": [],
      "name": "swapRouterV3",
      "outputs": [
        {
          "internalType": "contract ISwapRouter",
          "name": "",
          "type": "address"
        }
      ],
      "stateMutability": "view",
      "type": "function"
    },
    {
      "inputs": [
        {
          "internalType": "address",
          "name": "tokenIn",
          "type": "address"
        },
        {
          "internalType": "address",
          "name": "tokenOut",
          "type": "address"
        },
        {
          "internalType": "uint256",
          "name": "amountIn",
          "type": "uint256"
        },
        {
          "internalType": "address",
          "name": "_recipient",
          "type": "address"
        },
        {
          "internalType": "uint256",
          "name": "_swapVersion",
          "type": "uint256"
        }
      ],
      "name": "swapSingle",
      "outputs": [
        {
          "internalType": "uint256",
          "name": "",
          "type": "uint256"
        }
      ],
      "stateMutability": "nonpayable",
      "type": "function"
    },
    {
      "inputs": [],
      "name": "symbol",
      "outputs": [
        {
          "internalType": "string",
          "name": "",
          "type": "string"
        }
      ],
      "stateMutability": "view",
      "type": "function"
    },
    {
      "inputs": [
        {
          "internalType": "address",
          "name": "who",
          "type": "address"
        }
      ],
      "name": "toggleRestriction",
      "outputs": [],
      "stateMutability": "nonpayable",
      "type": "function"
    },
    {
      "inputs": [
        {
          "internalType": "address",
          "name": "",
          "type": "address"
        }
      ],
      "name": "tokenMarketShare",
      "outputs": [
        {
          "internalType": "uint256",
          "name": "",
          "type": "uint256"
        }
      ],
      "stateMutability": "view",
      "type": "function"
    },
    {
      "inputs": [
        {
          "internalType": "address",
          "name": "",
          "type": "address"
        }
      ],
      "name": "tokenSwapVersion",
      "outputs": [
        {
          "internalType": "uint256",
          "name": "",
          "type": "uint256"
        }
      ],
      "stateMutability": "view",
      "type": "function"
    },
    {
      "inputs": [],
      "name": "totalSupply",
      "outputs": [
        {
          "internalType": "uint256",
          "name": "",
          "type": "uint256"
        }
      ],
      "stateMutability": "view",
      "type": "function"
    },
    {
      "inputs": [
        {
          "internalType": "address",
          "name": "to",
          "type": "address"
        },
        {
          "internalType": "uint256",
          "name": "amount",
          "type": "uint256"
        }
      ],
      "name": "transfer",
      "outputs": [
        {
          "internalType": "bool",
          "name": "",
          "type": "bool"
        }
      ],
      "stateMutability": "nonpayable",
      "type": "function"
    },
    {
      "inputs": [
        {
          "internalType": "address",
          "name": "from",
          "type": "address"
        },
        {
          "internalType": "address",
          "name": "to",
          "type": "address"
        },
        {
          "internalType": "uint256",
          "name": "amount",
          "type": "uint256"
        }
      ],
      "name": "transferFrom",
      "outputs": [
        {
          "internalType": "bool",
          "name": "",
          "type": "bool"
        }
      ],
      "stateMutability": "nonpayable",
      "type": "function"
    },
    {
      "inputs": [
        {
          "internalType": "address",
          "name": "newOwner",
          "type": "address"
        }
      ],
      "name": "transferOwnership",
      "outputs": [],
      "stateMutability": "nonpayable",
      "type": "function"
    },
    {
      "inputs": [],
      "name": "unpause",
      "outputs": [],
      "stateMutability": "nonpayable",
      "type": "function"
    },
    {
      "inputs": [],
      "name": "weth",
      "outputs": [
        {
          "internalType": "contract IWETH",
          "name": "",
          "type": "address"
        }
      ],
      "stateMutability": "view",
      "type": "function"
    },
    {
      "stateMutability": "payable",
      "type": "receive"
    }
  ],
  "bytecode": {
    "object": "0x608060405234801561001057600080fd5b50612960806100206000396000f3fe6080604052600436106102b25760003560e01c80638456cb5911610175578063b631e80b116100dc578063ddca3f4311610095578063f2fde38b1161006f578063f2fde38b14610863578063f734e22a14610883578063fca3b5aa14610898578063fcaae87b146108b857600080fd5b8063ddca3f431461080d578063ed1c11cb14610823578063efdcd9741461084357600080fd5b8063b631e80b1461072c578063c01bc9821461074d578063c6bbd5a71461077e578063d153b60c1461079f578063d90bc211146107bf578063dd62ed3e146107ed57600080fd5b80639f8e67bf1161012e5780639f8e67bf1461066b578063a457c2d71461068c578063a9059cbb146106ac578063aaa4a184146106cc578063b3f00674146106ec578063b5ed298a1461070c57600080fd5b80638456cb59146105ce5780638da5cb5b146105e357806391fe1b921461060157806395d89b41146106215780639dc29fac146106365780639eeb1d501461065657600080fd5b80633fc8cef31161021957806368e0d4e1116101d257806368e0d4e1146105015780636e01a6861461052257806370a0823114610542578063715018a614610578578063744fbc7a1461058d57806379e34b4d146105ae57600080fd5b80633fc8cef31461044857806340c10f191461046957806345596e2e146104895780635c975abb146104a95780635f370ed0146104c1578063660db484146104e157600080fd5b806323b872dd1161026b57806323b872dd146103a85780632b52684d146103c85780632fecd589146103df578063313ce567146103f557806339509351146104115780633f4ba83a1461043157600080fd5b806306fdde03146102be57806307546172146102e9578063095ea7b31461032257806318160ddd14610352578063184a732f146103715780631d5f45f51461038757600080fd5b366102b957005b600080fd5b3480156102ca57600080fd5b506102d36108e6565b6040516102e09190612637565b60405180910390f35b3480156102f557600080fd5b506101015461030a906001600160a01b031681565b6040516001600160a01b0390911681526020016102e0565b34801561032e57600080fd5b5061034261033d36600461248d565b610978565b60405190151581526020016102e0565b34801561035e57600080fd5b506035545b6040519081526020016102e0565b34801561037d57600080fd5b5061036360fe5481565b34801561039357600080fd5b506101085461030a906001600160a01b031681565b3480156103b457600080fd5b506103426103c33660046123fc565b610990565b3480156103d457600080fd5b506103636101035481565b3480156103eb57600080fd5b5061036360fd5481565b34801561040157600080fd5b50604051601281526020016102e0565b34801561041d57600080fd5b5061034261042c36600461248d565b610a83565b34801561043d57600080fd5b50610446610aa5565b005b34801561045457600080fd5b5061010b5461030a906001600160a01b031681565b34801561047557600080fd5b5061044661048436600461248d565b610ab7565b34801561049557600080fd5b506104466104a4366004612605565b610bd1565b3480156104b557600080fd5b5060ca5460ff16610342565b3480156104cd57600080fd5b506103636104dc366004612438565b610c14565b3480156104ed57600080fd5b506104466104fc3660046123a7565b610f61565b34801561050d57600080fd5b5061010a5461030a906001600160a01b031681565b34801561052e57600080fd5b5061044661053d366004612605565b610fc7565b34801561054e57600080fd5b5061036361055d3660046123a7565b6001600160a01b031660009081526033602052604090205490565b34801561058457600080fd5b5061044661100c565b34801561059957600080fd5b506101095461030a906001600160a01b031681565b3480156105ba57600080fd5b506104466105c93660046123fc565b61101e565b3480156105da57600080fd5b506104466110d1565b3480156105ef57600080fd5b506065546001600160a01b031661030a565b34801561060d57600080fd5b5061044661061c3660046124d9565b6110e1565b34801561062d57600080fd5b506102d3611194565b34801561064257600080fd5b5061044661065136600461248d565b6111a3565b34801561066257600080fd5b506102d3611278565b34801561067757600080fd5b506101005461030a906001600160a01b031681565b34801561069857600080fd5b506103426106a736600461248d565b611307565b3480156106b857600080fd5b506103426106c736600461248d565b61138d565b3480156106d857600080fd5b506104466106e73660046123a7565b611416565b3480156106f857600080fd5b5060ff5461030a906001600160a01b031681565b34801561071857600080fd5b506104466107273660046123a7565b61148a565b34801561073857600080fd5b506101075461030a906001600160a01b031681565b34801561075957600080fd5b506103426107683660046123a7565b6101046020526000908152604090205460ff1681565b34801561078a57600080fd5b5061010c5461030a906001600160a01b031681565b3480156107ab57600080fd5b5060975461030a906001600160a01b031681565b3480156107cb57600080fd5b506103636107da3660046123a7565b6101066020526000908152604090205481565b3480156107f957600080fd5b506103636108083660046123c9565b6114da565b34801561081957600080fd5b5061036360fc5481565b34801561082f57600080fd5b5061044661083e366004612516565b611505565b34801561084f57600080fd5b5061044661085e3660046123a7565b6116d1565b34801561086f57600080fd5b5061044661087e3660046123a7565b611736565b34801561088f57600080fd5b5061044661185e565b3480156108a457600080fd5b506104466108b33660046123a7565b61186e565b3480156108c457600080fd5b506103636108d33660046123a7565b6101056020526000908152604090205481565b6060603680546108f5906128ad565b80601f0160208091040260200160405190810160405280929190818152602001828054610921906128ad565b801561096e5780601f106109435761010080835404028352916020019161096e565b820191906000526020600020905b81548152906001019060200180831161095157829003601f168201915b5050505050905090565b6000336109868185856118d4565b5060019392505050565b600061099a6119f9565b336000908152610104602052604090205460ff16156109d45760405162461bcd60e51b81526004016109cb906126b6565b60405180910390fd5b6001600160a01b0383166000908152610104602052604090205460ff1615610a0e5760405162461bcd60e51b81526004016109cb9061268c565b6001600160a01b0384166000908152610104602052604090205460ff1615610a6d5760405162461bcd60e51b8152602060048201526012602482015271199c9bdb481a5cc81c995cdd1c9a58dd195960721b60448201526064016109cb565b610a78843384611a3f565b610986848484611ab3565b600033610986818585610a9683836114da565b610aa0919061283d565b6118d4565b610aad611c5e565b610ab5611cb8565b565b610abf6119f9565b610101546001600160a01b03163314610aea5760405162461bcd60e51b81526004016109cb906126ed565b6101035481610af860355490565b610b02919061283d565b1115610b505760405162461bcd60e51b815260206004820152601a60248201527f77696c6c2065786365656420737570706c79206365696c696e6700000000000060448201526064016109cb565b6001600160a01b0382166000908152610104602052604090205460ff1615610b8a5760405162461bcd60e51b81526004016109cb9061268c565b336000908152610104602052604090205460ff1615610bbb5760405162461bcd60e51b81526004016109cb906126b6565b610bc3611d0a565b610bcd8282611e38565b5050565b610bd9611c5e565b610be1611d0a565b60fd81905560405181907f45398c451b1a31b88dbaed4e7b89a632f43cc4b50149d437db03a5300afe40d190600090a250565b610101546000906001600160a01b03163314610c425760405162461bcd60e51b81526004016109cb906126ed565b8160031415610de7576101075460405163095ea7b360e01b81526001600160a01b039182166004820152602481018690529087169063095ea7b390604401602060405180830381600087803b158015610c9a57600080fd5b505af1158015610cae573d6000803e3d6000fd5b505050506040513d601f19601f82011682018060405250810190610cd291906124b7565b5060408051610100810182526001600160a01b03888116825287811660208301908152610bb883850190815287831660608501908152426080860190815260a086018b8152600060c0880181815260e08901828152610107549a5163414bf38960e01b81528a518a166004820152975189166024890152955162ffffff166044880152935187166064870152915160848601525160a4850152905160c48401529051831660e483015292939091169063414bf3899061010401602060405180830381600087803b158015610da557600080fd5b505af1158015610db9573d6000803e3d6000fd5b505050506040513d601f19601f82011682018060405250810190610ddd919061261e565b9250610f58915050565b6040805160028082526060820183526000926020830190803683370190505090508681600081518110610e1c57610e1c6128fe565b60200260200101906001600160a01b031690816001600160a01b0316815250508581600181518110610e5057610e506128fe565b6001600160a01b0392831660209182029290920101526101095460405163095ea7b360e01b81529082166004820152602481018790529088169063095ea7b390604401602060405180830381600087803b158015610ead57600080fd5b505af1158015610ec1573d6000803e3d6000fd5b505050506040513d601f19601f82011682018060405250810190610ee591906124b7565b5061010954604051635c11d79560e01b81526001600160a01b0390911690635c11d79590610f2090889060009086908a9042906004016127cc565b600060405180830381600087803b158015610f3a57600080fd5b505af1158015610f4e573d6000803e3d6000fd5b5050505060009150505b95945050505050565b610f69611c5e565b6001600160a01b038116610f7c57600080fd5b61010080546001600160a01b0319166001600160a01b0383169081179091556040517f164d8ef0d742b45087644f55c61abeb84557df70d06730591e451f0981e278ca90600090a250565b610fcf611c5e565b6101038190556040518181527fe35be406f69e9d11d6ac8e5b54bbc8b6c4baf2fa2359f84a56baa5ea5d07dc8f906020015b60405180910390a150565b611014611c5e565b610ab56000611ef9565b610101546001600160a01b031633146110495760405162461bcd60e51b81526004016109cb906126ed565b60405163095ea7b360e01b81526001600160a01b0383811660048301526024820183905284169063095ea7b390604401602060405180830381600087803b15801561109357600080fd5b505af11580156110a7573d6000803e3d6000fd5b505050506040513d601f19601f820116820180604052508101906110cb91906124b7565b50505050565b6110d9611c5e565b610ab5611f4b565b610100546001600160a01b031633146111505760405162461bcd60e51b815260206004820152602b60248201527f496e646578546f6b656e3a2063616c6c6572206973206e6f7420746865206d6560448201526a1d1a1bd91bdb1bd9da5cdd60aa1b60648201526084016109cb565b805161116490610102906020840190612265565b507fe6be68107100e39cb16d675c1086a4d5479fbd01108d721dabbccaa2249b995f816040516110019190612637565b6060603780546108f5906128ad565b6111ab6119f9565b610101546001600160a01b031633146111d65760405162461bcd60e51b81526004016109cb906126ed565b6001600160a01b0382166000908152610104602052604090205460ff16156112355760405162461bcd60e51b8152602060048201526012602482015271199c9bdb481a5cc81c995cdd1c9a58dd195960721b60448201526064016109cb565b336000908152610104602052604090205460ff16156112665760405162461bcd60e51b81526004016109cb906126b6565b61126e611d0a565b610bcd8282611f88565b6101028054611286906128ad565b80601f01602080910402602001604051908101604052809291908181526020018280546112b2906128ad565b80156112ff5780601f106112d4576101008083540402835291602001916112ff565b820191906000526020600020905b8154815290600101906020018083116112e257829003601f168201915b505050505081565b6000338161131582866114da565b9050838110156113755760405162461bcd60e51b815260206004820152602560248201527f45524332303a2064656372656173656420616c6c6f77616e63652062656c6f77604482015264207a65726f60d81b60648201526084016109cb565b61138282868684036118d4565b506001949350505050565b60006113976119f9565b336000908152610104602052604090205460ff16156113c85760405162461bcd60e51b81526004016109cb906126b6565b6001600160a01b0383166000908152610104602052604090205460ff16156114025760405162461bcd60e51b81526004016109cb9061268c565b61140d338484611ab3565b50600192915050565b61141e611c5e565b6001600160a01b0381166000818152610104602052604090819020805460ff19811660ff9182161590811790925591517f14ddf324cc5d8b14a3c3b12c84b0a7d578d72c8d60655c06d6a457e71431d5ee9261147f92161515815260200190565b60405180910390a250565b611492611c5e565b6001600160a01b0381166114b85760405162461bcd60e51b81526004016109cb90612731565b609780546001600160a01b0319166001600160a01b0392909216919091179055565b6001600160a01b03918216600090815260346020908152604080832093909416825291909152205490565b600054610100900460ff16158080156115255750600054600160ff909116105b8061153f5750303b15801561153f575060005460ff166001145b6115a25760405162461bcd60e51b815260206004820152602e60248201527f496e697469616c697a61626c653a20636f6e747261637420697320616c72656160448201526d191e481a5b9a5d1a585b1a5e995960921b60648201526084016109cb565b6000805460ff1916600117905580156115c5576000805461ff0019166101001790555b6001600160a01b0389166115d857600080fd5b6115e06120b9565b6115e86120e8565b6115f28c8c612117565b6115fa612148565b60fd8a905560ff80546001600160a01b03199081166001600160a01b038c8116919091179092556101038a90554260fe5561010b805482168a841617905561010c8054821689841617905561010780548216888416179055610108805482168784161790556101098054821686841617905561010a805490911691841691909117905580156116c3576000805461ff0019169055604051600181527f7f26b83ff96e1f2b6a682f133852f6798a09c465da95921460cefb38474024989060200160405180910390a15b505050505050505050505050565b6116d9611c5e565b6001600160a01b0381166116ec57600080fd5b60ff80546001600160a01b0319166001600160a01b0383169081179091556040517fbdf37c276f641820b141429d245add2552b4118c0866e5a78638e3de5ef18d9d90600090a250565b6001600160a01b03811661175c5760405162461bcd60e51b81526004016109cb90612731565b6097546001600160a01b038281169116146117d45760405162461bcd60e51b815260206004820152603260248201527f50726f706f7361626c654f776e61626c653a206e6577206f776e6572206973206044820152713737ba10383937b837b9b2b21037bbb732b960711b60648201526084016109cb565b6001600160a01b03811633146118525760405162461bcd60e51b815260206004820152603a60248201527f50726f706f7361626c654f776e61626c653a20746869732063616c6c206d757360448201527f74206265206d61646520627920746865206e6577206f776e657200000000000060648201526084016109cb565b61185b81611ef9565b50565b611866611c5e565b610ab5611d0a565b611876611c5e565b6001600160a01b03811661188957600080fd5b61010180546001600160a01b0319166001600160a01b0383169081179091556040517f726b590ef91a8c76ad05bbe91a57ef84605276528f49cd47d787f558a4e755b690600090a250565b6001600160a01b0383166119365760405162461bcd60e51b8152602060048201526024808201527f45524332303a20617070726f76652066726f6d20746865207a65726f206164646044820152637265737360e01b60648201526084016109cb565b6001600160a01b0382166119975760405162461bcd60e51b815260206004820152602260248201527f45524332303a20617070726f766520746f20746865207a65726f206164647265604482015261737360f01b60648201526084016109cb565b6001600160a01b0383811660008181526034602090815260408083209487168084529482529182902085905590518481527f8c5be1e5ebec7d5bd14f71427d1e84f3dd0314c0f7b2291e5b200ac8c7c3b92591015b60405180910390a3505050565b60ca5460ff1615610ab55760405162461bcd60e51b815260206004820152601060248201526f14185d5cd8589b194e881c185d5cd95960821b60448201526064016109cb565b6000611a4b84846114da565b905060001981146110cb5781811015611aa65760405162461bcd60e51b815260206004820152601d60248201527f45524332303a20696e73756666696369656e7420616c6c6f77616e636500000060448201526064016109cb565b6110cb84848484036118d4565b6001600160a01b038316611b175760405162461bcd60e51b815260206004820152602560248201527f45524332303a207472616e736665722066726f6d20746865207a65726f206164604482015264647265737360d81b60648201526084016109cb565b6001600160a01b038216611b795760405162461bcd60e51b815260206004820152602360248201527f45524332303a207472616e7366657220746f20746865207a65726f206164647260448201526265737360e81b60648201526084016109cb565b6001600160a01b03831660009081526033602052604090205481811015611bf15760405162461bcd60e51b815260206004820152602660248201527f45524332303a207472616e7366657220616d6f756e7420657863656564732062604482015265616c616e636560d01b60648201526084016109cb565b6001600160a01b0380851660008181526033602052604080822086860390559286168082529083902080548601905591517fddf252ad1be2c89b69c2b068fc378daa952ba7f163c4a11628f55a4df523b3ef90611c519086815260200190565b60405180910390a36110cb565b6065546001600160a01b03163314610ab55760405162461bcd60e51b815260206004820181905260248201527f4f776e61626c653a2063616c6c6572206973206e6f7420746865206f776e657260448201526064016109cb565b611cc061216f565b60ca805460ff191690557f5db9ee0a495bf2e6ff9c91a7834c1ba4fdd244a5e8aa4e537bd38aeae4b073aa335b6040516001600160a01b03909116815260200160405180910390a1565b60006201518060fe5442611d1e9190612896565b611d289190612855565b90506001811061185b576000611d3d60355490565b60fd54909150819060005b84811015611d825768056bc75e2d63100000611d648385612877565b611d6e9190612855565b611d78908461283d565b9250600101611d48565b506000611d8f8484612896565b9050611d9e8562015180612877565b60fe6000828254611daf919061283d565b909155505060ff54611dca906001600160a01b031682611e38565b60ff547f07982395c678b2ffc23fcf59aaec243ca79418c285af0d0e10b4e65bc4189f4c906001600160a01b031642611e0260355490565b604080516001600160a01b0390941684526020840192909252908201526060810183905260800160405180910390a15050505050565b6001600160a01b038216611e8e5760405162461bcd60e51b815260206004820152601f60248201527f45524332303a206d696e7420746f20746865207a65726f20616464726573730060448201526064016109cb565b8060356000828254611ea0919061283d565b90915550506001600160a01b0382166000818152603360209081526040808320805486019055518481527fddf252ad1be2c89b69c2b068fc378daa952ba7f163c4a11628f55a4df523b3ef910160405180910390a35050565b606580546001600160a01b038381166001600160a01b0319831681179093556040519116919082907f8be0079c531659141344cd1fd0a4f28419497f9722a3daafe3b4186f6b6457e090600090a35050565b611f536119f9565b60ca805460ff191660011790557f62e78cea01bee320cd4e420270b5ea74000d11b0c9f74754ebdbfc544b05a258611ced3390565b6001600160a01b038216611fe85760405162461bcd60e51b815260206004820152602160248201527f45524332303a206275726e2066726f6d20746865207a65726f206164647265736044820152607360f81b60648201526084016109cb565b6001600160a01b0382166000908152603360205260409020548181101561205c5760405162461bcd60e51b815260206004820152602260248201527f45524332303a206275726e20616d6f756e7420657863656564732062616c616e604482015261636560f01b60648201526084016109cb565b6001600160a01b03831660008181526033602090815260408083208686039055603580548790039055518581529192917fddf252ad1be2c89b69c2b068fc378daa952ba7f163c4a11628f55a4df523b3ef91016119ec565b505050565b600054610100900460ff166120e05760405162461bcd60e51b81526004016109cb90612781565b610ab56121b8565b600054610100900460ff1661210f5760405162461bcd60e51b81526004016109cb90612781565b610ab56121e8565b600054610100900460ff1661213e5760405162461bcd60e51b81526004016109cb90612781565b610bcd828261221b565b600054610100900460ff16610ab55760405162461bcd60e51b81526004016109cb90612781565b60ca5460ff16610ab55760405162461bcd60e51b815260206004820152601460248201527314185d5cd8589b194e881b9bdd081c185d5cd95960621b60448201526064016109cb565b600054610100900460ff166121df5760405162461bcd60e51b81526004016109cb90612781565b610ab533611ef9565b600054610100900460ff1661220f5760405162461bcd60e51b81526004016109cb90612781565b60ca805460ff19169055565b600054610100900460ff166122425760405162461bcd60e51b81526004016109cb90612781565b8151612255906036906020850190612265565b5080516120b49060379060208401905b828054612271906128ad565b90600052602060002090601f01602090048101928261229357600085556122d9565b82601f106122ac57805160ff19168380011785556122d9565b828001600101855582156122d9579182015b828111156122d95782518255916020019190600101906122be565b506122e59291506122e9565b5090565b5b808211156122e557600081556001016122ea565b80356001600160a01b038116811461231557600080fd5b919050565b600082601f83011261232b57600080fd5b813567ffffffffffffffff8082111561234657612346612914565b604051601f8301601f19908116603f0116810190828211818310171561236e5761236e612914565b8160405283815286602085880101111561238757600080fd5b836020870160208301376000602085830101528094505050505092915050565b6000602082840312156123b957600080fd5b6123c2826122fe565b9392505050565b600080604083850312156123dc57600080fd5b6123e5836122fe565b91506123f3602084016122fe565b90509250929050565b60008060006060848603121561241157600080fd5b61241a846122fe565b9250612428602085016122fe565b9150604084013590509250925092565b600080600080600060a0868803121561245057600080fd5b612459866122fe565b9450612467602087016122fe565b93506040860135925061247c606087016122fe565b949793965091946080013592915050565b600080604083850312156124a057600080fd5b6124a9836122fe565b946020939093013593505050565b6000602082840312156124c957600080fd5b815180151581146123c257600080fd5b6000602082840312156124eb57600080fd5b813567ffffffffffffffff81111561250257600080fd5b61250e8482850161231a565b949350505050565b60008060008060008060008060008060006101608c8e03121561253857600080fd5b67ffffffffffffffff808d35111561254f57600080fd5b61255c8e8e358f0161231a565b9b508060208e0135111561256f57600080fd5b506125808d60208e01358e0161231a565b995060408c0135985061259560608d016122fe565b975060808c013596506125aa60a08d016122fe565b95506125b860c08d016122fe565b94506125c660e08d016122fe565b93506125d56101008d016122fe565b92506125e46101208d016122fe565b91506125f36101408d016122fe565b90509295989b509295989b9093969950565b60006020828403121561261757600080fd5b5035919050565b60006020828403121561263057600080fd5b5051919050565b600060208083528351808285015260005b8181101561266457858101830151858201604001528201612648565b81811115612676576000604083870101525b50601f01601f1916929092016040019392505050565b60208082526010908201526f1d1bc81a5cc81c995cdd1c9a58dd195960821b604082015260600190565b60208082526018908201527f6d73672e73656e64657220697320726573747269637465640000000000000000604082015260600190565b60208082526024908201527f496e646578546f6b656e3a2063616c6c6572206973206e6f7420746865206d69604082015263373a32b960e11b606082015260800190565b60208082526030908201527f50726f706f7361626c654f776e61626c653a206e6577206f776e65722069732060408201526f746865207a65726f206164647265737360801b606082015260800190565b6020808252602b908201527f496e697469616c697a61626c653a20636f6e7472616374206973206e6f74206960408201526a6e697469616c697a696e6760a81b606082015260800190565b600060a082018783526020878185015260a0604085015281875180845260c086019150828901935060005b8181101561281c5784516001600160a01b0316835293830193918301916001016127f7565b50506001600160a01b03969096166060850152505050608001529392505050565b60008219821115612850576128506128e8565b500190565b60008261287257634e487b7160e01b600052601260045260246000fd5b500490565b6000816000190483118215151615612891576128916128e8565b500290565b6000828210156128a8576128a86128e8565b500390565b600181811c908216806128c157607f821691505b602082108114156128e257634e487b7160e01b600052602260045260246000fd5b50919050565b634e487b7160e01b600052601160045260246000fd5b634e487b7160e01b600052603260045260246000fd5b634e487b7160e01b600052604160045260246000fdfea26469706673582212208aa0bc3776b69bd435cbd3dbe679497aaae4d95defe81ee64fdd12b80e82b75f64736f6c63430008070033",
    "linkReferences": {}
  },
  "methodIdentifiers": {
    "allowance(address,address)": "dd62ed3e",
    "approve(address,uint256)": "095ea7b3",
    "approveSwapToken(address,address,uint256)": "79e34b4d",
    "balanceOf(address)": "70a08231",
    "burn(address,uint256)": "9dc29fac",
    "decimals()": "313ce567",
    "decreaseAllowance(address,uint256)": "a457c2d7",
    "factoryV2()": "68e0d4e1",
    "factoryV3()": "1d5f45f5",
    "fee()": "ddca3f43",
    "feeRatePerDayScaled()": "2fecd589",
    "feeReceiver()": "b3f00674",
    "feeTimestamp()": "184a732f",
    "increaseAllowance(address,uint256)": "39509351",
    "initialize(string,string,uint256,address,uint256,address,address,address,address,address,address)": "ed1c11cb",
    "isRestricted(address)": "c01bc982",
    "methodologist()": "9f8e67bf",
    "methodology()": "9eeb1d50",
    "mint(address,uint256)": "40c10f19",
    "mintToFeeReceiver()": "f734e22a",
    "minter()": "07546172",
    "name()": "06fdde03",
    "owner()": "8da5cb5b",
    "pause()": "8456cb59",
    "paused()": "5c975abb",
    "proposeOwner(address)": "b5ed298a",
    "proposedOwner()": "d153b60c",
    "quoter()": "c6bbd5a7",
    "renounceOwnership()": "715018a6",
    "setFeeRate(uint256)": "45596e2e",
    "setFeeReceiver(address)": "efdcd974",
    "setMethodologist(address)": "660db484",
    "setMethodology(string)": "91fe1b92",
    "setMinter(address)": "fca3b5aa",
    "setSupplyCeiling(uint256)": "6e01a686",
    "supplyCeiling()": "2b52684d",
    "swapRouterV2()": "744fbc7a",
    "swapRouterV3()": "b631e80b",
    "swapSingle(address,address,uint256,address,uint256)": "5f370ed0",
    "symbol()": "95d89b41",
    "toggleRestriction(address)": "aaa4a184",
    "tokenMarketShare(address)": "fcaae87b",
    "tokenSwapVersion(address)": "d90bc211",
    "totalSupply()": "18160ddd",
    "transfer(address,uint256)": "a9059cbb",
    "transferFrom(address,address,uint256)": "23b872dd",
    "transferOwnership(address)": "f2fde38b",
    "unpause()": "3f4ba83a",
    "weth()": "3fc8cef3"
  },
  "id": 24
}