{
  "abi": [
    {
      "anonymous": false,
      "inputs": [
        {
          "indexed": true,
          "internalType": "address",
          "name": "owner",
          "type": "address"
        },
        {
          "indexed": true,
          "internalType": "address",
          "name": "spender",
          "type": "address"
        },
        {
          "indexed": false,
          "internalType": "uint256",
          "name": "value",
          "type": "uint256"
        }
      ],
      "name": "Approval",
      "type": "event"
    },
    {
      "anonymous": false,
      "inputs": [
        {
          "indexed": true,
          "internalType": "uint256",
          "name": "feeRatePerDayScaled",
          "type": "uint256"
        }
      ],
      "name": "FeeRateSet",
      "type": "event"
    },
    {
      "anonymous": false,
      "inputs": [
        {
          "indexed": true,
          "internalType": "address",
          "name": "feeReceiver",
          "type": "address"
        }
      ],
      "name": "FeeReceiverSet",
      "type": "event"
    },
    {
      "anonymous": false,
      "inputs": [
        {
          "indexed": false,
          "internalType": "uint8",
          "name": "version",
          "type": "uint8"
        }
      ],
      "name": "Initialized",
      "type": "event"
    },
    {
      "anonymous": false,
      "inputs": [
        {
          "indexed": true,
          "internalType": "address",
          "name": "methodologist",
          "type": "address"
        }
      ],
      "name": "MethodologistSet",
      "type": "event"
    },
    {
      "anonymous": false,
      "inputs": [
        {
          "indexed": false,
          "internalType": "string",
          "name": "methodology",
          "type": "string"
        }
      ],
      "name": "MethodologySet",
      "type": "event"
    },
    {
      "anonymous": false,
      "inputs": [
        {
          "indexed": false,
          "internalType": "address",
          "name": "feeReceiver",
          "type": "address"
        },
        {
          "indexed": false,
          "internalType": "uint256",
          "name": "timestamp",
          "type": "uint256"
        },
        {
          "indexed": false,
          "internalType": "uint256",
          "name": "totalSupply",
          "type": "uint256"
        },
        {
          "indexed": false,
          "internalType": "uint256",
          "name": "amount",
          "type": "uint256"
        }
      ],
      "name": "MintFeeToReceiver",
      "type": "event"
    },
    {
      "anonymous": false,
      "inputs": [
        {
          "indexed": true,
          "internalType": "address",
          "name": "minter",
          "type": "address"
        }
      ],
      "name": "MinterSet",
      "type": "event"
    },
    {
      "anonymous": false,
      "inputs": [
        {
          "indexed": true,
          "internalType": "address",
          "name": "previousOwner",
          "type": "address"
        },
        {
          "indexed": true,
          "internalType": "address",
          "name": "newOwner",
          "type": "address"
        }
      ],
      "name": "OwnershipTransferred",
      "type": "event"
    },
    {
      "anonymous": false,
      "inputs": [
        {
          "indexed": false,
          "internalType": "address",
          "name": "account",
          "type": "address"
        }
      ],
      "name": "Paused",
      "type": "event"
    },
    {
      "anonymous": false,
      "inputs": [
        {
          "indexed": false,
          "internalType": "uint256",
          "name": "supplyCeiling",
          "type": "uint256"
        }
      ],
      "name": "SupplyCeilingSet",
      "type": "event"
    },
    {
      "anonymous": false,
      "inputs": [
        {
          "indexed": true,
          "internalType": "address",
          "name": "account",
          "type": "address"
        },
        {
          "indexed": false,
          "internalType": "bool",
          "name": "isRestricted",
          "type": "bool"
        }
      ],
      "name": "ToggledRestricted",
      "type": "event"
    },
    {
      "anonymous": false,
      "inputs": [
        {
          "indexed": true,
          "internalType": "address",
          "name": "from",
          "type": "address"
        },
        {
          "indexed": true,
          "internalType": "address",
          "name": "to",
          "type": "address"
        },
        {
          "indexed": false,
          "internalType": "uint256",
          "name": "value",
          "type": "uint256"
        }
      ],
      "name": "Transfer",
      "type": "event"
    },
    {
      "anonymous": false,
      "inputs": [
        {
          "indexed": false,
          "internalType": "address",
          "name": "account",
          "type": "address"
        }
      ],
      "name": "Unpaused",
      "type": "event"
    },
    {
      "inputs": [],
      "name": "BONE",
      "outputs": [
        {
          "internalType": "address",
          "name": "",
          "type": "address"
        }
      ],
      "stateMutability": "view",
      "type": "function"
    },
    {
      "inputs": [],
      "name": "BabyDoge",
      "outputs": [
        {
          "internalType": "address",
          "name": "",
          "type": "address"
        }
      ],
      "stateMutability": "view",
      "type": "function"
    },
    {
      "inputs": [],
      "name": "ELON",
      "outputs": [
        {
          "internalType": "address",
          "name": "",
          "type": "address"
        }
      ],
      "stateMutability": "view",
      "type": "function"
    },
    {
      "inputs": [],
      "name": "FLOKI",
      "outputs": [
        {
          "internalType": "address",
          "name": "",
          "type": "address"
        }
      ],
      "stateMutability": "view",
      "type": "function"
    },
    {
      "inputs": [],
      "name": "HarryPotterObamaSonic10Inu",
      "outputs": [
        {
          "internalType": "address",
          "name": "",
          "type": "address"
        }
      ],
      "stateMutability": "view",
      "type": "function"
    },
    {
      "inputs": [],
      "name": "LEASH",
      "outputs": [
        {
          "internalType": "address",
          "name": "",
          "type": "address"
        }
      ],
      "stateMutability": "view",
      "type": "function"
    },
    {
      "inputs": [],
      "name": "MEME",
      "outputs": [
        {
          "internalType": "address",
          "name": "",
          "type": "address"
        }
      ],
      "stateMutability": "view",
      "type": "function"
    },
    {
      "inputs": [],
      "name": "PEPE",
      "outputs": [
        {
          "internalType": "address",
          "name": "",
          "type": "address"
        }
      ],
      "stateMutability": "view",
      "type": "function"
    },
    {
      "inputs": [],
      "name": "QUOTER",
      "outputs": [
        {
          "internalType": "address",
          "name": "",
          "type": "address"
        }
      ],
      "stateMutability": "view",
      "type": "function"
    },
    {
      "inputs": [],
      "name": "SHIB",
      "outputs": [
        {
          "internalType": "address",
          "name": "",
          "type": "address"
        }
      ],
      "stateMutability": "view",
      "type": "function"
    },
    {
      "inputs": [],
      "name": "WETH9",
      "outputs": [
        {
          "internalType": "address",
          "name": "",
          "type": "address"
        }
      ],
      "stateMutability": "view",
      "type": "function"
    },
    {
      "inputs": [],
      "name": "WSM",
      "outputs": [
        {
          "internalType": "address",
          "name": "",
          "type": "address"
        }
      ],
      "stateMutability": "view",
      "type": "function"
    },
    {
      "inputs": [
        {
          "internalType": "address",
          "name": "owner",
          "type": "address"
        },
        {
          "internalType": "address",
          "name": "spender",
          "type": "address"
        }
      ],
      "name": "allowance",
      "outputs": [
        {
          "internalType": "uint256",
          "name": "",
          "type": "uint256"
        }
      ],
      "stateMutability": "view",
      "type": "function"
    },
    {
      "inputs": [
        {
          "internalType": "address",
          "name": "spender",
          "type": "address"
        },
        {
          "internalType": "uint256",
          "name": "amount",
          "type": "uint256"
        }
      ],
      "name": "approve",
      "outputs": [
        {
          "internalType": "bool",
          "name": "",
          "type": "bool"
        }
      ],
      "stateMutability": "nonpayable",
      "type": "function"
    },
    {
      "inputs": [
        {
          "internalType": "address",
          "name": "account",
          "type": "address"
        }
      ],
      "name": "balanceOf",
      "outputs": [
        {
          "internalType": "uint256",
          "name": "",
          "type": "uint256"
        }
      ],
      "stateMutability": "view",
      "type": "function"
    },
    {
      "inputs": [
        {
          "internalType": "address",
          "name": "from",
          "type": "address"
        },
        {
          "internalType": "uint256",
          "name": "amount",
          "type": "uint256"
        }
      ],
      "name": "burn",
      "outputs": [],
      "stateMutability": "nonpayable",
      "type": "function"
    },
    {
      "inputs": [],
      "name": "decimals",
      "outputs": [
        {
          "internalType": "uint8",
          "name": "",
          "type": "uint8"
        }
      ],
      "stateMutability": "view",
      "type": "function"
    },
    {
      "inputs": [
        {
          "internalType": "address",
          "name": "spender",
          "type": "address"
        },
        {
          "internalType": "uint256",
          "name": "subtractedValue",
          "type": "uint256"
        }
      ],
      "name": "decreaseAllowance",
      "outputs": [
        {
          "internalType": "bool",
          "name": "",
          "type": "bool"
        }
      ],
      "stateMutability": "nonpayable",
      "type": "function"
    },
    {
      "inputs": [],
      "name": "feeRatePerDayScaled",
      "outputs": [
        {
          "internalType": "uint256",
          "name": "",
          "type": "uint256"
        }
      ],
      "stateMutability": "view",
      "type": "function"
    },
    {
      "inputs": [],
      "name": "feeReceiver",
      "outputs": [
        {
          "internalType": "address",
          "name": "",
          "type": "address"
        }
      ],
      "stateMutability": "view",
      "type": "function"
    },
    {
      "inputs": [],
      "name": "feeTimestamp",
      "outputs": [
        {
          "internalType": "uint256",
          "name": "",
          "type": "uint256"
        }
      ],
      "stateMutability": "view",
      "type": "function"
    },
    {
      "inputs": [
        {
          "internalType": "address",
          "name": "spender",
          "type": "address"
        },
        {
          "internalType": "uint256",
          "name": "addedValue",
          "type": "uint256"
        }
      ],
      "name": "increaseAllowance",
      "outputs": [
        {
          "internalType": "bool",
          "name": "",
          "type": "bool"
        }
      ],
      "stateMutability": "nonpayable",
      "type": "function"
    },
    {
      "inputs": [
        {
          "internalType": "string",
          "name": "tokenName",
          "type": "string"
        },
        {
          "internalType": "string",
          "name": "tokenSymbol",
          "type": "string"
        },
        {
          "internalType": "uint256",
          "name": "_feeRatePerDayScaled",
          "type": "uint256"
        },
        {
          "internalType": "address",
          "name": "_feeReceiver",
          "type": "address"
        },
        {
          "internalType": "uint256",
          "name": "_supplyCeiling",
          "type": "uint256"
        }
      ],
      "name": "initialize",
      "outputs": [],
      "stateMutability": "nonpayable",
      "type": "function"
    },
    {
      "inputs": [
        {
          "internalType": "address",
          "name": "",
          "type": "address"
        }
      ],
      "name": "isRestricted",
      "outputs": [
        {
          "internalType": "bool",
          "name": "",
          "type": "bool"
        }
      ],
      "stateMutability": "view",
      "type": "function"
    },
    {
      "inputs": [
        {
          "internalType": "address",
          "name": "tokenIn",
          "type": "address"
        },
        {
          "internalType": "uint256",
          "name": "amountIn",
          "type": "uint256"
        }
      ],
      "name": "issuanceIndexTokens",
      "outputs": [],
      "stateMutability": "nonpayable",
      "type": "function"
    },
    {
      "inputs": [],
      "name": "methodologist",
      "outputs": [
        {
          "internalType": "address",
          "name": "",
          "type": "address"
        }
      ],
      "stateMutability": "view",
      "type": "function"
    },
    {
      "inputs": [],
      "name": "methodology",
      "outputs": [
        {
          "internalType": "string",
          "name": "",
          "type": "string"
        }
      ],
      "stateMutability": "view",
      "type": "function"
    },
    {
      "inputs": [
        {
          "internalType": "address",
          "name": "to",
          "type": "address"
        },
        {
          "internalType": "uint256",
          "name": "amount",
          "type": "uint256"
        }
      ],
      "name": "mint",
      "outputs": [],
      "stateMutability": "nonpayable",
      "type": "function"
    },
    {
      "inputs": [],
      "name": "mintToFeeReceiver",
      "outputs": [],
      "stateMutability": "nonpayable",
      "type": "function"
    },
    {
      "inputs": [],
      "name": "minter",
      "outputs": [
        {
          "internalType": "address",
          "name": "",
          "type": "address"
        }
      ],
      "stateMutability": "view",
      "type": "function"
    },
    {
      "inputs": [],
      "name": "name",
      "outputs": [
        {
          "internalType": "string",
          "name": "",
          "type": "string"
        }
      ],
      "stateMutability": "view",
      "type": "function"
    },
    {
      "inputs": [],
      "name": "owner",
      "outputs": [
        {
          "internalType": "address",
          "name": "",
          "type": "address"
        }
      ],
      "stateMutability": "view",
      "type": "function"
    },
    {
      "inputs": [],
      "name": "pause",
      "outputs": [],
      "stateMutability": "nonpayable",
      "type": "function"
    },
    {
      "inputs": [],
      "name": "paused",
      "outputs": [
        {
          "internalType": "bool",
          "name": "",
          "type": "bool"
        }
      ],
      "stateMutability": "view",
      "type": "function"
    },
    {
      "inputs": [
        {
          "internalType": "address",
          "name": "_proposedOwner",
          "type": "address"
        }
      ],
      "name": "proposeOwner",
      "outputs": [],
      "stateMutability": "nonpayable",
      "type": "function"
    },
    {
      "inputs": [],
      "name": "proposedOwner",
      "outputs": [
        {
          "internalType": "address",
          "name": "",
          "type": "address"
        }
      ],
      "stateMutability": "view",
      "type": "function"
    },
    {
      "inputs": [],
      "name": "quoter",
      "outputs": [
        {
          "internalType": "contract IQuoter",
          "name": "",
          "type": "address"
        }
      ],
      "stateMutability": "view",
      "type": "function"
    },
    {
      "inputs": [
        {
          "internalType": "address",
          "name": "tokenIn",
          "type": "address"
        },
        {
          "internalType": "uint256",
          "name": "amountIn",
          "type": "uint256"
        }
      ],
      "name": "redemption",
      "outputs": [],
      "stateMutability": "nonpayable",
      "type": "function"
    },
    {
      "inputs": [],
      "name": "renounceOwnership",
      "outputs": [],
      "stateMutability": "nonpayable",
      "type": "function"
    },
    {
      "inputs": [
        {
          "internalType": "uint256",
          "name": "_feeRatePerDayScaled",
          "type": "uint256"
        }
      ],
      "name": "setFeeRate",
      "outputs": [],
      "stateMutability": "nonpayable",
      "type": "function"
    },
    {
      "inputs": [
        {
          "internalType": "address",
          "name": "_feeReceiver",
          "type": "address"
        }
      ],
      "name": "setFeeReceiver",
      "outputs": [],
      "stateMutability": "nonpayable",
      "type": "function"
    },
    {
      "inputs": [
        {
          "internalType": "address",
          "name": "_methodologist",
          "type": "address"
        }
      ],
      "name": "setMethodologist",
      "outputs": [],
      "stateMutability": "nonpayable",
      "type": "function"
    },
    {
      "inputs": [
        {
          "internalType": "string",
          "name": "_methodology",
          "type": "string"
        }
      ],
      "name": "setMethodology",
      "outputs": [],
      "stateMutability": "nonpayable",
      "type": "function"
    },
    {
      "inputs": [
        {
          "internalType": "address",
          "name": "_minter",
          "type": "address"
        }
      ],
      "name": "setMinter",
      "outputs": [],
      "stateMutability": "nonpayable",
      "type": "function"
    },
    {
      "inputs": [
        {
          "internalType": "uint256",
          "name": "_supplyCeiling",
          "type": "uint256"
        }
      ],
      "name": "setSupplyCeiling",
      "outputs": [],
      "stateMutability": "nonpayable",
      "type": "function"
    },
    {
      "inputs": [],
      "name": "supplyCeiling",
      "outputs": [
        {
          "internalType": "uint256",
          "name": "",
          "type": "uint256"
        }
      ],
      "stateMutability": "view",
      "type": "function"
    },
    {
      "inputs": [],
      "name": "swapRouter",
      "outputs": [
        {
          "internalType": "contract ISwapRouter",
          "name": "",
          "type": "address"
        }
      ],
      "stateMutability": "view",
      "type": "function"
    },
    {
      "inputs": [],
      "name": "symbol",
      "outputs": [
        {
          "internalType": "string",
          "name": "",
          "type": "string"
        }
      ],
      "stateMutability": "view",
      "type": "function"
    },
    {
      "inputs": [
        {
          "internalType": "address",
          "name": "who",
          "type": "address"
        }
      ],
      "name": "toggleRestriction",
      "outputs": [],
      "stateMutability": "nonpayable",
      "type": "function"
    },
    {
      "inputs": [],
      "name": "totalSupply",
      "outputs": [
        {
          "internalType": "uint256",
          "name": "",
          "type": "uint256"
        }
      ],
      "stateMutability": "view",
      "type": "function"
    },
    {
      "inputs": [
        {
          "internalType": "address",
          "name": "to",
          "type": "address"
        },
        {
          "internalType": "uint256",
          "name": "amount",
          "type": "uint256"
        }
      ],
      "name": "transfer",
      "outputs": [
        {
          "internalType": "bool",
          "name": "",
          "type": "bool"
        }
      ],
      "stateMutability": "nonpayable",
      "type": "function"
    },
    {
      "inputs": [
        {
          "internalType": "address",
          "name": "from",
          "type": "address"
        },
        {
          "internalType": "address",
          "name": "to",
          "type": "address"
        },
        {
          "internalType": "uint256",
          "name": "amount",
          "type": "uint256"
        }
      ],
      "name": "transferFrom",
      "outputs": [
        {
          "internalType": "bool",
          "name": "",
          "type": "bool"
        }
      ],
      "stateMutability": "nonpayable",
      "type": "function"
    },
    {
      "inputs": [
        {
          "internalType": "address",
          "name": "newOwner",
          "type": "address"
        }
      ],
      "name": "transferOwnership",
      "outputs": [],
      "stateMutability": "nonpayable",
      "type": "function"
    },
    {
      "inputs": [],
      "name": "unpause",
      "outputs": [],
      "stateMutability": "nonpayable",
      "type": "function"
    },
    {
      "inputs": [],
      "name": "weth",
      "outputs": [
        {
          "internalType": "contract IWETH",
          "name": "",
          "type": "address"
        }
      ],
      "stateMutability": "view",
      "type": "function"
    },
    {
      "stateMutability": "payable",
      "type": "receive"
    }
  ],
  "bytecode": {
    "object": "0x608060405261010480546001600160a01b03199081167395ad61b0a150d79219dcf64e1e6cc01f0b64c4ce179091556101058054821673c02aaa39b223fe8d0a0e5c4f27ead9083c756cc2179055610106805490911673b27308f9f90d607463bb33ea1bebb41c27ce5ab617905534801561007957600080fd5b50612b03806100896000396000f3fe6080604052600436106103545760003560e01c80638be78847116101c6578063c01bc982116100f7578063e24b85e711610095578063f2fde38b1161006f578063f2fde38b14610a1d578063f734e22a14610a3d578063fca3b5aa14610a52578063fede027614610a7257600080fd5b8063e24b85e7146109b4578063e4fbaecb146109d5578063efdcd974146109fd57600080fd5b8063c6bbd5a7116100d1578063c6bbd5a71461092b578063d153b60c1461094c578063d1a72ed61461096c578063dd62ed3e1461099457600080fd5b8063c01bc982146108aa578063c31c9c07146108db578063c36596a61461090357600080fd5b80639f8e67bf11610164578063aaa4a1841161013e578063aaa4a18414610822578063ad39e5fd14610842578063b3f006741461086a578063b5ed298a1461088a57600080fd5b80639f8e67bf146107c2578063a457c2d7146107e2578063a9059cbb1461080257600080fd5b806391fe1b92116101a057806391fe1b921461075857806395d89b41146107785780639dc29fac1461078d5780639eeb1d50146107ad57600080fd5b80638be78847146106f25780638da5cb5b146107125780638dae88c21461073057600080fd5b806339509351116102a05780635c975abb1161023e5780636e01a686116102185780636e01a6861461067257806370a0823114610692578063715018a6146106c85780638456cb59146106dd57600080fd5b80635c975abb1461061a578063616bcd2114610632578063660db4841461065257600080fd5b806340c10f191161027a57806340c10f191461058a57806345596e2e146105aa5780634aa4a4fc146105ca5780635725a977146105f257600080fd5b806339509351146105325780633f4ba83a146105525780633fc8cef31461056957600080fd5b806323b872dd1161030d5780632f9f8c13116102e75780632f9f8c13146104b05780632fab7aea146104d85780632fecd58914610500578063313ce5671461051657600080fd5b806323b872dd146104515780632b52684d146104715780632e7b09481461048857600080fd5b806306fdde0314610360578063075461721461038b578063095ea7b3146103c45780630fb405b7146103f457806318160ddd1461041c578063184a732f1461043b57600080fd5b3661035b57005b600080fd5b34801561036c57600080fd5b50610375610a92565b6040516103829190612861565b60405180910390f35b34801561039757600080fd5b50610100546103ac906001600160a01b031681565b6040516001600160a01b039091168152602001610382565b3480156103d057600080fd5b506103e46103df366004612720565b610b24565b6040519015158152602001610382565b34801561040057600080fd5b506103ac7372e4f9f808c49a2a61de9c5896298920dc4eeea981565b34801561042857600080fd5b506035545b604051908152602001610382565b34801561044757600080fd5b5061042d60fd5481565b34801561045d57600080fd5b506103e461046c3660046126e4565b610b3c565b34801561047d57600080fd5b5061042d6101025481565b34801561049457600080fd5b506103ac73b131f4a55907b10d1f0a50d8ab8fa09ec342cd7481565b3480156104bc57600080fd5b506103ac73cf0c122c6b73ff809c693db761e7baebe62b6a2e81565b3480156104e457600080fd5b506103ac73761d38e5ddf6ccf6cf7c55759d5210750b5d60f381565b34801561050c57600080fd5b5061042d60fc5481565b34801561052257600080fd5b5060405160128152602001610382565b34801561053e57600080fd5b506103e461054d366004612720565b610c2f565b34801561055e57600080fd5b50610567610c51565b005b34801561057557600080fd5b50610105546103ac906001600160a01b031681565b34801561059657600080fd5b506105676105a5366004612720565b610c63565b3480156105b657600080fd5b506105676105c536600461282f565b610d7d565b3480156105d657600080fd5b506103ac73c02aaa39b223fe8d0a0e5c4f27ead9083c756cc281565b3480156105fe57600080fd5b506103ac73b62e45c3df611dce236a6ddc7a493d79f9dfadef81565b34801561062657600080fd5b5060ca5460ff166103e4565b34801561063e57600080fd5b5061056761064d366004612720565b610dc0565b34801561065e57600080fd5b5061056761066d36600461268f565b610e83565b34801561067e57600080fd5b5061056761068d36600461282f565b610ee8565b34801561069e57600080fd5b5061042d6106ad36600461268f565b6001600160a01b031660009081526033602052604090205490565b3480156106d457600080fd5b50610567610f2d565b3480156106e957600080fd5b50610567610f3f565b3480156106fe57600080fd5b5061056761070d366004612720565b610f4f565b34801561071e57600080fd5b506065546001600160a01b03166103ac565b34801561073c57600080fd5b506103ac73b27308f9f90d607463bb33ea1bebb41c27ce5ab681565b34801561076457600080fd5b5061056761077336600461276c565b6112f8565b34801561078457600080fd5b506103756113aa565b34801561079957600080fd5b506105676107a8366004612720565b6113b9565b3480156107b957600080fd5b5061037561148e565b3480156107ce57600080fd5b5060ff546103ac906001600160a01b031681565b3480156107ee57600080fd5b506103e46107fd366004612720565b61151d565b34801561080e57600080fd5b506103e461081d366004612720565b6115a3565b34801561082e57600080fd5b5061056761083d36600461268f565b61162c565b34801561084e57600080fd5b506103ac7327c70cd1946795b66be9d954418546998b54663481565b34801561087657600080fd5b5060fe546103ac906001600160a01b031681565b34801561089657600080fd5b506105676108a536600461268f565b6116a0565b3480156108b657600080fd5b506103e46108c536600461268f565b6101036020526000908152604090205460ff1681565b3480156108e757600080fd5b506103ac73e592427a0aece92de3edee1f18e0157c0586156481565b34801561090f57600080fd5b506103ac739813037ee2218799597d83d4a5b6f3b6778218d981565b34801561093757600080fd5b50610106546103ac906001600160a01b031681565b34801561095857600080fd5b506097546103ac906001600160a01b031681565b34801561097857600080fd5b506103ac73ac57de9c1a09fec648e93eb98875b212db0d460b81565b3480156109a057600080fd5b5061042d6109af3660046126b1565b6116f0565b3480156109c057600080fd5b50610104546103ac906001600160a01b031681565b3480156109e157600080fd5b506103ac736982508145454ce325ddbe47a25d4ec3d231193381565b348015610a0957600080fd5b50610567610a1836600461268f565b61171b565b348015610a2957600080fd5b50610567610a3836600461268f565b611780565b348015610a4957600080fd5b506105676118a8565b348015610a5e57600080fd5b50610567610a6d36600461268f565b6118b8565b348015610a7e57600080fd5b50610567610a8d3660046127a9565b61191e565b606060368054610aa190612a66565b80601f0160208091040260200160405190810160405280929190818152602001828054610acd90612a66565b8015610b1a5780601f10610aef57610100808354040283529160200191610b1a565b820191906000526020600020905b815481529060010190602001808311610afd57829003601f168201915b5050505050905090565b600033610b32818585611a8b565b5060019392505050565b6000610b46611baf565b336000908152610103602052604090205460ff1615610b805760405162461bcd60e51b8152600401610b77906128e0565b60405180910390fd5b6001600160a01b0383166000908152610103602052604090205460ff1615610bba5760405162461bcd60e51b8152600401610b77906128b6565b6001600160a01b0384166000908152610103602052604090205460ff1615610c195760405162461bcd60e51b8152602060048201526012602482015271199c9bdb481a5cc81c995cdd1c9a58dd195960721b6044820152606401610b77565b610c24843384611bf5565b610b32848484611c6f565b600033610b32818585610c4283836116f0565b610c4c91906129f6565b611a8b565b610c59611e1a565b610c61611e74565b565b610c6b611baf565b610100546001600160a01b03163314610c965760405162461bcd60e51b8152600401610b7790612917565b6101025481610ca460355490565b610cae91906129f6565b1115610cfc5760405162461bcd60e51b815260206004820152601a60248201527f77696c6c2065786365656420737570706c79206365696c696e670000000000006044820152606401610b77565b6001600160a01b0382166000908152610103602052604090205460ff1615610d365760405162461bcd60e51b8152600401610b77906128b6565b336000908152610103602052604090205460ff1615610d675760405162461bcd60e51b8152600401610b77906128e0565b610d6f611ec6565b610d798282611ff4565b5050565b610d85611e1a565b610d8d611ec6565b60fc81905560405181907f45398c451b1a31b88dbaed4e7b89a632f43cc4b50149d437db03a5300afe40d190600090a250565b610dca33826113b9565b60405163095ea7b360e01b815273e592427a0aece92de3edee1f18e0157c058615646004820152602481018290526001600160a01b0383169063095ea7b390604401602060405180830381600087803b158015610e2657600080fd5b505af1158015610e3a573d6000803e3d6000fd5b505050506040513d601f19601f82011682018060405250810190610e5e919061274a565b50610e7e73c02aaa39b223fe8d0a0e5c4f27ead9083c756cc283836120b5565b505050565b610e8b611e1a565b6001600160a01b038116610e9e57600080fd5b60ff80546001600160a01b0319166001600160a01b0383169081179091556040517f164d8ef0d742b45087644f55c61abeb84557df70d06730591e451f0981e278ca90600090a250565b610ef0611e1a565b6101028190556040518181527fe35be406f69e9d11d6ac8e5b54bbc8b6c4baf2fa2359f84a56baa5ea5d07dc8f906020015b60405180910390a150565b610f35611e1a565b610c6160006121d6565b610f47611e1a565b610c61612228565b6040516323b872dd60e01b8152336004820152306024820152604481018290526001600160a01b038316906323b872dd90606401602060405180830381600087803b158015610f9d57600080fd5b505af1158015610fb1573d6000803e3d6000fd5b505050506040513d601f19601f82011682018060405250810190610fd5919061274a565b5060405163095ea7b360e01b815273e592427a0aece92de3edee1f18e0157c058615646004820152602481018290526001600160a01b0383169063095ea7b390604401602060405180830381600087803b15801561103257600080fd5b505af1158015611046573d6000803e3d6000fd5b505050506040513d601f19601f8201168201806040525081019061106a919061274a565b50600061108c8373c02aaa39b223fe8d0a0e5c4f27ead9083c756cc2846120b5565b6101055460405163095ea7b360e01b815273e592427a0aece92de3edee1f18e0157c058615646004820152602481018390529192506001600160a01b03169063095ea7b390604401602060405180830381600087803b1580156110ee57600080fd5b505af1158015611102573d6000803e3d6000fd5b505050506040513d601f19601f82011682018060405250810190611126919061274a565b506101045461115e9073c02aaa39b223fe8d0a0e5c4f27ead9083c756cc2906001600160a01b0316611159600a85612a0e565b6120b5565b5061119773c02aaa39b223fe8d0a0e5c4f27ead9083c756cc2736982508145454ce325ddbe47a25d4ec3d2311933611159600a85612a0e565b506111d073c02aaa39b223fe8d0a0e5c4f27ead9083c756cc273b131f4a55907b10d1f0a50d8ab8fa09ec342cd74611159600a85612a0e565b5061120973c02aaa39b223fe8d0a0e5c4f27ead9083c756cc2739813037ee2218799597d83d4a5b6f3b6778218d9611159600a85612a0e565b5061124273c02aaa39b223fe8d0a0e5c4f27ead9083c756cc27372e4f9f808c49a2a61de9c5896298920dc4eeea9611159600a85612a0e565b5061127b73c02aaa39b223fe8d0a0e5c4f27ead9083c756cc273761d38e5ddf6ccf6cf7c55759d5210750b5d60f3611159600a85612a0e565b506112b473c02aaa39b223fe8d0a0e5c4f27ead9083c756cc273b62e45c3df611dce236a6ddc7a493d79f9dfadef611159600a85612a0e565b506112ed73c02aaa39b223fe8d0a0e5c4f27ead9083c756cc27327c70cd1946795b66be9d954418546998b546634611159600a85612a0e565b50610e7e3382612265565b60ff546001600160a01b031633146113665760405162461bcd60e51b815260206004820152602b60248201527f496e646578546f6b656e3a2063616c6c6572206973206e6f7420746865206d6560448201526a1d1a1bd91bdb1bd9da5cdd60aa1b6064820152608401610b77565b805161137a9061010190602084019061254d565b507fe6be68107100e39cb16d675c1086a4d5479fbd01108d721dabbccaa2249b995f81604051610f229190612861565b606060378054610aa190612a66565b6113c1611baf565b610100546001600160a01b031633146113ec5760405162461bcd60e51b8152600401610b7790612917565b6001600160a01b0382166000908152610103602052604090205460ff161561144b5760405162461bcd60e51b8152602060048201526012602482015271199c9bdb481a5cc81c995cdd1c9a58dd195960721b6044820152606401610b77565b336000908152610103602052604090205460ff161561147c5760405162461bcd60e51b8152600401610b77906128e0565b611484611ec6565b610d79828261226d565b610101805461149c90612a66565b80601f01602080910402602001604051908101604052809291908181526020018280546114c890612a66565b80156115155780601f106114ea57610100808354040283529160200191611515565b820191906000526020600020905b8154815290600101906020018083116114f857829003601f168201915b505050505081565b6000338161152b82866116f0565b90508381101561158b5760405162461bcd60e51b815260206004820152602560248201527f45524332303a2064656372656173656420616c6c6f77616e63652062656c6f77604482015264207a65726f60d81b6064820152608401610b77565b6115988286868403611a8b565b506001949350505050565b60006115ad611baf565b336000908152610103602052604090205460ff16156115de5760405162461bcd60e51b8152600401610b77906128e0565b6001600160a01b0383166000908152610103602052604090205460ff16156116185760405162461bcd60e51b8152600401610b77906128b6565b611623338484611c6f565b50600192915050565b611634611e1a565b6001600160a01b0381166000818152610103602052604090819020805460ff19811660ff9182161590811790925591517f14ddf324cc5d8b14a3c3b12c84b0a7d578d72c8d60655c06d6a457e71431d5ee9261169592161515815260200190565b60405180910390a250565b6116a8611e1a565b6001600160a01b0381166116ce5760405162461bcd60e51b8152600401610b779061295b565b609780546001600160a01b0319166001600160a01b0392909216919091179055565b6001600160a01b03918216600090815260346020908152604080832093909416825291909152205490565b611723611e1a565b6001600160a01b03811661173657600080fd5b60fe80546001600160a01b0319166001600160a01b0383169081179091556040517fbdf37c276f641820b141429d245add2552b4118c0866e5a78638e3de5ef18d9d90600090a250565b6001600160a01b0381166117a65760405162461bcd60e51b8152600401610b779061295b565b6097546001600160a01b0382811691161461181e5760405162461bcd60e51b815260206004820152603260248201527f50726f706f7361626c654f776e61626c653a206e6577206f776e6572206973206044820152713737ba10383937b837b9b2b21037bbb732b960711b6064820152608401610b77565b6001600160a01b038116331461189c5760405162461bcd60e51b815260206004820152603a60248201527f50726f706f7361626c654f776e61626c653a20746869732063616c6c206d757360448201527f74206265206d61646520627920746865206e6577206f776e65720000000000006064820152608401610b77565b6118a5816121d6565b50565b6118b0611e1a565b610c61611ec6565b6118c0611e1a565b6001600160a01b0381166118d357600080fd5b61010080546001600160a01b0319166001600160a01b0383169081179091556040517f726b590ef91a8c76ad05bbe91a57ef84605276528f49cd47d787f558a4e755b690600090a250565b600054610100900460ff161580801561193e5750600054600160ff909116105b806119585750303b158015611958575060005460ff166001145b6119bb5760405162461bcd60e51b815260206004820152602e60248201527f496e697469616c697a61626c653a20636f6e747261637420697320616c72656160448201526d191e481a5b9a5d1a585b1a5e995960921b6064820152608401610b77565b6000805460ff1916600117905580156119de576000805461ff0019166101001790555b6001600160a01b0383166119f157600080fd5b6119f96123a1565b611a016123d0565b611a0b86866123ff565b611a13612430565b60fc84905560fe80546001600160a01b0319166001600160a01b0385161790556101028290554260fd558015611a83576000805461ff0019169055604051600181527f7f26b83ff96e1f2b6a682f133852f6798a09c465da95921460cefb38474024989060200160405180910390a15b505050505050565b6001600160a01b038316611aed5760405162461bcd60e51b8152602060048201526024808201527f45524332303a20617070726f76652066726f6d20746865207a65726f206164646044820152637265737360e01b6064820152608401610b77565b6001600160a01b038216611b4e5760405162461bcd60e51b815260206004820152602260248201527f45524332303a20617070726f766520746f20746865207a65726f206164647265604482015261737360f01b6064820152608401610b77565b6001600160a01b0383811660008181526034602090815260408083209487168084529482529182902085905590518481527f8c5be1e5ebec7d5bd14f71427d1e84f3dd0314c0f7b2291e5b200ac8c7c3b925910160405180910390a3505050565b60ca5460ff1615610c615760405162461bcd60e51b815260206004820152601060248201526f14185d5cd8589b194e881c185d5cd95960821b6044820152606401610b77565b6000611c0184846116f0565b90506000198114611c695781811015611c5c5760405162461bcd60e51b815260206004820152601d60248201527f45524332303a20696e73756666696369656e7420616c6c6f77616e63650000006044820152606401610b77565b611c698484848403611a8b565b50505050565b6001600160a01b038316611cd35760405162461bcd60e51b815260206004820152602560248201527f45524332303a207472616e736665722066726f6d20746865207a65726f206164604482015264647265737360d81b6064820152608401610b77565b6001600160a01b038216611d355760405162461bcd60e51b815260206004820152602360248201527f45524332303a207472616e7366657220746f20746865207a65726f206164647260448201526265737360e81b6064820152608401610b77565b6001600160a01b03831660009081526033602052604090205481811015611dad5760405162461bcd60e51b815260206004820152602660248201527f45524332303a207472616e7366657220616d6f756e7420657863656564732062604482015265616c616e636560d01b6064820152608401610b77565b6001600160a01b0380851660008181526033602052604080822086860390559286168082529083902080548601905591517fddf252ad1be2c89b69c2b068fc378daa952ba7f163c4a11628f55a4df523b3ef90611e0d9086815260200190565b60405180910390a3611c69565b6065546001600160a01b03163314610c615760405162461bcd60e51b815260206004820181905260248201527f4f776e61626c653a2063616c6c6572206973206e6f7420746865206f776e65726044820152606401610b77565b611e7c612457565b60ca805460ff191690557f5db9ee0a495bf2e6ff9c91a7834c1ba4fdd244a5e8aa4e537bd38aeae4b073aa335b6040516001600160a01b03909116815260200160405180910390a1565b60006201518060fd5442611eda9190612a4f565b611ee49190612a0e565b9050600181106118a5576000611ef960355490565b60fc54909150819060005b84811015611f3e5768056bc75e2d63100000611f208385612a30565b611f2a9190612a0e565b611f3490846129f6565b9250600101611f04565b506000611f4b8484612a4f565b9050611f5a8562015180612a30565b60fd6000828254611f6b91906129f6565b909155505060fe54611f86906001600160a01b031682611ff4565b60fe547f07982395c678b2ffc23fcf59aaec243ca79418c285af0d0e10b4e65bc4189f4c906001600160a01b031642611fbe60355490565b604080516001600160a01b0390941684526020840192909252908201526060810183905260800160405180910390a15050505050565b6001600160a01b03821661204a5760405162461bcd60e51b815260206004820152601f60248201527f45524332303a206d696e7420746f20746865207a65726f2061646472657373006044820152606401610b77565b806035600082825461205c91906129f6565b90915550506001600160a01b0382166000818152603360209081526040808320805486019055518481527fddf252ad1be2c89b69c2b068fc378daa952ba7f163c4a11628f55a4df523b3ef910160405180910390a35050565b60408051610100810182526001600160a01b03858116825284811660208301908152610bb88385019081523060608501908152426080860190815260a08601888152600060c0880181815260e08901828152995163414bf38960e01b8152895189166004820152965188166024880152945162ffffff166044870152925186166064860152905160848501525160a4840152905160c4830152935190911660e4820152829073e592427a0aece92de3edee1f18e0157c058615649063414bf3899061010401602060405180830381600087803b15801561219457600080fd5b505af11580156121a8573d6000803e3d6000fd5b505050506040513d601f19601f820116820180604052508101906121cc9190612848565b9695505050505050565b606580546001600160a01b038381166001600160a01b0319831681179093556040519116919082907f8be0079c531659141344cd1fd0a4f28419497f9722a3daafe3b4186f6b6457e090600090a35050565b612230611baf565b60ca805460ff191660011790557f62e78cea01bee320cd4e420270b5ea74000d11b0c9f74754ebdbfc544b05a258611ea93390565b610c96611baf565b6001600160a01b0382166122cd5760405162461bcd60e51b815260206004820152602160248201527f45524332303a206275726e2066726f6d20746865207a65726f206164647265736044820152607360f81b6064820152608401610b77565b6001600160a01b038216600090815260336020526040902054818110156123415760405162461bcd60e51b815260206004820152602260248201527f45524332303a206275726e20616d6f756e7420657863656564732062616c616e604482015261636560f01b6064820152608401610b77565b6001600160a01b03831660008181526033602090815260408083208686039055603580548790039055518581529192917fddf252ad1be2c89b69c2b068fc378daa952ba7f163c4a11628f55a4df523b3ef910160405180910390a3505050565b600054610100900460ff166123c85760405162461bcd60e51b8152600401610b77906129ab565b610c616124a0565b600054610100900460ff166123f75760405162461bcd60e51b8152600401610b77906129ab565b610c616124d0565b600054610100900460ff166124265760405162461bcd60e51b8152600401610b77906129ab565b610d798282612503565b600054610100900460ff16610c615760405162461bcd60e51b8152600401610b77906129ab565b60ca5460ff16610c615760405162461bcd60e51b815260206004820152601460248201527314185d5cd8589b194e881b9bdd081c185d5cd95960621b6044820152606401610b77565b600054610100900460ff166124c75760405162461bcd60e51b8152600401610b77906129ab565b610c61336121d6565b600054610100900460ff166124f75760405162461bcd60e51b8152600401610b77906129ab565b60ca805460ff19169055565b600054610100900460ff1661252a5760405162461bcd60e51b8152600401610b77906129ab565b815161253d90603690602085019061254d565b508051610e7e9060379060208401905b82805461255990612a66565b90600052602060002090601f01602090048101928261257b57600085556125c1565b82601f1061259457805160ff19168380011785556125c1565b828001600101855582156125c1579182015b828111156125c15782518255916020019190600101906125a6565b506125cd9291506125d1565b5090565b5b808211156125cd57600081556001016125d2565b80356001600160a01b03811681146125fd57600080fd5b919050565b600082601f83011261261357600080fd5b813567ffffffffffffffff8082111561262e5761262e612ab7565b604051601f8301601f19908116603f0116810190828211818310171561265657612656612ab7565b8160405283815286602085880101111561266f57600080fd5b836020870160208301376000602085830101528094505050505092915050565b6000602082840312156126a157600080fd5b6126aa826125e6565b9392505050565b600080604083850312156126c457600080fd5b6126cd836125e6565b91506126db602084016125e6565b90509250929050565b6000806000606084860312156126f957600080fd5b612702846125e6565b9250612710602085016125e6565b9150604084013590509250925092565b6000806040838503121561273357600080fd5b61273c836125e6565b946020939093013593505050565b60006020828403121561275c57600080fd5b815180151581146126aa57600080fd5b60006020828403121561277e57600080fd5b813567ffffffffffffffff81111561279557600080fd5b6127a184828501612602565b949350505050565b600080600080600060a086880312156127c157600080fd5b853567ffffffffffffffff808211156127d957600080fd5b6127e589838a01612602565b965060208801359150808211156127fb57600080fd5b5061280888828901612602565b9450506040860135925061281e606087016125e6565b949793965091946080013592915050565b60006020828403121561284157600080fd5b5035919050565b60006020828403121561285a57600080fd5b5051919050565b600060208083528351808285015260005b8181101561288e57858101830151858201604001528201612872565b818111156128a0576000604083870101525b50601f01601f1916929092016040019392505050565b60208082526010908201526f1d1bc81a5cc81c995cdd1c9a58dd195960821b604082015260600190565b60208082526018908201527f6d73672e73656e64657220697320726573747269637465640000000000000000604082015260600190565b60208082526024908201527f496e646578546f6b656e3a2063616c6c6572206973206e6f7420746865206d69604082015263373a32b960e11b606082015260800190565b60208082526030908201527f50726f706f7361626c654f776e61626c653a206e6577206f776e65722069732060408201526f746865207a65726f206164647265737360801b606082015260800190565b6020808252602b908201527f496e697469616c697a61626c653a20636f6e7472616374206973206e6f74206960408201526a6e697469616c697a696e6760a81b606082015260800190565b60008219821115612a0957612a09612aa1565b500190565b600082612a2b57634e487b7160e01b600052601260045260246000fd5b500490565b6000816000190483118215151615612a4a57612a4a612aa1565b500290565b600082821015612a6157612a61612aa1565b500390565b600181811c90821680612a7a57607f821691505b60208210811415612a9b57634e487b7160e01b600052602260045260246000fd5b50919050565b634e487b7160e01b600052601160045260246000fd5b634e487b7160e01b600052604160045260246000fdfea26469706673582212201a4da83f6dc80d57616191b6627a9a3276548b4374e5073b59f509d3288c976c64736f6c63430008070033",
    "linkReferences": {}
  },
  "methodIdentifiers": {
    "BONE()": "c36596a6",
    "BabyDoge()": "d1a72ed6",
    "ELON()": "2fab7aea",
    "FLOKI()": "2f9f8c13",
    "HarryPotterObamaSonic10Inu()": "0fb405b7",
    "LEASH()": "ad39e5fd",
    "MEME()": "2e7b0948",
    "PEPE()": "e4fbaecb",
    "QUOTER()": "8dae88c2",
    "SHIB()": "e24b85e7",
    "WETH9()": "4aa4a4fc",
    "WSM()": "5725a977",
    "allowance(address,address)": "dd62ed3e",
    "approve(address,uint256)": "095ea7b3",
    "balanceOf(address)": "70a08231",
    "burn(address,uint256)": "9dc29fac",
    "decimals()": "313ce567",
    "decreaseAllowance(address,uint256)": "a457c2d7",
    "feeRatePerDayScaled()": "2fecd589",
    "feeReceiver()": "b3f00674",
    "feeTimestamp()": "184a732f",
    "increaseAllowance(address,uint256)": "39509351",
    "initialize(string,string,uint256,address,uint256)": "fede0276",
    "isRestricted(address)": "c01bc982",
    "issuanceIndexTokens(address,uint256)": "8be78847",
    "methodologist()": "9f8e67bf",
    "methodology()": "9eeb1d50",
    "mint(address,uint256)": "40c10f19",
    "mintToFeeReceiver()": "f734e22a",
    "minter()": "07546172",
    "name()": "06fdde03",
    "owner()": "8da5cb5b",
    "pause()": "8456cb59",
    "paused()": "5c975abb",
    "proposeOwner(address)": "b5ed298a",
    "proposedOwner()": "d153b60c",
    "quoter()": "c6bbd5a7",
    "redemption(address,uint256)": "616bcd21",
    "renounceOwnership()": "715018a6",
    "setFeeRate(uint256)": "45596e2e",
    "setFeeReceiver(address)": "efdcd974",
    "setMethodologist(address)": "660db484",
    "setMethodology(string)": "91fe1b92",
    "setMinter(address)": "fca3b5aa",
    "setSupplyCeiling(uint256)": "6e01a686",
    "supplyCeiling()": "2b52684d",
    "swapRouter()": "c31c9c07",
    "symbol()": "95d89b41",
    "toggleRestriction(address)": "aaa4a184",
    "totalSupply()": "18160ddd",
    "transfer(address,uint256)": "a9059cbb",
    "transferFrom(address,address,uint256)": "23b872dd",
    "transferOwnership(address)": "f2fde38b",
    "unpause()": "3f4ba83a",
    "weth()": "3fc8cef3"
  },
  "id": 4
}