{
  "abi": [
    {
      "inputs": [],
      "name": "T",
      "type": "error"
    },
    {
      "anonymous": false,
      "inputs": [
        {
          "indexed": true,
          "internalType": "address",
          "name": "owner",
          "type": "address"
        },
        {
          "indexed": true,
          "internalType": "address",
          "name": "spender",
          "type": "address"
        },
        {
          "indexed": false,
          "internalType": "uint256",
          "name": "value",
          "type": "uint256"
        }
      ],
      "name": "Approval",
      "type": "event"
    },
    {
      "anonymous": false,
      "inputs": [
        {
          "indexed": true,
          "internalType": "bytes32",
          "name": "id",
          "type": "bytes32"
        }
      ],
      "name": "ChainlinkCancelled",
      "type": "event"
    },
    {
      "anonymous": false,
      "inputs": [
        {
          "indexed": true,
          "internalType": "bytes32",
          "name": "id",
          "type": "bytes32"
        }
      ],
      "name": "ChainlinkFulfilled",
      "type": "event"
    },
    {
      "anonymous": false,
      "inputs": [
        {
          "indexed": true,
          "internalType": "bytes32",
          "name": "id",
          "type": "bytes32"
        }
      ],
      "name": "ChainlinkRequested",
      "type": "event"
    },
    {
      "anonymous": false,
      "inputs": [
        {
          "indexed": true,
          "internalType": "uint256",
          "name": "feeRatePerDayScaled",
          "type": "uint256"
        }
      ],
      "name": "FeeRateSet",
      "type": "event"
    },
    {
      "anonymous": false,
      "inputs": [
        {
          "indexed": true,
          "internalType": "address",
          "name": "feeReceiver",
          "type": "address"
        }
      ],
      "name": "FeeReceiverSet",
      "type": "event"
    },
    {
      "anonymous": false,
      "inputs": [
        {
          "indexed": false,
          "internalType": "uint8",
          "name": "version",
          "type": "uint8"
        }
      ],
      "name": "Initialized",
      "type": "event"
    },
    {
      "anonymous": false,
      "inputs": [
        {
          "indexed": true,
          "internalType": "address",
          "name": "methodologist",
          "type": "address"
        }
      ],
      "name": "MethodologistSet",
      "type": "event"
    },
    {
      "anonymous": false,
      "inputs": [
        {
          "indexed": false,
          "internalType": "string",
          "name": "methodology",
          "type": "string"
        }
      ],
      "name": "MethodologySet",
      "type": "event"
    },
    {
      "anonymous": false,
      "inputs": [
        {
          "indexed": false,
          "internalType": "address",
          "name": "feeReceiver",
          "type": "address"
        },
        {
          "indexed": false,
          "internalType": "uint256",
          "name": "timestamp",
          "type": "uint256"
        },
        {
          "indexed": false,
          "internalType": "uint256",
          "name": "totalSupply",
          "type": "uint256"
        },
        {
          "indexed": false,
          "internalType": "uint256",
          "name": "amount",
          "type": "uint256"
        }
      ],
      "name": "MintFeeToReceiver",
      "type": "event"
    },
    {
      "anonymous": false,
      "inputs": [
        {
          "indexed": true,
          "internalType": "address",
          "name": "minter",
          "type": "address"
        }
      ],
      "name": "MinterSet",
      "type": "event"
    },
    {
      "anonymous": false,
      "inputs": [
        {
          "indexed": true,
          "internalType": "address",
          "name": "previousOwner",
          "type": "address"
        },
        {
          "indexed": true,
          "internalType": "address",
          "name": "newOwner",
          "type": "address"
        }
      ],
      "name": "OwnershipTransferred",
      "type": "event"
    },
    {
      "anonymous": false,
      "inputs": [
        {
          "indexed": false,
          "internalType": "address",
          "name": "account",
          "type": "address"
        }
      ],
      "name": "Paused",
      "type": "event"
    },
    {
      "anonymous": false,
      "inputs": [
        {
          "indexed": false,
          "internalType": "uint256",
          "name": "supplyCeiling",
          "type": "uint256"
        }
      ],
      "name": "SupplyCeilingSet",
      "type": "event"
    },
    {
      "anonymous": false,
      "inputs": [
        {
          "indexed": true,
          "internalType": "address",
          "name": "account",
          "type": "address"
        },
        {
          "indexed": false,
          "internalType": "bool",
          "name": "isRestricted",
          "type": "bool"
        }
      ],
      "name": "ToggledRestricted",
      "type": "event"
    },
    {
      "anonymous": false,
      "inputs": [
        {
          "indexed": true,
          "internalType": "address",
          "name": "from",
          "type": "address"
        },
        {
          "indexed": true,
          "internalType": "address",
          "name": "to",
          "type": "address"
        },
        {
          "indexed": false,
          "internalType": "uint256",
          "name": "value",
          "type": "uint256"
        }
      ],
      "name": "Transfer",
      "type": "event"
    },
    {
      "anonymous": false,
      "inputs": [
        {
          "indexed": false,
          "internalType": "address",
          "name": "account",
          "type": "address"
        }
      ],
      "name": "Unpaused",
      "type": "event"
    },
    {
      "inputs": [],
      "name": "BONE",
      "outputs": [
        {
          "internalType": "address",
          "name": "",
          "type": "address"
        }
      ],
      "stateMutability": "view",
      "type": "function"
    },
    {
      "inputs": [],
      "name": "BabyDoge",
      "outputs": [
        {
          "internalType": "address",
          "name": "",
          "type": "address"
        }
      ],
      "stateMutability": "view",
      "type": "function"
    },
    {
      "inputs": [],
      "name": "ELON",
      "outputs": [
        {
          "internalType": "address",
          "name": "",
          "type": "address"
        }
      ],
      "stateMutability": "view",
      "type": "function"
    },
    {
      "inputs": [],
      "name": "FLOKI",
      "outputs": [
        {
          "internalType": "address",
          "name": "",
          "type": "address"
        }
      ],
      "stateMutability": "view",
      "type": "function"
    },
    {
      "inputs": [],
      "name": "HarryPotterObamaSonic10Inu",
      "outputs": [
        {
          "internalType": "address",
          "name": "",
          "type": "address"
        }
      ],
      "stateMutability": "view",
      "type": "function"
    },
    {
      "inputs": [],
      "name": "LEASH",
      "outputs": [
        {
          "internalType": "address",
          "name": "",
          "type": "address"
        }
      ],
      "stateMutability": "view",
      "type": "function"
    },
    {
      "inputs": [],
      "name": "MEME",
      "outputs": [
        {
          "internalType": "address",
          "name": "",
          "type": "address"
        }
      ],
      "stateMutability": "view",
      "type": "function"
    },
    {
      "inputs": [],
      "name": "PEPE",
      "outputs": [
        {
          "internalType": "address",
          "name": "",
          "type": "address"
        }
      ],
      "stateMutability": "view",
      "type": "function"
    },
    {
      "inputs": [],
      "name": "QUOTER",
      "outputs": [
        {
          "internalType": "address",
          "name": "",
          "type": "address"
        }
      ],
      "stateMutability": "view",
      "type": "function"
    },
    {
      "inputs": [],
      "name": "SHIB",
      "outputs": [
        {
          "internalType": "address",
          "name": "",
          "type": "address"
        }
      ],
      "stateMutability": "view",
      "type": "function"
    },
    {
      "inputs": [],
      "name": "WETH9",
      "outputs": [
        {
          "internalType": "address",
          "name": "",
          "type": "address"
        }
      ],
      "stateMutability": "view",
      "type": "function"
    },
    {
      "inputs": [],
      "name": "WSM",
      "outputs": [
        {
          "internalType": "address",
          "name": "",
          "type": "address"
        }
      ],
      "stateMutability": "view",
      "type": "function"
    },
    {
      "inputs": [
        {
          "internalType": "address",
          "name": "owner",
          "type": "address"
        },
        {
          "internalType": "address",
          "name": "spender",
          "type": "address"
        }
      ],
      "name": "allowance",
      "outputs": [
        {
          "internalType": "uint256",
          "name": "",
          "type": "uint256"
        }
      ],
      "stateMutability": "view",
      "type": "function"
    },
    {
      "inputs": [
        {
          "internalType": "address",
          "name": "spender",
          "type": "address"
        },
        {
          "internalType": "uint256",
          "name": "amount",
          "type": "uint256"
        }
      ],
      "name": "approve",
      "outputs": [
        {
          "internalType": "bool",
          "name": "",
          "type": "bool"
        }
      ],
      "stateMutability": "nonpayable",
      "type": "function"
    },
    {
      "inputs": [
        {
          "internalType": "uint256",
          "name": "",
          "type": "uint256"
        }
      ],
      "name": "assetList",
      "outputs": [
        {
          "internalType": "address",
          "name": "",
          "type": "address"
        }
      ],
      "stateMutability": "view",
      "type": "function"
    },
    {
      "inputs": [
        {
          "internalType": "address",
          "name": "account",
          "type": "address"
        }
      ],
      "name": "balanceOf",
      "outputs": [
        {
          "internalType": "uint256",
          "name": "",
          "type": "uint256"
        }
      ],
      "stateMutability": "view",
      "type": "function"
    },
    {
      "inputs": [
        {
          "internalType": "address",
          "name": "from",
          "type": "address"
        },
        {
          "internalType": "uint256",
          "name": "amount",
          "type": "uint256"
        }
      ],
      "name": "burn",
      "outputs": [],
      "stateMutability": "nonpayable",
      "type": "function"
    },
    {
      "inputs": [],
      "name": "decimals",
      "outputs": [
        {
          "internalType": "uint8",
          "name": "",
          "type": "uint8"
        }
      ],
      "stateMutability": "view",
      "type": "function"
    },
    {
      "inputs": [
        {
          "internalType": "address",
          "name": "spender",
          "type": "address"
        },
        {
          "internalType": "uint256",
          "name": "subtractedValue",
          "type": "uint256"
        }
      ],
      "name": "decreaseAllowance",
      "outputs": [
        {
          "internalType": "bool",
          "name": "",
          "type": "bool"
        }
      ],
      "stateMutability": "nonpayable",
      "type": "function"
    },
    {
      "inputs": [
        {
          "internalType": "address",
          "name": "tokenIn",
          "type": "address"
        },
        {
          "internalType": "address",
          "name": "tokenOut",
          "type": "address"
        },
        {
          "internalType": "uint128",
          "name": "amountIn",
          "type": "uint128"
        },
        {
          "internalType": "uint32",
          "name": "secondsAgo",
          "type": "uint32"
        }
      ],
      "name": "estimateAmountOut",
      "outputs": [
        {
          "internalType": "uint256",
          "name": "amountOut",
          "type": "uint256"
        }
      ],
      "stateMutability": "view",
      "type": "function"
    },
    {
      "inputs": [],
      "name": "factoryV2",
      "outputs": [
        {
          "internalType": "contract IUniswapV2Factory",
          "name": "",
          "type": "address"
        }
      ],
      "stateMutability": "view",
      "type": "function"
    },
    {
      "inputs": [],
      "name": "factoryV3",
      "outputs": [
        {
          "internalType": "contract IUniswapV3Factory",
          "name": "",
          "type": "address"
        }
      ],
      "stateMutability": "view",
      "type": "function"
    },
    {
      "inputs": [],
      "name": "fee",
      "outputs": [
        {
          "internalType": "uint256",
          "name": "",
          "type": "uint256"
        }
      ],
      "stateMutability": "view",
      "type": "function"
    },
    {
      "inputs": [],
      "name": "feeRatePerDayScaled",
      "outputs": [
        {
          "internalType": "uint256",
          "name": "",
          "type": "uint256"
        }
      ],
      "stateMutability": "view",
      "type": "function"
    },
    {
      "inputs": [],
      "name": "feeReceiver",
      "outputs": [
        {
          "internalType": "address",
          "name": "",
          "type": "address"
        }
      ],
      "stateMutability": "view",
      "type": "function"
    },
    {
      "inputs": [],
      "name": "feeTimestamp",
      "outputs": [
        {
          "internalType": "uint256",
          "name": "",
          "type": "uint256"
        }
      ],
      "stateMutability": "view",
      "type": "function"
    },
    {
      "inputs": [
        {
          "internalType": "bytes32",
          "name": "_requestId",
          "type": "bytes32"
        },
        {
          "internalType": "uint256",
          "name": "_volume",
          "type": "uint256"
        }
      ],
      "name": "fulfill",
      "outputs": [],
      "stateMutability": "nonpayable",
      "type": "function"
    },
    {
      "inputs": [
        {
          "internalType": "address",
          "name": "tokenIn",
          "type": "address"
        },
        {
          "internalType": "address",
          "name": "tokenOut",
          "type": "address"
        },
        {
          "internalType": "uint256",
          "name": "amountIn",
          "type": "uint256"
        }
      ],
      "name": "getAmountOut",
      "outputs": [
        {
          "internalType": "uint256",
          "name": "finalAmountOut",
          "type": "uint256"
        },
        {
          "internalType": "enum IndexToken.DexStatus",
          "name": "dexStatus",
          "type": "uint8"
        }
      ],
      "stateMutability": "nonpayable",
      "type": "function"
    },
    {
      "inputs": [],
      "name": "getAmounts",
      "outputs": [
        {
          "internalType": "uint256",
          "name": "",
          "type": "uint256"
        },
        {
          "internalType": "uint256",
          "name": "",
          "type": "uint256"
        }
      ],
      "stateMutability": "nonpayable",
      "type": "function"
    },
    {
      "inputs": [],
      "name": "getPool",
      "outputs": [
        {
          "internalType": "address",
          "name": "",
          "type": "address"
        },
        {
          "internalType": "address",
          "name": "",
          "type": "address"
        }
      ],
      "stateMutability": "nonpayable",
      "type": "function"
    },
    {
      "inputs": [],
      "name": "getPortfolioBalance",
      "outputs": [
        {
          "internalType": "uint256",
          "name": "",
          "type": "uint256"
        }
      ],
      "stateMutability": "nonpayable",
      "type": "function"
    },
    {
      "inputs": [
        {
          "internalType": "address",
          "name": "spender",
          "type": "address"
        },
        {
          "internalType": "uint256",
          "name": "addedValue",
          "type": "uint256"
        }
      ],
      "name": "increaseAllowance",
      "outputs": [
        {
          "internalType": "bool",
          "name": "",
          "type": "bool"
        }
      ],
      "stateMutability": "nonpayable",
      "type": "function"
    },
    {
      "inputs": [
        {
          "internalType": "string",
          "name": "tokenName",
          "type": "string"
        },
        {
          "internalType": "string",
          "name": "tokenSymbol",
          "type": "string"
        },
        {
          "internalType": "uint256",
          "name": "_feeRatePerDayScaled",
          "type": "uint256"
        },
        {
          "internalType": "address",
          "name": "_feeReceiver",
          "type": "address"
        },
        {
          "internalType": "uint256",
          "name": "_supplyCeiling",
          "type": "uint256"
        },
        {
          "internalType": "address",
          "name": "_oracle",
          "type": "address"
        },
        {
          "internalType": "bytes32",
          "name": "_jobId",
          "type": "bytes32"
        },
        {
          "internalType": "uint256",
          "name": "_fee",
          "type": "uint256"
        },
        {
          "internalType": "address",
          "name": "_link",
          "type": "address"
        }
      ],
      "name": "initialize",
      "outputs": [],
      "stateMutability": "nonpayable",
      "type": "function"
    },
    {
      "inputs": [
        {
          "internalType": "address",
          "name": "",
          "type": "address"
        }
      ],
      "name": "isRestricted",
      "outputs": [
        {
          "internalType": "bool",
          "name": "",
          "type": "bool"
        }
      ],
      "stateMutability": "view",
      "type": "function"
    },
    {
      "inputs": [
        {
          "internalType": "address",
          "name": "tokenIn",
          "type": "address"
        },
        {
          "internalType": "uint256",
          "name": "amountIn",
          "type": "uint256"
        }
      ],
      "name": "issuanceIndexTokens",
      "outputs": [],
      "stateMutability": "nonpayable",
      "type": "function"
    },
    {
      "inputs": [],
      "name": "issuanceIndexTokensWithEth",
      "outputs": [],
      "stateMutability": "payable",
      "type": "function"
    },
    {
      "inputs": [],
      "name": "jobId",
      "outputs": [
        {
          "internalType": "bytes32",
          "name": "",
          "type": "bytes32"
        }
      ],
      "stateMutability": "view",
      "type": "function"
    },
    {
      "inputs": [],
      "name": "methodologist",
      "outputs": [
        {
          "internalType": "address",
          "name": "",
          "type": "address"
        }
      ],
      "stateMutability": "view",
      "type": "function"
    },
    {
      "inputs": [],
      "name": "methodology",
      "outputs": [
        {
          "internalType": "string",
          "name": "",
          "type": "string"
        }
      ],
      "stateMutability": "view",
      "type": "function"
    },
    {
      "inputs": [
        {
          "internalType": "address",
          "name": "to",
          "type": "address"
        },
        {
          "internalType": "uint256",
          "name": "amount",
          "type": "uint256"
        }
      ],
      "name": "mint",
      "outputs": [],
      "stateMutability": "nonpayable",
      "type": "function"
    },
    {
      "inputs": [],
      "name": "mintToFeeReceiver",
      "outputs": [],
      "stateMutability": "nonpayable",
      "type": "function"
    },
    {
      "inputs": [],
      "name": "minter",
      "outputs": [
        {
          "internalType": "address",
          "name": "",
          "type": "address"
        }
      ],
      "stateMutability": "view",
      "type": "function"
    },
    {
      "inputs": [],
      "name": "name",
      "outputs": [
        {
          "internalType": "string",
          "name": "",
          "type": "string"
        }
      ],
      "stateMutability": "view",
      "type": "function"
    },
    {
      "inputs": [],
      "name": "oracle",
      "outputs": [
        {
          "internalType": "address",
          "name": "",
          "type": "address"
        }
      ],
      "stateMutability": "view",
      "type": "function"
    },
    {
      "inputs": [],
      "name": "owner",
      "outputs": [
        {
          "internalType": "address",
          "name": "",
          "type": "address"
        }
      ],
      "stateMutability": "view",
      "type": "function"
    },
    {
      "inputs": [],
      "name": "pause",
      "outputs": [],
      "stateMutability": "nonpayable",
      "type": "function"
    },
    {
      "inputs": [],
      "name": "paused",
      "outputs": [
        {
          "internalType": "bool",
          "name": "",
          "type": "bool"
        }
      ],
      "stateMutability": "view",
      "type": "function"
    },
    {
      "inputs": [
        {
          "internalType": "address",
          "name": "_proposedOwner",
          "type": "address"
        }
      ],
      "name": "proposeOwner",
      "outputs": [],
      "stateMutability": "nonpayable",
      "type": "function"
    },
    {
      "inputs": [],
      "name": "proposedOwner",
      "outputs": [
        {
          "internalType": "address",
          "name": "",
          "type": "address"
        }
      ],
      "stateMutability": "view",
      "type": "function"
    },
    {
      "inputs": [],
      "name": "quoter",
      "outputs": [
        {
          "internalType": "contract IQuoter",
          "name": "",
          "type": "address"
        }
      ],
      "stateMutability": "view",
      "type": "function"
    },
    {
      "inputs": [
        {
          "internalType": "address",
          "name": "tokenIn",
          "type": "address"
        },
        {
          "internalType": "uint256",
          "name": "amountIn",
          "type": "uint256"
        }
      ],
      "name": "redemption",
      "outputs": [],
      "stateMutability": "nonpayable",
      "type": "function"
    },
    {
      "inputs": [],
      "name": "renounceOwnership",
      "outputs": [],
      "stateMutability": "nonpayable",
      "type": "function"
    },
    {
      "inputs": [],
      "name": "requestVolumeData",
      "outputs": [
        {
          "internalType": "bytes32",
          "name": "requestId",
          "type": "bytes32"
        }
      ],
      "stateMutability": "nonpayable",
      "type": "function"
    },
    {
      "inputs": [
        {
          "internalType": "uint256",
          "name": "_feeRatePerDayScaled",
          "type": "uint256"
        }
      ],
      "name": "setFeeRate",
      "outputs": [],
      "stateMutability": "nonpayable",
      "type": "function"
    },
    {
      "inputs": [
        {
          "internalType": "address",
          "name": "_feeReceiver",
          "type": "address"
        }
      ],
      "name": "setFeeReceiver",
      "outputs": [],
      "stateMutability": "nonpayable",
      "type": "function"
    },
    {
      "inputs": [
        {
          "internalType": "address",
          "name": "_methodologist",
          "type": "address"
        }
      ],
      "name": "setMethodologist",
      "outputs": [],
      "stateMutability": "nonpayable",
      "type": "function"
    },
    {
      "inputs": [
        {
          "internalType": "string",
          "name": "_methodology",
          "type": "string"
        }
      ],
      "name": "setMethodology",
      "outputs": [],
      "stateMutability": "nonpayable",
      "type": "function"
    },
    {
      "inputs": [
        {
          "internalType": "address",
          "name": "_minter",
          "type": "address"
        }
      ],
      "name": "setMinter",
      "outputs": [],
      "stateMutability": "nonpayable",
      "type": "function"
    },
    {
      "inputs": [
        {
          "internalType": "uint256",
          "name": "_supplyCeiling",
          "type": "uint256"
        }
      ],
      "name": "setSupplyCeiling",
      "outputs": [],
      "stateMutability": "nonpayable",
      "type": "function"
    },
    {
      "inputs": [],
      "name": "supplyCeiling",
      "outputs": [
        {
          "internalType": "uint256",
          "name": "",
          "type": "uint256"
        }
      ],
      "stateMutability": "view",
      "type": "function"
    },
    {
      "inputs": [],
      "name": "swapGas",
      "outputs": [],
      "stateMutability": "payable",
      "type": "function"
    },
    {
      "inputs": [],
      "name": "swapGas1",
      "outputs": [],
      "stateMutability": "payable",
      "type": "function"
    },
    {
      "inputs": [],
      "name": "swapRouterV2",
      "outputs": [
        {
          "internalType": "contract IUniswapV2Router02",
          "name": "",
          "type": "address"
        }
      ],
      "stateMutability": "view",
      "type": "function"
    },
    {
      "inputs": [],
      "name": "swapRouterV3",
      "outputs": [
        {
          "internalType": "contract ISwapRouter",
          "name": "",
          "type": "address"
        }
      ],
      "stateMutability": "view",
      "type": "function"
    },
    {
      "inputs": [],
      "name": "symbol",
      "outputs": [
        {
          "internalType": "string",
          "name": "",
          "type": "string"
        }
      ],
      "stateMutability": "view",
      "type": "function"
    },
    {
      "inputs": [
        {
          "internalType": "address",
          "name": "who",
          "type": "address"
        }
      ],
      "name": "toggleRestriction",
      "outputs": [],
      "stateMutability": "nonpayable",
      "type": "function"
    },
    {
      "inputs": [],
      "name": "totalSupply",
      "outputs": [
        {
          "internalType": "uint256",
          "name": "",
          "type": "uint256"
        }
      ],
      "stateMutability": "view",
      "type": "function"
    },
    {
      "inputs": [
        {
          "internalType": "address",
          "name": "to",
          "type": "address"
        },
        {
          "internalType": "uint256",
          "name": "amount",
          "type": "uint256"
        }
      ],
      "name": "transfer",
      "outputs": [
        {
          "internalType": "bool",
          "name": "",
          "type": "bool"
        }
      ],
      "stateMutability": "nonpayable",
      "type": "function"
    },
    {
      "inputs": [
        {
          "internalType": "address",
          "name": "from",
          "type": "address"
        },
        {
          "internalType": "address",
          "name": "to",
          "type": "address"
        },
        {
          "internalType": "uint256",
          "name": "amount",
          "type": "uint256"
        }
      ],
      "name": "transferFrom",
      "outputs": [
        {
          "internalType": "bool",
          "name": "",
          "type": "bool"
        }
      ],
      "stateMutability": "nonpayable",
      "type": "function"
    },
    {
      "inputs": [
        {
          "internalType": "address",
          "name": "newOwner",
          "type": "address"
        }
      ],
      "name": "transferOwnership",
      "outputs": [],
      "stateMutability": "nonpayable",
      "type": "function"
    },
    {
      "inputs": [],
      "name": "unpause",
      "outputs": [],
      "stateMutability": "nonpayable",
      "type": "function"
    },
    {
      "inputs": [],
      "name": "volume",
      "outputs": [
        {
          "internalType": "uint256",
          "name": "",
          "type": "uint256"
        }
      ],
      "stateMutability": "view",
      "type": "function"
    },
    {
      "inputs": [],
      "name": "weth",
      "outputs": [
        {
          "internalType": "contract IWETH",
          "name": "",
          "type": "address"
        }
      ],
      "stateMutability": "view",
      "type": "function"
    },
    {
      "stateMutability": "payable",
      "type": "receive"
    }
  ],
  "bytecode": {
    "object": "0x600160045561010e80546001600160a01b0319167395ad61b0a150d79219dcf64e1e6cc01f0b64c4ce9081179091556101c06040526080908152736982508145454ce325ddbe47a25d4ec3d231193360a05273cf0c122c6b73ff809c693db761e7baebe62b6a2e60c05273b131f4a55907b10d1f0a50d8ab8fa09ec342cd7460e05273ac57de9c1a09fec648e93eb98875b212db0d460b61010052739813037ee2218799597d83d4a5b6f3b6778218d9610120527372e4f9f808c49a2a61de9c5896298920dc4eeea96101405273761d38e5ddf6ccf6cf7c55759d5210750b5d60f36101605273b62e45c3df611dce236a6ddc7a493d79f9dfadef610180527327c70cd1946795b66be9d954418546998b5466346101a052620001289061010f90600a62000187565b5061011080546001600160a01b031990811673c02aaa39b223fe8d0a0e5c4f27ead9083c756cc217909155610111805490911673b27308f9f90d607463bb33ea1bebb41c27ce5ab61790553480156200018057600080fd5b5062000208565b828054828255906000526020600020908101928215620001df579160200282015b82811115620001df57825182546001600160a01b0319166001600160a01b03909116178255602090920191600190910190620001a8565b50620001ed929150620001f1565b5090565b5b80821115620001ed5760008155600101620001f2565b615ca180620002186000396000f3fe60806040526004361061042a5760003560e01c8063744fbc7a11610229578063b3f006741161012e578063d153b60c116100b6578063e4fbaecb1161007a578063e4fbaecb14610ccc578063efdcd97414610cf4578063f2fde38b14610d14578063f734e22a14610d34578063fca3b5aa14610d4957600080fd5b8063d153b60c14610c2c578063d1a72ed614610c4c578063dd62ed3e14610c74578063ddca3f4314610c94578063e24b85e714610cab57600080fd5b8063c01bc982116100fd578063c01bc98214610b84578063c2939d9714610bb5578063c36596a614610bcc578063c618a1e414610bf4578063c6bbd5a714610c0b57600080fd5b8063b3f0067414610b01578063b5ed298a14610b22578063b631e80b14610b42578063bf938db814610b6457600080fd5b80639dc29fac116101b1578063a457c2d711610180578063a457c2d714610a64578063a8509fd814610a84578063a9059cbb14610a99578063aaa4a18414610ab9578063ad39e5fd14610ad957600080fd5b80639dc29fac146109ee5780639eeb1d5014610a0e5780639f8e67bf14610a23578063a0b4b30114610a4457600080fd5b80638be78847116101f85780638be78847146109535780638da5cb5b146109735780638dae88c21461099157806391fe1b92146109b957806395d89b41146109d957600080fd5b8063744fbc7a146108d55780637dc0d1d0146108fd578063811399ae1461091e5780638456cb591461093e57600080fd5b8063395093511161032f5780635725a977116102b7578063660db48411610286578063660db4841461082257806368e0d4e1146108425780636e01a6861461086a57806370a082311461088a578063715018a6146108c057600080fd5b80635725a977146107ad5780635c975abb146107d55780636021abac146107ed578063616bcd211461080257600080fd5b806340c10f19116102fe57806340c10f19146106fd5780634357855e1461071d57806345596e2e1461073d5780634aa066521461075d5780634aa4a4fc1461078b57600080fd5b8063395093511461067d5780633d370b4e1461069d5780633f4ba83a146106c75780633fc8cef3146106dc57600080fd5b80631d5f45f5116103b25780632e7b0948116103815780632e7b0948146105d25780632f9f8c13146105fa5780632fab7aea146106225780632fecd5891461064a578063313ce5671461066157600080fd5b80631d5f45f51461056b578063209db5301461059357806323b872dd1461059b5780632b52684d146105bb57600080fd5b80630fb405b7116103f95780630fb405b7146104fb57806312740eb51461052357806318160ddd1461052d578063184a732f1461054c57806319b1f86a1461056357600080fd5b8063026b1d5f1461043657806306fdde03146104705780630754617214610492578063095ea7b3146104cb57600080fd5b3661043157005b600080fd5b34801561044257600080fd5b5061044b610d69565b604080516001600160a01b039384168152929091166020830152015b60405180910390f35b34801561047c57600080fd5b50610485610ed3565b60405161046791906155ea565b34801561049e57600080fd5b5061010a546104b3906001600160a01b031681565b6040516001600160a01b039091168152602001610467565b3480156104d757600080fd5b506104eb6104e6366004615174565b610f65565b6040519015158152602001610467565b34801561050757600080fd5b506104b37372e4f9f808c49a2a61de9c5896298920dc4eeea981565b61052b610f7f565b005b34801561053957600080fd5b50603b545b604051908152602001610467565b34801561055857600080fd5b5061053e6101075481565b61052b61196e565b34801561057757600080fd5b506104b3731f98431c8ad98523631ae4a59f267346ea31f98481565b61052b611a9a565b3480156105a757600080fd5b506104eb6105b6366004615133565b611c74565b3480156105c757600080fd5b5061053e61010c5481565b3480156105de57600080fd5b506104b373b131f4a55907b10d1f0a50d8ab8fa09ec342cd7481565b34801561060657600080fd5b506104b373cf0c122c6b73ff809c693db761e7baebe62b6a2e81565b34801561062e57600080fd5b506104b373761d38e5ddf6ccf6cf7c55759d5210750b5d60f381565b34801561065657600080fd5b5061053e6101065481565b34801561066d57600080fd5b5060405160128152602001610467565b34801561068957600080fd5b506104eb610698366004615174565b611d72565b3480156106a957600080fd5b506106b2611d94565b60408051928352602083019190915201610467565b3480156106d357600080fd5b5061052b611fcc565b3480156106e857600080fd5b50610110546104b3906001600160a01b031681565b34801561070957600080fd5b5061052b610718366004615174565b611fde565b34801561072957600080fd5b5061052b61073836600461532a565b6120f8565b34801561074957600080fd5b5061052b610758366004615440565b6121bc565b34801561076957600080fd5b5061077d610778366004615133565b612200565b6040516104679291906157a6565b34801561079757600080fd5b506104b3600080516020615c2c83398151915281565b3480156107b957600080fd5b506104b373b62e45c3df611dce236a6ddc7a493d79f9dfadef81565b3480156107e157600080fd5b5060d05460ff166104eb565b3480156107f957600080fd5b5061053e612410565b34801561080e57600080fd5b5061052b61081d366004615174565b61250f565b34801561082e57600080fd5b5061052b61083d36600461504f565b61273f565b34801561084e57600080fd5b506104b3735c69bee701ef814a2b6a3edd4b1652cb9cc5aa6f81565b34801561087657600080fd5b5061052b610885366004615440565b6127a5565b34801561089657600080fd5b5061053e6108a536600461504f565b6001600160a01b031660009081526039602052604090205490565b3480156108cc57600080fd5b5061052b6127ea565b3480156108e157600080fd5b506104b3737a250d5630b4cf539739df2c5dacb4c659f2488d81565b34801561090957600080fd5b50610103546104b3906001600160a01b031681565b34801561092a57600080fd5b5061052b610939366004615380565b6127fc565b34801561094a57600080fd5b5061052b612992565b34801561095f57600080fd5b5061052b61096e366004615174565b6129a2565b34801561097f57600080fd5b50606b546001600160a01b03166104b3565b34801561099d57600080fd5b506104b373b27308f9f90d607463bb33ea1bebb41c27ce5ab681565b3480156109c557600080fd5b5061052b6109d436600461534c565b612ae4565b3480156109e557600080fd5b50610485612b97565b3480156109fa57600080fd5b5061052b610a09366004615174565b612ba6565b348015610a1a57600080fd5b50610485612c7b565b348015610a2f57600080fd5b50610109546104b3906001600160a01b031681565b348015610a5057600080fd5b506104b3610a5f366004615440565b612d0a565b348015610a7057600080fd5b506104eb610a7f366004615174565b612d35565b348015610a9057600080fd5b5061053e612dbb565b348015610aa557600080fd5b506104eb610ab4366004615174565b612ed5565b348015610ac557600080fd5b5061052b610ad436600461504f565b612f5e565b348015610ae557600080fd5b506104b37327c70cd1946795b66be9d954418546998b54663481565b348015610b0d57600080fd5b50610108546104b3906001600160a01b031681565b348015610b2e57600080fd5b5061052b610b3d36600461504f565b612fd2565b348015610b4e57600080fd5b506104b3600080516020615c4c83398151915281565b348015610b7057600080fd5b5061053e610b7f3660046150c2565b613022565b348015610b9057600080fd5b506104eb610b9f36600461504f565b61010d6020526000908152604090205460ff1681565b348015610bc157600080fd5b5061053e6101045481565b348015610bd857600080fd5b506104b3739813037ee2218799597d83d4a5b6f3b6778218d981565b348015610c0057600080fd5b5061053e6101025481565b348015610c1757600080fd5b50610111546104b3906001600160a01b031681565b348015610c3857600080fd5b50609d546104b3906001600160a01b031681565b348015610c5857600080fd5b506104b373ac57de9c1a09fec648e93eb98875b212db0d460b81565b348015610c8057600080fd5b5061053e610c8f366004615089565b6130ea565b348015610ca057600080fd5b5061053e6101055481565b348015610cb757600080fd5b5061010e546104b3906001600160a01b031681565b348015610cd857600080fd5b506104b3736982508145454ce325ddbe47a25d4ec3d231193381565b348015610d0057600080fd5b5061052b610d0f36600461504f565b613115565b348015610d2057600080fd5b5061052b610d2f36600461504f565b61317b565b348015610d4057600080fd5b5061052b6132a3565b348015610d5557600080fd5b5061052b610d6436600461504f565b6132b3565b61010e54604051630b4c774160e11b8152600080516020615c2c83398151915260048201526001600160a01b039091166024820152610bb8604482015260009081908190731f98431c8ad98523631ae4a59f267346ea31f98490631698ee829060640160206040518083038186803b158015610de457600080fd5b505afa158015610df8573d6000803e3d6000fd5b505050506040513d601f19601f82011682018060405250810190610e1c919061506c565b61010e5460405163e6a4390560e01b8152600080516020615c2c83398151915260048201526001600160a01b039091166024820152909150600090735c69bee701ef814a2b6a3edd4b1652cb9cc5aa6f9063e6a4390590604401602060405180830381600087803b158015610e9057600080fd5b505af1158015610ea4573d6000803e3d6000fd5b505050506040513d601f19601f82011682018060405250810190610ec8919061506c565b919491935090915050565b6060603c8054610ee290615b22565b80601f0160208091040260200160405190810160405280929190818152602001828054610f0e90615b22565b8015610f5b5780601f10610f3057610100808354040283529160200191610f5b565b820191906000526020600020905b815481529060010190602001808311610f3e57829003601f168201915b5050505050905090565b600033610f73818585613319565b60019150505b92915050565b61010e54600090610fab90600080516020615c2c833981519152906001600160a01b0316346001613022565b61010e54909150610fd790600080516020615c2c833981519152906001600160a01b0316346001613022565b61010e5490915061100390600080516020615c2c833981519152906001600160a01b0316346001613022565b61010e5490915061102f90600080516020615c2c833981519152906001600160a01b0316346001613022565b61010e5490915061105b90600080516020615c2c833981519152906001600160a01b0316346001613022565b61010e5490915061108790600080516020615c2c833981519152906001600160a01b0316346001613022565b61010e549091506110b390600080516020615c2c833981519152906001600160a01b0316346001613022565b61010e549091506110df90600080516020615c2c833981519152906001600160a01b0316346001613022565b61010e5490915061110b90600080516020615c2c833981519152906001600160a01b0316346001613022565b61010e5490915061113790600080516020615c2c833981519152906001600160a01b0316346001613022565b61010e5490915061116390600080516020615c2c833981519152906001600160a01b0316346001613022565b61010e5490915061118f90600080516020615c2c833981519152906001600160a01b0316346001613022565b61010e549091506111bb90600080516020615c2c833981519152906001600160a01b0316346001613022565b61010e549091506111e790600080516020615c2c833981519152906001600160a01b0316346001613022565b61010e5490915061121390600080516020615c2c833981519152906001600160a01b0316346001613022565b61010e5490915061123f90600080516020615c2c833981519152906001600160a01b0316346001613022565b61010e5490915061126b90600080516020615c2c833981519152906001600160a01b0316346001613022565b61010e5490915061129790600080516020615c2c833981519152906001600160a01b0316346001613022565b61010e549091506112c390600080516020615c2c833981519152906001600160a01b0316346001613022565b905061011060009054906101000a90046001600160a01b03166001600160a01b031663d0e30db0346040518263ffffffff1660e01b81526004016000604051808303818588803b15801561131657600080fd5b505af115801561132a573d6000803e3d6000fd5b50506101105460405163095ea7b360e01b8152600080516020615c4c83398151915260048201523460248201526001600160a01b03909116935063095ea7b392506044019050602060405180830381600087803b15801561138a57600080fd5b505af115801561139e573d6000803e3d6000fd5b505050506040513d601f19601f820116820180604052508101906113c29190615308565b506040805161010081018252600080516020615c2c833981519152815261010e546001600160a01b03166020820152610bb89181019190915230606082015242608082015260009060a08101611419600a346158e3565b81526000602082018190526040918201819052905163414bf38960e01b815291925090600080516020615c4c8339815191529063414bf3899061146090859060040161573d565b602060405180830381600087803b15801561147a57600080fd5b505af115801561148e573d6000803e3d6000fd5b505050506040513d601f19601f820116820180604052508101906114b29190615459565b60405163414bf38960e01b8152909150600080516020615c4c8339815191529063414bf389906114e690859060040161573d565b602060405180830381600087803b15801561150057600080fd5b505af1158015611514573d6000803e3d6000fd5b505050506040513d601f19601f820116820180604052508101906115389190615459565b60405163414bf38960e01b8152909150600080516020615c4c8339815191529063414bf3899061156c90859060040161573d565b602060405180830381600087803b15801561158657600080fd5b505af115801561159a573d6000803e3d6000fd5b505050506040513d601f19601f820116820180604052508101906115be9190615459565b60405163414bf38960e01b8152909150600080516020615c4c8339815191529063414bf389906115f290859060040161573d565b602060405180830381600087803b15801561160c57600080fd5b505af1158015611620573d6000803e3d6000fd5b505050506040513d601f19601f820116820180604052508101906116449190615459565b60405163414bf38960e01b8152909150600080516020615c4c8339815191529063414bf3899061167890859060040161573d565b602060405180830381600087803b15801561169257600080fd5b505af11580156116a6573d6000803e3d6000fd5b505050506040513d601f19601f820116820180604052508101906116ca9190615459565b60405163414bf38960e01b8152909150600080516020615c4c8339815191529063414bf389906116fe90859060040161573d565b602060405180830381600087803b15801561171857600080fd5b505af115801561172c573d6000803e3d6000fd5b505050506040513d601f19601f820116820180604052508101906117509190615459565b60405163414bf38960e01b8152909150600080516020615c4c8339815191529063414bf3899061178490859060040161573d565b602060405180830381600087803b15801561179e57600080fd5b505af11580156117b2573d6000803e3d6000fd5b505050506040513d601f19601f820116820180604052508101906117d69190615459565b60405163414bf38960e01b8152909150600080516020615c4c8339815191529063414bf3899061180a90859060040161573d565b602060405180830381600087803b15801561182457600080fd5b505af1158015611838573d6000803e3d6000fd5b505050506040513d601f19601f8201168201806040525081019061185c9190615459565b60405163414bf38960e01b8152909150600080516020615c4c8339815191529063414bf3899061189090859060040161573d565b602060405180830381600087803b1580156118aa57600080fd5b505af11580156118be573d6000803e3d6000fd5b505050506040513d601f19601f820116820180604052508101906118e29190615459565b60405163414bf38960e01b8152909150600080516020615c4c8339815191529063414bf3899061191690859060040161573d565b602060405180830381600087803b15801561193057600080fd5b505af1158015611944573d6000803e3d6000fd5b505050506040513d601f19601f820116820180604052508101906119689190615459565b50505050565b61011060009054906101000a90046001600160a01b03166001600160a01b031663d0e30db0346040518263ffffffff1660e01b81526004016000604051808303818588803b1580156119bf57600080fd5b505af11580156119d3573d6000803e3d6000fd5b505050505060006119e2612dbb565b90503460005b600a811015611a4f57611a3c600080516020615c2c83398151915261010f8381548110611a1757611a17615bea565b6000918252602090912001546001600160a01b0316611a37600a866158e3565b61343d565b5080611a4781615b57565b9150506119e8565b50600080611a5c603b5490565b1115611a88578282611a6d603b5490565b611a779190615a11565b611a8191906158e3565b9050611a8b565b50805b611a95338261376e565b505050565b61011060009054906101000a90046001600160a01b03166001600160a01b031663d0e30db0346040518263ffffffff1660e01b81526004016000604051808303818588803b158015611aeb57600080fd5b505af1158015611aff573d6000803e3d6000fd5b50506101105460405163095ea7b360e01b8152600080516020615c4c83398151915260048201523460248201526001600160a01b03909116935063095ea7b392506044019050602060405180830381600087803b158015611b5f57600080fd5b505af1158015611b73573d6000803e3d6000fd5b505050506040513d601f19601f82011682018060405250810190611b979190615308565b506040805161010081018252600080516020615c2c833981519152815261010e546001600160a01b03166020820152610bb8818301523060608201524260808201523460a0820152600060c0820181905260e08201819052915163414bf38960e01b8152909190600080516020615c4c8339815191529063414bf38990611c2290859060040161573d565b602060405180830381600087803b158015611c3c57600080fd5b505af1158015611c50573d6000803e3d6000fd5b505050506040513d601f19601f82011682018060405250810190611a959190615459565b6000611c7e613772565b33600090815261010d602052604090205460ff1615611cb85760405162461bcd60e51b8152600401611caf90615627565b60405180910390fd5b6001600160a01b038316600090815261010d602052604090205460ff1615611cf25760405162461bcd60e51b8152600401611caf906155fd565b6001600160a01b038416600090815261010d602052604090205460ff1615611d515760405162461bcd60e51b8152602060048201526012602482015271199c9bdb481a5cc81c995cdd1c9a58dd195960721b6044820152606401611caf565b611d5c8433846137b8565b611d6784848461382c565b5060015b9392505050565b600033610f73818585611d8583836130ea565b611d8f9190615867565b613319565b6101115460405163f7729d4360e01b8152600080516020615c2c83398151915260048201527327c70cd1946795b66be9d954418546998b5466346024820152610bb86044820152670de0b6b3a7640000606482015260006084820181905291829182916001600160a01b03169063f7729d439060a401602060405180830381600087803b158015611e2457600080fd5b505af1925050508015611e54575060408051601f3d908101601f19168201909252611e5191810190615459565b60015b611e6057506000611e63565b90505b604080516002808252606082018352600092602083019080368337019050509050600080516020615c2c83398151915281600081518110611ea657611ea6615bea565b60200260200101906001600160a01b031690816001600160a01b0316815250507327c70cd1946795b66be9d954418546998b54663481600181518110611eee57611eee615bea565b6001600160a01b039092166020928302919091019091015260405163d06ca61f60e01b8152600090737a250d5630b4cf539739df2c5dacb4c659f2488d9063d06ca61f90611f4a90670de0b6b3a76400009086906004016155d1565b60006040518083038186803b158015611f6257600080fd5b505afa925050508015611f9757506040513d6000823e601f3d908101601f19168201604052611f949190810190615271565b60015b611fa357506000610ec8565b80600181518110611fb657611fb6615bea565b6020026020010151915050919491935090915050565b611fd46139d7565b611fdc613a31565b565b611fe6613772565b61010a546001600160a01b031633146120115760405162461bcd60e51b8152600401611caf9061565e565b61010c548161201f603b5490565b6120299190615867565b11156120775760405162461bcd60e51b815260206004820152601a60248201527f77696c6c2065786365656420737570706c79206365696c696e670000000000006044820152606401611caf565b6001600160a01b038216600090815261010d602052604090205460ff16156120b15760405162461bcd60e51b8152600401611caf906155fd565b33600090815261010d602052604090205460ff16156120e25760405162461bcd60e51b8152600401611caf90615627565b6120ea613a83565b6120f48282613bb6565b5050565b60008281526005602052604090205482906001600160a01b031633146121715760405162461bcd60e51b815260206004820152602860248201527f536f75726365206d75737420626520746865206f7261636c65206f6620746865604482015267081c995c5d595cdd60c21b6064820152608401611caf565b60008181526005602052604080822080546001600160a01b03191690555182917f7cc135e0cebb02c3480ae5d74d377283180a2601f8f644edf7987b009316c63a91a2506101025550565b6121c46139d7565b6121cc613a83565b61010681905560405181907f45398c451b1a31b88dbaed4e7b89a632f43cc4b50149d437db03a5300afe40d190600090a250565b6101115460405163f7729d4360e01b81526001600160a01b0385811660048301528481166024830152610bb860448301526064820184905260006084830181905292839283929091169063f7729d439060a401602060405180830381600087803b15801561226d57600080fd5b505af192505050801561229d575060408051601f3d908101601f1916820190925261229a91810190615459565b60015b6122a9575060006122ac565b90505b60408051600280825260608201835260009260208301908036833701905050905086816000815181106122e1576122e1615bea565b60200260200101906001600160a01b031690816001600160a01b031681525050858160018151811061231557612315615bea565b6001600160a01b039092166020928302919091019091015260405163d06ca61f60e01b8152600090737a250d5630b4cf539739df2c5dacb4c659f2488d9063d06ca61f9061236990899086906004016155d1565b60006040518083038186803b15801561238157600080fd5b505afa9250505080156123b657506040513d6000823e601f3d908101601f191682016040526123b39190810190615271565b60015b6123c2575060006123e1565b806001815181106123d5576123d5615bea565b60200260200101519150505b8083116123ee57806123f0565b825b9450808311612400576000612403565b60015b9350505050935093915050565b6000806124286101045430634357855e60e01b613c77565b90506124796040518060400160405280600381526020016219d95d60ea1b815250604051806040016040528060078152602001665468654c696e6b60c81b81525083613c9c9092919063ffffffff16565b6124b9604051806040016040528060048152602001630e0c2e8d60e31b8152506040518060200160405280600081525083613c9c9092919063ffffffff16565b60408051808201909152600581526474696d657360d81b6020820152670de0b6b3a7640000906124eb90839083613cba565b6101035461010554612508916001600160a01b0316908490613cd8565b9250505090565b670de0b6b3a76400006125223383613d6b565b60005b600a81101561263a5761262761010f828154811061254557612545615bea565b9060005260206000200160009054906101000a90046001600160a01b0316600080516020615c2c833981519152670de0b6b3a764000061010f858154811061258f5761258f615bea565b6000918252602090912001546040516370a0823160e01b81523060048201526001600160a01b03909116906370a082319060240160206040518083038186803b1580156125db57600080fd5b505afa1580156125ef573d6000803e3d6000fd5b505050506040513d601f19601f820116820180604052508101906126139190615459565b61261d9087615a11565b611a3791906158e3565b508061263281615b57565b915050612525565b50610110546040516370a0823160e01b81523060048201526001600160a01b039091169063a9059cbb90339083906370a082319060240160206040518083038186803b15801561268957600080fd5b505afa15801561269d573d6000803e3d6000fd5b505050506040513d601f19601f820116820180604052508101906126c19190615459565b6040516001600160e01b031960e085901b1681526001600160a01b0390921660048301526024820152604401602060405180830381600087803b15801561270757600080fd5b505af115801561271b573d6000803e3d6000fd5b505050506040513d601f19601f820116820180604052508101906119689190615308565b6127476139d7565b6001600160a01b03811661275a57600080fd5b61010980546001600160a01b0319166001600160a01b0383169081179091556040517f164d8ef0d742b45087644f55c61abeb84557df70d06730591e451f0981e278ca90600090a250565b6127ad6139d7565b61010c8190556040518181527fe35be406f69e9d11d6ac8e5b54bbc8b6c4baf2fa2359f84a56baa5ea5d07dc8f906020015b60405180910390a150565b6127f26139d7565b611fdc6000613d73565b600654610100900460ff161580801561281c5750600654600160ff909116105b806128365750303b158015612836575060065460ff166001145b6128995760405162461bcd60e51b815260206004820152602e60248201527f496e697469616c697a61626c653a20636f6e747261637420697320616c72656160448201526d191e481a5b9a5d1a585b1a5e995960921b6064820152608401611caf565b6006805460ff1916600117905580156128bc576006805461ff0019166101001790555b6001600160a01b0387166128cf57600080fd5b6128d7613dc5565b6128df613df4565b6128e98a8a613e23565b6128f1613e54565b61010688905561010880546001600160a01b03808a166001600160a01b03199283161790925561010c88905542610107556101038054928816929091169190911790556101048490556101058390558015612986576006805461ff0019169055604051600181527f7f26b83ff96e1f2b6a682f133852f6798a09c465da95921460cefb38474024989060200160405180910390a15b50505050505050505050565b61299a6139d7565b611fdc613e7b565b6040516323b872dd60e01b8152336004820152306024820152604481018290526001600160a01b038316906323b872dd90606401602060405180830381600087803b1580156129f057600080fd5b505af1158015612a04573d6000803e3d6000fd5b505050506040513d601f19601f82011682018060405250810190612a289190615308565b506000612a33612dbb565b90506000612a5084600080516020615c2c8339815191528561343d565b905060005b600a811015612a9757612a84600080516020615c2c83398151915261010f8381548110611a1757611a17615bea565b5080612a8f81615b57565b915050612a55565b50600080612aa4603b5490565b1115612ad0578282612ab5603b5490565b612abf9190615a11565b612ac991906158e3565b9050612ad3565b50805b612add338261376e565b5050505050565b610109546001600160a01b03163314612b535760405162461bcd60e51b815260206004820152602b60248201527f496e646578546f6b656e3a2063616c6c6572206973206e6f7420746865206d6560448201526a1d1a1bd91bdb1bd9da5cdd60aa1b6064820152608401611caf565b8051612b679061010b906020840190614e81565b507fe6be68107100e39cb16d675c1086a4d5479fbd01108d721dabbccaa2249b995f816040516127df91906155ea565b6060603d8054610ee290615b22565b612bae613772565b61010a546001600160a01b03163314612bd95760405162461bcd60e51b8152600401611caf9061565e565b6001600160a01b038216600090815261010d602052604090205460ff1615612c385760405162461bcd60e51b8152602060048201526012602482015271199c9bdb481a5cc81c995cdd1c9a58dd195960721b6044820152606401611caf565b33600090815261010d602052604090205460ff1615612c695760405162461bcd60e51b8152600401611caf90615627565b612c71613a83565b6120f48282613eb8565b61010b8054612c8990615b22565b80601f0160208091040260200160405190810160405280929190818152602001828054612cb590615b22565b8015612d025780601f10612cd757610100808354040283529160200191612d02565b820191906000526020600020905b815481529060010190602001808311612ce557829003601f168201915b505050505081565b61010f8181548110612d1b57600080fd5b6000918252602090912001546001600160a01b0316905081565b60003381612d4382866130ea565b905083811015612da35760405162461bcd60e51b815260206004820152602560248201527f45524332303a2064656372656173656420616c6c6f77616e63652062656c6f77604482015264207a65726f60d81b6064820152608401611caf565b612db08286868403613319565b506001949350505050565b60008060005b600a811015612ecf57600080612ea961010f8481548110612de457612de4615bea565b9060005260206000200160009054906101000a90046001600160a01b0316600080516020615c2c83398151915261010f8681548110612e2557612e25615bea565b6000918252602090912001546040516370a0823160e01b81523060048201526001600160a01b03909116906370a082319060240160206040518083038186803b158015612e7157600080fd5b505afa158015612e85573d6000803e3d6000fd5b505050506040513d601f19601f820116820180604052508101906107789190615459565b9092509050612eb88285615867565b935050508080612ec790615b57565b915050612dc1565b50919050565b6000612edf613772565b33600090815261010d602052604090205460ff1615612f105760405162461bcd60e51b8152600401611caf90615627565b6001600160a01b038316600090815261010d602052604090205460ff1615612f4a5760405162461bcd60e51b8152600401611caf906155fd565b612f5533848461382c565b50600192915050565b612f666139d7565b6001600160a01b038116600081815261010d602052604090819020805460ff19811660ff9182161590811790925591517f14ddf324cc5d8b14a3c3b12c84b0a7d578d72c8d60655c06d6a457e71431d5ee92612fc792161515815260200190565b60405180910390a250565b612fda6139d7565b6001600160a01b0381166130005760405162461bcd60e51b8152600401611caf906156a2565b609d80546001600160a01b0319166001600160a01b0392909216919091179055565b604051630b4c774160e11b81526001600160a01b03808616600483015284166024820152610bb860448201526000908190731f98431c8ad98523631ae4a59f267346ea31f98490631698ee829060640160206040518083038186803b15801561308a57600080fd5b505afa15801561309e573d6000803e3d6000fd5b505050506040513d601f19601f820116820180604052508101906130c2919061506c565b905060006130d08285613fec565b5090506130df81868989614242565b979650505050505050565b6001600160a01b039182166000908152603a6020908152604080832093909416825291909152205490565b61311d6139d7565b6001600160a01b03811661313057600080fd5b61010880546001600160a01b0319166001600160a01b0383169081179091556040517fbdf37c276f641820b141429d245add2552b4118c0866e5a78638e3de5ef18d9d90600090a250565b6001600160a01b0381166131a15760405162461bcd60e51b8152600401611caf906156a2565b609d546001600160a01b038281169116146132195760405162461bcd60e51b815260206004820152603260248201527f50726f706f7361626c654f776e61626c653a206e6577206f776e6572206973206044820152713737ba10383937b837b9b2b21037bbb732b960711b6064820152608401611caf565b6001600160a01b03811633146132975760405162461bcd60e51b815260206004820152603a60248201527f50726f706f7361626c654f776e61626c653a20746869732063616c6c206d757360448201527f74206265206d61646520627920746865206e6577206f776e65720000000000006064820152608401611caf565b6132a081613d73565b50565b6132ab6139d7565b611fdc613a83565b6132bb6139d7565b6001600160a01b0381166132ce57600080fd5b61010a80546001600160a01b0319166001600160a01b0383169081179091556040517f726b590ef91a8c76ad05bbe91a57ef84605276528f49cd47d787f558a4e755b690600090a250565b6001600160a01b03831661337b5760405162461bcd60e51b8152602060048201526024808201527f45524332303a20617070726f76652066726f6d20746865207a65726f206164646044820152637265737360e01b6064820152608401611caf565b6001600160a01b0382166133dc5760405162461bcd60e51b815260206004820152602260248201527f45524332303a20617070726f766520746f20746865207a65726f206164647265604482015261737360f01b6064820152608401611caf565b6001600160a01b038381166000818152603a602090815260408083209487168084529482529182902085905590518481527f8c5be1e5ebec7d5bd14f71427d1e84f3dd0314c0f7b2291e5b200ac8c7c3b925910160405180910390a3505050565b600080600061344d868686612200565b9092509050811561376557600181600181111561346c5761346c615bd4565b14156135db5760405163095ea7b360e01b8152600080516020615c4c8339815191526004820152602481018590526001600160a01b0387169063095ea7b390604401602060405180830381600087803b1580156134c857600080fd5b505af11580156134dc573d6000803e3d6000fd5b505050506040513d601f19601f820116820180604052508101906135009190615308565b5060408051610100810182526001600160a01b03808916825287166020820152610bb88183015230606082015242608082015260a08101869052600060c0820181905260e08201819052915163414bf38960e01b8152909190600080516020615c4c8339815191529063414bf3899061357d90859060040161573d565b602060405180830381600087803b15801561359757600080fd5b505af11580156135ab573d6000803e3d6000fd5b505050506040513d601f19601f820116820180604052508101906135cf9190615459565b9450611d6b9350505050565b604080516002808252606082018352600092602083019080368337019050509050868160008151811061361057613610615bea565b60200260200101906001600160a01b031690816001600160a01b031681525050858160018151811061364457613644615bea565b6001600160a01b03928316602091820292909201015260405163095ea7b360e01b8152737a250d5630b4cf539739df2c5dacb4c659f2488d6004820152602481018790529088169063095ea7b390604401602060405180830381600087803b1580156136af57600080fd5b505af11580156136c3573d6000803e3d6000fd5b505050506040513d601f19601f820116820180604052508101906136e79190615308565b50604051635c11d79560e01b8152737a250d5630b4cf539739df2c5dacb4c659f2488d90635c11d795906137289088906000908690309042906004016157d8565b600060405180830381600087803b15801561374257600080fd5b505af1158015613756573d6000803e3d6000fd5b50505050829350505050611d6b565b50509392505050565b6120115b60d05460ff1615611fdc5760405162461bcd60e51b815260206004820152601060248201526f14185d5cd8589b194e881c185d5cd95960821b6044820152606401611caf565b60006137c484846130ea565b90506000198114611968578181101561381f5760405162461bcd60e51b815260206004820152601d60248201527f45524332303a20696e73756666696369656e7420616c6c6f77616e63650000006044820152606401611caf565b6119688484848403613319565b6001600160a01b0383166138905760405162461bcd60e51b815260206004820152602560248201527f45524332303a207472616e736665722066726f6d20746865207a65726f206164604482015264647265737360d81b6064820152608401611caf565b6001600160a01b0382166138f25760405162461bcd60e51b815260206004820152602360248201527f45524332303a207472616e7366657220746f20746865207a65726f206164647260448201526265737360e81b6064820152608401611caf565b6001600160a01b0383166000908152603960205260409020548181101561396a5760405162461bcd60e51b815260206004820152602660248201527f45524332303a207472616e7366657220616d6f756e7420657863656564732062604482015265616c616e636560d01b6064820152608401611caf565b6001600160a01b0380851660008181526039602052604080822086860390559286168082529083902080548601905591517fddf252ad1be2c89b69c2b068fc378daa952ba7f163c4a11628f55a4df523b3ef906139ca9086815260200190565b60405180910390a3611968565b606b546001600160a01b03163314611fdc5760405162461bcd60e51b815260206004820181905260248201527f4f776e61626c653a2063616c6c6572206973206e6f7420746865206f776e65726044820152606401611caf565b613a3961434c565b60d0805460ff191690557f5db9ee0a495bf2e6ff9c91a7834c1ba4fdd244a5e8aa4e537bd38aeae4b073aa335b6040516001600160a01b03909116815260200160405180910390a1565b6000620151806101075442613a989190615ae7565b613aa291906158e3565b9050600181106132a0576000613ab7603b5490565b61010654909150819060005b84811015613afd5768056bc75e2d63100000613adf8385615a11565b613ae991906158e3565b613af39084615867565b9250600101613ac3565b506000613b0a8484615ae7565b9050613b198562015180615a11565b6101076000828254613b2b9190615867565b909155505061010854613b47906001600160a01b031682613bb6565b610108547f07982395c678b2ffc23fcf59aaec243ca79418c285af0d0e10b4e65bc4189f4c906001600160a01b031642613b80603b5490565b604080516001600160a01b0390941684526020840192909252908201526060810183905260800160405180910390a15050505050565b6001600160a01b038216613c0c5760405162461bcd60e51b815260206004820152601f60248201527f45524332303a206d696e7420746f20746865207a65726f2061646472657373006044820152606401611caf565b80603b6000828254613c1e9190615867565b90915550506001600160a01b0382166000818152603960209081526040808320805486019055518481527fddf252ad1be2c89b69c2b068fc378daa952ba7f163c4a11628f55a4df523b3ef910160405180910390a35050565b613c7f614f05565b613c87614f05565b613c9381868686614395565b95945050505050565b6080830151613cab90836143db565b6080830151611a9590826143db565b6080830151613cc990836143db565b6080830151611a9590826143f2565b600454600090613ce9816001615867565b600455835160408086015160808701515191516000936320214ca360e11b93613d219386938493923092918a916001916024016154f8565b60408051601f198184030181529190526020810180516001600160e01b03166001600160e01b0319909316929092179091529050613d6186838684614451565b9695505050505050565b612bd9613772565b606b80546001600160a01b038381166001600160a01b0319831681179093556040519116919082907f8be0079c531659141344cd1fd0a4f28419497f9722a3daafe3b4186f6b6457e090600090a35050565b600654610100900460ff16613dec5760405162461bcd60e51b8152600401611caf906156f2565b611fdc6145be565b600654610100900460ff16613e1b5760405162461bcd60e51b8152600401611caf906156f2565b611fdc6145ee565b600654610100900460ff16613e4a5760405162461bcd60e51b8152600401611caf906156f2565b6120f48282614621565b600654610100900460ff16611fdc5760405162461bcd60e51b8152600401611caf906156f2565b613e83613772565b60d0805460ff191660011790557f62e78cea01bee320cd4e420270b5ea74000d11b0c9f74754ebdbfc544b05a258613a663390565b6001600160a01b038216613f185760405162461bcd60e51b815260206004820152602160248201527f45524332303a206275726e2066726f6d20746865207a65726f206164647265736044820152607360f81b6064820152608401611caf565b6001600160a01b03821660009081526039602052604090205481811015613f8c5760405162461bcd60e51b815260206004820152602260248201527f45524332303a206275726e20616d6f756e7420657863656564732062616c616e604482015261636560f01b6064820152608401611caf565b6001600160a01b03831660008181526039602090815260408083208686039055603b80548790039055518581529192917fddf252ad1be2c89b69c2b068fc378daa952ba7f163c4a11628f55a4df523b3ef910160405180910390a3505050565b60008063ffffffff83166140275760405162461bcd60e51b8152602060048201526002602482015261042560f41b6044820152606401611caf565b604080516002808252606082018352600092602083019080368337019050509050838160008151811061405c5761405c615bea565b602002602001019063ffffffff16908163ffffffff168152505060008160018151811061408b5761408b615bea565b602002602001019063ffffffff16908163ffffffff1681525050600080866001600160a01b031663883bdbfd846040518263ffffffff1660e01b81526004016140d49190615587565b60006040518083038186803b1580156140ec57600080fd5b505afa158015614100573d6000803e3d6000fd5b505050506040513d6000823e601f3d908101601f1916820160405261412891908101906151a0565b9150915060008260008151811061414157614141615bea565b60200260200101518360018151811061415c5761415c615bea565b602002602001015161416e9190615a6f565b905060008260008151811061418557614185615bea565b6020026020010151836001815181106141a0576141a0615bea565b60200260200101516141b29190615abf565b90506141c463ffffffff89168361587f565b965060008260060b1280156141ea57506141e463ffffffff891683615b72565b60060b15155b156141fd57866141f981615afe565b9750505b60006142166001600160a01b0363ffffffff8b166159e2565b9050614233640100000000600160c01b03602084901b16826158bd565b96505050505050509250929050565b60008061424e8661466f565b90506001600160801b036001600160a01b038216116142d457600061427c6001600160a01b03831680615a11565b9050836001600160a01b0316856001600160a01b0316106142b4576142af600160c01b876001600160801b03168361498f565b6142cc565b6142cc81876001600160801b0316600160c01b61498f565b925050614343565b60006142f36001600160a01b038316806801000000000000000061498f565b9050836001600160a01b0316856001600160a01b03161061432b57614326600160801b876001600160801b03168361498f565b6130df565b6130df81876001600160801b0316600160801b61498f565b50949350505050565b60d05460ff16611fdc5760405162461bcd60e51b815260206004820152601460248201527314185d5cd8589b194e881b9bdd081c185d5cd95960621b6044820152606401611caf565b61439d614f05565b6143ad8560800151610100614a42565b50508284526001600160a01b03821660208501526001600160e01b031981166040850152835b949350505050565b6143e88260038351614aa7565b611a958282614bae565b67ffffffffffffffff1981121561440d576120f48282614bd5565b6001600160401b03811315614426576120f48282614c17565b6000811261443a576120f482600083614aa7565b6120f482600161444c84600019615a30565b614aa7565b6040516bffffffffffffffffffffffff193060601b1660208201526034810184905260009060540160408051808303601f1901815282825280516020918201206000818152600590925291812080546001600160a01b0319166001600160a01b038a1617905590925082917fb5e6e01e79f91267dc17b4e6314d5d4d03593d2ceee0fbb452b750bd70ea5af99190a2600254604051630200057560e51b81526001600160a01b0390911690634000aea09061451490889087908790600401615560565b602060405180830381600087803b15801561452e57600080fd5b505af1158015614542573d6000803e3d6000fd5b505050506040513d601f19601f820116820180604052508101906145669190615308565b6143d35760405162461bcd60e51b815260206004820152602360248201527f756e61626c6520746f207472616e73666572416e6443616c6c20746f206f7261604482015262636c6560e81b6064820152608401611caf565b600654610100900460ff166145e55760405162461bcd60e51b8152600401611caf906156f2565b611fdc33613d73565b600654610100900460ff166146155760405162461bcd60e51b8152600401611caf906156f2565b60d0805460ff19169055565b600654610100900460ff166146485760405162461bcd60e51b8152600401611caf906156f2565b815161465b90603c906020850190614e81565b508051611a9590603d906020840190614e81565b60008060008360020b12614686578260020b61468e565b8260020b6000035b9050620d89e88111156146b4576040516315e4079d60e11b815260040160405180910390fd5b6000600182166146c857600160801b6146da565b6ffffcb933bd6fad37aa2d162d1a5940015b70ffffffffffffffffffffffffffffffffff169050600282161561470e576ffff97272373d413259a46990580e213a0260801c5b600482161561472d576ffff2e50f5f656932ef12357cf3c7fdcc0260801c5b600882161561474c576fffe5caca7e10e4e61c3624eaa0941cd00260801c5b601082161561476b576fffcb9843d60f6159c9db58835c9266440260801c5b602082161561478a576fff973b41fa98c081472e6896dfb254c00260801c5b60408216156147a9576fff2ea16466c96a3843ec78b326b528610260801c5b60808216156147c8576ffe5dee046a99a2a811c461f1969c30530260801c5b6101008216156147e8576ffcbe86c7900a88aedcffc83b479aa3a40260801c5b610200821615614808576ff987a7253ac413176f2b074cf7815e540260801c5b610400821615614828576ff3392b0822b70005940c7a398e4b70f30260801c5b610800821615614848576fe7159475a2c29b7443b29c7fa6e889d90260801c5b611000821615614868576fd097f3bdfd2022b8845ad8f792aa58250260801c5b612000821615614888576fa9f746462d870fdf8a65dc1f90e061e50260801c5b6140008216156148a8576f70d869a156d2a1b890bb3df62baf32f70260801c5b6180008216156148c8576f31be135f97d08fd981231505542fcfa60260801c5b620100008216156148e9576f09aa508b5b7a84e1c677de54f3e99bc90260801c5b62020000821615614909576e5d6af8dedb81196699c329225ee6040260801c5b62040000821615614928576d2216e584f5fa1ea926041bedfe980260801c5b62080000821615614945576b048a170391f7dc42444e8fa20260801c5b60008460020b131561496657806000198161496257614962615bbe565b0490505b64010000000081061561497a57600161497d565b60005b60ff16602082901c0192505050919050565b6000808060001985870985870292508281108382030391505080600014156149c957600084116149be57600080fd5b508290049050611d6b565b8084116149d557600080fd5b6000848688096000868103871696879004966002600389028118808a02820302808a02820302808a02820302808a02820302808a02820302808a02909103029181900381900460010186841190950394909402919094039290920491909117919091029150509392505050565b604080518082019091526060815260006020820152614a62602083615b94565b15614a8a57614a72602083615b94565b614a7d906020615ae7565b614a879083615867565b91505b506020828101829052604080518085526000815290920101905290565b6017816001600160401b031611614acb576119688360e0600585901b168317614c3a565b60ff816001600160401b031611614b0757614af1836018611fe0600586901b1617614c3a565b50611968836001600160401b0383166001614c5f565b61ffff816001600160401b031611614b4457614b2e836019611fe0600586901b1617614c3a565b50611968836001600160401b0383166002614c5f565b63ffffffff816001600160401b031611614b8357614b6d83601a611fe0600586901b1617614c3a565b50611968836001600160401b0383166004614c5f565b614b9883601b611fe0600586901b1617614c3a565b50611968836001600160401b0383166008614c5f565b604080518082019091526060815260006020820152611d6b83846000015151848551614c85565b614be08260c3614c3a565b506120f482614bf183600019615a30565b604051602001614c0391815260200190565b604051602081830303815290604052614d6f565b614c228260c2614c3a565b506120f48282604051602001614c0391815260200190565b604080518082019091526060815260006020820152611d6b8384600001515184614d7c565b6040805180820190915260608152600060208201526143d3848560000151518585614dd8565b6040805180820190915260608152600060208201528251821115614ca857600080fd5b6020850151614cb78386615867565b1115614cea57614cea85614cda87602001518786614cd59190615867565b614e59565b614ce5906002615a11565b614e6a565b600080865180518760208301019350808887011115614d095787860182525b505050602084015b60208410614d495780518252614d28602083615867565b9150614d35602082615867565b9050614d42602085615ae7565b9350614d11565b51815160001960208690036101000a019081169019919091161790525083949350505050565b6143e88260028351614aa7565b60408051808201909152606081526000602082015283602001518310614db157614db18485602001516002614ce59190615a11565b835180516020858301018481535080851415614dce576001810182525b5093949350505050565b6040805180820190915260608152600060208201526020850151614dfc8584615867565b1115614e1057614e1085614cda8685615867565b60006001614e208461010061593a565b614e2a9190615ae7565b9050855183868201018583198251161781525080518487011115614e4e5783860181525b509495945050505050565b600081831115612ecf575081610f79565b8151614e768383614a42565b506119688382614bae565b828054614e8d90615b22565b90600052602060002090601f016020900481019282614eaf5760008555614ef5565b82601f10614ec857805160ff1916838001178555614ef5565b82800160010185558215614ef5579182015b82811115614ef5578251825591602001919060010190614eda565b50614f01929150614f40565b5090565b6040805160a0810182526000808252602080830182905282840182905260608084018390528451808601909552845283015290608082015290565b5b80821115614f015760008155600101614f41565b8035614f6081615c16565b919050565b600082601f830112614f7657600080fd5b81516020614f8b614f8683615844565b615814565b80838252828201915082860187848660051b8901011115614fab57600080fd5b60005b85811015614fd3578151614fc181615c16565b84529284019290840190600101614fae565b5090979650505050505050565b600082601f830112614ff157600080fd5b81356001600160401b0381111561500a5761500a615c00565b61501d601f8201601f1916602001615814565b81815284602083860101111561503257600080fd5b816020850160208301376000918101602001919091529392505050565b60006020828403121561506157600080fd5b8135611d6b81615c16565b60006020828403121561507e57600080fd5b8151611d6b81615c16565b6000806040838503121561509c57600080fd5b82356150a781615c16565b915060208301356150b781615c16565b809150509250929050565b600080600080608085870312156150d857600080fd5b84356150e381615c16565b935060208501356150f381615c16565b925060408501356001600160801b038116811461510f57600080fd5b9150606085013563ffffffff8116811461512857600080fd5b939692955090935050565b60008060006060848603121561514857600080fd5b833561515381615c16565b9250602084013561516381615c16565b929592945050506040919091013590565b6000806040838503121561518757600080fd5b823561519281615c16565b946020939093013593505050565b600080604083850312156151b357600080fd5b82516001600160401b03808211156151ca57600080fd5b818501915085601f8301126151de57600080fd5b815160206151ee614f8683615844565b8083825282820191508286018a848660051b890101111561520e57600080fd5b600096505b848710156152405780518060060b811461522c57600080fd5b835260019690960195918301918301615213565b509188015191965090935050508082111561525a57600080fd5b5061526785828601614f65565b9150509250929050565b6000602080838503121561528457600080fd5b82516001600160401b0381111561529a57600080fd5b8301601f810185136152ab57600080fd5b80516152b9614f8682615844565b80828252848201915084840188868560051b87010111156152d957600080fd5b600094505b838510156152fc5780518352600194909401939185019185016152de565b50979650505050505050565b60006020828403121561531a57600080fd5b81518015158114611d6b57600080fd5b6000806040838503121561533d57600080fd5b50508035926020909101359150565b60006020828403121561535e57600080fd5b81356001600160401b0381111561537457600080fd5b6143d384828501614fe0565b60008060008060008060008060006101208a8c03121561539f57600080fd5b89356001600160401b03808211156153b657600080fd5b6153c28d838e01614fe0565b9a5060208c01359150808211156153d857600080fd5b506153e58c828d01614fe0565b98505060408a0135965060608a01356153fd81615c16565b955060808a0135945060a08a013561541481615c16565b935060c08a0135925060e08a013591506154316101008b01614f55565b90509295985092959850929598565b60006020828403121561545257600080fd5b5035919050565b60006020828403121561546b57600080fd5b5051919050565b600081518084526020808501945080840160005b83811015614e4e5781516001600160a01b031687529582019590820190600101615486565b6000815180845260005b818110156154d1576020818501810151868301820152016154b5565b818111156154e3576000602083870101525b50601f01601f19169290920160200192915050565b6001600160a01b0389811682526020820189905260408201889052861660608201526001600160e01b03198516608082015260a0810184905260c0810183905261010060e08201819052600090615551838201856154ab565b9b9a5050505050505050505050565b60018060a01b0384168152826020820152606060408201526000613c9360608301846154ab565b6020808252825182820181905260009190848201906040850190845b818110156155c557835163ffffffff16835292840192918401916001016155a3565b50909695505050505050565b8281526040602082015260006143d36040830184615472565b602081526000611d6b60208301846154ab565b60208082526010908201526f1d1bc81a5cc81c995cdd1c9a58dd195960821b604082015260600190565b60208082526018908201527f6d73672e73656e64657220697320726573747269637465640000000000000000604082015260600190565b60208082526024908201527f496e646578546f6b656e3a2063616c6c6572206973206e6f7420746865206d69604082015263373a32b960e11b606082015260800190565b60208082526030908201527f50726f706f7361626c654f776e61626c653a206e6577206f776e65722069732060408201526f746865207a65726f206164647265737360801b606082015260800190565b6020808252602b908201527f496e697469616c697a61626c653a20636f6e7472616374206973206e6f74206960408201526a6e697469616c697a696e6760a81b606082015260800190565b81516001600160a01b03908116825260208084015182169083015260408084015162ffffff16908301526060808401518216908301526080808401519083015260a0838101519083015260c0808401519083015260e09283015116918101919091526101000190565b82815260408101600283106157cb57634e487b7160e01b600052602160045260246000fd5b8260208301529392505050565b85815284602082015260a0604082015260006157f760a0830186615472565b6001600160a01b0394909416606083015250608001529392505050565b604051601f8201601f191681016001600160401b038111828210171561583c5761583c615c00565b604052919050565b60006001600160401b0382111561585d5761585d615c00565b5060051b60200190565b6000821982111561587a5761587a615ba8565b500190565b60008160060b8360060b8061589657615896615bbe565b667fffffffffffff198214600019821416156158b4576158b4615ba8565b90059392505050565b60006001600160c01b03838116806158d7576158d7615bbe565b92169190910492915050565b6000826158f2576158f2615bbe565b500490565b600181815b8085111561593257816000190482111561591857615918615ba8565b8085161561592557918102915b93841c93908002906158fc565b509250929050565b6000611d6b838360008261595057506001610f79565b8161595d57506000610f79565b8160018114615973576002811461597d57615999565b6001915050610f79565b60ff84111561598e5761598e615ba8565b50506001821b610f79565b5060208310610133831016604e8410600b84101617156159bc575081810a610f79565b6159c683836158f7565b80600019048211156159da576159da615ba8565b029392505050565b60006001600160c01b0382811684821681151582840482111615615a0857615a08615ba8565b02949350505050565b6000816000190483118215151615615a2b57615a2b615ba8565b500290565b60008083128015600160ff1b850184121615615a4e57615a4e615ba8565b6001600160ff1b0384018313811615615a6957615a69615ba8565b50500390565b60008160060b8360060b6000811281667fffffffffffff1901831281151615615a9a57615a9a615ba8565b81667fffffffffffff018313811615615ab557615ab5615ba8565b5090039392505050565b60006001600160a01b0383811690831681811015615adf57615adf615ba8565b039392505050565b600082821015615af957615af9615ba8565b500390565b60008160020b627fffff19811415615b1857615b18615ba8565b6000190192915050565b600181811c90821680615b3657607f821691505b60208210811415612ecf57634e487b7160e01b600052602260045260246000fd5b6000600019821415615b6b57615b6b615ba8565b5060010190565b60008260060b80615b8557615b85615bbe565b808360060b0791505092915050565b600082615ba357615ba3615bbe565b500690565b634e487b7160e01b600052601160045260246000fd5b634e487b7160e01b600052601260045260246000fd5b634e487b7160e01b600052602160045260246000fd5b634e487b7160e01b600052603260045260246000fd5b634e487b7160e01b600052604160045260246000fd5b6001600160a01b03811681146132a057600080fdfe000000000000000000000000c02aaa39b223fe8d0a0e5c4f27ead9083c756cc2000000000000000000000000e592427a0aece92de3edee1f18e0157c05861564a264697066735822122030bf8053443e96b869bf0fa1fc97539820c6eebf32a1464c474b4554a2648e3164736f6c63430008070033",
    "linkReferences": {}
  },
  "methodIdentifiers": {
    "BONE()": "c36596a6",
    "BabyDoge()": "d1a72ed6",
    "ELON()": "2fab7aea",
    "FLOKI()": "2f9f8c13",
    "HarryPotterObamaSonic10Inu()": "0fb405b7",
    "LEASH()": "ad39e5fd",
    "MEME()": "2e7b0948",
    "PEPE()": "e4fbaecb",
    "QUOTER()": "8dae88c2",
    "SHIB()": "e24b85e7",
    "WETH9()": "4aa4a4fc",
    "WSM()": "5725a977",
    "allowance(address,address)": "dd62ed3e",
    "approve(address,uint256)": "095ea7b3",
    "assetList(uint256)": "a0b4b301",
    "balanceOf(address)": "70a08231",
    "burn(address,uint256)": "9dc29fac",
    "decimals()": "313ce567",
    "decreaseAllowance(address,uint256)": "a457c2d7",
    "estimateAmountOut(address,address,uint128,uint32)": "bf938db8",
    "factoryV2()": "68e0d4e1",
    "factoryV3()": "1d5f45f5",
    "fee()": "ddca3f43",
    "feeRatePerDayScaled()": "2fecd589",
    "feeReceiver()": "b3f00674",
    "feeTimestamp()": "184a732f",
    "fulfill(bytes32,uint256)": "4357855e",
    "getAmountOut(address,address,uint256)": "4aa06652",
    "getAmounts()": "3d370b4e",
    "getPool()": "026b1d5f",
    "getPortfolioBalance()": "a8509fd8",
    "increaseAllowance(address,uint256)": "39509351",
    "initialize(string,string,uint256,address,uint256,address,bytes32,uint256,address)": "811399ae",
    "isRestricted(address)": "c01bc982",
    "issuanceIndexTokens(address,uint256)": "8be78847",
    "issuanceIndexTokensWithEth()": "19b1f86a",
    "jobId()": "c2939d97",
    "methodologist()": "9f8e67bf",
    "methodology()": "9eeb1d50",
    "mint(address,uint256)": "40c10f19",
    "mintToFeeReceiver()": "f734e22a",
    "minter()": "07546172",
    "name()": "06fdde03",
    "oracle()": "7dc0d1d0",
    "owner()": "8da5cb5b",
    "pause()": "8456cb59",
    "paused()": "5c975abb",
    "proposeOwner(address)": "b5ed298a",
    "proposedOwner()": "d153b60c",
    "quoter()": "c6bbd5a7",
    "redemption(address,uint256)": "616bcd21",
    "renounceOwnership()": "715018a6",
    "requestVolumeData()": "6021abac",
    "setFeeRate(uint256)": "45596e2e",
    "setFeeReceiver(address)": "efdcd974",
    "setMethodologist(address)": "660db484",
    "setMethodology(string)": "91fe1b92",
    "setMinter(address)": "fca3b5aa",
    "setSupplyCeiling(uint256)": "6e01a686",
    "supplyCeiling()": "2b52684d",
    "swapGas()": "209db530",
    "swapGas1()": "12740eb5",
    "swapRouterV2()": "744fbc7a",
    "swapRouterV3()": "b631e80b",
    "symbol()": "95d89b41",
    "toggleRestriction(address)": "aaa4a184",
    "totalSupply()": "18160ddd",
    "transfer(address,uint256)": "a9059cbb",
    "transferFrom(address,address,uint256)": "23b872dd",
    "transferOwnership(address)": "f2fde38b",
    "unpause()": "3f4ba83a",
    "volume()": "c618a1e4",
    "weth()": "3fc8cef3"
  },
  "id": 23
}