{
  "abi": [
    {
      "anonymous": false,
      "inputs": [
        {
          "indexed": true,
          "internalType": "address",
          "name": "owner",
          "type": "address"
        },
        {
          "indexed": true,
          "internalType": "address",
          "name": "spender",
          "type": "address"
        },
        {
          "indexed": false,
          "internalType": "uint256",
          "name": "value",
          "type": "uint256"
        }
      ],
      "name": "Approval",
      "type": "event"
    },
    {
      "anonymous": false,
      "inputs": [
        {
          "indexed": true,
          "internalType": "uint256",
          "name": "feeRatePerDayScaled",
          "type": "uint256"
        }
      ],
      "name": "FeeRateSet",
      "type": "event"
    },
    {
      "anonymous": false,
      "inputs": [
        {
          "indexed": true,
          "internalType": "address",
          "name": "feeReceiver",
          "type": "address"
        }
      ],
      "name": "FeeReceiverSet",
      "type": "event"
    },
    {
      "anonymous": false,
      "inputs": [
        {
          "indexed": false,
          "internalType": "uint8",
          "name": "version",
          "type": "uint8"
        }
      ],
      "name": "Initialized",
      "type": "event"
    },
    {
      "anonymous": false,
      "inputs": [
        {
          "indexed": true,
          "internalType": "address",
          "name": "methodologist",
          "type": "address"
        }
      ],
      "name": "MethodologistSet",
      "type": "event"
    },
    {
      "anonymous": false,
      "inputs": [
        {
          "indexed": false,
          "internalType": "string",
          "name": "methodology",
          "type": "string"
        }
      ],
      "name": "MethodologySet",
      "type": "event"
    },
    {
      "anonymous": false,
      "inputs": [
        {
          "indexed": false,
          "internalType": "address",
          "name": "feeReceiver",
          "type": "address"
        },
        {
          "indexed": false,
          "internalType": "uint256",
          "name": "timestamp",
          "type": "uint256"
        },
        {
          "indexed": false,
          "internalType": "uint256",
          "name": "totalSupply",
          "type": "uint256"
        },
        {
          "indexed": false,
          "internalType": "uint256",
          "name": "amount",
          "type": "uint256"
        }
      ],
      "name": "MintFeeToReceiver",
      "type": "event"
    },
    {
      "anonymous": false,
      "inputs": [
        {
          "indexed": true,
          "internalType": "address",
          "name": "minter",
          "type": "address"
        }
      ],
      "name": "MinterSet",
      "type": "event"
    },
    {
      "anonymous": false,
      "inputs": [
        {
          "indexed": true,
          "internalType": "address",
          "name": "previousOwner",
          "type": "address"
        },
        {
          "indexed": true,
          "internalType": "address",
          "name": "newOwner",
          "type": "address"
        }
      ],
      "name": "OwnershipTransferred",
      "type": "event"
    },
    {
      "anonymous": false,
      "inputs": [
        {
          "indexed": false,
          "internalType": "address",
          "name": "account",
          "type": "address"
        }
      ],
      "name": "Paused",
      "type": "event"
    },
    {
      "anonymous": false,
      "inputs": [
        {
          "indexed": false,
          "internalType": "uint256",
          "name": "supplyCeiling",
          "type": "uint256"
        }
      ],
      "name": "SupplyCeilingSet",
      "type": "event"
    },
    {
      "anonymous": false,
      "inputs": [
        {
          "indexed": true,
          "internalType": "address",
          "name": "account",
          "type": "address"
        },
        {
          "indexed": false,
          "internalType": "bool",
          "name": "isRestricted",
          "type": "bool"
        }
      ],
      "name": "ToggledRestricted",
      "type": "event"
    },
    {
      "anonymous": false,
      "inputs": [
        {
          "indexed": true,
          "internalType": "address",
          "name": "from",
          "type": "address"
        },
        {
          "indexed": true,
          "internalType": "address",
          "name": "to",
          "type": "address"
        },
        {
          "indexed": false,
          "internalType": "uint256",
          "name": "value",
          "type": "uint256"
        }
      ],
      "name": "Transfer",
      "type": "event"
    },
    {
      "anonymous": false,
      "inputs": [
        {
          "indexed": false,
          "internalType": "address",
          "name": "account",
          "type": "address"
        }
      ],
      "name": "Unpaused",
      "type": "event"
    },
    {
      "inputs": [],
      "name": "QUOTER",
      "outputs": [
        {
          "internalType": "address",
          "name": "",
          "type": "address"
        }
      ],
      "stateMutability": "view",
      "type": "function"
    },
    {
      "inputs": [],
      "name": "WETH9",
      "outputs": [
        {
          "internalType": "address",
          "name": "",
          "type": "address"
        }
      ],
      "stateMutability": "view",
      "type": "function"
    },
    {
      "inputs": [
        {
          "internalType": "address",
          "name": "owner",
          "type": "address"
        },
        {
          "internalType": "address",
          "name": "spender",
          "type": "address"
        }
      ],
      "name": "allowance",
      "outputs": [
        {
          "internalType": "uint256",
          "name": "",
          "type": "uint256"
        }
      ],
      "stateMutability": "view",
      "type": "function"
    },
    {
      "inputs": [
        {
          "internalType": "address",
          "name": "spender",
          "type": "address"
        },
        {
          "internalType": "uint256",
          "name": "amount",
          "type": "uint256"
        }
      ],
      "name": "approve",
      "outputs": [
        {
          "internalType": "bool",
          "name": "",
          "type": "bool"
        }
      ],
      "stateMutability": "nonpayable",
      "type": "function"
    },
    {
      "inputs": [
        {
          "internalType": "address",
          "name": "account",
          "type": "address"
        }
      ],
      "name": "balanceOf",
      "outputs": [
        {
          "internalType": "uint256",
          "name": "",
          "type": "uint256"
        }
      ],
      "stateMutability": "view",
      "type": "function"
    },
    {
      "inputs": [
        {
          "internalType": "address",
          "name": "from",
          "type": "address"
        },
        {
          "internalType": "uint256",
          "name": "amount",
          "type": "uint256"
        }
      ],
      "name": "burn",
      "outputs": [],
      "stateMutability": "nonpayable",
      "type": "function"
    },
    {
      "inputs": [],
      "name": "decimals",
      "outputs": [
        {
          "internalType": "uint8",
          "name": "",
          "type": "uint8"
        }
      ],
      "stateMutability": "view",
      "type": "function"
    },
    {
      "inputs": [
        {
          "internalType": "address",
          "name": "spender",
          "type": "address"
        },
        {
          "internalType": "uint256",
          "name": "subtractedValue",
          "type": "uint256"
        }
      ],
      "name": "decreaseAllowance",
      "outputs": [
        {
          "internalType": "bool",
          "name": "",
          "type": "bool"
        }
      ],
      "stateMutability": "nonpayable",
      "type": "function"
    },
    {
      "inputs": [],
      "name": "feeRatePerDayScaled",
      "outputs": [
        {
          "internalType": "uint256",
          "name": "",
          "type": "uint256"
        }
      ],
      "stateMutability": "view",
      "type": "function"
    },
    {
      "inputs": [],
      "name": "feeReceiver",
      "outputs": [
        {
          "internalType": "address",
          "name": "",
          "type": "address"
        }
      ],
      "stateMutability": "view",
      "type": "function"
    },
    {
      "inputs": [],
      "name": "feeTimestamp",
      "outputs": [
        {
          "internalType": "uint256",
          "name": "",
          "type": "uint256"
        }
      ],
      "stateMutability": "view",
      "type": "function"
    },
    {
      "inputs": [
        {
          "internalType": "address",
          "name": "spender",
          "type": "address"
        },
        {
          "internalType": "uint256",
          "name": "addedValue",
          "type": "uint256"
        }
      ],
      "name": "increaseAllowance",
      "outputs": [
        {
          "internalType": "bool",
          "name": "",
          "type": "bool"
        }
      ],
      "stateMutability": "nonpayable",
      "type": "function"
    },
    {
      "inputs": [
        {
          "internalType": "string",
          "name": "tokenName",
          "type": "string"
        },
        {
          "internalType": "string",
          "name": "tokenSymbol",
          "type": "string"
        },
        {
          "internalType": "uint256",
          "name": "_feeRatePerDayScaled",
          "type": "uint256"
        },
        {
          "internalType": "address",
          "name": "_feeReceiver",
          "type": "address"
        },
        {
          "internalType": "uint256",
          "name": "_supplyCeiling",
          "type": "uint256"
        }
      ],
      "name": "initialize",
      "outputs": [],
      "stateMutability": "nonpayable",
      "type": "function"
    },
    {
      "inputs": [
        {
          "internalType": "address",
          "name": "",
          "type": "address"
        }
      ],
      "name": "isRestricted",
      "outputs": [
        {
          "internalType": "bool",
          "name": "",
          "type": "bool"
        }
      ],
      "stateMutability": "view",
      "type": "function"
    },
    {
      "inputs": [],
      "name": "methodologist",
      "outputs": [
        {
          "internalType": "address",
          "name": "",
          "type": "address"
        }
      ],
      "stateMutability": "view",
      "type": "function"
    },
    {
      "inputs": [],
      "name": "methodology",
      "outputs": [
        {
          "internalType": "string",
          "name": "",
          "type": "string"
        }
      ],
      "stateMutability": "view",
      "type": "function"
    },
    {
      "inputs": [
        {
          "internalType": "address",
          "name": "to",
          "type": "address"
        },
        {
          "internalType": "uint256",
          "name": "amount",
          "type": "uint256"
        }
      ],
      "name": "mint",
      "outputs": [],
      "stateMutability": "nonpayable",
      "type": "function"
    },
    {
      "inputs": [],
      "name": "mintToFeeReceiver",
      "outputs": [],
      "stateMutability": "nonpayable",
      "type": "function"
    },
    {
      "inputs": [
        {
          "internalType": "address",
          "name": "tokenIn",
          "type": "address"
        },
        {
          "internalType": "uint256",
          "name": "amountIn",
          "type": "uint256"
        }
      ],
      "name": "mintToken",
      "outputs": [],
      "stateMutability": "nonpayable",
      "type": "function"
    },
    {
      "inputs": [],
      "name": "minter",
      "outputs": [
        {
          "internalType": "address",
          "name": "",
          "type": "address"
        }
      ],
      "stateMutability": "view",
      "type": "function"
    },
    {
      "inputs": [],
      "name": "name",
      "outputs": [
        {
          "internalType": "string",
          "name": "",
          "type": "string"
        }
      ],
      "stateMutability": "view",
      "type": "function"
    },
    {
      "inputs": [],
      "name": "owner",
      "outputs": [
        {
          "internalType": "address",
          "name": "",
          "type": "address"
        }
      ],
      "stateMutability": "view",
      "type": "function"
    },
    {
      "inputs": [],
      "name": "pause",
      "outputs": [],
      "stateMutability": "nonpayable",
      "type": "function"
    },
    {
      "inputs": [],
      "name": "paused",
      "outputs": [
        {
          "internalType": "bool",
          "name": "",
          "type": "bool"
        }
      ],
      "stateMutability": "view",
      "type": "function"
    },
    {
      "inputs": [
        {
          "internalType": "address",
          "name": "_proposedOwner",
          "type": "address"
        }
      ],
      "name": "proposeOwner",
      "outputs": [],
      "stateMutability": "nonpayable",
      "type": "function"
    },
    {
      "inputs": [],
      "name": "proposedOwner",
      "outputs": [
        {
          "internalType": "address",
          "name": "",
          "type": "address"
        }
      ],
      "stateMutability": "view",
      "type": "function"
    },
    {
      "inputs": [],
      "name": "quoter",
      "outputs": [
        {
          "internalType": "contract IQuoter",
          "name": "",
          "type": "address"
        }
      ],
      "stateMutability": "view",
      "type": "function"
    },
    {
      "inputs": [],
      "name": "renounceOwnership",
      "outputs": [],
      "stateMutability": "nonpayable",
      "type": "function"
    },
    {
      "inputs": [
        {
          "internalType": "uint256",
          "name": "_feeRatePerDayScaled",
          "type": "uint256"
        }
      ],
      "name": "setFeeRate",
      "outputs": [],
      "stateMutability": "nonpayable",
      "type": "function"
    },
    {
      "inputs": [
        {
          "internalType": "address",
          "name": "_feeReceiver",
          "type": "address"
        }
      ],
      "name": "setFeeReceiver",
      "outputs": [],
      "stateMutability": "nonpayable",
      "type": "function"
    },
    {
      "inputs": [
        {
          "internalType": "address",
          "name": "_methodologist",
          "type": "address"
        }
      ],
      "name": "setMethodologist",
      "outputs": [],
      "stateMutability": "nonpayable",
      "type": "function"
    },
    {
      "inputs": [
        {
          "internalType": "string",
          "name": "_methodology",
          "type": "string"
        }
      ],
      "name": "setMethodology",
      "outputs": [],
      "stateMutability": "nonpayable",
      "type": "function"
    },
    {
      "inputs": [
        {
          "internalType": "address",
          "name": "_minter",
          "type": "address"
        }
      ],
      "name": "setMinter",
      "outputs": [],
      "stateMutability": "nonpayable",
      "type": "function"
    },
    {
      "inputs": [
        {
          "internalType": "uint256",
          "name": "_supplyCeiling",
          "type": "uint256"
        }
      ],
      "name": "setSupplyCeiling",
      "outputs": [],
      "stateMutability": "nonpayable",
      "type": "function"
    },
    {
      "inputs": [],
      "name": "supplyCeiling",
      "outputs": [
        {
          "internalType": "uint256",
          "name": "",
          "type": "uint256"
        }
      ],
      "stateMutability": "view",
      "type": "function"
    },
    {
      "inputs": [],
      "name": "swapRouter",
      "outputs": [
        {
          "internalType": "contract ISwapRouter",
          "name": "",
          "type": "address"
        }
      ],
      "stateMutability": "view",
      "type": "function"
    },
    {
      "inputs": [],
      "name": "symbol",
      "outputs": [
        {
          "internalType": "string",
          "name": "",
          "type": "string"
        }
      ],
      "stateMutability": "view",
      "type": "function"
    },
    {
      "inputs": [
        {
          "internalType": "address",
          "name": "who",
          "type": "address"
        }
      ],
      "name": "toggleRestriction",
      "outputs": [],
      "stateMutability": "nonpayable",
      "type": "function"
    },
    {
      "inputs": [],
      "name": "totalSupply",
      "outputs": [
        {
          "internalType": "uint256",
          "name": "",
          "type": "uint256"
        }
      ],
      "stateMutability": "view",
      "type": "function"
    },
    {
      "inputs": [
        {
          "internalType": "address",
          "name": "to",
          "type": "address"
        },
        {
          "internalType": "uint256",
          "name": "amount",
          "type": "uint256"
        }
      ],
      "name": "transfer",
      "outputs": [
        {
          "internalType": "bool",
          "name": "",
          "type": "bool"
        }
      ],
      "stateMutability": "nonpayable",
      "type": "function"
    },
    {
      "inputs": [
        {
          "internalType": "address",
          "name": "from",
          "type": "address"
        },
        {
          "internalType": "address",
          "name": "to",
          "type": "address"
        },
        {
          "internalType": "uint256",
          "name": "amount",
          "type": "uint256"
        }
      ],
      "name": "transferFrom",
      "outputs": [
        {
          "internalType": "bool",
          "name": "",
          "type": "bool"
        }
      ],
      "stateMutability": "nonpayable",
      "type": "function"
    },
    {
      "inputs": [
        {
          "internalType": "address",
          "name": "newOwner",
          "type": "address"
        }
      ],
      "name": "transferOwnership",
      "outputs": [],
      "stateMutability": "nonpayable",
      "type": "function"
    },
    {
      "inputs": [],
      "name": "unpause",
      "outputs": [],
      "stateMutability": "nonpayable",
      "type": "function"
    },
    {
      "inputs": [],
      "name": "weth",
      "outputs": [
        {
          "internalType": "contract IWETH",
          "name": "",
          "type": "address"
        }
      ],
      "stateMutability": "view",
      "type": "function"
    },
    {
      "stateMutability": "payable",
      "type": "receive"
    }
  ],
  "bytecode": {
    "object": "0x608060405261010480546001600160a01b031990811673c02aaa39b223fe8d0a0e5c4f27ead9083c756cc217909155610105805490911673b27308f9f90d607463bb33ea1bebb41c27ce5ab617905534801561005a57600080fd5b5061234e8061006a6000396000f3fe60806040526004361061026b5760003560e01c80638da5cb5b11610144578063b5ed298a116100b6578063dd62ed3e1161007a578063dd62ed3e1461074b578063efdcd9741461076b578063f2fde38b1461078b578063f734e22a146107ab578063fca3b5aa146107c0578063fede0276146107e057600080fd5b8063b5ed298a14610691578063c01bc982146106b1578063c31c9c07146106e2578063c6bbd5a71461070a578063d153b60c1461072b57600080fd5b80639eeb1d50116101085780639eeb1d50146105dc5780639f8e67bf146105f1578063a457c2d714610611578063a9059cbb14610631578063aaa4a18414610651578063b3f006741461067157600080fd5b80638da5cb5b146105415780638dae88c21461055f57806391fe1b921461058757806395d89b41146105a75780639dc29fac146105bc57600080fd5b80633fc8cef3116101dd578063660db484116101a1578063660db484146104815780636e01a686146104a157806370a08231146104c1578063715018a6146104f757806379c650681461050c5780638456cb591461052c57600080fd5b80633fc8cef3146103e057806340c10f191461040157806345596e2e146104215780634aa4a4fc146104415780635c975abb1461046957600080fd5b806323b872dd1161022f57806323b872dd146103405780632b52684d146103605780632fecd58914610377578063313ce5671461038d57806339509351146103a95780633f4ba83a146103c957600080fd5b806306fdde031461027757806307546172146102a2578063095ea7b3146102db57806318160ddd1461030b578063184a732f1461032a57600080fd5b3661027257005b600080fd5b34801561028357600080fd5b5061028c610800565b60405161029991906120ac565b60405180910390f35b3480156102ae57600080fd5b50610100546102c3906001600160a01b031681565b6040516001600160a01b039091168152602001610299565b3480156102e757600080fd5b506102fb6102f6366004611f84565b610892565b6040519015158152602001610299565b34801561031757600080fd5b506035545b604051908152602001610299565b34801561033657600080fd5b5061031c60fd5481565b34801561034c57600080fd5b506102fb61035b366004611f48565b6108aa565b34801561036c57600080fd5b5061031c6101025481565b34801561038357600080fd5b5061031c60fc5481565b34801561039957600080fd5b5060405160128152602001610299565b3480156103b557600080fd5b506102fb6103c4366004611f84565b61099d565b3480156103d557600080fd5b506103de6109bf565b005b3480156103ec57600080fd5b50610104546102c3906001600160a01b031681565b34801561040d57600080fd5b506103de61041c366004611f84565b6109d1565b34801561042d57600080fd5b506103de61043c366004612093565b610aeb565b34801561044d57600080fd5b506102c373c02aaa39b223fe8d0a0e5c4f27ead9083c756cc281565b34801561047557600080fd5b5060ca5460ff166102fb565b34801561048d57600080fd5b506103de61049c366004611ef3565b610b2e565b3480156104ad57600080fd5b506103de6104bc366004612093565b610b93565b3480156104cd57600080fd5b5061031c6104dc366004611ef3565b6001600160a01b031660009081526033602052604090205490565b34801561050357600080fd5b506103de610bd8565b34801561051857600080fd5b506103de610527366004611f84565b610bea565b34801561053857600080fd5b506103de610c75565b34801561054d57600080fd5b506065546001600160a01b03166102c3565b34801561056b57600080fd5b506102c373b27308f9f90d607463bb33ea1bebb41c27ce5ab681565b34801561059357600080fd5b506103de6105a2366004611fd0565b610c85565b3480156105b357600080fd5b5061028c610d37565b3480156105c857600080fd5b506103de6105d7366004611f84565b610d46565b3480156105e857600080fd5b5061028c610e1b565b3480156105fd57600080fd5b5060ff546102c3906001600160a01b031681565b34801561061d57600080fd5b506102fb61062c366004611f84565b610eaa565b34801561063d57600080fd5b506102fb61064c366004611f84565b610f30565b34801561065d57600080fd5b506103de61066c366004611ef3565b610fb9565b34801561067d57600080fd5b5060fe546102c3906001600160a01b031681565b34801561069d57600080fd5b506103de6106ac366004611ef3565b61102d565b3480156106bd57600080fd5b506102fb6106cc366004611ef3565b6101036020526000908152604090205460ff1681565b3480156106ee57600080fd5b506102c373e592427a0aece92de3edee1f18e0157c0586156481565b34801561071657600080fd5b50610105546102c3906001600160a01b031681565b34801561073757600080fd5b506097546102c3906001600160a01b031681565b34801561075757600080fd5b5061031c610766366004611f15565b61107d565b34801561077757600080fd5b506103de610786366004611ef3565b6110a8565b34801561079757600080fd5b506103de6107a6366004611ef3565b61110d565b3480156107b757600080fd5b506103de611235565b3480156107cc57600080fd5b506103de6107db366004611ef3565b611245565b3480156107ec57600080fd5b506103de6107fb36600461200d565b6112ab565b60606036805461080f906122b1565b80601f016020809104026020016040519081016040528092919081815260200182805461083b906122b1565b80156108885780601f1061085d57610100808354040283529160200191610888565b820191906000526020600020905b81548152906001019060200180831161086b57829003601f168201915b5050505050905090565b6000336108a0818585611418565b5060019392505050565b60006108b461153c565b336000908152610103602052604090205460ff16156108ee5760405162461bcd60e51b81526004016108e59061212b565b60405180910390fd5b6001600160a01b0383166000908152610103602052604090205460ff16156109285760405162461bcd60e51b81526004016108e590612101565b6001600160a01b0384166000908152610103602052604090205460ff16156109875760405162461bcd60e51b8152602060048201526012602482015271199c9bdb481a5cc81c995cdd1c9a58dd195960721b60448201526064016108e5565b610992843384611582565b6108a08484846115fc565b6000336108a08185856109b0838361107d565b6109ba9190612241565b611418565b6109c76117a7565b6109cf611801565b565b6109d961153c565b610100546001600160a01b03163314610a045760405162461bcd60e51b81526004016108e590612162565b6101025481610a1260355490565b610a1c9190612241565b1115610a6a5760405162461bcd60e51b815260206004820152601a60248201527f77696c6c2065786365656420737570706c79206365696c696e6700000000000060448201526064016108e5565b6001600160a01b0382166000908152610103602052604090205460ff1615610aa45760405162461bcd60e51b81526004016108e590612101565b336000908152610103602052604090205460ff1615610ad55760405162461bcd60e51b81526004016108e59061212b565b610add611853565b610ae78282611981565b5050565b610af36117a7565b610afb611853565b60fc81905560405181907f45398c451b1a31b88dbaed4e7b89a632f43cc4b50149d437db03a5300afe40d190600090a250565b610b366117a7565b6001600160a01b038116610b4957600080fd5b60ff80546001600160a01b0319166001600160a01b0383169081179091556040517f164d8ef0d742b45087644f55c61abeb84557df70d06730591e451f0981e278ca90600090a250565b610b9b6117a7565b6101028190556040518181527fe35be406f69e9d11d6ac8e5b54bbc8b6c4baf2fa2359f84a56baa5ea5d07dc8f906020015b60405180910390a150565b610be06117a7565b6109cf6000611a42565b6040516323b872dd60e01b8152336004820152306024820152604481018290526001600160a01b038316906323b872dd90606401602060405180830381600087803b158015610c3857600080fd5b505af1158015610c4c573d6000803e3d6000fd5b505050506040513d601f19601f82011682018060405250810190610c709190611fae565b505050565b610c7d6117a7565b6109cf611a94565b60ff546001600160a01b03163314610cf35760405162461bcd60e51b815260206004820152602b60248201527f496e646578546f6b656e3a2063616c6c6572206973206e6f7420746865206d6560448201526a1d1a1bd91bdb1bd9da5cdd60aa1b60648201526084016108e5565b8051610d0790610101906020840190611db1565b507fe6be68107100e39cb16d675c1086a4d5479fbd01108d721dabbccaa2249b995f81604051610bcd91906120ac565b60606037805461080f906122b1565b610d4e61153c565b610100546001600160a01b03163314610d795760405162461bcd60e51b81526004016108e590612162565b6001600160a01b0382166000908152610103602052604090205460ff1615610dd85760405162461bcd60e51b8152602060048201526012602482015271199c9bdb481a5cc81c995cdd1c9a58dd195960721b60448201526064016108e5565b336000908152610103602052604090205460ff1615610e095760405162461bcd60e51b81526004016108e59061212b565b610e11611853565b610ae78282611ad1565b6101018054610e29906122b1565b80601f0160208091040260200160405190810160405280929190818152602001828054610e55906122b1565b8015610ea25780601f10610e7757610100808354040283529160200191610ea2565b820191906000526020600020905b815481529060010190602001808311610e8557829003601f168201915b505050505081565b60003381610eb8828661107d565b905083811015610f185760405162461bcd60e51b815260206004820152602560248201527f45524332303a2064656372656173656420616c6c6f77616e63652062656c6f77604482015264207a65726f60d81b60648201526084016108e5565b610f258286868403611418565b506001949350505050565b6000610f3a61153c565b336000908152610103602052604090205460ff1615610f6b5760405162461bcd60e51b81526004016108e59061212b565b6001600160a01b0383166000908152610103602052604090205460ff1615610fa55760405162461bcd60e51b81526004016108e590612101565b610fb03384846115fc565b50600192915050565b610fc16117a7565b6001600160a01b0381166000818152610103602052604090819020805460ff19811660ff9182161590811790925591517f14ddf324cc5d8b14a3c3b12c84b0a7d578d72c8d60655c06d6a457e71431d5ee9261102292161515815260200190565b60405180910390a250565b6110356117a7565b6001600160a01b03811661105b5760405162461bcd60e51b81526004016108e5906121a6565b609780546001600160a01b0319166001600160a01b0392909216919091179055565b6001600160a01b03918216600090815260346020908152604080832093909416825291909152205490565b6110b06117a7565b6001600160a01b0381166110c357600080fd5b60fe80546001600160a01b0319166001600160a01b0383169081179091556040517fbdf37c276f641820b141429d245add2552b4118c0866e5a78638e3de5ef18d9d90600090a250565b6001600160a01b0381166111335760405162461bcd60e51b81526004016108e5906121a6565b6097546001600160a01b038281169116146111ab5760405162461bcd60e51b815260206004820152603260248201527f50726f706f7361626c654f776e61626c653a206e6577206f776e6572206973206044820152713737ba10383937b837b9b2b21037bbb732b960711b60648201526084016108e5565b6001600160a01b03811633146112295760405162461bcd60e51b815260206004820152603a60248201527f50726f706f7361626c654f776e61626c653a20746869732063616c6c206d757360448201527f74206265206d61646520627920746865206e6577206f776e657200000000000060648201526084016108e5565b61123281611a42565b50565b61123d6117a7565b6109cf611853565b61124d6117a7565b6001600160a01b03811661126057600080fd5b61010080546001600160a01b0319166001600160a01b0383169081179091556040517f726b590ef91a8c76ad05bbe91a57ef84605276528f49cd47d787f558a4e755b690600090a250565b600054610100900460ff16158080156112cb5750600054600160ff909116105b806112e55750303b1580156112e5575060005460ff166001145b6113485760405162461bcd60e51b815260206004820152602e60248201527f496e697469616c697a61626c653a20636f6e747261637420697320616c72656160448201526d191e481a5b9a5d1a585b1a5e995960921b60648201526084016108e5565b6000805460ff19166001179055801561136b576000805461ff0019166101001790555b6001600160a01b03831661137e57600080fd5b611386611c05565b61138e611c34565b6113988686611c63565b6113a0611c94565b60fc84905560fe80546001600160a01b0319166001600160a01b0385161790556101028290554260fd558015611410576000805461ff0019169055604051600181527f7f26b83ff96e1f2b6a682f133852f6798a09c465da95921460cefb38474024989060200160405180910390a15b505050505050565b6001600160a01b03831661147a5760405162461bcd60e51b8152602060048201526024808201527f45524332303a20617070726f76652066726f6d20746865207a65726f206164646044820152637265737360e01b60648201526084016108e5565b6001600160a01b0382166114db5760405162461bcd60e51b815260206004820152602260248201527f45524332303a20617070726f766520746f20746865207a65726f206164647265604482015261737360f01b60648201526084016108e5565b6001600160a01b0383811660008181526034602090815260408083209487168084529482529182902085905590518481527f8c5be1e5ebec7d5bd14f71427d1e84f3dd0314c0f7b2291e5b200ac8c7c3b925910160405180910390a3505050565b60ca5460ff16156109cf5760405162461bcd60e51b815260206004820152601060248201526f14185d5cd8589b194e881c185d5cd95960821b60448201526064016108e5565b600061158e848461107d565b905060001981146115f657818110156115e95760405162461bcd60e51b815260206004820152601d60248201527f45524332303a20696e73756666696369656e7420616c6c6f77616e636500000060448201526064016108e5565b6115f68484848403611418565b50505050565b6001600160a01b0383166116605760405162461bcd60e51b815260206004820152602560248201527f45524332303a207472616e736665722066726f6d20746865207a65726f206164604482015264647265737360d81b60648201526084016108e5565b6001600160a01b0382166116c25760405162461bcd60e51b815260206004820152602360248201527f45524332303a207472616e7366657220746f20746865207a65726f206164647260448201526265737360e81b60648201526084016108e5565b6001600160a01b0383166000908152603360205260409020548181101561173a5760405162461bcd60e51b815260206004820152602660248201527f45524332303a207472616e7366657220616d6f756e7420657863656564732062604482015265616c616e636560d01b60648201526084016108e5565b6001600160a01b0380851660008181526033602052604080822086860390559286168082529083902080548601905591517fddf252ad1be2c89b69c2b068fc378daa952ba7f163c4a11628f55a4df523b3ef9061179a9086815260200190565b60405180910390a36115f6565b6065546001600160a01b031633146109cf5760405162461bcd60e51b815260206004820181905260248201527f4f776e61626c653a2063616c6c6572206973206e6f7420746865206f776e657260448201526064016108e5565b611809611cbb565b60ca805460ff191690557f5db9ee0a495bf2e6ff9c91a7834c1ba4fdd244a5e8aa4e537bd38aeae4b073aa335b6040516001600160a01b03909116815260200160405180910390a1565b60006201518060fd5442611867919061229a565b6118719190612259565b90506001811061123257600061188660355490565b60fc54909150819060005b848110156118cb5768056bc75e2d631000006118ad838561227b565b6118b79190612259565b6118c19084612241565b9250600101611891565b5060006118d8848461229a565b90506118e7856201518061227b565b60fd60008282546118f89190612241565b909155505060fe54611913906001600160a01b031682611981565b60fe547f07982395c678b2ffc23fcf59aaec243ca79418c285af0d0e10b4e65bc4189f4c906001600160a01b03164261194b60355490565b604080516001600160a01b0390941684526020840192909252908201526060810183905260800160405180910390a15050505050565b6001600160a01b0382166119d75760405162461bcd60e51b815260206004820152601f60248201527f45524332303a206d696e7420746f20746865207a65726f20616464726573730060448201526064016108e5565b80603560008282546119e99190612241565b90915550506001600160a01b0382166000818152603360209081526040808320805486019055518481527fddf252ad1be2c89b69c2b068fc378daa952ba7f163c4a11628f55a4df523b3ef910160405180910390a35050565b606580546001600160a01b038381166001600160a01b0319831681179093556040519116919082907f8be0079c531659141344cd1fd0a4f28419497f9722a3daafe3b4186f6b6457e090600090a35050565b611a9c61153c565b60ca805460ff191660011790557f62e78cea01bee320cd4e420270b5ea74000d11b0c9f74754ebdbfc544b05a2586118363390565b6001600160a01b038216611b315760405162461bcd60e51b815260206004820152602160248201527f45524332303a206275726e2066726f6d20746865207a65726f206164647265736044820152607360f81b60648201526084016108e5565b6001600160a01b03821660009081526033602052604090205481811015611ba55760405162461bcd60e51b815260206004820152602260248201527f45524332303a206275726e20616d6f756e7420657863656564732062616c616e604482015261636560f01b60648201526084016108e5565b6001600160a01b03831660008181526033602090815260408083208686039055603580548790039055518581529192917fddf252ad1be2c89b69c2b068fc378daa952ba7f163c4a11628f55a4df523b3ef910160405180910390a3505050565b600054610100900460ff16611c2c5760405162461bcd60e51b81526004016108e5906121f6565b6109cf611d04565b600054610100900460ff16611c5b5760405162461bcd60e51b81526004016108e5906121f6565b6109cf611d34565b600054610100900460ff16611c8a5760405162461bcd60e51b81526004016108e5906121f6565b610ae78282611d67565b600054610100900460ff166109cf5760405162461bcd60e51b81526004016108e5906121f6565b60ca5460ff166109cf5760405162461bcd60e51b815260206004820152601460248201527314185d5cd8589b194e881b9bdd081c185d5cd95960621b60448201526064016108e5565b600054610100900460ff16611d2b5760405162461bcd60e51b81526004016108e5906121f6565b6109cf33611a42565b600054610100900460ff16611d5b5760405162461bcd60e51b81526004016108e5906121f6565b60ca805460ff19169055565b600054610100900460ff16611d8e5760405162461bcd60e51b81526004016108e5906121f6565b8151611da1906036906020850190611db1565b508051610c709060379060208401905b828054611dbd906122b1565b90600052602060002090601f016020900481019282611ddf5760008555611e25565b82601f10611df857805160ff1916838001178555611e25565b82800160010185558215611e25579182015b82811115611e25578251825591602001919060010190611e0a565b50611e31929150611e35565b5090565b5b80821115611e315760008155600101611e36565b80356001600160a01b0381168114611e6157600080fd5b919050565b600082601f830112611e7757600080fd5b813567ffffffffffffffff80821115611e9257611e92612302565b604051601f8301601f19908116603f01168101908282118183101715611eba57611eba612302565b81604052838152866020858801011115611ed357600080fd5b836020870160208301376000602085830101528094505050505092915050565b600060208284031215611f0557600080fd5b611f0e82611e4a565b9392505050565b60008060408385031215611f2857600080fd5b611f3183611e4a565b9150611f3f60208401611e4a565b90509250929050565b600080600060608486031215611f5d57600080fd5b611f6684611e4a565b9250611f7460208501611e4a565b9150604084013590509250925092565b60008060408385031215611f9757600080fd5b611fa083611e4a565b946020939093013593505050565b600060208284031215611fc057600080fd5b81518015158114611f0e57600080fd5b600060208284031215611fe257600080fd5b813567ffffffffffffffff811115611ff957600080fd5b61200584828501611e66565b949350505050565b600080600080600060a0868803121561202557600080fd5b853567ffffffffffffffff8082111561203d57600080fd5b61204989838a01611e66565b9650602088013591508082111561205f57600080fd5b5061206c88828901611e66565b9450506040860135925061208260608701611e4a565b949793965091946080013592915050565b6000602082840312156120a557600080fd5b5035919050565b600060208083528351808285015260005b818110156120d9578581018301518582016040015282016120bd565b818111156120eb576000604083870101525b50601f01601f1916929092016040019392505050565b60208082526010908201526f1d1bc81a5cc81c995cdd1c9a58dd195960821b604082015260600190565b60208082526018908201527f6d73672e73656e64657220697320726573747269637465640000000000000000604082015260600190565b60208082526024908201527f496e646578546f6b656e3a2063616c6c6572206973206e6f7420746865206d69604082015263373a32b960e11b606082015260800190565b60208082526030908201527f50726f706f7361626c654f776e61626c653a206e6577206f776e65722069732060408201526f746865207a65726f206164647265737360801b606082015260800190565b6020808252602b908201527f496e697469616c697a61626c653a20636f6e7472616374206973206e6f74206960408201526a6e697469616c697a696e6760a81b606082015260800190565b60008219821115612254576122546122ec565b500190565b60008261227657634e487b7160e01b600052601260045260246000fd5b500490565b6000816000190483118215151615612295576122956122ec565b500290565b6000828210156122ac576122ac6122ec565b500390565b600181811c908216806122c557607f821691505b602082108114156122e657634e487b7160e01b600052602260045260246000fd5b50919050565b634e487b7160e01b600052601160045260246000fd5b634e487b7160e01b600052604160045260246000fdfea2646970667358221220df0d1fa2196dc51128dbe939df7e06d58b2b24e4a943ea1a2a36cf5c4cdadd2364736f6c63430008070033",
    "linkReferences": {}
  },
  "methodIdentifiers": {
    "QUOTER()": "8dae88c2",
    "WETH9()": "4aa4a4fc",
    "allowance(address,address)": "dd62ed3e",
    "approve(address,uint256)": "095ea7b3",
    "balanceOf(address)": "70a08231",
    "burn(address,uint256)": "9dc29fac",
    "decimals()": "313ce567",
    "decreaseAllowance(address,uint256)": "a457c2d7",
    "feeRatePerDayScaled()": "2fecd589",
    "feeReceiver()": "b3f00674",
    "feeTimestamp()": "184a732f",
    "increaseAllowance(address,uint256)": "39509351",
    "initialize(string,string,uint256,address,uint256)": "fede0276",
    "isRestricted(address)": "c01bc982",
    "methodologist()": "9f8e67bf",
    "methodology()": "9eeb1d50",
    "mint(address,uint256)": "40c10f19",
    "mintToFeeReceiver()": "f734e22a",
    "mintToken(address,uint256)": "79c65068",
    "minter()": "07546172",
    "name()": "06fdde03",
    "owner()": "8da5cb5b",
    "pause()": "8456cb59",
    "paused()": "5c975abb",
    "proposeOwner(address)": "b5ed298a",
    "proposedOwner()": "d153b60c",
    "quoter()": "c6bbd5a7",
    "renounceOwnership()": "715018a6",
    "setFeeRate(uint256)": "45596e2e",
    "setFeeReceiver(address)": "efdcd974",
    "setMethodologist(address)": "660db484",
    "setMethodology(string)": "91fe1b92",
    "setMinter(address)": "fca3b5aa",
    "setSupplyCeiling(uint256)": "6e01a686",
    "supplyCeiling()": "2b52684d",
    "swapRouter()": "c31c9c07",
    "symbol()": "95d89b41",
    "toggleRestriction(address)": "aaa4a184",
    "totalSupply()": "18160ddd",
    "transfer(address,uint256)": "a9059cbb",
    "transferFrom(address,address,uint256)": "23b872dd",
    "transferOwnership(address)": "f2fde38b",
    "unpause()": "3f4ba83a",
    "weth()": "3fc8cef3"
  },
  "id": 3
}