{
  "abi": [
    {
      "anonymous": false,
      "inputs": [
        {
          "indexed": true,
          "internalType": "address",
          "name": "owner",
          "type": "address"
        },
        {
          "indexed": true,
          "internalType": "address",
          "name": "spender",
          "type": "address"
        },
        {
          "indexed": false,
          "internalType": "uint256",
          "name": "value",
          "type": "uint256"
        }
      ],
      "name": "Approval",
      "type": "event"
    },
    {
      "anonymous": false,
      "inputs": [
        {
          "indexed": true,
          "internalType": "uint256",
          "name": "feeRatePerDayScaled",
          "type": "uint256"
        }
      ],
      "name": "FeeRateSet",
      "type": "event"
    },
    {
      "anonymous": false,
      "inputs": [
        {
          "indexed": true,
          "internalType": "address",
          "name": "feeReceiver",
          "type": "address"
        }
      ],
      "name": "FeeReceiverSet",
      "type": "event"
    },
    {
      "anonymous": false,
      "inputs": [
        {
          "indexed": false,
          "internalType": "uint8",
          "name": "version",
          "type": "uint8"
        }
      ],
      "name": "Initialized",
      "type": "event"
    },
    {
      "anonymous": false,
      "inputs": [
        {
          "indexed": true,
          "internalType": "address",
          "name": "methodologist",
          "type": "address"
        }
      ],
      "name": "MethodologistSet",
      "type": "event"
    },
    {
      "anonymous": false,
      "inputs": [
        {
          "indexed": false,
          "internalType": "string",
          "name": "methodology",
          "type": "string"
        }
      ],
      "name": "MethodologySet",
      "type": "event"
    },
    {
      "anonymous": false,
      "inputs": [
        {
          "indexed": false,
          "internalType": "address",
          "name": "feeReceiver",
          "type": "address"
        },
        {
          "indexed": false,
          "internalType": "uint256",
          "name": "timestamp",
          "type": "uint256"
        },
        {
          "indexed": false,
          "internalType": "uint256",
          "name": "totalSupply",
          "type": "uint256"
        },
        {
          "indexed": false,
          "internalType": "uint256",
          "name": "amount",
          "type": "uint256"
        }
      ],
      "name": "MintFeeToReceiver",
      "type": "event"
    },
    {
      "anonymous": false,
      "inputs": [
        {
          "indexed": true,
          "internalType": "address",
          "name": "minter",
          "type": "address"
        }
      ],
      "name": "MinterSet",
      "type": "event"
    },
    {
      "anonymous": false,
      "inputs": [
        {
          "indexed": true,
          "internalType": "address",
          "name": "previousOwner",
          "type": "address"
        },
        {
          "indexed": true,
          "internalType": "address",
          "name": "newOwner",
          "type": "address"
        }
      ],
      "name": "OwnershipTransferred",
      "type": "event"
    },
    {
      "anonymous": false,
      "inputs": [
        {
          "indexed": false,
          "internalType": "address",
          "name": "account",
          "type": "address"
        }
      ],
      "name": "Paused",
      "type": "event"
    },
    {
      "anonymous": false,
      "inputs": [
        {
          "indexed": false,
          "internalType": "uint256",
          "name": "supplyCeiling",
          "type": "uint256"
        }
      ],
      "name": "SupplyCeilingSet",
      "type": "event"
    },
    {
      "anonymous": false,
      "inputs": [
        {
          "indexed": true,
          "internalType": "address",
          "name": "account",
          "type": "address"
        },
        {
          "indexed": false,
          "internalType": "bool",
          "name": "isRestricted",
          "type": "bool"
        }
      ],
      "name": "ToggledRestricted",
      "type": "event"
    },
    {
      "anonymous": false,
      "inputs": [
        {
          "indexed": true,
          "internalType": "address",
          "name": "from",
          "type": "address"
        },
        {
          "indexed": true,
          "internalType": "address",
          "name": "to",
          "type": "address"
        },
        {
          "indexed": false,
          "internalType": "uint256",
          "name": "value",
          "type": "uint256"
        }
      ],
      "name": "Transfer",
      "type": "event"
    },
    {
      "anonymous": false,
      "inputs": [
        {
          "indexed": false,
          "internalType": "address",
          "name": "account",
          "type": "address"
        }
      ],
      "name": "Unpaused",
      "type": "event"
    },
    {
      "inputs": [],
      "name": "BONE",
      "outputs": [
        {
          "internalType": "address",
          "name": "",
          "type": "address"
        }
      ],
      "stateMutability": "view",
      "type": "function"
    },
    {
      "inputs": [],
      "name": "BabyDoge",
      "outputs": [
        {
          "internalType": "address",
          "name": "",
          "type": "address"
        }
      ],
      "stateMutability": "view",
      "type": "function"
    },
    {
      "inputs": [],
      "name": "ELON",
      "outputs": [
        {
          "internalType": "address",
          "name": "",
          "type": "address"
        }
      ],
      "stateMutability": "view",
      "type": "function"
    },
    {
      "inputs": [],
      "name": "FLOKI",
      "outputs": [
        {
          "internalType": "address",
          "name": "",
          "type": "address"
        }
      ],
      "stateMutability": "view",
      "type": "function"
    },
    {
      "inputs": [],
      "name": "HarryPotterObamaSonic10Inu",
      "outputs": [
        {
          "internalType": "address",
          "name": "",
          "type": "address"
        }
      ],
      "stateMutability": "view",
      "type": "function"
    },
    {
      "inputs": [],
      "name": "LEASH",
      "outputs": [
        {
          "internalType": "address",
          "name": "",
          "type": "address"
        }
      ],
      "stateMutability": "view",
      "type": "function"
    },
    {
      "inputs": [],
      "name": "MEME",
      "outputs": [
        {
          "internalType": "address",
          "name": "",
          "type": "address"
        }
      ],
      "stateMutability": "view",
      "type": "function"
    },
    {
      "inputs": [],
      "name": "PEPE",
      "outputs": [
        {
          "internalType": "address",
          "name": "",
          "type": "address"
        }
      ],
      "stateMutability": "view",
      "type": "function"
    },
    {
      "inputs": [],
      "name": "QUOTER",
      "outputs": [
        {
          "internalType": "address",
          "name": "",
          "type": "address"
        }
      ],
      "stateMutability": "view",
      "type": "function"
    },
    {
      "inputs": [],
      "name": "SHIB",
      "outputs": [
        {
          "internalType": "address",
          "name": "",
          "type": "address"
        }
      ],
      "stateMutability": "view",
      "type": "function"
    },
    {
      "inputs": [],
      "name": "WETH9",
      "outputs": [
        {
          "internalType": "address",
          "name": "",
          "type": "address"
        }
      ],
      "stateMutability": "view",
      "type": "function"
    },
    {
      "inputs": [],
      "name": "WSM",
      "outputs": [
        {
          "internalType": "address",
          "name": "",
          "type": "address"
        }
      ],
      "stateMutability": "view",
      "type": "function"
    },
    {
      "inputs": [
        {
          "internalType": "address",
          "name": "owner",
          "type": "address"
        },
        {
          "internalType": "address",
          "name": "spender",
          "type": "address"
        }
      ],
      "name": "allowance",
      "outputs": [
        {
          "internalType": "uint256",
          "name": "",
          "type": "uint256"
        }
      ],
      "stateMutability": "view",
      "type": "function"
    },
    {
      "inputs": [
        {
          "internalType": "address",
          "name": "spender",
          "type": "address"
        },
        {
          "internalType": "uint256",
          "name": "amount",
          "type": "uint256"
        }
      ],
      "name": "approve",
      "outputs": [
        {
          "internalType": "bool",
          "name": "",
          "type": "bool"
        }
      ],
      "stateMutability": "nonpayable",
      "type": "function"
    },
    {
      "inputs": [
        {
          "internalType": "address",
          "name": "account",
          "type": "address"
        }
      ],
      "name": "balanceOf",
      "outputs": [
        {
          "internalType": "uint256",
          "name": "",
          "type": "uint256"
        }
      ],
      "stateMutability": "view",
      "type": "function"
    },
    {
      "inputs": [
        {
          "internalType": "address",
          "name": "from",
          "type": "address"
        },
        {
          "internalType": "uint256",
          "name": "amount",
          "type": "uint256"
        }
      ],
      "name": "burn",
      "outputs": [],
      "stateMutability": "nonpayable",
      "type": "function"
    },
    {
      "inputs": [],
      "name": "decimals",
      "outputs": [
        {
          "internalType": "uint8",
          "name": "",
          "type": "uint8"
        }
      ],
      "stateMutability": "view",
      "type": "function"
    },
    {
      "inputs": [
        {
          "internalType": "address",
          "name": "spender",
          "type": "address"
        },
        {
          "internalType": "uint256",
          "name": "subtractedValue",
          "type": "uint256"
        }
      ],
      "name": "decreaseAllowance",
      "outputs": [
        {
          "internalType": "bool",
          "name": "",
          "type": "bool"
        }
      ],
      "stateMutability": "nonpayable",
      "type": "function"
    },
    {
      "inputs": [],
      "name": "factoryV2",
      "outputs": [
        {
          "internalType": "contract IUniswapV2Factory",
          "name": "",
          "type": "address"
        }
      ],
      "stateMutability": "view",
      "type": "function"
    },
    {
      "inputs": [],
      "name": "factoryV3",
      "outputs": [
        {
          "internalType": "contract IUniswapV3Factory",
          "name": "",
          "type": "address"
        }
      ],
      "stateMutability": "view",
      "type": "function"
    },
    {
      "inputs": [],
      "name": "feeRatePerDayScaled",
      "outputs": [
        {
          "internalType": "uint256",
          "name": "",
          "type": "uint256"
        }
      ],
      "stateMutability": "view",
      "type": "function"
    },
    {
      "inputs": [],
      "name": "feeReceiver",
      "outputs": [
        {
          "internalType": "address",
          "name": "",
          "type": "address"
        }
      ],
      "stateMutability": "view",
      "type": "function"
    },
    {
      "inputs": [],
      "name": "feeTimestamp",
      "outputs": [
        {
          "internalType": "uint256",
          "name": "",
          "type": "uint256"
        }
      ],
      "stateMutability": "view",
      "type": "function"
    },
    {
      "inputs": [
        {
          "internalType": "address",
          "name": "tokenIn",
          "type": "address"
        },
        {
          "internalType": "address",
          "name": "tokenOut",
          "type": "address"
        },
        {
          "internalType": "uint256",
          "name": "amountIn",
          "type": "uint256"
        }
      ],
      "name": "getAmountOut",
      "outputs": [
        {
          "internalType": "uint256",
          "name": "finalAmountOut",
          "type": "uint256"
        },
        {
          "internalType": "enum IndexToken.DexStatus",
          "name": "dexStatus",
          "type": "uint8"
        }
      ],
      "stateMutability": "nonpayable",
      "type": "function"
    },
    {
      "inputs": [],
      "name": "getAmounts",
      "outputs": [
        {
          "internalType": "uint256",
          "name": "",
          "type": "uint256"
        },
        {
          "internalType": "uint256",
          "name": "",
          "type": "uint256"
        }
      ],
      "stateMutability": "nonpayable",
      "type": "function"
    },
    {
      "inputs": [],
      "name": "getPool",
      "outputs": [
        {
          "internalType": "address",
          "name": "",
          "type": "address"
        },
        {
          "internalType": "address",
          "name": "",
          "type": "address"
        }
      ],
      "stateMutability": "nonpayable",
      "type": "function"
    },
    {
      "inputs": [],
      "name": "getPortfolioBalance",
      "outputs": [],
      "stateMutability": "nonpayable",
      "type": "function"
    },
    {
      "inputs": [
        {
          "internalType": "address",
          "name": "spender",
          "type": "address"
        },
        {
          "internalType": "uint256",
          "name": "addedValue",
          "type": "uint256"
        }
      ],
      "name": "increaseAllowance",
      "outputs": [
        {
          "internalType": "bool",
          "name": "",
          "type": "bool"
        }
      ],
      "stateMutability": "nonpayable",
      "type": "function"
    },
    {
      "inputs": [
        {
          "internalType": "string",
          "name": "tokenName",
          "type": "string"
        },
        {
          "internalType": "string",
          "name": "tokenSymbol",
          "type": "string"
        },
        {
          "internalType": "uint256",
          "name": "_feeRatePerDayScaled",
          "type": "uint256"
        },
        {
          "internalType": "address",
          "name": "_feeReceiver",
          "type": "address"
        },
        {
          "internalType": "uint256",
          "name": "_supplyCeiling",
          "type": "uint256"
        }
      ],
      "name": "initialize",
      "outputs": [],
      "stateMutability": "nonpayable",
      "type": "function"
    },
    {
      "inputs": [
        {
          "internalType": "address",
          "name": "",
          "type": "address"
        }
      ],
      "name": "isRestricted",
      "outputs": [
        {
          "internalType": "bool",
          "name": "",
          "type": "bool"
        }
      ],
      "stateMutability": "view",
      "type": "function"
    },
    {
      "inputs": [
        {
          "internalType": "address",
          "name": "tokenIn",
          "type": "address"
        },
        {
          "internalType": "uint256",
          "name": "amountIn",
          "type": "uint256"
        }
      ],
      "name": "issuanceIndexTokens",
      "outputs": [],
      "stateMutability": "nonpayable",
      "type": "function"
    },
    {
      "inputs": [],
      "name": "methodologist",
      "outputs": [
        {
          "internalType": "address",
          "name": "",
          "type": "address"
        }
      ],
      "stateMutability": "view",
      "type": "function"
    },
    {
      "inputs": [],
      "name": "methodology",
      "outputs": [
        {
          "internalType": "string",
          "name": "",
          "type": "string"
        }
      ],
      "stateMutability": "view",
      "type": "function"
    },
    {
      "inputs": [
        {
          "internalType": "address",
          "name": "to",
          "type": "address"
        },
        {
          "internalType": "uint256",
          "name": "amount",
          "type": "uint256"
        }
      ],
      "name": "mint",
      "outputs": [],
      "stateMutability": "nonpayable",
      "type": "function"
    },
    {
      "inputs": [],
      "name": "mintToFeeReceiver",
      "outputs": [],
      "stateMutability": "nonpayable",
      "type": "function"
    },
    {
      "inputs": [],
      "name": "minter",
      "outputs": [
        {
          "internalType": "address",
          "name": "",
          "type": "address"
        }
      ],
      "stateMutability": "view",
      "type": "function"
    },
    {
      "inputs": [],
      "name": "name",
      "outputs": [
        {
          "internalType": "string",
          "name": "",
          "type": "string"
        }
      ],
      "stateMutability": "view",
      "type": "function"
    },
    {
      "inputs": [],
      "name": "owner",
      "outputs": [
        {
          "internalType": "address",
          "name": "",
          "type": "address"
        }
      ],
      "stateMutability": "view",
      "type": "function"
    },
    {
      "inputs": [],
      "name": "pause",
      "outputs": [],
      "stateMutability": "nonpayable",
      "type": "function"
    },
    {
      "inputs": [],
      "name": "paused",
      "outputs": [
        {
          "internalType": "bool",
          "name": "",
          "type": "bool"
        }
      ],
      "stateMutability": "view",
      "type": "function"
    },
    {
      "inputs": [
        {
          "internalType": "address",
          "name": "_proposedOwner",
          "type": "address"
        }
      ],
      "name": "proposeOwner",
      "outputs": [],
      "stateMutability": "nonpayable",
      "type": "function"
    },
    {
      "inputs": [],
      "name": "proposedOwner",
      "outputs": [
        {
          "internalType": "address",
          "name": "",
          "type": "address"
        }
      ],
      "stateMutability": "view",
      "type": "function"
    },
    {
      "inputs": [],
      "name": "quoter",
      "outputs": [
        {
          "internalType": "contract IQuoter",
          "name": "",
          "type": "address"
        }
      ],
      "stateMutability": "view",
      "type": "function"
    },
    {
      "inputs": [
        {
          "internalType": "address",
          "name": "tokenIn",
          "type": "address"
        },
        {
          "internalType": "uint256",
          "name": "amountIn",
          "type": "uint256"
        }
      ],
      "name": "redemption",
      "outputs": [],
      "stateMutability": "nonpayable",
      "type": "function"
    },
    {
      "inputs": [],
      "name": "renounceOwnership",
      "outputs": [],
      "stateMutability": "nonpayable",
      "type": "function"
    },
    {
      "inputs": [
        {
          "internalType": "uint256",
          "name": "_feeRatePerDayScaled",
          "type": "uint256"
        }
      ],
      "name": "setFeeRate",
      "outputs": [],
      "stateMutability": "nonpayable",
      "type": "function"
    },
    {
      "inputs": [
        {
          "internalType": "address",
          "name": "_feeReceiver",
          "type": "address"
        }
      ],
      "name": "setFeeReceiver",
      "outputs": [],
      "stateMutability": "nonpayable",
      "type": "function"
    },
    {
      "inputs": [
        {
          "internalType": "address",
          "name": "_methodologist",
          "type": "address"
        }
      ],
      "name": "setMethodologist",
      "outputs": [],
      "stateMutability": "nonpayable",
      "type": "function"
    },
    {
      "inputs": [
        {
          "internalType": "string",
          "name": "_methodology",
          "type": "string"
        }
      ],
      "name": "setMethodology",
      "outputs": [],
      "stateMutability": "nonpayable",
      "type": "function"
    },
    {
      "inputs": [
        {
          "internalType": "address",
          "name": "_minter",
          "type": "address"
        }
      ],
      "name": "setMinter",
      "outputs": [],
      "stateMutability": "nonpayable",
      "type": "function"
    },
    {
      "inputs": [
        {
          "internalType": "uint256",
          "name": "_supplyCeiling",
          "type": "uint256"
        }
      ],
      "name": "setSupplyCeiling",
      "outputs": [],
      "stateMutability": "nonpayable",
      "type": "function"
    },
    {
      "inputs": [],
      "name": "supplyCeiling",
      "outputs": [
        {
          "internalType": "uint256",
          "name": "",
          "type": "uint256"
        }
      ],
      "stateMutability": "view",
      "type": "function"
    },
    {
      "inputs": [],
      "name": "swapRouterV2",
      "outputs": [
        {
          "internalType": "contract IUniswapV2Router02",
          "name": "",
          "type": "address"
        }
      ],
      "stateMutability": "view",
      "type": "function"
    },
    {
      "inputs": [],
      "name": "swapRouterV3",
      "outputs": [
        {
          "internalType": "contract ISwapRouter",
          "name": "",
          "type": "address"
        }
      ],
      "stateMutability": "view",
      "type": "function"
    },
    {
      "inputs": [],
      "name": "symbol",
      "outputs": [
        {
          "internalType": "string",
          "name": "",
          "type": "string"
        }
      ],
      "stateMutability": "view",
      "type": "function"
    },
    {
      "inputs": [
        {
          "internalType": "address",
          "name": "who",
          "type": "address"
        }
      ],
      "name": "toggleRestriction",
      "outputs": [],
      "stateMutability": "nonpayable",
      "type": "function"
    },
    {
      "inputs": [],
      "name": "totalSupply",
      "outputs": [
        {
          "internalType": "uint256",
          "name": "",
          "type": "uint256"
        }
      ],
      "stateMutability": "view",
      "type": "function"
    },
    {
      "inputs": [
        {
          "internalType": "address",
          "name": "to",
          "type": "address"
        },
        {
          "internalType": "uint256",
          "name": "amount",
          "type": "uint256"
        }
      ],
      "name": "transfer",
      "outputs": [
        {
          "internalType": "bool",
          "name": "",
          "type": "bool"
        }
      ],
      "stateMutability": "nonpayable",
      "type": "function"
    },
    {
      "inputs": [
        {
          "internalType": "address",
          "name": "from",
          "type": "address"
        },
        {
          "internalType": "address",
          "name": "to",
          "type": "address"
        },
        {
          "internalType": "uint256",
          "name": "amount",
          "type": "uint256"
        }
      ],
      "name": "transferFrom",
      "outputs": [
        {
          "internalType": "bool",
          "name": "",
          "type": "bool"
        }
      ],
      "stateMutability": "nonpayable",
      "type": "function"
    },
    {
      "inputs": [
        {
          "internalType": "address",
          "name": "newOwner",
          "type": "address"
        }
      ],
      "name": "transferOwnership",
      "outputs": [],
      "stateMutability": "nonpayable",
      "type": "function"
    },
    {
      "inputs": [],
      "name": "unpause",
      "outputs": [],
      "stateMutability": "nonpayable",
      "type": "function"
    },
    {
      "inputs": [],
      "name": "weth",
      "outputs": [
        {
          "internalType": "contract IWETH",
          "name": "",
          "type": "address"
        }
      ],
      "stateMutability": "view",
      "type": "function"
    },
    {
      "stateMutability": "payable",
      "type": "receive"
    }
  ],
  "bytecode": {
    "object": "0x61010480546001600160a01b0319167395ad61b0a150d79219dcf64e1e6cc01f0b64c4ce9081179091556101c06040526080908152736982508145454ce325ddbe47a25d4ec3d231193360a05273cf0c122c6b73ff809c693db761e7baebe62b6a2e60c05273b131f4a55907b10d1f0a50d8ab8fa09ec342cd7460e05273ac57de9c1a09fec648e93eb98875b212db0d460b61010052739813037ee2218799597d83d4a5b6f3b6778218d9610120527372e4f9f808c49a2a61de9c5896298920dc4eeea96101405273761d38e5ddf6ccf6cf7c55759d5210750b5d60f36101605273b62e45c3df611dce236a6ddc7a493d79f9dfadef610180527327c70cd1946795b66be9d954418546998b5466346101a052620001239061010590600a62000182565b5061010680546001600160a01b031990811673c02aaa39b223fe8d0a0e5c4f27ead9083c756cc217909155610107805490911673b27308f9f90d607463bb33ea1bebb41c27ce5ab61790553480156200017b57600080fd5b5062000203565b828054828255906000526020600020908101928215620001da579160200282015b82811115620001da57825182546001600160a01b0319166001600160a01b03909116178255602090920191600190910190620001a3565b50620001e8929150620001ec565b5090565b5b80821115620001e85760008155600101620001ed565b61357880620002136000396000f3fe6080604052600436106103b15760003560e01c8063744fbc7a116101e7578063b3f006741161010d578063dd62ed3e116100a0578063f2fde38b1161006f578063f2fde38b14610b84578063f734e22a14610ba4578063fca3b5aa14610bb9578063fede027614610bd957600080fd5b8063dd62ed3e14610afb578063e24b85e714610b1b578063e4fbaecb14610b3c578063efdcd97414610b6457600080fd5b8063c36596a6116100dc578063c36596a614610a6a578063c6bbd5a714610a92578063d153b60c14610ab3578063d1a72ed614610ad357600080fd5b8063b3f00674146109d1578063b5ed298a146109f1578063b631e80b14610a11578063c01bc98214610a3957600080fd5b80639dc29fac11610185578063a8509fd811610154578063a8509fd81461095a578063a9059cbb14610969578063aaa4a18414610989578063ad39e5fd146109a957600080fd5b80639dc29fac146108e55780639eeb1d50146109055780639f8e67bf1461091a578063a457c2d71461093a57600080fd5b80638da5cb5b116101c15780638da5cb5b1461086a5780638dae88c21461088857806391fe1b92146108b057806395d89b41146108d057600080fd5b8063744fbc7a1461080d5780638456cb59146108355780638be788471461084a57600080fd5b806339509351116102d75780635725a9771161026a57806368e0d4e11161023957806368e0d4e11461077a5780636e01a686146107a257806370a08231146107c2578063715018a6146107f857600080fd5b80635725a977146106fa5780635c975abb14610722578063616bcd211461073a578063660db4841461075a57600080fd5b806340c10f19116102a657806340c10f191461066a57806345596e2e1461068a5780634aa06652146106aa5780634aa4a4fc146106d857600080fd5b806339509351146105e85780633d370b4e146106085780633f4ba83a146106325780633fc8cef31461064957600080fd5b80631d5f45f51161034f5780632f9f8c131161031e5780632f9f8c13146105665780632fab7aea1461058e5780632fecd589146105b6578063313ce567146105cc57600080fd5b80631d5f45f5146104df57806323b872dd146105075780632b52684d146105275780632e7b09481461053e57600080fd5b8063095ea7b31161038b578063095ea7b3146104525780630fb405b71461048257806318160ddd146104aa578063184a732f146104c957600080fd5b8063026b1d5f146103bd57806306fdde03146103f7578063075461721461041957600080fd5b366103b857005b600080fd5b3480156103c957600080fd5b506103d2610bf9565b604080516001600160a01b039384168152929091166020830152015b60405180910390f35b34801561040357600080fd5b5061040c610d63565b6040516103ee91906131d6565b34801561042557600080fd5b506101005461043a906001600160a01b031681565b6040516001600160a01b0390911681526020016103ee565b34801561045e57600080fd5b5061047261046d366004612f87565b610df5565b60405190151581526020016103ee565b34801561048e57600080fd5b5061043a7372e4f9f808c49a2a61de9c5896298920dc4eeea981565b3480156104b657600080fd5b506035545b6040519081526020016103ee565b3480156104d557600080fd5b506104bb60fd5481565b3480156104eb57600080fd5b5061043a731f98431c8ad98523631ae4a59f267346ea31f98481565b34801561051357600080fd5b50610472610522366004612f46565b610e0d565b34801561053357600080fd5b506104bb6101025481565b34801561054a57600080fd5b5061043a73b131f4a55907b10d1f0a50d8ab8fa09ec342cd7481565b34801561057257600080fd5b5061043a73cf0c122c6b73ff809c693db761e7baebe62b6a2e81565b34801561059a57600080fd5b5061043a73761d38e5ddf6ccf6cf7c55759d5210750b5d60f381565b3480156105c257600080fd5b506104bb60fc5481565b3480156105d857600080fd5b50604051601281526020016103ee565b3480156105f457600080fd5b50610472610603366004612f87565b610f07565b34801561061457600080fd5b5061061d610f29565b604080519283526020830191909152016103ee565b34801561063e57600080fd5b50610647611161565b005b34801561065557600080fd5b506101065461043a906001600160a01b031681565b34801561067657600080fd5b50610647610685366004612f87565b611173565b34801561069657600080fd5b506106476106a5366004613147565b61128d565b3480156106b657600080fd5b506106ca6106c5366004612f46565b6112d0565b6040516103ee92919061336b565b3480156106e457600080fd5b5061043a60008051602061352383398151915281565b34801561070657600080fd5b5061043a73b62e45c3df611dce236a6ddc7a493d79f9dfadef81565b34801561072e57600080fd5b5060ca5460ff16610472565b34801561074657600080fd5b50610647610755366004612f87565b6114e0565b34801561076657600080fd5b50610647610775366004612ed3565b61159d565b34801561078657600080fd5b5061043a735c69bee701ef814a2b6a3edd4b1652cb9cc5aa6f81565b3480156107ae57600080fd5b506106476107bd366004613147565b611602565b3480156107ce57600080fd5b506104bb6107dd366004612ed3565b6001600160a01b031660009081526033602052604090205490565b34801561080457600080fd5b50610647611647565b34801561081957600080fd5b5061043a737a250d5630b4cf539739df2c5dacb4c659f2488d81565b34801561084157600080fd5b50610647611659565b34801561085657600080fd5b50610647610865366004612f87565b611669565b34801561087657600080fd5b506065546001600160a01b031661043a565b34801561089457600080fd5b5061043a73b27308f9f90d607463bb33ea1bebb41c27ce5ab681565b3480156108bc57600080fd5b506106476108cb366004613082565b611915565b3480156108dc57600080fd5b5061040c6119c7565b3480156108f157600080fd5b50610647610900366004612f87565b6119d6565b34801561091157600080fd5b5061040c611aab565b34801561092657600080fd5b5060ff5461043a906001600160a01b031681565b34801561094657600080fd5b50610472610955366004612f87565b611b3a565b34801561096657600080fd5b50005b34801561097557600080fd5b50610472610984366004612f87565b611bc0565b34801561099557600080fd5b506106476109a4366004612ed3565b611c49565b3480156109b557600080fd5b5061043a7327c70cd1946795b66be9d954418546998b54663481565b3480156109dd57600080fd5b5060fe5461043a906001600160a01b031681565b3480156109fd57600080fd5b50610647610a0c366004612ed3565b611cbd565b348015610a1d57600080fd5b5061043a73e592427a0aece92de3edee1f18e0157c0586156481565b348015610a4557600080fd5b50610472610a54366004612ed3565b6101036020526000908152604090205460ff1681565b348015610a7657600080fd5b5061043a739813037ee2218799597d83d4a5b6f3b6778218d981565b348015610a9e57600080fd5b506101075461043a906001600160a01b031681565b348015610abf57600080fd5b5060975461043a906001600160a01b031681565b348015610adf57600080fd5b5061043a73ac57de9c1a09fec648e93eb98875b212db0d460b81565b348015610b0757600080fd5b506104bb610b16366004612f0d565b611d0d565b348015610b2757600080fd5b506101045461043a906001600160a01b031681565b348015610b4857600080fd5b5061043a736982508145454ce325ddbe47a25d4ec3d231193381565b348015610b7057600080fd5b50610647610b7f366004612ed3565b611d38565b348015610b9057600080fd5b50610647610b9f366004612ed3565b611d9d565b348015610bb057600080fd5b50610647611ec5565b348015610bc557600080fd5b50610647610bd4366004612ed3565b611ed5565b348015610be557600080fd5b50610647610bf43660046130bf565b611f3b565b61010454604051630b4c774160e11b815260008051602061352383398151915260048201526001600160a01b039091166024820152610bb8604482015260009081908190731f98431c8ad98523631ae4a59f267346ea31f98490631698ee829060640160206040518083038186803b158015610c7457600080fd5b505afa158015610c88573d6000803e3d6000fd5b505050506040513d601f19601f82011682018060405250810190610cac9190612ef0565b6101045460405163e6a4390560e01b815260008051602061352383398151915260048201526001600160a01b039091166024820152909150600090735c69bee701ef814a2b6a3edd4b1652cb9cc5aa6f9063e6a4390590604401602060405180830381600087803b158015610d2057600080fd5b505af1158015610d34573d6000803e3d6000fd5b505050506040513d601f19601f82011682018060405250810190610d589190612ef0565b919491935090915050565b606060368054610d729061347a565b80601f0160208091040260200160405190810160405280929190818152602001828054610d9e9061347a565b8015610deb5780601f10610dc057610100808354040283529160200191610deb565b820191906000526020600020905b815481529060010190602001808311610dce57829003601f168201915b5050505050905090565b600033610e038185856120a8565b5060019392505050565b6000610e176121cc565b336000908152610103602052604090205460ff1615610e515760405162461bcd60e51b8152600401610e4890613255565b60405180910390fd5b6001600160a01b0383166000908152610103602052604090205460ff1615610e8b5760405162461bcd60e51b8152600401610e489061322b565b6001600160a01b0384166000908152610103602052604090205460ff1615610eea5760405162461bcd60e51b8152602060048201526012602482015271199c9bdb481a5cc81c995cdd1c9a58dd195960721b6044820152606401610e48565b610ef5843384612212565b610e0384848461228c565b9392505050565b600033610e03818585610f1a8383611d0d565b610f24919061340a565b6120a8565b6101075460405163f7729d4360e01b815260008051602061352383398151915260048201527327c70cd1946795b66be9d954418546998b5466346024820152610bb86044820152670de0b6b3a7640000606482015260006084820181905291829182916001600160a01b03169063f7729d439060a401602060405180830381600087803b158015610fb957600080fd5b505af1925050508015610fe9575060408051601f3d908101601f19168201909252610fe691810190613160565b60015b610ff557506000610ff8565b90505b6040805160028082526060820183526000926020830190803683370190505090506000805160206135238339815191528160008151811061103b5761103b6134e1565b60200260200101906001600160a01b031690816001600160a01b0316815250507327c70cd1946795b66be9d954418546998b54663481600181518110611083576110836134e1565b6001600160a01b039092166020928302919091019091015260405163d06ca61f60e01b8152600090737a250d5630b4cf539739df2c5dacb4c659f2488d9063d06ca61f906110df90670de0b6b3a76400009086906004016131bd565b60006040518083038186803b1580156110f757600080fd5b505afa92505050801561112c57506040513d6000823e601f3d908101601f191682016040526111299190810190612fb3565b60015b61113857506000610d58565b8060018151811061114b5761114b6134e1565b6020026020010151915050919491935090915050565b611169612437565b611171612491565b565b61117b6121cc565b610100546001600160a01b031633146111a65760405162461bcd60e51b8152600401610e489061328c565b61010254816111b460355490565b6111be919061340a565b111561120c5760405162461bcd60e51b815260206004820152601a60248201527f77696c6c2065786365656420737570706c79206365696c696e670000000000006044820152606401610e48565b6001600160a01b0382166000908152610103602052604090205460ff16156112465760405162461bcd60e51b8152600401610e489061322b565b336000908152610103602052604090205460ff16156112775760405162461bcd60e51b8152600401610e4890613255565b61127f6124e3565b6112898282612611565b5050565b611295612437565b61129d6124e3565b60fc81905560405181907f45398c451b1a31b88dbaed4e7b89a632f43cc4b50149d437db03a5300afe40d190600090a250565b6101075460405163f7729d4360e01b81526001600160a01b0385811660048301528481166024830152610bb860448301526064820184905260006084830181905292839283929091169063f7729d439060a401602060405180830381600087803b15801561133d57600080fd5b505af192505050801561136d575060408051601f3d908101601f1916820190925261136a91810190613160565b60015b6113795750600061137c565b90505b60408051600280825260608201835260009260208301908036833701905050905086816000815181106113b1576113b16134e1565b60200260200101906001600160a01b031690816001600160a01b03168152505085816001815181106113e5576113e56134e1565b6001600160a01b039092166020928302919091019091015260405163d06ca61f60e01b8152600090737a250d5630b4cf539739df2c5dacb4c659f2488d9063d06ca61f9061143990899086906004016131bd565b60006040518083038186803b15801561145157600080fd5b505afa92505050801561148657506040513d6000823e601f3d908101601f191682016040526114839190810190612fb3565b60015b611492575060006114b1565b806001815181106114a5576114a56134e1565b60200260200101519150505b8083116114be57806114c0565b825b94508083116114d05760006114d3565b60015b9350505050935093915050565b6114ea33826119d6565b60405163095ea7b360e01b815273e592427a0aece92de3edee1f18e0157c058615646004820152602481018290526001600160a01b0383169063095ea7b390604401602060405180830381600087803b15801561154657600080fd5b505af115801561155a573d6000803e3d6000fd5b505050506040513d601f19601f8201168201806040525081019061157e9190613060565b5061159860008051602061352383398151915283836126d2565b505050565b6115a5612437565b6001600160a01b0381166115b857600080fd5b60ff80546001600160a01b0319166001600160a01b0383169081179091556040517f164d8ef0d742b45087644f55c61abeb84557df70d06730591e451f0981e278ca90600090a250565b61160a612437565b6101028190556040518181527fe35be406f69e9d11d6ac8e5b54bbc8b6c4baf2fa2359f84a56baa5ea5d07dc8f906020015b60405180910390a150565b61164f612437565b6111716000612a53565b611661612437565b611171612aa5565b6040516323b872dd60e01b8152336004820152306024820152604481018290526001600160a01b038316906323b872dd90606401602060405180830381600087803b1580156116b757600080fd5b505af11580156116cb573d6000803e3d6000fd5b505050506040513d601f19601f820116820180604052508101906116ef9190613060565b50600061170b83600080516020613523833981519152846126d2565b6101045490915061173f90600080516020613523833981519152906001600160a01b031661173a600a85613422565b6126d2565b50611772600080516020613523833981519152736982508145454ce325ddbe47a25d4ec3d231193361173a600a85613422565b506117a560008051602061352383398151915273b131f4a55907b10d1f0a50d8ab8fa09ec342cd7461173a600a85613422565b506117d8600080516020613523833981519152739813037ee2218799597d83d4a5b6f3b6778218d961173a600a85613422565b5061180b6000805160206135238339815191527372e4f9f808c49a2a61de9c5896298920dc4eeea961173a600a85613422565b5061183e60008051602061352383398151915273761d38e5ddf6ccf6cf7c55759d5210750b5d60f361173a600a85613422565b5061187160008051602061352383398151915273b62e45c3df611dce236a6ddc7a493d79f9dfadef61173a600a85613422565b506118a46000805160206135238339815191527327c70cd1946795b66be9d954418546998b54663461173a600a85613422565b506118d760008051602061352383398151915273cf0c122c6b73ff809c693db761e7baebe62b6a2e61173a600a85613422565b5061190a60008051602061352383398151915273ac57de9c1a09fec648e93eb98875b212db0d460b61173a600a85613422565b506115983382612ae2565b60ff546001600160a01b031633146119835760405162461bcd60e51b815260206004820152602b60248201527f496e646578546f6b656e3a2063616c6c6572206973206e6f7420746865206d6560448201526a1d1a1bd91bdb1bd9da5cdd60aa1b6064820152608401610e48565b805161199790610101906020840190612dca565b507fe6be68107100e39cb16d675c1086a4d5479fbd01108d721dabbccaa2249b995f8160405161163c91906131d6565b606060378054610d729061347a565b6119de6121cc565b610100546001600160a01b03163314611a095760405162461bcd60e51b8152600401610e489061328c565b6001600160a01b0382166000908152610103602052604090205460ff1615611a685760405162461bcd60e51b8152602060048201526012602482015271199c9bdb481a5cc81c995cdd1c9a58dd195960721b6044820152606401610e48565b336000908152610103602052604090205460ff1615611a995760405162461bcd60e51b8152600401610e4890613255565b611aa16124e3565b6112898282612aea565b6101018054611ab99061347a565b80601f0160208091040260200160405190810160405280929190818152602001828054611ae59061347a565b8015611b325780601f10611b0757610100808354040283529160200191611b32565b820191906000526020600020905b815481529060010190602001808311611b1557829003601f168201915b505050505081565b60003381611b488286611d0d565b905083811015611ba85760405162461bcd60e51b815260206004820152602560248201527f45524332303a2064656372656173656420616c6c6f77616e63652062656c6f77604482015264207a65726f60d81b6064820152608401610e48565b611bb582868684036120a8565b506001949350505050565b6000611bca6121cc565b336000908152610103602052604090205460ff1615611bfb5760405162461bcd60e51b8152600401610e4890613255565b6001600160a01b0383166000908152610103602052604090205460ff1615611c355760405162461bcd60e51b8152600401610e489061322b565b611c4033848461228c565b50600192915050565b611c51612437565b6001600160a01b0381166000818152610103602052604090819020805460ff19811660ff9182161590811790925591517f14ddf324cc5d8b14a3c3b12c84b0a7d578d72c8d60655c06d6a457e71431d5ee92611cb292161515815260200190565b60405180910390a250565b611cc5612437565b6001600160a01b038116611ceb5760405162461bcd60e51b8152600401610e48906132d0565b609780546001600160a01b0319166001600160a01b0392909216919091179055565b6001600160a01b03918216600090815260346020908152604080832093909416825291909152205490565b611d40612437565b6001600160a01b038116611d5357600080fd5b60fe80546001600160a01b0319166001600160a01b0383169081179091556040517fbdf37c276f641820b141429d245add2552b4118c0866e5a78638e3de5ef18d9d90600090a250565b6001600160a01b038116611dc35760405162461bcd60e51b8152600401610e48906132d0565b6097546001600160a01b03828116911614611e3b5760405162461bcd60e51b815260206004820152603260248201527f50726f706f7361626c654f776e61626c653a206e6577206f776e6572206973206044820152713737ba10383937b837b9b2b21037bbb732b960711b6064820152608401610e48565b6001600160a01b0381163314611eb95760405162461bcd60e51b815260206004820152603a60248201527f50726f706f7361626c654f776e61626c653a20746869732063616c6c206d757360448201527f74206265206d61646520627920746865206e6577206f776e65720000000000006064820152608401610e48565b611ec281612a53565b50565b611ecd612437565b6111716124e3565b611edd612437565b6001600160a01b038116611ef057600080fd5b61010080546001600160a01b0319166001600160a01b0383169081179091556040517f726b590ef91a8c76ad05bbe91a57ef84605276528f49cd47d787f558a4e755b690600090a250565b600054610100900460ff1615808015611f5b5750600054600160ff909116105b80611f755750303b158015611f75575060005460ff166001145b611fd85760405162461bcd60e51b815260206004820152602e60248201527f496e697469616c697a61626c653a20636f6e747261637420697320616c72656160448201526d191e481a5b9a5d1a585b1a5e995960921b6064820152608401610e48565b6000805460ff191660011790558015611ffb576000805461ff0019166101001790555b6001600160a01b03831661200e57600080fd5b612016612c1e565b61201e612c4d565b6120288686612c7c565b612030612cad565b60fc84905560fe80546001600160a01b0319166001600160a01b0385161790556101028290554260fd5580156120a0576000805461ff0019169055604051600181527f7f26b83ff96e1f2b6a682f133852f6798a09c465da95921460cefb38474024989060200160405180910390a15b505050505050565b6001600160a01b03831661210a5760405162461bcd60e51b8152602060048201526024808201527f45524332303a20617070726f76652066726f6d20746865207a65726f206164646044820152637265737360e01b6064820152608401610e48565b6001600160a01b03821661216b5760405162461bcd60e51b815260206004820152602260248201527f45524332303a20617070726f766520746f20746865207a65726f206164647265604482015261737360f01b6064820152608401610e48565b6001600160a01b0383811660008181526034602090815260408083209487168084529482529182902085905590518481527f8c5be1e5ebec7d5bd14f71427d1e84f3dd0314c0f7b2291e5b200ac8c7c3b925910160405180910390a3505050565b60ca5460ff16156111715760405162461bcd60e51b815260206004820152601060248201526f14185d5cd8589b194e881c185d5cd95960821b6044820152606401610e48565b600061221e8484611d0d565b9050600019811461228657818110156122795760405162461bcd60e51b815260206004820152601d60248201527f45524332303a20696e73756666696369656e7420616c6c6f77616e63650000006044820152606401610e48565b61228684848484036120a8565b50505050565b6001600160a01b0383166122f05760405162461bcd60e51b815260206004820152602560248201527f45524332303a207472616e736665722066726f6d20746865207a65726f206164604482015264647265737360d81b6064820152608401610e48565b6001600160a01b0382166123525760405162461bcd60e51b815260206004820152602360248201527f45524332303a207472616e7366657220746f20746865207a65726f206164647260448201526265737360e81b6064820152608401610e48565b6001600160a01b038316600090815260336020526040902054818110156123ca5760405162461bcd60e51b815260206004820152602660248201527f45524332303a207472616e7366657220616d6f756e7420657863656564732062604482015265616c616e636560d01b6064820152608401610e48565b6001600160a01b0380851660008181526033602052604080822086860390559286168082529083902080548601905591517fddf252ad1be2c89b69c2b068fc378daa952ba7f163c4a11628f55a4df523b3ef9061242a9086815260200190565b60405180910390a3612286565b6065546001600160a01b031633146111715760405162461bcd60e51b815260206004820181905260248201527f4f776e61626c653a2063616c6c6572206973206e6f7420746865206f776e65726044820152606401610e48565b612499612cd4565b60ca805460ff191690557f5db9ee0a495bf2e6ff9c91a7834c1ba4fdd244a5e8aa4e537bd38aeae4b073aa335b6040516001600160a01b03909116815260200160405180910390a1565b60006201518060fd54426124f79190613463565b6125019190613422565b905060018110611ec257600061251660355490565b60fc54909150819060005b8481101561255b5768056bc75e2d6310000061253d8385613444565b6125479190613422565b612551908461340a565b9250600101612521565b5060006125688484613463565b90506125778562015180613444565b60fd6000828254612588919061340a565b909155505060fe546125a3906001600160a01b031682612611565b60fe547f07982395c678b2ffc23fcf59aaec243ca79418c285af0d0e10b4e65bc4189f4c906001600160a01b0316426125db60355490565b604080516001600160a01b0390941684526020840192909252908201526060810183905260800160405180910390a15050505050565b6001600160a01b0382166126675760405162461bcd60e51b815260206004820152601f60248201527f45524332303a206d696e7420746f20746865207a65726f2061646472657373006044820152606401610e48565b8060356000828254612679919061340a565b90915550506001600160a01b0382166000818152603360209081526040808320805486019055518481527fddf252ad1be2c89b69c2b068fc378daa952ba7f163c4a11628f55a4df523b3ef910160405180910390a35050565b60008060006126e28686866112d0565b90925090508115612a4a576001816001811115612701576127016134cb565b14156128c05760405163095ea7b360e01b815273e592427a0aece92de3edee1f18e0157c058615646004820152602481018590526001600160a01b0387169063095ea7b390604401602060405180830381600087803b15801561276357600080fd5b505af1158015612777573d6000803e3d6000fd5b505050506040513d601f19601f8201168201806040525081019061279b9190613060565b5060408051610100810182526001600160a01b03888116825287811660208301908152610bb88385019081523060608501908152426080860190815260a086018b8152600060c0880181815260e08901828152995163414bf38960e01b8152895189166004820152965188166024880152945162ffffff166044870152925186166064860152905160848501525160a4840152905160c4830152935190911660e482015290919073e592427a0aece92de3edee1f18e0157c058615649063414bf3899061010401602060405180830381600087803b15801561287c57600080fd5b505af1158015612890573d6000803e3d6000fd5b505050506040513d601f19601f820116820180604052508101906128b49190613160565b9450610f009350505050565b60408051600280825260608201835260009260208301908036833701905050905086816000815181106128f5576128f56134e1565b60200260200101906001600160a01b031690816001600160a01b0316815250508581600181518110612929576129296134e1565b6001600160a01b03928316602091820292909201015260405163095ea7b360e01b8152737a250d5630b4cf539739df2c5dacb4c659f2488d6004820152602481018790529088169063095ea7b390604401602060405180830381600087803b15801561299457600080fd5b505af11580156129a8573d6000803e3d6000fd5b505050506040513d601f19601f820116820180604052508101906129cc9190613060565b50604051635c11d79560e01b8152737a250d5630b4cf539739df2c5dacb4c659f2488d90635c11d79590612a0d90889060009086903090429060040161339d565b600060405180830381600087803b158015612a2757600080fd5b505af1158015612a3b573d6000803e3d6000fd5b50505050829350505050610f00565b50509392505050565b606580546001600160a01b038381166001600160a01b0319831681179093556040519116919082907f8be0079c531659141344cd1fd0a4f28419497f9722a3daafe3b4186f6b6457e090600090a35050565b612aad6121cc565b60ca805460ff191660011790557f62e78cea01bee320cd4e420270b5ea74000d11b0c9f74754ebdbfc544b05a2586124c63390565b6111a66121cc565b6001600160a01b038216612b4a5760405162461bcd60e51b815260206004820152602160248201527f45524332303a206275726e2066726f6d20746865207a65726f206164647265736044820152607360f81b6064820152608401610e48565b6001600160a01b03821660009081526033602052604090205481811015612bbe5760405162461bcd60e51b815260206004820152602260248201527f45524332303a206275726e20616d6f756e7420657863656564732062616c616e604482015261636560f01b6064820152608401610e48565b6001600160a01b03831660008181526033602090815260408083208686039055603580548790039055518581529192917fddf252ad1be2c89b69c2b068fc378daa952ba7f163c4a11628f55a4df523b3ef910160405180910390a3505050565b600054610100900460ff16612c455760405162461bcd60e51b8152600401610e4890613320565b611171612d1d565b600054610100900460ff16612c745760405162461bcd60e51b8152600401610e4890613320565b611171612d4d565b600054610100900460ff16612ca35760405162461bcd60e51b8152600401610e4890613320565b6112898282612d80565b600054610100900460ff166111715760405162461bcd60e51b8152600401610e4890613320565b60ca5460ff166111715760405162461bcd60e51b815260206004820152601460248201527314185d5cd8589b194e881b9bdd081c185d5cd95960621b6044820152606401610e48565b600054610100900460ff16612d445760405162461bcd60e51b8152600401610e4890613320565b61117133612a53565b600054610100900460ff16612d745760405162461bcd60e51b8152600401610e4890613320565b60ca805460ff19169055565b600054610100900460ff16612da75760405162461bcd60e51b8152600401610e4890613320565b8151612dba906036906020850190612dca565b5080516115989060379060208401905b828054612dd69061347a565b90600052602060002090601f016020900481019282612df85760008555612e3e565b82601f10612e1157805160ff1916838001178555612e3e565b82800160010185558215612e3e579182015b82811115612e3e578251825591602001919060010190612e23565b50612e4a929150612e4e565b5090565b5b80821115612e4a5760008155600101612e4f565b600082601f830112612e7457600080fd5b813567ffffffffffffffff811115612e8e57612e8e6134f7565b612ea1601f8201601f19166020016133d9565b818152846020838601011115612eb657600080fd5b816020850160208301376000918101602001919091529392505050565b600060208284031215612ee557600080fd5b8135610f008161350d565b600060208284031215612f0257600080fd5b8151610f008161350d565b60008060408385031215612f2057600080fd5b8235612f2b8161350d565b91506020830135612f3b8161350d565b809150509250929050565b600080600060608486031215612f5b57600080fd5b8335612f668161350d565b92506020840135612f768161350d565b929592945050506040919091013590565b60008060408385031215612f9a57600080fd5b8235612fa58161350d565b946020939093013593505050565b60006020808385031215612fc657600080fd5b825167ffffffffffffffff80821115612fde57600080fd5b818501915085601f830112612ff257600080fd5b815181811115613004576130046134f7565b8060051b91506130158483016133d9565b8181528481019084860184860187018a101561303057600080fd5b600095505b83861015613053578051835260019590950194918601918601613035565b5098975050505050505050565b60006020828403121561307257600080fd5b81518015158114610f0057600080fd5b60006020828403121561309457600080fd5b813567ffffffffffffffff8111156130ab57600080fd5b6130b784828501612e63565b949350505050565b600080600080600060a086880312156130d757600080fd5b853567ffffffffffffffff808211156130ef57600080fd5b6130fb89838a01612e63565b9650602088013591508082111561311157600080fd5b5061311e88828901612e63565b9450506040860135925060608601356131368161350d565b949793965091946080013592915050565b60006020828403121561315957600080fd5b5035919050565b60006020828403121561317257600080fd5b5051919050565b600081518084526020808501945080840160005b838110156131b25781516001600160a01b03168752958201959082019060010161318d565b509495945050505050565b8281526040602082015260006130b76040830184613179565b600060208083528351808285015260005b81811015613203578581018301518582016040015282016131e7565b81811115613215576000604083870101525b50601f01601f1916929092016040019392505050565b60208082526010908201526f1d1bc81a5cc81c995cdd1c9a58dd195960821b604082015260600190565b60208082526018908201527f6d73672e73656e64657220697320726573747269637465640000000000000000604082015260600190565b60208082526024908201527f496e646578546f6b656e3a2063616c6c6572206973206e6f7420746865206d69604082015263373a32b960e11b606082015260800190565b60208082526030908201527f50726f706f7361626c654f776e61626c653a206e6577206f776e65722069732060408201526f746865207a65726f206164647265737360801b606082015260800190565b6020808252602b908201527f496e697469616c697a61626c653a20636f6e7472616374206973206e6f74206960408201526a6e697469616c697a696e6760a81b606082015260800190565b828152604081016002831061339057634e487b7160e01b600052602160045260246000fd5b8260208301529392505050565b85815284602082015260a0604082015260006133bc60a0830186613179565b6001600160a01b0394909416606083015250608001529392505050565b604051601f8201601f1916810167ffffffffffffffff81118282101715613402576134026134f7565b604052919050565b6000821982111561341d5761341d6134b5565b500190565b60008261343f57634e487b7160e01b600052601260045260246000fd5b500490565b600081600019048311821515161561345e5761345e6134b5565b500290565b600082821015613475576134756134b5565b500390565b600181811c9082168061348e57607f821691505b602082108114156134af57634e487b7160e01b600052602260045260246000fd5b50919050565b634e487b7160e01b600052601160045260246000fd5b634e487b7160e01b600052602160045260246000fd5b634e487b7160e01b600052603260045260246000fd5b634e487b7160e01b600052604160045260246000fd5b6001600160a01b0381168114611ec257600080fdfe000000000000000000000000c02aaa39b223fe8d0a0e5c4f27ead9083c756cc2a2646970667358221220cd7f8405e1ecbdd1dee2f2c7933a2c299dc05806c4d81eccc85410c2b70aba9364736f6c63430008070033",
    "linkReferences": {}
  },
  "methodIdentifiers": {
    "BONE()": "c36596a6",
    "BabyDoge()": "d1a72ed6",
    "ELON()": "2fab7aea",
    "FLOKI()": "2f9f8c13",
    "HarryPotterObamaSonic10Inu()": "0fb405b7",
    "LEASH()": "ad39e5fd",
    "MEME()": "2e7b0948",
    "PEPE()": "e4fbaecb",
    "QUOTER()": "8dae88c2",
    "SHIB()": "e24b85e7",
    "WETH9()": "4aa4a4fc",
    "WSM()": "5725a977",
    "allowance(address,address)": "dd62ed3e",
    "approve(address,uint256)": "095ea7b3",
    "balanceOf(address)": "70a08231",
    "burn(address,uint256)": "9dc29fac",
    "decimals()": "313ce567",
    "decreaseAllowance(address,uint256)": "a457c2d7",
    "factoryV2()": "68e0d4e1",
    "factoryV3()": "1d5f45f5",
    "feeRatePerDayScaled()": "2fecd589",
    "feeReceiver()": "b3f00674",
    "feeTimestamp()": "184a732f",
    "getAmountOut(address,address,uint256)": "4aa06652",
    "getAmounts()": "3d370b4e",
    "getPool()": "026b1d5f",
    "getPortfolioBalance()": "a8509fd8",
    "increaseAllowance(address,uint256)": "39509351",
    "initialize(string,string,uint256,address,uint256)": "fede0276",
    "isRestricted(address)": "c01bc982",
    "issuanceIndexTokens(address,uint256)": "8be78847",
    "methodologist()": "9f8e67bf",
    "methodology()": "9eeb1d50",
    "mint(address,uint256)": "40c10f19",
    "mintToFeeReceiver()": "f734e22a",
    "minter()": "07546172",
    "name()": "06fdde03",
    "owner()": "8da5cb5b",
    "pause()": "8456cb59",
    "paused()": "5c975abb",
    "proposeOwner(address)": "b5ed298a",
    "proposedOwner()": "d153b60c",
    "quoter()": "c6bbd5a7",
    "redemption(address,uint256)": "616bcd21",
    "renounceOwnership()": "715018a6",
    "setFeeRate(uint256)": "45596e2e",
    "setFeeReceiver(address)": "efdcd974",
    "setMethodologist(address)": "660db484",
    "setMethodology(string)": "91fe1b92",
    "setMinter(address)": "fca3b5aa",
    "setSupplyCeiling(uint256)": "6e01a686",
    "supplyCeiling()": "2b52684d",
    "swapRouterV2()": "744fbc7a",
    "swapRouterV3()": "b631e80b",
    "symbol()": "95d89b41",
    "toggleRestriction(address)": "aaa4a184",
    "totalSupply()": "18160ddd",
    "transfer(address,uint256)": "a9059cbb",
    "transferFrom(address,address,uint256)": "23b872dd",
    "transferOwnership(address)": "f2fde38b",
    "unpause()": "3f4ba83a",
    "weth()": "3fc8cef3"
  },
  "id": 7
}