{
  "abi": [
    {
      "inputs": [],
      "name": "T",
      "type": "error"
    },
    {
      "anonymous": false,
      "inputs": [
        {
          "indexed": true,
          "internalType": "address",
          "name": "owner",
          "type": "address"
        },
        {
          "indexed": true,
          "internalType": "address",
          "name": "spender",
          "type": "address"
        },
        {
          "indexed": false,
          "internalType": "uint256",
          "name": "value",
          "type": "uint256"
        }
      ],
      "name": "Approval",
      "type": "event"
    },
    {
      "anonymous": false,
      "inputs": [
        {
          "indexed": true,
          "internalType": "bytes32",
          "name": "id",
          "type": "bytes32"
        }
      ],
      "name": "ChainlinkCancelled",
      "type": "event"
    },
    {
      "anonymous": false,
      "inputs": [
        {
          "indexed": true,
          "internalType": "bytes32",
          "name": "id",
          "type": "bytes32"
        }
      ],
      "name": "ChainlinkFulfilled",
      "type": "event"
    },
    {
      "anonymous": false,
      "inputs": [
        {
          "indexed": true,
          "internalType": "bytes32",
          "name": "id",
          "type": "bytes32"
        }
      ],
      "name": "ChainlinkRequested",
      "type": "event"
    },
    {
      "anonymous": false,
      "inputs": [
        {
          "indexed": true,
          "internalType": "uint256",
          "name": "feeRatePerDayScaled",
          "type": "uint256"
        }
      ],
      "name": "FeeRateSet",
      "type": "event"
    },
    {
      "anonymous": false,
      "inputs": [
        {
          "indexed": true,
          "internalType": "address",
          "name": "feeReceiver",
          "type": "address"
        }
      ],
      "name": "FeeReceiverSet",
      "type": "event"
    },
    {
      "anonymous": false,
      "inputs": [
        {
          "indexed": false,
          "internalType": "uint8",
          "name": "version",
          "type": "uint8"
        }
      ],
      "name": "Initialized",
      "type": "event"
    },
    {
      "anonymous": false,
      "inputs": [
        {
          "indexed": true,
          "internalType": "address",
          "name": "methodologist",
          "type": "address"
        }
      ],
      "name": "MethodologistSet",
      "type": "event"
    },
    {
      "anonymous": false,
      "inputs": [
        {
          "indexed": false,
          "internalType": "string",
          "name": "methodology",
          "type": "string"
        }
      ],
      "name": "MethodologySet",
      "type": "event"
    },
    {
      "anonymous": false,
      "inputs": [
        {
          "indexed": false,
          "internalType": "address",
          "name": "feeReceiver",
          "type": "address"
        },
        {
          "indexed": false,
          "internalType": "uint256",
          "name": "timestamp",
          "type": "uint256"
        },
        {
          "indexed": false,
          "internalType": "uint256",
          "name": "totalSupply",
          "type": "uint256"
        },
        {
          "indexed": false,
          "internalType": "uint256",
          "name": "amount",
          "type": "uint256"
        }
      ],
      "name": "MintFeeToReceiver",
      "type": "event"
    },
    {
      "anonymous": false,
      "inputs": [
        {
          "indexed": true,
          "internalType": "address",
          "name": "minter",
          "type": "address"
        }
      ],
      "name": "MinterSet",
      "type": "event"
    },
    {
      "anonymous": false,
      "inputs": [
        {
          "indexed": true,
          "internalType": "address",
          "name": "previousOwner",
          "type": "address"
        },
        {
          "indexed": true,
          "internalType": "address",
          "name": "newOwner",
          "type": "address"
        }
      ],
      "name": "OwnershipTransferred",
      "type": "event"
    },
    {
      "anonymous": false,
      "inputs": [
        {
          "indexed": false,
          "internalType": "address",
          "name": "account",
          "type": "address"
        }
      ],
      "name": "Paused",
      "type": "event"
    },
    {
      "anonymous": false,
      "inputs": [
        {
          "indexed": false,
          "internalType": "uint256",
          "name": "supplyCeiling",
          "type": "uint256"
        }
      ],
      "name": "SupplyCeilingSet",
      "type": "event"
    },
    {
      "anonymous": false,
      "inputs": [
        {
          "indexed": true,
          "internalType": "address",
          "name": "account",
          "type": "address"
        },
        {
          "indexed": false,
          "internalType": "bool",
          "name": "isRestricted",
          "type": "bool"
        }
      ],
      "name": "ToggledRestricted",
      "type": "event"
    },
    {
      "anonymous": false,
      "inputs": [
        {
          "indexed": true,
          "internalType": "address",
          "name": "from",
          "type": "address"
        },
        {
          "indexed": true,
          "internalType": "address",
          "name": "to",
          "type": "address"
        },
        {
          "indexed": false,
          "internalType": "uint256",
          "name": "value",
          "type": "uint256"
        }
      ],
      "name": "Transfer",
      "type": "event"
    },
    {
      "anonymous": false,
      "inputs": [
        {
          "indexed": false,
          "internalType": "address",
          "name": "account",
          "type": "address"
        }
      ],
      "name": "Unpaused",
      "type": "event"
    },
    {
      "inputs": [],
      "name": "BONE",
      "outputs": [
        {
          "internalType": "address",
          "name": "",
          "type": "address"
        }
      ],
      "stateMutability": "view",
      "type": "function"
    },
    {
      "inputs": [],
      "name": "BabyDoge",
      "outputs": [
        {
          "internalType": "address",
          "name": "",
          "type": "address"
        }
      ],
      "stateMutability": "view",
      "type": "function"
    },
    {
      "inputs": [],
      "name": "ELON",
      "outputs": [
        {
          "internalType": "address",
          "name": "",
          "type": "address"
        }
      ],
      "stateMutability": "view",
      "type": "function"
    },
    {
      "inputs": [],
      "name": "FLOKI",
      "outputs": [
        {
          "internalType": "address",
          "name": "",
          "type": "address"
        }
      ],
      "stateMutability": "view",
      "type": "function"
    },
    {
      "inputs": [],
      "name": "HarryPotterObamaSonic10Inu",
      "outputs": [
        {
          "internalType": "address",
          "name": "",
          "type": "address"
        }
      ],
      "stateMutability": "view",
      "type": "function"
    },
    {
      "inputs": [],
      "name": "LEASH",
      "outputs": [
        {
          "internalType": "address",
          "name": "",
          "type": "address"
        }
      ],
      "stateMutability": "view",
      "type": "function"
    },
    {
      "inputs": [],
      "name": "MEME",
      "outputs": [
        {
          "internalType": "address",
          "name": "",
          "type": "address"
        }
      ],
      "stateMutability": "view",
      "type": "function"
    },
    {
      "inputs": [],
      "name": "PEPE",
      "outputs": [
        {
          "internalType": "address",
          "name": "",
          "type": "address"
        }
      ],
      "stateMutability": "view",
      "type": "function"
    },
    {
      "inputs": [],
      "name": "QUOTER",
      "outputs": [
        {
          "internalType": "address",
          "name": "",
          "type": "address"
        }
      ],
      "stateMutability": "view",
      "type": "function"
    },
    {
      "inputs": [],
      "name": "SHIB",
      "outputs": [
        {
          "internalType": "address",
          "name": "",
          "type": "address"
        }
      ],
      "stateMutability": "view",
      "type": "function"
    },
    {
      "inputs": [],
      "name": "WETH9",
      "outputs": [
        {
          "internalType": "address",
          "name": "",
          "type": "address"
        }
      ],
      "stateMutability": "view",
      "type": "function"
    },
    {
      "inputs": [],
      "name": "WSM",
      "outputs": [
        {
          "internalType": "address",
          "name": "",
          "type": "address"
        }
      ],
      "stateMutability": "view",
      "type": "function"
    },
    {
      "inputs": [
        {
          "internalType": "address",
          "name": "owner",
          "type": "address"
        },
        {
          "internalType": "address",
          "name": "spender",
          "type": "address"
        }
      ],
      "name": "allowance",
      "outputs": [
        {
          "internalType": "uint256",
          "name": "",
          "type": "uint256"
        }
      ],
      "stateMutability": "view",
      "type": "function"
    },
    {
      "inputs": [
        {
          "internalType": "address",
          "name": "spender",
          "type": "address"
        },
        {
          "internalType": "uint256",
          "name": "amount",
          "type": "uint256"
        }
      ],
      "name": "approve",
      "outputs": [
        {
          "internalType": "bool",
          "name": "",
          "type": "bool"
        }
      ],
      "stateMutability": "nonpayable",
      "type": "function"
    },
    {
      "inputs": [
        {
          "internalType": "address",
          "name": "_token",
          "type": "address"
        },
        {
          "internalType": "address",
          "name": "_to",
          "type": "address"
        },
        {
          "internalType": "uint256",
          "name": "_amount",
          "type": "uint256"
        }
      ],
      "name": "approveSwapToken",
      "outputs": [],
      "stateMutability": "nonpayable",
      "type": "function"
    },
    {
      "inputs": [
        {
          "internalType": "uint256",
          "name": "",
          "type": "uint256"
        }
      ],
      "name": "assetList",
      "outputs": [
        {
          "internalType": "address",
          "name": "",
          "type": "address"
        }
      ],
      "stateMutability": "view",
      "type": "function"
    },
    {
      "inputs": [
        {
          "internalType": "address",
          "name": "account",
          "type": "address"
        }
      ],
      "name": "balanceOf",
      "outputs": [
        {
          "internalType": "uint256",
          "name": "",
          "type": "uint256"
        }
      ],
      "stateMutability": "view",
      "type": "function"
    },
    {
      "inputs": [
        {
          "internalType": "address",
          "name": "from",
          "type": "address"
        },
        {
          "internalType": "uint256",
          "name": "amount",
          "type": "uint256"
        }
      ],
      "name": "burn",
      "outputs": [],
      "stateMutability": "nonpayable",
      "type": "function"
    },
    {
      "inputs": [
        {
          "internalType": "uint256",
          "name": "",
          "type": "uint256"
        }
      ],
      "name": "currentList",
      "outputs": [
        {
          "internalType": "address",
          "name": "",
          "type": "address"
        }
      ],
      "stateMutability": "view",
      "type": "function"
    },
    {
      "inputs": [],
      "name": "decimals",
      "outputs": [
        {
          "internalType": "uint8",
          "name": "",
          "type": "uint8"
        }
      ],
      "stateMutability": "view",
      "type": "function"
    },
    {
      "inputs": [
        {
          "internalType": "address",
          "name": "spender",
          "type": "address"
        },
        {
          "internalType": "uint256",
          "name": "subtractedValue",
          "type": "uint256"
        }
      ],
      "name": "decreaseAllowance",
      "outputs": [
        {
          "internalType": "bool",
          "name": "",
          "type": "bool"
        }
      ],
      "stateMutability": "nonpayable",
      "type": "function"
    },
    {
      "inputs": [
        {
          "internalType": "address",
          "name": "tokenIn",
          "type": "address"
        },
        {
          "internalType": "address",
          "name": "tokenOut",
          "type": "address"
        },
        {
          "internalType": "uint128",
          "name": "amountIn",
          "type": "uint128"
        },
        {
          "internalType": "uint32",
          "name": "secondsAgo",
          "type": "uint32"
        }
      ],
      "name": "estimateAmountOut",
      "outputs": [
        {
          "internalType": "uint256",
          "name": "amountOut",
          "type": "uint256"
        }
      ],
      "stateMutability": "view",
      "type": "function"
    },
    {
      "inputs": [],
      "name": "externalJobId",
      "outputs": [
        {
          "internalType": "bytes32",
          "name": "",
          "type": "bytes32"
        }
      ],
      "stateMutability": "view",
      "type": "function"
    },
    {
      "inputs": [],
      "name": "factoryV2",
      "outputs": [
        {
          "internalType": "contract IUniswapV2Factory",
          "name": "",
          "type": "address"
        }
      ],
      "stateMutability": "view",
      "type": "function"
    },
    {
      "inputs": [],
      "name": "factoryV3",
      "outputs": [
        {
          "internalType": "contract IUniswapV3Factory",
          "name": "",
          "type": "address"
        }
      ],
      "stateMutability": "view",
      "type": "function"
    },
    {
      "inputs": [],
      "name": "fee",
      "outputs": [
        {
          "internalType": "uint256",
          "name": "",
          "type": "uint256"
        }
      ],
      "stateMutability": "view",
      "type": "function"
    },
    {
      "inputs": [],
      "name": "feeRatePerDayScaled",
      "outputs": [
        {
          "internalType": "uint256",
          "name": "",
          "type": "uint256"
        }
      ],
      "stateMutability": "view",
      "type": "function"
    },
    {
      "inputs": [],
      "name": "feeReceiver",
      "outputs": [
        {
          "internalType": "address",
          "name": "",
          "type": "address"
        }
      ],
      "stateMutability": "view",
      "type": "function"
    },
    {
      "inputs": [],
      "name": "feeTimestamp",
      "outputs": [
        {
          "internalType": "uint256",
          "name": "",
          "type": "uint256"
        }
      ],
      "stateMutability": "view",
      "type": "function"
    },
    {
      "inputs": [
        {
          "internalType": "address",
          "name": "tokenIn",
          "type": "address"
        },
        {
          "internalType": "address",
          "name": "tokenOut",
          "type": "address"
        },
        {
          "internalType": "uint256",
          "name": "amountIn",
          "type": "uint256"
        }
      ],
      "name": "getAmountOut",
      "outputs": [
        {
          "internalType": "uint256",
          "name": "finalAmountOut",
          "type": "uint256"
        },
        {
          "internalType": "enum IndexToken.DexStatus",
          "name": "dexStatus",
          "type": "uint8"
        }
      ],
      "stateMutability": "nonpayable",
      "type": "function"
    },
    {
      "inputs": [],
      "name": "getAmounts",
      "outputs": [
        {
          "internalType": "uint256",
          "name": "",
          "type": "uint256"
        },
        {
          "internalType": "uint256",
          "name": "",
          "type": "uint256"
        }
      ],
      "stateMutability": "nonpayable",
      "type": "function"
    },
    {
      "inputs": [],
      "name": "getPool",
      "outputs": [
        {
          "internalType": "address",
          "name": "",
          "type": "address"
        },
        {
          "internalType": "address",
          "name": "",
          "type": "address"
        }
      ],
      "stateMutability": "nonpayable",
      "type": "function"
    },
    {
      "inputs": [],
      "name": "getPortfolioBalance",
      "outputs": [
        {
          "internalType": "uint256",
          "name": "",
          "type": "uint256"
        }
      ],
      "stateMutability": "nonpayable",
      "type": "function"
    },
    {
      "inputs": [
        {
          "internalType": "address",
          "name": "spender",
          "type": "address"
        },
        {
          "internalType": "uint256",
          "name": "addedValue",
          "type": "uint256"
        }
      ],
      "name": "increaseAllowance",
      "outputs": [
        {
          "internalType": "bool",
          "name": "",
          "type": "bool"
        }
      ],
      "stateMutability": "nonpayable",
      "type": "function"
    },
    {
      "inputs": [
        {
          "internalType": "string",
          "name": "tokenName",
          "type": "string"
        },
        {
          "internalType": "string",
          "name": "tokenSymbol",
          "type": "string"
        },
        {
          "internalType": "uint256",
          "name": "_feeRatePerDayScaled",
          "type": "uint256"
        },
        {
          "internalType": "address",
          "name": "_feeReceiver",
          "type": "address"
        },
        {
          "internalType": "uint256",
          "name": "_supplyCeiling",
          "type": "uint256"
        },
        {
          "internalType": "address",
          "name": "_chainlinkToken",
          "type": "address"
        },
        {
          "internalType": "address",
          "name": "_oracleAddress",
          "type": "address"
        },
        {
          "internalType": "bytes32",
          "name": "_externalJobId",
          "type": "bytes32"
        }
      ],
      "name": "initialize",
      "outputs": [],
      "stateMutability": "nonpayable",
      "type": "function"
    },
    {
      "inputs": [
        {
          "internalType": "address",
          "name": "",
          "type": "address"
        }
      ],
      "name": "isRestricted",
      "outputs": [
        {
          "internalType": "bool",
          "name": "",
          "type": "bool"
        }
      ],
      "stateMutability": "view",
      "type": "function"
    },
    {
      "inputs": [
        {
          "internalType": "address",
          "name": "tokenIn",
          "type": "address"
        },
        {
          "internalType": "uint256",
          "name": "amountIn",
          "type": "uint256"
        }
      ],
      "name": "issuanceIndexTokens",
      "outputs": [],
      "stateMutability": "nonpayable",
      "type": "function"
    },
    {
      "inputs": [],
      "name": "issuanceIndexTokensWithEth",
      "outputs": [],
      "stateMutability": "payable",
      "type": "function"
    },
    {
      "inputs": [],
      "name": "lastUpdateTime",
      "outputs": [
        {
          "internalType": "uint256",
          "name": "",
          "type": "uint256"
        }
      ],
      "stateMutability": "view",
      "type": "function"
    },
    {
      "inputs": [],
      "name": "methodologist",
      "outputs": [
        {
          "internalType": "address",
          "name": "",
          "type": "address"
        }
      ],
      "stateMutability": "view",
      "type": "function"
    },
    {
      "inputs": [],
      "name": "methodology",
      "outputs": [
        {
          "internalType": "string",
          "name": "",
          "type": "string"
        }
      ],
      "stateMutability": "view",
      "type": "function"
    },
    {
      "inputs": [
        {
          "internalType": "address",
          "name": "to",
          "type": "address"
        },
        {
          "internalType": "uint256",
          "name": "amount",
          "type": "uint256"
        }
      ],
      "name": "mint",
      "outputs": [],
      "stateMutability": "nonpayable",
      "type": "function"
    },
    {
      "inputs": [],
      "name": "mintToFeeReceiver",
      "outputs": [],
      "stateMutability": "nonpayable",
      "type": "function"
    },
    {
      "inputs": [],
      "name": "minter",
      "outputs": [
        {
          "internalType": "address",
          "name": "",
          "type": "address"
        }
      ],
      "stateMutability": "view",
      "type": "function"
    },
    {
      "inputs": [],
      "name": "name",
      "outputs": [
        {
          "internalType": "string",
          "name": "",
          "type": "string"
        }
      ],
      "stateMutability": "view",
      "type": "function"
    },
    {
      "inputs": [
        {
          "internalType": "uint256",
          "name": "",
          "type": "uint256"
        }
      ],
      "name": "oracleList",
      "outputs": [
        {
          "internalType": "address",
          "name": "",
          "type": "address"
        }
      ],
      "stateMutability": "view",
      "type": "function"
    },
    {
      "inputs": [],
      "name": "oraclePayment",
      "outputs": [
        {
          "internalType": "uint256",
          "name": "",
          "type": "uint256"
        }
      ],
      "stateMutability": "view",
      "type": "function"
    },
    {
      "inputs": [],
      "name": "owner",
      "outputs": [
        {
          "internalType": "address",
          "name": "",
          "type": "address"
        }
      ],
      "stateMutability": "view",
      "type": "function"
    },
    {
      "inputs": [],
      "name": "pause",
      "outputs": [],
      "stateMutability": "nonpayable",
      "type": "function"
    },
    {
      "inputs": [],
      "name": "paused",
      "outputs": [
        {
          "internalType": "bool",
          "name": "",
          "type": "bool"
        }
      ],
      "stateMutability": "view",
      "type": "function"
    },
    {
      "inputs": [
        {
          "internalType": "address",
          "name": "_proposedOwner",
          "type": "address"
        }
      ],
      "name": "proposeOwner",
      "outputs": [],
      "stateMutability": "nonpayable",
      "type": "function"
    },
    {
      "inputs": [],
      "name": "proposedOwner",
      "outputs": [
        {
          "internalType": "address",
          "name": "",
          "type": "address"
        }
      ],
      "stateMutability": "view",
      "type": "function"
    },
    {
      "inputs": [],
      "name": "quoter",
      "outputs": [
        {
          "internalType": "contract IQuoter",
          "name": "",
          "type": "address"
        }
      ],
      "stateMutability": "view",
      "type": "function"
    },
    {
      "inputs": [
        {
          "internalType": "address",
          "name": "tokenIn",
          "type": "address"
        },
        {
          "internalType": "uint256",
          "name": "amountIn",
          "type": "uint256"
        }
      ],
      "name": "redemption",
      "outputs": [],
      "stateMutability": "nonpayable",
      "type": "function"
    },
    {
      "inputs": [],
      "name": "renounceOwnership",
      "outputs": [],
      "stateMutability": "nonpayable",
      "type": "function"
    },
    {
      "inputs": [
        {
          "internalType": "uint256",
          "name": "_feeRatePerDayScaled",
          "type": "uint256"
        }
      ],
      "name": "setFeeRate",
      "outputs": [],
      "stateMutability": "nonpayable",
      "type": "function"
    },
    {
      "inputs": [
        {
          "internalType": "address",
          "name": "_feeReceiver",
          "type": "address"
        }
      ],
      "name": "setFeeReceiver",
      "outputs": [],
      "stateMutability": "nonpayable",
      "type": "function"
    },
    {
      "inputs": [
        {
          "internalType": "address",
          "name": "_methodologist",
          "type": "address"
        }
      ],
      "name": "setMethodologist",
      "outputs": [],
      "stateMutability": "nonpayable",
      "type": "function"
    },
    {
      "inputs": [
        {
          "internalType": "string",
          "name": "_methodology",
          "type": "string"
        }
      ],
      "name": "setMethodology",
      "outputs": [],
      "stateMutability": "nonpayable",
      "type": "function"
    },
    {
      "inputs": [
        {
          "internalType": "address",
          "name": "_minter",
          "type": "address"
        }
      ],
      "name": "setMinter",
      "outputs": [],
      "stateMutability": "nonpayable",
      "type": "function"
    },
    {
      "inputs": [
        {
          "internalType": "uint256",
          "name": "_supplyCeiling",
          "type": "uint256"
        }
      ],
      "name": "setSupplyCeiling",
      "outputs": [],
      "stateMutability": "nonpayable",
      "type": "function"
    },
    {
      "inputs": [],
      "name": "supplyCeiling",
      "outputs": [
        {
          "internalType": "uint256",
          "name": "",
          "type": "uint256"
        }
      ],
      "stateMutability": "view",
      "type": "function"
    },
    {
      "inputs": [],
      "name": "swapGas",
      "outputs": [],
      "stateMutability": "payable",
      "type": "function"
    },
    {
      "inputs": [],
      "name": "swapGas1",
      "outputs": [],
      "stateMutability": "payable",
      "type": "function"
    },
    {
      "inputs": [],
      "name": "swapRouterV2",
      "outputs": [
        {
          "internalType": "contract IUniswapV2Router02",
          "name": "",
          "type": "address"
        }
      ],
      "stateMutability": "view",
      "type": "function"
    },
    {
      "inputs": [],
      "name": "swapRouterV3",
      "outputs": [
        {
          "internalType": "contract ISwapRouter",
          "name": "",
          "type": "address"
        }
      ],
      "stateMutability": "view",
      "type": "function"
    },
    {
      "inputs": [],
      "name": "symbol",
      "outputs": [
        {
          "internalType": "string",
          "name": "",
          "type": "string"
        }
      ],
      "stateMutability": "view",
      "type": "function"
    },
    {
      "inputs": [
        {
          "internalType": "address",
          "name": "who",
          "type": "address"
        }
      ],
      "name": "toggleRestriction",
      "outputs": [],
      "stateMutability": "nonpayable",
      "type": "function"
    },
    {
      "inputs": [
        {
          "internalType": "address",
          "name": "",
          "type": "address"
        }
      ],
      "name": "tokenMarketShare",
      "outputs": [
        {
          "internalType": "uint256",
          "name": "",
          "type": "uint256"
        }
      ],
      "stateMutability": "view",
      "type": "function"
    },
    {
      "inputs": [
        {
          "internalType": "address",
          "name": "",
          "type": "address"
        }
      ],
      "name": "tokenSwapVersion",
      "outputs": [
        {
          "internalType": "uint256",
          "name": "",
          "type": "uint256"
        }
      ],
      "stateMutability": "view",
      "type": "function"
    },
    {
      "inputs": [],
      "name": "totalSupply",
      "outputs": [
        {
          "internalType": "uint256",
          "name": "",
          "type": "uint256"
        }
      ],
      "stateMutability": "view",
      "type": "function"
    },
    {
      "inputs": [
        {
          "internalType": "address",
          "name": "to",
          "type": "address"
        },
        {
          "internalType": "uint256",
          "name": "amount",
          "type": "uint256"
        }
      ],
      "name": "transfer",
      "outputs": [
        {
          "internalType": "bool",
          "name": "",
          "type": "bool"
        }
      ],
      "stateMutability": "nonpayable",
      "type": "function"
    },
    {
      "inputs": [
        {
          "internalType": "address",
          "name": "from",
          "type": "address"
        },
        {
          "internalType": "address",
          "name": "to",
          "type": "address"
        },
        {
          "internalType": "uint256",
          "name": "amount",
          "type": "uint256"
        }
      ],
      "name": "transferFrom",
      "outputs": [
        {
          "internalType": "bool",
          "name": "",
          "type": "bool"
        }
      ],
      "stateMutability": "nonpayable",
      "type": "function"
    },
    {
      "inputs": [
        {
          "internalType": "address",
          "name": "newOwner",
          "type": "address"
        }
      ],
      "name": "transferOwnership",
      "outputs": [],
      "stateMutability": "nonpayable",
      "type": "function"
    },
    {
      "inputs": [],
      "name": "unpause",
      "outputs": [],
      "stateMutability": "nonpayable",
      "type": "function"
    },
    {
      "inputs": [],
      "name": "weth",
      "outputs": [
        {
          "internalType": "contract IWETH",
          "name": "",
          "type": "address"
        }
      ],
      "stateMutability": "view",
      "type": "function"
    },
    {
      "stateMutability": "payable",
      "type": "receive"
    }
  ],
  "bytecode": {
    "object": "0x600160045561010b80546001600160a01b0319167395ad61b0a150d79219dcf64e1e6cc01f0b64c4ce9081179091556101c06040526080908152736982508145454ce325ddbe47a25d4ec3d231193360a05273cf0c122c6b73ff809c693db761e7baebe62b6a2e60c05273b131f4a55907b10d1f0a50d8ab8fa09ec342cd7460e05273ac57de9c1a09fec648e93eb98875b212db0d460b61010052739813037ee2218799597d83d4a5b6f3b6778218d9610120527372e4f9f808c49a2a61de9c5896298920dc4eeea96101405273761d38e5ddf6ccf6cf7c55759d5210750b5d60f36101605273b62e45c3df611dce236a6ddc7a493d79f9dfadef610180527327c70cd1946795b66be9d954418546998b5466346101a052620001289061010c90600a620001eb565b506040518060600160405280602a815260200162005464602a913980516200015a9161010d9160209091019062000255565b506040518060600160405280602e81526020016200548e602e913980516200018c9161010e9160209091019062000255565b5061011680546001600160a01b031990811673c02aaa39b223fe8d0a0e5c4f27ead9083c756cc217909155610117805490911673b27308f9f90d607463bb33ea1bebb41c27ce5ab6179055348015620001e457600080fd5b5062000326565b82805482825590600052602060002090810192821562000243579160200282015b828111156200024357825182546001600160a01b0319166001600160a01b039091161782556020909201916001909101906200020c565b5062000251929150620002d2565b5090565b8280546200026390620002e9565b90600052602060002090601f01602090048101928262000287576000855562000243565b82601f10620002a257805160ff191683800117855562000243565b8280016001018555821562000243579182015b8281111562000243578251825591602001919060010190620002b5565b5b80821115620002515760008155600101620002d3565b600181811c90821680620002fe57607f821691505b602082108114156200032057634e487b7160e01b600052602260045260246000fd5b50919050565b61512e80620003366000396000f3fe60806040526004361061044b5760003560e01c806379e34b4d11610234578063b5ed298a1161012e578063d90bc211116100b6578063efdcd9741161007a578063efdcd97414610d68578063f2fde38b14610d88578063f734e22a14610da8578063fca3b5aa14610dbd578063fcaae87b14610ddd57600080fd5b8063d90bc21114610cba578063dd62ed3e14610ce8578063ddca3f4314610d08578063e24b85e714610d1f578063e4fbaecb14610d4057600080fd5b8063c36596a6116100fd578063c36596a614610c12578063c6bbd5a714610c3a578063c8f33c9114610c5b578063d153b60c14610c72578063d1a72ed614610c9257600080fd5b8063b5ed298a14610b7f578063b631e80b14610b9f578063bf938db814610bc1578063c01bc98214610be157600080fd5b80639eeb1d50116101bc578063a8b54bd411610180578063a8b54bd414610adf578063a9059cbb14610af6578063aaa4a18414610b16578063ad39e5fd14610b36578063b3f0067414610b5e57600080fd5b80639eeb1d5014610a545780639f8e67bf14610a69578063a0b4b30114610a8a578063a457c2d714610aaa578063a8509fd814610aca57600080fd5b80638dae88c2116102035780638dae88c2146109b757806391fe1b92146109df57806395d89b41146109ff5780639932ba4c14610a145780639dc29fac14610a3457600080fd5b806379e34b4d146109445780638456cb59146109645780638be78847146109795780638da5cb5b1461099957600080fd5b80632fecd589116103455780634aa4a4fc116102cd57806368e0d4e11161029157806368e0d4e1146108895780636e01a686146108b157806370a08231146108d1578063715018a614610907578063744fbc7a1461091c57600080fd5b80634aa4a4fc146107e75780635725a977146108095780635c975abb14610831578063616bcd2114610849578063660db4841461086957600080fd5b80633f4ba83a116103145780633f4ba83a146107435780633fc8cef31461075857806340c10f191461077957806345596e2e146107995780634aa06652146107b957600080fd5b80632fecd589146106c6578063313ce567146106dd57806339509351146106f95780633d370b4e1461071957600080fd5b806319b1f86a116103d3578063254649181161039757806325464918146106175780632b52684d146106375780632e7b09481461064e5780632f9f8c13146106765780632fab7aea1461069e57600080fd5b806319b1f86a1461059f5780631d5f45f5146105a7578063209db530146105cf578063239aad0d146105d757806323b872dd146105f757600080fd5b80630c02e1301161041a5780630c02e1301461051c5780630fb405b71461054157806312740eb51461056957806318160ddd14610573578063184a732f1461058857600080fd5b8063026b1d5f1461045757806306fdde031461049157806307546172146104b3578063095ea7b3146104ec57600080fd5b3661045257005b600080fd5b34801561046357600080fd5b5061046c610e0b565b604080516001600160a01b039384168152929091166020830152015b60405180910390f35b34801561049d57600080fd5b506104a6610f75565b6040516104889190614b71565b3480156104bf57600080fd5b50610107546104d4906001600160a01b031681565b6040516001600160a01b039091168152602001610488565b3480156104f857600080fd5b5061050c6105073660046147e8565b611007565b6040519015158152602001610488565b34801561052857600080fd5b506105336101105481565b604051908152602001610488565b34801561054d57600080fd5b506104d47372e4f9f808c49a2a61de9c5896298920dc4eeea981565b61057161101f565b005b34801561057f57600080fd5b50603b54610533565b34801561059457600080fd5b506105336101045481565b610571611882565b3480156105b357600080fd5b506104d4731f98431c8ad98523631ae4a59f267346ea31f98481565b6105716119ae565b3480156105e357600080fd5b506104d46105f2366004614a98565b611b88565b34801561060357600080fd5b5061050c6106123660046147a7565b611bb3565b34801561062357600080fd5b506105716106323660046149dd565b611cad565b34801561064357600080fd5b506105336101095481565b34801561065a57600080fd5b506104d473b131f4a55907b10d1f0a50d8ab8fa09ec342cd7481565b34801561068257600080fd5b506104d473cf0c122c6b73ff809c693db761e7baebe62b6a2e81565b3480156106aa57600080fd5b506104d473761d38e5ddf6ccf6cf7c55759d5210750b5d60f381565b3480156106d257600080fd5b506105336101035481565b3480156106e957600080fd5b5060405160128152602001610488565b34801561070557600080fd5b5061050c6107143660046147e8565b611e8d565b34801561072557600080fd5b5061072e611eaf565b60408051928352602083019190915201610488565b34801561074f57600080fd5b506105716120e7565b34801561076457600080fd5b50610116546104d4906001600160a01b031681565b34801561078557600080fd5b506105716107943660046147e8565b6120f9565b3480156107a557600080fd5b506105716107b4366004614a98565b612213565b3480156107c557600080fd5b506107d96107d43660046147a7565b612257565b604051610488929190614d6f565b3480156107f357600080fd5b506104d46000805160206150b983398151915281565b34801561081557600080fd5b506104d473b62e45c3df611dce236a6ddc7a493d79f9dfadef81565b34801561083d57600080fd5b5060d05460ff1661050c565b34801561085557600080fd5b506105716108643660046147e8565b612467565b34801561087557600080fd5b506105716108843660046146c3565b612698565b34801561089557600080fd5b506104d4735c69bee701ef814a2b6a3edd4b1652cb9cc5aa6f81565b3480156108bd57600080fd5b506105716108cc366004614a98565b6126fe565b3480156108dd57600080fd5b506105336108ec3660046146c3565b6001600160a01b031660009081526039602052604090205490565b34801561091357600080fd5b50610571612743565b34801561092857600080fd5b506104d4737a250d5630b4cf539739df2c5dacb4c659f2488d81565b34801561095057600080fd5b5061057161095f3660046147a7565b612755565b34801561097057600080fd5b506105716127b5565b34801561098557600080fd5b506105716109943660046147e8565b6127c5565b3480156109a557600080fd5b50606b546001600160a01b03166104d4565b3480156109c357600080fd5b506104d473b27308f9f90d607463bb33ea1bebb41c27ce5ab681565b3480156109eb57600080fd5b506105716109fa3660046149a0565b612907565b348015610a0b57600080fd5b506104a66129ba565b348015610a2057600080fd5b506104d4610a2f366004614a98565b6129c9565b348015610a4057600080fd5b50610571610a4f3660046147e8565b6129da565b348015610a6057600080fd5b506104a6612aaf565b348015610a7557600080fd5b50610106546104d4906001600160a01b031681565b348015610a9657600080fd5b506104d4610aa5366004614a98565b612b3e565b348015610ab657600080fd5b5061050c610ac53660046147e8565b612b4f565b348015610ad657600080fd5b50610533612bd5565b348015610aeb57600080fd5b5061053361010f5481565b348015610b0257600080fd5b5061050c610b113660046147e8565b612cef565b348015610b2257600080fd5b50610571610b313660046146c3565b612d78565b348015610b4257600080fd5b506104d47327c70cd1946795b66be9d954418546998b54663481565b348015610b6a57600080fd5b50610105546104d4906001600160a01b031681565b348015610b8b57600080fd5b50610571610b9a3660046146c3565b612dec565b348015610bab57600080fd5b506104d46000805160206150d983398151915281565b348015610bcd57600080fd5b50610533610bdc366004614736565b612e3c565b348015610bed57600080fd5b5061050c610bfc3660046146c3565b61010a6020526000908152604090205460ff1681565b348015610c1e57600080fd5b506104d4739813037ee2218799597d83d4a5b6f3b6778218d981565b348015610c4657600080fd5b50610117546104d4906001600160a01b031681565b348015610c6757600080fd5b506105336101115481565b348015610c7e57600080fd5b50609d546104d4906001600160a01b031681565b348015610c9e57600080fd5b506104d473ac57de9c1a09fec648e93eb98875b212db0d460b81565b348015610cc657600080fd5b50610533610cd53660046146c3565b6101156020526000908152604090205481565b348015610cf457600080fd5b50610533610d033660046146fd565b612f04565b348015610d1457600080fd5b506105336101025481565b348015610d2b57600080fd5b5061010b546104d4906001600160a01b031681565b348015610d4c57600080fd5b506104d4736982508145454ce325ddbe47a25d4ec3d231193381565b348015610d7457600080fd5b50610571610d833660046146c3565b612f2f565b348015610d9457600080fd5b50610571610da33660046146c3565b612f95565b348015610db457600080fd5b506105716130bd565b348015610dc957600080fd5b50610571610dd83660046146c3565b6130cd565b348015610de957600080fd5b50610533610df83660046146c3565b6101146020526000908152604090205481565b61010b54604051630b4c774160e11b81526000805160206150b983398151915260048201526001600160a01b039091166024820152610bb8604482015260009081908190731f98431c8ad98523631ae4a59f267346ea31f98490631698ee829060640160206040518083038186803b158015610e8657600080fd5b505afa158015610e9a573d6000803e3d6000fd5b505050506040513d601f19601f82011682018060405250810190610ebe91906146e0565b61010b5460405163e6a4390560e01b81526000805160206150b983398151915260048201526001600160a01b039091166024820152909150600090735c69bee701ef814a2b6a3edd4b1652cb9cc5aa6f9063e6a4390590604401602060405180830381600087803b158015610f3257600080fd5b505af1158015610f46573d6000803e3d6000fd5b505050506040513d601f19601f82011682018060405250810190610f6a91906146e0565b919491935090915050565b6060603c8054610f8490614fc3565b80601f0160208091040260200160405190810160405280929190818152602001828054610fb090614fc3565b8015610ffd5780601f10610fd257610100808354040283529160200191610ffd565b820191906000526020600020905b815481529060010190602001808311610fe057829003601f168201915b5050505050905090565b600033611015818585613133565b5060019392505050565b61010b5460009061104b906000805160206150b9833981519152906001600160a01b0316346001612e3c565b61010b54909150611077906000805160206150b9833981519152906001600160a01b0316346001612e3c565b61010b549091506110a3906000805160206150b9833981519152906001600160a01b0316346001612e3c565b61010b549091506110cf906000805160206150b9833981519152906001600160a01b0316346001612e3c565b61010b549091506110fb906000805160206150b9833981519152906001600160a01b0316346001612e3c565b61010b54909150611127906000805160206150b9833981519152906001600160a01b0316346001612e3c565b61010b54909150611153906000805160206150b9833981519152906001600160a01b0316346001612e3c565b61010b5490915061117f906000805160206150b9833981519152906001600160a01b0316346001612e3c565b61010b549091506111ab906000805160206150b9833981519152906001600160a01b0316346001612e3c565b61010b549091506111d7906000805160206150b9833981519152906001600160a01b0316346001612e3c565b905061011660009054906101000a90046001600160a01b03166001600160a01b031663d0e30db0346040518263ffffffff1660e01b81526004016000604051808303818588803b15801561122a57600080fd5b505af115801561123e573d6000803e3d6000fd5b50506101165460405163095ea7b360e01b81526000805160206150d983398151915260048201523460248201526001600160a01b03909116935063095ea7b392506044019050602060405180830381600087803b15801561129e57600080fd5b505af11580156112b2573d6000803e3d6000fd5b505050506040513d601f19601f820116820180604052508101906112d6919061497e565b5060408051610100810182526000805160206150b9833981519152815261010b546001600160a01b03166020820152610bb89181019190915230606082015242608082015260009060a0810161132d600a34614eae565b81526000602082018190526040918201819052905163414bf38960e01b8152919250906000805160206150d98339815191529063414bf38990611374908590600401614d06565b602060405180830381600087803b15801561138e57600080fd5b505af11580156113a2573d6000803e3d6000fd5b505050506040513d601f19601f820116820180604052508101906113c69190614ab1565b60405163414bf38960e01b81529091506000805160206150d98339815191529063414bf389906113fa908590600401614d06565b602060405180830381600087803b15801561141457600080fd5b505af1158015611428573d6000803e3d6000fd5b505050506040513d601f19601f8201168201806040525081019061144c9190614ab1565b60405163414bf38960e01b81529091506000805160206150d98339815191529063414bf38990611480908590600401614d06565b602060405180830381600087803b15801561149a57600080fd5b505af11580156114ae573d6000803e3d6000fd5b505050506040513d601f19601f820116820180604052508101906114d29190614ab1565b60405163414bf38960e01b81529091506000805160206150d98339815191529063414bf38990611506908590600401614d06565b602060405180830381600087803b15801561152057600080fd5b505af1158015611534573d6000803e3d6000fd5b505050506040513d601f19601f820116820180604052508101906115589190614ab1565b60405163414bf38960e01b81529091506000805160206150d98339815191529063414bf3899061158c908590600401614d06565b602060405180830381600087803b1580156115a657600080fd5b505af11580156115ba573d6000803e3d6000fd5b505050506040513d601f19601f820116820180604052508101906115de9190614ab1565b60405163414bf38960e01b81529091506000805160206150d98339815191529063414bf38990611612908590600401614d06565b602060405180830381600087803b15801561162c57600080fd5b505af1158015611640573d6000803e3d6000fd5b505050506040513d601f19601f820116820180604052508101906116649190614ab1565b60405163414bf38960e01b81529091506000805160206150d98339815191529063414bf38990611698908590600401614d06565b602060405180830381600087803b1580156116b257600080fd5b505af11580156116c6573d6000803e3d6000fd5b505050506040513d601f19601f820116820180604052508101906116ea9190614ab1565b60405163414bf38960e01b81529091506000805160206150d98339815191529063414bf3899061171e908590600401614d06565b602060405180830381600087803b15801561173857600080fd5b505af115801561174c573d6000803e3d6000fd5b505050506040513d601f19601f820116820180604052508101906117709190614ab1565b60405163414bf38960e01b81529091506000805160206150d98339815191529063414bf389906117a4908590600401614d06565b602060405180830381600087803b1580156117be57600080fd5b505af11580156117d2573d6000803e3d6000fd5b505050506040513d601f19601f820116820180604052508101906117f69190614ab1565b60405163414bf38960e01b81529091506000805160206150d98339815191529063414bf3899061182a908590600401614d06565b602060405180830381600087803b15801561184457600080fd5b505af1158015611858573d6000803e3d6000fd5b505050506040513d601f19601f8201168201806040525081019061187c9190614ab1565b50505050565b61011660009054906101000a90046001600160a01b03166001600160a01b031663d0e30db0346040518263ffffffff1660e01b81526004016000604051808303818588803b1580156118d357600080fd5b505af11580156118e7573d6000803e3d6000fd5b505050505060006118f6612bd5565b90503460005b600a811015611963576119506000805160206150b983398151915261010c838154811061192b5761192b615077565b6000918252602090912001546001600160a01b031661194b600a86614eae565b613257565b508061195b81614ff8565b9150506118fc565b50600080611970603b5490565b111561199c578282611981603b5490565b61198b9190614ef1565b6119959190614eae565b905061199f565b50805b6119a93382613588565b505050565b61011660009054906101000a90046001600160a01b03166001600160a01b031663d0e30db0346040518263ffffffff1660e01b81526004016000604051808303818588803b1580156119ff57600080fd5b505af1158015611a13573d6000803e3d6000fd5b50506101165460405163095ea7b360e01b81526000805160206150d983398151915260048201523460248201526001600160a01b03909116935063095ea7b392506044019050602060405180830381600087803b158015611a7357600080fd5b505af1158015611a87573d6000803e3d6000fd5b505050506040513d601f19601f82011682018060405250810190611aab919061497e565b5060408051610100810182526000805160206150b9833981519152815261010b546001600160a01b03166020820152610bb8818301523060608201524260808201523460a0820152600060c0820181905260e08201819052915163414bf38960e01b81529091906000805160206150d98339815191529063414bf38990611b36908590600401614d06565b602060405180830381600087803b158015611b5057600080fd5b505af1158015611b64573d6000803e3d6000fd5b505050506040513d601f19601f820116820180604052508101906119a99190614ab1565b6101128181548110611b9957600080fd5b6000918252602090912001546001600160a01b0316905081565b6000611bbd61358c565b33600090815261010a602052604090205460ff1615611bf75760405162461bcd60e51b8152600401611bee90614bf0565b60405180910390fd5b6001600160a01b038316600090815261010a602052604090205460ff1615611c315760405162461bcd60e51b8152600401611bee90614bc6565b6001600160a01b038416600090815261010a602052604090205460ff1615611c905760405162461bcd60e51b8152602060048201526012602482015271199c9bdb481a5cc81c995cdd1c9a58dd195960721b6044820152606401611bee565b611c9b8433846135d2565b611015848484613646565b9392505050565b600654610100900460ff1615808015611ccd5750600654600160ff909116105b80611ce75750303b158015611ce7575060065460ff166001145b611d4a5760405162461bcd60e51b815260206004820152602e60248201527f496e697469616c697a61626c653a20636f6e747261637420697320616c72656160448201526d191e481a5b9a5d1a585b1a5e995960921b6064820152608401611bee565b6006805460ff191660011790558015611d6d576006805461ff0019166101001790555b6001600160a01b038616611d8057600080fd5b611d886137f1565b611d90613820565b611d9a898961384f565b611da2613880565b61010387905561010580546001600160a01b0388166001600160a01b03199091161790556101098590554261010455611df884600280546001600160a01b039092166001600160a01b0319909216919091179055565b600380546001600160a01b0319166001600160a01b03851617905561010f829055600a611e2e670de0b6b3a76400006001614ef1565b611e389190614eae565b610110558015611e82576006805461ff0019169055604051600181527f7f26b83ff96e1f2b6a682f133852f6798a09c465da95921460cefb38474024989060200160405180910390a15b505050505050505050565b600033611015818585611ea08383612f04565b611eaa9190614e32565b613133565b6101175460405163f7729d4360e01b81526000805160206150b983398151915260048201527327c70cd1946795b66be9d954418546998b5466346024820152610bb86044820152670de0b6b3a7640000606482015260006084820181905291829182916001600160a01b03169063f7729d439060a401602060405180830381600087803b158015611f3f57600080fd5b505af1925050508015611f6f575060408051601f3d908101601f19168201909252611f6c91810190614ab1565b60015b611f7b57506000611f7e565b90505b6040805160028082526060820183526000926020830190803683370190505090506000805160206150b983398151915281600081518110611fc157611fc1615077565b60200260200101906001600160a01b031690816001600160a01b0316815250507327c70cd1946795b66be9d954418546998b5466348160018151811061200957612009615077565b6001600160a01b039092166020928302919091019091015260405163d06ca61f60e01b8152600090737a250d5630b4cf539739df2c5dacb4c659f2488d9063d06ca61f9061206590670de0b6b3a7640000908690600401614b58565b60006040518083038186803b15801561207d57600080fd5b505afa9250505080156120b257506040513d6000823e601f3d908101601f191682016040526120af91908101906148e6565b60015b6120be57506000610f6a565b806001815181106120d1576120d1615077565b6020026020010151915050919491935090915050565b6120ef6138a7565b6120f7613901565b565b61210161358c565b610107546001600160a01b0316331461212c5760405162461bcd60e51b8152600401611bee90614c27565b610109548161213a603b5490565b6121449190614e32565b11156121925760405162461bcd60e51b815260206004820152601a60248201527f77696c6c2065786365656420737570706c79206365696c696e670000000000006044820152606401611bee565b6001600160a01b038216600090815261010a602052604090205460ff16156121cc5760405162461bcd60e51b8152600401611bee90614bc6565b33600090815261010a602052604090205460ff16156121fd5760405162461bcd60e51b8152600401611bee90614bf0565b612205613953565b61220f8282613a86565b5050565b61221b6138a7565b612223613953565b61010381905560405181907f45398c451b1a31b88dbaed4e7b89a632f43cc4b50149d437db03a5300afe40d190600090a250565b6101175460405163f7729d4360e01b81526001600160a01b0385811660048301528481166024830152610bb860448301526064820184905260006084830181905292839283929091169063f7729d439060a401602060405180830381600087803b1580156122c457600080fd5b505af19250505080156122f4575060408051601f3d908101601f191682019092526122f191810190614ab1565b60015b61230057506000612303565b90505b604080516002808252606082018352600092602083019080368337019050509050868160008151811061233857612338615077565b60200260200101906001600160a01b031690816001600160a01b031681525050858160018151811061236c5761236c615077565b6001600160a01b039092166020928302919091019091015260405163d06ca61f60e01b8152600090737a250d5630b4cf539739df2c5dacb4c659f2488d9063d06ca61f906123c09089908690600401614b58565b60006040518083038186803b1580156123d857600080fd5b505afa92505050801561240d57506040513d6000823e601f3d908101601f1916820160405261240a91908101906148e6565b60015b61241957506000612438565b8060018151811061242c5761242c615077565b60200260200101519150505b8083116124455780612447565b825b945080831161245757600061245a565b60015b9350505050935093915050565b670de0b6b3a764000061247a3383613b47565b60005b600a8110156125925761257f61010c828154811061249d5761249d615077565b9060005260206000200160009054906101000a90046001600160a01b03166000805160206150b9833981519152670de0b6b3a764000061010c85815481106124e7576124e7615077565b6000918252602090912001546040516370a0823160e01b81523060048201526001600160a01b03909116906370a082319060240160206040518083038186803b15801561253357600080fd5b505afa158015612547573d6000803e3d6000fd5b505050506040513d601f19601f8201168201806040525081019061256b9190614ab1565b6125759087614ef1565b61194b9190614eae565b508061258a81614ff8565b91505061247d565b50610116546040516370a0823160e01b81523060048201526001600160a01b039091169063a9059cbb90339083906370a082319060240160206040518083038186803b1580156125e157600080fd5b505afa1580156125f5573d6000803e3d6000fd5b505050506040513d601f19601f820116820180604052508101906126199190614ab1565b6040516001600160e01b031960e085901b1681526001600160a01b03909216600483015260248201526044015b602060405180830381600087803b15801561266057600080fd5b505af1158015612674573d6000803e3d6000fd5b505050506040513d601f19601f8201168201806040525081019061187c919061497e565b6126a06138a7565b6001600160a01b0381166126b357600080fd5b61010680546001600160a01b0319166001600160a01b0383169081179091556040517f164d8ef0d742b45087644f55c61abeb84557df70d06730591e451f0981e278ca90600090a250565b6127066138a7565b6101098190556040518181527fe35be406f69e9d11d6ac8e5b54bbc8b6c4baf2fa2359f84a56baa5ea5d07dc8f906020015b60405180910390a150565b61274b6138a7565b6120f76000613b4f565b610107546001600160a01b031633146127805760405162461bcd60e51b8152600401611bee90614c27565b60405163095ea7b360e01b81526001600160a01b0383811660048301526024820183905284169063095ea7b390604401612646565b6127bd6138a7565b6120f7613ba1565b6040516323b872dd60e01b8152336004820152306024820152604481018290526001600160a01b038316906323b872dd90606401602060405180830381600087803b15801561281357600080fd5b505af1158015612827573d6000803e3d6000fd5b505050506040513d601f19601f8201168201806040525081019061284b919061497e565b506000612856612bd5565b90506000612873846000805160206150b983398151915285613257565b905060005b600a8110156128ba576128a76000805160206150b983398151915261010c838154811061192b5761192b615077565b50806128b281614ff8565b915050612878565b506000806128c7603b5490565b11156128f35782826128d8603b5490565b6128e29190614ef1565b6128ec9190614eae565b90506128f6565b50805b6129003382613588565b5050505050565b610106546001600160a01b031633146129765760405162461bcd60e51b815260206004820152602b60248201527f496e646578546f6b656e3a2063616c6c6572206973206e6f7420746865206d6560448201526a1d1a1bd91bdb1bd9da5cdd60aa1b6064820152608401611bee565b805161298a9061010890602084019061453f565b507fe6be68107100e39cb16d675c1086a4d5479fbd01108d721dabbccaa2249b995f816040516127389190614b71565b6060603d8054610f8490614fc3565b6101138181548110611b9957600080fd5b6129e261358c565b610107546001600160a01b03163314612a0d5760405162461bcd60e51b8152600401611bee90614c27565b6001600160a01b038216600090815261010a602052604090205460ff1615612a6c5760405162461bcd60e51b8152602060048201526012602482015271199c9bdb481a5cc81c995cdd1c9a58dd195960721b6044820152606401611bee565b33600090815261010a602052604090205460ff1615612a9d5760405162461bcd60e51b8152600401611bee90614bf0565b612aa5613953565b61220f8282613bde565b6101088054612abd90614fc3565b80601f0160208091040260200160405190810160405280929190818152602001828054612ae990614fc3565b8015612b365780601f10612b0b57610100808354040283529160200191612b36565b820191906000526020600020905b815481529060010190602001808311612b1957829003601f168201915b505050505081565b61010c8181548110611b9957600080fd5b60003381612b5d8286612f04565b905083811015612bbd5760405162461bcd60e51b815260206004820152602560248201527f45524332303a2064656372656173656420616c6c6f77616e63652062656c6f77604482015264207a65726f60d81b6064820152608401611bee565b612bca8286868403613133565b506001949350505050565b60008060005b600a811015612ce957600080612cc361010c8481548110612bfe57612bfe615077565b9060005260206000200160009054906101000a90046001600160a01b03166000805160206150b983398151915261010c8681548110612c3f57612c3f615077565b6000918252602090912001546040516370a0823160e01b81523060048201526001600160a01b03909116906370a082319060240160206040518083038186803b158015612c8b57600080fd5b505afa158015612c9f573d6000803e3d6000fd5b505050506040513d601f19601f820116820180604052508101906107d49190614ab1565b9092509050612cd28285614e32565b935050508080612ce190614ff8565b915050612bdb565b50919050565b6000612cf961358c565b33600090815261010a602052604090205460ff1615612d2a5760405162461bcd60e51b8152600401611bee90614bf0565b6001600160a01b038316600090815261010a602052604090205460ff1615612d645760405162461bcd60e51b8152600401611bee90614bc6565b612d6f338484613646565b50600192915050565b612d806138a7565b6001600160a01b038116600081815261010a602052604090819020805460ff19811660ff9182161590811790925591517f14ddf324cc5d8b14a3c3b12c84b0a7d578d72c8d60655c06d6a457e71431d5ee92612de192161515815260200190565b60405180910390a250565b612df46138a7565b6001600160a01b038116612e1a5760405162461bcd60e51b8152600401611bee90614c6b565b609d80546001600160a01b0319166001600160a01b0392909216919091179055565b604051630b4c774160e11b81526001600160a01b03808616600483015284166024820152610bb860448201526000908190731f98431c8ad98523631ae4a59f267346ea31f98490631698ee829060640160206040518083038186803b158015612ea457600080fd5b505afa158015612eb8573d6000803e3d6000fd5b505050506040513d601f19601f82011682018060405250810190612edc91906146e0565b90506000612eea8285613d12565b509050612ef981868989613f68565b979650505050505050565b6001600160a01b039182166000908152603a6020908152604080832093909416825291909152205490565b612f376138a7565b6001600160a01b038116612f4a57600080fd5b61010580546001600160a01b0319166001600160a01b0383169081179091556040517fbdf37c276f641820b141429d245add2552b4118c0866e5a78638e3de5ef18d9d90600090a250565b6001600160a01b038116612fbb5760405162461bcd60e51b8152600401611bee90614c6b565b609d546001600160a01b038281169116146130335760405162461bcd60e51b815260206004820152603260248201527f50726f706f7361626c654f776e61626c653a206e6577206f776e6572206973206044820152713737ba10383937b837b9b2b21037bbb732b960711b6064820152608401611bee565b6001600160a01b03811633146130b15760405162461bcd60e51b815260206004820152603a60248201527f50726f706f7361626c654f776e61626c653a20746869732063616c6c206d757360448201527f74206265206d61646520627920746865206e6577206f776e65720000000000006064820152608401611bee565b6130ba81613b4f565b50565b6130c56138a7565b6120f7613953565b6130d56138a7565b6001600160a01b0381166130e857600080fd5b61010780546001600160a01b0319166001600160a01b0383169081179091556040517f726b590ef91a8c76ad05bbe91a57ef84605276528f49cd47d787f558a4e755b690600090a250565b6001600160a01b0383166131955760405162461bcd60e51b8152602060048201526024808201527f45524332303a20617070726f76652066726f6d20746865207a65726f206164646044820152637265737360e01b6064820152608401611bee565b6001600160a01b0382166131f65760405162461bcd60e51b815260206004820152602260248201527f45524332303a20617070726f766520746f20746865207a65726f206164647265604482015261737360f01b6064820152608401611bee565b6001600160a01b038381166000818152603a602090815260408083209487168084529482529182902085905590518481527f8c5be1e5ebec7d5bd14f71427d1e84f3dd0314c0f7b2291e5b200ac8c7c3b925910160405180910390a3505050565b6000806000613267868686612257565b9092509050811561357f57600181600181111561328657613286615061565b14156133f55760405163095ea7b360e01b81526000805160206150d98339815191526004820152602481018590526001600160a01b0387169063095ea7b390604401602060405180830381600087803b1580156132e257600080fd5b505af11580156132f6573d6000803e3d6000fd5b505050506040513d601f19601f8201168201806040525081019061331a919061497e565b5060408051610100810182526001600160a01b03808916825287166020820152610bb88183015230606082015242608082015260a08101869052600060c0820181905260e08201819052915163414bf38960e01b81529091906000805160206150d98339815191529063414bf38990613397908590600401614d06565b602060405180830381600087803b1580156133b157600080fd5b505af11580156133c5573d6000803e3d6000fd5b505050506040513d601f19601f820116820180604052508101906133e99190614ab1565b9450611ca69350505050565b604080516002808252606082018352600092602083019080368337019050509050868160008151811061342a5761342a615077565b60200260200101906001600160a01b031690816001600160a01b031681525050858160018151811061345e5761345e615077565b6001600160a01b03928316602091820292909201015260405163095ea7b360e01b8152737a250d5630b4cf539739df2c5dacb4c659f2488d6004820152602481018790529088169063095ea7b390604401602060405180830381600087803b1580156134c957600080fd5b505af11580156134dd573d6000803e3d6000fd5b505050506040513d601f19601f82011682018060405250810190613501919061497e565b50604051635c11d79560e01b8152737a250d5630b4cf539739df2c5dacb4c659f2488d90635c11d79590613542908890600090869030904290600401614da1565b600060405180830381600087803b15801561355c57600080fd5b505af1158015613570573d6000803e3d6000fd5b50505050829350505050611ca6565b50509392505050565b61212c5b60d05460ff16156120f75760405162461bcd60e51b815260206004820152601060248201526f14185d5cd8589b194e881c185d5cd95960821b6044820152606401611bee565b60006135de8484612f04565b9050600019811461187c57818110156136395760405162461bcd60e51b815260206004820152601d60248201527f45524332303a20696e73756666696369656e7420616c6c6f77616e63650000006044820152606401611bee565b61187c8484848403613133565b6001600160a01b0383166136aa5760405162461bcd60e51b815260206004820152602560248201527f45524332303a207472616e736665722066726f6d20746865207a65726f206164604482015264647265737360d81b6064820152608401611bee565b6001600160a01b03821661370c5760405162461bcd60e51b815260206004820152602360248201527f45524332303a207472616e7366657220746f20746865207a65726f206164647260448201526265737360e81b6064820152608401611bee565b6001600160a01b038316600090815260396020526040902054818110156137845760405162461bcd60e51b815260206004820152602660248201527f45524332303a207472616e7366657220616d6f756e7420657863656564732062604482015265616c616e636560d01b6064820152608401611bee565b6001600160a01b0380851660008181526039602052604080822086860390559286168082529083902080548601905591517fddf252ad1be2c89b69c2b068fc378daa952ba7f163c4a11628f55a4df523b3ef906137e49086815260200190565b60405180910390a361187c565b600654610100900460ff166138185760405162461bcd60e51b8152600401611bee90614cbb565b6120f7614072565b600654610100900460ff166138475760405162461bcd60e51b8152600401611bee90614cbb565b6120f76140a2565b600654610100900460ff166138765760405162461bcd60e51b8152600401611bee90614cbb565b61220f82826140d5565b600654610100900460ff166120f75760405162461bcd60e51b8152600401611bee90614cbb565b606b546001600160a01b031633146120f75760405162461bcd60e51b815260206004820181905260248201527f4f776e61626c653a2063616c6c6572206973206e6f7420746865206f776e65726044820152606401611bee565b613909614123565b60d0805460ff191690557f5db9ee0a495bf2e6ff9c91a7834c1ba4fdd244a5e8aa4e537bd38aeae4b073aa335b6040516001600160a01b03909116815260200160405180910390a1565b60006201518061010454426139689190614f88565b6139729190614eae565b9050600181106130ba576000613987603b5490565b61010354909150819060005b848110156139cd5768056bc75e2d631000006139af8385614ef1565b6139b99190614eae565b6139c39084614e32565b9250600101613993565b5060006139da8484614f88565b90506139e98562015180614ef1565b61010460008282546139fb9190614e32565b909155505061010554613a17906001600160a01b031682613a86565b610105547f07982395c678b2ffc23fcf59aaec243ca79418c285af0d0e10b4e65bc4189f4c906001600160a01b031642613a50603b5490565b604080516001600160a01b0390941684526020840192909252908201526060810183905260800160405180910390a15050505050565b6001600160a01b038216613adc5760405162461bcd60e51b815260206004820152601f60248201527f45524332303a206d696e7420746f20746865207a65726f2061646472657373006044820152606401611bee565b80603b6000828254613aee9190614e32565b90915550506001600160a01b0382166000818152603960209081526040808320805486019055518481527fddf252ad1be2c89b69c2b068fc378daa952ba7f163c4a11628f55a4df523b3ef910160405180910390a35050565b612a0d61358c565b606b80546001600160a01b038381166001600160a01b0319831681179093556040519116919082907f8be0079c531659141344cd1fd0a4f28419497f9722a3daafe3b4186f6b6457e090600090a35050565b613ba961358c565b60d0805460ff191660011790557f62e78cea01bee320cd4e420270b5ea74000d11b0c9f74754ebdbfc544b05a2586139363390565b6001600160a01b038216613c3e5760405162461bcd60e51b815260206004820152602160248201527f45524332303a206275726e2066726f6d20746865207a65726f206164647265736044820152607360f81b6064820152608401611bee565b6001600160a01b03821660009081526039602052604090205481811015613cb25760405162461bcd60e51b815260206004820152602260248201527f45524332303a206275726e20616d6f756e7420657863656564732062616c616e604482015261636560f01b6064820152608401611bee565b6001600160a01b03831660008181526039602090815260408083208686039055603b80548790039055518581529192917fddf252ad1be2c89b69c2b068fc378daa952ba7f163c4a11628f55a4df523b3ef910160405180910390a3505050565b60008063ffffffff8316613d4d5760405162461bcd60e51b8152602060048201526002602482015261042560f41b6044820152606401611bee565b6040805160028082526060820183526000926020830190803683370190505090508381600081518110613d8257613d82615077565b602002602001019063ffffffff16908163ffffffff1681525050600081600181518110613db157613db1615077565b602002602001019063ffffffff16908163ffffffff1681525050600080866001600160a01b031663883bdbfd846040518263ffffffff1660e01b8152600401613dfa9190614b0e565b60006040518083038186803b158015613e1257600080fd5b505afa158015613e26573d6000803e3d6000fd5b505050506040513d6000823e601f3d908101601f19168201604052613e4e9190810190614814565b91509150600082600081518110613e6757613e67615077565b602002602001015183600181518110613e8257613e82615077565b6020026020010151613e949190614f10565b9050600082600081518110613eab57613eab615077565b602002602001015183600181518110613ec657613ec6615077565b6020026020010151613ed89190614f60565b9050613eea63ffffffff891683614e4a565b965060008260060b128015613f105750613f0a63ffffffff891683615013565b60060b15155b15613f235786613f1f81614f9f565b9750505b6000613f3c6001600160a01b0363ffffffff8b16614ec2565b9050613f59640100000000600160c01b03602084901b1682614e88565b96505050505050509250929050565b600080613f748661416c565b90506001600160801b036001600160a01b03821611613ffa576000613fa26001600160a01b03831680614ef1565b9050836001600160a01b0316856001600160a01b031610613fda57613fd5600160c01b876001600160801b03168361448c565b613ff2565b613ff281876001600160801b0316600160c01b61448c565b925050614069565b60006140196001600160a01b038316806801000000000000000061448c565b9050836001600160a01b0316856001600160a01b0316106140515761404c600160801b876001600160801b03168361448c565b612ef9565b612ef981876001600160801b0316600160801b61448c565b50949350505050565b600654610100900460ff166140995760405162461bcd60e51b8152600401611bee90614cbb565b6120f733613b4f565b600654610100900460ff166140c95760405162461bcd60e51b8152600401611bee90614cbb565b60d0805460ff19169055565b600654610100900460ff166140fc5760405162461bcd60e51b8152600401611bee90614cbb565b815161410f90603c90602085019061453f565b5080516119a990603d90602084019061453f565b60d05460ff166120f75760405162461bcd60e51b815260206004820152601460248201527314185d5cd8589b194e881b9bdd081c185d5cd95960621b6044820152606401611bee565b60008060008360020b12614183578260020b61418b565b8260020b6000035b9050620d89e88111156141b1576040516315e4079d60e11b815260040160405180910390fd5b6000600182166141c557600160801b6141d7565b6ffffcb933bd6fad37aa2d162d1a5940015b70ffffffffffffffffffffffffffffffffff169050600282161561420b576ffff97272373d413259a46990580e213a0260801c5b600482161561422a576ffff2e50f5f656932ef12357cf3c7fdcc0260801c5b6008821615614249576fffe5caca7e10e4e61c3624eaa0941cd00260801c5b6010821615614268576fffcb9843d60f6159c9db58835c9266440260801c5b6020821615614287576fff973b41fa98c081472e6896dfb254c00260801c5b60408216156142a6576fff2ea16466c96a3843ec78b326b528610260801c5b60808216156142c5576ffe5dee046a99a2a811c461f1969c30530260801c5b6101008216156142e5576ffcbe86c7900a88aedcffc83b479aa3a40260801c5b610200821615614305576ff987a7253ac413176f2b074cf7815e540260801c5b610400821615614325576ff3392b0822b70005940c7a398e4b70f30260801c5b610800821615614345576fe7159475a2c29b7443b29c7fa6e889d90260801c5b611000821615614365576fd097f3bdfd2022b8845ad8f792aa58250260801c5b612000821615614385576fa9f746462d870fdf8a65dc1f90e061e50260801c5b6140008216156143a5576f70d869a156d2a1b890bb3df62baf32f70260801c5b6180008216156143c5576f31be135f97d08fd981231505542fcfa60260801c5b620100008216156143e6576f09aa508b5b7a84e1c677de54f3e99bc90260801c5b62020000821615614406576e5d6af8dedb81196699c329225ee6040260801c5b62040000821615614425576d2216e584f5fa1ea926041bedfe980260801c5b62080000821615614442576b048a170391f7dc42444e8fa20260801c5b60008460020b131561446357806000198161445f5761445f61504b565b0490505b64010000000081061561447757600161447a565b60005b60ff16602082901c0192505050919050565b6000808060001985870985870292508281108382030391505080600014156144c657600084116144bb57600080fd5b508290049050611ca6565b8084116144d257600080fd5b6000848688096000868103871696879004966002600389028118808a02820302808a02820302808a02820302808a02820302808a02820302808a02909103029181900381900460010186841190950394909402919094039290920491909117919091029150509392505050565b82805461454b90614fc3565b90600052602060002090601f01602090048101928261456d57600085556145b3565b82601f1061458657805160ff19168380011785556145b3565b828001600101855582156145b3579182015b828111156145b3578251825591602001919060010190614598565b506145bf9291506145c3565b5090565b5b808211156145bf57600081556001016145c4565b600082601f8301126145e957600080fd5b815160206145fe6145f983614e0e565b614ddd565b80838252828201915082860187848660051b890101111561461e57600080fd5b60005b85811015614646578151614634816150a3565b84529284019290840190600101614621565b5090979650505050505050565b600082601f83011261466457600080fd5b813567ffffffffffffffff81111561467e5761467e61508d565b614691601f8201601f1916602001614ddd565b8181528460208386010111156146a657600080fd5b816020850160208301376000918101602001919091529392505050565b6000602082840312156146d557600080fd5b8135611ca6816150a3565b6000602082840312156146f257600080fd5b8151611ca6816150a3565b6000806040838503121561471057600080fd5b823561471b816150a3565b9150602083013561472b816150a3565b809150509250929050565b6000806000806080858703121561474c57600080fd5b8435614757816150a3565b93506020850135614767816150a3565b925060408501356001600160801b038116811461478357600080fd5b9150606085013563ffffffff8116811461479c57600080fd5b939692955090935050565b6000806000606084860312156147bc57600080fd5b83356147c7816150a3565b925060208401356147d7816150a3565b929592945050506040919091013590565b600080604083850312156147fb57600080fd5b8235614806816150a3565b946020939093013593505050565b6000806040838503121561482757600080fd5b825167ffffffffffffffff8082111561483f57600080fd5b818501915085601f83011261485357600080fd5b815160206148636145f983614e0e565b8083825282820191508286018a848660051b890101111561488357600080fd5b600096505b848710156148b55780518060060b81146148a157600080fd5b835260019690960195918301918301614888565b50918801519196509093505050808211156148cf57600080fd5b506148dc858286016145d8565b9150509250929050565b600060208083850312156148f957600080fd5b825167ffffffffffffffff81111561491057600080fd5b8301601f8101851361492157600080fd5b805161492f6145f982614e0e565b80828252848201915084840188868560051b870101111561494f57600080fd5b600094505b83851015614972578051835260019490940193918501918501614954565b50979650505050505050565b60006020828403121561499057600080fd5b81518015158114611ca657600080fd5b6000602082840312156149b257600080fd5b813567ffffffffffffffff8111156149c957600080fd5b6149d584828501614653565b949350505050565b600080600080600080600080610100898b0312156149fa57600080fd5b883567ffffffffffffffff80821115614a1257600080fd5b614a1e8c838d01614653565b995060208b0135915080821115614a3457600080fd5b50614a418b828c01614653565b975050604089013595506060890135614a59816150a3565b94506080890135935060a0890135614a70816150a3565b925060c0890135614a80816150a3565b8092505060e089013590509295985092959890939650565b600060208284031215614aaa57600080fd5b5035919050565b600060208284031215614ac357600080fd5b5051919050565b600081518084526020808501945080840160005b83811015614b035781516001600160a01b031687529582019590820190600101614ade565b509495945050505050565b6020808252825182820181905260009190848201906040850190845b81811015614b4c57835163ffffffff1683529284019291840191600101614b2a565b50909695505050505050565b8281526040602082015260006149d56040830184614aca565b600060208083528351808285015260005b81811015614b9e57858101830151858201604001528201614b82565b81811115614bb0576000604083870101525b50601f01601f1916929092016040019392505050565b60208082526010908201526f1d1bc81a5cc81c995cdd1c9a58dd195960821b604082015260600190565b60208082526018908201527f6d73672e73656e64657220697320726573747269637465640000000000000000604082015260600190565b60208082526024908201527f496e646578546f6b656e3a2063616c6c6572206973206e6f7420746865206d69604082015263373a32b960e11b606082015260800190565b60208082526030908201527f50726f706f7361626c654f776e61626c653a206e6577206f776e65722069732060408201526f746865207a65726f206164647265737360801b606082015260800190565b6020808252602b908201527f496e697469616c697a61626c653a20636f6e7472616374206973206e6f74206960408201526a6e697469616c697a696e6760a81b606082015260800190565b81516001600160a01b03908116825260208084015182169083015260408084015162ffffff16908301526060808401518216908301526080808401519083015260a0838101519083015260c0808401519083015260e09283015116918101919091526101000190565b8281526040810160028310614d9457634e487b7160e01b600052602160045260246000fd5b8260208301529392505050565b85815284602082015260a060408201526000614dc060a0830186614aca565b6001600160a01b0394909416606083015250608001529392505050565b604051601f8201601f1916810167ffffffffffffffff81118282101715614e0657614e0661508d565b604052919050565b600067ffffffffffffffff821115614e2857614e2861508d565b5060051b60200190565b60008219821115614e4557614e45615035565b500190565b60008160060b8360060b80614e6157614e6161504b565b667fffffffffffff19821460001982141615614e7f57614e7f615035565b90059392505050565b60006001600160c01b0383811680614ea257614ea261504b565b92169190910492915050565b600082614ebd57614ebd61504b565b500490565b60006001600160c01b0382811684821681151582840482111615614ee857614ee8615035565b02949350505050565b6000816000190483118215151615614f0b57614f0b615035565b500290565b60008160060b8360060b6000811281667fffffffffffff1901831281151615614f3b57614f3b615035565b81667fffffffffffff018313811615614f5657614f56615035565b5090039392505050565b60006001600160a01b0383811690831681811015614f8057614f80615035565b039392505050565b600082821015614f9a57614f9a615035565b500390565b60008160020b627fffff19811415614fb957614fb9615035565b6000190192915050565b600181811c90821680614fd757607f821691505b60208210811415612ce957634e487b7160e01b600052602260045260246000fd5b600060001982141561500c5761500c615035565b5060010190565b60008260060b806150265761502661504b565b808360060b0791505092915050565b634e487b7160e01b600052601160045260246000fd5b634e487b7160e01b600052601260045260246000fd5b634e487b7160e01b600052602160045260246000fd5b634e487b7160e01b600052603260045260246000fd5b634e487b7160e01b600052604160045260246000fd5b6001600160a01b03811681146130ba57600080fdfe000000000000000000000000c02aaa39b223fe8d0a0e5c4f27ead9083c756cc2000000000000000000000000e592427a0aece92de3edee1f18e0157c05861564a26469706673582212202bf4dd55f0154f9e24db7925c5536d6b5c4d0425002eec10c5b93e36abe6f1db64736f6c6343000807003368747470733a2f2f6170702e6e65786c6162732e696f2f6170692f616c6c46756e64696e6752617465733f6d756c7469706c7946756e633d31382674696d65734e656746756e643d74727565266172726179733d74727565",
    "linkReferences": {}
  },
  "methodIdentifiers": {
    "BONE()": "c36596a6",
    "BabyDoge()": "d1a72ed6",
    "ELON()": "2fab7aea",
    "FLOKI()": "2f9f8c13",
    "HarryPotterObamaSonic10Inu()": "0fb405b7",
    "LEASH()": "ad39e5fd",
    "MEME()": "2e7b0948",
    "PEPE()": "e4fbaecb",
    "QUOTER()": "8dae88c2",
    "SHIB()": "e24b85e7",
    "WETH9()": "4aa4a4fc",
    "WSM()": "5725a977",
    "allowance(address,address)": "dd62ed3e",
    "approve(address,uint256)": "095ea7b3",
    "approveSwapToken(address,address,uint256)": "79e34b4d",
    "assetList(uint256)": "a0b4b301",
    "balanceOf(address)": "70a08231",
    "burn(address,uint256)": "9dc29fac",
    "currentList(uint256)": "9932ba4c",
    "decimals()": "313ce567",
    "decreaseAllowance(address,uint256)": "a457c2d7",
    "estimateAmountOut(address,address,uint128,uint32)": "bf938db8",
    "externalJobId()": "a8b54bd4",
    "factoryV2()": "68e0d4e1",
    "factoryV3()": "1d5f45f5",
    "fee()": "ddca3f43",
    "feeRatePerDayScaled()": "2fecd589",
    "feeReceiver()": "b3f00674",
    "feeTimestamp()": "184a732f",
    "getAmountOut(address,address,uint256)": "4aa06652",
    "getAmounts()": "3d370b4e",
    "getPool()": "026b1d5f",
    "getPortfolioBalance()": "a8509fd8",
    "increaseAllowance(address,uint256)": "39509351",
    "initialize(string,string,uint256,address,uint256,address,address,bytes32)": "25464918",
    "isRestricted(address)": "c01bc982",
    "issuanceIndexTokens(address,uint256)": "8be78847",
    "issuanceIndexTokensWithEth()": "19b1f86a",
    "lastUpdateTime()": "c8f33c91",
    "methodologist()": "9f8e67bf",
    "methodology()": "9eeb1d50",
    "mint(address,uint256)": "40c10f19",
    "mintToFeeReceiver()": "f734e22a",
    "minter()": "07546172",
    "name()": "06fdde03",
    "oracleList(uint256)": "239aad0d",
    "oraclePayment()": "0c02e130",
    "owner()": "8da5cb5b",
    "pause()": "8456cb59",
    "paused()": "5c975abb",
    "proposeOwner(address)": "b5ed298a",
    "proposedOwner()": "d153b60c",
    "quoter()": "c6bbd5a7",
    "redemption(address,uint256)": "616bcd21",
    "renounceOwnership()": "715018a6",
    "setFeeRate(uint256)": "45596e2e",
    "setFeeReceiver(address)": "efdcd974",
    "setMethodologist(address)": "660db484",
    "setMethodology(string)": "91fe1b92",
    "setMinter(address)": "fca3b5aa",
    "setSupplyCeiling(uint256)": "6e01a686",
    "supplyCeiling()": "2b52684d",
    "swapGas()": "209db530",
    "swapGas1()": "12740eb5",
    "swapRouterV2()": "744fbc7a",
    "swapRouterV3()": "b631e80b",
    "symbol()": "95d89b41",
    "toggleRestriction(address)": "aaa4a184",
    "tokenMarketShare(address)": "fcaae87b",
    "tokenSwapVersion(address)": "d90bc211",
    "totalSupply()": "18160ddd",
    "transfer(address,uint256)": "a9059cbb",
    "transferFrom(address,address,uint256)": "23b872dd",
    "transferOwnership(address)": "f2fde38b",
    "unpause()": "3f4ba83a",
    "weth()": "3fc8cef3"
  },
  "id": 23
}