{"abi":[{"type":"receive","stateMutability":"payable"},{"type":"function","name":"allowance","inputs":[{"name":"owner","type":"address","internalType":"address"},{"name":"spender","type":"address","internalType":"address"}],"outputs":[{"name":"","type":"uint256","internalType":"uint256"}],"stateMutability":"view"},{"type":"function","name":"approve","inputs":[{"name":"spender","type":"address","internalType":"address"},{"name":"amount","type":"uint256","internalType":"uint256"}],"outputs":[{"name":"","type":"bool","internalType":"bool"}],"stateMutability":"nonpayable"},{"type":"function","name":"balanceOf","inputs":[{"name":"account","type":"address","internalType":"address"}],"outputs":[{"name":"","type":"uint256","internalType":"uint256"}],"stateMutability":"view"},{"type":"function","name":"burn","inputs":[{"name":"from","type":"address","internalType":"address"},{"name":"amount","type":"uint256","internalType":"uint256"}],"outputs":[],"stateMutability":"nonpayable"},{"type":"function","name":"decimals","inputs":[],"outputs":[{"name":"","type":"uint8","internalType":"uint8"}],"stateMutability":"view"},{"type":"function","name":"decreaseAllowance","inputs":[{"name":"spender","type":"address","internalType":"address"},{"name":"subtractedValue","type":"uint256","internalType":"uint256"}],"outputs":[{"name":"","type":"bool","internalType":"bool"}],"stateMutability":"nonpayable"},{"type":"function","name":"factoryV2","inputs":[],"outputs":[{"name":"","type":"address","internalType":"contract IUniswapV2Factory"}],"stateMutability":"view"},{"type":"function","name":"factoryV3","inputs":[],"outputs":[{"name":"","type":"address","internalType":"contract IUniswapV3Factory"}],"stateMutability":"view"},{"type":"function","name":"fee","inputs":[],"outputs":[{"name":"","type":"uint256","internalType":"uint256"}],"stateMutability":"view"},{"type":"function","name":"feeRatePerDayScaled","inputs":[],"outputs":[{"name":"","type":"uint256","internalType":"uint256"}],"stateMutability":"view"},{"type":"function","name":"feeReceiver","inputs":[],"outputs":[{"name":"","type":"address","internalType":"address"}],"stateMutability":"view"},{"type":"function","name":"feeTimestamp","inputs":[],"outputs":[{"name":"","type":"uint256","internalType":"uint256"}],"stateMutability":"view"},{"type":"function","name":"increaseAllowance","inputs":[{"name":"spender","type":"address","internalType":"address"},{"name":"addedValue","type":"uint256","internalType":"uint256"}],"outputs":[{"name":"","type":"bool","internalType":"bool"}],"stateMutability":"nonpayable"},{"type":"function","name":"initialize","inputs":[{"name":"tokenName","type":"string","internalType":"string"},{"name":"tokenSymbol","type":"string","internalType":"string"},{"name":"_feeRatePerDayScaled","type":"uint256","internalType":"uint256"},{"name":"_feeReceiver","type":"address","internalType":"address"},{"name":"_supplyCeiling","type":"uint256","internalType":"uint256"}],"outputs":[],"stateMutability":"nonpayable"},{"type":"function","name":"isRestricted","inputs":[{"name":"","type":"address","internalType":"address"}],"outputs":[{"name":"","type":"bool","internalType":"bool"}],"stateMutability":"view"},{"type":"function","name":"methodologist","inputs":[],"outputs":[{"name":"","type":"address","internalType":"address"}],"stateMutability":"view"},{"type":"function","name":"methodology","inputs":[],"outputs":[{"name":"","type":"string","internalType":"string"}],"stateMutability":"view"},{"type":"function","name":"mint","inputs":[{"name":"to","type":"address","internalType":"address"},{"name":"amount","type":"uint256","internalType":"uint256"}],"outputs":[],"stateMutability":"nonpayable"},{"type":"function","name":"mintToFeeReceiver","inputs":[],"outputs":[],"stateMutability":"nonpayable"},{"type":"function","name":"minter","inputs":[],"outputs":[{"name":"","type":"address","internalType":"address"}],"stateMutability":"view"},{"type":"function","name":"name","inputs":[],"outputs":[{"name":"","type":"string","internalType":"string"}],"stateMutability":"view"},{"type":"function","name":"owner","inputs":[],"outputs":[{"name":"","type":"address","internalType":"address"}],"stateMutability":"view"},{"type":"function","name":"pause","inputs":[],"outputs":[],"stateMutability":"nonpayable"},{"type":"function","name":"paused","inputs":[],"outputs":[{"name":"","type":"bool","internalType":"bool"}],"stateMutability":"view"},{"type":"function","name":"priceOracle","inputs":[],"outputs":[{"name":"","type":"address","internalType":"address"}],"stateMutability":"view"},{"type":"function","name":"proposeOwner","inputs":[{"name":"_proposedOwner","type":"address","internalType":"address"}],"outputs":[],"stateMutability":"nonpayable"},{"type":"function","name":"proposedOwner","inputs":[],"outputs":[{"name":"","type":"address","internalType":"address"}],"stateMutability":"view"},{"type":"function","name":"quoter","inputs":[],"outputs":[{"name":"","type":"address","internalType":"contract IQuoter"}],"stateMutability":"view"},{"type":"function","name":"renounceOwnership","inputs":[],"outputs":[],"stateMutability":"nonpayable"},{"type":"function","name":"setFeeRate","inputs":[{"name":"_feeRatePerDayScaled","type":"uint256","internalType":"uint256"}],"outputs":[],"stateMutability":"nonpayable"},{"type":"function","name":"setFeeReceiver","inputs":[{"name":"_feeReceiver","type":"address","internalType":"address"}],"outputs":[],"stateMutability":"nonpayable"},{"type":"function","name":"setMethodologist","inputs":[{"name":"_methodologist","type":"address","internalType":"address"}],"outputs":[],"stateMutability":"nonpayable"},{"type":"function","name":"setMethodology","inputs":[{"name":"_methodology","type":"string","internalType":"string"}],"outputs":[],"stateMutability":"nonpayable"},{"type":"function","name":"setMinter","inputs":[{"name":"_minter","type":"address","internalType":"address"}],"outputs":[],"stateMutability":"nonpayable"},{"type":"function","name":"setSupplyCeiling","inputs":[{"name":"_supplyCeiling","type":"uint256","internalType":"uint256"}],"outputs":[],"stateMutability":"nonpayable"},{"type":"function","name":"supplyCeiling","inputs":[],"outputs":[{"name":"","type":"uint256","internalType":"uint256"}],"stateMutability":"view"},{"type":"function","name":"swapRouterV2","inputs":[],"outputs":[{"name":"","type":"address","internalType":"contract IUniswapV2Router02"}],"stateMutability":"view"},{"type":"function","name":"swapRouterV3","inputs":[],"outputs":[{"name":"","type":"address","internalType":"contract ISwapRouter"}],"stateMutability":"view"},{"type":"function","name":"symbol","inputs":[],"outputs":[{"name":"","type":"string","internalType":"string"}],"stateMutability":"view"},{"type":"function","name":"toggleRestriction","inputs":[{"name":"who","type":"address","internalType":"address"}],"outputs":[],"stateMutability":"nonpayable"},{"type":"function","name":"tokenMarketShare","inputs":[{"name":"","type":"address","internalType":"address"}],"outputs":[{"name":"","type":"uint256","internalType":"uint256"}],"stateMutability":"view"},{"type":"function","name":"tokenSwapVersion","inputs":[{"name":"","type":"address","internalType":"address"}],"outputs":[{"name":"","type":"uint256","internalType":"uint256"}],"stateMutability":"view"},{"type":"function","name":"totalSupply","inputs":[],"outputs":[{"name":"","type":"uint256","internalType":"uint256"}],"stateMutability":"view"},{"type":"function","name":"transfer","inputs":[{"name":"to","type":"address","internalType":"address"},{"name":"amount","type":"uint256","internalType":"uint256"}],"outputs":[{"name":"","type":"bool","internalType":"bool"}],"stateMutability":"nonpayable"},{"type":"function","name":"transferFrom","inputs":[{"name":"from","type":"address","internalType":"address"},{"name":"to","type":"address","internalType":"address"},{"name":"amount","type":"uint256","internalType":"uint256"}],"outputs":[{"name":"","type":"bool","internalType":"bool"}],"stateMutability":"nonpayable"},{"type":"function","name":"transferOwnership","inputs":[{"name":"newOwner","type":"address","internalType":"address"}],"outputs":[],"stateMutability":"nonpayable"},{"type":"function","name":"unpause","inputs":[],"outputs":[],"stateMutability":"nonpayable"},{"type":"function","name":"weth","inputs":[],"outputs":[{"name":"","type":"address","internalType":"contract IWETH"}],"stateMutability":"view"},{"type":"event","name":"Approval","inputs":[{"name":"owner","type":"address","indexed":true,"internalType":"address"},{"name":"spender","type":"address","indexed":true,"internalType":"address"},{"name":"value","type":"uint256","indexed":false,"internalType":"uint256"}],"anonymous":false},{"type":"event","name":"FeeRateSet","inputs":[{"name":"feeRatePerDayScaled","type":"uint256","indexed":true,"internalType":"uint256"}],"anonymous":false},{"type":"event","name":"FeeReceiverSet","inputs":[{"name":"feeReceiver","type":"address","indexed":true,"internalType":"address"}],"anonymous":false},{"type":"event","name":"Initialized","inputs":[{"name":"version","type":"uint8","indexed":false,"internalType":"uint8"}],"anonymous":false},{"type":"event","name":"MethodologistSet","inputs":[{"name":"methodologist","type":"address","indexed":true,"internalType":"address"}],"anonymous":false},{"type":"event","name":"MethodologySet","inputs":[{"name":"methodology","type":"string","indexed":false,"internalType":"string"}],"anonymous":false},{"type":"event","name":"MintFeeToReceiver","inputs":[{"name":"feeReceiver","type":"address","indexed":false,"internalType":"address"},{"name":"timestamp","type":"uint256","indexed":false,"internalType":"uint256"},{"name":"totalSupply","type":"uint256","indexed":false,"internalType":"uint256"},{"name":"amount","type":"uint256","indexed":false,"internalType":"uint256"}],"anonymous":false},{"type":"event","name":"MinterSet","inputs":[{"name":"minter","type":"address","indexed":true,"internalType":"address"}],"anonymous":false},{"type":"event","name":"OwnershipTransferred","inputs":[{"name":"previousOwner","type":"address","indexed":true,"internalType":"address"},{"name":"newOwner","type":"address","indexed":true,"internalType":"address"}],"anonymous":false},{"type":"event","name":"Paused","inputs":[{"name":"account","type":"address","indexed":false,"internalType":"address"}],"anonymous":false},{"type":"event","name":"SupplyCeilingSet","inputs":[{"name":"supplyCeiling","type":"uint256","indexed":false,"internalType":"uint256"}],"anonymous":false},{"type":"event","name":"ToggledRestricted","inputs":[{"name":"account","type":"address","indexed":true,"internalType":"address"},{"name":"isRestricted","type":"bool","indexed":false,"internalType":"bool"}],"anonymous":false},{"type":"event","name":"Transfer","inputs":[{"name":"from","type":"address","indexed":true,"internalType":"address"},{"name":"to","type":"address","indexed":true,"internalType":"address"},{"name":"value","type":"uint256","indexed":false,"internalType":"uint256"}],"anonymous":false},{"type":"event","name":"Unpaused","inputs":[{"name":"account","type":"address","indexed":false,"internalType":"address"}],"anonymous":false}],"bytecode":{"object":"0x608060405234801561001057600080fd5b506146ac806100206000396000f3fe6080604052600436106102975760003560e01c80638da5cb5b1161015a578063c01bc982116100c1578063efdcd9741161007a578063efdcd97414610a07578063f2fde38b14610a30578063f734e22a14610a59578063fca3b5aa14610a70578063fcaae87b14610a99578063fede027614610ad65761029e565b8063c01bc982146108cf578063c6bbd5a71461090c578063d153b60c14610937578063d90bc21114610962578063dd62ed3e1461099f578063ddca3f43146109dc5761029e565b8063a457c2d711610113578063a457c2d7146107ad578063a9059cbb146107ea578063aaa4a18414610827578063b3f0067414610850578063b5ed298a1461087b578063b631e80b146108a45761029e565b80638da5cb5b146106af57806391fe1b92146106da57806395d89b41146107035780639dc29fac1461072e5780639eeb1d50146107575780639f8e67bf146107825761029e565b80633f4ba83a116101fe57806368e0d4e1116101b757806368e0d4e1146105c55780636e01a686146105f057806370a0823114610619578063715018a614610656578063744fbc7a1461066d5780638456cb59146106985761029e565b80633f4ba83a146104dd5780633fc8cef3146104f457806340c10f191461051f57806345596e2e146105485780635c975abb14610571578063660db4841461059c5761029e565b806323b872dd1161025057806323b872dd146103b75780632630c12f146103f45780632b52684d1461041f5780632fecd5891461044a578063313ce5671461047557806339509351146104a05761029e565b806306fdde03146102a357806307546172146102ce578063095ea7b3146102f957806318160ddd14610336578063184a732f146103615780631d5f45f51461038c5761029e565b3661029e57005b600080fd5b3480156102af57600080fd5b506102b8610aff565b6040516102c591906138da565b60405180910390f35b3480156102da57600080fd5b506102e3610b91565b6040516102f091906137a2565b60405180910390f35b34801561030557600080fd5b50610320600480360381019061031b9190613213565b610bb8565b60405161032d9190613802565b60405180910390f35b34801561034257600080fd5b5061034b610bdb565b6040516103589190613bfc565b60405180910390f35b34801561036d57600080fd5b50610376610be5565b6040516103839190613bfc565b60405180910390f35b34801561039857600080fd5b506103a1610beb565b6040516103ae9190613889565b60405180910390f35b3480156103c357600080fd5b506103de60048036038101906103d991906131c0565b610c12565b6040516103eb9190613802565b60405180910390f35b34801561040057600080fd5b50610409610de7565b60405161041691906137a2565b60405180910390f35b34801561042b57600080fd5b50610434610e0e565b6040516104419190613bfc565b60405180910390f35b34801561045657600080fd5b5061045f610e15565b60405161046c9190613bfc565b60405180910390f35b34801561048157600080fd5b5061048a610e1b565b6040516104979190613c17565b60405180910390f35b3480156104ac57600080fd5b506104c760048036038101906104c29190613213565b610e24565b6040516104d49190613802565b60405180910390f35b3480156104e957600080fd5b506104f2610e5b565b005b34801561050057600080fd5b50610509610e6d565b60405161051691906138a4565b60405180910390f35b34801561052b57600080fd5b5061054660048036038101906105419190613213565b610e94565b005b34801561055457600080fd5b5061056f600480360381019061056a919061334f565b6110b7565b005b34801561057d57600080fd5b506105866110fe565b6040516105939190613802565b60405180910390f35b3480156105a857600080fd5b506105c360048036038101906105be9190613153565b611115565b005b3480156105d157600080fd5b506105da6111df565b6040516105e79190613853565b60405180910390f35b3480156105fc57600080fd5b506106176004803603810190610612919061334f565b611206565b005b34801561062557600080fd5b50610640600480360381019061063b9190613153565b611250565b60405161064d9190613bfc565b60405180910390f35b34801561066257600080fd5b5061066b611299565b005b34801561067957600080fd5b506106826112ad565b60405161068f919061386e565b60405180910390f35b3480156106a457600080fd5b506106ad6112d4565b005b3480156106bb57600080fd5b506106c46112e6565b6040516106d191906137a2565b60405180910390f35b3480156106e657600080fd5b5061070160048036038101906106fc9190613253565b611310565b005b34801561070f57600080fd5b506107186113f3565b60405161072591906138da565b60405180910390f35b34801561073a57600080fd5b5061075560048036038101906107509190613213565b611485565b005b34801561076357600080fd5b5061076c611650565b60405161077991906138da565b60405180910390f35b34801561078e57600080fd5b506107976116df565b6040516107a491906137a2565b60405180910390f35b3480156107b957600080fd5b506107d460048036038101906107cf9190613213565b611706565b6040516107e19190613802565b60405180910390f35b3480156107f657600080fd5b50610811600480360381019061080c9190613213565b61177d565b60405161081e9190613802565b60405180910390f35b34801561083357600080fd5b5061084e60048036038101906108499190613153565b6118b8565b005b34801561085c57600080fd5b50610865611a04565b60405161087291906137a2565b60405180910390f35b34801561088757600080fd5b506108a2600480360381019061089d9190613153565b611a2a565b005b3480156108b057600080fd5b506108b9611ae6565b6040516108c69190613838565b60405180910390f35b3480156108db57600080fd5b506108f660048036038101906108f19190613153565b611b0d565b6040516109039190613802565b60405180910390f35b34801561091857600080fd5b50610921611b2e565b60405161092e919061381d565b60405180910390f35b34801561094357600080fd5b5061094c611b55565b60405161095991906137a2565b60405180910390f35b34801561096e57600080fd5b5061098960048036038101906109849190613153565b611b7b565b6040516109969190613bfc565b60405180910390f35b3480156109ab57600080fd5b506109c660048036038101906109c19190613180565b611b94565b6040516109d39190613bfc565b60405180910390f35b3480156109e857600080fd5b506109f1611c1b565b6040516109fe9190613bfc565b60405180910390f35b348015610a1357600080fd5b50610a2e6004803603810190610a299190613153565b611c21565b005b348015610a3c57600080fd5b50610a576004803603810190610a529190613153565b611cea565b005b348015610a6557600080fd5b50610a6e611e64565b005b348015610a7c57600080fd5b50610a976004803603810190610a929190613153565b611e76565b005b348015610aa557600080fd5b50610ac06004803603810190610abb9190613153565b611f40565b604051610acd9190613bfc565b60405180910390f35b348015610ae257600080fd5b50610afd6004803603810190610af8919061329c565b611f59565b005b606060368054610b0e90613ef2565b80601f0160208091040260200160405190810160405280929190818152602001828054610b3a90613ef2565b8015610b875780601f10610b5c57610100808354040283529160200191610b87565b820191906000526020600020905b815481529060010190602001808311610b6a57829003601f168201915b5050505050905090565b61010160009054906101000a900473ffffffffffffffffffffffffffffffffffffffff1681565b600080610bc3612147565b9050610bd081858561214f565b600191505092915050565b6000603554905090565b60fe5481565b61010960009054906101000a900473ffffffffffffffffffffffffffffffffffffffff1681565b6000610c1c61231a565b61010560003373ffffffffffffffffffffffffffffffffffffffff1673ffffffffffffffffffffffffffffffffffffffff16815260200190815260200160002060009054906101000a900460ff1615610caa576040517f08c379a0000000000000000000000000000000000000000000000000000000008152600401610ca19061399c565b60405180910390fd5b61010560008473ffffffffffffffffffffffffffffffffffffffff1673ffffffffffffffffffffffffffffffffffffffff16815260200190815260200160002060009054906101000a900460ff1615610d38576040517f08c379a0000000000000000000000000000000000000000000000000000000008152600401610d2f9061395c565b60405180910390fd5b61010560008573ffffffffffffffffffffffffffffffffffffffff1673ffffffffffffffffffffffffffffffffffffffff16815260200190815260200160002060009054906101000a900460ff1615610dc6576040517f08c379a0000000000000000000000000000000000000000000000000000000008152600401610dbd90613b9c565b60405180910390fd5b610dd1843384612364565b610ddc8484846123f0565b600190509392505050565b61010460009054906101000a900473ffffffffffffffffffffffffffffffffffffffff1681565b6101035481565b60fd5481565b60006012905090565b600080610e2f612147565b9050610e50818585610e418589611b94565b610e4b9190613ca4565b61214f565b600191505092915050565b610e6361266b565b610e6b6126e9565b565b61010c60009054906101000a900473ffffffffffffffffffffffffffffffffffffffff1681565b610e9c61231a565b61010160009054906101000a900473ffffffffffffffffffffffffffffffffffffffff1673ffffffffffffffffffffffffffffffffffffffff163373ffffffffffffffffffffffffffffffffffffffff1614610f2d576040517f08c379a0000000000000000000000000000000000000000000000000000000008152600401610f24906139bc565b60405180910390fd5b6101035481610f3a610bdb565b610f449190613ca4565b1115610f85576040517f08c379a0000000000000000000000000000000000000000000000000000000008152600401610f7c90613b3c565b60405180910390fd5b61010560008373ffffffffffffffffffffffffffffffffffffffff1673ffffffffffffffffffffffffffffffffffffffff16815260200190815260200160002060009054906101000a900460ff1615611013576040517f08c379a000000000000000000000000000000000000000000000000000000000815260040161100a9061395c565b60405180910390fd5b61010560003373ffffffffffffffffffffffffffffffffffffffff1673ffffffffffffffffffffffffffffffffffffffff16815260200190815260200160002060009054906101000a900460ff16156110a1576040517f08c379a00000000000000000000000000000000000000000000000000000000081526004016110989061399c565b60405180910390fd5b6110a961274c565b6110b382826128a1565b5050565b6110bf61266b565b6110c761274c565b8060fd81905550807f45398c451b1a31b88dbaed4e7b89a632f43cc4b50149d437db03a5300afe40d160405160405180910390a250565b600060ca60009054906101000a900460ff16905090565b61111d61266b565b600073ffffffffffffffffffffffffffffffffffffffff168173ffffffffffffffffffffffffffffffffffffffff16141561115757600080fd5b8061010060006101000a81548173ffffffffffffffffffffffffffffffffffffffff021916908373ffffffffffffffffffffffffffffffffffffffff1602179055508073ffffffffffffffffffffffffffffffffffffffff167f164d8ef0d742b45087644f55c61abeb84557df70d06730591e451f0981e278ca60405160405180910390a250565b61010b60009054906101000a900473ffffffffffffffffffffffffffffffffffffffff1681565b61120e61266b565b80610103819055507fe35be406f69e9d11d6ac8e5b54bbc8b6c4baf2fa2359f84a56baa5ea5d07dc8f816040516112459190613bfc565b60405180910390a150565b6000603360008373ffffffffffffffffffffffffffffffffffffffff1673ffffffffffffffffffffffffffffffffffffffff168152602001908152602001600020549050919050565b6112a161266b565b6112ab60006129f9565b565b61010a60009054906101000a900473ffffffffffffffffffffffffffffffffffffffff1681565b6112dc61266b565b6112e4612abf565b565b6000606560009054906101000a900473ffffffffffffffffffffffffffffffffffffffff16905090565b61010060009054906101000a900473ffffffffffffffffffffffffffffffffffffffff1673ffffffffffffffffffffffffffffffffffffffff163373ffffffffffffffffffffffffffffffffffffffff16146113a1576040517f08c379a000000000000000000000000000000000000000000000000000000000815260040161139890613a3c565b60405180910390fd5b8061010290805190602001906113b8929190613016565b507fe6be68107100e39cb16d675c1086a4d5479fbd01108d721dabbccaa2249b995f816040516113e891906138da565b60405180910390a150565b60606037805461140290613ef2565b80601f016020809104026020016040519081016040528092919081815260200182805461142e90613ef2565b801561147b5780601f106114505761010080835404028352916020019161147b565b820191906000526020600020905b81548152906001019060200180831161145e57829003601f168201915b5050505050905090565b61148d61231a565b61010160009054906101000a900473ffffffffffffffffffffffffffffffffffffffff1673ffffffffffffffffffffffffffffffffffffffff163373ffffffffffffffffffffffffffffffffffffffff161461151e576040517f08c379a0000000000000000000000000000000000000000000000000000000008152600401611515906139bc565b60405180910390fd5b61010560008373ffffffffffffffffffffffffffffffffffffffff1673ffffffffffffffffffffffffffffffffffffffff16815260200190815260200160002060009054906101000a900460ff16156115ac576040517f08c379a00000000000000000000000000000000000000000000000000000000081526004016115a390613b9c565b60405180910390fd5b61010560003373ffffffffffffffffffffffffffffffffffffffff1673ffffffffffffffffffffffffffffffffffffffff16815260200190815260200160002060009054906101000a900460ff161561163a576040517f08c379a00000000000000000000000000000000000000000000000000000000081526004016116319061399c565b60405180910390fd5b61164261274c565b61164c8282612b22565b5050565b610102805461165e90613ef2565b80601f016020809104026020016040519081016040528092919081815260200182805461168a90613ef2565b80156116d75780601f106116ac576101008083540402835291602001916116d7565b820191906000526020600020905b8154815290600101906020018083116116ba57829003601f168201915b505050505081565b61010060009054906101000a900473ffffffffffffffffffffffffffffffffffffffff1681565b600080611711612147565b9050600061171f8286611b94565b905083811015611764576040517f08c379a000000000000000000000000000000000000000000000000000000000815260040161175b90613bbc565b60405180910390fd5b611771828686840361214f565b60019250505092915050565b600061178761231a565b61010560003373ffffffffffffffffffffffffffffffffffffffff1673ffffffffffffffffffffffffffffffffffffffff16815260200190815260200160002060009054906101000a900460ff1615611815576040517f08c379a000000000000000000000000000000000000000000000000000000000815260040161180c9061399c565b60405180910390fd5b61010560008473ffffffffffffffffffffffffffffffffffffffff1673ffffffffffffffffffffffffffffffffffffffff16815260200190815260200160002060009054906101000a900460ff16156118a3576040517f08c379a000000000000000000000000000000000000000000000000000000000815260040161189a9061395c565b60405180910390fd5b6118ae3384846123f0565b6001905092915050565b6118c061266b565b61010560008273ffffffffffffffffffffffffffffffffffffffff1673ffffffffffffffffffffffffffffffffffffffff16815260200190815260200160002060009054906101000a900460ff161561010560008373ffffffffffffffffffffffffffffffffffffffff1673ffffffffffffffffffffffffffffffffffffffff16815260200190815260200160002060006101000a81548160ff0219169083151502179055508073ffffffffffffffffffffffffffffffffffffffff167f14ddf324cc5d8b14a3c3b12c84b0a7d578d72c8d60655c06d6a457e71431d5ee61010560008473ffffffffffffffffffffffffffffffffffffffff1673ffffffffffffffffffffffffffffffffffffffff16815260200190815260200160002060009054906101000a900460ff166040516119f99190613802565b60405180910390a250565b60ff60009054906101000a900473ffffffffffffffffffffffffffffffffffffffff1681565b611a3261266b565b600073ffffffffffffffffffffffffffffffffffffffff168173ffffffffffffffffffffffffffffffffffffffff161415611aa2576040517f08c379a0000000000000000000000000000000000000000000000000000000008152600401611a9990613adc565b60405180910390fd5b80609760006101000a81548173ffffffffffffffffffffffffffffffffffffffff021916908373ffffffffffffffffffffffffffffffffffffffff16021790555050565b61010860009054906101000a900473ffffffffffffffffffffffffffffffffffffffff1681565b6101056020528060005260406000206000915054906101000a900460ff1681565b61010d60009054906101000a900473ffffffffffffffffffffffffffffffffffffffff1681565b609760009054906101000a900473ffffffffffffffffffffffffffffffffffffffff1681565b6101076020528060005260406000206000915090505481565b6000603460008473ffffffffffffffffffffffffffffffffffffffff1673ffffffffffffffffffffffffffffffffffffffff16815260200190815260200160002060008373ffffffffffffffffffffffffffffffffffffffff1673ffffffffffffffffffffffffffffffffffffffff16815260200190815260200160002054905092915050565b60fc5481565b611c2961266b565b600073ffffffffffffffffffffffffffffffffffffffff168173ffffffffffffffffffffffffffffffffffffffff161415611c6357600080fd5b8060ff60006101000a81548173ffffffffffffffffffffffffffffffffffffffff021916908373ffffffffffffffffffffffffffffffffffffffff1602179055508073ffffffffffffffffffffffffffffffffffffffff167fbdf37c276f641820b141429d245add2552b4118c0866e5a78638e3de5ef18d9d60405160405180910390a250565b600073ffffffffffffffffffffffffffffffffffffffff168173ffffffffffffffffffffffffffffffffffffffff161415611d5a576040517f08c379a0000000000000000000000000000000000000000000000000000000008152600401611d5190613adc565b60405180910390fd5b609760009054906101000a900473ffffffffffffffffffffffffffffffffffffffff1673ffffffffffffffffffffffffffffffffffffffff168173ffffffffffffffffffffffffffffffffffffffff1614611dea576040517f08c379a0000000000000000000000000000000000000000000000000000000008152600401611de190613a1c565b60405180910390fd5b3373ffffffffffffffffffffffffffffffffffffffff168173ffffffffffffffffffffffffffffffffffffffff1614611e58576040517f08c379a0000000000000000000000000000000000000000000000000000000008152600401611e4f90613a7c565b60405180910390fd5b611e61816129f9565b50565b611e6c61266b565b611e7461274c565b565b611e7e61266b565b600073ffffffffffffffffffffffffffffffffffffffff168173ffffffffffffffffffffffffffffffffffffffff161415611eb857600080fd5b8061010160006101000a81548173ffffffffffffffffffffffffffffffffffffffff021916908373ffffffffffffffffffffffffffffffffffffffff1602179055508073ffffffffffffffffffffffffffffffffffffffff167f726b590ef91a8c76ad05bbe91a57ef84605276528f49cd47d787f558a4e755b660405160405180910390a250565b6101066020528060005260406000206000915090505481565b60008060019054906101000a900460ff16159050808015611f8a5750600160008054906101000a900460ff1660ff16105b80611fb75750611f9930612cf2565b158015611fb65750600160008054906101000a900460ff1660ff16145b5b611ff6576040517f08c379a0000000000000000000000000000000000000000000000000000000008152600401611fed90613a9c565b60405180910390fd5b60016000806101000a81548160ff021916908360ff1602179055508015612033576001600060016101000a81548160ff0219169083151502179055505b600073ffffffffffffffffffffffffffffffffffffffff168373ffffffffffffffffffffffffffffffffffffffff16141561206d57600080fd5b612075612d15565b61207d612d6e565b6120878686612dc7565b61208f612e24565b8360fd819055508260ff60006101000a81548173ffffffffffffffffffffffffffffffffffffffff021916908373ffffffffffffffffffffffffffffffffffffffff16021790555081610103819055504260fe81905550801561213f5760008060016101000a81548160ff0219169083151502179055507f7f26b83ff96e1f2b6a682f133852f6798a09c465da95921460cefb3847402498600160405161213691906138bf565b60405180910390a15b505050505050565b600033905090565b600073ffffffffffffffffffffffffffffffffffffffff168373ffffffffffffffffffffffffffffffffffffffff1614156121bf576040517f08c379a00000000000000000000000000000000000000000000000000000000081526004016121b690613b5c565b60405180910390fd5b600073ffffffffffffffffffffffffffffffffffffffff168273ffffffffffffffffffffffffffffffffffffffff16141561222f576040517f08c379a00000000000000000000000000000000000000000000000000000000081526004016122269061397c565b60405180910390fd5b80603460008573ffffffffffffffffffffffffffffffffffffffff1673ffffffffffffffffffffffffffffffffffffffff16815260200190815260200160002060008473ffffffffffffffffffffffffffffffffffffffff1673ffffffffffffffffffffffffffffffffffffffff168152602001908152602001600020819055508173ffffffffffffffffffffffffffffffffffffffff168373ffffffffffffffffffffffffffffffffffffffff167f8c5be1e5ebec7d5bd14f71427d1e84f3dd0314c0f7b2291e5b200ac8c7c3b9258360405161230d9190613bfc565b60405180910390a3505050565b6123226110fe565b15612362576040517f08c379a000000000000000000000000000000000000000000000000000000000815260040161235990613a5c565b60405180910390fd5b565b60006123708484611b94565b90507fffffffffffffffffffffffffffffffffffffffffffffffffffffffffffffffff81146123ea57818110156123dc576040517f08c379a00000000000000000000000000000000000000000000000000000000081526004016123d3906139dc565b60405180910390fd5b6123e9848484840361214f565b5b50505050565b600073ffffffffffffffffffffffffffffffffffffffff168373ffffffffffffffffffffffffffffffffffffffff161415612460576040517f08c379a000000000000000000000000000000000000000000000000000000000815260040161245790613b1c565b60405180910390fd5b600073ffffffffffffffffffffffffffffffffffffffff168273ffffffffffffffffffffffffffffffffffffffff1614156124d0576040517f08c379a00000000000000000000000000000000000000000000000000000000081526004016124c7906138fc565b60405180910390fd5b6124db838383612e75565b6000603360008573ffffffffffffffffffffffffffffffffffffffff1673ffffffffffffffffffffffffffffffffffffffff16815260200190815260200160002054905081811015612562576040517f08c379a0000000000000000000000000000000000000000000000000000000008152600401612559906139fc565b60405180910390fd5b818103603360008673ffffffffffffffffffffffffffffffffffffffff1673ffffffffffffffffffffffffffffffffffffffff1681526020019081526020016000208190555081603360008573ffffffffffffffffffffffffffffffffffffffff1673ffffffffffffffffffffffffffffffffffffffff168152602001908152602001600020600082825401925050819055508273ffffffffffffffffffffffffffffffffffffffff168473ffffffffffffffffffffffffffffffffffffffff167fddf252ad1be2c89b69c2b068fc378daa952ba7f163c4a11628f55a4df523b3ef846040516126529190613bfc565b60405180910390a3612665848484612e7a565b50505050565b612673612147565b73ffffffffffffffffffffffffffffffffffffffff166126916112e6565b73ffffffffffffffffffffffffffffffffffffffff16146126e7576040517f08c379a00000000000000000000000000000000000000000000000000000000081526004016126de90613abc565b60405180910390fd5b565b6126f1612e7f565b600060ca60006101000a81548160ff0219169083151502179055507f5db9ee0a495bf2e6ff9c91a7834c1ba4fdd244a5e8aa4e537bd38aeae4b073aa612735612147565b60405161274291906137a2565b60405180910390a1565b60006201518060fe54426127609190613d85565b61276a9190613cfa565b90506001811061289e57600061277e610bdb565b90506000819050600060fd54905060005b848110156127cf5768056bc75e2d6310000082846127ad9190613d2b565b6127b79190613cfa565b836127c29190613ca4565b925080600101905061278f565b50600083836127de9190613d85565b905084620151806127ef9190613d2b565b60fe60008282546128009190613ca4565b9250508190555061283360ff60009054906101000a900473ffffffffffffffffffffffffffffffffffffffff16826128a1565b7f07982395c678b2ffc23fcf59aaec243ca79418c285af0d0e10b4e65bc4189f4c60ff60009054906101000a900473ffffffffffffffffffffffffffffffffffffffff1642612880610bdb565b8460405161289194939291906137bd565b60405180910390a1505050505b50565b600073ffffffffffffffffffffffffffffffffffffffff168273ffffffffffffffffffffffffffffffffffffffff161415612911576040517f08c379a000000000000000000000000000000000000000000000000000000000815260040161290890613bdc565b60405180910390fd5b61291d60008383612e75565b806035600082825461292f9190613ca4565b9250508190555080603360008473ffffffffffffffffffffffffffffffffffffffff1673ffffffffffffffffffffffffffffffffffffffff168152602001908152602001600020600082825401925050819055508173ffffffffffffffffffffffffffffffffffffffff16600073ffffffffffffffffffffffffffffffffffffffff167fddf252ad1be2c89b69c2b068fc378daa952ba7f163c4a11628f55a4df523b3ef836040516129e19190613bfc565b60405180910390a36129f560008383612e7a565b5050565b6000606560009054906101000a900473ffffffffffffffffffffffffffffffffffffffff16905081606560006101000a81548173ffffffffffffffffffffffffffffffffffffffff021916908373ffffffffffffffffffffffffffffffffffffffff1602179055508173ffffffffffffffffffffffffffffffffffffffff168173ffffffffffffffffffffffffffffffffffffffff167f8be0079c531659141344cd1fd0a4f28419497f9722a3daafe3b4186f6b6457e060405160405180910390a35050565b612ac761231a565b600160ca60006101000a81548160ff0219169083151502179055507f62e78cea01bee320cd4e420270b5ea74000d11b0c9f74754ebdbfc544b05a258612b0b612147565b604051612b1891906137a2565b60405180910390a1565b600073ffffffffffffffffffffffffffffffffffffffff168273ffffffffffffffffffffffffffffffffffffffff161415612b92576040517f08c379a0000000000000000000000000000000000000000000000000000000008152600401612b8990613afc565b60405180910390fd5b612b9e82600083612e75565b6000603360008473ffffffffffffffffffffffffffffffffffffffff1673ffffffffffffffffffffffffffffffffffffffff16815260200190815260200160002054905081811015612c25576040517f08c379a0000000000000000000000000000000000000000000000000000000008152600401612c1c9061393c565b60405180910390fd5b818103603360008573ffffffffffffffffffffffffffffffffffffffff1673ffffffffffffffffffffffffffffffffffffffff1681526020019081526020016000208190555081603560008282540392505081905550600073ffffffffffffffffffffffffffffffffffffffff168373ffffffffffffffffffffffffffffffffffffffff167fddf252ad1be2c89b69c2b068fc378daa952ba7f163c4a11628f55a4df523b3ef84604051612cd99190613bfc565b60405180910390a3612ced83600084612e7a565b505050565b6000808273ffffffffffffffffffffffffffffffffffffffff163b119050919050565b600060019054906101000a900460ff16612d64576040517f08c379a0000000000000000000000000000000000000000000000000000000008152600401612d5b90613b7c565b60405180910390fd5b612d6c612ec8565b565b600060019054906101000a900460ff16612dbd576040517f08c379a0000000000000000000000000000000000000000000000000000000008152600401612db490613b7c565b60405180910390fd5b612dc5612f29565b565b600060019054906101000a900460ff16612e16576040517f08c379a0000000000000000000000000000000000000000000000000000000008152600401612e0d90613b7c565b60405180910390fd5b612e208282612f95565b5050565b600060019054906101000a900460ff16612e73576040517f08c379a0000000000000000000000000000000000000000000000000000000008152600401612e6a90613b7c565b60405180910390fd5b565b505050565b505050565b612e876110fe565b612ec6576040517f08c379a0000000000000000000000000000000000000000000000000000000008152600401612ebd9061391c565b60405180910390fd5b565b600060019054906101000a900460ff16612f17576040517f08c379a0000000000000000000000000000000000000000000000000000000008152600401612f0e90613b7c565b60405180910390fd5b612f27612f22612147565b6129f9565b565b600060019054906101000a900460ff16612f78576040517f08c379a0000000000000000000000000000000000000000000000000000000008152600401612f6f90613b7c565b60405180910390fd5b600060ca60006101000a81548160ff021916908315150217905550565b600060019054906101000a900460ff16612fe4576040517f08c379a0000000000000000000000000000000000000000000000000000000008152600401612fdb90613b7c565b60405180910390fd5b8160369080519060200190612ffa929190613016565b508060379080519060200190613011929190613016565b505050565b82805461302290613ef2565b90600052602060002090601f016020900481019282613044576000855561308b565b82601f1061305d57805160ff191683800117855561308b565b8280016001018555821561308b579182015b8281111561308a57825182559160200191906001019061306f565b5b509050613098919061309c565b5090565b5b808211156130b557600081600090555060010161309d565b5090565b60006130cc6130c784613c57565b613c32565b9050828152602081018484840111156130e8576130e7614016565b5b6130f3848285613eb0565b509392505050565b60008135905061310a81614648565b92915050565b600082601f83011261312557613124614011565b5b81356131358482602086016130b9565b91505092915050565b60008135905061314d8161465f565b92915050565b60006020828403121561316957613168614020565b5b6000613177848285016130fb565b91505092915050565b6000806040838503121561319757613196614020565b5b60006131a5858286016130fb565b92505060206131b6858286016130fb565b9150509250929050565b6000806000606084860312156131d9576131d8614020565b5b60006131e7868287016130fb565b93505060206131f8868287016130fb565b92505060406132098682870161313e565b9150509250925092565b6000806040838503121561322a57613229614020565b5b6000613238858286016130fb565b92505060206132498582860161313e565b9150509250929050565b60006020828403121561326957613268614020565b5b600082013567ffffffffffffffff8111156132875761328661401b565b5b61329384828501613110565b91505092915050565b600080600080600060a086880312156132b8576132b7614020565b5b600086013567ffffffffffffffff8111156132d6576132d561401b565b5b6132e288828901613110565b955050602086013567ffffffffffffffff8111156133035761330261401b565b5b61330f88828901613110565b94505060406133208882890161313e565b9350506060613331888289016130fb565b92505060806133428882890161313e565b9150509295509295909350565b60006020828403121561336557613364614020565b5b60006133738482850161313e565b91505092915050565b61338581613db9565b82525050565b61339481613dcb565b82525050565b6133a381613e0e565b82525050565b6133b281613e20565b82525050565b6133c181613e32565b82525050565b6133d081613e44565b82525050565b6133df81613e56565b82525050565b6133ee81613e68565b82525050565b6133fd81613e7a565b82525050565b600061340e82613c88565b6134188185613c93565b9350613428818560208601613ebf565b61343181614025565b840191505092915050565b6000613449602383613c93565b915061345482614036565b604082019050919050565b600061346c601483613c93565b915061347782614085565b602082019050919050565b600061348f602283613c93565b915061349a826140ae565b604082019050919050565b60006134b2601083613c93565b91506134bd826140fd565b602082019050919050565b60006134d5602283613c93565b91506134e082614126565b604082019050919050565b60006134f8601883613c93565b915061350382614175565b602082019050919050565b600061351b602483613c93565b91506135268261419e565b604082019050919050565b600061353e601d83613c93565b9150613549826141ed565b602082019050919050565b6000613561602683613c93565b915061356c82614216565b604082019050919050565b6000613584603283613c93565b915061358f82614265565b604082019050919050565b60006135a7602b83613c93565b91506135b2826142b4565b604082019050919050565b60006135ca601083613c93565b91506135d582614303565b602082019050919050565b60006135ed603a83613c93565b91506135f88261432c565b604082019050919050565b6000613610602e83613c93565b915061361b8261437b565b604082019050919050565b6000613633602083613c93565b915061363e826143ca565b602082019050919050565b6000613656603083613c93565b9150613661826143f3565b604082019050919050565b6000613679602183613c93565b915061368482614442565b604082019050919050565b600061369c602583613c93565b91506136a782614491565b604082019050919050565b60006136bf601a83613c93565b91506136ca826144e0565b602082019050919050565b60006136e2602483613c93565b91506136ed82614509565b604082019050919050565b6000613705602b83613c93565b915061371082614558565b604082019050919050565b6000613728601283613c93565b9150613733826145a7565b602082019050919050565b600061374b602583613c93565b9150613756826145d0565b604082019050919050565b600061376e601f83613c93565b91506137798261461f565b602082019050919050565b61378d81613df7565b82525050565b61379c81613e01565b82525050565b60006020820190506137b7600083018461337c565b92915050565b60006080820190506137d2600083018761337c565b6137df6020830186613784565b6137ec6040830185613784565b6137f96060830184613784565b95945050505050565b6000602082019050613817600083018461338b565b92915050565b6000602082019050613832600083018461339a565b92915050565b600060208201905061384d60008301846133a9565b92915050565b600060208201905061386860008301846133b8565b92915050565b600060208201905061388360008301846133c7565b92915050565b600060208201905061389e60008301846133d6565b92915050565b60006020820190506138b960008301846133e5565b92915050565b60006020820190506138d460008301846133f4565b92915050565b600060208201905081810360008301526138f48184613403565b905092915050565b600060208201905081810360008301526139158161343c565b9050919050565b600060208201905081810360008301526139358161345f565b9050919050565b6000602082019050818103600083015261395581613482565b9050919050565b60006020820190508181036000830152613975816134a5565b9050919050565b60006020820190508181036000830152613995816134c8565b9050919050565b600060208201905081810360008301526139b5816134eb565b9050919050565b600060208201905081810360008301526139d58161350e565b9050919050565b600060208201905081810360008301526139f581613531565b9050919050565b60006020820190508181036000830152613a1581613554565b9050919050565b60006020820190508181036000830152613a3581613577565b9050919050565b60006020820190508181036000830152613a558161359a565b9050919050565b60006020820190508181036000830152613a75816135bd565b9050919050565b60006020820190508181036000830152613a95816135e0565b9050919050565b60006020820190508181036000830152613ab581613603565b9050919050565b60006020820190508181036000830152613ad581613626565b9050919050565b60006020820190508181036000830152613af581613649565b9050919050565b60006020820190508181036000830152613b158161366c565b9050919050565b60006020820190508181036000830152613b358161368f565b9050919050565b60006020820190508181036000830152613b55816136b2565b9050919050565b60006020820190508181036000830152613b75816136d5565b9050919050565b60006020820190508181036000830152613b95816136f8565b9050919050565b60006020820190508181036000830152613bb58161371b565b9050919050565b60006020820190508181036000830152613bd58161373e565b9050919050565b60006020820190508181036000830152613bf581613761565b9050919050565b6000602082019050613c116000830184613784565b92915050565b6000602082019050613c2c6000830184613793565b92915050565b6000613c3c613c4d565b9050613c488282613f24565b919050565b6000604051905090565b600067ffffffffffffffff821115613c7257613c71613fe2565b5b613c7b82614025565b9050602081019050919050565b600081519050919050565b600082825260208201905092915050565b6000613caf82613df7565b9150613cba83613df7565b9250827fffffffffffffffffffffffffffffffffffffffffffffffffffffffffffffffff03821115613cef57613cee613f55565b5b828201905092915050565b6000613d0582613df7565b9150613d1083613df7565b925082613d2057613d1f613f84565b5b828204905092915050565b6000613d3682613df7565b9150613d4183613df7565b9250817fffffffffffffffffffffffffffffffffffffffffffffffffffffffffffffffff0483118215151615613d7a57613d79613f55565b5b828202905092915050565b6000613d9082613df7565b9150613d9b83613df7565b925082821015613dae57613dad613f55565b5b828203905092915050565b6000613dc482613dd7565b9050919050565b60008115159050919050565b600073ffffffffffffffffffffffffffffffffffffffff82169050919050565b6000819050919050565b600060ff82169050919050565b6000613e1982613e8c565b9050919050565b6000613e2b82613e8c565b9050919050565b6000613e3d82613e8c565b9050919050565b6000613e4f82613e8c565b9050919050565b6000613e6182613e8c565b9050919050565b6000613e7382613e8c565b9050919050565b6000613e8582613e01565b9050919050565b6000613e9782613e9e565b9050919050565b6000613ea982613dd7565b9050919050565b82818337600083830152505050565b60005b83811015613edd578082015181840152602081019050613ec2565b83811115613eec576000848401525b50505050565b60006002820490506001821680613f0a57607f821691505b60208210811415613f1e57613f1d613fb3565b5b50919050565b613f2d82614025565b810181811067ffffffffffffffff82111715613f4c57613f4b613fe2565b5b80604052505050565b7f4e487b7100000000000000000000000000000000000000000000000000000000600052601160045260246000fd5b7f4e487b7100000000000000000000000000000000000000000000000000000000600052601260045260246000fd5b7f4e487b7100000000000000000000000000000000000000000000000000000000600052602260045260246000fd5b7f4e487b7100000000000000000000000000000000000000000000000000000000600052604160045260246000fd5b600080fd5b600080fd5b600080fd5b600080fd5b6000601f19601f8301169050919050565b7f45524332303a207472616e7366657220746f20746865207a65726f206164647260008201527f6573730000000000000000000000000000000000000000000000000000000000602082015250565b7f5061757361626c653a206e6f7420706175736564000000000000000000000000600082015250565b7f45524332303a206275726e20616d6f756e7420657863656564732062616c616e60008201527f6365000000000000000000000000000000000000000000000000000000000000602082015250565b7f746f206973207265737472696374656400000000000000000000000000000000600082015250565b7f45524332303a20617070726f766520746f20746865207a65726f20616464726560008201527f7373000000000000000000000000000000000000000000000000000000000000602082015250565b7f6d73672e73656e64657220697320726573747269637465640000000000000000600082015250565b7f496e646578546f6b656e3a2063616c6c6572206973206e6f7420746865206d6960008201527f6e74657200000000000000000000000000000000000000000000000000000000602082015250565b7f45524332303a20696e73756666696369656e7420616c6c6f77616e6365000000600082015250565b7f45524332303a207472616e7366657220616d6f756e742065786365656473206260008201527f616c616e63650000000000000000000000000000000000000000000000000000602082015250565b7f50726f706f7361626c654f776e61626c653a206e6577206f776e65722069732060008201527f6e6f742070726f706f736564206f776e65720000000000000000000000000000602082015250565b7f496e646578546f6b656e3a2063616c6c6572206973206e6f7420746865206d6560008201527f74686f646f6c6f67697374000000000000000000000000000000000000000000602082015250565b7f5061757361626c653a2070617573656400000000000000000000000000000000600082015250565b7f50726f706f7361626c654f776e61626c653a20746869732063616c6c206d757360008201527f74206265206d61646520627920746865206e6577206f776e6572000000000000602082015250565b7f496e697469616c697a61626c653a20636f6e747261637420697320616c72656160008201527f647920696e697469616c697a6564000000000000000000000000000000000000602082015250565b7f4f776e61626c653a2063616c6c6572206973206e6f7420746865206f776e6572600082015250565b7f50726f706f7361626c654f776e61626c653a206e6577206f776e65722069732060008201527f746865207a65726f206164647265737300000000000000000000000000000000602082015250565b7f45524332303a206275726e2066726f6d20746865207a65726f2061646472657360008201527f7300000000000000000000000000000000000000000000000000000000000000602082015250565b7f45524332303a207472616e736665722066726f6d20746865207a65726f20616460008201527f6472657373000000000000000000000000000000000000000000000000000000602082015250565b7f77696c6c2065786365656420737570706c79206365696c696e67000000000000600082015250565b7f45524332303a20617070726f76652066726f6d20746865207a65726f2061646460008201527f7265737300000000000000000000000000000000000000000000000000000000602082015250565b7f496e697469616c697a61626c653a20636f6e7472616374206973206e6f74206960008201527f6e697469616c697a696e67000000000000000000000000000000000000000000602082015250565b7f66726f6d20697320726573747269637465640000000000000000000000000000600082015250565b7f45524332303a2064656372656173656420616c6c6f77616e63652062656c6f7760008201527f207a65726f000000000000000000000000000000000000000000000000000000602082015250565b7f45524332303a206d696e7420746f20746865207a65726f206164647265737300600082015250565b61465181613db9565b811461465c57600080fd5b50565b61466881613df7565b811461467357600080fd5b5056fea2646970667358221220ddc2d2c6c7303dfba6edc19d5315bd2e80d14b0980d6b3cbe8c52239b2bd9f2b64736f6c63430008070033","linkReferences":{}},"methodIdentifiers":{"allowance(address,address)":"dd62ed3e","approve(address,uint256)":"095ea7b3","balanceOf(address)":"70a08231","burn(address,uint256)":"9dc29fac","decimals()":"313ce567","decreaseAllowance(address,uint256)":"a457c2d7","factoryV2()":"68e0d4e1","factoryV3()":"1d5f45f5","fee()":"ddca3f43","feeRatePerDayScaled()":"2fecd589","feeReceiver()":"b3f00674","feeTimestamp()":"184a732f","increaseAllowance(address,uint256)":"39509351","initialize(string,string,uint256,address,uint256)":"fede0276","isRestricted(address)":"c01bc982","methodologist()":"9f8e67bf","methodology()":"9eeb1d50","mint(address,uint256)":"40c10f19","mintToFeeReceiver()":"f734e22a","minter()":"07546172","name()":"06fdde03","owner()":"8da5cb5b","pause()":"8456cb59","paused()":"5c975abb","priceOracle()":"2630c12f","proposeOwner(address)":"b5ed298a","proposedOwner()":"d153b60c","quoter()":"c6bbd5a7","renounceOwnership()":"715018a6","setFeeRate(uint256)":"45596e2e","setFeeReceiver(address)":"efdcd974","setMethodologist(address)":"660db484","setMethodology(string)":"91fe1b92","setMinter(address)":"fca3b5aa","setSupplyCeiling(uint256)":"6e01a686","supplyCeiling()":"2b52684d","swapRouterV2()":"744fbc7a","swapRouterV3()":"b631e80b","symbol()":"95d89b41","toggleRestriction(address)":"aaa4a184","tokenMarketShare(address)":"fcaae87b","tokenSwapVersion(address)":"d90bc211","totalSupply()":"18160ddd","transfer(address,uint256)":"a9059cbb","transferFrom(address,address,uint256)":"23b872dd","transferOwnership(address)":"f2fde38b","unpause()":"3f4ba83a","weth()":"3fc8cef3"},"id":30}