{"abi":[{"type":"receive","stateMutability":"payable"},{"type":"function","name":"allowance","inputs":[{"name":"owner","type":"address","internalType":"address"},{"name":"spender","type":"address","internalType":"address"}],"outputs":[{"name":"","type":"uint256","internalType":"uint256"}],"stateMutability":"view"},{"type":"function","name":"approve","inputs":[{"name":"spender","type":"address","internalType":"address"},{"name":"amount","type":"uint256","internalType":"uint256"}],"outputs":[{"name":"","type":"bool","internalType":"bool"}],"stateMutability":"nonpayable"},{"type":"function","name":"balanceOf","inputs":[{"name":"account","type":"address","internalType":"address"}],"outputs":[{"name":"","type":"uint256","internalType":"uint256"}],"stateMutability":"view"},{"type":"function","name":"burn","inputs":[{"name":"from","type":"address","internalType":"address"},{"name":"amount","type":"uint256","internalType":"uint256"}],"outputs":[],"stateMutability":"nonpayable"},{"type":"function","name":"decimals","inputs":[],"outputs":[{"name":"","type":"uint8","internalType":"uint8"}],"stateMutability":"view"},{"type":"function","name":"decreaseAllowance","inputs":[{"name":"spender","type":"address","internalType":"address"},{"name":"subtractedValue","type":"uint256","internalType":"uint256"}],"outputs":[{"name":"","type":"bool","internalType":"bool"}],"stateMutability":"nonpayable"},{"type":"function","name":"factoryV2","inputs":[],"outputs":[{"name":"","type":"address","internalType":"contract IUniswapV2Factory"}],"stateMutability":"view"},{"type":"function","name":"factoryV3","inputs":[],"outputs":[{"name":"","type":"address","internalType":"contract IUniswapV3Factory"}],"stateMutability":"view"},{"type":"function","name":"fee","inputs":[],"outputs":[{"name":"","type":"uint256","internalType":"uint256"}],"stateMutability":"view"},{"type":"function","name":"feeRatePerDayScaled","inputs":[],"outputs":[{"name":"","type":"uint256","internalType":"uint256"}],"stateMutability":"view"},{"type":"function","name":"feeReceiver","inputs":[],"outputs":[{"name":"","type":"address","internalType":"address"}],"stateMutability":"view"},{"type":"function","name":"feeTimestamp","inputs":[],"outputs":[{"name":"","type":"uint256","internalType":"uint256"}],"stateMutability":"view"},{"type":"function","name":"increaseAllowance","inputs":[{"name":"spender","type":"address","internalType":"address"},{"name":"addedValue","type":"uint256","internalType":"uint256"}],"outputs":[{"name":"","type":"bool","internalType":"bool"}],"stateMutability":"nonpayable"},{"type":"function","name":"initialize","inputs":[{"name":"tokenName","type":"string","internalType":"string"},{"name":"tokenSymbol","type":"string","internalType":"string"},{"name":"_feeRatePerDayScaled","type":"uint256","internalType":"uint256"},{"name":"_feeReceiver","type":"address","internalType":"address"},{"name":"_supplyCeiling","type":"uint256","internalType":"uint256"}],"outputs":[],"stateMutability":"nonpayable"},{"type":"function","name":"isRestricted","inputs":[{"name":"","type":"address","internalType":"address"}],"outputs":[{"name":"","type":"bool","internalType":"bool"}],"stateMutability":"view"},{"type":"function","name":"methodologist","inputs":[],"outputs":[{"name":"","type":"address","internalType":"address"}],"stateMutability":"view"},{"type":"function","name":"methodology","inputs":[],"outputs":[{"name":"","type":"string","internalType":"string"}],"stateMutability":"view"},{"type":"function","name":"mint","inputs":[{"name":"to","type":"address","internalType":"address"},{"name":"amount","type":"uint256","internalType":"uint256"}],"outputs":[],"stateMutability":"nonpayable"},{"type":"function","name":"mintToFeeReceiver","inputs":[],"outputs":[],"stateMutability":"nonpayable"},{"type":"function","name":"minter","inputs":[],"outputs":[{"name":"","type":"address","internalType":"address"}],"stateMutability":"view"},{"type":"function","name":"name","inputs":[],"outputs":[{"name":"","type":"string","internalType":"string"}],"stateMutability":"view"},{"type":"function","name":"owner","inputs":[],"outputs":[{"name":"","type":"address","internalType":"address"}],"stateMutability":"view"},{"type":"function","name":"pause","inputs":[],"outputs":[],"stateMutability":"nonpayable"},{"type":"function","name":"paused","inputs":[],"outputs":[{"name":"","type":"bool","internalType":"bool"}],"stateMutability":"view"},{"type":"function","name":"priceOracle","inputs":[],"outputs":[{"name":"","type":"address","internalType":"address"}],"stateMutability":"view"},{"type":"function","name":"proposeOwner","inputs":[{"name":"_proposedOwner","type":"address","internalType":"address"}],"outputs":[],"stateMutability":"nonpayable"},{"type":"function","name":"proposedOwner","inputs":[],"outputs":[{"name":"","type":"address","internalType":"address"}],"stateMutability":"view"},{"type":"function","name":"quoter","inputs":[],"outputs":[{"name":"","type":"address","internalType":"contract IQuoter"}],"stateMutability":"view"},{"type":"function","name":"renounceOwnership","inputs":[],"outputs":[],"stateMutability":"nonpayable"},{"type":"function","name":"setFeeRate","inputs":[{"name":"_feeRatePerDayScaled","type":"uint256","internalType":"uint256"}],"outputs":[],"stateMutability":"nonpayable"},{"type":"function","name":"setFeeReceiver","inputs":[{"name":"_feeReceiver","type":"address","internalType":"address"}],"outputs":[],"stateMutability":"nonpayable"},{"type":"function","name":"setMethodologist","inputs":[{"name":"_methodologist","type":"address","internalType":"address"}],"outputs":[],"stateMutability":"nonpayable"},{"type":"function","name":"setMethodology","inputs":[{"name":"_methodology","type":"string","internalType":"string"}],"outputs":[],"stateMutability":"nonpayable"},{"type":"function","name":"setMinter","inputs":[{"name":"_minter","type":"address","internalType":"address"}],"outputs":[],"stateMutability":"nonpayable"},{"type":"function","name":"setSupplyCeiling","inputs":[{"name":"_supplyCeiling","type":"uint256","internalType":"uint256"}],"outputs":[],"stateMutability":"nonpayable"},{"type":"function","name":"supplyCeiling","inputs":[],"outputs":[{"name":"","type":"uint256","internalType":"uint256"}],"stateMutability":"view"},{"type":"function","name":"swapRouterV2","inputs":[],"outputs":[{"name":"","type":"address","internalType":"contract IUniswapV2Router02"}],"stateMutability":"view"},{"type":"function","name":"swapRouterV3","inputs":[],"outputs":[{"name":"","type":"address","internalType":"contract ISwapRouter"}],"stateMutability":"view"},{"type":"function","name":"symbol","inputs":[],"outputs":[{"name":"","type":"string","internalType":"string"}],"stateMutability":"view"},{"type":"function","name":"toggleRestriction","inputs":[{"name":"who","type":"address","internalType":"address"}],"outputs":[],"stateMutability":"nonpayable"},{"type":"function","name":"tokenMarketShare","inputs":[{"name":"","type":"address","internalType":"address"}],"outputs":[{"name":"","type":"uint256","internalType":"uint256"}],"stateMutability":"view"},{"type":"function","name":"tokenSwapVersion","inputs":[{"name":"","type":"address","internalType":"address"}],"outputs":[{"name":"","type":"uint256","internalType":"uint256"}],"stateMutability":"view"},{"type":"function","name":"totalSupply","inputs":[],"outputs":[{"name":"","type":"uint256","internalType":"uint256"}],"stateMutability":"view"},{"type":"function","name":"transfer","inputs":[{"name":"to","type":"address","internalType":"address"},{"name":"amount","type":"uint256","internalType":"uint256"}],"outputs":[{"name":"","type":"bool","internalType":"bool"}],"stateMutability":"nonpayable"},{"type":"function","name":"transferFrom","inputs":[{"name":"from","type":"address","internalType":"address"},{"name":"to","type":"address","internalType":"address"},{"name":"amount","type":"uint256","internalType":"uint256"}],"outputs":[{"name":"","type":"bool","internalType":"bool"}],"stateMutability":"nonpayable"},{"type":"function","name":"transferOwnership","inputs":[{"name":"newOwner","type":"address","internalType":"address"}],"outputs":[],"stateMutability":"nonpayable"},{"type":"function","name":"unpause","inputs":[],"outputs":[],"stateMutability":"nonpayable"},{"type":"function","name":"weth","inputs":[],"outputs":[{"name":"","type":"address","internalType":"contract IWETH"}],"stateMutability":"view"},{"type":"event","name":"Approval","inputs":[{"name":"owner","type":"address","indexed":true,"internalType":"address"},{"name":"spender","type":"address","indexed":true,"internalType":"address"},{"name":"value","type":"uint256","indexed":false,"internalType":"uint256"}],"anonymous":false},{"type":"event","name":"FeeRateSet","inputs":[{"name":"feeRatePerDayScaled","type":"uint256","indexed":true,"internalType":"uint256"}],"anonymous":false},{"type":"event","name":"FeeReceiverSet","inputs":[{"name":"feeReceiver","type":"address","indexed":true,"internalType":"address"}],"anonymous":false},{"type":"event","name":"Initialized","inputs":[{"name":"version","type":"uint8","indexed":false,"internalType":"uint8"}],"anonymous":false},{"type":"event","name":"MethodologistSet","inputs":[{"name":"methodologist","type":"address","indexed":true,"internalType":"address"}],"anonymous":false},{"type":"event","name":"MethodologySet","inputs":[{"name":"methodology","type":"string","indexed":false,"internalType":"string"}],"anonymous":false},{"type":"event","name":"MintFeeToReceiver","inputs":[{"name":"feeReceiver","type":"address","indexed":false,"internalType":"address"},{"name":"timestamp","type":"uint256","indexed":false,"internalType":"uint256"},{"name":"totalSupply","type":"uint256","indexed":false,"internalType":"uint256"},{"name":"amount","type":"uint256","indexed":false,"internalType":"uint256"}],"anonymous":false},{"type":"event","name":"MinterSet","inputs":[{"name":"minter","type":"address","indexed":true,"internalType":"address"}],"anonymous":false},{"type":"event","name":"OwnershipTransferred","inputs":[{"name":"previousOwner","type":"address","indexed":true,"internalType":"address"},{"name":"newOwner","type":"address","indexed":true,"internalType":"address"}],"anonymous":false},{"type":"event","name":"Paused","inputs":[{"name":"account","type":"address","indexed":false,"internalType":"address"}],"anonymous":false},{"type":"event","name":"SupplyCeilingSet","inputs":[{"name":"supplyCeiling","type":"uint256","indexed":false,"internalType":"uint256"}],"anonymous":false},{"type":"event","name":"ToggledRestricted","inputs":[{"name":"account","type":"address","indexed":true,"internalType":"address"},{"name":"isRestricted","type":"bool","indexed":false,"internalType":"bool"}],"anonymous":false},{"type":"event","name":"Transfer","inputs":[{"name":"from","type":"address","indexed":true,"internalType":"address"},{"name":"to","type":"address","indexed":true,"internalType":"address"},{"name":"value","type":"uint256","indexed":false,"internalType":"uint256"}],"anonymous":false},{"type":"event","name":"Unpaused","inputs":[{"name":"account","type":"address","indexed":false,"internalType":"address"}],"anonymous":false}],"bytecode":{"object":"0x608060405234801561001057600080fd5b5061234d806100206000396000f3fe6080604052600436106102975760003560e01c80638da5cb5b1161015a578063c01bc982116100c1578063efdcd9741161007a578063efdcd974146107e9578063f2fde38b14610809578063f734e22a14610829578063fca3b5aa1461083e578063fcaae87b1461085e578063fede02761461088c57600080fd5b8063c01bc98214610713578063c6bbd5a714610744578063d153b60c14610765578063d90bc21114610785578063dd62ed3e146107b3578063ddca3f43146107d357600080fd5b8063a457c2d711610113578063a457c2d714610652578063a9059cbb14610672578063aaa4a18414610692578063b3f00674146106b2578063b5ed298a146106d2578063b631e80b146106f257600080fd5b80638da5cb5b146105a957806391fe1b92146105c757806395d89b41146105e75780639dc29fac146105fc5780639eeb1d501461061c5780639f8e67bf1461063157600080fd5b80633f4ba83a116101fe57806368e0d4e1116101b757806368e0d4e1146104e75780636e01a6861461050857806370a0823114610528578063715018a61461055e578063744fbc7a146105735780638456cb591461059457600080fd5b80633f4ba83a146104375780633fc8cef31461044e57806340c10f191461046f57806345596e2e1461048f5780635c975abb146104af578063660db484146104c757600080fd5b806323b872dd1161025057806323b872dd1461038d5780632630c12f146103ad5780632b52684d146103ce5780632fecd589146103e5578063313ce567146103fb578063395093511461041757600080fd5b806306fdde03146102a357806307546172146102ce578063095ea7b31461030757806318160ddd14610337578063184a732f146103565780631d5f45f51461036c57600080fd5b3661029e57005b600080fd5b3480156102af57600080fd5b506102b86108ac565b6040516102c591906120ab565b60405180910390f35b3480156102da57600080fd5b50610101546102ef906001600160a01b031681565b6040516001600160a01b0390911681526020016102c5565b34801561031357600080fd5b50610327610322366004611fa5565b61093e565b60405190151581526020016102c5565b34801561034357600080fd5b506035545b6040519081526020016102c5565b34801561036257600080fd5b5061034860fe5481565b34801561037857600080fd5b50610109546102ef906001600160a01b031681565b34801561039957600080fd5b506103276103a8366004611f69565b610956565b3480156103b957600080fd5b50610104546102ef906001600160a01b031681565b3480156103da57600080fd5b506103486101035481565b3480156103f157600080fd5b5061034860fd5481565b34801561040757600080fd5b50604051601281526020016102c5565b34801561042357600080fd5b50610327610432366004611fa5565b610a49565b34801561044357600080fd5b5061044c610a6b565b005b34801561045a57600080fd5b5061010c546102ef906001600160a01b031681565b34801561047b57600080fd5b5061044c61048a366004611fa5565b610a7d565b34801561049b57600080fd5b5061044c6104aa366004612092565b610b97565b3480156104bb57600080fd5b5060ca5460ff16610327565b3480156104d357600080fd5b5061044c6104e2366004611f14565b610bda565b3480156104f357600080fd5b5061010b546102ef906001600160a01b031681565b34801561051457600080fd5b5061044c610523366004612092565b610c40565b34801561053457600080fd5b50610348610543366004611f14565b6001600160a01b031660009081526033602052604090205490565b34801561056a57600080fd5b5061044c610c85565b34801561057f57600080fd5b5061010a546102ef906001600160a01b031681565b3480156105a057600080fd5b5061044c610c97565b3480156105b557600080fd5b506065546001600160a01b03166102ef565b3480156105d357600080fd5b5061044c6105e2366004611fcf565b610ca7565b3480156105f357600080fd5b506102b8610d5a565b34801561060857600080fd5b5061044c610617366004611fa5565b610d69565b34801561062857600080fd5b506102b8610e3e565b34801561063d57600080fd5b50610100546102ef906001600160a01b031681565b34801561065e57600080fd5b5061032761066d366004611fa5565b610ecd565b34801561067e57600080fd5b5061032761068d366004611fa5565b610f53565b34801561069e57600080fd5b5061044c6106ad366004611f14565b610fdc565b3480156106be57600080fd5b5060ff546102ef906001600160a01b031681565b3480156106de57600080fd5b5061044c6106ed366004611f14565b611050565b3480156106fe57600080fd5b50610108546102ef906001600160a01b031681565b34801561071f57600080fd5b5061032761072e366004611f14565b6101056020526000908152604090205460ff1681565b34801561075057600080fd5b5061010d546102ef906001600160a01b031681565b34801561077157600080fd5b506097546102ef906001600160a01b031681565b34801561079157600080fd5b506103486107a0366004611f14565b6101076020526000908152604090205481565b3480156107bf57600080fd5b506103486107ce366004611f36565b6110a0565b3480156107df57600080fd5b5061034860fc5481565b3480156107f557600080fd5b5061044c610804366004611f14565b6110cb565b34801561081557600080fd5b5061044c610824366004611f14565b611130565b34801561083557600080fd5b5061044c611258565b34801561084a57600080fd5b5061044c610859366004611f14565b611268565b34801561086a57600080fd5b50610348610879366004611f14565b6101066020526000908152604090205481565b34801561089857600080fd5b5061044c6108a736600461200c565b6112ce565b6060603680546108bb906122b0565b80601f01602080910402602001604051908101604052809291908181526020018280546108e7906122b0565b80156109345780601f1061090957610100808354040283529160200191610934565b820191906000526020600020905b81548152906001019060200180831161091757829003601f168201915b5050505050905090565b60003361094c81858561143b565b5060019392505050565b6000610960611560565b336000908152610105602052604090205460ff161561099a5760405162461bcd60e51b81526004016109919061212a565b60405180910390fd5b6001600160a01b0383166000908152610105602052604090205460ff16156109d45760405162461bcd60e51b815260040161099190612100565b6001600160a01b0384166000908152610105602052604090205460ff1615610a335760405162461bcd60e51b8152602060048201526012602482015271199c9bdb481a5cc81c995cdd1c9a58dd195960721b6044820152606401610991565b610a3e8433846115a6565b61094c848484611620565b60003361094c818585610a5c83836110a0565b610a669190612240565b61143b565b610a736117cb565b610a7b611825565b565b610a85611560565b610101546001600160a01b03163314610ab05760405162461bcd60e51b815260040161099190612161565b6101035481610abe60355490565b610ac89190612240565b1115610b165760405162461bcd60e51b815260206004820152601a60248201527f77696c6c2065786365656420737570706c79206365696c696e670000000000006044820152606401610991565b6001600160a01b0382166000908152610105602052604090205460ff1615610b505760405162461bcd60e51b815260040161099190612100565b336000908152610105602052604090205460ff1615610b815760405162461bcd60e51b81526004016109919061212a565b610b89611877565b610b9382826119a5565b5050565b610b9f6117cb565b610ba7611877565b60fd81905560405181907f45398c451b1a31b88dbaed4e7b89a632f43cc4b50149d437db03a5300afe40d190600090a250565b610be26117cb565b6001600160a01b038116610bf557600080fd5b61010080546001600160a01b0319166001600160a01b0383169081179091556040517f164d8ef0d742b45087644f55c61abeb84557df70d06730591e451f0981e278ca90600090a250565b610c486117cb565b6101038190556040518181527fe35be406f69e9d11d6ac8e5b54bbc8b6c4baf2fa2359f84a56baa5ea5d07dc8f906020015b60405180910390a150565b610c8d6117cb565b610a7b6000611a66565b610c9f6117cb565b610a7b611ab8565b610100546001600160a01b03163314610d165760405162461bcd60e51b815260206004820152602b60248201527f496e646578546f6b656e3a2063616c6c6572206973206e6f7420746865206d6560448201526a1d1a1bd91bdb1bd9da5cdd60aa1b6064820152608401610991565b8051610d2a90610102906020840190611dd2565b507fe6be68107100e39cb16d675c1086a4d5479fbd01108d721dabbccaa2249b995f81604051610c7a91906120ab565b6060603780546108bb906122b0565b610d71611560565b610101546001600160a01b03163314610d9c5760405162461bcd60e51b815260040161099190612161565b6001600160a01b0382166000908152610105602052604090205460ff1615610dfb5760405162461bcd60e51b8152602060048201526012602482015271199c9bdb481a5cc81c995cdd1c9a58dd195960721b6044820152606401610991565b336000908152610105602052604090205460ff1615610e2c5760405162461bcd60e51b81526004016109919061212a565b610e34611877565b610b938282611af5565b6101028054610e4c906122b0565b80601f0160208091040260200160405190810160405280929190818152602001828054610e78906122b0565b8015610ec55780601f10610e9a57610100808354040283529160200191610ec5565b820191906000526020600020905b815481529060010190602001808311610ea857829003601f168201915b505050505081565b60003381610edb82866110a0565b905083811015610f3b5760405162461bcd60e51b815260206004820152602560248201527f45524332303a2064656372656173656420616c6c6f77616e63652062656c6f77604482015264207a65726f60d81b6064820152608401610991565b610f48828686840361143b565b506001949350505050565b6000610f5d611560565b336000908152610105602052604090205460ff1615610f8e5760405162461bcd60e51b81526004016109919061212a565b6001600160a01b0383166000908152610105602052604090205460ff1615610fc85760405162461bcd60e51b815260040161099190612100565b610fd3338484611620565b50600192915050565b610fe46117cb565b6001600160a01b0381166000818152610105602052604090819020805460ff19811660ff9182161590811790925591517f14ddf324cc5d8b14a3c3b12c84b0a7d578d72c8d60655c06d6a457e71431d5ee9261104592161515815260200190565b60405180910390a250565b6110586117cb565b6001600160a01b03811661107e5760405162461bcd60e51b8152600401610991906121a5565b609780546001600160a01b0319166001600160a01b0392909216919091179055565b6001600160a01b03918216600090815260346020908152604080832093909416825291909152205490565b6110d36117cb565b6001600160a01b0381166110e657600080fd5b60ff80546001600160a01b0319166001600160a01b0383169081179091556040517fbdf37c276f641820b141429d245add2552b4118c0866e5a78638e3de5ef18d9d90600090a250565b6001600160a01b0381166111565760405162461bcd60e51b8152600401610991906121a5565b6097546001600160a01b038281169116146111ce5760405162461bcd60e51b815260206004820152603260248201527f50726f706f7361626c654f776e61626c653a206e6577206f776e6572206973206044820152713737ba10383937b837b9b2b21037bbb732b960711b6064820152608401610991565b6001600160a01b038116331461124c5760405162461bcd60e51b815260206004820152603a60248201527f50726f706f7361626c654f776e61626c653a20746869732063616c6c206d757360448201527f74206265206d61646520627920746865206e6577206f776e65720000000000006064820152608401610991565b61125581611a66565b50565b6112606117cb565b610a7b611877565b6112706117cb565b6001600160a01b03811661128357600080fd5b61010180546001600160a01b0319166001600160a01b0383169081179091556040517f726b590ef91a8c76ad05bbe91a57ef84605276528f49cd47d787f558a4e755b690600090a250565b600054610100900460ff16158080156112ee5750600054600160ff909116105b806113085750303b158015611308575060005460ff166001145b61136b5760405162461bcd60e51b815260206004820152602e60248201527f496e697469616c697a61626c653a20636f6e747261637420697320616c72656160448201526d191e481a5b9a5d1a585b1a5e995960921b6064820152608401610991565b6000805460ff19166001179055801561138e576000805461ff0019166101001790555b6001600160a01b0383166113a157600080fd5b6113a9611c26565b6113b1611c55565b6113bb8686611c84565b6113c3611cb5565b60fd84905560ff80546001600160a01b0319166001600160a01b0385161790556101038290554260fe558015611433576000805461ff0019169055604051600181527f7f26b83ff96e1f2b6a682f133852f6798a09c465da95921460cefb38474024989060200160405180910390a15b505050505050565b6001600160a01b03831661149d5760405162461bcd60e51b8152602060048201526024808201527f45524332303a20617070726f76652066726f6d20746865207a65726f206164646044820152637265737360e01b6064820152608401610991565b6001600160a01b0382166114fe5760405162461bcd60e51b815260206004820152602260248201527f45524332303a20617070726f766520746f20746865207a65726f206164647265604482015261737360f01b6064820152608401610991565b6001600160a01b0383811660008181526034602090815260408083209487168084529482529182902085905590518481527f8c5be1e5ebec7d5bd14f71427d1e84f3dd0314c0f7b2291e5b200ac8c7c3b92591015b60405180910390a3505050565b60ca5460ff1615610a7b5760405162461bcd60e51b815260206004820152601060248201526f14185d5cd8589b194e881c185d5cd95960821b6044820152606401610991565b60006115b284846110a0565b9050600019811461161a578181101561160d5760405162461bcd60e51b815260206004820152601d60248201527f45524332303a20696e73756666696369656e7420616c6c6f77616e63650000006044820152606401610991565b61161a848484840361143b565b50505050565b6001600160a01b0383166116845760405162461bcd60e51b815260206004820152602560248201527f45524332303a207472616e736665722066726f6d20746865207a65726f206164604482015264647265737360d81b6064820152608401610991565b6001600160a01b0382166116e65760405162461bcd60e51b815260206004820152602360248201527f45524332303a207472616e7366657220746f20746865207a65726f206164647260448201526265737360e81b6064820152608401610991565b6001600160a01b0383166000908152603360205260409020548181101561175e5760405162461bcd60e51b815260206004820152602660248201527f45524332303a207472616e7366657220616d6f756e7420657863656564732062604482015265616c616e636560d01b6064820152608401610991565b6001600160a01b0380851660008181526033602052604080822086860390559286168082529083902080548601905591517fddf252ad1be2c89b69c2b068fc378daa952ba7f163c4a11628f55a4df523b3ef906117be9086815260200190565b60405180910390a361161a565b6065546001600160a01b03163314610a7b5760405162461bcd60e51b815260206004820181905260248201527f4f776e61626c653a2063616c6c6572206973206e6f7420746865206f776e65726044820152606401610991565b61182d611cdc565b60ca805460ff191690557f5db9ee0a495bf2e6ff9c91a7834c1ba4fdd244a5e8aa4e537bd38aeae4b073aa335b6040516001600160a01b03909116815260200160405180910390a1565b60006201518060fe544261188b9190612299565b6118959190612258565b9050600181106112555760006118aa60355490565b60fd54909150819060005b848110156118ef5768056bc75e2d631000006118d1838561227a565b6118db9190612258565b6118e59084612240565b92506001016118b5565b5060006118fc8484612299565b905061190b856201518061227a565b60fe600082825461191c9190612240565b909155505060ff54611937906001600160a01b0316826119a5565b60ff547f07982395c678b2ffc23fcf59aaec243ca79418c285af0d0e10b4e65bc4189f4c906001600160a01b03164261196f60355490565b604080516001600160a01b0390941684526020840192909252908201526060810183905260800160405180910390a15050505050565b6001600160a01b0382166119fb5760405162461bcd60e51b815260206004820152601f60248201527f45524332303a206d696e7420746f20746865207a65726f2061646472657373006044820152606401610991565b8060356000828254611a0d9190612240565b90915550506001600160a01b0382166000818152603360209081526040808320805486019055518481527fddf252ad1be2c89b69c2b068fc378daa952ba7f163c4a11628f55a4df523b3ef910160405180910390a35050565b606580546001600160a01b038381166001600160a01b0319831681179093556040519116919082907f8be0079c531659141344cd1fd0a4f28419497f9722a3daafe3b4186f6b6457e090600090a35050565b611ac0611560565b60ca805460ff191660011790557f62e78cea01bee320cd4e420270b5ea74000d11b0c9f74754ebdbfc544b05a25861185a3390565b6001600160a01b038216611b555760405162461bcd60e51b815260206004820152602160248201527f45524332303a206275726e2066726f6d20746865207a65726f206164647265736044820152607360f81b6064820152608401610991565b6001600160a01b03821660009081526033602052604090205481811015611bc95760405162461bcd60e51b815260206004820152602260248201527f45524332303a206275726e20616d6f756e7420657863656564732062616c616e604482015261636560f01b6064820152608401610991565b6001600160a01b03831660008181526033602090815260408083208686039055603580548790039055518581529192917fddf252ad1be2c89b69c2b068fc378daa952ba7f163c4a11628f55a4df523b3ef9101611553565b505050565b600054610100900460ff16611c4d5760405162461bcd60e51b8152600401610991906121f5565b610a7b611d25565b600054610100900460ff16611c7c5760405162461bcd60e51b8152600401610991906121f5565b610a7b611d55565b600054610100900460ff16611cab5760405162461bcd60e51b8152600401610991906121f5565b610b938282611d88565b600054610100900460ff16610a7b5760405162461bcd60e51b8152600401610991906121f5565b60ca5460ff16610a7b5760405162461bcd60e51b815260206004820152601460248201527314185d5cd8589b194e881b9bdd081c185d5cd95960621b6044820152606401610991565b600054610100900460ff16611d4c5760405162461bcd60e51b8152600401610991906121f5565b610a7b33611a66565b600054610100900460ff16611d7c5760405162461bcd60e51b8152600401610991906121f5565b60ca805460ff19169055565b600054610100900460ff16611daf5760405162461bcd60e51b8152600401610991906121f5565b8151611dc2906036906020850190611dd2565b508051611c219060379060208401905b828054611dde906122b0565b90600052602060002090601f016020900481019282611e005760008555611e46565b82601f10611e1957805160ff1916838001178555611e46565b82800160010185558215611e46579182015b82811115611e46578251825591602001919060010190611e2b565b50611e52929150611e56565b5090565b5b80821115611e525760008155600101611e57565b80356001600160a01b0381168114611e8257600080fd5b919050565b600082601f830112611e9857600080fd5b813567ffffffffffffffff80821115611eb357611eb3612301565b604051601f8301601f19908116603f01168101908282118183101715611edb57611edb612301565b81604052838152866020858801011115611ef457600080fd5b836020870160208301376000602085830101528094505050505092915050565b600060208284031215611f2657600080fd5b611f2f82611e6b565b9392505050565b60008060408385031215611f4957600080fd5b611f5283611e6b565b9150611f6060208401611e6b565b90509250929050565b600080600060608486031215611f7e57600080fd5b611f8784611e6b565b9250611f9560208501611e6b565b9150604084013590509250925092565b60008060408385031215611fb857600080fd5b611fc183611e6b565b946020939093013593505050565b600060208284031215611fe157600080fd5b813567ffffffffffffffff811115611ff857600080fd5b61200484828501611e87565b949350505050565b600080600080600060a0868803121561202457600080fd5b853567ffffffffffffffff8082111561203c57600080fd5b61204889838a01611e87565b9650602088013591508082111561205e57600080fd5b5061206b88828901611e87565b9450506040860135925061208160608701611e6b565b949793965091946080013592915050565b6000602082840312156120a457600080fd5b5035919050565b600060208083528351808285015260005b818110156120d8578581018301518582016040015282016120bc565b818111156120ea576000604083870101525b50601f01601f1916929092016040019392505050565b60208082526010908201526f1d1bc81a5cc81c995cdd1c9a58dd195960821b604082015260600190565b60208082526018908201527f6d73672e73656e64657220697320726573747269637465640000000000000000604082015260600190565b60208082526024908201527f496e646578546f6b656e3a2063616c6c6572206973206e6f7420746865206d69604082015263373a32b960e11b606082015260800190565b60208082526030908201527f50726f706f7361626c654f776e61626c653a206e6577206f776e65722069732060408201526f746865207a65726f206164647265737360801b606082015260800190565b6020808252602b908201527f496e697469616c697a61626c653a20636f6e7472616374206973206e6f74206960408201526a6e697469616c697a696e6760a81b606082015260800190565b60008219821115612253576122536122eb565b500190565b60008261227557634e487b7160e01b600052601260045260246000fd5b500490565b6000816000190483118215151615612294576122946122eb565b500290565b6000828210156122ab576122ab6122eb565b500390565b600181811c908216806122c457607f821691505b602082108114156122e557634e487b7160e01b600052602260045260246000fd5b50919050565b634e487b7160e01b600052601160045260246000fd5b634e487b7160e01b600052604160045260246000fdfea26469706673582212205f104c9bfd3f96f4821ba2861dda72e7037f0af26b31ff3af0a57b92382d7a1164736f6c63430008070033","linkReferences":{}},"methodIdentifiers":{"allowance(address,address)":"dd62ed3e","approve(address,uint256)":"095ea7b3","balanceOf(address)":"70a08231","burn(address,uint256)":"9dc29fac","decimals()":"313ce567","decreaseAllowance(address,uint256)":"a457c2d7","factoryV2()":"68e0d4e1","factoryV3()":"1d5f45f5","fee()":"ddca3f43","feeRatePerDayScaled()":"2fecd589","feeReceiver()":"b3f00674","feeTimestamp()":"184a732f","increaseAllowance(address,uint256)":"39509351","initialize(string,string,uint256,address,uint256)":"fede0276","isRestricted(address)":"c01bc982","methodologist()":"9f8e67bf","methodology()":"9eeb1d50","mint(address,uint256)":"40c10f19","mintToFeeReceiver()":"f734e22a","minter()":"07546172","name()":"06fdde03","owner()":"8da5cb5b","pause()":"8456cb59","paused()":"5c975abb","priceOracle()":"2630c12f","proposeOwner(address)":"b5ed298a","proposedOwner()":"d153b60c","quoter()":"c6bbd5a7","renounceOwnership()":"715018a6","setFeeRate(uint256)":"45596e2e","setFeeReceiver(address)":"efdcd974","setMethodologist(address)":"660db484","setMethodology(string)":"91fe1b92","setMinter(address)":"fca3b5aa","setSupplyCeiling(uint256)":"6e01a686","supplyCeiling()":"2b52684d","swapRouterV2()":"744fbc7a","swapRouterV3()":"b631e80b","symbol()":"95d89b41","toggleRestriction(address)":"aaa4a184","tokenMarketShare(address)":"fcaae87b","tokenSwapVersion(address)":"d90bc211","totalSupply()":"18160ddd","transfer(address,uint256)":"a9059cbb","transferFrom(address,address,uint256)":"23b872dd","transferOwnership(address)":"f2fde38b","unpause()":"3f4ba83a","weth()":"3fc8cef3"},"id":30}