{
  "abi": [
    {
      "anonymous": false,
      "inputs": [
        {
          "indexed": true,
          "internalType": "address",
          "name": "owner",
          "type": "address"
        },
        {
          "indexed": true,
          "internalType": "address",
          "name": "spender",
          "type": "address"
        },
        {
          "indexed": false,
          "internalType": "uint256",
          "name": "value",
          "type": "uint256"
        }
      ],
      "name": "Approval",
      "type": "event"
    },
    {
      "anonymous": false,
      "inputs": [
        {
          "indexed": true,
          "internalType": "uint256",
          "name": "feeRatePerDayScaled",
          "type": "uint256"
        }
      ],
      "name": "FeeRateSet",
      "type": "event"
    },
    {
      "anonymous": false,
      "inputs": [
        {
          "indexed": true,
          "internalType": "address",
          "name": "feeReceiver",
          "type": "address"
        }
      ],
      "name": "FeeReceiverSet",
      "type": "event"
    },
    {
      "anonymous": false,
      "inputs": [
        {
          "indexed": false,
          "internalType": "uint8",
          "name": "version",
          "type": "uint8"
        }
      ],
      "name": "Initialized",
      "type": "event"
    },
    {
      "anonymous": false,
      "inputs": [
        {
          "indexed": true,
          "internalType": "address",
          "name": "methodologist",
          "type": "address"
        }
      ],
      "name": "MethodologistSet",
      "type": "event"
    },
    {
      "anonymous": false,
      "inputs": [
        {
          "indexed": false,
          "internalType": "string",
          "name": "methodology",
          "type": "string"
        }
      ],
      "name": "MethodologySet",
      "type": "event"
    },
    {
      "anonymous": false,
      "inputs": [
        {
          "indexed": false,
          "internalType": "address",
          "name": "feeReceiver",
          "type": "address"
        },
        {
          "indexed": false,
          "internalType": "uint256",
          "name": "timestamp",
          "type": "uint256"
        },
        {
          "indexed": false,
          "internalType": "uint256",
          "name": "totalSupply",
          "type": "uint256"
        },
        {
          "indexed": false,
          "internalType": "uint256",
          "name": "amount",
          "type": "uint256"
        }
      ],
      "name": "MintFeeToReceiver",
      "type": "event"
    },
    {
      "anonymous": false,
      "inputs": [
        {
          "indexed": true,
          "internalType": "address",
          "name": "minter",
          "type": "address"
        }
      ],
      "name": "MinterSet",
      "type": "event"
    },
    {
      "anonymous": false,
      "inputs": [
        {
          "indexed": true,
          "internalType": "address",
          "name": "previousOwner",
          "type": "address"
        },
        {
          "indexed": true,
          "internalType": "address",
          "name": "newOwner",
          "type": "address"
        }
      ],
      "name": "OwnershipTransferred",
      "type": "event"
    },
    {
      "anonymous": false,
      "inputs": [
        {
          "indexed": false,
          "internalType": "address",
          "name": "account",
          "type": "address"
        }
      ],
      "name": "Paused",
      "type": "event"
    },
    {
      "anonymous": false,
      "inputs": [
        {
          "indexed": false,
          "internalType": "uint256",
          "name": "supplyCeiling",
          "type": "uint256"
        }
      ],
      "name": "SupplyCeilingSet",
      "type": "event"
    },
    {
      "anonymous": false,
      "inputs": [
        {
          "indexed": true,
          "internalType": "address",
          "name": "account",
          "type": "address"
        },
        {
          "indexed": false,
          "internalType": "bool",
          "name": "isRestricted",
          "type": "bool"
        }
      ],
      "name": "ToggledRestricted",
      "type": "event"
    },
    {
      "anonymous": false,
      "inputs": [
        {
          "indexed": true,
          "internalType": "address",
          "name": "from",
          "type": "address"
        },
        {
          "indexed": true,
          "internalType": "address",
          "name": "to",
          "type": "address"
        },
        {
          "indexed": false,
          "internalType": "uint256",
          "name": "value",
          "type": "uint256"
        }
      ],
      "name": "Transfer",
      "type": "event"
    },
    {
      "anonymous": false,
      "inputs": [
        {
          "indexed": false,
          "internalType": "address",
          "name": "account",
          "type": "address"
        }
      ],
      "name": "Unpaused",
      "type": "event"
    },
    {
      "inputs": [],
      "name": "BONE",
      "outputs": [
        {
          "internalType": "address",
          "name": "",
          "type": "address"
        }
      ],
      "stateMutability": "view",
      "type": "function"
    },
    {
      "inputs": [],
      "name": "BabyDoge",
      "outputs": [
        {
          "internalType": "address",
          "name": "",
          "type": "address"
        }
      ],
      "stateMutability": "view",
      "type": "function"
    },
    {
      "inputs": [],
      "name": "ELON",
      "outputs": [
        {
          "internalType": "address",
          "name": "",
          "type": "address"
        }
      ],
      "stateMutability": "view",
      "type": "function"
    },
    {
      "inputs": [],
      "name": "FLOKI",
      "outputs": [
        {
          "internalType": "address",
          "name": "",
          "type": "address"
        }
      ],
      "stateMutability": "view",
      "type": "function"
    },
    {
      "inputs": [],
      "name": "HarryPotterObamaSonic10Inu",
      "outputs": [
        {
          "internalType": "address",
          "name": "",
          "type": "address"
        }
      ],
      "stateMutability": "view",
      "type": "function"
    },
    {
      "inputs": [],
      "name": "LEASH",
      "outputs": [
        {
          "internalType": "address",
          "name": "",
          "type": "address"
        }
      ],
      "stateMutability": "view",
      "type": "function"
    },
    {
      "inputs": [],
      "name": "MEME",
      "outputs": [
        {
          "internalType": "address",
          "name": "",
          "type": "address"
        }
      ],
      "stateMutability": "view",
      "type": "function"
    },
    {
      "inputs": [],
      "name": "PEPE",
      "outputs": [
        {
          "internalType": "address",
          "name": "",
          "type": "address"
        }
      ],
      "stateMutability": "view",
      "type": "function"
    },
    {
      "inputs": [],
      "name": "QUOTER",
      "outputs": [
        {
          "internalType": "address",
          "name": "",
          "type": "address"
        }
      ],
      "stateMutability": "view",
      "type": "function"
    },
    {
      "inputs": [],
      "name": "SHIB",
      "outputs": [
        {
          "internalType": "address",
          "name": "",
          "type": "address"
        }
      ],
      "stateMutability": "view",
      "type": "function"
    },
    {
      "inputs": [],
      "name": "WETH9",
      "outputs": [
        {
          "internalType": "address",
          "name": "",
          "type": "address"
        }
      ],
      "stateMutability": "view",
      "type": "function"
    },
    {
      "inputs": [],
      "name": "WSM",
      "outputs": [
        {
          "internalType": "address",
          "name": "",
          "type": "address"
        }
      ],
      "stateMutability": "view",
      "type": "function"
    },
    {
      "inputs": [
        {
          "internalType": "address",
          "name": "owner",
          "type": "address"
        },
        {
          "internalType": "address",
          "name": "spender",
          "type": "address"
        }
      ],
      "name": "allowance",
      "outputs": [
        {
          "internalType": "uint256",
          "name": "",
          "type": "uint256"
        }
      ],
      "stateMutability": "view",
      "type": "function"
    },
    {
      "inputs": [
        {
          "internalType": "address",
          "name": "spender",
          "type": "address"
        },
        {
          "internalType": "uint256",
          "name": "amount",
          "type": "uint256"
        }
      ],
      "name": "approve",
      "outputs": [
        {
          "internalType": "bool",
          "name": "",
          "type": "bool"
        }
      ],
      "stateMutability": "nonpayable",
      "type": "function"
    },
    {
      "inputs": [
        {
          "internalType": "uint256",
          "name": "",
          "type": "uint256"
        }
      ],
      "name": "assetList",
      "outputs": [
        {
          "internalType": "address",
          "name": "",
          "type": "address"
        }
      ],
      "stateMutability": "view",
      "type": "function"
    },
    {
      "inputs": [
        {
          "internalType": "address",
          "name": "account",
          "type": "address"
        }
      ],
      "name": "balanceOf",
      "outputs": [
        {
          "internalType": "uint256",
          "name": "",
          "type": "uint256"
        }
      ],
      "stateMutability": "view",
      "type": "function"
    },
    {
      "inputs": [
        {
          "internalType": "address",
          "name": "from",
          "type": "address"
        },
        {
          "internalType": "uint256",
          "name": "amount",
          "type": "uint256"
        }
      ],
      "name": "burn",
      "outputs": [],
      "stateMutability": "nonpayable",
      "type": "function"
    },
    {
      "inputs": [],
      "name": "decimals",
      "outputs": [
        {
          "internalType": "uint8",
          "name": "",
          "type": "uint8"
        }
      ],
      "stateMutability": "view",
      "type": "function"
    },
    {
      "inputs": [
        {
          "internalType": "address",
          "name": "spender",
          "type": "address"
        },
        {
          "internalType": "uint256",
          "name": "subtractedValue",
          "type": "uint256"
        }
      ],
      "name": "decreaseAllowance",
      "outputs": [
        {
          "internalType": "bool",
          "name": "",
          "type": "bool"
        }
      ],
      "stateMutability": "nonpayable",
      "type": "function"
    },
    {
      "inputs": [],
      "name": "factoryV2",
      "outputs": [
        {
          "internalType": "contract IUniswapV2Factory",
          "name": "",
          "type": "address"
        }
      ],
      "stateMutability": "view",
      "type": "function"
    },
    {
      "inputs": [],
      "name": "factoryV3",
      "outputs": [
        {
          "internalType": "contract IUniswapV3Factory",
          "name": "",
          "type": "address"
        }
      ],
      "stateMutability": "view",
      "type": "function"
    },
    {
      "inputs": [],
      "name": "feeRatePerDayScaled",
      "outputs": [
        {
          "internalType": "uint256",
          "name": "",
          "type": "uint256"
        }
      ],
      "stateMutability": "view",
      "type": "function"
    },
    {
      "inputs": [],
      "name": "feeReceiver",
      "outputs": [
        {
          "internalType": "address",
          "name": "",
          "type": "address"
        }
      ],
      "stateMutability": "view",
      "type": "function"
    },
    {
      "inputs": [],
      "name": "feeTimestamp",
      "outputs": [
        {
          "internalType": "uint256",
          "name": "",
          "type": "uint256"
        }
      ],
      "stateMutability": "view",
      "type": "function"
    },
    {
      "inputs": [
        {
          "internalType": "address",
          "name": "tokenIn",
          "type": "address"
        },
        {
          "internalType": "address",
          "name": "tokenOut",
          "type": "address"
        },
        {
          "internalType": "uint256",
          "name": "amountIn",
          "type": "uint256"
        }
      ],
      "name": "getAmountOut",
      "outputs": [
        {
          "internalType": "uint256",
          "name": "finalAmountOut",
          "type": "uint256"
        },
        {
          "internalType": "enum IndexToken.DexStatus",
          "name": "dexStatus",
          "type": "uint8"
        }
      ],
      "stateMutability": "nonpayable",
      "type": "function"
    },
    {
      "inputs": [],
      "name": "getAmounts",
      "outputs": [
        {
          "internalType": "uint256",
          "name": "",
          "type": "uint256"
        },
        {
          "internalType": "uint256",
          "name": "",
          "type": "uint256"
        }
      ],
      "stateMutability": "nonpayable",
      "type": "function"
    },
    {
      "inputs": [],
      "name": "getPool",
      "outputs": [
        {
          "internalType": "address",
          "name": "",
          "type": "address"
        },
        {
          "internalType": "address",
          "name": "",
          "type": "address"
        }
      ],
      "stateMutability": "nonpayable",
      "type": "function"
    },
    {
      "inputs": [],
      "name": "getPortfolioBalance",
      "outputs": [
        {
          "internalType": "uint256",
          "name": "",
          "type": "uint256"
        }
      ],
      "stateMutability": "nonpayable",
      "type": "function"
    },
    {
      "inputs": [
        {
          "internalType": "address",
          "name": "spender",
          "type": "address"
        },
        {
          "internalType": "uint256",
          "name": "addedValue",
          "type": "uint256"
        }
      ],
      "name": "increaseAllowance",
      "outputs": [
        {
          "internalType": "bool",
          "name": "",
          "type": "bool"
        }
      ],
      "stateMutability": "nonpayable",
      "type": "function"
    },
    {
      "inputs": [
        {
          "internalType": "string",
          "name": "tokenName",
          "type": "string"
        },
        {
          "internalType": "string",
          "name": "tokenSymbol",
          "type": "string"
        },
        {
          "internalType": "uint256",
          "name": "_feeRatePerDayScaled",
          "type": "uint256"
        },
        {
          "internalType": "address",
          "name": "_feeReceiver",
          "type": "address"
        },
        {
          "internalType": "uint256",
          "name": "_supplyCeiling",
          "type": "uint256"
        }
      ],
      "name": "initialize",
      "outputs": [],
      "stateMutability": "nonpayable",
      "type": "function"
    },
    {
      "inputs": [
        {
          "internalType": "address",
          "name": "",
          "type": "address"
        }
      ],
      "name": "isRestricted",
      "outputs": [
        {
          "internalType": "bool",
          "name": "",
          "type": "bool"
        }
      ],
      "stateMutability": "view",
      "type": "function"
    },
    {
      "inputs": [
        {
          "internalType": "address",
          "name": "tokenIn",
          "type": "address"
        },
        {
          "internalType": "uint256",
          "name": "amountIn",
          "type": "uint256"
        }
      ],
      "name": "issuanceIndexTokens",
      "outputs": [],
      "stateMutability": "nonpayable",
      "type": "function"
    },
    {
      "inputs": [],
      "name": "issuanceIndexTokensWithEth",
      "outputs": [],
      "stateMutability": "payable",
      "type": "function"
    },
    {
      "inputs": [],
      "name": "methodologist",
      "outputs": [
        {
          "internalType": "address",
          "name": "",
          "type": "address"
        }
      ],
      "stateMutability": "view",
      "type": "function"
    },
    {
      "inputs": [],
      "name": "methodology",
      "outputs": [
        {
          "internalType": "string",
          "name": "",
          "type": "string"
        }
      ],
      "stateMutability": "view",
      "type": "function"
    },
    {
      "inputs": [
        {
          "internalType": "address",
          "name": "to",
          "type": "address"
        },
        {
          "internalType": "uint256",
          "name": "amount",
          "type": "uint256"
        }
      ],
      "name": "mint",
      "outputs": [],
      "stateMutability": "nonpayable",
      "type": "function"
    },
    {
      "inputs": [],
      "name": "mintToFeeReceiver",
      "outputs": [],
      "stateMutability": "nonpayable",
      "type": "function"
    },
    {
      "inputs": [],
      "name": "minter",
      "outputs": [
        {
          "internalType": "address",
          "name": "",
          "type": "address"
        }
      ],
      "stateMutability": "view",
      "type": "function"
    },
    {
      "inputs": [],
      "name": "name",
      "outputs": [
        {
          "internalType": "string",
          "name": "",
          "type": "string"
        }
      ],
      "stateMutability": "view",
      "type": "function"
    },
    {
      "inputs": [],
      "name": "owner",
      "outputs": [
        {
          "internalType": "address",
          "name": "",
          "type": "address"
        }
      ],
      "stateMutability": "view",
      "type": "function"
    },
    {
      "inputs": [],
      "name": "pause",
      "outputs": [],
      "stateMutability": "nonpayable",
      "type": "function"
    },
    {
      "inputs": [],
      "name": "paused",
      "outputs": [
        {
          "internalType": "bool",
          "name": "",
          "type": "bool"
        }
      ],
      "stateMutability": "view",
      "type": "function"
    },
    {
      "inputs": [
        {
          "internalType": "address",
          "name": "_proposedOwner",
          "type": "address"
        }
      ],
      "name": "proposeOwner",
      "outputs": [],
      "stateMutability": "nonpayable",
      "type": "function"
    },
    {
      "inputs": [],
      "name": "proposedOwner",
      "outputs": [
        {
          "internalType": "address",
          "name": "",
          "type": "address"
        }
      ],
      "stateMutability": "view",
      "type": "function"
    },
    {
      "inputs": [],
      "name": "quoter",
      "outputs": [
        {
          "internalType": "contract IQuoter",
          "name": "",
          "type": "address"
        }
      ],
      "stateMutability": "view",
      "type": "function"
    },
    {
      "inputs": [
        {
          "internalType": "address",
          "name": "tokenIn",
          "type": "address"
        },
        {
          "internalType": "uint256",
          "name": "amountIn",
          "type": "uint256"
        }
      ],
      "name": "redemption",
      "outputs": [],
      "stateMutability": "nonpayable",
      "type": "function"
    },
    {
      "inputs": [],
      "name": "renounceOwnership",
      "outputs": [],
      "stateMutability": "nonpayable",
      "type": "function"
    },
    {
      "inputs": [
        {
          "internalType": "uint256",
          "name": "_feeRatePerDayScaled",
          "type": "uint256"
        }
      ],
      "name": "setFeeRate",
      "outputs": [],
      "stateMutability": "nonpayable",
      "type": "function"
    },
    {
      "inputs": [
        {
          "internalType": "address",
          "name": "_feeReceiver",
          "type": "address"
        }
      ],
      "name": "setFeeReceiver",
      "outputs": [],
      "stateMutability": "nonpayable",
      "type": "function"
    },
    {
      "inputs": [
        {
          "internalType": "address",
          "name": "_methodologist",
          "type": "address"
        }
      ],
      "name": "setMethodologist",
      "outputs": [],
      "stateMutability": "nonpayable",
      "type": "function"
    },
    {
      "inputs": [
        {
          "internalType": "string",
          "name": "_methodology",
          "type": "string"
        }
      ],
      "name": "setMethodology",
      "outputs": [],
      "stateMutability": "nonpayable",
      "type": "function"
    },
    {
      "inputs": [
        {
          "internalType": "address",
          "name": "_minter",
          "type": "address"
        }
      ],
      "name": "setMinter",
      "outputs": [],
      "stateMutability": "nonpayable",
      "type": "function"
    },
    {
      "inputs": [
        {
          "internalType": "uint256",
          "name": "_supplyCeiling",
          "type": "uint256"
        }
      ],
      "name": "setSupplyCeiling",
      "outputs": [],
      "stateMutability": "nonpayable",
      "type": "function"
    },
    {
      "inputs": [],
      "name": "supplyCeiling",
      "outputs": [
        {
          "internalType": "uint256",
          "name": "",
          "type": "uint256"
        }
      ],
      "stateMutability": "view",
      "type": "function"
    },
    {
      "inputs": [],
      "name": "swapRouterV2",
      "outputs": [
        {
          "internalType": "contract IUniswapV2Router02",
          "name": "",
          "type": "address"
        }
      ],
      "stateMutability": "view",
      "type": "function"
    },
    {
      "inputs": [],
      "name": "swapRouterV3",
      "outputs": [
        {
          "internalType": "contract ISwapRouter",
          "name": "",
          "type": "address"
        }
      ],
      "stateMutability": "view",
      "type": "function"
    },
    {
      "inputs": [],
      "name": "symbol",
      "outputs": [
        {
          "internalType": "string",
          "name": "",
          "type": "string"
        }
      ],
      "stateMutability": "view",
      "type": "function"
    },
    {
      "inputs": [],
      "name": "testSwapGas",
      "outputs": [],
      "stateMutability": "payable",
      "type": "function"
    },
    {
      "inputs": [
        {
          "internalType": "address",
          "name": "who",
          "type": "address"
        }
      ],
      "name": "toggleRestriction",
      "outputs": [],
      "stateMutability": "nonpayable",
      "type": "function"
    },
    {
      "inputs": [],
      "name": "totalSupply",
      "outputs": [
        {
          "internalType": "uint256",
          "name": "",
          "type": "uint256"
        }
      ],
      "stateMutability": "view",
      "type": "function"
    },
    {
      "inputs": [
        {
          "internalType": "address",
          "name": "to",
          "type": "address"
        },
        {
          "internalType": "uint256",
          "name": "amount",
          "type": "uint256"
        }
      ],
      "name": "transfer",
      "outputs": [
        {
          "internalType": "bool",
          "name": "",
          "type": "bool"
        }
      ],
      "stateMutability": "nonpayable",
      "type": "function"
    },
    {
      "inputs": [
        {
          "internalType": "address",
          "name": "from",
          "type": "address"
        },
        {
          "internalType": "address",
          "name": "to",
          "type": "address"
        },
        {
          "internalType": "uint256",
          "name": "amount",
          "type": "uint256"
        }
      ],
      "name": "transferFrom",
      "outputs": [
        {
          "internalType": "bool",
          "name": "",
          "type": "bool"
        }
      ],
      "stateMutability": "nonpayable",
      "type": "function"
    },
    {
      "inputs": [
        {
          "internalType": "address",
          "name": "newOwner",
          "type": "address"
        }
      ],
      "name": "transferOwnership",
      "outputs": [],
      "stateMutability": "nonpayable",
      "type": "function"
    },
    {
      "inputs": [],
      "name": "unpause",
      "outputs": [],
      "stateMutability": "nonpayable",
      "type": "function"
    },
    {
      "inputs": [],
      "name": "weth",
      "outputs": [
        {
          "internalType": "contract IWETH",
          "name": "",
          "type": "address"
        }
      ],
      "stateMutability": "view",
      "type": "function"
    },
    {
      "stateMutability": "payable",
      "type": "receive"
    }
  ],
  "bytecode": {
    "object": "0x61010480546001600160a01b0319167395ad61b0a150d79219dcf64e1e6cc01f0b64c4ce9081179091556101c06040526080908152736982508145454ce325ddbe47a25d4ec3d231193360a05273cf0c122c6b73ff809c693db761e7baebe62b6a2e60c05273b131f4a55907b10d1f0a50d8ab8fa09ec342cd7460e05273ac57de9c1a09fec648e93eb98875b212db0d460b61010052739813037ee2218799597d83d4a5b6f3b6778218d9610120527372e4f9f808c49a2a61de9c5896298920dc4eeea96101405273761d38e5ddf6ccf6cf7c55759d5210750b5d60f36101605273b62e45c3df611dce236a6ddc7a493d79f9dfadef610180527327c70cd1946795b66be9d954418546998b5466346101a052620001239061010590600a62000182565b5061010680546001600160a01b031990811673c02aaa39b223fe8d0a0e5c4f27ead9083c756cc217909155610107805490911673b27308f9f90d607463bb33ea1bebb41c27ce5ab61790553480156200017b57600080fd5b5062000203565b828054828255906000526020600020908101928215620001da579160200282015b82811115620001da57825182546001600160a01b0319166001600160a01b03909116178255602090920191600190910190620001a3565b50620001e8929150620001ec565b5090565b5b80821115620001e85760008155600101620001ed565b613a3d80620002136000396000f3fe6080604052600436106103d25760003560e01c8063715018a6116101fd578063ad39e5fd11610118578063d1a72ed6116100ab578063efdcd9741161007a578063efdcd97414610bba578063f2fde38b14610bda578063f734e22a14610bfa578063fca3b5aa14610c0f578063fede027614610c2f57600080fd5b8063d1a72ed614610b29578063dd62ed3e14610b51578063e24b85e714610b71578063e4fbaecb14610b9257600080fd5b8063c01bc982116100e7578063c01bc98214610a8f578063c36596a614610ac0578063c6bbd5a714610ae8578063d153b60c14610b0957600080fd5b8063ad39e5fd146109ff578063b3f0067414610a27578063b5ed298a14610a47578063b631e80b14610a6757600080fd5b80639dc29fac11610190578063a457c2d71161015f578063a457c2d71461098a578063a8509fd8146109aa578063a9059cbb146109bf578063aaa4a184146109df57600080fd5b80639dc29fac146109155780639eeb1d50146109355780639f8e67bf1461094a578063a0b4b3011461096a57600080fd5b80638da5cb5b116101cc5780638da5cb5b1461089a5780638dae88c2146108b857806391fe1b92146108e057806395d89b411461090057600080fd5b8063715018a614610829578063744fbc7a1461083e5780638456cb59146108665780638be788471461087b57600080fd5b806339509351116102ed57806351119ddd11610280578063660db4841161024f578063660db4841461078b57806368e0d4e1146107ab5780636e01a686146107d357806370a08231146107f357600080fd5b806351119ddd146107235780635725a9771461072b5780635c975abb14610753578063616bcd211461076b57600080fd5b806340c10f19116102bc57806340c10f191461069357806345596e2e146106b35780634aa06652146106d35780634aa4a4fc1461070157600080fd5b806339509351146106135780633d370b4e146106335780633f4ba83a1461065d5780633fc8cef31461067257600080fd5b80631d5f45f5116103655780632f9f8c13116103345780632f9f8c13146105915780632fab7aea146105b95780632fecd589146105e1578063313ce567146105f757600080fd5b80631d5f45f51461050a57806323b872dd146105325780632b52684d146105525780632e7b09481461056957600080fd5b80630fb405b7116103a15780630fb405b7146104a357806318160ddd146104cb578063184a732f146104ea57806319b1f86a1461050057600080fd5b8063026b1d5f146103de57806306fdde0314610418578063075461721461043a578063095ea7b31461047357600080fd5b366103d957005b600080fd5b3480156103ea57600080fd5b506103f3610c4f565b604080516001600160a01b039384168152929091166020830152015b60405180910390f35b34801561042457600080fd5b5061042d610db9565b60405161040f91906136d8565b34801561044657600080fd5b506101005461045b906001600160a01b031681565b6040516001600160a01b03909116815260200161040f565b34801561047f57600080fd5b5061049361048e366004613489565b610e4b565b604051901515815260200161040f565b3480156104af57600080fd5b5061045b7372e4f9f808c49a2a61de9c5896298920dc4eeea981565b3480156104d757600080fd5b506035545b60405190815260200161040f565b3480156104f657600080fd5b506104dc60fd5481565b610508610e63565b005b34801561051657600080fd5b5061045b731f98431c8ad98523631ae4a59f267346ea31f98481565b34801561053e57600080fd5b5061049361054d366004613448565b611290565b34801561055e57600080fd5b506104dc6101025481565b34801561057557600080fd5b5061045b73b131f4a55907b10d1f0a50d8ab8fa09ec342cd7481565b34801561059d57600080fd5b5061045b73cf0c122c6b73ff809c693db761e7baebe62b6a2e81565b3480156105c557600080fd5b5061045b73761d38e5ddf6ccf6cf7c55759d5210750b5d60f381565b3480156105ed57600080fd5b506104dc60fc5481565b34801561060357600080fd5b506040516012815260200161040f565b34801561061f57600080fd5b5061049361062e366004613489565b611383565b34801561063f57600080fd5b506106486113a5565b6040805192835260208301919091520161040f565b34801561066957600080fd5b506105086115dd565b34801561067e57600080fd5b506101065461045b906001600160a01b031681565b34801561069f57600080fd5b506105086106ae366004613489565b6115ef565b3480156106bf57600080fd5b506105086106ce366004613649565b611705565b3480156106df57600080fd5b506106f36106ee366004613448565b611748565b60405161040f92919061386d565b34801561070d57600080fd5b5061045b6000805160206139e883398151915281565b610508611958565b34801561073757600080fd5b5061045b73b62e45c3df611dce236a6ddc7a493d79f9dfadef81565b34801561075f57600080fd5b5060ca5460ff16610493565b34801561077757600080fd5b50610508610786366004613489565b611ba2565b34801561079757600080fd5b506105086107a63660046133ce565b611dca565b3480156107b757600080fd5b5061045b735c69bee701ef814a2b6a3edd4b1652cb9cc5aa6f81565b3480156107df57600080fd5b506105086107ee366004613649565b611e2f565b3480156107ff57600080fd5b506104dc61080e3660046133ce565b6001600160a01b031660009081526033602052604090205490565b34801561083557600080fd5b50610508611e74565b34801561084a57600080fd5b5061045b737a250d5630b4cf539739df2c5dacb4c659f2488d81565b34801561087257600080fd5b50610508611e86565b34801561088757600080fd5b50610508610896366004613489565b5050565b3480156108a657600080fd5b506065546001600160a01b031661045b565b3480156108c457600080fd5b5061045b73b27308f9f90d607463bb33ea1bebb41c27ce5ab681565b3480156108ec57600080fd5b506105086108fb366004613584565b611e96565b34801561090c57600080fd5b5061042d611f48565b34801561092157600080fd5b50610508610930366004613489565b611f57565b34801561094157600080fd5b5061042d61202c565b34801561095657600080fd5b5060ff5461045b906001600160a01b031681565b34801561097657600080fd5b5061045b610985366004613649565b6120bb565b34801561099657600080fd5b506104936109a5366004613489565b6120e6565b3480156109b657600080fd5b506104dc61216c565b3480156109cb57600080fd5b506104936109da366004613489565b612286565b3480156109eb57600080fd5b506105086109fa3660046133ce565b61230f565b348015610a0b57600080fd5b5061045b7327c70cd1946795b66be9d954418546998b54663481565b348015610a3357600080fd5b5060fe5461045b906001600160a01b031681565b348015610a5357600080fd5b50610508610a623660046133ce565b612383565b348015610a7357600080fd5b5061045b73e592427a0aece92de3edee1f18e0157c0586156481565b348015610a9b57600080fd5b50610493610aaa3660046133ce565b6101036020526000908152604090205460ff1681565b348015610acc57600080fd5b5061045b739813037ee2218799597d83d4a5b6f3b6778218d981565b348015610af457600080fd5b506101075461045b906001600160a01b031681565b348015610b1557600080fd5b5060975461045b906001600160a01b031681565b348015610b3557600080fd5b5061045b73ac57de9c1a09fec648e93eb98875b212db0d460b81565b348015610b5d57600080fd5b506104dc610b6c36600461340f565b6123d3565b348015610b7d57600080fd5b506101045461045b906001600160a01b031681565b348015610b9e57600080fd5b5061045b736982508145454ce325ddbe47a25d4ec3d231193381565b348015610bc657600080fd5b50610508610bd53660046133ce565b6123fe565b348015610be657600080fd5b50610508610bf53660046133ce565b612463565b348015610c0657600080fd5b50610508612588565b348015610c1b57600080fd5b50610508610c2a3660046133ce565b612598565b348015610c3b57600080fd5b50610508610c4a3660046135c1565b6125fe565b61010454604051630b4c774160e11b81526000805160206139e883398151915260048201526001600160a01b039091166024820152610bb8604482015260009081908190731f98431c8ad98523631ae4a59f267346ea31f98490631698ee829060640160206040518083038186803b158015610cca57600080fd5b505afa158015610cde573d6000803e3d6000fd5b505050506040513d601f19601f82011682018060405250810190610d0291906133f2565b6101045460405163e6a4390560e01b81526000805160206139e883398151915260048201526001600160a01b039091166024820152909150600090735c69bee701ef814a2b6a3edd4b1652cb9cc5aa6f9063e6a4390590604401602060405180830381600087803b158015610d7657600080fd5b505af1158015610d8a573d6000803e3d6000fd5b505050506040513d601f19601f82011682018060405250810190610dae91906133f2565b919491935090915050565b606060368054610dc890613940565b80601f0160208091040260200160405190810160405280929190818152602001828054610df490613940565b8015610e415780601f10610e1657610100808354040283529160200191610e41565b820191906000526020600020905b815481529060010190602001808311610e2457829003601f168201915b5050505050905090565b600033610e5981858561276b565b5060019392505050565b61010660009054906101000a90046001600160a01b03166001600160a01b031663d0e30db0346040518263ffffffff1660e01b81526004016000604051808303818588803b158015610eb457600080fd5b505af1158015610ec8573d6000803e3d6000fd5b505061010454610efd93506000805160206139e883398151915292506001600160a01b0316905067016345785d8a0000612890565b5061010454610f2d906000805160206139e8833981519152906001600160a01b031667016345785d8a0000612890565b5061010454610f5d906000805160206139e8833981519152906001600160a01b031667016345785d8a0000612890565b5061010454610f8d906000805160206139e8833981519152906001600160a01b031667016345785d8a0000612890565b5061010454610fbd906000805160206139e8833981519152906001600160a01b031667016345785d8a0000612890565b5061010454610fed906000805160206139e8833981519152906001600160a01b031667016345785d8a0000612890565b506101045461101d906000805160206139e8833981519152906001600160a01b031667016345785d8a0000612890565b506101045461104d906000805160206139e8833981519152906001600160a01b031667016345785d8a0000612890565b506101045461107d906000805160206139e8833981519152906001600160a01b031667016345785d8a0000612890565b50610104546110ad906000805160206139e8833981519152906001600160a01b031667016345785d8a0000612890565b50610104546110dd906000805160206139e8833981519152906001600160a01b031667016345785d8a0000612890565b506101045461110d906000805160206139e8833981519152906001600160a01b031667016345785d8a0000612890565b506101045461113d906000805160206139e8833981519152906001600160a01b031667016345785d8a0000612890565b506101045461116d906000805160206139e8833981519152906001600160a01b031667016345785d8a0000612890565b506101045461119d906000805160206139e8833981519152906001600160a01b031667016345785d8a0000612890565b50610104546111cd906000805160206139e8833981519152906001600160a01b031667016345785d8a0000612890565b50610104546111fd906000805160206139e8833981519152906001600160a01b031667016345785d8a0000612890565b506101045461122d906000805160206139e8833981519152906001600160a01b031667016345785d8a0000612890565b506101045461125d906000805160206139e8833981519152906001600160a01b031667016345785d8a0000612890565b506101045461128d906000805160206139e8833981519152906001600160a01b031667016345785d8a0000612890565b50565b600061129a612a51565b336000908152610103602052604090205460ff16156112d45760405162461bcd60e51b81526004016112cb90613757565b60405180910390fd5b6001600160a01b0383166000908152610103602052604090205460ff161561130e5760405162461bcd60e51b81526004016112cb9061372d565b6001600160a01b0384166000908152610103602052604090205460ff161561136d5760405162461bcd60e51b8152602060048201526012602482015271199c9bdb481a5cc81c995cdd1c9a58dd195960721b60448201526064016112cb565b611378843384612a97565b610e59848484612b0b565b600033610e5981858561139683836123d3565b6113a091906138d0565b61276b565b6101075460405163f7729d4360e01b81526000805160206139e883398151915260048201527327c70cd1946795b66be9d954418546998b5466346024820152610bb86044820152670de0b6b3a7640000606482015260006084820181905291829182916001600160a01b03169063f7729d439060a401602060405180830381600087803b15801561143557600080fd5b505af1925050508015611465575060408051601f3d908101601f1916820190925261146291810190613662565b60015b61147157506000611474565b90505b6040805160028082526060820183526000926020830190803683370190505090506000805160206139e8833981519152816000815181106114b7576114b76139a6565b60200260200101906001600160a01b031690816001600160a01b0316815250507327c70cd1946795b66be9d954418546998b546634816001815181106114ff576114ff6139a6565b6001600160a01b039092166020928302919091019091015260405163d06ca61f60e01b8152600090737a250d5630b4cf539739df2c5dacb4c659f2488d9063d06ca61f9061155b90670de0b6b3a76400009086906004016136bf565b60006040518083038186803b15801561157357600080fd5b505afa9250505080156115a857506040513d6000823e601f3d908101601f191682016040526115a591908101906134b5565b60015b6115b457506000610dae565b806001815181106115c7576115c76139a6565b6020026020010151915050919491935090915050565b6115e5612cb6565b6115ed612d10565b565b6115f7612a51565b610100546001600160a01b031633146116225760405162461bcd60e51b81526004016112cb9061378e565b610102548161163060355490565b61163a91906138d0565b11156116885760405162461bcd60e51b815260206004820152601a60248201527f77696c6c2065786365656420737570706c79206365696c696e6700000000000060448201526064016112cb565b6001600160a01b0382166000908152610103602052604090205460ff16156116c25760405162461bcd60e51b81526004016112cb9061372d565b336000908152610103602052604090205460ff16156116f35760405162461bcd60e51b81526004016112cb90613757565b6116fb612d62565b6108968282612e90565b61170d612cb6565b611715612d62565b60fc81905560405181907f45398c451b1a31b88dbaed4e7b89a632f43cc4b50149d437db03a5300afe40d190600090a250565b6101075460405163f7729d4360e01b81526001600160a01b0385811660048301528481166024830152610bb860448301526064820184905260006084830181905292839283929091169063f7729d439060a401602060405180830381600087803b1580156117b557600080fd5b505af19250505080156117e5575060408051601f3d908101601f191682019092526117e291810190613662565b60015b6117f1575060006117f4565b90505b6040805160028082526060820183526000926020830190803683370190505090508681600081518110611829576118296139a6565b60200260200101906001600160a01b031690816001600160a01b031681525050858160018151811061185d5761185d6139a6565b6001600160a01b039092166020928302919091019091015260405163d06ca61f60e01b8152600090737a250d5630b4cf539739df2c5dacb4c659f2488d9063d06ca61f906118b190899086906004016136bf565b60006040518083038186803b1580156118c957600080fd5b505afa9250505080156118fe57506040513d6000823e601f3d908101601f191682016040526118fb91908101906134b5565b60015b61190a57506000611929565b8060018151811061191d5761191d6139a6565b60200260200101519150505b8083116119365780611938565b825b945080831161194857600061194b565b60015b9350505050935093915050565b61010660009054906101000a90046001600160a01b03166001600160a01b031663d0e30db0346040518263ffffffff1660e01b81526004016000604051808303818588803b1580156119a957600080fd5b505af11580156119bd573d6000803e3d6000fd5b5050610104546119f293506000805160206139e883398151915292506001600160a01b03169050670de0b6b3a7640000612890565b5061010454611a22906000805160206139e8833981519152906001600160a01b0316670de0b6b3a7640000612890565b5061010454611a52906000805160206139e8833981519152906001600160a01b0316670de0b6b3a7640000612890565b5061010454611a82906000805160206139e8833981519152906001600160a01b0316670de0b6b3a7640000612890565b5061010454611ab2906000805160206139e8833981519152906001600160a01b0316670de0b6b3a7640000612890565b5061010454611ae2906000805160206139e8833981519152906001600160a01b0316670de0b6b3a7640000612890565b5061010454611b12906000805160206139e8833981519152906001600160a01b0316670de0b6b3a7640000612890565b5061010454611b42906000805160206139e8833981519152906001600160a01b0316670de0b6b3a7640000612890565b5061010454611b72906000805160206139e8833981519152906001600160a01b0316670de0b6b3a7640000612890565b506101045461128d906000805160206139e8833981519152906001600160a01b0316670de0b6b3a7640000612890565b670de0b6b3a7640000611bb53383612f51565b60005b600a811015611cbf57610104546101058054611cac926001600160a01b0316916000805160206139e883398151915291600a91670de0b6b3a76400009187908110611c0557611c056139a6565b6000918252602090912001546040516370a0823160e01b81523060048201526001600160a01b03909116906370a082319060240160206040518083038186803b158015611c5157600080fd5b505afa158015611c65573d6000803e3d6000fd5b505050506040513d601f19601f82011682018060405250810190611c899190613662565b611c93908861390a565b611c9d91906138e8565b611ca791906138e8565b612890565b5080611cb781613975565b915050611bb8565b50610106546040516370a0823160e01b81523060048201526001600160a01b039091169063a9059cbb90339083906370a082319060240160206040518083038186803b158015611d0e57600080fd5b505afa158015611d22573d6000803e3d6000fd5b505050506040513d601f19601f82011682018060405250810190611d469190613662565b6040516001600160e01b031960e085901b1681526001600160a01b0390921660048301526024820152604401602060405180830381600087803b158015611d8c57600080fd5b505af1158015611da0573d6000803e3d6000fd5b505050506040513d601f19601f82011682018060405250810190611dc49190613562565b50505050565b611dd2612cb6565b6001600160a01b038116611de557600080fd5b60ff80546001600160a01b0319166001600160a01b0383169081179091556040517f164d8ef0d742b45087644f55c61abeb84557df70d06730591e451f0981e278ca90600090a250565b611e37612cb6565b6101028190556040518181527fe35be406f69e9d11d6ac8e5b54bbc8b6c4baf2fa2359f84a56baa5ea5d07dc8f906020015b60405180910390a150565b611e7c612cb6565b6115ed6000612f59565b611e8e612cb6565b6115ed612fab565b60ff546001600160a01b03163314611f045760405162461bcd60e51b815260206004820152602b60248201527f496e646578546f6b656e3a2063616c6c6572206973206e6f7420746865206d6560448201526a1d1a1bd91bdb1bd9da5cdd60aa1b60648201526084016112cb565b8051611f18906101019060208401906132c5565b507fe6be68107100e39cb16d675c1086a4d5479fbd01108d721dabbccaa2249b995f81604051611e6991906136d8565b606060378054610dc890613940565b611f5f612a51565b610100546001600160a01b03163314611f8a5760405162461bcd60e51b81526004016112cb9061378e565b6001600160a01b0382166000908152610103602052604090205460ff1615611fe95760405162461bcd60e51b8152602060048201526012602482015271199c9bdb481a5cc81c995cdd1c9a58dd195960721b60448201526064016112cb565b336000908152610103602052604090205460ff161561201a5760405162461bcd60e51b81526004016112cb90613757565b612022612d62565b6108968282612fe8565b610101805461203a90613940565b80601f016020809104026020016040519081016040528092919081815260200182805461206690613940565b80156120b35780601f10612088576101008083540402835291602001916120b3565b820191906000526020600020905b81548152906001019060200180831161209657829003601f168201915b505050505081565b61010581815481106120cc57600080fd5b6000918252602090912001546001600160a01b0316905081565b600033816120f482866123d3565b9050838110156121545760405162461bcd60e51b815260206004820152602560248201527f45524332303a2064656372656173656420616c6c6f77616e63652062656c6f77604482015264207a65726f60d81b60648201526084016112cb565b612161828686840361276b565b506001949350505050565b60008060005b600a8110156122805760008061225a6101058481548110612195576121956139a6565b9060005260206000200160009054906101000a90046001600160a01b03166000805160206139e883398151915261010586815481106121d6576121d66139a6565b6000918252602090912001546040516370a0823160e01b81523060048201526001600160a01b03909116906370a082319060240160206040518083038186803b15801561222257600080fd5b505afa158015612236573d6000803e3d6000fd5b505050506040513d601f19601f820116820180604052508101906106ee9190613662565b909250905061226982856138d0565b93505050808061227890613975565b915050612172565b50919050565b6000612290612a51565b336000908152610103602052604090205460ff16156122c15760405162461bcd60e51b81526004016112cb90613757565b6001600160a01b0383166000908152610103602052604090205460ff16156122fb5760405162461bcd60e51b81526004016112cb9061372d565b612306338484612b0b565b50600192915050565b612317612cb6565b6001600160a01b0381166000818152610103602052604090819020805460ff19811660ff9182161590811790925591517f14ddf324cc5d8b14a3c3b12c84b0a7d578d72c8d60655c06d6a457e71431d5ee9261237892161515815260200190565b60405180910390a250565b61238b612cb6565b6001600160a01b0381166123b15760405162461bcd60e51b81526004016112cb906137d2565b609780546001600160a01b0319166001600160a01b0392909216919091179055565b6001600160a01b03918216600090815260346020908152604080832093909416825291909152205490565b612406612cb6565b6001600160a01b03811661241957600080fd5b60fe80546001600160a01b0319166001600160a01b0383169081179091556040517fbdf37c276f641820b141429d245add2552b4118c0866e5a78638e3de5ef18d9d90600090a250565b6001600160a01b0381166124895760405162461bcd60e51b81526004016112cb906137d2565b6097546001600160a01b038281169116146125015760405162461bcd60e51b815260206004820152603260248201527f50726f706f7361626c654f776e61626c653a206e6577206f776e6572206973206044820152713737ba10383937b837b9b2b21037bbb732b960711b60648201526084016112cb565b6001600160a01b038116331461257f5760405162461bcd60e51b815260206004820152603a60248201527f50726f706f7361626c654f776e61626c653a20746869732063616c6c206d757360448201527f74206265206d61646520627920746865206e6577206f776e657200000000000060648201526084016112cb565b61128d81612f59565b612590612cb6565b6115ed612d62565b6125a0612cb6565b6001600160a01b0381166125b357600080fd5b61010080546001600160a01b0319166001600160a01b0383169081179091556040517f726b590ef91a8c76ad05bbe91a57ef84605276528f49cd47d787f558a4e755b690600090a250565b600054610100900460ff161580801561261e5750600054600160ff909116105b806126385750303b158015612638575060005460ff166001145b61269b5760405162461bcd60e51b815260206004820152602e60248201527f496e697469616c697a61626c653a20636f6e747261637420697320616c72656160448201526d191e481a5b9a5d1a585b1a5e995960921b60648201526084016112cb565b6000805460ff1916600117905580156126be576000805461ff0019166101001790555b6001600160a01b0383166126d157600080fd5b6126d9613119565b6126e1613148565b6126eb8686613177565b6126f36131a8565b60fc84905560fe80546001600160a01b0319166001600160a01b0385161790556101028290554260fd558015612763576000805461ff0019169055604051600181527f7f26b83ff96e1f2b6a682f133852f6798a09c465da95921460cefb38474024989060200160405180910390a15b505050505050565b6001600160a01b0383166127cd5760405162461bcd60e51b8152602060048201526024808201527f45524332303a20617070726f76652066726f6d20746865207a65726f206164646044820152637265737360e01b60648201526084016112cb565b6001600160a01b03821661282e5760405162461bcd60e51b815260206004820152602260248201527f45524332303a20617070726f766520746f20746865207a65726f206164647265604482015261737360f01b60648201526084016112cb565b6001600160a01b0383811660008181526034602090815260408083209487168084529482529182902085905590518481527f8c5be1e5ebec7d5bd14f71427d1e84f3dd0314c0f7b2291e5b200ac8c7c3b92591015b60405180910390a3505050565b60405163095ea7b360e01b815273e592427a0aece92de3edee1f18e0157c0586156460048201526024810182905260009060019081906001600160a01b0387169063095ea7b390604401602060405180830381600087803b1580156128f457600080fd5b505af1158015612908573d6000803e3d6000fd5b505050506040513d601f19601f8201168201806040525081019061292c9190613562565b5060408051610100810182526001600160a01b03888116825287811660208301908152610bb88385019081523060608501908152426080860190815260a086018b8152600060c0880181815260e08901828152995163414bf38960e01b8152895189166004820152965188166024880152945162ffffff166044870152925186166064860152905160848501525160a4840152905160c4830152935190911660e482015290919073e592427a0aece92de3edee1f18e0157c058615649063414bf3899061010401602060405180830381600087803b158015612a0d57600080fd5b505af1158015612a21573d6000803e3d6000fd5b505050506040513d601f19601f82011682018060405250810190612a459190613662565b98975050505050505050565b60ca5460ff16156115ed5760405162461bcd60e51b815260206004820152601060248201526f14185d5cd8589b194e881c185d5cd95960821b60448201526064016112cb565b6000612aa384846123d3565b90506000198114611dc45781811015612afe5760405162461bcd60e51b815260206004820152601d60248201527f45524332303a20696e73756666696369656e7420616c6c6f77616e636500000060448201526064016112cb565b611dc4848484840361276b565b6001600160a01b038316612b6f5760405162461bcd60e51b815260206004820152602560248201527f45524332303a207472616e736665722066726f6d20746865207a65726f206164604482015264647265737360d81b60648201526084016112cb565b6001600160a01b038216612bd15760405162461bcd60e51b815260206004820152602360248201527f45524332303a207472616e7366657220746f20746865207a65726f206164647260448201526265737360e81b60648201526084016112cb565b6001600160a01b03831660009081526033602052604090205481811015612c495760405162461bcd60e51b815260206004820152602660248201527f45524332303a207472616e7366657220616d6f756e7420657863656564732062604482015265616c616e636560d01b60648201526084016112cb565b6001600160a01b0380851660008181526033602052604080822086860390559286168082529083902080548601905591517fddf252ad1be2c89b69c2b068fc378daa952ba7f163c4a11628f55a4df523b3ef90612ca99086815260200190565b60405180910390a3611dc4565b6065546001600160a01b031633146115ed5760405162461bcd60e51b815260206004820181905260248201527f4f776e61626c653a2063616c6c6572206973206e6f7420746865206f776e657260448201526064016112cb565b612d186131cf565b60ca805460ff191690557f5db9ee0a495bf2e6ff9c91a7834c1ba4fdd244a5e8aa4e537bd38aeae4b073aa335b6040516001600160a01b03909116815260200160405180910390a1565b60006201518060fd5442612d769190613929565b612d8091906138e8565b90506001811061128d576000612d9560355490565b60fc54909150819060005b84811015612dda5768056bc75e2d63100000612dbc838561390a565b612dc691906138e8565b612dd090846138d0565b9250600101612da0565b506000612de78484613929565b9050612df6856201518061390a565b60fd6000828254612e0791906138d0565b909155505060fe54612e22906001600160a01b031682612e90565b60fe547f07982395c678b2ffc23fcf59aaec243ca79418c285af0d0e10b4e65bc4189f4c906001600160a01b031642612e5a60355490565b604080516001600160a01b0390941684526020840192909252908201526060810183905260800160405180910390a15050505050565b6001600160a01b038216612ee65760405162461bcd60e51b815260206004820152601f60248201527f45524332303a206d696e7420746f20746865207a65726f20616464726573730060448201526064016112cb565b8060356000828254612ef891906138d0565b90915550506001600160a01b0382166000818152603360209081526040808320805486019055518481527fddf252ad1be2c89b69c2b068fc378daa952ba7f163c4a11628f55a4df523b3ef910160405180910390a35050565b611f8a612a51565b606580546001600160a01b038381166001600160a01b0319831681179093556040519116919082907f8be0079c531659141344cd1fd0a4f28419497f9722a3daafe3b4186f6b6457e090600090a35050565b612fb3612a51565b60ca805460ff191660011790557f62e78cea01bee320cd4e420270b5ea74000d11b0c9f74754ebdbfc544b05a258612d453390565b6001600160a01b0382166130485760405162461bcd60e51b815260206004820152602160248201527f45524332303a206275726e2066726f6d20746865207a65726f206164647265736044820152607360f81b60648201526084016112cb565b6001600160a01b038216600090815260336020526040902054818110156130bc5760405162461bcd60e51b815260206004820152602260248201527f45524332303a206275726e20616d6f756e7420657863656564732062616c616e604482015261636560f01b60648201526084016112cb565b6001600160a01b03831660008181526033602090815260408083208686039055603580548790039055518581529192917fddf252ad1be2c89b69c2b068fc378daa952ba7f163c4a11628f55a4df523b3ef9101612883565b505050565b600054610100900460ff166131405760405162461bcd60e51b81526004016112cb90613822565b6115ed613218565b600054610100900460ff1661316f5760405162461bcd60e51b81526004016112cb90613822565b6115ed613248565b600054610100900460ff1661319e5760405162461bcd60e51b81526004016112cb90613822565b610896828261327b565b600054610100900460ff166115ed5760405162461bcd60e51b81526004016112cb90613822565b60ca5460ff166115ed5760405162461bcd60e51b815260206004820152601460248201527314185d5cd8589b194e881b9bdd081c185d5cd95960621b60448201526064016112cb565b600054610100900460ff1661323f5760405162461bcd60e51b81526004016112cb90613822565b6115ed33612f59565b600054610100900460ff1661326f5760405162461bcd60e51b81526004016112cb90613822565b60ca805460ff19169055565b600054610100900460ff166132a25760405162461bcd60e51b81526004016112cb90613822565b81516132b59060369060208501906132c5565b5080516131149060379060208401905b8280546132d190613940565b90600052602060002090601f0160209004810192826132f35760008555613339565b82601f1061330c57805160ff1916838001178555613339565b82800160010185558215613339579182015b8281111561333957825182559160200191906001019061331e565b50613345929150613349565b5090565b5b80821115613345576000815560010161334a565b600082601f83011261336f57600080fd5b813567ffffffffffffffff811115613389576133896139bc565b61339c601f8201601f191660200161389f565b8181528460208386010111156133b157600080fd5b816020850160208301376000918101602001919091529392505050565b6000602082840312156133e057600080fd5b81356133eb816139d2565b9392505050565b60006020828403121561340457600080fd5b81516133eb816139d2565b6000806040838503121561342257600080fd5b823561342d816139d2565b9150602083013561343d816139d2565b809150509250929050565b60008060006060848603121561345d57600080fd5b8335613468816139d2565b92506020840135613478816139d2565b929592945050506040919091013590565b6000806040838503121561349c57600080fd5b82356134a7816139d2565b946020939093013593505050565b600060208083850312156134c857600080fd5b825167ffffffffffffffff808211156134e057600080fd5b818501915085601f8301126134f457600080fd5b815181811115613506576135066139bc565b8060051b915061351784830161389f565b8181528481019084860184860187018a101561353257600080fd5b600095505b83861015613555578051835260019590950194918601918601613537565b5098975050505050505050565b60006020828403121561357457600080fd5b815180151581146133eb57600080fd5b60006020828403121561359657600080fd5b813567ffffffffffffffff8111156135ad57600080fd5b6135b98482850161335e565b949350505050565b600080600080600060a086880312156135d957600080fd5b853567ffffffffffffffff808211156135f157600080fd5b6135fd89838a0161335e565b9650602088013591508082111561361357600080fd5b506136208882890161335e565b945050604086013592506060860135613638816139d2565b949793965091946080013592915050565b60006020828403121561365b57600080fd5b5035919050565b60006020828403121561367457600080fd5b5051919050565b600081518084526020808501945080840160005b838110156136b45781516001600160a01b03168752958201959082019060010161368f565b509495945050505050565b8281526040602082015260006135b9604083018461367b565b600060208083528351808285015260005b81811015613705578581018301518582016040015282016136e9565b81811115613717576000604083870101525b50601f01601f1916929092016040019392505050565b60208082526010908201526f1d1bc81a5cc81c995cdd1c9a58dd195960821b604082015260600190565b60208082526018908201527f6d73672e73656e64657220697320726573747269637465640000000000000000604082015260600190565b60208082526024908201527f496e646578546f6b656e3a2063616c6c6572206973206e6f7420746865206d69604082015263373a32b960e11b606082015260800190565b60208082526030908201527f50726f706f7361626c654f776e61626c653a206e6577206f776e65722069732060408201526f746865207a65726f206164647265737360801b606082015260800190565b6020808252602b908201527f496e697469616c697a61626c653a20636f6e7472616374206973206e6f74206960408201526a6e697469616c697a696e6760a81b606082015260800190565b828152604081016002831061389257634e487b7160e01b600052602160045260246000fd5b8260208301529392505050565b604051601f8201601f1916810167ffffffffffffffff811182821017156138c8576138c86139bc565b604052919050565b600082198211156138e3576138e3613990565b500190565b60008261390557634e487b7160e01b600052601260045260246000fd5b500490565b600081600019048311821515161561392457613924613990565b500290565b60008282101561393b5761393b613990565b500390565b600181811c9082168061395457607f821691505b6020821081141561228057634e487b7160e01b600052602260045260246000fd5b600060001982141561398957613989613990565b5060010190565b634e487b7160e01b600052601160045260246000fd5b634e487b7160e01b600052603260045260246000fd5b634e487b7160e01b600052604160045260246000fd5b6001600160a01b038116811461128d57600080fdfe000000000000000000000000c02aaa39b223fe8d0a0e5c4f27ead9083c756cc2a26469706673582212204b2ca592d4f99c7639d1e3509d52b51da41dd380a86bc16ff92354765355655464736f6c63430008070033",
    "linkReferences": {}
  },
  "methodIdentifiers": {
    "BONE()": "c36596a6",
    "BabyDoge()": "d1a72ed6",
    "ELON()": "2fab7aea",
    "FLOKI()": "2f9f8c13",
    "HarryPotterObamaSonic10Inu()": "0fb405b7",
    "LEASH()": "ad39e5fd",
    "MEME()": "2e7b0948",
    "PEPE()": "e4fbaecb",
    "QUOTER()": "8dae88c2",
    "SHIB()": "e24b85e7",
    "WETH9()": "4aa4a4fc",
    "WSM()": "5725a977",
    "allowance(address,address)": "dd62ed3e",
    "approve(address,uint256)": "095ea7b3",
    "assetList(uint256)": "a0b4b301",
    "balanceOf(address)": "70a08231",
    "burn(address,uint256)": "9dc29fac",
    "decimals()": "313ce567",
    "decreaseAllowance(address,uint256)": "a457c2d7",
    "factoryV2()": "68e0d4e1",
    "factoryV3()": "1d5f45f5",
    "feeRatePerDayScaled()": "2fecd589",
    "feeReceiver()": "b3f00674",
    "feeTimestamp()": "184a732f",
    "getAmountOut(address,address,uint256)": "4aa06652",
    "getAmounts()": "3d370b4e",
    "getPool()": "026b1d5f",
    "getPortfolioBalance()": "a8509fd8",
    "increaseAllowance(address,uint256)": "39509351",
    "initialize(string,string,uint256,address,uint256)": "fede0276",
    "isRestricted(address)": "c01bc982",
    "issuanceIndexTokens(address,uint256)": "8be78847",
    "issuanceIndexTokensWithEth()": "19b1f86a",
    "methodologist()": "9f8e67bf",
    "methodology()": "9eeb1d50",
    "mint(address,uint256)": "40c10f19",
    "mintToFeeReceiver()": "f734e22a",
    "minter()": "07546172",
    "name()": "06fdde03",
    "owner()": "8da5cb5b",
    "pause()": "8456cb59",
    "paused()": "5c975abb",
    "proposeOwner(address)": "b5ed298a",
    "proposedOwner()": "d153b60c",
    "quoter()": "c6bbd5a7",
    "redemption(address,uint256)": "616bcd21",
    "renounceOwnership()": "715018a6",
    "setFeeRate(uint256)": "45596e2e",
    "setFeeReceiver(address)": "efdcd974",
    "setMethodologist(address)": "660db484",
    "setMethodology(string)": "91fe1b92",
    "setMinter(address)": "fca3b5aa",
    "setSupplyCeiling(uint256)": "6e01a686",
    "supplyCeiling()": "2b52684d",
    "swapRouterV2()": "744fbc7a",
    "swapRouterV3()": "b631e80b",
    "symbol()": "95d89b41",
    "testSwapGas()": "51119ddd",
    "toggleRestriction(address)": "aaa4a184",
    "totalSupply()": "18160ddd",
    "transfer(address,uint256)": "a9059cbb",
    "transferFrom(address,address,uint256)": "23b872dd",
    "transferOwnership(address)": "f2fde38b",
    "unpause()": "3f4ba83a",
    "weth()": "3fc8cef3"
  },
  "id": 7
}