{
  "abi": [
    {
      "inputs": [],
      "name": "DAI",
      "outputs": [
        {
          "internalType": "address",
          "name": "",
          "type": "address"
        }
      ],
      "stateMutability": "view",
      "type": "function"
    },
    {
      "inputs": [],
      "name": "USDC",
      "outputs": [
        {
          "internalType": "address",
          "name": "",
          "type": "address"
        }
      ],
      "stateMutability": "view",
      "type": "function"
    },
    {
      "inputs": [],
      "name": "WETH9",
      "outputs": [
        {
          "internalType": "address",
          "name": "",
          "type": "address"
        }
      ],
      "stateMutability": "view",
      "type": "function"
    },
    {
      "inputs": [
        {
          "internalType": "uint256",
          "name": "amountIn",
          "type": "uint256"
        },
        {
          "internalType": "address",
          "name": "_tokenOut",
          "type": "address"
        }
      ],
      "name": "swapExactInputMultihop",
      "outputs": [
        {
          "internalType": "uint256",
          "name": "amountOut",
          "type": "uint256"
        }
      ],
      "stateMutability": "nonpayable",
      "type": "function"
    },
    {
      "inputs": [
        {
          "internalType": "uint256",
          "name": "amountIn",
          "type": "uint256"
        },
        {
          "internalType": "address",
          "name": "_tokenOut",
          "type": "address"
        }
      ],
      "name": "swapExactInputSingle",
      "outputs": [
        {
          "internalType": "uint256",
          "name": "amountOut",
          "type": "uint256"
        }
      ],
      "stateMutability": "nonpayable",
      "type": "function"
    },
    {
      "inputs": [
        {
          "internalType": "uint256",
          "name": "amountOut",
          "type": "uint256"
        },
        {
          "internalType": "uint256",
          "name": "amountInMaximum",
          "type": "uint256"
        },
        {
          "internalType": "uint256",
          "name": "_tokenOut",
          "type": "uint256"
        }
      ],
      "name": "swapExactOutputMultihop",
      "outputs": [
        {
          "internalType": "uint256",
          "name": "amountIn",
          "type": "uint256"
        }
      ],
      "stateMutability": "nonpayable",
      "type": "function"
    },
    {
      "inputs": [
        {
          "internalType": "uint256",
          "name": "amountOut",
          "type": "uint256"
        },
        {
          "internalType": "uint256",
          "name": "amountInMaximum",
          "type": "uint256"
        },
        {
          "internalType": "address",
          "name": "_tokenOut",
          "type": "address"
        }
      ],
      "name": "swapExactOutputSingle",
      "outputs": [
        {
          "internalType": "uint256",
          "name": "amountIn",
          "type": "uint256"
        }
      ],
      "stateMutability": "nonpayable",
      "type": "function"
    },
    {
      "inputs": [],
      "name": "swapRouter",
      "outputs": [
        {
          "internalType": "contract ISwapRouter",
          "name": "",
          "type": "address"
        }
      ],
      "stateMutability": "view",
      "type": "function"
    }
  ],
  "bytecode": {
    "object": "0x608060405234801561001057600080fd5b50610c4f806100206000396000f3fe608060405234801561001057600080fd5b50600436106100885760003560e01c806389a302711161005b57806389a30271146101065780638c5c5ca214610121578063c31c9c0714610134578063e0bab4c41461014f57600080fd5b80633c8c4e931461008d57806348946cee146100b35780634aa4a4fc146100c6578063793ea8d1146100f3575b600080fd5b6100a061009b3660046109e1565b61016a565b6040519081526020015b60405180910390f35b6100a06100c1366004610a0d565b6102d0565b6100db600080516020610bfa83398151915281565b6040516001600160a01b0390911681526020016100aa565b6100a06101013660046109e1565b610447565b6100db73a0b86991c6218b36c1d19d4a2e9eb0ce3606eb4881565b6100a061012f366004610a42565b610519565b6100db73e592427a0aece92de3edee1f18e0157c0586156481565b6100db736b175474e89094c44da98b954eedeac495271d0f81565b6000610186600080516020610bfa8339815191523330866106bd565b6101b3600080516020610bfa83398151915273e592427a0aece92de3edee1f18e0157c05861564856107cc565b6040805160a081018252736015551cd911ff4685072e2793f56c841e3ab66160611b60c082015261017760eb1b60d48201527314170d3238c43166d83a33a945d3d619c6c0dd6960631b60d7820152601960ea1b60eb820152606084811b6bffffffffffffffffffffffff191660ee830152825180830360e20181526101028301845282523360208301524282840152810185905260006080820152905163c04b8d5960e01b815273e592427a0aece92de3edee1f18e0157c058615649063c04b8d5990610285908490600401610af7565b6020604051808303816000875af11580156102a4573d6000803e3d6000fd5b505050506040513d601f19601f820116820180604052508101906102c89190610b11565b949350505050565b60006102ec600080516020610bfa8339815191523330866106bd565b610319600080516020610bfa83398151915273e592427a0aece92de3edee1f18e0157c05861564856107cc565b6040805161010081018252600080516020610bfa83398151915281526001600160a01b0384166020820152610bb88183015233606082015242608082015260a0810186905260c08101859052600060e08201529051631b67c43360e31b815273e592427a0aece92de3edee1f18e0157c058615649063db3e2198906103a2908490600401610b2a565b6020604051808303816000875af11580156103c1573d6000803e3d6000fd5b505050506040513d601f19601f820116820180604052508101906103e59190610b11565b91508382101561043f5761041d600080516020610bfa83398151915273e592427a0aece92de3edee1f18e0157c0586156460006107cc565b61043f600080516020610bfa8339815191523361043a8588610b9a565b6108cc565b509392505050565b6000610463600080516020610bfa8339815191523330866106bd565b610490600080516020610bfa83398151915273e592427a0aece92de3edee1f18e0157c05861564856107cc565b6040805161010081018252600080516020610bfa83398151915281526001600160a01b0384166020820152610bb88183015233606082015242608082015260a08101859052600060c0820181905260e0820152905163414bf38960e01b815273e592427a0aece92de3edee1f18e0157c058615649063414bf38990610285908490600401610b2a565b6000610535600080516020610bfa8339815191523330866106bd565b610562600080516020610bfa83398151915273e592427a0aece92de3edee1f18e0157c05861564856107cc565b6040805160a08101825260c08101849052601960ea1b60e08201527314170d3238c43166d83a33a945d3d619c6c0dd6960631b60e382015261017760eb1b60f7820152736015551cd911ff4685072e2793f56c841e3ab66160611b60fa820152815160ee81830301815261010e820183528152336020820152428183015260608101869052608081018590529051631e51809360e31b815273e592427a0aece92de3edee1f18e0157c058615649063f28c049890610624908490600401610af7565b6020604051808303816000875af1158015610643573d6000803e3d6000fd5b505050506040513d601f19601f820116820180604052508101906106679190610b11565b91508382101561043f5761069f600080516020610bfa83398151915273e592427a0aece92de3edee1f18e0157c0586156460006107cc565b61043f600080516020610bfa83398151915230336106bd8689610b9a565b604080516001600160a01b0385811660248301528481166044830152606480830185905283518084039091018152608490920183526020820180516001600160e01b03166323b872dd60e01b17905291516000928392908816916107219190610bbb565b6000604051808303816000865af19150503d806000811461075e576040519150601f19603f3d011682016040523d82523d6000602084013e610763565b606091505b509150915081801561078d57508051158061078d57508080602001905181019061078d9190610bd7565b6107c45760405162461bcd60e51b815260206004820152600360248201526229aa2360e91b60448201526064015b60405180910390fd5b505050505050565b604080516001600160a01b038481166024830152604480830185905283518084039091018152606490920183526020820180516001600160e01b031663095ea7b360e01b17905291516000928392908716916108289190610bbb565b6000604051808303816000865af19150503d8060008114610865576040519150601f19603f3d011682016040523d82523d6000602084013e61086a565b606091505b50915091508180156108945750805115806108945750808060200190518101906108949190610bd7565b6108c55760405162461bcd60e51b8152602060048201526002602482015261534160f01b60448201526064016107bb565b5050505050565b604080516001600160a01b038481166024830152604480830185905283518084039091018152606490920183526020820180516001600160e01b031663a9059cbb60e01b17905291516000928392908716916109289190610bbb565b6000604051808303816000865af19150503d8060008114610965576040519150601f19603f3d011682016040523d82523d6000602084013e61096a565b606091505b50915091508180156109945750805115806109945750808060200190518101906109949190610bd7565b6108c55760405162461bcd60e51b815260206004820152600260248201526114d560f21b60448201526064016107bb565b80356001600160a01b03811681146109dc57600080fd5b919050565b600080604083850312156109f457600080fd5b82359150610a04602084016109c5565b90509250929050565b600080600060608486031215610a2257600080fd5b8335925060208401359150610a39604085016109c5565b90509250925092565b600080600060608486031215610a5757600080fd5b505081359360208301359350604090920135919050565b60005b83811015610a89578181015183820152602001610a71565b50506000910152565b6000815160a0845280518060a0860152610ab38160c0870160208501610a6e565b6020848101516001600160a01b0316908601526040808501519086015260608085015190860152608093840151938501939093525050601f01601f19160160c00190565b602081526000610b0a6020830184610a92565b9392505050565b600060208284031215610b2357600080fd5b5051919050565b6101008101610b94828480516001600160a01b03908116835260208083015182169084015260408083015162ffffff16908401526060808301518216908401526080808301519084015260a0828101519084015260c0808301519084015260e09182015116910152565b92915050565b81810381811115610b9457634e487b7160e01b600052601160045260246000fd5b60008251610bcd818460208701610a6e565b9190910192915050565b600060208284031215610be957600080fd5b81518015158114610b0a57600080fdfe000000000000000000000000c02aaa39b223fe8d0a0e5c4f27ead9083c756cc2a26469706673582212200724ab7cb0ebcf6f1da195145229525a675be5b082dc3e132436819702e7882464736f6c63430008110033",
    "linkReferences": {}
  },
  "methodIdentifiers": {
    "DAI()": "e0bab4c4",
    "USDC()": "89a30271",
    "WETH9()": "4aa4a4fc",
    "swapExactInputMultihop(uint256,address)": "3c8c4e93",
    "swapExactInputSingle(uint256,address)": "793ea8d1",
    "swapExactOutputMultihop(uint256,uint256,uint256)": "8c5c5ca2",
    "swapExactOutputSingle(uint256,uint256,address)": "48946cee",
    "swapRouter()": "c31c9c07"
  },
  "id": 1
}