{"abi":[{"type":"function","name":"DAI","inputs":[],"outputs":[{"name":"","type":"address","internalType":"address"}],"stateMutability":"view"},{"type":"function","name":"USDC","inputs":[],"outputs":[{"name":"","type":"address","internalType":"address"}],"stateMutability":"view"},{"type":"function","name":"WETH9","inputs":[],"outputs":[{"name":"","type":"address","internalType":"address"}],"stateMutability":"view"},{"type":"function","name":"swapExactInputMultihop","inputs":[{"name":"amountIn","type":"uint256","internalType":"uint256"},{"name":"_tokenOut","type":"address","internalType":"address"}],"outputs":[{"name":"amountOut","type":"uint256","internalType":"uint256"}],"stateMutability":"nonpayable"},{"type":"function","name":"swapExactInputSingle","inputs":[{"name":"amountIn","type":"uint256","internalType":"uint256"},{"name":"_tokenOut","type":"address","internalType":"address"}],"outputs":[{"name":"amountOut","type":"uint256","internalType":"uint256"}],"stateMutability":"nonpayable"},{"type":"function","name":"swapExactOutputMultihop","inputs":[{"name":"amountOut","type":"uint256","internalType":"uint256"},{"name":"amountInMaximum","type":"uint256","internalType":"uint256"},{"name":"_tokenOut","type":"uint256","internalType":"uint256"}],"outputs":[{"name":"amountIn","type":"uint256","internalType":"uint256"}],"stateMutability":"nonpayable"},{"type":"function","name":"swapExactOutputSingle","inputs":[{"name":"amountOut","type":"uint256","internalType":"uint256"},{"name":"amountInMaximum","type":"uint256","internalType":"uint256"},{"name":"_tokenOut","type":"address","internalType":"address"}],"outputs":[{"name":"amountIn","type":"uint256","internalType":"uint256"}],"stateMutability":"nonpayable"},{"type":"function","name":"swapRouter","inputs":[],"outputs":[{"name":"","type":"address","internalType":"contract ISwapRouter"}],"stateMutability":"view"}],"bytecode":{"object":"0x6080604052348015600f57600080fd5b506117b58061001f6000396000f3fe608060405234801561001057600080fd5b50600436106100885760003560e01c806389a302711161005b57806389a302711461013b5780638c5c5ca214610159578063c31c9c0714610189578063e0bab4c4146101a757610088565b80633c8c4e931461008d57806348946cee146100bd5780634aa4a4fc146100ed578063793ea8d11461010b575b600080fd5b6100a760048036038101906100a29190610dd5565b6101c5565b6040516100b49190610e24565b60405180910390f35b6100d760048036038101906100d29190610e3f565b610347565b6040516100e49190610e24565b60405180910390f35b6100f561054f565b6040516101029190610ea1565b60405180910390f35b61012560048036038101906101209190610dd5565b610567565b6040516101329190610e24565b60405180910390f35b610143610708565b6040516101509190610ea1565b60405180910390f35b610173600480360381019061016e9190610ebc565b610720565b6040516101809190610e24565b60405180910390f35b61019161090a565b60405161019e9190610f6e565b60405180910390f35b6101af610922565b6040516101bc9190610ea1565b60405180910390f35b60006101e773c02aaa39b223fe8d0a0e5c4f27ead9083c756cc233308661093a565b61021a73c02aaa39b223fe8d0a0e5c4f27ead9083c756cc273e592427a0aece92de3edee1f18e0157c0586156485610a92565b60006040518060a0016040528073c02aaa39b223fe8d0a0e5c4f27ead9083c756cc2610bb873a0b86991c6218b36c1d19d4a2e9eb0ce3606eb4860648860405160200161026b959493929190611016565b60405160208183030381529060405281526020013373ffffffffffffffffffffffffffffffffffffffff1681526020014281526020018581526020016000815250905073e592427a0aece92de3edee1f18e0157c0586156473ffffffffffffffffffffffffffffffffffffffff1663c04b8d59826040518263ffffffff1660e01b81526004016102fb9190611199565b6020604051808303816000875af115801561031a573d6000803e3d6000fd5b505050506040513d601f19601f8201168201806040525081019061033e91906111d0565b91505092915050565b600061036973c02aaa39b223fe8d0a0e5c4f27ead9083c756cc233308661093a565b61039c73c02aaa39b223fe8d0a0e5c4f27ead9083c756cc273e592427a0aece92de3edee1f18e0157c0586156485610a92565b600060405180610100016040528073c02aaa39b223fe8d0a0e5c4f27ead9083c756cc273ffffffffffffffffffffffffffffffffffffffff1681526020018473ffffffffffffffffffffffffffffffffffffffff168152602001610bb862ffffff1681526020013373ffffffffffffffffffffffffffffffffffffffff168152602001428152602001868152602001858152602001600073ffffffffffffffffffffffffffffffffffffffff16815250905073e592427a0aece92de3edee1f18e0157c0586156473ffffffffffffffffffffffffffffffffffffffff1663db3e2198826040518263ffffffff1660e01b815260040161049b91906112bd565b6020604051808303816000875af11580156104ba573d6000803e3d6000fd5b505050506040513d601f19601f820116820180604052508101906104de91906111d0565b9150838210156105475761051c73c02aaa39b223fe8d0a0e5c4f27ead9083c756cc273e592427a0aece92de3edee1f18e0157c058615646000610a92565b61054673c02aaa39b223fe8d0a0e5c4f27ead9083c756cc23384876105419190611308565b610be7565b5b509392505050565b73c02aaa39b223fe8d0a0e5c4f27ead9083c756cc281565b600061058973c02aaa39b223fe8d0a0e5c4f27ead9083c756cc233308661093a565b6105bc73c02aaa39b223fe8d0a0e5c4f27ead9083c756cc273e592427a0aece92de3edee1f18e0157c0586156485610a92565b600060405180610100016040528073c02aaa39b223fe8d0a0e5c4f27ead9083c756cc273ffffffffffffffffffffffffffffffffffffffff1681526020018473ffffffffffffffffffffffffffffffffffffffff168152602001610bb862ffffff1681526020013373ffffffffffffffffffffffffffffffffffffffff16815260200142815260200185815260200160008152602001600073ffffffffffffffffffffffffffffffffffffffff16815250905073e592427a0aece92de3edee1f18e0157c0586156473ffffffffffffffffffffffffffffffffffffffff1663414bf389826040518263ffffffff1660e01b81526004016106bc91906113de565b6020604051808303816000875af11580156106db573d6000803e3d6000fd5b505050506040513d601f19601f820116820180604052508101906106ff91906111d0565b91505092915050565b73a0b86991c6218b36c1d19d4a2e9eb0ce3606eb4881565b600061074273c02aaa39b223fe8d0a0e5c4f27ead9083c756cc233308661093a565b61077573c02aaa39b223fe8d0a0e5c4f27ead9083c756cc273e592427a0aece92de3edee1f18e0157c0586156485610a92565b60006040518060a0016040528084606473a0b86991c6218b36c1d19d4a2e9eb0ce3606eb48610bb873c02aaa39b223fe8d0a0e5c4f27ead9083c756cc26040516020016107c695949392919061141b565b60405160208183030381529060405281526020013373ffffffffffffffffffffffffffffffffffffffff16815260200142815260200186815260200185815250905073e592427a0aece92de3edee1f18e0157c0586156473ffffffffffffffffffffffffffffffffffffffff1663f28c0498826040518263ffffffff1660e01b815260040161085591906114f0565b6020604051808303816000875af1158015610874573d6000803e3d6000fd5b505050506040513d601f19601f8201168201806040525081019061089891906111d0565b915083821015610902576108d673c02aaa39b223fe8d0a0e5c4f27ead9083c756cc273e592427a0aece92de3edee1f18e0157c058615646000610a92565b61090173c02aaa39b223fe8d0a0e5c4f27ead9083c756cc2303385886108fc9190611308565b61093a565b5b509392505050565b73e592427a0aece92de3edee1f18e0157c0586156481565b736b175474e89094c44da98b954eedeac495271d0f81565b6000808573ffffffffffffffffffffffffffffffffffffffff166323b872dd60e01b86868660405160240161097193929190611512565b604051602081830303815290604052907bffffffffffffffffffffffffffffffffffffffffffffffffffffffff19166020820180517bffffffffffffffffffffffffffffffffffffffffffffffffffffffff83818316178352505050506040516109db9190611585565b6000604051808303816000865af19150503d8060008114610a18576040519150601f19603f3d011682016040523d82523d6000602084013e610a1d565b606091505b5091509150818015610a4b5750600081511480610a4a575080806020019051810190610a4991906115d4565b5b5b610a8a576040517f08c379a0000000000000000000000000000000000000000000000000000000008152600401610a819061165e565b60405180910390fd5b505050505050565b6000808473ffffffffffffffffffffffffffffffffffffffff1663095ea7b360e01b8585604051602401610ac792919061167e565b604051602081830303815290604052907bffffffffffffffffffffffffffffffffffffffffffffffffffffffff19166020820180517bffffffffffffffffffffffffffffffffffffffffffffffffffffffff8381831617835250505050604051610b319190611585565b6000604051808303816000865af19150503d8060008114610b6e576040519150601f19603f3d011682016040523d82523d6000602084013e610b73565b606091505b5091509150818015610ba15750600081511480610ba0575080806020019051810190610b9f91906115d4565b5b5b610be0576040517f08c379a0000000000000000000000000000000000000000000000000000000008152600401610bd7906116f3565b60405180910390fd5b5050505050565b6000808473ffffffffffffffffffffffffffffffffffffffff1663a9059cbb60e01b8585604051602401610c1c92919061167e565b604051602081830303815290604052907bffffffffffffffffffffffffffffffffffffffffffffffffffffffff19166020820180517bffffffffffffffffffffffffffffffffffffffffffffffffffffffff8381831617835250505050604051610c869190611585565b6000604051808303816000865af19150503d8060008114610cc3576040519150601f19603f3d011682016040523d82523d6000602084013e610cc8565b606091505b5091509150818015610cf65750600081511480610cf5575080806020019051810190610cf491906115d4565b5b5b610d35576040517f08c379a0000000000000000000000000000000000000000000000000000000008152600401610d2c9061175f565b60405180910390fd5b5050505050565b600080fd5b6000819050919050565b610d5481610d41565b8114610d5f57600080fd5b50565b600081359050610d7181610d4b565b92915050565b600073ffffffffffffffffffffffffffffffffffffffff82169050919050565b6000610da282610d77565b9050919050565b610db281610d97565b8114610dbd57600080fd5b50565b600081359050610dcf81610da9565b92915050565b60008060408385031215610dec57610deb610d3c565b5b6000610dfa85828601610d62565b9250506020610e0b85828601610dc0565b9150509250929050565b610e1e81610d41565b82525050565b6000602082019050610e396000830184610e15565b92915050565b600080600060608486031215610e5857610e57610d3c565b5b6000610e6686828701610d62565b9350506020610e7786828701610d62565b9250506040610e8886828701610dc0565b9150509250925092565b610e9b81610d97565b82525050565b6000602082019050610eb66000830184610e92565b92915050565b600080600060608486031215610ed557610ed4610d3c565b5b6000610ee386828701610d62565b9350506020610ef486828701610d62565b9250506040610f0586828701610d62565b9150509250925092565b6000819050919050565b6000610f34610f2f610f2a84610d77565b610f0f565b610d77565b9050919050565b6000610f4682610f19565b9050919050565b6000610f5882610f3b565b9050919050565b610f6881610f4d565b82525050565b6000602082019050610f836000830184610f5f565b92915050565b60008160601b9050919050565b6000610fa182610f89565b9050919050565b6000610fb382610f96565b9050919050565b610fcb610fc682610d97565b610fa8565b82525050565b600062ffffff82169050919050565b60008160e81b9050919050565b6000610ff882610fe0565b9050919050565b61101061100b82610fd1565b610fed565b82525050565b60006110228288610fba565b6014820191506110328287610fff565b6003820191506110428286610fba565b6014820191506110528285610fff565b6003820191506110628284610fba565b6014820191508190509695505050505050565b600081519050919050565b600082825260208201905092915050565b60005b838110156110af578082015181840152602081019050611094565b60008484015250505050565b6000601f19601f8301169050919050565b60006110d782611075565b6110e18185611080565b93506110f1818560208601611091565b6110fa816110bb565b840191505092915050565b61110e81610d97565b82525050565b61111d81610d41565b82525050565b600060a083016000830151848203600086015261114082826110cc565b91505060208301516111556020860182611105565b5060408301516111686040860182611114565b50606083015161117b6060860182611114565b50608083015161118e6080860182611114565b508091505092915050565b600060208201905081810360008301526111b38184611123565b905092915050565b6000815190506111ca81610d4b565b92915050565b6000602082840312156111e6576111e5610d3c565b5b60006111f4848285016111bb565b91505092915050565b61120681610fd1565b82525050565b61121581610d77565b82525050565b610100820160008201516112326000850182611105565b5060208201516112456020850182611105565b50604082015161125860408501826111fd565b50606082015161126b6060850182611105565b50608082015161127e6080850182611114565b5060a082015161129160a0850182611114565b5060c08201516112a460c0850182611114565b5060e08201516112b760e085018261120c565b50505050565b6000610100820190506112d3600083018461121b565b92915050565b7f4e487b7100000000000000000000000000000000000000000000000000000000600052601160045260246000fd5b600061131382610d41565b915061131e83610d41565b9250828203905081811115611336576113356112d9565b5b92915050565b610100820160008201516113536000850182611105565b5060208201516113666020850182611105565b50604082015161137960408501826111fd565b50606082015161138c6060850182611105565b50608082015161139f6080850182611114565b5060a08201516113b260a0850182611114565b5060c08201516113c560c0850182611114565b5060e08201516113d860e085018261120c565b50505050565b6000610100820190506113f4600083018461133c565b92915050565b6000819050919050565b61141561141082610d41565b6113fa565b82525050565b60006114278288611404565b6020820191506114378287610fff565b6003820191506114478286610fba565b6014820191506114578285610fff565b6003820191506114678284610fba565b6014820191508190509695505050505050565b600060a083016000830151848203600086015261149782826110cc565b91505060208301516114ac6020860182611105565b5060408301516114bf6040860182611114565b5060608301516114d26060860182611114565b5060808301516114e56080860182611114565b508091505092915050565b6000602082019050818103600083015261150a818461147a565b905092915050565b60006060820190506115276000830186610e92565b6115346020830185610e92565b6115416040830184610e15565b949350505050565b600081905092915050565b600061155f82611075565b6115698185611549565b9350611579818560208601611091565b80840191505092915050565b60006115918284611554565b915081905092915050565b60008115159050919050565b6115b18161159c565b81146115bc57600080fd5b50565b6000815190506115ce816115a8565b92915050565b6000602082840312156115ea576115e9610d3c565b5b60006115f8848285016115bf565b91505092915050565b600082825260208201905092915050565b7f5354460000000000000000000000000000000000000000000000000000000000600082015250565b6000611648600383611601565b915061165382611612565b602082019050919050565b600060208201905081810360008301526116778161163b565b9050919050565b60006040820190506116936000830185610e92565b6116a06020830184610e15565b9392505050565b7f5341000000000000000000000000000000000000000000000000000000000000600082015250565b60006116dd600283611601565b91506116e8826116a7565b602082019050919050565b6000602082019050818103600083015261170c816116d0565b9050919050565b7f5354000000000000000000000000000000000000000000000000000000000000600082015250565b6000611749600283611601565b915061175482611713565b602082019050919050565b600060208201905081810360008301526117788161173c565b905091905056fea2646970667358221220e967eda538a88ea5f6deaadd53cbee3fba951b1f12af159e9d7dfd1c2e8f9d1064736f6c634300081a0033","linkReferences":{}},"methodIdentifiers":{"DAI()":"e0bab4c4","USDC()":"89a30271","WETH9()":"4aa4a4fc","swapExactInputMultihop(uint256,address)":"3c8c4e93","swapExactInputSingle(uint256,address)":"793ea8d1","swapExactOutputMultihop(uint256,uint256,uint256)":"8c5c5ca2","swapExactOutputSingle(uint256,uint256,address)":"48946cee","swapRouter()":"c31c9c07"},"id":1}