{
  "abi": [
    {
      "inputs": [
        {
          "internalType": "address",
          "name": "_link",
          "type": "address"
        }
      ],
      "stateMutability": "nonpayable",
      "type": "constructor"
    },
    {
      "anonymous": false,
      "inputs": [
        {
          "indexed": true,
          "internalType": "bytes32",
          "name": "requestId",
          "type": "bytes32"
        }
      ],
      "name": "CancelOracleRequest",
      "type": "event"
    },
    {
      "anonymous": false,
      "inputs": [
        {
          "indexed": true,
          "internalType": "bytes32",
          "name": "specId",
          "type": "bytes32"
        },
        {
          "indexed": false,
          "internalType": "address",
          "name": "requester",
          "type": "address"
        },
        {
          "indexed": false,
          "internalType": "bytes32",
          "name": "requestId",
          "type": "bytes32"
        },
        {
          "indexed": false,
          "internalType": "uint256",
          "name": "payment",
          "type": "uint256"
        },
        {
          "indexed": false,
          "internalType": "address",
          "name": "callbackAddr",
          "type": "address"
        },
        {
          "indexed": false,
          "internalType": "bytes4",
          "name": "callbackFunctionId",
          "type": "bytes4"
        },
        {
          "indexed": false,
          "internalType": "uint256",
          "name": "cancelExpiration",
          "type": "uint256"
        },
        {
          "indexed": false,
          "internalType": "uint256",
          "name": "dataVersion",
          "type": "uint256"
        },
        {
          "indexed": false,
          "internalType": "bytes",
          "name": "data",
          "type": "bytes"
        }
      ],
      "name": "OracleRequest",
      "type": "event"
    },
    {
      "inputs": [],
      "name": "EXPIRY_TIME",
      "outputs": [
        {
          "internalType": "uint256",
          "name": "",
          "type": "uint256"
        }
      ],
      "stateMutability": "view",
      "type": "function"
    },
    {
      "inputs": [
        {
          "internalType": "bytes32",
          "name": "_requestId",
          "type": "bytes32"
        },
        {
          "internalType": "uint256",
          "name": "_payment",
          "type": "uint256"
        },
        {
          "internalType": "bytes4",
          "name": "",
          "type": "bytes4"
        },
        {
          "internalType": "uint256",
          "name": "_expiration",
          "type": "uint256"
        }
      ],
      "name": "cancelOracleRequest",
      "outputs": [],
      "stateMutability": "nonpayable",
      "type": "function"
    },
    {
      "inputs": [
        {
          "internalType": "int256[]",
          "name": "intArray",
          "type": "int256[]"
        }
      ],
      "name": "convertIntToBytes32Array",
      "outputs": [
        {
          "internalType": "bytes32[]",
          "name": "",
          "type": "bytes32[]"
        }
      ],
      "stateMutability": "pure",
      "type": "function"
    },
    {
      "inputs": [
        {
          "internalType": "string[]",
          "name": "stringArray",
          "type": "string[]"
        }
      ],
      "name": "convertStringToBytes32Array",
      "outputs": [
        {
          "internalType": "bytes32[]",
          "name": "",
          "type": "bytes32[]"
        }
      ],
      "stateMutability": "pure",
      "type": "function"
    },
    {
      "inputs": [
        {
          "internalType": "uint256",
          "name": "value",
          "type": "uint256"
        }
      ],
      "name": "convertToBytes",
      "outputs": [
        {
          "internalType": "bytes",
          "name": "",
          "type": "bytes"
        }
      ],
      "stateMutability": "pure",
      "type": "function"
    },
    {
      "inputs": [
        {
          "internalType": "uint256[]",
          "name": "uintArray",
          "type": "uint256[]"
        }
      ],
      "name": "convertUintToBytes32",
      "outputs": [
        {
          "internalType": "bytes32[]",
          "name": "",
          "type": "bytes32[]"
        }
      ],
      "stateMutability": "pure",
      "type": "function"
    },
    {
      "inputs": [
        {
          "internalType": "bytes32",
          "name": "_requestId",
          "type": "bytes32"
        },
        {
          "internalType": "uint256[]",
          "name": "_prices",
          "type": "uint256[]"
        },
        {
          "internalType": "int256[]",
          "name": "_fundingfractionaverages",
          "type": "int256[]"
        },
        {
          "internalType": "string[]",
          "name": "_names",
          "type": "string[]"
        },
        {
          "internalType": "string[]",
          "name": "_contracts",
          "type": "string[]"
        },
        {
          "internalType": "address[]",
          "name": "_addresses",
          "type": "address[]"
        }
      ],
      "name": "fulfillOracleFundingRateRequest",
      "outputs": [
        {
          "internalType": "bool",
          "name": "",
          "type": "bool"
        }
      ],
      "stateMutability": "nonpayable",
      "type": "function"
    },
    {
      "inputs": [
        {
          "internalType": "bytes32",
          "name": "_requestId",
          "type": "bytes32"
        },
        {
          "internalType": "bytes32",
          "name": "_data",
          "type": "bytes32"
        }
      ],
      "name": "fulfillOracleOjectRequest",
      "outputs": [
        {
          "internalType": "bool",
          "name": "",
          "type": "bool"
        }
      ],
      "stateMutability": "nonpayable",
      "type": "function"
    },
    {
      "inputs": [
        {
          "internalType": "bytes32",
          "name": "_requestId",
          "type": "bytes32"
        },
        {
          "internalType": "string",
          "name": "_data",
          "type": "string"
        }
      ],
      "name": "fulfillOracleStatusRequest",
      "outputs": [
        {
          "internalType": "bool",
          "name": "",
          "type": "bool"
        }
      ],
      "stateMutability": "nonpayable",
      "type": "function"
    },
    {
      "inputs": [],
      "name": "getChainlinkToken",
      "outputs": [
        {
          "internalType": "address",
          "name": "",
          "type": "address"
        }
      ],
      "stateMutability": "view",
      "type": "function"
    },
    {
      "inputs": [
        {
          "internalType": "address",
          "name": "_sender",
          "type": "address"
        },
        {
          "internalType": "uint256",
          "name": "_amount",
          "type": "uint256"
        },
        {
          "internalType": "bytes",
          "name": "_data",
          "type": "bytes"
        }
      ],
      "name": "onTokenTransfer",
      "outputs": [],
      "stateMutability": "nonpayable",
      "type": "function"
    },
    {
      "inputs": [
        {
          "internalType": "address",
          "name": "_sender",
          "type": "address"
        },
        {
          "internalType": "uint256",
          "name": "_payment",
          "type": "uint256"
        },
        {
          "internalType": "bytes32",
          "name": "_specId",
          "type": "bytes32"
        },
        {
          "internalType": "address",
          "name": "_callbackAddress",
          "type": "address"
        },
        {
          "internalType": "bytes4",
          "name": "_callbackFunctionId",
          "type": "bytes4"
        },
        {
          "internalType": "uint256",
          "name": "_nonce",
          "type": "uint256"
        },
        {
          "internalType": "uint256",
          "name": "_dataVersion",
          "type": "uint256"
        },
        {
          "internalType": "bytes",
          "name": "_data",
          "type": "bytes"
        }
      ],
      "name": "oracleRequest",
      "outputs": [],
      "stateMutability": "nonpayable",
      "type": "function"
    },
    {
      "inputs": [
        {
          "internalType": "uint256",
          "name": "myUint",
          "type": "uint256"
        }
      ],
      "name": "uintToBytes32",
      "outputs": [
        {
          "internalType": "bytes32",
          "name": "myBytes32",
          "type": "bytes32"
        }
      ],
      "stateMutability": "pure",
      "type": "function"
    }
  ],
  "bytecode": {
    "object": "0x608060405234801561001057600080fd5b50604051611ce8380380611ce883398101604081905261002f91610054565b600080546001600160a01b0319166001600160a01b0392909216919091179055610084565b60006020828403121561006657600080fd5b81516001600160a01b038116811461007d57600080fd5b9392505050565b611c55806100936000396000f3fe608060405234801561001057600080fd5b50600436106100cf5760003560e01c80635fdb23ca1161008c578063886d3db911610066578063886d3db9146101bc578063a4c0ed36146101cd578063c5e639ca146101e0578063e030ba66146101f357600080fd5b80635fdb23ca146101835780636ee4d55314610196578063715d342f146101a957600080fd5b806315de8f45146100d4578063165d35e1146100fc5780633be2c1d8146101175780634042994614610137578063466703c51461014c5780634b6022821461016c575b600080fd5b6100e76100e236600461157d565b610206565b60405190151581526020015b60405180910390f35b6000546040516001600160a01b0390911681526020016100f3565b61012a6101253660046114eb565b610483565b6040516100f391906118f3565b61014a6101453660046113e3565b610634565b005b61015f61015a366004611700565b610877565b6040516100f391906119fa565b61017561012c81565b6040519081526020016100f3565b61012a610191366004611527565b6108a5565b61014a6101a43660046116c3565b610973565b61012a6101b73660046114eb565b610af0565b6101756101ca366004611700565b90565b61014a6101db366004611481565b610c12565b6100e76101ee366004611678565b610dea565b6100e7610201366004611656565b610f50565b60008681526001602052604081205487906001600160a01b03166102455760405162461bcd60e51b815260040161023c90611a0d565b60405180910390fd5b6000888152600160208181526040808420815180830190925280546001600160a01b03811683526001600160e01b0319600160a01b820460e01b1683850152948d9052929091526001600160c01b0319909216905562061a805a10156102bd5760405162461bcd60e51b815260040161023c90611a6c565b60408051600180825281830190925260009160208083019080368337019050509050683635c9adc5dea00000816000815181106102fc576102fc611bf3565b6020908102919091010152604080516001808252818301909252600091816020016020820280368337019050509050686c6b935b8bbd4000008160008151811061034857610348611bf3565b6020908102919091010152604080516001808252818301909252600091816020015b606081526020019060019003908161036a579050509050604051806040016040528060078152602001664d6f7274657a6160c81b815250816000815181106103b4576103b4611bf3565b6020026020010181905250600084600001516001600160a01b031685602001518e8e8e8e8e8e6040516024016103ef96959493929190611937565b60408051601f198184030181529181526020820180516001600160e01b03166001600160e01b031990941693909317909252905161042d919061186d565b6000604051808303816000865af19150503d806000811461046a576040519150601f19603f3d011682016040523d82523d6000602084013e61046f565b606091505b50909e9d5050505050505050505050505050565b8051606090806104a55760405162461bcd60e51b815260040161023c90611a44565b600060206104b483601f611af4565b6104be9190611b0c565b90506000816001600160401b038111156104da576104da611c09565b604051908082528060200260200182016040528015610503578160200160208202803683370190505b50905060005b8281101561062b57600061051e826020611b20565b9050600061052d826020611af4565b90508581111561053a5750845b60006105468383611b3f565b6001600160401b0381111561055d5761055d611c09565b604051908082528060200260200182016040528015610586578160200160208202803683370190505b509050825b828110156105e7578981815181106105a5576105a5611bf3565b60200260200101518285836105ba9190611b3f565b815181106105ca576105ca611bf3565b6020908102919091010152806105df81611b82565b91505061058b565b5060006105f3826110b4565b90508086868151811061060857610608611bf3565b60200260200101818152505050505050808061062390611b82565b915050610509565b50949350505050565b6000546001600160a01b031633146106845760405162461bcd60e51b815260206004820152601360248201527226bab9ba103ab9b2902624a725903a37b5b2b760691b604482015260640161023c565b60005486906001600160a01b03808316911614156106e45760405162461bcd60e51b815260206004820152601760248201527f43616e6e6f742063616c6c6261636b20746f204c494e4b000000000000000000604482015260640161023c565b6040516bffffffffffffffffffffffff1960608c901b1660208201526034810186905260009060540160408051601f198184030181529181528151602092830120600081815260019093529120549091506001600160a01b0316156107825760405162461bcd60e51b8152602060048201526014602482015273135d5cdd081d5cd94818481d5b9a5c5d5948125160621b604482015260640161023c565b60006107904261012c611147565b905060405180604001604052808a6001600160a01b03168152602001896001600160e01b0319168152506001600084815260200190815260200160002060008201518160000160006101000a8154816001600160a01b0302191690836001600160a01b0316021790555060208201518160000160146101000a81548163ffffffff021916908360e01c0217905550905050897fd8d7ecc4800d25fa53ce0372f13a416d98907a7ef3d8d3bdd79cf4fe75529c658d848e8d8d878d8d8d60405161086199989796959493929190611889565b60405180910390a2505050505050505050505050565b606060008260405160200161088e91815260200190565b60408051601f198184030181529190529392505050565b8051606090806108c75760405162461bcd60e51b815260040161023c90611a44565b6000816001600160401b038111156108e1576108e1611c09565b60405190808252806020026020018201604052801561090a578160200160208202803683370190505b50905060005b8281101561096b5761093c85828151811061092d5761092d611bf3565b60200260200101516020015190565b82828151811061094e5761094e611bf3565b60209081029190910101528061096381611b82565b915050610910565b509392505050565b6000848152600160205260409020546001600160a01b03166109ce5760405162461bcd60e51b8152602060048201526014602482015273135d5cdd081d5cd94818481d5b9a5c5d5948125160621b604482015260640161023c565b42811115610a175760405162461bcd60e51b815260206004820152601660248201527514995c5d595cdd081a5cc81b9bdd08195e1c1a5c995960521b604482015260640161023c565b60008481526001602052604080822080546001600160c01b03191690555185917fa7842b9ec549398102c0d91b1b9919b2f20558aefdadf57528a95c6cd3292e9391a260005460405163a9059cbb60e01b8152336004820152602481018590526001600160a01b039091169063a9059cbb90604401602060405180830381600087803b158015610aa657600080fd5b505af1158015610aba573d6000803e3d6000fd5b505050506040513d601f19601f82011682018060405250810190610ade919061155b565b610aea57610aea611bb1565b50505050565b6060600082604051602001610b059190611837565b60408051601f19818403018152919052835190915080610b375760405162461bcd60e51b815260040161023c90611a44565b60208251610b459190611b9d565b15610b895760405162461bcd60e51b8152602060048201526014602482015273092dcecc2d8d2c840c2e4e4c2f240d8cadccee8d60631b604482015260640161023c565b6000816001600160401b03811115610ba357610ba3611c09565b604051908082528060200260200182016040528015610bcc578160200160208202803683370190505b50905060005b8281101561062b57602080820285010151828281518110610bf557610bf5611bf3565b602090810291909101015280610c0a81611b82565b915050610bd2565b6000546001600160a01b03163314610c625760405162461bcd60e51b815260206004820152601360248201527226bab9ba103ab9b2902624a725903a37b5b2b760691b604482015260640161023c565b80610c6f60026020611b20565b610c7a906004611af4565b81511015610cc35760405162461bcd60e51b8152602060048201526016602482015275092dcecc2d8d2c840e4cae2eacae6e840d8cadccee8d60531b604482015260640161023c565b602082015182906001600160e01b031981166320214ca360e11b14610d2a5760405162461bcd60e51b815260206004820152601e60248201527f4d757374207573652077686974656c69737465642066756e6374696f6e730000604482015260640161023c565b8560248501528460448501526000306001600160a01b031685604051610d50919061186d565b600060405180830381855af49150503d8060008114610d8b576040519150601f19603f3d011682016040523d82523d6000602084013e610d90565b606091505b5050905080610de15760405162461bcd60e51b815260206004820152601860248201527f556e61626c6520746f2063726561746520726571756573740000000000000000604482015260640161023c565b50505050505050565b60008381526001602052604081205484906001600160a01b0316610e205760405162461bcd60e51b815260040161023c90611a0d565b6000858152600160208181526040808420815180830190925280546001600160a01b03811683526001600160e01b0319600160a01b820460e01b1683850152948a9052929091526001600160c01b0319909216905562061a805a1015610e985760405162461bcd60e51b815260040161023c90611a6c565b600081600001516001600160a01b03168260200151888888604051602401610ec2939291906119d7565b60408051601f198184030181529181526020820180516001600160e01b03166001600160e01b0319909416939093179092529051610f00919061186d565b6000604051808303816000865af19150503d8060008114610f3d576040519150601f19603f3d011682016040523d82523d6000602084013e610f42565b606091505b509098975050505050505050565b60008281526001602052604081205483906001600160a01b0316610f865760405162461bcd60e51b815260040161023c90611a0d565b6000848152600160208181526040808420815180830190925280546001600160a01b03811683526001600160e01b0319600160a01b820460e01b168385015294899052929091526001600160c01b0319909216905562061a805a1015610ffe5760405162461bcd60e51b815260040161023c90611a6c565b8051602082015160405160248101889052604481018790526000926001600160a01b0316919060640160408051601f198184030181529181526020820180516001600160e01b03166001600160e01b0319909416939093179092529051611065919061186d565b6000604051808303816000865af19150503d80600081146110a2576040519150601f19603f3d011682016040523d82523d6000602084013e6110a7565b606091505b5090979650505050505050565b600080825160206110c59190611b20565b6001600160401b038111156110dc576110dc611c09565b6040519080825280601f01601f191660200182016040528015611106576020820181803683370190505b50905060005b835181101561113c576020810260200184015160208202602001830152808061113490611b82565b91505061110c565b506020015192915050565b6000806111548385611af4565b9050838110156111a65760405162461bcd60e51b815260206004820152601b60248201527f536166654d6174683a206164646974696f6e206f766572666c6f770000000000604482015260640161023c565b9392505050565b60006001600160401b038311156111c6576111c6611c09565b6111d9601f8401601f1916602001611aa1565b90508281528383830111156111ed57600080fd5b828260208301376000602084830101529392505050565b80356001600160a01b038116811461121b57600080fd5b919050565b600082601f83011261123157600080fd5b8135602061124661124183611ad1565b611aa1565b80838252828201915082860187848660051b890101111561126657600080fd5b60005b858110156110a75761127a82611204565b84529284019290840190600101611269565b600082601f83011261129d57600080fd5b813560206112ad61124183611ad1565b80838252828201915082860187848660051b89010111156112cd57600080fd5b60005b858110156110a7578135845292840192908401906001016112d0565b600082601f8301126112fd57600080fd5b8135602061130d61124183611ad1565b80838252828201915082860187848660051b890101111561132d57600080fd5b60005b858110156110a75781356001600160401b0381111561134e57600080fd5b8801603f81018a1361135f57600080fd5b6113708a87830135604084016111ad565b8552509284019290840190600101611330565b80356001600160e01b03198116811461121b57600080fd5b60008083601f8401126113ad57600080fd5b5081356001600160401b038111156113c457600080fd5b6020830191508360208285010111156113dc57600080fd5b9250929050565b60008060008060008060008060006101008a8c03121561140257600080fd5b61140b8a611204565b985060208a0135975060408a0135965061142760608b01611204565b955061143560808b01611383565b945060a08a0135935060c08a0135925060e08a01356001600160401b0381111561145e57600080fd5b61146a8c828d0161139b565b915080935050809150509295985092959850929598565b60008060006060848603121561149657600080fd5b61149f84611204565b92506020840135915060408401356001600160401b038111156114c157600080fd5b8401601f810186136114d257600080fd5b6114e1868235602084016111ad565b9150509250925092565b6000602082840312156114fd57600080fd5b81356001600160401b0381111561151357600080fd5b61151f8482850161128c565b949350505050565b60006020828403121561153957600080fd5b81356001600160401b0381111561154f57600080fd5b61151f848285016112ec565b60006020828403121561156d57600080fd5b815180151581146111a657600080fd5b60008060008060008060c0878903121561159657600080fd5b8635955060208701356001600160401b03808211156115b457600080fd5b6115c08a838b0161128c565b965060408901359150808211156115d657600080fd5b6115e28a838b0161128c565b955060608901359150808211156115f857600080fd5b6116048a838b016112ec565b9450608089013591508082111561161a57600080fd5b6116268a838b016112ec565b935060a089013591508082111561163c57600080fd5b5061164989828a01611220565b9150509295509295509295565b6000806040838503121561166957600080fd5b50508035926020909101359150565b60008060006040848603121561168d57600080fd5b8335925060208401356001600160401b038111156116aa57600080fd5b6116b68682870161139b565b9497909650939450505050565b600080600080608085870312156116d957600080fd5b84359350602085013592506116f060408601611383565b9396929550929360600135925050565b60006020828403121561171257600080fd5b5035919050565b600081518084526020808501945080840160005b838110156117525781516001600160a01b03168752958201959082019060010161172d565b509495945050505050565b600081518084526020808501945080840160005b8381101561175257815187529582019590820190600101611771565b600081518084526020808501808196508360051b8101915082860160005b858110156117d55782840389526117c384835161180b565b988501989350908401906001016117ab565b5091979650505050505050565b81835281816020850137506000828201602090810191909152601f909101601f19169091010190565b60008151808452611823816020860160208601611b56565b601f01601f19169290920160200192915050565b815160009082906020808601845b8381101561186157815185529382019390820190600101611845565b50929695505050505050565b6000825161187f818460208701611b56565b9190910192915050565b6001600160a01b038a81168252602082018a905260408201899052871660608201526001600160e01b03198616608082015260a0810185905260c0810184905261010060e082018190526000906118e383820185876117e2565b9c9b505050505050505050505050565b6020808252825182820181905260009190848201906040850190845b8181101561192b5783518352928401929184019160010161190f565b50909695505050505050565b600060c08201888352602060c08185015281895180845260e086019150828b01935060005b818110156119785784518352938301939183019160010161195c565b5050848103604086015261198c818a61175d565b9250505082810360608401526119a2818761178d565b905082810360808401526119b6818661178d565b905082810360a08401526119ca8185611719565b9998505050505050505050565b8381526040602082015260006119f16040830184866117e2565b95945050505050565b6020815260006111a6602083018461180b565b6020808252601b908201527f4d757374206861766520612076616c6964207265717565737449640000000000604082015260600190565b6020808252600e908201526d417272617920697320656d70747960901b604082015260600190565b6020808252818101527f4d7573742070726f7669646520636f6e73756d657220656e6f75676820676173604082015260600190565b604051601f8201601f191681016001600160401b0381118282101715611ac957611ac9611c09565b604052919050565b60006001600160401b03821115611aea57611aea611c09565b5060051b60200190565b60008219821115611b0757611b07611bc7565b500190565b600082611b1b57611b1b611bdd565b500490565b6000816000190483118215151615611b3a57611b3a611bc7565b500290565b600082821015611b5157611b51611bc7565b500390565b60005b83811015611b71578181015183820152602001611b59565b83811115610aea5750506000910152565b6000600019821415611b9657611b96611bc7565b5060010190565b600082611bac57611bac611bdd565b500690565b634e487b7160e01b600052600160045260246000fd5b634e487b7160e01b600052601160045260246000fd5b634e487b7160e01b600052601260045260246000fd5b634e487b7160e01b600052603260045260246000fd5b634e487b7160e01b600052604160045260246000fdfea2646970667358221220c5c6f82356d0b1050d48651d07669c2f3c9ac1faed289a07d9cd19c93f49400964736f6c63430008070033",
    "linkReferences": {}
  },
  "methodIdentifiers": {
    "EXPIRY_TIME()": "4b602282",
    "cancelOracleRequest(bytes32,uint256,bytes4,uint256)": "6ee4d553",
    "convertIntToBytes32Array(int256[])": "715d342f",
    "convertStringToBytes32Array(string[])": "5fdb23ca",
    "convertToBytes(uint256)": "466703c5",
    "convertUintToBytes32(uint256[])": "3be2c1d8",
    "fulfillOracleFundingRateRequest(bytes32,uint256[],int256[],string[],string[],address[])": "15de8f45",
    "fulfillOracleOjectRequest(bytes32,bytes32)": "e030ba66",
    "fulfillOracleStatusRequest(bytes32,string)": "c5e639ca",
    "getChainlinkToken()": "165d35e1",
    "onTokenTransfer(address,uint256,bytes)": "a4c0ed36",
    "oracleRequest(address,uint256,bytes32,address,bytes4,uint256,uint256,bytes)": "40429946",
    "uintToBytes32(uint256)": "886d3db9"
  },
  "id": 18
}