{"abi":[{"type":"constructor","inputs":[{"name":"_link","type":"address","internalType":"address"}],"stateMutability":"nonpayable"},{"type":"function","name":"EXPIRY_TIME","inputs":[],"outputs":[{"name":"","type":"uint256","internalType":"uint256"}],"stateMutability":"view"},{"type":"function","name":"cancelOracleRequest","inputs":[{"name":"_requestId","type":"bytes32","internalType":"bytes32"},{"name":"_payment","type":"uint256","internalType":"uint256"},{"name":"","type":"bytes4","internalType":"bytes4"},{"name":"_expiration","type":"uint256","internalType":"uint256"}],"outputs":[],"stateMutability":"nonpayable"},{"type":"function","name":"fulfillOracleFundingRateRequest","inputs":[{"name":"_requestId","type":"bytes32","internalType":"bytes32"},{"name":"_tokens","type":"address[]","internalType":"address[]"},{"name":"_marketCapShares","type":"uint256[]","internalType":"uint256[]"},{"name":"_swapVersions","type":"uint256[]","internalType":"uint256[]"}],"outputs":[{"name":"","type":"bool","internalType":"bool"}],"stateMutability":"nonpayable"},{"type":"function","name":"getChainlinkToken","inputs":[],"outputs":[{"name":"","type":"address","internalType":"address"}],"stateMutability":"view"},{"type":"function","name":"onTokenTransfer","inputs":[{"name":"_sender","type":"address","internalType":"address"},{"name":"_amount","type":"uint256","internalType":"uint256"},{"name":"_data","type":"bytes","internalType":"bytes"}],"outputs":[],"stateMutability":"nonpayable"},{"type":"function","name":"oracleRequest","inputs":[{"name":"_sender","type":"address","internalType":"address"},{"name":"_payment","type":"uint256","internalType":"uint256"},{"name":"_specId","type":"bytes32","internalType":"bytes32"},{"name":"_callbackAddress","type":"address","internalType":"address"},{"name":"_callbackFunctionId","type":"bytes4","internalType":"bytes4"},{"name":"_nonce","type":"uint256","internalType":"uint256"},{"name":"_dataVersion","type":"uint256","internalType":"uint256"},{"name":"_data","type":"bytes","internalType":"bytes"}],"outputs":[],"stateMutability":"nonpayable"},{"type":"event","name":"CancelOracleRequest","inputs":[{"name":"requestId","type":"bytes32","indexed":true,"internalType":"bytes32"}],"anonymous":false},{"type":"event","name":"OracleRequest","inputs":[{"name":"specId","type":"bytes32","indexed":true,"internalType":"bytes32"},{"name":"requester","type":"address","indexed":false,"internalType":"address"},{"name":"requestId","type":"bytes32","indexed":false,"internalType":"bytes32"},{"name":"payment","type":"uint256","indexed":false,"internalType":"uint256"},{"name":"callbackAddr","type":"address","indexed":false,"internalType":"address"},{"name":"callbackFunctionId","type":"bytes4","indexed":false,"internalType":"bytes4"},{"name":"cancelExpiration","type":"uint256","indexed":false,"internalType":"uint256"},{"name":"dataVersion","type":"uint256","indexed":false,"internalType":"uint256"},{"name":"data","type":"bytes","indexed":false,"internalType":"bytes"}],"anonymous":false}],"bytecode":{"object":"0x6080604052348015600e575f80fd5b50604051610eb4380380610eb4833981016040819052602b91604e565b5f80546001600160a01b0319166001600160a01b03929092169190911790556079565b5f60208284031215605d575f80fd5b81516001600160a01b03811681146072575f80fd5b9392505050565b610e2e806100865f395ff3fe608060405234801561000f575f80fd5b5060043610610060575f3560e01c8063165d35e11461006457806338540d9c1461008357806340429946146100a65780634b602282146100bb5780636ee4d553146100d2578063a4c0ed36146100e5575b5f80fd5b5f546040516001600160a01b0390911681526020015b60405180910390f35b610096610091366004610985565b6100f8565b604051901515815260200161007a565b6100b96100b4366004610a92565b6102be565b005b6100c461012c81565b60405190815260200161007a565b6100b96100e0366004610b56565b6104f6565b6100b96100f3366004610b90565b61065e565b5f8481526001602052604081205485906001600160a01b03166101625760405162461bcd60e51b815260206004820152601b60248201527f4d757374206861766520612076616c696420726571756573744964000000000060448201526064015b60405180910390fd5b5f868152600160208181526040808420815180830190925280546001600160a01b03811683526001600160e01b0319600160a01b820460e01b1683850152948b9052929091526001600160c01b0319909216905562061a805a10156102095760405162461bcd60e51b815260206004820181905260248201527f4d7573742070726f7669646520636f6e73756d657220656e6f756768206761736044820152606401610159565b5f815f01516001600160a01b03168260200151898989896040516024016102339493929190610c77565b60408051601f198184030181529181526020820180516001600160e01b03166001600160e01b03199094169390931790925290516102719190610cf5565b5f604051808303815f865af19150503d805f81146102aa576040519150601f19603f3d011682016040523d82523d5f602084013e6102af565b606091505b50909998505050505050505050565b5f546001600160a01b0316331461030d5760405162461bcd60e51b815260206004820152601360248201527226bab9ba103ab9b2902624a725903a37b5b2b760691b6044820152606401610159565b5f5486906001600160a01b039081169082160361036c5760405162461bcd60e51b815260206004820152601760248201527f43616e6e6f742063616c6c6261636b20746f204c494e4b0000000000000000006044820152606401610159565b6040516bffffffffffffffffffffffff1960608c901b166020820152603481018690525f9060540160408051601f1981840301815291815281516020928301205f81815260019093529120549091506001600160a01b0316156104085760405162461bcd60e51b8152602060048201526014602482015273135d5cdd081d5cd94818481d5b9a5c5d5948125160621b6044820152606401610159565b5f6104154261012c610831565b905060405180604001604052808a6001600160a01b03168152602001896001600160e01b03191681525060015f8481526020019081526020015f205f820151815f015f6101000a8154816001600160a01b0302191690836001600160a01b031602179055506020820151815f0160146101000a81548163ffffffff021916908360e01c0217905550905050897fd8d7ecc4800d25fa53ce0372f13a416d98907a7ef3d8d3bdd79cf4fe75529c658d848e8d8d878d8d8d6040516104e099989796959493929190610d0b565b60405180910390a2505050505050505050505050565b5f848152600160205260409020546001600160a01b03166105505760405162461bcd60e51b8152602060048201526014602482015273135d5cdd081d5cd94818481d5b9a5c5d5948125160621b6044820152606401610159565b428111156105995760405162461bcd60e51b815260206004820152601660248201527514995c5d595cdd081a5cc81b9bdd08195e1c1a5c995960521b6044820152606401610159565b5f8481526001602052604080822080546001600160c01b03191690555185917fa7842b9ec549398102c0d91b1b9919b2f20558aefdadf57528a95c6cd3292e9391a25f5460405163a9059cbb60e01b8152336004820152602481018590526001600160a01b039091169063a9059cbb906044016020604051808303815f875af1158015610628573d5f803e3d5ffd5b505050506040513d601f19601f8201168201806040525081019061064c9190610d87565b61065857610658610da6565b50505050565b5f546001600160a01b031633146106ad5760405162461bcd60e51b815260206004820152601360248201527226bab9ba103ab9b2902624a725903a37b5b2b760691b6044820152606401610159565b806106ba60026020610dce565b6106c5906004610de5565b8151101561070e5760405162461bcd60e51b8152602060048201526016602482015275092dcecc2d8d2c840e4cae2eacae6e840d8cadccee8d60531b6044820152606401610159565b602082015182906001600160e01b031981166320214ca360e11b146107755760405162461bcd60e51b815260206004820152601e60248201527f4d757374207573652077686974656c69737465642066756e6374696f6e7300006044820152606401610159565b8560248501528460448501525f306001600160a01b03168560405161079a9190610cf5565b5f60405180830381855af49150503d805f81146107d2576040519150601f19603f3d011682016040523d82523d5f602084013e6107d7565b606091505b50509050806108285760405162461bcd60e51b815260206004820152601860248201527f556e61626c6520746f20637265617465207265717565737400000000000000006044820152606401610159565b50505050505050565b5f8061083d8385610de5565b90508381101561088f5760405162461bcd60e51b815260206004820152601b60248201527f536166654d6174683a206164646974696f6e206f766572666c6f7700000000006044820152606401610159565b90505b92915050565b634e487b7160e01b5f52604160045260245ffd5b604051601f8201601f1916810167ffffffffffffffff811182821017156108d5576108d5610898565b604052919050565b5f67ffffffffffffffff8211156108f6576108f6610898565b5060051b60200190565b80356001600160a01b0381168114610916575f80fd5b919050565b5f82601f83011261092a575f80fd5b813561093d610938826108dd565b6108ac565b8082825260208201915060208360051b86010192508583111561095e575f80fd5b602085015b8381101561097b578035835260209283019201610963565b5095945050505050565b5f805f8060808587031215610998575f80fd5b84359350602085013567ffffffffffffffff8111156109b5575f80fd5b8501601f810187136109c5575f80fd5b80356109d3610938826108dd565b8082825260208201915060208360051b8501019250898311156109f4575f80fd5b6020840193505b82841015610a1d57610a0c84610900565b8252602093840193909101906109fb565b9550505050604085013567ffffffffffffffff811115610a3b575f80fd5b610a478782880161091b565b925050606085013567ffffffffffffffff811115610a63575f80fd5b610a6f8782880161091b565b91505092959194509250565b80356001600160e01b031981168114610916575f80fd5b5f805f805f805f805f6101008a8c031215610aab575f80fd5b610ab48a610900565b985060208a0135975060408a01359650610ad060608b01610900565b9550610ade60808b01610a7b565b945060a08a0135935060c08a0135925060e08a013567ffffffffffffffff811115610b07575f80fd5b8a01601f81018c13610b17575f80fd5b803567ffffffffffffffff811115610b2d575f80fd5b8c6020828401011115610b3e575f80fd5b60208201935080925050509295985092959850929598565b5f805f8060808587031215610b69575f80fd5b8435935060208501359250610b8060408601610a7b565b9396929550929360600135925050565b5f805f60608486031215610ba2575f80fd5b610bab84610900565b925060208401359150604084013567ffffffffffffffff811115610bcd575f80fd5b8401601f81018613610bdd575f80fd5b803567ffffffffffffffff811115610bf757610bf7610898565b610c0a601f8201601f19166020016108ac565b818152876020838501011115610c1e575f80fd5b816020840160208301375f602083830101528093505050509250925092565b5f8151808452602084019350602083015f5b82811015610c6d578151865260209586019590910190600101610c4f565b5093949350505050565b5f608082018683526080602084015280865180835260a0850191506020880192505f5b81811015610cc15783516001600160a01b0316835260209384019390920191600101610c9a565b50508381036040850152610cd58187610c3d565b9150508281036060840152610cea8185610c3d565b979650505050505050565b5f82518060208501845e5f920191825250919050565b6001600160a01b038a81168252602082018a905260408201899052871660608201526001600160e01b03198616608082015260a0810185905260c0810184905261010060e08201819052810182905281836101208301375f81830161012090810191909152601f909201601f1916010198975050505050505050565b5f60208284031215610d97575f80fd5b8151801515811461088f575f80fd5b634e487b7160e01b5f52600160045260245ffd5b634e487b7160e01b5f52601160045260245ffd5b808202811582820484141761089257610892610dba565b8082018082111561089257610892610dba56fea2646970667358221220ca20536e008628ed693fc10d365beedaff5276313b022d5cfe6f472f249b5bad64736f6c634300081a0033","linkReferences":{}},"methodIdentifiers":{"EXPIRY_TIME()":"4b602282","cancelOracleRequest(bytes32,uint256,bytes4,uint256)":"6ee4d553","fulfillOracleFundingRateRequest(bytes32,address[],uint256[],uint256[])":"38540d9c","getChainlinkToken()":"165d35e1","onTokenTransfer(address,uint256,bytes)":"a4c0ed36","oracleRequest(address,uint256,bytes32,address,bytes4,uint256,uint256,bytes)":"40429946"},"id":20}