{
  "abi": [
    {
      "inputs": [
        {
          "internalType": "address",
          "name": "_link",
          "type": "address"
        }
      ],
      "stateMutability": "nonpayable",
      "type": "constructor"
    },
    {
      "anonymous": false,
      "inputs": [
        {
          "indexed": true,
          "internalType": "bytes32",
          "name": "requestId",
          "type": "bytes32"
        }
      ],
      "name": "CancelOracleRequest",
      "type": "event"
    },
    {
      "anonymous": false,
      "inputs": [
        {
          "indexed": true,
          "internalType": "bytes32",
          "name": "specId",
          "type": "bytes32"
        },
        {
          "indexed": false,
          "internalType": "address",
          "name": "requester",
          "type": "address"
        },
        {
          "indexed": false,
          "internalType": "bytes32",
          "name": "requestId",
          "type": "bytes32"
        },
        {
          "indexed": false,
          "internalType": "uint256",
          "name": "payment",
          "type": "uint256"
        },
        {
          "indexed": false,
          "internalType": "address",
          "name": "callbackAddr",
          "type": "address"
        },
        {
          "indexed": false,
          "internalType": "bytes4",
          "name": "callbackFunctionId",
          "type": "bytes4"
        },
        {
          "indexed": false,
          "internalType": "uint256",
          "name": "cancelExpiration",
          "type": "uint256"
        },
        {
          "indexed": false,
          "internalType": "uint256",
          "name": "dataVersion",
          "type": "uint256"
        },
        {
          "indexed": false,
          "internalType": "bytes",
          "name": "data",
          "type": "bytes"
        }
      ],
      "name": "OracleRequest",
      "type": "event"
    },
    {
      "inputs": [],
      "name": "EXPIRY_TIME",
      "outputs": [
        {
          "internalType": "uint256",
          "name": "",
          "type": "uint256"
        }
      ],
      "stateMutability": "view",
      "type": "function"
    },
    {
      "inputs": [
        {
          "internalType": "bytes32",
          "name": "_requestId",
          "type": "bytes32"
        },
        {
          "internalType": "uint256",
          "name": "_payment",
          "type": "uint256"
        },
        {
          "internalType": "bytes4",
          "name": "",
          "type": "bytes4"
        },
        {
          "internalType": "uint256",
          "name": "_expiration",
          "type": "uint256"
        }
      ],
      "name": "cancelOracleRequest",
      "outputs": [],
      "stateMutability": "nonpayable",
      "type": "function"
    },
    {
      "inputs": [
        {
          "internalType": "int256[]",
          "name": "intArray",
          "type": "int256[]"
        }
      ],
      "name": "convertIntToBytes32Array",
      "outputs": [
        {
          "internalType": "bytes32[]",
          "name": "",
          "type": "bytes32[]"
        }
      ],
      "stateMutability": "pure",
      "type": "function"
    },
    {
      "inputs": [
        {
          "internalType": "string[]",
          "name": "stringArray",
          "type": "string[]"
        }
      ],
      "name": "convertStringToBytes32Array",
      "outputs": [
        {
          "internalType": "bytes32[]",
          "name": "",
          "type": "bytes32[]"
        }
      ],
      "stateMutability": "pure",
      "type": "function"
    },
    {
      "inputs": [
        {
          "internalType": "uint256",
          "name": "value",
          "type": "uint256"
        }
      ],
      "name": "convertToBytes",
      "outputs": [
        {
          "internalType": "bytes",
          "name": "",
          "type": "bytes"
        }
      ],
      "stateMutability": "pure",
      "type": "function"
    },
    {
      "inputs": [
        {
          "internalType": "uint256[]",
          "name": "uintArray",
          "type": "uint256[]"
        }
      ],
      "name": "convertUintToBytes32",
      "outputs": [
        {
          "internalType": "bytes32[]",
          "name": "",
          "type": "bytes32[]"
        }
      ],
      "stateMutability": "pure",
      "type": "function"
    },
    {
      "inputs": [
        {
          "internalType": "bytes32",
          "name": "_requestId",
          "type": "bytes32"
        },
        {
          "internalType": "address[]",
          "name": "_tokens",
          "type": "address[]"
        },
        {
          "internalType": "uint256[]",
          "name": "_marketCapShares",
          "type": "uint256[]"
        },
        {
          "internalType": "uint256[]",
          "name": "_swapVersions",
          "type": "uint256[]"
        }
      ],
      "name": "fulfillOracleFundingRateRequest",
      "outputs": [
        {
          "internalType": "bool",
          "name": "",
          "type": "bool"
        }
      ],
      "stateMutability": "nonpayable",
      "type": "function"
    },
    {
      "inputs": [
        {
          "internalType": "bytes32",
          "name": "_requestId",
          "type": "bytes32"
        },
        {
          "internalType": "bytes32",
          "name": "_data",
          "type": "bytes32"
        }
      ],
      "name": "fulfillOracleOjectRequest",
      "outputs": [
        {
          "internalType": "bool",
          "name": "",
          "type": "bool"
        }
      ],
      "stateMutability": "nonpayable",
      "type": "function"
    },
    {
      "inputs": [
        {
          "internalType": "bytes32",
          "name": "_requestId",
          "type": "bytes32"
        },
        {
          "internalType": "string",
          "name": "_data",
          "type": "string"
        }
      ],
      "name": "fulfillOracleStatusRequest",
      "outputs": [
        {
          "internalType": "bool",
          "name": "",
          "type": "bool"
        }
      ],
      "stateMutability": "nonpayable",
      "type": "function"
    },
    {
      "inputs": [],
      "name": "getChainlinkToken",
      "outputs": [
        {
          "internalType": "address",
          "name": "",
          "type": "address"
        }
      ],
      "stateMutability": "view",
      "type": "function"
    },
    {
      "inputs": [
        {
          "internalType": "address",
          "name": "_sender",
          "type": "address"
        },
        {
          "internalType": "uint256",
          "name": "_amount",
          "type": "uint256"
        },
        {
          "internalType": "bytes",
          "name": "_data",
          "type": "bytes"
        }
      ],
      "name": "onTokenTransfer",
      "outputs": [],
      "stateMutability": "nonpayable",
      "type": "function"
    },
    {
      "inputs": [
        {
          "internalType": "address",
          "name": "_sender",
          "type": "address"
        },
        {
          "internalType": "uint256",
          "name": "_payment",
          "type": "uint256"
        },
        {
          "internalType": "bytes32",
          "name": "_specId",
          "type": "bytes32"
        },
        {
          "internalType": "address",
          "name": "_callbackAddress",
          "type": "address"
        },
        {
          "internalType": "bytes4",
          "name": "_callbackFunctionId",
          "type": "bytes4"
        },
        {
          "internalType": "uint256",
          "name": "_nonce",
          "type": "uint256"
        },
        {
          "internalType": "uint256",
          "name": "_dataVersion",
          "type": "uint256"
        },
        {
          "internalType": "bytes",
          "name": "_data",
          "type": "bytes"
        }
      ],
      "name": "oracleRequest",
      "outputs": [],
      "stateMutability": "nonpayable",
      "type": "function"
    },
    {
      "inputs": [
        {
          "internalType": "uint256",
          "name": "myUint",
          "type": "uint256"
        }
      ],
      "name": "uintToBytes32",
      "outputs": [
        {
          "internalType": "bytes32",
          "name": "myBytes32",
          "type": "bytes32"
        }
      ],
      "stateMutability": "pure",
      "type": "function"
    }
  ],
  "bytecode": {
    "object": "0x608060405234801561001057600080fd5b50604051611c12380380611c1283398101604081905261002f91610054565b600080546001600160a01b0319166001600160a01b0392909216919091179055610084565b60006020828403121561006657600080fd5b81516001600160a01b038116811461007d57600080fd5b9392505050565b611b7f806100936000396000f3fe608060405234801561001057600080fd5b50600436106100cf5760003560e01c80635fdb23ca1161008c578063886d3db911610066578063886d3db9146101bc578063a4c0ed36146101cd578063c5e639ca146101e0578063e030ba66146101f357600080fd5b80635fdb23ca146101835780636ee4d55314610196578063715d342f146101a957600080fd5b8063165d35e1146100d457806338540d9c146100f45780633be2c1d8146101175780634042994614610137578063466703c51461014c5780634b6022821461016c575b600080fd5b6000546040516001600160a01b0390911681526020015b60405180910390f35b610107610102366004611269565b610206565b60405190151581526020016100eb565b61012a610125366004611358565b61045c565b6040516100eb9190611394565b61014a610145366004611438565b61060d565b005b61015f61015a3660046114d6565b610850565b6040516100eb9190611513565b61017561012c81565b6040519081526020016100eb565b61012a61019136600461159d565b61087e565b61014a6101a4366004611662565b61094c565b61012a6101b736600461169f565b610aba565b6101756101ca3660046114d6565b90565b61014a6101db36600461172f565b610bdc565b6101076101ee366004611799565b610db4565b6101076102013660046117e4565b610f1a565b60008481526001602052604081205485906001600160a01b03166102455760405162461bcd60e51b815260040161023c90611806565b60405180910390fd5b6000868152600160208181526040808420815180830190925280546001600160a01b03811683526001600160e01b0319600160a01b820460e01b1683850152948b9052929091526001600160c01b0319909216905562061a805a10156102bd5760405162461bcd60e51b815260040161023c9061183d565b604080516001808252818301909252600091602080830190803683370190505090506000816000815181106102f4576102f4611872565b6001600160a01b03929092166020928302919091019091015260408051600180825281830190925260009181602001602082028036833701905050905068056bc75e2d631000008160008151811061034e5761034e611872565b602090810291909101015260408051600180825281830190925260009181602001602082028036833701905050905060038160008151811061039257610392611872565b602002602001018181525050600084600001516001600160a01b031685602001518c8c8c8c6040516024016103ca94939291906118c3565b60408051601f198184030181529181526020820180516001600160e01b03166001600160e01b03199094169390931790925290516104089190611937565b6000604051808303816000865af19150503d8060008114610445576040519150601f19603f3d011682016040523d82523d6000602084013e61044a565b606091505b50909c9b505050505050505050505050565b80516060908061047e5760405162461bcd60e51b815260040161023c90611953565b6000602061048d83601f611991565b61049791906119ba565b90506000816001600160401b038111156104b3576104b3611179565b6040519080825280602002602001820160405280156104dc578160200160208202803683370190505b50905060005b828110156106045760006104f78260206119ce565b90506000610506826020611991565b9050858111156105135750845b600061051f83836119e5565b6001600160401b0381111561053657610536611179565b60405190808252806020026020018201604052801561055f578160200160208202803683370190505b509050825b828110156105c05789818151811061057e5761057e611872565b602002602001015182858361059391906119e5565b815181106105a3576105a3611872565b6020908102919091010152806105b8816119f8565b915050610564565b5060006105cc8261107e565b9050808686815181106105e1576105e1611872565b6020026020010181815250505050505080806105fc906119f8565b9150506104e2565b50949350505050565b6000546001600160a01b0316331461065d5760405162461bcd60e51b815260206004820152601360248201527226bab9ba103ab9b2902624a725903a37b5b2b760691b604482015260640161023c565b60005486906001600160a01b03908116908216036106bd5760405162461bcd60e51b815260206004820152601760248201527f43616e6e6f742063616c6c6261636b20746f204c494e4b000000000000000000604482015260640161023c565b6040516bffffffffffffffffffffffff1960608c901b1660208201526034810186905260009060540160408051601f198184030181529181528151602092830120600081815260019093529120549091506001600160a01b03161561075b5760405162461bcd60e51b8152602060048201526014602482015273135d5cdd081d5cd94818481d5b9a5c5d5948125160621b604482015260640161023c565b60006107694261012c611111565b905060405180604001604052808a6001600160a01b03168152602001896001600160e01b0319168152506001600084815260200190815260200160002060008201518160000160006101000a8154816001600160a01b0302191690836001600160a01b0316021790555060208201518160000160146101000a81548163ffffffff021916908360e01c0217905550905050897fd8d7ecc4800d25fa53ce0372f13a416d98907a7ef3d8d3bdd79cf4fe75529c658d848e8d8d878d8d8d60405161083a99989796959493929190611a3a565b60405180910390a2505050505050505050505050565b606060008260405160200161086791815260200190565b60408051601f198184030181529190529392505050565b8051606090806108a05760405162461bcd60e51b815260040161023c90611953565b6000816001600160401b038111156108ba576108ba611179565b6040519080825280602002602001820160405280156108e3578160200160208202803683370190505b50905060005b828110156109445761091585828151811061090657610906611872565b60200260200101516020015190565b82828151811061092757610927611872565b60209081029190910101528061093c816119f8565b9150506108e9565b509392505050565b6000848152600160205260409020546001600160a01b03166109a75760405162461bcd60e51b8152602060048201526014602482015273135d5cdd081d5cd94818481d5b9a5c5d5948125160621b604482015260640161023c565b428111156109f05760405162461bcd60e51b815260206004820152601660248201527514995c5d595cdd081a5cc81b9bdd08195e1c1a5c995960521b604482015260640161023c565b60008481526001602052604080822080546001600160c01b03191690555185917fa7842b9ec549398102c0d91b1b9919b2f20558aefdadf57528a95c6cd3292e9391a260005460405163a9059cbb60e01b8152336004820152602481018590526001600160a01b039091169063a9059cbb906044016020604051808303816000875af1158015610a84573d6000803e3d6000fd5b505050506040513d601f19601f82011682018060405250810190610aa89190611aa4565b610ab457610ab4611ac6565b50505050565b6060600082604051602001610acf9190611adc565b60408051601f19818403018152919052835190915080610b015760405162461bcd60e51b815260040161023c90611953565b60208251610b0f9190611b12565b15610b535760405162461bcd60e51b8152602060048201526014602482015273092dcecc2d8d2c840c2e4e4c2f240d8cadccee8d60631b604482015260640161023c565b6000816001600160401b03811115610b6d57610b6d611179565b604051908082528060200260200182016040528015610b96578160200160208202803683370190505b50905060005b8281101561060457602080820285010151828281518110610bbf57610bbf611872565b602090810291909101015280610bd4816119f8565b915050610b9c565b6000546001600160a01b03163314610c2c5760405162461bcd60e51b815260206004820152601360248201527226bab9ba103ab9b2902624a725903a37b5b2b760691b604482015260640161023c565b80610c39600260206119ce565b610c44906004611991565b81511015610c8d5760405162461bcd60e51b8152602060048201526016602482015275092dcecc2d8d2c840e4cae2eacae6e840d8cadccee8d60531b604482015260640161023c565b602082015182906001600160e01b031981166320214ca360e11b14610cf45760405162461bcd60e51b815260206004820152601e60248201527f4d757374207573652077686974656c69737465642066756e6374696f6e730000604482015260640161023c565b8560248501528460448501526000306001600160a01b031685604051610d1a9190611937565b600060405180830381855af49150503d8060008114610d55576040519150601f19603f3d011682016040523d82523d6000602084013e610d5a565b606091505b5050905080610dab5760405162461bcd60e51b815260206004820152601860248201527f556e61626c6520746f2063726561746520726571756573740000000000000000604482015260640161023c565b50505050505050565b60008381526001602052604081205484906001600160a01b0316610dea5760405162461bcd60e51b815260040161023c90611806565b6000858152600160208181526040808420815180830190925280546001600160a01b03811683526001600160e01b0319600160a01b820460e01b1683850152948a9052929091526001600160c01b0319909216905562061a805a1015610e625760405162461bcd60e51b815260040161023c9061183d565b600081600001516001600160a01b03168260200151888888604051602401610e8c93929190611b26565b60408051601f198184030181529181526020820180516001600160e01b03166001600160e01b0319909416939093179092529051610eca9190611937565b6000604051808303816000865af19150503d8060008114610f07576040519150601f19603f3d011682016040523d82523d6000602084013e610f0c565b606091505b509098975050505050505050565b60008281526001602052604081205483906001600160a01b0316610f505760405162461bcd60e51b815260040161023c90611806565b6000848152600160208181526040808420815180830190925280546001600160a01b03811683526001600160e01b0319600160a01b820460e01b168385015294899052929091526001600160c01b0319909216905562061a805a1015610fc85760405162461bcd60e51b815260040161023c9061183d565b8051602082015160405160248101889052604481018790526000926001600160a01b0316919060640160408051601f198184030181529181526020820180516001600160e01b03166001600160e01b031990941693909317909252905161102f9190611937565b6000604051808303816000865af19150503d806000811461106c576040519150601f19603f3d011682016040523d82523d6000602084013e611071565b606091505b5090979650505050505050565b6000808251602061108f91906119ce565b6001600160401b038111156110a6576110a6611179565b6040519080825280601f01601f1916602001820160405280156110d0576020820181803683370190505b50905060005b835181101561110657602081026020018401516020820260200183015280806110fe906119f8565b9150506110d6565b506020015192915050565b60008061111e8385611991565b9050838110156111705760405162461bcd60e51b815260206004820152601b60248201527f536166654d6174683a206164646974696f6e206f766572666c6f770000000000604482015260640161023c565b90505b92915050565b634e487b7160e01b600052604160045260246000fd5b604051601f8201601f191681016001600160401b03811182821017156111b7576111b7611179565b604052919050565b60006001600160401b038211156111d8576111d8611179565b5060051b60200190565b80356001600160a01b03811681146111f957600080fd5b919050565b600082601f83011261120f57600080fd5b8135602061122461121f836111bf565b61118f565b82815260059290921b8401810191818101908684111561124357600080fd5b8286015b8481101561125e5780358352918301918301611247565b509695505050505050565b6000806000806080858703121561127f57600080fd5b843593506020808601356001600160401b038082111561129e57600080fd5b818801915088601f8301126112b257600080fd5b81356112c061121f826111bf565b81815260059190911b8301840190848101908b8311156112df57600080fd5b938501935b82851015611304576112f5856111e2565b825293850193908501906112e4565b97505050604088013592508083111561131c57600080fd5b61132889848a016111fe565b9450606088013592508083111561133e57600080fd5b505061134c878288016111fe565b91505092959194509250565b60006020828403121561136a57600080fd5b81356001600160401b0381111561138057600080fd5b61138c848285016111fe565b949350505050565b6020808252825182820181905260009190848201906040850190845b818110156113cc578351835292840192918401916001016113b0565b50909695505050505050565b80356001600160e01b0319811681146111f957600080fd5b60008083601f84011261140257600080fd5b5081356001600160401b0381111561141957600080fd5b60208301915083602082850101111561143157600080fd5b9250929050565b60008060008060008060008060006101008a8c03121561145757600080fd5b6114608a6111e2565b985060208a0135975060408a0135965061147c60608b016111e2565b955061148a60808b016113d8565b945060a08a0135935060c08a0135925060e08a01356001600160401b038111156114b357600080fd5b6114bf8c828d016113f0565b915080935050809150509295985092959850929598565b6000602082840312156114e857600080fd5b5035919050565b60005b8381101561150a5781810151838201526020016114f2565b50506000910152565b60208152600082518060208401526115328160408501602087016114ef565b601f01601f19169190910160400192915050565b60006001600160401b0383111561155f5761155f611179565b611572601f8401601f191660200161118f565b905082815283838301111561158657600080fd5b828260208301376000602084830101529392505050565b600060208083850312156115b057600080fd5b82356001600160401b03808211156115c757600080fd5b818501915085601f8301126115db57600080fd5b81356115e961121f826111bf565b81815260059190911b8301840190848101908883111561160857600080fd5b8585015b83811015611655578035858111156116245760008081fd5b8601603f81018b136116365760008081fd5b6116478b8983013560408401611546565b84525091860191860161160c565b5098975050505050505050565b6000806000806080858703121561167857600080fd5b843593506020850135925061168f604086016113d8565b9396929550929360600135925050565b600060208083850312156116b257600080fd5b82356001600160401b038111156116c857600080fd5b8301601f810185136116d957600080fd5b80356116e761121f826111bf565b81815260059190911b8201830190838101908783111561170657600080fd5b928401925b828410156117245783358252928401929084019061170b565b979650505050505050565b60008060006060848603121561174457600080fd5b61174d846111e2565b92506020840135915060408401356001600160401b0381111561176f57600080fd5b8401601f8101861361178057600080fd5b61178f86823560208401611546565b9150509250925092565b6000806000604084860312156117ae57600080fd5b8335925060208401356001600160401b038111156117cb57600080fd5b6117d7868287016113f0565b9497909650939450505050565b600080604083850312156117f757600080fd5b50508035926020909101359150565b6020808252601b908201527f4d757374206861766520612076616c6964207265717565737449640000000000604082015260600190565b6020808252818101527f4d7573742070726f7669646520636f6e73756d657220656e6f75676820676173604082015260600190565b634e487b7160e01b600052603260045260246000fd5b600081518084526020808501945080840160005b838110156118b85781518752958201959082019060010161189c565b509495945050505050565b600060808201868352602060808185015281875180845260a086019150828901935060005b8181101561190d5784516001600160a01b0316835293830193918301916001016118e8565b505084810360408601526119218188611888565b9250505082810360608401526117248185611888565b600082516119498184602087016114ef565b9190910192915050565b6020808252600e908201526d417272617920697320656d70747960901b604082015260600190565b634e487b7160e01b600052601160045260246000fd5b808201808211156111735761117361197b565b634e487b7160e01b600052601260045260246000fd5b6000826119c9576119c96119a4565b500490565b80820281158282048414176111735761117361197b565b818103818111156111735761117361197b565b600060018201611a0a57611a0a61197b565b5060010190565b81835281816020850137506000828201602090810191909152601f909101601f19169091010190565b6001600160a01b038a81168252602082018a905260408201899052871660608201526001600160e01b03198616608082015260a0810185905260c0810184905261010060e08201819052600090611a948382018587611a11565b9c9b505050505050505050505050565b600060208284031215611ab657600080fd5b8151801515811461117057600080fd5b634e487b7160e01b600052600160045260246000fd5b815160009082906020808601845b83811015611b0657815185529382019390820190600101611aea565b50929695505050505050565b600082611b2157611b216119a4565b500690565b838152604060208201526000611b40604083018486611a11565b9594505050505056fea2646970667358221220a4b3d87ee260823e469e1809e9a5f0e7837250b1f1eef50e14539dedb60a635264736f6c63430008110033",
    "linkReferences": {}
  },
  "methodIdentifiers": {
    "EXPIRY_TIME()": "4b602282",
    "cancelOracleRequest(bytes32,uint256,bytes4,uint256)": "6ee4d553",
    "convertIntToBytes32Array(int256[])": "715d342f",
    "convertStringToBytes32Array(string[])": "5fdb23ca",
    "convertToBytes(uint256)": "466703c5",
    "convertUintToBytes32(uint256[])": "3be2c1d8",
    "fulfillOracleFundingRateRequest(bytes32,address[],uint256[],uint256[])": "38540d9c",
    "fulfillOracleOjectRequest(bytes32,bytes32)": "e030ba66",
    "fulfillOracleStatusRequest(bytes32,string)": "c5e639ca",
    "getChainlinkToken()": "165d35e1",
    "onTokenTransfer(address,uint256,bytes)": "a4c0ed36",
    "oracleRequest(address,uint256,bytes32,address,bytes4,uint256,uint256,bytes)": "40429946",
    "uintToBytes32(uint256)": "886d3db9"
  },
  "id": 23
}