{
  "abi": [
    {
      "inputs": [
        {
          "internalType": "address",
          "name": "_link",
          "type": "address"
        }
      ],
      "stateMutability": "nonpayable",
      "type": "constructor"
    },
    {
      "anonymous": false,
      "inputs": [
        {
          "indexed": true,
          "internalType": "bytes32",
          "name": "requestId",
          "type": "bytes32"
        }
      ],
      "name": "CancelOracleRequest",
      "type": "event"
    },
    {
      "anonymous": false,
      "inputs": [
        {
          "indexed": true,
          "internalType": "bytes32",
          "name": "specId",
          "type": "bytes32"
        },
        {
          "indexed": false,
          "internalType": "address",
          "name": "requester",
          "type": "address"
        },
        {
          "indexed": false,
          "internalType": "bytes32",
          "name": "requestId",
          "type": "bytes32"
        },
        {
          "indexed": false,
          "internalType": "uint256",
          "name": "payment",
          "type": "uint256"
        },
        {
          "indexed": false,
          "internalType": "address",
          "name": "callbackAddr",
          "type": "address"
        },
        {
          "indexed": false,
          "internalType": "bytes4",
          "name": "callbackFunctionId",
          "type": "bytes4"
        },
        {
          "indexed": false,
          "internalType": "uint256",
          "name": "cancelExpiration",
          "type": "uint256"
        },
        {
          "indexed": false,
          "internalType": "uint256",
          "name": "dataVersion",
          "type": "uint256"
        },
        {
          "indexed": false,
          "internalType": "bytes",
          "name": "data",
          "type": "bytes"
        }
      ],
      "name": "OracleRequest",
      "type": "event"
    },
    {
      "inputs": [],
      "name": "EXPIRY_TIME",
      "outputs": [
        {
          "internalType": "uint256",
          "name": "",
          "type": "uint256"
        }
      ],
      "stateMutability": "view",
      "type": "function"
    },
    {
      "inputs": [
        {
          "internalType": "bytes32",
          "name": "_requestId",
          "type": "bytes32"
        },
        {
          "internalType": "uint256",
          "name": "_payment",
          "type": "uint256"
        },
        {
          "internalType": "bytes4",
          "name": "",
          "type": "bytes4"
        },
        {
          "internalType": "uint256",
          "name": "_expiration",
          "type": "uint256"
        }
      ],
      "name": "cancelOracleRequest",
      "outputs": [],
      "stateMutability": "nonpayable",
      "type": "function"
    },
    {
      "inputs": [
        {
          "internalType": "int256[]",
          "name": "intArray",
          "type": "int256[]"
        }
      ],
      "name": "convertIntToBytes32Array",
      "outputs": [
        {
          "internalType": "bytes32[]",
          "name": "",
          "type": "bytes32[]"
        }
      ],
      "stateMutability": "pure",
      "type": "function"
    },
    {
      "inputs": [
        {
          "internalType": "string[]",
          "name": "stringArray",
          "type": "string[]"
        }
      ],
      "name": "convertStringToBytes32Array",
      "outputs": [
        {
          "internalType": "bytes32[]",
          "name": "",
          "type": "bytes32[]"
        }
      ],
      "stateMutability": "pure",
      "type": "function"
    },
    {
      "inputs": [
        {
          "internalType": "uint256",
          "name": "value",
          "type": "uint256"
        }
      ],
      "name": "convertToBytes",
      "outputs": [
        {
          "internalType": "bytes",
          "name": "",
          "type": "bytes"
        }
      ],
      "stateMutability": "pure",
      "type": "function"
    },
    {
      "inputs": [
        {
          "internalType": "uint256[]",
          "name": "uintArray",
          "type": "uint256[]"
        }
      ],
      "name": "convertUintToBytes32",
      "outputs": [
        {
          "internalType": "bytes32[]",
          "name": "",
          "type": "bytes32[]"
        }
      ],
      "stateMutability": "pure",
      "type": "function"
    },
    {
      "inputs": [
        {
          "internalType": "bytes32",
          "name": "_requestId",
          "type": "bytes32"
        },
        {
          "internalType": "address[]",
          "name": "_tokens",
          "type": "address[]"
        },
        {
          "internalType": "uint256[]",
          "name": "_marketCapShares",
          "type": "uint256[]"
        },
        {
          "internalType": "uint256[]",
          "name": "_swapVersions",
          "type": "uint256[]"
        }
      ],
      "name": "fulfillOracleFundingRateRequest",
      "outputs": [
        {
          "internalType": "bool",
          "name": "",
          "type": "bool"
        }
      ],
      "stateMutability": "nonpayable",
      "type": "function"
    },
    {
      "inputs": [
        {
          "internalType": "bytes32",
          "name": "_requestId",
          "type": "bytes32"
        },
        {
          "internalType": "bytes32",
          "name": "_data",
          "type": "bytes32"
        }
      ],
      "name": "fulfillOracleOjectRequest",
      "outputs": [
        {
          "internalType": "bool",
          "name": "",
          "type": "bool"
        }
      ],
      "stateMutability": "nonpayable",
      "type": "function"
    },
    {
      "inputs": [
        {
          "internalType": "bytes32",
          "name": "_requestId",
          "type": "bytes32"
        },
        {
          "internalType": "string",
          "name": "_data",
          "type": "string"
        }
      ],
      "name": "fulfillOracleStatusRequest",
      "outputs": [
        {
          "internalType": "bool",
          "name": "",
          "type": "bool"
        }
      ],
      "stateMutability": "nonpayable",
      "type": "function"
    },
    {
      "inputs": [],
      "name": "getChainlinkToken",
      "outputs": [
        {
          "internalType": "address",
          "name": "",
          "type": "address"
        }
      ],
      "stateMutability": "view",
      "type": "function"
    },
    {
      "inputs": [
        {
          "internalType": "address",
          "name": "_sender",
          "type": "address"
        },
        {
          "internalType": "uint256",
          "name": "_amount",
          "type": "uint256"
        },
        {
          "internalType": "bytes",
          "name": "_data",
          "type": "bytes"
        }
      ],
      "name": "onTokenTransfer",
      "outputs": [],
      "stateMutability": "nonpayable",
      "type": "function"
    },
    {
      "inputs": [
        {
          "internalType": "address",
          "name": "_sender",
          "type": "address"
        },
        {
          "internalType": "uint256",
          "name": "_payment",
          "type": "uint256"
        },
        {
          "internalType": "bytes32",
          "name": "_specId",
          "type": "bytes32"
        },
        {
          "internalType": "address",
          "name": "_callbackAddress",
          "type": "address"
        },
        {
          "internalType": "bytes4",
          "name": "_callbackFunctionId",
          "type": "bytes4"
        },
        {
          "internalType": "uint256",
          "name": "_nonce",
          "type": "uint256"
        },
        {
          "internalType": "uint256",
          "name": "_dataVersion",
          "type": "uint256"
        },
        {
          "internalType": "bytes",
          "name": "_data",
          "type": "bytes"
        }
      ],
      "name": "oracleRequest",
      "outputs": [],
      "stateMutability": "nonpayable",
      "type": "function"
    },
    {
      "inputs": [
        {
          "internalType": "uint256",
          "name": "myUint",
          "type": "uint256"
        }
      ],
      "name": "uintToBytes32",
      "outputs": [
        {
          "internalType": "bytes32",
          "name": "myBytes32",
          "type": "bytes32"
        }
      ],
      "stateMutability": "pure",
      "type": "function"
    }
  ],
  "bytecode": {
    "object": "0x608060405234801561001057600080fd5b50604051611c52380380611c5283398101604081905261002f91610054565b600080546001600160a01b0319166001600160a01b0392909216919091179055610084565b60006020828403121561006657600080fd5b81516001600160a01b038116811461007d57600080fd5b9392505050565b611bbf806100936000396000f3fe608060405234801561001057600080fd5b50600436106100cf5760003560e01c80635fdb23ca1161008c578063886d3db911610066578063886d3db9146101bc578063a4c0ed36146101cd578063c5e639ca146101e0578063e030ba66146101f357600080fd5b80635fdb23ca146101835780636ee4d55314610196578063715d342f146101a957600080fd5b8063165d35e1146100d457806338540d9c146100f45780633be2c1d8146101175780634042994614610137578063466703c51461014c5780634b6022821461016c575b600080fd5b6000546040516001600160a01b0390911681526020015b60405180910390f35b610107610102366004611585565b610206565b60405190151581526020016100eb565b61012a610125366004611527565b61045c565b6040516100eb919061185e565b61014a6101453660046112be565b61060d565b005b61015f61015a366004611725565b610850565b6040516100eb9190611944565b61017561012c81565b6040519081526020016100eb565b61012a61019136600461145d565b61087e565b61014a6101a43660046116e8565b61094c565b61012a6101b73660046113c6565b610ac9565b6101756101ca366004611725565b90565b61014a6101db36600461135c565b610beb565b6101076101ee36600461169d565b610dc3565b61010761020136600461167b565b610f29565b60008481526001602052604081205485906001600160a01b03166102455760405162461bcd60e51b815260040161023c90611977565b60405180910390fd5b6000868152600160208181526040808420815180830190925280546001600160a01b03811683526001600160e01b0319600160a01b820460e01b1683850152948b9052929091526001600160c01b0319909216905562061a805a10156102bd5760405162461bcd60e51b815260040161023c906119d6565b604080516001808252818301909252600091602080830190803683370190505090506000816000815181106102f4576102f4611b5d565b6001600160a01b03929092166020928302919091019091015260408051600180825281830190925260009181602001602082028036833701905050905068056bc75e2d631000008160008151811061034e5761034e611b5d565b602090810291909101015260408051600180825281830190925260009181602001602082028036833701905050905060038160008151811061039257610392611b5d565b602002602001018181525050600084600001516001600160a01b031685602001518c8c8c8c6040516024016103ca94939291906118a2565b60408051601f198184030181529181526020820180516001600160e01b03166001600160e01b031990941693909317909252905161040891906117d8565b6000604051808303816000865af19150503d8060008114610445576040519150601f19603f3d011682016040523d82523d6000602084013e61044a565b606091505b50909c9b505050505050505050505050565b80516060908061047e5760405162461bcd60e51b815260040161023c906119ae565b6000602061048d83601f611a5e565b6104979190611a76565b90506000816001600160401b038111156104b3576104b3611b73565b6040519080825280602002602001820160405280156104dc578160200160208202803683370190505b50905060005b828110156106045760006104f7826020611a8a565b90506000610506826020611a5e565b9050858111156105135750845b600061051f8383611aa9565b6001600160401b0381111561053657610536611b73565b60405190808252806020026020018201604052801561055f578160200160208202803683370190505b509050825b828110156105c05789818151811061057e5761057e611b5d565b60200260200101518285836105939190611aa9565b815181106105a3576105a3611b5d565b6020908102919091010152806105b881611aec565b915050610564565b5060006105cc8261108d565b9050808686815181106105e1576105e1611b5d565b6020026020010181815250505050505080806105fc90611aec565b9150506104e2565b50949350505050565b6000546001600160a01b0316331461065d5760405162461bcd60e51b815260206004820152601360248201527226bab9ba103ab9b2902624a725903a37b5b2b760691b604482015260640161023c565b60005486906001600160a01b03808316911614156106bd5760405162461bcd60e51b815260206004820152601760248201527f43616e6e6f742063616c6c6261636b20746f204c494e4b000000000000000000604482015260640161023c565b6040516bffffffffffffffffffffffff1960608c901b1660208201526034810186905260009060540160408051601f198184030181529181528151602092830120600081815260019093529120549091506001600160a01b03161561075b5760405162461bcd60e51b8152602060048201526014602482015273135d5cdd081d5cd94818481d5b9a5c5d5948125160621b604482015260640161023c565b60006107694261012c611120565b905060405180604001604052808a6001600160a01b03168152602001896001600160e01b0319168152506001600084815260200190815260200160002060008201518160000160006101000a8154816001600160a01b0302191690836001600160a01b0316021790555060208201518160000160146101000a81548163ffffffff021916908360e01c0217905550905050897fd8d7ecc4800d25fa53ce0372f13a416d98907a7ef3d8d3bdd79cf4fe75529c658d848e8d8d878d8d8d60405161083a999897969594939291906117f4565b60405180910390a2505050505050505050505050565b606060008260405160200161086791815260200190565b60408051601f198184030181529190529392505050565b8051606090806108a05760405162461bcd60e51b815260040161023c906119ae565b6000816001600160401b038111156108ba576108ba611b73565b6040519080825280602002602001820160405280156108e3578160200160208202803683370190505b50905060005b828110156109445761091585828151811061090657610906611b5d565b60200260200101516020015190565b82828151811061092757610927611b5d565b60209081029190910101528061093c81611aec565b9150506108e9565b509392505050565b6000848152600160205260409020546001600160a01b03166109a75760405162461bcd60e51b8152602060048201526014602482015273135d5cdd081d5cd94818481d5b9a5c5d5948125160621b604482015260640161023c565b428111156109f05760405162461bcd60e51b815260206004820152601660248201527514995c5d595cdd081a5cc81b9bdd08195e1c1a5c995960521b604482015260640161023c565b60008481526001602052604080822080546001600160c01b03191690555185917fa7842b9ec549398102c0d91b1b9919b2f20558aefdadf57528a95c6cd3292e9391a260005460405163a9059cbb60e01b8152336004820152602481018590526001600160a01b039091169063a9059cbb90604401602060405180830381600087803b158015610a7f57600080fd5b505af1158015610a93573d6000803e3d6000fd5b505050506040513d601f19601f82011682018060405250810190610ab79190611563565b610ac357610ac3611b1b565b50505050565b6060600082604051602001610ade91906117a2565b60408051601f19818403018152919052835190915080610b105760405162461bcd60e51b815260040161023c906119ae565b60208251610b1e9190611b07565b15610b625760405162461bcd60e51b8152602060048201526014602482015273092dcecc2d8d2c840c2e4e4c2f240d8cadccee8d60631b604482015260640161023c565b6000816001600160401b03811115610b7c57610b7c611b73565b604051908082528060200260200182016040528015610ba5578160200160208202803683370190505b50905060005b8281101561060457602080820285010151828281518110610bce57610bce611b5d565b602090810291909101015280610be381611aec565b915050610bab565b6000546001600160a01b03163314610c3b5760405162461bcd60e51b815260206004820152601360248201527226bab9ba103ab9b2902624a725903a37b5b2b760691b604482015260640161023c565b80610c4860026020611a8a565b610c53906004611a5e565b81511015610c9c5760405162461bcd60e51b8152602060048201526016602482015275092dcecc2d8d2c840e4cae2eacae6e840d8cadccee8d60531b604482015260640161023c565b602082015182906001600160e01b031981166320214ca360e11b14610d035760405162461bcd60e51b815260206004820152601e60248201527f4d757374207573652077686974656c69737465642066756e6374696f6e730000604482015260640161023c565b8560248501528460448501526000306001600160a01b031685604051610d2991906117d8565b600060405180830381855af49150503d8060008114610d64576040519150601f19603f3d011682016040523d82523d6000602084013e610d69565b606091505b5050905080610dba5760405162461bcd60e51b815260206004820152601860248201527f556e61626c6520746f2063726561746520726571756573740000000000000000604482015260640161023c565b50505050505050565b60008381526001602052604081205484906001600160a01b0316610df95760405162461bcd60e51b815260040161023c90611977565b6000858152600160208181526040808420815180830190925280546001600160a01b03811683526001600160e01b0319600160a01b820460e01b1683850152948a9052929091526001600160c01b0319909216905562061a805a1015610e715760405162461bcd60e51b815260040161023c906119d6565b600081600001516001600160a01b03168260200151888888604051602401610e9b93929190611921565b60408051601f198184030181529181526020820180516001600160e01b03166001600160e01b0319909416939093179092529051610ed991906117d8565b6000604051808303816000865af19150503d8060008114610f16576040519150601f19603f3d011682016040523d82523d6000602084013e610f1b565b606091505b509098975050505050505050565b60008281526001602052604081205483906001600160a01b0316610f5f5760405162461bcd60e51b815260040161023c90611977565b6000848152600160208181526040808420815180830190925280546001600160a01b03811683526001600160e01b0319600160a01b820460e01b168385015294899052929091526001600160c01b0319909216905562061a805a1015610fd75760405162461bcd60e51b815260040161023c906119d6565b8051602082015160405160248101889052604481018790526000926001600160a01b0316919060640160408051601f198184030181529181526020820180516001600160e01b03166001600160e01b031990941693909317909252905161103e91906117d8565b6000604051808303816000865af19150503d806000811461107b576040519150601f19603f3d011682016040523d82523d6000602084013e611080565b606091505b5090979650505050505050565b6000808251602061109e9190611a8a565b6001600160401b038111156110b5576110b5611b73565b6040519080825280601f01601f1916602001820160405280156110df576020820181803683370190505b50905060005b8351811015611115576020810260200184015160208202602001830152808061110d90611aec565b9150506110e5565b506020015192915050565b60008061112d8385611a5e565b90508381101561117f5760405162461bcd60e51b815260206004820152601b60248201527f536166654d6174683a206164646974696f6e206f766572666c6f770000000000604482015260640161023c565b9392505050565b60006001600160401b0383111561119f5761119f611b73565b6111b2601f8401601f1916602001611a0b565b90508281528383830111156111c657600080fd5b828260208301376000602084830101529392505050565b80356001600160a01b03811681146111f457600080fd5b919050565b600082601f83011261120a57600080fd5b8135602061121f61121a83611a3b565b611a0b565b80838252828201915082860187848660051b890101111561123f57600080fd5b60005b8581101561108057813584529284019290840190600101611242565b80356001600160e01b0319811681146111f457600080fd5b60008083601f84011261128857600080fd5b5081356001600160401b0381111561129f57600080fd5b6020830191508360208285010111156112b757600080fd5b9250929050565b60008060008060008060008060006101008a8c0312156112dd57600080fd5b6112e68a6111dd565b985060208a0135975060408a0135965061130260608b016111dd565b955061131060808b0161125e565b945060a08a0135935060c08a0135925060e08a01356001600160401b0381111561133957600080fd5b6113458c828d01611276565b915080935050809150509295985092959850929598565b60008060006060848603121561137157600080fd5b61137a846111dd565b92506020840135915060408401356001600160401b0381111561139c57600080fd5b8401601f810186136113ad57600080fd5b6113bc86823560208401611186565b9150509250925092565b600060208083850312156113d957600080fd5b82356001600160401b038111156113ef57600080fd5b8301601f8101851361140057600080fd5b803561140e61121a82611a3b565b80828252848201915084840188868560051b870101111561142e57600080fd5b600094505b83851015611451578035835260019490940193918501918501611433565b50979650505050505050565b6000602080838503121561147057600080fd5b82356001600160401b038082111561148757600080fd5b818501915085601f83011261149b57600080fd5b81356114a961121a82611a3b565b80828252858201915085850189878560051b88010111156114c957600080fd5b60005b84811015611518578135868111156114e357600080fd5b8701603f81018c136114f457600080fd5b6115058c8a83013560408401611186565b85525092870192908701906001016114cc565b50909998505050505050505050565b60006020828403121561153957600080fd5b81356001600160401b0381111561154f57600080fd5b61155b848285016111f9565b949350505050565b60006020828403121561157557600080fd5b8151801515811461117f57600080fd5b6000806000806080858703121561159b57600080fd5b843593506020808601356001600160401b03808211156115ba57600080fd5b818801915088601f8301126115ce57600080fd5b81356115dc61121a82611a3b565b8082825285820191508585018c878560051b88010111156115fc57600080fd5b600095505b8386101561162657611612816111dd565b835260019590950194918601918601611601565b5097505050604088013592508083111561163f57600080fd5b61164b89848a016111f9565b9450606088013592508083111561166157600080fd5b505061166f878288016111f9565b91505092959194509250565b6000806040838503121561168e57600080fd5b50508035926020909101359150565b6000806000604084860312156116b257600080fd5b8335925060208401356001600160401b038111156116cf57600080fd5b6116db86828701611276565b9497909650939450505050565b600080600080608085870312156116fe57600080fd5b84359350602085013592506117156040860161125e565b9396929550929360600135925050565b60006020828403121561173757600080fd5b5035919050565b600081518084526020808501945080840160005b8381101561176e57815187529582019590820190600101611752565b509495945050505050565b81835281816020850137506000828201602090810191909152601f909101601f19169091010190565b815160009082906020808601845b838110156117cc578151855293820193908201906001016117b0565b50929695505050505050565b600082516117ea818460208701611ac0565b9190910192915050565b6001600160a01b038a81168252602082018a905260408201899052871660608201526001600160e01b03198616608082015260a0810185905260c0810184905261010060e0820181905260009061184e8382018587611779565b9c9b505050505050505050505050565b6020808252825182820181905260009190848201906040850190845b818110156118965783518352928401929184019160010161187a565b50909695505050505050565b600060808201868352602060808185015281875180845260a086019150828901935060005b818110156118ec5784516001600160a01b0316835293830193918301916001016118c7565b50508481036040860152611900818861173e565b925050508281036060840152611916818561173e565b979650505050505050565b83815260406020820152600061193b604083018486611779565b95945050505050565b6020815260008251806020840152611963816040850160208701611ac0565b601f01601f19169190910160400192915050565b6020808252601b908201527f4d757374206861766520612076616c6964207265717565737449640000000000604082015260600190565b6020808252600e908201526d417272617920697320656d70747960901b604082015260600190565b6020808252818101527f4d7573742070726f7669646520636f6e73756d657220656e6f75676820676173604082015260600190565b604051601f8201601f191681016001600160401b0381118282101715611a3357611a33611b73565b604052919050565b60006001600160401b03821115611a5457611a54611b73565b5060051b60200190565b60008219821115611a7157611a71611b31565b500190565b600082611a8557611a85611b47565b500490565b6000816000190483118215151615611aa457611aa4611b31565b500290565b600082821015611abb57611abb611b31565b500390565b60005b83811015611adb578181015183820152602001611ac3565b83811115610ac35750506000910152565b6000600019821415611b0057611b00611b31565b5060010190565b600082611b1657611b16611b47565b500690565b634e487b7160e01b600052600160045260246000fd5b634e487b7160e01b600052601160045260246000fd5b634e487b7160e01b600052601260045260246000fd5b634e487b7160e01b600052603260045260246000fd5b634e487b7160e01b600052604160045260246000fdfea2646970667358221220449b15ee745fce7cc794825f9bf781cc002f7a6d13752dc1015351f7621507cc64736f6c63430008070033",
    "linkReferences": {}
  },
  "methodIdentifiers": {
    "EXPIRY_TIME()": "4b602282",
    "cancelOracleRequest(bytes32,uint256,bytes4,uint256)": "6ee4d553",
    "convertIntToBytes32Array(int256[])": "715d342f",
    "convertStringToBytes32Array(string[])": "5fdb23ca",
    "convertToBytes(uint256)": "466703c5",
    "convertUintToBytes32(uint256[])": "3be2c1d8",
    "fulfillOracleFundingRateRequest(bytes32,address[],uint256[],uint256[])": "38540d9c",
    "fulfillOracleOjectRequest(bytes32,bytes32)": "e030ba66",
    "fulfillOracleStatusRequest(bytes32,string)": "c5e639ca",
    "getChainlinkToken()": "165d35e1",
    "onTokenTransfer(address,uint256,bytes)": "a4c0ed36",
    "oracleRequest(address,uint256,bytes32,address,bytes4,uint256,uint256,bytes)": "40429946",
    "uintToBytes32(uint256)": "886d3db9"
  },
  "id": 20
}