{"abi":[{"type":"constructor","inputs":[{"name":"_link","type":"address","internalType":"address"}],"stateMutability":"nonpayable"},{"type":"function","name":"EXPIRY_TIME","inputs":[],"outputs":[{"name":"","type":"uint256","internalType":"uint256"}],"stateMutability":"view"},{"type":"function","name":"cancelOracleRequest","inputs":[{"name":"_requestId","type":"bytes32","internalType":"bytes32"},{"name":"_payment","type":"uint256","internalType":"uint256"},{"name":"","type":"bytes4","internalType":"bytes4"},{"name":"_expiration","type":"uint256","internalType":"uint256"}],"outputs":[],"stateMutability":"nonpayable"},{"type":"function","name":"fulfillOracleFundingRateRequest","inputs":[{"name":"_requestId","type":"bytes32","internalType":"bytes32"},{"name":"_tokens","type":"address[]","internalType":"address[]"},{"name":"_marketCapShares","type":"uint256[]","internalType":"uint256[]"},{"name":"_swapVersions","type":"uint256[]","internalType":"uint256[]"}],"outputs":[{"name":"","type":"bool","internalType":"bool"}],"stateMutability":"nonpayable"},{"type":"function","name":"getChainlinkToken","inputs":[],"outputs":[{"name":"","type":"address","internalType":"address"}],"stateMutability":"view"},{"type":"function","name":"onTokenTransfer","inputs":[{"name":"_sender","type":"address","internalType":"address"},{"name":"_amount","type":"uint256","internalType":"uint256"},{"name":"_data","type":"bytes","internalType":"bytes"}],"outputs":[],"stateMutability":"nonpayable"},{"type":"function","name":"oracleRequest","inputs":[{"name":"_sender","type":"address","internalType":"address"},{"name":"_payment","type":"uint256","internalType":"uint256"},{"name":"_specId","type":"bytes32","internalType":"bytes32"},{"name":"_callbackAddress","type":"address","internalType":"address"},{"name":"_callbackFunctionId","type":"bytes4","internalType":"bytes4"},{"name":"_nonce","type":"uint256","internalType":"uint256"},{"name":"_dataVersion","type":"uint256","internalType":"uint256"},{"name":"_data","type":"bytes","internalType":"bytes"}],"outputs":[],"stateMutability":"nonpayable"},{"type":"event","name":"CancelOracleRequest","inputs":[{"name":"requestId","type":"bytes32","indexed":true,"internalType":"bytes32"}],"anonymous":false},{"type":"event","name":"OracleRequest","inputs":[{"name":"specId","type":"bytes32","indexed":true,"internalType":"bytes32"},{"name":"requester","type":"address","indexed":false,"internalType":"address"},{"name":"requestId","type":"bytes32","indexed":false,"internalType":"bytes32"},{"name":"payment","type":"uint256","indexed":false,"internalType":"uint256"},{"name":"callbackAddr","type":"address","indexed":false,"internalType":"address"},{"name":"callbackFunctionId","type":"bytes4","indexed":false,"internalType":"bytes4"},{"name":"cancelExpiration","type":"uint256","indexed":false,"internalType":"uint256"},{"name":"dataVersion","type":"uint256","indexed":false,"internalType":"uint256"},{"name":"data","type":"bytes","indexed":false,"internalType":"bytes"}],"anonymous":false}],"bytecode":{"object":"0x608060405234801561001057600080fd5b50604051611e1d380380611e1d833981810160405281019061003291906100db565b806000806101000a81548173ffffffffffffffffffffffffffffffffffffffff021916908373ffffffffffffffffffffffffffffffffffffffff16021790555050610108565b600080fd5b600073ffffffffffffffffffffffffffffffffffffffff82169050919050565b60006100a88261007d565b9050919050565b6100b88161009d565b81146100c357600080fd5b50565b6000815190506100d5816100af565b92915050565b6000602082840312156100f1576100f0610078565b5b60006100ff848285016100c6565b91505092915050565b611d06806101176000396000f3fe608060405234801561001057600080fd5b50600436106100625760003560e01c8063165d35e11461006757806338540d9c1461008557806340429946146100b55780634b602282146100d15780636ee4d553146100ef578063a4c0ed361461010b575b600080fd5b61006f610127565b60405161007c9190610c49565b60405180910390f35b61009f600480360381019061009a9190610f2c565b610150565b6040516100ac9190611002565b60405180910390f35b6100cf60048036038101906100ca91906110d0565b610456565b005b6100d9610766565b6040516100e691906111b5565b60405180910390f35b610109600480360381019061010491906111d0565b61076c565b005b610125600480360381019061012091906112ec565b610986565b005b60008060009054906101000a900473ffffffffffffffffffffffffffffffffffffffff16905090565b600084600073ffffffffffffffffffffffffffffffffffffffff166001600083815260200190815260200160002060000160009054906101000a900473ffffffffffffffffffffffffffffffffffffffff1673ffffffffffffffffffffffffffffffffffffffff16036101f8576040517f08c379a00000000000000000000000000000000000000000000000000000000081526004016101ef906113b8565b60405180910390fd5b6000600160008881526020019081526020016000206040518060400160405290816000820160009054906101000a900473ffffffffffffffffffffffffffffffffffffffff1673ffffffffffffffffffffffffffffffffffffffff1673ffffffffffffffffffffffffffffffffffffffff1681526020016000820160149054906101000a900460e01b7bffffffffffffffffffffffffffffffffffffffffffffffffffffffff19167bffffffffffffffffffffffffffffffffffffffffffffffffffffffff191681525050905060016000888152602001908152602001600020600080820160006101000a81549073ffffffffffffffffffffffffffffffffffffffff02191690556000820160146101000a81549063ffffffff0219169055505062061a805a101561035f576040517f08c379a000000000000000000000000000000000000000000000000000000000815260040161035690611424565b60405180910390fd5b6000816000015173ffffffffffffffffffffffffffffffffffffffff1682602001518989898960405160240161039894939291906115cf565b604051602081830303815290604052907bffffffffffffffffffffffffffffffffffffffffffffffffffffffff19166020820180517bffffffffffffffffffffffffffffffffffffffffffffffffffffffff8381831617835250505050604051610402919061169a565b6000604051808303816000865af19150503d806000811461043f576040519150601f19603f3d011682016040523d82523d6000602084013e610444565b606091505b50509050809350505050949350505050565b61045e610127565b73ffffffffffffffffffffffffffffffffffffffff163373ffffffffffffffffffffffffffffffffffffffff16146104cb576040517f08c379a00000000000000000000000000000000000000000000000000000000081526004016104c2906116fd565b60405180910390fd5b8560008054906101000a900473ffffffffffffffffffffffffffffffffffffffff1673ffffffffffffffffffffffffffffffffffffffff168173ffffffffffffffffffffffffffffffffffffffff160361055a576040517f08c379a000000000000000000000000000000000000000000000000000000000815260040161055190611769565b60405180910390fd5b60008a8660405160200161056f9291906117f2565b604051602081830303815290604052805190602001209050600073ffffffffffffffffffffffffffffffffffffffff166001600083815260200190815260200160002060000160009054906101000a900473ffffffffffffffffffffffffffffffffffffffff1673ffffffffffffffffffffffffffffffffffffffff161461062c576040517f08c379a00000000000000000000000000000000000000000000000000000000081526004016106239061186a565b60405180910390fd5b600061064361012c42610baa90919063ffffffff16565b905060405180604001604052808a73ffffffffffffffffffffffffffffffffffffffff168152602001897bffffffffffffffffffffffffffffffffffffffffffffffffffffffff19168152506001600084815260200190815260200160002060008201518160000160006101000a81548173ffffffffffffffffffffffffffffffffffffffff021916908373ffffffffffffffffffffffffffffffffffffffff16021790555060208201518160000160146101000a81548163ffffffff021916908360e01c0217905550905050897fd8d7ecc4800d25fa53ce0372f13a416d98907a7ef3d8d3bdd79cf4fe75529c658d848e8d8d878d8d8d604051610750999897969594939291906118d7565b60405180910390a2505050505050505050505050565b61012c81565b600073ffffffffffffffffffffffffffffffffffffffff166001600086815260200190815260200160002060000160009054906101000a900473ffffffffffffffffffffffffffffffffffffffff1673ffffffffffffffffffffffffffffffffffffffff1603610811576040517f08c379a00000000000000000000000000000000000000000000000000000000081526004016108089061186a565b60405180910390fd5b42811115610854576040517f08c379a000000000000000000000000000000000000000000000000000000000815260040161084b906119aa565b60405180910390fd5b60016000858152602001908152602001600020600080820160006101000a81549073ffffffffffffffffffffffffffffffffffffffff02191690556000820160146101000a81549063ffffffff02191690555050837fa7842b9ec549398102c0d91b1b9919b2f20558aefdadf57528a95c6cd3292e9360405160405180910390a260008054906101000a900473ffffffffffffffffffffffffffffffffffffffff1673ffffffffffffffffffffffffffffffffffffffff1663a9059cbb33856040518363ffffffff1660e01b81526004016109309291906119ca565b6020604051808303816000875af115801561094f573d6000803e3d6000fd5b505050506040513d601f19601f820116820180604052508101906109739190611a1f565b6109805761097f611a4c565b5b50505050565b61098e610127565b73ffffffffffffffffffffffffffffffffffffffff163373ffffffffffffffffffffffffffffffffffffffff16146109fb576040517f08c379a00000000000000000000000000000000000000000000000000000000081526004016109f2906116fd565b60405180910390fd5b8060026020610a0a9190611aaa565b6004610a169190611aec565b81511015610a59576040517f08c379a0000000000000000000000000000000000000000000000000000000008152600401610a5090611b6c565b60405180910390fd5b81600060208201519050634042994660e01b7bffffffffffffffffffffffffffffffffffffffffffffffffffffffff1916817bffffffffffffffffffffffffffffffffffffffffffffffffffffffff191614610aea576040517f08c379a0000000000000000000000000000000000000000000000000000000008152600401610ae190611bd8565b60405180910390fd5b85602485015284604485015260003073ffffffffffffffffffffffffffffffffffffffff1685604051610b1d919061169a565b600060405180830381855af49150503d8060008114610b58576040519150601f19603f3d011682016040523d82523d6000602084013e610b5d565b606091505b5050905080610ba1576040517f08c379a0000000000000000000000000000000000000000000000000000000008152600401610b9890611c44565b60405180910390fd5b50505050505050565b6000808284610bb99190611aec565b905083811015610bfe576040517f08c379a0000000000000000000000000000000000000000000000000000000008152600401610bf590611cb0565b60405180910390fd5b8091505092915050565b600073ffffffffffffffffffffffffffffffffffffffff82169050919050565b6000610c3382610c08565b9050919050565b610c4381610c28565b82525050565b6000602082019050610c5e6000830184610c3a565b92915050565b6000604051905090565b600080fd5b600080fd5b6000819050919050565b610c8b81610c78565b8114610c9657600080fd5b50565b600081359050610ca881610c82565b92915050565b600080fd5b6000601f19601f8301169050919050565b7f4e487b7100000000000000000000000000000000000000000000000000000000600052604160045260246000fd5b610cfc82610cb3565b810181811067ffffffffffffffff82111715610d1b57610d1a610cc4565b5b80604052505050565b6000610d2e610c64565b9050610d3a8282610cf3565b919050565b600067ffffffffffffffff821115610d5a57610d59610cc4565b5b602082029050602081019050919050565b600080fd5b610d7981610c28565b8114610d8457600080fd5b50565b600081359050610d9681610d70565b92915050565b6000610daf610daa84610d3f565b610d24565b90508083825260208201905060208402830185811115610dd257610dd1610d6b565b5b835b81811015610dfb5780610de78882610d87565b845260208401935050602081019050610dd4565b5050509392505050565b600082601f830112610e1a57610e19610cae565b5b8135610e2a848260208601610d9c565b91505092915050565b600067ffffffffffffffff821115610e4e57610e4d610cc4565b5b602082029050602081019050919050565b6000819050919050565b610e7281610e5f565b8114610e7d57600080fd5b50565b600081359050610e8f81610e69565b92915050565b6000610ea8610ea384610e33565b610d24565b90508083825260208201905060208402830185811115610ecb57610eca610d6b565b5b835b81811015610ef45780610ee08882610e80565b845260208401935050602081019050610ecd565b5050509392505050565b600082601f830112610f1357610f12610cae565b5b8135610f23848260208601610e95565b91505092915050565b60008060008060808587031215610f4657610f45610c6e565b5b6000610f5487828801610c99565b945050602085013567ffffffffffffffff811115610f7557610f74610c73565b5b610f8187828801610e05565b935050604085013567ffffffffffffffff811115610fa257610fa1610c73565b5b610fae87828801610efe565b925050606085013567ffffffffffffffff811115610fcf57610fce610c73565b5b610fdb87828801610efe565b91505092959194509250565b60008115159050919050565b610ffc81610fe7565b82525050565b60006020820190506110176000830184610ff3565b92915050565b60007fffffffff0000000000000000000000000000000000000000000000000000000082169050919050565b6110528161101d565b811461105d57600080fd5b50565b60008135905061106f81611049565b92915050565b600080fd5b60008083601f8401126110905761108f610cae565b5b8235905067ffffffffffffffff8111156110ad576110ac611075565b5b6020830191508360018202830111156110c9576110c8610d6b565b5b9250929050565b60008060008060008060008060006101008a8c0312156110f3576110f2610c6e565b5b60006111018c828d01610d87565b99505060206111128c828d01610e80565b98505060406111238c828d01610c99565b97505060606111348c828d01610d87565b96505060806111458c828d01611060565b95505060a06111568c828d01610e80565b94505060c06111678c828d01610e80565b93505060e08a013567ffffffffffffffff81111561118857611187610c73565b5b6111948c828d0161107a565b92509250509295985092959850929598565b6111af81610e5f565b82525050565b60006020820190506111ca60008301846111a6565b92915050565b600080600080608085870312156111ea576111e9610c6e565b5b60006111f887828801610c99565b945050602061120987828801610e80565b935050604061121a87828801611060565b925050606061122b87828801610e80565b91505092959194509250565b600080fd5b600067ffffffffffffffff82111561125757611256610cc4565b5b61126082610cb3565b9050602081019050919050565b82818337600083830152505050565b600061128f61128a8461123c565b610d24565b9050828152602081018484840111156112ab576112aa611237565b5b6112b684828561126d565b509392505050565b600082601f8301126112d3576112d2610cae565b5b81356112e384826020860161127c565b91505092915050565b60008060006060848603121561130557611304610c6e565b5b600061131386828701610d87565b935050602061132486828701610e80565b925050604084013567ffffffffffffffff81111561134557611344610c73565b5b611351868287016112be565b9150509250925092565b600082825260208201905092915050565b7f4d757374206861766520612076616c6964207265717565737449640000000000600082015250565b60006113a2601b8361135b565b91506113ad8261136c565b602082019050919050565b600060208201905081810360008301526113d181611395565b9050919050565b7f4d7573742070726f7669646520636f6e73756d657220656e6f75676820676173600082015250565b600061140e60208361135b565b9150611419826113d8565b602082019050919050565b6000602082019050818103600083015261143d81611401565b9050919050565b61144d81610c78565b82525050565b600081519050919050565b600082825260208201905092915050565b6000819050602082019050919050565b61148881610c28565b82525050565b600061149a838361147f565b60208301905092915050565b6000602082019050919050565b60006114be82611453565b6114c8818561145e565b93506114d38361146f565b8060005b838110156115045781516114eb888261148e565b97506114f6836114a6565b9250506001810190506114d7565b5085935050505092915050565b600081519050919050565b600082825260208201905092915050565b6000819050602082019050919050565b61154681610e5f565b82525050565b6000611558838361153d565b60208301905092915050565b6000602082019050919050565b600061157c82611511565b611586818561151c565b93506115918361152d565b8060005b838110156115c25781516115a9888261154c565b97506115b483611564565b925050600181019050611595565b5085935050505092915050565b60006080820190506115e46000830187611444565b81810360208301526115f681866114b3565b9050818103604083015261160a8185611571565b9050818103606083015261161e8184611571565b905095945050505050565b600081519050919050565b600081905092915050565b60005b8381101561165d578082015181840152602081019050611642565b60008484015250505050565b600061167482611629565b61167e8185611634565b935061168e81856020860161163f565b80840191505092915050565b60006116a68284611669565b915081905092915050565b7f4d75737420757365204c494e4b20746f6b656e00000000000000000000000000600082015250565b60006116e760138361135b565b91506116f2826116b1565b602082019050919050565b60006020820190508181036000830152611716816116da565b9050919050565b7f43616e6e6f742063616c6c6261636b20746f204c494e4b000000000000000000600082015250565b600061175360178361135b565b915061175e8261171d565b602082019050919050565b6000602082019050818103600083015261178281611746565b9050919050565b60008160601b9050919050565b60006117a182611789565b9050919050565b60006117b382611796565b9050919050565b6117cb6117c682610c28565b6117a8565b82525050565b6000819050919050565b6117ec6117e782610e5f565b6117d1565b82525050565b60006117fe82856117ba565b60148201915061180e82846117db565b6020820191508190509392505050565b7f4d75737420757365206120756e69717565204944000000000000000000000000600082015250565b600061185460148361135b565b915061185f8261181e565b602082019050919050565b6000602082019050818103600083015261188381611847565b9050919050565b6118938161101d565b82525050565b600082825260208201905092915050565b60006118b68385611899565b93506118c383858461126d565b6118cc83610cb3565b840190509392505050565b6000610100820190506118ed600083018c610c3a565b6118fa602083018b611444565b611907604083018a6111a6565b6119146060830189610c3a565b611921608083018861188a565b61192e60a08301876111a6565b61193b60c08301866111a6565b81810360e083015261194e8184866118aa565b90509a9950505050505050505050565b7f52657175657374206973206e6f74206578706972656400000000000000000000600082015250565b600061199460168361135b565b915061199f8261195e565b602082019050919050565b600060208201905081810360008301526119c381611987565b9050919050565b60006040820190506119df6000830185610c3a565b6119ec60208301846111a6565b9392505050565b6119fc81610fe7565b8114611a0757600080fd5b50565b600081519050611a19816119f3565b92915050565b600060208284031215611a3557611a34610c6e565b5b6000611a4384828501611a0a565b91505092915050565b7f4e487b7100000000000000000000000000000000000000000000000000000000600052600160045260246000fd5b7f4e487b7100000000000000000000000000000000000000000000000000000000600052601160045260246000fd5b6000611ab582610e5f565b9150611ac083610e5f565b9250828202611ace81610e5f565b91508282048414831517611ae557611ae4611a7b565b5b5092915050565b6000611af782610e5f565b9150611b0283610e5f565b9250828201905080821115611b1a57611b19611a7b565b5b92915050565b7f496e76616c69642072657175657374206c656e67746800000000000000000000600082015250565b6000611b5660168361135b565b9150611b6182611b20565b602082019050919050565b60006020820190508181036000830152611b8581611b49565b9050919050565b7f4d757374207573652077686974656c69737465642066756e6374696f6e730000600082015250565b6000611bc2601e8361135b565b9150611bcd82611b8c565b602082019050919050565b60006020820190508181036000830152611bf181611bb5565b9050919050565b7f556e61626c6520746f2063726561746520726571756573740000000000000000600082015250565b6000611c2e60188361135b565b9150611c3982611bf8565b602082019050919050565b60006020820190508181036000830152611c5d81611c21565b9050919050565b7f536166654d6174683a206164646974696f6e206f766572666c6f770000000000600082015250565b6000611c9a601b8361135b565b9150611ca582611c64565b602082019050919050565b60006020820190508181036000830152611cc981611c8d565b905091905056fea2646970667358221220e3ee3867b2734b7079e232136a0b67070247506c28b5812d11219e1c8c931b4064736f6c634300081a0033","linkReferences":{}},"methodIdentifiers":{"EXPIRY_TIME()":"4b602282","cancelOracleRequest(bytes32,uint256,bytes4,uint256)":"6ee4d553","fulfillOracleFundingRateRequest(bytes32,address[],uint256[],uint256[])":"38540d9c","getChainlinkToken()":"165d35e1","onTokenTransfer(address,uint256,bytes)":"a4c0ed36","oracleRequest(address,uint256,bytes32,address,bytes4,uint256,uint256,bytes)":"40429946"},"id":20}