{
  "abi": [
    {
      "inputs": [],
      "name": "T",
      "type": "error"
    },
    {
      "anonymous": false,
      "inputs": [
        {
          "indexed": true,
          "internalType": "bytes32",
          "name": "id",
          "type": "bytes32"
        }
      ],
      "name": "ChainlinkCancelled",
      "type": "event"
    },
    {
      "anonymous": false,
      "inputs": [
        {
          "indexed": true,
          "internalType": "bytes32",
          "name": "id",
          "type": "bytes32"
        }
      ],
      "name": "ChainlinkFulfilled",
      "type": "event"
    },
    {
      "anonymous": false,
      "inputs": [
        {
          "indexed": true,
          "internalType": "bytes32",
          "name": "id",
          "type": "bytes32"
        }
      ],
      "name": "ChainlinkRequested",
      "type": "event"
    },
    {
      "anonymous": false,
      "inputs": [
        {
          "indexed": true,
          "internalType": "uint256",
          "name": "feeRatePerDayScaled",
          "type": "uint256"
        }
      ],
      "name": "FeeRateSet",
      "type": "event"
    },
    {
      "anonymous": false,
      "inputs": [
        {
          "indexed": true,
          "internalType": "address",
          "name": "feeReceiver",
          "type": "address"
        }
      ],
      "name": "FeeReceiverSet",
      "type": "event"
    },
    {
      "anonymous": false,
      "inputs": [
        {
          "indexed": false,
          "internalType": "uint8",
          "name": "version",
          "type": "uint8"
        }
      ],
      "name": "Initialized",
      "type": "event"
    },
    {
      "anonymous": false,
      "inputs": [
        {
          "indexed": true,
          "internalType": "address",
          "name": "methodologist",
          "type": "address"
        }
      ],
      "name": "MethodologistSet",
      "type": "event"
    },
    {
      "anonymous": false,
      "inputs": [
        {
          "indexed": false,
          "internalType": "string",
          "name": "methodology",
          "type": "string"
        }
      ],
      "name": "MethodologySet",
      "type": "event"
    },
    {
      "anonymous": false,
      "inputs": [
        {
          "indexed": false,
          "internalType": "address",
          "name": "feeReceiver",
          "type": "address"
        },
        {
          "indexed": false,
          "internalType": "uint256",
          "name": "timestamp",
          "type": "uint256"
        },
        {
          "indexed": false,
          "internalType": "uint256",
          "name": "totalSupply",
          "type": "uint256"
        },
        {
          "indexed": false,
          "internalType": "uint256",
          "name": "amount",
          "type": "uint256"
        }
      ],
      "name": "MintFeeToReceiver",
      "type": "event"
    },
    {
      "anonymous": false,
      "inputs": [
        {
          "indexed": true,
          "internalType": "address",
          "name": "minter",
          "type": "address"
        }
      ],
      "name": "MinterSet",
      "type": "event"
    },
    {
      "anonymous": false,
      "inputs": [
        {
          "indexed": true,
          "internalType": "address",
          "name": "previousOwner",
          "type": "address"
        },
        {
          "indexed": true,
          "internalType": "address",
          "name": "newOwner",
          "type": "address"
        }
      ],
      "name": "OwnershipTransferred",
      "type": "event"
    },
    {
      "anonymous": false,
      "inputs": [
        {
          "indexed": false,
          "internalType": "address",
          "name": "account",
          "type": "address"
        }
      ],
      "name": "Paused",
      "type": "event"
    },
    {
      "anonymous": false,
      "inputs": [
        {
          "indexed": false,
          "internalType": "uint256",
          "name": "supplyCeiling",
          "type": "uint256"
        }
      ],
      "name": "SupplyCeilingSet",
      "type": "event"
    },
    {
      "anonymous": false,
      "inputs": [
        {
          "indexed": true,
          "internalType": "address",
          "name": "account",
          "type": "address"
        },
        {
          "indexed": false,
          "internalType": "bool",
          "name": "isRestricted",
          "type": "bool"
        }
      ],
      "name": "ToggledRestricted",
      "type": "event"
    },
    {
      "anonymous": false,
      "inputs": [
        {
          "indexed": false,
          "internalType": "address",
          "name": "account",
          "type": "address"
        }
      ],
      "name": "Unpaused",
      "type": "event"
    },
    {
      "inputs": [],
      "name": "BONE",
      "outputs": [
        {
          "internalType": "address",
          "name": "",
          "type": "address"
        }
      ],
      "stateMutability": "view",
      "type": "function"
    },
    {
      "inputs": [],
      "name": "BabyDoge",
      "outputs": [
        {
          "internalType": "address",
          "name": "",
          "type": "address"
        }
      ],
      "stateMutability": "view",
      "type": "function"
    },
    {
      "inputs": [],
      "name": "ELON",
      "outputs": [
        {
          "internalType": "address",
          "name": "",
          "type": "address"
        }
      ],
      "stateMutability": "view",
      "type": "function"
    },
    {
      "inputs": [],
      "name": "FLOKI",
      "outputs": [
        {
          "internalType": "address",
          "name": "",
          "type": "address"
        }
      ],
      "stateMutability": "view",
      "type": "function"
    },
    {
      "inputs": [],
      "name": "HarryPotterObamaSonic10Inu",
      "outputs": [
        {
          "internalType": "address",
          "name": "",
          "type": "address"
        }
      ],
      "stateMutability": "view",
      "type": "function"
    },
    {
      "inputs": [],
      "name": "LEASH",
      "outputs": [
        {
          "internalType": "address",
          "name": "",
          "type": "address"
        }
      ],
      "stateMutability": "view",
      "type": "function"
    },
    {
      "inputs": [],
      "name": "MEME",
      "outputs": [
        {
          "internalType": "address",
          "name": "",
          "type": "address"
        }
      ],
      "stateMutability": "view",
      "type": "function"
    },
    {
      "inputs": [],
      "name": "PEPE",
      "outputs": [
        {
          "internalType": "address",
          "name": "",
          "type": "address"
        }
      ],
      "stateMutability": "view",
      "type": "function"
    },
    {
      "inputs": [],
      "name": "QUOTER",
      "outputs": [
        {
          "internalType": "address",
          "name": "",
          "type": "address"
        }
      ],
      "stateMutability": "view",
      "type": "function"
    },
    {
      "inputs": [],
      "name": "SHIB",
      "outputs": [
        {
          "internalType": "address",
          "name": "",
          "type": "address"
        }
      ],
      "stateMutability": "view",
      "type": "function"
    },
    {
      "inputs": [],
      "name": "WETH9",
      "outputs": [
        {
          "internalType": "address",
          "name": "",
          "type": "address"
        }
      ],
      "stateMutability": "view",
      "type": "function"
    },
    {
      "inputs": [],
      "name": "WSM",
      "outputs": [
        {
          "internalType": "address",
          "name": "",
          "type": "address"
        }
      ],
      "stateMutability": "view",
      "type": "function"
    },
    {
      "inputs": [
        {
          "internalType": "uint256",
          "name": "",
          "type": "uint256"
        }
      ],
      "name": "assetList",
      "outputs": [
        {
          "internalType": "address",
          "name": "",
          "type": "address"
        }
      ],
      "stateMutability": "view",
      "type": "function"
    },
    {
      "inputs": [
        {
          "internalType": "string",
          "name": "a",
          "type": "string"
        },
        {
          "internalType": "string",
          "name": "b",
          "type": "string"
        }
      ],
      "name": "concatenation",
      "outputs": [
        {
          "internalType": "string",
          "name": "",
          "type": "string"
        }
      ],
      "stateMutability": "pure",
      "type": "function"
    },
    {
      "inputs": [
        {
          "internalType": "uint256",
          "name": "",
          "type": "uint256"
        }
      ],
      "name": "currentList",
      "outputs": [
        {
          "internalType": "address",
          "name": "",
          "type": "address"
        }
      ],
      "stateMutability": "view",
      "type": "function"
    },
    {
      "inputs": [
        {
          "internalType": "address",
          "name": "tokenIn",
          "type": "address"
        },
        {
          "internalType": "address",
          "name": "tokenOut",
          "type": "address"
        },
        {
          "internalType": "uint128",
          "name": "amountIn",
          "type": "uint128"
        },
        {
          "internalType": "uint32",
          "name": "secondsAgo",
          "type": "uint32"
        }
      ],
      "name": "estimateAmountOut",
      "outputs": [
        {
          "internalType": "uint256",
          "name": "amountOut",
          "type": "uint256"
        }
      ],
      "stateMutability": "view",
      "type": "function"
    },
    {
      "inputs": [],
      "name": "externalJobId",
      "outputs": [
        {
          "internalType": "bytes32",
          "name": "",
          "type": "bytes32"
        }
      ],
      "stateMutability": "view",
      "type": "function"
    },
    {
      "inputs": [],
      "name": "factoryV2",
      "outputs": [
        {
          "internalType": "contract IUniswapV2Factory",
          "name": "",
          "type": "address"
        }
      ],
      "stateMutability": "view",
      "type": "function"
    },
    {
      "inputs": [],
      "name": "factoryV3",
      "outputs": [
        {
          "internalType": "contract IUniswapV3Factory",
          "name": "",
          "type": "address"
        }
      ],
      "stateMutability": "view",
      "type": "function"
    },
    {
      "inputs": [],
      "name": "fee",
      "outputs": [
        {
          "internalType": "uint256",
          "name": "",
          "type": "uint256"
        }
      ],
      "stateMutability": "view",
      "type": "function"
    },
    {
      "inputs": [],
      "name": "feeRatePerDayScaled",
      "outputs": [
        {
          "internalType": "uint256",
          "name": "",
          "type": "uint256"
        }
      ],
      "stateMutability": "view",
      "type": "function"
    },
    {
      "inputs": [],
      "name": "feeReceiver",
      "outputs": [
        {
          "internalType": "address",
          "name": "",
          "type": "address"
        }
      ],
      "stateMutability": "view",
      "type": "function"
    },
    {
      "inputs": [],
      "name": "feeTimestamp",
      "outputs": [
        {
          "internalType": "uint256",
          "name": "",
          "type": "uint256"
        }
      ],
      "stateMutability": "view",
      "type": "function"
    },
    {
      "inputs": [
        {
          "internalType": "bytes32",
          "name": "requestId",
          "type": "bytes32"
        },
        {
          "internalType": "address[]",
          "name": "_tokens",
          "type": "address[]"
        },
        {
          "internalType": "uint256[]",
          "name": "_marketShares",
          "type": "uint256[]"
        },
        {
          "internalType": "uint256[]",
          "name": "_swapVersions",
          "type": "uint256[]"
        }
      ],
      "name": "fulfillFundingRate",
      "outputs": [],
      "stateMutability": "nonpayable",
      "type": "function"
    },
    {
      "inputs": [
        {
          "internalType": "address",
          "name": "tokenIn",
          "type": "address"
        },
        {
          "internalType": "address",
          "name": "tokenOut",
          "type": "address"
        },
        {
          "internalType": "uint256",
          "name": "amountIn",
          "type": "uint256"
        },
        {
          "internalType": "uint256",
          "name": "_swapVersion",
          "type": "uint256"
        }
      ],
      "name": "getAmountOut",
      "outputs": [
        {
          "internalType": "uint256",
          "name": "finalAmountOut",
          "type": "uint256"
        }
      ],
      "stateMutability": "nonpayable",
      "type": "function"
    },
    {
      "inputs": [],
      "name": "getAmounts",
      "outputs": [
        {
          "internalType": "uint256",
          "name": "",
          "type": "uint256"
        },
        {
          "internalType": "uint256",
          "name": "",
          "type": "uint256"
        }
      ],
      "stateMutability": "nonpayable",
      "type": "function"
    },
    {
      "inputs": [],
      "name": "getPool",
      "outputs": [
        {
          "internalType": "address",
          "name": "",
          "type": "address"
        },
        {
          "internalType": "address",
          "name": "",
          "type": "address"
        }
      ],
      "stateMutability": "nonpayable",
      "type": "function"
    },
    {
      "inputs": [],
      "name": "getPortfolioBalance",
      "outputs": [
        {
          "internalType": "uint256",
          "name": "",
          "type": "uint256"
        }
      ],
      "stateMutability": "nonpayable",
      "type": "function"
    },
    {
      "inputs": [],
      "name": "indexToken",
      "outputs": [
        {
          "internalType": "contract IndexToken",
          "name": "",
          "type": "address"
        }
      ],
      "stateMutability": "view",
      "type": "function"
    },
    {
      "inputs": [
        {
          "internalType": "address payable",
          "name": "_token",
          "type": "address"
        },
        {
          "internalType": "address",
          "name": "_nft",
          "type": "address"
        },
        {
          "internalType": "address",
          "name": "_chainlinkToken",
          "type": "address"
        },
        {
          "internalType": "address",
          "name": "_oracleAddress",
          "type": "address"
        },
        {
          "internalType": "bytes32",
          "name": "_externalJobId",
          "type": "bytes32"
        }
      ],
      "name": "initialize",
      "outputs": [],
      "stateMutability": "nonpayable",
      "type": "function"
    },
    {
      "inputs": [
        {
          "internalType": "address",
          "name": "",
          "type": "address"
        }
      ],
      "name": "isRestricted",
      "outputs": [
        {
          "internalType": "bool",
          "name": "",
          "type": "bool"
        }
      ],
      "stateMutability": "view",
      "type": "function"
    },
    {
      "inputs": [
        {
          "internalType": "address",
          "name": "tokenIn",
          "type": "address"
        },
        {
          "internalType": "uint256",
          "name": "amountIn",
          "type": "uint256"
        }
      ],
      "name": "issuanceIndexTokens",
      "outputs": [],
      "stateMutability": "nonpayable",
      "type": "function"
    },
    {
      "inputs": [],
      "name": "issuanceIndexTokensWithEth",
      "outputs": [],
      "stateMutability": "payable",
      "type": "function"
    },
    {
      "inputs": [],
      "name": "lastUpdateTime",
      "outputs": [
        {
          "internalType": "uint256",
          "name": "",
          "type": "uint256"
        }
      ],
      "stateMutability": "view",
      "type": "function"
    },
    {
      "inputs": [],
      "name": "methodologist",
      "outputs": [
        {
          "internalType": "address",
          "name": "",
          "type": "address"
        }
      ],
      "stateMutability": "view",
      "type": "function"
    },
    {
      "inputs": [],
      "name": "methodology",
      "outputs": [
        {
          "internalType": "string",
          "name": "",
          "type": "string"
        }
      ],
      "stateMutability": "view",
      "type": "function"
    },
    {
      "inputs": [],
      "name": "minter",
      "outputs": [
        {
          "internalType": "address",
          "name": "",
          "type": "address"
        }
      ],
      "stateMutability": "view",
      "type": "function"
    },
    {
      "inputs": [],
      "name": "nft",
      "outputs": [
        {
          "internalType": "contract RequestNFT",
          "name": "",
          "type": "address"
        }
      ],
      "stateMutability": "view",
      "type": "function"
    },
    {
      "inputs": [
        {
          "internalType": "uint256",
          "name": "",
          "type": "uint256"
        }
      ],
      "name": "oracleList",
      "outputs": [
        {
          "internalType": "address",
          "name": "",
          "type": "address"
        }
      ],
      "stateMutability": "view",
      "type": "function"
    },
    {
      "inputs": [],
      "name": "oraclePayment",
      "outputs": [
        {
          "internalType": "uint256",
          "name": "",
          "type": "uint256"
        }
      ],
      "stateMutability": "view",
      "type": "function"
    },
    {
      "inputs": [],
      "name": "owner",
      "outputs": [
        {
          "internalType": "address",
          "name": "",
          "type": "address"
        }
      ],
      "stateMutability": "view",
      "type": "function"
    },
    {
      "inputs": [],
      "name": "pause",
      "outputs": [],
      "stateMutability": "nonpayable",
      "type": "function"
    },
    {
      "inputs": [],
      "name": "paused",
      "outputs": [
        {
          "internalType": "bool",
          "name": "",
          "type": "bool"
        }
      ],
      "stateMutability": "view",
      "type": "function"
    },
    {
      "inputs": [
        {
          "internalType": "address",
          "name": "_proposedOwner",
          "type": "address"
        }
      ],
      "name": "proposeOwner",
      "outputs": [],
      "stateMutability": "nonpayable",
      "type": "function"
    },
    {
      "inputs": [],
      "name": "proposedOwner",
      "outputs": [
        {
          "internalType": "address",
          "name": "",
          "type": "address"
        }
      ],
      "stateMutability": "view",
      "type": "function"
    },
    {
      "inputs": [],
      "name": "quoter",
      "outputs": [
        {
          "internalType": "contract IQuoter",
          "name": "",
          "type": "address"
        }
      ],
      "stateMutability": "view",
      "type": "function"
    },
    {
      "inputs": [
        {
          "internalType": "uint256",
          "name": "amountIn",
          "type": "uint256"
        }
      ],
      "name": "redemption",
      "outputs": [],
      "stateMutability": "nonpayable",
      "type": "function"
    },
    {
      "inputs": [],
      "name": "renounceOwnership",
      "outputs": [],
      "stateMutability": "nonpayable",
      "type": "function"
    },
    {
      "inputs": [],
      "name": "requestFundingRate",
      "outputs": [
        {
          "internalType": "bytes32",
          "name": "",
          "type": "bytes32"
        }
      ],
      "stateMutability": "nonpayable",
      "type": "function"
    },
    {
      "inputs": [],
      "name": "sswap",
      "outputs": [],
      "stateMutability": "payable",
      "type": "function"
    },
    {
      "inputs": [],
      "name": "supplyCeiling",
      "outputs": [
        {
          "internalType": "uint256",
          "name": "",
          "type": "uint256"
        }
      ],
      "stateMutability": "view",
      "type": "function"
    },
    {
      "inputs": [],
      "name": "swapGas",
      "outputs": [],
      "stateMutability": "payable",
      "type": "function"
    },
    {
      "inputs": [],
      "name": "swapGas1",
      "outputs": [],
      "stateMutability": "payable",
      "type": "function"
    },
    {
      "inputs": [],
      "name": "swapRouterV2",
      "outputs": [
        {
          "internalType": "contract IUniswapV2Router02",
          "name": "",
          "type": "address"
        }
      ],
      "stateMutability": "view",
      "type": "function"
    },
    {
      "inputs": [],
      "name": "swapRouterV3",
      "outputs": [
        {
          "internalType": "contract ISwapRouter",
          "name": "",
          "type": "address"
        }
      ],
      "stateMutability": "view",
      "type": "function"
    },
    {
      "inputs": [
        {
          "internalType": "address",
          "name": "",
          "type": "address"
        }
      ],
      "name": "tokenMarketShare",
      "outputs": [
        {
          "internalType": "uint256",
          "name": "",
          "type": "uint256"
        }
      ],
      "stateMutability": "view",
      "type": "function"
    },
    {
      "inputs": [
        {
          "internalType": "address",
          "name": "",
          "type": "address"
        }
      ],
      "name": "tokenSwapVersion",
      "outputs": [
        {
          "internalType": "uint256",
          "name": "",
          "type": "uint256"
        }
      ],
      "stateMutability": "view",
      "type": "function"
    },
    {
      "inputs": [
        {
          "internalType": "address",
          "name": "newOwner",
          "type": "address"
        }
      ],
      "name": "transferOwnership",
      "outputs": [],
      "stateMutability": "nonpayable",
      "type": "function"
    },
    {
      "inputs": [],
      "name": "unpause",
      "outputs": [],
      "stateMutability": "nonpayable",
      "type": "function"
    },
    {
      "inputs": [],
      "name": "weth",
      "outputs": [
        {
          "internalType": "contract IWETH",
          "name": "",
          "type": "address"
        }
      ],
      "stateMutability": "view",
      "type": "function"
    },
    {
      "stateMutability": "payable",
      "type": "receive"
    }
  ],
  "bytecode": {
    "object": "0x600160045560db80546001600160a01b0319167395ad61b0a150d79219dcf64e1e6cc01f0b64c4ce9081179091556101c06040526080908152736982508145454ce325ddbe47a25d4ec3d231193360a05273cf0c122c6b73ff809c693db761e7baebe62b6a2e60c05273b131f4a55907b10d1f0a50d8ab8fa09ec342cd7460e05273ac57de9c1a09fec648e93eb98875b212db0d460b61010052739813037ee2218799597d83d4a5b6f3b6778218d9610120527372e4f9f808c49a2a61de9c5896298920dc4eeea96101405273761d38e5ddf6ccf6cf7c55759d5210750b5d60f36101605273b62e45c3df611dce236a6ddc7a493d79f9dfadef610180527327c70cd1946795b66be9d954418546998b5466346101a052620001269060dc90600a620001e5565b506040518060600160405280602a81526020016200534b602a91398051620001579160dd916020909101906200024f565b506040518060600160405280602e815260200162005375602e91398051620001889160de916020909101906200024f565b5060e680546001600160a01b031990811673c02aaa39b223fe8d0a0e5c4f27ead9083c756cc21790915560e7805490911673b27308f9f90d607463bb33ea1bebb41c27ce5ab6179055348015620001de57600080fd5b5062000320565b8280548282559060005260206000209081019282156200023d579160200282015b828111156200023d57825182546001600160a01b0319166001600160a01b0390911617825560209092019160019091019062000206565b506200024b929150620002cc565b5090565b8280546200025d90620002e3565b90600052602060002090601f0160209004810192826200028157600085556200023d565b82601f106200029c57805160ff19168380011785556200023d565b828001600101855582156200023d579182015b828111156200023d578251825591602001919060010190620002af565b5b808211156200024b5760008155600101620002cd565b600181811c90821680620002f857607f821691505b602082108114156200031a57634e487b7160e01b600052602260045260246000fd5b50919050565b61501b80620003306000396000f3fe60806040526004361061039b5760003560e01c80637c10041a116101dc578063b631e80b11610102578063d1a72ed6116100a0578063e4fbaecb1161006f578063e4fbaecb14610a9b578063e7d015f214610ac3578063f2fde38b14610ae3578063fcaae87b14610b0357600080fd5b8063d1a72ed614610a10578063d90bc21114610a38578063ddca3f4314610a65578063e24b85e714610a7b57600080fd5b8063c36596a6116100dc578063c36596a614610992578063c6bbd5a7146109ba578063c8f33c91146109da578063d153b60c146109f057600080fd5b8063b631e80b14610920578063bf938db814610942578063c01bc9821461096257600080fd5b80639f8e67bf1161017a578063ad39e5fd11610149578063ad39e5fd14610898578063b3f00674146108c0578063b51db0e8146108e0578063b5ed298a1461090057600080fd5b80639f8e67bf1461082d578063a0b4b3011461084d578063a8509fd81461086d578063a8b54bd41461088257600080fd5b80638da5cb5b116101b65780638da5cb5b146107b25780638dae88c2146107d05780639932ba4c146107f85780639eeb1d501461081857600080fd5b80637c10041a146107755780638456cb591461077d5780638be788471461079257600080fd5b80632f9f8c13116102c157806347ccca021161025f5780635c975abb1161022e5780635c975abb146106ec57806368e0d4e114610710578063715018a614610738578063744fbc7a1461074d57600080fd5b806347ccca02146106625780634a1dc092146106825780634aa4a4fc146106a25780635725a977146106c457600080fd5b80633d370b4e1161029b5780633d370b4e146105ee5780633f4ba83a146106185780633fc8cef31461062d5780634309e5df1461064d57600080fd5b80632f9f8c13146105885780632fab7aea146105b05780632fecd589146105d857600080fd5b8063184a732f11610339578063239aad0d11610308578063239aad0d1461050a578063297a3e571461052a5780632b52684d1461054a5780632e7b09481461056057600080fd5b8063184a732f146104bc57806319b1f86a146104d25780631d5f45f5146104da578063209db5301461050257600080fd5b80630e329357116103755780630e3293571461043d5780630fb405b71461046a57806312740eb51461049257806313cb1f831461049c57600080fd5b8063026b1d5f146103a757806307546172146103e15780630c02e1301461041957600080fd5b366103a257005b600080fd5b3480156103b357600080fd5b506103bc610b30565b604080516001600160a01b039384168152929091166020830152015b60405180910390f35b3480156103ed57600080fd5b5060d754610401906001600160a01b031681565b6040516001600160a01b0390911681526020016103d8565b34801561042557600080fd5b5061042f60e05481565b6040519081526020016103d8565b34801561044957600080fd5b5061045d610458366004614853565b610c98565b6040516103d89190614a64565b34801561047657600080fd5b506104017372e4f9f808c49a2a61de9c5896298920dc4eeea981565b61049a610cc5565b005b3480156104a857600080fd5b5061042f6104b736600461455f565b61151b565b3480156104c857600080fd5b5061042f60d45481565b61049a61167f565b3480156104e657600080fd5b50610401731f98431c8ad98523631ae4a59f267346ea31f98481565b61049a611993565b34801561051657600080fd5b506104016105253660046148ac565b611b6f565b34801561053657600080fd5b5061049a61054536600461448a565b611b99565b34801561055657600080fd5b5061042f60d95481565b34801561056c57600080fd5b5061040173b131f4a55907b10d1f0a50d8ab8fa09ec342cd7481565b34801561059457600080fd5b5061040173cf0c122c6b73ff809c693db761e7baebe62b6a2e81565b3480156105bc57600080fd5b5061040173761d38e5ddf6ccf6cf7c55759d5210750b5d60f381565b3480156105e457600080fd5b5061042f60d35481565b3480156105fa57600080fd5b50610603611d42565b604080519283526020830191909152016103d8565b34801561062457600080fd5b5061049a611f79565b34801561063957600080fd5b5060e654610401906001600160a01b031681565b34801561065957600080fd5b5061042f611f8b565b34801561066e57600080fd5b5060d154610401906001600160a01b031681565b34801561068e57600080fd5b5061049a61069d3660046148ac565b612226565b3480156106ae57600080fd5b50610401600080516020614fa683398151915281565b3480156106d057600080fd5b5061040173b62e45c3df611dce236a6ddc7a493d79f9dfadef81565b3480156106f857600080fd5b50609e5460ff165b60405190151581526020016103d8565b34801561071c57600080fd5b50610401735c69bee701ef814a2b6a3edd4b1652cb9cc5aa6f81565b34801561074457600080fd5b5061049a612575565b34801561075957600080fd5b50610401737a250d5630b4cf539739df2c5dacb4c659f2488d81565b61049a612587565b34801561078957600080fd5b5061049a61262d565b34801561079e57600080fd5b5061049a6107ad3660046145a5565b61263d565b3480156107be57600080fd5b506039546001600160a01b0316610401565b3480156107dc57600080fd5b5061040173b27308f9f90d607463bb33ea1bebb41c27ce5ab681565b34801561080457600080fd5b506104016108133660046148ac565b6128fa565b34801561082457600080fd5b5061045d61290a565b34801561083957600080fd5b5060d654610401906001600160a01b031681565b34801561085957600080fd5b506104016108683660046148ac565b612998565b34801561087957600080fd5b5061042f6129a8565b34801561088e57600080fd5b5061042f60df5481565b3480156108a457600080fd5b506104017327c70cd1946795b66be9d954418546998b54663481565b3480156108cc57600080fd5b5060d554610401906001600160a01b031681565b3480156108ec57600080fd5b5061049a6108fb36600461475b565b612afd565b34801561090c57600080fd5b5061049a61091b366004614450565b612cd2565b34801561092c57600080fd5b50610401600080516020614fc683398151915281565b34801561094e57600080fd5b5061042f61095d3660046144ee565b612d22565b34801561096e57600080fd5b5061070061097d366004614450565b60da6020526000908152604090205460ff1681565b34801561099e57600080fd5b50610401739813037ee2218799597d83d4a5b6f3b6778218d981565b3480156109c657600080fd5b5060e754610401906001600160a01b031681565b3480156109e657600080fd5b5061042f60e15481565b3480156109fc57600080fd5b50606b54610401906001600160a01b031681565b348015610a1c57600080fd5b5061040173ac57de9c1a09fec648e93eb98875b212db0d460b81565b348015610a4457600080fd5b5061042f610a53366004614450565b60e56020526000908152604090205481565b348015610a7157600080fd5b5061042f60d25481565b348015610a8757600080fd5b5060db54610401906001600160a01b031681565b348015610aa757600080fd5b50610401736982508145454ce325ddbe47a25d4ec3d231193381565b348015610acf57600080fd5b5060d054610401906001600160a01b031681565b348015610aef57600080fd5b5061049a610afe366004614450565b612dea565b348015610b0f57600080fd5b5061042f610b1e366004614450565b60e46020526000908152604090205481565b60db54604051630b4c774160e11b8152600080516020614fa683398151915260048201526001600160a01b039091166024820152610bb8604482015260009081908190731f98431c8ad98523631ae4a59f267346ea31f98490631698ee829060640160206040518083038186803b158015610baa57600080fd5b505afa158015610bbe573d6000803e3d6000fd5b505050506040513d601f19601f82011682018060405250810190610be2919061446d565b60db5460405163e6a4390560e01b8152600080516020614fa683398151915260048201526001600160a01b039091166024820152909150600090735c69bee701ef814a2b6a3edd4b1652cb9cc5aa6f9063e6a4390590604401602060405180830381600087803b158015610c5557600080fd5b505af1158015610c69573d6000803e3d6000fd5b505050506040513d601f19601f82011682018060405250810190610c8d919061446d565b919491935090915050565b60608282604051602001610cad929190614943565b60405160208183030381529060405290505b92915050565b60db54600090610cf090600080516020614fa6833981519152906001600160a01b0316346001612d22565b60db54909150610d1b90600080516020614fa6833981519152906001600160a01b0316346001612d22565b60db54909150610d4690600080516020614fa6833981519152906001600160a01b0316346001612d22565b60db54909150610d7190600080516020614fa6833981519152906001600160a01b0316346001612d22565b60db54909150610d9c90600080516020614fa6833981519152906001600160a01b0316346001612d22565b60db54909150610dc790600080516020614fa6833981519152906001600160a01b0316346001612d22565b60db54909150610df290600080516020614fa6833981519152906001600160a01b0316346001612d22565b60db54909150610e1d90600080516020614fa6833981519152906001600160a01b0316346001612d22565b60db54909150610e4890600080516020614fa6833981519152906001600160a01b0316346001612d22565b60db54909150610e7390600080516020614fa6833981519152906001600160a01b0316346001612d22565b905060e660009054906101000a90046001600160a01b03166001600160a01b031663d0e30db0346040518263ffffffff1660e01b81526004016000604051808303818588803b158015610ec557600080fd5b505af1158015610ed9573d6000803e3d6000fd5b505060e65460405163095ea7b360e01b8152600080516020614fc683398151915260048201523460248201526001600160a01b03909116935063095ea7b392506044019050602060405180830381600087803b158015610f3857600080fd5b505af1158015610f4c573d6000803e3d6000fd5b505050506040513d601f19601f82011682018060405250810190610f709190614739565b506040805161010081018252600080516020614fa6833981519152815260db546001600160a01b03166020820152610bb89181019190915230606082015242608082015260009060a08101610fc6600a34614c86565b81526000602082018190526040918201819052905163414bf38960e01b815291925090600080516020614fc68339815191529063414bf3899061100d908590600401614b12565b602060405180830381600087803b15801561102757600080fd5b505af115801561103b573d6000803e3d6000fd5b505050506040513d601f19601f8201168201806040525081019061105f91906148c5565b60405163414bf38960e01b8152909150600080516020614fc68339815191529063414bf38990611093908590600401614b12565b602060405180830381600087803b1580156110ad57600080fd5b505af11580156110c1573d6000803e3d6000fd5b505050506040513d601f19601f820116820180604052508101906110e591906148c5565b60405163414bf38960e01b8152909150600080516020614fc68339815191529063414bf38990611119908590600401614b12565b602060405180830381600087803b15801561113357600080fd5b505af1158015611147573d6000803e3d6000fd5b505050506040513d601f19601f8201168201806040525081019061116b91906148c5565b60405163414bf38960e01b8152909150600080516020614fc68339815191529063414bf3899061119f908590600401614b12565b602060405180830381600087803b1580156111b957600080fd5b505af11580156111cd573d6000803e3d6000fd5b505050506040513d601f19601f820116820180604052508101906111f191906148c5565b60405163414bf38960e01b8152909150600080516020614fc68339815191529063414bf38990611225908590600401614b12565b602060405180830381600087803b15801561123f57600080fd5b505af1158015611253573d6000803e3d6000fd5b505050506040513d601f19601f8201168201806040525081019061127791906148c5565b60405163414bf38960e01b8152909150600080516020614fc68339815191529063414bf389906112ab908590600401614b12565b602060405180830381600087803b1580156112c557600080fd5b505af11580156112d9573d6000803e3d6000fd5b505050506040513d601f19601f820116820180604052508101906112fd91906148c5565b60405163414bf38960e01b8152909150600080516020614fc68339815191529063414bf38990611331908590600401614b12565b602060405180830381600087803b15801561134b57600080fd5b505af115801561135f573d6000803e3d6000fd5b505050506040513d601f19601f8201168201806040525081019061138391906148c5565b60405163414bf38960e01b8152909150600080516020614fc68339815191529063414bf389906113b7908590600401614b12565b602060405180830381600087803b1580156113d157600080fd5b505af11580156113e5573d6000803e3d6000fd5b505050506040513d601f19601f8201168201806040525081019061140991906148c5565b60405163414bf38960e01b8152909150600080516020614fc68339815191529063414bf3899061143d908590600401614b12565b602060405180830381600087803b15801561145757600080fd5b505af115801561146b573d6000803e3d6000fd5b505050506040513d601f19601f8201168201806040525081019061148f91906148c5565b60405163414bf38960e01b8152909150600080516020614fc68339815191529063414bf389906114c3908590600401614b12565b602060405180830381600087803b1580156114dd57600080fd5b505af11580156114f1573d6000803e3d6000fd5b505050506040513d601f19601f8201168201806040525081019061151591906148c5565b50505050565b60008083156116745782600314156115415761153a8686866001612d22565b9050611674565b604080516002808252606082018352600092602083019080368337019050509050868160008151811061157657611576614f64565b60200260200101906001600160a01b031690816001600160a01b03168152505085816001815181106115aa576115aa614f64565b6001600160a01b039092166020928302919091019091015260405163d06ca61f60e01b8152600090737a250d5630b4cf539739df2c5dacb4c659f2488d9063d06ca61f906115fe9089908690600401614a4b565b60006040518083038186803b15801561161657600080fd5b505afa15801561162a573d6000803e3d6000fd5b505050506040513d6000823e601f3d908101601f1916820160405261165291908101906146a2565b90508060018151811061166757611667614f64565b6020026020010151925050505b90505b949350505050565b60e660009054906101000a90046001600160a01b03166001600160a01b031663d0e30db0346040518263ffffffff1660e01b81526004016000604051808303818588803b1580156116cf57600080fd5b505af11580156116e3573d6000803e3d6000fd5b505050505060006116f26129a8565b90503460005b60e3548110156117f4576117e1600080516020614fa683398151915260e3838154811061172757611727614f64565b9060005260206000200160009054906101000a90046001600160a01b031668056bc75e2d6310000060e4600060e3878154811061176657611766614f64565b60009182526020808320909101546001600160a01b031683528201929092526040019020546117959087614db4565b61179f9190614c86565b3060e5600060e388815481106117b7576117b7614f64565b60009182526020808320909101546001600160a01b03168352820192909252604001902054612f0f565b50806117ec81614ee7565b9150506116f8565b5060008060d060009054906101000a90046001600160a01b03166001600160a01b03166318160ddd6040518163ffffffff1660e01b815260040160206040518083038186803b15801561184657600080fd5b505afa15801561185a573d6000803e3d6000fd5b505050506040513d601f19601f8201168201806040525081019061187e91906148c5565b111561192757828260d060009054906101000a90046001600160a01b03166001600160a01b03166318160ddd6040518163ffffffff1660e01b815260040160206040518083038186803b1580156118d457600080fd5b505afa1580156118e8573d6000803e3d6000fd5b505050506040513d601f19601f8201168201806040525081019061190c91906148c5565b6119169190614db4565b6119209190614c86565b905061192a565b50805b60d0546040516340c10f1960e01b8152336004820152602481018390526001600160a01b03909116906340c10f1990604401600060405180830381600087803b15801561197657600080fd5b505af115801561198a573d6000803e3d6000fd5b50505050505050565b60e660009054906101000a90046001600160a01b03166001600160a01b031663d0e30db0346040518263ffffffff1660e01b81526004016000604051808303818588803b1580156119e357600080fd5b505af11580156119f7573d6000803e3d6000fd5b505060e65460405163095ea7b360e01b8152600080516020614fc683398151915260048201523460248201526001600160a01b03909116935063095ea7b392506044019050602060405180830381600087803b158015611a5657600080fd5b505af1158015611a6a573d6000803e3d6000fd5b505050506040513d601f19601f82011682018060405250810190611a8e9190614739565b506040805161010081018252600080516020614fa6833981519152815260db546001600160a01b03166020820152610bb8818301523060608201524260808201523460a0820152600060c0820181905260e08201819052915163414bf38960e01b8152909190600080516020614fc68339815191529063414bf38990611b18908590600401614b12565b602060405180830381600087803b158015611b3257600080fd5b505af1158015611b46573d6000803e3d6000fd5b505050506040513d601f19601f82011682018060405250810190611b6a91906148c5565b505050565b60e28181548110611b7f57600080fd5b6000918252602090912001546001600160a01b0316905081565b600654610100900460ff1615808015611bb95750600654600160ff909116105b80611bd35750303b158015611bd3575060065460ff166001145b611c3b5760405162461bcd60e51b815260206004820152602e60248201527f496e697469616c697a61626c653a20636f6e747261637420697320616c72656160448201526d191e481a5b9a5d1a585b1a5e995960921b60648201526084015b60405180910390fd5b6006805460ff191660011790558015611c5e576006805461ff0019166101001790555b611c6661322d565b611c6e61325c565b60d080546001600160a01b0388166001600160a01b0319909116179055611cb284600280546001600160a01b039092166001600160a01b0319909216919091179055565b600380546001600160a01b0319166001600160a01b03851617905560df829055600a611ce7670de0b6b3a76400006001614db4565b611cf19190614c86565b60e0558015611d3a576006805461ff0019169055604051600181527f7f26b83ff96e1f2b6a682f133852f6798a09c465da95921460cefb38474024989060200160405180910390a15b505050505050565b60e75460405163f7729d4360e01b8152600080516020614fa683398151915260048201527327c70cd1946795b66be9d954418546998b5466346024820152610bb86044820152670de0b6b3a7640000606482015260006084820181905291829182916001600160a01b03169063f7729d439060a401602060405180830381600087803b158015611dd157600080fd5b505af1925050508015611e01575060408051601f3d908101601f19168201909252611dfe918101906148c5565b60015b611e0d57506000611e10565b90505b604080516002808252606082018352600092602083019080368337019050509050600080516020614fa683398151915281600081518110611e5357611e53614f64565b60200260200101906001600160a01b031690816001600160a01b0316815250507327c70cd1946795b66be9d954418546998b54663481600181518110611e9b57611e9b614f64565b6001600160a01b039092166020928302919091019091015260405163d06ca61f60e01b8152600090737a250d5630b4cf539739df2c5dacb4c659f2488d9063d06ca61f90611ef790670de0b6b3a7640000908690600401614a4b565b60006040518083038186803b158015611f0f57600080fd5b505afa925050508015611f4457506040513d6000823e601f3d908101601f19168201604052611f4191908101906146a2565b60015b611f5057506000610c8d565b80600181518110611f6357611f63614f64565b6020026020010151915050919491935090915050565b611f8161328b565b611f896132e5565b565b6000806120ac60dd8054611f9e90614eb2565b80601f0160208091040260200160405190810160405280929190818152602001828054611fca90614eb2565b80156120175780601f10611fec57610100808354040283529160200191612017565b820191906000526020600020905b815481529060010190602001808311611ffa57829003601f168201915b505050505060de805461202990614eb2565b80601f016020809104026020016040519081016040528092919081815260200182805461205590614eb2565b80156120a25780601f10612077576101008083540402835291602001916120a2565b820191906000526020600020905b81548152906001019060200180831161208557829003601f168201915b5050505050610c98565b905060006120c460df543063b51db0e860e01b613337565b60408051808201909152600381526219d95d60ea1b60208201529091506120ed9082908461335e565b61214560405180604001604052806005815260200164706174683160d81b8152506040518060400160405280600e81526020016d726573756c74732c746f6b656e7360901b8152508361335e9092919063ffffffff16565b6121a3604051806040016040528060058152602001643830ba341960d91b81525060405180604001604052806014815260200173726573756c74732c6d61726b657453686172657360601b8152508361335e9092919063ffffffff16565b61220160405180604001604052806005815260200164706174683360d81b81525060405180604001604052806014815260200173726573756c74732c7377617056657273696f6e7360601b8152508361335e9092919063ffffffff16565b61221f6122166003546001600160a01b031690565b8260e05461337c565b9250505090565b60006122306129a8565b9050600060d060009054906101000a90046001600160a01b03166001600160a01b03166318160ddd6040518163ffffffff1660e01b815260040160206040518083038186803b15801561228257600080fd5b505afa158015612296573d6000803e3d6000fd5b505050506040513d601f19601f820116820180604052508101906122ba91906148c5565b6122cc84670de0b6b3a7640000614db4565b6122d69190614c86565b60d054604051632770a7eb60e21b8152336004820152602481018690529192506001600160a01b031690639dc29fac90604401600060405180830381600087803b15801561232357600080fd5b505af1158015612337573d6000803e3d6000fd5b5050505060005b60e354811015612471576000670de0b6b3a764000060e3838154811061236657612366614f64565b6000918252602090912001546040516370a0823160e01b81523060048201526001600160a01b03909116906370a082319060240160206040518083038186803b1580156123b257600080fd5b505afa1580156123c6573d6000803e3d6000fd5b505050506040513d601f19601f820116820180604052508101906123ea91906148c5565b6123f49085614db4565b6123fe9190614c86565b905061245c60e3838154811061241657612416614f64565b9060005260206000200160009054906101000a90046001600160a01b0316600080516020614fa6833981519152833060e5600060e389815481106117b7576117b7614f64565b5050808061246990614ee7565b91505061233e565b5060e6546040516370a0823160e01b81523060048201526001600160a01b039091169063a9059cbb90339083906370a082319060240160206040518083038186803b1580156124bf57600080fd5b505afa1580156124d3573d6000803e3d6000fd5b505050506040513d601f19601f820116820180604052508101906124f791906148c5565b6040516001600160e01b031960e085901b1681526001600160a01b0390921660048301526024820152604401602060405180830381600087803b15801561253d57600080fd5b505af1158015612551573d6000803e3d6000fd5b505050506040513d601f19601f820116820180604052508101906115159190614739565b61257d61328b565b611f89600061340f565b60e660009054906101000a90046001600160a01b03166001600160a01b031663d0e30db0346040518263ffffffff1660e01b81526004016000604051808303818588803b1580156125d757600080fd5b505af11580156125eb573d6000803e3d6000fd5b505060db546001600160a01b0316600081815260e5602052604090205461262a9450600080516020614fa6833981519152935090915034903090612f0f565b50565b61263561328b565b611f89613461565b6040516323b872dd60e01b8152336004820152306024820152604481018290526001600160a01b038316906323b872dd90606401602060405180830381600087803b15801561268b57600080fd5b505af115801561269f573d6000803e3d6000fd5b505050506040513d601f19601f820116820180604052508101906126c39190614739565b5060006126ce6129a8565b9050600061271284600080516020614fa6833981519152853060e560008a6001600160a01b03166001600160a01b0316815260200190815260200160002054612f0f565b905060005b60e35481101561275957612746600080516020614fa683398151915260e3838154811061172757611727614f64565b508061275181614ee7565b915050612717565b5060008060d060009054906101000a90046001600160a01b03166001600160a01b03166318160ddd6040518163ffffffff1660e01b815260040160206040518083038186803b1580156127ab57600080fd5b505afa1580156127bf573d6000803e3d6000fd5b505050506040513d601f19601f820116820180604052508101906127e391906148c5565b111561288c57828260d060009054906101000a90046001600160a01b03166001600160a01b03166318160ddd6040518163ffffffff1660e01b815260040160206040518083038186803b15801561283957600080fd5b505afa15801561284d573d6000803e3d6000fd5b505050506040513d601f19601f8201168201806040525081019061287191906148c5565b61287b9190614db4565b6128859190614c86565b905061288f565b50805b60d0546040516340c10f1960e01b8152336004820152602481018390526001600160a01b03909116906340c10f1990604401600060405180830381600087803b1580156128db57600080fd5b505af11580156128ef573d6000803e3d6000fd5b505050505050505050565b60e38181548110611b7f57600080fd5b60d8805461291790614eb2565b80601f016020809104026020016040519081016040528092919081815260200182805461294390614eb2565b80156129905780601f1061296557610100808354040283529160200191612990565b820191906000526020600020905b81548152906001019060200180831161297357829003601f168201915b505050505081565b60dc8181548110611b7f57600080fd5b60008060005b60e354811015612af7576000612ad560e383815481106129d0576129d0614f64565b9060005260206000200160009054906101000a90046001600160a01b0316600080516020614fa683398151915260e38581548110612a1057612a10614f64565b6000918252602090912001546040516370a0823160e01b81523060048201526001600160a01b03909116906370a082319060240160206040518083038186803b158015612a5c57600080fd5b505afa158015612a70573d6000803e3d6000fd5b505050506040513d601f19601f82011682018060405250810190612a9491906148c5565b60e5600060e38881548110612aab57612aab614f64565b60009182526020808320909101546001600160a01b0316835282019290925260400190205461151b565b9050612ae18184614c0a565b9250508080612aef90614ee7565b9150506129ae565b50919050565b60008481526005602052604090205484906001600160a01b03163314612b765760405162461bcd60e51b815260206004820152602860248201527f536f75726365206d75737420626520746865206f7261636c65206f6620746865604482015267081c995c5d595cdd60c21b6064820152608401611c32565b60008181526005602052604080822080546001600160a01b03191690555182917f7cc135e0cebb02c3480ae5d74d377283180a2601f8f644edf7987b009316c63a91a28351612bcc9060e2906020870190614251565b5060e354612be9578351612be79060e3906020870190614251565b505b83838360005b8351811015612cc357828181518110612c0a57612c0a614f64565b602002602001015160e46000868481518110612c2857612c28614f64565b60200260200101516001600160a01b03166001600160a01b0316815260200190815260200160002081905550818181518110612c6657612c66614f64565b602002602001015160e56000868481518110612c8457612c84614f64565b60200260200101516001600160a01b03166001600160a01b03168152602001908152602001600020819055508080612cbb90614ee7565b915050612bef565b50504260e15550505050505050565b612cda61328b565b6001600160a01b038116612d005760405162461bcd60e51b8152600401611c3290614a77565b606b80546001600160a01b0319166001600160a01b0392909216919091179055565b604051630b4c774160e11b81526001600160a01b03808616600483015284166024820152610bb860448201526000908190731f98431c8ad98523631ae4a59f267346ea31f98490631698ee829060640160206040518083038186803b158015612d8a57600080fd5b505afa158015612d9e573d6000803e3d6000fd5b505050506040513d601f19601f82011682018060405250810190612dc2919061446d565b90506000612dd0828561349e565b509050612ddf818689896136f4565b979650505050505050565b6001600160a01b038116612e105760405162461bcd60e51b8152600401611c3290614a77565b606b546001600160a01b03828116911614612e885760405162461bcd60e51b815260206004820152603260248201527f50726f706f7361626c654f776e61626c653a206e6577206f776e6572206973206044820152713737ba10383937b837b9b2b21037bbb732b960711b6064820152608401611c32565b6001600160a01b0381163314612f065760405162461bcd60e51b815260206004820152603a60248201527f50726f706f7361626c654f776e61626c653a20746869732063616c6c206d757360448201527f74206265206d61646520627920746865206e6577206f776e65720000000000006064820152608401611c32565b61262a8161340f565b600080612f1e8787878661151b565b905080156132225782600314156130995760405163095ea7b360e01b8152600080516020614fc68339815191526004820152602481018690526001600160a01b0388169063095ea7b390604401602060405180830381600087803b158015612f8557600080fd5b505af1158015612f99573d6000803e3d6000fd5b505050506040513d601f19601f82011682018060405250810190612fbd9190614739565b5060408051610100810182526001600160a01b03808a1682528881166020830152610bb8828401528616606082015242608082015260a08101879052600060c0820181905260e08201819052915163414bf38960e01b8152909190600080516020614fc68339815191529063414bf3899061303c908590600401614b12565b602060405180830381600087803b15801561305657600080fd5b505af115801561306a573d6000803e3d6000fd5b505050506040513d601f19601f8201168201806040525081019061308e91906148c5565b935061322492505050565b60408051600280825260608201835260009260208301908036833701905050905087816000815181106130ce576130ce614f64565b60200260200101906001600160a01b031690816001600160a01b031681525050868160018151811061310257613102614f64565b6001600160a01b03928316602091820292909201015260405163095ea7b360e01b8152737a250d5630b4cf539739df2c5dacb4c659f2488d6004820152602481018890529089169063095ea7b390604401602060405180830381600087803b15801561316d57600080fd5b505af1158015613181573d6000803e3d6000fd5b505050506040513d601f19601f820116820180604052508101906131a59190614739565b50604051635c11d79560e01b8152737a250d5630b4cf539739df2c5dacb4c659f2488d90635c11d795906131e690899060009086908b904290600401614b7b565b600060405180830381600087803b15801561320057600080fd5b505af1158015613214573d6000803e3d6000fd5b505050508192505050613224565b505b95945050505050565b600654610100900460ff166132545760405162461bcd60e51b8152600401611c3290614ac7565b611f896137fe565b600654610100900460ff166132835760405162461bcd60e51b8152600401611c3290614ac7565b611f8961382e565b6039546001600160a01b03163314611f895760405162461bcd60e51b815260206004820181905260248201527f4f776e61626c653a2063616c6c6572206973206e6f7420746865206f776e65726044820152606401611c32565b6132ed613861565b609e805460ff191690557f5db9ee0a495bf2e6ff9c91a7834c1ba4fdd244a5e8aa4e537bd38aeae4b073aa335b6040516001600160a01b03909116815260200160405180910390a1565b61333f6142b6565b6133476142b6565b613353818686866138aa565b9150505b9392505050565b608083015161336d90836138e7565b6080830151611b6a90826138e7565b60045460009061338d816001614c0a565b600455835160408086015160808701515191516000936320214ca360e11b936133c59386938493923092918a91600191602401614972565b60408051601f198184030181529190526020810180516001600160e01b03166001600160e01b0319909316929092179091529050613405868386846138fe565b9695505050505050565b603980546001600160a01b038381166001600160a01b0319831681179093556040519116919082907f8be0079c531659141344cd1fd0a4f28419497f9722a3daafe3b4186f6b6457e090600090a35050565b613469613a6b565b609e805460ff191660011790557f62e78cea01bee320cd4e420270b5ea74000d11b0c9f74754ebdbfc544b05a25861331a3390565b60008063ffffffff83166134d95760405162461bcd60e51b8152602060048201526002602482015261042560f41b6044820152606401611c32565b604080516002808252606082018352600092602083019080368337019050509050838160008151811061350e5761350e614f64565b602002602001019063ffffffff16908163ffffffff168152505060008160018151811061353d5761353d614f64565b602002602001019063ffffffff16908163ffffffff1681525050600080866001600160a01b031663883bdbfd846040518263ffffffff1660e01b81526004016135869190614a01565b60006040518083038186803b15801561359e57600080fd5b505afa1580156135b2573d6000803e3d6000fd5b505050506040513d6000823e601f3d908101601f191682016040526135da91908101906145d1565b915091506000826000815181106135f3576135f3614f64565b60200260200101518360018151811061360e5761360e614f64565b60200260200101516136209190614dd3565b905060008260008151811061363757613637614f64565b60200260200101518360018151811061365257613652614f64565b60200260200101516136649190614e23565b905061367663ffffffff891683614c22565b965060008260060b12801561369c575061369663ffffffff891683614f02565b60060b15155b156136af57866136ab81614e8e565b9750505b60006136c86001600160a01b0363ffffffff8b16614d85565b90506136e5640100000000600160c01b03602084901b1682614c60565b96505050505050509250929050565b60008061370086613ab1565b90506001600160801b036001600160a01b0382161161378657600061372e6001600160a01b03831680614db4565b9050836001600160a01b0316856001600160a01b03161061376657613761600160c01b876001600160801b031683613dd1565b61377e565b61377e81876001600160801b0316600160c01b613dd1565b9250506137f5565b60006137a56001600160a01b0383168068010000000000000000613dd1565b9050836001600160a01b0316856001600160a01b0316106137dd576137d8600160801b876001600160801b031683613dd1565b612ddf565b612ddf81876001600160801b0316600160801b613dd1565b50949350505050565b600654610100900460ff166138255760405162461bcd60e51b8152600401611c3290614ac7565b611f893361340f565b600654610100900460ff166138555760405162461bcd60e51b8152600401611c3290614ac7565b609e805460ff19169055565b609e5460ff16611f895760405162461bcd60e51b815260206004820152601460248201527314185d5cd8589b194e881b9bdd081c185d5cd95960621b6044820152606401611c32565b6138b26142b6565b6138c28560800151610100613e84565b50509183526001600160a01b031660208301526001600160e01b031916604082015290565b6138f48260038351613ee9565b611b6a8282613ff0565b6040516bffffffffffffffffffffffff193060601b1660208201526034810184905260009060540160408051808303601f1901815282825280516020918201206000818152600590925291812080546001600160a01b0319166001600160a01b038a1617905590925082917fb5e6e01e79f91267dc17b4e6314d5d4d03593d2ceee0fbb452b750bd70ea5af99190a2600254604051630200057560e51b81526001600160a01b0390911690634000aea0906139c1908890879087906004016149da565b602060405180830381600087803b1580156139db57600080fd5b505af11580156139ef573d6000803e3d6000fd5b505050506040513d601f19601f82011682018060405250810190613a139190614739565b6116775760405162461bcd60e51b815260206004820152602360248201527f756e61626c6520746f207472616e73666572416e6443616c6c20746f206f7261604482015262636c6560e81b6064820152608401611c32565b609e5460ff1615611f895760405162461bcd60e51b815260206004820152601060248201526f14185d5cd8589b194e881c185d5cd95960821b6044820152606401611c32565b60008060008360020b12613ac8578260020b613ad0565b8260020b6000035b9050620d89e8811115613af6576040516315e4079d60e11b815260040160405180910390fd5b600060018216613b0a57600160801b613b1c565b6ffffcb933bd6fad37aa2d162d1a5940015b70ffffffffffffffffffffffffffffffffff1690506002821615613b50576ffff97272373d413259a46990580e213a0260801c5b6004821615613b6f576ffff2e50f5f656932ef12357cf3c7fdcc0260801c5b6008821615613b8e576fffe5caca7e10e4e61c3624eaa0941cd00260801c5b6010821615613bad576fffcb9843d60f6159c9db58835c9266440260801c5b6020821615613bcc576fff973b41fa98c081472e6896dfb254c00260801c5b6040821615613beb576fff2ea16466c96a3843ec78b326b528610260801c5b6080821615613c0a576ffe5dee046a99a2a811c461f1969c30530260801c5b610100821615613c2a576ffcbe86c7900a88aedcffc83b479aa3a40260801c5b610200821615613c4a576ff987a7253ac413176f2b074cf7815e540260801c5b610400821615613c6a576ff3392b0822b70005940c7a398e4b70f30260801c5b610800821615613c8a576fe7159475a2c29b7443b29c7fa6e889d90260801c5b611000821615613caa576fd097f3bdfd2022b8845ad8f792aa58250260801c5b612000821615613cca576fa9f746462d870fdf8a65dc1f90e061e50260801c5b614000821615613cea576f70d869a156d2a1b890bb3df62baf32f70260801c5b618000821615613d0a576f31be135f97d08fd981231505542fcfa60260801c5b62010000821615613d2b576f09aa508b5b7a84e1c677de54f3e99bc90260801c5b62020000821615613d4b576e5d6af8dedb81196699c329225ee6040260801c5b62040000821615613d6a576d2216e584f5fa1ea926041bedfe980260801c5b62080000821615613d87576b048a170391f7dc42444e8fa20260801c5b60008460020b1315613da8578060001981613da457613da4614f4e565b0490505b640100000000810615613dbc576001613dbf565b60005b60ff16602082901c0192505050919050565b600080806000198587098587029250828110838203039150508060001415613e0b5760008411613e0057600080fd5b508290049050613357565b808411613e1757600080fd5b6000848688096000868103871696879004966002600389028118808a02820302808a02820302808a02820302808a02820302808a02820302808a02909103029181900381900460010186841190950394909402919094039290920491909117919091029150509392505050565b604080518082019091526060815260006020820152613ea4602083614f24565b15613ecc57613eb4602083614f24565b613ebf906020614e4b565b613ec99083614c0a565b91505b506020828101829052604080518085526000815290920101905290565b6017816001600160401b031611613f0d576115158360e0600585901b168317614017565b60ff816001600160401b031611613f4957613f33836018611fe0600586901b1617614017565b50611515836001600160401b038316600161403c565b61ffff816001600160401b031611613f8657613f70836019611fe0600586901b1617614017565b50611515836001600160401b038316600261403c565b63ffffffff816001600160401b031611613fc557613faf83601a611fe0600586901b1617614017565b50611515836001600160401b038316600461403c565b613fda83601b611fe0600586901b1617614017565b50611515836001600160401b038316600861403c565b60408051808201909152606081526000602082015261335783846000015151848551614062565b604080518082019091526060815260006020820152613357838460000151518461414c565b6040805180820190915260608152600060208201526116778485600001515185856141a8565b604080518082019091526060815260006020820152825182111561408557600080fd5b60208501516140948386614c0a565b11156140c7576140c7856140b7876020015187866140b29190614c0a565b614229565b6140c2906002614db4565b61423a565b6000808651805187602083010193508088870111156140e65787860182525b505050602084015b602084106141265780518252614105602083614c0a565b9150614112602082614c0a565b905061411f602085614e4b565b93506140ee565b51815160001960208690036101000a019081169019919091161790525083949350505050565b604080518082019091526060815260006020820152836020015183106141815761418184856020015160026140c29190614db4565b83518051602085830101848153508085141561419e576001810182525b5093949350505050565b60408051808201909152606081526000602082015260208501516141cc8584614c0a565b11156141e0576141e0856140b78685614c0a565b600060016141f084610100614cdd565b6141fa9190614e4b565b905085518386820101858319825116178152508051848701111561421e5783860181525b509495945050505050565b600081831115612af7575081610cbf565b81516142468383613e84565b506115158382613ff0565b8280548282559060005260206000209081019282156142a6579160200282015b828111156142a657825182546001600160a01b0319166001600160a01b03909116178255602090920191600190910190614271565b506142b29291506142f1565b5090565b6040805160a0810182526000808252602080830182905282840182905260608084018390528451808601909552845283015290608082015290565b5b808211156142b257600081556001016142f2565b600082601f83011261431757600080fd5b8151602061432c61432783614be7565b614bb7565b80838252828201915082860187848660051b890101111561434c57600080fd5b60005b8581101561437457815161436281614f90565b8452928401929084019060010161434f565b5090979650505050505050565b600082601f83011261439257600080fd5b813560206143a261432783614be7565b80838252828201915082860187848660051b89010111156143c257600080fd5b60005b85811015614374578135845292840192908401906001016143c5565b600082601f8301126143f257600080fd5b81356001600160401b0381111561440b5761440b614f7a565b61441e601f8201601f1916602001614bb7565b81815284602083860101111561443357600080fd5b816020850160208301376000918101602001919091529392505050565b60006020828403121561446257600080fd5b813561335781614f90565b60006020828403121561447f57600080fd5b815161335781614f90565b600080600080600060a086880312156144a257600080fd5b85356144ad81614f90565b945060208601356144bd81614f90565b935060408601356144cd81614f90565b925060608601356144dd81614f90565b949793965091946080013592915050565b6000806000806080858703121561450457600080fd5b843561450f81614f90565b9350602085013561451f81614f90565b925060408501356001600160801b038116811461453b57600080fd5b9150606085013563ffffffff8116811461455457600080fd5b939692955090935050565b6000806000806080858703121561457557600080fd5b843561458081614f90565b9350602085013561459081614f90565b93969395505050506040820135916060013590565b600080604083850312156145b857600080fd5b82356145c381614f90565b946020939093013593505050565b600080604083850312156145e457600080fd5b82516001600160401b03808211156145fb57600080fd5b818501915085601f83011261460f57600080fd5b8151602061461f61432783614be7565b8083825282820191508286018a848660051b890101111561463f57600080fd5b600096505b848710156146715780518060060b811461465d57600080fd5b835260019690960195918301918301614644565b509188015191965090935050508082111561468b57600080fd5b5061469885828601614306565b9150509250929050565b600060208083850312156146b557600080fd5b82516001600160401b038111156146cb57600080fd5b8301601f810185136146dc57600080fd5b80516146ea61432782614be7565b80828252848201915084840188868560051b870101111561470a57600080fd5b600094505b8385101561472d57805183526001949094019391850191850161470f565b50979650505050505050565b60006020828403121561474b57600080fd5b8151801515811461335757600080fd5b6000806000806080858703121561477157600080fd5b843593506020808601356001600160401b038082111561479057600080fd5b818801915088601f8301126147a457600080fd5b81356147b261432782614be7565b8082825285820191508585018c878560051b88010111156147d257600080fd5b600095505b838610156147fe5780356147ea81614f90565b8352600195909501949186019186016147d7565b5097505050604088013592508083111561481757600080fd5b61482389848a01614381565b9450606088013592508083111561483957600080fd5b505061484787828801614381565b91505092959194509250565b6000806040838503121561486657600080fd5b82356001600160401b038082111561487d57600080fd5b614889868387016143e1565b9350602085013591508082111561489f57600080fd5b50614698858286016143e1565b6000602082840312156148be57600080fd5b5035919050565b6000602082840312156148d757600080fd5b5051919050565b600081518084526020808501945080840160005b8381101561421e5781516001600160a01b0316875295820195908201906001016148f2565b6000815180845261492f816020860160208601614e62565b601f01601f19169290920160200192915050565b60008351614955818460208801614e62565b835190830190614969818360208801614e62565b01949350505050565b6001600160a01b0389811682526020820189905260408201889052861660608201526001600160e01b03198516608082015260a0810184905260c0810183905261010060e082018190526000906149cb83820185614917565b9b9a5050505050505050505050565b60018060a01b03841681528260208201526060604082015260006132246060830184614917565b6020808252825182820181905260009190848201906040850190845b81811015614a3f57835163ffffffff1683529284019291840191600101614a1d565b50909695505050505050565b82815260406020820152600061167760408301846148de565b6020815260006133576020830184614917565b60208082526030908201527f50726f706f7361626c654f776e61626c653a206e6577206f776e65722069732060408201526f746865207a65726f206164647265737360801b606082015260800190565b6020808252602b908201527f496e697469616c697a61626c653a20636f6e7472616374206973206e6f74206960408201526a6e697469616c697a696e6760a81b606082015260800190565b81516001600160a01b03908116825260208084015182169083015260408084015162ffffff16908301526060808401518216908301526080808401519083015260a0838101519083015260c0808401519083015260e09283015116918101919091526101000190565b85815284602082015260a060408201526000614b9a60a08301866148de565b6001600160a01b0394909416606083015250608001529392505050565b604051601f8201601f191681016001600160401b0381118282101715614bdf57614bdf614f7a565b604052919050565b60006001600160401b03821115614c0057614c00614f7a565b5060051b60200190565b60008219821115614c1d57614c1d614f38565b500190565b60008160060b8360060b80614c3957614c39614f4e565b667fffffffffffff19821460001982141615614c5757614c57614f38565b90059392505050565b60006001600160c01b0383811680614c7a57614c7a614f4e565b92169190910492915050565b600082614c9557614c95614f4e565b500490565b600181815b80851115614cd5578160001904821115614cbb57614cbb614f38565b80851615614cc857918102915b93841c9390800290614c9f565b509250929050565b60006133578383600082614cf357506001610cbf565b81614d0057506000610cbf565b8160018114614d165760028114614d2057614d3c565b6001915050610cbf565b60ff841115614d3157614d31614f38565b50506001821b610cbf565b5060208310610133831016604e8410600b8410161715614d5f575081810a610cbf565b614d698383614c9a565b8060001904821115614d7d57614d7d614f38565b029392505050565b60006001600160c01b0382811684821681151582840482111615614dab57614dab614f38565b02949350505050565b6000816000190483118215151615614dce57614dce614f38565b500290565b60008160060b8360060b6000811281667fffffffffffff1901831281151615614dfe57614dfe614f38565b81667fffffffffffff018313811615614e1957614e19614f38565b5090039392505050565b60006001600160a01b0383811690831681811015614e4357614e43614f38565b039392505050565b600082821015614e5d57614e5d614f38565b500390565b60005b83811015614e7d578181015183820152602001614e65565b838111156115155750506000910152565b60008160020b627fffff19811415614ea857614ea8614f38565b6000190192915050565b600181811c90821680614ec657607f821691505b60208210811415612af757634e487b7160e01b600052602260045260246000fd5b6000600019821415614efb57614efb614f38565b5060010190565b60008260060b80614f1557614f15614f4e565b808360060b0791505092915050565b600082614f3357614f33614f4e565b500690565b634e487b7160e01b600052601160045260246000fd5b634e487b7160e01b600052601260045260246000fd5b634e487b7160e01b600052603260045260246000fd5b634e487b7160e01b600052604160045260246000fd5b6001600160a01b038116811461262a57600080fdfe000000000000000000000000c02aaa39b223fe8d0a0e5c4f27ead9083c756cc2000000000000000000000000e592427a0aece92de3edee1f18e0157c05861564a2646970667358221220cfb57df0f047862a1b669b27ce23c0430fca89f45263d336187eca7e2cda0c8664736f6c6343000807003368747470733a2f2f6170702e6e65786c6162732e696f2f6170692f616c6c46756e64696e6752617465733f6d756c7469706c7946756e633d31382674696d65734e656746756e643d74727565266172726179733d74727565",
    "linkReferences": {}
  },
  "methodIdentifiers": {
    "BONE()": "c36596a6",
    "BabyDoge()": "d1a72ed6",
    "ELON()": "2fab7aea",
    "FLOKI()": "2f9f8c13",
    "HarryPotterObamaSonic10Inu()": "0fb405b7",
    "LEASH()": "ad39e5fd",
    "MEME()": "2e7b0948",
    "PEPE()": "e4fbaecb",
    "QUOTER()": "8dae88c2",
    "SHIB()": "e24b85e7",
    "WETH9()": "4aa4a4fc",
    "WSM()": "5725a977",
    "assetList(uint256)": "a0b4b301",
    "concatenation(string,string)": "0e329357",
    "currentList(uint256)": "9932ba4c",
    "estimateAmountOut(address,address,uint128,uint32)": "bf938db8",
    "externalJobId()": "a8b54bd4",
    "factoryV2()": "68e0d4e1",
    "factoryV3()": "1d5f45f5",
    "fee()": "ddca3f43",
    "feeRatePerDayScaled()": "2fecd589",
    "feeReceiver()": "b3f00674",
    "feeTimestamp()": "184a732f",
    "fulfillFundingRate(bytes32,address[],uint256[],uint256[])": "b51db0e8",
    "getAmountOut(address,address,uint256,uint256)": "13cb1f83",
    "getAmounts()": "3d370b4e",
    "getPool()": "026b1d5f",
    "getPortfolioBalance()": "a8509fd8",
    "indexToken()": "e7d015f2",
    "initialize(address,address,address,address,bytes32)": "297a3e57",
    "isRestricted(address)": "c01bc982",
    "issuanceIndexTokens(address,uint256)": "8be78847",
    "issuanceIndexTokensWithEth()": "19b1f86a",
    "lastUpdateTime()": "c8f33c91",
    "methodologist()": "9f8e67bf",
    "methodology()": "9eeb1d50",
    "minter()": "07546172",
    "nft()": "47ccca02",
    "oracleList(uint256)": "239aad0d",
    "oraclePayment()": "0c02e130",
    "owner()": "8da5cb5b",
    "pause()": "8456cb59",
    "paused()": "5c975abb",
    "proposeOwner(address)": "b5ed298a",
    "proposedOwner()": "d153b60c",
    "quoter()": "c6bbd5a7",
    "redemption(uint256)": "4a1dc092",
    "renounceOwnership()": "715018a6",
    "requestFundingRate()": "4309e5df",
    "sswap()": "7c10041a",
    "supplyCeiling()": "2b52684d",
    "swapGas()": "209db530",
    "swapGas1()": "12740eb5",
    "swapRouterV2()": "744fbc7a",
    "swapRouterV3()": "b631e80b",
    "tokenMarketShare(address)": "fcaae87b",
    "tokenSwapVersion(address)": "d90bc211",
    "transferOwnership(address)": "f2fde38b",
    "unpause()": "3f4ba83a",
    "weth()": "3fc8cef3"
  },
  "id": 1
}