{"abi":[{"type":"receive","stateMutability":"payable"},{"type":"function","name":"factoryStorage","inputs":[],"outputs":[{"name":"","type":"address","internalType":"contract IndexFactoryStorage"}],"stateMutability":"view"},{"type":"function","name":"getPendingRequest","inputs":[{"name":"requestId","type":"bytes32","internalType":"bytes32"}],"outputs":[{"name":"","type":"address","internalType":"address"}],"stateMutability":"view"},{"type":"function","name":"initialize","inputs":[{"name":"_factoryStorage","type":"address","internalType":"address payable"}],"outputs":[],"stateMutability":"nonpayable"},{"type":"function","name":"issuanceIndexTokens","inputs":[{"name":"_tokenIn","type":"address","internalType":"address"},{"name":"_amountIn","type":"uint256","internalType":"uint256"},{"name":"_tokenInSwapFee","type":"uint24","internalType":"uint24"}],"outputs":[],"stateMutability":"nonpayable"},{"type":"function","name":"issuanceIndexTokensWithEth","inputs":[{"name":"_inputAmount","type":"uint256","internalType":"uint256"}],"outputs":[],"stateMutability":"payable"},{"type":"function","name":"owner","inputs":[],"outputs":[{"name":"","type":"address","internalType":"address"}],"stateMutability":"view"},{"type":"function","name":"pause","inputs":[],"outputs":[],"stateMutability":"nonpayable"},{"type":"function","name":"paused","inputs":[],"outputs":[{"name":"","type":"bool","internalType":"bool"}],"stateMutability":"view"},{"type":"function","name":"proposeOwner","inputs":[{"name":"_proposedOwner","type":"address","internalType":"address"}],"outputs":[],"stateMutability":"nonpayable"},{"type":"function","name":"proposedOwner","inputs":[],"outputs":[{"name":"","type":"address","internalType":"address"}],"stateMutability":"view"},{"type":"function","name":"redemption","inputs":[{"name":"amountIn","type":"uint256","internalType":"uint256"},{"name":"_tokenOut","type":"address","internalType":"address"},{"name":"_tokenOutSwapFee","type":"uint24","internalType":"uint24"}],"outputs":[{"name":"","type":"uint256","internalType":"uint256"}],"stateMutability":"nonpayable"},{"type":"function","name":"renounceOwnership","inputs":[],"outputs":[],"stateMutability":"nonpayable"},{"type":"function","name":"transferOwnership","inputs":[{"name":"newOwner","type":"address","internalType":"address"}],"outputs":[],"stateMutability":"nonpayable"},{"type":"function","name":"unpause","inputs":[],"outputs":[],"stateMutability":"nonpayable"},{"type":"event","name":"ChainlinkCancelled","inputs":[{"name":"id","type":"bytes32","indexed":true,"internalType":"bytes32"}],"anonymous":false},{"type":"event","name":"ChainlinkFulfilled","inputs":[{"name":"id","type":"bytes32","indexed":true,"internalType":"bytes32"}],"anonymous":false},{"type":"event","name":"ChainlinkRequested","inputs":[{"name":"id","type":"bytes32","indexed":true,"internalType":"bytes32"}],"anonymous":false},{"type":"event","name":"Initialized","inputs":[{"name":"version","type":"uint8","indexed":false,"internalType":"uint8"}],"anonymous":false},{"type":"event","name":"Issuanced","inputs":[{"name":"user","type":"address","indexed":true,"internalType":"address"},{"name":"inputToken","type":"address","indexed":true,"internalType":"address"},{"name":"inputAmount","type":"uint256","indexed":false,"internalType":"uint256"},{"name":"outputAmount","type":"uint256","indexed":false,"internalType":"uint256"},{"name":"time","type":"uint256","indexed":false,"internalType":"uint256"}],"anonymous":false},{"type":"event","name":"OwnershipTransferred","inputs":[{"name":"previousOwner","type":"address","indexed":true,"internalType":"address"},{"name":"newOwner","type":"address","indexed":true,"internalType":"address"}],"anonymous":false},{"type":"event","name":"Paused","inputs":[{"name":"account","type":"address","indexed":false,"internalType":"address"}],"anonymous":false},{"type":"event","name":"Redemption","inputs":[{"name":"user","type":"address","indexed":true,"internalType":"address"},{"name":"outputToken","type":"address","indexed":true,"internalType":"address"},{"name":"inputAmount","type":"uint256","indexed":false,"internalType":"uint256"},{"name":"outputAmount","type":"uint256","indexed":false,"internalType":"uint256"},{"name":"time","type":"uint256","indexed":false,"internalType":"uint256"}],"anonymous":false},{"type":"event","name":"Unpaused","inputs":[{"name":"account","type":"address","indexed":false,"internalType":"address"}],"anonymous":false}],"bytecode":{"object":"0x608060405234801561001057600080fd5b50614d05806100206000396000f3fe6080604052600436106100e15760003560e01c806388b12d551161007f578063c06e1ae211610059578063c06e1ae214610270578063c4d66de81461029b578063d153b60c146102c4578063f2fde38b146102ef576100e8565b806388b12d55146101df5780638da5cb5b1461021c578063b5ed298a14610247576100e8565b80634b444186116100bb5780634b444186146101495780635c975abb14610186578063715018a6146101b15780638456cb59146101c8576100e8565b8063372d4c55146100ed578063377bd3e5146101095780633f4ba83a14610132576100e8565b366100e857005b600080fd5b61010760048036038101906101029190613ada565b610318565b005b34801561011557600080fd5b50610130600480360381019061012b91906138d6565b610902565b005b34801561013e57600080fd5b50610147610fce565b005b34801561015557600080fd5b50610170600480360381019061016b9190613b34565b610fe0565b60405161017d91906142f5565b60405180910390f35b34801561019257600080fd5b5061019b6114ff565b6040516101a89190614068565b60405180910390f35b3480156101bd57600080fd5b506101c6611516565b005b3480156101d457600080fd5b506101dd61152a565b005b3480156101eb57600080fd5b506102066004803603810190610201919061399f565b61153c565b6040516102139190613fed565b60405180910390f35b34801561022857600080fd5b50610231611579565b60405161023e9190613fed565b60405180910390f35b34801561025357600080fd5b5061026e6004803603810190610269919061384f565b6115a3565b005b34801561027c57600080fd5b5061028561165f565b6040516102929190614083565b60405180910390f35b3480156102a757600080fd5b506102c260048036038101906102bd91906138a9565b611686565b005b3480156102d057600080fd5b506102d961188e565b6040516102e69190613fed565b60405180910390f35b3480156102fb57600080fd5b506103166004803603810190610311919061384f565b6118b4565b005b610320611a2e565b60008111610363576040517f08c379a000000000000000000000000000000000000000000000000000000000815260040161035a90614119565b60405180910390fd5b600061010260009054906101000a900473ffffffffffffffffffffffffffffffffffffffff1673ffffffffffffffffffffffffffffffffffffffff1663fbfa77cf6040518163ffffffff1660e01b815260040160206040518083038186803b1580156103ce57600080fd5b505afa1580156103e2573d6000803e3d6000fd5b505050506040513d601f19601f820116820180604052508101906104069190613a80565b9050600061010260009054906101000a900473ffffffffffffffffffffffffffffffffffffffff1673ffffffffffffffffffffffffffffffffffffffff16633fc8cef36040518163ffffffff1660e01b815260040160206040518083038186803b15801561047357600080fd5b505afa158015610487573d6000803e3d6000fd5b505050506040513d601f19601f820116820180604052508101906104ab9190613a26565b9050600061010260009054906101000a900473ffffffffffffffffffffffffffffffffffffffff1673ffffffffffffffffffffffffffffffffffffffff1663b3f006746040518163ffffffff1660e01b815260040160206040518083038186803b15801561051857600080fd5b505afa15801561052c573d6000803e3d6000fd5b505050506040513d601f19601f82011682018060405250810190610550919061387c565b9050600061010260009054906101000a900473ffffffffffffffffffffffffffffffffffffffff1673ffffffffffffffffffffffffffffffffffffffff1663978bbdb96040518163ffffffff1660e01b815260040160206040518083038186803b1580156105bd57600080fd5b505afa1580156105d1573d6000803e3d6000fd5b505050506040513d601f19601f820116820180604052508101906105f59190613b87565b60ff1690506000612710828761060b91906144fe565b61061591906144cd565b9050600081876106259190614477565b90508034101561066a576040517f08c379a000000000000000000000000000000000000000000000000000000000815260040161066190614259565b60405180910390fd5b8473ffffffffffffffffffffffffffffffffffffffff1663d0e30db0826040518263ffffffff1660e01b81526004016000604051808303818588803b1580156106b257600080fd5b505af11580156106c6573d6000803e3d6000fd5b50505050508473ffffffffffffffffffffffffffffffffffffffff1663a9059cbb85846040518363ffffffff1660e01b815260040161070692919061403f565b602060405180830381600087803b15801561072057600080fd5b505af1158015610734573d6000803e3d6000fd5b505050506040513d601f19601f820116820180604052508101906107589190613972565b610797576040517f08c379a000000000000000000000000000000000000000000000000000000000815260040161078e90614139565b60405180910390fd5b600061010260009054906101000a900473ffffffffffffffffffffffffffffffffffffffff1673ffffffffffffffffffffffffffffffffffffffff166353fd43326040518163ffffffff1660e01b815260040160206040518083038186803b15801561080257600080fd5b505afa158015610816573d6000803e3d6000fd5b505050506040513d601f19601f8201168201806040525081019061083a9190613b07565b9050600061010260009054906101000a900473ffffffffffffffffffffffffffffffffffffffff1673ffffffffffffffffffffffffffffffffffffffff1663a8509fd86040518163ffffffff1660e01b815260040160206040518083038186803b1580156108a757600080fd5b505afa1580156108bb573d6000803e3d6000fd5b505050506040513d601f19601f820116820180604052508101906108df9190613b07565b90506108ef878a848b8d86611a7e565b50505050505050506108ff611f30565b50565b61090a611a2e565b600073ffffffffffffffffffffffffffffffffffffffff168373ffffffffffffffffffffffffffffffffffffffff16141561097a576040517f08c379a000000000000000000000000000000000000000000000000000000000815260040161097190614279565b60405180910390fd5b600082116109bd576040517f08c379a00000000000000000000000000000000000000000000000000000000081526004016109b490614119565b60405180910390fd5b600061010260009054906101000a900473ffffffffffffffffffffffffffffffffffffffff1673ffffffffffffffffffffffffffffffffffffffff16633fc8cef36040518163ffffffff1660e01b815260040160206040518083038186803b158015610a2857600080fd5b505afa158015610a3c573d6000803e3d6000fd5b505050506040513d601f19601f82011682018060405250810190610a609190613a26565b9050600061010260009054906101000a900473ffffffffffffffffffffffffffffffffffffffff1673ffffffffffffffffffffffffffffffffffffffff1663fbfa77cf6040518163ffffffff1660e01b815260040160206040518083038186803b158015610acd57600080fd5b505afa158015610ae1573d6000803e3d6000fd5b505050506040513d601f19601f82011682018060405250810190610b059190613a80565b9050600061010260009054906101000a900473ffffffffffffffffffffffffffffffffffffffff1673ffffffffffffffffffffffffffffffffffffffff166353fd43326040518163ffffffff1660e01b815260040160206040518083038186803b158015610b7257600080fd5b505afa158015610b86573d6000803e3d6000fd5b505050506040513d601f19601f82011682018060405250810190610baa9190613b07565b9050600061010260009054906101000a900473ffffffffffffffffffffffffffffffffffffffff1673ffffffffffffffffffffffffffffffffffffffff1663978bbdb96040518163ffffffff1660e01b815260040160206040518083038186803b158015610c1757600080fd5b505afa158015610c2b573d6000803e3d6000fd5b505050506040513d601f19601f82011682018060405250810190610c4f9190613b87565b60ff16905060006127108288610c6591906144fe565b610c6f91906144cd565b9050600061010260009054906101000a900473ffffffffffffffffffffffffffffffffffffffff1673ffffffffffffffffffffffffffffffffffffffff1663a8509fd86040518163ffffffff1660e01b815260040160206040518083038186803b158015610cdc57600080fd5b505afa158015610cf0573d6000803e3d6000fd5b505050506040513d601f19601f82011682018060405250810190610d149190613b07565b90508873ffffffffffffffffffffffffffffffffffffffff166323b872dd3330858c610d409190614477565b6040518463ffffffff1660e01b8152600401610d5e93929190614008565b602060405180830381600087803b158015610d7857600080fd5b505af1158015610d8c573d6000803e3d6000fd5b505050506040513d601f19601f82011682018060405250810190610db09190613972565b610def576040517f08c379a0000000000000000000000000000000000000000000000000000000008152600401610de6906141b9565b60405180910390fd5b6000610e098a88858c610e029190614477565b308c611f3a565b9050600061010260009054906101000a900473ffffffffffffffffffffffffffffffffffffffff1673ffffffffffffffffffffffffffffffffffffffff1663b3f006746040518163ffffffff1660e01b815260040160206040518083038186803b158015610e7657600080fd5b505afa158015610e8a573d6000803e3d6000fd5b505050506040513d601f19601f82011682018060405250810190610eae919061387c565b905060006127108684610ec191906144fe565b610ecb91906144cd565b905060008184610edb9190614558565b90508973ffffffffffffffffffffffffffffffffffffffff1663a9059cbb84846040518363ffffffff1660e01b8152600401610f1892919061403f565b602060405180830381600087803b158015610f3257600080fd5b505af1158015610f46573d6000803e3d6000fd5b505050506040513d601f19601f82011682018060405250810190610f6a9190613972565b610fa9576040517f08c379a0000000000000000000000000000000000000000000000000000000008152600401610fa090614139565b60405180910390fd5b610fb78d8d8a8c858a611a7e565b50505050505050505050610fc9611f30565b505050565b610fd66120a1565b610fde61211f565b565b6000610fea611a2e565b600061010260009054906101000a900473ffffffffffffffffffffffffffffffffffffffff1673ffffffffffffffffffffffffffffffffffffffff1663fbfa77cf6040518163ffffffff1660e01b815260040160206040518083038186803b15801561105557600080fd5b505afa158015611069573d6000803e3d6000fd5b505050506040513d601f19601f8201168201806040525081019061108d9190613a80565b9050600061010260009054906101000a900473ffffffffffffffffffffffffffffffffffffffff1673ffffffffffffffffffffffffffffffffffffffff166353fd43326040518163ffffffff1660e01b815260040160206040518083038186803b1580156110fa57600080fd5b505afa15801561110e573d6000803e3d6000fd5b505050506040513d601f19601f820116820180604052508101906111329190613b07565b9050600061010260009054906101000a900473ffffffffffffffffffffffffffffffffffffffff1673ffffffffffffffffffffffffffffffffffffffff1663978bbdb96040518163ffffffff1660e01b815260040160206040518083038186803b15801561119f57600080fd5b505afa1580156111b3573d6000803e3d6000fd5b505050506040513d601f19601f820116820180604052508101906111d79190613b87565b60ff169050600061010260009054906101000a900473ffffffffffffffffffffffffffffffffffffffff1673ffffffffffffffffffffffffffffffffffffffff1663b3f006746040518163ffffffff1660e01b815260040160206040518083038186803b15801561124757600080fd5b505afa15801561125b573d6000803e3d6000fd5b505050506040513d601f19601f8201168201806040525081019061127f919061387c565b9050600061010260009054906101000a900473ffffffffffffffffffffffffffffffffffffffff1673ffffffffffffffffffffffffffffffffffffffff1663e7d015f26040518163ffffffff1660e01b815260040160206040518083038186803b1580156112ec57600080fd5b505afa158015611300573d6000803e3d6000fd5b505050506040513d601f19601f820116820180604052508101906113249190613a53565b905060008173ffffffffffffffffffffffffffffffffffffffff166318160ddd6040518163ffffffff1660e01b815260040160206040518083038186803b15801561136e57600080fd5b505afa158015611382573d6000803e3d6000fd5b505050506040513d601f19601f820116820180604052508101906113a69190613b07565b670de0b6b3a76400008b6113ba91906144fe565b6113c491906144cd565b90508173ffffffffffffffffffffffffffffffffffffffff16639dc29fac338c6040518363ffffffff1660e01b815260040161140192919061403f565b600060405180830381600087803b15801561141b57600080fd5b505af115801561142f573d6000803e3d6000fd5b5050505060006114e461010260009054906101000a900473ffffffffffffffffffffffffffffffffffffffff1673ffffffffffffffffffffffffffffffffffffffff166353fd43326040518163ffffffff1660e01b815260040160206040518083038186803b1580156114a157600080fd5b505afa1580156114b5573d6000803e3d6000fd5b505050506040513d601f19601f820116820180604052508101906114d99190613b07565b88848d8d8a8a612182565b9050809750505050505050506114f8611f30565b9392505050565b6000609e60009054906101000a900460ff16905090565b61151e6120a1565b6115286000612254565b565b6115326120a1565b61153a61231a565b565b60006005600083815260200190815260200160002060009054906101000a900473ffffffffffffffffffffffffffffffffffffffff169050919050565b6000603960009054906101000a900473ffffffffffffffffffffffffffffffffffffffff16905090565b6115ab6120a1565b600073ffffffffffffffffffffffffffffffffffffffff168173ffffffffffffffffffffffffffffffffffffffff16141561161b576040517f08c379a000000000000000000000000000000000000000000000000000000000815260040161161290614239565b60405180910390fd5b80606b60006101000a81548173ffffffffffffffffffffffffffffffffffffffff021916908373ffffffffffffffffffffffffffffffffffffffff16021790555050565b61010260009054906101000a900473ffffffffffffffffffffffffffffffffffffffff1681565b6000600660019054906101000a900460ff161590508080156116ba57506001600660009054906101000a900460ff1660ff16105b806116e957506116c93061237d565b1580156116e857506001600660009054906101000a900460ff1660ff16145b5b611728576040517f08c379a000000000000000000000000000000000000000000000000000000000815260040161171f906141f9565b60405180910390fd5b6001600660006101000a81548160ff021916908360ff1602179055508015611766576001600660016101000a81548160ff0219169083151502179055505b600073ffffffffffffffffffffffffffffffffffffffff168273ffffffffffffffffffffffffffffffffffffffff1614156117d6576040517f08c379a00000000000000000000000000000000000000000000000000000000081526004016117cd906140b9565b60405180910390fd5b6117de6123a0565b6117e66123f9565b6117ee612452565b8161010260006101000a81548173ffffffffffffffffffffffffffffffffffffffff021916908373ffffffffffffffffffffffffffffffffffffffff160217905550801561188a576000600660016101000a81548160ff0219169083151502179055507f7f26b83ff96e1f2b6a682f133852f6798a09c465da95921460cefb38474024986001604051611881919061409e565b60405180910390a15b5050565b606b60009054906101000a900473ffffffffffffffffffffffffffffffffffffffff1681565b600073ffffffffffffffffffffffffffffffffffffffff168173ffffffffffffffffffffffffffffffffffffffff161415611924576040517f08c379a000000000000000000000000000000000000000000000000000000000815260040161191b90614239565b60405180910390fd5b606b60009054906101000a900473ffffffffffffffffffffffffffffffffffffffff1673ffffffffffffffffffffffffffffffffffffffff168173ffffffffffffffffffffffffffffffffffffffff16146119b4576040517f08c379a00000000000000000000000000000000000000000000000000000000081526004016119ab90614159565b60405180910390fd5b3373ffffffffffffffffffffffffffffffffffffffff168173ffffffffffffffffffffffffffffffffffffffff1614611a22576040517f08c379a0000000000000000000000000000000000000000000000000000000008152600401611a19906141d9565b60405180910390fd5b611a2b81612254565b50565b600260d0541415611a74576040517f08c379a0000000000000000000000000000000000000000000000000000000008152600401611a6b906142b9565b60405180910390fd5b600260d081905550565b600061010260009054906101000a900473ffffffffffffffffffffffffffffffffffffffff1673ffffffffffffffffffffffffffffffffffffffff16633fc8cef36040518163ffffffff1660e01b815260040160206040518083038186803b158015611ae957600080fd5b505afa158015611afd573d6000803e3d6000fd5b505050506040513d601f19601f82011682018060405250810190611b219190613a26565b905060005b85811015611eae57600061010260009054906101000a900473ffffffffffffffffffffffffffffffffffffffff1673ffffffffffffffffffffffffffffffffffffffff16639932ba4c836040518263ffffffff1660e01b8152600401611b8c91906142f5565b60206040518083038186803b158015611ba457600080fd5b505afa158015611bb8573d6000803e3d6000fd5b505050506040513d601f19601f82011682018060405250810190611bdc919061387c565b9050600061010260009054906101000a900473ffffffffffffffffffffffffffffffffffffffff1673ffffffffffffffffffffffffffffffffffffffff16630be52713836040518263ffffffff1660e01b8152600401611c3c9190613fed565b60206040518083038186803b158015611c5457600080fd5b505afa158015611c68573d6000803e3d6000fd5b505050506040513d601f19601f82011682018060405250810190611c8c9190613b07565b9050600061010260009054906101000a900473ffffffffffffffffffffffffffffffffffffffff1673ffffffffffffffffffffffffffffffffffffffff166332599665846040518263ffffffff1660e01b8152600401611cec9190613fed565b60206040518083038186803b158015611d0457600080fd5b505afa158015611d18573d6000803e3d6000fd5b505050506040513d601f19601f82011682018060405250810190611d3c9190613aad565b90508473ffffffffffffffffffffffffffffffffffffffff168373ffffffffffffffffffffffffffffffffffffffff1614611dea576000611d9f868568056bc75e2d63100000868c611d8e91906144fe565b611d9891906144cd565b8c86611f3a565b905060008111611de4576040517f08c379a0000000000000000000000000000000000000000000000000000000008152600401611ddb906140f9565b60405180910390fd5b50611e98565b8473ffffffffffffffffffffffffffffffffffffffff1663a9059cbb8968056bc75e2d63100000858b611e1d91906144fe565b611e2791906144cd565b6040518363ffffffff1660e01b8152600401611e4492919061403f565b602060405180830381600087803b158015611e5e57600080fd5b505af1158015611e72573d6000803e3d6000fd5b505050506040513d601f19601f82011682018060405250810190611e969190613972565b505b5050508080611ea6906146f1565b915050611b26565b506000611ebb84846124ab565b90508773ffffffffffffffffffffffffffffffffffffffff163373ffffffffffffffffffffffffffffffffffffffff167f4fee1c514ee0e252e3a0babfa8b5030fb89be7ea2b38df9a7fbbf788e54f3d91898442604051611f1e9392919061439a565b60405180910390a35050505050505050565b600160d081905550565b60008061010260009054906101000a900473ffffffffffffffffffffffffffffffffffffffff1673ffffffffffffffffffffffffffffffffffffffff1663b631e80b6040518163ffffffff1660e01b815260040160206040518083038186803b158015611fa657600080fd5b505afa158015611fba573d6000803e3d6000fd5b505050506040513d601f19601f82011682018060405250810190611fde91906139cc565b9050600061010260009054906101000a900473ffffffffffffffffffffffffffffffffffffffff1673ffffffffffffffffffffffffffffffffffffffff1663744fbc7a6040518163ffffffff1660e01b815260040160206040518083038186803b15801561204b57600080fd5b505afa15801561205f573d6000803e3d6000fd5b505050506040513d601f19601f8201168201806040525081019061208391906139f9565b90506120948282868b8b8b8b612736565b9250505095945050505050565b6120a9612775565b73ffffffffffffffffffffffffffffffffffffffff166120c7611579565b73ffffffffffffffffffffffffffffffffffffffff161461211d576040517f08c379a000000000000000000000000000000000000000000000000000000000815260040161211490614219565b60405180910390fd5b565b61212761277d565b6000609e60006101000a81548160ff0219169083151502179055507f5db9ee0a495bf2e6ff9c91a7834c1ba4fdd244a5e8aa4e537bd38aeae4b073aa61216b612775565b6040516121789190613fed565b60405180910390a1565b60008061010260009054906101000a900473ffffffffffffffffffffffffffffffffffffffff1673ffffffffffffffffffffffffffffffffffffffff1663e7d015f26040518163ffffffff1660e01b815260040160206040518083038186803b1580156121ee57600080fd5b505afa158015612202573d6000803e3d6000fd5b505050506040513d601f19601f820116820180604052508101906122269190613a53565b90506000612235888b8b6127c6565b9050612245888289898989612c28565b92505050979650505050505050565b6000603960009054906101000a900473ffffffffffffffffffffffffffffffffffffffff16905081603960006101000a81548173ffffffffffffffffffffffffffffffffffffffff021916908373ffffffffffffffffffffffffffffffffffffffff1602179055508173ffffffffffffffffffffffffffffffffffffffff168173ffffffffffffffffffffffffffffffffffffffff167f8be0079c531659141344cd1fd0a4f28419497f9722a3daafe3b4186f6b6457e060405160405180910390a35050565b612322613088565b6001609e60006101000a81548160ff0219169083151502179055507f62e78cea01bee320cd4e420270b5ea74000d11b0c9f74754ebdbfc544b05a258612366612775565b6040516123739190613fed565b60405180910390a1565b6000808273ffffffffffffffffffffffffffffffffffffffff163b119050919050565b600660019054906101000a900460ff166123ef576040517f08c379a00000000000000000000000000000000000000000000000000000000081526004016123e690614299565b60405180910390fd5b6123f76130d2565b565b600660019054906101000a900460ff16612448576040517f08c379a000000000000000000000000000000000000000000000000000000000815260040161243f90614299565b60405180910390fd5b612450613133565b565b600660019054906101000a900460ff166124a1576040517f08c379a000000000000000000000000000000000000000000000000000000000815260040161249890614299565b60405180910390fd5b6124a961319f565b565b60008061010260009054906101000a900473ffffffffffffffffffffffffffffffffffffffff1673ffffffffffffffffffffffffffffffffffffffff1663e7d015f26040518163ffffffff1660e01b815260040160206040518083038186803b15801561251757600080fd5b505afa15801561252b573d6000803e3d6000fd5b505050506040513d601f19601f8201168201806040525081019061254f9190613a53565b905060008173ffffffffffffffffffffffffffffffffffffffff166318160ddd6040518163ffffffff1660e01b815260040160206040518083038186803b15801561259957600080fd5b505afa1580156125ad573d6000803e3d6000fd5b505050506040513d601f19601f820116820180604052508101906125d19190613b07565b905060008111156125fa578385826125e991906144fe565b6125f391906144cd565b92506126c1565b600061010260009054906101000a900473ffffffffffffffffffffffffffffffffffffffff1673ffffffffffffffffffffffffffffffffffffffff16633c8da5886040518163ffffffff1660e01b815260040160206040518083038186803b15801561266557600080fd5b505afa158015612679573d6000803e3d6000fd5b505050506040513d601f19601f8201168201806040525081019061269d9190613b07565b9050662386f26fc1000081876126b391906144fe565b6126bd91906144cd565b9350505b8173ffffffffffffffffffffffffffffffffffffffff166340c10f1933856040518363ffffffff1660e01b81526004016126fc92919061403f565b600060405180830381600087803b15801561271657600080fd5b505af115801561272a573d6000803e3d6000fd5b50505050505092915050565b6000808662ffffff16111561275a576127538887878787876131f8565b905061276a565b61276787868686866133ca565b90505b979650505050505050565b600033905090565b6127856114ff565b6127c4576040517f08c379a00000000000000000000000000000000000000000000000000000000081526004016127bb906140d9565b60405180910390fd5b565b60008061010260009054906101000a900473ffffffffffffffffffffffffffffffffffffffff1673ffffffffffffffffffffffffffffffffffffffff16633fc8cef36040518163ffffffff1660e01b815260040160206040518083038186803b15801561283257600080fd5b505afa158015612846573d6000803e3d6000fd5b505050506040513d601f19601f8201168201806040525081019061286a9190613a26565b905060005b84811015612c1f57600061010260009054906101000a900473ffffffffffffffffffffffffffffffffffffffff1673ffffffffffffffffffffffffffffffffffffffff16639932ba4c836040518263ffffffff1660e01b81526004016128d591906142f5565b60206040518083038186803b1580156128ed57600080fd5b505afa158015612901573d6000803e3d6000fd5b505050506040513d601f19601f82011682018060405250810190612925919061387c565b9050600061010260009054906101000a900473ffffffffffffffffffffffffffffffffffffffff1673ffffffffffffffffffffffffffffffffffffffff166332599665836040518263ffffffff1660e01b81526004016129859190613fed565b60206040518083038186803b15801561299d57600080fd5b505afa1580156129b1573d6000803e3d6000fd5b505050506040513d601f19601f820116820180604052508101906129d59190613aad565b90506000670de0b6b3a76400008373ffffffffffffffffffffffffffffffffffffffff166370a08231896040518263ffffffff1660e01b8152600401612a1b9190613fed565b60206040518083038186803b158015612a3357600080fd5b505afa158015612a47573d6000803e3d6000fd5b505050506040513d601f19601f82011682018060405250810190612a6b9190613b07565b8a612a7691906144fe565b612a8091906144cd565b90508473ffffffffffffffffffffffffffffffffffffffff168373ffffffffffffffffffffffffffffffffffffffff1614612b6a578673ffffffffffffffffffffffffffffffffffffffff16631c20fadd8430846040518463ffffffff1660e01b8152600401612af293929190614008565b602060405180830381600087803b158015612b0c57600080fd5b505af1158015612b20573d6000803e3d6000fd5b505050506040513d601f19601f82011682018060405250810190612b449190613972565b506000612b548487843087611f3a565b90508087612b629190614477565b965050612c09565b8673ffffffffffffffffffffffffffffffffffffffff16631c20fadd8630846040518463ffffffff1660e01b8152600401612ba793929190614008565b602060405180830381600087803b158015612bc157600080fd5b505af1158015612bd5573d6000803e3d6000fd5b505050506040513d601f19601f82011682018060405250810190612bf99190613972565b508086612c069190614477565b95505b5050508080612c17906146f1565b91505061286f565b50509392505050565b60008061010260009054906101000a900473ffffffffffffffffffffffffffffffffffffffff1673ffffffffffffffffffffffffffffffffffffffff16633fc8cef36040518163ffffffff1660e01b815260040160206040518083038186803b158015612c9457600080fd5b505afa158015612ca8573d6000803e3d6000fd5b505050506040513d601f19601f82011682018060405250810190612ccc9190613a26565b905060006127108589612cdf91906144fe565b612ce991906144cd565b90508173ffffffffffffffffffffffffffffffffffffffff168773ffffffffffffffffffffffffffffffffffffffff161415612f64578173ffffffffffffffffffffffffffffffffffffffff16632e1a7d4d828a612d479190614558565b6040518263ffffffff1660e01b8152600401612d6391906142f5565b600060405180830381600087803b158015612d7d57600080fd5b505af1158015612d91573d6000803e3d6000fd5b505050508173ffffffffffffffffffffffffffffffffffffffff1663a9059cbb85836040518363ffffffff1660e01b8152600401612dd092919061403f565b602060405180830381600087803b158015612dea57600080fd5b505af1158015612dfe573d6000803e3d6000fd5b505050506040513d601f19601f82011682018060405250810190612e229190613972565b5060003373ffffffffffffffffffffffffffffffffffffffff16828a612e489190614558565b604051612e5490613fd8565b60006040518083038185875af1925050503d8060008114612e91576040519150601f19603f3d011682016040523d82523d6000602084013e612e96565b606091505b5050905080612eda576040517f08c379a0000000000000000000000000000000000000000000000000000000008152600401612ed190614179565b60405180910390fd5b8773ffffffffffffffffffffffffffffffffffffffff163373ffffffffffffffffffffffffffffffffffffffff167f4f808f68134f8b72b842a276c2b37b03415d4992c65a94fcee50d33201915b998c858d612f369190614558565b42604051612f469392919061439a565b60405180910390a38189612f5a9190614558565b935050505061307e565b8173ffffffffffffffffffffffffffffffffffffffff1663a9059cbb85836040518363ffffffff1660e01b8152600401612f9f92919061403f565b602060405180830381600087803b158015612fb957600080fd5b505af1158015612fcd573d6000803e3d6000fd5b505050506040513d601f19601f82011682018060405250810190612ff19190613972565b50600061300c8389848c6130059190614558565b338b611f3a565b90508773ffffffffffffffffffffffffffffffffffffffff163373ffffffffffffffffffffffffffffffffffffffff167f4f808f68134f8b72b842a276c2b37b03415d4992c65a94fcee50d33201915b998c844260405161306f9392919061439a565b60405180910390a38093505050505b9695505050505050565b6130906114ff565b156130d0576040517f08c379a00000000000000000000000000000000000000000000000000000000081526004016130c790614199565b60405180910390fd5b565b600660019054906101000a900460ff16613121576040517f08c379a000000000000000000000000000000000000000000000000000000000815260040161311890614299565b60405180910390fd5b61313161312c612775565b612254565b565b600660019054906101000a900460ff16613182576040517f08c379a000000000000000000000000000000000000000000000000000000000815260040161317990614299565b60405180910390fd5b6000609e60006101000a81548160ff021916908315150217905550565b600660019054906101000a900460ff166131ee576040517f08c379a00000000000000000000000000000000000000000000000000000000081526004016131e590614299565b60405180910390fd5b600160d081905550565b60008473ffffffffffffffffffffffffffffffffffffffff1663095ea7b388856040518363ffffffff1660e01b815260040161323592919061403f565b602060405180830381600087803b15801561324f57600080fd5b505af1158015613263573d6000803e3d6000fd5b505050506040513d601f19601f820116820180604052508101906132879190613972565b5060006040518061010001604052808773ffffffffffffffffffffffffffffffffffffffff1681526020018673ffffffffffffffffffffffffffffffffffffffff1681526020018862ffffff1681526020018473ffffffffffffffffffffffffffffffffffffffff16815260200161012c426133039190614477565b815260200185815260200160008152602001600073ffffffffffffffffffffffffffffffffffffffff1681525090508773ffffffffffffffffffffffffffffffffffffffff1663414bf389826040518263ffffffff1660e01b815260040161336b91906142d9565b602060405180830381600087803b15801561338557600080fd5b505af1158015613399573d6000803e3d6000fd5b505050506040513d601f19601f820116820180604052508101906133bd9190613b07565b9150509695505050505050565b600080600267ffffffffffffffff8111156133e8576133e76147c7565b5b6040519080825280602002602001820160405280156134165781602001602082028036833780820191505090505b509050858160008151811061342e5761342d614798565b5b602002602001019073ffffffffffffffffffffffffffffffffffffffff16908173ffffffffffffffffffffffffffffffffffffffff1681525050848160018151811061347d5761347c614798565b5b602002602001019073ffffffffffffffffffffffffffffffffffffffff16908173ffffffffffffffffffffffffffffffffffffffff168152505060008773ffffffffffffffffffffffffffffffffffffffff1663d06ca61f86846040518363ffffffff1660e01b81526004016134f4929190614310565b60006040518083038186803b15801561350c57600080fd5b505afa158015613520573d6000803e3d6000fd5b505050506040513d6000823e3d601f19601f820116820180604052508101906135499190613929565b90508673ffffffffffffffffffffffffffffffffffffffff1663095ea7b389876040518363ffffffff1660e01b815260040161358692919061403f565b602060405180830381600087803b1580156135a057600080fd5b505af11580156135b4573d6000803e3d6000fd5b505050506040513d601f19601f820116820180604052508101906135d89190613972565b508773ffffffffffffffffffffffffffffffffffffffff16635c11d7958660008588426040518663ffffffff1660e01b815260040161361b959493929190614340565b600060405180830381600087803b15801561363557600080fd5b505af1158015613649573d6000803e3d6000fd5b505050508060018151811061366157613660614798565b5b60200260200101519250505095945050505050565b6000613689613684846143f6565b6143d1565b905080838252602082019050828560208602820111156136ac576136ab6147fb565b5b60005b858110156136dc57816136c28882613825565b8452602084019350602083019250506001810190506136af565b5050509392505050565b6000813590506136f581614bbb565b92915050565b60008151905061370a81614bbb565b92915050565b60008135905061371f81614bd2565b92915050565b600082601f83011261373a576137396147f6565b5b815161374a848260208601613676565b91505092915050565b60008151905061376281614be9565b92915050565b60008135905061377781614c00565b92915050565b60008151905061378c81614c17565b92915050565b6000815190506137a181614c2e565b92915050565b6000815190506137b681614c45565b92915050565b6000815190506137cb81614c5c565b92915050565b6000815190506137e081614c73565b92915050565b6000813590506137f581614c8a565b92915050565b60008151905061380a81614c8a565b92915050565b60008135905061381f81614ca1565b92915050565b60008151905061383481614ca1565b92915050565b60008151905061384981614cb8565b92915050565b60006020828403121561386557613864614805565b5b6000613873848285016136e6565b91505092915050565b60006020828403121561389257613891614805565b5b60006138a0848285016136fb565b91505092915050565b6000602082840312156138bf576138be614805565b5b60006138cd84828501613710565b91505092915050565b6000806000606084860312156138ef576138ee614805565b5b60006138fd868287016136e6565b935050602061390e86828701613810565b925050604061391f868287016137e6565b9150509250925092565b60006020828403121561393f5761393e614805565b5b600082015167ffffffffffffffff81111561395d5761395c614800565b5b61396984828501613725565b91505092915050565b60006020828403121561398857613987614805565b5b600061399684828501613753565b91505092915050565b6000602082840312156139b5576139b4614805565b5b60006139c384828501613768565b91505092915050565b6000602082840312156139e2576139e1614805565b5b60006139f08482850161377d565b91505092915050565b600060208284031215613a0f57613a0e614805565b5b6000613a1d84828501613792565b91505092915050565b600060208284031215613a3c57613a3b614805565b5b6000613a4a848285016137a7565b91505092915050565b600060208284031215613a6957613a68614805565b5b6000613a77848285016137bc565b91505092915050565b600060208284031215613a9657613a95614805565b5b6000613aa4848285016137d1565b91505092915050565b600060208284031215613ac357613ac2614805565b5b6000613ad1848285016137fb565b91505092915050565b600060208284031215613af057613aef614805565b5b6000613afe84828501613810565b91505092915050565b600060208284031215613b1d57613b1c614805565b5b6000613b2b84828501613825565b91505092915050565b600080600060608486031215613b4d57613b4c614805565b5b6000613b5b86828701613810565b9350506020613b6c868287016136e6565b9250506040613b7d868287016137e6565b9150509250925092565b600060208284031215613b9d57613b9c614805565b5b6000613bab8482850161383a565b91505092915050565b6000613bc08383613bcc565b60208301905092915050565b613bd58161458c565b82525050565b613be48161458c565b82525050565b6000613bf582614432565b613bff818561444a565b9350613c0a83614422565b8060005b83811015613c3b578151613c228882613bb4565b9750613c2d8361443d565b925050600181019050613c0e565b5085935050505092915050565b613c51816145b0565b82525050565b613c6081614666565b82525050565b613c6f81614678565b82525050565b613c7e8161468a565b82525050565b6000613c91601f83614466565b9150613c9c8261481b565b602082019050919050565b6000613cb4601483614466565b9150613cbf82614844565b602082019050919050565b6000613cd7600b83614466565b9150613ce28261486d565b602082019050919050565b6000613cfa600e83614466565b9150613d0582614896565b602082019050919050565b6000613d1d601383614466565b9150613d28826148bf565b602082019050919050565b6000613d40603283614466565b9150613d4b826148e8565b604082019050919050565b6000613d63602383614466565b9150613d6e82614937565b604082019050919050565b6000613d86601083614466565b9150613d9182614986565b602082019050919050565b6000613da9601583614466565b9150613db4826149af565b602082019050919050565b6000613dcc603a83614466565b9150613dd7826149d8565b604082019050919050565b6000613def602e83614466565b9150613dfa82614a27565b604082019050919050565b6000613e12602083614466565b9150613e1d82614a76565b602082019050919050565b6000613e35603083614466565b9150613e4082614a9f565b604082019050919050565b6000613e5860008361445b565b9150613e6382614aee565b600082019050919050565b6000613e7b601a83614466565b9150613e8682614af1565b602082019050919050565b6000613e9e601583614466565b9150613ea982614b1a565b602082019050919050565b6000613ec1602b83614466565b9150613ecc82614b43565b604082019050919050565b6000613ee4601f83614466565b9150613eef82614b92565b602082019050919050565b61010082016000820151613f116000850182613bcc565b506020820151613f246020850182613bcc565b506040820151613f376040850182613fab565b506060820151613f4a6060850182613bcc565b506080820151613f5d6080850182613fba565b5060a0820151613f7060a0850182613fba565b5060c0820151613f8360c0850182613fba565b5060e0820151613f9660e0850182613f9c565b50505050565b613fa581614620565b82525050565b613fb481614640565b82525050565b613fc38161464f565b82525050565b613fd28161464f565b82525050565b6000613fe382613e4b565b9150819050919050565b60006020820190506140026000830184613bdb565b92915050565b600060608201905061401d6000830186613bdb565b61402a6020830185613bdb565b6140376040830184613fc9565b949350505050565b60006040820190506140546000830185613bdb565b6140616020830184613fc9565b9392505050565b600060208201905061407d6000830184613c48565b92915050565b60006020820190506140986000830184613c57565b92915050565b60006020820190506140b36000830184613c75565b92915050565b600060208201905081810360008301526140d281613c84565b9050919050565b600060208201905081810360008301526140f281613ca7565b9050919050565b6000602082019050818103600083015261411281613cca565b9050919050565b6000602082019050818103600083015261413281613ced565b9050919050565b6000602082019050818103600083015261415281613d10565b9050919050565b6000602082019050818103600083015261417281613d33565b9050919050565b6000602082019050818103600083015261419281613d56565b9050919050565b600060208201905081810360008301526141b281613d79565b9050919050565b600060208201905081810360008301526141d281613d9c565b9050919050565b600060208201905081810360008301526141f281613dbf565b9050919050565b6000602082019050818103600083015261421281613de2565b9050919050565b6000602082019050818103600083015261423281613e05565b9050919050565b6000602082019050818103600083015261425281613e28565b9050919050565b6000602082019050818103600083015261427281613e6e565b9050919050565b6000602082019050818103600083015261429281613e91565b9050919050565b600060208201905081810360008301526142b281613eb4565b9050919050565b600060208201905081810360008301526142d281613ed7565b9050919050565b6000610100820190506142ef6000830184613efa565b92915050565b600060208201905061430a6000830184613fc9565b92915050565b60006040820190506143256000830185613fc9565b81810360208301526143378184613bea565b90509392505050565b600060a0820190506143556000830188613fc9565b6143626020830187613c66565b81810360408301526143748186613bea565b90506143836060830185613bdb565b6143906080830184613fc9565b9695505050505050565b60006060820190506143af6000830186613fc9565b6143bc6020830185613fc9565b6143c96040830184613fc9565b949350505050565b60006143db6143ec565b90506143e782826146c0565b919050565b6000604051905090565b600067ffffffffffffffff821115614411576144106147c7565b5b602082029050602081019050919050565b6000819050602082019050919050565b600081519050919050565b6000602082019050919050565b600082825260208201905092915050565b600081905092915050565b600082825260208201905092915050565b60006144828261464f565b915061448d8361464f565b9250827fffffffffffffffffffffffffffffffffffffffffffffffffffffffffffffffff038211156144c2576144c161473a565b5b828201905092915050565b60006144d88261464f565b91506144e38361464f565b9250826144f3576144f2614769565b5b828204905092915050565b60006145098261464f565b91506145148361464f565b9250817fffffffffffffffffffffffffffffffffffffffffffffffffffffffffffffffff048311821515161561454d5761454c61473a565b5b828202905092915050565b60006145638261464f565b915061456e8361464f565b9250828210156145815761458061473a565b5b828203905092915050565b600061459782614620565b9050919050565b60006145a982614620565b9050919050565b60008115159050919050565b6000819050919050565b60006145d18261458c565b9050919050565b60006145e38261458c565b9050919050565b60006145f58261458c565b9050919050565b60006146078261458c565b9050919050565b60006146198261458c565b9050919050565b600073ffffffffffffffffffffffffffffffffffffffff82169050919050565b600062ffffff82169050919050565b6000819050919050565b600060ff82169050919050565b60006146718261469c565b9050919050565b60006146838261464f565b9050919050565b600061469582614659565b9050919050565b60006146a7826146ae565b9050919050565b60006146b982614620565b9050919050565b6146c98261480a565b810181811067ffffffffffffffff821117156146e8576146e76147c7565b5b80604052505050565b60006146fc8261464f565b91507fffffffffffffffffffffffffffffffffffffffffffffffffffffffffffffffff82141561472f5761472e61473a565b5b600182019050919050565b7f4e487b7100000000000000000000000000000000000000000000000000000000600052601160045260246000fd5b7f4e487b7100000000000000000000000000000000000000000000000000000000600052601260045260246000fd5b7f4e487b7100000000000000000000000000000000000000000000000000000000600052603260045260246000fd5b7f4e487b7100000000000000000000000000000000000000000000000000000000600052604160045260246000fd5b600080fd5b600080fd5b600080fd5b600080fd5b6000601f19601f8301169050919050565b7f496e76616c696420666163746f72792073746f72616765206164647265737300600082015250565b7f5061757361626c653a206e6f7420706175736564000000000000000000000000600082015250565b7f53776170206661696c6564000000000000000000000000000000000000000000600082015250565b7f496e76616c696420616d6f756e74000000000000000000000000000000000000600082015250565b7f666565207472616e73666572206661696c656400000000000000000000000000600082015250565b7f50726f706f7361626c654f776e61626c653a206e6577206f776e65722069732060008201527f6e6f742070726f706f736564206f776e65720000000000000000000000000000602082015250565b7f7472616e73666572206574682066656520746f2074686520757365722066616960008201527f6c65640000000000000000000000000000000000000000000000000000000000602082015250565b7f5061757361626c653a2070617573656400000000000000000000000000000000600082015250565b7f546f6b656e207472616e73666572206661696c65640000000000000000000000600082015250565b7f50726f706f7361626c654f776e61626c653a20746869732063616c6c206d757360008201527f74206265206d61646520627920746865206e6577206f776e6572000000000000602082015250565b7f496e697469616c697a61626c653a20636f6e747261637420697320616c72656160008201527f647920696e697469616c697a6564000000000000000000000000000000000000602082015250565b7f4f776e61626c653a2063616c6c6572206973206e6f7420746865206f776e6572600082015250565b7f50726f706f7361626c654f776e61626c653a206e6577206f776e65722069732060008201527f746865207a65726f206164647265737300000000000000000000000000000000602082015250565b50565b7f6c6f776572207468616e20726571756972656420616d6f756e74000000000000600082015250565b7f496e76616c696420746f6b656e20616464726573730000000000000000000000600082015250565b7f496e697469616c697a61626c653a20636f6e7472616374206973206e6f74206960008201527f6e697469616c697a696e67000000000000000000000000000000000000000000602082015250565b7f5265656e7472616e637947756172643a207265656e7472616e742063616c6c00600082015250565b614bc48161458c565b8114614bcf57600080fd5b50565b614bdb8161459e565b8114614be657600080fd5b50565b614bf2816145b0565b8114614bfd57600080fd5b50565b614c09816145bc565b8114614c1457600080fd5b50565b614c20816145c6565b8114614c2b57600080fd5b50565b614c37816145d8565b8114614c4257600080fd5b50565b614c4e816145ea565b8114614c5957600080fd5b50565b614c65816145fc565b8114614c7057600080fd5b50565b614c7c8161460e565b8114614c8757600080fd5b50565b614c9381614640565b8114614c9e57600080fd5b50565b614caa8161464f565b8114614cb557600080fd5b50565b614cc181614659565b8114614ccc57600080fd5b5056fea2646970667358221220f03effeda0a89c9e3e04d803055aa3bf33acdb213c7555f3e748147296c30e4264736f6c63430008070033","linkReferences":{}},"methodIdentifiers":{"factoryStorage()":"c06e1ae2","getPendingRequest(bytes32)":"88b12d55","initialize(address)":"c4d66de8","issuanceIndexTokens(address,uint256,uint24)":"377bd3e5","issuanceIndexTokensWithEth(uint256)":"372d4c55","owner()":"8da5cb5b","pause()":"8456cb59","paused()":"5c975abb","proposeOwner(address)":"b5ed298a","proposedOwner()":"d153b60c","redemption(uint256,address,uint24)":"4b444186","renounceOwnership()":"715018a6","transferOwnership(address)":"f2fde38b","unpause()":"3f4ba83a"},"id":2}