{
  "abi": [
    {
      "inputs": [],
      "name": "T",
      "type": "error"
    },
    {
      "anonymous": false,
      "inputs": [
        {
          "indexed": true,
          "internalType": "bytes32",
          "name": "id",
          "type": "bytes32"
        }
      ],
      "name": "ChainlinkCancelled",
      "type": "event"
    },
    {
      "anonymous": false,
      "inputs": [
        {
          "indexed": true,
          "internalType": "bytes32",
          "name": "id",
          "type": "bytes32"
        }
      ],
      "name": "ChainlinkFulfilled",
      "type": "event"
    },
    {
      "anonymous": false,
      "inputs": [
        {
          "indexed": true,
          "internalType": "bytes32",
          "name": "id",
          "type": "bytes32"
        }
      ],
      "name": "ChainlinkRequested",
      "type": "event"
    },
    {
      "anonymous": false,
      "inputs": [
        {
          "indexed": true,
          "internalType": "uint256",
          "name": "feeRatePerDayScaled",
          "type": "uint256"
        }
      ],
      "name": "FeeRateSet",
      "type": "event"
    },
    {
      "anonymous": false,
      "inputs": [
        {
          "indexed": true,
          "internalType": "address",
          "name": "feeReceiver",
          "type": "address"
        }
      ],
      "name": "FeeReceiverSet",
      "type": "event"
    },
    {
      "anonymous": false,
      "inputs": [
        {
          "indexed": false,
          "internalType": "uint8",
          "name": "version",
          "type": "uint8"
        }
      ],
      "name": "Initialized",
      "type": "event"
    },
    {
      "anonymous": false,
      "inputs": [
        {
          "indexed": true,
          "internalType": "address",
          "name": "methodologist",
          "type": "address"
        }
      ],
      "name": "MethodologistSet",
      "type": "event"
    },
    {
      "anonymous": false,
      "inputs": [
        {
          "indexed": false,
          "internalType": "string",
          "name": "methodology",
          "type": "string"
        }
      ],
      "name": "MethodologySet",
      "type": "event"
    },
    {
      "anonymous": false,
      "inputs": [
        {
          "indexed": false,
          "internalType": "address",
          "name": "feeReceiver",
          "type": "address"
        },
        {
          "indexed": false,
          "internalType": "uint256",
          "name": "timestamp",
          "type": "uint256"
        },
        {
          "indexed": false,
          "internalType": "uint256",
          "name": "totalSupply",
          "type": "uint256"
        },
        {
          "indexed": false,
          "internalType": "uint256",
          "name": "amount",
          "type": "uint256"
        }
      ],
      "name": "MintFeeToReceiver",
      "type": "event"
    },
    {
      "anonymous": false,
      "inputs": [
        {
          "indexed": true,
          "internalType": "address",
          "name": "minter",
          "type": "address"
        }
      ],
      "name": "MinterSet",
      "type": "event"
    },
    {
      "anonymous": false,
      "inputs": [
        {
          "indexed": true,
          "internalType": "address",
          "name": "previousOwner",
          "type": "address"
        },
        {
          "indexed": true,
          "internalType": "address",
          "name": "newOwner",
          "type": "address"
        }
      ],
      "name": "OwnershipTransferred",
      "type": "event"
    },
    {
      "anonymous": false,
      "inputs": [
        {
          "indexed": false,
          "internalType": "address",
          "name": "account",
          "type": "address"
        }
      ],
      "name": "Paused",
      "type": "event"
    },
    {
      "anonymous": false,
      "inputs": [
        {
          "indexed": false,
          "internalType": "uint256",
          "name": "supplyCeiling",
          "type": "uint256"
        }
      ],
      "name": "SupplyCeilingSet",
      "type": "event"
    },
    {
      "anonymous": false,
      "inputs": [
        {
          "indexed": true,
          "internalType": "address",
          "name": "account",
          "type": "address"
        },
        {
          "indexed": false,
          "internalType": "bool",
          "name": "isRestricted",
          "type": "bool"
        }
      ],
      "name": "ToggledRestricted",
      "type": "event"
    },
    {
      "anonymous": false,
      "inputs": [
        {
          "indexed": false,
          "internalType": "address",
          "name": "account",
          "type": "address"
        }
      ],
      "name": "Unpaused",
      "type": "event"
    },
    {
      "inputs": [],
      "name": "BONE",
      "outputs": [
        {
          "internalType": "address",
          "name": "",
          "type": "address"
        }
      ],
      "stateMutability": "view",
      "type": "function"
    },
    {
      "inputs": [],
      "name": "BabyDoge",
      "outputs": [
        {
          "internalType": "address",
          "name": "",
          "type": "address"
        }
      ],
      "stateMutability": "view",
      "type": "function"
    },
    {
      "inputs": [],
      "name": "ELON",
      "outputs": [
        {
          "internalType": "address",
          "name": "",
          "type": "address"
        }
      ],
      "stateMutability": "view",
      "type": "function"
    },
    {
      "inputs": [],
      "name": "FLOKI",
      "outputs": [
        {
          "internalType": "address",
          "name": "",
          "type": "address"
        }
      ],
      "stateMutability": "view",
      "type": "function"
    },
    {
      "inputs": [],
      "name": "HarryPotterObamaSonic10Inu",
      "outputs": [
        {
          "internalType": "address",
          "name": "",
          "type": "address"
        }
      ],
      "stateMutability": "view",
      "type": "function"
    },
    {
      "inputs": [],
      "name": "LEASH",
      "outputs": [
        {
          "internalType": "address",
          "name": "",
          "type": "address"
        }
      ],
      "stateMutability": "view",
      "type": "function"
    },
    {
      "inputs": [],
      "name": "MEME",
      "outputs": [
        {
          "internalType": "address",
          "name": "",
          "type": "address"
        }
      ],
      "stateMutability": "view",
      "type": "function"
    },
    {
      "inputs": [],
      "name": "PEPE",
      "outputs": [
        {
          "internalType": "address",
          "name": "",
          "type": "address"
        }
      ],
      "stateMutability": "view",
      "type": "function"
    },
    {
      "inputs": [],
      "name": "QUOTER",
      "outputs": [
        {
          "internalType": "address",
          "name": "",
          "type": "address"
        }
      ],
      "stateMutability": "view",
      "type": "function"
    },
    {
      "inputs": [],
      "name": "SHIB",
      "outputs": [
        {
          "internalType": "address",
          "name": "",
          "type": "address"
        }
      ],
      "stateMutability": "view",
      "type": "function"
    },
    {
      "inputs": [],
      "name": "WETH9",
      "outputs": [
        {
          "internalType": "address",
          "name": "",
          "type": "address"
        }
      ],
      "stateMutability": "view",
      "type": "function"
    },
    {
      "inputs": [],
      "name": "WSM",
      "outputs": [
        {
          "internalType": "address",
          "name": "",
          "type": "address"
        }
      ],
      "stateMutability": "view",
      "type": "function"
    },
    {
      "inputs": [
        {
          "internalType": "uint256",
          "name": "",
          "type": "uint256"
        }
      ],
      "name": "assetList",
      "outputs": [
        {
          "internalType": "address",
          "name": "",
          "type": "address"
        }
      ],
      "stateMutability": "view",
      "type": "function"
    },
    {
      "inputs": [
        {
          "internalType": "string",
          "name": "a",
          "type": "string"
        },
        {
          "internalType": "string",
          "name": "b",
          "type": "string"
        }
      ],
      "name": "concatenation",
      "outputs": [
        {
          "internalType": "string",
          "name": "",
          "type": "string"
        }
      ],
      "stateMutability": "pure",
      "type": "function"
    },
    {
      "inputs": [
        {
          "internalType": "uint256",
          "name": "",
          "type": "uint256"
        }
      ],
      "name": "currentList",
      "outputs": [
        {
          "internalType": "address",
          "name": "",
          "type": "address"
        }
      ],
      "stateMutability": "view",
      "type": "function"
    },
    {
      "inputs": [
        {
          "internalType": "address",
          "name": "tokenIn",
          "type": "address"
        },
        {
          "internalType": "address",
          "name": "tokenOut",
          "type": "address"
        },
        {
          "internalType": "uint128",
          "name": "amountIn",
          "type": "uint128"
        },
        {
          "internalType": "uint32",
          "name": "secondsAgo",
          "type": "uint32"
        }
      ],
      "name": "estimateAmountOut",
      "outputs": [
        {
          "internalType": "uint256",
          "name": "amountOut",
          "type": "uint256"
        }
      ],
      "stateMutability": "view",
      "type": "function"
    },
    {
      "inputs": [],
      "name": "externalJobId",
      "outputs": [
        {
          "internalType": "bytes32",
          "name": "",
          "type": "bytes32"
        }
      ],
      "stateMutability": "view",
      "type": "function"
    },
    {
      "inputs": [],
      "name": "factoryV2",
      "outputs": [
        {
          "internalType": "contract IUniswapV2Factory",
          "name": "",
          "type": "address"
        }
      ],
      "stateMutability": "view",
      "type": "function"
    },
    {
      "inputs": [],
      "name": "factoryV3",
      "outputs": [
        {
          "internalType": "contract IUniswapV3Factory",
          "name": "",
          "type": "address"
        }
      ],
      "stateMutability": "view",
      "type": "function"
    },
    {
      "inputs": [],
      "name": "fee",
      "outputs": [
        {
          "internalType": "uint256",
          "name": "",
          "type": "uint256"
        }
      ],
      "stateMutability": "view",
      "type": "function"
    },
    {
      "inputs": [],
      "name": "feeRatePerDayScaled",
      "outputs": [
        {
          "internalType": "uint256",
          "name": "",
          "type": "uint256"
        }
      ],
      "stateMutability": "view",
      "type": "function"
    },
    {
      "inputs": [],
      "name": "feeReceiver",
      "outputs": [
        {
          "internalType": "address",
          "name": "",
          "type": "address"
        }
      ],
      "stateMutability": "view",
      "type": "function"
    },
    {
      "inputs": [],
      "name": "feeTimestamp",
      "outputs": [
        {
          "internalType": "uint256",
          "name": "",
          "type": "uint256"
        }
      ],
      "stateMutability": "view",
      "type": "function"
    },
    {
      "inputs": [
        {
          "internalType": "bytes32",
          "name": "requestId",
          "type": "bytes32"
        },
        {
          "internalType": "address[]",
          "name": "_tokens",
          "type": "address[]"
        },
        {
          "internalType": "uint256[]",
          "name": "_marketShares",
          "type": "uint256[]"
        },
        {
          "internalType": "uint256[]",
          "name": "_swapVersions",
          "type": "uint256[]"
        }
      ],
      "name": "fulfillFundingRate",
      "outputs": [],
      "stateMutability": "nonpayable",
      "type": "function"
    },
    {
      "inputs": [
        {
          "internalType": "address",
          "name": "tokenIn",
          "type": "address"
        },
        {
          "internalType": "address",
          "name": "tokenOut",
          "type": "address"
        },
        {
          "internalType": "uint256",
          "name": "amountIn",
          "type": "uint256"
        },
        {
          "internalType": "uint256",
          "name": "_swapVersion",
          "type": "uint256"
        }
      ],
      "name": "getAmountOut",
      "outputs": [
        {
          "internalType": "uint256",
          "name": "finalAmountOut",
          "type": "uint256"
        }
      ],
      "stateMutability": "nonpayable",
      "type": "function"
    },
    {
      "inputs": [],
      "name": "getAmounts",
      "outputs": [
        {
          "internalType": "uint256",
          "name": "",
          "type": "uint256"
        },
        {
          "internalType": "uint256",
          "name": "",
          "type": "uint256"
        }
      ],
      "stateMutability": "nonpayable",
      "type": "function"
    },
    {
      "inputs": [],
      "name": "getPool",
      "outputs": [
        {
          "internalType": "address",
          "name": "",
          "type": "address"
        },
        {
          "internalType": "address",
          "name": "",
          "type": "address"
        }
      ],
      "stateMutability": "nonpayable",
      "type": "function"
    },
    {
      "inputs": [],
      "name": "getPortfolioBalance",
      "outputs": [
        {
          "internalType": "uint256",
          "name": "",
          "type": "uint256"
        }
      ],
      "stateMutability": "nonpayable",
      "type": "function"
    },
    {
      "inputs": [],
      "name": "indexToken",
      "outputs": [
        {
          "internalType": "contract IndexToken",
          "name": "",
          "type": "address"
        }
      ],
      "stateMutability": "view",
      "type": "function"
    },
    {
      "inputs": [
        {
          "internalType": "address payable",
          "name": "_token",
          "type": "address"
        },
        {
          "internalType": "address",
          "name": "_nft",
          "type": "address"
        },
        {
          "internalType": "address",
          "name": "_chainlinkToken",
          "type": "address"
        },
        {
          "internalType": "address",
          "name": "_oracleAddress",
          "type": "address"
        },
        {
          "internalType": "bytes32",
          "name": "_externalJobId",
          "type": "bytes32"
        }
      ],
      "name": "initialize",
      "outputs": [],
      "stateMutability": "nonpayable",
      "type": "function"
    },
    {
      "inputs": [
        {
          "internalType": "address",
          "name": "",
          "type": "address"
        }
      ],
      "name": "isRestricted",
      "outputs": [
        {
          "internalType": "bool",
          "name": "",
          "type": "bool"
        }
      ],
      "stateMutability": "view",
      "type": "function"
    },
    {
      "inputs": [
        {
          "internalType": "address",
          "name": "tokenIn",
          "type": "address"
        },
        {
          "internalType": "uint256",
          "name": "amountIn",
          "type": "uint256"
        }
      ],
      "name": "issuanceIndexTokens",
      "outputs": [],
      "stateMutability": "nonpayable",
      "type": "function"
    },
    {
      "inputs": [],
      "name": "issuanceIndexTokensWithEth",
      "outputs": [],
      "stateMutability": "payable",
      "type": "function"
    },
    {
      "inputs": [],
      "name": "lastUpdateTime",
      "outputs": [
        {
          "internalType": "uint256",
          "name": "",
          "type": "uint256"
        }
      ],
      "stateMutability": "view",
      "type": "function"
    },
    {
      "inputs": [],
      "name": "methodologist",
      "outputs": [
        {
          "internalType": "address",
          "name": "",
          "type": "address"
        }
      ],
      "stateMutability": "view",
      "type": "function"
    },
    {
      "inputs": [],
      "name": "methodology",
      "outputs": [
        {
          "internalType": "string",
          "name": "",
          "type": "string"
        }
      ],
      "stateMutability": "view",
      "type": "function"
    },
    {
      "inputs": [],
      "name": "minter",
      "outputs": [
        {
          "internalType": "address",
          "name": "",
          "type": "address"
        }
      ],
      "stateMutability": "view",
      "type": "function"
    },
    {
      "inputs": [],
      "name": "nft",
      "outputs": [
        {
          "internalType": "contract RequestNFT",
          "name": "",
          "type": "address"
        }
      ],
      "stateMutability": "view",
      "type": "function"
    },
    {
      "inputs": [
        {
          "internalType": "uint256",
          "name": "",
          "type": "uint256"
        }
      ],
      "name": "oracleList",
      "outputs": [
        {
          "internalType": "address",
          "name": "",
          "type": "address"
        }
      ],
      "stateMutability": "view",
      "type": "function"
    },
    {
      "inputs": [],
      "name": "oraclePayment",
      "outputs": [
        {
          "internalType": "uint256",
          "name": "",
          "type": "uint256"
        }
      ],
      "stateMutability": "view",
      "type": "function"
    },
    {
      "inputs": [],
      "name": "owner",
      "outputs": [
        {
          "internalType": "address",
          "name": "",
          "type": "address"
        }
      ],
      "stateMutability": "view",
      "type": "function"
    },
    {
      "inputs": [],
      "name": "pause",
      "outputs": [],
      "stateMutability": "nonpayable",
      "type": "function"
    },
    {
      "inputs": [],
      "name": "paused",
      "outputs": [
        {
          "internalType": "bool",
          "name": "",
          "type": "bool"
        }
      ],
      "stateMutability": "view",
      "type": "function"
    },
    {
      "inputs": [
        {
          "internalType": "address",
          "name": "_proposedOwner",
          "type": "address"
        }
      ],
      "name": "proposeOwner",
      "outputs": [],
      "stateMutability": "nonpayable",
      "type": "function"
    },
    {
      "inputs": [],
      "name": "proposedOwner",
      "outputs": [
        {
          "internalType": "address",
          "name": "",
          "type": "address"
        }
      ],
      "stateMutability": "view",
      "type": "function"
    },
    {
      "inputs": [],
      "name": "quoter",
      "outputs": [
        {
          "internalType": "contract IQuoter",
          "name": "",
          "type": "address"
        }
      ],
      "stateMutability": "view",
      "type": "function"
    },
    {
      "inputs": [
        {
          "internalType": "address",
          "name": "tokenIn",
          "type": "address"
        },
        {
          "internalType": "uint256",
          "name": "amountIn",
          "type": "uint256"
        }
      ],
      "name": "redemption",
      "outputs": [],
      "stateMutability": "nonpayable",
      "type": "function"
    },
    {
      "inputs": [],
      "name": "renounceOwnership",
      "outputs": [],
      "stateMutability": "nonpayable",
      "type": "function"
    },
    {
      "inputs": [],
      "name": "requestFundingRate",
      "outputs": [
        {
          "internalType": "bytes32",
          "name": "",
          "type": "bytes32"
        }
      ],
      "stateMutability": "nonpayable",
      "type": "function"
    },
    {
      "inputs": [],
      "name": "sswap",
      "outputs": [],
      "stateMutability": "payable",
      "type": "function"
    },
    {
      "inputs": [],
      "name": "supplyCeiling",
      "outputs": [
        {
          "internalType": "uint256",
          "name": "",
          "type": "uint256"
        }
      ],
      "stateMutability": "view",
      "type": "function"
    },
    {
      "inputs": [],
      "name": "swapGas",
      "outputs": [],
      "stateMutability": "payable",
      "type": "function"
    },
    {
      "inputs": [],
      "name": "swapGas1",
      "outputs": [],
      "stateMutability": "payable",
      "type": "function"
    },
    {
      "inputs": [],
      "name": "swapRouterV2",
      "outputs": [
        {
          "internalType": "contract IUniswapV2Router02",
          "name": "",
          "type": "address"
        }
      ],
      "stateMutability": "view",
      "type": "function"
    },
    {
      "inputs": [],
      "name": "swapRouterV3",
      "outputs": [
        {
          "internalType": "contract ISwapRouter",
          "name": "",
          "type": "address"
        }
      ],
      "stateMutability": "view",
      "type": "function"
    },
    {
      "inputs": [
        {
          "internalType": "address",
          "name": "",
          "type": "address"
        }
      ],
      "name": "tokenMarketShare",
      "outputs": [
        {
          "internalType": "uint256",
          "name": "",
          "type": "uint256"
        }
      ],
      "stateMutability": "view",
      "type": "function"
    },
    {
      "inputs": [
        {
          "internalType": "address",
          "name": "",
          "type": "address"
        }
      ],
      "name": "tokenSwapVersion",
      "outputs": [
        {
          "internalType": "uint256",
          "name": "",
          "type": "uint256"
        }
      ],
      "stateMutability": "view",
      "type": "function"
    },
    {
      "inputs": [
        {
          "internalType": "address",
          "name": "newOwner",
          "type": "address"
        }
      ],
      "name": "transferOwnership",
      "outputs": [],
      "stateMutability": "nonpayable",
      "type": "function"
    },
    {
      "inputs": [],
      "name": "unpause",
      "outputs": [],
      "stateMutability": "nonpayable",
      "type": "function"
    },
    {
      "inputs": [],
      "name": "weth",
      "outputs": [
        {
          "internalType": "contract IWETH",
          "name": "",
          "type": "address"
        }
      ],
      "stateMutability": "view",
      "type": "function"
    },
    {
      "stateMutability": "payable",
      "type": "receive"
    }
  ],
  "bytecode": {
    "object": "0x600160045560db80546001600160a01b0319167395ad61b0a150d79219dcf64e1e6cc01f0b64c4ce9081179091556101c06040526080908152736982508145454ce325ddbe47a25d4ec3d231193360a05273cf0c122c6b73ff809c693db761e7baebe62b6a2e60c05273b131f4a55907b10d1f0a50d8ab8fa09ec342cd7460e05273ac57de9c1a09fec648e93eb98875b212db0d460b61010052739813037ee2218799597d83d4a5b6f3b6778218d9610120527372e4f9f808c49a2a61de9c5896298920dc4eeea96101405273761d38e5ddf6ccf6cf7c55759d5210750b5d60f36101605273b62e45c3df611dce236a6ddc7a493d79f9dfadef610180527327c70cd1946795b66be9d954418546998b5466346101a052620001269060dc90600a620001e5565b506040518060600160405280602a815260200162005299602a91398051620001579160dd916020909101906200024f565b506040518060600160405280602e8152602001620052c3602e91398051620001889160de916020909101906200024f565b5060e680546001600160a01b031990811673c02aaa39b223fe8d0a0e5c4f27ead9083c756cc21790915560e7805490911673b27308f9f90d607463bb33ea1bebb41c27ce5ab6179055348015620001de57600080fd5b5062000320565b8280548282559060005260206000209081019282156200023d579160200282015b828111156200023d57825182546001600160a01b0319166001600160a01b0390911617825560209092019160019091019062000206565b506200024b929150620002cc565b5090565b8280546200025d90620002e3565b90600052602060002090601f0160209004810192826200028157600085556200023d565b82601f106200029c57805160ff19168380011785556200023d565b828001600101855582156200023d579182015b828111156200023d578251825591602001919060010190620002af565b5b808211156200024b5760008155600101620002cd565b600181811c90821680620002f857607f821691505b602082108114156200031a57634e487b7160e01b600052602260045260246000fd5b50919050565b614f6980620003306000396000f3fe60806040526004361061039b5760003560e01c80637c10041a116101dc578063b631e80b11610102578063d1a72ed6116100a0578063e4fbaecb1161006f578063e4fbaecb14610a9b578063e7d015f214610ac3578063f2fde38b14610ae3578063fcaae87b14610b0357600080fd5b8063d1a72ed614610a10578063d90bc21114610a38578063ddca3f4314610a65578063e24b85e714610a7b57600080fd5b8063c36596a6116100dc578063c36596a614610992578063c6bbd5a7146109ba578063c8f33c91146109da578063d153b60c146109f057600080fd5b8063b631e80b14610920578063bf938db814610942578063c01bc9821461096257600080fd5b80639f8e67bf1161017a578063ad39e5fd11610149578063ad39e5fd14610898578063b3f00674146108c0578063b51db0e8146108e0578063b5ed298a1461090057600080fd5b80639f8e67bf1461082d578063a0b4b3011461084d578063a8509fd81461086d578063a8b54bd41461088257600080fd5b80638da5cb5b116101b65780638da5cb5b146107b25780638dae88c2146107d05780639932ba4c146107f85780639eeb1d501461081857600080fd5b80637c10041a146107755780638456cb591461077d5780638be788471461079257600080fd5b80632f9f8c13116102c157806347ccca021161025f578063616bcd211161022e578063616bcd21146106f057806368e0d4e114610710578063715018a614610738578063744fbc7a1461074d57600080fd5b806347ccca02146106625780634aa4a4fc146106825780635725a977146106a45780635c975abb146106cc57600080fd5b80633d370b4e1161029b5780633d370b4e146105ee5780633f4ba83a146106185780633fc8cef31461062d5780634309e5df1461064d57600080fd5b80632f9f8c13146105885780632fab7aea146105b05780632fecd589146105d857600080fd5b8063184a732f11610339578063239aad0d11610308578063239aad0d1461050a578063297a3e571461052a5780632b52684d1461054a5780632e7b09481461056057600080fd5b8063184a732f146104bc57806319b1f86a146104d25780631d5f45f5146104da578063209db5301461050257600080fd5b80630e329357116103755780630e3293571461043d5780630fb405b71461046a57806312740eb51461049257806313cb1f831461049c57600080fd5b8063026b1d5f146103a757806307546172146103e15780630c02e1301461041957600080fd5b366103a257005b600080fd5b3480156103b357600080fd5b506103bc610b30565b604080516001600160a01b039384168152929091166020830152015b60405180910390f35b3480156103ed57600080fd5b5060d754610401906001600160a01b031681565b6040516001600160a01b0390911681526020016103d8565b34801561042557600080fd5b5061042f60e05481565b6040519081526020016103d8565b34801561044957600080fd5b5061045d6104583660046147a1565b610c98565b6040516103d891906149b2565b34801561047657600080fd5b506104017372e4f9f808c49a2a61de9c5896298920dc4eeea981565b61049a610cc5565b005b3480156104a857600080fd5b5061042f6104b73660046144ad565b61151b565b3480156104c857600080fd5b5061042f60d45481565b61049a61167f565b3480156104e657600080fd5b50610401731f98431c8ad98523631ae4a59f267346ea31f98481565b61049a611993565b34801561051657600080fd5b506104016105253660046147fa565b611b6f565b34801561053657600080fd5b5061049a6105453660046143d8565b611b99565b34801561055657600080fd5b5061042f60d95481565b34801561056c57600080fd5b5061040173b131f4a55907b10d1f0a50d8ab8fa09ec342cd7481565b34801561059457600080fd5b5061040173cf0c122c6b73ff809c693db761e7baebe62b6a2e81565b3480156105bc57600080fd5b5061040173761d38e5ddf6ccf6cf7c55759d5210750b5d60f381565b3480156105e457600080fd5b5061042f60d35481565b3480156105fa57600080fd5b50610603611d42565b604080519283526020830191909152016103d8565b34801561062457600080fd5b5061049a611f79565b34801561063957600080fd5b5060e654610401906001600160a01b031681565b34801561065957600080fd5b5061042f611f8b565b34801561066e57600080fd5b5060d154610401906001600160a01b031681565b34801561068e57600080fd5b50610401600080516020614ef483398151915281565b3480156106b057600080fd5b5061040173b62e45c3df611dce236a6ddc7a493d79f9dfadef81565b3480156106d857600080fd5b50609e5460ff165b60405190151581526020016103d8565b3480156106fc57600080fd5b5061049a61070b3660046144f3565b612226565b34801561071c57600080fd5b50610401735c69bee701ef814a2b6a3edd4b1652cb9cc5aa6f81565b34801561074457600080fd5b5061049a6124a3565b34801561075957600080fd5b50610401737a250d5630b4cf539739df2c5dacb4c659f2488d81565b61049a6124b5565b34801561078957600080fd5b5061049a61255b565b34801561079e57600080fd5b5061049a6107ad3660046144f3565b61256b565b3480156107be57600080fd5b506039546001600160a01b0316610401565b3480156107dc57600080fd5b5061040173b27308f9f90d607463bb33ea1bebb41c27ce5ab681565b34801561080457600080fd5b506104016108133660046147fa565b612848565b34801561082457600080fd5b5061045d612858565b34801561083957600080fd5b5060d654610401906001600160a01b031681565b34801561085957600080fd5b506104016108683660046147fa565b6128e6565b34801561087957600080fd5b5061042f6128f6565b34801561088e57600080fd5b5061042f60df5481565b3480156108a457600080fd5b506104017327c70cd1946795b66be9d954418546998b54663481565b3480156108cc57600080fd5b5060d554610401906001600160a01b031681565b3480156108ec57600080fd5b5061049a6108fb3660046146a9565b612a4b565b34801561090c57600080fd5b5061049a61091b36600461439e565b612c20565b34801561092c57600080fd5b50610401600080516020614f1483398151915281565b34801561094e57600080fd5b5061042f61095d36600461443c565b612c70565b34801561096e57600080fd5b506106e061097d36600461439e565b60da6020526000908152604090205460ff1681565b34801561099e57600080fd5b50610401739813037ee2218799597d83d4a5b6f3b6778218d981565b3480156109c657600080fd5b5060e754610401906001600160a01b031681565b3480156109e657600080fd5b5061042f60e15481565b3480156109fc57600080fd5b50606b54610401906001600160a01b031681565b348015610a1c57600080fd5b5061040173ac57de9c1a09fec648e93eb98875b212db0d460b81565b348015610a4457600080fd5b5061042f610a5336600461439e565b60e56020526000908152604090205481565b348015610a7157600080fd5b5061042f60d25481565b348015610a8757600080fd5b5060db54610401906001600160a01b031681565b348015610aa757600080fd5b50610401736982508145454ce325ddbe47a25d4ec3d231193381565b348015610acf57600080fd5b5060d054610401906001600160a01b031681565b348015610aef57600080fd5b5061049a610afe36600461439e565b612d38565b348015610b0f57600080fd5b5061042f610b1e36600461439e565b60e46020526000908152604090205481565b60db54604051630b4c774160e11b8152600080516020614ef483398151915260048201526001600160a01b039091166024820152610bb8604482015260009081908190731f98431c8ad98523631ae4a59f267346ea31f98490631698ee829060640160206040518083038186803b158015610baa57600080fd5b505afa158015610bbe573d6000803e3d6000fd5b505050506040513d601f19601f82011682018060405250810190610be291906143bb565b60db5460405163e6a4390560e01b8152600080516020614ef483398151915260048201526001600160a01b039091166024820152909150600090735c69bee701ef814a2b6a3edd4b1652cb9cc5aa6f9063e6a4390590604401602060405180830381600087803b158015610c5557600080fd5b505af1158015610c69573d6000803e3d6000fd5b505050506040513d601f19601f82011682018060405250810190610c8d91906143bb565b919491935090915050565b60608282604051602001610cad929190614891565b60405160208183030381529060405290505b92915050565b60db54600090610cf090600080516020614ef4833981519152906001600160a01b0316346001612c70565b60db54909150610d1b90600080516020614ef4833981519152906001600160a01b0316346001612c70565b60db54909150610d4690600080516020614ef4833981519152906001600160a01b0316346001612c70565b60db54909150610d7190600080516020614ef4833981519152906001600160a01b0316346001612c70565b60db54909150610d9c90600080516020614ef4833981519152906001600160a01b0316346001612c70565b60db54909150610dc790600080516020614ef4833981519152906001600160a01b0316346001612c70565b60db54909150610df290600080516020614ef4833981519152906001600160a01b0316346001612c70565b60db54909150610e1d90600080516020614ef4833981519152906001600160a01b0316346001612c70565b60db54909150610e4890600080516020614ef4833981519152906001600160a01b0316346001612c70565b60db54909150610e7390600080516020614ef4833981519152906001600160a01b0316346001612c70565b905060e660009054906101000a90046001600160a01b03166001600160a01b031663d0e30db0346040518263ffffffff1660e01b81526004016000604051808303818588803b158015610ec557600080fd5b505af1158015610ed9573d6000803e3d6000fd5b505060e65460405163095ea7b360e01b8152600080516020614f1483398151915260048201523460248201526001600160a01b03909116935063095ea7b392506044019050602060405180830381600087803b158015610f3857600080fd5b505af1158015610f4c573d6000803e3d6000fd5b505050506040513d601f19601f82011682018060405250810190610f709190614687565b506040805161010081018252600080516020614ef4833981519152815260db546001600160a01b03166020820152610bb89181019190915230606082015242608082015260009060a08101610fc6600a34614bd4565b81526000602082018190526040918201819052905163414bf38960e01b815291925090600080516020614f148339815191529063414bf3899061100d908590600401614a60565b602060405180830381600087803b15801561102757600080fd5b505af115801561103b573d6000803e3d6000fd5b505050506040513d601f19601f8201168201806040525081019061105f9190614813565b60405163414bf38960e01b8152909150600080516020614f148339815191529063414bf38990611093908590600401614a60565b602060405180830381600087803b1580156110ad57600080fd5b505af11580156110c1573d6000803e3d6000fd5b505050506040513d601f19601f820116820180604052508101906110e59190614813565b60405163414bf38960e01b8152909150600080516020614f148339815191529063414bf38990611119908590600401614a60565b602060405180830381600087803b15801561113357600080fd5b505af1158015611147573d6000803e3d6000fd5b505050506040513d601f19601f8201168201806040525081019061116b9190614813565b60405163414bf38960e01b8152909150600080516020614f148339815191529063414bf3899061119f908590600401614a60565b602060405180830381600087803b1580156111b957600080fd5b505af11580156111cd573d6000803e3d6000fd5b505050506040513d601f19601f820116820180604052508101906111f19190614813565b60405163414bf38960e01b8152909150600080516020614f148339815191529063414bf38990611225908590600401614a60565b602060405180830381600087803b15801561123f57600080fd5b505af1158015611253573d6000803e3d6000fd5b505050506040513d601f19601f820116820180604052508101906112779190614813565b60405163414bf38960e01b8152909150600080516020614f148339815191529063414bf389906112ab908590600401614a60565b602060405180830381600087803b1580156112c557600080fd5b505af11580156112d9573d6000803e3d6000fd5b505050506040513d601f19601f820116820180604052508101906112fd9190614813565b60405163414bf38960e01b8152909150600080516020614f148339815191529063414bf38990611331908590600401614a60565b602060405180830381600087803b15801561134b57600080fd5b505af115801561135f573d6000803e3d6000fd5b505050506040513d601f19601f820116820180604052508101906113839190614813565b60405163414bf38960e01b8152909150600080516020614f148339815191529063414bf389906113b7908590600401614a60565b602060405180830381600087803b1580156113d157600080fd5b505af11580156113e5573d6000803e3d6000fd5b505050506040513d601f19601f820116820180604052508101906114099190614813565b60405163414bf38960e01b8152909150600080516020614f148339815191529063414bf3899061143d908590600401614a60565b602060405180830381600087803b15801561145757600080fd5b505af115801561146b573d6000803e3d6000fd5b505050506040513d601f19601f8201168201806040525081019061148f9190614813565b60405163414bf38960e01b8152909150600080516020614f148339815191529063414bf389906114c3908590600401614a60565b602060405180830381600087803b1580156114dd57600080fd5b505af11580156114f1573d6000803e3d6000fd5b505050506040513d601f19601f820116820180604052508101906115159190614813565b50505050565b60008083156116745782600314156115415761153a8686866001612c70565b9050611674565b604080516002808252606082018352600092602083019080368337019050509050868160008151811061157657611576614eb2565b60200260200101906001600160a01b031690816001600160a01b03168152505085816001815181106115aa576115aa614eb2565b6001600160a01b039092166020928302919091019091015260405163d06ca61f60e01b8152600090737a250d5630b4cf539739df2c5dacb4c659f2488d9063d06ca61f906115fe9089908690600401614999565b60006040518083038186803b15801561161657600080fd5b505afa15801561162a573d6000803e3d6000fd5b505050506040513d6000823e601f3d908101601f1916820160405261165291908101906145f0565b90508060018151811061166757611667614eb2565b6020026020010151925050505b90505b949350505050565b60e660009054906101000a90046001600160a01b03166001600160a01b031663d0e30db0346040518263ffffffff1660e01b81526004016000604051808303818588803b1580156116cf57600080fd5b505af11580156116e3573d6000803e3d6000fd5b505050505060006116f26128f6565b90503460005b60e3548110156117f4576117e1600080516020614ef483398151915260e3838154811061172757611727614eb2565b9060005260206000200160009054906101000a90046001600160a01b031668056bc75e2d6310000060e4600060e3878154811061176657611766614eb2565b60009182526020808320909101546001600160a01b031683528201929092526040019020546117959087614d02565b61179f9190614bd4565b3060e5600060e388815481106117b7576117b7614eb2565b60009182526020808320909101546001600160a01b03168352820192909252604001902054612e5d565b50806117ec81614e35565b9150506116f8565b5060008060d060009054906101000a90046001600160a01b03166001600160a01b03166318160ddd6040518163ffffffff1660e01b815260040160206040518083038186803b15801561184657600080fd5b505afa15801561185a573d6000803e3d6000fd5b505050506040513d601f19601f8201168201806040525081019061187e9190614813565b111561192757828260d060009054906101000a90046001600160a01b03166001600160a01b03166318160ddd6040518163ffffffff1660e01b815260040160206040518083038186803b1580156118d457600080fd5b505afa1580156118e8573d6000803e3d6000fd5b505050506040513d601f19601f8201168201806040525081019061190c9190614813565b6119169190614d02565b6119209190614bd4565b905061192a565b50805b60d0546040516340c10f1960e01b8152336004820152602481018390526001600160a01b03909116906340c10f1990604401600060405180830381600087803b15801561197657600080fd5b505af115801561198a573d6000803e3d6000fd5b50505050505050565b60e660009054906101000a90046001600160a01b03166001600160a01b031663d0e30db0346040518263ffffffff1660e01b81526004016000604051808303818588803b1580156119e357600080fd5b505af11580156119f7573d6000803e3d6000fd5b505060e65460405163095ea7b360e01b8152600080516020614f1483398151915260048201523460248201526001600160a01b03909116935063095ea7b392506044019050602060405180830381600087803b158015611a5657600080fd5b505af1158015611a6a573d6000803e3d6000fd5b505050506040513d601f19601f82011682018060405250810190611a8e9190614687565b506040805161010081018252600080516020614ef4833981519152815260db546001600160a01b03166020820152610bb8818301523060608201524260808201523460a0820152600060c0820181905260e08201819052915163414bf38960e01b8152909190600080516020614f148339815191529063414bf38990611b18908590600401614a60565b602060405180830381600087803b158015611b3257600080fd5b505af1158015611b46573d6000803e3d6000fd5b505050506040513d601f19601f82011682018060405250810190611b6a9190614813565b505050565b60e28181548110611b7f57600080fd5b6000918252602090912001546001600160a01b0316905081565b600654610100900460ff1615808015611bb95750600654600160ff909116105b80611bd35750303b158015611bd3575060065460ff166001145b611c3b5760405162461bcd60e51b815260206004820152602e60248201527f496e697469616c697a61626c653a20636f6e747261637420697320616c72656160448201526d191e481a5b9a5d1a585b1a5e995960921b60648201526084015b60405180910390fd5b6006805460ff191660011790558015611c5e576006805461ff0019166101001790555b611c6661317b565b611c6e6131aa565b60d080546001600160a01b0388166001600160a01b0319909116179055611cb284600280546001600160a01b039092166001600160a01b0319909216919091179055565b600380546001600160a01b0319166001600160a01b03851617905560df829055600a611ce7670de0b6b3a76400006001614d02565b611cf19190614bd4565b60e0558015611d3a576006805461ff0019169055604051600181527f7f26b83ff96e1f2b6a682f133852f6798a09c465da95921460cefb38474024989060200160405180910390a15b505050505050565b60e75460405163f7729d4360e01b8152600080516020614ef483398151915260048201527327c70cd1946795b66be9d954418546998b5466346024820152610bb86044820152670de0b6b3a7640000606482015260006084820181905291829182916001600160a01b03169063f7729d439060a401602060405180830381600087803b158015611dd157600080fd5b505af1925050508015611e01575060408051601f3d908101601f19168201909252611dfe91810190614813565b60015b611e0d57506000611e10565b90505b604080516002808252606082018352600092602083019080368337019050509050600080516020614ef483398151915281600081518110611e5357611e53614eb2565b60200260200101906001600160a01b031690816001600160a01b0316815250507327c70cd1946795b66be9d954418546998b54663481600181518110611e9b57611e9b614eb2565b6001600160a01b039092166020928302919091019091015260405163d06ca61f60e01b8152600090737a250d5630b4cf539739df2c5dacb4c659f2488d9063d06ca61f90611ef790670de0b6b3a7640000908690600401614999565b60006040518083038186803b158015611f0f57600080fd5b505afa925050508015611f4457506040513d6000823e601f3d908101601f19168201604052611f4191908101906145f0565b60015b611f5057506000610c8d565b80600181518110611f6357611f63614eb2565b6020026020010151915050919491935090915050565b611f816131d9565b611f89613233565b565b6000806120ac60dd8054611f9e90614e00565b80601f0160208091040260200160405190810160405280929190818152602001828054611fca90614e00565b80156120175780601f10611fec57610100808354040283529160200191612017565b820191906000526020600020905b815481529060010190602001808311611ffa57829003601f168201915b505050505060de805461202990614e00565b80601f016020809104026020016040519081016040528092919081815260200182805461205590614e00565b80156120a25780601f10612077576101008083540402835291602001916120a2565b820191906000526020600020905b81548152906001019060200180831161208557829003601f168201915b5050505050610c98565b905060006120c460df543063b51db0e860e01b613285565b60408051808201909152600381526219d95d60ea1b60208201529091506120ed908290846132ac565b61214560405180604001604052806005815260200164706174683160d81b8152506040518060400160405280600e81526020016d726573756c74732c746f6b656e7360901b815250836132ac9092919063ffffffff16565b6121a3604051806040016040528060058152602001643830ba341960d91b81525060405180604001604052806014815260200173726573756c74732c6d61726b657453686172657360601b815250836132ac9092919063ffffffff16565b61220160405180604001604052806005815260200164706174683360d81b81525060405180604001604052806014815260200173726573756c74732c7377617056657273696f6e7360601b815250836132ac9092919063ffffffff16565b61221f6122166003546001600160a01b031690565b8260e0546132ca565b9250505090565b60d054604051632770a7eb60e21b815233600482015260248101839052670de0b6b3a7640000916001600160a01b031690639dc29fac90604401600060405180830381600087803b15801561227a57600080fd5b505af115801561228e573d6000803e3d6000fd5b5050505060005b60e35481101561239f5761238c60e382815481106122b5576122b5614eb2565b9060005260206000200160009054906101000a90046001600160a01b0316600080516020614ef4833981519152670de0b6b3a764000060e385815481106122fe576122fe614eb2565b6000918252602090912001546040516370a0823160e01b81523060048201526001600160a01b03909116906370a082319060240160206040518083038186803b15801561234a57600080fd5b505afa15801561235e573d6000803e3d6000fd5b505050506040513d601f19601f820116820180604052508101906123829190614813565b6117959087614d02565b508061239781614e35565b915050612295565b5060e6546040516370a0823160e01b81523060048201526001600160a01b039091169063a9059cbb90339083906370a082319060240160206040518083038186803b1580156123ed57600080fd5b505afa158015612401573d6000803e3d6000fd5b505050506040513d601f19601f820116820180604052508101906124259190614813565b6040516001600160e01b031960e085901b1681526001600160a01b0390921660048301526024820152604401602060405180830381600087803b15801561246b57600080fd5b505af115801561247f573d6000803e3d6000fd5b505050506040513d601f19601f820116820180604052508101906115159190614687565b6124ab6131d9565b611f89600061335d565b60e660009054906101000a90046001600160a01b03166001600160a01b031663d0e30db0346040518263ffffffff1660e01b81526004016000604051808303818588803b15801561250557600080fd5b505af1158015612519573d6000803e3d6000fd5b505060db546001600160a01b0316600081815260e560205260409020546125589450600080516020614ef4833981519152935090915034903090612e5d565b50565b6125636131d9565b611f896133af565b6040516323b872dd60e01b8152336004820152306024820152604481018290526001600160a01b038316906323b872dd90606401602060405180830381600087803b1580156125b957600080fd5b505af11580156125cd573d6000803e3d6000fd5b505050506040513d601f19601f820116820180604052508101906125f19190614687565b5060006125fc6128f6565b9050600061264084600080516020614ef4833981519152853060e560008a6001600160a01b03166001600160a01b0316815260200190815260200160002054612e5d565b905060005b60e3548110156126a757612694600080516020614ef483398151915260e3838154811061267457612674614eb2565b6000918252602090912001546001600160a01b031661179f600a86614bd4565b508061269f81614e35565b915050612645565b5060008060d060009054906101000a90046001600160a01b03166001600160a01b03166318160ddd6040518163ffffffff1660e01b815260040160206040518083038186803b1580156126f957600080fd5b505afa15801561270d573d6000803e3d6000fd5b505050506040513d601f19601f820116820180604052508101906127319190614813565b11156127da57828260d060009054906101000a90046001600160a01b03166001600160a01b03166318160ddd6040518163ffffffff1660e01b815260040160206040518083038186803b15801561278757600080fd5b505afa15801561279b573d6000803e3d6000fd5b505050506040513d601f19601f820116820180604052508101906127bf9190614813565b6127c99190614d02565b6127d39190614bd4565b90506127dd565b50805b60d0546040516340c10f1960e01b8152336004820152602481018390526001600160a01b03909116906340c10f1990604401600060405180830381600087803b15801561282957600080fd5b505af115801561283d573d6000803e3d6000fd5b505050505050505050565b60e38181548110611b7f57600080fd5b60d8805461286590614e00565b80601f016020809104026020016040519081016040528092919081815260200182805461289190614e00565b80156128de5780601f106128b3576101008083540402835291602001916128de565b820191906000526020600020905b8154815290600101906020018083116128c157829003601f168201915b505050505081565b60dc8181548110611b7f57600080fd5b60008060005b60e354811015612a45576000612a2360e3838154811061291e5761291e614eb2565b9060005260206000200160009054906101000a90046001600160a01b0316600080516020614ef483398151915260e3858154811061295e5761295e614eb2565b6000918252602090912001546040516370a0823160e01b81523060048201526001600160a01b03909116906370a082319060240160206040518083038186803b1580156129aa57600080fd5b505afa1580156129be573d6000803e3d6000fd5b505050506040513d601f19601f820116820180604052508101906129e29190614813565b60e5600060e388815481106129f9576129f9614eb2565b60009182526020808320909101546001600160a01b0316835282019290925260400190205461151b565b9050612a2f8184614b58565b9250508080612a3d90614e35565b9150506128fc565b50919050565b60008481526005602052604090205484906001600160a01b03163314612ac45760405162461bcd60e51b815260206004820152602860248201527f536f75726365206d75737420626520746865206f7261636c65206f6620746865604482015267081c995c5d595cdd60c21b6064820152608401611c32565b60008181526005602052604080822080546001600160a01b03191690555182917f7cc135e0cebb02c3480ae5d74d377283180a2601f8f644edf7987b009316c63a91a28351612b1a9060e290602087019061419f565b5060e354612b37578351612b359060e390602087019061419f565b505b83838360005b8351811015612c1157828181518110612b5857612b58614eb2565b602002602001015160e46000868481518110612b7657612b76614eb2565b60200260200101516001600160a01b03166001600160a01b0316815260200190815260200160002081905550818181518110612bb457612bb4614eb2565b602002602001015160e56000868481518110612bd257612bd2614eb2565b60200260200101516001600160a01b03166001600160a01b03168152602001908152602001600020819055508080612c0990614e35565b915050612b3d565b50504260e15550505050505050565b612c286131d9565b6001600160a01b038116612c4e5760405162461bcd60e51b8152600401611c32906149c5565b606b80546001600160a01b0319166001600160a01b0392909216919091179055565b604051630b4c774160e11b81526001600160a01b03808616600483015284166024820152610bb860448201526000908190731f98431c8ad98523631ae4a59f267346ea31f98490631698ee829060640160206040518083038186803b158015612cd857600080fd5b505afa158015612cec573d6000803e3d6000fd5b505050506040513d601f19601f82011682018060405250810190612d1091906143bb565b90506000612d1e82856133ec565b509050612d2d81868989613642565b979650505050505050565b6001600160a01b038116612d5e5760405162461bcd60e51b8152600401611c32906149c5565b606b546001600160a01b03828116911614612dd65760405162461bcd60e51b815260206004820152603260248201527f50726f706f7361626c654f776e61626c653a206e6577206f776e6572206973206044820152713737ba10383937b837b9b2b21037bbb732b960711b6064820152608401611c32565b6001600160a01b0381163314612e545760405162461bcd60e51b815260206004820152603a60248201527f50726f706f7361626c654f776e61626c653a20746869732063616c6c206d757360448201527f74206265206d61646520627920746865206e6577206f776e65720000000000006064820152608401611c32565b6125588161335d565b600080612e6c8787878661151b565b90508015613170578260031415612fe75760405163095ea7b360e01b8152600080516020614f148339815191526004820152602481018690526001600160a01b0388169063095ea7b390604401602060405180830381600087803b158015612ed357600080fd5b505af1158015612ee7573d6000803e3d6000fd5b505050506040513d601f19601f82011682018060405250810190612f0b9190614687565b5060408051610100810182526001600160a01b03808a1682528881166020830152610bb8828401528616606082015242608082015260a08101879052600060c0820181905260e08201819052915163414bf38960e01b8152909190600080516020614f148339815191529063414bf38990612f8a908590600401614a60565b602060405180830381600087803b158015612fa457600080fd5b505af1158015612fb8573d6000803e3d6000fd5b505050506040513d601f19601f82011682018060405250810190612fdc9190614813565b935061317292505050565b604080516002808252606082018352600092602083019080368337019050509050878160008151811061301c5761301c614eb2565b60200260200101906001600160a01b031690816001600160a01b031681525050868160018151811061305057613050614eb2565b6001600160a01b03928316602091820292909201015260405163095ea7b360e01b8152737a250d5630b4cf539739df2c5dacb4c659f2488d6004820152602481018890529089169063095ea7b390604401602060405180830381600087803b1580156130bb57600080fd5b505af11580156130cf573d6000803e3d6000fd5b505050506040513d601f19601f820116820180604052508101906130f39190614687565b50604051635c11d79560e01b8152737a250d5630b4cf539739df2c5dacb4c659f2488d90635c11d7959061313490899060009086908b904290600401614ac9565b600060405180830381600087803b15801561314e57600080fd5b505af1158015613162573d6000803e3d6000fd5b505050508192505050613172565b505b95945050505050565b600654610100900460ff166131a25760405162461bcd60e51b8152600401611c3290614a15565b611f8961374c565b600654610100900460ff166131d15760405162461bcd60e51b8152600401611c3290614a15565b611f8961377c565b6039546001600160a01b03163314611f895760405162461bcd60e51b815260206004820181905260248201527f4f776e61626c653a2063616c6c6572206973206e6f7420746865206f776e65726044820152606401611c32565b61323b6137af565b609e805460ff191690557f5db9ee0a495bf2e6ff9c91a7834c1ba4fdd244a5e8aa4e537bd38aeae4b073aa335b6040516001600160a01b03909116815260200160405180910390a1565b61328d614204565b613295614204565b6132a1818686866137f8565b9150505b9392505050565b60808301516132bb9083613835565b6080830151611b6a9082613835565b6004546000906132db816001614b58565b600455835160408086015160808701515191516000936320214ca360e11b936133139386938493923092918a916001916024016148c0565b60408051601f198184030181529190526020810180516001600160e01b03166001600160e01b03199093169290921790915290506133538683868461384c565b9695505050505050565b603980546001600160a01b038381166001600160a01b0319831681179093556040519116919082907f8be0079c531659141344cd1fd0a4f28419497f9722a3daafe3b4186f6b6457e090600090a35050565b6133b76139b9565b609e805460ff191660011790557f62e78cea01bee320cd4e420270b5ea74000d11b0c9f74754ebdbfc544b05a2586132683390565b60008063ffffffff83166134275760405162461bcd60e51b8152602060048201526002602482015261042560f41b6044820152606401611c32565b604080516002808252606082018352600092602083019080368337019050509050838160008151811061345c5761345c614eb2565b602002602001019063ffffffff16908163ffffffff168152505060008160018151811061348b5761348b614eb2565b602002602001019063ffffffff16908163ffffffff1681525050600080866001600160a01b031663883bdbfd846040518263ffffffff1660e01b81526004016134d4919061494f565b60006040518083038186803b1580156134ec57600080fd5b505afa158015613500573d6000803e3d6000fd5b505050506040513d6000823e601f3d908101601f19168201604052613528919081019061451f565b9150915060008260008151811061354157613541614eb2565b60200260200101518360018151811061355c5761355c614eb2565b602002602001015161356e9190614d21565b905060008260008151811061358557613585614eb2565b6020026020010151836001815181106135a0576135a0614eb2565b60200260200101516135b29190614d71565b90506135c463ffffffff891683614b70565b965060008260060b1280156135ea57506135e463ffffffff891683614e50565b60060b15155b156135fd57866135f981614ddc565b9750505b60006136166001600160a01b0363ffffffff8b16614cd3565b9050613633640100000000600160c01b03602084901b1682614bae565b96505050505050509250929050565b60008061364e866139ff565b90506001600160801b036001600160a01b038216116136d457600061367c6001600160a01b03831680614d02565b9050836001600160a01b0316856001600160a01b0316106136b4576136af600160c01b876001600160801b031683613d1f565b6136cc565b6136cc81876001600160801b0316600160c01b613d1f565b925050613743565b60006136f36001600160a01b0383168068010000000000000000613d1f565b9050836001600160a01b0316856001600160a01b03161061372b57613726600160801b876001600160801b031683613d1f565b612d2d565b612d2d81876001600160801b0316600160801b613d1f565b50949350505050565b600654610100900460ff166137735760405162461bcd60e51b8152600401611c3290614a15565b611f893361335d565b600654610100900460ff166137a35760405162461bcd60e51b8152600401611c3290614a15565b609e805460ff19169055565b609e5460ff16611f895760405162461bcd60e51b815260206004820152601460248201527314185d5cd8589b194e881b9bdd081c185d5cd95960621b6044820152606401611c32565b613800614204565b6138108560800151610100613dd2565b50509183526001600160a01b031660208301526001600160e01b031916604082015290565b6138428260038351613e37565b611b6a8282613f3e565b6040516bffffffffffffffffffffffff193060601b1660208201526034810184905260009060540160408051808303601f1901815282825280516020918201206000818152600590925291812080546001600160a01b0319166001600160a01b038a1617905590925082917fb5e6e01e79f91267dc17b4e6314d5d4d03593d2ceee0fbb452b750bd70ea5af99190a2600254604051630200057560e51b81526001600160a01b0390911690634000aea09061390f90889087908790600401614928565b602060405180830381600087803b15801561392957600080fd5b505af115801561393d573d6000803e3d6000fd5b505050506040513d601f19601f820116820180604052508101906139619190614687565b6116775760405162461bcd60e51b815260206004820152602360248201527f756e61626c6520746f207472616e73666572416e6443616c6c20746f206f7261604482015262636c6560e81b6064820152608401611c32565b609e5460ff1615611f895760405162461bcd60e51b815260206004820152601060248201526f14185d5cd8589b194e881c185d5cd95960821b6044820152606401611c32565b60008060008360020b12613a16578260020b613a1e565b8260020b6000035b9050620d89e8811115613a44576040516315e4079d60e11b815260040160405180910390fd5b600060018216613a5857600160801b613a6a565b6ffffcb933bd6fad37aa2d162d1a5940015b70ffffffffffffffffffffffffffffffffff1690506002821615613a9e576ffff97272373d413259a46990580e213a0260801c5b6004821615613abd576ffff2e50f5f656932ef12357cf3c7fdcc0260801c5b6008821615613adc576fffe5caca7e10e4e61c3624eaa0941cd00260801c5b6010821615613afb576fffcb9843d60f6159c9db58835c9266440260801c5b6020821615613b1a576fff973b41fa98c081472e6896dfb254c00260801c5b6040821615613b39576fff2ea16466c96a3843ec78b326b528610260801c5b6080821615613b58576ffe5dee046a99a2a811c461f1969c30530260801c5b610100821615613b78576ffcbe86c7900a88aedcffc83b479aa3a40260801c5b610200821615613b98576ff987a7253ac413176f2b074cf7815e540260801c5b610400821615613bb8576ff3392b0822b70005940c7a398e4b70f30260801c5b610800821615613bd8576fe7159475a2c29b7443b29c7fa6e889d90260801c5b611000821615613bf8576fd097f3bdfd2022b8845ad8f792aa58250260801c5b612000821615613c18576fa9f746462d870fdf8a65dc1f90e061e50260801c5b614000821615613c38576f70d869a156d2a1b890bb3df62baf32f70260801c5b618000821615613c58576f31be135f97d08fd981231505542fcfa60260801c5b62010000821615613c79576f09aa508b5b7a84e1c677de54f3e99bc90260801c5b62020000821615613c99576e5d6af8dedb81196699c329225ee6040260801c5b62040000821615613cb8576d2216e584f5fa1ea926041bedfe980260801c5b62080000821615613cd5576b048a170391f7dc42444e8fa20260801c5b60008460020b1315613cf6578060001981613cf257613cf2614e9c565b0490505b640100000000810615613d0a576001613d0d565b60005b60ff16602082901c0192505050919050565b600080806000198587098587029250828110838203039150508060001415613d595760008411613d4e57600080fd5b5082900490506132a5565b808411613d6557600080fd5b6000848688096000868103871696879004966002600389028118808a02820302808a02820302808a02820302808a02820302808a02820302808a02909103029181900381900460010186841190950394909402919094039290920491909117919091029150509392505050565b604080518082019091526060815260006020820152613df2602083614e72565b15613e1a57613e02602083614e72565b613e0d906020614d99565b613e179083614b58565b91505b506020828101829052604080518085526000815290920101905290565b6017816001600160401b031611613e5b576115158360e0600585901b168317613f65565b60ff816001600160401b031611613e9757613e81836018611fe0600586901b1617613f65565b50611515836001600160401b0383166001613f8a565b61ffff816001600160401b031611613ed457613ebe836019611fe0600586901b1617613f65565b50611515836001600160401b0383166002613f8a565b63ffffffff816001600160401b031611613f1357613efd83601a611fe0600586901b1617613f65565b50611515836001600160401b0383166004613f8a565b613f2883601b611fe0600586901b1617613f65565b50611515836001600160401b0383166008613f8a565b6040805180820190915260608152600060208201526132a583846000015151848551613fb0565b6040805180820190915260608152600060208201526132a5838460000151518461409a565b6040805180820190915260608152600060208201526116778485600001515185856140f6565b6040805180820190915260608152600060208201528251821115613fd357600080fd5b6020850151613fe28386614b58565b11156140155761401585614005876020015187866140009190614b58565b614177565b614010906002614d02565b614188565b6000808651805187602083010193508088870111156140345787860182525b505050602084015b602084106140745780518252614053602083614b58565b9150614060602082614b58565b905061406d602085614d99565b935061403c565b51815160001960208690036101000a019081169019919091161790525083949350505050565b604080518082019091526060815260006020820152836020015183106140cf576140cf84856020015160026140109190614d02565b8351805160208583010184815350808514156140ec576001810182525b5093949350505050565b604080518082019091526060815260006020820152602085015161411a8584614b58565b111561412e5761412e856140058685614b58565b6000600161413e84610100614c2b565b6141489190614d99565b905085518386820101858319825116178152508051848701111561416c5783860181525b509495945050505050565b600081831115612a45575081610cbf565b81516141948383613dd2565b506115158382613f3e565b8280548282559060005260206000209081019282156141f4579160200282015b828111156141f457825182546001600160a01b0319166001600160a01b039091161782556020909201916001909101906141bf565b5061420092915061423f565b5090565b6040805160a0810182526000808252602080830182905282840182905260608084018390528451808601909552845283015290608082015290565b5b808211156142005760008155600101614240565b600082601f83011261426557600080fd5b8151602061427a61427583614b35565b614b05565b80838252828201915082860187848660051b890101111561429a57600080fd5b60005b858110156142c25781516142b081614ede565b8452928401929084019060010161429d565b5090979650505050505050565b600082601f8301126142e057600080fd5b813560206142f061427583614b35565b80838252828201915082860187848660051b890101111561431057600080fd5b60005b858110156142c257813584529284019290840190600101614313565b600082601f83011261434057600080fd5b81356001600160401b0381111561435957614359614ec8565b61436c601f8201601f1916602001614b05565b81815284602083860101111561438157600080fd5b816020850160208301376000918101602001919091529392505050565b6000602082840312156143b057600080fd5b81356132a581614ede565b6000602082840312156143cd57600080fd5b81516132a581614ede565b600080600080600060a086880312156143f057600080fd5b85356143fb81614ede565b9450602086013561440b81614ede565b9350604086013561441b81614ede565b9250606086013561442b81614ede565b949793965091946080013592915050565b6000806000806080858703121561445257600080fd5b843561445d81614ede565b9350602085013561446d81614ede565b925060408501356001600160801b038116811461448957600080fd5b9150606085013563ffffffff811681146144a257600080fd5b939692955090935050565b600080600080608085870312156144c357600080fd5b84356144ce81614ede565b935060208501356144de81614ede565b93969395505050506040820135916060013590565b6000806040838503121561450657600080fd5b823561451181614ede565b946020939093013593505050565b6000806040838503121561453257600080fd5b82516001600160401b038082111561454957600080fd5b818501915085601f83011261455d57600080fd5b8151602061456d61427583614b35565b8083825282820191508286018a848660051b890101111561458d57600080fd5b600096505b848710156145bf5780518060060b81146145ab57600080fd5b835260019690960195918301918301614592565b50918801519196509093505050808211156145d957600080fd5b506145e685828601614254565b9150509250929050565b6000602080838503121561460357600080fd5b82516001600160401b0381111561461957600080fd5b8301601f8101851361462a57600080fd5b805161463861427582614b35565b80828252848201915084840188868560051b870101111561465857600080fd5b600094505b8385101561467b57805183526001949094019391850191850161465d565b50979650505050505050565b60006020828403121561469957600080fd5b815180151581146132a557600080fd5b600080600080608085870312156146bf57600080fd5b843593506020808601356001600160401b03808211156146de57600080fd5b818801915088601f8301126146f257600080fd5b813561470061427582614b35565b8082825285820191508585018c878560051b880101111561472057600080fd5b600095505b8386101561474c57803561473881614ede565b835260019590950194918601918601614725565b5097505050604088013592508083111561476557600080fd5b61477189848a016142cf565b9450606088013592508083111561478757600080fd5b5050614795878288016142cf565b91505092959194509250565b600080604083850312156147b457600080fd5b82356001600160401b03808211156147cb57600080fd5b6147d78683870161432f565b935060208501359150808211156147ed57600080fd5b506145e68582860161432f565b60006020828403121561480c57600080fd5b5035919050565b60006020828403121561482557600080fd5b5051919050565b600081518084526020808501945080840160005b8381101561416c5781516001600160a01b031687529582019590820190600101614840565b6000815180845261487d816020860160208601614db0565b601f01601f19169290920160200192915050565b600083516148a3818460208801614db0565b8351908301906148b7818360208801614db0565b01949350505050565b6001600160a01b0389811682526020820189905260408201889052861660608201526001600160e01b03198516608082015260a0810184905260c0810183905261010060e0820181905260009061491983820185614865565b9b9a5050505050505050505050565b60018060a01b03841681528260208201526060604082015260006131726060830184614865565b6020808252825182820181905260009190848201906040850190845b8181101561498d57835163ffffffff168352928401929184019160010161496b565b50909695505050505050565b828152604060208201526000611677604083018461482c565b6020815260006132a56020830184614865565b60208082526030908201527f50726f706f7361626c654f776e61626c653a206e6577206f776e65722069732060408201526f746865207a65726f206164647265737360801b606082015260800190565b6020808252602b908201527f496e697469616c697a61626c653a20636f6e7472616374206973206e6f74206960408201526a6e697469616c697a696e6760a81b606082015260800190565b81516001600160a01b03908116825260208084015182169083015260408084015162ffffff16908301526060808401518216908301526080808401519083015260a0838101519083015260c0808401519083015260e09283015116918101919091526101000190565b85815284602082015260a060408201526000614ae860a083018661482c565b6001600160a01b0394909416606083015250608001529392505050565b604051601f8201601f191681016001600160401b0381118282101715614b2d57614b2d614ec8565b604052919050565b60006001600160401b03821115614b4e57614b4e614ec8565b5060051b60200190565b60008219821115614b6b57614b6b614e86565b500190565b60008160060b8360060b80614b8757614b87614e9c565b667fffffffffffff19821460001982141615614ba557614ba5614e86565b90059392505050565b60006001600160c01b0383811680614bc857614bc8614e9c565b92169190910492915050565b600082614be357614be3614e9c565b500490565b600181815b80851115614c23578160001904821115614c0957614c09614e86565b80851615614c1657918102915b93841c9390800290614bed565b509250929050565b60006132a58383600082614c4157506001610cbf565b81614c4e57506000610cbf565b8160018114614c645760028114614c6e57614c8a565b6001915050610cbf565b60ff841115614c7f57614c7f614e86565b50506001821b610cbf565b5060208310610133831016604e8410600b8410161715614cad575081810a610cbf565b614cb78383614be8565b8060001904821115614ccb57614ccb614e86565b029392505050565b60006001600160c01b0382811684821681151582840482111615614cf957614cf9614e86565b02949350505050565b6000816000190483118215151615614d1c57614d1c614e86565b500290565b60008160060b8360060b6000811281667fffffffffffff1901831281151615614d4c57614d4c614e86565b81667fffffffffffff018313811615614d6757614d67614e86565b5090039392505050565b60006001600160a01b0383811690831681811015614d9157614d91614e86565b039392505050565b600082821015614dab57614dab614e86565b500390565b60005b83811015614dcb578181015183820152602001614db3565b838111156115155750506000910152565b60008160020b627fffff19811415614df657614df6614e86565b6000190192915050565b600181811c90821680614e1457607f821691505b60208210811415612a4557634e487b7160e01b600052602260045260246000fd5b6000600019821415614e4957614e49614e86565b5060010190565b60008260060b80614e6357614e63614e9c565b808360060b0791505092915050565b600082614e8157614e81614e9c565b500690565b634e487b7160e01b600052601160045260246000fd5b634e487b7160e01b600052601260045260246000fd5b634e487b7160e01b600052603260045260246000fd5b634e487b7160e01b600052604160045260246000fd5b6001600160a01b038116811461255857600080fdfe000000000000000000000000c02aaa39b223fe8d0a0e5c4f27ead9083c756cc2000000000000000000000000e592427a0aece92de3edee1f18e0157c05861564a26469706673582212201eaaa6753b1350c8718930abb3ed2346a7fc5b61e6cc2a908bf0f96e5152e37064736f6c6343000807003368747470733a2f2f6170702e6e65786c6162732e696f2f6170692f616c6c46756e64696e6752617465733f6d756c7469706c7946756e633d31382674696d65734e656746756e643d74727565266172726179733d74727565",
    "linkReferences": {}
  },
  "methodIdentifiers": {
    "BONE()": "c36596a6",
    "BabyDoge()": "d1a72ed6",
    "ELON()": "2fab7aea",
    "FLOKI()": "2f9f8c13",
    "HarryPotterObamaSonic10Inu()": "0fb405b7",
    "LEASH()": "ad39e5fd",
    "MEME()": "2e7b0948",
    "PEPE()": "e4fbaecb",
    "QUOTER()": "8dae88c2",
    "SHIB()": "e24b85e7",
    "WETH9()": "4aa4a4fc",
    "WSM()": "5725a977",
    "assetList(uint256)": "a0b4b301",
    "concatenation(string,string)": "0e329357",
    "currentList(uint256)": "9932ba4c",
    "estimateAmountOut(address,address,uint128,uint32)": "bf938db8",
    "externalJobId()": "a8b54bd4",
    "factoryV2()": "68e0d4e1",
    "factoryV3()": "1d5f45f5",
    "fee()": "ddca3f43",
    "feeRatePerDayScaled()": "2fecd589",
    "feeReceiver()": "b3f00674",
    "feeTimestamp()": "184a732f",
    "fulfillFundingRate(bytes32,address[],uint256[],uint256[])": "b51db0e8",
    "getAmountOut(address,address,uint256,uint256)": "13cb1f83",
    "getAmounts()": "3d370b4e",
    "getPool()": "026b1d5f",
    "getPortfolioBalance()": "a8509fd8",
    "indexToken()": "e7d015f2",
    "initialize(address,address,address,address,bytes32)": "297a3e57",
    "isRestricted(address)": "c01bc982",
    "issuanceIndexTokens(address,uint256)": "8be78847",
    "issuanceIndexTokensWithEth()": "19b1f86a",
    "lastUpdateTime()": "c8f33c91",
    "methodologist()": "9f8e67bf",
    "methodology()": "9eeb1d50",
    "minter()": "07546172",
    "nft()": "47ccca02",
    "oracleList(uint256)": "239aad0d",
    "oraclePayment()": "0c02e130",
    "owner()": "8da5cb5b",
    "pause()": "8456cb59",
    "paused()": "5c975abb",
    "proposeOwner(address)": "b5ed298a",
    "proposedOwner()": "d153b60c",
    "quoter()": "c6bbd5a7",
    "redemption(address,uint256)": "616bcd21",
    "renounceOwnership()": "715018a6",
    "requestFundingRate()": "4309e5df",
    "sswap()": "7c10041a",
    "supplyCeiling()": "2b52684d",
    "swapGas()": "209db530",
    "swapGas1()": "12740eb5",
    "swapRouterV2()": "744fbc7a",
    "swapRouterV3()": "b631e80b",
    "tokenMarketShare(address)": "fcaae87b",
    "tokenSwapVersion(address)": "d90bc211",
    "transferOwnership(address)": "f2fde38b",
    "unpause()": "3f4ba83a",
    "weth()": "3fc8cef3"
  },
  "id": 1
}