{"abi":[{"type":"receive","stateMutability":"payable"},{"type":"function","name":"concatenation","inputs":[{"name":"a","type":"string","internalType":"string"},{"name":"b","type":"string","internalType":"string"}],"outputs":[{"name":"","type":"string","internalType":"string"}],"stateMutability":"pure"},{"type":"function","name":"currentList","inputs":[{"name":"","type":"uint256","internalType":"uint256"}],"outputs":[{"name":"","type":"address","internalType":"address"}],"stateMutability":"view"},{"type":"function","name":"estimateAmountOut","inputs":[{"name":"tokenIn","type":"address","internalType":"address"},{"name":"tokenOut","type":"address","internalType":"address"},{"name":"amountIn","type":"uint128","internalType":"uint128"}],"outputs":[{"name":"amountOut","type":"uint256","internalType":"uint256"}],"stateMutability":"view"},{"type":"function","name":"externalJobId","inputs":[],"outputs":[{"name":"","type":"bytes32","internalType":"bytes32"}],"stateMutability":"view"},{"type":"function","name":"factoryV2","inputs":[],"outputs":[{"name":"","type":"address","internalType":"contract IUniswapV2Factory"}],"stateMutability":"view"},{"type":"function","name":"factoryV3","inputs":[],"outputs":[{"name":"","type":"address","internalType":"contract IUniswapV3Factory"}],"stateMutability":"view"},{"type":"function","name":"fee","inputs":[],"outputs":[{"name":"","type":"uint256","internalType":"uint256"}],"stateMutability":"view"},{"type":"function","name":"feeRate","inputs":[],"outputs":[{"name":"","type":"uint8","internalType":"uint8"}],"stateMutability":"view"},{"type":"function","name":"feeRatePerDayScaled","inputs":[],"outputs":[{"name":"","type":"uint256","internalType":"uint256"}],"stateMutability":"view"},{"type":"function","name":"feeReceiver","inputs":[],"outputs":[{"name":"","type":"address","internalType":"address"}],"stateMutability":"view"},{"type":"function","name":"feeTimestamp","inputs":[],"outputs":[{"name":"","type":"uint256","internalType":"uint256"}],"stateMutability":"view"},{"type":"function","name":"fulfillAssetsData","inputs":[{"name":"requestId","type":"bytes32","internalType":"bytes32"},{"name":"_tokens","type":"address[]","internalType":"address[]"},{"name":"_marketShares","type":"uint256[]","internalType":"uint256[]"},{"name":"_swapVersions","type":"uint256[]","internalType":"uint256[]"}],"outputs":[],"stateMutability":"nonpayable"},{"type":"function","name":"getAmountOut","inputs":[{"name":"tokenIn","type":"address","internalType":"address"},{"name":"tokenOut","type":"address","internalType":"address"},{"name":"amountIn","type":"uint256","internalType":"uint256"},{"name":"_swapVersion","type":"uint256","internalType":"uint256"}],"outputs":[{"name":"finalAmountOut","type":"uint256","internalType":"uint256"}],"stateMutability":"view"},{"type":"function","name":"getExactAmountOut","inputs":[{"name":"tokenIn","type":"address","internalType":"address"},{"name":"tokenOut","type":"address","internalType":"address"},{"name":"amountIn","type":"uint256","internalType":"uint256"},{"name":"_swapVersion","type":"uint256","internalType":"uint256"}],"outputs":[{"name":"finalAmountOut","type":"uint256","internalType":"uint256"}],"stateMutability":"nonpayable"},{"type":"function","name":"getExactAmountOut2","inputs":[{"name":"tokenIn","type":"address","internalType":"address"},{"name":"tokenOut","type":"address","internalType":"address"},{"name":"amountIn","type":"uint256","internalType":"uint256"}],"outputs":[{"name":"finalAmountOut","type":"uint256","internalType":"uint256"}],"stateMutability":"nonpayable"},{"type":"function","name":"getIssuanceAmountOut","inputs":[{"name":"_amountIn","type":"uint256","internalType":"uint256"},{"name":"_tokenIn","type":"address","internalType":"address"},{"name":"_swapVersion","type":"uint256","internalType":"uint256"}],"outputs":[{"name":"","type":"uint256","internalType":"uint256"}],"stateMutability":"view"},{"type":"function","name":"getIssuanceAmountOut2","inputs":[{"name":"_amountIn","type":"uint256","internalType":"uint256"},{"name":"_tokenIn","type":"address","internalType":"address"},{"name":"_swapVersion","type":"uint256","internalType":"uint256"}],"outputs":[{"name":"","type":"uint256","internalType":"uint256"}],"stateMutability":"nonpayable"},{"type":"function","name":"getPortfolioBalance","inputs":[],"outputs":[{"name":"","type":"uint256","internalType":"uint256"}],"stateMutability":"view"},{"type":"function","name":"getRedemptionAmountOut","inputs":[{"name":"_amountIn","type":"uint256","internalType":"uint256"},{"name":"_tokenOut","type":"address","internalType":"address"},{"name":"_swapVersion","type":"uint256","internalType":"uint256"}],"outputs":[{"name":"","type":"uint256","internalType":"uint256"}],"stateMutability":"view"},{"type":"function","name":"getRedemptionAmountOut2","inputs":[{"name":"_amountIn","type":"uint256","internalType":"uint256"},{"name":"_tokenOut","type":"address","internalType":"address"},{"name":"_swapVersion","type":"uint256","internalType":"uint256"}],"outputs":[{"name":"","type":"uint256","internalType":"uint256"}],"stateMutability":"nonpayable"},{"type":"function","name":"indexToken","inputs":[],"outputs":[{"name":"","type":"address","internalType":"contract IndexToken"}],"stateMutability":"view"},{"type":"function","name":"initialize","inputs":[{"name":"_token","type":"address","internalType":"address payable"},{"name":"_chainlinkToken","type":"address","internalType":"address"},{"name":"_oracleAddress","type":"address","internalType":"address"},{"name":"_externalJobId","type":"bytes32","internalType":"bytes32"},{"name":"_toUsdPriceFeed","type":"address","internalType":"address"},{"name":"_weth","type":"address","internalType":"address"},{"name":"_quoter","type":"address","internalType":"address"},{"name":"_swapRouterV3","type":"address","internalType":"address"},{"name":"_factoryV3","type":"address","internalType":"address"},{"name":"_swapRouterV2","type":"address","internalType":"address"},{"name":"_factoryV2","type":"address","internalType":"address"}],"outputs":[],"stateMutability":"nonpayable"},{"type":"function","name":"isRestricted","inputs":[{"name":"","type":"address","internalType":"address"}],"outputs":[{"name":"","type":"bool","internalType":"bool"}],"stateMutability":"view"},{"type":"function","name":"issuanceIndexTokens","inputs":[{"name":"_tokenIn","type":"address","internalType":"address"},{"name":"_amountIn","type":"uint256","internalType":"uint256"},{"name":"_tokenInSwapVersion","type":"uint256","internalType":"uint256"}],"outputs":[],"stateMutability":"nonpayable"},{"type":"function","name":"issuanceIndexTokensWithEth","inputs":[{"name":"_inputAmount","type":"uint256","internalType":"uint256"}],"outputs":[],"stateMutability":"payable"},{"type":"function","name":"lastUpdateTime","inputs":[],"outputs":[{"name":"","type":"uint256","internalType":"uint256"}],"stateMutability":"view"},{"type":"function","name":"latestFeeUpdate","inputs":[],"outputs":[{"name":"","type":"uint256","internalType":"uint256"}],"stateMutability":"view"},{"type":"function","name":"methodologist","inputs":[],"outputs":[{"name":"","type":"address","internalType":"address"}],"stateMutability":"view"},{"type":"function","name":"methodology","inputs":[],"outputs":[{"name":"","type":"string","internalType":"string"}],"stateMutability":"view"},{"type":"function","name":"minter","inputs":[],"outputs":[{"name":"","type":"address","internalType":"address"}],"stateMutability":"view"},{"type":"function","name":"mockFillAssetsList","inputs":[{"name":"_tokens","type":"address[]","internalType":"address[]"},{"name":"_marketShares","type":"uint256[]","internalType":"uint256[]"},{"name":"_swapVersions","type":"uint256[]","internalType":"uint256[]"}],"outputs":[],"stateMutability":"nonpayable"},{"type":"function","name":"oracleList","inputs":[{"name":"","type":"uint256","internalType":"uint256"}],"outputs":[{"name":"","type":"address","internalType":"address"}],"stateMutability":"view"},{"type":"function","name":"oraclePayment","inputs":[],"outputs":[{"name":"","type":"uint256","internalType":"uint256"}],"stateMutability":"view"},{"type":"function","name":"owner","inputs":[],"outputs":[{"name":"","type":"address","internalType":"address"}],"stateMutability":"view"},{"type":"function","name":"pause","inputs":[],"outputs":[],"stateMutability":"nonpayable"},{"type":"function","name":"paused","inputs":[],"outputs":[{"name":"","type":"bool","internalType":"bool"}],"stateMutability":"view"},{"type":"function","name":"priceInWei","inputs":[],"outputs":[{"name":"","type":"uint256","internalType":"uint256"}],"stateMutability":"view"},{"type":"function","name":"proposeOwner","inputs":[{"name":"_proposedOwner","type":"address","internalType":"address"}],"outputs":[],"stateMutability":"nonpayable"},{"type":"function","name":"proposedOwner","inputs":[],"outputs":[{"name":"","type":"address","internalType":"address"}],"stateMutability":"view"},{"type":"function","name":"quoter","inputs":[],"outputs":[{"name":"","type":"address","internalType":"contract IQuoter"}],"stateMutability":"view"},{"type":"function","name":"reIndexAndReweight","inputs":[],"outputs":[],"stateMutability":"nonpayable"},{"type":"function","name":"redemption","inputs":[{"name":"amountIn","type":"uint256","internalType":"uint256"},{"name":"_tokenOut","type":"address","internalType":"address"},{"name":"_tokenOutSwapVersion","type":"uint256","internalType":"uint256"}],"outputs":[{"name":"","type":"uint256","internalType":"uint256"}],"stateMutability":"nonpayable"},{"type":"function","name":"renounceOwnership","inputs":[],"outputs":[],"stateMutability":"nonpayable"},{"type":"function","name":"requestAssetsData","inputs":[],"outputs":[{"name":"","type":"bytes32","internalType":"bytes32"}],"stateMutability":"nonpayable"},{"type":"function","name":"setFeeRate","inputs":[{"name":"_newFee","type":"uint8","internalType":"uint8"}],"outputs":[],"stateMutability":"nonpayable"},{"type":"function","name":"setPriceFeed","inputs":[{"name":"_toUsdPricefeed","type":"address","internalType":"address"}],"outputs":[],"stateMutability":"nonpayable"},{"type":"function","name":"setUrl","inputs":[{"name":"_beforeAddress","type":"string","internalType":"string"},{"name":"_afterAddress","type":"string","internalType":"string"}],"outputs":[],"stateMutability":"nonpayable"},{"type":"function","name":"supplyCeiling","inputs":[],"outputs":[{"name":"","type":"uint256","internalType":"uint256"}],"stateMutability":"view"},{"type":"function","name":"swapRouterV2","inputs":[],"outputs":[{"name":"","type":"address","internalType":"contract IUniswapV2Router02"}],"stateMutability":"view"},{"type":"function","name":"swapRouterV3","inputs":[],"outputs":[{"name":"","type":"address","internalType":"contract ISwapRouter"}],"stateMutability":"view"},{"type":"function","name":"toUsdPriceFeed","inputs":[],"outputs":[{"name":"","type":"address","internalType":"contract AggregatorV3Interface"}],"stateMutability":"view"},{"type":"function","name":"tokenCurrentListIndex","inputs":[{"name":"","type":"address","internalType":"address"}],"outputs":[{"name":"","type":"uint256","internalType":"uint256"}],"stateMutability":"view"},{"type":"function","name":"tokenCurrentMarketShare","inputs":[{"name":"","type":"address","internalType":"address"}],"outputs":[{"name":"","type":"uint256","internalType":"uint256"}],"stateMutability":"view"},{"type":"function","name":"tokenOracleListIndex","inputs":[{"name":"","type":"address","internalType":"address"}],"outputs":[{"name":"","type":"uint256","internalType":"uint256"}],"stateMutability":"view"},{"type":"function","name":"tokenOracleMarketShare","inputs":[{"name":"","type":"address","internalType":"address"}],"outputs":[{"name":"","type":"uint256","internalType":"uint256"}],"stateMutability":"view"},{"type":"function","name":"tokenSwapVersion","inputs":[{"name":"","type":"address","internalType":"address"}],"outputs":[{"name":"","type":"uint256","internalType":"uint256"}],"stateMutability":"view"},{"type":"function","name":"totalCurrentList","inputs":[],"outputs":[{"name":"","type":"uint256","internalType":"uint256"}],"stateMutability":"view"},{"type":"function","name":"totalOracleList","inputs":[],"outputs":[{"name":"","type":"uint256","internalType":"uint256"}],"stateMutability":"view"},{"type":"function","name":"transferOwnership","inputs":[{"name":"newOwner","type":"address","internalType":"address"}],"outputs":[],"stateMutability":"nonpayable"},{"type":"function","name":"unpause","inputs":[],"outputs":[],"stateMutability":"nonpayable"},{"type":"function","name":"weth","inputs":[],"outputs":[{"name":"","type":"address","internalType":"contract IWETH"}],"stateMutability":"view"},{"type":"event","name":"ChainlinkCancelled","inputs":[{"name":"id","type":"bytes32","indexed":true,"internalType":"bytes32"}],"anonymous":false},{"type":"event","name":"ChainlinkFulfilled","inputs":[{"name":"id","type":"bytes32","indexed":true,"internalType":"bytes32"}],"anonymous":false},{"type":"event","name":"ChainlinkRequested","inputs":[{"name":"id","type":"bytes32","indexed":true,"internalType":"bytes32"}],"anonymous":false},{"type":"event","name":"FeeRateSet","inputs":[{"name":"feeRatePerDayScaled","type":"uint256","indexed":true,"internalType":"uint256"}],"anonymous":false},{"type":"event","name":"FeeReceiverSet","inputs":[{"name":"feeReceiver","type":"address","indexed":true,"internalType":"address"}],"anonymous":false},{"type":"event","name":"Initialized","inputs":[{"name":"version","type":"uint8","indexed":false,"internalType":"uint8"}],"anonymous":false},{"type":"event","name":"Issuanced","inputs":[{"name":"user","type":"address","indexed":true,"internalType":"address"},{"name":"inputToken","type":"address","indexed":true,"internalType":"address"},{"name":"inputAmount","type":"uint256","indexed":false,"internalType":"uint256"},{"name":"outputAmount","type":"uint256","indexed":false,"internalType":"uint256"},{"name":"time","type":"uint256","indexed":false,"internalType":"uint256"}],"anonymous":false},{"type":"event","name":"MethodologistSet","inputs":[{"name":"methodologist","type":"address","indexed":true,"internalType":"address"}],"anonymous":false},{"type":"event","name":"MethodologySet","inputs":[{"name":"methodology","type":"string","indexed":false,"internalType":"string"}],"anonymous":false},{"type":"event","name":"MintFeeToReceiver","inputs":[{"name":"feeReceiver","type":"address","indexed":false,"internalType":"address"},{"name":"timestamp","type":"uint256","indexed":false,"internalType":"uint256"},{"name":"totalSupply","type":"uint256","indexed":false,"internalType":"uint256"},{"name":"amount","type":"uint256","indexed":false,"internalType":"uint256"}],"anonymous":false},{"type":"event","name":"MinterSet","inputs":[{"name":"minter","type":"address","indexed":true,"internalType":"address"}],"anonymous":false},{"type":"event","name":"OwnershipTransferred","inputs":[{"name":"previousOwner","type":"address","indexed":true,"internalType":"address"},{"name":"newOwner","type":"address","indexed":true,"internalType":"address"}],"anonymous":false},{"type":"event","name":"Paused","inputs":[{"name":"account","type":"address","indexed":false,"internalType":"address"}],"anonymous":false},{"type":"event","name":"Redemption","inputs":[{"name":"user","type":"address","indexed":true,"internalType":"address"},{"name":"outputToken","type":"address","indexed":true,"internalType":"address"},{"name":"inputAmount","type":"uint256","indexed":false,"internalType":"uint256"},{"name":"outputAmount","type":"uint256","indexed":false,"internalType":"uint256"},{"name":"time","type":"uint256","indexed":false,"internalType":"uint256"}],"anonymous":false},{"type":"event","name":"SupplyCeilingSet","inputs":[{"name":"supplyCeiling","type":"uint256","indexed":false,"internalType":"uint256"}],"anonymous":false},{"type":"event","name":"ToggledRestricted","inputs":[{"name":"account","type":"address","indexed":true,"internalType":"address"},{"name":"isRestricted","type":"bool","indexed":false,"internalType":"bool"}],"anonymous":false},{"type":"event","name":"Unpaused","inputs":[{"name":"account","type":"address","indexed":false,"internalType":"address"}],"anonymous":false},{"type":"error","name":"T","inputs":[]}],"bytecode":{"object":"0x608060405234801561001057600080fd5b50615d4580620000216000396000f3fe6080604052600436106103a65760003560e01c8063724e78da116101e7578063abdd5f3f1161010d578063c8b76e70116100a0578063ddca3f431161006f578063ddca3f4314610ad8578063e267078a14610aee578063e7d015f214610b0e578063f2fde38b14610b2e57600080fd5b8063c8b76e7014610a55578063c8f33c9114610a75578063d153b60c14610a8b578063d90bc21114610aab57600080fd5b8063b631e80b116100dc578063b631e80b146109cf578063c01bc982146109ef578063c6bbd5a714610a1f578063c8599ded14610a3f57600080fd5b8063abdd5f3f1461094f578063b3951b671461096f578063b3f006741461098f578063b5ed298a146109af57600080fd5b8063978bbdb911610185578063a2ab905d11610154578063a2ab905d146108ef578063a73e1cbf14610904578063a8509fd814610924578063a8b54bd41461093957600080fd5b8063978bbdb9146108585780639932ba4c146108845780639eeb1d50146108ba5780639f8e67bf146108cf57600080fd5b80638456cb59116101c15780638456cb59146107cb5780638c88c10c146107e05780638da5cb5b1461080d578063914f0cc61461082b57600080fd5b8063724e78da14610776578063744fbc7a146107965780637ca58c55146107b657600080fd5b80632fecd589116102cc5780634b3e0b801161026a57806363973fda1161023957806363973fda14610701578063686f91751461072157806368e0d4e114610741578063715018a61461076157600080fd5b80634b3e0b801461067a5780635177942a146106a757806353fd4332146106c75780635c975abb146106dd57600080fd5b80633c8da588116102a65780633c8da588146106105780633f4ba83a146106255780633fc8cef31461063a578063465a4c941461065a57600080fd5b80632fecd589146105c557806336aab86c146105db578063372d4c55146105fd57600080fd5b806313cb1f83116103445780631ff01563116103135780631ff0156314610539578063239aad0d146105595780632b52684d1461058f5780632b9522e0146105a557600080fd5b806313cb1f83146104c3578063156a5da1146104e3578063184a732f146105035780631d5f45f51461051957600080fd5b80630754617211610380578063075461721461041b5780630be52713146104535780630c02e130146104805780630e3293571461049657600080fd5b8063011ced5f146103b257806302e04015146103db5780630456f9c8146103fb57600080fd5b366103ad57005b600080fd5b3480156103be57600080fd5b506103c860d35481565b6040519081526020015b60405180910390f35b3480156103e757600080fd5b506103c86103f6366004615638565b610b4e565b34801561040757600080fd5b506103c8610416366004615232565b610c71565b34801561042757600080fd5b5060d85461043b906001600160a01b031681565b6040516001600160a01b0390911681526020016103d2565b34801561045f57600080fd5b506103c861046e366004615121565b60e86020526000908152604090205481565b34801561048c57600080fd5b506103c860df5481565b3480156104a257600080fd5b506104b66104b136600461550f565b610d27565b6040516103d2919061580c565b3480156104cf57600080fd5b506103c86104de3660046152ca565b610d54565b3480156104ef57600080fd5b506103c86104fe3660046152ca565b610ea2565b34801561050f57600080fd5b506103c860d55481565b34801561052557600080fd5b5060ec5461043b906001600160a01b031681565b34801561054557600080fd5b506103c8610554366004615638565b611086565b34801561056557600080fd5b5061043b610574366004615606565b60e4602052600090815260409020546001600160a01b031681565b34801561059b57600080fd5b506103c860da5481565b3480156105b157600080fd5b506103c86105c0366004615638565b611334565b3480156105d157600080fd5b506103c860d45481565b3480156105e757600080fd5b506105fb6105f636600461547e565b611997565b005b6105fb61060b366004615606565b611cdd565b34801561061c57600080fd5b506103c86121d0565b34801561063157600080fd5b506105fb6122f5565b34801561064657600080fd5b5060ef5461043b906001600160a01b031681565b34801561066657600080fd5b506105fb61067536600461515b565b612307565b34801561068657600080fd5b506103c8610695366004615121565b60e96020526000908152604090205481565b3480156106b357600080fd5b506105fb6106c236600461565f565b61258d565b3480156106d357600080fd5b506103c860e35481565b3480156106e957600080fd5b50609e5460ff165b60405190151581526020016103d2565b34801561070d57600080fd5b5060e05461043b906001600160a01b031681565b34801561072d57600080fd5b506103c861073c366004615289565b6126cd565b34801561074d57600080fd5b5060ee5461043b906001600160a01b031681565b34801561076d57600080fd5b506105fb6128a5565b34801561078257600080fd5b506105fb610791366004615121565b6128b7565b3480156107a257600080fd5b5060ed5461043b906001600160a01b031681565b3480156107c257600080fd5b506103c861294e565b3480156107d757600080fd5b506105fb612be9565b3480156107ec57600080fd5b506103c86107fb366004615121565b60e66020526000908152604090205481565b34801561081957600080fd5b506039546001600160a01b031661043b565b34801561083757600080fd5b506103c8610846366004615121565b60e76020526000908152604090205481565b34801561086457600080fd5b5060d2546108729060ff1681565b60405160ff90911681526020016103d2565b34801561089057600080fd5b5061043b61089f366004615606565b60e5602052600090815260409020546001600160a01b031681565b3480156108c657600080fd5b506104b6612bf9565b3480156108db57600080fd5b5060d75461043b906001600160a01b031681565b3480156108fb57600080fd5b506105fb612c87565b34801561091057600080fd5b506105fb61091f36600461550f565b612f2a565b34801561093057600080fd5b506103c8612f5e565b34801561094557600080fd5b506103c860de5481565b34801561095b57600080fd5b506105fb61096a366004615310565b61311b565b34801561097b57600080fd5b506103c861098a366004615638565b613545565b34801561099b57600080fd5b5060d65461043b906001600160a01b031681565b3480156109bb57600080fd5b506105fb6109ca366004615121565b613734565b3480156109db57600080fd5b5060eb5461043b906001600160a01b031681565b3480156109fb57600080fd5b506106f1610a0a366004615121565b60db6020526000908152604090205460ff1681565b348015610a2b57600080fd5b5060f05461043b906001600160a01b031681565b348015610a4b57600080fd5b506103c860e25481565b348015610a6157600080fd5b506103c8610a70366004615638565b613784565b348015610a8157600080fd5b506103c860e15481565b348015610a9757600080fd5b50606b5461043b906001600160a01b031681565b348015610ab757600080fd5b506103c8610ac6366004615121565b60ea6020526000908152604090205481565b348015610ae457600080fd5b506103c860d15481565b348015610afa57600080fd5b506105fb610b09366004615345565b61388a565b348015610b1a57600080fd5b5060d05461043b906001600160a01b031681565b348015610b3a57600080fd5b506105fb610b49366004615121565b613b1a565b600080610b59612f5e565b9050600060d060009054906101000a90046001600160a01b03166001600160a01b03166318160ddd6040518163ffffffff1660e01b815260040160206040518083038186803b158015610bab57600080fd5b505afa158015610bbf573d6000803e3d6000fd5b505050506040513d601f19601f82011682018060405250810190610be3919061561f565b610bf587670de0b6b3a7640000615b52565b610bff91906159be565b90506000670de0b6b3a7640000610c168484615b52565b610c2091906159be565b60ef549091506001600160a01b0387811691161415610c43579250610c6a915050565b60ef54600090610c5e906001600160a01b0316888489610d54565b9450610c6a9350505050565b9392505050565b60ec54604051630b4c774160e11b81526001600160a01b0385811660048301528481166024830152610bb860448301526000928392911690631698ee829060640160206040518083038186803b158015610cca57600080fd5b505afa158015610cde573d6000803e3d6000fd5b505050506040513d601f19601f82011682018060405250810190610d02919061513e565b90506000610d0f82613c42565b9050610d1d81858888613cc4565b9695505050505050565b60608282604051602001610d3c92919061574e565b60405160208183030381529060405290505b92915050565b60008215610e9a578160031415610d7757610d70858585610c71565b9050610e9a565b6040805160028082526060820183526000926020830190803683370190505090508581600081518110610dac57610dac615c67565b60200260200101906001600160a01b031690816001600160a01b0316815250508481600181518110610de057610de0615c67565b6001600160a01b03928316602091820292909201015260ed5460405163d06ca61f60e01b8152600092919091169063d06ca61f90610e2490889086906004016158fe565b60006040518083038186803b158015610e3c57600080fd5b505afa158015610e50573d6000803e3d6000fd5b505050506040513d6000823e601f3d908101601f19168201604052610e7891908101906153cc565b905080600181518110610e8d57610e8d615c67565b6020026020010151925050505b949350505050565b60008160031415610f585760f05460405163f7729d4360e01b81526001600160a01b0387811660048301528681166024830152610bb860448301526064820186905260006084830181905292169063f7729d439060a401602060405180830381600087803b158015610f1357600080fd5b505af1925050508015610f43575060408051601f3d908101601f19168201909252610f409181019061561f565b60015b610f4f57506000610d70565b90509050610e9a565b6040805160028082526060820183526000926020830190803683370190505090508581600081518110610f8d57610f8d615c67565b60200260200101906001600160a01b031690816001600160a01b0316815250508481600181518110610fc157610fc1615c67565b6001600160a01b03928316602091820292909201015260ed5460405163d06ca61f60e01b8152600092919091169063d06ca61f9061100590889086906004016158fe565b60006040518083038186803b15801561101d57600080fd5b505afa92505050801561105257506040513d6000823e601f3d908101601f1916820160405261104f91908101906153cc565b60015b61105e5750600061107d565b8060018151811061107157611071615c67565b60200260200101519150505b9150610e9a9050565b60008060d060009054906101000a90046001600160a01b03166001600160a01b03166318160ddd6040518163ffffffff1660e01b815260040160206040518083038186803b1580156110d757600080fd5b505afa1580156110eb573d6000803e3d6000fd5b505050506040513d601f19601f8201168201806040525081019061110f919061561f565b61112186670de0b6b3a7640000615b52565b61112b91906159be565b90506000805b60e35481101561132a5760ef54600082815260e560205260409020546001600160a01b0390811691161461125e57600081815260e560205260408082205460d05491516370a0823160e01b81526001600160a01b039283166004820152670de0b6b3a764000092909116906370a082319060240160206040518083038186803b1580156111bd57600080fd5b505afa1580156111d1573d6000803e3d6000fd5b505050506040513d601f19601f820116820180604052508101906111f5919061561f565b6111ff9086615b52565b61120991906159be565b600083815260e5602090815260408083205460ef546001600160a01b0391821680865260ea90945291842054949550929361124993909116908590610ea2565b905061125581856159a6565b93505050611318565b600081815260e560205260408082205460d05491516370a0823160e01b81526001600160a01b039283166004820152670de0b6b3a764000092909116906370a082319060240160206040518083038186803b1580156112bc57600080fd5b505afa1580156112d0573d6000803e3d6000fd5b505050506040513d601f19601f820116820180604052508101906112f4919061561f565b6112fe9086615b52565b61130891906159be565b905061131481846159a6565b9250505b8061132281615c0c565b915050611131565b5095945050505050565b60008060d060009054906101000a90046001600160a01b03166001600160a01b03166318160ddd6040518163ffffffff1660e01b815260040160206040518083038186803b15801561138557600080fd5b505afa158015611399573d6000803e3d6000fd5b505050506040513d601f19601f820116820180604052508101906113bd919061561f565b6113cf86670de0b6b3a7640000615b52565b6113d991906159be565b60d054604051632770a7eb60e21b8152336004820152602481018890529192506001600160a01b031690639dc29fac90604401600060405180830381600087803b15801561142657600080fd5b505af115801561143a573d6000803e3d6000fd5b5060009250829150505b60e3548110156115f757600081815260e560205260408082205460d05491516370a0823160e01b81526001600160a01b039283166004820152670de0b6b3a764000092909116906370a082319060240160206040518083038186803b1580156114ac57600080fd5b505afa1580156114c0573d6000803e3d6000fd5b505050506040513d601f19601f820116820180604052508101906114e4919061561f565b6114ee9086615b52565b6114f891906159be565b60ef54600084815260e560205260409020549192506001600160a01b0391821691161461157157600082815260e5602090815260408083205460ef546001600160a01b0391821680865260ea9094529184205461155d93929091169085903090613dd2565b905061156981856159a6565b9350506115e4565b60d0546040516377524af960e01b8152306004820152602481018390526001600160a01b03909116906377524af990604401600060405180830381600087803b1580156115bd57600080fd5b505af11580156115d1573d6000803e3d6000fd5b5050505080836115e191906159a6565b92505b50806115ef81615c0c565b915050611444565b5060d2546000906127109061160f9060ff1684615b52565b61161991906159be565b60ef549091506001600160a01b03878116911614156118345760ef54604051632e1a7d4d60e01b8152600481018490526001600160a01b0390911690632e1a7d4d90602401600060405180830381600087803b15801561167857600080fd5b505af115801561168c573d6000803e3d6000fd5b5050505060006116a46039546001600160a01b031690565b6001600160a01b03168260405160006040518083038185875af1925050503d80600081146116ee576040519150601f19603f3d011682016040523d82523d6000602084013e6116f3565b606091505b505090508061171d5760405162461bcd60e51b81526004016117149061581f565b60405180910390fd5b60003361172a8486615b71565b604051600081818185875af1925050503d8060008114611766576040519150601f19603f3d011682016040523d82523d6000602084013e61176b565b606091505b50509050806117c85760405162461bcd60e51b815260206004820152602360248201527f7472616e73666572206574682066656520746f207468652075736572206661696044820152621b195960ea1b6064820152608401611714565b6001600160a01b038816337f4f808f68134f8b72b842a276c2b37b03415d4992c65a94fcee50d33201915b998b6117ff8789615b71565b604080519283526020830191909152429082015260600160405180910390a36118288385615b71565b95505050505050610c6a565b60ef54604051632e1a7d4d60e01b8152600481018390526001600160a01b0390911690632e1a7d4d90602401600060405180830381600087803b15801561187a57600080fd5b505af115801561188e573d6000803e3d6000fd5b5050505060006118a66039546001600160a01b031690565b6001600160a01b03168260405160006040518083038185875af1925050503d80600081146118f0576040519150601f19603f3d011682016040523d82523d6000602084013e6118f5565b606091505b50509050806119165760405162461bcd60e51b81526004016117149061581f565b60ef5460009061193b906001600160a01b0316896119348688615b71565b338b613eaa565b604080518b815260208101839052428183015290519192506001600160a01b038a169133917f4f808f68134f8b72b842a276c2b37b03415d4992c65a94fcee50d33201915b99919081900360600190a39450610c6a9350505050565b60008481526005602052604090205484906001600160a01b03163314611a105760405162461bcd60e51b815260206004820152602860248201527f536f75726365206d75737420626520746865206f7261636c65206f6620746865604482015267081c995c5d595cdd60c21b6064820152608401611714565b60008181526005602052604080822080546001600160a01b03191690555182917f7cc135e0cebb02c3480ae5d74d377283180a2601f8f644edf7987b009316c63a91a283838360005b8351811015611cbc57838181518110611a7457611a74615c67565b602002602001015160e4600083815260200190815260200160002060006101000a8154816001600160a01b0302191690836001600160a01b031602179055508060e66000868481518110611aca57611aca615c67565b60200260200101516001600160a01b03166001600160a01b0316815260200190815260200160002081905550828181518110611b0857611b08615c67565b602002602001015160e96000868481518110611b2657611b26615c67565b60200260200101516001600160a01b03166001600160a01b0316815260200190815260200160002081905550818181518110611b6457611b64615c67565b602002602001015160ea6000868481518110611b8257611b82615c67565b60200260200101516001600160a01b03166001600160a01b031681526020019081526020016000208190555060e35460001415611caa57838181518110611bcb57611bcb615c67565b602002602001015160e5600083815260200190815260200160002060006101000a8154816001600160a01b0302191690836001600160a01b03160217905550828181518110611c1c57611c1c615c67565b602002602001015160e86000868481518110611c3a57611c3a615c67565b60200260200101516001600160a01b03166001600160a01b03168152602001908152602001600020819055508060e76000868481518110611c7d57611c7d615c67565b60200260200101516001600160a01b03166001600160a01b03168152602001908152602001600020819055505b80611cb481615c0c565b915050611a59565b50825160e25560e354611ccf57825160e3555b50504260e155505050505050565b60d25460009061271090611cf49060ff1684615b52565b611cfe91906159be565b90506000611d0c82846159a6565b905080341015611d5e5760405162461bcd60e51b815260206004820152601a60248201527f6c6f776572207468616e20726571756972656420616d6f756e740000000000006044820152606401611714565b6000611d726039546001600160a01b031690565b6001600160a01b031660d15460405160006040518083038185875af1925050503d8060008114611dbe576040519150601f19603f3d011682016040523d82523d6000602084013e611dc3565b606091505b5050905080611de45760405162461bcd60e51b81526004016117149061581f565b60ef60009054906101000a90046001600160a01b03166001600160a01b031663d0e30db0856040518263ffffffff1660e01b81526004016000604051808303818588803b158015611e3457600080fd5b505af1158015611e48573d6000803e3d6000fd5b505060ef5460d05460405163a9059cbb60e01b81526001600160a01b039182166004820152602481018a90529116935063a9059cbb92506044019050602060405180830381600087803b158015611e9e57600080fd5b505af1158015611eb2573d6000803e3d6000fd5b505050506040513d601f19601f82011682018060405250810190611ed69190615463565b506000611ee1612f5e565b90508460005b60e354811015611faf5760ef54600082815260e560205260409020546001600160a01b03908116911614611f9d5760ef54600082815260e560209081526040808320546001600160a01b0390811680855260e8909352922054611f9b93929092169168056bc75e2d6310000090611f5e9087615b52565b611f6891906159be565b60d054600086815260e560209081526040808320546001600160a01b03908116845260ea90925290912054911690613dd2565b505b80611fa781615c0c565b915050611ee7565b5060008060d060009054906101000a90046001600160a01b03166001600160a01b03166318160ddd6040518163ffffffff1660e01b815260040160206040518083038186803b15801561200157600080fd5b505afa158015612015573d6000803e3d6000fd5b505050506040513d601f19601f82011682018060405250810190612039919061561f565b11156120e257828260d060009054906101000a90046001600160a01b03166001600160a01b03166318160ddd6040518163ffffffff1660e01b815260040160206040518083038186803b15801561208f57600080fd5b505afa1580156120a3573d6000803e3d6000fd5b505050506040513d601f19601f820116820180604052508101906120c7919061561f565b6120d19190615b52565b6120db91906159be565b905061210e565b60006120ec6121d0565b9050662386f26fc100006121008285615b52565b61210a91906159be565b9150505b60d0546040516340c10f1960e01b8152336004820152602481018390526001600160a01b03909116906340c10f1990604401600060405180830381600087803b15801561215a57600080fd5b505af115801561216e573d6000803e3d6000fd5b505060ef54604080518b81526020810186905242918101919091526001600160a01b0390911692503391507f4fee1c514ee0e252e3a0babfa8b5030fb89be7ea2b38df9a7fbbf788e54f3d91906060015b60405180910390a350505050505050565b60008060e060009054906101000a90046001600160a01b03166001600160a01b031663feaf968c6040518163ffffffff1660e01b815260040160a06040518083038186803b15801561222157600080fd5b505afa158015612235573d6000803e3d6000fd5b505050506040513d601f19601f82011682018060405250810190612259919061567c565b505050915050600060e060009054906101000a90046001600160a01b03166001600160a01b031663313ce5676040518163ffffffff1660e01b815260040160206040518083038186803b1580156122af57600080fd5b505afa1580156122c3573d6000803e3d6000fd5b505050506040513d601f19601f820116820180604052508101906122e791906156cc565b9050610c6a828260126141c2565b6122fd614202565b61230561425c565b565b600654610100900460ff16158080156123275750600654600160ff909116105b806123415750303b158015612341575060065460ff166001145b6123a45760405162461bcd60e51b815260206004820152602e60248201527f496e697469616c697a61626c653a20636f6e747261637420697320616c72656160448201526d191e481a5b9a5d1a585b1a5e995960921b6064820152608401611714565b6006805460ff1916600117905580156123c7576006805461ff0019166101001790555b6123cf6142ae565b6123d76142dd565b60d080546001600160a01b038e166001600160a01b031990911617905561241b8b600280546001600160a01b039092166001600160a01b0319909216919091179055565b600380546001600160a01b0319166001600160a01b038c1617905560de899055600a612450670de0b6b3a76400006001615b52565b61245a91906159be565b60df5560e080546001600160a01b03199081166001600160a01b038b81169190911790925560ef805482168a841617905560f08054821689841617905560eb8054821688841617905560ec8054821687841617905560ed8054821686841617905560ee805490911691841691909117905560d28054600a60ff199091161790554260d3556040805160608101909152602a808252615cb86020830139805161250a9160dc91602090910190614eb7565b506040518060600160405280602e8152602001615ce2602e913980516125389160dd91602090910190614eb7565b50801561257f576006805461ff0019169055604051600181527f7f26b83ff96e1f2b6a682f133852f6798a09c465da95921460cefb38474024989060200160405180910390a15b505050505050505050505050565b612595614202565b600060d354426125a59190615b71565b9050600c603c6125b581846159be565b6125bf91906159be565b116126325760405162461bcd60e51b815260206004820152603960248201527f596f752073686f756c642077616974206174206c6561737420313220686f757260448201527f7320616674657220746865206c617465737420757064617465000000000000006064820152608401611714565b60648260ff161115801561264a575060018260ff1610155b6126b25760405162461bcd60e51b815260206004820152603360248201527f546865206e65774665652073686f756c64206265206265747765656e203120616044820152726e64203130302028302e303125202d2031252960681b6064820152608401611714565b5060d2805460ff191660ff929092169190911790554260d355565b60f05460405163f7729d4360e01b81526001600160a01b0385811660048301528481166024830152610bb860448301526064820184905260006084830181905292839291169063f7729d439060a401602060405180830381600087803b15801561273657600080fd5b505af1925050508015612766575060408051601f3d908101601f191682019092526127639181019061561f565b60015b61277257506000612775565b90505b60408051600280825260608201835260009260208301908036833701905050905085816000815181106127aa576127aa615c67565b60200260200101906001600160a01b031690816001600160a01b03168152505084816001815181106127de576127de615c67565b6001600160a01b03928316602091820292909201015260ed5460405163d06ca61f60e01b8152600092919091169063d06ca61f9061282290889086906004016158fe565b60006040518083038186803b15801561283a57600080fd5b505afa92505050801561286f57506040513d6000823e601f3d908101601f1916820160405261286c91908101906153cc565b60015b61287b5750600061289a565b8060018151811061288e5761288e615c67565b60200260200101519150505b509095945050505050565b6128ad614202565b612305600061430c565b6128bf614202565b6001600160a01b03811661292c5760405162461bcd60e51b815260206004820152602e60248201527f49434f3a205072696365206665656420616464726573732063616e6e6f74206260448201526d65207a65726f206164647265737360901b6064820152608401611714565b60e080546001600160a01b0319166001600160a01b0392909216919091179055565b600080612a6f60dc805461296190615bd7565b80601f016020809104026020016040519081016040528092919081815260200182805461298d90615bd7565b80156129da5780601f106129af576101008083540402835291602001916129da565b820191906000526020600020905b8154815290600101906020018083116129bd57829003601f168201915b505050505060dd80546129ec90615bd7565b80601f0160208091040260200160405190810160405280929190818152602001828054612a1890615bd7565b8015612a655780601f10612a3a57610100808354040283529160200191612a65565b820191906000526020600020905b815481529060010190602001808311612a4857829003601f168201915b5050505050610d27565b90506000612a8760de54306336aab86c60e01b61435e565b60408051808201909152600381526219d95d60ea1b6020820152909150612ab09082908461437a565b612b0860405180604001604052806005815260200164706174683160d81b8152506040518060400160405280600e81526020016d726573756c74732c746f6b656e7360901b8152508361437a9092919063ffffffff16565b612b66604051806040016040528060058152602001643830ba341960d91b81525060405180604001604052806014815260200173726573756c74732c6d61726b657453686172657360601b8152508361437a9092919063ffffffff16565b612bc460405180604001604052806005815260200164706174683360d81b81525060405180604001604052806014815260200173726573756c74732c7377617056657273696f6e7360601b8152508361437a9092919063ffffffff16565b612be2612bd96003546001600160a01b031690565b8260df54614398565b9250505090565b612bf1614202565b612305614421565b60d98054612c0690615bd7565b80601f0160208091040260200160405190810160405280929190818152602001828054612c3290615bd7565b8015612c7f5780601f10612c5457610100808354040283529160200191612c7f565b820191906000526020600020905b815481529060010190602001808311612c6257829003601f168201915b505050505081565b612c8f614202565b60005b60e354811015612d6e5760ef54600082815260e560205260409020546001600160a01b03908116911614612d5c57600081815260e56020526040908190205460ef5460d05492516370a0823160e01b81526001600160a01b039384166004820152612d5a93928316929091169082906370a082319060240160206040518083038186803b158015612d2257600080fd5b505afa158015612d36573d6000803e3d6000fd5b505050506040513d601f19601f82011682018060405250810190611f68919061561f565b505b80612d6681615c0c565b915050612c92565b5060ef5460d0546040516370a0823160e01b81526001600160a01b03918216600482015260009291909116906370a082319060240160206040518083038186803b158015612dbb57600080fd5b505afa158015612dcf573d6000803e3d6000fd5b505050506040513d601f19601f82011682018060405250810190612df3919061561f565b905060005b60e254811015612f205760ef54600082815260e560205260409020546001600160a01b03908116911614612eae5760ef54600082815260e460209081526040808320546001600160a01b0390811680855260e9909352922054612eac93929092169168056bc75e2d6310000090612e6f9087615b52565b612e7991906159be565b60d054600086815260e460209081526040808320546001600160a01b03908116845260ea90925290912054911690613dd2565b505b600081815260e460209081526040808320805460e5845282852080546001600160a01b0319166001600160a01b0392831617905581548116855260e984528285205460e8855283862055905416835260e682528083205460e79092529091205580612f1881615c0c565b915050612df8565b505060e25460e355565b612f32614202565b8151612f459060dc906020850190614eb7565b508051612f599060dd906020840190614eb7565b505050565b60008060005b60e3548110156131155760ef54600082815260e560205260409020546001600160a01b039081169116141561303057600081815260e56020526040908190205460d05491516370a0823160e01b81526001600160a01b0392831660048201529116906370a082319060240160206040518083038186803b158015612fe757600080fd5b505afa158015612ffb573d6000803e3d6000fd5b505050506040513d601f19601f8201168201806040525081019061301f919061561f565b61302990836159a6565b9150613103565b600081815260e560205260408082205460ef5460d05492516370a0823160e01b81526001600160a01b0393841660048201526130f393928316929091169082906370a082319060240160206040518083038186803b15801561309157600080fd5b505afa1580156130a5573d6000803e3d6000fd5b505050506040513d601f19601f820116820180604052508101906130c9919061561f565b600086815260e560209081526040808320546001600160a01b0316835260ea909152902054610d54565b90506130ff81846159a6565b9250505b8061310d81615c0c565b915050612f64565b50919050565b60d254600090612710906131329060ff1685615b52565b61313c91906159be565b90506000613148612f5e565b60d0546040516323b872dd60e01b81523360048201526001600160a01b039182166024820152604481018790529192508616906323b872dd90606401602060405180830381600087803b15801561319e57600080fd5b505af11580156131b2573d6000803e3d6000fd5b505050506040513d601f19601f820116820180604052508101906131d69190615463565b50846001600160a01b03166323b872dd336131f96039546001600160a01b031690565b6040516001600160e01b031960e085901b1681526001600160a01b0392831660048201529116602482015260448101859052606401602060405180830381600087803b15801561324857600080fd5b505af115801561325c573d6000803e3d6000fd5b505050506040513d601f19601f820116820180604052508101906132809190615463565b5060ef5460d0546000916132a59188916001600160a01b039081169189911688613dd2565b905060005b60e3548110156133355760ef54600082815260e560205260409020546001600160a01b039081169116146133235760ef54600082815260e560209081526040808320546001600160a01b0390811680855260e890935292205461332193929092169168056bc75e2d6310000090611f5e9087615b52565b505b8061332d81615c0c565b9150506132aa565b5060008060d060009054906101000a90046001600160a01b03166001600160a01b03166318160ddd6040518163ffffffff1660e01b815260040160206040518083038186803b15801561338757600080fd5b505afa15801561339b573d6000803e3d6000fd5b505050506040513d601f19601f820116820180604052508101906133bf919061561f565b111561346857828260d060009054906101000a90046001600160a01b03166001600160a01b03166318160ddd6040518163ffffffff1660e01b815260040160206040518083038186803b15801561341557600080fd5b505afa158015613429573d6000803e3d6000fd5b505050506040513d601f19601f8201168201806040525081019061344d919061561f565b6134579190615b52565b61346191906159be565b9050613494565b60006134726121d0565b9050662386f26fc100006134868285615b52565b61349091906159be565b9150505b60d0546040516340c10f1960e01b8152336004820152602481018390526001600160a01b03909116906340c10f1990604401600060405180830381600087803b1580156134e057600080fd5b505af11580156134f4573d6000803e3d6000fd5b5050604080518981526020810185905242918101919091526001600160a01b038a1692503391507f4fee1c514ee0e252e3a0babfa8b5030fb89be7ea2b38df9a7fbbf788e54f3d91906060016121bf565b60ef546000906001600160a01b0384811691161415613625576000613568612f5e565b9050600060d060009054906101000a90046001600160a01b03166001600160a01b03166318160ddd6040518163ffffffff1660e01b815260040160206040518083038186803b1580156135ba57600080fd5b505afa1580156135ce573d6000803e3d6000fd5b505050506040513d601f19601f820116820180604052508101906135f2919061561f565b90506000811561361857826136078884615b52565b61361191906159be565b905061361b565b50855b9250610c6a915050565b60ef546000906136419085906001600160a01b03168786610d54565b9050600061364d612f5e565b9050600060d060009054906101000a90046001600160a01b03166001600160a01b03166318160ddd6040518163ffffffff1660e01b815260040160206040518083038186803b15801561369f57600080fd5b505afa1580156136b3573d6000803e3d6000fd5b505050506040513d601f19601f820116820180604052508101906136d7919061561f565b9050600081156136fd57826136ec8584615b52565b6136f691906159be565b9050613729565b60006137076121d0565b9050662386f26fc1000061371b8287615b52565b61372591906159be565b9150505b9350610c6a92505050565b61373c614202565b6001600160a01b0381166137625760405162461bcd60e51b815260040161171490615863565b606b80546001600160a01b0319166001600160a01b0392909216919091179055565b60ef546000906001600160a01b038481169116141561386e5760006137a7612f5e565b9050600060d060009054906101000a90046001600160a01b03166001600160a01b03166318160ddd6040518163ffffffff1660e01b815260040160206040518083038186803b1580156137f957600080fd5b505afa15801561380d573d6000803e3d6000fd5b505050506040513d601f19601f82011682018060405250810190613831919061561f565b90506000811561384657826136078884615b52565b60006138506121d0565b9050662386f26fc10000613864828a615b52565b610c5e91906159be565b60ef546000906136419085906001600160a01b03168786610ea2565b613892614202565b82828260005b8351811015613afb578381815181106138b3576138b3615c67565b602002602001015160e4600083815260200190815260200160002060006101000a8154816001600160a01b0302191690836001600160a01b031602179055508060e6600086848151811061390957613909615c67565b60200260200101516001600160a01b03166001600160a01b031681526020019081526020016000208190555082818151811061394757613947615c67565b602002602001015160e9600086848151811061396557613965615c67565b60200260200101516001600160a01b03166001600160a01b03168152602001908152602001600020819055508181815181106139a3576139a3615c67565b602002602001015160ea60008684815181106139c1576139c1615c67565b60200260200101516001600160a01b03166001600160a01b031681526020019081526020016000208190555060e35460001415613ae957838181518110613a0a57613a0a615c67565b602002602001015160e5600083815260200190815260200160002060006101000a8154816001600160a01b0302191690836001600160a01b03160217905550828181518110613a5b57613a5b615c67565b602002602001015160e86000868481518110613a7957613a79615c67565b60200260200101516001600160a01b03166001600160a01b03168152602001908152602001600020819055508060e76000868481518110613abc57613abc615c67565b60200260200101516001600160a01b03166001600160a01b03168152602001908152602001600020819055505b80613af381615c0c565b915050613898565b50825160e25560e354613b0e57825160e3555b50504260e15550505050565b6001600160a01b038116613b405760405162461bcd60e51b815260040161171490615863565b606b546001600160a01b03828116911614613bb85760405162461bcd60e51b815260206004820152603260248201527f50726f706f7361626c654f776e61626c653a206e6577206f776e6572206973206044820152713737ba10383937b837b9b2b21037bbb732b960711b6064820152608401611714565b6001600160a01b0381163314613c365760405162461bcd60e51b815260206004820152603a60248201527f50726f706f7361626c654f776e61626c653a20746869732063616c6c206d757360448201527f74206265206d61646520627920746865206e6577206f776e65720000000000006064820152608401611714565b613c3f8161430c565b50565b600080826001600160a01b0316633850c7bd6040518163ffffffff1660e01b815260040160e06040518083038186803b158015613c7e57600080fd5b505afa158015613c92573d6000803e3d6000fd5b505050506040513d601f19601f82011682018060405250810190613cb69190615572565b509398975050505050505050565b600080613cd08661445e565b90506001600160801b036001600160a01b03821611613d56576000613cfe6001600160a01b03831680615b52565b9050836001600160a01b0316856001600160a01b031610613d3657613d31600160c01b876001600160801b03168361477e565b613d4e565b613d4e81876001600160801b0316600160c01b61477e565b925050613dc9565b6000613d756001600160a01b038316806801000000000000000061477e565b9050836001600160a01b0316856001600160a01b031610613dad57613da8600160801b876001600160801b03168361477e565b613dc5565b613dc581876001600160801b0316600160801b61477e565b9250505b50949350505050565b600080613de187878786610d54565b905060008115613e8b5760d0546040516305f370ed60e41b81526001600160a01b038a8116600483015289811660248301526044820189905287811660648301526084820187905290911690635f370ed09060a401602060405180830381600087803b158015613e5057600080fd5b505af1158015613e64573d6000803e3d6000fd5b505050506040513d601f19601f82011682018060405250810190613e88919061561f565b90505b8360031415613e9d579150613ea19050565b5090505b95945050505050565b6000816003141561404f5760eb5460405163095ea7b360e01b81526001600160a01b039182166004820152602481018690529087169063095ea7b390604401602060405180830381600087803b158015613f0357600080fd5b505af1158015613f17573d6000803e3d6000fd5b505050506040513d601f19601f82011682018060405250810190613f3b9190615463565b5060408051610100810182526001600160a01b03888116825287811660208301908152610bb883850190815287831660608501908152426080860190815260a086018b8152600060c0880181815260e0890182815260eb549a5163414bf38960e01b81528a518a166004820152975189166024890152955162ffffff166044880152935187166064870152915160848601525160a4850152905160c48401529051831660e483015292939091169063414bf3899061010401602060405180830381600087803b15801561400d57600080fd5b505af1158015614021573d6000803e3d6000fd5b505050506040513d601f19601f82011682018060405250810190614045919061561f565b9250613ea1915050565b604080516002808252606082018352600092602083019080368337019050509050868160008151811061408457614084615c67565b60200260200101906001600160a01b031690816001600160a01b03168152505085816001815181106140b8576140b8615c67565b6001600160a01b03928316602091820292909201015260ed5460405163095ea7b360e01b81529082166004820152602481018790529088169063095ea7b390604401602060405180830381600087803b15801561411457600080fd5b505af1158015614128573d6000803e3d6000fd5b505050506040513d601f19601f8201168201806040525081019061414c9190615463565b5060ed54604051635c11d79560e01b81526001600160a01b0390911690635c11d7959061418690889060009086908a904290600401615917565b600060405180830381600087803b1580156141a057600080fd5b505af11580156141b4573d6000803e3d6000fd5b505050506000915050613ea1565b60008260ff168260ff1611156141f8576141dc8383615b88565b6141e790600a615a21565b6141f19085615acd565b9050610c6a565b6141dc8284615b88565b6039546001600160a01b031633146123055760405162461bcd60e51b815260206004820181905260248201527f4f776e61626c653a2063616c6c6572206973206e6f7420746865206f776e65726044820152606401611714565b614264614831565b609e805460ff191690557f5db9ee0a495bf2e6ff9c91a7834c1ba4fdd244a5e8aa4e537bd38aeae4b073aa335b6040516001600160a01b03909116815260200160405180910390a1565b600654610100900460ff166142d55760405162461bcd60e51b8152600401611714906158b3565b61230561487a565b600654610100900460ff166143045760405162461bcd60e51b8152600401611714906158b3565b6123056148aa565b603980546001600160a01b038381166001600160a01b0319831681179093556040519116919082907f8be0079c531659141344cd1fd0a4f28419497f9722a3daafe3b4186f6b6457e090600090a35050565b614366614f3b565b61436e614f3b565b613ea1818686866148dd565b6080830151614389908361491a565b6080830151612f59908261491a565b6004546000906143a98160016159a6565b600455835160408086015160808701515191516000936320214ca360e11b936143e19386938493923092918a9160019160240161577d565b60408051601f198184030181529190526020810180516001600160e01b03166001600160e01b0319909316929092179091529050610d1d86838684614931565b614429614a9e565b609e805460ff191660011790557f62e78cea01bee320cd4e420270b5ea74000d11b0c9f74754ebdbfc544b05a2586142913390565b60008060008360020b12614475578260020b61447d565b8260020b6000035b9050620d89e88111156144a3576040516315e4079d60e11b815260040160405180910390fd5b6000600182166144b757600160801b6144c9565b6ffffcb933bd6fad37aa2d162d1a5940015b70ffffffffffffffffffffffffffffffffff16905060028216156144fd576ffff97272373d413259a46990580e213a0260801c5b600482161561451c576ffff2e50f5f656932ef12357cf3c7fdcc0260801c5b600882161561453b576fffe5caca7e10e4e61c3624eaa0941cd00260801c5b601082161561455a576fffcb9843d60f6159c9db58835c9266440260801c5b6020821615614579576fff973b41fa98c081472e6896dfb254c00260801c5b6040821615614598576fff2ea16466c96a3843ec78b326b528610260801c5b60808216156145b7576ffe5dee046a99a2a811c461f1969c30530260801c5b6101008216156145d7576ffcbe86c7900a88aedcffc83b479aa3a40260801c5b6102008216156145f7576ff987a7253ac413176f2b074cf7815e540260801c5b610400821615614617576ff3392b0822b70005940c7a398e4b70f30260801c5b610800821615614637576fe7159475a2c29b7443b29c7fa6e889d90260801c5b611000821615614657576fd097f3bdfd2022b8845ad8f792aa58250260801c5b612000821615614677576fa9f746462d870fdf8a65dc1f90e061e50260801c5b614000821615614697576f70d869a156d2a1b890bb3df62baf32f70260801c5b6180008216156146b7576f31be135f97d08fd981231505542fcfa60260801c5b620100008216156146d8576f09aa508b5b7a84e1c677de54f3e99bc90260801c5b620200008216156146f8576e5d6af8dedb81196699c329225ee6040260801c5b62040000821615614717576d2216e584f5fa1ea926041bedfe980260801c5b62080000821615614734576b048a170391f7dc42444e8fa20260801c5b60008460020b131561475557806000198161475157614751615c51565b0490505b64010000000081061561476957600161476c565b60005b60ff16602082901c0192505050919050565b6000808060001985870985870292508281108382030391505080600014156147b857600084116147ad57600080fd5b508290049050610c6a565b8084116147c457600080fd5b6000848688096000868103871696879004966002600389028118808a02820302808a02820302808a02820302808a02820302808a02820302808a02909103029181900381900460010186841190950394909402919094039290920491909117919091029150509392505050565b609e5460ff166123055760405162461bcd60e51b815260206004820152601460248201527314185d5cd8589b194e881b9bdd081c185d5cd95960621b6044820152606401611714565b600654610100900460ff166148a15760405162461bcd60e51b8152600401611714906158b3565b6123053361430c565b600654610100900460ff166148d15760405162461bcd60e51b8152600401611714906158b3565b609e805460ff19169055565b6148e5614f3b565b6148f58560800151610100614ae4565b50509183526001600160a01b031660208301526001600160e01b031916604082015290565b6149278260038351614b49565b612f598282614c56565b6040516bffffffffffffffffffffffff193060601b1660208201526034810184905260009060540160408051808303601f1901815282825280516020918201206000818152600590925291812080546001600160a01b0319166001600160a01b038a1617905590925082917fb5e6e01e79f91267dc17b4e6314d5d4d03593d2ceee0fbb452b750bd70ea5af99190a2600254604051630200057560e51b81526001600160a01b0390911690634000aea0906149f4908890879087906004016157e5565b602060405180830381600087803b158015614a0e57600080fd5b505af1158015614a22573d6000803e3d6000fd5b505050506040513d601f19601f82011682018060405250810190614a469190615463565b610e9a5760405162461bcd60e51b815260206004820152602360248201527f756e61626c6520746f207472616e73666572416e6443616c6c20746f206f7261604482015262636c6560e81b6064820152608401611714565b609e5460ff16156123055760405162461bcd60e51b815260206004820152601060248201526f14185d5cd8589b194e881c185d5cd95960821b6044820152606401611714565b604080518082019091526060815260006020820152614b04602083615c27565b15614b2c57614b14602083615c27565b614b1f906020615b71565b614b2990836159a6565b91505b506020828101829052604080518085526000815290920101905290565b6017816001600160401b031611614b7357614b6d8360e0600585901b168317614c7d565b50505050565b60ff816001600160401b031611614baf57614b99836018611fe0600586901b1617614c7d565b50614b6d836001600160401b0383166001614ca2565b61ffff816001600160401b031611614bec57614bd6836019611fe0600586901b1617614c7d565b50614b6d836001600160401b0383166002614ca2565b63ffffffff816001600160401b031611614c2b57614c1583601a611fe0600586901b1617614c7d565b50614b6d836001600160401b0383166004614ca2565b614c4083601b611fe0600586901b1617614c7d565b50614b6d836001600160401b0383166008614ca2565b604080518082019091526060815260006020820152610c6a83846000015151848551614cc8565b604080518082019091526060815260006020820152610c6a8384600001515184614db2565b604080518082019091526060815260006020820152610e9a848560000151518585614e0e565b6040805180820190915260608152600060208201528251821115614ceb57600080fd5b6020850151614cfa83866159a6565b1115614d2d57614d2d85614d1d87602001518786614d1891906159a6565b614e8f565b614d28906002615b52565b614ea0565b600080865180518760208301019350808887011115614d4c5787860182525b505050602084015b60208410614d8c5780518252614d6b6020836159a6565b9150614d786020826159a6565b9050614d85602085615b71565b9350614d54565b51815160001960208690036101000a019081169019919091161790525083949350505050565b60408051808201909152606081526000602082015283602001518310614de757614de78485602001516002614d289190615b52565b835180516020858301018481535080851415614e04576001810182525b5093949350505050565b6040805180820190915260608152600060208201526020850151614e3285846159a6565b1115614e4657614e4685614d1d86856159a6565b60006001614e5684610100615a15565b614e609190615b71565b9050855183868201018583198251161781525080518487011115614e845783860181525b509495945050505050565b600081831115613115575081610d4e565b8151614eac8383614ae4565b50614b6d8382614c56565b828054614ec390615bd7565b90600052602060002090601f016020900481019282614ee55760008555614f2b565b82601f10614efe57805160ff1916838001178555614f2b565b82800160010185558215614f2b579182015b82811115614f2b578251825591602001919060010190614f10565b50614f37929150614f76565b5090565b6040805160a0810182526000808252602080830182905282840182905260608084018390528451808601909552845283015290608082015290565b5b80821115614f375760008155600101614f77565b8035614f9681615c93565b919050565b600082601f830112614fac57600080fd5b81356020614fc1614fbc83615983565b615953565b80838252828201915082860187848660051b8901011115614fe157600080fd5b60005b85811015615009578135614ff781615c93565b84529284019290840190600101614fe4565b5090979650505050505050565b600082601f83011261502757600080fd5b81356020615037614fbc83615983565b80838252828201915082860187848660051b890101111561505757600080fd5b60005b858110156150095781358452928401929084019060010161505a565b80518015158114614f9657600080fd5b600082601f83011261509757600080fd5b81356001600160401b038111156150b0576150b0615c7d565b6150c3601f8201601f1916602001615953565b8181528460208386010111156150d857600080fd5b816020850160208301376000918101602001919091529392505050565b805161ffff81168114614f9657600080fd5b805169ffffffffffffffffffff81168114614f9657600080fd5b60006020828403121561513357600080fd5b8135610c6a81615c93565b60006020828403121561515057600080fd5b8151610c6a81615c93565b60008060008060008060008060008060006101608c8e03121561517d57600080fd5b8b3561518881615c93565b9a5060208c013561519881615c93565b995060408c01356151a881615c93565b985060608c0135975060808c01356151bf81615c93565b965060a08c01356151cf81615c93565b955060c08c01356151df81615c93565b945060e08c01356151ef81615c93565b93506101008c013561520081615c93565b92506101208c013561521181615c93565b91506152206101408d01614f8b565b90509295989b509295989b9093969950565b60008060006060848603121561524757600080fd5b833561525281615c93565b9250602084013561526281615c93565b915060408401356001600160801b038116811461527e57600080fd5b809150509250925092565b60008060006060848603121561529e57600080fd5b83356152a981615c93565b925060208401356152b981615c93565b929592945050506040919091013590565b600080600080608085870312156152e057600080fd5b84356152eb81615c93565b935060208501356152fb81615c93565b93969395505050506040820135916060013590565b60008060006060848603121561532557600080fd5b833561533081615c93565b95602085013595506040909401359392505050565b60008060006060848603121561535a57600080fd5b83356001600160401b038082111561537157600080fd5b61537d87838801614f9b565b9450602086013591508082111561539357600080fd5b61539f87838801615016565b935060408601359150808211156153b557600080fd5b506153c286828701615016565b9150509250925092565b600060208083850312156153df57600080fd5b82516001600160401b038111156153f557600080fd5b8301601f8101851361540657600080fd5b8051615414614fbc82615983565b80828252848201915084840188868560051b870101111561543457600080fd5b600094505b83851015615457578051835260019490940193918501918501615439565b50979650505050505050565b60006020828403121561547557600080fd5b610c6a82615076565b6000806000806080858703121561549457600080fd5b8435935060208501356001600160401b03808211156154b257600080fd5b6154be88838901614f9b565b945060408701359150808211156154d457600080fd5b6154e088838901615016565b935060608701359150808211156154f657600080fd5b5061550387828801615016565b91505092959194509250565b6000806040838503121561552257600080fd5b82356001600160401b038082111561553957600080fd5b61554586838701615086565b9350602085013591508082111561555b57600080fd5b5061556885828601615086565b9150509250929050565b600080600080600080600060e0888a03121561558d57600080fd5b875161559881615c93565b8097505060208801518060020b81146155b057600080fd5b95506155be604089016150f5565b94506155cc606089016150f5565b93506155da608089016150f5565b925060a08801516155ea81615ca8565b91506155f860c08901615076565b905092959891949750929550565b60006020828403121561561857600080fd5b5035919050565b60006020828403121561563157600080fd5b5051919050565b60008060006060848603121561564d57600080fd5b8335925060208401356152b981615c93565b60006020828403121561567157600080fd5b8135610c6a81615ca8565b600080600080600060a0868803121561569457600080fd5b61569d86615107565b94506020860151935060408601519250606086015191506156c060808701615107565b90509295509295909350565b6000602082840312156156de57600080fd5b8151610c6a81615ca8565b600081518084526020808501945080840160005b83811015614e845781516001600160a01b0316875295820195908201906001016156fd565b6000815180845261573a816020860160208601615bab565b601f01601f19169290920160200192915050565b60008351615760818460208801615bab565b835190830190615774818360208801615bab565b01949350505050565b6001600160a01b0389811682526020820189905260408201889052861660608201526001600160e01b03198516608082015260a0810184905260c0810183905261010060e082018190526000906157d683820185615722565b9b9a5050505050505050505050565b60018060a01b0384168152826020820152606060408201526000613ea16060830184615722565b602081526000610c6a6020830184615722565b60208082526024908201527f7472616e73666572206574682066656520746f20746865206f776e65722066616040820152631a5b195960e21b606082015260800190565b60208082526030908201527f50726f706f7361626c654f776e61626c653a206e6577206f776e65722069732060408201526f746865207a65726f206164647265737360801b606082015260800190565b6020808252602b908201527f496e697469616c697a61626c653a20636f6e7472616374206973206e6f74206960408201526a6e697469616c697a696e6760a81b606082015260800190565b828152604060208201526000610e9a60408301846156e9565b85815284602082015260a06040820152600061593660a08301866156e9565b6001600160a01b0394909416606083015250608001529392505050565b604051601f8201601f191681016001600160401b038111828210171561597b5761597b615c7d565b604052919050565b60006001600160401b0382111561599c5761599c615c7d565b5060051b60200190565b600082198211156159b9576159b9615c3b565b500190565b6000826159cd576159cd615c51565b500490565b600181815b80851115615a0d5781600019048211156159f3576159f3615c3b565b80851615615a0057918102915b93841c93908002906159d7565b509250929050565b6000610c6a8383615a2c565b6000610c6a60ff8416835b600082615a3b57506001610d4e565b81615a4857506000610d4e565b8160018114615a5e5760028114615a6857615a84565b6001915050610d4e565b60ff841115615a7957615a79615c3b565b50506001821b610d4e565b5060208310610133831016604e8410600b8410161715615aa7575081810a610d4e565b615ab183836159d2565b8060001904821115615ac557615ac5615c3b565b029392505050565b60006001600160ff1b0381841382841380821686840486111615615af357615af3615c3b565b600160ff1b6000871282811687830589121615615b1257615b12615c3b565b60008712925087820587128484161615615b2e57615b2e615c3b565b87850587128184161615615b4457615b44615c3b565b505050929093029392505050565b6000816000190483118215151615615b6c57615b6c615c3b565b500290565b600082821015615b8357615b83615c3b565b500390565b600060ff821660ff841680821015615ba257615ba2615c3b565b90039392505050565b60005b83811015615bc6578181015183820152602001615bae565b83811115614b6d5750506000910152565b600181811c90821680615beb57607f821691505b6020821081141561311557634e487b7160e01b600052602260045260246000fd5b6000600019821415615c2057615c20615c3b565b5060010190565b600082615c3657615c36615c51565b500690565b634e487b7160e01b600052601160045260246000fd5b634e487b7160e01b600052601260045260246000fd5b634e487b7160e01b600052603260045260246000fd5b634e487b7160e01b600052604160045260246000fd5b6001600160a01b0381168114613c3f57600080fd5b60ff81168114613c3f57600080fdfe68747470733a2f2f6170702e6e65786c6162732e696f2f6170692f616c6c46756e64696e6752617465733f6d756c7469706c7946756e633d31382674696d65734e656746756e643d74727565266172726179733d74727565a2646970667358221220e4b741fab9c6414686487abcf0126e01b64f771bbc40aedfb802738aa15cec4564736f6c63430008070033","linkReferences":{}},"methodIdentifiers":{"concatenation(string,string)":"0e329357","currentList(uint256)":"9932ba4c","estimateAmountOut(address,address,uint128)":"0456f9c8","externalJobId()":"a8b54bd4","factoryV2()":"68e0d4e1","factoryV3()":"1d5f45f5","fee()":"ddca3f43","feeRate()":"978bbdb9","feeRatePerDayScaled()":"2fecd589","feeReceiver()":"b3f00674","feeTimestamp()":"184a732f","fulfillAssetsData(bytes32,address[],uint256[],uint256[])":"36aab86c","getAmountOut(address,address,uint256,uint256)":"13cb1f83","getExactAmountOut(address,address,uint256,uint256)":"156a5da1","getExactAmountOut2(address,address,uint256)":"686f9175","getIssuanceAmountOut(uint256,address,uint256)":"b3951b67","getIssuanceAmountOut2(uint256,address,uint256)":"c8b76e70","getPortfolioBalance()":"a8509fd8","getRedemptionAmountOut(uint256,address,uint256)":"02e04015","getRedemptionAmountOut2(uint256,address,uint256)":"1ff01563","indexToken()":"e7d015f2","initialize(address,address,address,bytes32,address,address,address,address,address,address,address)":"465a4c94","isRestricted(address)":"c01bc982","issuanceIndexTokens(address,uint256,uint256)":"abdd5f3f","issuanceIndexTokensWithEth(uint256)":"372d4c55","lastUpdateTime()":"c8f33c91","latestFeeUpdate()":"011ced5f","methodologist()":"9f8e67bf","methodology()":"9eeb1d50","minter()":"07546172","mockFillAssetsList(address[],uint256[],uint256[])":"e267078a","oracleList(uint256)":"239aad0d","oraclePayment()":"0c02e130","owner()":"8da5cb5b","pause()":"8456cb59","paused()":"5c975abb","priceInWei()":"3c8da588","proposeOwner(address)":"b5ed298a","proposedOwner()":"d153b60c","quoter()":"c6bbd5a7","reIndexAndReweight()":"a2ab905d","redemption(uint256,address,uint256)":"2b9522e0","renounceOwnership()":"715018a6","requestAssetsData()":"7ca58c55","setFeeRate(uint8)":"5177942a","setPriceFeed(address)":"724e78da","setUrl(string,string)":"a73e1cbf","supplyCeiling()":"2b52684d","swapRouterV2()":"744fbc7a","swapRouterV3()":"b631e80b","toUsdPriceFeed()":"63973fda","tokenCurrentListIndex(address)":"914f0cc6","tokenCurrentMarketShare(address)":"0be52713","tokenOracleListIndex(address)":"8c88c10c","tokenOracleMarketShare(address)":"4b3e0b80","tokenSwapVersion(address)":"d90bc211","totalCurrentList()":"53fd4332","totalOracleList()":"c8599ded","transferOwnership(address)":"f2fde38b","unpause()":"3f4ba83a","weth()":"3fc8cef3"},"id":2}