{
  "abi": [
    {
      "inputs": [],
      "name": "T",
      "type": "error"
    },
    {
      "anonymous": false,
      "inputs": [
        {
          "indexed": true,
          "internalType": "bytes32",
          "name": "id",
          "type": "bytes32"
        }
      ],
      "name": "ChainlinkCancelled",
      "type": "event"
    },
    {
      "anonymous": false,
      "inputs": [
        {
          "indexed": true,
          "internalType": "bytes32",
          "name": "id",
          "type": "bytes32"
        }
      ],
      "name": "ChainlinkFulfilled",
      "type": "event"
    },
    {
      "anonymous": false,
      "inputs": [
        {
          "indexed": true,
          "internalType": "bytes32",
          "name": "id",
          "type": "bytes32"
        }
      ],
      "name": "ChainlinkRequested",
      "type": "event"
    },
    {
      "anonymous": false,
      "inputs": [
        {
          "indexed": true,
          "internalType": "uint256",
          "name": "feeRatePerDayScaled",
          "type": "uint256"
        }
      ],
      "name": "FeeRateSet",
      "type": "event"
    },
    {
      "anonymous": false,
      "inputs": [
        {
          "indexed": true,
          "internalType": "address",
          "name": "feeReceiver",
          "type": "address"
        }
      ],
      "name": "FeeReceiverSet",
      "type": "event"
    },
    {
      "anonymous": false,
      "inputs": [
        {
          "indexed": false,
          "internalType": "uint8",
          "name": "version",
          "type": "uint8"
        }
      ],
      "name": "Initialized",
      "type": "event"
    },
    {
      "anonymous": false,
      "inputs": [
        {
          "indexed": true,
          "internalType": "address",
          "name": "user",
          "type": "address"
        },
        {
          "indexed": true,
          "internalType": "address",
          "name": "inputToken",
          "type": "address"
        },
        {
          "indexed": false,
          "internalType": "uint256",
          "name": "inputAmount",
          "type": "uint256"
        },
        {
          "indexed": false,
          "internalType": "uint256",
          "name": "outputAmount",
          "type": "uint256"
        },
        {
          "indexed": false,
          "internalType": "uint256",
          "name": "time",
          "type": "uint256"
        }
      ],
      "name": "Issuanced",
      "type": "event"
    },
    {
      "anonymous": false,
      "inputs": [
        {
          "indexed": true,
          "internalType": "address",
          "name": "methodologist",
          "type": "address"
        }
      ],
      "name": "MethodologistSet",
      "type": "event"
    },
    {
      "anonymous": false,
      "inputs": [
        {
          "indexed": false,
          "internalType": "string",
          "name": "methodology",
          "type": "string"
        }
      ],
      "name": "MethodologySet",
      "type": "event"
    },
    {
      "anonymous": false,
      "inputs": [
        {
          "indexed": false,
          "internalType": "address",
          "name": "feeReceiver",
          "type": "address"
        },
        {
          "indexed": false,
          "internalType": "uint256",
          "name": "timestamp",
          "type": "uint256"
        },
        {
          "indexed": false,
          "internalType": "uint256",
          "name": "totalSupply",
          "type": "uint256"
        },
        {
          "indexed": false,
          "internalType": "uint256",
          "name": "amount",
          "type": "uint256"
        }
      ],
      "name": "MintFeeToReceiver",
      "type": "event"
    },
    {
      "anonymous": false,
      "inputs": [
        {
          "indexed": true,
          "internalType": "address",
          "name": "minter",
          "type": "address"
        }
      ],
      "name": "MinterSet",
      "type": "event"
    },
    {
      "anonymous": false,
      "inputs": [
        {
          "indexed": true,
          "internalType": "address",
          "name": "previousOwner",
          "type": "address"
        },
        {
          "indexed": true,
          "internalType": "address",
          "name": "newOwner",
          "type": "address"
        }
      ],
      "name": "OwnershipTransferred",
      "type": "event"
    },
    {
      "anonymous": false,
      "inputs": [
        {
          "indexed": false,
          "internalType": "address",
          "name": "account",
          "type": "address"
        }
      ],
      "name": "Paused",
      "type": "event"
    },
    {
      "anonymous": false,
      "inputs": [
        {
          "indexed": true,
          "internalType": "address",
          "name": "user",
          "type": "address"
        },
        {
          "indexed": true,
          "internalType": "address",
          "name": "outputToken",
          "type": "address"
        },
        {
          "indexed": false,
          "internalType": "uint256",
          "name": "inputAmount",
          "type": "uint256"
        },
        {
          "indexed": false,
          "internalType": "uint256",
          "name": "outputAmount",
          "type": "uint256"
        },
        {
          "indexed": false,
          "internalType": "uint256",
          "name": "time",
          "type": "uint256"
        }
      ],
      "name": "Redemption",
      "type": "event"
    },
    {
      "anonymous": false,
      "inputs": [
        {
          "indexed": false,
          "internalType": "uint256",
          "name": "supplyCeiling",
          "type": "uint256"
        }
      ],
      "name": "SupplyCeilingSet",
      "type": "event"
    },
    {
      "anonymous": false,
      "inputs": [
        {
          "indexed": true,
          "internalType": "address",
          "name": "account",
          "type": "address"
        },
        {
          "indexed": false,
          "internalType": "bool",
          "name": "isRestricted",
          "type": "bool"
        }
      ],
      "name": "ToggledRestricted",
      "type": "event"
    },
    {
      "anonymous": false,
      "inputs": [
        {
          "indexed": false,
          "internalType": "address",
          "name": "account",
          "type": "address"
        }
      ],
      "name": "Unpaused",
      "type": "event"
    },
    {
      "inputs": [
        {
          "internalType": "string",
          "name": "a",
          "type": "string"
        },
        {
          "internalType": "string",
          "name": "b",
          "type": "string"
        }
      ],
      "name": "concatenation",
      "outputs": [
        {
          "internalType": "string",
          "name": "",
          "type": "string"
        }
      ],
      "stateMutability": "pure",
      "type": "function"
    },
    {
      "inputs": [
        {
          "internalType": "uint256",
          "name": "",
          "type": "uint256"
        }
      ],
      "name": "currentList",
      "outputs": [
        {
          "internalType": "address",
          "name": "",
          "type": "address"
        }
      ],
      "stateMutability": "view",
      "type": "function"
    },
    {
      "inputs": [
        {
          "internalType": "address",
          "name": "tokenIn",
          "type": "address"
        },
        {
          "internalType": "address",
          "name": "tokenOut",
          "type": "address"
        },
        {
          "internalType": "uint128",
          "name": "amountIn",
          "type": "uint128"
        },
        {
          "internalType": "uint32",
          "name": "secondsAgo",
          "type": "uint32"
        }
      ],
      "name": "estimateAmountOut",
      "outputs": [
        {
          "internalType": "uint256",
          "name": "amountOut",
          "type": "uint256"
        }
      ],
      "stateMutability": "view",
      "type": "function"
    },
    {
      "inputs": [],
      "name": "externalJobId",
      "outputs": [
        {
          "internalType": "bytes32",
          "name": "",
          "type": "bytes32"
        }
      ],
      "stateMutability": "view",
      "type": "function"
    },
    {
      "inputs": [],
      "name": "factoryV2",
      "outputs": [
        {
          "internalType": "contract IUniswapV2Factory",
          "name": "",
          "type": "address"
        }
      ],
      "stateMutability": "view",
      "type": "function"
    },
    {
      "inputs": [],
      "name": "factoryV3",
      "outputs": [
        {
          "internalType": "contract IUniswapV3Factory",
          "name": "",
          "type": "address"
        }
      ],
      "stateMutability": "view",
      "type": "function"
    },
    {
      "inputs": [],
      "name": "fee",
      "outputs": [
        {
          "internalType": "uint256",
          "name": "",
          "type": "uint256"
        }
      ],
      "stateMutability": "view",
      "type": "function"
    },
    {
      "inputs": [],
      "name": "feeRate",
      "outputs": [
        {
          "internalType": "uint8",
          "name": "",
          "type": "uint8"
        }
      ],
      "stateMutability": "view",
      "type": "function"
    },
    {
      "inputs": [],
      "name": "feeRatePerDayScaled",
      "outputs": [
        {
          "internalType": "uint256",
          "name": "",
          "type": "uint256"
        }
      ],
      "stateMutability": "view",
      "type": "function"
    },
    {
      "inputs": [],
      "name": "feeReceiver",
      "outputs": [
        {
          "internalType": "address",
          "name": "",
          "type": "address"
        }
      ],
      "stateMutability": "view",
      "type": "function"
    },
    {
      "inputs": [],
      "name": "feeTimestamp",
      "outputs": [
        {
          "internalType": "uint256",
          "name": "",
          "type": "uint256"
        }
      ],
      "stateMutability": "view",
      "type": "function"
    },
    {
      "inputs": [
        {
          "internalType": "bytes32",
          "name": "requestId",
          "type": "bytes32"
        },
        {
          "internalType": "address[]",
          "name": "_tokens",
          "type": "address[]"
        },
        {
          "internalType": "uint256[]",
          "name": "_marketShares",
          "type": "uint256[]"
        },
        {
          "internalType": "uint256[]",
          "name": "_swapVersions",
          "type": "uint256[]"
        }
      ],
      "name": "fulfillAssetsData",
      "outputs": [],
      "stateMutability": "nonpayable",
      "type": "function"
    },
    {
      "inputs": [
        {
          "internalType": "address",
          "name": "tokenIn",
          "type": "address"
        },
        {
          "internalType": "address",
          "name": "tokenOut",
          "type": "address"
        },
        {
          "internalType": "uint256",
          "name": "amountIn",
          "type": "uint256"
        },
        {
          "internalType": "uint256",
          "name": "_swapVersion",
          "type": "uint256"
        }
      ],
      "name": "getAmountOut",
      "outputs": [
        {
          "internalType": "uint256",
          "name": "finalAmountOut",
          "type": "uint256"
        }
      ],
      "stateMutability": "view",
      "type": "function"
    },
    {
      "inputs": [
        {
          "internalType": "uint256",
          "name": "_amountIn",
          "type": "uint256"
        },
        {
          "internalType": "address",
          "name": "_tokenIn",
          "type": "address"
        },
        {
          "internalType": "uint256",
          "name": "_swapVersion",
          "type": "uint256"
        }
      ],
      "name": "getIssuanceAmountOut",
      "outputs": [
        {
          "internalType": "uint256",
          "name": "",
          "type": "uint256"
        }
      ],
      "stateMutability": "view",
      "type": "function"
    },
    {
      "inputs": [],
      "name": "getPortfolioBalance",
      "outputs": [
        {
          "internalType": "uint256",
          "name": "",
          "type": "uint256"
        }
      ],
      "stateMutability": "view",
      "type": "function"
    },
    {
      "inputs": [
        {
          "internalType": "uint256",
          "name": "_amountIn",
          "type": "uint256"
        },
        {
          "internalType": "address",
          "name": "_tokenOut",
          "type": "address"
        },
        {
          "internalType": "uint256",
          "name": "_swapVersion",
          "type": "uint256"
        }
      ],
      "name": "getRedemptionAmountOut",
      "outputs": [
        {
          "internalType": "uint256",
          "name": "",
          "type": "uint256"
        }
      ],
      "stateMutability": "view",
      "type": "function"
    },
    {
      "inputs": [],
      "name": "indexToken",
      "outputs": [
        {
          "internalType": "contract IndexToken",
          "name": "",
          "type": "address"
        }
      ],
      "stateMutability": "view",
      "type": "function"
    },
    {
      "inputs": [
        {
          "internalType": "address payable",
          "name": "_token",
          "type": "address"
        },
        {
          "internalType": "address",
          "name": "_chainlinkToken",
          "type": "address"
        },
        {
          "internalType": "address",
          "name": "_oracleAddress",
          "type": "address"
        },
        {
          "internalType": "bytes32",
          "name": "_externalJobId",
          "type": "bytes32"
        },
        {
          "internalType": "address",
          "name": "_weth",
          "type": "address"
        },
        {
          "internalType": "address",
          "name": "_quoter",
          "type": "address"
        },
        {
          "internalType": "address",
          "name": "_swapRouterV3",
          "type": "address"
        },
        {
          "internalType": "address",
          "name": "_factoryV3",
          "type": "address"
        },
        {
          "internalType": "address",
          "name": "_swapRouterV2",
          "type": "address"
        },
        {
          "internalType": "address",
          "name": "_factoryV2",
          "type": "address"
        }
      ],
      "name": "initialize",
      "outputs": [],
      "stateMutability": "nonpayable",
      "type": "function"
    },
    {
      "inputs": [
        {
          "internalType": "address",
          "name": "",
          "type": "address"
        }
      ],
      "name": "isRestricted",
      "outputs": [
        {
          "internalType": "bool",
          "name": "",
          "type": "bool"
        }
      ],
      "stateMutability": "view",
      "type": "function"
    },
    {
      "inputs": [
        {
          "internalType": "address",
          "name": "_tokenIn",
          "type": "address"
        },
        {
          "internalType": "uint256",
          "name": "_amountIn",
          "type": "uint256"
        },
        {
          "internalType": "uint256",
          "name": "_tokenInSwapVersion",
          "type": "uint256"
        }
      ],
      "name": "issuanceIndexTokens",
      "outputs": [],
      "stateMutability": "nonpayable",
      "type": "function"
    },
    {
      "inputs": [
        {
          "internalType": "uint256",
          "name": "_inputAmount",
          "type": "uint256"
        }
      ],
      "name": "issuanceIndexTokensWithEth",
      "outputs": [],
      "stateMutability": "payable",
      "type": "function"
    },
    {
      "inputs": [],
      "name": "lastUpdateTime",
      "outputs": [
        {
          "internalType": "uint256",
          "name": "",
          "type": "uint256"
        }
      ],
      "stateMutability": "view",
      "type": "function"
    },
    {
      "inputs": [],
      "name": "latestFeeUpdate",
      "outputs": [
        {
          "internalType": "uint256",
          "name": "",
          "type": "uint256"
        }
      ],
      "stateMutability": "view",
      "type": "function"
    },
    {
      "inputs": [],
      "name": "methodologist",
      "outputs": [
        {
          "internalType": "address",
          "name": "",
          "type": "address"
        }
      ],
      "stateMutability": "view",
      "type": "function"
    },
    {
      "inputs": [],
      "name": "methodology",
      "outputs": [
        {
          "internalType": "string",
          "name": "",
          "type": "string"
        }
      ],
      "stateMutability": "view",
      "type": "function"
    },
    {
      "inputs": [],
      "name": "minter",
      "outputs": [
        {
          "internalType": "address",
          "name": "",
          "type": "address"
        }
      ],
      "stateMutability": "view",
      "type": "function"
    },
    {
      "inputs": [
        {
          "internalType": "address[]",
          "name": "_tokens",
          "type": "address[]"
        },
        {
          "internalType": "uint256[]",
          "name": "_marketShares",
          "type": "uint256[]"
        },
        {
          "internalType": "uint256[]",
          "name": "_swapVersions",
          "type": "uint256[]"
        }
      ],
      "name": "mockFillAssetsList",
      "outputs": [],
      "stateMutability": "nonpayable",
      "type": "function"
    },
    {
      "inputs": [
        {
          "internalType": "uint256",
          "name": "",
          "type": "uint256"
        }
      ],
      "name": "oracleList",
      "outputs": [
        {
          "internalType": "address",
          "name": "",
          "type": "address"
        }
      ],
      "stateMutability": "view",
      "type": "function"
    },
    {
      "inputs": [],
      "name": "oraclePayment",
      "outputs": [
        {
          "internalType": "uint256",
          "name": "",
          "type": "uint256"
        }
      ],
      "stateMutability": "view",
      "type": "function"
    },
    {
      "inputs": [],
      "name": "owner",
      "outputs": [
        {
          "internalType": "address",
          "name": "",
          "type": "address"
        }
      ],
      "stateMutability": "view",
      "type": "function"
    },
    {
      "inputs": [],
      "name": "pause",
      "outputs": [],
      "stateMutability": "nonpayable",
      "type": "function"
    },
    {
      "inputs": [],
      "name": "paused",
      "outputs": [
        {
          "internalType": "bool",
          "name": "",
          "type": "bool"
        }
      ],
      "stateMutability": "view",
      "type": "function"
    },
    {
      "inputs": [
        {
          "internalType": "address",
          "name": "_proposedOwner",
          "type": "address"
        }
      ],
      "name": "proposeOwner",
      "outputs": [],
      "stateMutability": "nonpayable",
      "type": "function"
    },
    {
      "inputs": [],
      "name": "proposedOwner",
      "outputs": [
        {
          "internalType": "address",
          "name": "",
          "type": "address"
        }
      ],
      "stateMutability": "view",
      "type": "function"
    },
    {
      "inputs": [],
      "name": "quoter",
      "outputs": [
        {
          "internalType": "contract IQuoter",
          "name": "",
          "type": "address"
        }
      ],
      "stateMutability": "view",
      "type": "function"
    },
    {
      "inputs": [],
      "name": "reIndexAndReweight",
      "outputs": [],
      "stateMutability": "nonpayable",
      "type": "function"
    },
    {
      "inputs": [
        {
          "internalType": "uint256",
          "name": "amountIn",
          "type": "uint256"
        },
        {
          "internalType": "address",
          "name": "_tokenOut",
          "type": "address"
        },
        {
          "internalType": "uint256",
          "name": "_tokenOutSwapVersion",
          "type": "uint256"
        }
      ],
      "name": "redemption",
      "outputs": [],
      "stateMutability": "nonpayable",
      "type": "function"
    },
    {
      "inputs": [],
      "name": "renounceOwnership",
      "outputs": [],
      "stateMutability": "nonpayable",
      "type": "function"
    },
    {
      "inputs": [],
      "name": "requestAssetsData",
      "outputs": [
        {
          "internalType": "bytes32",
          "name": "",
          "type": "bytes32"
        }
      ],
      "stateMutability": "nonpayable",
      "type": "function"
    },
    {
      "inputs": [
        {
          "internalType": "uint8",
          "name": "_newFee",
          "type": "uint8"
        }
      ],
      "name": "setFeeRate",
      "outputs": [],
      "stateMutability": "nonpayable",
      "type": "function"
    },
    {
      "inputs": [
        {
          "internalType": "string",
          "name": "_beforeAddress",
          "type": "string"
        },
        {
          "internalType": "string",
          "name": "_afterAddress",
          "type": "string"
        }
      ],
      "name": "setUrl",
      "outputs": [],
      "stateMutability": "nonpayable",
      "type": "function"
    },
    {
      "inputs": [],
      "name": "supplyCeiling",
      "outputs": [
        {
          "internalType": "uint256",
          "name": "",
          "type": "uint256"
        }
      ],
      "stateMutability": "view",
      "type": "function"
    },
    {
      "inputs": [],
      "name": "swapRouterV2",
      "outputs": [
        {
          "internalType": "contract IUniswapV2Router02",
          "name": "",
          "type": "address"
        }
      ],
      "stateMutability": "view",
      "type": "function"
    },
    {
      "inputs": [],
      "name": "swapRouterV3",
      "outputs": [
        {
          "internalType": "contract ISwapRouter",
          "name": "",
          "type": "address"
        }
      ],
      "stateMutability": "view",
      "type": "function"
    },
    {
      "inputs": [
        {
          "internalType": "address",
          "name": "",
          "type": "address"
        }
      ],
      "name": "tokenCurrentListIndex",
      "outputs": [
        {
          "internalType": "uint256",
          "name": "",
          "type": "uint256"
        }
      ],
      "stateMutability": "view",
      "type": "function"
    },
    {
      "inputs": [
        {
          "internalType": "address",
          "name": "",
          "type": "address"
        }
      ],
      "name": "tokenMarketShare",
      "outputs": [
        {
          "internalType": "uint256",
          "name": "",
          "type": "uint256"
        }
      ],
      "stateMutability": "view",
      "type": "function"
    },
    {
      "inputs": [
        {
          "internalType": "address",
          "name": "",
          "type": "address"
        }
      ],
      "name": "tokenOracleListIndex",
      "outputs": [
        {
          "internalType": "uint256",
          "name": "",
          "type": "uint256"
        }
      ],
      "stateMutability": "view",
      "type": "function"
    },
    {
      "inputs": [
        {
          "internalType": "address",
          "name": "",
          "type": "address"
        }
      ],
      "name": "tokenSwapVersion",
      "outputs": [
        {
          "internalType": "uint256",
          "name": "",
          "type": "uint256"
        }
      ],
      "stateMutability": "view",
      "type": "function"
    },
    {
      "inputs": [],
      "name": "totalCurrentList",
      "outputs": [
        {
          "internalType": "uint256",
          "name": "",
          "type": "uint256"
        }
      ],
      "stateMutability": "view",
      "type": "function"
    },
    {
      "inputs": [],
      "name": "totalOracleList",
      "outputs": [
        {
          "internalType": "uint256",
          "name": "",
          "type": "uint256"
        }
      ],
      "stateMutability": "view",
      "type": "function"
    },
    {
      "inputs": [
        {
          "internalType": "address",
          "name": "newOwner",
          "type": "address"
        }
      ],
      "name": "transferOwnership",
      "outputs": [],
      "stateMutability": "nonpayable",
      "type": "function"
    },
    {
      "inputs": [],
      "name": "unpause",
      "outputs": [],
      "stateMutability": "nonpayable",
      "type": "function"
    },
    {
      "inputs": [],
      "name": "weth",
      "outputs": [
        {
          "internalType": "contract IWETH",
          "name": "",
          "type": "address"
        }
      ],
      "stateMutability": "view",
      "type": "function"
    },
    {
      "stateMutability": "payable",
      "type": "receive"
    }
  ],
  "bytecode": {
    "object": "0x608060405234801561001057600080fd5b5061514c806100206000396000f3fe60806040526004361061031e5760003560e01c80638da5cb5b116101ab578063b5ed298a116100f7578063d153b60c11610095578063e267078a1161006f578063e267078a14610937578063e7d015f214610957578063f2fde38b14610977578063fcaae87b1461099757600080fd5b8063d153b60c146108d4578063d90bc211146108f4578063ddca3f431461092157600080fd5b8063c01bc982116100d1578063c01bc98214610858578063c6bbd5a714610888578063c8599ded146108a8578063c8f33c91146108be57600080fd5b8063b5ed298a146107f8578063b631e80b14610818578063bf938db81461083857600080fd5b8063a2ab905d11610164578063a8b54bd41161013e578063a8b54bd414610782578063abdd5f3f14610798578063b3951b67146107b8578063b3f00674146107d857600080fd5b8063a2ab905d14610738578063a73e1cbf1461074d578063a8509fd81461076d57600080fd5b80638da5cb5b14610656578063914f0cc614610674578063978bbdb9146106a15780639932ba4c146106cd5780639eeb1d50146107035780639f8e67bf1461071857600080fd5b8063372d4c551161026a5780635c975abb11610223578063744fbc7a116101fd578063744fbc7a146105df5780637ca58c55146105ff5780638456cb59146106145780638c88c10c1461062957600080fd5b80635c975abb1461058657806368e0d4e1146105aa578063715018a6146105ca57600080fd5b8063372d4c55146104e85780633f4ba83a146104fb5780633fc8cef3146105105780635177942a1461053057806353fd433214610550578063547256451461056657600080fd5b8063184a732f116102d75780632b52684d116102b15780632b52684d1461047a5780632b9522e0146104905780632fecd589146104b257806336aab86c146104c857600080fd5b8063184a732f1461040e5780631d5f45f514610424578063239aad0d1461044457600080fd5b8063011ced5f1461032a57806302e040151461035357806307546172146103735780630c02e130146103ab5780630e329357146103c157806313cb1f83146103ee57600080fd5b3661032557005b600080fd5b34801561033657600080fd5b5061034060d35481565b6040519081526020015b60405180910390f35b34801561035f57600080fd5b5061034061036e3660046149c1565b6109c4565b34801561037f57600080fd5b5060d854610393906001600160a01b031681565b6040516001600160a01b03909116815260200161034a565b3480156103b757600080fd5b5061034060df5481565b3480156103cd57600080fd5b506103e16103dc366004614936565b610ae7565b60405161034a9190614b89565b3480156103fa57600080fd5b50610340610409366004614619565b610b14565b34801561041a57600080fd5b5061034060d55481565b34801561043057600080fd5b5060ea54610393906001600160a01b031681565b34801561045057600080fd5b5061039361045f36600461498f565b60e3602052600090815260409020546001600160a01b031681565b34801561048657600080fd5b5061034060da5481565b34801561049c57600080fd5b506104b06104ab3660046149c1565b610c68565b005b3480156104be57600080fd5b5061034060d45481565b3480156104d457600080fd5b506104b06104e33660046148a5565b611248565b6104b06104f636600461498f565b611532565b34801561050757600080fd5b506104b06119ca565b34801561051c57600080fd5b5060ed54610393906001600160a01b031681565b34801561053c57600080fd5b506104b061054b3660046149f9565b6119dc565b34801561055c57600080fd5b5061034060e25481565b34801561057257600080fd5b506104b06105813660046144e1565b611b1c565b34801561059257600080fd5b50609e5460ff165b604051901515815260200161034a565b3480156105b657600080fd5b5060ec54610393906001600160a01b031681565b3480156105d657600080fd5b506104b0611d95565b3480156105eb57600080fd5b5060eb54610393906001600160a01b031681565b34801561060b57600080fd5b50610340611da7565b34801561062057600080fd5b506104b0612042565b34801561063557600080fd5b506103406106443660046144a7565b60e56020526000908152604090205481565b34801561066257600080fd5b506039546001600160a01b0316610393565b34801561068057600080fd5b5061034061068f3660046144a7565b60e66020526000908152604090205481565b3480156106ad57600080fd5b5060d2546106bb9060ff1681565b60405160ff909116815260200161034a565b3480156106d957600080fd5b506103936106e836600461498f565b60e4602052600090815260409020546001600160a01b031681565b34801561070f57600080fd5b506103e1612052565b34801561072457600080fd5b5060d754610393906001600160a01b031681565b34801561074457600080fd5b506104b06120e0565b34801561075957600080fd5b506104b0610768366004614936565b6122c4565b34801561077957600080fd5b506103406122f8565b34801561078e57600080fd5b5061034060de5481565b3480156107a457600080fd5b506104b06107b336600461465f565b6123f3565b3480156107c457600080fd5b506103406107d33660046149c1565b6127e6565b3480156107e457600080fd5b5060d654610393906001600160a01b031681565b34801561080457600080fd5b506104b06108133660046144a7565b6129ac565b34801561082457600080fd5b5060e954610393906001600160a01b031681565b34801561084457600080fd5b506103406108533660046145a8565b6129fc565b34801561086457600080fd5b5061059a6108733660046144a7565b60db6020526000908152604090205460ff1681565b34801561089457600080fd5b5060ee54610393906001600160a01b031681565b3480156108b457600080fd5b5061034060e15481565b3480156108ca57600080fd5b5061034060e05481565b3480156108e057600080fd5b50606b54610393906001600160a01b031681565b34801561090057600080fd5b5061034061090f3660046144a7565b60e86020526000908152604090205481565b34801561092d57600080fd5b5061034060d15481565b34801561094357600080fd5b506104b0610952366004614694565b612ab5565b34801561096357600080fd5b5060d054610393906001600160a01b031681565b34801561098357600080fd5b506104b06109923660046144a7565b612ce9565b3480156109a357600080fd5b506103406109b23660046144a7565b60e76020526000908152604090205481565b6000806109cf6122f8565b9050600060d060009054906101000a90046001600160a01b03166001600160a01b03166318160ddd6040518163ffffffff1660e01b815260040160206040518083038186803b158015610a2157600080fd5b505afa158015610a35573d6000803e3d6000fd5b505050506040513d601f19601f82011682018060405250810190610a5991906149a8565b610a6b87670de0b6b3a7640000614ecd565b610a759190614d9f565b90506000670de0b6b3a7640000610a8c8484614ecd565b610a969190614d9f565b60ed549091506001600160a01b0387811691161415610ab9579250610ae0915050565b60ed54600090610ad4906001600160a01b0316888489610b14565b9450610ae09350505050565b9392505050565b60608282604051602001610afc929190614a81565b60405160208183030381529060405290505b92915050565b6000808315610c5d578260031415610b3a57610b3386868660016129fc565b9050610c5d565b6040805160028082526060820183526000926020830190803683370190505090508681600081518110610b6f57610b6f61507d565b60200260200101906001600160a01b031690816001600160a01b0316815250508581600181518110610ba357610ba361507d565b6001600160a01b03928316602091820292909201015260eb5460405163d06ca61f60e01b8152600092919091169063d06ca61f90610be79089908690600401614c7b565b60006040518083038186803b158015610bff57600080fd5b505afa158015610c13573d6000803e3d6000fd5b505050506040513d6000823e601f3d908101601f19168201604052610c3b91908101906147ec565b905080600181518110610c5057610c5061507d565b6020026020010151925050505b90505b949350505050565b6000610c726122f8565b9050600060d060009054906101000a90046001600160a01b03166001600160a01b03166318160ddd6040518163ffffffff1660e01b815260040160206040518083038186803b158015610cc457600080fd5b505afa158015610cd8573d6000803e3d6000fd5b505050506040513d601f19601f82011682018060405250810190610cfc91906149a8565b610d0e86670de0b6b3a7640000614ecd565b610d189190614d9f565b60d054604051632770a7eb60e21b8152336004820152602481018890529192506001600160a01b031690639dc29fac90604401600060405180830381600087803b158015610d6557600080fd5b505af1158015610d79573d6000803e3d6000fd5b5050505060005b60e254811015610e8a57600081815260e460205260408082205460d05491516370a0823160e01b81526001600160a01b039283166004820152670de0b6b3a764000092909116906370a082319060240160206040518083038186803b158015610de857600080fd5b505afa158015610dfc573d6000803e3d6000fd5b505050506040513d601f19601f82011682018060405250810190610e2091906149a8565b610e2a9085614ecd565b610e349190614d9f565b600083815260e4602090815260408083205460ed546001600160a01b0391821680865260e89094529190932054939450610e75939192169084903090612e11565b50508080610e8290615000565b915050610d80565b5060ed546040516370a0823160e01b81523060048201526000916001600160a01b0316906370a082319060240160206040518083038186803b158015610ecf57600080fd5b505afa158015610ee3573d6000803e3d6000fd5b505050506040513d601f19601f82011682018060405250810190610f0791906149a8565b60d25490915060009061271090610f219060ff1684614ecd565b610f2b9190614d9f565b60ed549091506001600160a01b03878116911614156110e15760ed54604051632e1a7d4d60e01b8152600481018490526001600160a01b0390911690632e1a7d4d90602401600060405180830381600087803b158015610f8a57600080fd5b505af1158015610f9e573d6000803e3d6000fd5b505050506000610fb66039546001600160a01b031690565b6001600160a01b03168260405160006040518083038185875af1925050503d8060008114611000576040519150601f19603f3d011682016040523d82523d6000602084013e611005565b606091505b505090508061102f5760405162461bcd60e51b815260040161102690614b9c565b60405180910390fd5b60003361103c8486614f64565b604051600081818185875af1925050503d8060008114611078576040519150601f19603f3d011682016040523d82523d6000602084013e61107d565b606091505b50509050806110da5760405162461bcd60e51b815260206004820152602360248201527f7472616e73666572206574682066656520746f207468652075736572206661696044820152621b195960ea1b6064820152608401611026565b50506111e8565b60ed54604051632e1a7d4d60e01b8152600481018390526001600160a01b0390911690632e1a7d4d90602401600060405180830381600087803b15801561112757600080fd5b505af115801561113b573d6000803e3d6000fd5b5050505060006111536039546001600160a01b031690565b6001600160a01b03168260405160006040518083038185875af1925050503d806000811461119d576040519150601f19603f3d011682016040523d82523d6000602084013e6111a2565b606091505b50509050806111c35760405162461bcd60e51b815260040161102690614b9c565b60ed546111e5906001600160a01b0316886111de8587614f64565b338a612ee9565b50505b6001600160a01b038616337f4f808f68134f8b72b842a276c2b37b03415d4992c65a94fcee50d33201915b998961121f8587614f64565b60408051928352602083019190915242908201526060015b60405180910390a350505050505050565b60008481526005602052604090205484906001600160a01b031633146112c15760405162461bcd60e51b815260206004820152602860248201527f536f75726365206d75737420626520746865206f7261636c65206f6620746865604482015267081c995c5d595cdd60c21b6064820152608401611026565b60008181526005602052604080822080546001600160a01b03191690555182917f7cc135e0cebb02c3480ae5d74d377283180a2601f8f644edf7987b009316c63a91a283838360005b8351811015611511578381815181106113255761132561507d565b602002602001015160e3600083815260200190815260200160002060006101000a8154816001600160a01b0302191690836001600160a01b031602179055508060e5600086848151811061137b5761137b61507d565b60200260200101516001600160a01b03166001600160a01b03168152602001908152602001600020819055508281815181106113b9576113b961507d565b602002602001015160e760008684815181106113d7576113d761507d565b60200260200101516001600160a01b03166001600160a01b03168152602001908152602001600020819055508181815181106114155761141561507d565b602002602001015160e860008684815181106114335761143361507d565b60200260200101516001600160a01b03166001600160a01b031681526020019081526020016000208190555060e254600014156114ff5783818151811061147c5761147c61507d565b602002602001015160e4600083815260200190815260200160002060006101000a8154816001600160a01b0302191690836001600160a01b031602179055508060e660008684815181106114d2576114d261507d565b60200260200101516001600160a01b03166001600160a01b03168152602001908152602001600020819055505b8061150981615000565b91505061130a565b50825160e15560e25461152457825160e2555b50504260e055505050505050565b60d254600090612710906115499060ff1684614ecd565b6115539190614d9f565b905060006115618284614d23565b9050803410156115b35760405162461bcd60e51b815260206004820152601a60248201527f6c6f776572207468616e20726571756972656420616d6f756e740000000000006044820152606401611026565b60006115c76039546001600160a01b031690565b6001600160a01b031660d15460405160006040518083038185875af1925050503d8060008114611613576040519150601f19603f3d011682016040523d82523d6000602084013e611618565b606091505b50509050806116395760405162461bcd60e51b815260040161102690614b9c565b60ed60009054906101000a90046001600160a01b03166001600160a01b031663d0e30db0856040518263ffffffff1660e01b81526004016000604051808303818588803b15801561168957600080fd5b505af115801561169d573d6000803e3d6000fd5b505060ed5460d05460405163a9059cbb60e01b81526001600160a01b039182166004820152602481018a90529116935063a9059cbb92506044019050602060405180830381600087803b1580156116f357600080fd5b505af1158015611707573d6000803e3d6000fd5b505050506040513d601f19601f8201168201806040525081019061172b9190614883565b5060006117366122f8565b90508460005b60e2548110156117df5760ed54600082815260e460209081526040808320546001600160a01b0390811680855260e79093529220546117cc93929092169168056bc75e2d631000009061178f9087614ecd565b6117999190614d9f565b60d054600086815260e460209081526040808320546001600160a01b03908116845260e890925290912054911690612e11565b50806117d781615000565b91505061173c565b5060008060d060009054906101000a90046001600160a01b03166001600160a01b03166318160ddd6040518163ffffffff1660e01b815260040160206040518083038186803b15801561183157600080fd5b505afa158015611845573d6000803e3d6000fd5b505050506040513d601f19601f8201168201806040525081019061186991906149a8565b111561191257828260d060009054906101000a90046001600160a01b03166001600160a01b03166318160ddd6040518163ffffffff1660e01b815260040160206040518083038186803b1580156118bf57600080fd5b505afa1580156118d3573d6000803e3d6000fd5b505050506040513d601f19601f820116820180604052508101906118f791906149a8565b6119019190614ecd565b61190b9190614d9f565b9050611915565b50805b60d0546040516340c10f1960e01b8152336004820152602481018390526001600160a01b03909116906340c10f1990604401600060405180830381600087803b15801561196157600080fd5b505af1158015611975573d6000803e3d6000fd5b505060ed54604080518b81526020810186905242918101919091526001600160a01b0390911692503391507f4fee1c514ee0e252e3a0babfa8b5030fb89be7ea2b38df9a7fbbf788e54f3d9190606001611237565b6119d2613201565b6119da61325b565b565b6119e4613201565b600060d354426119f49190614f64565b9050600c603c611a048184614d9f565b611a0e9190614d9f565b11611a815760405162461bcd60e51b815260206004820152603960248201527f596f752073686f756c642077616974206174206c6561737420313220686f757260448201527f7320616674657220746865206c617465737420757064617465000000000000006064820152608401611026565b60648260ff1611158015611a99575060018260ff1610155b611b015760405162461bcd60e51b815260206004820152603360248201527f546865206e65774665652073686f756c64206265206265747765656e203120616044820152726e64203130302028302e303125202d2031252960681b6064820152608401611026565b5060d2805460ff191660ff929092169190911790554260d355565b600654610100900460ff1615808015611b3c5750600654600160ff909116105b80611b565750303b158015611b56575060065460ff166001145b611bb95760405162461bcd60e51b815260206004820152602e60248201527f496e697469616c697a61626c653a20636f6e747261637420697320616c72656160448201526d191e481a5b9a5d1a585b1a5e995960921b6064820152608401611026565b6006805460ff191660011790558015611bdc576006805461ff0019166101001790555b611be46132ad565b611bec6132dc565b60d080546001600160a01b038d166001600160a01b0319909116179055611c308a600280546001600160a01b039092166001600160a01b0319909216919091179055565b600380546001600160a01b0319166001600160a01b038b1617905560de889055600a611c65670de0b6b3a76400006001614ecd565b611c6f9190614d9f565b60df5560ed80546001600160a01b03808a166001600160a01b03199283161790925560ee805489841690831617905560e9805488841690831617905560ea805487841690831617905560eb805486841690831617905560ec80549285169290911691909117905560d2805460ff1916600a1790554260d3556040805160608101909152602a8082526150bf60208301398051611d139160dc91602090910190614220565b506040518060600160405280602e81526020016150e9602e91398051611d419160dd91602090910190614220565b508015611d88576006805461ff0019169055604051600181527f7f26b83ff96e1f2b6a682f133852f6798a09c465da95921460cefb38474024989060200160405180910390a15b5050505050505050505050565b611d9d613201565b6119da600061330b565b600080611ec860dc8054611dba90614fcb565b80601f0160208091040260200160405190810160405280929190818152602001828054611de690614fcb565b8015611e335780601f10611e0857610100808354040283529160200191611e33565b820191906000526020600020905b815481529060010190602001808311611e1657829003601f168201915b505050505060dd8054611e4590614fcb565b80601f0160208091040260200160405190810160405280929190818152602001828054611e7190614fcb565b8015611ebe5780601f10611e9357610100808354040283529160200191611ebe565b820191906000526020600020905b815481529060010190602001808311611ea157829003601f168201915b5050505050610ae7565b90506000611ee060de54306336aab86c60e01b61335d565b60408051808201909152600381526219d95d60ea1b6020820152909150611f0990829084613379565b611f6160405180604001604052806005815260200164706174683160d81b8152506040518060400160405280600e81526020016d726573756c74732c746f6b656e7360901b815250836133799092919063ffffffff16565b611fbf604051806040016040528060058152602001643830ba341960d91b81525060405180604001604052806014815260200173726573756c74732c6d61726b657453686172657360601b815250836133799092919063ffffffff16565b61201d60405180604001604052806005815260200164706174683360d81b81525060405180604001604052806014815260200173726573756c74732c7377617056657273696f6e7360601b815250836133799092919063ffffffff16565b61203b6120326003546001600160a01b031690565b8260df54613397565b9250505090565b61204a613201565b6119da61342a565b60d9805461205f90614fcb565b80601f016020809104026020016040519081016040528092919081815260200182805461208b90614fcb565b80156120d85780601f106120ad576101008083540402835291602001916120d8565b820191906000526020600020905b8154815290600101906020018083116120bb57829003601f168201915b505050505081565b6120e8613201565b60005b60e25481101561219b57600081815260e46020526040908190205460ed5491516370a0823160e01b8152306004820152612188926001600160a01b0392831692169082906370a082319060240160206040518083038186803b15801561215057600080fd5b505afa158015612164573d6000803e3d6000fd5b505050506040513d601f19601f8201168201806040525081019061179991906149a8565b508061219381615000565b9150506120eb565b5060ed546040516370a0823160e01b81523060048201526000916001600160a01b0316906370a082319060240160206040518083038186803b1580156121e057600080fd5b505afa1580156121f4573d6000803e3d6000fd5b505050506040513d601f19601f8201168201806040525081019061221891906149a8565b905060005b60e1548110156122c05760ed54600082815260e360209081526040808320546001600160a01b0390811680855260e79093529220546122ad93929092169168056bc75e2d63100000906122709087614ecd565b61227a9190614d9f565b60d054600086815260e360209081526040808320546001600160a01b03908116845260e890925290912054911690612e11565b50806122b881615000565b91505061221d565b5050565b6122cc613201565b81516122df9060dc906020850190614220565b5080516122f39060dd906020840190614220565b505050565b60008060005b60e2548110156123ed57600081815260e460205260408082205460ed5460d05492516370a0823160e01b81526001600160a01b0393841660048201526123cb93928316929091169082906370a082319060240160206040518083038186803b15801561236957600080fd5b505afa15801561237d573d6000803e3d6000fd5b505050506040513d601f19601f820116820180604052508101906123a191906149a8565b600086815260e460209081526040808320546001600160a01b0316835260e8909152902054610b14565b90506123d78184614d23565b92505080806123e590615000565b9150506122fe565b50919050565b60d2546000906127109061240a9060ff1685614ecd565b6124149190614d9f565b905060006124228285614d23565b9050600061242e6122f8565b60d0546040516323b872dd60e01b81523360048201526001600160a01b039182166024820152604481018890529192508716906323b872dd90606401602060405180830381600087803b15801561248457600080fd5b505af1158015612498573d6000803e3d6000fd5b505050506040513d601f19601f820116820180604052508101906124bc9190614883565b50856001600160a01b03166323b872dd336124df6039546001600160a01b031690565b6040516001600160e01b031960e085901b1681526001600160a01b0392831660048201529116602482015260448101869052606401602060405180830381600087803b15801561252e57600080fd5b505af1158015612542573d6000803e3d6000fd5b505050506040513d601f19601f820116820180604052508101906125669190614883565b5060ed5460d05460009161258b9189916001600160a01b03908116918a911689612e11565b905060005b60e2548110156125f65760ed54600082815260e460209081526040808320546001600160a01b0390811680855260e79093529220546125e393929092169168056bc75e2d631000009061178f9087614ecd565b50806125ee81615000565b915050612590565b5060008060d060009054906101000a90046001600160a01b03166001600160a01b03166318160ddd6040518163ffffffff1660e01b815260040160206040518083038186803b15801561264857600080fd5b505afa15801561265c573d6000803e3d6000fd5b505050506040513d601f19601f8201168201806040525081019061268091906149a8565b111561272957828260d060009054906101000a90046001600160a01b03166001600160a01b03166318160ddd6040518163ffffffff1660e01b815260040160206040518083038186803b1580156126d657600080fd5b505afa1580156126ea573d6000803e3d6000fd5b505050506040513d601f19601f8201168201806040525081019061270e91906149a8565b6127189190614ecd565b6127229190614d9f565b905061272c565b50805b60d0546040516340c10f1960e01b8152336004820152602481018390526001600160a01b03909116906340c10f1990604401600060405180830381600087803b15801561277857600080fd5b505af115801561278c573d6000803e3d6000fd5b5050604080518a815260208101859052428183015290516001600160a01b038c1693503392507f4fee1c514ee0e252e3a0babfa8b5030fb89be7ea2b38df9a7fbbf788e54f3d919181900360600190a35050505050505050565b60ed546000906001600160a01b03848116911614156128c65760006128096122f8565b9050600060d060009054906101000a90046001600160a01b03166001600160a01b03166318160ddd6040518163ffffffff1660e01b815260040160206040518083038186803b15801561285b57600080fd5b505afa15801561286f573d6000803e3d6000fd5b505050506040513d601f19601f8201168201806040525081019061289391906149a8565b9050600081156128b957826128a88884614ecd565b6128b29190614d9f565b90506128bc565b50855b9250610ae0915050565b60ed546000906128e29085906001600160a01b03168786610b14565b905060006128ee6122f8565b9050600060d060009054906101000a90046001600160a01b03166001600160a01b03166318160ddd6040518163ffffffff1660e01b815260040160206040518083038186803b15801561294057600080fd5b505afa158015612954573d6000803e3d6000fd5b505050506040513d601f19601f8201168201806040525081019061297891906149a8565b90506000811561299e578261298d8584614ecd565b6129979190614d9f565b90506129a1565b50825b9350610ae092505050565b6129b4613201565b6001600160a01b0381166129da5760405162461bcd60e51b815260040161102690614be0565b606b80546001600160a01b0319166001600160a01b0392909216919091179055565b60ea54604051630b4c774160e11b81526001600160a01b0386811660048301528581166024830152610bb860448301526000928392911690631698ee829060640160206040518083038186803b158015612a5557600080fd5b505afa158015612a69573d6000803e3d6000fd5b505050506040513d601f19601f82011682018060405250810190612a8d91906144c4565b90506000612a9b8285613467565b509050612aaa818689896136bd565b979650505050505050565b612abd613201565b82828260005b8351811015612cca57838181518110612ade57612ade61507d565b602002602001015160e3600083815260200190815260200160002060006101000a8154816001600160a01b0302191690836001600160a01b031602179055508060e56000868481518110612b3457612b3461507d565b60200260200101516001600160a01b03166001600160a01b0316815260200190815260200160002081905550828181518110612b7257612b7261507d565b602002602001015160e76000868481518110612b9057612b9061507d565b60200260200101516001600160a01b03166001600160a01b0316815260200190815260200160002081905550818181518110612bce57612bce61507d565b602002602001015160e86000868481518110612bec57612bec61507d565b60200260200101516001600160a01b03166001600160a01b031681526020019081526020016000208190555060e25460001415612cb857838181518110612c3557612c3561507d565b602002602001015160e4600083815260200190815260200160002060006101000a8154816001600160a01b0302191690836001600160a01b031602179055508060e66000868481518110612c8b57612c8b61507d565b60200260200101516001600160a01b03166001600160a01b03168152602001908152602001600020819055505b80612cc281615000565b915050612ac3565b50825160e15560e254612cdd57825160e2555b50504260e05550505050565b6001600160a01b038116612d0f5760405162461bcd60e51b815260040161102690614be0565b606b546001600160a01b03828116911614612d875760405162461bcd60e51b815260206004820152603260248201527f50726f706f7361626c654f776e61626c653a206e6577206f776e6572206973206044820152713737ba10383937b837b9b2b21037bbb732b960711b6064820152608401611026565b6001600160a01b0381163314612e055760405162461bcd60e51b815260206004820152603a60248201527f50726f706f7361626c654f776e61626c653a20746869732063616c6c206d757360448201527f74206265206d61646520627920746865206e6577206f776e65720000000000006064820152608401611026565b612e0e8161330b565b50565b600080612e2087878786610b14565b905060008115612eca5760d0546040516305f370ed60e41b81526001600160a01b038a8116600483015289811660248301526044820189905287811660648301526084820187905290911690635f370ed09060a401602060405180830381600087803b158015612e8f57600080fd5b505af1158015612ea3573d6000803e3d6000fd5b505050506040513d601f19601f82011682018060405250810190612ec791906149a8565b90505b8360031415612edc579150612ee09050565b5090505b95945050505050565b6000816003141561308e5760e95460405163095ea7b360e01b81526001600160a01b039182166004820152602481018690529087169063095ea7b390604401602060405180830381600087803b158015612f4257600080fd5b505af1158015612f56573d6000803e3d6000fd5b505050506040513d601f19601f82011682018060405250810190612f7a9190614883565b5060408051610100810182526001600160a01b03888116825287811660208301908152610bb883850190815287831660608501908152426080860190815260a086018b8152600060c0880181815260e0890182815260e9549a5163414bf38960e01b81528a518a166004820152975189166024890152955162ffffff166044880152935187166064870152915160848601525160a4850152905160c48401529051831660e483015292939091169063414bf3899061010401602060405180830381600087803b15801561304c57600080fd5b505af1158015613060573d6000803e3d6000fd5b505050506040513d601f19601f8201168201806040525081019061308491906149a8565b9250612ee0915050565b60408051600280825260608201835260009260208301908036833701905050905086816000815181106130c3576130c361507d565b60200260200101906001600160a01b031690816001600160a01b03168152505085816001815181106130f7576130f761507d565b6001600160a01b03928316602091820292909201015260eb5460405163095ea7b360e01b81529082166004820152602481018790529088169063095ea7b390604401602060405180830381600087803b15801561315357600080fd5b505af1158015613167573d6000803e3d6000fd5b505050506040513d601f19601f8201168201806040525081019061318b9190614883565b5060eb54604051635c11d79560e01b81526001600160a01b0390911690635c11d795906131c590889060009086908a904290600401614c94565b600060405180830381600087803b1580156131df57600080fd5b505af11580156131f3573d6000803e3d6000fd5b505050506000915050612ee0565b6039546001600160a01b031633146119da5760405162461bcd60e51b815260206004820181905260248201527f4f776e61626c653a2063616c6c6572206973206e6f7420746865206f776e65726044820152606401611026565b6132636137c7565b609e805460ff191690557f5db9ee0a495bf2e6ff9c91a7834c1ba4fdd244a5e8aa4e537bd38aeae4b073aa335b6040516001600160a01b03909116815260200160405180910390a1565b600654610100900460ff166132d45760405162461bcd60e51b815260040161102690614c30565b6119da613810565b600654610100900460ff166133035760405162461bcd60e51b815260040161102690614c30565b6119da613840565b603980546001600160a01b038381166001600160a01b0319831681179093556040519116919082907f8be0079c531659141344cd1fd0a4f28419497f9722a3daafe3b4186f6b6457e090600090a35050565b6133656142a4565b61336d6142a4565b612ee081868686613873565b608083015161338890836138b0565b60808301516122f390826138b0565b6004546000906133a8816001614d23565b600455835160408086015160808701515191516000936320214ca360e11b936133e09386938493923092918a91600191602401614ab0565b60408051601f198184030181529190526020810180516001600160e01b03166001600160e01b0319909316929092179091529050613420868386846138c7565b9695505050505050565b613432613a34565b609e805460ff191660011790557f62e78cea01bee320cd4e420270b5ea74000d11b0c9f74754ebdbfc544b05a2586132903390565b60008063ffffffff83166134a25760405162461bcd60e51b8152602060048201526002602482015261042560f41b6044820152606401611026565b60408051600280825260608201835260009260208301908036833701905050905083816000815181106134d7576134d761507d565b602002602001019063ffffffff16908163ffffffff16815250506000816001815181106135065761350661507d565b602002602001019063ffffffff16908163ffffffff1681525050600080866001600160a01b031663883bdbfd846040518263ffffffff1660e01b815260040161354f9190614b3f565b60006040518083038186803b15801561356757600080fd5b505afa15801561357b573d6000803e3d6000fd5b505050506040513d6000823e601f3d908101601f191682016040526135a3919081019061471b565b915091506000826000815181106135bc576135bc61507d565b6020026020010151836001815181106135d7576135d761507d565b60200260200101516135e99190614eec565b90506000826000815181106136005761360061507d565b60200260200101518360018151811061361b5761361b61507d565b602002602001015161362d9190614f3c565b905061363f63ffffffff891683614d3b565b965060008260060b128015613665575061365f63ffffffff89168361501b565b60060b15155b15613678578661367481614fa7565b9750505b60006136916001600160a01b0363ffffffff8b16614e9e565b90506136ae640100000000600160c01b03602084901b1682614d79565b96505050505050509250929050565b6000806136c986613a7a565b90506001600160801b036001600160a01b0382161161374f5760006136f76001600160a01b03831680614ecd565b9050836001600160a01b0316856001600160a01b03161061372f5761372a600160c01b876001600160801b031683613d9a565b613747565b61374781876001600160801b0316600160c01b613d9a565b9250506137be565b600061376e6001600160a01b0383168068010000000000000000613d9a565b9050836001600160a01b0316856001600160a01b0316106137a6576137a1600160801b876001600160801b031683613d9a565b612aaa565b612aaa81876001600160801b0316600160801b613d9a565b50949350505050565b609e5460ff166119da5760405162461bcd60e51b815260206004820152601460248201527314185d5cd8589b194e881b9bdd081c185d5cd95960621b6044820152606401611026565b600654610100900460ff166138375760405162461bcd60e51b815260040161102690614c30565b6119da3361330b565b600654610100900460ff166138675760405162461bcd60e51b815260040161102690614c30565b609e805460ff19169055565b61387b6142a4565b61388b8560800151610100613e4d565b50509183526001600160a01b031660208301526001600160e01b031916604082015290565b6138bd8260038351613eb2565b6122f38282613fbf565b6040516bffffffffffffffffffffffff193060601b1660208201526034810184905260009060540160408051808303601f1901815282825280516020918201206000818152600590925291812080546001600160a01b0319166001600160a01b038a1617905590925082917fb5e6e01e79f91267dc17b4e6314d5d4d03593d2ceee0fbb452b750bd70ea5af99190a2600254604051630200057560e51b81526001600160a01b0390911690634000aea09061398a90889087908790600401614b18565b602060405180830381600087803b1580156139a457600080fd5b505af11580156139b8573d6000803e3d6000fd5b505050506040513d601f19601f820116820180604052508101906139dc9190614883565b610c605760405162461bcd60e51b815260206004820152602360248201527f756e61626c6520746f207472616e73666572416e6443616c6c20746f206f7261604482015262636c6560e81b6064820152608401611026565b609e5460ff16156119da5760405162461bcd60e51b815260206004820152601060248201526f14185d5cd8589b194e881c185d5cd95960821b6044820152606401611026565b60008060008360020b12613a91578260020b613a99565b8260020b6000035b9050620d89e8811115613abf576040516315e4079d60e11b815260040160405180910390fd5b600060018216613ad357600160801b613ae5565b6ffffcb933bd6fad37aa2d162d1a5940015b70ffffffffffffffffffffffffffffffffff1690506002821615613b19576ffff97272373d413259a46990580e213a0260801c5b6004821615613b38576ffff2e50f5f656932ef12357cf3c7fdcc0260801c5b6008821615613b57576fffe5caca7e10e4e61c3624eaa0941cd00260801c5b6010821615613b76576fffcb9843d60f6159c9db58835c9266440260801c5b6020821615613b95576fff973b41fa98c081472e6896dfb254c00260801c5b6040821615613bb4576fff2ea16466c96a3843ec78b326b528610260801c5b6080821615613bd3576ffe5dee046a99a2a811c461f1969c30530260801c5b610100821615613bf3576ffcbe86c7900a88aedcffc83b479aa3a40260801c5b610200821615613c13576ff987a7253ac413176f2b074cf7815e540260801c5b610400821615613c33576ff3392b0822b70005940c7a398e4b70f30260801c5b610800821615613c53576fe7159475a2c29b7443b29c7fa6e889d90260801c5b611000821615613c73576fd097f3bdfd2022b8845ad8f792aa58250260801c5b612000821615613c93576fa9f746462d870fdf8a65dc1f90e061e50260801c5b614000821615613cb3576f70d869a156d2a1b890bb3df62baf32f70260801c5b618000821615613cd3576f31be135f97d08fd981231505542fcfa60260801c5b62010000821615613cf4576f09aa508b5b7a84e1c677de54f3e99bc90260801c5b62020000821615613d14576e5d6af8dedb81196699c329225ee6040260801c5b62040000821615613d33576d2216e584f5fa1ea926041bedfe980260801c5b62080000821615613d50576b048a170391f7dc42444e8fa20260801c5b60008460020b1315613d71578060001981613d6d57613d6d615067565b0490505b640100000000810615613d85576001613d88565b60005b60ff16602082901c0192505050919050565b600080806000198587098587029250828110838203039150508060001415613dd45760008411613dc957600080fd5b508290049050610ae0565b808411613de057600080fd5b6000848688096000868103871696879004966002600389028118808a02820302808a02820302808a02820302808a02820302808a02820302808a02909103029181900381900460010186841190950394909402919094039290920491909117919091029150509392505050565b604080518082019091526060815260006020820152613e6d60208361503d565b15613e9557613e7d60208361503d565b613e88906020614f64565b613e929083614d23565b91505b506020828101829052604080518085526000815290920101905290565b6017816001600160401b031611613edc57613ed68360e0600585901b168317613fe6565b50505050565b60ff816001600160401b031611613f1857613f02836018611fe0600586901b1617613fe6565b50613ed6836001600160401b038316600161400b565b61ffff816001600160401b031611613f5557613f3f836019611fe0600586901b1617613fe6565b50613ed6836001600160401b038316600261400b565b63ffffffff816001600160401b031611613f9457613f7e83601a611fe0600586901b1617613fe6565b50613ed6836001600160401b038316600461400b565b613fa983601b611fe0600586901b1617613fe6565b50613ed6836001600160401b038316600861400b565b604080518082019091526060815260006020820152610ae083846000015151848551614031565b604080518082019091526060815260006020820152610ae0838460000151518461411b565b604080518082019091526060815260006020820152610c60848560000151518585614177565b604080518082019091526060815260006020820152825182111561405457600080fd5b60208501516140638386614d23565b11156140965761409685614086876020015187866140819190614d23565b6141f8565b614091906002614ecd565b614209565b6000808651805187602083010193508088870111156140b55787860182525b505050602084015b602084106140f557805182526140d4602083614d23565b91506140e1602082614d23565b90506140ee602085614f64565b93506140bd565b51815160001960208690036101000a019081169019919091161790525083949350505050565b604080518082019091526060815260006020820152836020015183106141505761415084856020015160026140919190614ecd565b83518051602085830101848153508085141561416d576001810182525b5093949350505050565b604080518082019091526060815260006020820152602085015161419b8584614d23565b11156141af576141af856140868685614d23565b600060016141bf84610100614df6565b6141c99190614f64565b90508551838682010185831982511617815250805184870111156141ed5783860181525b509495945050505050565b6000818311156123ed575081610b0e565b81516142158383613e4d565b50613ed68382613fbf565b82805461422c90614fcb565b90600052602060002090601f01602090048101928261424e5760008555614294565b82601f1061426757805160ff1916838001178555614294565b82800160010185558215614294579182015b82811115614294578251825591602001919060010190614279565b506142a09291506142df565b5090565b6040805160a0810182526000808252602080830182905282840182905260608084018390528451808601909552845283015290608082015290565b5b808211156142a057600081556001016142e0565b600082601f83011261430557600080fd5b8135602061431a61431583614d00565b614cd0565b80838252828201915082860187848660051b890101111561433a57600080fd5b60005b85811015614362578135614350816150a9565b8452928401929084019060010161433d565b5090979650505050505050565b600082601f83011261438057600080fd5b8151602061439061431583614d00565b80838252828201915082860187848660051b89010111156143b057600080fd5b60005b858110156143625781516143c6816150a9565b845292840192908401906001016143b3565b600082601f8301126143e957600080fd5b813560206143f961431583614d00565b80838252828201915082860187848660051b890101111561441957600080fd5b60005b858110156143625781358452928401929084019060010161441c565b600082601f83011261444957600080fd5b81356001600160401b0381111561446257614462615093565b614475601f8201601f1916602001614cd0565b81815284602083860101111561448a57600080fd5b816020850160208301376000918101602001919091529392505050565b6000602082840312156144b957600080fd5b8135610ae0816150a9565b6000602082840312156144d657600080fd5b8151610ae0816150a9565b6000806000806000806000806000806101408b8d03121561450157600080fd5b8a3561450c816150a9565b995060208b013561451c816150a9565b985060408b013561452c816150a9565b975060608b0135965060808b0135614543816150a9565b955060a08b0135614553816150a9565b945060c08b0135614563816150a9565b935060e08b0135614573816150a9565b92506101008b0135614584816150a9565b91506101208b0135614595816150a9565b809150509295989b9194979a5092959850565b600080600080608085870312156145be57600080fd5b84356145c9816150a9565b935060208501356145d9816150a9565b925060408501356001600160801b03811681146145f557600080fd5b9150606085013563ffffffff8116811461460e57600080fd5b939692955090935050565b6000806000806080858703121561462f57600080fd5b843561463a816150a9565b9350602085013561464a816150a9565b93969395505050506040820135916060013590565b60008060006060848603121561467457600080fd5b833561467f816150a9565b95602085013595506040909401359392505050565b6000806000606084860312156146a957600080fd5b83356001600160401b03808211156146c057600080fd5b6146cc878388016142f4565b945060208601359150808211156146e257600080fd5b6146ee878388016143d8565b9350604086013591508082111561470457600080fd5b50614711868287016143d8565b9150509250925092565b6000806040838503121561472e57600080fd5b82516001600160401b038082111561474557600080fd5b818501915085601f83011261475957600080fd5b8151602061476961431583614d00565b8083825282820191508286018a848660051b890101111561478957600080fd5b600096505b848710156147bb5780518060060b81146147a757600080fd5b83526001969096019591830191830161478e565b50918801519196509093505050808211156147d557600080fd5b506147e28582860161436f565b9150509250929050565b600060208083850312156147ff57600080fd5b82516001600160401b0381111561481557600080fd5b8301601f8101851361482657600080fd5b805161483461431582614d00565b80828252848201915084840188868560051b870101111561485457600080fd5b600094505b83851015614877578051835260019490940193918501918501614859565b50979650505050505050565b60006020828403121561489557600080fd5b81518015158114610ae057600080fd5b600080600080608085870312156148bb57600080fd5b8435935060208501356001600160401b03808211156148d957600080fd5b6148e5888389016142f4565b945060408701359150808211156148fb57600080fd5b614907888389016143d8565b9350606087013591508082111561491d57600080fd5b5061492a878288016143d8565b91505092959194509250565b6000806040838503121561494957600080fd5b82356001600160401b038082111561496057600080fd5b61496c86838701614438565b9350602085013591508082111561498257600080fd5b506147e285828601614438565b6000602082840312156149a157600080fd5b5035919050565b6000602082840312156149ba57600080fd5b5051919050565b6000806000606084860312156149d657600080fd5b8335925060208401356149e8816150a9565b929592945050506040919091013590565b600060208284031215614a0b57600080fd5b813560ff81168114610ae057600080fd5b600081518084526020808501945080840160005b838110156141ed5781516001600160a01b031687529582019590820190600101614a30565b60008151808452614a6d816020860160208601614f7b565b601f01601f19169290920160200192915050565b60008351614a93818460208801614f7b565b835190830190614aa7818360208801614f7b565b01949350505050565b6001600160a01b0389811682526020820189905260408201889052861660608201526001600160e01b03198516608082015260a0810184905260c0810183905261010060e08201819052600090614b0983820185614a55565b9b9a5050505050505050505050565b60018060a01b0384168152826020820152606060408201526000612ee06060830184614a55565b6020808252825182820181905260009190848201906040850190845b81811015614b7d57835163ffffffff1683529284019291840191600101614b5b565b50909695505050505050565b602081526000610ae06020830184614a55565b60208082526024908201527f7472616e73666572206574682066656520746f20746865206f776e65722066616040820152631a5b195960e21b606082015260800190565b60208082526030908201527f50726f706f7361626c654f776e61626c653a206e6577206f776e65722069732060408201526f746865207a65726f206164647265737360801b606082015260800190565b6020808252602b908201527f496e697469616c697a61626c653a20636f6e7472616374206973206e6f74206960408201526a6e697469616c697a696e6760a81b606082015260800190565b828152604060208201526000610c606040830184614a1c565b85815284602082015260a060408201526000614cb360a0830186614a1c565b6001600160a01b0394909416606083015250608001529392505050565b604051601f8201601f191681016001600160401b0381118282101715614cf857614cf8615093565b604052919050565b60006001600160401b03821115614d1957614d19615093565b5060051b60200190565b60008219821115614d3657614d36615051565b500190565b60008160060b8360060b80614d5257614d52615067565b667fffffffffffff19821460001982141615614d7057614d70615051565b90059392505050565b60006001600160c01b0383811680614d9357614d93615067565b92169190910492915050565b600082614dae57614dae615067565b500490565b600181815b80851115614dee578160001904821115614dd457614dd4615051565b80851615614de157918102915b93841c9390800290614db8565b509250929050565b6000610ae08383600082614e0c57506001610b0e565b81614e1957506000610b0e565b8160018114614e2f5760028114614e3957614e55565b6001915050610b0e565b60ff841115614e4a57614e4a615051565b50506001821b610b0e565b5060208310610133831016604e8410600b8410161715614e78575081810a610b0e565b614e828383614db3565b8060001904821115614e9657614e96615051565b029392505050565b60006001600160c01b0382811684821681151582840482111615614ec457614ec4615051565b02949350505050565b6000816000190483118215151615614ee757614ee7615051565b500290565b60008160060b8360060b6000811281667fffffffffffff1901831281151615614f1757614f17615051565b81667fffffffffffff018313811615614f3257614f32615051565b5090039392505050565b60006001600160a01b0383811690831681811015614f5c57614f5c615051565b039392505050565b600082821015614f7657614f76615051565b500390565b60005b83811015614f96578181015183820152602001614f7e565b83811115613ed65750506000910152565b60008160020b627fffff19811415614fc157614fc1615051565b6000190192915050565b600181811c90821680614fdf57607f821691505b602082108114156123ed57634e487b7160e01b600052602260045260246000fd5b600060001982141561501457615014615051565b5060010190565b60008260060b8061502e5761502e615067565b808360060b0791505092915050565b60008261504c5761504c615067565b500690565b634e487b7160e01b600052601160045260246000fd5b634e487b7160e01b600052601260045260246000fd5b634e487b7160e01b600052603260045260246000fd5b634e487b7160e01b600052604160045260246000fd5b6001600160a01b0381168114612e0e57600080fdfe68747470733a2f2f6170702e6e65786c6162732e696f2f6170692f616c6c46756e64696e6752617465733f6d756c7469706c7946756e633d31382674696d65734e656746756e643d74727565266172726179733d74727565a26469706673582212205d18ee422101be19615c7e071edfb6de42e816ec3f9d3aeab8f45a29ce8c9fac64736f6c63430008070033",
    "linkReferences": {}
  },
  "methodIdentifiers": {
    "concatenation(string,string)": "0e329357",
    "currentList(uint256)": "9932ba4c",
    "estimateAmountOut(address,address,uint128,uint32)": "bf938db8",
    "externalJobId()": "a8b54bd4",
    "factoryV2()": "68e0d4e1",
    "factoryV3()": "1d5f45f5",
    "fee()": "ddca3f43",
    "feeRate()": "978bbdb9",
    "feeRatePerDayScaled()": "2fecd589",
    "feeReceiver()": "b3f00674",
    "feeTimestamp()": "184a732f",
    "fulfillAssetsData(bytes32,address[],uint256[],uint256[])": "36aab86c",
    "getAmountOut(address,address,uint256,uint256)": "13cb1f83",
    "getIssuanceAmountOut(uint256,address,uint256)": "b3951b67",
    "getPortfolioBalance()": "a8509fd8",
    "getRedemptionAmountOut(uint256,address,uint256)": "02e04015",
    "indexToken()": "e7d015f2",
    "initialize(address,address,address,bytes32,address,address,address,address,address,address)": "54725645",
    "isRestricted(address)": "c01bc982",
    "issuanceIndexTokens(address,uint256,uint256)": "abdd5f3f",
    "issuanceIndexTokensWithEth(uint256)": "372d4c55",
    "lastUpdateTime()": "c8f33c91",
    "latestFeeUpdate()": "011ced5f",
    "methodologist()": "9f8e67bf",
    "methodology()": "9eeb1d50",
    "minter()": "07546172",
    "mockFillAssetsList(address[],uint256[],uint256[])": "e267078a",
    "oracleList(uint256)": "239aad0d",
    "oraclePayment()": "0c02e130",
    "owner()": "8da5cb5b",
    "pause()": "8456cb59",
    "paused()": "5c975abb",
    "proposeOwner(address)": "b5ed298a",
    "proposedOwner()": "d153b60c",
    "quoter()": "c6bbd5a7",
    "reIndexAndReweight()": "a2ab905d",
    "redemption(uint256,address,uint256)": "2b9522e0",
    "renounceOwnership()": "715018a6",
    "requestAssetsData()": "7ca58c55",
    "setFeeRate(uint8)": "5177942a",
    "setUrl(string,string)": "a73e1cbf",
    "supplyCeiling()": "2b52684d",
    "swapRouterV2()": "744fbc7a",
    "swapRouterV3()": "b631e80b",
    "tokenCurrentListIndex(address)": "914f0cc6",
    "tokenMarketShare(address)": "fcaae87b",
    "tokenOracleListIndex(address)": "8c88c10c",
    "tokenSwapVersion(address)": "d90bc211",
    "totalCurrentList()": "53fd4332",
    "totalOracleList()": "c8599ded",
    "transferOwnership(address)": "f2fde38b",
    "unpause()": "3f4ba83a",
    "weth()": "3fc8cef3"
  },
  "id": 2
}