{"abi":[{"type":"receive","stateMutability":"payable"},{"type":"function","name":"factoryStorage","inputs":[],"outputs":[{"name":"","type":"address","internalType":"contract IndexFactoryStorage"}],"stateMutability":"view"},{"type":"function","name":"initialize","inputs":[{"name":"_factoryStorage","type":"address","internalType":"address payable"}],"outputs":[],"stateMutability":"nonpayable"},{"type":"function","name":"issuanceIndexTokens","inputs":[{"name":"_tokenIn","type":"address","internalType":"address"},{"name":"_amountIn","type":"uint256","internalType":"uint256"},{"name":"_tokenInSwapFee","type":"uint24","internalType":"uint24"}],"outputs":[],"stateMutability":"nonpayable"},{"type":"function","name":"issuanceIndexTokensWithEth","inputs":[{"name":"_inputAmount","type":"uint256","internalType":"uint256"}],"outputs":[],"stateMutability":"payable"},{"type":"function","name":"owner","inputs":[],"outputs":[{"name":"","type":"address","internalType":"address"}],"stateMutability":"view"},{"type":"function","name":"pause","inputs":[],"outputs":[],"stateMutability":"nonpayable"},{"type":"function","name":"paused","inputs":[],"outputs":[{"name":"","type":"bool","internalType":"bool"}],"stateMutability":"view"},{"type":"function","name":"proposeOwner","inputs":[{"name":"_proposedOwner","type":"address","internalType":"address"}],"outputs":[],"stateMutability":"nonpayable"},{"type":"function","name":"proposedOwner","inputs":[],"outputs":[{"name":"","type":"address","internalType":"address"}],"stateMutability":"view"},{"type":"function","name":"redemption","inputs":[{"name":"amountIn","type":"uint256","internalType":"uint256"},{"name":"_tokenOut","type":"address","internalType":"address"},{"name":"_tokenOutSwapFee","type":"uint24","internalType":"uint24"}],"outputs":[{"name":"","type":"uint256","internalType":"uint256"}],"stateMutability":"nonpayable"},{"type":"function","name":"renounceOwnership","inputs":[],"outputs":[],"stateMutability":"nonpayable"},{"type":"function","name":"transferOwnership","inputs":[{"name":"newOwner","type":"address","internalType":"address"}],"outputs":[],"stateMutability":"nonpayable"},{"type":"function","name":"unpause","inputs":[],"outputs":[],"stateMutability":"nonpayable"},{"type":"event","name":"ChainlinkCancelled","inputs":[{"name":"id","type":"bytes32","indexed":true,"internalType":"bytes32"}],"anonymous":false},{"type":"event","name":"ChainlinkFulfilled","inputs":[{"name":"id","type":"bytes32","indexed":true,"internalType":"bytes32"}],"anonymous":false},{"type":"event","name":"ChainlinkRequested","inputs":[{"name":"id","type":"bytes32","indexed":true,"internalType":"bytes32"}],"anonymous":false},{"type":"event","name":"Initialized","inputs":[{"name":"version","type":"uint8","indexed":false,"internalType":"uint8"}],"anonymous":false},{"type":"event","name":"Issuanced","inputs":[{"name":"user","type":"address","indexed":true,"internalType":"address"},{"name":"inputToken","type":"address","indexed":true,"internalType":"address"},{"name":"inputAmount","type":"uint256","indexed":false,"internalType":"uint256"},{"name":"outputAmount","type":"uint256","indexed":false,"internalType":"uint256"},{"name":"time","type":"uint256","indexed":false,"internalType":"uint256"}],"anonymous":false},{"type":"event","name":"OwnershipTransferred","inputs":[{"name":"previousOwner","type":"address","indexed":true,"internalType":"address"},{"name":"newOwner","type":"address","indexed":true,"internalType":"address"}],"anonymous":false},{"type":"event","name":"Paused","inputs":[{"name":"account","type":"address","indexed":false,"internalType":"address"}],"anonymous":false},{"type":"event","name":"Redemption","inputs":[{"name":"user","type":"address","indexed":true,"internalType":"address"},{"name":"outputToken","type":"address","indexed":true,"internalType":"address"},{"name":"inputAmount","type":"uint256","indexed":false,"internalType":"uint256"},{"name":"outputAmount","type":"uint256","indexed":false,"internalType":"uint256"},{"name":"time","type":"uint256","indexed":false,"internalType":"uint256"}],"anonymous":false},{"type":"event","name":"Unpaused","inputs":[{"name":"account","type":"address","indexed":false,"internalType":"address"}],"anonymous":false}],"bytecode":{"object":"0x608060405234801561001057600080fd5b50612d99806100206000396000f3fe6080604052600436106100c65760003560e01c80638456cb591161007f578063c06e1ae211610059578063c06e1ae2146101ee578063c4d66de81461020e578063d153b60c1461022e578063f2fde38b1461024e57600080fd5b80638456cb59146101875780638da5cb5b1461019c578063b5ed298a146101ce57600080fd5b8063372d4c55146100d2578063377bd3e5146100e75780633f4ba83a146101075780634b4441861461011c5780635c975abb1461014f578063715018a61461017257600080fd5b366100cd57005b600080fd5b6100e56100e0366004612aa8565b61026e565b005b3480156100f357600080fd5b506100e5610102366004612962565b610706565b34801561011357600080fd5b506100e5610bdd565b34801561012857600080fd5b5061013c610137366004612ada565b610bef565b6040519081526020015b60405180910390f35b34801561015b57600080fd5b50609e5460ff166040519015158152602001610146565b34801561017e57600080fd5b506100e561103c565b34801561019357600080fd5b506100e561104e565b3480156101a857600080fd5b506039546001600160a01b03165b6040516001600160a01b039091168152602001610146565b3480156101da57600080fd5b506100e56101e9366004612921565b61105e565b3480156101fa57600080fd5b5060d0546101b6906001600160a01b031681565b34801561021a57600080fd5b506100e5610229366004612921565b6110ae565b34801561023a57600080fd5b50606b546101b6906001600160a01b031681565b34801561025a57600080fd5b506100e5610269366004612921565b6111e3565b60d0546040805163fbfa77cf60e01b815290516000926001600160a01b03169163fbfa77cf916004808301926020929190829003018186803b1580156102b357600080fd5b505afa1580156102c7573d6000803e3d6000fd5b505050506040513d601f19601f820116820180604052508101906102eb9190612945565b9050600060d060009054906101000a90046001600160a01b03166001600160a01b0316633fc8cef36040518163ffffffff1660e01b815260040160206040518083038186803b15801561033d57600080fd5b505afa158015610351573d6000803e3d6000fd5b505050506040513d601f19601f820116820180604052508101906103759190612945565b9050600060d060009054906101000a90046001600160a01b03166001600160a01b031663b3f006746040518163ffffffff1660e01b815260040160206040518083038186803b1580156103c757600080fd5b505afa1580156103db573d6000803e3d6000fd5b505050506040513d601f19601f820116820180604052508101906103ff9190612945565b9050600060d060009054906101000a90046001600160a01b03166001600160a01b031663978bbdb96040518163ffffffff1660e01b815260040160206040518083038186803b15801561045157600080fd5b505afa158015610465573d6000803e3d6000fd5b505050506040513d601f19601f820116820180604052508101906104899190612b11565b60ff169050600061271061049d8388612caa565b6104a79190612c88565b905060006104b58288612c70565b90508034101561050c5760405162461bcd60e51b815260206004820152601a60248201527f6c6f776572207468616e20726571756972656420616d6f756e7400000000000060448201526064015b60405180910390fd5b846001600160a01b031663d0e30db0826040518263ffffffff1660e01b81526004016000604051808303818588803b15801561054757600080fd5b505af115801561055b573d6000803e3d6000fd5b505060405163a9059cbb60e01b81526001600160a01b038881166004830152602482018790528916935063a9059cbb92506044019050602060405180830381600087803b1580156105ab57600080fd5b505af11580156105bf573d6000803e3d6000fd5b505050506040513d601f19601f820116820180604052508101906105e39190612a69565b5060d054604080516329fea19960e11b815290516000926001600160a01b0316916353fd4332916004808301926020929190829003018186803b15801561062957600080fd5b505afa15801561063d573d6000803e3d6000fd5b505050506040513d601f19601f820116820180604052508101906106619190612ac1565b9050600060d060009054906101000a90046001600160a01b03166001600160a01b031663a8509fd86040518163ffffffff1660e01b815260040160206040518083038186803b1580156106b357600080fd5b505afa1580156106c7573d6000803e3d6000fd5b505050506040513d601f19601f820116820180604052508101906106eb9190612ac1565b90506106fb878a848b8d8661130b565b505050505050505050565b60d05460408051633fc8cef360e01b815290516000926001600160a01b031691633fc8cef3916004808301926020929190829003018186803b15801561074b57600080fd5b505afa15801561075f573d6000803e3d6000fd5b505050506040513d601f19601f820116820180604052508101906107839190612945565b9050600060d060009054906101000a90046001600160a01b03166001600160a01b031663fbfa77cf6040518163ffffffff1660e01b815260040160206040518083038186803b1580156107d557600080fd5b505afa1580156107e9573d6000803e3d6000fd5b505050506040513d601f19601f8201168201806040525081019061080d9190612945565b9050600060d060009054906101000a90046001600160a01b03166001600160a01b03166353fd43326040518163ffffffff1660e01b815260040160206040518083038186803b15801561085f57600080fd5b505afa158015610873573d6000803e3d6000fd5b505050506040513d601f19601f820116820180604052508101906108979190612ac1565b9050600060d060009054906101000a90046001600160a01b03166001600160a01b031663978bbdb96040518163ffffffff1660e01b815260040160206040518083038186803b1580156108e957600080fd5b505afa1580156108fd573d6000803e3d6000fd5b505050506040513d601f19601f820116820180604052508101906109219190612b11565b60ff16905060006127106109358389612caa565b61093f9190612c88565b9050600060d060009054906101000a90046001600160a01b03166001600160a01b031663a8509fd86040518163ffffffff1660e01b815260040160206040518083038186803b15801561099157600080fd5b505afa1580156109a5573d6000803e3d6000fd5b505050506040513d601f19601f820116820180604052508101906109c99190612ac1565b90506001600160a01b0389166323b872dd33306109e6868d612c70565b6040516001600160e01b031960e086901b1681526001600160a01b0393841660048201529290911660248301526044820152606401602060405180830381600087803b158015610a3557600080fd5b505af1158015610a49573d6000803e3d6000fd5b505050506040513d601f19601f82011682018060405250810190610a6d9190612a69565b506000610a868a88610a7f868d612c70565b308c61168e565b9050600060d060009054906101000a90046001600160a01b03166001600160a01b031663b3f006746040518163ffffffff1660e01b815260040160206040518083038186803b158015610ad857600080fd5b505afa158015610aec573d6000803e3d6000fd5b505050506040513d601f19601f82011682018060405250810190610b109190612945565b90506000612710610b218785612caa565b610b2b9190612c88565b90506000610b398285612cc9565b60405163a9059cbb60e01b81526001600160a01b03858116600483015260248201859052919250908b169063a9059cbb90604401602060405180830381600087803b158015610b8757600080fd5b505af1158015610b9b573d6000803e3d6000fd5b505050506040513d601f19601f82011682018060405250810190610bbf9190612a69565b50610bce8d8d8a8c858a61130b565b50505050505050505050505050565b610be56117be565b610bed611818565b565b60008060d060009054906101000a90046001600160a01b03166001600160a01b031663fbfa77cf6040518163ffffffff1660e01b815260040160206040518083038186803b158015610c4057600080fd5b505afa158015610c54573d6000803e3d6000fd5b505050506040513d601f19601f82011682018060405250810190610c789190612945565b9050600060d060009054906101000a90046001600160a01b03166001600160a01b03166353fd43326040518163ffffffff1660e01b815260040160206040518083038186803b158015610cca57600080fd5b505afa158015610cde573d6000803e3d6000fd5b505050506040513d601f19601f82011682018060405250810190610d029190612ac1565b9050600060d060009054906101000a90046001600160a01b03166001600160a01b031663978bbdb96040518163ffffffff1660e01b815260040160206040518083038186803b158015610d5457600080fd5b505afa158015610d68573d6000803e3d6000fd5b505050506040513d601f19601f82011682018060405250810190610d8c9190612b11565b60ff169050600060d060009054906101000a90046001600160a01b03166001600160a01b031663b3f006746040518163ffffffff1660e01b815260040160206040518083038186803b158015610de157600080fd5b505afa158015610df5573d6000803e3d6000fd5b505050506040513d601f19601f82011682018060405250810190610e199190612945565b9050600060d060009054906101000a90046001600160a01b03166001600160a01b031663e7d015f26040518163ffffffff1660e01b815260040160206040518083038186803b158015610e6b57600080fd5b505afa158015610e7f573d6000803e3d6000fd5b505050506040513d601f19601f82011682018060405250810190610ea39190612945565b90506000816001600160a01b03166318160ddd6040518163ffffffff1660e01b815260040160206040518083038186803b158015610ee057600080fd5b505afa158015610ef4573d6000803e3d6000fd5b505050506040513d601f19601f82011682018060405250810190610f189190612ac1565b610f2a8b670de0b6b3a7640000612caa565b610f349190612c88565b604051632770a7eb60e21b8152336004820152602481018c90529091506001600160a01b03831690639dc29fac90604401600060405180830381600087803b158015610f7f57600080fd5b505af1158015610f93573d6000803e3d6000fd5b50505050600061102d60d060009054906101000a90046001600160a01b03166001600160a01b03166353fd43326040518163ffffffff1660e01b815260040160206040518083038186803b158015610fea57600080fd5b505afa158015610ffe573d6000803e3d6000fd5b505050506040513d601f19601f820116820180604052508101906110229190612ac1565b88848d8d8a8a61186a565b9b9a5050505050505050505050565b6110446117be565b610bed6000611920565b6110566117be565b610bed611972565b6110666117be565b6001600160a01b03811661108c5760405162461bcd60e51b815260040161050390612b78565b606b80546001600160a01b0319166001600160a01b0392909216919091179055565b600654610100900460ff16158080156110ce5750600654600160ff909116105b806110e85750303b1580156110e8575060065460ff166001145b61114b5760405162461bcd60e51b815260206004820152602e60248201527f496e697469616c697a61626c653a20636f6e747261637420697320616c72656160448201526d191e481a5b9a5d1a585b1a5e995960921b6064820152608401610503565b6006805460ff19166001179055801561116e576006805461ff0019166101001790555b6111766119af565b61117e6119de565b60d080546001600160a01b0319166001600160a01b03841617905580156111df576006805461ff0019169055604051600181527f7f26b83ff96e1f2b6a682f133852f6798a09c465da95921460cefb38474024989060200160405180910390a15b5050565b6001600160a01b0381166112095760405162461bcd60e51b815260040161050390612b78565b606b546001600160a01b038281169116146112815760405162461bcd60e51b815260206004820152603260248201527f50726f706f7361626c654f776e61626c653a206e6577206f776e6572206973206044820152713737ba10383937b837b9b2b21037bbb732b960711b6064820152608401610503565b6001600160a01b03811633146112ff5760405162461bcd60e51b815260206004820152603a60248201527f50726f706f7361626c654f776e61626c653a20746869732063616c6c206d757360448201527f74206265206d61646520627920746865206e6577206f776e65720000000000006064820152608401610503565b61130881611920565b50565b60d05460408051633fc8cef360e01b815290516000926001600160a01b031691633fc8cef3916004808301926020929190829003018186803b15801561135057600080fd5b505afa158015611364573d6000803e3d6000fd5b505050506040513d601f19601f820116820180604052508101906113889190612945565b905060005b858110156116275760d05460405163264cae9360e21b8152600481018390526000916001600160a01b031690639932ba4c9060240160206040518083038186803b1580156113da57600080fd5b505afa1580156113ee573d6000803e3d6000fd5b505050506040513d601f19601f820116820180604052508101906114129190612945565b60d054604051630be5271360e01b81526001600160a01b03808416600483015292935060009290911690630be527139060240160206040518083038186803b15801561145d57600080fd5b505afa158015611471573d6000803e3d6000fd5b505050506040513d601f19601f820116820180604052508101906114959190612ac1565b60d054604051633259966560e01b81526001600160a01b0385811660048301529293506000929091169063325996659060240160206040518083038186803b1580156114e057600080fd5b505afa1580156114f4573d6000803e3d6000fd5b505050506040513d601f19601f820116820180604052508101906115189190612a8b565b9050846001600160a01b0316836001600160a01b0316146115635761155d858468056bc75e2d6310000061154c868c612caa565b6115569190612c88565b8b8561168e565b50611611565b6001600160a01b03851663a9059cbb8968056bc75e2d63100000611587868c612caa565b6115919190612c88565b6040516001600160e01b031960e085901b1681526001600160a01b0390921660048301526024820152604401602060405180830381600087803b1580156115d757600080fd5b505af11580156115eb573d6000803e3d6000fd5b505050506040513d601f19601f8201168201806040525081019061160f9190612a69565b505b505050808061161f90612ce0565b91505061138d565b5060006116348484611a0d565b6040805189815260208101839052428183015290519192506001600160a01b038a169133917f4fee1c514ee0e252e3a0babfa8b5030fb89be7ea2b38df9a7fbbf788e54f3d91919081900360600190a35050505050505050565b60008060d060009054906101000a90046001600160a01b03166001600160a01b031663b631e80b6040518163ffffffff1660e01b815260040160206040518083038186803b1580156116df57600080fd5b505afa1580156116f3573d6000803e3d6000fd5b505050506040513d601f19601f820116820180604052508101906117179190612945565b9050600060d060009054906101000a90046001600160a01b03166001600160a01b031663744fbc7a6040518163ffffffff1660e01b815260040160206040518083038186803b15801561176957600080fd5b505afa15801561177d573d6000803e3d6000fd5b505050506040513d601f19601f820116820180604052508101906117a19190612945565b90506117b28282868b8b8b8b611ca5565b98975050505050505050565b6039546001600160a01b03163314610bed5760405162461bcd60e51b815260206004820181905260248201527f4f776e61626c653a2063616c6c6572206973206e6f7420746865206f776e65726044820152606401610503565b611820611ce2565b609e805460ff191690557f5db9ee0a495bf2e6ff9c91a7834c1ba4fdd244a5e8aa4e537bd38aeae4b073aa335b6040516001600160a01b03909116815260200160405180910390a1565b60008060d060009054906101000a90046001600160a01b03166001600160a01b031663e7d015f26040518163ffffffff1660e01b815260040160206040518083038186803b1580156118bb57600080fd5b505afa1580156118cf573d6000803e3d6000fd5b505050506040513d601f19601f820116820180604052508101906118f39190612945565b90506000611902888b8b611d2b565b90506119128882898989896120db565b9a9950505050505050505050565b603980546001600160a01b038381166001600160a01b0319831681179093556040519116919082907f8be0079c531659141344cd1fd0a4f28419497f9722a3daafe3b4186f6b6457e090600090a35050565b61197a61249b565b609e805460ff191660011790557f62e78cea01bee320cd4e420270b5ea74000d11b0c9f74754ebdbfc544b05a25861184d3390565b600654610100900460ff166119d65760405162461bcd60e51b815260040161050390612bc8565b610bed6124e1565b600654610100900460ff16611a055760405162461bcd60e51b815260040161050390612bc8565b610bed612511565b60008060d060009054906101000a90046001600160a01b03166001600160a01b031663e7d015f26040518163ffffffff1660e01b815260040160206040518083038186803b158015611a5e57600080fd5b505afa158015611a72573d6000803e3d6000fd5b505050506040513d601f19601f82011682018060405250810190611a969190612945565b90506000816001600160a01b03166318160ddd6040518163ffffffff1660e01b815260040160206040518083038186803b158015611ad357600080fd5b505afa158015611ae7573d6000803e3d6000fd5b505050506040513d601f19601f82011682018060405250810190611b0b9190612ac1565b1115611b9f578284826001600160a01b03166318160ddd6040518163ffffffff1660e01b815260040160206040518083038186803b158015611b4c57600080fd5b505afa158015611b60573d6000803e3d6000fd5b505050506040513d601f19601f82011682018060405250810190611b849190612ac1565b611b8e9190612caa565b611b989190612c88565b9150611c3e565b60d05460408051630791b4b160e31b815290516000926001600160a01b031691633c8da588916004808301926020929190829003018186803b158015611be457600080fd5b505afa158015611bf8573d6000803e3d6000fd5b505050506040513d601f19601f82011682018060405250810190611c1c9190612ac1565b9050662386f26fc10000611c308287612caa565b611c3a9190612c88565b9250505b6040516340c10f1960e01b8152336004820152602481018390526001600160a01b038216906340c10f1990604401600060405180830381600087803b158015611c8657600080fd5b505af1158015611c9a573d6000803e3d6000fd5b505050505092915050565b600062ffffff861615611cc757611cc0888787878787612544565b9050611cd7565b611cd4878686868661270b565b90505b979650505050505050565b609e5460ff16610bed5760405162461bcd60e51b815260206004820152601460248201527314185d5cd8589b194e881b9bdd081c185d5cd95960621b6044820152606401610503565b60008060d060009054906101000a90046001600160a01b03166001600160a01b0316633fc8cef36040518163ffffffff1660e01b815260040160206040518083038186803b158015611d7c57600080fd5b505afa158015611d90573d6000803e3d6000fd5b505050506040513d601f19601f82011682018060405250810190611db49190612945565b905060005b848110156120d25760d05460405163264cae9360e21b8152600481018390526000916001600160a01b031690639932ba4c9060240160206040518083038186803b158015611e0657600080fd5b505afa158015611e1a573d6000803e3d6000fd5b505050506040513d601f19601f82011682018060405250810190611e3e9190612945565b60d054604051633259966560e01b81526001600160a01b0380841660048301529293506000929091169063325996659060240160206040518083038186803b158015611e8957600080fd5b505afa158015611e9d573d6000803e3d6000fd5b505050506040513d601f19601f82011682018060405250810190611ec19190612a8b565b6040516370a0823160e01b81526001600160a01b038881166004830152919250600091670de0b6b3a764000091908516906370a082319060240160206040518083038186803b158015611f1357600080fd5b505afa158015611f27573d6000803e3d6000fd5b505050506040513d601f19601f82011682018060405250810190611f4b9190612ac1565b611f55908b612caa565b611f5f9190612c88565b9050846001600160a01b0316836001600160a01b03161461202657604051631c20fadd60e01b81526001600160a01b03848116600483015230602483015260448201839052881690631c20fadd90606401602060405180830381600087803b158015611fca57600080fd5b505af1158015611fde573d6000803e3d6000fd5b505050506040513d601f19601f820116820180604052508101906120029190612a69565b506000612012848784308761168e565b905061201e8188612c70565b9650506120bc565b604051631c20fadd60e01b81526001600160a01b03868116600483015230602483015260448201839052881690631c20fadd90606401602060405180830381600087803b15801561207657600080fd5b505af115801561208a573d6000803e3d6000fd5b505050506040513d601f19601f820116820180604052508101906120ae9190612a69565b506120b98187612c70565b95505b50505080806120ca90612ce0565b915050611db9565b50509392505050565b60008060d060009054906101000a90046001600160a01b03166001600160a01b0316633fc8cef36040518163ffffffff1660e01b815260040160206040518083038186803b15801561212c57600080fd5b505afa158015612140573d6000803e3d6000fd5b505050506040513d601f19601f820116820180604052508101906121649190612945565b90506000612710612175868a612caa565b61217f9190612c88565b9050816001600160a01b0316876001600160a01b0316141561239c576001600160a01b038216632e1a7d4d6121b4838b612cc9565b6040518263ffffffff1660e01b81526004016121d291815260200190565b600060405180830381600087803b1580156121ec57600080fd5b505af1158015612200573d6000803e3d6000fd5b505060405163a9059cbb60e01b81526001600160a01b038781166004830152602482018590528516925063a9059cbb9150604401602060405180830381600087803b15801561224e57600080fd5b505af1158015612262573d6000803e3d6000fd5b505050506040513d601f19601f820116820180604052508101906122869190612a69565b50600033612294838b612cc9565b604051600081818185875af1925050503d80600081146122d0576040519150601f19603f3d011682016040523d82523d6000602084013e6122d5565b606091505b50509050806123325760405162461bcd60e51b815260206004820152602360248201527f7472616e73666572206574682066656520746f207468652075736572206661696044820152621b195960ea1b6064820152608401610503565b6001600160a01b038816337f4f808f68134f8b72b842a276c2b37b03415d4992c65a94fcee50d33201915b998c612369868e612cc9565b604080519283526020830191909152429082015260600160405180910390a3612392828a612cc9565b9350505050612491565b60405163a9059cbb60e01b81526001600160a01b0385811660048301526024820183905283169063a9059cbb90604401602060405180830381600087803b1580156123e657600080fd5b505af11580156123fa573d6000803e3d6000fd5b505050506040513d601f19601f8201168201806040525081019061241e9190612a69565b5060006124378389612430858d612cc9565b338b61168e565b604080518c815260208101839052428183015290519192506001600160a01b038a169133917f4f808f68134f8b72b842a276c2b37b03415d4992c65a94fcee50d33201915b99919081900360600190a39250612491915050565b9695505050505050565b609e5460ff1615610bed5760405162461bcd60e51b815260206004820152601060248201526f14185d5cd8589b194e881c185d5cd95960821b6044820152606401610503565b600654610100900460ff166125085760405162461bcd60e51b815260040161050390612bc8565b610bed33611920565b600654610100900460ff166125385760405162461bcd60e51b815260040161050390612bc8565b609e805460ff19169055565b60405163095ea7b360e01b81526001600160a01b038781166004830152602482018490526000919086169063095ea7b390604401602060405180830381600087803b15801561259257600080fd5b505af11580156125a6573d6000803e3d6000fd5b505050506040513d601f19601f820116820180604052508101906125ca9190612a69565b506000604051806101000160405280876001600160a01b03168152602001866001600160a01b031681526020018862ffffff168152602001846001600160a01b031681526020014261012c61261f9190612c70565b8152602080820187905260006040808401829052606093840191909152805163414bf38960e01b815284516001600160a01b03908116600483015292850151831660248201529084015162ffffff16604482015291830151811660648301526080830151608483015260a083015160a483015260c083015160c483015260e0830151811660e48301529192509089169063414bf3899061010401602060405180830381600087803b1580156126d357600080fd5b505af11580156126e7573d6000803e3d6000fd5b505050506040513d601f19601f820116820180604052508101906117b29190612ac1565b60408051600280825260608201835260009283929190602083019080368337019050509050858160008151811061274457612744612d11565b60200260200101906001600160a01b031690816001600160a01b031681525050848160018151811061277857612778612d11565b6001600160a01b03928316602091820292909201015260405163d06ca61f60e01b815260009189169063d06ca61f906127b79088908690600401612c13565b60006040518083038186803b1580156127cf57600080fd5b505afa1580156127e3573d6000803e3d6000fd5b505050506040513d6000823e601f3d908101601f1916820160405261280b91908101906129a4565b60405163095ea7b360e01b81526001600160a01b038a81166004830152602482018890529192509088169063095ea7b390604401602060405180830381600087803b15801561285957600080fd5b505af115801561286d573d6000803e3d6000fd5b505050506040513d601f19601f820116820180604052508101906128919190612a69565b50604051635c11d79560e01b81526001600160a01b03891690635c11d795906128c790889060009087908a904290600401612c34565b600060405180830381600087803b1580156128e157600080fd5b505af11580156128f5573d6000803e3d6000fd5b505050508060018151811061290c5761290c612d11565b60200260200101519250505095945050505050565b60006020828403121561293357600080fd5b813561293e81612d3d565b9392505050565b60006020828403121561295757600080fd5b815161293e81612d3d565b60008060006060848603121561297757600080fd5b833561298281612d3d565b925060208401359150604084013561299981612d52565b809150509250925092565b600060208083850312156129b757600080fd5b825167ffffffffffffffff808211156129cf57600080fd5b818501915085601f8301126129e357600080fd5b8151818111156129f5576129f5612d27565b8060051b604051601f19603f83011681018181108582111715612a1a57612a1a612d27565b604052828152858101935084860182860187018a1015612a3957600080fd5b600095505b83861015612a5c578051855260019590950194938601938601612a3e565b5098975050505050505050565b600060208284031215612a7b57600080fd5b8151801515811461293e57600080fd5b600060208284031215612a9d57600080fd5b815161293e81612d52565b600060208284031215612aba57600080fd5b5035919050565b600060208284031215612ad357600080fd5b5051919050565b600080600060608486031215612aef57600080fd5b833592506020840135612b0181612d3d565b9150604084013561299981612d52565b600060208284031215612b2357600080fd5b815160ff8116811461293e57600080fd5b600081518084526020808501945080840160005b83811015612b6d5781516001600160a01b031687529582019590820190600101612b48565b509495945050505050565b60208082526030908201527f50726f706f7361626c654f776e61626c653a206e6577206f776e65722069732060408201526f746865207a65726f206164647265737360801b606082015260800190565b6020808252602b908201527f496e697469616c697a61626c653a20636f6e7472616374206973206e6f74206960408201526a6e697469616c697a696e6760a81b606082015260800190565b828152604060208201526000612c2c6040830184612b34565b949350505050565b85815284602082015260a060408201526000612c5360a0830186612b34565b6001600160a01b0394909416606083015250608001529392505050565b60008219821115612c8357612c83612cfb565b500190565b600082612ca557634e487b7160e01b600052601260045260246000fd5b500490565b6000816000190483118215151615612cc457612cc4612cfb565b500290565b600082821015612cdb57612cdb612cfb565b500390565b6000600019821415612cf457612cf4612cfb565b5060010190565b634e487b7160e01b600052601160045260246000fd5b634e487b7160e01b600052603260045260246000fd5b634e487b7160e01b600052604160045260246000fd5b6001600160a01b038116811461130857600080fd5b62ffffff8116811461130857600080fdfea2646970667358221220d60c002942143d501d90b01a0dac4f8e3a3f5a826b7f3d1ff5ae72c1e0cd0f0364736f6c63430008070033","linkReferences":{}},"methodIdentifiers":{"factoryStorage()":"c06e1ae2","initialize(address)":"c4d66de8","issuanceIndexTokens(address,uint256,uint24)":"377bd3e5","issuanceIndexTokensWithEth(uint256)":"372d4c55","owner()":"8da5cb5b","pause()":"8456cb59","paused()":"5c975abb","proposeOwner(address)":"b5ed298a","proposedOwner()":"d153b60c","redemption(uint256,address,uint24)":"4b444186","renounceOwnership()":"715018a6","transferOwnership(address)":"f2fde38b","unpause()":"3f4ba83a"},"id":2}