{
  "abi": [
    {
      "inputs": [],
      "name": "T",
      "type": "error"
    },
    {
      "anonymous": false,
      "inputs": [
        {
          "indexed": true,
          "internalType": "bytes32",
          "name": "id",
          "type": "bytes32"
        }
      ],
      "name": "ChainlinkCancelled",
      "type": "event"
    },
    {
      "anonymous": false,
      "inputs": [
        {
          "indexed": true,
          "internalType": "bytes32",
          "name": "id",
          "type": "bytes32"
        }
      ],
      "name": "ChainlinkFulfilled",
      "type": "event"
    },
    {
      "anonymous": false,
      "inputs": [
        {
          "indexed": true,
          "internalType": "bytes32",
          "name": "id",
          "type": "bytes32"
        }
      ],
      "name": "ChainlinkRequested",
      "type": "event"
    },
    {
      "anonymous": false,
      "inputs": [
        {
          "indexed": true,
          "internalType": "uint256",
          "name": "feeRatePerDayScaled",
          "type": "uint256"
        }
      ],
      "name": "FeeRateSet",
      "type": "event"
    },
    {
      "anonymous": false,
      "inputs": [
        {
          "indexed": true,
          "internalType": "address",
          "name": "feeReceiver",
          "type": "address"
        }
      ],
      "name": "FeeReceiverSet",
      "type": "event"
    },
    {
      "anonymous": false,
      "inputs": [
        {
          "indexed": false,
          "internalType": "uint8",
          "name": "version",
          "type": "uint8"
        }
      ],
      "name": "Initialized",
      "type": "event"
    },
    {
      "anonymous": false,
      "inputs": [
        {
          "indexed": true,
          "internalType": "address",
          "name": "user",
          "type": "address"
        },
        {
          "indexed": true,
          "internalType": "address",
          "name": "inputToken",
          "type": "address"
        },
        {
          "indexed": false,
          "internalType": "uint256",
          "name": "inputAmount",
          "type": "uint256"
        },
        {
          "indexed": false,
          "internalType": "uint256",
          "name": "outputAmount",
          "type": "uint256"
        },
        {
          "indexed": false,
          "internalType": "uint256",
          "name": "time",
          "type": "uint256"
        }
      ],
      "name": "Issuanced",
      "type": "event"
    },
    {
      "anonymous": false,
      "inputs": [
        {
          "indexed": true,
          "internalType": "address",
          "name": "methodologist",
          "type": "address"
        }
      ],
      "name": "MethodologistSet",
      "type": "event"
    },
    {
      "anonymous": false,
      "inputs": [
        {
          "indexed": false,
          "internalType": "string",
          "name": "methodology",
          "type": "string"
        }
      ],
      "name": "MethodologySet",
      "type": "event"
    },
    {
      "anonymous": false,
      "inputs": [
        {
          "indexed": false,
          "internalType": "address",
          "name": "feeReceiver",
          "type": "address"
        },
        {
          "indexed": false,
          "internalType": "uint256",
          "name": "timestamp",
          "type": "uint256"
        },
        {
          "indexed": false,
          "internalType": "uint256",
          "name": "totalSupply",
          "type": "uint256"
        },
        {
          "indexed": false,
          "internalType": "uint256",
          "name": "amount",
          "type": "uint256"
        }
      ],
      "name": "MintFeeToReceiver",
      "type": "event"
    },
    {
      "anonymous": false,
      "inputs": [
        {
          "indexed": true,
          "internalType": "address",
          "name": "minter",
          "type": "address"
        }
      ],
      "name": "MinterSet",
      "type": "event"
    },
    {
      "anonymous": false,
      "inputs": [
        {
          "indexed": true,
          "internalType": "address",
          "name": "previousOwner",
          "type": "address"
        },
        {
          "indexed": true,
          "internalType": "address",
          "name": "newOwner",
          "type": "address"
        }
      ],
      "name": "OwnershipTransferred",
      "type": "event"
    },
    {
      "anonymous": false,
      "inputs": [
        {
          "indexed": false,
          "internalType": "address",
          "name": "account",
          "type": "address"
        }
      ],
      "name": "Paused",
      "type": "event"
    },
    {
      "anonymous": false,
      "inputs": [
        {
          "indexed": true,
          "internalType": "address",
          "name": "user",
          "type": "address"
        },
        {
          "indexed": true,
          "internalType": "address",
          "name": "outputToken",
          "type": "address"
        },
        {
          "indexed": false,
          "internalType": "uint256",
          "name": "inputAmount",
          "type": "uint256"
        },
        {
          "indexed": false,
          "internalType": "uint256",
          "name": "outputAmount",
          "type": "uint256"
        },
        {
          "indexed": false,
          "internalType": "uint256",
          "name": "time",
          "type": "uint256"
        }
      ],
      "name": "Redemption",
      "type": "event"
    },
    {
      "anonymous": false,
      "inputs": [
        {
          "indexed": false,
          "internalType": "uint256",
          "name": "supplyCeiling",
          "type": "uint256"
        }
      ],
      "name": "SupplyCeilingSet",
      "type": "event"
    },
    {
      "anonymous": false,
      "inputs": [
        {
          "indexed": true,
          "internalType": "address",
          "name": "account",
          "type": "address"
        },
        {
          "indexed": false,
          "internalType": "bool",
          "name": "isRestricted",
          "type": "bool"
        }
      ],
      "name": "ToggledRestricted",
      "type": "event"
    },
    {
      "anonymous": false,
      "inputs": [
        {
          "indexed": false,
          "internalType": "address",
          "name": "account",
          "type": "address"
        }
      ],
      "name": "Unpaused",
      "type": "event"
    },
    {
      "inputs": [
        {
          "internalType": "string",
          "name": "a",
          "type": "string"
        },
        {
          "internalType": "string",
          "name": "b",
          "type": "string"
        }
      ],
      "name": "concatenation",
      "outputs": [
        {
          "internalType": "string",
          "name": "",
          "type": "string"
        }
      ],
      "stateMutability": "pure",
      "type": "function"
    },
    {
      "inputs": [
        {
          "internalType": "uint256",
          "name": "",
          "type": "uint256"
        }
      ],
      "name": "currentList",
      "outputs": [
        {
          "internalType": "address",
          "name": "",
          "type": "address"
        }
      ],
      "stateMutability": "view",
      "type": "function"
    },
    {
      "inputs": [
        {
          "internalType": "address",
          "name": "tokenIn",
          "type": "address"
        },
        {
          "internalType": "address",
          "name": "tokenOut",
          "type": "address"
        },
        {
          "internalType": "uint128",
          "name": "amountIn",
          "type": "uint128"
        },
        {
          "internalType": "uint32",
          "name": "secondsAgo",
          "type": "uint32"
        }
      ],
      "name": "estimateAmountOut",
      "outputs": [
        {
          "internalType": "uint256",
          "name": "amountOut",
          "type": "uint256"
        }
      ],
      "stateMutability": "view",
      "type": "function"
    },
    {
      "inputs": [],
      "name": "externalJobId",
      "outputs": [
        {
          "internalType": "bytes32",
          "name": "",
          "type": "bytes32"
        }
      ],
      "stateMutability": "view",
      "type": "function"
    },
    {
      "inputs": [],
      "name": "factoryV2",
      "outputs": [
        {
          "internalType": "contract IUniswapV2Factory",
          "name": "",
          "type": "address"
        }
      ],
      "stateMutability": "view",
      "type": "function"
    },
    {
      "inputs": [],
      "name": "factoryV3",
      "outputs": [
        {
          "internalType": "contract IUniswapV3Factory",
          "name": "",
          "type": "address"
        }
      ],
      "stateMutability": "view",
      "type": "function"
    },
    {
      "inputs": [],
      "name": "fee",
      "outputs": [
        {
          "internalType": "uint256",
          "name": "",
          "type": "uint256"
        }
      ],
      "stateMutability": "view",
      "type": "function"
    },
    {
      "inputs": [],
      "name": "feeRate",
      "outputs": [
        {
          "internalType": "uint8",
          "name": "",
          "type": "uint8"
        }
      ],
      "stateMutability": "view",
      "type": "function"
    },
    {
      "inputs": [],
      "name": "feeRatePerDayScaled",
      "outputs": [
        {
          "internalType": "uint256",
          "name": "",
          "type": "uint256"
        }
      ],
      "stateMutability": "view",
      "type": "function"
    },
    {
      "inputs": [],
      "name": "feeReceiver",
      "outputs": [
        {
          "internalType": "address",
          "name": "",
          "type": "address"
        }
      ],
      "stateMutability": "view",
      "type": "function"
    },
    {
      "inputs": [],
      "name": "feeTimestamp",
      "outputs": [
        {
          "internalType": "uint256",
          "name": "",
          "type": "uint256"
        }
      ],
      "stateMutability": "view",
      "type": "function"
    },
    {
      "inputs": [
        {
          "internalType": "bytes32",
          "name": "requestId",
          "type": "bytes32"
        },
        {
          "internalType": "address[]",
          "name": "_tokens",
          "type": "address[]"
        },
        {
          "internalType": "uint256[]",
          "name": "_marketShares",
          "type": "uint256[]"
        },
        {
          "internalType": "uint256[]",
          "name": "_swapVersions",
          "type": "uint256[]"
        }
      ],
      "name": "fulfillAssetsData",
      "outputs": [],
      "stateMutability": "nonpayable",
      "type": "function"
    },
    {
      "inputs": [
        {
          "internalType": "address",
          "name": "tokenIn",
          "type": "address"
        },
        {
          "internalType": "address",
          "name": "tokenOut",
          "type": "address"
        },
        {
          "internalType": "uint256",
          "name": "amountIn",
          "type": "uint256"
        },
        {
          "internalType": "uint256",
          "name": "_swapVersion",
          "type": "uint256"
        }
      ],
      "name": "getAmountOut",
      "outputs": [
        {
          "internalType": "uint256",
          "name": "finalAmountOut",
          "type": "uint256"
        }
      ],
      "stateMutability": "view",
      "type": "function"
    },
    {
      "inputs": [
        {
          "internalType": "address",
          "name": "tokenIn",
          "type": "address"
        },
        {
          "internalType": "address",
          "name": "tokenOut",
          "type": "address"
        },
        {
          "internalType": "uint256",
          "name": "amountIn",
          "type": "uint256"
        },
        {
          "internalType": "uint256",
          "name": "_swapVersion",
          "type": "uint256"
        }
      ],
      "name": "getExactAmountOut",
      "outputs": [
        {
          "internalType": "uint256",
          "name": "finalAmountOut",
          "type": "uint256"
        }
      ],
      "stateMutability": "nonpayable",
      "type": "function"
    },
    {
      "inputs": [
        {
          "internalType": "address",
          "name": "tokenIn",
          "type": "address"
        },
        {
          "internalType": "address",
          "name": "tokenOut",
          "type": "address"
        },
        {
          "internalType": "uint256",
          "name": "amountIn",
          "type": "uint256"
        }
      ],
      "name": "getExactAmountOut2",
      "outputs": [
        {
          "internalType": "uint256",
          "name": "finalAmountOut",
          "type": "uint256"
        }
      ],
      "stateMutability": "nonpayable",
      "type": "function"
    },
    {
      "inputs": [
        {
          "internalType": "uint256",
          "name": "_amountIn",
          "type": "uint256"
        },
        {
          "internalType": "address",
          "name": "_tokenIn",
          "type": "address"
        },
        {
          "internalType": "uint256",
          "name": "_swapVersion",
          "type": "uint256"
        }
      ],
      "name": "getIssuanceAmountOut",
      "outputs": [
        {
          "internalType": "uint256",
          "name": "",
          "type": "uint256"
        }
      ],
      "stateMutability": "view",
      "type": "function"
    },
    {
      "inputs": [
        {
          "internalType": "uint256",
          "name": "_amountIn",
          "type": "uint256"
        },
        {
          "internalType": "address",
          "name": "_tokenIn",
          "type": "address"
        },
        {
          "internalType": "uint256",
          "name": "_swapVersion",
          "type": "uint256"
        }
      ],
      "name": "getIssuanceAmountOut2",
      "outputs": [
        {
          "internalType": "uint256",
          "name": "",
          "type": "uint256"
        }
      ],
      "stateMutability": "nonpayable",
      "type": "function"
    },
    {
      "inputs": [],
      "name": "getPortfolioBalance",
      "outputs": [
        {
          "internalType": "uint256",
          "name": "",
          "type": "uint256"
        }
      ],
      "stateMutability": "view",
      "type": "function"
    },
    {
      "inputs": [
        {
          "internalType": "uint256",
          "name": "_amountIn",
          "type": "uint256"
        },
        {
          "internalType": "address",
          "name": "_tokenOut",
          "type": "address"
        },
        {
          "internalType": "uint256",
          "name": "_swapVersion",
          "type": "uint256"
        }
      ],
      "name": "getRedemptionAmountOut",
      "outputs": [
        {
          "internalType": "uint256",
          "name": "",
          "type": "uint256"
        }
      ],
      "stateMutability": "view",
      "type": "function"
    },
    {
      "inputs": [
        {
          "internalType": "uint256",
          "name": "_amountIn",
          "type": "uint256"
        },
        {
          "internalType": "address",
          "name": "_tokenOut",
          "type": "address"
        },
        {
          "internalType": "uint256",
          "name": "_swapVersion",
          "type": "uint256"
        }
      ],
      "name": "getRedemptionAmountOut2",
      "outputs": [
        {
          "internalType": "uint256",
          "name": "",
          "type": "uint256"
        }
      ],
      "stateMutability": "nonpayable",
      "type": "function"
    },
    {
      "inputs": [],
      "name": "indexToken",
      "outputs": [
        {
          "internalType": "contract IndexToken",
          "name": "",
          "type": "address"
        }
      ],
      "stateMutability": "view",
      "type": "function"
    },
    {
      "inputs": [
        {
          "internalType": "address payable",
          "name": "_token",
          "type": "address"
        },
        {
          "internalType": "address",
          "name": "_chainlinkToken",
          "type": "address"
        },
        {
          "internalType": "address",
          "name": "_oracleAddress",
          "type": "address"
        },
        {
          "internalType": "bytes32",
          "name": "_externalJobId",
          "type": "bytes32"
        },
        {
          "internalType": "address",
          "name": "_weth",
          "type": "address"
        },
        {
          "internalType": "address",
          "name": "_quoter",
          "type": "address"
        },
        {
          "internalType": "address",
          "name": "_swapRouterV3",
          "type": "address"
        },
        {
          "internalType": "address",
          "name": "_factoryV3",
          "type": "address"
        },
        {
          "internalType": "address",
          "name": "_swapRouterV2",
          "type": "address"
        },
        {
          "internalType": "address",
          "name": "_factoryV2",
          "type": "address"
        }
      ],
      "name": "initialize",
      "outputs": [],
      "stateMutability": "nonpayable",
      "type": "function"
    },
    {
      "inputs": [
        {
          "internalType": "address",
          "name": "",
          "type": "address"
        }
      ],
      "name": "isRestricted",
      "outputs": [
        {
          "internalType": "bool",
          "name": "",
          "type": "bool"
        }
      ],
      "stateMutability": "view",
      "type": "function"
    },
    {
      "inputs": [
        {
          "internalType": "address",
          "name": "_tokenIn",
          "type": "address"
        },
        {
          "internalType": "uint256",
          "name": "_amountIn",
          "type": "uint256"
        },
        {
          "internalType": "uint256",
          "name": "_tokenInSwapVersion",
          "type": "uint256"
        }
      ],
      "name": "issuanceIndexTokens",
      "outputs": [],
      "stateMutability": "nonpayable",
      "type": "function"
    },
    {
      "inputs": [
        {
          "internalType": "uint256",
          "name": "_inputAmount",
          "type": "uint256"
        }
      ],
      "name": "issuanceIndexTokensWithEth",
      "outputs": [],
      "stateMutability": "payable",
      "type": "function"
    },
    {
      "inputs": [],
      "name": "lastUpdateTime",
      "outputs": [
        {
          "internalType": "uint256",
          "name": "",
          "type": "uint256"
        }
      ],
      "stateMutability": "view",
      "type": "function"
    },
    {
      "inputs": [],
      "name": "latestFeeUpdate",
      "outputs": [
        {
          "internalType": "uint256",
          "name": "",
          "type": "uint256"
        }
      ],
      "stateMutability": "view",
      "type": "function"
    },
    {
      "inputs": [],
      "name": "methodologist",
      "outputs": [
        {
          "internalType": "address",
          "name": "",
          "type": "address"
        }
      ],
      "stateMutability": "view",
      "type": "function"
    },
    {
      "inputs": [],
      "name": "methodology",
      "outputs": [
        {
          "internalType": "string",
          "name": "",
          "type": "string"
        }
      ],
      "stateMutability": "view",
      "type": "function"
    },
    {
      "inputs": [],
      "name": "minter",
      "outputs": [
        {
          "internalType": "address",
          "name": "",
          "type": "address"
        }
      ],
      "stateMutability": "view",
      "type": "function"
    },
    {
      "inputs": [
        {
          "internalType": "address[]",
          "name": "_tokens",
          "type": "address[]"
        },
        {
          "internalType": "uint256[]",
          "name": "_marketShares",
          "type": "uint256[]"
        },
        {
          "internalType": "uint256[]",
          "name": "_swapVersions",
          "type": "uint256[]"
        }
      ],
      "name": "mockFillAssetsList",
      "outputs": [],
      "stateMutability": "nonpayable",
      "type": "function"
    },
    {
      "inputs": [
        {
          "internalType": "uint256",
          "name": "",
          "type": "uint256"
        }
      ],
      "name": "oracleList",
      "outputs": [
        {
          "internalType": "address",
          "name": "",
          "type": "address"
        }
      ],
      "stateMutability": "view",
      "type": "function"
    },
    {
      "inputs": [],
      "name": "oraclePayment",
      "outputs": [
        {
          "internalType": "uint256",
          "name": "",
          "type": "uint256"
        }
      ],
      "stateMutability": "view",
      "type": "function"
    },
    {
      "inputs": [],
      "name": "owner",
      "outputs": [
        {
          "internalType": "address",
          "name": "",
          "type": "address"
        }
      ],
      "stateMutability": "view",
      "type": "function"
    },
    {
      "inputs": [],
      "name": "pause",
      "outputs": [],
      "stateMutability": "nonpayable",
      "type": "function"
    },
    {
      "inputs": [],
      "name": "paused",
      "outputs": [
        {
          "internalType": "bool",
          "name": "",
          "type": "bool"
        }
      ],
      "stateMutability": "view",
      "type": "function"
    },
    {
      "inputs": [
        {
          "internalType": "address",
          "name": "_proposedOwner",
          "type": "address"
        }
      ],
      "name": "proposeOwner",
      "outputs": [],
      "stateMutability": "nonpayable",
      "type": "function"
    },
    {
      "inputs": [],
      "name": "proposedOwner",
      "outputs": [
        {
          "internalType": "address",
          "name": "",
          "type": "address"
        }
      ],
      "stateMutability": "view",
      "type": "function"
    },
    {
      "inputs": [],
      "name": "quoter",
      "outputs": [
        {
          "internalType": "contract IQuoter",
          "name": "",
          "type": "address"
        }
      ],
      "stateMutability": "view",
      "type": "function"
    },
    {
      "inputs": [],
      "name": "reIndexAndReweight",
      "outputs": [],
      "stateMutability": "nonpayable",
      "type": "function"
    },
    {
      "inputs": [
        {
          "internalType": "uint256",
          "name": "amountIn",
          "type": "uint256"
        },
        {
          "internalType": "address",
          "name": "_tokenOut",
          "type": "address"
        },
        {
          "internalType": "uint256",
          "name": "_tokenOutSwapVersion",
          "type": "uint256"
        }
      ],
      "name": "redemption",
      "outputs": [
        {
          "internalType": "uint256",
          "name": "",
          "type": "uint256"
        }
      ],
      "stateMutability": "nonpayable",
      "type": "function"
    },
    {
      "inputs": [],
      "name": "renounceOwnership",
      "outputs": [],
      "stateMutability": "nonpayable",
      "type": "function"
    },
    {
      "inputs": [],
      "name": "requestAssetsData",
      "outputs": [
        {
          "internalType": "bytes32",
          "name": "",
          "type": "bytes32"
        }
      ],
      "stateMutability": "nonpayable",
      "type": "function"
    },
    {
      "inputs": [
        {
          "internalType": "uint8",
          "name": "_newFee",
          "type": "uint8"
        }
      ],
      "name": "setFeeRate",
      "outputs": [],
      "stateMutability": "nonpayable",
      "type": "function"
    },
    {
      "inputs": [
        {
          "internalType": "string",
          "name": "_beforeAddress",
          "type": "string"
        },
        {
          "internalType": "string",
          "name": "_afterAddress",
          "type": "string"
        }
      ],
      "name": "setUrl",
      "outputs": [],
      "stateMutability": "nonpayable",
      "type": "function"
    },
    {
      "inputs": [],
      "name": "supplyCeiling",
      "outputs": [
        {
          "internalType": "uint256",
          "name": "",
          "type": "uint256"
        }
      ],
      "stateMutability": "view",
      "type": "function"
    },
    {
      "inputs": [],
      "name": "swapRouterV2",
      "outputs": [
        {
          "internalType": "contract IUniswapV2Router02",
          "name": "",
          "type": "address"
        }
      ],
      "stateMutability": "view",
      "type": "function"
    },
    {
      "inputs": [],
      "name": "swapRouterV3",
      "outputs": [
        {
          "internalType": "contract ISwapRouter",
          "name": "",
          "type": "address"
        }
      ],
      "stateMutability": "view",
      "type": "function"
    },
    {
      "inputs": [
        {
          "internalType": "address",
          "name": "",
          "type": "address"
        }
      ],
      "name": "tokenCurrentListIndex",
      "outputs": [
        {
          "internalType": "uint256",
          "name": "",
          "type": "uint256"
        }
      ],
      "stateMutability": "view",
      "type": "function"
    },
    {
      "inputs": [
        {
          "internalType": "address",
          "name": "",
          "type": "address"
        }
      ],
      "name": "tokenCurrentMarketShare",
      "outputs": [
        {
          "internalType": "uint256",
          "name": "",
          "type": "uint256"
        }
      ],
      "stateMutability": "view",
      "type": "function"
    },
    {
      "inputs": [
        {
          "internalType": "address",
          "name": "",
          "type": "address"
        }
      ],
      "name": "tokenOracleListIndex",
      "outputs": [
        {
          "internalType": "uint256",
          "name": "",
          "type": "uint256"
        }
      ],
      "stateMutability": "view",
      "type": "function"
    },
    {
      "inputs": [
        {
          "internalType": "address",
          "name": "",
          "type": "address"
        }
      ],
      "name": "tokenOracleMarketShare",
      "outputs": [
        {
          "internalType": "uint256",
          "name": "",
          "type": "uint256"
        }
      ],
      "stateMutability": "view",
      "type": "function"
    },
    {
      "inputs": [
        {
          "internalType": "address",
          "name": "",
          "type": "address"
        }
      ],
      "name": "tokenSwapVersion",
      "outputs": [
        {
          "internalType": "uint256",
          "name": "",
          "type": "uint256"
        }
      ],
      "stateMutability": "view",
      "type": "function"
    },
    {
      "inputs": [],
      "name": "totalCurrentList",
      "outputs": [
        {
          "internalType": "uint256",
          "name": "",
          "type": "uint256"
        }
      ],
      "stateMutability": "view",
      "type": "function"
    },
    {
      "inputs": [],
      "name": "totalOracleList",
      "outputs": [
        {
          "internalType": "uint256",
          "name": "",
          "type": "uint256"
        }
      ],
      "stateMutability": "view",
      "type": "function"
    },
    {
      "inputs": [
        {
          "internalType": "address",
          "name": "newOwner",
          "type": "address"
        }
      ],
      "name": "transferOwnership",
      "outputs": [],
      "stateMutability": "nonpayable",
      "type": "function"
    },
    {
      "inputs": [],
      "name": "unpause",
      "outputs": [],
      "stateMutability": "nonpayable",
      "type": "function"
    },
    {
      "inputs": [],
      "name": "weth",
      "outputs": [
        {
          "internalType": "contract IWETH",
          "name": "",
          "type": "address"
        }
      ],
      "stateMutability": "view",
      "type": "function"
    },
    {
      "stateMutability": "payable",
      "type": "receive"
    }
  ],
  "bytecode": {
    "object": "0x608060405234801561001057600080fd5b506159e180620000216000396000f3fe6080604052600436106103855760003560e01c80638456cb59116101d1578063b3f0067411610102578063c8b76e70116100a0578063ddca3f431161006f578063ddca3f4314610a62578063e267078a14610a78578063e7d015f214610a98578063f2fde38b14610ab857600080fd5b8063c8b76e70146109df578063c8f33c91146109ff578063d153b60c14610a15578063d90bc21114610a3557600080fd5b8063bf938db8116100dc578063bf938db814610959578063c01bc98214610979578063c6bbd5a7146109a9578063c8599ded146109c957600080fd5b8063b3f00674146108f9578063b5ed298a14610919578063b631e80b1461093957600080fd5b80639f8e67bf1161016f578063a8509fd811610149578063a8509fd81461088e578063a8b54bd4146108a3578063abdd5f3f146108b9578063b3951b67146108d957600080fd5b80639f8e67bf14610839578063a2ab905d14610859578063a73e1cbf1461086e57600080fd5b8063914f0cc6116101ab578063914f0cc614610795578063978bbdb9146107c25780639932ba4c146107ee5780639eeb1d501461082457600080fd5b80638456cb59146107355780638c88c10c1461074a5780638da5cb5b1461077757600080fd5b80632fecd589116102b657806353fd43321161025457806368e0d4e11161022357806368e0d4e1146106cb578063715018a6146106eb578063744fbc7a146107005780637ca58c551461072057600080fd5b806353fd43321461065157806354725645146106675780635c975abb14610687578063686f9175146106ab57600080fd5b80633f4ba83a116102905780633f4ba83a146105cf5780633fc8cef3146105e45780634b3e0b80146106045780635177942a1461063157600080fd5b80632fecd5891461058457806336aab86c1461059a578063372d4c55146105bc57600080fd5b8063156a5da1116103235780631ff01563116102fd5780631ff01563146104f8578063239aad0d146105185780632b52684d1461054e5780632b9522e01461056457600080fd5b8063156a5da1146104a2578063184a732f146104c25780631d5f45f5146104d857600080fd5b80630be527131161035f5780630be52713146104125780630c02e1301461043f5780630e3293571461045557806313cb1f831461048257600080fd5b8063011ced5f1461039157806302e04015146103ba57806307546172146103da57600080fd5b3661038c57005b600080fd5b34801561039d57600080fd5b506103a760d35481565b6040519081526020015b60405180910390f35b3480156103c657600080fd5b506103a76103d5366004615267565b610ad8565b3480156103e657600080fd5b5060d8546103fa906001600160a01b031681565b6040516001600160a01b0390911681526020016103b1565b34801561041e57600080fd5b506103a761042d366004614d0c565b60e76020526000908152604090205481565b34801561044b57600080fd5b506103a760df5481565b34801561046157600080fd5b506104756104703660046151dc565b610bfb565b6040516103b1919061541e565b34801561048e57600080fd5b506103a761049d366004614ebf565b610c28565b3480156104ae57600080fd5b506103a76104bd366004614ebf565b610d7c565b3480156104ce57600080fd5b506103a760d55481565b3480156104e457600080fd5b5060eb546103fa906001600160a01b031681565b34801561050457600080fd5b506103a7610513366004615267565b610f61565b34801561052457600080fd5b506103fa610533366004615235565b60e3602052600090815260409020546001600160a01b031681565b34801561055a57600080fd5b506103a760da5481565b34801561057057600080fd5b506103a761057f366004615267565b61118f565b34801561059057600080fd5b506103a760d45481565b3480156105a657600080fd5b506105ba6105b536600461514b565b611760565b005b6105ba6105ca366004615235565b611aa6565b3480156105db57600080fd5b506105ba611f47565b3480156105f057600080fd5b5060ee546103fa906001600160a01b031681565b34801561061057600080fd5b506103a761061f366004614d0c565b60e86020526000908152604090205481565b34801561063d57600080fd5b506105ba61064c36600461528e565b611f59565b34801561065d57600080fd5b506103a760e25481565b34801561067357600080fd5b506105ba610682366004614d46565b612099565b34801561069357600080fd5b50609e5460ff165b60405190151581526020016103b1565b3480156106b757600080fd5b506103a76106c6366004614e7e565b612312565b3480156106d757600080fd5b5060ed546103fa906001600160a01b031681565b3480156106f757600080fd5b506105ba6124ea565b34801561070c57600080fd5b5060ec546103fa906001600160a01b031681565b34801561072c57600080fd5b506103a76124fc565b34801561074157600080fd5b506105ba612797565b34801561075657600080fd5b506103a7610765366004614d0c565b60e56020526000908152604090205481565b34801561078357600080fd5b506039546001600160a01b03166103fa565b3480156107a157600080fd5b506103a76107b0366004614d0c565b60e66020526000908152604090205481565b3480156107ce57600080fd5b5060d2546107dc9060ff1681565b60405160ff90911681526020016103b1565b3480156107fa57600080fd5b506103fa610809366004615235565b60e4602052600090815260409020546001600160a01b031681565b34801561083057600080fd5b506104756127a7565b34801561084557600080fd5b5060d7546103fa906001600160a01b031681565b34801561086557600080fd5b506105ba612835565b34801561087a57600080fd5b506105ba6108893660046151dc565b612a8e565b34801561089a57600080fd5b506103a7612ac2565b3480156108af57600080fd5b506103a760de5481565b3480156108c557600080fd5b506105ba6108d4366004614f05565b612bbd565b3480156108e557600080fd5b506103a76108f4366004615267565b612fb0565b34801561090557600080fd5b5060d6546103fa906001600160a01b031681565b34801561092557600080fd5b506105ba610934366004614d0c565b613176565b34801561094557600080fd5b5060ea546103fa906001600160a01b031681565b34801561096557600080fd5b506103a7610974366004614e0d565b6131c6565b34801561098557600080fd5b5061069b610994366004614d0c565b60db6020526000908152604090205460ff1681565b3480156109b557600080fd5b5060ef546103fa906001600160a01b031681565b3480156109d557600080fd5b506103a760e15481565b3480156109eb57600080fd5b506103a76109fa366004615267565b61327f565b348015610a0b57600080fd5b506103a760e05481565b348015610a2157600080fd5b50606b546103fa906001600160a01b031681565b348015610a4157600080fd5b506103a7610a50366004614d0c565b60e96020526000908152604090205481565b348015610a6e57600080fd5b506103a760d15481565b348015610a8457600080fd5b506105ba610a93366004614f3a565b6132be565b348015610aa457600080fd5b5060d0546103fa906001600160a01b031681565b348015610ac457600080fd5b506105ba610ad3366004614d0c565b61354e565b600080610ae3612ac2565b9050600060d060009054906101000a90046001600160a01b03166001600160a01b03166318160ddd6040518163ffffffff1660e01b815260040160206040518083038186803b158015610b3557600080fd5b505afa158015610b49573d6000803e3d6000fd5b505050506040513d601f19601f82011682018060405250810190610b6d919061524e565b610b7f87670de0b6b3a7640000615762565b610b899190615634565b90506000670de0b6b3a7640000610ba08484615762565b610baa9190615634565b60ee549091506001600160a01b0387811691161415610bcd579250610bf4915050565b60ee54600090610be8906001600160a01b0316888489610c28565b9450610bf49350505050565b9392505050565b60608282604051602001610c10929190615316565b60405160208183030381529060405290505b92915050565b6000808315610d71578260031415610c4e57610c4786868660016131c6565b9050610d71565b6040805160028082526060820183526000926020830190803683370190505090508681600081518110610c8357610c83615912565b60200260200101906001600160a01b031690816001600160a01b0316815250508581600181518110610cb757610cb7615912565b6001600160a01b03928316602091820292909201015260ec5460405163d06ca61f60e01b8152600092919091169063d06ca61f90610cfb9089908690600401615510565b60006040518083038186803b158015610d1357600080fd5b505afa158015610d27573d6000803e3d6000fd5b505050506040513d6000823e601f3d908101601f19168201604052610d4f9190810190615092565b905080600181518110610d6457610d64615912565b6020026020010151925050505b90505b949350505050565b60008160031415610e335760ef5460405163f7729d4360e01b81526001600160a01b0387811660048301528681166024830152610bb860448301526064820186905260006084830181905292169063f7729d439060a401602060405180830381600087803b158015610ded57600080fd5b505af1925050508015610e1d575060408051601f3d908101601f19168201909252610e1a9181019061524e565b60015b610e2957506000610e2c565b90505b9050610d74565b6040805160028082526060820183526000926020830190803683370190505090508581600081518110610e6857610e68615912565b60200260200101906001600160a01b031690816001600160a01b0316815250508481600181518110610e9c57610e9c615912565b6001600160a01b03928316602091820292909201015260ec5460405163d06ca61f60e01b8152600092919091169063d06ca61f90610ee09088908690600401615510565b60006040518083038186803b158015610ef857600080fd5b505afa925050508015610f2d57506040513d6000823e601f3d908101601f19168201604052610f2a9190810190615092565b60015b610f3957506000610f58565b80600181518110610f4c57610f4c615912565b60200260200101519150505b9150610d749050565b60008060d060009054906101000a90046001600160a01b03166001600160a01b03166318160ddd6040518163ffffffff1660e01b815260040160206040518083038186803b158015610fb257600080fd5b505afa158015610fc6573d6000803e3d6000fd5b505050506040513d601f19601f82011682018060405250810190610fea919061524e565b610ffc86670de0b6b3a7640000615762565b6110069190615634565b90506000805b60e25481101561112357600081815260e460205260408082205460d05491516370a0823160e01b81526001600160a01b039283166004820152670de0b6b3a764000092909116906370a082319060240160206040518083038186803b15801561107457600080fd5b505afa158015611088573d6000803e3d6000fd5b505050506040513d601f19601f820116820180604052508101906110ac919061524e565b6110b69086615762565b6110c09190615634565b600083815260e4602090815260408083205460ee546001600160a01b0391821680865260e990945291842054949550929361110093909116908590610d7c565b905061110c81856155b8565b93505050808061111b90615895565b91505061100c565b5060d2546000906127109061113b9060ff1684615762565b6111459190615634565b905061115181836157f9565b60ee549092506001600160a01b038781169116141561117457509150610bf49050565b60ee54600090610be8906001600160a01b0316888589610d7c565b60008060d060009054906101000a90046001600160a01b03166001600160a01b03166318160ddd6040518163ffffffff1660e01b815260040160206040518083038186803b1580156111e057600080fd5b505afa1580156111f4573d6000803e3d6000fd5b505050506040513d601f19601f82011682018060405250810190611218919061524e565b61122a86670de0b6b3a7640000615762565b6112349190615634565b60d054604051632770a7eb60e21b8152336004820152602481018890529192506001600160a01b031690639dc29fac90604401600060405180830381600087803b15801561128157600080fd5b505af1158015611295573d6000803e3d6000fd5b5060009250829150505b60e2548110156113b857600081815260e460205260408082205460d05491516370a0823160e01b81526001600160a01b039283166004820152670de0b6b3a764000092909116906370a082319060240160206040518083038186803b15801561130757600080fd5b505afa15801561131b573d6000803e3d6000fd5b505050506040513d601f19601f8201168201806040525081019061133f919061524e565b6113499086615762565b6113539190615634565b600083815260e4602090815260408083205460ee546001600160a01b0391821680865260e9909452918420549495509293611395939091169085903090613676565b90506113a181856155b8565b9350505080806113b090615895565b91505061129f565b5060d254600090612710906113d09060ff1684615762565b6113da9190615634565b60ee549091506001600160a01b03878116911614156115f55760ee54604051632e1a7d4d60e01b8152600481018490526001600160a01b0390911690632e1a7d4d90602401600060405180830381600087803b15801561143957600080fd5b505af115801561144d573d6000803e3d6000fd5b5050505060006114656039546001600160a01b031690565b6001600160a01b03168260405160006040518083038185875af1925050503d80600081146114af576040519150601f19603f3d011682016040523d82523d6000602084013e6114b4565b606091505b50509050806114de5760405162461bcd60e51b81526004016114d590615431565b60405180910390fd5b6000336114eb84866157f9565b604051600081818185875af1925050503d8060008114611527576040519150601f19603f3d011682016040523d82523d6000602084013e61152c565b606091505b50509050806115895760405162461bcd60e51b815260206004820152602360248201527f7472616e73666572206574682066656520746f207468652075736572206661696044820152621b195960ea1b60648201526084016114d5565b6001600160a01b038816337f4f808f68134f8b72b842a276c2b37b03415d4992c65a94fcee50d33201915b998b6115c087896157f9565b604080519283526020830191909152429082015260600160405180910390a36115e983856157f9565b95505050505050610bf4565b60ee54604051632e1a7d4d60e01b8152600481018390526001600160a01b0390911690632e1a7d4d90602401600060405180830381600087803b15801561163b57600080fd5b505af115801561164f573d6000803e3d6000fd5b5050505060006116676039546001600160a01b031690565b6001600160a01b03168260405160006040518083038185875af1925050503d80600081146116b1576040519150601f19603f3d011682016040523d82523d6000602084013e6116b6565b606091505b50509050806116d75760405162461bcd60e51b81526004016114d590615431565b60ee546000906116fc906001600160a01b0316896116f586886157f9565b338b61374e565b90506001600160a01b038816337f4f808f68134f8b72b842a276c2b37b03415d4992c65a94fcee50d33201915b998b61173587896157f9565b604080519283526020830191909152429082015260600160405180910390a39450610bf49350505050565b60008481526005602052604090205484906001600160a01b031633146117d95760405162461bcd60e51b815260206004820152602860248201527f536f75726365206d75737420626520746865206f7261636c65206f6620746865604482015267081c995c5d595cdd60c21b60648201526084016114d5565b60008181526005602052604080822080546001600160a01b03191690555182917f7cc135e0cebb02c3480ae5d74d377283180a2601f8f644edf7987b009316c63a91a283838360005b8351811015611a855783818151811061183d5761183d615912565b602002602001015160e3600083815260200190815260200160002060006101000a8154816001600160a01b0302191690836001600160a01b031602179055508060e5600086848151811061189357611893615912565b60200260200101516001600160a01b03166001600160a01b03168152602001908152602001600020819055508281815181106118d1576118d1615912565b602002602001015160e860008684815181106118ef576118ef615912565b60200260200101516001600160a01b03166001600160a01b031681526020019081526020016000208190555081818151811061192d5761192d615912565b602002602001015160e9600086848151811061194b5761194b615912565b60200260200101516001600160a01b03166001600160a01b031681526020019081526020016000208190555060e25460001415611a735783818151811061199457611994615912565b602002602001015160e4600083815260200190815260200160002060006101000a8154816001600160a01b0302191690836001600160a01b031602179055508281815181106119e5576119e5615912565b602002602001015160e76000868481518110611a0357611a03615912565b60200260200101516001600160a01b03166001600160a01b03168152602001908152602001600020819055508060e66000868481518110611a4657611a46615912565b60200260200101516001600160a01b03166001600160a01b03168152602001908152602001600020819055505b80611a7d81615895565b915050611822565b50825160e15560e254611a9857825160e2555b50504260e055505050505050565b60d25460009061271090611abd9060ff1684615762565b611ac79190615634565b90506000611ad582846155b8565b905080341015611b275760405162461bcd60e51b815260206004820152601a60248201527f6c6f776572207468616e20726571756972656420616d6f756e7400000000000060448201526064016114d5565b6000611b3b6039546001600160a01b031690565b6001600160a01b031660d15460405160006040518083038185875af1925050503d8060008114611b87576040519150601f19603f3d011682016040523d82523d6000602084013e611b8c565b606091505b5050905080611bad5760405162461bcd60e51b81526004016114d590615431565b60ee60009054906101000a90046001600160a01b03166001600160a01b031663d0e30db0856040518263ffffffff1660e01b81526004016000604051808303818588803b158015611bfd57600080fd5b505af1158015611c11573d6000803e3d6000fd5b505060ee5460d05460405163a9059cbb60e01b81526001600160a01b039182166004820152602481018a90529116935063a9059cbb92506044019050602060405180830381600087803b158015611c6757600080fd5b505af1158015611c7b573d6000803e3d6000fd5b505050506040513d601f19601f82011682018060405250810190611c9f9190615129565b506000611caa612ac2565b90508460005b60e254811015611d535760ee54600082815260e460209081526040808320546001600160a01b0390811680855260e7909352922054611d4093929092169168056bc75e2d6310000090611d039087615762565b611d0d9190615634565b60d054600086815260e460209081526040808320546001600160a01b03908116845260e990925290912054911690613676565b5080611d4b81615895565b915050611cb0565b5060008060d060009054906101000a90046001600160a01b03166001600160a01b03166318160ddd6040518163ffffffff1660e01b815260040160206040518083038186803b158015611da557600080fd5b505afa158015611db9573d6000803e3d6000fd5b505050506040513d601f19601f82011682018060405250810190611ddd919061524e565b1115611e8657828260d060009054906101000a90046001600160a01b03166001600160a01b03166318160ddd6040518163ffffffff1660e01b815260040160206040518083038186803b158015611e3357600080fd5b505afa158015611e47573d6000803e3d6000fd5b505050506040513d601f19601f82011682018060405250810190611e6b919061524e565b611e759190615762565b611e7f9190615634565b9050611e89565b50805b60d0546040516340c10f1960e01b8152336004820152602481018390526001600160a01b03909116906340c10f1990604401600060405180830381600087803b158015611ed557600080fd5b505af1158015611ee9573d6000803e3d6000fd5b505060ee54604080518b815260208101869052428183015290516001600160a01b0390921693503392507f4fee1c514ee0e252e3a0babfa8b5030fb89be7ea2b38df9a7fbbf788e54f3d91919081900360600190a350505050505050565b611f4f613a66565b611f57613ac0565b565b611f61613a66565b600060d35442611f7191906157f9565b9050600c603c611f818184615634565b611f8b9190615634565b11611ffe5760405162461bcd60e51b815260206004820152603960248201527f596f752073686f756c642077616974206174206c6561737420313220686f757260448201527f7320616674657220746865206c6174657374207570646174650000000000000060648201526084016114d5565b60648260ff1611158015612016575060018260ff1610155b61207e5760405162461bcd60e51b815260206004820152603360248201527f546865206e65774665652073686f756c64206265206265747765656e203120616044820152726e64203130302028302e303125202d2031252960681b60648201526084016114d5565b5060d2805460ff191660ff929092169190911790554260d355565b600654610100900460ff16158080156120b95750600654600160ff909116105b806120d35750303b1580156120d3575060065460ff166001145b6121365760405162461bcd60e51b815260206004820152602e60248201527f496e697469616c697a61626c653a20636f6e747261637420697320616c72656160448201526d191e481a5b9a5d1a585b1a5e995960921b60648201526084016114d5565b6006805460ff191660011790558015612159576006805461ff0019166101001790555b612161613b12565b612169613b41565b60d080546001600160a01b038d166001600160a01b03199091161790556121ad8a600280546001600160a01b039092166001600160a01b0319909216919091179055565b600380546001600160a01b0319166001600160a01b038b1617905560de889055600a6121e2670de0b6b3a76400006001615762565b6121ec9190615634565b60df5560ee80546001600160a01b03808a166001600160a01b03199283161790925560ef805489841690831617905560ea805488841690831617905560eb805487841690831617905560ec805486841690831617905560ed80549285169290911691909117905560d2805460ff1916600a1790554260d3556040805160608101909152602a808252615954602083013980516122909160dc91602090910190614a85565b506040518060600160405280602e815260200161597e602e913980516122be9160dd91602090910190614a85565b508015612305576006805461ff0019169055604051600181527f7f26b83ff96e1f2b6a682f133852f6798a09c465da95921460cefb38474024989060200160405180910390a15b5050505050505050505050565b60ef5460405163f7729d4360e01b81526001600160a01b0385811660048301528481166024830152610bb860448301526064820184905260006084830181905292839291169063f7729d439060a401602060405180830381600087803b15801561237b57600080fd5b505af19250505080156123ab575060408051601f3d908101601f191682019092526123a89181019061524e565b60015b6123b7575060006123ba565b90505b60408051600280825260608201835260009260208301908036833701905050905085816000815181106123ef576123ef615912565b60200260200101906001600160a01b031690816001600160a01b031681525050848160018151811061242357612423615912565b6001600160a01b03928316602091820292909201015260ec5460405163d06ca61f60e01b8152600092919091169063d06ca61f906124679088908690600401615510565b60006040518083038186803b15801561247f57600080fd5b505afa9250505080156124b457506040513d6000823e601f3d908101601f191682016040526124b19190810190615092565b60015b6124c0575060006124df565b806001815181106124d3576124d3615912565b60200260200101519150505b509095945050505050565b6124f2613a66565b611f576000613b70565b60008061261d60dc805461250f90615860565b80601f016020809104026020016040519081016040528092919081815260200182805461253b90615860565b80156125885780601f1061255d57610100808354040283529160200191612588565b820191906000526020600020905b81548152906001019060200180831161256b57829003601f168201915b505050505060dd805461259a90615860565b80601f01602080910402602001604051908101604052809291908181526020018280546125c690615860565b80156126135780601f106125e857610100808354040283529160200191612613565b820191906000526020600020905b8154815290600101906020018083116125f657829003601f168201915b5050505050610bfb565b9050600061263560de54306336aab86c60e01b613bc2565b60408051808201909152600381526219d95d60ea1b602082015290915061265e90829084613bde565b6126b660405180604001604052806005815260200164706174683160d81b8152506040518060400160405280600e81526020016d726573756c74732c746f6b656e7360901b81525083613bde9092919063ffffffff16565b612714604051806040016040528060058152602001643830ba341960d91b81525060405180604001604052806014815260200173726573756c74732c6d61726b657453686172657360601b81525083613bde9092919063ffffffff16565b61277260405180604001604052806005815260200164706174683360d81b81525060405180604001604052806014815260200173726573756c74732c7377617056657273696f6e7360601b81525083613bde9092919063ffffffff16565b6127906127876003546001600160a01b031690565b8260df54613bfc565b9250505090565b61279f613a66565b611f57613c8f565b60d980546127b490615860565b80601f01602080910402602001604051908101604052809291908181526020018280546127e090615860565b801561282d5780601f106128025761010080835404028352916020019161282d565b820191906000526020600020905b81548152906001019060200180831161281057829003601f168201915b505050505081565b61283d613a66565b60005b60e2548110156128f757600081815260e46020526040908190205460ee5460d05492516370a0823160e01b81526001600160a01b0393841660048201526128e493928316929091169082906370a082319060240160206040518083038186803b1580156128ac57600080fd5b505afa1580156128c0573d6000803e3d6000fd5b505050506040513d601f19601f82011682018060405250810190611d0d919061524e565b50806128ef81615895565b915050612840565b5060ee5460d0546040516370a0823160e01b81526001600160a01b03918216600482015260009291909116906370a082319060240160206040518083038186803b15801561294457600080fd5b505afa158015612958573d6000803e3d6000fd5b505050506040513d601f19601f8201168201806040525081019061297c919061524e565b905060005b60e154811015612a845760ee54600082815260e360209081526040808320546001600160a01b0390811680855260e8909352922054612a1193929092169168056bc75e2d63100000906129d49087615762565b6129de9190615634565b60d054600086815260e360209081526040808320546001600160a01b03908116845260e990925290912054911690613676565b50600081815260e360209081526040808320805460e4845282852080546001600160a01b0319166001600160a01b0392831617905581548116855260e884528285205460e7855283862055905416835260e582528083205460e69092529091205580612a7c81615895565b915050612981565b505060e15460e255565b612a96613a66565b8151612aa99060dc906020850190614a85565b508051612abd9060dd906020840190614a85565b505050565b60008060005b60e254811015612bb757600081815260e460205260408082205460ee5460d05492516370a0823160e01b81526001600160a01b039384166004820152612b9593928316929091169082906370a082319060240160206040518083038186803b158015612b3357600080fd5b505afa158015612b47573d6000803e3d6000fd5b505050506040513d601f19601f82011682018060405250810190612b6b919061524e565b600086815260e460209081526040808320546001600160a01b0316835260e9909152902054610c28565b9050612ba181846155b8565b9250508080612baf90615895565b915050612ac8565b50919050565b60d25460009061271090612bd49060ff1685615762565b612bde9190615634565b90506000612bec82856155b8565b90506000612bf8612ac2565b60d0546040516323b872dd60e01b81523360048201526001600160a01b039182166024820152604481018890529192508716906323b872dd90606401602060405180830381600087803b158015612c4e57600080fd5b505af1158015612c62573d6000803e3d6000fd5b505050506040513d601f19601f82011682018060405250810190612c869190615129565b50856001600160a01b03166323b872dd33612ca96039546001600160a01b031690565b6040516001600160e01b031960e085901b1681526001600160a01b0392831660048201529116602482015260448101869052606401602060405180830381600087803b158015612cf857600080fd5b505af1158015612d0c573d6000803e3d6000fd5b505050506040513d601f19601f82011682018060405250810190612d309190615129565b5060ee5460d054600091612d559189916001600160a01b03908116918a911689613676565b905060005b60e254811015612dc05760ee54600082815260e460209081526040808320546001600160a01b0390811680855260e7909352922054612dad93929092169168056bc75e2d6310000090611d039087615762565b5080612db881615895565b915050612d5a565b5060008060d060009054906101000a90046001600160a01b03166001600160a01b03166318160ddd6040518163ffffffff1660e01b815260040160206040518083038186803b158015612e1257600080fd5b505afa158015612e26573d6000803e3d6000fd5b505050506040513d601f19601f82011682018060405250810190612e4a919061524e565b1115612ef357828260d060009054906101000a90046001600160a01b03166001600160a01b03166318160ddd6040518163ffffffff1660e01b815260040160206040518083038186803b158015612ea057600080fd5b505afa158015612eb4573d6000803e3d6000fd5b505050506040513d601f19601f82011682018060405250810190612ed8919061524e565b612ee29190615762565b612eec9190615634565b9050612ef6565b50805b60d0546040516340c10f1960e01b8152336004820152602481018390526001600160a01b03909116906340c10f1990604401600060405180830381600087803b158015612f4257600080fd5b505af1158015612f56573d6000803e3d6000fd5b5050604080518a815260208101859052428183015290516001600160a01b038c1693503392507f4fee1c514ee0e252e3a0babfa8b5030fb89be7ea2b38df9a7fbbf788e54f3d919181900360600190a35050505050505050565b60ee546000906001600160a01b0384811691161415613090576000612fd3612ac2565b9050600060d060009054906101000a90046001600160a01b03166001600160a01b03166318160ddd6040518163ffffffff1660e01b815260040160206040518083038186803b15801561302557600080fd5b505afa158015613039573d6000803e3d6000fd5b505050506040513d601f19601f8201168201806040525081019061305d919061524e565b90506000811561308357826130728884615762565b61307c9190615634565b9050613086565b50855b9250610bf4915050565b60ee546000906130ac9085906001600160a01b03168786610c28565b905060006130b8612ac2565b9050600060d060009054906101000a90046001600160a01b03166001600160a01b03166318160ddd6040518163ffffffff1660e01b815260040160206040518083038186803b15801561310a57600080fd5b505afa15801561311e573d6000803e3d6000fd5b505050506040513d601f19601f82011682018060405250810190613142919061524e565b90506000811561316857826131578584615762565b6131619190615634565b905061316b565b50825b9350610bf492505050565b61317e613a66565b6001600160a01b0381166131a45760405162461bcd60e51b81526004016114d590615475565b606b80546001600160a01b0319166001600160a01b0392909216919091179055565b60eb54604051630b4c774160e11b81526001600160a01b0386811660048301528581166024830152610bb860448301526000928392911690631698ee829060640160206040518083038186803b15801561321f57600080fd5b505afa158015613233573d6000803e3d6000fd5b505050506040513d601f19601f820116820180604052508101906132579190614d29565b905060006132658285613ccc565b50905061327481868989613f22565b979650505050505050565b60ee546000906001600160a01b03848116911614156132a2576000612fd3612ac2565b60ee546000906130ac9085906001600160a01b03168786610d7c565b6132c6613a66565b82828260005b835181101561352f578381815181106132e7576132e7615912565b602002602001015160e3600083815260200190815260200160002060006101000a8154816001600160a01b0302191690836001600160a01b031602179055508060e5600086848151811061333d5761333d615912565b60200260200101516001600160a01b03166001600160a01b031681526020019081526020016000208190555082818151811061337b5761337b615912565b602002602001015160e8600086848151811061339957613399615912565b60200260200101516001600160a01b03166001600160a01b03168152602001908152602001600020819055508181815181106133d7576133d7615912565b602002602001015160e960008684815181106133f5576133f5615912565b60200260200101516001600160a01b03166001600160a01b031681526020019081526020016000208190555060e2546000141561351d5783818151811061343e5761343e615912565b602002602001015160e4600083815260200190815260200160002060006101000a8154816001600160a01b0302191690836001600160a01b0316021790555082818151811061348f5761348f615912565b602002602001015160e760008684815181106134ad576134ad615912565b60200260200101516001600160a01b03166001600160a01b03168152602001908152602001600020819055508060e660008684815181106134f0576134f0615912565b60200260200101516001600160a01b03166001600160a01b03168152602001908152602001600020819055505b8061352781615895565b9150506132cc565b50825160e15560e25461354257825160e2555b50504260e05550505050565b6001600160a01b0381166135745760405162461bcd60e51b81526004016114d590615475565b606b546001600160a01b038281169116146135ec5760405162461bcd60e51b815260206004820152603260248201527f50726f706f7361626c654f776e61626c653a206e6577206f776e6572206973206044820152713737ba10383937b837b9b2b21037bbb732b960711b60648201526084016114d5565b6001600160a01b038116331461366a5760405162461bcd60e51b815260206004820152603a60248201527f50726f706f7361626c654f776e61626c653a20746869732063616c6c206d757360448201527f74206265206d61646520627920746865206e6577206f776e657200000000000060648201526084016114d5565b61367381613b70565b50565b60008061368587878786610c28565b90506000811561372f5760d0546040516305f370ed60e41b81526001600160a01b038a8116600483015289811660248301526044820189905287811660648301526084820187905290911690635f370ed09060a401602060405180830381600087803b1580156136f457600080fd5b505af1158015613708573d6000803e3d6000fd5b505050506040513d601f19601f8201168201806040525081019061372c919061524e565b90505b83600314156137415791506137459050565b5090505b95945050505050565b600081600314156138f35760ea5460405163095ea7b360e01b81526001600160a01b039182166004820152602481018690529087169063095ea7b390604401602060405180830381600087803b1580156137a757600080fd5b505af11580156137bb573d6000803e3d6000fd5b505050506040513d601f19601f820116820180604052508101906137df9190615129565b5060408051610100810182526001600160a01b03888116825287811660208301908152610bb883850190815287831660608501908152426080860190815260a086018b8152600060c0880181815260e0890182815260ea549a5163414bf38960e01b81528a518a166004820152975189166024890152955162ffffff166044880152935187166064870152915160848601525160a4850152905160c48401529051831660e483015292939091169063414bf3899061010401602060405180830381600087803b1580156138b157600080fd5b505af11580156138c5573d6000803e3d6000fd5b505050506040513d601f19601f820116820180604052508101906138e9919061524e565b9250613745915050565b604080516002808252606082018352600092602083019080368337019050509050868160008151811061392857613928615912565b60200260200101906001600160a01b031690816001600160a01b031681525050858160018151811061395c5761395c615912565b6001600160a01b03928316602091820292909201015260ec5460405163095ea7b360e01b81529082166004820152602481018790529088169063095ea7b390604401602060405180830381600087803b1580156139b857600080fd5b505af11580156139cc573d6000803e3d6000fd5b505050506040513d601f19601f820116820180604052508101906139f09190615129565b5060ec54604051635c11d79560e01b81526001600160a01b0390911690635c11d79590613a2a90889060009086908a904290600401615529565b600060405180830381600087803b158015613a4457600080fd5b505af1158015613a58573d6000803e3d6000fd5b505050506000915050613745565b6039546001600160a01b03163314611f575760405162461bcd60e51b815260206004820181905260248201527f4f776e61626c653a2063616c6c6572206973206e6f7420746865206f776e657260448201526064016114d5565b613ac861402c565b609e805460ff191690557f5db9ee0a495bf2e6ff9c91a7834c1ba4fdd244a5e8aa4e537bd38aeae4b073aa335b6040516001600160a01b03909116815260200160405180910390a1565b600654610100900460ff16613b395760405162461bcd60e51b81526004016114d5906154c5565b611f57614075565b600654610100900460ff16613b685760405162461bcd60e51b81526004016114d5906154c5565b611f576140a5565b603980546001600160a01b038381166001600160a01b0319831681179093556040519116919082907f8be0079c531659141344cd1fd0a4f28419497f9722a3daafe3b4186f6b6457e090600090a35050565b613bca614b09565b613bd2614b09565b613745818686866140d8565b6080830151613bed9083614115565b6080830151612abd9082614115565b600454600090613c0d8160016155b8565b600455835160408086015160808701515191516000936320214ca360e11b93613c459386938493923092918a91600191602401615345565b60408051601f198184030181529190526020810180516001600160e01b03166001600160e01b0319909316929092179091529050613c858683868461412c565b9695505050505050565b613c97614299565b609e805460ff191660011790557f62e78cea01bee320cd4e420270b5ea74000d11b0c9f74754ebdbfc544b05a258613af53390565b60008063ffffffff8316613d075760405162461bcd60e51b8152602060048201526002602482015261042560f41b60448201526064016114d5565b6040805160028082526060820183526000926020830190803683370190505090508381600081518110613d3c57613d3c615912565b602002602001019063ffffffff16908163ffffffff1681525050600081600181518110613d6b57613d6b615912565b602002602001019063ffffffff16908163ffffffff1681525050600080866001600160a01b031663883bdbfd846040518263ffffffff1660e01b8152600401613db491906153d4565b60006040518083038186803b158015613dcc57600080fd5b505afa158015613de0573d6000803e3d6000fd5b505050506040513d6000823e601f3d908101601f19168201604052613e089190810190614fc1565b91509150600082600081518110613e2157613e21615912565b602002602001015183600181518110613e3c57613e3c615912565b6020026020010151613e4e9190615781565b9050600082600081518110613e6557613e65615912565b602002602001015183600181518110613e8057613e80615912565b6020026020010151613e9291906157d1565b9050613ea463ffffffff8916836155d0565b965060008260060b128015613eca5750613ec463ffffffff8916836158b0565b60060b15155b15613edd5786613ed98161583c565b9750505b6000613ef66001600160a01b0363ffffffff8b16615733565b9050613f13640100000000600160c01b03602084901b168261560e565b96505050505050509250929050565b600080613f2e866142df565b90506001600160801b036001600160a01b03821611613fb4576000613f5c6001600160a01b03831680615762565b9050836001600160a01b0316856001600160a01b031610613f9457613f8f600160c01b876001600160801b0316836145ff565b613fac565b613fac81876001600160801b0316600160c01b6145ff565b925050614023565b6000613fd36001600160a01b03831680680100000000000000006145ff565b9050836001600160a01b0316856001600160a01b03161061400b57614006600160801b876001600160801b0316836145ff565b613274565b61327481876001600160801b0316600160801b6145ff565b50949350505050565b609e5460ff16611f575760405162461bcd60e51b815260206004820152601460248201527314185d5cd8589b194e881b9bdd081c185d5cd95960621b60448201526064016114d5565b600654610100900460ff1661409c5760405162461bcd60e51b81526004016114d5906154c5565b611f5733613b70565b600654610100900460ff166140cc5760405162461bcd60e51b81526004016114d5906154c5565b609e805460ff19169055565b6140e0614b09565b6140f085608001516101006146b2565b50509183526001600160a01b031660208301526001600160e01b031916604082015290565b6141228260038351614717565b612abd8282614824565b6040516bffffffffffffffffffffffff193060601b1660208201526034810184905260009060540160408051808303601f1901815282825280516020918201206000818152600590925291812080546001600160a01b0319166001600160a01b038a1617905590925082917fb5e6e01e79f91267dc17b4e6314d5d4d03593d2ceee0fbb452b750bd70ea5af99190a2600254604051630200057560e51b81526001600160a01b0390911690634000aea0906141ef908890879087906004016153ad565b602060405180830381600087803b15801561420957600080fd5b505af115801561421d573d6000803e3d6000fd5b505050506040513d601f19601f820116820180604052508101906142419190615129565b610d745760405162461bcd60e51b815260206004820152602360248201527f756e61626c6520746f207472616e73666572416e6443616c6c20746f206f7261604482015262636c6560e81b60648201526084016114d5565b609e5460ff1615611f575760405162461bcd60e51b815260206004820152601060248201526f14185d5cd8589b194e881c185d5cd95960821b60448201526064016114d5565b60008060008360020b126142f6578260020b6142fe565b8260020b6000035b9050620d89e8811115614324576040516315e4079d60e11b815260040160405180910390fd5b60006001821661433857600160801b61434a565b6ffffcb933bd6fad37aa2d162d1a5940015b70ffffffffffffffffffffffffffffffffff169050600282161561437e576ffff97272373d413259a46990580e213a0260801c5b600482161561439d576ffff2e50f5f656932ef12357cf3c7fdcc0260801c5b60088216156143bc576fffe5caca7e10e4e61c3624eaa0941cd00260801c5b60108216156143db576fffcb9843d60f6159c9db58835c9266440260801c5b60208216156143fa576fff973b41fa98c081472e6896dfb254c00260801c5b6040821615614419576fff2ea16466c96a3843ec78b326b528610260801c5b6080821615614438576ffe5dee046a99a2a811c461f1969c30530260801c5b610100821615614458576ffcbe86c7900a88aedcffc83b479aa3a40260801c5b610200821615614478576ff987a7253ac413176f2b074cf7815e540260801c5b610400821615614498576ff3392b0822b70005940c7a398e4b70f30260801c5b6108008216156144b8576fe7159475a2c29b7443b29c7fa6e889d90260801c5b6110008216156144d8576fd097f3bdfd2022b8845ad8f792aa58250260801c5b6120008216156144f8576fa9f746462d870fdf8a65dc1f90e061e50260801c5b614000821615614518576f70d869a156d2a1b890bb3df62baf32f70260801c5b618000821615614538576f31be135f97d08fd981231505542fcfa60260801c5b62010000821615614559576f09aa508b5b7a84e1c677de54f3e99bc90260801c5b62020000821615614579576e5d6af8dedb81196699c329225ee6040260801c5b62040000821615614598576d2216e584f5fa1ea926041bedfe980260801c5b620800008216156145b5576b048a170391f7dc42444e8fa20260801c5b60008460020b13156145d65780600019816145d2576145d26158fc565b0490505b6401000000008106156145ea5760016145ed565b60005b60ff16602082901c0192505050919050565b600080806000198587098587029250828110838203039150508060001415614639576000841161462e57600080fd5b508290049050610bf4565b80841161464557600080fd5b6000848688096000868103871696879004966002600389028118808a02820302808a02820302808a02820302808a02820302808a02820302808a02909103029181900381900460010186841190950394909402919094039290920491909117919091029150509392505050565b6040805180820190915260608152600060208201526146d26020836158d2565b156146fa576146e26020836158d2565b6146ed9060206157f9565b6146f790836155b8565b91505b506020828101829052604080518085526000815290920101905290565b6017816001600160401b0316116147415761473b8360e0600585901b16831761484b565b50505050565b60ff816001600160401b03161161477d57614767836018611fe0600586901b161761484b565b5061473b836001600160401b0383166001614870565b61ffff816001600160401b0316116147ba576147a4836019611fe0600586901b161761484b565b5061473b836001600160401b0383166002614870565b63ffffffff816001600160401b0316116147f9576147e383601a611fe0600586901b161761484b565b5061473b836001600160401b0383166004614870565b61480e83601b611fe0600586901b161761484b565b5061473b836001600160401b0383166008614870565b604080518082019091526060815260006020820152610bf483846000015151848551614896565b604080518082019091526060815260006020820152610bf48384600001515184614980565b604080518082019091526060815260006020820152610d748485600001515185856149dc565b60408051808201909152606081526000602082015282518211156148b957600080fd5b60208501516148c883866155b8565b11156148fb576148fb856148eb876020015187866148e691906155b8565b614a5d565b6148f6906002615762565b614a6e565b60008086518051876020830101935080888701111561491a5787860182525b505050602084015b6020841061495a57805182526149396020836155b8565b91506149466020826155b8565b90506149536020856157f9565b9350614922565b51815160001960208690036101000a019081169019919091161790525083949350505050565b604080518082019091526060815260006020820152836020015183106149b5576149b584856020015160026148f69190615762565b8351805160208583010184815350808514156149d2576001810182525b5093949350505050565b6040805180820190915260608152600060208201526020850151614a0085846155b8565b1115614a1457614a14856148eb86856155b8565b60006001614a248461010061568b565b614a2e91906157f9565b9050855183868201018583198251161781525080518487011115614a525783860181525b509495945050505050565b600081831115612bb7575081610c22565b8151614a7a83836146b2565b5061473b8382614824565b828054614a9190615860565b90600052602060002090601f016020900481019282614ab35760008555614af9565b82601f10614acc57805160ff1916838001178555614af9565b82800160010185558215614af9579182015b82811115614af9578251825591602001919060010190614ade565b50614b05929150614b44565b5090565b6040805160a0810182526000808252602080830182905282840182905260608084018390528451808601909552845283015290608082015290565b5b80821115614b055760008155600101614b45565b600082601f830112614b6a57600080fd5b81356020614b7f614b7a83615595565b615565565b80838252828201915082860187848660051b8901011115614b9f57600080fd5b60005b85811015614bc7578135614bb58161593e565b84529284019290840190600101614ba2565b5090979650505050505050565b600082601f830112614be557600080fd5b81516020614bf5614b7a83615595565b80838252828201915082860187848660051b8901011115614c1557600080fd5b60005b85811015614bc7578151614c2b8161593e565b84529284019290840190600101614c18565b600082601f830112614c4e57600080fd5b81356020614c5e614b7a83615595565b80838252828201915082860187848660051b8901011115614c7e57600080fd5b60005b85811015614bc757813584529284019290840190600101614c81565b600082601f830112614cae57600080fd5b81356001600160401b03811115614cc757614cc7615928565b614cda601f8201601f1916602001615565565b818152846020838601011115614cef57600080fd5b816020850160208301376000918101602001919091529392505050565b600060208284031215614d1e57600080fd5b8135610bf48161593e565b600060208284031215614d3b57600080fd5b8151610bf48161593e565b6000806000806000806000806000806101408b8d031215614d6657600080fd5b8a35614d718161593e565b995060208b0135614d818161593e565b985060408b0135614d918161593e565b975060608b0135965060808b0135614da88161593e565b955060a08b0135614db88161593e565b945060c08b0135614dc88161593e565b935060e08b0135614dd88161593e565b92506101008b0135614de98161593e565b91506101208b0135614dfa8161593e565b809150509295989b9194979a5092959850565b60008060008060808587031215614e2357600080fd5b8435614e2e8161593e565b93506020850135614e3e8161593e565b925060408501356001600160801b0381168114614e5a57600080fd5b9150606085013563ffffffff81168114614e7357600080fd5b939692955090935050565b600080600060608486031215614e9357600080fd5b8335614e9e8161593e565b92506020840135614eae8161593e565b929592945050506040919091013590565b60008060008060808587031215614ed557600080fd5b8435614ee08161593e565b93506020850135614ef08161593e565b93969395505050506040820135916060013590565b600080600060608486031215614f1a57600080fd5b8335614f258161593e565b95602085013595506040909401359392505050565b600080600060608486031215614f4f57600080fd5b83356001600160401b0380821115614f6657600080fd5b614f7287838801614b59565b94506020860135915080821115614f8857600080fd5b614f9487838801614c3d565b93506040860135915080821115614faa57600080fd5b50614fb786828701614c3d565b9150509250925092565b60008060408385031215614fd457600080fd5b82516001600160401b0380821115614feb57600080fd5b818501915085601f830112614fff57600080fd5b8151602061500f614b7a83615595565b8083825282820191508286018a848660051b890101111561502f57600080fd5b600096505b848710156150615780518060060b811461504d57600080fd5b835260019690960195918301918301615034565b509188015191965090935050508082111561507b57600080fd5b5061508885828601614bd4565b9150509250929050565b600060208083850312156150a557600080fd5b82516001600160401b038111156150bb57600080fd5b8301601f810185136150cc57600080fd5b80516150da614b7a82615595565b80828252848201915084840188868560051b87010111156150fa57600080fd5b600094505b8385101561511d5780518352600194909401939185019185016150ff565b50979650505050505050565b60006020828403121561513b57600080fd5b81518015158114610bf457600080fd5b6000806000806080858703121561516157600080fd5b8435935060208501356001600160401b038082111561517f57600080fd5b61518b88838901614b59565b945060408701359150808211156151a157600080fd5b6151ad88838901614c3d565b935060608701359150808211156151c357600080fd5b506151d087828801614c3d565b91505092959194509250565b600080604083850312156151ef57600080fd5b82356001600160401b038082111561520657600080fd5b61521286838701614c9d565b9350602085013591508082111561522857600080fd5b5061508885828601614c9d565b60006020828403121561524757600080fd5b5035919050565b60006020828403121561526057600080fd5b5051919050565b60008060006060848603121561527c57600080fd5b833592506020840135614eae8161593e565b6000602082840312156152a057600080fd5b813560ff81168114610bf457600080fd5b600081518084526020808501945080840160005b83811015614a525781516001600160a01b0316875295820195908201906001016152c5565b60008151808452615302816020860160208601615810565b601f01601f19169290920160200192915050565b60008351615328818460208801615810565b83519083019061533c818360208801615810565b01949350505050565b6001600160a01b0389811682526020820189905260408201889052861660608201526001600160e01b03198516608082015260a0810184905260c0810183905261010060e0820181905260009061539e838201856152ea565b9b9a5050505050505050505050565b60018060a01b038416815282602082015260606040820152600061374560608301846152ea565b6020808252825182820181905260009190848201906040850190845b8181101561541257835163ffffffff16835292840192918401916001016153f0565b50909695505050505050565b602081526000610bf460208301846152ea565b60208082526024908201527f7472616e73666572206574682066656520746f20746865206f776e65722066616040820152631a5b195960e21b606082015260800190565b60208082526030908201527f50726f706f7361626c654f776e61626c653a206e6577206f776e65722069732060408201526f746865207a65726f206164647265737360801b606082015260800190565b6020808252602b908201527f496e697469616c697a61626c653a20636f6e7472616374206973206e6f74206960408201526a6e697469616c697a696e6760a81b606082015260800190565b828152604060208201526000610d7460408301846152b1565b85815284602082015260a06040820152600061554860a08301866152b1565b6001600160a01b0394909416606083015250608001529392505050565b604051601f8201601f191681016001600160401b038111828210171561558d5761558d615928565b604052919050565b60006001600160401b038211156155ae576155ae615928565b5060051b60200190565b600082198211156155cb576155cb6158e6565b500190565b60008160060b8360060b806155e7576155e76158fc565b667fffffffffffff19821460001982141615615605576156056158e6565b90059392505050565b60006001600160c01b0383811680615628576156286158fc565b92169190910492915050565b600082615643576156436158fc565b500490565b600181815b80851115615683578160001904821115615669576156696158e6565b8085161561567657918102915b93841c939080029061564d565b509250929050565b6000610bf483836000826156a157506001610c22565b816156ae57506000610c22565b81600181146156c457600281146156ce576156ea565b6001915050610c22565b60ff8411156156df576156df6158e6565b50506001821b610c22565b5060208310610133831016604e8410600b841016171561570d575081810a610c22565b6157178383615648565b806000190482111561572b5761572b6158e6565b029392505050565b60006001600160c01b0382811684821681151582840482111615615759576157596158e6565b02949350505050565b600081600019048311821515161561577c5761577c6158e6565b500290565b60008160060b8360060b6000811281667fffffffffffff19018312811516156157ac576157ac6158e6565b81667fffffffffffff0183138116156157c7576157c76158e6565b5090039392505050565b60006001600160a01b03838116908316818110156157f1576157f16158e6565b039392505050565b60008282101561580b5761580b6158e6565b500390565b60005b8381101561582b578181015183820152602001615813565b8381111561473b5750506000910152565b60008160020b627fffff19811415615856576158566158e6565b6000190192915050565b600181811c9082168061587457607f821691505b60208210811415612bb757634e487b7160e01b600052602260045260246000fd5b60006000198214156158a9576158a96158e6565b5060010190565b60008260060b806158c3576158c36158fc565b808360060b0791505092915050565b6000826158e1576158e16158fc565b500690565b634e487b7160e01b600052601160045260246000fd5b634e487b7160e01b600052601260045260246000fd5b634e487b7160e01b600052603260045260246000fd5b634e487b7160e01b600052604160045260246000fd5b6001600160a01b038116811461367357600080fdfe68747470733a2f2f6170702e6e65786c6162732e696f2f6170692f616c6c46756e64696e6752617465733f6d756c7469706c7946756e633d31382674696d65734e656746756e643d74727565266172726179733d74727565a26469706673582212206dc083ff2530b6ca9df60ff8c79c732b1f3c5ea44eece1e8e8c788ee84c8ac6264736f6c63430008070033",
    "linkReferences": {}
  },
  "methodIdentifiers": {
    "concatenation(string,string)": "0e329357",
    "currentList(uint256)": "9932ba4c",
    "estimateAmountOut(address,address,uint128,uint32)": "bf938db8",
    "externalJobId()": "a8b54bd4",
    "factoryV2()": "68e0d4e1",
    "factoryV3()": "1d5f45f5",
    "fee()": "ddca3f43",
    "feeRate()": "978bbdb9",
    "feeRatePerDayScaled()": "2fecd589",
    "feeReceiver()": "b3f00674",
    "feeTimestamp()": "184a732f",
    "fulfillAssetsData(bytes32,address[],uint256[],uint256[])": "36aab86c",
    "getAmountOut(address,address,uint256,uint256)": "13cb1f83",
    "getExactAmountOut(address,address,uint256,uint256)": "156a5da1",
    "getExactAmountOut2(address,address,uint256)": "686f9175",
    "getIssuanceAmountOut(uint256,address,uint256)": "b3951b67",
    "getIssuanceAmountOut2(uint256,address,uint256)": "c8b76e70",
    "getPortfolioBalance()": "a8509fd8",
    "getRedemptionAmountOut(uint256,address,uint256)": "02e04015",
    "getRedemptionAmountOut2(uint256,address,uint256)": "1ff01563",
    "indexToken()": "e7d015f2",
    "initialize(address,address,address,bytes32,address,address,address,address,address,address)": "54725645",
    "isRestricted(address)": "c01bc982",
    "issuanceIndexTokens(address,uint256,uint256)": "abdd5f3f",
    "issuanceIndexTokensWithEth(uint256)": "372d4c55",
    "lastUpdateTime()": "c8f33c91",
    "latestFeeUpdate()": "011ced5f",
    "methodologist()": "9f8e67bf",
    "methodology()": "9eeb1d50",
    "minter()": "07546172",
    "mockFillAssetsList(address[],uint256[],uint256[])": "e267078a",
    "oracleList(uint256)": "239aad0d",
    "oraclePayment()": "0c02e130",
    "owner()": "8da5cb5b",
    "pause()": "8456cb59",
    "paused()": "5c975abb",
    "proposeOwner(address)": "b5ed298a",
    "proposedOwner()": "d153b60c",
    "quoter()": "c6bbd5a7",
    "reIndexAndReweight()": "a2ab905d",
    "redemption(uint256,address,uint256)": "2b9522e0",
    "renounceOwnership()": "715018a6",
    "requestAssetsData()": "7ca58c55",
    "setFeeRate(uint8)": "5177942a",
    "setUrl(string,string)": "a73e1cbf",
    "supplyCeiling()": "2b52684d",
    "swapRouterV2()": "744fbc7a",
    "swapRouterV3()": "b631e80b",
    "tokenCurrentListIndex(address)": "914f0cc6",
    "tokenCurrentMarketShare(address)": "0be52713",
    "tokenOracleListIndex(address)": "8c88c10c",
    "tokenOracleMarketShare(address)": "4b3e0b80",
    "tokenSwapVersion(address)": "d90bc211",
    "totalCurrentList()": "53fd4332",
    "totalOracleList()": "c8599ded",
    "transferOwnership(address)": "f2fde38b",
    "unpause()": "3f4ba83a",
    "weth()": "3fc8cef3"
  },
  "id": 2
}