{
  "abi": [
    {
      "inputs": [],
      "name": "T",
      "type": "error"
    },
    {
      "anonymous": false,
      "inputs": [
        {
          "indexed": true,
          "internalType": "bytes32",
          "name": "id",
          "type": "bytes32"
        }
      ],
      "name": "ChainlinkCancelled",
      "type": "event"
    },
    {
      "anonymous": false,
      "inputs": [
        {
          "indexed": true,
          "internalType": "bytes32",
          "name": "id",
          "type": "bytes32"
        }
      ],
      "name": "ChainlinkFulfilled",
      "type": "event"
    },
    {
      "anonymous": false,
      "inputs": [
        {
          "indexed": true,
          "internalType": "bytes32",
          "name": "id",
          "type": "bytes32"
        }
      ],
      "name": "ChainlinkRequested",
      "type": "event"
    },
    {
      "anonymous": false,
      "inputs": [
        {
          "indexed": true,
          "internalType": "uint256",
          "name": "feeRatePerDayScaled",
          "type": "uint256"
        }
      ],
      "name": "FeeRateSet",
      "type": "event"
    },
    {
      "anonymous": false,
      "inputs": [
        {
          "indexed": true,
          "internalType": "address",
          "name": "feeReceiver",
          "type": "address"
        }
      ],
      "name": "FeeReceiverSet",
      "type": "event"
    },
    {
      "anonymous": false,
      "inputs": [
        {
          "indexed": false,
          "internalType": "uint8",
          "name": "version",
          "type": "uint8"
        }
      ],
      "name": "Initialized",
      "type": "event"
    },
    {
      "anonymous": false,
      "inputs": [
        {
          "indexed": true,
          "internalType": "address",
          "name": "user",
          "type": "address"
        },
        {
          "indexed": true,
          "internalType": "address",
          "name": "inputToken",
          "type": "address"
        },
        {
          "indexed": false,
          "internalType": "uint256",
          "name": "inputAmount",
          "type": "uint256"
        },
        {
          "indexed": false,
          "internalType": "uint256",
          "name": "outputAmount",
          "type": "uint256"
        },
        {
          "indexed": false,
          "internalType": "uint256",
          "name": "time",
          "type": "uint256"
        }
      ],
      "name": "Issuanced",
      "type": "event"
    },
    {
      "anonymous": false,
      "inputs": [
        {
          "indexed": true,
          "internalType": "address",
          "name": "methodologist",
          "type": "address"
        }
      ],
      "name": "MethodologistSet",
      "type": "event"
    },
    {
      "anonymous": false,
      "inputs": [
        {
          "indexed": false,
          "internalType": "string",
          "name": "methodology",
          "type": "string"
        }
      ],
      "name": "MethodologySet",
      "type": "event"
    },
    {
      "anonymous": false,
      "inputs": [
        {
          "indexed": false,
          "internalType": "address",
          "name": "feeReceiver",
          "type": "address"
        },
        {
          "indexed": false,
          "internalType": "uint256",
          "name": "timestamp",
          "type": "uint256"
        },
        {
          "indexed": false,
          "internalType": "uint256",
          "name": "totalSupply",
          "type": "uint256"
        },
        {
          "indexed": false,
          "internalType": "uint256",
          "name": "amount",
          "type": "uint256"
        }
      ],
      "name": "MintFeeToReceiver",
      "type": "event"
    },
    {
      "anonymous": false,
      "inputs": [
        {
          "indexed": true,
          "internalType": "address",
          "name": "minter",
          "type": "address"
        }
      ],
      "name": "MinterSet",
      "type": "event"
    },
    {
      "anonymous": false,
      "inputs": [
        {
          "indexed": true,
          "internalType": "address",
          "name": "previousOwner",
          "type": "address"
        },
        {
          "indexed": true,
          "internalType": "address",
          "name": "newOwner",
          "type": "address"
        }
      ],
      "name": "OwnershipTransferred",
      "type": "event"
    },
    {
      "anonymous": false,
      "inputs": [
        {
          "indexed": false,
          "internalType": "address",
          "name": "account",
          "type": "address"
        }
      ],
      "name": "Paused",
      "type": "event"
    },
    {
      "anonymous": false,
      "inputs": [
        {
          "indexed": true,
          "internalType": "address",
          "name": "user",
          "type": "address"
        },
        {
          "indexed": true,
          "internalType": "address",
          "name": "outputToken",
          "type": "address"
        },
        {
          "indexed": false,
          "internalType": "uint256",
          "name": "inputAmount",
          "type": "uint256"
        },
        {
          "indexed": false,
          "internalType": "uint256",
          "name": "outputAmount",
          "type": "uint256"
        },
        {
          "indexed": false,
          "internalType": "uint256",
          "name": "time",
          "type": "uint256"
        }
      ],
      "name": "Redemption",
      "type": "event"
    },
    {
      "anonymous": false,
      "inputs": [
        {
          "indexed": false,
          "internalType": "uint256",
          "name": "supplyCeiling",
          "type": "uint256"
        }
      ],
      "name": "SupplyCeilingSet",
      "type": "event"
    },
    {
      "anonymous": false,
      "inputs": [
        {
          "indexed": true,
          "internalType": "address",
          "name": "account",
          "type": "address"
        },
        {
          "indexed": false,
          "internalType": "bool",
          "name": "isRestricted",
          "type": "bool"
        }
      ],
      "name": "ToggledRestricted",
      "type": "event"
    },
    {
      "anonymous": false,
      "inputs": [
        {
          "indexed": false,
          "internalType": "address",
          "name": "account",
          "type": "address"
        }
      ],
      "name": "Unpaused",
      "type": "event"
    },
    {
      "inputs": [],
      "name": "BONE",
      "outputs": [
        {
          "internalType": "address",
          "name": "",
          "type": "address"
        }
      ],
      "stateMutability": "view",
      "type": "function"
    },
    {
      "inputs": [],
      "name": "BabyDoge",
      "outputs": [
        {
          "internalType": "address",
          "name": "",
          "type": "address"
        }
      ],
      "stateMutability": "view",
      "type": "function"
    },
    {
      "inputs": [],
      "name": "ELON",
      "outputs": [
        {
          "internalType": "address",
          "name": "",
          "type": "address"
        }
      ],
      "stateMutability": "view",
      "type": "function"
    },
    {
      "inputs": [],
      "name": "FLOKI",
      "outputs": [
        {
          "internalType": "address",
          "name": "",
          "type": "address"
        }
      ],
      "stateMutability": "view",
      "type": "function"
    },
    {
      "inputs": [],
      "name": "HarryPotterObamaSonic10Inu",
      "outputs": [
        {
          "internalType": "address",
          "name": "",
          "type": "address"
        }
      ],
      "stateMutability": "view",
      "type": "function"
    },
    {
      "inputs": [],
      "name": "LEASH",
      "outputs": [
        {
          "internalType": "address",
          "name": "",
          "type": "address"
        }
      ],
      "stateMutability": "view",
      "type": "function"
    },
    {
      "inputs": [],
      "name": "MEME",
      "outputs": [
        {
          "internalType": "address",
          "name": "",
          "type": "address"
        }
      ],
      "stateMutability": "view",
      "type": "function"
    },
    {
      "inputs": [],
      "name": "PEPE",
      "outputs": [
        {
          "internalType": "address",
          "name": "",
          "type": "address"
        }
      ],
      "stateMutability": "view",
      "type": "function"
    },
    {
      "inputs": [],
      "name": "SHIB",
      "outputs": [
        {
          "internalType": "address",
          "name": "",
          "type": "address"
        }
      ],
      "stateMutability": "view",
      "type": "function"
    },
    {
      "inputs": [],
      "name": "WSM",
      "outputs": [
        {
          "internalType": "address",
          "name": "",
          "type": "address"
        }
      ],
      "stateMutability": "view",
      "type": "function"
    },
    {
      "inputs": [
        {
          "internalType": "uint256",
          "name": "",
          "type": "uint256"
        }
      ],
      "name": "assetList",
      "outputs": [
        {
          "internalType": "address",
          "name": "",
          "type": "address"
        }
      ],
      "stateMutability": "view",
      "type": "function"
    },
    {
      "inputs": [
        {
          "internalType": "string",
          "name": "a",
          "type": "string"
        },
        {
          "internalType": "string",
          "name": "b",
          "type": "string"
        }
      ],
      "name": "concatenation",
      "outputs": [
        {
          "internalType": "string",
          "name": "",
          "type": "string"
        }
      ],
      "stateMutability": "pure",
      "type": "function"
    },
    {
      "inputs": [
        {
          "internalType": "uint256",
          "name": "",
          "type": "uint256"
        }
      ],
      "name": "currentList",
      "outputs": [
        {
          "internalType": "address",
          "name": "",
          "type": "address"
        }
      ],
      "stateMutability": "view",
      "type": "function"
    },
    {
      "inputs": [
        {
          "internalType": "address",
          "name": "tokenIn",
          "type": "address"
        },
        {
          "internalType": "address",
          "name": "tokenOut",
          "type": "address"
        },
        {
          "internalType": "uint128",
          "name": "amountIn",
          "type": "uint128"
        },
        {
          "internalType": "uint32",
          "name": "secondsAgo",
          "type": "uint32"
        }
      ],
      "name": "estimateAmountOut",
      "outputs": [
        {
          "internalType": "uint256",
          "name": "amountOut",
          "type": "uint256"
        }
      ],
      "stateMutability": "view",
      "type": "function"
    },
    {
      "inputs": [],
      "name": "externalJobId",
      "outputs": [
        {
          "internalType": "bytes32",
          "name": "",
          "type": "bytes32"
        }
      ],
      "stateMutability": "view",
      "type": "function"
    },
    {
      "inputs": [],
      "name": "factoryV2",
      "outputs": [
        {
          "internalType": "contract IUniswapV2Factory",
          "name": "",
          "type": "address"
        }
      ],
      "stateMutability": "view",
      "type": "function"
    },
    {
      "inputs": [],
      "name": "factoryV3",
      "outputs": [
        {
          "internalType": "contract IUniswapV3Factory",
          "name": "",
          "type": "address"
        }
      ],
      "stateMutability": "view",
      "type": "function"
    },
    {
      "inputs": [],
      "name": "fee",
      "outputs": [
        {
          "internalType": "uint256",
          "name": "",
          "type": "uint256"
        }
      ],
      "stateMutability": "view",
      "type": "function"
    },
    {
      "inputs": [],
      "name": "feeRate",
      "outputs": [
        {
          "internalType": "uint8",
          "name": "",
          "type": "uint8"
        }
      ],
      "stateMutability": "view",
      "type": "function"
    },
    {
      "inputs": [],
      "name": "feeRatePerDayScaled",
      "outputs": [
        {
          "internalType": "uint256",
          "name": "",
          "type": "uint256"
        }
      ],
      "stateMutability": "view",
      "type": "function"
    },
    {
      "inputs": [],
      "name": "feeReceiver",
      "outputs": [
        {
          "internalType": "address",
          "name": "",
          "type": "address"
        }
      ],
      "stateMutability": "view",
      "type": "function"
    },
    {
      "inputs": [],
      "name": "feeTimestamp",
      "outputs": [
        {
          "internalType": "uint256",
          "name": "",
          "type": "uint256"
        }
      ],
      "stateMutability": "view",
      "type": "function"
    },
    {
      "inputs": [
        {
          "internalType": "bytes32",
          "name": "requestId",
          "type": "bytes32"
        },
        {
          "internalType": "address[]",
          "name": "_tokens",
          "type": "address[]"
        },
        {
          "internalType": "uint256[]",
          "name": "_marketShares",
          "type": "uint256[]"
        },
        {
          "internalType": "uint256[]",
          "name": "_swapVersions",
          "type": "uint256[]"
        }
      ],
      "name": "fulfillAssetsData",
      "outputs": [],
      "stateMutability": "nonpayable",
      "type": "function"
    },
    {
      "inputs": [
        {
          "internalType": "address",
          "name": "tokenIn",
          "type": "address"
        },
        {
          "internalType": "address",
          "name": "tokenOut",
          "type": "address"
        },
        {
          "internalType": "uint256",
          "name": "amountIn",
          "type": "uint256"
        },
        {
          "internalType": "uint256",
          "name": "_swapVersion",
          "type": "uint256"
        }
      ],
      "name": "getAmountOut",
      "outputs": [
        {
          "internalType": "uint256",
          "name": "finalAmountOut",
          "type": "uint256"
        }
      ],
      "stateMutability": "view",
      "type": "function"
    },
    {
      "inputs": [],
      "name": "getAmounts",
      "outputs": [
        {
          "internalType": "uint256",
          "name": "",
          "type": "uint256"
        },
        {
          "internalType": "uint256",
          "name": "",
          "type": "uint256"
        }
      ],
      "stateMutability": "nonpayable",
      "type": "function"
    },
    {
      "inputs": [
        {
          "internalType": "uint256",
          "name": "_amountIn",
          "type": "uint256"
        },
        {
          "internalType": "address",
          "name": "_tokenIn",
          "type": "address"
        },
        {
          "internalType": "uint256",
          "name": "_swapVersion",
          "type": "uint256"
        }
      ],
      "name": "getIssuanceAmountOut",
      "outputs": [
        {
          "internalType": "uint256",
          "name": "",
          "type": "uint256"
        }
      ],
      "stateMutability": "view",
      "type": "function"
    },
    {
      "inputs": [],
      "name": "getPool",
      "outputs": [
        {
          "internalType": "address",
          "name": "",
          "type": "address"
        },
        {
          "internalType": "address",
          "name": "",
          "type": "address"
        }
      ],
      "stateMutability": "nonpayable",
      "type": "function"
    },
    {
      "inputs": [],
      "name": "getPortfolioBalance",
      "outputs": [
        {
          "internalType": "uint256",
          "name": "",
          "type": "uint256"
        }
      ],
      "stateMutability": "view",
      "type": "function"
    },
    {
      "inputs": [
        {
          "internalType": "uint256",
          "name": "_amountIn",
          "type": "uint256"
        },
        {
          "internalType": "address",
          "name": "_tokenOut",
          "type": "address"
        },
        {
          "internalType": "uint256",
          "name": "_swapVersion",
          "type": "uint256"
        }
      ],
      "name": "getRedemptionAmountOut",
      "outputs": [
        {
          "internalType": "uint256",
          "name": "",
          "type": "uint256"
        }
      ],
      "stateMutability": "view",
      "type": "function"
    },
    {
      "inputs": [],
      "name": "indexToken",
      "outputs": [
        {
          "internalType": "contract IndexToken",
          "name": "",
          "type": "address"
        }
      ],
      "stateMutability": "view",
      "type": "function"
    },
    {
      "inputs": [
        {
          "internalType": "address payable",
          "name": "_token",
          "type": "address"
        },
        {
          "internalType": "address",
          "name": "_nft",
          "type": "address"
        },
        {
          "internalType": "address",
          "name": "_chainlinkToken",
          "type": "address"
        },
        {
          "internalType": "address",
          "name": "_oracleAddress",
          "type": "address"
        },
        {
          "internalType": "bytes32",
          "name": "_externalJobId",
          "type": "bytes32"
        },
        {
          "internalType": "address",
          "name": "_weth",
          "type": "address"
        },
        {
          "internalType": "address",
          "name": "_quoter",
          "type": "address"
        },
        {
          "internalType": "address",
          "name": "_swapRouterV3",
          "type": "address"
        },
        {
          "internalType": "address",
          "name": "_factoryV3",
          "type": "address"
        },
        {
          "internalType": "address",
          "name": "_swapRouterV2",
          "type": "address"
        },
        {
          "internalType": "address",
          "name": "_factoryV2",
          "type": "address"
        }
      ],
      "name": "initialize",
      "outputs": [],
      "stateMutability": "nonpayable",
      "type": "function"
    },
    {
      "inputs": [
        {
          "internalType": "address",
          "name": "",
          "type": "address"
        }
      ],
      "name": "isRestricted",
      "outputs": [
        {
          "internalType": "bool",
          "name": "",
          "type": "bool"
        }
      ],
      "stateMutability": "view",
      "type": "function"
    },
    {
      "inputs": [
        {
          "internalType": "address",
          "name": "_tokenIn",
          "type": "address"
        },
        {
          "internalType": "uint256",
          "name": "_amountIn",
          "type": "uint256"
        },
        {
          "internalType": "uint256",
          "name": "_tokenInSwapVersion",
          "type": "uint256"
        }
      ],
      "name": "issuanceIndexTokens",
      "outputs": [],
      "stateMutability": "nonpayable",
      "type": "function"
    },
    {
      "inputs": [
        {
          "internalType": "uint256",
          "name": "_inputAmount",
          "type": "uint256"
        }
      ],
      "name": "issuanceIndexTokensWithEth",
      "outputs": [],
      "stateMutability": "payable",
      "type": "function"
    },
    {
      "inputs": [],
      "name": "lastUpdateTime",
      "outputs": [
        {
          "internalType": "uint256",
          "name": "",
          "type": "uint256"
        }
      ],
      "stateMutability": "view",
      "type": "function"
    },
    {
      "inputs": [],
      "name": "latestFeeUpdate",
      "outputs": [
        {
          "internalType": "uint256",
          "name": "",
          "type": "uint256"
        }
      ],
      "stateMutability": "view",
      "type": "function"
    },
    {
      "inputs": [],
      "name": "methodologist",
      "outputs": [
        {
          "internalType": "address",
          "name": "",
          "type": "address"
        }
      ],
      "stateMutability": "view",
      "type": "function"
    },
    {
      "inputs": [],
      "name": "methodology",
      "outputs": [
        {
          "internalType": "string",
          "name": "",
          "type": "string"
        }
      ],
      "stateMutability": "view",
      "type": "function"
    },
    {
      "inputs": [],
      "name": "minter",
      "outputs": [
        {
          "internalType": "address",
          "name": "",
          "type": "address"
        }
      ],
      "stateMutability": "view",
      "type": "function"
    },
    {
      "inputs": [
        {
          "internalType": "address[]",
          "name": "_tokens",
          "type": "address[]"
        },
        {
          "internalType": "uint256[]",
          "name": "_marketShares",
          "type": "uint256[]"
        },
        {
          "internalType": "uint256[]",
          "name": "_swapVersions",
          "type": "uint256[]"
        }
      ],
      "name": "mockFillAssetsList",
      "outputs": [],
      "stateMutability": "nonpayable",
      "type": "function"
    },
    {
      "inputs": [],
      "name": "nft",
      "outputs": [
        {
          "internalType": "contract RequestNFT",
          "name": "",
          "type": "address"
        }
      ],
      "stateMutability": "view",
      "type": "function"
    },
    {
      "inputs": [
        {
          "internalType": "uint256",
          "name": "",
          "type": "uint256"
        }
      ],
      "name": "oracleList",
      "outputs": [
        {
          "internalType": "address",
          "name": "",
          "type": "address"
        }
      ],
      "stateMutability": "view",
      "type": "function"
    },
    {
      "inputs": [],
      "name": "oraclePayment",
      "outputs": [
        {
          "internalType": "uint256",
          "name": "",
          "type": "uint256"
        }
      ],
      "stateMutability": "view",
      "type": "function"
    },
    {
      "inputs": [],
      "name": "owner",
      "outputs": [
        {
          "internalType": "address",
          "name": "",
          "type": "address"
        }
      ],
      "stateMutability": "view",
      "type": "function"
    },
    {
      "inputs": [],
      "name": "pause",
      "outputs": [],
      "stateMutability": "nonpayable",
      "type": "function"
    },
    {
      "inputs": [],
      "name": "paused",
      "outputs": [
        {
          "internalType": "bool",
          "name": "",
          "type": "bool"
        }
      ],
      "stateMutability": "view",
      "type": "function"
    },
    {
      "inputs": [
        {
          "internalType": "address",
          "name": "_proposedOwner",
          "type": "address"
        }
      ],
      "name": "proposeOwner",
      "outputs": [],
      "stateMutability": "nonpayable",
      "type": "function"
    },
    {
      "inputs": [],
      "name": "proposedOwner",
      "outputs": [
        {
          "internalType": "address",
          "name": "",
          "type": "address"
        }
      ],
      "stateMutability": "view",
      "type": "function"
    },
    {
      "inputs": [],
      "name": "quoter",
      "outputs": [
        {
          "internalType": "contract IQuoter",
          "name": "",
          "type": "address"
        }
      ],
      "stateMutability": "view",
      "type": "function"
    },
    {
      "inputs": [],
      "name": "reIndexAndReweight",
      "outputs": [],
      "stateMutability": "nonpayable",
      "type": "function"
    },
    {
      "inputs": [
        {
          "internalType": "uint256",
          "name": "amountIn",
          "type": "uint256"
        },
        {
          "internalType": "address",
          "name": "_tokenOut",
          "type": "address"
        },
        {
          "internalType": "uint256",
          "name": "_tokenOutSwapVersion",
          "type": "uint256"
        }
      ],
      "name": "redemption",
      "outputs": [],
      "stateMutability": "nonpayable",
      "type": "function"
    },
    {
      "inputs": [],
      "name": "renounceOwnership",
      "outputs": [],
      "stateMutability": "nonpayable",
      "type": "function"
    },
    {
      "inputs": [],
      "name": "requestAssetsData",
      "outputs": [
        {
          "internalType": "bytes32",
          "name": "",
          "type": "bytes32"
        }
      ],
      "stateMutability": "nonpayable",
      "type": "function"
    },
    {
      "inputs": [
        {
          "internalType": "uint8",
          "name": "_newFee",
          "type": "uint8"
        }
      ],
      "name": "setFeeRate",
      "outputs": [],
      "stateMutability": "nonpayable",
      "type": "function"
    },
    {
      "inputs": [],
      "name": "supplyCeiling",
      "outputs": [
        {
          "internalType": "uint256",
          "name": "",
          "type": "uint256"
        }
      ],
      "stateMutability": "view",
      "type": "function"
    },
    {
      "inputs": [],
      "name": "swapRouterV2",
      "outputs": [
        {
          "internalType": "contract IUniswapV2Router02",
          "name": "",
          "type": "address"
        }
      ],
      "stateMutability": "view",
      "type": "function"
    },
    {
      "inputs": [],
      "name": "swapRouterV3",
      "outputs": [
        {
          "internalType": "contract ISwapRouter",
          "name": "",
          "type": "address"
        }
      ],
      "stateMutability": "view",
      "type": "function"
    },
    {
      "inputs": [
        {
          "internalType": "address",
          "name": "",
          "type": "address"
        }
      ],
      "name": "tokenCurrentListIndex",
      "outputs": [
        {
          "internalType": "uint256",
          "name": "",
          "type": "uint256"
        }
      ],
      "stateMutability": "view",
      "type": "function"
    },
    {
      "inputs": [
        {
          "internalType": "address",
          "name": "",
          "type": "address"
        }
      ],
      "name": "tokenMarketShare",
      "outputs": [
        {
          "internalType": "uint256",
          "name": "",
          "type": "uint256"
        }
      ],
      "stateMutability": "view",
      "type": "function"
    },
    {
      "inputs": [
        {
          "internalType": "address",
          "name": "",
          "type": "address"
        }
      ],
      "name": "tokenOracleListIndex",
      "outputs": [
        {
          "internalType": "uint256",
          "name": "",
          "type": "uint256"
        }
      ],
      "stateMutability": "view",
      "type": "function"
    },
    {
      "inputs": [
        {
          "internalType": "address",
          "name": "",
          "type": "address"
        }
      ],
      "name": "tokenSwapVersion",
      "outputs": [
        {
          "internalType": "uint256",
          "name": "",
          "type": "uint256"
        }
      ],
      "stateMutability": "view",
      "type": "function"
    },
    {
      "inputs": [],
      "name": "totalCurrentList",
      "outputs": [
        {
          "internalType": "uint256",
          "name": "",
          "type": "uint256"
        }
      ],
      "stateMutability": "view",
      "type": "function"
    },
    {
      "inputs": [],
      "name": "totalOracleList",
      "outputs": [
        {
          "internalType": "uint256",
          "name": "",
          "type": "uint256"
        }
      ],
      "stateMutability": "view",
      "type": "function"
    },
    {
      "inputs": [
        {
          "internalType": "address",
          "name": "newOwner",
          "type": "address"
        }
      ],
      "name": "transferOwnership",
      "outputs": [],
      "stateMutability": "nonpayable",
      "type": "function"
    },
    {
      "inputs": [],
      "name": "unpause",
      "outputs": [],
      "stateMutability": "nonpayable",
      "type": "function"
    },
    {
      "inputs": [],
      "name": "weth",
      "outputs": [
        {
          "internalType": "contract IWETH",
          "name": "",
          "type": "address"
        }
      ],
      "stateMutability": "view",
      "type": "function"
    },
    {
      "stateMutability": "payable",
      "type": "receive"
    }
  ],
  "bytecode": {
    "object": "0x600160045560dd80546001600160a01b0319167395ad61b0a150d79219dcf64e1e6cc01f0b64c4ce9081179091556101c06040526080908152736982508145454ce325ddbe47a25d4ec3d231193360a05273cf0c122c6b73ff809c693db761e7baebe62b6a2e60c05273b131f4a55907b10d1f0a50d8ab8fa09ec342cd7460e05273ac57de9c1a09fec648e93eb98875b212db0d460b61010052739813037ee2218799597d83d4a5b6f3b6778218d9610120527372e4f9f808c49a2a61de9c5896298920dc4eeea96101405273761d38e5ddf6ccf6cf7c55759d5210750b5d60f36101605273b62e45c3df611dce236a6ddc7a493d79f9dfadef610180527327c70cd1946795b66be9d954418546998b5466346101a052620001269060de90600a6200019d565b506040518060600160405280602a81526020016200591d602a91398051620001579160df9160209091019062000207565b506040518060600160405280602e815260200162005947602e91398051620001889160e09160209091019062000207565b503480156200019657600080fd5b50620002d8565b828054828255906000526020600020908101928215620001f5579160200282015b82811115620001f557825182546001600160a01b0319166001600160a01b03909116178255602090920191600190910190620001be565b506200020392915062000284565b5090565b82805462000215906200029b565b90600052602060002090601f016020900481019282620002395760008555620001f5565b82601f106200025457805160ff1916838001178555620001f5565b82800160010185558215620001f5579182015b82811115620001f557825182559160200191906001019062000267565b5b8082111562000203576000815560010162000285565b600181811c90821680620002b057607f821691505b60208210811415620002d257634e487b7160e01b600052602260045260246000fd5b50919050565b61563580620002e86000396000f3fe6080604052600436106103dd5760003560e01c80638c88c10c116101fd578063b631e80b11610118578063d1a72ed6116100ab578063e267078a1161007a578063e267078a14610bd5578063e4fbaecb14610bf5578063e7d015f214610c1d578063f2fde38b14610c3d578063fcaae87b14610c5d57600080fd5b8063d1a72ed614610b4a578063d90bc21114610b72578063ddca3f4314610b9f578063e24b85e714610bb557600080fd5b8063c6bbd5a7116100e7578063c6bbd5a714610ade578063c8599ded14610afe578063c8f33c9114610b14578063d153b60c14610b2a57600080fd5b8063b631e80b14610a46578063bf938db814610a66578063c01bc98214610a86578063c36596a614610ab657600080fd5b8063a2ab905d11610190578063ad39e5fd1161015f578063ad39e5fd146109be578063b3951b67146109e6578063b3f0067414610a06578063b5ed298a14610a2657600080fd5b8063a2ab905d1461095e578063a8509fd814610973578063a8b54bd414610988578063abdd5f3f1461099e57600080fd5b80639932ba4c116101cc5780639932ba4c146108d35780639eeb1d50146109095780639f8e67bf1461091e578063a0b4b3011461093e57600080fd5b80638c88c10c1461082f5780638da5cb5b1461085c578063914f0cc61461087a578063978bbdb9146108a757600080fd5b80632fecd589116102f857806353fd43321161028b578063715018a61161025a578063715018a6146107b0578063744fbc7a146107c557806378063d37146107e55780637ca58c55146108055780638456cb591461081a57600080fd5b806353fd43321461072e5780635725a977146107445780635c975abb1461076c57806368e0d4e11461079057600080fd5b80633f4ba83a116102c75780633f4ba83a146106b95780633fc8cef3146106ce57806347ccca02146106ee5780635177942a1461070e57600080fd5b80632fecd5891461064657806336aab86c1461065c578063372d4c551461067c5780633d370b4e1461068f57600080fd5b8063184a732f116103705780632b9522e01161033f5780632b9522e0146105ac5780632e7b0948146105ce5780632f9f8c13146105f65780632fab7aea1461061e57600080fd5b8063184a732f1461052a5780631d5f45f514610540578063239aad0d146105605780632b52684d1461059657600080fd5b80630c02e130116103ac5780630c02e1301461049f5780630e329357146104b55780630fb405b7146104e257806313cb1f831461050a57600080fd5b8063011ced5f146103e9578063026b1d5f1461041257806302e0401514610447578063075461721461046757600080fd5b366103e457005b600080fd5b3480156103f557600080fd5b506103ff60d45481565b6040519081526020015b60405180910390f35b34801561041e57600080fd5b50610427610c8a565b604080516001600160a01b03938416815292909116602083015201610409565b34801561045357600080fd5b506103ff610462366004614f02565b610dc0565b34801561047357600080fd5b5060d954610487906001600160a01b031681565b6040516001600160a01b039091168152602001610409565b3480156104ab57600080fd5b506103ff60e25481565b3480156104c157600080fd5b506104d56104d0366004614e77565b610ee3565b60405161040991906150e3565b3480156104ee57600080fd5b506104877372e4f9f808c49a2a61de9c5896298920dc4eeea981565b34801561051657600080fd5b506103ff610525366004614b5a565b610f10565b34801561053657600080fd5b506103ff60d65481565b34801561054c57600080fd5b5060ed54610487906001600160a01b031681565b34801561056c57600080fd5b5061048761057b366004614ed0565b60e6602052600090815260409020546001600160a01b031681565b3480156105a257600080fd5b506103ff60db5481565b3480156105b857600080fd5b506105cc6105c7366004614f02565b611064565b005b3480156105da57600080fd5b5061048773b131f4a55907b10d1f0a50d8ab8fa09ec342cd7481565b34801561060257600080fd5b5061048773cf0c122c6b73ff809c693db761e7baebe62b6a2e81565b34801561062a57600080fd5b5061048773761d38e5ddf6ccf6cf7c55759d5210750b5d60f381565b34801561065257600080fd5b506103ff60d55481565b34801561066857600080fd5b506105cc610677366004614de6565b611644565b6105cc61068a366004614ed0565b61192e565b34801561069b57600080fd5b506106a4611dc6565b60408051928352602083019190915201610409565b3480156106c557600080fd5b506105cc611fe3565b3480156106da57600080fd5b5060f054610487906001600160a01b031681565b3480156106fa57600080fd5b5060d154610487906001600160a01b031681565b34801561071a57600080fd5b506105cc610729366004614f3a565b611ff5565b34801561073a57600080fd5b506103ff60e55481565b34801561075057600080fd5b5061048773b62e45c3df611dce236a6ddc7a493d79f9dfadef81565b34801561077857600080fd5b50609e5460ff165b6040519015158152602001610409565b34801561079c57600080fd5b5060ef54610487906001600160a01b031681565b3480156107bc57600080fd5b506105cc612135565b3480156107d157600080fd5b5060ee54610487906001600160a01b031681565b3480156107f157600080fd5b506105cc610800366004614a12565b612147565b34801561081157600080fd5b506103ff612366565b34801561082657600080fd5b506105cc612601565b34801561083b57600080fd5b506103ff61084a3660046149d8565b60e86020526000908152604090205481565b34801561086857600080fd5b506039546001600160a01b0316610487565b34801561088657600080fd5b506103ff6108953660046149d8565b60e96020526000908152604090205481565b3480156108b357600080fd5b5060d3546108c19060ff1681565b60405160ff9091168152602001610409565b3480156108df57600080fd5b506104876108ee366004614ed0565b60e7602052600090815260409020546001600160a01b031681565b34801561091557600080fd5b506104d5612611565b34801561092a57600080fd5b5060d854610487906001600160a01b031681565b34801561094a57600080fd5b50610487610959366004614ed0565b61269f565b34801561096a57600080fd5b506105cc6126c9565b34801561097f57600080fd5b506103ff6128ad565b34801561099457600080fd5b506103ff60e15481565b3480156109aa57600080fd5b506105cc6109b9366004614ba0565b6129a8565b3480156109ca57600080fd5b506104877327c70cd1946795b66be9d954418546998b54663481565b3480156109f257600080fd5b506103ff610a01366004614f02565b612d9b565b348015610a1257600080fd5b5060d754610487906001600160a01b031681565b348015610a3257600080fd5b506105cc610a413660046149d8565b612f61565b348015610a5257600080fd5b5060ec54610487906001600160a01b031681565b348015610a7257600080fd5b506103ff610a81366004614ae9565b612fb1565b348015610a9257600080fd5b50610780610aa13660046149d8565b60dc6020526000908152604090205460ff1681565b348015610ac257600080fd5b50610487739813037ee2218799597d83d4a5b6f3b6778218d981565b348015610aea57600080fd5b5060f154610487906001600160a01b031681565b348015610b0a57600080fd5b506103ff60e45481565b348015610b2057600080fd5b506103ff60e35481565b348015610b3657600080fd5b50606b54610487906001600160a01b031681565b348015610b5657600080fd5b5061048773ac57de9c1a09fec648e93eb98875b212db0d460b81565b348015610b7e57600080fd5b506103ff610b8d3660046149d8565b60eb6020526000908152604090205481565b348015610bab57600080fd5b506103ff60d25481565b348015610bc157600080fd5b5060dd54610487906001600160a01b031681565b348015610be157600080fd5b506105cc610bf0366004614bd5565b61306a565b348015610c0157600080fd5b50610487736982508145454ce325ddbe47a25d4ec3d231193381565b348015610c2957600080fd5b5060d054610487906001600160a01b031681565b348015610c4957600080fd5b506105cc610c583660046149d8565b61329e565b348015610c6957600080fd5b506103ff610c783660046149d8565b60ea6020526000908152604090205481565b60ed5460f05460dd54604051630b4c774160e11b81526001600160a01b0392831660048201529082166024820152610bb8604482015260009283928392911690631698ee829060640160206040518083038186803b158015610ceb57600080fd5b505afa158015610cff573d6000803e3d6000fd5b505050506040513d601f19601f82011682018060405250810190610d2391906149f5565b60ef5460f05460dd5460405163e6a4390560e01b81526001600160a01b039283166004820152908216602482015292935060009291169063e6a4390590604401602060405180830381600087803b158015610d7d57600080fd5b505af1158015610d91573d6000803e3d6000fd5b505050506040513d601f19601f82011682018060405250810190610db591906149f5565b919491935090915050565b600080610dcb6128ad565b9050600060d060009054906101000a90046001600160a01b03166001600160a01b03166318160ddd6040518163ffffffff1660e01b815260040160206040518083038186803b158015610e1d57600080fd5b505afa158015610e31573d6000803e3d6000fd5b505050506040513d601f19601f82011682018060405250810190610e559190614ee9565b610e6787670de0b6b3a764000061540e565b610e7191906152e0565b90506000670de0b6b3a7640000610e88848461540e565b610e9291906152e0565b60f0549091506001600160a01b0387811691161415610eb5579250610edc915050565b60f054600090610ed0906001600160a01b0316888489610f10565b9450610edc9350505050565b9392505050565b60608282604051602001610ef8929190614fc2565b60405160208183030381529060405290505b92915050565b6000808315611059578260031415610f3657610f2f8686866001612fb1565b9050611059565b6040805160028082526060820183526000926020830190803683370190505090508681600081518110610f6b57610f6b6155be565b60200260200101906001600160a01b031690816001600160a01b0316815250508581600181518110610f9f57610f9f6155be565b6001600160a01b03928316602091820292909201015260ee5460405163d06ca61f60e01b8152600092919091169063d06ca61f90610fe390899086906004016150ca565b60006040518083038186803b158015610ffb57600080fd5b505afa15801561100f573d6000803e3d6000fd5b505050506040513d6000823e601f3d908101601f191682016040526110379190810190614d2d565b90508060018151811061104c5761104c6155be565b6020026020010151925050505b90505b949350505050565b600061106e6128ad565b9050600060d060009054906101000a90046001600160a01b03166001600160a01b03166318160ddd6040518163ffffffff1660e01b815260040160206040518083038186803b1580156110c057600080fd5b505afa1580156110d4573d6000803e3d6000fd5b505050506040513d601f19601f820116820180604052508101906110f89190614ee9565b61110a86670de0b6b3a764000061540e565b61111491906152e0565b60d054604051632770a7eb60e21b8152336004820152602481018890529192506001600160a01b031690639dc29fac90604401600060405180830381600087803b15801561116157600080fd5b505af1158015611175573d6000803e3d6000fd5b5050505060005b60e55481101561128657600081815260e760205260408082205460d05491516370a0823160e01b81526001600160a01b039283166004820152670de0b6b3a764000092909116906370a082319060240160206040518083038186803b1580156111e457600080fd5b505afa1580156111f8573d6000803e3d6000fd5b505050506040513d601f19601f8201168201806040525081019061121c9190614ee9565b611226908561540e565b61123091906152e0565b600083815260e7602090815260408083205460f0546001600160a01b0391821680865260eb90945291909320549394506112719391921690849030906133c6565b5050808061127e90615541565b91505061117c565b5060f0546040516370a0823160e01b81523060048201526000916001600160a01b0316906370a082319060240160206040518083038186803b1580156112cb57600080fd5b505afa1580156112df573d6000803e3d6000fd5b505050506040513d601f19601f820116820180604052508101906113039190614ee9565b60d3549091506000906127109061131d9060ff168461540e565b61132791906152e0565b60f0549091506001600160a01b03878116911614156114dd5760f054604051632e1a7d4d60e01b8152600481018490526001600160a01b0390911690632e1a7d4d90602401600060405180830381600087803b15801561138657600080fd5b505af115801561139a573d6000803e3d6000fd5b5050505060006113b26039546001600160a01b031690565b6001600160a01b03168260405160006040518083038185875af1925050503d80600081146113fc576040519150601f19603f3d011682016040523d82523d6000602084013e611401565b606091505b505090508061142b5760405162461bcd60e51b8152600401611422906150f6565b60405180910390fd5b60003361143884866154a5565b604051600081818185875af1925050503d8060008114611474576040519150601f19603f3d011682016040523d82523d6000602084013e611479565b606091505b50509050806114d65760405162461bcd60e51b815260206004820152602360248201527f7472616e73666572206574682066656520746f207468652075736572206661696044820152621b195960ea1b6064820152608401611422565b50506115e4565b60f054604051632e1a7d4d60e01b8152600481018390526001600160a01b0390911690632e1a7d4d90602401600060405180830381600087803b15801561152357600080fd5b505af1158015611537573d6000803e3d6000fd5b50505050600061154f6039546001600160a01b031690565b6001600160a01b03168260405160006040518083038185875af1925050503d8060008114611599576040519150601f19603f3d011682016040523d82523d6000602084013e61159e565b606091505b50509050806115bf5760405162461bcd60e51b8152600401611422906150f6565b60f0546115e1906001600160a01b0316886115da85876154a5565b338a61349e565b50505b6001600160a01b038616337f4f808f68134f8b72b842a276c2b37b03415d4992c65a94fcee50d33201915b998961161b85876154a5565b60408051928352602083019190915242908201526060015b60405180910390a350505050505050565b60008481526005602052604090205484906001600160a01b031633146116bd5760405162461bcd60e51b815260206004820152602860248201527f536f75726365206d75737420626520746865206f7261636c65206f6620746865604482015267081c995c5d595cdd60c21b6064820152608401611422565b60008181526005602052604080822080546001600160a01b03191690555182917f7cc135e0cebb02c3480ae5d74d377283180a2601f8f644edf7987b009316c63a91a283838360005b835181101561190d57838181518110611721576117216155be565b602002602001015160e6600083815260200190815260200160002060006101000a8154816001600160a01b0302191690836001600160a01b031602179055508060e86000868481518110611777576117776155be565b60200260200101516001600160a01b03166001600160a01b03168152602001908152602001600020819055508281815181106117b5576117b56155be565b602002602001015160ea60008684815181106117d3576117d36155be565b60200260200101516001600160a01b03166001600160a01b0316815260200190815260200160002081905550818181518110611811576118116155be565b602002602001015160eb600086848151811061182f5761182f6155be565b60200260200101516001600160a01b03166001600160a01b031681526020019081526020016000208190555060e554600014156118fb57838181518110611878576118786155be565b602002602001015160e7600083815260200190815260200160002060006101000a8154816001600160a01b0302191690836001600160a01b031602179055508060e960008684815181106118ce576118ce6155be565b60200260200101516001600160a01b03166001600160a01b03168152602001908152602001600020819055505b8061190581615541565b915050611706565b50825160e45560e55461192057825160e5555b50504260e355505050505050565b60d354600090612710906119459060ff168461540e565b61194f91906152e0565b9050600061195d8284615264565b9050803410156119af5760405162461bcd60e51b815260206004820152601a60248201527f6c6f776572207468616e20726571756972656420616d6f756e740000000000006044820152606401611422565b60006119c36039546001600160a01b031690565b6001600160a01b031660d25460405160006040518083038185875af1925050503d8060008114611a0f576040519150601f19603f3d011682016040523d82523d6000602084013e611a14565b606091505b5050905080611a355760405162461bcd60e51b8152600401611422906150f6565b60f060009054906101000a90046001600160a01b03166001600160a01b031663d0e30db0856040518263ffffffff1660e01b81526004016000604051808303818588803b158015611a8557600080fd5b505af1158015611a99573d6000803e3d6000fd5b505060f05460d05460405163a9059cbb60e01b81526001600160a01b039182166004820152602481018a90529116935063a9059cbb92506044019050602060405180830381600087803b158015611aef57600080fd5b505af1158015611b03573d6000803e3d6000fd5b505050506040513d601f19601f82011682018060405250810190611b279190614dc4565b506000611b326128ad565b90508460005b60e554811015611bdb5760f054600082815260e760209081526040808320546001600160a01b0390811680855260ea909352922054611bc893929092169168056bc75e2d6310000090611b8b908761540e565b611b9591906152e0565b60d054600086815260e760209081526040808320546001600160a01b03908116845260eb909252909120549116906133c6565b5080611bd381615541565b915050611b38565b5060008060d060009054906101000a90046001600160a01b03166001600160a01b03166318160ddd6040518163ffffffff1660e01b815260040160206040518083038186803b158015611c2d57600080fd5b505afa158015611c41573d6000803e3d6000fd5b505050506040513d601f19601f82011682018060405250810190611c659190614ee9565b1115611d0e57828260d060009054906101000a90046001600160a01b03166001600160a01b03166318160ddd6040518163ffffffff1660e01b815260040160206040518083038186803b158015611cbb57600080fd5b505afa158015611ccf573d6000803e3d6000fd5b505050506040513d601f19601f82011682018060405250810190611cf39190614ee9565b611cfd919061540e565b611d0791906152e0565b9050611d11565b50805b60d0546040516340c10f1960e01b8152336004820152602481018390526001600160a01b03909116906340c10f1990604401600060405180830381600087803b158015611d5d57600080fd5b505af1158015611d71573d6000803e3d6000fd5b505060f054604080518b81526020810186905242918101919091526001600160a01b0390911692503391507f4fee1c514ee0e252e3a0babfa8b5030fb89be7ea2b38df9a7fbbf788e54f3d9190606001611633565b60f15460f05460405163f7729d4360e01b81526001600160a01b0391821660048201527327c70cd1946795b66be9d954418546998b5466346024820152610bb86044820152670de0b6b3a76400006064820152600060848201819052928392839291169063f7729d439060a401602060405180830381600087803b158015611e4d57600080fd5b505af1925050508015611e7d575060408051601f3d908101601f19168201909252611e7a91810190614ee9565b60015b611e8957506000611e8c565b90505b604080516002808252606082018352600092602083019080368337505060f05482519293506001600160a01b031691839150600090611ecd57611ecd6155be565b60200260200101906001600160a01b031690816001600160a01b0316815250507327c70cd1946795b66be9d954418546998b54663481600181518110611f1557611f156155be565b6001600160a01b03928316602091820292909201015260ee5460405163d06ca61f60e01b8152600092919091169063d06ca61f90611f6190670de0b6b3a76400009086906004016150ca565b60006040518083038186803b158015611f7957600080fd5b505afa925050508015611fae57506040513d6000823e601f3d908101601f19168201604052611fab9190810190614d2d565b60015b611fba57506000610db5565b80600181518110611fcd57611fcd6155be565b6020026020010151915050919491935090915050565b611feb6137b6565b611ff3613810565b565b611ffd6137b6565b600060d4544261200d91906154a5565b9050600c603c61201d81846152e0565b61202791906152e0565b1161209a5760405162461bcd60e51b815260206004820152603960248201527f596f752073686f756c642077616974206174206c6561737420313220686f757260448201527f7320616674657220746865206c617465737420757064617465000000000000006064820152608401611422565b60648260ff16111580156120b2575060018260ff1610155b61211a5760405162461bcd60e51b815260206004820152603360248201527f546865206e65774665652073686f756c64206265206265747765656e203120616044820152726e64203130302028302e303125202d2031252960681b6064820152608401611422565b5060d3805460ff191660ff929092169190911790554260d455565b61213d6137b6565b611ff36000613862565b600654610100900460ff16158080156121675750600654600160ff909116105b806121815750303b158015612181575060065460ff166001145b6121e45760405162461bcd60e51b815260206004820152602e60248201527f496e697469616c697a61626c653a20636f6e747261637420697320616c72656160448201526d191e481a5b9a5d1a585b1a5e995960921b6064820152608401611422565b6006805460ff191660011790558015612207576006805461ff0019166101001790555b61220f6138b4565b6122176138e3565b60d080546001600160a01b038e166001600160a01b031990911617905561225b8a600280546001600160a01b039092166001600160a01b0319909216919091179055565b600380546001600160a01b0319166001600160a01b038b1617905560e1889055600a612290670de0b6b3a7640000600161540e565b61229a91906152e0565b60e25560f080546001600160a01b03808a166001600160a01b03199283161790925560f1805489841690831617905560ec805488841690831617905560ed805487841690831617905560ee805486841690831617905560ef80549285169290911691909117905560d3805460ff1916600a1790554260d4558015612358576006805461ff0019169055604051600181527f7f26b83ff96e1f2b6a682f133852f6798a09c465da95921460cefb38474024989060200160405180910390a15b505050505050505050505050565b60008061248760df80546123799061550c565b80601f01602080910402602001604051908101604052809291908181526020018280546123a59061550c565b80156123f25780601f106123c7576101008083540402835291602001916123f2565b820191906000526020600020905b8154815290600101906020018083116123d557829003601f168201915b505050505060e080546124049061550c565b80601f01602080910402602001604051908101604052809291908181526020018280546124309061550c565b801561247d5780601f106124525761010080835404028352916020019161247d565b820191906000526020600020905b81548152906001019060200180831161246057829003601f168201915b5050505050610ee3565b9050600061249f60e154306336aab86c60e01b613912565b60408051808201909152600381526219d95d60ea1b60208201529091506124c89082908461392e565b61252060405180604001604052806005815260200164706174683160d81b8152506040518060400160405280600e81526020016d726573756c74732c746f6b656e7360901b8152508361392e9092919063ffffffff16565b61257e604051806040016040528060058152602001643830ba341960d91b81525060405180604001604052806014815260200173726573756c74732c6d61726b657453686172657360601b8152508361392e9092919063ffffffff16565b6125dc60405180604001604052806005815260200164706174683360d81b81525060405180604001604052806014815260200173726573756c74732c7377617056657273696f6e7360601b8152508361392e9092919063ffffffff16565b6125fa6125f16003546001600160a01b031690565b8260e254613951565b9250505090565b6126096137b6565b611ff36139e4565b60da805461261e9061550c565b80601f016020809104026020016040519081016040528092919081815260200182805461264a9061550c565b80156126975780601f1061266c57610100808354040283529160200191612697565b820191906000526020600020905b81548152906001019060200180831161267a57829003601f168201915b505050505081565b60de81815481106126af57600080fd5b6000918252602090912001546001600160a01b0316905081565b6126d16137b6565b60005b60e55481101561278457600081815260e76020526040908190205460f05491516370a0823160e01b8152306004820152612771926001600160a01b0392831692169082906370a082319060240160206040518083038186803b15801561273957600080fd5b505afa15801561274d573d6000803e3d6000fd5b505050506040513d601f19601f82011682018060405250810190611b959190614ee9565b508061277c81615541565b9150506126d4565b5060f0546040516370a0823160e01b81523060048201526000916001600160a01b0316906370a082319060240160206040518083038186803b1580156127c957600080fd5b505afa1580156127dd573d6000803e3d6000fd5b505050506040513d601f19601f820116820180604052508101906128019190614ee9565b905060005b60e4548110156128a95760f054600082815260e660209081526040808320546001600160a01b0390811680855260ea90935292205461289693929092169168056bc75e2d6310000090612859908761540e565b61286391906152e0565b60d054600086815260e660209081526040808320546001600160a01b03908116845260eb909252909120549116906133c6565b50806128a181615541565b915050612806565b5050565b60008060005b60e5548110156129a257600081815260e760205260408082205460f05460d05492516370a0823160e01b81526001600160a01b03938416600482015261298093928316929091169082906370a082319060240160206040518083038186803b15801561291e57600080fd5b505afa158015612932573d6000803e3d6000fd5b505050506040513d601f19601f820116820180604052508101906129569190614ee9565b600086815260e760209081526040808320546001600160a01b0316835260eb909152902054610f10565b905061298c8184615264565b925050808061299a90615541565b9150506128b3565b50919050565b60d354600090612710906129bf9060ff168561540e565b6129c991906152e0565b905060006129d78285615264565b905060006129e36128ad565b60d0546040516323b872dd60e01b81523360048201526001600160a01b039182166024820152604481018890529192508716906323b872dd90606401602060405180830381600087803b158015612a3957600080fd5b505af1158015612a4d573d6000803e3d6000fd5b505050506040513d601f19601f82011682018060405250810190612a719190614dc4565b50856001600160a01b03166323b872dd33612a946039546001600160a01b031690565b6040516001600160e01b031960e085901b1681526001600160a01b0392831660048201529116602482015260448101869052606401602060405180830381600087803b158015612ae357600080fd5b505af1158015612af7573d6000803e3d6000fd5b505050506040513d601f19601f82011682018060405250810190612b1b9190614dc4565b5060f05460d054600091612b409189916001600160a01b03908116918a9116896133c6565b905060005b60e554811015612bab5760f054600082815260e760209081526040808320546001600160a01b0390811680855260ea909352922054612b9893929092169168056bc75e2d6310000090611b8b908761540e565b5080612ba381615541565b915050612b45565b5060008060d060009054906101000a90046001600160a01b03166001600160a01b03166318160ddd6040518163ffffffff1660e01b815260040160206040518083038186803b158015612bfd57600080fd5b505afa158015612c11573d6000803e3d6000fd5b505050506040513d601f19601f82011682018060405250810190612c359190614ee9565b1115612cde57828260d060009054906101000a90046001600160a01b03166001600160a01b03166318160ddd6040518163ffffffff1660e01b815260040160206040518083038186803b158015612c8b57600080fd5b505afa158015612c9f573d6000803e3d6000fd5b505050506040513d601f19601f82011682018060405250810190612cc39190614ee9565b612ccd919061540e565b612cd791906152e0565b9050612ce1565b50805b60d0546040516340c10f1960e01b8152336004820152602481018390526001600160a01b03909116906340c10f1990604401600060405180830381600087803b158015612d2d57600080fd5b505af1158015612d41573d6000803e3d6000fd5b5050604080518a815260208101859052428183015290516001600160a01b038c1693503392507f4fee1c514ee0e252e3a0babfa8b5030fb89be7ea2b38df9a7fbbf788e54f3d919181900360600190a35050505050505050565b60f0546000906001600160a01b0384811691161415612e7b576000612dbe6128ad565b9050600060d060009054906101000a90046001600160a01b03166001600160a01b03166318160ddd6040518163ffffffff1660e01b815260040160206040518083038186803b158015612e1057600080fd5b505afa158015612e24573d6000803e3d6000fd5b505050506040513d601f19601f82011682018060405250810190612e489190614ee9565b905060008115612e6e5782612e5d888461540e565b612e6791906152e0565b9050612e71565b50855b9250610edc915050565b60f054600090612e979085906001600160a01b03168786610f10565b90506000612ea36128ad565b9050600060d060009054906101000a90046001600160a01b03166001600160a01b03166318160ddd6040518163ffffffff1660e01b815260040160206040518083038186803b158015612ef557600080fd5b505afa158015612f09573d6000803e3d6000fd5b505050506040513d601f19601f82011682018060405250810190612f2d9190614ee9565b905060008115612f535782612f42858461540e565b612f4c91906152e0565b9050612f56565b50825b9350610edc92505050565b612f696137b6565b6001600160a01b038116612f8f5760405162461bcd60e51b81526004016114229061513a565b606b80546001600160a01b0319166001600160a01b0392909216919091179055565b60ed54604051630b4c774160e11b81526001600160a01b0386811660048301528581166024830152610bb860448301526000928392911690631698ee829060640160206040518083038186803b15801561300a57600080fd5b505afa15801561301e573d6000803e3d6000fd5b505050506040513d601f19601f8201168201806040525081019061304291906149f5565b905060006130508285613a21565b50905061305f81868989613c77565b979650505050505050565b6130726137b6565b82828260005b835181101561327f57838181518110613093576130936155be565b602002602001015160e6600083815260200190815260200160002060006101000a8154816001600160a01b0302191690836001600160a01b031602179055508060e860008684815181106130e9576130e96155be565b60200260200101516001600160a01b03166001600160a01b0316815260200190815260200160002081905550828181518110613127576131276155be565b602002602001015160ea6000868481518110613145576131456155be565b60200260200101516001600160a01b03166001600160a01b0316815260200190815260200160002081905550818181518110613183576131836155be565b602002602001015160eb60008684815181106131a1576131a16155be565b60200260200101516001600160a01b03166001600160a01b031681526020019081526020016000208190555060e5546000141561326d578381815181106131ea576131ea6155be565b602002602001015160e7600083815260200190815260200160002060006101000a8154816001600160a01b0302191690836001600160a01b031602179055508060e96000868481518110613240576132406155be565b60200260200101516001600160a01b03166001600160a01b03168152602001908152602001600020819055505b8061327781615541565b915050613078565b50825160e45560e55461329257825160e5555b50504260e35550505050565b6001600160a01b0381166132c45760405162461bcd60e51b81526004016114229061513a565b606b546001600160a01b0382811691161461333c5760405162461bcd60e51b815260206004820152603260248201527f50726f706f7361626c654f776e61626c653a206e6577206f776e6572206973206044820152713737ba10383937b837b9b2b21037bbb732b960711b6064820152608401611422565b6001600160a01b03811633146133ba5760405162461bcd60e51b815260206004820152603a60248201527f50726f706f7361626c654f776e61626c653a20746869732063616c6c206d757360448201527f74206265206d61646520627920746865206e6577206f776e65720000000000006064820152608401611422565b6133c381613862565b50565b6000806133d587878786610f10565b90506000811561347f5760d0546040516305f370ed60e41b81526001600160a01b038a8116600483015289811660248301526044820189905287811660648301526084820187905290911690635f370ed09060a401602060405180830381600087803b15801561344457600080fd5b505af1158015613458573d6000803e3d6000fd5b505050506040513d601f19601f8201168201806040525081019061347c9190614ee9565b90505b83600314156134915791506134959050565b5090505b95945050505050565b600081600314156136435760ec5460405163095ea7b360e01b81526001600160a01b039182166004820152602481018690529087169063095ea7b390604401602060405180830381600087803b1580156134f757600080fd5b505af115801561350b573d6000803e3d6000fd5b505050506040513d601f19601f8201168201806040525081019061352f9190614dc4565b5060408051610100810182526001600160a01b03888116825287811660208301908152610bb883850190815287831660608501908152426080860190815260a086018b8152600060c0880181815260e0890182815260ec549a5163414bf38960e01b81528a518a166004820152975189166024890152955162ffffff166044880152935187166064870152915160848601525160a4850152905160c48401529051831660e483015292939091169063414bf3899061010401602060405180830381600087803b15801561360157600080fd5b505af1158015613615573d6000803e3d6000fd5b505050506040513d601f19601f820116820180604052508101906136399190614ee9565b9250613495915050565b6040805160028082526060820183526000926020830190803683370190505090508681600081518110613678576136786155be565b60200260200101906001600160a01b031690816001600160a01b03168152505085816001815181106136ac576136ac6155be565b6001600160a01b03928316602091820292909201015260ee5460405163095ea7b360e01b81529082166004820152602481018790529088169063095ea7b390604401602060405180830381600087803b15801561370857600080fd5b505af115801561371c573d6000803e3d6000fd5b505050506040513d601f19601f820116820180604052508101906137409190614dc4565b5060ee54604051635c11d79560e01b81526001600160a01b0390911690635c11d7959061377a90889060009086908a9042906004016151d5565b600060405180830381600087803b15801561379457600080fd5b505af11580156137a8573d6000803e3d6000fd5b505050506000915050613495565b6039546001600160a01b03163314611ff35760405162461bcd60e51b815260206004820181905260248201527f4f776e61626c653a2063616c6c6572206973206e6f7420746865206f776e65726044820152606401611422565b613818613d81565b609e805460ff191690557f5db9ee0a495bf2e6ff9c91a7834c1ba4fdd244a5e8aa4e537bd38aeae4b073aa335b6040516001600160a01b03909116815260200160405180910390a1565b603980546001600160a01b038381166001600160a01b0319831681179093556040519116919082907f8be0079c531659141344cd1fd0a4f28419497f9722a3daafe3b4186f6b6457e090600090a35050565b600654610100900460ff166138db5760405162461bcd60e51b81526004016114229061518a565b611ff3613dca565b600654610100900460ff1661390a5760405162461bcd60e51b81526004016114229061518a565b611ff3613dfa565b61391a6147da565b6139226147da565b61349581868686613e2d565b608083015161393d9083613e6a565b608083015161394c9082613e6a565b505050565b600454600090613962816001615264565b600455835160408086015160808701515191516000936320214ca360e11b9361399a9386938493923092918a91600191602401614ff1565b60408051601f198184030181529190526020810180516001600160e01b03166001600160e01b03199093169290921790915290506139da86838684613e81565b9695505050505050565b6139ec613fee565b609e805460ff191660011790557f62e78cea01bee320cd4e420270b5ea74000d11b0c9f74754ebdbfc544b05a2586138453390565b60008063ffffffff8316613a5c5760405162461bcd60e51b8152602060048201526002602482015261042560f41b6044820152606401611422565b6040805160028082526060820183526000926020830190803683370190505090508381600081518110613a9157613a916155be565b602002602001019063ffffffff16908163ffffffff1681525050600081600181518110613ac057613ac06155be565b602002602001019063ffffffff16908163ffffffff1681525050600080866001600160a01b031663883bdbfd846040518263ffffffff1660e01b8152600401613b099190615080565b60006040518083038186803b158015613b2157600080fd5b505afa158015613b35573d6000803e3d6000fd5b505050506040513d6000823e601f3d908101601f19168201604052613b5d9190810190614c5c565b91509150600082600081518110613b7657613b766155be565b602002602001015183600181518110613b9157613b916155be565b6020026020010151613ba3919061542d565b9050600082600081518110613bba57613bba6155be565b602002602001015183600181518110613bd557613bd56155be565b6020026020010151613be7919061547d565b9050613bf963ffffffff89168361527c565b965060008260060b128015613c1f5750613c1963ffffffff89168361555c565b60060b15155b15613c325786613c2e816154e8565b9750505b6000613c4b6001600160a01b0363ffffffff8b166153df565b9050613c68640100000000600160c01b03602084901b16826152ba565b96505050505050509250929050565b600080613c8386614034565b90506001600160801b036001600160a01b03821611613d09576000613cb16001600160a01b0383168061540e565b9050836001600160a01b0316856001600160a01b031610613ce957613ce4600160c01b876001600160801b031683614354565b613d01565b613d0181876001600160801b0316600160c01b614354565b925050613d78565b6000613d286001600160a01b0383168068010000000000000000614354565b9050836001600160a01b0316856001600160a01b031610613d6057613d5b600160801b876001600160801b031683614354565b61305f565b61305f81876001600160801b0316600160801b614354565b50949350505050565b609e5460ff16611ff35760405162461bcd60e51b815260206004820152601460248201527314185d5cd8589b194e881b9bdd081c185d5cd95960621b6044820152606401611422565b600654610100900460ff16613df15760405162461bcd60e51b81526004016114229061518a565b611ff333613862565b600654610100900460ff16613e215760405162461bcd60e51b81526004016114229061518a565b609e805460ff19169055565b613e356147da565b613e458560800151610100614407565b50509183526001600160a01b031660208301526001600160e01b031916604082015290565b613e77826003835161446c565b61394c8282614579565b6040516bffffffffffffffffffffffff193060601b1660208201526034810184905260009060540160408051808303601f1901815282825280516020918201206000818152600590925291812080546001600160a01b0319166001600160a01b038a1617905590925082917fb5e6e01e79f91267dc17b4e6314d5d4d03593d2ceee0fbb452b750bd70ea5af99190a2600254604051630200057560e51b81526001600160a01b0390911690634000aea090613f4490889087908790600401615059565b602060405180830381600087803b158015613f5e57600080fd5b505af1158015613f72573d6000803e3d6000fd5b505050506040513d601f19601f82011682018060405250810190613f969190614dc4565b61105c5760405162461bcd60e51b815260206004820152602360248201527f756e61626c6520746f207472616e73666572416e6443616c6c20746f206f7261604482015262636c6560e81b6064820152608401611422565b609e5460ff1615611ff35760405162461bcd60e51b815260206004820152601060248201526f14185d5cd8589b194e881c185d5cd95960821b6044820152606401611422565b60008060008360020b1261404b578260020b614053565b8260020b6000035b9050620d89e8811115614079576040516315e4079d60e11b815260040160405180910390fd5b60006001821661408d57600160801b61409f565b6ffffcb933bd6fad37aa2d162d1a5940015b70ffffffffffffffffffffffffffffffffff16905060028216156140d3576ffff97272373d413259a46990580e213a0260801c5b60048216156140f2576ffff2e50f5f656932ef12357cf3c7fdcc0260801c5b6008821615614111576fffe5caca7e10e4e61c3624eaa0941cd00260801c5b6010821615614130576fffcb9843d60f6159c9db58835c9266440260801c5b602082161561414f576fff973b41fa98c081472e6896dfb254c00260801c5b604082161561416e576fff2ea16466c96a3843ec78b326b528610260801c5b608082161561418d576ffe5dee046a99a2a811c461f1969c30530260801c5b6101008216156141ad576ffcbe86c7900a88aedcffc83b479aa3a40260801c5b6102008216156141cd576ff987a7253ac413176f2b074cf7815e540260801c5b6104008216156141ed576ff3392b0822b70005940c7a398e4b70f30260801c5b61080082161561420d576fe7159475a2c29b7443b29c7fa6e889d90260801c5b61100082161561422d576fd097f3bdfd2022b8845ad8f792aa58250260801c5b61200082161561424d576fa9f746462d870fdf8a65dc1f90e061e50260801c5b61400082161561426d576f70d869a156d2a1b890bb3df62baf32f70260801c5b61800082161561428d576f31be135f97d08fd981231505542fcfa60260801c5b620100008216156142ae576f09aa508b5b7a84e1c677de54f3e99bc90260801c5b620200008216156142ce576e5d6af8dedb81196699c329225ee6040260801c5b620400008216156142ed576d2216e584f5fa1ea926041bedfe980260801c5b6208000082161561430a576b048a170391f7dc42444e8fa20260801c5b60008460020b131561432b578060001981614327576143276155a8565b0490505b64010000000081061561433f576001614342565b60005b60ff16602082901c0192505050919050565b60008080600019858709858702925082811083820303915050806000141561438e576000841161438357600080fd5b508290049050610edc565b80841161439a57600080fd5b6000848688096000868103871696879004966002600389028118808a02820302808a02820302808a02820302808a02820302808a02820302808a02909103029181900381900460010186841190950394909402919094039290920491909117919091029150509392505050565b60408051808201909152606081526000602082015261442760208361557e565b1561444f5761443760208361557e565b6144429060206154a5565b61444c9083615264565b91505b506020828101829052604080518085526000815290920101905290565b6017816001600160401b031611614496576144908360e0600585901b1683176145a0565b50505050565b60ff816001600160401b0316116144d2576144bc836018611fe0600586901b16176145a0565b50614490836001600160401b03831660016145c5565b61ffff816001600160401b03161161450f576144f9836019611fe0600586901b16176145a0565b50614490836001600160401b03831660026145c5565b63ffffffff816001600160401b03161161454e5761453883601a611fe0600586901b16176145a0565b50614490836001600160401b03831660046145c5565b61456383601b611fe0600586901b16176145a0565b50614490836001600160401b03831660086145c5565b604080518082019091526060815260006020820152610edc838460000151518485516145eb565b604080518082019091526060815260006020820152610edc83846000015151846146d5565b60408051808201909152606081526000602082015261105c848560000151518585614731565b604080518082019091526060815260006020820152825182111561460e57600080fd5b602085015161461d8386615264565b111561465057614650856146408760200151878661463b9190615264565b6147b2565b61464b90600261540e565b6147c3565b60008086518051876020830101935080888701111561466f5787860182525b505050602084015b602084106146af578051825261468e602083615264565b915061469b602082615264565b90506146a86020856154a5565b9350614677565b51815160001960208690036101000a019081169019919091161790525083949350505050565b6040805180820190915260608152600060208201528360200151831061470a5761470a848560200151600261464b919061540e565b835180516020858301018481535080851415614727576001810182525b5093949350505050565b60408051808201909152606081526000602082015260208501516147558584615264565b111561476957614769856146408685615264565b6000600161477984610100615337565b61478391906154a5565b90508551838682010185831982511617815250805184870111156147a75783860181525b509495945050505050565b6000818311156129a2575081610f0a565b81516147cf8383614407565b506144908382614579565b6040805160a0810182526000808252602080830182905282840182905260608084018390528451808601909552845283015290608082015290565b8035614820816155ea565b919050565b600082601f83011261483657600080fd5b8135602061484b61484683615241565b615211565b80838252828201915082860187848660051b890101111561486b57600080fd5b60005b85811015614893578135614881816155ea565b8452928401929084019060010161486e565b5090979650505050505050565b600082601f8301126148b157600080fd5b815160206148c161484683615241565b80838252828201915082860187848660051b89010111156148e157600080fd5b60005b858110156148935781516148f7816155ea565b845292840192908401906001016148e4565b600082601f83011261491a57600080fd5b8135602061492a61484683615241565b80838252828201915082860187848660051b890101111561494a57600080fd5b60005b858110156148935781358452928401929084019060010161494d565b600082601f83011261497a57600080fd5b81356001600160401b03811115614993576149936155d4565b6149a6601f8201601f1916602001615211565b8181528460208386010111156149bb57600080fd5b816020850160208301376000918101602001919091529392505050565b6000602082840312156149ea57600080fd5b8135610edc816155ea565b600060208284031215614a0757600080fd5b8151610edc816155ea565b60008060008060008060008060008060006101608c8e031215614a3457600080fd5b8b35614a3f816155ea565b9a5060208c0135614a4f816155ea565b995060408c0135614a5f816155ea565b985060608c0135614a6f816155ea565b975060808c0135965060a08c0135614a86816155ea565b955060c08c0135614a96816155ea565b945060e08c0135614aa6816155ea565b93506101008c0135614ab7816155ea565b92506101208c0135614ac8816155ea565b9150614ad76101408d01614815565b90509295989b509295989b9093969950565b60008060008060808587031215614aff57600080fd5b8435614b0a816155ea565b93506020850135614b1a816155ea565b925060408501356001600160801b0381168114614b3657600080fd5b9150606085013563ffffffff81168114614b4f57600080fd5b939692955090935050565b60008060008060808587031215614b7057600080fd5b8435614b7b816155ea565b93506020850135614b8b816155ea565b93969395505050506040820135916060013590565b600080600060608486031215614bb557600080fd5b8335614bc0816155ea565b95602085013595506040909401359392505050565b600080600060608486031215614bea57600080fd5b83356001600160401b0380821115614c0157600080fd5b614c0d87838801614825565b94506020860135915080821115614c2357600080fd5b614c2f87838801614909565b93506040860135915080821115614c4557600080fd5b50614c5286828701614909565b9150509250925092565b60008060408385031215614c6f57600080fd5b82516001600160401b0380821115614c8657600080fd5b818501915085601f830112614c9a57600080fd5b81516020614caa61484683615241565b8083825282820191508286018a848660051b8901011115614cca57600080fd5b600096505b84871015614cfc5780518060060b8114614ce857600080fd5b835260019690960195918301918301614ccf565b5091880151919650909350505080821115614d1657600080fd5b50614d23858286016148a0565b9150509250929050565b60006020808385031215614d4057600080fd5b82516001600160401b03811115614d5657600080fd5b8301601f81018513614d6757600080fd5b8051614d7561484682615241565b80828252848201915084840188868560051b8701011115614d9557600080fd5b600094505b83851015614db8578051835260019490940193918501918501614d9a565b50979650505050505050565b600060208284031215614dd657600080fd5b81518015158114610edc57600080fd5b60008060008060808587031215614dfc57600080fd5b8435935060208501356001600160401b0380821115614e1a57600080fd5b614e2688838901614825565b94506040870135915080821115614e3c57600080fd5b614e4888838901614909565b93506060870135915080821115614e5e57600080fd5b50614e6b87828801614909565b91505092959194509250565b60008060408385031215614e8a57600080fd5b82356001600160401b0380821115614ea157600080fd5b614ead86838701614969565b93506020850135915080821115614ec357600080fd5b50614d2385828601614969565b600060208284031215614ee257600080fd5b5035919050565b600060208284031215614efb57600080fd5b5051919050565b600080600060608486031215614f1757600080fd5b833592506020840135614f29816155ea565b929592945050506040919091013590565b600060208284031215614f4c57600080fd5b813560ff81168114610edc57600080fd5b600081518084526020808501945080840160005b838110156147a75781516001600160a01b031687529582019590820190600101614f71565b60008151808452614fae8160208601602086016154bc565b601f01601f19169290920160200192915050565b60008351614fd48184602088016154bc565b835190830190614fe88183602088016154bc565b01949350505050565b6001600160a01b0389811682526020820189905260408201889052861660608201526001600160e01b03198516608082015260a0810184905260c0810183905261010060e0820181905260009061504a83820185614f96565b9b9a5050505050505050505050565b60018060a01b03841681528260208201526060604082015260006134956060830184614f96565b6020808252825182820181905260009190848201906040850190845b818110156150be57835163ffffffff168352928401929184019160010161509c565b50909695505050505050565b82815260406020820152600061105c6040830184614f5d565b602081526000610edc6020830184614f96565b60208082526024908201527f7472616e73666572206574682066656520746f20746865206f776e65722066616040820152631a5b195960e21b606082015260800190565b60208082526030908201527f50726f706f7361626c654f776e61626c653a206e6577206f776e65722069732060408201526f746865207a65726f206164647265737360801b606082015260800190565b6020808252602b908201527f496e697469616c697a61626c653a20636f6e7472616374206973206e6f74206960408201526a6e697469616c697a696e6760a81b606082015260800190565b85815284602082015260a0604082015260006151f460a0830186614f5d565b6001600160a01b0394909416606083015250608001529392505050565b604051601f8201601f191681016001600160401b0381118282101715615239576152396155d4565b604052919050565b60006001600160401b0382111561525a5761525a6155d4565b5060051b60200190565b6000821982111561527757615277615592565b500190565b60008160060b8360060b80615293576152936155a8565b667fffffffffffff198214600019821416156152b1576152b1615592565b90059392505050565b60006001600160c01b03838116806152d4576152d46155a8565b92169190910492915050565b6000826152ef576152ef6155a8565b500490565b600181815b8085111561532f57816000190482111561531557615315615592565b8085161561532257918102915b93841c93908002906152f9565b509250929050565b6000610edc838360008261534d57506001610f0a565b8161535a57506000610f0a565b8160018114615370576002811461537a57615396565b6001915050610f0a565b60ff84111561538b5761538b615592565b50506001821b610f0a565b5060208310610133831016604e8410600b84101617156153b9575081810a610f0a565b6153c383836152f4565b80600019048211156153d7576153d7615592565b029392505050565b60006001600160c01b038281168482168115158284048211161561540557615405615592565b02949350505050565b600081600019048311821515161561542857615428615592565b500290565b60008160060b8360060b6000811281667fffffffffffff190183128115161561545857615458615592565b81667fffffffffffff01831381161561547357615473615592565b5090039392505050565b60006001600160a01b038381169083168181101561549d5761549d615592565b039392505050565b6000828210156154b7576154b7615592565b500390565b60005b838110156154d75781810151838201526020016154bf565b838111156144905750506000910152565b60008160020b627fffff1981141561550257615502615592565b6000190192915050565b600181811c9082168061552057607f821691505b602082108114156129a257634e487b7160e01b600052602260045260246000fd5b600060001982141561555557615555615592565b5060010190565b60008260060b8061556f5761556f6155a8565b808360060b0791505092915050565b60008261558d5761558d6155a8565b500690565b634e487b7160e01b600052601160045260246000fd5b634e487b7160e01b600052601260045260246000fd5b634e487b7160e01b600052603260045260246000fd5b634e487b7160e01b600052604160045260246000fd5b6001600160a01b03811681146133c357600080fdfea26469706673582212203639c25603cf4ed42b6e45b1b677983efaf7d75026256a84ca8de2d8e71d6a2564736f6c6343000807003368747470733a2f2f6170702e6e65786c6162732e696f2f6170692f616c6c46756e64696e6752617465733f6d756c7469706c7946756e633d31382674696d65734e656746756e643d74727565266172726179733d74727565",
    "linkReferences": {}
  },
  "methodIdentifiers": {
    "BONE()": "c36596a6",
    "BabyDoge()": "d1a72ed6",
    "ELON()": "2fab7aea",
    "FLOKI()": "2f9f8c13",
    "HarryPotterObamaSonic10Inu()": "0fb405b7",
    "LEASH()": "ad39e5fd",
    "MEME()": "2e7b0948",
    "PEPE()": "e4fbaecb",
    "SHIB()": "e24b85e7",
    "WSM()": "5725a977",
    "assetList(uint256)": "a0b4b301",
    "concatenation(string,string)": "0e329357",
    "currentList(uint256)": "9932ba4c",
    "estimateAmountOut(address,address,uint128,uint32)": "bf938db8",
    "externalJobId()": "a8b54bd4",
    "factoryV2()": "68e0d4e1",
    "factoryV3()": "1d5f45f5",
    "fee()": "ddca3f43",
    "feeRate()": "978bbdb9",
    "feeRatePerDayScaled()": "2fecd589",
    "feeReceiver()": "b3f00674",
    "feeTimestamp()": "184a732f",
    "fulfillAssetsData(bytes32,address[],uint256[],uint256[])": "36aab86c",
    "getAmountOut(address,address,uint256,uint256)": "13cb1f83",
    "getAmounts()": "3d370b4e",
    "getIssuanceAmountOut(uint256,address,uint256)": "b3951b67",
    "getPool()": "026b1d5f",
    "getPortfolioBalance()": "a8509fd8",
    "getRedemptionAmountOut(uint256,address,uint256)": "02e04015",
    "indexToken()": "e7d015f2",
    "initialize(address,address,address,address,bytes32,address,address,address,address,address,address)": "78063d37",
    "isRestricted(address)": "c01bc982",
    "issuanceIndexTokens(address,uint256,uint256)": "abdd5f3f",
    "issuanceIndexTokensWithEth(uint256)": "372d4c55",
    "lastUpdateTime()": "c8f33c91",
    "latestFeeUpdate()": "011ced5f",
    "methodologist()": "9f8e67bf",
    "methodology()": "9eeb1d50",
    "minter()": "07546172",
    "mockFillAssetsList(address[],uint256[],uint256[])": "e267078a",
    "nft()": "47ccca02",
    "oracleList(uint256)": "239aad0d",
    "oraclePayment()": "0c02e130",
    "owner()": "8da5cb5b",
    "pause()": "8456cb59",
    "paused()": "5c975abb",
    "proposeOwner(address)": "b5ed298a",
    "proposedOwner()": "d153b60c",
    "quoter()": "c6bbd5a7",
    "reIndexAndReweight()": "a2ab905d",
    "redemption(uint256,address,uint256)": "2b9522e0",
    "renounceOwnership()": "715018a6",
    "requestAssetsData()": "7ca58c55",
    "setFeeRate(uint8)": "5177942a",
    "supplyCeiling()": "2b52684d",
    "swapRouterV2()": "744fbc7a",
    "swapRouterV3()": "b631e80b",
    "tokenCurrentListIndex(address)": "914f0cc6",
    "tokenMarketShare(address)": "fcaae87b",
    "tokenOracleListIndex(address)": "8c88c10c",
    "tokenSwapVersion(address)": "d90bc211",
    "totalCurrentList()": "53fd4332",
    "totalOracleList()": "c8599ded",
    "transferOwnership(address)": "f2fde38b",
    "unpause()": "3f4ba83a",
    "weth()": "3fc8cef3"
  },
  "id": 1
}