{"abi":[{"type":"receive","stateMutability":"payable"},{"type":"function","name":"factoryStorage","inputs":[],"outputs":[{"name":"","type":"address","internalType":"contract IndexFactoryStorage"}],"stateMutability":"view"},{"type":"function","name":"getPendingRequest","inputs":[{"name":"requestId","type":"bytes32","internalType":"bytes32"}],"outputs":[{"name":"","type":"address","internalType":"address"}],"stateMutability":"view"},{"type":"function","name":"initialize","inputs":[{"name":"_factoryStorage","type":"address","internalType":"address payable"}],"outputs":[],"stateMutability":"nonpayable"},{"type":"function","name":"issuanceIndexTokens","inputs":[{"name":"_tokenIn","type":"address","internalType":"address"},{"name":"_amountIn","type":"uint256","internalType":"uint256"},{"name":"_tokenInSwapFee","type":"uint24","internalType":"uint24"}],"outputs":[],"stateMutability":"nonpayable"},{"type":"function","name":"issuanceIndexTokensWithEth","inputs":[{"name":"_inputAmount","type":"uint256","internalType":"uint256"}],"outputs":[],"stateMutability":"payable"},{"type":"function","name":"owner","inputs":[],"outputs":[{"name":"","type":"address","internalType":"address"}],"stateMutability":"view"},{"type":"function","name":"pause","inputs":[],"outputs":[],"stateMutability":"nonpayable"},{"type":"function","name":"paused","inputs":[],"outputs":[{"name":"","type":"bool","internalType":"bool"}],"stateMutability":"view"},{"type":"function","name":"proposeOwner","inputs":[{"name":"_proposedOwner","type":"address","internalType":"address"}],"outputs":[],"stateMutability":"nonpayable"},{"type":"function","name":"proposedOwner","inputs":[],"outputs":[{"name":"","type":"address","internalType":"address"}],"stateMutability":"view"},{"type":"function","name":"redemption","inputs":[{"name":"amountIn","type":"uint256","internalType":"uint256"},{"name":"_tokenOut","type":"address","internalType":"address"},{"name":"_tokenOutSwapFee","type":"uint24","internalType":"uint24"}],"outputs":[{"name":"","type":"uint256","internalType":"uint256"}],"stateMutability":"nonpayable"},{"type":"function","name":"renounceOwnership","inputs":[],"outputs":[],"stateMutability":"nonpayable"},{"type":"function","name":"transferOwnership","inputs":[{"name":"newOwner","type":"address","internalType":"address"}],"outputs":[],"stateMutability":"nonpayable"},{"type":"function","name":"unpause","inputs":[],"outputs":[],"stateMutability":"nonpayable"},{"type":"event","name":"ChainlinkCancelled","inputs":[{"name":"id","type":"bytes32","indexed":true,"internalType":"bytes32"}],"anonymous":false},{"type":"event","name":"ChainlinkFulfilled","inputs":[{"name":"id","type":"bytes32","indexed":true,"internalType":"bytes32"}],"anonymous":false},{"type":"event","name":"ChainlinkRequested","inputs":[{"name":"id","type":"bytes32","indexed":true,"internalType":"bytes32"}],"anonymous":false},{"type":"event","name":"Initialized","inputs":[{"name":"version","type":"uint8","indexed":false,"internalType":"uint8"}],"anonymous":false},{"type":"event","name":"Issuanced","inputs":[{"name":"user","type":"address","indexed":true,"internalType":"address"},{"name":"inputToken","type":"address","indexed":true,"internalType":"address"},{"name":"inputAmount","type":"uint256","indexed":false,"internalType":"uint256"},{"name":"outputAmount","type":"uint256","indexed":false,"internalType":"uint256"},{"name":"time","type":"uint256","indexed":false,"internalType":"uint256"}],"anonymous":false},{"type":"event","name":"OwnershipTransferred","inputs":[{"name":"previousOwner","type":"address","indexed":true,"internalType":"address"},{"name":"newOwner","type":"address","indexed":true,"internalType":"address"}],"anonymous":false},{"type":"event","name":"Paused","inputs":[{"name":"account","type":"address","indexed":false,"internalType":"address"}],"anonymous":false},{"type":"event","name":"Redemption","inputs":[{"name":"user","type":"address","indexed":true,"internalType":"address"},{"name":"outputToken","type":"address","indexed":true,"internalType":"address"},{"name":"inputAmount","type":"uint256","indexed":false,"internalType":"uint256"},{"name":"outputAmount","type":"uint256","indexed":false,"internalType":"uint256"},{"name":"time","type":"uint256","indexed":false,"internalType":"uint256"}],"anonymous":false},{"type":"event","name":"Unpaused","inputs":[{"name":"account","type":"address","indexed":false,"internalType":"address"}],"anonymous":false}],"bytecode":{"object":"0x608060405234801561001057600080fd5b506130af806100206000396000f3fe6080604052600436106100e15760003560e01c806388b12d551161007f578063c06e1ae211610059578063c06e1ae214610243578063c4d66de814610264578063d153b60c14610284578063f2fde38b146102a457600080fd5b806388b12d55146101b75780638da5cb5b14610205578063b5ed298a1461022357600080fd5b80634b444186116100bb5780634b444186146101375780635c975abb1461016a578063715018a61461018d5780638456cb59146101a257600080fd5b8063372d4c55146100ed578063377bd3e5146101025780633f4ba83a1461012257600080fd5b366100e857005b600080fd5b6101006100fb366004612da1565b6102c4565b005b34801561010e57600080fd5b5061010061011d366004612c78565b6107f6565b34801561012e57600080fd5b50610100610df8565b34801561014357600080fd5b50610157610152366004612df0565b610e0a565b6040519081526020015b60405180910390f35b34801561017657600080fd5b50609e5460ff166040519015158152602001610161565b34801561019957600080fd5b50610100611266565b3480156101ae57600080fd5b50610100611278565b3480156101c357600080fd5b506101ed6101d2366004612da1565b6000908152600560205260409020546001600160a01b031690565b6040516001600160a01b039091168152602001610161565b34801561021157600080fd5b506039546001600160a01b03166101ed565b34801561022f57600080fd5b5061010061023e366004612c3e565b611288565b34801561024f57600080fd5b50610102546101ed906001600160a01b031681565b34801561027057600080fd5b5061010061027f366004612c3e565b6112d8565b34801561029057600080fd5b50606b546101ed906001600160a01b031681565b3480156102b057600080fd5b506101006102bf366004612c3e565b61146c565b6102cc611591565b600081116103125760405162461bcd60e51b815260206004820152600e60248201526d125b9d985b1a5908185b5bdd5b9d60921b60448201526064015b60405180910390fd5b610102546040805163fbfa77cf60e01b815290516000926001600160a01b03169163fbfa77cf916004808301926020929190829003018186803b15801561035857600080fd5b505afa15801561036c573d6000803e3d6000fd5b505050506040513d601f19601f820116820180604052508101906103909190612c5b565b9050600061010260009054906101000a90046001600160a01b03166001600160a01b0316633fc8cef36040518163ffffffff1660e01b815260040160206040518083038186803b1580156103e357600080fd5b505afa1580156103f7573d6000803e3d6000fd5b505050506040513d601f19601f8201168201806040525081019061041b9190612c5b565b9050600061010260009054906101000a90046001600160a01b03166001600160a01b031663b3f006746040518163ffffffff1660e01b815260040160206040518083038186803b15801561046e57600080fd5b505afa158015610482573d6000803e3d6000fd5b505050506040513d601f19601f820116820180604052508101906104a69190612c5b565b9050600061010260009054906101000a90046001600160a01b03166001600160a01b031663978bbdb96040518163ffffffff1660e01b815260040160206040518083038186803b1580156104f957600080fd5b505afa15801561050d573d6000803e3d6000fd5b505050506040513d601f19601f820116820180604052508101906105319190612e27565b60ff16905060006127106105458388612fc0565b61054f9190612f9e565b9050600061055d8288612f86565b9050803410156105af5760405162461bcd60e51b815260206004820152601a60248201527f6c6f776572207468616e20726571756972656420616d6f756e740000000000006044820152606401610309565b846001600160a01b031663d0e30db0826040518263ffffffff1660e01b81526004016000604051808303818588803b1580156105ea57600080fd5b505af11580156105fe573d6000803e3d6000fd5b505060405163a9059cbb60e01b81526001600160a01b038881166004830152602482018790528916935063a9059cbb92506044019050602060405180830381600087803b15801561064e57600080fd5b505af1158015610662573d6000803e3d6000fd5b505050506040513d601f19601f820116820180604052508101906106869190612d7f565b6106c85760405162461bcd60e51b8152602060048201526013602482015272199959481d1c985b9cd9995c8819985a5b1959606a1b6044820152606401610309565b61010254604080516329fea19960e11b815290516000926001600160a01b0316916353fd4332916004808301926020929190829003018186803b15801561070e57600080fd5b505afa158015610722573d6000803e3d6000fd5b505050506040513d601f19601f820116820180604052508101906107469190612dd7565b9050600061010260009054906101000a90046001600160a01b03166001600160a01b031663a8509fd86040518163ffffffff1660e01b815260040160206040518083038186803b15801561079957600080fd5b505afa1580156107ad573d6000803e3d6000fd5b505050506040513d601f19601f820116820180604052508101906107d19190612dd7565b90506107e1878a848b8d866115eb565b50505050505050506107f3600160d055565b50565b6107fe611591565b6001600160a01b03831661084c5760405162461bcd60e51b8152602060048201526015602482015274496e76616c696420746f6b656e206164647265737360581b6044820152606401610309565b6000821161088d5760405162461bcd60e51b815260206004820152600e60248201526d125b9d985b1a5908185b5bdd5b9d60921b6044820152606401610309565b6101025460408051633fc8cef360e01b815290516000926001600160a01b031691633fc8cef3916004808301926020929190829003018186803b1580156108d357600080fd5b505afa1580156108e7573d6000803e3d6000fd5b505050506040513d601f19601f8201168201806040525081019061090b9190612c5b565b9050600061010260009054906101000a90046001600160a01b03166001600160a01b031663fbfa77cf6040518163ffffffff1660e01b815260040160206040518083038186803b15801561095e57600080fd5b505afa158015610972573d6000803e3d6000fd5b505050506040513d601f19601f820116820180604052508101906109969190612c5b565b9050600061010260009054906101000a90046001600160a01b03166001600160a01b03166353fd43326040518163ffffffff1660e01b815260040160206040518083038186803b1580156109e957600080fd5b505afa1580156109fd573d6000803e3d6000fd5b505050506040513d601f19601f82011682018060405250810190610a219190612dd7565b9050600061010260009054906101000a90046001600160a01b03166001600160a01b031663978bbdb96040518163ffffffff1660e01b815260040160206040518083038186803b158015610a7457600080fd5b505afa158015610a88573d6000803e3d6000fd5b505050506040513d601f19601f82011682018060405250810190610aac9190612e27565b60ff1690506000612710610ac08389612fc0565b610aca9190612f9e565b9050600061010260009054906101000a90046001600160a01b03166001600160a01b031663a8509fd86040518163ffffffff1660e01b815260040160206040518083038186803b158015610b1d57600080fd5b505afa158015610b31573d6000803e3d6000fd5b505050506040513d601f19601f82011682018060405250810190610b559190612dd7565b90506001600160a01b0389166323b872dd3330610b72868d612f86565b6040516001600160e01b031960e086901b1681526001600160a01b0393841660048201529290911660248301526044820152606401602060405180830381600087803b158015610bc157600080fd5b505af1158015610bd5573d6000803e3d6000fd5b505050506040513d601f19601f82011682018060405250810190610bf99190612d7f565b610c3d5760405162461bcd60e51b8152602060048201526015602482015274151bdad95b881d1c985b9cd9995c8819985a5b1959605a1b6044820152606401610309565b6000610c558a88610c4e868d612f86565b308c6119bb565b9050600061010260009054906101000a90046001600160a01b03166001600160a01b031663b3f006746040518163ffffffff1660e01b815260040160206040518083038186803b158015610ca857600080fd5b505afa158015610cbc573d6000803e3d6000fd5b505050506040513d601f19601f82011682018060405250810190610ce09190612c5b565b90506000612710610cf18785612fc0565b610cfb9190612f9e565b90506000610d098285612fdf565b60405163a9059cbb60e01b81526001600160a01b03858116600483015260248201859052919250908b169063a9059cbb90604401602060405180830381600087803b158015610d5757600080fd5b505af1158015610d6b573d6000803e3d6000fd5b505050506040513d601f19601f82011682018060405250810190610d8f9190612d7f565b610dd15760405162461bcd60e51b8152602060048201526013602482015272199959481d1c985b9cd9995c8819985a5b1959606a1b6044820152606401610309565b610ddf8d8d8a8c858a6115eb565b50505050505050505050610df3600160d055565b505050565b610e00611aed565b610e08611b47565b565b6000610e14611591565b610102546040805163fbfa77cf60e01b815290516000926001600160a01b03169163fbfa77cf916004808301926020929190829003018186803b158015610e5a57600080fd5b505afa158015610e6e573d6000803e3d6000fd5b505050506040513d601f19601f82011682018060405250810190610e929190612c5b565b9050600061010260009054906101000a90046001600160a01b03166001600160a01b03166353fd43326040518163ffffffff1660e01b815260040160206040518083038186803b158015610ee557600080fd5b505afa158015610ef9573d6000803e3d6000fd5b505050506040513d601f19601f82011682018060405250810190610f1d9190612dd7565b9050600061010260009054906101000a90046001600160a01b03166001600160a01b031663978bbdb96040518163ffffffff1660e01b815260040160206040518083038186803b158015610f7057600080fd5b505afa158015610f84573d6000803e3d6000fd5b505050506040513d601f19601f82011682018060405250810190610fa89190612e27565b60ff169050600061010260009054906101000a90046001600160a01b03166001600160a01b031663b3f006746040518163ffffffff1660e01b815260040160206040518083038186803b158015610ffe57600080fd5b505afa158015611012573d6000803e3d6000fd5b505050506040513d601f19601f820116820180604052508101906110369190612c5b565b9050600061010260009054906101000a90046001600160a01b03166001600160a01b031663e7d015f26040518163ffffffff1660e01b815260040160206040518083038186803b15801561108957600080fd5b505afa15801561109d573d6000803e3d6000fd5b505050506040513d601f19601f820116820180604052508101906110c19190612c5b565b90506000816001600160a01b03166318160ddd6040518163ffffffff1660e01b815260040160206040518083038186803b1580156110fe57600080fd5b505afa158015611112573d6000803e3d6000fd5b505050506040513d601f19601f820116820180604052508101906111369190612dd7565b6111488b670de0b6b3a7640000612fc0565b6111529190612f9e565b604051632770a7eb60e21b8152336004820152602481018c90529091506001600160a01b03831690639dc29fac90604401600060405180830381600087803b15801561119d57600080fd5b505af11580156111b1573d6000803e3d6000fd5b50505050600061124c61010260009054906101000a90046001600160a01b03166001600160a01b03166353fd43326040518163ffffffff1660e01b815260040160206040518083038186803b15801561120957600080fd5b505afa15801561121d573d6000803e3d6000fd5b505050506040513d601f19601f820116820180604052508101906112419190612dd7565b88848d8d8a8a611b99565b97505050505050505061125f600160d055565b9392505050565b61126e611aed565b610e086000611c50565b611280611aed565b610e08611ca2565b611290611aed565b6001600160a01b0381166112b65760405162461bcd60e51b815260040161030990612e8e565b606b80546001600160a01b0319166001600160a01b0392909216919091179055565b600654610100900460ff16158080156112f85750600654600160ff909116105b806113125750303b158015611312575060065460ff166001145b6113755760405162461bcd60e51b815260206004820152602e60248201527f496e697469616c697a61626c653a20636f6e747261637420697320616c72656160448201526d191e481a5b9a5d1a585b1a5e995960921b6064820152608401610309565b6006805460ff191660011790558015611398576006805461ff0019166101001790555b6001600160a01b0382166113ee5760405162461bcd60e51b815260206004820152601f60248201527f496e76616c696420666163746f72792073746f726167652061646472657373006044820152606401610309565b6113f6611cdf565b6113fe611d0e565b611406611d3d565b61010280546001600160a01b0319166001600160a01b0384161790558015611468576006805461ff0019169055604051600181527f7f26b83ff96e1f2b6a682f133852f6798a09c465da95921460cefb38474024989060200160405180910390a15b5050565b6001600160a01b0381166114925760405162461bcd60e51b815260040161030990612e8e565b606b546001600160a01b0382811691161461150a5760405162461bcd60e51b815260206004820152603260248201527f50726f706f7361626c654f776e61626c653a206e6577206f776e6572206973206044820152713737ba10383937b837b9b2b21037bbb732b960711b6064820152608401610309565b6001600160a01b03811633146115885760405162461bcd60e51b815260206004820152603a60248201527f50726f706f7361626c654f776e61626c653a20746869732063616c6c206d757360448201527f74206265206d61646520627920746865206e6577206f776e65720000000000006064820152608401610309565b6107f381611c50565b600260d05414156115e45760405162461bcd60e51b815260206004820152601f60248201527f5265656e7472616e637947756172643a207265656e7472616e742063616c6c006044820152606401610309565b600260d055565b6101025460408051633fc8cef360e01b815290516000926001600160a01b031691633fc8cef3916004808301926020929190829003018186803b15801561163157600080fd5b505afa158015611645573d6000803e3d6000fd5b505050506040513d601f19601f820116820180604052508101906116699190612c5b565b905060005b8581101561194d576101025460405163264cae9360e21b8152600481018390526000916001600160a01b031690639932ba4c9060240160206040518083038186803b1580156116bc57600080fd5b505afa1580156116d0573d6000803e3d6000fd5b505050506040513d601f19601f820116820180604052508101906116f49190612c5b565b61010254604051630be5271360e01b81526001600160a01b03808416600483015292935060009290911690630be527139060240160206040518083038186803b15801561174057600080fd5b505afa158015611754573d6000803e3d6000fd5b505050506040513d601f19601f820116820180604052508101906117789190612dd7565b61010254604051633259966560e01b81526001600160a01b0385811660048301529293506000929091169063325996659060240160206040518083038186803b1580156117c457600080fd5b505afa1580156117d8573d6000803e3d6000fd5b505050506040513d601f19601f820116820180604052508101906117fc9190612dba565b9050846001600160a01b0316836001600160a01b031614611889576000611843868568056bc75e2d63100000611832878d612fc0565b61183c9190612f9e565b8c866119bb565b9050600081116118835760405162461bcd60e51b815260206004820152600b60248201526a14ddd85c0819985a5b195960aa1b6044820152606401610309565b50611937565b6001600160a01b03851663a9059cbb8968056bc75e2d631000006118ad868c612fc0565b6118b79190612f9e565b6040516001600160e01b031960e085901b1681526001600160a01b0390921660048301526024820152604401602060405180830381600087803b1580156118fd57600080fd5b505af1158015611911573d6000803e3d6000fd5b505050506040513d601f19601f820116820180604052508101906119359190612d7f565b505b505050808061194590612ff6565b91505061166e565b50600061195a8484611d6c565b6040805189815260208101839052428183015290519192506001600160a01b038a169133917f4fee1c514ee0e252e3a0babfa8b5030fb89be7ea2b38df9a7fbbf788e54f3d91919081900360600190a35050505050505050565b600160d055565b60008061010260009054906101000a90046001600160a01b03166001600160a01b031663b631e80b6040518163ffffffff1660e01b815260040160206040518083038186803b158015611a0d57600080fd5b505afa158015611a21573d6000803e3d6000fd5b505050506040513d601f19601f82011682018060405250810190611a459190612c5b565b9050600061010260009054906101000a90046001600160a01b03166001600160a01b031663744fbc7a6040518163ffffffff1660e01b815260040160206040518083038186803b158015611a9857600080fd5b505afa158015611aac573d6000803e3d6000fd5b505050506040513d601f19601f82011682018060405250810190611ad09190612c5b565b9050611ae18282868b8b8b8b611f97565b98975050505050505050565b6039546001600160a01b03163314610e085760405162461bcd60e51b815260206004820181905260248201527f4f776e61626c653a2063616c6c6572206973206e6f7420746865206f776e65726044820152606401610309565b611b4f611fd4565b609e805460ff191690557f5db9ee0a495bf2e6ff9c91a7834c1ba4fdd244a5e8aa4e537bd38aeae4b073aa335b6040516001600160a01b03909116815260200160405180910390a1565b60008061010260009054906101000a90046001600160a01b03166001600160a01b031663e7d015f26040518163ffffffff1660e01b815260040160206040518083038186803b158015611beb57600080fd5b505afa158015611bff573d6000803e3d6000fd5b505050506040513d601f19601f82011682018060405250810190611c239190612c5b565b90506000611c32888b8b61201d565b9050611c428882898989896123d0565b9a9950505050505050505050565b603980546001600160a01b038381166001600160a01b0319831681179093556040519116919082907f8be0079c531659141344cd1fd0a4f28419497f9722a3daafe3b4186f6b6457e090600090a35050565b611caa612791565b609e805460ff191660011790557f62e78cea01bee320cd4e420270b5ea74000d11b0c9f74754ebdbfc544b05a258611b7c3390565b600654610100900460ff16611d065760405162461bcd60e51b815260040161030990612ede565b610e086127d7565b600654610100900460ff16611d355760405162461bcd60e51b815260040161030990612ede565b610e08612807565b600654610100900460ff16611d645760405162461bcd60e51b815260040161030990612ede565b610e0861283a565b60008061010260009054906101000a90046001600160a01b03166001600160a01b031663e7d015f26040518163ffffffff1660e01b815260040160206040518083038186803b158015611dbe57600080fd5b505afa158015611dd2573d6000803e3d6000fd5b505050506040513d601f19601f82011682018060405250810190611df69190612c5b565b90506000816001600160a01b03166318160ddd6040518163ffffffff1660e01b815260040160206040518083038186803b158015611e3357600080fd5b505afa158015611e47573d6000803e3d6000fd5b505050506040513d601f19601f82011682018060405250810190611e6b9190612dd7565b90508015611e8f5783611e7e8683612fc0565b611e889190612f9e565b9250611f2f565b6101025460408051630791b4b160e31b815290516000926001600160a01b031691633c8da588916004808301926020929190829003018186803b158015611ed557600080fd5b505afa158015611ee9573d6000803e3d6000fd5b505050506040513d601f19601f82011682018060405250810190611f0d9190612dd7565b9050662386f26fc10000611f218288612fc0565b611f2b9190612f9e565b9350505b6040516340c10f1960e01b8152336004820152602481018490526001600160a01b038316906340c10f1990604401600060405180830381600087803b158015611f7757600080fd5b505af1158015611f8b573d6000803e3d6000fd5b50505050505092915050565b600062ffffff861615611fb957611fb2888787878787612861565b9050611fc9565b611fc68786868686612a28565b90505b979650505050505050565b609e5460ff16610e085760405162461bcd60e51b815260206004820152601460248201527314185d5cd8589b194e881b9bdd081c185d5cd95960621b6044820152606401610309565b60008061010260009054906101000a90046001600160a01b03166001600160a01b0316633fc8cef36040518163ffffffff1660e01b815260040160206040518083038186803b15801561206f57600080fd5b505afa158015612083573d6000803e3d6000fd5b505050506040513d601f19601f820116820180604052508101906120a79190612c5b565b905060005b848110156123c7576101025460405163264cae9360e21b8152600481018390526000916001600160a01b031690639932ba4c9060240160206040518083038186803b1580156120fa57600080fd5b505afa15801561210e573d6000803e3d6000fd5b505050506040513d601f19601f820116820180604052508101906121329190612c5b565b61010254604051633259966560e01b81526001600160a01b0380841660048301529293506000929091169063325996659060240160206040518083038186803b15801561217e57600080fd5b505afa158015612192573d6000803e3d6000fd5b505050506040513d601f19601f820116820180604052508101906121b69190612dba565b6040516370a0823160e01b81526001600160a01b038881166004830152919250600091670de0b6b3a764000091908516906370a082319060240160206040518083038186803b15801561220857600080fd5b505afa15801561221c573d6000803e3d6000fd5b505050506040513d601f19601f820116820180604052508101906122409190612dd7565b61224a908b612fc0565b6122549190612f9e565b9050846001600160a01b0316836001600160a01b03161461231b57604051631c20fadd60e01b81526001600160a01b03848116600483015230602483015260448201839052881690631c20fadd90606401602060405180830381600087803b1580156122bf57600080fd5b505af11580156122d3573d6000803e3d6000fd5b505050506040513d601f19601f820116820180604052508101906122f79190612d7f565b50600061230784878430876119bb565b90506123138188612f86565b9650506123b1565b604051631c20fadd60e01b81526001600160a01b03868116600483015230602483015260448201839052881690631c20fadd90606401602060405180830381600087803b15801561236b57600080fd5b505af115801561237f573d6000803e3d6000fd5b505050506040513d601f19601f820116820180604052508101906123a39190612d7f565b506123ae8187612f86565b95505b50505080806123bf90612ff6565b9150506120ac565b50509392505050565b60008061010260009054906101000a90046001600160a01b03166001600160a01b0316633fc8cef36040518163ffffffff1660e01b815260040160206040518083038186803b15801561242257600080fd5b505afa158015612436573d6000803e3d6000fd5b505050506040513d601f19601f8201168201806040525081019061245a9190612c5b565b9050600061271061246b868a612fc0565b6124759190612f9e565b9050816001600160a01b0316876001600160a01b03161415612692576001600160a01b038216632e1a7d4d6124aa838b612fdf565b6040518263ffffffff1660e01b81526004016124c891815260200190565b600060405180830381600087803b1580156124e257600080fd5b505af11580156124f6573d6000803e3d6000fd5b505060405163a9059cbb60e01b81526001600160a01b038781166004830152602482018590528516925063a9059cbb9150604401602060405180830381600087803b15801561254457600080fd5b505af1158015612558573d6000803e3d6000fd5b505050506040513d601f19601f8201168201806040525081019061257c9190612d7f565b5060003361258a838b612fdf565b604051600081818185875af1925050503d80600081146125c6576040519150601f19603f3d011682016040523d82523d6000602084013e6125cb565b606091505b50509050806126285760405162461bcd60e51b815260206004820152602360248201527f7472616e73666572206574682066656520746f207468652075736572206661696044820152621b195960ea1b6064820152608401610309565b6001600160a01b038816337f4f808f68134f8b72b842a276c2b37b03415d4992c65a94fcee50d33201915b998c61265f868e612fdf565b604080519283526020830191909152429082015260600160405180910390a3612688828a612fdf565b9350505050612787565b60405163a9059cbb60e01b81526001600160a01b0385811660048301526024820183905283169063a9059cbb90604401602060405180830381600087803b1580156126dc57600080fd5b505af11580156126f0573d6000803e3d6000fd5b505050506040513d601f19601f820116820180604052508101906127149190612d7f565b50600061272d8389612726858d612fdf565b338b6119bb565b604080518c815260208101839052428183015290519192506001600160a01b038a169133917f4f808f68134f8b72b842a276c2b37b03415d4992c65a94fcee50d33201915b99919081900360600190a39250612787915050565b9695505050505050565b609e5460ff1615610e085760405162461bcd60e51b815260206004820152601060248201526f14185d5cd8589b194e881c185d5cd95960821b6044820152606401610309565b600654610100900460ff166127fe5760405162461bcd60e51b815260040161030990612ede565b610e0833611c50565b600654610100900460ff1661282e5760405162461bcd60e51b815260040161030990612ede565b609e805460ff19169055565b600654610100900460ff166119b45760405162461bcd60e51b815260040161030990612ede565b60405163095ea7b360e01b81526001600160a01b038781166004830152602482018490526000919086169063095ea7b390604401602060405180830381600087803b1580156128af57600080fd5b505af11580156128c3573d6000803e3d6000fd5b505050506040513d601f19601f820116820180604052508101906128e79190612d7f565b506000604051806101000160405280876001600160a01b03168152602001866001600160a01b031681526020018862ffffff168152602001846001600160a01b031681526020014261012c61293c9190612f86565b8152602080820187905260006040808401829052606093840191909152805163414bf38960e01b815284516001600160a01b03908116600483015292850151831660248201529084015162ffffff16604482015291830151811660648301526080830151608483015260a083015160a483015260c083015160c483015260e0830151811660e48301529192509089169063414bf3899061010401602060405180830381600087803b1580156129f057600080fd5b505af1158015612a04573d6000803e3d6000fd5b505050506040513d601f19601f82011682018060405250810190611ae19190612dd7565b604080516002808252606082018352600092839291906020830190803683370190505090508581600081518110612a6157612a61613027565b60200260200101906001600160a01b031690816001600160a01b0316815250508481600181518110612a9557612a95613027565b6001600160a01b03928316602091820292909201015260405163d06ca61f60e01b815260009189169063d06ca61f90612ad49088908690600401612f29565b60006040518083038186803b158015612aec57600080fd5b505afa158015612b00573d6000803e3d6000fd5b505050506040513d6000823e601f3d908101601f19168201604052612b289190810190612cba565b60405163095ea7b360e01b81526001600160a01b038a81166004830152602482018890529192509088169063095ea7b390604401602060405180830381600087803b158015612b7657600080fd5b505af1158015612b8a573d6000803e3d6000fd5b505050506040513d601f19601f82011682018060405250810190612bae9190612d7f565b50604051635c11d79560e01b81526001600160a01b03891690635c11d79590612be490889060009087908a904290600401612f4a565b600060405180830381600087803b158015612bfe57600080fd5b505af1158015612c12573d6000803e3d6000fd5b5050505080600181518110612c2957612c29613027565b60200260200101519250505095945050505050565b600060208284031215612c5057600080fd5b813561125f81613053565b600060208284031215612c6d57600080fd5b815161125f81613053565b600080600060608486031215612c8d57600080fd5b8335612c9881613053565b9250602084013591506040840135612caf81613068565b809150509250925092565b60006020808385031215612ccd57600080fd5b825167ffffffffffffffff80821115612ce557600080fd5b818501915085601f830112612cf957600080fd5b815181811115612d0b57612d0b61303d565b8060051b604051601f19603f83011681018181108582111715612d3057612d3061303d565b604052828152858101935084860182860187018a1015612d4f57600080fd5b600095505b83861015612d72578051855260019590950194938601938601612d54565b5098975050505050505050565b600060208284031215612d9157600080fd5b8151801515811461125f57600080fd5b600060208284031215612db357600080fd5b5035919050565b600060208284031215612dcc57600080fd5b815161125f81613068565b600060208284031215612de957600080fd5b5051919050565b600080600060608486031215612e0557600080fd5b833592506020840135612e1781613053565b91506040840135612caf81613068565b600060208284031215612e3957600080fd5b815160ff8116811461125f57600080fd5b600081518084526020808501945080840160005b83811015612e835781516001600160a01b031687529582019590820190600101612e5e565b509495945050505050565b60208082526030908201527f50726f706f7361626c654f776e61626c653a206e6577206f776e65722069732060408201526f746865207a65726f206164647265737360801b606082015260800190565b6020808252602b908201527f496e697469616c697a61626c653a20636f6e7472616374206973206e6f74206960408201526a6e697469616c697a696e6760a81b606082015260800190565b828152604060208201526000612f426040830184612e4a565b949350505050565b85815284602082015260a060408201526000612f6960a0830186612e4a565b6001600160a01b0394909416606083015250608001529392505050565b60008219821115612f9957612f99613011565b500190565b600082612fbb57634e487b7160e01b600052601260045260246000fd5b500490565b6000816000190483118215151615612fda57612fda613011565b500290565b600082821015612ff157612ff1613011565b500390565b600060001982141561300a5761300a613011565b5060010190565b634e487b7160e01b600052601160045260246000fd5b634e487b7160e01b600052603260045260246000fd5b634e487b7160e01b600052604160045260246000fd5b6001600160a01b03811681146107f357600080fd5b62ffffff811681146107f357600080fdfea2646970667358221220fb9116c47964aba1b077ccc7ab97933b868d38ac1effb71e380902ce81b0fccb64736f6c63430008070033","linkReferences":{}},"methodIdentifiers":{"factoryStorage()":"c06e1ae2","getPendingRequest(bytes32)":"88b12d55","initialize(address)":"c4d66de8","issuanceIndexTokens(address,uint256,uint24)":"377bd3e5","issuanceIndexTokensWithEth(uint256)":"372d4c55","owner()":"8da5cb5b","pause()":"8456cb59","paused()":"5c975abb","proposeOwner(address)":"b5ed298a","proposedOwner()":"d153b60c","redemption(uint256,address,uint24)":"4b444186","renounceOwnership()":"715018a6","transferOwnership(address)":"f2fde38b","unpause()":"3f4ba83a"},"id":2}