{"abi":[{"type":"receive","stateMutability":"payable"},{"type":"function","name":"concatenation","inputs":[{"name":"a","type":"string","internalType":"string"},{"name":"b","type":"string","internalType":"string"}],"outputs":[{"name":"","type":"string","internalType":"string"}],"stateMutability":"pure"},{"type":"function","name":"currentList","inputs":[{"name":"","type":"uint256","internalType":"uint256"}],"outputs":[{"name":"","type":"address","internalType":"address"}],"stateMutability":"view"},{"type":"function","name":"estimateAmountOut","inputs":[{"name":"tokenIn","type":"address","internalType":"address"},{"name":"tokenOut","type":"address","internalType":"address"},{"name":"amountIn","type":"uint128","internalType":"uint128"}],"outputs":[{"name":"amountOut","type":"uint256","internalType":"uint256"}],"stateMutability":"view"},{"type":"function","name":"externalJobId","inputs":[],"outputs":[{"name":"","type":"bytes32","internalType":"bytes32"}],"stateMutability":"view"},{"type":"function","name":"factoryV2","inputs":[],"outputs":[{"name":"","type":"address","internalType":"contract IUniswapV2Factory"}],"stateMutability":"view"},{"type":"function","name":"factoryV3","inputs":[],"outputs":[{"name":"","type":"address","internalType":"contract IUniswapV3Factory"}],"stateMutability":"view"},{"type":"function","name":"fee","inputs":[],"outputs":[{"name":"","type":"uint256","internalType":"uint256"}],"stateMutability":"view"},{"type":"function","name":"feeRate","inputs":[],"outputs":[{"name":"","type":"uint8","internalType":"uint8"}],"stateMutability":"view"},{"type":"function","name":"feeRatePerDayScaled","inputs":[],"outputs":[{"name":"","type":"uint256","internalType":"uint256"}],"stateMutability":"view"},{"type":"function","name":"feeReceiver","inputs":[],"outputs":[{"name":"","type":"address","internalType":"address"}],"stateMutability":"view"},{"type":"function","name":"feeTimestamp","inputs":[],"outputs":[{"name":"","type":"uint256","internalType":"uint256"}],"stateMutability":"view"},{"type":"function","name":"fulfillAssetsData","inputs":[{"name":"requestId","type":"bytes32","internalType":"bytes32"},{"name":"_tokens","type":"address[]","internalType":"address[]"},{"name":"_marketShares","type":"uint256[]","internalType":"uint256[]"},{"name":"_swapVersions","type":"uint256[]","internalType":"uint256[]"}],"outputs":[],"stateMutability":"nonpayable"},{"type":"function","name":"getAmountOut","inputs":[{"name":"tokenIn","type":"address","internalType":"address"},{"name":"tokenOut","type":"address","internalType":"address"},{"name":"amountIn","type":"uint256","internalType":"uint256"},{"name":"_swapVersion","type":"uint256","internalType":"uint256"}],"outputs":[{"name":"finalAmountOut","type":"uint256","internalType":"uint256"}],"stateMutability":"view"},{"type":"function","name":"getExactAmountOut","inputs":[{"name":"tokenIn","type":"address","internalType":"address"},{"name":"tokenOut","type":"address","internalType":"address"},{"name":"amountIn","type":"uint256","internalType":"uint256"},{"name":"_swapVersion","type":"uint256","internalType":"uint256"}],"outputs":[{"name":"finalAmountOut","type":"uint256","internalType":"uint256"}],"stateMutability":"nonpayable"},{"type":"function","name":"getExactAmountOut2","inputs":[{"name":"tokenIn","type":"address","internalType":"address"},{"name":"tokenOut","type":"address","internalType":"address"},{"name":"amountIn","type":"uint256","internalType":"uint256"}],"outputs":[{"name":"finalAmountOut","type":"uint256","internalType":"uint256"}],"stateMutability":"nonpayable"},{"type":"function","name":"getIssuanceAmountOut","inputs":[{"name":"_amountIn","type":"uint256","internalType":"uint256"},{"name":"_tokenIn","type":"address","internalType":"address"},{"name":"_swapVersion","type":"uint256","internalType":"uint256"}],"outputs":[{"name":"","type":"uint256","internalType":"uint256"}],"stateMutability":"view"},{"type":"function","name":"getIssuanceAmountOut2","inputs":[{"name":"_amountIn","type":"uint256","internalType":"uint256"},{"name":"_tokenIn","type":"address","internalType":"address"},{"name":"_swapVersion","type":"uint256","internalType":"uint256"}],"outputs":[{"name":"","type":"uint256","internalType":"uint256"}],"stateMutability":"nonpayable"},{"type":"function","name":"getPortfolioBalance","inputs":[],"outputs":[{"name":"","type":"uint256","internalType":"uint256"}],"stateMutability":"view"},{"type":"function","name":"getRedemptionAmountOut","inputs":[{"name":"_amountIn","type":"uint256","internalType":"uint256"},{"name":"_tokenOut","type":"address","internalType":"address"},{"name":"_swapVersion","type":"uint256","internalType":"uint256"}],"outputs":[{"name":"","type":"uint256","internalType":"uint256"}],"stateMutability":"view"},{"type":"function","name":"getRedemptionAmountOut2","inputs":[{"name":"_amountIn","type":"uint256","internalType":"uint256"},{"name":"_tokenOut","type":"address","internalType":"address"},{"name":"_swapVersion","type":"uint256","internalType":"uint256"}],"outputs":[{"name":"","type":"uint256","internalType":"uint256"}],"stateMutability":"nonpayable"},{"type":"function","name":"indexToken","inputs":[],"outputs":[{"name":"","type":"address","internalType":"contract IndexToken"}],"stateMutability":"view"},{"type":"function","name":"initialize","inputs":[{"name":"_token","type":"address","internalType":"address payable"},{"name":"_chainlinkToken","type":"address","internalType":"address"},{"name":"_oracleAddress","type":"address","internalType":"address"},{"name":"_externalJobId","type":"bytes32","internalType":"bytes32"},{"name":"_toUsdPriceFeed","type":"address","internalType":"address"},{"name":"_weth","type":"address","internalType":"address"},{"name":"_quoter","type":"address","internalType":"address"},{"name":"_swapRouterV3","type":"address","internalType":"address"},{"name":"_factoryV3","type":"address","internalType":"address"},{"name":"_swapRouterV2","type":"address","internalType":"address"},{"name":"_factoryV2","type":"address","internalType":"address"}],"outputs":[],"stateMutability":"nonpayable"},{"type":"function","name":"isRestricted","inputs":[{"name":"","type":"address","internalType":"address"}],"outputs":[{"name":"","type":"bool","internalType":"bool"}],"stateMutability":"view"},{"type":"function","name":"issuanceIndexTokens","inputs":[{"name":"_tokenIn","type":"address","internalType":"address"},{"name":"_amountIn","type":"uint256","internalType":"uint256"},{"name":"_tokenInSwapVersion","type":"uint256","internalType":"uint256"}],"outputs":[],"stateMutability":"nonpayable"},{"type":"function","name":"issuanceIndexTokensWithEth","inputs":[{"name":"_inputAmount","type":"uint256","internalType":"uint256"}],"outputs":[],"stateMutability":"payable"},{"type":"function","name":"lastUpdateTime","inputs":[],"outputs":[{"name":"","type":"uint256","internalType":"uint256"}],"stateMutability":"view"},{"type":"function","name":"latestFeeUpdate","inputs":[],"outputs":[{"name":"","type":"uint256","internalType":"uint256"}],"stateMutability":"view"},{"type":"function","name":"methodologist","inputs":[],"outputs":[{"name":"","type":"address","internalType":"address"}],"stateMutability":"view"},{"type":"function","name":"methodology","inputs":[],"outputs":[{"name":"","type":"string","internalType":"string"}],"stateMutability":"view"},{"type":"function","name":"minter","inputs":[],"outputs":[{"name":"","type":"address","internalType":"address"}],"stateMutability":"view"},{"type":"function","name":"mockFillAssetsList","inputs":[{"name":"_tokens","type":"address[]","internalType":"address[]"},{"name":"_marketShares","type":"uint256[]","internalType":"uint256[]"},{"name":"_swapVersions","type":"uint256[]","internalType":"uint256[]"}],"outputs":[],"stateMutability":"nonpayable"},{"type":"function","name":"oracleList","inputs":[{"name":"","type":"uint256","internalType":"uint256"}],"outputs":[{"name":"","type":"address","internalType":"address"}],"stateMutability":"view"},{"type":"function","name":"oraclePayment","inputs":[],"outputs":[{"name":"","type":"uint256","internalType":"uint256"}],"stateMutability":"view"},{"type":"function","name":"owner","inputs":[],"outputs":[{"name":"","type":"address","internalType":"address"}],"stateMutability":"view"},{"type":"function","name":"pause","inputs":[],"outputs":[],"stateMutability":"nonpayable"},{"type":"function","name":"paused","inputs":[],"outputs":[{"name":"","type":"bool","internalType":"bool"}],"stateMutability":"view"},{"type":"function","name":"priceInWei","inputs":[],"outputs":[{"name":"","type":"uint256","internalType":"uint256"}],"stateMutability":"view"},{"type":"function","name":"priceOracle","inputs":[],"outputs":[{"name":"","type":"address","internalType":"address"}],"stateMutability":"view"},{"type":"function","name":"proposeOwner","inputs":[{"name":"_proposedOwner","type":"address","internalType":"address"}],"outputs":[],"stateMutability":"nonpayable"},{"type":"function","name":"proposedOwner","inputs":[],"outputs":[{"name":"","type":"address","internalType":"address"}],"stateMutability":"view"},{"type":"function","name":"quoter","inputs":[],"outputs":[{"name":"","type":"address","internalType":"contract IQuoter"}],"stateMutability":"view"},{"type":"function","name":"reIndexAndReweight","inputs":[],"outputs":[],"stateMutability":"nonpayable"},{"type":"function","name":"redemption","inputs":[{"name":"amountIn","type":"uint256","internalType":"uint256"},{"name":"_tokenOut","type":"address","internalType":"address"},{"name":"_tokenOutSwapVersion","type":"uint256","internalType":"uint256"}],"outputs":[{"name":"","type":"uint256","internalType":"uint256"}],"stateMutability":"nonpayable"},{"type":"function","name":"renounceOwnership","inputs":[],"outputs":[],"stateMutability":"nonpayable"},{"type":"function","name":"requestAssetsData","inputs":[],"outputs":[{"name":"","type":"bytes32","internalType":"bytes32"}],"stateMutability":"nonpayable"},{"type":"function","name":"setFeeRate","inputs":[{"name":"_newFee","type":"uint8","internalType":"uint8"}],"outputs":[],"stateMutability":"nonpayable"},{"type":"function","name":"setFeeReceiver","inputs":[{"name":"_feeReceiver","type":"address","internalType":"address"}],"outputs":[],"stateMutability":"nonpayable"},{"type":"function","name":"setPriceFeed","inputs":[{"name":"_toUsdPricefeed","type":"address","internalType":"address"}],"outputs":[],"stateMutability":"nonpayable"},{"type":"function","name":"setPriceOracle","inputs":[{"name":"_priceOracle","type":"address","internalType":"address"}],"outputs":[],"stateMutability":"nonpayable"},{"type":"function","name":"setUrl","inputs":[{"name":"_beforeAddress","type":"string","internalType":"string"},{"name":"_afterAddress","type":"string","internalType":"string"}],"outputs":[],"stateMutability":"nonpayable"},{"type":"function","name":"supplyCeiling","inputs":[],"outputs":[{"name":"","type":"uint256","internalType":"uint256"}],"stateMutability":"view"},{"type":"function","name":"swapRouterV2","inputs":[],"outputs":[{"name":"","type":"address","internalType":"contract IUniswapV2Router02"}],"stateMutability":"view"},{"type":"function","name":"swapRouterV3","inputs":[],"outputs":[{"name":"","type":"address","internalType":"contract ISwapRouter"}],"stateMutability":"view"},{"type":"function","name":"toUsdPriceFeed","inputs":[],"outputs":[{"name":"","type":"address","internalType":"contract AggregatorV3Interface"}],"stateMutability":"view"},{"type":"function","name":"tokenCurrentListIndex","inputs":[{"name":"","type":"address","internalType":"address"}],"outputs":[{"name":"","type":"uint256","internalType":"uint256"}],"stateMutability":"view"},{"type":"function","name":"tokenCurrentMarketShare","inputs":[{"name":"","type":"address","internalType":"address"}],"outputs":[{"name":"","type":"uint256","internalType":"uint256"}],"stateMutability":"view"},{"type":"function","name":"tokenOracleListIndex","inputs":[{"name":"","type":"address","internalType":"address"}],"outputs":[{"name":"","type":"uint256","internalType":"uint256"}],"stateMutability":"view"},{"type":"function","name":"tokenOracleMarketShare","inputs":[{"name":"","type":"address","internalType":"address"}],"outputs":[{"name":"","type":"uint256","internalType":"uint256"}],"stateMutability":"view"},{"type":"function","name":"tokenSwapVersion","inputs":[{"name":"","type":"address","internalType":"address"}],"outputs":[{"name":"","type":"uint256","internalType":"uint256"}],"stateMutability":"view"},{"type":"function","name":"totalCurrentList","inputs":[],"outputs":[{"name":"","type":"uint256","internalType":"uint256"}],"stateMutability":"view"},{"type":"function","name":"totalOracleList","inputs":[],"outputs":[{"name":"","type":"uint256","internalType":"uint256"}],"stateMutability":"view"},{"type":"function","name":"transferOwnership","inputs":[{"name":"newOwner","type":"address","internalType":"address"}],"outputs":[],"stateMutability":"nonpayable"},{"type":"function","name":"unpause","inputs":[],"outputs":[],"stateMutability":"nonpayable"},{"type":"function","name":"weth","inputs":[],"outputs":[{"name":"","type":"address","internalType":"contract IWETH"}],"stateMutability":"view"},{"type":"event","name":"ChainlinkCancelled","inputs":[{"name":"id","type":"bytes32","indexed":true,"internalType":"bytes32"}],"anonymous":false},{"type":"event","name":"ChainlinkFulfilled","inputs":[{"name":"id","type":"bytes32","indexed":true,"internalType":"bytes32"}],"anonymous":false},{"type":"event","name":"ChainlinkRequested","inputs":[{"name":"id","type":"bytes32","indexed":true,"internalType":"bytes32"}],"anonymous":false},{"type":"event","name":"FeeRateSet","inputs":[{"name":"feeRatePerDayScaled","type":"uint256","indexed":true,"internalType":"uint256"}],"anonymous":false},{"type":"event","name":"FeeReceiverSet","inputs":[{"name":"feeReceiver","type":"address","indexed":true,"internalType":"address"}],"anonymous":false},{"type":"event","name":"Initialized","inputs":[{"name":"version","type":"uint8","indexed":false,"internalType":"uint8"}],"anonymous":false},{"type":"event","name":"Issuanced","inputs":[{"name":"user","type":"address","indexed":true,"internalType":"address"},{"name":"inputToken","type":"address","indexed":true,"internalType":"address"},{"name":"inputAmount","type":"uint256","indexed":false,"internalType":"uint256"},{"name":"outputAmount","type":"uint256","indexed":false,"internalType":"uint256"},{"name":"time","type":"uint256","indexed":false,"internalType":"uint256"}],"anonymous":false},{"type":"event","name":"MethodologistSet","inputs":[{"name":"methodologist","type":"address","indexed":true,"internalType":"address"}],"anonymous":false},{"type":"event","name":"MethodologySet","inputs":[{"name":"methodology","type":"string","indexed":false,"internalType":"string"}],"anonymous":false},{"type":"event","name":"MintFeeToReceiver","inputs":[{"name":"feeReceiver","type":"address","indexed":false,"internalType":"address"},{"name":"timestamp","type":"uint256","indexed":false,"internalType":"uint256"},{"name":"totalSupply","type":"uint256","indexed":false,"internalType":"uint256"},{"name":"amount","type":"uint256","indexed":false,"internalType":"uint256"}],"anonymous":false},{"type":"event","name":"MinterSet","inputs":[{"name":"minter","type":"address","indexed":true,"internalType":"address"}],"anonymous":false},{"type":"event","name":"OwnershipTransferred","inputs":[{"name":"previousOwner","type":"address","indexed":true,"internalType":"address"},{"name":"newOwner","type":"address","indexed":true,"internalType":"address"}],"anonymous":false},{"type":"event","name":"Paused","inputs":[{"name":"account","type":"address","indexed":false,"internalType":"address"}],"anonymous":false},{"type":"event","name":"Redemption","inputs":[{"name":"user","type":"address","indexed":true,"internalType":"address"},{"name":"outputToken","type":"address","indexed":true,"internalType":"address"},{"name":"inputAmount","type":"uint256","indexed":false,"internalType":"uint256"},{"name":"outputAmount","type":"uint256","indexed":false,"internalType":"uint256"},{"name":"time","type":"uint256","indexed":false,"internalType":"uint256"}],"anonymous":false},{"type":"event","name":"SupplyCeilingSet","inputs":[{"name":"supplyCeiling","type":"uint256","indexed":false,"internalType":"uint256"}],"anonymous":false},{"type":"event","name":"ToggledRestricted","inputs":[{"name":"account","type":"address","indexed":true,"internalType":"address"},{"name":"isRestricted","type":"bool","indexed":false,"internalType":"bool"}],"anonymous":false},{"type":"event","name":"Unpaused","inputs":[{"name":"account","type":"address","indexed":false,"internalType":"address"}],"anonymous":false}],"bytecode":{"object":"0x60806040523480156200001157600080fd5b50619acd80620000226000396000f3fe6080604052600436106103c75760003560e01c8063724e78da116101f2578063b3951b671161010d578063c8f33c91116100a0578063e267078a1161006f578063e267078a14610ebc578063e7d015f214610ee5578063efdcd97414610f10578063f2fde38b14610f39576103ce565b8063c8f33c9114610dfe578063d153b60c14610e29578063d90bc21114610e54578063ddca3f4314610e91576103ce565b8063c01bc982116100dc578063c01bc98214610d2e578063c6bbd5a714610d6b578063c8599ded14610d96578063c8b76e7014610dc1576103ce565b8063b3951b6714610c72578063b3f0067414610caf578063b5ed298a14610cda578063b631e80b14610d03576103ce565b80639932ba4c11610185578063a73e1cbf11610154578063a73e1cbf14610bca578063a8509fd814610bf3578063a8b54bd414610c1e578063abdd5f3f14610c49576103ce565b80639932ba4c14610b205780639eeb1d5014610b5d5780639f8e67bf14610b88578063a2ab905d14610bb3576103ce565b80638c88c10c116101c15780638c88c10c14610a505780638da5cb5b14610a8d578063914f0cc614610ab8578063978bbdb914610af5576103ce565b8063724e78da146109ba578063744fbc7a146109e35780637ca58c5514610a0e5780638456cb5914610a39576103ce565b80632fecd589116102e25780635177942a1161027557806363973fda1161024457806363973fda14610910578063686f91751461093b57806368e0d4e114610978578063715018a6146109a3576103ce565b80635177942a14610868578063530e784f1461089157806353fd4332146108ba5780635c975abb146108e5576103ce565b80633f4ba83a116102b15780633f4ba83a146107c05780633fc8cef3146107d7578063465a4c94146108025780634b3e0b801461082b576103ce565b80632fecd5891461072557806336aab86c14610750578063372d4c55146107795780633c8da58814610795576103ce565b8063156a5da11161035a578063239aad0d11610329578063239aad0d146106555780632630c12f146106925780632b52684d146106bd5780632b9522e0146106e8576103ce565b8063156a5da114610585578063184a732f146105c25780631d5f45f5146105ed5780631ff0156314610618576103ce565b80630be52713116103965780630be52713146104a35780630c02e130146104e05780630e3293571461050b57806313cb1f8314610548576103ce565b8063011ced5f146103d357806302e04015146103fe5780630456f9c81461043b5780630754617214610478576103ce565b366103ce57005b600080fd5b3480156103df57600080fd5b506103e8610f62565b6040516103f59190618a54565b60405180910390f35b34801561040a57600080fd5b5061042560048036038101906104209190617da2565b610f68565b6040516104329190618a54565b60405180910390f35b34801561044757600080fd5b50610462600480360381019061045d9190617998565b6110fc565b60405161046f9190618a54565b60405180910390f35b34801561048457600080fd5b5061048d6111da565b60405161049a91906184c4565b60405180910390f35b3480156104af57600080fd5b506104ca60048036038101906104c59190617877565b611200565b6040516104d79190618a54565b60405180910390f35b3480156104ec57600080fd5b506104f5611218565b6040516105029190618a54565b60405180910390f35b34801561051757600080fd5b50610532600480360381019061052d9190617cd0565b61121e565b60405161053f9190618816565b60405180910390f35b34801561055457600080fd5b5061056f600480360381019061056a9190617a3e565b61124a565b60405161057c9190618a54565b60405180910390f35b34801561059157600080fd5b506105ac60048036038101906105a79190617a3e565b61143b565b6040516105b99190618a54565b60405180910390f35b3480156105ce57600080fd5b506105d76116e8565b6040516105e49190618a54565b60405180910390f35b3480156105f957600080fd5b506106026116ee565b60405161060f91906187aa565b60405180910390f35b34801561062457600080fd5b5061063f600480360381019061063a9190617da2565b611714565b60405161064c9190618a54565b60405180910390f35b34801561066157600080fd5b5061067c60048036038101906106779190617d48565b611b8d565b60405161068991906184c4565b60405180910390f35b34801561069e57600080fd5b506106a7611bc0565b6040516106b491906184c4565b60405180910390f35b3480156106c957600080fd5b506106d2611be6565b6040516106df9190618a54565b60405180910390f35b3480156106f457600080fd5b5061070f600480360381019061070a9190617da2565b611bec565b60405161071c9190618a54565b60405180910390f35b34801561073157600080fd5b5061073a612530565b6040516107479190618a54565b60405180910390f35b34801561075c57600080fd5b5061077760048036038101906107729190617c15565b612536565b005b610793600480360381019061078e9190617d48565b61299f565b005b3480156107a157600080fd5b506107aa613141565b6040516107b79190618a54565b60405180910390f35b3480156107cc57600080fd5b506107d56132a4565b005b3480156107e357600080fd5b506107ec6132b6565b6040516107f991906187c5565b60405180910390f35b34801561080e57600080fd5b50610829600480360381019061082491906178a4565b6132dc565b005b34801561083757600080fd5b50610852600480360381019061084d9190617877565b61373e565b60405161085f9190618a54565b60405180910390f35b34801561087457600080fd5b5061088f600480360381019061088a9190617df5565b613756565b005b34801561089d57600080fd5b506108b860048036038101906108b39190617877565b613847565b005b3480156108c657600080fd5b506108cf613903565b6040516108dc9190618a54565b60405180910390f35b3480156108f157600080fd5b506108fa613909565b60405161090791906186ed565b60405180910390f35b34801561091c57600080fd5b50610925613920565b6040516109329190618723565b60405180910390f35b34801561094757600080fd5b50610962600480360381019061095d91906179eb565b613946565b60405161096f9190618a54565b60405180910390f35b34801561098457600080fd5b5061098d613bdf565b60405161099a9190618774565b60405180910390f35b3480156109af57600080fd5b506109b8613c05565b005b3480156109c657600080fd5b506109e160048036038101906109dc9190617877565b613c19565b005b3480156109ef57600080fd5b506109f8613cd5565b604051610a05919061878f565b60405180910390f35b348015610a1a57600080fd5b50610a23613cfb565b604051610a309190618708565b60405180910390f35b348015610a4557600080fd5b50610a4e614018565b005b348015610a5c57600080fd5b50610a776004803603810190610a729190617877565b61402a565b604051610a849190618a54565b60405180910390f35b348015610a9957600080fd5b50610aa2614042565b604051610aaf91906184c4565b60405180910390f35b348015610ac457600080fd5b50610adf6004803603810190610ada9190617877565b61406c565b604051610aec9190618a54565b60405180910390f35b348015610b0157600080fd5b50610b0a614084565b604051610b179190618b30565b60405180910390f35b348015610b2c57600080fd5b50610b476004803603810190610b429190617d48565b614097565b604051610b5491906184c4565b60405180910390f35b348015610b6957600080fd5b50610b726140ca565b604051610b7f9190618816565b60405180910390f35b348015610b9457600080fd5b50610b9d614158565b604051610baa91906184c4565b60405180910390f35b348015610bbf57600080fd5b50610bc861417e565b005b348015610bd657600080fd5b50610bf16004803603810190610bec9190617cd0565b61496a565b005b348015610bff57600080fd5b50610c086149a4565b604051610c159190618a54565b60405180910390f35b348015610c2a57600080fd5b50610c33614d0c565b604051610c409190618708565b60405180910390f35b348015610c5557600080fd5b50610c706004803603810190610c6b9190617aa5565b614d12565b005b348015610c7e57600080fd5b50610c996004803603810190610c949190617da2565b6154f4565b604051610ca69190618a54565b60405180910390f35b348015610cbb57600080fd5b50610cc461577a565b604051610cd191906184c4565b60405180910390f35b348015610ce657600080fd5b50610d016004803603810190610cfc9190617877565b6157a0565b005b348015610d0f57600080fd5b50610d1861585c565b604051610d259190618759565b60405180910390f35b348015610d3a57600080fd5b50610d556004803603810190610d509190617877565b615882565b604051610d6291906186ed565b60405180910390f35b348015610d7757600080fd5b50610d806158a2565b604051610d8d919061873e565b60405180910390f35b348015610da257600080fd5b50610dab6158c8565b604051610db89190618a54565b60405180910390f35b348015610dcd57600080fd5b50610de86004803603810190610de39190617da2565b6158ce565b604051610df59190618a54565b60405180910390f35b348015610e0a57600080fd5b50610e13615b7e565b604051610e209190618a54565b60405180910390f35b348015610e3557600080fd5b50610e3e615b84565b604051610e4b91906184c4565b60405180910390f35b348015610e6057600080fd5b50610e7b6004803603810190610e769190617877565b615baa565b604051610e889190618a54565b60405180910390f35b348015610e9d57600080fd5b50610ea6615bc2565b604051610eb39190618a54565b60405180910390f35b348015610ec857600080fd5b50610ee36004803603810190610ede9190617af8565b615bc8565b005b348015610ef157600080fd5b50610efa615f32565b604051610f0791906187e0565b60405180910390f35b348015610f1c57600080fd5b50610f376004803603810190610f329190617877565b615f58565b005b348015610f4557600080fd5b50610f606004803603810190610f5b9190617877565b615fe7565b005b60d35481565b600080610f736149a4565b9050600060d060009054906101000a900473ffffffffffffffffffffffffffffffffffffffff1673ffffffffffffffffffffffffffffffffffffffff166318160ddd6040518163ffffffff1660e01b815260040160206040518083038186803b158015610fdf57600080fd5b505afa158015610ff3573d6000803e3d6000fd5b505050506040513d601f19601f820116820180604052508101906110179190617d75565b670de0b6b3a76400008761102b9190618fcf565b6110359190618ccb565b90506000670de0b6b3a7640000838361104e9190618fcf565b6110589190618ccb565b905060f060009054906101000a900473ffffffffffffffffffffffffffffffffffffffff1673ffffffffffffffffffffffffffffffffffffffff168673ffffffffffffffffffffffffffffffffffffffff1614156110bb578093505050506110f5565b60006110eb60f060009054906101000a900473ffffffffffffffffffffffffffffffffffffffff1688848961124a565b9050809450505050505b9392505050565b600060db60009054906101000a900473ffffffffffffffffffffffffffffffffffffffff1673ffffffffffffffffffffffffffffffffffffffff16639421712060ed60009054906101000a900473ffffffffffffffffffffffffffffffffffffffff168686866040518563ffffffff1660e01b815260040161118194939291906184df565b60206040518083038186803b15801561119957600080fd5b505afa1580156111ad573d6000803e3d6000fd5b505050506040513d601f19601f820116820180604052508101906111d19190617d75565b90509392505050565b60d860009054906101000a900473ffffffffffffffffffffffffffffffffffffffff1681565b60e96020528060005260406000206000915090505481565b60e05481565b6060828260405160200161123392919061845f565b604051602081830303815290604052905092915050565b60008083111561143357600382141561126f576112688585856110fc565b9050611432565b6000600267ffffffffffffffff81111561128c5761128b6194a2565b5b6040519080825280602002602001820160405280156112ba5781602001602082028036833780820191505090505b50905085816000815181106112d2576112d1619473565b5b602002602001019073ffffffffffffffffffffffffffffffffffffffff16908173ffffffffffffffffffffffffffffffffffffffff1681525050848160018151811061132157611320619473565b5b602002602001019073ffffffffffffffffffffffffffffffffffffffff16908173ffffffffffffffffffffffffffffffffffffffff1681525050600060ee60009054906101000a900473ffffffffffffffffffffffffffffffffffffffff1673ffffffffffffffffffffffffffffffffffffffff1663d06ca61f86846040518363ffffffff1660e01b81526004016113ba929190618a6f565b60006040518083038186803b1580156113d257600080fd5b505afa1580156113e6573d6000803e3d6000fd5b505050506040513d6000823e3d601f19601f8201168201806040525081019061140f9190617b9f565b90508060018151811061142557611424619473565b5b6020026020010151925050505b5b949350505050565b6000600382141561151457600060f160009054906101000a900473ffffffffffffffffffffffffffffffffffffffff1673ffffffffffffffffffffffffffffffffffffffff1663f7729d438787610bb88860006040518663ffffffff1660e01b81526004016114ae959493929190618524565b602060405180830381600087803b1580156114c857600080fd5b505af19250505080156114f957506040513d601f19601f820116820180604052508101906114f69190617d75565b60015b611506576000905061150b565b809150505b809150506116e0565b6000600267ffffffffffffffff811115611531576115306194a2565b5b60405190808252806020026020018201604052801561155f5781602001602082028036833780820191505090505b509050858160008151811061157757611576619473565b5b602002602001019073ffffffffffffffffffffffffffffffffffffffff16908173ffffffffffffffffffffffffffffffffffffffff168152505084816001815181106115c6576115c5619473565b5b602002602001019073ffffffffffffffffffffffffffffffffffffffff16908173ffffffffffffffffffffffffffffffffffffffff1681525050600060ee60009054906101000a900473ffffffffffffffffffffffffffffffffffffffff1673ffffffffffffffffffffffffffffffffffffffff1663d06ca61f86846040518363ffffffff1660e01b815260040161165f929190618a6f565b60006040518083038186803b15801561167757600080fd5b505afa9250505080156116ad57506040513d6000823e3d601f19601f820116820180604052508101906116aa9190617b9f565b60015b6116ba57600090506116da565b806001815181106116ce576116cd619473565b5b60200260200101519150505b80925050505b949350505050565b60d55481565b60ed60009054906101000a900473ffffffffffffffffffffffffffffffffffffffff1681565b60008060d060009054906101000a900473ffffffffffffffffffffffffffffffffffffffff1673ffffffffffffffffffffffffffffffffffffffff166318160ddd6040518163ffffffff1660e01b815260040160206040518083038186803b15801561177f57600080fd5b505afa158015611793573d6000803e3d6000fd5b505050506040513d601f19601f820116820180604052508101906117b79190617d75565b670de0b6b3a7640000866117cb9190618fcf565b6117d59190618ccb565b9050600080600090505b60e454811015611b805760f060009054906101000a900473ffffffffffffffffffffffffffffffffffffffff1673ffffffffffffffffffffffffffffffffffffffff1660e6600083815260200190815260200160002060009054906101000a900473ffffffffffffffffffffffffffffffffffffffff1673ffffffffffffffffffffffffffffffffffffffff1614611a5d576000670de0b6b3a764000060e6600084815260200190815260200160002060009054906101000a900473ffffffffffffffffffffffffffffffffffffffff1673ffffffffffffffffffffffffffffffffffffffff166370a0823160d060009054906101000a900473ffffffffffffffffffffffffffffffffffffffff166040518263ffffffff1660e01b815260040161190a91906184c4565b60206040518083038186803b15801561192257600080fd5b505afa158015611936573d6000803e3d6000fd5b505050506040513d601f19601f8201168201806040525081019061195a9190617d75565b856119659190618fcf565b61196f9190618ccb565b90506000611a4660e6600085815260200190815260200160002060009054906101000a900473ffffffffffffffffffffffffffffffffffffffff1660f060009054906101000a900473ffffffffffffffffffffffffffffffffffffffff168460eb600060e660008a815260200190815260200160002060009054906101000a900473ffffffffffffffffffffffffffffffffffffffff1673ffffffffffffffffffffffffffffffffffffffff1673ffffffffffffffffffffffffffffffffffffffff1681526020019081526020016000205461143b565b90508084611a549190618c75565b93505050611b6d565b6000670de0b6b3a764000060e6600084815260200190815260200160002060009054906101000a900473ffffffffffffffffffffffffffffffffffffffff1673ffffffffffffffffffffffffffffffffffffffff166370a0823160d060009054906101000a900473ffffffffffffffffffffffffffffffffffffffff166040518263ffffffff1660e01b8152600401611af691906184c4565b60206040518083038186803b158015611b0e57600080fd5b505afa158015611b22573d6000803e3d6000fd5b505050506040513d601f19601f82011682018060405250810190611b469190617d75565b85611b519190618fcf565b611b5b9190618ccb565b90508083611b699190618c75565b9250505b8080611b789061933e565b9150506117df565b5080925050509392505050565b60e56020528060005260406000206000915054906101000a900473ffffffffffffffffffffffffffffffffffffffff1681565b60db60009054906101000a900473ffffffffffffffffffffffffffffffffffffffff1681565b60da5481565b60008060d060009054906101000a900473ffffffffffffffffffffffffffffffffffffffff1673ffffffffffffffffffffffffffffffffffffffff166318160ddd6040518163ffffffff1660e01b815260040160206040518083038186803b158015611c5757600080fd5b505afa158015611c6b573d6000803e3d6000fd5b505050506040513d601f19601f82011682018060405250810190611c8f9190617d75565b670de0b6b3a764000086611ca39190618fcf565b611cad9190618ccb565b905060d060009054906101000a900473ffffffffffffffffffffffffffffffffffffffff1673ffffffffffffffffffffffffffffffffffffffff16639dc29fac33876040518363ffffffff1660e01b8152600401611d0c929190618601565b600060405180830381600087803b158015611d2657600080fd5b505af1158015611d3a573d6000803e3d6000fd5b50505050600080600090505b60e454811015612076576000670de0b6b3a764000060e6600084815260200190815260200160002060009054906101000a900473ffffffffffffffffffffffffffffffffffffffff1673ffffffffffffffffffffffffffffffffffffffff166370a0823160d060009054906101000a900473ffffffffffffffffffffffffffffffffffffffff166040518263ffffffff1660e01b8152600401611de991906184c4565b60206040518083038186803b158015611e0157600080fd5b505afa158015611e15573d6000803e3d6000fd5b505050506040513d601f19601f82011682018060405250810190611e399190617d75565b85611e449190618fcf565b611e4e9190618ccb565b905060f060009054906101000a900473ffffffffffffffffffffffffffffffffffffffff1673ffffffffffffffffffffffffffffffffffffffff1660e6600084815260200190815260200160002060009054906101000a900473ffffffffffffffffffffffffffffffffffffffff1673ffffffffffffffffffffffffffffffffffffffff1614611fc4576000611fae60e6600085815260200190815260200160002060009054906101000a900473ffffffffffffffffffffffffffffffffffffffff1660f060009054906101000a900473ffffffffffffffffffffffffffffffffffffffff16843060eb600060e660008b815260200190815260200160002060009054906101000a900473ffffffffffffffffffffffffffffffffffffffff1673ffffffffffffffffffffffffffffffffffffffff1673ffffffffffffffffffffffffffffffffffffffff16815260200190815260200160002054616161565b90508084611fbc9190618c75565b935050612062565b60d060009054906101000a900473ffffffffffffffffffffffffffffffffffffffff1673ffffffffffffffffffffffffffffffffffffffff166377524af930836040518363ffffffff1660e01b8152600401612021929190618601565b600060405180830381600087803b15801561203b57600080fd5b505af115801561204f573d6000803e3d6000fd5b50505050808361205f9190618c75565b92505b50808061206e9061933e565b915050611d46565b50600061271060d260009054906101000a900460ff1660ff168361209a9190618fcf565b6120a49190618ccb565b905060f060009054906101000a900473ffffffffffffffffffffffffffffffffffffffff1673ffffffffffffffffffffffffffffffffffffffff168673ffffffffffffffffffffffffffffffffffffffff1614156123a85760f060009054906101000a900473ffffffffffffffffffffffffffffffffffffffff1673ffffffffffffffffffffffffffffffffffffffff16632e1a7d4d82846121469190619029565b6040518263ffffffff1660e01b81526004016121629190618a54565b600060405180830381600087803b15801561217c57600080fd5b505af1158015612190573d6000803e3d6000fd5b5050505060f060009054906101000a900473ffffffffffffffffffffffffffffffffffffffff1673ffffffffffffffffffffffffffffffffffffffff1663a9059cbb60d660009054906101000a900473ffffffffffffffffffffffffffffffffffffffff16836040518363ffffffff1660e01b8152600401612213929190618601565b602060405180830381600087803b15801561222d57600080fd5b505af1158015612241573d6000803e3d6000fd5b505050506040513d601f19601f820116820180604052508101906122659190617be8565b5060003373ffffffffffffffffffffffffffffffffffffffff16828461228b9190619029565b604051612297906184af565b60006040518083038185875af1925050503d80600081146122d4576040519150601f19603f3d011682016040523d82523d6000602084013e6122d9565b606091505b505090508061231d576040517f08c379a0000000000000000000000000000000000000000000000000000000008152600401612314906188b8565b60405180910390fd5b8673ffffffffffffffffffffffffffffffffffffffff163373ffffffffffffffffffffffffffffffffffffffff167f4f808f68134f8b72b842a276c2b37b03415d4992c65a94fcee50d33201915b998a85876123799190619029565b4260405161238993929190618af9565b60405180910390a3818361239d9190619029565b945050505050612529565b60f060009054906101000a900473ffffffffffffffffffffffffffffffffffffffff1673ffffffffffffffffffffffffffffffffffffffff1663a9059cbb60d660009054906101000a900473ffffffffffffffffffffffffffffffffffffffff16836040518363ffffffff1660e01b8152600401612427929190618601565b602060405180830381600087803b15801561244157600080fd5b505af1158015612455573d6000803e3d6000fd5b505050506040513d601f19601f820116820180604052508101906124799190617be8565b5060006124b660f060009054906101000a900473ffffffffffffffffffffffffffffffffffffffff168884866124af9190619029565b338a616256565b90508673ffffffffffffffffffffffffffffffffffffffff163373ffffffffffffffffffffffffffffffffffffffff167f4f808f68134f8b72b842a276c2b37b03415d4992c65a94fcee50d33201915b998a844260405161251993929190618af9565b60405180910390a3809450505050505b9392505050565b60d45481565b836005600082815260200190815260200160002060009054906101000a900473ffffffffffffffffffffffffffffffffffffffff1673ffffffffffffffffffffffffffffffffffffffff163373ffffffffffffffffffffffffffffffffffffffff16146125d8576040517f08c379a00000000000000000000000000000000000000000000000000000000081526004016125cf906189d8565b60405180910390fd5b6005600082815260200190815260200160002060006101000a81549073ffffffffffffffffffffffffffffffffffffffff0219169055807f7cc135e0cebb02c3480ae5d74d377283180a2601f8f644edf7987b009316c63a60405160405180910390a260008490506000849050600084905060005b83518110156129715783818151811061266957612668619473565b5b602002602001015160e5600083815260200190815260200160002060006101000a81548173ffffffffffffffffffffffffffffffffffffffff021916908373ffffffffffffffffffffffffffffffffffffffff1602179055508060e760008684815181106126da576126d9619473565b5b602002602001015173ffffffffffffffffffffffffffffffffffffffff1673ffffffffffffffffffffffffffffffffffffffff1681526020019081526020016000208190555082818151811061273357612732619473565b5b602002602001015160ea600086848151811061275257612751619473565b5b602002602001015173ffffffffffffffffffffffffffffffffffffffff1673ffffffffffffffffffffffffffffffffffffffff168152602001908152602001600020819055508181815181106127ab576127aa619473565b5b602002602001015160eb60008684815181106127ca576127c9619473565b5b602002602001015173ffffffffffffffffffffffffffffffffffffffff1673ffffffffffffffffffffffffffffffffffffffff16815260200190815260200160002081905550600060e454141561295e5783818151811061282e5761282d619473565b5b602002602001015160e6600083815260200190815260200160002060006101000a81548173ffffffffffffffffffffffffffffffffffffffff021916908373ffffffffffffffffffffffffffffffffffffffff16021790555082818151811061289a57612899619473565b5b602002602001015160e960008684815181106128b9576128b8619473565b5b602002602001015173ffffffffffffffffffffffffffffffffffffffff1673ffffffffffffffffffffffffffffffffffffffff168152602001908152602001600020819055508060e8600086848151811061291757612916619473565b5b602002602001015173ffffffffffffffffffffffffffffffffffffffff1673ffffffffffffffffffffffffffffffffffffffff168152602001908152602001600020819055505b80806129699061933e565b91505061264d565b50825160e381905550600060e454141561298e57825160e4819055505b4260e2819055505050505050505050565b600061271060d260009054906101000a900460ff1660ff16836129c29190618fcf565b6129cc9190618ccb565b9050600081836129dc9190618c75565b905080341015612a21576040517f08c379a0000000000000000000000000000000000000000000000000000000008152600401612a18906189b8565b60405180910390fd5b60f060009054906101000a900473ffffffffffffffffffffffffffffffffffffffff1673ffffffffffffffffffffffffffffffffffffffff1663d0e30db0826040518263ffffffff1660e01b81526004016000604051808303818588803b158015612a8b57600080fd5b505af1158015612a9f573d6000803e3d6000fd5b505050505060f060009054906101000a900473ffffffffffffffffffffffffffffffffffffffff1673ffffffffffffffffffffffffffffffffffffffff1663a9059cbb60d660009054906101000a900473ffffffffffffffffffffffffffffffffffffffff16846040518363ffffffff1660e01b8152600401612b23929190618601565b602060405180830381600087803b158015612b3d57600080fd5b505af1158015612b51573d6000803e3d6000fd5b505050506040513d601f19601f82011682018060405250810190612b759190617be8565b5060f060009054906101000a900473ffffffffffffffffffffffffffffffffffffffff1673ffffffffffffffffffffffffffffffffffffffff1663a9059cbb60d060009054906101000a900473ffffffffffffffffffffffffffffffffffffffff16856040518363ffffffff1660e01b8152600401612bf5929190618601565b602060405180830381600087803b158015612c0f57600080fd5b505af1158015612c23573d6000803e3d6000fd5b505050506040513d601f19601f82011682018060405250810190612c479190617be8565b506000612c526149a4565b9050600084905060005b60e454811015612e8a5760f060009054906101000a900473ffffffffffffffffffffffffffffffffffffffff1673ffffffffffffffffffffffffffffffffffffffff1660e6600083815260200190815260200160002060009054906101000a900473ffffffffffffffffffffffffffffffffffffffff1673ffffffffffffffffffffffffffffffffffffffff1614612e7757612e7560f060009054906101000a900473ffffffffffffffffffffffffffffffffffffffff1660e6600084815260200190815260200160002060009054906101000a900473ffffffffffffffffffffffffffffffffffffffff1668056bc75e2d6310000060e9600060e6600088815260200190815260200160002060009054906101000a900473ffffffffffffffffffffffffffffffffffffffff1673ffffffffffffffffffffffffffffffffffffffff1673ffffffffffffffffffffffffffffffffffffffff1681526020019081526020016000205486612dd09190618fcf565b612dda9190618ccb565b60d060009054906101000a900473ffffffffffffffffffffffffffffffffffffffff1660eb600060e6600089815260200190815260200160002060009054906101000a900473ffffffffffffffffffffffffffffffffffffffff1673ffffffffffffffffffffffffffffffffffffffff1673ffffffffffffffffffffffffffffffffffffffff16815260200190815260200160002054616161565b505b8080612e829061933e565b915050612c5c565b5060008060d060009054906101000a900473ffffffffffffffffffffffffffffffffffffffff1673ffffffffffffffffffffffffffffffffffffffff166318160ddd6040518163ffffffff1660e01b815260040160206040518083038186803b158015612ef657600080fd5b505afa158015612f0a573d6000803e3d6000fd5b505050506040513d601f19601f82011682018060405250810190612f2e9190617d75565b1115612ff157828260d060009054906101000a900473ffffffffffffffffffffffffffffffffffffffff1673ffffffffffffffffffffffffffffffffffffffff166318160ddd6040518163ffffffff1660e01b815260040160206040518083038186803b158015612f9e57600080fd5b505afa158015612fb2573d6000803e3d6000fd5b505050506040513d601f19601f82011682018060405250810190612fd69190617d75565b612fe09190618fcf565b612fea9190618ccb565b905061301f565b6000612ffb613141565b9050662386f26fc1000081846130119190618fcf565b61301b9190618ccb565b9150505b60d060009054906101000a900473ffffffffffffffffffffffffffffffffffffffff1673ffffffffffffffffffffffffffffffffffffffff166340c10f1933836040518363ffffffff1660e01b815260040161307c929190618601565b600060405180830381600087803b15801561309657600080fd5b505af11580156130aa573d6000803e3d6000fd5b5050505060f060009054906101000a900473ffffffffffffffffffffffffffffffffffffffff1673ffffffffffffffffffffffffffffffffffffffff163373ffffffffffffffffffffffffffffffffffffffff167f4fee1c514ee0e252e3a0babfa8b5030fb89be7ea2b38df9a7fbbf788e54f3d9188844260405161313193929190618af9565b60405180910390a3505050505050565b60008060e160009054906101000a900473ffffffffffffffffffffffffffffffffffffffff1673ffffffffffffffffffffffffffffffffffffffff1663feaf968c6040518163ffffffff1660e01b815260040160a06040518083038186803b1580156131ac57600080fd5b505afa1580156131c0573d6000803e3d6000fd5b505050506040513d601f19601f820116820180604052508101906131e49190617e22565b505050915050600060e160009054906101000a900473ffffffffffffffffffffffffffffffffffffffff1673ffffffffffffffffffffffffffffffffffffffff1663313ce5676040518163ffffffff1660e01b815260040160206040518083038186803b15801561325457600080fd5b505afa158015613268573d6000803e3d6000fd5b505050506040513d601f19601f8201168201806040525081019061328c9190617e9d565b905061329a828260126166ac565b9150819250505090565b6132ac616713565b6132b4616791565b565b60f060009054906101000a900473ffffffffffffffffffffffffffffffffffffffff1681565b6000600660019054906101000a900460ff1615905080801561331057506001600660009054906101000a900460ff1660ff16105b8061333f575061331f306167f4565b15801561333e57506001600660009054906101000a900460ff1660ff16145b5b61337e576040517f08c379a000000000000000000000000000000000000000000000000000000000815260040161337590618918565b60405180910390fd5b6001600660006101000a81548160ff021916908360ff16021790555080156133bc576001600660016101000a81548160ff0219169083151502179055505b6133c4616817565b6133cc616870565b8b60d060006101000a81548173ffffffffffffffffffffffffffffffffffffffff021916908373ffffffffffffffffffffffffffffffffffffffff1602179055506134168b6168c9565b61341f8a61690d565b8860df81905550600a670de0b6b3a7640000600161343d9190618fcf565b6134479190618ccb565b60e0819055508760e160006101000a81548173ffffffffffffffffffffffffffffffffffffffff021916908373ffffffffffffffffffffffffffffffffffffffff1602179055508660f060006101000a81548173ffffffffffffffffffffffffffffffffffffffff021916908373ffffffffffffffffffffffffffffffffffffffff1602179055508560f160006101000a81548173ffffffffffffffffffffffffffffffffffffffff021916908373ffffffffffffffffffffffffffffffffffffffff1602179055508460ec60006101000a81548173ffffffffffffffffffffffffffffffffffffffff021916908373ffffffffffffffffffffffffffffffffffffffff1602179055508360ed60006101000a81548173ffffffffffffffffffffffffffffffffffffffff021916908373ffffffffffffffffffffffffffffffffffffffff1602179055508260ee60006101000a81548173ffffffffffffffffffffffffffffffffffffffff021916908373ffffffffffffffffffffffffffffffffffffffff1602179055508160ef60006101000a81548173ffffffffffffffffffffffffffffffffffffffff021916908373ffffffffffffffffffffffffffffffffffffffff160217905550600a60d260006101000a81548160ff021916908360ff1602179055504260d3819055506040518060600160405280602a8152602001619a40602a913960dd908051906020019061366592919061741c565b506040518060600160405280602e8152602001619a6a602e913960de908051906020019061369492919061741c565b503360d660006101000a81548173ffffffffffffffffffffffffffffffffffffffff021916908373ffffffffffffffffffffffffffffffffffffffff1602179055508015613730576000600660016101000a81548160ff0219169083151502179055507f7f26b83ff96e1f2b6a682f133852f6798a09c465da95921460cefb3847402498600160405161372791906187fb565b60405180910390a15b505050505050505050505050565b60ea6020528060005260406000206000915090505481565b61375e616713565b600060d3544261376e9190619029565b9050600c603c80836137809190618ccb565b61378a9190618ccb565b116137ca576040517f08c379a00000000000000000000000000000000000000000000000000000000081526004016137c190618a18565b60405180910390fd5b60648260ff16111580156137e2575060018260ff1610155b613821576040517f08c379a000000000000000000000000000000000000000000000000000000000815260040161381890618838565b60405180910390fd5b8160d260006101000a81548160ff021916908360ff1602179055504260d3819055505050565b61384f616713565b600073ffffffffffffffffffffffffffffffffffffffff168173ffffffffffffffffffffffffffffffffffffffff1614156138bf576040517f08c379a00000000000000000000000000000000000000000000000000000000081526004016138b690618998565b60405180910390fd5b8060db60006101000a81548173ffffffffffffffffffffffffffffffffffffffff021916908373ffffffffffffffffffffffffffffffffffffffff16021790555050565b60e45481565b6000609e60009054906101000a900460ff16905090565b60e160009054906101000a900473ffffffffffffffffffffffffffffffffffffffff1681565b60008060f160009054906101000a900473ffffffffffffffffffffffffffffffffffffffff1673ffffffffffffffffffffffffffffffffffffffff1663f7729d438686610bb88760006040518663ffffffff1660e01b81526004016139af959493929190618524565b602060405180830381600087803b1580156139c957600080fd5b505af19250505080156139fa57506040513d601f19601f820116820180604052508101906139f79190617d75565b60015b613a075760009050613a0c565b809150505b6000600267ffffffffffffffff811115613a2957613a286194a2565b5b604051908082528060200260200182016040528015613a575781602001602082028036833780820191505090505b5090508581600081518110613a6f57613a6e619473565b5b602002602001019073ffffffffffffffffffffffffffffffffffffffff16908173ffffffffffffffffffffffffffffffffffffffff16815250508481600181518110613abe57613abd619473565b5b602002602001019073ffffffffffffffffffffffffffffffffffffffff16908173ffffffffffffffffffffffffffffffffffffffff1681525050600060ee60009054906101000a900473ffffffffffffffffffffffffffffffffffffffff1673ffffffffffffffffffffffffffffffffffffffff1663d06ca61f86846040518363ffffffff1660e01b8152600401613b57929190618a6f565b60006040518083038186803b158015613b6f57600080fd5b505afa925050508015613ba557506040513d6000823e3d601f19601f82011682018060405250810190613ba29190617b9f565b60015b613bb25760009050613bd2565b80600181518110613bc657613bc5619473565b5b60200260200101519150505b8293505050509392505050565b60ef60009054906101000a900473ffffffffffffffffffffffffffffffffffffffff1681565b613c0d616713565b613c176000616951565b565b613c21616713565b600073ffffffffffffffffffffffffffffffffffffffff168173ffffffffffffffffffffffffffffffffffffffff161415613c91576040517f08c379a0000000000000000000000000000000000000000000000000000000008152600401613c8890618978565b60405180910390fd5b8060e160006101000a81548173ffffffffffffffffffffffffffffffffffffffff021916908373ffffffffffffffffffffffffffffffffffffffff16021790555050565b60ee60009054906101000a900473ffffffffffffffffffffffffffffffffffffffff1681565b600080613e1c60dd8054613d0e906192db565b80601f0160208091040260200160405190810160405280929190818152602001828054613d3a906192db565b8015613d875780601f10613d5c57610100808354040283529160200191613d87565b820191906000526020600020905b815481529060010190602001808311613d6a57829003601f168201915b505050505060de8054613d99906192db565b80601f0160208091040260200160405190810160405280929190818152602001828054613dc5906192db565b8015613e125780601f10613de757610100808354040283529160200191613e12565b820191906000526020600020905b815481529060010190602001808311613df557829003601f168201915b505050505061121e565b90506000613e3460df54306336aab86c60e01b616a17565b9050613e806040518060400160405280600381526020017f67657400000000000000000000000000000000000000000000000000000000008152508383616a489092919063ffffffff16565b613eff6040518060400160405280600581526020017f70617468310000000000000000000000000000000000000000000000000000008152506040518060400160405280600e81526020017f726573756c74732c746f6b656e7300000000000000000000000000000000000081525083616a489092919063ffffffff16565b613f7e6040518060400160405280600581526020017f70617468320000000000000000000000000000000000000000000000000000008152506040518060400160405280601481526020017f726573756c74732c6d61726b657453686172657300000000000000000000000081525083616a489092919063ffffffff16565b613ffd6040518060400160405280600581526020017f70617468330000000000000000000000000000000000000000000000000000008152506040518060400160405280601481526020017f726573756c74732c7377617056657273696f6e7300000000000000000000000081525083616a489092919063ffffffff16565b614011614008616a7b565b8260e054616aa5565b9250505090565b614020616713565b614028616b71565b565b60e76020528060005260406000206000915090505481565b6000603960009054906101000a900473ffffffffffffffffffffffffffffffffffffffff16905090565b60e86020528060005260406000206000915090505481565b60d260009054906101000a900460ff1681565b60e66020528060005260406000206000915054906101000a900473ffffffffffffffffffffffffffffffffffffffff1681565b60d980546140d7906192db565b80601f0160208091040260200160405190810160405280929190818152602001828054614103906192db565b80156141505780601f1061412557610100808354040283529160200191614150565b820191906000526020600020905b81548152906001019060200180831161413357829003601f168201915b505050505081565b60d760009054906101000a900473ffffffffffffffffffffffffffffffffffffffff1681565b614186616713565b60005b60e4548110156144035760f060009054906101000a900473ffffffffffffffffffffffffffffffffffffffff1673ffffffffffffffffffffffffffffffffffffffff1660e6600083815260200190815260200160002060009054906101000a900473ffffffffffffffffffffffffffffffffffffffff1673ffffffffffffffffffffffffffffffffffffffff16146143f0576143ee60e6600083815260200190815260200160002060009054906101000a900473ffffffffffffffffffffffffffffffffffffffff1660f060009054906101000a900473ffffffffffffffffffffffffffffffffffffffff1660e6600085815260200190815260200160002060009054906101000a900473ffffffffffffffffffffffffffffffffffffffff1673ffffffffffffffffffffffffffffffffffffffff166370a0823160d060009054906101000a900473ffffffffffffffffffffffffffffffffffffffff166040518263ffffffff1660e01b815260040161430391906184c4565b60206040518083038186803b15801561431b57600080fd5b505afa15801561432f573d6000803e3d6000fd5b505050506040513d601f19601f820116820180604052508101906143539190617d75565b60d060009054906101000a900473ffffffffffffffffffffffffffffffffffffffff1660eb600060e6600089815260200190815260200160002060009054906101000a900473ffffffffffffffffffffffffffffffffffffffff1673ffffffffffffffffffffffffffffffffffffffff1673ffffffffffffffffffffffffffffffffffffffff16815260200190815260200160002054616161565b505b80806143fb9061933e565b915050614189565b50600060f060009054906101000a900473ffffffffffffffffffffffffffffffffffffffff1673ffffffffffffffffffffffffffffffffffffffff166370a0823160d060009054906101000a900473ffffffffffffffffffffffffffffffffffffffff166040518263ffffffff1660e01b815260040161448391906184c4565b60206040518083038186803b15801561449b57600080fd5b505afa1580156144af573d6000803e3d6000fd5b505050506040513d601f19601f820116820180604052508101906144d39190617d75565b905060005b60e35481101561495d5760f060009054906101000a900473ffffffffffffffffffffffffffffffffffffffff1673ffffffffffffffffffffffffffffffffffffffff1660e6600083815260200190815260200160002060009054906101000a900473ffffffffffffffffffffffffffffffffffffffff1673ffffffffffffffffffffffffffffffffffffffff16146146f3576146f160f060009054906101000a900473ffffffffffffffffffffffffffffffffffffffff1660e5600084815260200190815260200160002060009054906101000a900473ffffffffffffffffffffffffffffffffffffffff1668056bc75e2d6310000060ea600060e5600088815260200190815260200160002060009054906101000a900473ffffffffffffffffffffffffffffffffffffffff1673ffffffffffffffffffffffffffffffffffffffff1673ffffffffffffffffffffffffffffffffffffffff168152602001908152602001600020548661464c9190618fcf565b6146569190618ccb565b60d060009054906101000a900473ffffffffffffffffffffffffffffffffffffffff1660eb600060e5600089815260200190815260200160002060009054906101000a900473ffffffffffffffffffffffffffffffffffffffff1673ffffffffffffffffffffffffffffffffffffffff1673ffffffffffffffffffffffffffffffffffffffff16815260200190815260200160002054616161565b505b60e5600082815260200190815260200160002060009054906101000a900473ffffffffffffffffffffffffffffffffffffffff1660e6600083815260200190815260200160002060006101000a81548173ffffffffffffffffffffffffffffffffffffffff021916908373ffffffffffffffffffffffffffffffffffffffff16021790555060ea600060e5600084815260200190815260200160002060009054906101000a900473ffffffffffffffffffffffffffffffffffffffff1673ffffffffffffffffffffffffffffffffffffffff1673ffffffffffffffffffffffffffffffffffffffff1681526020019081526020016000205460e9600060e5600085815260200190815260200160002060009054906101000a900473ffffffffffffffffffffffffffffffffffffffff1673ffffffffffffffffffffffffffffffffffffffff1673ffffffffffffffffffffffffffffffffffffffff1681526020019081526020016000208190555060e7600060e5600084815260200190815260200160002060009054906101000a900473ffffffffffffffffffffffffffffffffffffffff1673ffffffffffffffffffffffffffffffffffffffff1673ffffffffffffffffffffffffffffffffffffffff1681526020019081526020016000205460e8600060e5600085815260200190815260200160002060009054906101000a900473ffffffffffffffffffffffffffffffffffffffff1673ffffffffffffffffffffffffffffffffffffffff1673ffffffffffffffffffffffffffffffffffffffff1681526020019081526020016000208190555080806149559061933e565b9150506144d8565b5060e35460e48190555050565b614972616713565b8160dd908051906020019061498892919061741c565b508060de908051906020019061499f92919061741c565b505050565b60008060005b60e454811015614d045760f060009054906101000a900473ffffffffffffffffffffffffffffffffffffffff1673ffffffffffffffffffffffffffffffffffffffff1660e6600083815260200190815260200160002060009054906101000a900473ffffffffffffffffffffffffffffffffffffffff1673ffffffffffffffffffffffffffffffffffffffff161415614b2d5760e6600082815260200190815260200160002060009054906101000a900473ffffffffffffffffffffffffffffffffffffffff1673ffffffffffffffffffffffffffffffffffffffff166370a0823160d060009054906101000a900473ffffffffffffffffffffffffffffffffffffffff166040518263ffffffff1660e01b8152600401614acb91906184c4565b60206040518083038186803b158015614ae357600080fd5b505afa158015614af7573d6000803e3d6000fd5b505050506040513d601f19601f82011682018060405250810190614b1b9190617d75565b82614b269190618c75565b9150614cf1565b6000614cdf60e6600084815260200190815260200160002060009054906101000a900473ffffffffffffffffffffffffffffffffffffffff1660f060009054906101000a900473ffffffffffffffffffffffffffffffffffffffff1660e6600086815260200190815260200160002060009054906101000a900473ffffffffffffffffffffffffffffffffffffffff1673ffffffffffffffffffffffffffffffffffffffff166370a0823160d060009054906101000a900473ffffffffffffffffffffffffffffffffffffffff166040518263ffffffff1660e01b8152600401614c1791906184c4565b60206040518083038186803b158015614c2f57600080fd5b505afa158015614c43573d6000803e3d6000fd5b505050506040513d601f19601f82011682018060405250810190614c679190617d75565b60eb600060e6600089815260200190815260200160002060009054906101000a900473ffffffffffffffffffffffffffffffffffffffff1673ffffffffffffffffffffffffffffffffffffffff1673ffffffffffffffffffffffffffffffffffffffff1681526020019081526020016000205461124a565b90508083614ced9190618c75565b9250505b8080614cfc9061933e565b9150506149aa565b508091505090565b60df5481565b600061271060d260009054906101000a900460ff1660ff1684614d359190618fcf565b614d3f9190618ccb565b90506000614d4b6149a4565b90508473ffffffffffffffffffffffffffffffffffffffff166323b872dd3360d060009054906101000a900473ffffffffffffffffffffffffffffffffffffffff168588614d999190618c75565b6040518463ffffffff1660e01b8152600401614db793929190618577565b602060405180830381600087803b158015614dd157600080fd5b505af1158015614de5573d6000803e3d6000fd5b505050506040513d601f19601f82011682018060405250810190614e099190617be8565b506000614e468660f060009054906101000a900473ffffffffffffffffffffffffffffffffffffffff168588614e3f9190618c75565b3088616161565b9050600061271060d260009054906101000a900460ff1660ff1683614e6b9190618fcf565b614e759190618ccb565b905060008183614e859190619029565b905060f060009054906101000a900473ffffffffffffffffffffffffffffffffffffffff1673ffffffffffffffffffffffffffffffffffffffff1663a9059cbb60d060009054906101000a900473ffffffffffffffffffffffffffffffffffffffff16836040518363ffffffff1660e01b8152600401614f06929190618601565b602060405180830381600087803b158015614f2057600080fd5b505af1158015614f34573d6000803e3d6000fd5b505050506040513d601f19601f82011682018060405250810190614f589190617be8565b5060f060009054906101000a900473ffffffffffffffffffffffffffffffffffffffff1673ffffffffffffffffffffffffffffffffffffffff1663a9059cbb60d660009054906101000a900473ffffffffffffffffffffffffffffffffffffffff16846040518363ffffffff1660e01b8152600401614fd8929190618601565b602060405180830381600087803b158015614ff257600080fd5b505af1158015615006573d6000803e3d6000fd5b505050506040513d601f19601f8201168201806040525081019061502a9190617be8565b5060005b60e45481101561525c5760f060009054906101000a900473ffffffffffffffffffffffffffffffffffffffff1673ffffffffffffffffffffffffffffffffffffffff1660e6600083815260200190815260200160002060009054906101000a900473ffffffffffffffffffffffffffffffffffffffff1673ffffffffffffffffffffffffffffffffffffffff16146152495761524760f060009054906101000a900473ffffffffffffffffffffffffffffffffffffffff1660e6600084815260200190815260200160002060009054906101000a900473ffffffffffffffffffffffffffffffffffffffff1668056bc75e2d6310000060e9600060e6600088815260200190815260200160002060009054906101000a900473ffffffffffffffffffffffffffffffffffffffff1673ffffffffffffffffffffffffffffffffffffffff1673ffffffffffffffffffffffffffffffffffffffff16815260200190815260200160002054866151a29190618fcf565b6151ac9190618ccb565b60d060009054906101000a900473ffffffffffffffffffffffffffffffffffffffff1660eb600060e6600089815260200190815260200160002060009054906101000a900473ffffffffffffffffffffffffffffffffffffffff1673ffffffffffffffffffffffffffffffffffffffff1673ffffffffffffffffffffffffffffffffffffffff16815260200190815260200160002054616161565b505b80806152549061933e565b91505061502e565b5060008060d060009054906101000a900473ffffffffffffffffffffffffffffffffffffffff1673ffffffffffffffffffffffffffffffffffffffff166318160ddd6040518163ffffffff1660e01b815260040160206040518083038186803b1580156152c857600080fd5b505afa1580156152dc573d6000803e3d6000fd5b505050506040513d601f19601f820116820180604052508101906153009190617d75565b11156153c357848260d060009054906101000a900473ffffffffffffffffffffffffffffffffffffffff1673ffffffffffffffffffffffffffffffffffffffff166318160ddd6040518163ffffffff1660e01b815260040160206040518083038186803b15801561537057600080fd5b505afa158015615384573d6000803e3d6000fd5b505050506040513d601f19601f820116820180604052508101906153a89190617d75565b6153b29190618fcf565b6153bc9190618ccb565b90506153f1565b60006153cd613141565b9050662386f26fc1000081846153e39190618fcf565b6153ed9190618ccb565b9150505b60d060009054906101000a900473ffffffffffffffffffffffffffffffffffffffff1673ffffffffffffffffffffffffffffffffffffffff166340c10f1933836040518363ffffffff1660e01b815260040161544e929190618601565b600060405180830381600087803b15801561546857600080fd5b505af115801561547c573d6000803e3d6000fd5b505050508873ffffffffffffffffffffffffffffffffffffffff163373ffffffffffffffffffffffffffffffffffffffff167f4fee1c514ee0e252e3a0babfa8b5030fb89be7ea2b38df9a7fbbf788e54f3d918a84426040516154e193929190618af9565b60405180910390a3505050505050505050565b600060f060009054906101000a900473ffffffffffffffffffffffffffffffffffffffff1673ffffffffffffffffffffffffffffffffffffffff168373ffffffffffffffffffffffffffffffffffffffff1614156156335760006155566149a4565b9050600060d060009054906101000a900473ffffffffffffffffffffffffffffffffffffffff1673ffffffffffffffffffffffffffffffffffffffff166318160ddd6040518163ffffffff1660e01b815260040160206040518083038186803b1580156155c257600080fd5b505afa1580156155d6573d6000803e3d6000fd5b505050506040513d601f19601f820116820180604052508101906155fa9190617d75565b9050600080821115615624578287836156139190618fcf565b61561d9190618ccb565b9050615628565b8690505b809350505050615773565b60006156638460f060009054906101000a900473ffffffffffffffffffffffffffffffffffffffff16878661124a565b9050600061566f6149a4565b9050600060d060009054906101000a900473ffffffffffffffffffffffffffffffffffffffff1673ffffffffffffffffffffffffffffffffffffffff166318160ddd6040518163ffffffff1660e01b815260040160206040518083038186803b1580156156db57600080fd5b505afa1580156156ef573d6000803e3d6000fd5b505050506040513d601f19601f820116820180604052508101906157139190617d75565b905060008082111561573d5782848361572c9190618fcf565b6157369190618ccb565b905061576b565b6000615747613141565b9050662386f26fc10000818661575d9190618fcf565b6157679190618ccb565b9150505b809450505050505b9392505050565b60d660009054906101000a900473ffffffffffffffffffffffffffffffffffffffff1681565b6157a8616713565b600073ffffffffffffffffffffffffffffffffffffffff168173ffffffffffffffffffffffffffffffffffffffff161415615818576040517f08c379a000000000000000000000000000000000000000000000000000000000815260040161580f90618958565b60405180910390fd5b80606b60006101000a81548173ffffffffffffffffffffffffffffffffffffffff021916908373ffffffffffffffffffffffffffffffffffffffff16021790555050565b60ec60009054906101000a900473ffffffffffffffffffffffffffffffffffffffff1681565b60dc6020528060005260406000206000915054906101000a900460ff1681565b60f160009054906101000a900473ffffffffffffffffffffffffffffffffffffffff1681565b60e35481565b600060f060009054906101000a900473ffffffffffffffffffffffffffffffffffffffff1673ffffffffffffffffffffffffffffffffffffffff168373ffffffffffffffffffffffffffffffffffffffff161415615a375760006159306149a4565b9050600060d060009054906101000a900473ffffffffffffffffffffffffffffffffffffffff1673ffffffffffffffffffffffffffffffffffffffff166318160ddd6040518163ffffffff1660e01b815260040160206040518083038186803b15801561599c57600080fd5b505afa1580156159b0573d6000803e3d6000fd5b505050506040513d601f19601f820116820180604052508101906159d49190617d75565b90506000808211156159fe578287836159ed9190618fcf565b6159f79190618ccb565b9050615a2c565b6000615a08613141565b9050662386f26fc100008189615a1e9190618fcf565b615a289190618ccb565b9150505b809350505050615b77565b6000615a678460f060009054906101000a900473ffffffffffffffffffffffffffffffffffffffff16878661143b565b90506000615a736149a4565b9050600060d060009054906101000a900473ffffffffffffffffffffffffffffffffffffffff1673ffffffffffffffffffffffffffffffffffffffff166318160ddd6040518163ffffffff1660e01b815260040160206040518083038186803b158015615adf57600080fd5b505afa158015615af3573d6000803e3d6000fd5b505050506040513d601f19601f82011682018060405250810190615b179190617d75565b9050600080821115615b4157828483615b309190618fcf565b615b3a9190618ccb565b9050615b6f565b6000615b4b613141565b9050662386f26fc100008186615b619190618fcf565b615b6b9190618ccb565b9150505b809450505050505b9392505050565b60e25481565b606b60009054906101000a900473ffffffffffffffffffffffffffffffffffffffff1681565b60eb6020528060005260406000206000915090505481565b60d15481565b615bd0616713565b60008390506000839050600083905060005b8351811015615f0657838181518110615bfe57615bfd619473565b5b602002602001015160e5600083815260200190815260200160002060006101000a81548173ffffffffffffffffffffffffffffffffffffffff021916908373ffffffffffffffffffffffffffffffffffffffff1602179055508060e76000868481518110615c6f57615c6e619473565b5b602002602001015173ffffffffffffffffffffffffffffffffffffffff1673ffffffffffffffffffffffffffffffffffffffff16815260200190815260200160002081905550828181518110615cc857615cc7619473565b5b602002602001015160ea6000868481518110615ce757615ce6619473565b5b602002602001015173ffffffffffffffffffffffffffffffffffffffff1673ffffffffffffffffffffffffffffffffffffffff16815260200190815260200160002081905550818181518110615d4057615d3f619473565b5b602002602001015160eb6000868481518110615d5f57615d5e619473565b5b602002602001015173ffffffffffffffffffffffffffffffffffffffff1673ffffffffffffffffffffffffffffffffffffffff16815260200190815260200160002081905550600060e4541415615ef357838181518110615dc357615dc2619473565b5b602002602001015160e6600083815260200190815260200160002060006101000a81548173ffffffffffffffffffffffffffffffffffffffff021916908373ffffffffffffffffffffffffffffffffffffffff160217905550828181518110615e2f57615e2e619473565b5b602002602001015160e96000868481518110615e4e57615e4d619473565b5b602002602001015173ffffffffffffffffffffffffffffffffffffffff1673ffffffffffffffffffffffffffffffffffffffff168152602001908152602001600020819055508060e86000868481518110615eac57615eab619473565b5b602002602001015173ffffffffffffffffffffffffffffffffffffffff1673ffffffffffffffffffffffffffffffffffffffff168152602001908152602001600020819055505b8080615efe9061933e565b915050615be2565b50825160e381905550600060e4541415615f2357825160e4819055505b4260e281905550505050505050565b60d060009054906101000a900473ffffffffffffffffffffffffffffffffffffffff1681565b615f60616713565b8060d660006101000a81548173ffffffffffffffffffffffffffffffffffffffff021916908373ffffffffffffffffffffffffffffffffffffffff1602179055508073ffffffffffffffffffffffffffffffffffffffff167fbdf37c276f641820b141429d245add2552b4118c0866e5a78638e3de5ef18d9d60405160405180910390a250565b600073ffffffffffffffffffffffffffffffffffffffff168173ffffffffffffffffffffffffffffffffffffffff161415616057576040517f08c379a000000000000000000000000000000000000000000000000000000000815260040161604e90618958565b60405180910390fd5b606b60009054906101000a900473ffffffffffffffffffffffffffffffffffffffff1673ffffffffffffffffffffffffffffffffffffffff168173ffffffffffffffffffffffffffffffffffffffff16146160e7576040517f08c379a00000000000000000000000000000000000000000000000000000000081526004016160de90618898565b60405180910390fd5b3373ffffffffffffffffffffffffffffffffffffffff168173ffffffffffffffffffffffffffffffffffffffff1614616155576040517f08c379a000000000000000000000000000000000000000000000000000000000815260040161614c906188f8565b60405180910390fd5b61615e81616951565b50565b6000806161708787878661124a565b90506000808211156162345760d060009054906101000a900473ffffffffffffffffffffffffffffffffffffffff1673ffffffffffffffffffffffffffffffffffffffff16635f370ed089898989896040518663ffffffff1660e01b81526004016161df9594939291906185ae565b602060405180830381600087803b1580156161f957600080fd5b505af115801561620d573d6000803e3d6000fd5b505050506040513d601f19601f820116820180604052508101906162319190617d75565b90505b600384141561624757809250505061624d565b81925050505b95945050505050565b6000600382141561646b578573ffffffffffffffffffffffffffffffffffffffff1663095ea7b360ec60009054906101000a900473ffffffffffffffffffffffffffffffffffffffff16866040518363ffffffff1660e01b81526004016162be929190618601565b602060405180830381600087803b1580156162d857600080fd5b505af11580156162ec573d6000803e3d6000fd5b505050506040513d601f19601f820116820180604052508101906163109190617be8565b5060006040518061010001604052808873ffffffffffffffffffffffffffffffffffffffff1681526020018773ffffffffffffffffffffffffffffffffffffffff168152602001610bb862ffffff1681526020018573ffffffffffffffffffffffffffffffffffffffff16815260200142815260200186815260200160008152602001600073ffffffffffffffffffffffffffffffffffffffff168152509050600060ec60009054906101000a900473ffffffffffffffffffffffffffffffffffffffff1673ffffffffffffffffffffffffffffffffffffffff1663414bf389836040518263ffffffff1660e01b815260040161640d9190618a38565b602060405180830381600087803b15801561642757600080fd5b505af115801561643b573d6000803e3d6000fd5b505050506040513d601f19601f8201168201806040525081019061645f9190617d75565b905080925050506166a3565b6000600267ffffffffffffffff811115616488576164876194a2565b5b6040519080825280602002602001820160405280156164b65781602001602082028036833780820191505090505b50905086816000815181106164ce576164cd619473565b5b602002602001019073ffffffffffffffffffffffffffffffffffffffff16908173ffffffffffffffffffffffffffffffffffffffff1681525050858160018151811061651d5761651c619473565b5b602002602001019073ffffffffffffffffffffffffffffffffffffffff16908173ffffffffffffffffffffffffffffffffffffffff16815250508673ffffffffffffffffffffffffffffffffffffffff1663095ea7b360ee60009054906101000a900473ffffffffffffffffffffffffffffffffffffffff16876040518363ffffffff1660e01b81526004016165b4929190618601565b602060405180830381600087803b1580156165ce57600080fd5b505af11580156165e2573d6000803e3d6000fd5b505050506040513d601f19601f820116820180604052508101906166069190617be8565b5060ee60009054906101000a900473ffffffffffffffffffffffffffffffffffffffff1673ffffffffffffffffffffffffffffffffffffffff16635c11d7958660008488426040518663ffffffff1660e01b815260040161666b959493929190618a9f565b600060405180830381600087803b15801561668557600080fd5b505af1158015616699573d6000803e3d6000fd5b5050505060009150505b95945050505050565b60008260ff168260ff1611156166e65782826166c8919061905d565b600a6166d49190618d9a565b846166df9190618eb8565b905061670c565b81836166f2919061905d565b600a6166fe9190618d9a565b846167099190618eb8565b90505b9392505050565b61671b616bd4565b73ffffffffffffffffffffffffffffffffffffffff16616739614042565b73ffffffffffffffffffffffffffffffffffffffff161461678f576040517f08c379a000000000000000000000000000000000000000000000000000000000815260040161678690618938565b60405180910390fd5b565b616799616bdc565b6000609e60006101000a81548160ff0219169083151502179055507f5db9ee0a495bf2e6ff9c91a7834c1ba4fdd244a5e8aa4e537bd38aeae4b073aa6167dd616bd4565b6040516167ea91906184c4565b60405180910390a1565b6000808273ffffffffffffffffffffffffffffffffffffffff163b119050919050565b600660019054906101000a900460ff16616866576040517f08c379a000000000000000000000000000000000000000000000000000000000815260040161685d906189f8565b60405180910390fd5b61686e616c25565b565b600660019054906101000a900460ff166168bf576040517f08c379a00000000000000000000000000000000000000000000000000000000081526004016168b6906189f8565b60405180910390fd5b6168c7616c86565b565b80600260006101000a81548173ffffffffffffffffffffffffffffffffffffffff021916908373ffffffffffffffffffffffffffffffffffffffff16021790555050565b80600360006101000a81548173ffffffffffffffffffffffffffffffffffffffff021916908373ffffffffffffffffffffffffffffffffffffffff16021790555050565b6000603960009054906101000a900473ffffffffffffffffffffffffffffffffffffffff16905081603960006101000a81548173ffffffffffffffffffffffffffffffffffffffff021916908373ffffffffffffffffffffffffffffffffffffffff1602179055508173ffffffffffffffffffffffffffffffffffffffff168173ffffffffffffffffffffffffffffffffffffffff167f8be0079c531659141344cd1fd0a4f28419497f9722a3daafe3b4186f6b6457e060405160405180910390a35050565b616a1f6174a2565b616a276174a2565b616a3e85858584616cf2909392919063ffffffff16565b9150509392505050565b616a5f828460800151616da290919063ffffffff16565b616a76818460800151616da290919063ffffffff16565b505050565b6000600360009054906101000a900473ffffffffffffffffffffffffffffffffffffffff16905090565b6000806004549050600181616aba9190618c75565b6004819055506000634042994660e01b60008087600001513089604001518760018c6080015160000151604051602401616afb98979695949392919061862a565b604051602081830303815290604052907bffffffffffffffffffffffffffffffffffffffffffffffffffffffff19166020820180517bffffffffffffffffffffffffffffffffffffffffffffffffffffffff83818316178352505050509050616b6686838684616dc7565b925050509392505050565b616b79616f6b565b6001609e60006101000a81548160ff0219169083151502179055507f62e78cea01bee320cd4e420270b5ea74000d11b0c9f74754ebdbfc544b05a258616bbd616bd4565b604051616bca91906184c4565b60405180910390a1565b600033905090565b616be4613909565b616c23576040517f08c379a0000000000000000000000000000000000000000000000000000000008152600401616c1a90618858565b60405180910390fd5b565b600660019054906101000a900460ff16616c74576040517f08c379a0000000000000000000000000000000000000000000000000000000008152600401616c6b906189f8565b60405180910390fd5b616c84616c7f616bd4565b616951565b565b600660019054906101000a900460ff16616cd5576040517f08c379a0000000000000000000000000000000000000000000000000000000008152600401616ccc906189f8565b60405180910390fd5b6000609e60006101000a81548160ff021916908315150217905550565b616cfa6174a2565b616d0a8560800151610100616fb5565b508385600001818152505082856020019073ffffffffffffffffffffffffffffffffffffffff16908173ffffffffffffffffffffffffffffffffffffffff16815250508185604001907bffffffffffffffffffffffffffffffffffffffffffffffffffffffff191690817bffffffffffffffffffffffffffffffffffffffffffffffffffffffff191681525050849050949350505050565b616daf826003835161701f565b616dc281836171a490919063ffffffff16565b505050565b60003084604051602001616ddc929190618483565b604051602081830303815290604052805190602001209050846005600083815260200190815260200160002060006101000a81548173ffffffffffffffffffffffffffffffffffffffff021916908373ffffffffffffffffffffffffffffffffffffffff160217905550807fb5e6e01e79f91267dc17b4e6314d5d4d03593d2ceee0fbb452b750bd70ea5af960405160405180910390a2600260009054906101000a900473ffffffffffffffffffffffffffffffffffffffff1673ffffffffffffffffffffffffffffffffffffffff16634000aea08685856040518463ffffffff1660e01b8152600401616ed2939291906186af565b602060405180830381600087803b158015616eec57600080fd5b505af1158015616f00573d6000803e3d6000fd5b505050506040513d601f19601f82011682018060405250810190616f249190617be8565b616f63576040517f08c379a0000000000000000000000000000000000000000000000000000000008152600401616f5a90618878565b60405180910390fd5b949350505050565b616f73613909565b15616fb3576040517f08c379a0000000000000000000000000000000000000000000000000000000008152600401616faa906188d8565b60405180910390fd5b565b616fbd61750f565b6000602083616fcc91906193b5565b14616ff857602082616fde91906193b5565b6020616fea9190619029565b82616ff59190618c75565b91505b81836020018181525050604051808452600081528281016020016040525082905092915050565b60178167ffffffffffffffff1611617056576170508160058460ff16901b60ff1617846171c690919063ffffffff16565b5061719f565b60ff8167ffffffffffffffff16116170ac57617085601860058460ff16901b17846171c690919063ffffffff16565b506170a68167ffffffffffffffff166001856171e69092919063ffffffff16565b5061719e565b61ffff8167ffffffffffffffff1611617103576170dc601960058460ff16901b17846171c690919063ffffffff16565b506170fd8167ffffffffffffffff166002856171e69092919063ffffffff16565b5061719d565b63ffffffff8167ffffffffffffffff161161715c57617135601a60058460ff16901b17846171c690919063ffffffff16565b506171568167ffffffffffffffff166004856171e69092919063ffffffff16565b5061719c565b617179601b60058460ff16901b17846171c690919063ffffffff16565b5061719a8167ffffffffffffffff166008856171e69092919063ffffffff16565b505b5b5b5b505050565b6171ac61750f565b6171be83846000015151848551617208565b905092915050565b6171ce61750f565b6171de83846000015151846172f7565b905092915050565b6171ee61750f565b6171ff84856000015151858561734e565b90509392505050565b61721061750f565b825182111561721e57600080fd5b8460200151828561722f9190618c75565b1115617264576172638560026172548860200151888761724f9190618c75565b6173dc565b61725e9190618fcf565b6173f8565b5b6000808651805187602083010193508088870111156172835787860182525b60208701925050505b602084106172ca57805182526020826172a59190618c75565b91506020816172b49190618c75565b90506020846172c39190619029565b935061728c565b60006001856020036101000a03905080198251168184511681811785525050508692505050949350505050565b6172ff61750f565b8360200151831061732557617324846002866020015161731f9190618fcf565b6173f8565b5b8351805160208583010184815381861415617341576001820183525b5050508390509392505050565b61735661750f565b846020015184836173679190618c75565b111561738f5761738e856002868561737f9190618c75565b6173899190618fcf565b6173f8565b5b60006001836101006173a19190618d4f565b6173ab9190619029565b905085518386820101858319825116178152815185880111156173ce5784870182525b505085915050949350505050565b6000818311156173ee578290506173f2565b8190505b92915050565b60008260000151905061740b8383616fb5565b5061741683826171a4565b50505050565b828054617428906192db565b90600052602060002090601f01602090048101928261744a5760008555617491565b82601f1061746357805160ff1916838001178555617491565b82800160010185558215617491579182015b82811115617490578251825591602001919060010190617475565b5b50905061749e9190617529565b5090565b6040518060a0016040528060008019168152602001600073ffffffffffffffffffffffffffffffffffffffff16815260200160007bffffffffffffffffffffffffffffffffffffffffffffffffffffffff191681526020016000815260200161750961750f565b81525090565b604051806040016040528060608152602001600081525090565b5b8082111561754257600081600090555060010161752a565b5090565b600061755961755484618b70565b618b4b565b9050808382526020820190508285602086028201111561757c5761757b6194d6565b5b60005b858110156175ac578161759288826176d8565b84526020840193506020830192505060018101905061757f565b5050509392505050565b60006175c96175c484618b9c565b618b4b565b905080838252602082019050828560208602820111156175ec576175eb6194d6565b5b60005b8581101561761c5781617602888261780e565b8452602084019350602083019250506001810190506175ef565b5050509392505050565b600061763961763484618b9c565b618b4b565b9050808382526020820190508285602086028201111561765c5761765b6194d6565b5b60005b8581101561768c57816176728882617823565b84526020840193506020830192505060018101905061765f565b5050509392505050565b60006176a96176a484618bc8565b618b4b565b9050828152602081018484840111156176c5576176c46194db565b5b6176d0848285619299565b509392505050565b6000813590506176e781619970565b92915050565b6000813590506176fc81619987565b92915050565b600082601f830112617717576177166194d1565b5b8135617727848260208601617546565b91505092915050565b600082601f830112617745576177446194d1565b5b81356177558482602086016175b6565b91505092915050565b600082601f830112617773576177726194d1565b5b8151617783848260208601617626565b91505092915050565b60008151905061779b8161999e565b92915050565b6000813590506177b0816199b5565b92915050565b6000815190506177c5816199cc565b92915050565b600082601f8301126177e0576177df6194d1565b5b81356177f0848260208601617696565b91505092915050565b600081359050617808816199e3565b92915050565b60008135905061781d816199fa565b92915050565b600081519050617832816199fa565b92915050565b60008135905061784781619a11565b92915050565b60008151905061785c81619a28565b92915050565b60008151905061787181619a11565b92915050565b60006020828403121561788d5761788c6194e5565b5b600061789b848285016176d8565b91505092915050565b60008060008060008060008060008060006101608c8e0312156178ca576178c96194e5565b5b60006178d88e828f016176ed565b9b505060206178e98e828f016176d8565b9a505060406178fa8e828f016176d8565b995050606061790b8e828f016177a1565b985050608061791c8e828f016176d8565b97505060a061792d8e828f016176d8565b96505060c061793e8e828f016176d8565b95505060e061794f8e828f016176d8565b9450506101006179618e828f016176d8565b9350506101206179738e828f016176d8565b9250506101406179858e828f016176d8565b9150509295989b509295989b9093969950565b6000806000606084860312156179b1576179b06194e5565b5b60006179bf868287016176d8565b93505060206179d0868287016176d8565b92505060406179e1868287016177f9565b9150509250925092565b600080600060608486031215617a0457617a036194e5565b5b6000617a12868287016176d8565b9350506020617a23868287016176d8565b9250506040617a348682870161780e565b9150509250925092565b60008060008060808587031215617a5857617a576194e5565b5b6000617a66878288016176d8565b9450506020617a77878288016176d8565b9350506040617a888782880161780e565b9250506060617a998782880161780e565b91505092959194509250565b600080600060608486031215617abe57617abd6194e5565b5b6000617acc868287016176d8565b9350506020617add8682870161780e565b9250506040617aee8682870161780e565b9150509250925092565b600080600060608486031215617b1157617b106194e5565b5b600084013567ffffffffffffffff811115617b2f57617b2e6194e0565b5b617b3b86828701617702565b935050602084013567ffffffffffffffff811115617b5c57617b5b6194e0565b5b617b6886828701617730565b925050604084013567ffffffffffffffff811115617b8957617b886194e0565b5b617b9586828701617730565b9150509250925092565b600060208284031215617bb557617bb46194e5565b5b600082015167ffffffffffffffff811115617bd357617bd26194e0565b5b617bdf8482850161775e565b91505092915050565b600060208284031215617bfe57617bfd6194e5565b5b6000617c0c8482850161778c565b91505092915050565b60008060008060808587031215617c2f57617c2e6194e5565b5b6000617c3d878288016177a1565b945050602085013567ffffffffffffffff811115617c5e57617c5d6194e0565b5b617c6a87828801617702565b935050604085013567ffffffffffffffff811115617c8b57617c8a6194e0565b5b617c9787828801617730565b925050606085013567ffffffffffffffff811115617cb857617cb76194e0565b5b617cc487828801617730565b91505092959194509250565b60008060408385031215617ce757617ce66194e5565b5b600083013567ffffffffffffffff811115617d0557617d046194e0565b5b617d11858286016177cb565b925050602083013567ffffffffffffffff811115617d3257617d316194e0565b5b617d3e858286016177cb565b9150509250929050565b600060208284031215617d5e57617d5d6194e5565b5b6000617d6c8482850161780e565b91505092915050565b600060208284031215617d8b57617d8a6194e5565b5b6000617d9984828501617823565b91505092915050565b600080600060608486031215617dbb57617dba6194e5565b5b6000617dc98682870161780e565b9350506020617dda868287016176d8565b9250506040617deb8682870161780e565b9150509250925092565b600060208284031215617e0b57617e0a6194e5565b5b6000617e1984828501617838565b91505092915050565b600080600080600060a08688031215617e3e57617e3d6194e5565b5b6000617e4c8882890161784d565b9550506020617e5d888289016177b6565b9450506040617e6e88828901617823565b9350506060617e7f88828901617823565b9250506080617e908882890161784d565b9150509295509295909350565b600060208284031215617eb357617eb26194e5565b5b6000617ec184828501617862565b91505092915050565b6000617ed68383617ee2565b60208301905092915050565b617eeb81619091565b82525050565b617efa81619091565b82525050565b6000617f0b82618c09565b617f158185618c37565b9350617f2083618bf9565b8060005b83811015617f51578151617f388882617eca565b9750617f4383618c2a565b925050600181019050617f24565b5085935050505092915050565b617f67816190b5565b82525050565b617f76816190c1565b82525050565b617f85816190cb565b82525050565b6000617f9682618c14565b617fa08185618c48565b9350617fb08185602086016192a8565b617fb9816194ea565b840191505092915050565b6000617fcf82618c14565b617fd98185618c59565b9350617fe98185602086016192a8565b80840191505092915050565b617ffe81619179565b82525050565b6180156180108261918b565b619387565b82525050565b6180248161919d565b82525050565b618033816191af565b82525050565b618042816191c1565b82525050565b618051816191d3565b82525050565b618060816191e5565b82525050565b61806f816191f7565b82525050565b61807e81619209565b82525050565b61808d8161921b565b82525050565b61809c8161922d565b82525050565b6180ab8161923f565b82525050565b6180ba81619251565b82525050565b60006180cb82618c1f565b6180d58185618c64565b93506180e58185602086016192a8565b6180ee816194ea565b840191505092915050565b6000618106603383618c64565b915061811182619515565b604082019050919050565b6000618129601483618c64565b915061813482619564565b602082019050919050565b600061814c602383618c64565b91506181578261958d565b604082019050919050565b600061816f603283618c64565b915061817a826195dc565b604082019050919050565b6000618192602383618c64565b915061819d8261962b565b604082019050919050565b60006181b5601083618c64565b91506181c08261967a565b602082019050919050565b60006181d8603a83618c64565b91506181e3826196a3565b604082019050919050565b60006181fb602e83618c64565b9150618206826196f2565b604082019050919050565b600061821e602083618c64565b915061822982619741565b602082019050919050565b6000618241603083618c64565b915061824c8261976a565b604082019050919050565b6000618264602e83618c64565b915061826f826197b9565b604082019050919050565b6000618287602b83618c64565b915061829282619808565b604082019050919050565b60006182aa600083618c59565b91506182b582619857565b600082019050919050565b60006182cd601a83618c64565b91506182d88261985a565b602082019050919050565b60006182f0602883618c64565b91506182fb82619883565b604082019050919050565b6000618313602b83618c64565b915061831e826198d2565b604082019050919050565b6000618336603983618c64565b915061834182619921565b604082019050919050565b610100820160008201516183636000850182617ee2565b5060208201516183766020850182617ee2565b506040820151618389604085018261840c565b50606082015161839c6060850182617ee2565b5060808201516183af608085018261841b565b5060a08201516183c260a085018261841b565b5060c08201516183d560c085018261841b565b5060e08201516183e860e08501826183fd565b50505050565b6183f781619101565b82525050565b6184068161911d565b82525050565b6184158161913d565b82525050565b6184248161914c565b82525050565b6184338161914c565b82525050565b61844a6184458261914c565b6193ab565b82525050565b61845981619156565b82525050565b600061846b8285617fc4565b91506184778284617fc4565b91508190509392505050565b600061848f8285618004565b60148201915061849f8284618439565b6020820191508190509392505050565b60006184ba8261829d565b9150819050919050565b60006020820190506184d96000830184617ef1565b92915050565b60006080820190506184f46000830187617ef1565b6185016020830186617ef1565b61850e6040830185617ef1565b61851b60608301846183ee565b95945050505050565b600060a0820190506185396000830188617ef1565b6185466020830187617ef1565b61855360408301866180b1565b618560606083018561842a565b61856d6080830184618084565b9695505050505050565b600060608201905061858c6000830186617ef1565b6185996020830185617ef1565b6185a6604083018461842a565b949350505050565b600060a0820190506185c36000830188617ef1565b6185d06020830187617ef1565b6185dd604083018661842a565b6185ea6060830185617ef1565b6185f7608083018461842a565b9695505050505050565b60006040820190506186166000830185617ef1565b618623602083018461842a565b9392505050565b600061010082019050618640600083018b617ef1565b61864d602083018a61842a565b61865a6040830189617f6d565b6186676060830188617ef1565b6186746080830187617f7c565b61868160a083018661842a565b61868e60c083018561842a565b81810360e08301526186a08184617f8b565b90509998505050505050505050565b60006060820190506186c46000830186617ef1565b6186d1602083018561842a565b81810360408301526186e38184617f8b565b9050949350505050565b60006020820190506187026000830184617f5e565b92915050565b600060208201905061871d6000830184617f6d565b92915050565b60006020820190506187386000830184617ff5565b92915050565b6000602082019050618753600083018461801b565b92915050565b600060208201905061876e600083018461802a565b92915050565b60006020820190506187896000830184618039565b92915050565b60006020820190506187a46000830184618048565b92915050565b60006020820190506187bf6000830184618057565b92915050565b60006020820190506187da6000830184618066565b92915050565b60006020820190506187f56000830184618075565b92915050565b600060208201905061881060008301846180a2565b92915050565b6000602082019050818103600083015261883081846180c0565b905092915050565b60006020820190508181036000830152618851816180f9565b9050919050565b600060208201905081810360008301526188718161811c565b9050919050565b600060208201905081810360008301526188918161813f565b9050919050565b600060208201905081810360008301526188b181618162565b9050919050565b600060208201905081810360008301526188d181618185565b9050919050565b600060208201905081810360008301526188f1816181a8565b9050919050565b60006020820190508181036000830152618911816181cb565b9050919050565b60006020820190508181036000830152618931816181ee565b9050919050565b6000602082019050818103600083015261895181618211565b9050919050565b6000602082019050818103600083015261897181618234565b9050919050565b6000602082019050818103600083015261899181618257565b9050919050565b600060208201905081810360008301526189b18161827a565b9050919050565b600060208201905081810360008301526189d1816182c0565b9050919050565b600060208201905081810360008301526189f1816182e3565b9050919050565b60006020820190508181036000830152618a1181618306565b9050919050565b60006020820190508181036000830152618a3181618329565b9050919050565b600061010082019050618a4e600083018461834c565b92915050565b6000602082019050618a69600083018461842a565b92915050565b6000604082019050618a84600083018561842a565b8181036020830152618a968184617f00565b90509392505050565b600060a082019050618ab4600083018861842a565b618ac16020830187618093565b8181036040830152618ad38186617f00565b9050618ae26060830185617ef1565b618aef608083018461842a565b9695505050505050565b6000606082019050618b0e600083018661842a565b618b1b602083018561842a565b618b28604083018461842a565b949350505050565b6000602082019050618b456000830184618450565b92915050565b6000618b55618b66565b9050618b61828261930d565b919050565b6000604051905090565b600067ffffffffffffffff821115618b8b57618b8a6194a2565b5b602082029050602081019050919050565b600067ffffffffffffffff821115618bb757618bb66194a2565b5b602082029050602081019050919050565b600067ffffffffffffffff821115618be357618be26194a2565b5b618bec826194ea565b9050602081019050919050565b6000819050602082019050919050565b600081519050919050565b600081519050919050565b600081519050919050565b6000602082019050919050565b600082825260208201905092915050565b600082825260208201905092915050565b600081905092915050565b600082825260208201905092915050565b6000618c808261914c565b9150618c8b8361914c565b9250827fffffffffffffffffffffffffffffffffffffffffffffffffffffffffffffffff03821115618cc057618cbf6193e6565b5b828201905092915050565b6000618cd68261914c565b9150618ce18361914c565b925082618cf157618cf0619415565b5b828204905092915050565b6000808291508390505b6001851115618d4657808604811115618d2257618d216193e6565b5b6001851615618d315780820291505b8081029050618d3f85619508565b9450618d06565b94509492505050565b6000618d5a8261914c565b9150618d658361914c565b9250618d927fffffffffffffffffffffffffffffffffffffffffffffffffffffffffffffffff8484618de5565b905092915050565b6000618da58261914c565b9150618db083619156565b9250618ddd7fffffffffffffffffffffffffffffffffffffffffffffffffffffffffffffffff8484618de5565b905092915050565b600082618df55760019050618eb1565b81618e035760009050618eb1565b8160018114618e195760028114618e2357618e52565b6001915050618eb1565b60ff841115618e3557618e346193e6565b5b8360020a915084821115618e4c57618e4b6193e6565b5b50618eb1565b5060208310610133831016604e8410600b8410161715618e875782820a905083811115618e8257618e816193e6565b5b618eb1565b618e948484846001618cfc565b92509050818404811115618eab57618eaa6193e6565b5b81810290505b9392505050565b6000618ec3826190f7565b9150618ece836190f7565b9250827f7fffffffffffffffffffffffffffffffffffffffffffffffffffffffffffffff0482116000841360008413161615618f0d57618f0c6193e6565b5b817f80000000000000000000000000000000000000000000000000000000000000000583126000841260008413161615618f4a57618f496193e6565b5b827f80000000000000000000000000000000000000000000000000000000000000000582126000841360008412161615618f8757618f866193e6565b5b827f7fffffffffffffffffffffffffffffffffffffffffffffffffffffffffffffff0582126000841260008412161615618fc457618fc36193e6565b5b828202905092915050565b6000618fda8261914c565b9150618fe58361914c565b9250817fffffffffffffffffffffffffffffffffffffffffffffffffffffffffffffffff048311821515161561901e5761901d6193e6565b5b828202905092915050565b60006190348261914c565b915061903f8361914c565b925082821015619052576190516193e6565b5b828203905092915050565b600061906882619156565b915061907383619156565b925082821015619086576190856193e6565b5b828203905092915050565b600061909c8261911d565b9050919050565b60006190ae8261911d565b9050919050565b60008115159050919050565b6000819050919050565b60007fffffffff0000000000000000000000000000000000000000000000000000000082169050919050565b6000819050919050565b60006fffffffffffffffffffffffffffffffff82169050919050565b600073ffffffffffffffffffffffffffffffffffffffff82169050919050565b600062ffffff82169050919050565b6000819050919050565b600060ff82169050919050565b600069ffffffffffffffffffff82169050919050565b600061918482619263565b9050919050565b600061919682619263565b9050919050565b60006191a882619263565b9050919050565b60006191ba82619263565b9050919050565b60006191cc82619263565b9050919050565b60006191de82619263565b9050919050565b60006191f082619263565b9050919050565b600061920282619263565b9050919050565b600061921482619275565b9050919050565b60006192268261911d565b9050919050565b60006192388261914c565b9050919050565b600061924a82619156565b9050919050565b600061925c8261913d565b9050919050565b600061926e82619287565b9050919050565b600061928082619287565b9050919050565b60006192928261911d565b9050919050565b82818337600083830152505050565b60005b838110156192c65780820151818401526020810190506192ab565b838111156192d5576000848401525b50505050565b600060028204905060018216806192f357607f821691505b6020821081141561930757619306619444565b5b50919050565b619316826194ea565b810181811067ffffffffffffffff82111715619335576193346194a2565b5b80604052505050565b60006193498261914c565b91507fffffffffffffffffffffffffffffffffffffffffffffffffffffffffffffffff82141561937c5761937b6193e6565b5b600182019050919050565b600061939282619399565b9050919050565b60006193a4826194fb565b9050919050565b6000819050919050565b60006193c08261914c565b91506193cb8361914c565b9250826193db576193da619415565b5b828206905092915050565b7f4e487b7100000000000000000000000000000000000000000000000000000000600052601160045260246000fd5b7f4e487b7100000000000000000000000000000000000000000000000000000000600052601260045260246000fd5b7f4e487b7100000000000000000000000000000000000000000000000000000000600052602260045260246000fd5b7f4e487b7100000000000000000000000000000000000000000000000000000000600052603260045260246000fd5b7f4e487b7100000000000000000000000000000000000000000000000000000000600052604160045260246000fd5b600080fd5b600080fd5b600080fd5b600080fd5b600080fd5b6000601f19601f8301169050919050565b60008160601b9050919050565b60008160011c9050919050565b7f546865206e65774665652073686f756c64206265206265747765656e2031206160008201527f6e64203130302028302e303125202d2031252900000000000000000000000000602082015250565b7f5061757361626c653a206e6f7420706175736564000000000000000000000000600082015250565b7f756e61626c6520746f207472616e73666572416e6443616c6c20746f206f726160008201527f636c650000000000000000000000000000000000000000000000000000000000602082015250565b7f50726f706f7361626c654f776e61626c653a206e6577206f776e65722069732060008201527f6e6f742070726f706f736564206f776e65720000000000000000000000000000602082015250565b7f7472616e73666572206574682066656520746f2074686520757365722066616960008201527f6c65640000000000000000000000000000000000000000000000000000000000602082015250565b7f5061757361626c653a2070617573656400000000000000000000000000000000600082015250565b7f50726f706f7361626c654f776e61626c653a20746869732063616c6c206d757360008201527f74206265206d61646520627920746865206e6577206f776e6572000000000000602082015250565b7f496e697469616c697a61626c653a20636f6e747261637420697320616c72656160008201527f647920696e697469616c697a6564000000000000000000000000000000000000602082015250565b7f4f776e61626c653a2063616c6c6572206973206e6f7420746865206f776e6572600082015250565b7f50726f706f7361626c654f776e61626c653a206e6577206f776e65722069732060008201527f746865207a65726f206164647265737300000000000000000000000000000000602082015250565b7f49434f3a205072696365206665656420616464726573732063616e6e6f74206260008201527f65207a65726f2061646472657373000000000000000000000000000000000000602082015250565b7f5072696365206f7261636c6520616464726573732063616e6e6f74206265207a60008201527f65726f2061646472657373000000000000000000000000000000000000000000602082015250565b50565b7f6c6f776572207468616e20726571756972656420616d6f756e74000000000000600082015250565b7f536f75726365206d75737420626520746865206f7261636c65206f662074686560008201527f2072657175657374000000000000000000000000000000000000000000000000602082015250565b7f496e697469616c697a61626c653a20636f6e7472616374206973206e6f74206960008201527f6e697469616c697a696e67000000000000000000000000000000000000000000602082015250565b7f596f752073686f756c642077616974206174206c6561737420313220686f757260008201527f7320616674657220746865206c61746573742075706461746500000000000000602082015250565b61997981619091565b811461998457600080fd5b50565b619990816190a3565b811461999b57600080fd5b50565b6199a7816190b5565b81146199b257600080fd5b50565b6199be816190c1565b81146199c957600080fd5b50565b6199d5816190f7565b81146199e057600080fd5b50565b6199ec81619101565b81146199f757600080fd5b50565b619a038161914c565b8114619a0e57600080fd5b50565b619a1a81619156565b8114619a2557600080fd5b50565b619a3181619163565b8114619a3c57600080fd5b5056fe68747470733a2f2f6170702e6e65786c6162732e696f2f6170692f616c6c46756e64696e6752617465733f6d756c7469706c7946756e633d31382674696d65734e656746756e643d74727565266172726179733d74727565a264697066735822122027fe6a065990b9f4d5c81f7ed2b09eef24081554e8630a5d61cb4d7e1ca22aa764736f6c63430008070033","linkReferences":{}},"methodIdentifiers":{"concatenation(string,string)":"0e329357","currentList(uint256)":"9932ba4c","estimateAmountOut(address,address,uint128)":"0456f9c8","externalJobId()":"a8b54bd4","factoryV2()":"68e0d4e1","factoryV3()":"1d5f45f5","fee()":"ddca3f43","feeRate()":"978bbdb9","feeRatePerDayScaled()":"2fecd589","feeReceiver()":"b3f00674","feeTimestamp()":"184a732f","fulfillAssetsData(bytes32,address[],uint256[],uint256[])":"36aab86c","getAmountOut(address,address,uint256,uint256)":"13cb1f83","getExactAmountOut(address,address,uint256,uint256)":"156a5da1","getExactAmountOut2(address,address,uint256)":"686f9175","getIssuanceAmountOut(uint256,address,uint256)":"b3951b67","getIssuanceAmountOut2(uint256,address,uint256)":"c8b76e70","getPortfolioBalance()":"a8509fd8","getRedemptionAmountOut(uint256,address,uint256)":"02e04015","getRedemptionAmountOut2(uint256,address,uint256)":"1ff01563","indexToken()":"e7d015f2","initialize(address,address,address,bytes32,address,address,address,address,address,address,address)":"465a4c94","isRestricted(address)":"c01bc982","issuanceIndexTokens(address,uint256,uint256)":"abdd5f3f","issuanceIndexTokensWithEth(uint256)":"372d4c55","lastUpdateTime()":"c8f33c91","latestFeeUpdate()":"011ced5f","methodologist()":"9f8e67bf","methodology()":"9eeb1d50","minter()":"07546172","mockFillAssetsList(address[],uint256[],uint256[])":"e267078a","oracleList(uint256)":"239aad0d","oraclePayment()":"0c02e130","owner()":"8da5cb5b","pause()":"8456cb59","paused()":"5c975abb","priceInWei()":"3c8da588","priceOracle()":"2630c12f","proposeOwner(address)":"b5ed298a","proposedOwner()":"d153b60c","quoter()":"c6bbd5a7","reIndexAndReweight()":"a2ab905d","redemption(uint256,address,uint256)":"2b9522e0","renounceOwnership()":"715018a6","requestAssetsData()":"7ca58c55","setFeeRate(uint8)":"5177942a","setFeeReceiver(address)":"efdcd974","setPriceFeed(address)":"724e78da","setPriceOracle(address)":"530e784f","setUrl(string,string)":"a73e1cbf","supplyCeiling()":"2b52684d","swapRouterV2()":"744fbc7a","swapRouterV3()":"b631e80b","toUsdPriceFeed()":"63973fda","tokenCurrentListIndex(address)":"914f0cc6","tokenCurrentMarketShare(address)":"0be52713","tokenOracleListIndex(address)":"8c88c10c","tokenOracleMarketShare(address)":"4b3e0b80","tokenSwapVersion(address)":"d90bc211","totalCurrentList()":"53fd4332","totalOracleList()":"c8599ded","transferOwnership(address)":"f2fde38b","unpause()":"3f4ba83a","weth()":"3fc8cef3"},"id":2}