{
  "abi": [
    {
      "inputs": [],
      "name": "T",
      "type": "error"
    },
    {
      "anonymous": false,
      "inputs": [
        {
          "indexed": true,
          "internalType": "bytes32",
          "name": "id",
          "type": "bytes32"
        }
      ],
      "name": "ChainlinkCancelled",
      "type": "event"
    },
    {
      "anonymous": false,
      "inputs": [
        {
          "indexed": true,
          "internalType": "bytes32",
          "name": "id",
          "type": "bytes32"
        }
      ],
      "name": "ChainlinkFulfilled",
      "type": "event"
    },
    {
      "anonymous": false,
      "inputs": [
        {
          "indexed": true,
          "internalType": "bytes32",
          "name": "id",
          "type": "bytes32"
        }
      ],
      "name": "ChainlinkRequested",
      "type": "event"
    },
    {
      "anonymous": false,
      "inputs": [
        {
          "indexed": true,
          "internalType": "uint256",
          "name": "feeRatePerDayScaled",
          "type": "uint256"
        }
      ],
      "name": "FeeRateSet",
      "type": "event"
    },
    {
      "anonymous": false,
      "inputs": [
        {
          "indexed": true,
          "internalType": "address",
          "name": "feeReceiver",
          "type": "address"
        }
      ],
      "name": "FeeReceiverSet",
      "type": "event"
    },
    {
      "anonymous": false,
      "inputs": [
        {
          "indexed": false,
          "internalType": "uint8",
          "name": "version",
          "type": "uint8"
        }
      ],
      "name": "Initialized",
      "type": "event"
    },
    {
      "anonymous": false,
      "inputs": [
        {
          "indexed": true,
          "internalType": "address",
          "name": "user",
          "type": "address"
        },
        {
          "indexed": true,
          "internalType": "address",
          "name": "inputToken",
          "type": "address"
        },
        {
          "indexed": false,
          "internalType": "uint256",
          "name": "inputAmount",
          "type": "uint256"
        },
        {
          "indexed": false,
          "internalType": "uint256",
          "name": "outputAmount",
          "type": "uint256"
        },
        {
          "indexed": false,
          "internalType": "uint256",
          "name": "time",
          "type": "uint256"
        }
      ],
      "name": "Issuanced",
      "type": "event"
    },
    {
      "anonymous": false,
      "inputs": [
        {
          "indexed": true,
          "internalType": "address",
          "name": "methodologist",
          "type": "address"
        }
      ],
      "name": "MethodologistSet",
      "type": "event"
    },
    {
      "anonymous": false,
      "inputs": [
        {
          "indexed": false,
          "internalType": "string",
          "name": "methodology",
          "type": "string"
        }
      ],
      "name": "MethodologySet",
      "type": "event"
    },
    {
      "anonymous": false,
      "inputs": [
        {
          "indexed": false,
          "internalType": "address",
          "name": "feeReceiver",
          "type": "address"
        },
        {
          "indexed": false,
          "internalType": "uint256",
          "name": "timestamp",
          "type": "uint256"
        },
        {
          "indexed": false,
          "internalType": "uint256",
          "name": "totalSupply",
          "type": "uint256"
        },
        {
          "indexed": false,
          "internalType": "uint256",
          "name": "amount",
          "type": "uint256"
        }
      ],
      "name": "MintFeeToReceiver",
      "type": "event"
    },
    {
      "anonymous": false,
      "inputs": [
        {
          "indexed": true,
          "internalType": "address",
          "name": "minter",
          "type": "address"
        }
      ],
      "name": "MinterSet",
      "type": "event"
    },
    {
      "anonymous": false,
      "inputs": [
        {
          "indexed": true,
          "internalType": "address",
          "name": "previousOwner",
          "type": "address"
        },
        {
          "indexed": true,
          "internalType": "address",
          "name": "newOwner",
          "type": "address"
        }
      ],
      "name": "OwnershipTransferred",
      "type": "event"
    },
    {
      "anonymous": false,
      "inputs": [
        {
          "indexed": false,
          "internalType": "address",
          "name": "account",
          "type": "address"
        }
      ],
      "name": "Paused",
      "type": "event"
    },
    {
      "anonymous": false,
      "inputs": [
        {
          "indexed": true,
          "internalType": "address",
          "name": "user",
          "type": "address"
        },
        {
          "indexed": true,
          "internalType": "address",
          "name": "outputToken",
          "type": "address"
        },
        {
          "indexed": false,
          "internalType": "uint256",
          "name": "inputAmount",
          "type": "uint256"
        },
        {
          "indexed": false,
          "internalType": "uint256",
          "name": "outputAmount",
          "type": "uint256"
        },
        {
          "indexed": false,
          "internalType": "uint256",
          "name": "time",
          "type": "uint256"
        }
      ],
      "name": "Redemption",
      "type": "event"
    },
    {
      "anonymous": false,
      "inputs": [
        {
          "indexed": false,
          "internalType": "uint256",
          "name": "supplyCeiling",
          "type": "uint256"
        }
      ],
      "name": "SupplyCeilingSet",
      "type": "event"
    },
    {
      "anonymous": false,
      "inputs": [
        {
          "indexed": true,
          "internalType": "address",
          "name": "account",
          "type": "address"
        },
        {
          "indexed": false,
          "internalType": "bool",
          "name": "isRestricted",
          "type": "bool"
        }
      ],
      "name": "ToggledRestricted",
      "type": "event"
    },
    {
      "anonymous": false,
      "inputs": [
        {
          "indexed": false,
          "internalType": "address",
          "name": "account",
          "type": "address"
        }
      ],
      "name": "Unpaused",
      "type": "event"
    },
    {
      "inputs": [
        {
          "internalType": "string",
          "name": "a",
          "type": "string"
        },
        {
          "internalType": "string",
          "name": "b",
          "type": "string"
        }
      ],
      "name": "concatenation",
      "outputs": [
        {
          "internalType": "string",
          "name": "",
          "type": "string"
        }
      ],
      "stateMutability": "pure",
      "type": "function"
    },
    {
      "inputs": [
        {
          "internalType": "uint256",
          "name": "",
          "type": "uint256"
        }
      ],
      "name": "currentList",
      "outputs": [
        {
          "internalType": "address",
          "name": "",
          "type": "address"
        }
      ],
      "stateMutability": "view",
      "type": "function"
    },
    {
      "inputs": [
        {
          "internalType": "address",
          "name": "tokenIn",
          "type": "address"
        },
        {
          "internalType": "address",
          "name": "tokenOut",
          "type": "address"
        },
        {
          "internalType": "uint128",
          "name": "amountIn",
          "type": "uint128"
        },
        {
          "internalType": "uint32",
          "name": "secondsAgo",
          "type": "uint32"
        }
      ],
      "name": "estimateAmountOut",
      "outputs": [
        {
          "internalType": "uint256",
          "name": "amountOut",
          "type": "uint256"
        }
      ],
      "stateMutability": "view",
      "type": "function"
    },
    {
      "inputs": [],
      "name": "externalJobId",
      "outputs": [
        {
          "internalType": "bytes32",
          "name": "",
          "type": "bytes32"
        }
      ],
      "stateMutability": "view",
      "type": "function"
    },
    {
      "inputs": [],
      "name": "factoryV2",
      "outputs": [
        {
          "internalType": "contract IUniswapV2Factory",
          "name": "",
          "type": "address"
        }
      ],
      "stateMutability": "view",
      "type": "function"
    },
    {
      "inputs": [],
      "name": "factoryV3",
      "outputs": [
        {
          "internalType": "contract IUniswapV3Factory",
          "name": "",
          "type": "address"
        }
      ],
      "stateMutability": "view",
      "type": "function"
    },
    {
      "inputs": [],
      "name": "fee",
      "outputs": [
        {
          "internalType": "uint256",
          "name": "",
          "type": "uint256"
        }
      ],
      "stateMutability": "view",
      "type": "function"
    },
    {
      "inputs": [],
      "name": "feeRate",
      "outputs": [
        {
          "internalType": "uint8",
          "name": "",
          "type": "uint8"
        }
      ],
      "stateMutability": "view",
      "type": "function"
    },
    {
      "inputs": [],
      "name": "feeRatePerDayScaled",
      "outputs": [
        {
          "internalType": "uint256",
          "name": "",
          "type": "uint256"
        }
      ],
      "stateMutability": "view",
      "type": "function"
    },
    {
      "inputs": [],
      "name": "feeReceiver",
      "outputs": [
        {
          "internalType": "address",
          "name": "",
          "type": "address"
        }
      ],
      "stateMutability": "view",
      "type": "function"
    },
    {
      "inputs": [],
      "name": "feeTimestamp",
      "outputs": [
        {
          "internalType": "uint256",
          "name": "",
          "type": "uint256"
        }
      ],
      "stateMutability": "view",
      "type": "function"
    },
    {
      "inputs": [
        {
          "internalType": "bytes32",
          "name": "requestId",
          "type": "bytes32"
        },
        {
          "internalType": "address[]",
          "name": "_tokens",
          "type": "address[]"
        },
        {
          "internalType": "uint256[]",
          "name": "_marketShares",
          "type": "uint256[]"
        },
        {
          "internalType": "uint256[]",
          "name": "_swapVersions",
          "type": "uint256[]"
        }
      ],
      "name": "fulfillAssetsData",
      "outputs": [],
      "stateMutability": "nonpayable",
      "type": "function"
    },
    {
      "inputs": [
        {
          "internalType": "address",
          "name": "tokenIn",
          "type": "address"
        },
        {
          "internalType": "address",
          "name": "tokenOut",
          "type": "address"
        },
        {
          "internalType": "uint256",
          "name": "amountIn",
          "type": "uint256"
        },
        {
          "internalType": "uint256",
          "name": "_swapVersion",
          "type": "uint256"
        }
      ],
      "name": "getAmountOut",
      "outputs": [
        {
          "internalType": "uint256",
          "name": "finalAmountOut",
          "type": "uint256"
        }
      ],
      "stateMutability": "view",
      "type": "function"
    },
    {
      "inputs": [
        {
          "internalType": "address",
          "name": "tokenIn",
          "type": "address"
        },
        {
          "internalType": "address",
          "name": "tokenOut",
          "type": "address"
        },
        {
          "internalType": "uint256",
          "name": "amountIn",
          "type": "uint256"
        },
        {
          "internalType": "uint256",
          "name": "_swapVersion",
          "type": "uint256"
        }
      ],
      "name": "getExactAmountOut",
      "outputs": [
        {
          "internalType": "uint256",
          "name": "finalAmountOut",
          "type": "uint256"
        }
      ],
      "stateMutability": "nonpayable",
      "type": "function"
    },
    {
      "inputs": [
        {
          "internalType": "address",
          "name": "tokenIn",
          "type": "address"
        },
        {
          "internalType": "address",
          "name": "tokenOut",
          "type": "address"
        },
        {
          "internalType": "uint256",
          "name": "amountIn",
          "type": "uint256"
        }
      ],
      "name": "getExactAmountOut2",
      "outputs": [
        {
          "internalType": "uint256",
          "name": "finalAmountOut",
          "type": "uint256"
        }
      ],
      "stateMutability": "nonpayable",
      "type": "function"
    },
    {
      "inputs": [
        {
          "internalType": "uint256",
          "name": "_amountIn",
          "type": "uint256"
        },
        {
          "internalType": "address",
          "name": "_tokenIn",
          "type": "address"
        },
        {
          "internalType": "uint256",
          "name": "_swapVersion",
          "type": "uint256"
        }
      ],
      "name": "getIssuanceAmountOut",
      "outputs": [
        {
          "internalType": "uint256",
          "name": "",
          "type": "uint256"
        }
      ],
      "stateMutability": "view",
      "type": "function"
    },
    {
      "inputs": [
        {
          "internalType": "uint256",
          "name": "_amountIn",
          "type": "uint256"
        },
        {
          "internalType": "address",
          "name": "_tokenIn",
          "type": "address"
        },
        {
          "internalType": "uint256",
          "name": "_swapVersion",
          "type": "uint256"
        }
      ],
      "name": "getIssuanceAmountOut2",
      "outputs": [
        {
          "internalType": "uint256",
          "name": "",
          "type": "uint256"
        }
      ],
      "stateMutability": "nonpayable",
      "type": "function"
    },
    {
      "inputs": [],
      "name": "getPortfolioBalance",
      "outputs": [
        {
          "internalType": "uint256",
          "name": "",
          "type": "uint256"
        }
      ],
      "stateMutability": "view",
      "type": "function"
    },
    {
      "inputs": [
        {
          "internalType": "uint256",
          "name": "_amountIn",
          "type": "uint256"
        },
        {
          "internalType": "address",
          "name": "_tokenOut",
          "type": "address"
        },
        {
          "internalType": "uint256",
          "name": "_swapVersion",
          "type": "uint256"
        }
      ],
      "name": "getRedemptionAmountOut",
      "outputs": [
        {
          "internalType": "uint256",
          "name": "",
          "type": "uint256"
        }
      ],
      "stateMutability": "view",
      "type": "function"
    },
    {
      "inputs": [
        {
          "internalType": "uint256",
          "name": "_amountIn",
          "type": "uint256"
        },
        {
          "internalType": "address",
          "name": "_tokenOut",
          "type": "address"
        },
        {
          "internalType": "uint256",
          "name": "_swapVersion",
          "type": "uint256"
        }
      ],
      "name": "getRedemptionAmountOut2",
      "outputs": [
        {
          "internalType": "uint256",
          "name": "",
          "type": "uint256"
        }
      ],
      "stateMutability": "nonpayable",
      "type": "function"
    },
    {
      "inputs": [],
      "name": "indexToken",
      "outputs": [
        {
          "internalType": "contract IndexToken",
          "name": "",
          "type": "address"
        }
      ],
      "stateMutability": "view",
      "type": "function"
    },
    {
      "inputs": [
        {
          "internalType": "address payable",
          "name": "_token",
          "type": "address"
        },
        {
          "internalType": "address",
          "name": "_chainlinkToken",
          "type": "address"
        },
        {
          "internalType": "address",
          "name": "_oracleAddress",
          "type": "address"
        },
        {
          "internalType": "bytes32",
          "name": "_externalJobId",
          "type": "bytes32"
        },
        {
          "internalType": "address",
          "name": "_toUsdPriceFeed",
          "type": "address"
        },
        {
          "internalType": "address",
          "name": "_weth",
          "type": "address"
        },
        {
          "internalType": "address",
          "name": "_quoter",
          "type": "address"
        },
        {
          "internalType": "address",
          "name": "_swapRouterV3",
          "type": "address"
        },
        {
          "internalType": "address",
          "name": "_factoryV3",
          "type": "address"
        },
        {
          "internalType": "address",
          "name": "_swapRouterV2",
          "type": "address"
        },
        {
          "internalType": "address",
          "name": "_factoryV2",
          "type": "address"
        }
      ],
      "name": "initialize",
      "outputs": [],
      "stateMutability": "nonpayable",
      "type": "function"
    },
    {
      "inputs": [
        {
          "internalType": "address",
          "name": "",
          "type": "address"
        }
      ],
      "name": "isRestricted",
      "outputs": [
        {
          "internalType": "bool",
          "name": "",
          "type": "bool"
        }
      ],
      "stateMutability": "view",
      "type": "function"
    },
    {
      "inputs": [
        {
          "internalType": "address",
          "name": "_tokenIn",
          "type": "address"
        },
        {
          "internalType": "uint256",
          "name": "_amountIn",
          "type": "uint256"
        },
        {
          "internalType": "uint256",
          "name": "_tokenInSwapVersion",
          "type": "uint256"
        }
      ],
      "name": "issuanceIndexTokens",
      "outputs": [],
      "stateMutability": "nonpayable",
      "type": "function"
    },
    {
      "inputs": [
        {
          "internalType": "uint256",
          "name": "_inputAmount",
          "type": "uint256"
        }
      ],
      "name": "issuanceIndexTokensWithEth",
      "outputs": [],
      "stateMutability": "payable",
      "type": "function"
    },
    {
      "inputs": [],
      "name": "lastUpdateTime",
      "outputs": [
        {
          "internalType": "uint256",
          "name": "",
          "type": "uint256"
        }
      ],
      "stateMutability": "view",
      "type": "function"
    },
    {
      "inputs": [],
      "name": "latestFeeUpdate",
      "outputs": [
        {
          "internalType": "uint256",
          "name": "",
          "type": "uint256"
        }
      ],
      "stateMutability": "view",
      "type": "function"
    },
    {
      "inputs": [],
      "name": "methodologist",
      "outputs": [
        {
          "internalType": "address",
          "name": "",
          "type": "address"
        }
      ],
      "stateMutability": "view",
      "type": "function"
    },
    {
      "inputs": [],
      "name": "methodology",
      "outputs": [
        {
          "internalType": "string",
          "name": "",
          "type": "string"
        }
      ],
      "stateMutability": "view",
      "type": "function"
    },
    {
      "inputs": [],
      "name": "minter",
      "outputs": [
        {
          "internalType": "address",
          "name": "",
          "type": "address"
        }
      ],
      "stateMutability": "view",
      "type": "function"
    },
    {
      "inputs": [
        {
          "internalType": "address[]",
          "name": "_tokens",
          "type": "address[]"
        },
        {
          "internalType": "uint256[]",
          "name": "_marketShares",
          "type": "uint256[]"
        },
        {
          "internalType": "uint256[]",
          "name": "_swapVersions",
          "type": "uint256[]"
        }
      ],
      "name": "mockFillAssetsList",
      "outputs": [],
      "stateMutability": "nonpayable",
      "type": "function"
    },
    {
      "inputs": [
        {
          "internalType": "uint256",
          "name": "",
          "type": "uint256"
        }
      ],
      "name": "oracleList",
      "outputs": [
        {
          "internalType": "address",
          "name": "",
          "type": "address"
        }
      ],
      "stateMutability": "view",
      "type": "function"
    },
    {
      "inputs": [],
      "name": "oraclePayment",
      "outputs": [
        {
          "internalType": "uint256",
          "name": "",
          "type": "uint256"
        }
      ],
      "stateMutability": "view",
      "type": "function"
    },
    {
      "inputs": [],
      "name": "owner",
      "outputs": [
        {
          "internalType": "address",
          "name": "",
          "type": "address"
        }
      ],
      "stateMutability": "view",
      "type": "function"
    },
    {
      "inputs": [],
      "name": "pause",
      "outputs": [],
      "stateMutability": "nonpayable",
      "type": "function"
    },
    {
      "inputs": [],
      "name": "paused",
      "outputs": [
        {
          "internalType": "bool",
          "name": "",
          "type": "bool"
        }
      ],
      "stateMutability": "view",
      "type": "function"
    },
    {
      "inputs": [],
      "name": "priceInWei",
      "outputs": [
        {
          "internalType": "uint256",
          "name": "",
          "type": "uint256"
        }
      ],
      "stateMutability": "view",
      "type": "function"
    },
    {
      "inputs": [
        {
          "internalType": "address",
          "name": "_proposedOwner",
          "type": "address"
        }
      ],
      "name": "proposeOwner",
      "outputs": [],
      "stateMutability": "nonpayable",
      "type": "function"
    },
    {
      "inputs": [],
      "name": "proposedOwner",
      "outputs": [
        {
          "internalType": "address",
          "name": "",
          "type": "address"
        }
      ],
      "stateMutability": "view",
      "type": "function"
    },
    {
      "inputs": [],
      "name": "quoter",
      "outputs": [
        {
          "internalType": "contract IQuoter",
          "name": "",
          "type": "address"
        }
      ],
      "stateMutability": "view",
      "type": "function"
    },
    {
      "inputs": [],
      "name": "reIndexAndReweight",
      "outputs": [],
      "stateMutability": "nonpayable",
      "type": "function"
    },
    {
      "inputs": [
        {
          "internalType": "uint256",
          "name": "amountIn",
          "type": "uint256"
        },
        {
          "internalType": "address",
          "name": "_tokenOut",
          "type": "address"
        },
        {
          "internalType": "uint256",
          "name": "_tokenOutSwapVersion",
          "type": "uint256"
        }
      ],
      "name": "redemption",
      "outputs": [
        {
          "internalType": "uint256",
          "name": "",
          "type": "uint256"
        }
      ],
      "stateMutability": "nonpayable",
      "type": "function"
    },
    {
      "inputs": [],
      "name": "renounceOwnership",
      "outputs": [],
      "stateMutability": "nonpayable",
      "type": "function"
    },
    {
      "inputs": [],
      "name": "requestAssetsData",
      "outputs": [
        {
          "internalType": "bytes32",
          "name": "",
          "type": "bytes32"
        }
      ],
      "stateMutability": "nonpayable",
      "type": "function"
    },
    {
      "inputs": [
        {
          "internalType": "uint8",
          "name": "_newFee",
          "type": "uint8"
        }
      ],
      "name": "setFeeRate",
      "outputs": [],
      "stateMutability": "nonpayable",
      "type": "function"
    },
    {
      "inputs": [
        {
          "internalType": "address",
          "name": "_toUsdPricefeed",
          "type": "address"
        }
      ],
      "name": "setPriceFeed",
      "outputs": [],
      "stateMutability": "nonpayable",
      "type": "function"
    },
    {
      "inputs": [
        {
          "internalType": "string",
          "name": "_beforeAddress",
          "type": "string"
        },
        {
          "internalType": "string",
          "name": "_afterAddress",
          "type": "string"
        }
      ],
      "name": "setUrl",
      "outputs": [],
      "stateMutability": "nonpayable",
      "type": "function"
    },
    {
      "inputs": [],
      "name": "supplyCeiling",
      "outputs": [
        {
          "internalType": "uint256",
          "name": "",
          "type": "uint256"
        }
      ],
      "stateMutability": "view",
      "type": "function"
    },
    {
      "inputs": [],
      "name": "swapRouterV2",
      "outputs": [
        {
          "internalType": "contract IUniswapV2Router02",
          "name": "",
          "type": "address"
        }
      ],
      "stateMutability": "view",
      "type": "function"
    },
    {
      "inputs": [],
      "name": "swapRouterV3",
      "outputs": [
        {
          "internalType": "contract ISwapRouter",
          "name": "",
          "type": "address"
        }
      ],
      "stateMutability": "view",
      "type": "function"
    },
    {
      "inputs": [],
      "name": "toUsdPriceFeed",
      "outputs": [
        {
          "internalType": "contract AggregatorV3Interface",
          "name": "",
          "type": "address"
        }
      ],
      "stateMutability": "view",
      "type": "function"
    },
    {
      "inputs": [
        {
          "internalType": "address",
          "name": "",
          "type": "address"
        }
      ],
      "name": "tokenCurrentListIndex",
      "outputs": [
        {
          "internalType": "uint256",
          "name": "",
          "type": "uint256"
        }
      ],
      "stateMutability": "view",
      "type": "function"
    },
    {
      "inputs": [
        {
          "internalType": "address",
          "name": "",
          "type": "address"
        }
      ],
      "name": "tokenCurrentMarketShare",
      "outputs": [
        {
          "internalType": "uint256",
          "name": "",
          "type": "uint256"
        }
      ],
      "stateMutability": "view",
      "type": "function"
    },
    {
      "inputs": [
        {
          "internalType": "address",
          "name": "",
          "type": "address"
        }
      ],
      "name": "tokenOracleListIndex",
      "outputs": [
        {
          "internalType": "uint256",
          "name": "",
          "type": "uint256"
        }
      ],
      "stateMutability": "view",
      "type": "function"
    },
    {
      "inputs": [
        {
          "internalType": "address",
          "name": "",
          "type": "address"
        }
      ],
      "name": "tokenOracleMarketShare",
      "outputs": [
        {
          "internalType": "uint256",
          "name": "",
          "type": "uint256"
        }
      ],
      "stateMutability": "view",
      "type": "function"
    },
    {
      "inputs": [
        {
          "internalType": "address",
          "name": "",
          "type": "address"
        }
      ],
      "name": "tokenSwapVersion",
      "outputs": [
        {
          "internalType": "uint256",
          "name": "",
          "type": "uint256"
        }
      ],
      "stateMutability": "view",
      "type": "function"
    },
    {
      "inputs": [],
      "name": "totalCurrentList",
      "outputs": [
        {
          "internalType": "uint256",
          "name": "",
          "type": "uint256"
        }
      ],
      "stateMutability": "view",
      "type": "function"
    },
    {
      "inputs": [],
      "name": "totalOracleList",
      "outputs": [
        {
          "internalType": "uint256",
          "name": "",
          "type": "uint256"
        }
      ],
      "stateMutability": "view",
      "type": "function"
    },
    {
      "inputs": [
        {
          "internalType": "address",
          "name": "newOwner",
          "type": "address"
        }
      ],
      "name": "transferOwnership",
      "outputs": [],
      "stateMutability": "nonpayable",
      "type": "function"
    },
    {
      "inputs": [],
      "name": "unpause",
      "outputs": [],
      "stateMutability": "nonpayable",
      "type": "function"
    },
    {
      "inputs": [],
      "name": "weth",
      "outputs": [
        {
          "internalType": "contract IWETH",
          "name": "",
          "type": "address"
        }
      ],
      "stateMutability": "view",
      "type": "function"
    },
    {
      "stateMutability": "payable",
      "type": "receive"
    }
  ],
  "bytecode": {
    "object": "0x608060405234801561001057600080fd5b50615aa880620000216000396000f3fe6080604052600436106103a65760003560e01c8063744fbc7a116101e7578063b3951b671161010d578063c8b76e70116100a0578063ddca3f431161006f578063ddca3f4314610ad8578063e267078a14610aee578063e7d015f214610b0e578063f2fde38b14610b2e57600080fd5b8063c8b76e7014610a55578063c8f33c9114610a75578063d153b60c14610a8b578063d90bc21114610aab57600080fd5b8063bf938db8116100dc578063bf938db8146109cf578063c01bc982146109ef578063c6bbd5a714610a1f578063c8599ded14610a3f57600080fd5b8063b3951b671461094f578063b3f006741461096f578063b5ed298a1461098f578063b631e80b146109af57600080fd5b80639932ba4c11610185578063a73e1cbf11610154578063a73e1cbf146108e4578063a8509fd814610904578063a8b54bd414610919578063abdd5f3f1461092f57600080fd5b80639932ba4c146108645780639eeb1d501461089a5780639f8e67bf146108af578063a2ab905d146108cf57600080fd5b80638c88c10c116101c15780638c88c10c146107c05780638da5cb5b146107ed578063914f0cc61461080b578063978bbdb91461083857600080fd5b8063744fbc7a146107765780637ca58c55146107965780638456cb59146107ab57600080fd5b806336aab86c116102cc5780635177942a1161026a578063686f917511610239578063686f91751461070157806368e0d4e114610721578063715018a614610741578063724e78da1461075657600080fd5b80635177942a1461068757806353fd4332146106a75780635c975abb146106bd57806363973fda146106e157600080fd5b80633f4ba83a116102a65780633f4ba83a146106055780633fc8cef31461061a578063465a4c941461063a5780634b3e0b801461065a57600080fd5b806336aab86c146105bb578063372d4c55146105dd5780633c8da588146105f057600080fd5b8063156a5da111610344578063239aad0d11610313578063239aad0d146105395780632b52684d1461056f5780632b9522e0146105855780632fecd589146105a557600080fd5b8063156a5da1146104c3578063184a732f146104e35780631d5f45f5146104f95780631ff015631461051957600080fd5b80630be52713116103805780630be52713146104335780630c02e130146104605780630e3293571461047657806313cb1f83146104a357600080fd5b8063011ced5f146103b257806302e04015146103db57806307546172146103fb57600080fd5b366103ad57005b600080fd5b3480156103be57600080fd5b506103c860d35481565b6040519081526020015b60405180910390f35b3480156103e757600080fd5b506103c86103f636600461539b565b610b4e565b34801561040757600080fd5b5060d85461041b906001600160a01b031681565b6040516001600160a01b0390911681526020016103d2565b34801561043f57600080fd5b506103c861044e366004614e6a565b60e86020526000908152604090205481565b34801561046c57600080fd5b506103c860df5481565b34801561048257600080fd5b50610496610491366004615272565b610c75565b6040516103d2919061556f565b3480156104af57600080fd5b506103c86104be36600461502d565b610ca2565b3480156104cf57600080fd5b506103c86104de36600461502d565b610df6565b3480156104ef57600080fd5b506103c860d55481565b34801561050557600080fd5b5060ec5461041b906001600160a01b031681565b34801561052557600080fd5b506103c861053436600461539b565b610fdb565b34801561054557600080fd5b5061041b610554366004615369565b60e4602052600090815260409020546001600160a01b031681565b34801561057b57600080fd5b506103c860da5481565b34801561059157600080fd5b506103c86105a036600461539b565b61119d565b3480156105b157600080fd5b506103c860d45481565b3480156105c757600080fd5b506105db6105d63660046151e1565b611766565b005b6105db6105eb366004615369565b611aac565b3480156105fc57600080fd5b506103c8611f76565b34801561061157600080fd5b506105db61209b565b34801561062657600080fd5b5060ef5461041b906001600160a01b031681565b34801561064657600080fd5b506105db610655366004614ea4565b6120ad565b34801561066657600080fd5b506103c8610675366004614e6a565b60e96020526000908152604090205481565b34801561069357600080fd5b506105db6106a23660046153c2565b612333565b3480156106b357600080fd5b506103c860e35481565b3480156106c957600080fd5b50609e5460ff165b60405190151581526020016103d2565b3480156106ed57600080fd5b5060e05461041b906001600160a01b031681565b34801561070d57600080fd5b506103c861071c366004614fec565b612473565b34801561072d57600080fd5b5060ee5461041b906001600160a01b031681565b34801561074d57600080fd5b506105db61264b565b34801561076257600080fd5b506105db610771366004614e6a565b61265d565b34801561078257600080fd5b5060ed5461041b906001600160a01b031681565b3480156107a257600080fd5b506103c86126f4565b3480156107b757600080fd5b506105db61298f565b3480156107cc57600080fd5b506103c86107db366004614e6a565b60e66020526000908152604090205481565b3480156107f957600080fd5b506039546001600160a01b031661041b565b34801561081757600080fd5b506103c8610826366004614e6a565b60e76020526000908152604090205481565b34801561084457600080fd5b5060d2546108529060ff1681565b60405160ff90911681526020016103d2565b34801561087057600080fd5b5061041b61087f366004615369565b60e5602052600090815260409020546001600160a01b031681565b3480156108a657600080fd5b5061049661299f565b3480156108bb57600080fd5b5060d75461041b906001600160a01b031681565b3480156108db57600080fd5b506105db612a2d565b3480156108f057600080fd5b506105db6108ff366004615272565b612c86565b34801561091057600080fd5b506103c8612cba565b34801561092557600080fd5b506103c860de5481565b34801561093b57600080fd5b506105db61094a366004615073565b612db5565b34801561095b57600080fd5b506103c861096a36600461539b565b6131d1565b34801561097b57600080fd5b5060d65461041b906001600160a01b031681565b34801561099b57600080fd5b506105db6109aa366004614e6a565b6133c0565b3480156109bb57600080fd5b5060eb5461041b906001600160a01b031681565b3480156109db57600080fd5b506103c86109ea366004614f7b565b613410565b3480156109fb57600080fd5b506106d1610a0a366004614e6a565b60db6020526000908152604090205460ff1681565b348015610a2b57600080fd5b5060f05461041b906001600160a01b031681565b348015610a4b57600080fd5b506103c860e25481565b348015610a6157600080fd5b506103c8610a7036600461539b565b6134c7565b348015610a8157600080fd5b506103c860e15481565b348015610a9757600080fd5b50606b5461041b906001600160a01b031681565b348015610ab757600080fd5b506103c8610ac6366004614e6a565b60ea6020526000908152604090205481565b348015610ae457600080fd5b506103c860d15481565b348015610afa57600080fd5b506105db610b093660046150a8565b6135cd565b348015610b1a57600080fd5b5060d05461041b906001600160a01b031681565b348015610b3a57600080fd5b506105db610b49366004614e6a565b61385d565b600080610b59612cba565b9050600060d060009054906101000a90046001600160a01b03166001600160a01b03166318160ddd6040518163ffffffff1660e01b815260040160206040518083038186803b158015610bab57600080fd5b505afa158015610bbf573d6000803e3d6000fd5b505050506040513d601f19601f82011682018060405250810190610be39190615382565b610bf587670de0b6b3a76400006158b5565b610bff9190615721565b90506000670de0b6b3a7640000610c1684846158b5565b610c209190615721565b60ef549091506001600160a01b0387811691161415610c43579250610c6e915050565b60ef54600090610c5e906001600160a01b0316888489610ca2565b9450610c6e9350505050565b5050505b9392505050565b60608282604051602001610c8a9291906154b1565b60405160208183030381529060405290505b92915050565b6000808315610deb578260031415610cc857610cc18686866001613410565b9050610deb565b6040805160028082526060820183526000926020830190803683370190505090508681600081518110610cfd57610cfd6159ca565b60200260200101906001600160a01b031690816001600160a01b0316815250508581600181518110610d3157610d316159ca565b6001600160a01b03928316602091820292909201015260ed5460405163d06ca61f60e01b8152600092919091169063d06ca61f90610d759089908690600401615661565b60006040518083038186803b158015610d8d57600080fd5b505afa158015610da1573d6000803e3d6000fd5b505050506040513d6000823e601f3d908101601f19168201604052610dc9919081019061512f565b905080600181518110610dde57610dde6159ca565b6020026020010151925050505b90505b949350505050565b60008160031415610ead5760f05460405163f7729d4360e01b81526001600160a01b0387811660048301528681166024830152610bb860448301526064820186905260006084830181905292169063f7729d439060a401602060405180830381600087803b158015610e6757600080fd5b505af1925050508015610e97575060408051601f3d908101601f19168201909252610e9491810190615382565b60015b610ea357506000610ea6565b90505b9050610dee565b6040805160028082526060820183526000926020830190803683370190505090508581600081518110610ee257610ee26159ca565b60200260200101906001600160a01b031690816001600160a01b0316815250508481600181518110610f1657610f166159ca565b6001600160a01b03928316602091820292909201015260ed5460405163d06ca61f60e01b8152600092919091169063d06ca61f90610f5a9088908690600401615661565b60006040518083038186803b158015610f7257600080fd5b505afa925050508015610fa757506040513d6000823e601f3d908101601f19168201604052610fa4919081019061512f565b60015b610fb357506000610fd2565b80600181518110610fc657610fc66159ca565b60200260200101519150505b9150610dee9050565b60008060d060009054906101000a90046001600160a01b03166001600160a01b03166318160ddd6040518163ffffffff1660e01b815260040160206040518083038186803b15801561102c57600080fd5b505afa158015611040573d6000803e3d6000fd5b505050506040513d601f19601f820116820180604052508101906110649190615382565b61107686670de0b6b3a76400006158b5565b6110809190615721565b90506000805b60e354811015610c6a57600081815260e560205260408082205460d05491516370a0823160e01b81526001600160a01b039283166004820152670de0b6b3a764000092909116906370a082319060240160206040518083038186803b1580156110ee57600080fd5b505afa158015611102573d6000803e3d6000fd5b505050506040513d601f19601f820116820180604052508101906111269190615382565b61113090866158b5565b61113a9190615721565b600083815260e5602090815260408083205460ef546001600160a01b0391821680865260ea90945291842054949550929361117a93909116908590610df6565b90506111868185615709565b9350505080806111959061596f565b915050611086565b60008060d060009054906101000a90046001600160a01b03166001600160a01b03166318160ddd6040518163ffffffff1660e01b815260040160206040518083038186803b1580156111ee57600080fd5b505afa158015611202573d6000803e3d6000fd5b505050506040513d601f19601f820116820180604052508101906112269190615382565b61123886670de0b6b3a76400006158b5565b6112429190615721565b60d054604051632770a7eb60e21b8152336004820152602481018890529192506001600160a01b031690639dc29fac90604401600060405180830381600087803b15801561128f57600080fd5b505af11580156112a3573d6000803e3d6000fd5b5060009250829150505b60e3548110156113c657600081815260e560205260408082205460d05491516370a0823160e01b81526001600160a01b039283166004820152670de0b6b3a764000092909116906370a082319060240160206040518083038186803b15801561131557600080fd5b505afa158015611329573d6000803e3d6000fd5b505050506040513d601f19601f8201168201806040525081019061134d9190615382565b61135790866158b5565b6113619190615721565b600083815260e5602090815260408083205460ef546001600160a01b0391821680865260ea9094529184205494955092936113a3939091169085903090613985565b90506113af8185615709565b9350505080806113be9061596f565b9150506112ad565b5060d254600090612710906113de9060ff16846158b5565b6113e89190615721565b60ef549091506001600160a01b03878116911614156116035760ef54604051632e1a7d4d60e01b8152600481018490526001600160a01b0390911690632e1a7d4d90602401600060405180830381600087803b15801561144757600080fd5b505af115801561145b573d6000803e3d6000fd5b5050505060006114736039546001600160a01b031690565b6001600160a01b03168260405160006040518083038185875af1925050503d80600081146114bd576040519150601f19603f3d011682016040523d82523d6000602084013e6114c2565b606091505b50509050806114ec5760405162461bcd60e51b81526004016114e390615582565b60405180910390fd5b6000336114f984866158d4565b604051600081818185875af1925050503d8060008114611535576040519150601f19603f3d011682016040523d82523d6000602084013e61153a565b606091505b50509050806115975760405162461bcd60e51b815260206004820152602360248201527f7472616e73666572206574682066656520746f207468652075736572206661696044820152621b195960ea1b60648201526084016114e3565b6001600160a01b038816337f4f808f68134f8b72b842a276c2b37b03415d4992c65a94fcee50d33201915b998b6115ce87896158d4565b604080519283526020830191909152429082015260600160405180910390a36115f783856158d4565b95505050505050610c6e565b60ef54604051632e1a7d4d60e01b8152600481018390526001600160a01b0390911690632e1a7d4d90602401600060405180830381600087803b15801561164957600080fd5b505af115801561165d573d6000803e3d6000fd5b5050505060006116756039546001600160a01b031690565b6001600160a01b03168260405160006040518083038185875af1925050503d80600081146116bf576040519150601f19603f3d011682016040523d82523d6000602084013e6116c4565b606091505b50509050806116e55760405162461bcd60e51b81526004016114e390615582565b60ef5460009061170a906001600160a01b03168961170386886158d4565b338b613a5d565b604080518b815260208101839052428183015290519192506001600160a01b038a169133917f4f808f68134f8b72b842a276c2b37b03415d4992c65a94fcee50d33201915b99919081900360600190a39450610c6e9350505050565b60008481526005602052604090205484906001600160a01b031633146117df5760405162461bcd60e51b815260206004820152602860248201527f536f75726365206d75737420626520746865206f7261636c65206f6620746865604482015267081c995c5d595cdd60c21b60648201526084016114e3565b60008181526005602052604080822080546001600160a01b03191690555182917f7cc135e0cebb02c3480ae5d74d377283180a2601f8f644edf7987b009316c63a91a283838360005b8351811015611a8b57838181518110611843576118436159ca565b602002602001015160e4600083815260200190815260200160002060006101000a8154816001600160a01b0302191690836001600160a01b031602179055508060e66000868481518110611899576118996159ca565b60200260200101516001600160a01b03166001600160a01b03168152602001908152602001600020819055508281815181106118d7576118d76159ca565b602002602001015160e960008684815181106118f5576118f56159ca565b60200260200101516001600160a01b03166001600160a01b0316815260200190815260200160002081905550818181518110611933576119336159ca565b602002602001015160ea6000868481518110611951576119516159ca565b60200260200101516001600160a01b03166001600160a01b031681526020019081526020016000208190555060e35460001415611a795783818151811061199a5761199a6159ca565b602002602001015160e5600083815260200190815260200160002060006101000a8154816001600160a01b0302191690836001600160a01b031602179055508281815181106119eb576119eb6159ca565b602002602001015160e86000868481518110611a0957611a096159ca565b60200260200101516001600160a01b03166001600160a01b03168152602001908152602001600020819055508060e76000868481518110611a4c57611a4c6159ca565b60200260200101516001600160a01b03166001600160a01b03168152602001908152602001600020819055505b80611a838161596f565b915050611828565b50825160e25560e354611a9e57825160e3555b50504260e155505050505050565b60d25460009061271090611ac39060ff16846158b5565b611acd9190615721565b90506000611adb8284615709565b905080341015611b2d5760405162461bcd60e51b815260206004820152601a60248201527f6c6f776572207468616e20726571756972656420616d6f756e7400000000000060448201526064016114e3565b6000611b416039546001600160a01b031690565b6001600160a01b031660d15460405160006040518083038185875af1925050503d8060008114611b8d576040519150601f19603f3d011682016040523d82523d6000602084013e611b92565b606091505b5050905080611bb35760405162461bcd60e51b81526004016114e390615582565b60ef60009054906101000a90046001600160a01b03166001600160a01b031663d0e30db0856040518263ffffffff1660e01b81526004016000604051808303818588803b158015611c0357600080fd5b505af1158015611c17573d6000803e3d6000fd5b505060ef5460d05460405163a9059cbb60e01b81526001600160a01b039182166004820152602481018a90529116935063a9059cbb92506044019050602060405180830381600087803b158015611c6d57600080fd5b505af1158015611c81573d6000803e3d6000fd5b505050506040513d601f19601f82011682018060405250810190611ca591906151c6565b506000611cb0612cba565b90508460005b60e354811015611d595760ef54600082815260e560209081526040808320546001600160a01b0390811680855260e8909352922054611d4693929092169168056bc75e2d6310000090611d0990876158b5565b611d139190615721565b60d054600086815260e560209081526040808320546001600160a01b03908116845260ea90925290912054911690613985565b5080611d518161596f565b915050611cb6565b5060008060d060009054906101000a90046001600160a01b03166001600160a01b03166318160ddd6040518163ffffffff1660e01b815260040160206040518083038186803b158015611dab57600080fd5b505afa158015611dbf573d6000803e3d6000fd5b505050506040513d601f19601f82011682018060405250810190611de39190615382565b1115611e8c57828260d060009054906101000a90046001600160a01b03166001600160a01b03166318160ddd6040518163ffffffff1660e01b815260040160206040518083038186803b158015611e3957600080fd5b505afa158015611e4d573d6000803e3d6000fd5b505050506040513d601f19601f82011682018060405250810190611e719190615382565b611e7b91906158b5565b611e859190615721565b9050611eb8565b6000611e96611f76565b9050662386f26fc10000611eaa82856158b5565b611eb49190615721565b9150505b60d0546040516340c10f1960e01b8152336004820152602481018390526001600160a01b03909116906340c10f1990604401600060405180830381600087803b158015611f0457600080fd5b505af1158015611f18573d6000803e3d6000fd5b505060ef54604080518b815260208101869052428183015290516001600160a01b0390921693503392507f4fee1c514ee0e252e3a0babfa8b5030fb89be7ea2b38df9a7fbbf788e54f3d91919081900360600190a350505050505050565b60008060e060009054906101000a90046001600160a01b03166001600160a01b031663feaf968c6040518163ffffffff1660e01b815260040160a06040518083038186803b158015611fc757600080fd5b505afa158015611fdb573d6000803e3d6000fd5b505050506040513d601f19601f82011682018060405250810190611fff91906153df565b505050915050600060e060009054906101000a90046001600160a01b03166001600160a01b031663313ce5676040518163ffffffff1660e01b815260040160206040518083038186803b15801561205557600080fd5b505afa158015612069573d6000803e3d6000fd5b505050506040513d601f19601f8201168201806040525081019061208d919061542f565b9050610c6e82826012613d75565b6120a3613db5565b6120ab613e0f565b565b600654610100900460ff16158080156120cd5750600654600160ff909116105b806120e75750303b1580156120e7575060065460ff166001145b61214a5760405162461bcd60e51b815260206004820152602e60248201527f496e697469616c697a61626c653a20636f6e747261637420697320616c72656160448201526d191e481a5b9a5d1a585b1a5e995960921b60648201526084016114e3565b6006805460ff19166001179055801561216d576006805461ff0019166101001790555b612175613e61565b61217d613e90565b60d080546001600160a01b038e166001600160a01b03199091161790556121c18b600280546001600160a01b039092166001600160a01b0319909216919091179055565b600380546001600160a01b0319166001600160a01b038c1617905560de899055600a6121f6670de0b6b3a764000060016158b5565b6122009190615721565b60df5560e080546001600160a01b03199081166001600160a01b038b81169190911790925560ef805482168a841617905560f08054821689841617905560eb8054821688841617905560ec8054821687841617905560ed8054821686841617905560ee805490911691841691909117905560d28054600a60ff199091161790554260d3556040805160608101909152602a808252615a1b602083013980516122b09160dc91602090910190614c00565b506040518060600160405280602e8152602001615a45602e913980516122de9160dd91602090910190614c00565b508015612325576006805461ff0019169055604051600181527f7f26b83ff96e1f2b6a682f133852f6798a09c465da95921460cefb38474024989060200160405180910390a15b505050505050505050505050565b61233b613db5565b600060d3544261234b91906158d4565b9050600c603c61235b8184615721565b6123659190615721565b116123d85760405162461bcd60e51b815260206004820152603960248201527f596f752073686f756c642077616974206174206c6561737420313220686f757260448201527f7320616674657220746865206c6174657374207570646174650000000000000060648201526084016114e3565b60648260ff16111580156123f0575060018260ff1610155b6124585760405162461bcd60e51b815260206004820152603360248201527f546865206e65774665652073686f756c64206265206265747765656e203120616044820152726e64203130302028302e303125202d2031252960681b60648201526084016114e3565b5060d2805460ff191660ff929092169190911790554260d355565b60f05460405163f7729d4360e01b81526001600160a01b0385811660048301528481166024830152610bb860448301526064820184905260006084830181905292839291169063f7729d439060a401602060405180830381600087803b1580156124dc57600080fd5b505af192505050801561250c575060408051601f3d908101601f1916820190925261250991810190615382565b60015b6125185750600061251b565b90505b6040805160028082526060820183526000926020830190803683370190505090508581600081518110612550576125506159ca565b60200260200101906001600160a01b031690816001600160a01b0316815250508481600181518110612584576125846159ca565b6001600160a01b03928316602091820292909201015260ed5460405163d06ca61f60e01b8152600092919091169063d06ca61f906125c89088908690600401615661565b60006040518083038186803b1580156125e057600080fd5b505afa92505050801561261557506040513d6000823e601f3d908101601f19168201604052612612919081019061512f565b60015b61262157506000612640565b80600181518110612634576126346159ca565b60200260200101519150505b509095945050505050565b612653613db5565b6120ab6000613ebf565b612665613db5565b6001600160a01b0381166126d25760405162461bcd60e51b815260206004820152602e60248201527f49434f3a205072696365206665656420616464726573732063616e6e6f74206260448201526d65207a65726f206164647265737360901b60648201526084016114e3565b60e080546001600160a01b0319166001600160a01b0392909216919091179055565b60008061281560dc80546127079061593a565b80601f01602080910402602001604051908101604052809291908181526020018280546127339061593a565b80156127805780601f1061275557610100808354040283529160200191612780565b820191906000526020600020905b81548152906001019060200180831161276357829003601f168201915b505050505060dd80546127929061593a565b80601f01602080910402602001604051908101604052809291908181526020018280546127be9061593a565b801561280b5780601f106127e05761010080835404028352916020019161280b565b820191906000526020600020905b8154815290600101906020018083116127ee57829003601f168201915b5050505050610c75565b9050600061282d60de54306336aab86c60e01b613f11565b60408051808201909152600381526219d95d60ea1b602082015290915061285690829084613f2d565b6128ae60405180604001604052806005815260200164706174683160d81b8152506040518060400160405280600e81526020016d726573756c74732c746f6b656e7360901b81525083613f2d9092919063ffffffff16565b61290c604051806040016040528060058152602001643830ba341960d91b81525060405180604001604052806014815260200173726573756c74732c6d61726b657453686172657360601b81525083613f2d9092919063ffffffff16565b61296a60405180604001604052806005815260200164706174683360d81b81525060405180604001604052806014815260200173726573756c74732c7377617056657273696f6e7360601b81525083613f2d9092919063ffffffff16565b61298861297f6003546001600160a01b031690565b8260df54613f4b565b9250505090565b612997613db5565b6120ab613fde565b60d980546129ac9061593a565b80601f01602080910402602001604051908101604052809291908181526020018280546129d89061593a565b8015612a255780601f106129fa57610100808354040283529160200191612a25565b820191906000526020600020905b815481529060010190602001808311612a0857829003601f168201915b505050505081565b612a35613db5565b60005b60e354811015612aef57600081815260e56020526040908190205460ef5460d05492516370a0823160e01b81526001600160a01b039384166004820152612adc93928316929091169082906370a082319060240160206040518083038186803b158015612aa457600080fd5b505afa158015612ab8573d6000803e3d6000fd5b505050506040513d601f19601f82011682018060405250810190611d139190615382565b5080612ae78161596f565b915050612a38565b5060ef5460d0546040516370a0823160e01b81526001600160a01b03918216600482015260009291909116906370a082319060240160206040518083038186803b158015612b3c57600080fd5b505afa158015612b50573d6000803e3d6000fd5b505050506040513d601f19601f82011682018060405250810190612b749190615382565b905060005b60e254811015612c7c5760ef54600082815260e460209081526040808320546001600160a01b0390811680855260e9909352922054612c0993929092169168056bc75e2d6310000090612bcc90876158b5565b612bd69190615721565b60d054600086815260e460209081526040808320546001600160a01b03908116845260ea90925290912054911690613985565b50600081815260e460209081526040808320805460e5845282852080546001600160a01b0319166001600160a01b0392831617905581548116855260e984528285205460e8855283862055905416835260e682528083205460e79092529091205580612c748161596f565b915050612b79565b505060e25460e355565b612c8e613db5565b8151612ca19060dc906020850190614c00565b508051612cb59060dd906020840190614c00565b505050565b60008060005b60e354811015612daf57600081815260e560205260408082205460ef5460d05492516370a0823160e01b81526001600160a01b039384166004820152612d8d93928316929091169082906370a082319060240160206040518083038186803b158015612d2b57600080fd5b505afa158015612d3f573d6000803e3d6000fd5b505050506040513d601f19601f82011682018060405250810190612d639190615382565b600086815260e560209081526040808320546001600160a01b0316835260ea909152902054610ca2565b9050612d998184615709565b9250508080612da79061596f565b915050612cc0565b50919050565b60d25460009061271090612dcc9060ff16856158b5565b612dd69190615721565b90506000612de48285615709565b90506000612df0612cba565b60d0546040516323b872dd60e01b81523360048201526001600160a01b039182166024820152604481018890529192508716906323b872dd90606401602060405180830381600087803b158015612e4657600080fd5b505af1158015612e5a573d6000803e3d6000fd5b505050506040513d601f19601f82011682018060405250810190612e7e91906151c6565b50856001600160a01b03166323b872dd33612ea16039546001600160a01b031690565b6040516001600160e01b031960e085901b1681526001600160a01b0392831660048201529116602482015260448101869052606401602060405180830381600087803b158015612ef057600080fd5b505af1158015612f04573d6000803e3d6000fd5b505050506040513d601f19601f82011682018060405250810190612f2891906151c6565b5060ef5460d054600091612f4d9189916001600160a01b03908116918a911689613985565b905060005b60e354811015612fb85760ef54600082815260e560209081526040808320546001600160a01b0390811680855260e8909352922054612fa593929092169168056bc75e2d6310000090611d0990876158b5565b5080612fb08161596f565b915050612f52565b5060008060d060009054906101000a90046001600160a01b03166001600160a01b03166318160ddd6040518163ffffffff1660e01b815260040160206040518083038186803b15801561300a57600080fd5b505afa15801561301e573d6000803e3d6000fd5b505050506040513d601f19601f820116820180604052508101906130429190615382565b11156130eb57828260d060009054906101000a90046001600160a01b03166001600160a01b03166318160ddd6040518163ffffffff1660e01b815260040160206040518083038186803b15801561309857600080fd5b505afa1580156130ac573d6000803e3d6000fd5b505050506040513d601f19601f820116820180604052508101906130d09190615382565b6130da91906158b5565b6130e49190615721565b9050613117565b60006130f5611f76565b9050662386f26fc1000061310982856158b5565b6131139190615721565b9150505b60d0546040516340c10f1960e01b8152336004820152602481018390526001600160a01b03909116906340c10f1990604401600060405180830381600087803b15801561316357600080fd5b505af1158015613177573d6000803e3d6000fd5b5050604080518a815260208101859052428183015290516001600160a01b038c1693503392507f4fee1c514ee0e252e3a0babfa8b5030fb89be7ea2b38df9a7fbbf788e54f3d919181900360600190a35050505050505050565b60ef546000906001600160a01b03848116911614156132b15760006131f4612cba565b9050600060d060009054906101000a90046001600160a01b03166001600160a01b03166318160ddd6040518163ffffffff1660e01b815260040160206040518083038186803b15801561324657600080fd5b505afa15801561325a573d6000803e3d6000fd5b505050506040513d601f19601f8201168201806040525081019061327e9190615382565b9050600081156132a4578261329388846158b5565b61329d9190615721565b90506132a7565b50855b9250610c6e915050565b60ef546000906132cd9085906001600160a01b03168786610ca2565b905060006132d9612cba565b9050600060d060009054906101000a90046001600160a01b03166001600160a01b03166318160ddd6040518163ffffffff1660e01b815260040160206040518083038186803b15801561332b57600080fd5b505afa15801561333f573d6000803e3d6000fd5b505050506040513d601f19601f820116820180604052508101906133639190615382565b905060008115613389578261337885846158b5565b6133829190615721565b90506133b5565b6000613393611f76565b9050662386f26fc100006133a782876158b5565b6133b19190615721565b9150505b9350610c6e92505050565b6133c8613db5565b6001600160a01b0381166133ee5760405162461bcd60e51b81526004016114e3906155c6565b606b80546001600160a01b0319166001600160a01b0392909216919091179055565b60ec54604051630b4c774160e11b81526001600160a01b0386811660048301528581166024830152610bb860448301526000928392911690631698ee829060640160206040518083038186803b15801561346957600080fd5b505afa15801561347d573d6000803e3d6000fd5b505050506040513d601f19601f820116820180604052508101906134a19190614e87565b905060006134ae8261401b565b90506134bc8186898961409d565b979650505050505050565b60ef546000906001600160a01b03848116911614156135b15760006134ea612cba565b9050600060d060009054906101000a90046001600160a01b03166001600160a01b03166318160ddd6040518163ffffffff1660e01b815260040160206040518083038186803b15801561353c57600080fd5b505afa158015613550573d6000803e3d6000fd5b505050506040513d601f19601f820116820180604052508101906135749190615382565b905060008115613589578261329388846158b5565b6000613593611f76565b9050662386f26fc100006135a7828a6158b5565b610c5e9190615721565b60ef546000906132cd9085906001600160a01b03168786610df6565b6135d5613db5565b82828260005b835181101561383e578381815181106135f6576135f66159ca565b602002602001015160e4600083815260200190815260200160002060006101000a8154816001600160a01b0302191690836001600160a01b031602179055508060e6600086848151811061364c5761364c6159ca565b60200260200101516001600160a01b03166001600160a01b031681526020019081526020016000208190555082818151811061368a5761368a6159ca565b602002602001015160e960008684815181106136a8576136a86159ca565b60200260200101516001600160a01b03166001600160a01b03168152602001908152602001600020819055508181815181106136e6576136e66159ca565b602002602001015160ea6000868481518110613704576137046159ca565b60200260200101516001600160a01b03166001600160a01b031681526020019081526020016000208190555060e3546000141561382c5783818151811061374d5761374d6159ca565b602002602001015160e5600083815260200190815260200160002060006101000a8154816001600160a01b0302191690836001600160a01b0316021790555082818151811061379e5761379e6159ca565b602002602001015160e860008684815181106137bc576137bc6159ca565b60200260200101516001600160a01b03166001600160a01b03168152602001908152602001600020819055508060e760008684815181106137ff576137ff6159ca565b60200260200101516001600160a01b03166001600160a01b03168152602001908152602001600020819055505b806138368161596f565b9150506135db565b50825160e25560e35461385157825160e3555b50504260e15550505050565b6001600160a01b0381166138835760405162461bcd60e51b81526004016114e3906155c6565b606b546001600160a01b038281169116146138fb5760405162461bcd60e51b815260206004820152603260248201527f50726f706f7361626c654f776e61626c653a206e6577206f776e6572206973206044820152713737ba10383937b837b9b2b21037bbb732b960711b60648201526084016114e3565b6001600160a01b03811633146139795760405162461bcd60e51b815260206004820152603a60248201527f50726f706f7361626c654f776e61626c653a20746869732063616c6c206d757360448201527f74206265206d61646520627920746865206e6577206f776e657200000000000060648201526084016114e3565b61398281613ebf565b50565b60008061399487878786610ca2565b905060008115613a3e5760d0546040516305f370ed60e41b81526001600160a01b038a8116600483015289811660248301526044820189905287811660648301526084820187905290911690635f370ed09060a401602060405180830381600087803b158015613a0357600080fd5b505af1158015613a17573d6000803e3d6000fd5b505050506040513d601f19601f82011682018060405250810190613a3b9190615382565b90505b8360031415613a50579150613a549050565b5090505b95945050505050565b60008160031415613c025760eb5460405163095ea7b360e01b81526001600160a01b039182166004820152602481018690529087169063095ea7b390604401602060405180830381600087803b158015613ab657600080fd5b505af1158015613aca573d6000803e3d6000fd5b505050506040513d601f19601f82011682018060405250810190613aee91906151c6565b5060408051610100810182526001600160a01b03888116825287811660208301908152610bb883850190815287831660608501908152426080860190815260a086018b8152600060c0880181815260e0890182815260eb549a5163414bf38960e01b81528a518a166004820152975189166024890152955162ffffff166044880152935187166064870152915160848601525160a4850152905160c48401529051831660e483015292939091169063414bf3899061010401602060405180830381600087803b158015613bc057600080fd5b505af1158015613bd4573d6000803e3d6000fd5b505050506040513d601f19601f82011682018060405250810190613bf89190615382565b9250613a54915050565b6040805160028082526060820183526000926020830190803683370190505090508681600081518110613c3757613c376159ca565b60200260200101906001600160a01b031690816001600160a01b0316815250508581600181518110613c6b57613c6b6159ca565b6001600160a01b03928316602091820292909201015260ed5460405163095ea7b360e01b81529082166004820152602481018790529088169063095ea7b390604401602060405180830381600087803b158015613cc757600080fd5b505af1158015613cdb573d6000803e3d6000fd5b505050506040513d601f19601f82011682018060405250810190613cff91906151c6565b5060ed54604051635c11d79560e01b81526001600160a01b0390911690635c11d79590613d3990889060009086908a90429060040161567a565b600060405180830381600087803b158015613d5357600080fd5b505af1158015613d67573d6000803e3d6000fd5b505050506000915050613a54565b60008260ff168260ff161115613dab57613d8f83836158eb565b613d9a90600a615784565b613da49085615830565b9050610c6e565b613d8f82846158eb565b6039546001600160a01b031633146120ab5760405162461bcd60e51b815260206004820181905260248201527f4f776e61626c653a2063616c6c6572206973206e6f7420746865206f776e657260448201526064016114e3565b613e176141a7565b609e805460ff191690557f5db9ee0a495bf2e6ff9c91a7834c1ba4fdd244a5e8aa4e537bd38aeae4b073aa335b6040516001600160a01b03909116815260200160405180910390a1565b600654610100900460ff16613e885760405162461bcd60e51b81526004016114e390615616565b6120ab6141f0565b600654610100900460ff16613eb75760405162461bcd60e51b81526004016114e390615616565b6120ab614220565b603980546001600160a01b038381166001600160a01b0319831681179093556040519116919082907f8be0079c531659141344cd1fd0a4f28419497f9722a3daafe3b4186f6b6457e090600090a35050565b613f19614c84565b613f21614c84565b613a5481868686614253565b6080830151613f3c9083614290565b6080830151612cb59082614290565b600454600090613f5c816001615709565b600455835160408086015160808701515191516000936320214ca360e11b93613f949386938493923092918a916001916024016154e0565b60408051601f198184030181529190526020810180516001600160e01b03166001600160e01b0319909316929092179091529050613fd4868386846142a7565b9695505050505050565b613fe6614414565b609e805460ff191660011790557f62e78cea01bee320cd4e420270b5ea74000d11b0c9f74754ebdbfc544b05a258613e443390565b600080826001600160a01b0316633850c7bd6040518163ffffffff1660e01b815260040160e06040518083038186803b15801561405757600080fd5b505afa15801561406b573d6000803e3d6000fd5b505050506040513d601f19601f8201168201806040525081019061408f91906152d5565b509398975050505050505050565b6000806140a98661445a565b90506001600160801b036001600160a01b0382161161412f5760006140d76001600160a01b038316806158b5565b9050836001600160a01b0316856001600160a01b03161061410f5761410a600160c01b876001600160801b03168361477a565b614127565b61412781876001600160801b0316600160c01b61477a565b92505061419e565b600061414e6001600160a01b038316806801000000000000000061477a565b9050836001600160a01b0316856001600160a01b03161061418657614181600160801b876001600160801b03168361477a565b6134bc565b6134bc81876001600160801b0316600160801b61477a565b50949350505050565b609e5460ff166120ab5760405162461bcd60e51b815260206004820152601460248201527314185d5cd8589b194e881b9bdd081c185d5cd95960621b60448201526064016114e3565b600654610100900460ff166142175760405162461bcd60e51b81526004016114e390615616565b6120ab33613ebf565b600654610100900460ff166142475760405162461bcd60e51b81526004016114e390615616565b609e805460ff19169055565b61425b614c84565b61426b856080015161010061482d565b50509183526001600160a01b031660208301526001600160e01b031916604082015290565b61429d8260038351614892565b612cb5828261499f565b6040516bffffffffffffffffffffffff193060601b1660208201526034810184905260009060540160408051808303601f1901815282825280516020918201206000818152600590925291812080546001600160a01b0319166001600160a01b038a1617905590925082917fb5e6e01e79f91267dc17b4e6314d5d4d03593d2ceee0fbb452b750bd70ea5af99190a2600254604051630200057560e51b81526001600160a01b0390911690634000aea09061436a90889087908790600401615548565b602060405180830381600087803b15801561438457600080fd5b505af1158015614398573d6000803e3d6000fd5b505050506040513d601f19601f820116820180604052508101906143bc91906151c6565b610dee5760405162461bcd60e51b815260206004820152602360248201527f756e61626c6520746f207472616e73666572416e6443616c6c20746f206f7261604482015262636c6560e81b60648201526084016114e3565b609e5460ff16156120ab5760405162461bcd60e51b815260206004820152601060248201526f14185d5cd8589b194e881c185d5cd95960821b60448201526064016114e3565b60008060008360020b12614471578260020b614479565b8260020b6000035b9050620d89e881111561449f576040516315e4079d60e11b815260040160405180910390fd5b6000600182166144b357600160801b6144c5565b6ffffcb933bd6fad37aa2d162d1a5940015b70ffffffffffffffffffffffffffffffffff16905060028216156144f9576ffff97272373d413259a46990580e213a0260801c5b6004821615614518576ffff2e50f5f656932ef12357cf3c7fdcc0260801c5b6008821615614537576fffe5caca7e10e4e61c3624eaa0941cd00260801c5b6010821615614556576fffcb9843d60f6159c9db58835c9266440260801c5b6020821615614575576fff973b41fa98c081472e6896dfb254c00260801c5b6040821615614594576fff2ea16466c96a3843ec78b326b528610260801c5b60808216156145b3576ffe5dee046a99a2a811c461f1969c30530260801c5b6101008216156145d3576ffcbe86c7900a88aedcffc83b479aa3a40260801c5b6102008216156145f3576ff987a7253ac413176f2b074cf7815e540260801c5b610400821615614613576ff3392b0822b70005940c7a398e4b70f30260801c5b610800821615614633576fe7159475a2c29b7443b29c7fa6e889d90260801c5b611000821615614653576fd097f3bdfd2022b8845ad8f792aa58250260801c5b612000821615614673576fa9f746462d870fdf8a65dc1f90e061e50260801c5b614000821615614693576f70d869a156d2a1b890bb3df62baf32f70260801c5b6180008216156146b3576f31be135f97d08fd981231505542fcfa60260801c5b620100008216156146d4576f09aa508b5b7a84e1c677de54f3e99bc90260801c5b620200008216156146f4576e5d6af8dedb81196699c329225ee6040260801c5b62040000821615614713576d2216e584f5fa1ea926041bedfe980260801c5b62080000821615614730576b048a170391f7dc42444e8fa20260801c5b60008460020b131561475157806000198161474d5761474d6159b4565b0490505b640100000000810615614765576001614768565b60005b60ff16602082901c0192505050919050565b6000808060001985870985870292508281108382030391505080600014156147b457600084116147a957600080fd5b508290049050610c6e565b8084116147c057600080fd5b6000848688096000868103871696879004966002600389028118808a02820302808a02820302808a02820302808a02820302808a02820302808a02909103029181900381900460010186841190950394909402919094039290920491909117919091029150509392505050565b60408051808201909152606081526000602082015261484d60208361598a565b156148755761485d60208361598a565b6148689060206158d4565b6148729083615709565b91505b506020828101829052604080518085526000815290920101905290565b6017816001600160401b0316116148bc576148b68360e0600585901b1683176149c6565b50505050565b60ff816001600160401b0316116148f8576148e2836018611fe0600586901b16176149c6565b506148b6836001600160401b03831660016149eb565b61ffff816001600160401b0316116149355761491f836019611fe0600586901b16176149c6565b506148b6836001600160401b03831660026149eb565b63ffffffff816001600160401b0316116149745761495e83601a611fe0600586901b16176149c6565b506148b6836001600160401b03831660046149eb565b61498983601b611fe0600586901b16176149c6565b506148b6836001600160401b03831660086149eb565b604080518082019091526060815260006020820152610c6e83846000015151848551614a11565b604080518082019091526060815260006020820152610c6e8384600001515184614afb565b604080518082019091526060815260006020820152610dee848560000151518585614b57565b6040805180820190915260608152600060208201528251821115614a3457600080fd5b6020850151614a438386615709565b1115614a7657614a7685614a6687602001518786614a619190615709565b614bd8565b614a719060026158b5565b614be9565b600080865180518760208301019350808887011115614a955787860182525b505050602084015b60208410614ad55780518252614ab4602083615709565b9150614ac1602082615709565b9050614ace6020856158d4565b9350614a9d565b51815160001960208690036101000a019081169019919091161790525083949350505050565b60408051808201909152606081526000602082015283602001518310614b3057614b308485602001516002614a7191906158b5565b835180516020858301018481535080851415614b4d576001810182525b5093949350505050565b6040805180820190915260608152600060208201526020850151614b7b8584615709565b1115614b8f57614b8f85614a668685615709565b60006001614b9f84610100615778565b614ba991906158d4565b9050855183868201018583198251161781525080518487011115614bcd5783860181525b509495945050505050565b600081831115612daf575081610c9c565b8151614bf5838361482d565b506148b6838261499f565b828054614c0c9061593a565b90600052602060002090601f016020900481019282614c2e5760008555614c74565b82601f10614c4757805160ff1916838001178555614c74565b82800160010185558215614c74579182015b82811115614c74578251825591602001919060010190614c59565b50614c80929150614cbf565b5090565b6040805160a0810182526000808252602080830182905282840182905260608084018390528451808601909552845283015290608082015290565b5b80821115614c805760008155600101614cc0565b8035614cdf816159f6565b919050565b600082601f830112614cf557600080fd5b81356020614d0a614d05836156e6565b6156b6565b80838252828201915082860187848660051b8901011115614d2a57600080fd5b60005b85811015614d52578135614d40816159f6565b84529284019290840190600101614d2d565b5090979650505050505050565b600082601f830112614d7057600080fd5b81356020614d80614d05836156e6565b80838252828201915082860187848660051b8901011115614da057600080fd5b60005b85811015614d5257813584529284019290840190600101614da3565b80518015158114614cdf57600080fd5b600082601f830112614de057600080fd5b81356001600160401b03811115614df957614df96159e0565b614e0c601f8201601f19166020016156b6565b818152846020838601011115614e2157600080fd5b816020850160208301376000918101602001919091529392505050565b805161ffff81168114614cdf57600080fd5b805169ffffffffffffffffffff81168114614cdf57600080fd5b600060208284031215614e7c57600080fd5b8135610c6e816159f6565b600060208284031215614e9957600080fd5b8151610c6e816159f6565b60008060008060008060008060008060006101608c8e031215614ec657600080fd5b8b35614ed1816159f6565b9a5060208c0135614ee1816159f6565b995060408c0135614ef1816159f6565b985060608c0135975060808c0135614f08816159f6565b965060a08c0135614f18816159f6565b955060c08c0135614f28816159f6565b945060e08c0135614f38816159f6565b93506101008c0135614f49816159f6565b92506101208c0135614f5a816159f6565b9150614f696101408d01614cd4565b90509295989b509295989b9093969950565b60008060008060808587031215614f9157600080fd5b8435614f9c816159f6565b93506020850135614fac816159f6565b925060408501356001600160801b0381168114614fc857600080fd5b9150606085013563ffffffff81168114614fe157600080fd5b939692955090935050565b60008060006060848603121561500157600080fd5b833561500c816159f6565b9250602084013561501c816159f6565b929592945050506040919091013590565b6000806000806080858703121561504357600080fd5b843561504e816159f6565b9350602085013561505e816159f6565b93969395505050506040820135916060013590565b60008060006060848603121561508857600080fd5b8335615093816159f6565b95602085013595506040909401359392505050565b6000806000606084860312156150bd57600080fd5b83356001600160401b03808211156150d457600080fd5b6150e087838801614ce4565b945060208601359150808211156150f657600080fd5b61510287838801614d5f565b9350604086013591508082111561511857600080fd5b5061512586828701614d5f565b9150509250925092565b6000602080838503121561514257600080fd5b82516001600160401b0381111561515857600080fd5b8301601f8101851361516957600080fd5b8051615177614d05826156e6565b80828252848201915084840188868560051b870101111561519757600080fd5b600094505b838510156151ba57805183526001949094019391850191850161519c565b50979650505050505050565b6000602082840312156151d857600080fd5b610c6e82614dbf565b600080600080608085870312156151f757600080fd5b8435935060208501356001600160401b038082111561521557600080fd5b61522188838901614ce4565b9450604087013591508082111561523757600080fd5b61524388838901614d5f565b9350606087013591508082111561525957600080fd5b5061526687828801614d5f565b91505092959194509250565b6000806040838503121561528557600080fd5b82356001600160401b038082111561529c57600080fd5b6152a886838701614dcf565b935060208501359150808211156152be57600080fd5b506152cb85828601614dcf565b9150509250929050565b600080600080600080600060e0888a0312156152f057600080fd5b87516152fb816159f6565b8097505060208801518060020b811461531357600080fd5b955061532160408901614e3e565b945061532f60608901614e3e565b935061533d60808901614e3e565b925060a088015161534d81615a0b565b915061535b60c08901614dbf565b905092959891949750929550565b60006020828403121561537b57600080fd5b5035919050565b60006020828403121561539457600080fd5b5051919050565b6000806000606084860312156153b057600080fd5b83359250602084013561501c816159f6565b6000602082840312156153d457600080fd5b8135610c6e81615a0b565b600080600080600060a086880312156153f757600080fd5b61540086614e50565b945060208601519350604086015192506060860151915061542360808701614e50565b90509295509295909350565b60006020828403121561544157600080fd5b8151610c6e81615a0b565b600081518084526020808501945080840160005b83811015614bcd5781516001600160a01b031687529582019590820190600101615460565b6000815180845261549d81602086016020860161590e565b601f01601f19169290920160200192915050565b600083516154c381846020880161590e565b8351908301906154d781836020880161590e565b01949350505050565b6001600160a01b0389811682526020820189905260408201889052861660608201526001600160e01b03198516608082015260a0810184905260c0810183905261010060e0820181905260009061553983820185615485565b9b9a5050505050505050505050565b60018060a01b0384168152826020820152606060408201526000613a546060830184615485565b602081526000610c6e6020830184615485565b60208082526024908201527f7472616e73666572206574682066656520746f20746865206f776e65722066616040820152631a5b195960e21b606082015260800190565b60208082526030908201527f50726f706f7361626c654f776e61626c653a206e6577206f776e65722069732060408201526f746865207a65726f206164647265737360801b606082015260800190565b6020808252602b908201527f496e697469616c697a61626c653a20636f6e7472616374206973206e6f74206960408201526a6e697469616c697a696e6760a81b606082015260800190565b828152604060208201526000610dee604083018461544c565b85815284602082015260a06040820152600061569960a083018661544c565b6001600160a01b0394909416606083015250608001529392505050565b604051601f8201601f191681016001600160401b03811182821017156156de576156de6159e0565b604052919050565b60006001600160401b038211156156ff576156ff6159e0565b5060051b60200190565b6000821982111561571c5761571c61599e565b500190565b600082615730576157306159b4565b500490565b600181815b808511156157705781600019048211156157565761575661599e565b8085161561576357918102915b93841c939080029061573a565b509250929050565b6000610c6e838361578f565b6000610c6e60ff8416835b60008261579e57506001610c9c565b816157ab57506000610c9c565b81600181146157c157600281146157cb576157e7565b6001915050610c9c565b60ff8411156157dc576157dc61599e565b50506001821b610c9c565b5060208310610133831016604e8410600b841016171561580a575081810a610c9c565b6158148383615735565b80600019048211156158285761582861599e565b029392505050565b60006001600160ff1b03818413828413808216868404861116156158565761585661599e565b600160ff1b60008712828116878305891216156158755761587561599e565b600087129250878205871284841616156158915761589161599e565b878505871281841616156158a7576158a761599e565b505050929093029392505050565b60008160001904831182151516156158cf576158cf61599e565b500290565b6000828210156158e6576158e661599e565b500390565b600060ff821660ff8416808210156159055761590561599e565b90039392505050565b60005b83811015615929578181015183820152602001615911565b838111156148b65750506000910152565b600181811c9082168061594e57607f821691505b60208210811415612daf57634e487b7160e01b600052602260045260246000fd5b60006000198214156159835761598361599e565b5060010190565b600082615999576159996159b4565b500690565b634e487b7160e01b600052601160045260246000fd5b634e487b7160e01b600052601260045260246000fd5b634e487b7160e01b600052603260045260246000fd5b634e487b7160e01b600052604160045260246000fd5b6001600160a01b038116811461398257600080fd5b60ff8116811461398257600080fdfe68747470733a2f2f6170702e6e65786c6162732e696f2f6170692f616c6c46756e64696e6752617465733f6d756c7469706c7946756e633d31382674696d65734e656746756e643d74727565266172726179733d74727565a2646970667358221220e6e2f5f542aba3f0a849a878fb64499706a8f5bc9ef53c0917b6a5e86c96c8a764736f6c63430008070033",
    "linkReferences": {}
  },
  "methodIdentifiers": {
    "concatenation(string,string)": "0e329357",
    "currentList(uint256)": "9932ba4c",
    "estimateAmountOut(address,address,uint128,uint32)": "bf938db8",
    "externalJobId()": "a8b54bd4",
    "factoryV2()": "68e0d4e1",
    "factoryV3()": "1d5f45f5",
    "fee()": "ddca3f43",
    "feeRate()": "978bbdb9",
    "feeRatePerDayScaled()": "2fecd589",
    "feeReceiver()": "b3f00674",
    "feeTimestamp()": "184a732f",
    "fulfillAssetsData(bytes32,address[],uint256[],uint256[])": "36aab86c",
    "getAmountOut(address,address,uint256,uint256)": "13cb1f83",
    "getExactAmountOut(address,address,uint256,uint256)": "156a5da1",
    "getExactAmountOut2(address,address,uint256)": "686f9175",
    "getIssuanceAmountOut(uint256,address,uint256)": "b3951b67",
    "getIssuanceAmountOut2(uint256,address,uint256)": "c8b76e70",
    "getPortfolioBalance()": "a8509fd8",
    "getRedemptionAmountOut(uint256,address,uint256)": "02e04015",
    "getRedemptionAmountOut2(uint256,address,uint256)": "1ff01563",
    "indexToken()": "e7d015f2",
    "initialize(address,address,address,bytes32,address,address,address,address,address,address,address)": "465a4c94",
    "isRestricted(address)": "c01bc982",
    "issuanceIndexTokens(address,uint256,uint256)": "abdd5f3f",
    "issuanceIndexTokensWithEth(uint256)": "372d4c55",
    "lastUpdateTime()": "c8f33c91",
    "latestFeeUpdate()": "011ced5f",
    "methodologist()": "9f8e67bf",
    "methodology()": "9eeb1d50",
    "minter()": "07546172",
    "mockFillAssetsList(address[],uint256[],uint256[])": "e267078a",
    "oracleList(uint256)": "239aad0d",
    "oraclePayment()": "0c02e130",
    "owner()": "8da5cb5b",
    "pause()": "8456cb59",
    "paused()": "5c975abb",
    "priceInWei()": "3c8da588",
    "proposeOwner(address)": "b5ed298a",
    "proposedOwner()": "d153b60c",
    "quoter()": "c6bbd5a7",
    "reIndexAndReweight()": "a2ab905d",
    "redemption(uint256,address,uint256)": "2b9522e0",
    "renounceOwnership()": "715018a6",
    "requestAssetsData()": "7ca58c55",
    "setFeeRate(uint8)": "5177942a",
    "setPriceFeed(address)": "724e78da",
    "setUrl(string,string)": "a73e1cbf",
    "supplyCeiling()": "2b52684d",
    "swapRouterV2()": "744fbc7a",
    "swapRouterV3()": "b631e80b",
    "toUsdPriceFeed()": "63973fda",
    "tokenCurrentListIndex(address)": "914f0cc6",
    "tokenCurrentMarketShare(address)": "0be52713",
    "tokenOracleListIndex(address)": "8c88c10c",
    "tokenOracleMarketShare(address)": "4b3e0b80",
    "tokenSwapVersion(address)": "d90bc211",
    "totalCurrentList()": "53fd4332",
    "totalOracleList()": "c8599ded",
    "transferOwnership(address)": "f2fde38b",
    "unpause()": "3f4ba83a",
    "weth()": "3fc8cef3"
  },
  "id": 2
}