{"abi":[{"type":"receive","stateMutability":"payable"},{"type":"function","name":"factoryStorage","inputs":[],"outputs":[{"name":"","type":"address","internalType":"contract IndexFactoryStorage"}],"stateMutability":"view"},{"type":"function","name":"initialize","inputs":[{"name":"_factoryStorage","type":"address","internalType":"address payable"}],"outputs":[],"stateMutability":"nonpayable"},{"type":"function","name":"issuanceIndexTokens","inputs":[{"name":"_tokenIn","type":"address","internalType":"address"},{"name":"_amountIn","type":"uint256","internalType":"uint256"},{"name":"_tokenInSwapFee","type":"uint24","internalType":"uint24"}],"outputs":[],"stateMutability":"nonpayable"},{"type":"function","name":"issuanceIndexTokensWithEth","inputs":[{"name":"_inputAmount","type":"uint256","internalType":"uint256"}],"outputs":[],"stateMutability":"payable"},{"type":"function","name":"owner","inputs":[],"outputs":[{"name":"","type":"address","internalType":"address"}],"stateMutability":"view"},{"type":"function","name":"pause","inputs":[],"outputs":[],"stateMutability":"nonpayable"},{"type":"function","name":"paused","inputs":[],"outputs":[{"name":"","type":"bool","internalType":"bool"}],"stateMutability":"view"},{"type":"function","name":"proposeOwner","inputs":[{"name":"_proposedOwner","type":"address","internalType":"address"}],"outputs":[],"stateMutability":"nonpayable"},{"type":"function","name":"proposedOwner","inputs":[],"outputs":[{"name":"","type":"address","internalType":"address"}],"stateMutability":"view"},{"type":"function","name":"redemption","inputs":[{"name":"amountIn","type":"uint256","internalType":"uint256"},{"name":"_tokenOut","type":"address","internalType":"address"},{"name":"_tokenOutSwapFee","type":"uint24","internalType":"uint24"}],"outputs":[{"name":"","type":"uint256","internalType":"uint256"}],"stateMutability":"nonpayable"},{"type":"function","name":"renounceOwnership","inputs":[],"outputs":[],"stateMutability":"nonpayable"},{"type":"function","name":"transferOwnership","inputs":[{"name":"newOwner","type":"address","internalType":"address"}],"outputs":[],"stateMutability":"nonpayable"},{"type":"function","name":"unpause","inputs":[],"outputs":[],"stateMutability":"nonpayable"},{"type":"event","name":"ChainlinkCancelled","inputs":[{"name":"id","type":"bytes32","indexed":true,"internalType":"bytes32"}],"anonymous":false},{"type":"event","name":"ChainlinkFulfilled","inputs":[{"name":"id","type":"bytes32","indexed":true,"internalType":"bytes32"}],"anonymous":false},{"type":"event","name":"ChainlinkRequested","inputs":[{"name":"id","type":"bytes32","indexed":true,"internalType":"bytes32"}],"anonymous":false},{"type":"event","name":"Initialized","inputs":[{"name":"version","type":"uint8","indexed":false,"internalType":"uint8"}],"anonymous":false},{"type":"event","name":"Issuanced","inputs":[{"name":"user","type":"address","indexed":true,"internalType":"address"},{"name":"inputToken","type":"address","indexed":true,"internalType":"address"},{"name":"inputAmount","type":"uint256","indexed":false,"internalType":"uint256"},{"name":"outputAmount","type":"uint256","indexed":false,"internalType":"uint256"},{"name":"time","type":"uint256","indexed":false,"internalType":"uint256"}],"anonymous":false},{"type":"event","name":"OwnershipTransferred","inputs":[{"name":"previousOwner","type":"address","indexed":true,"internalType":"address"},{"name":"newOwner","type":"address","indexed":true,"internalType":"address"}],"anonymous":false},{"type":"event","name":"Paused","inputs":[{"name":"account","type":"address","indexed":false,"internalType":"address"}],"anonymous":false},{"type":"event","name":"Redemption","inputs":[{"name":"user","type":"address","indexed":true,"internalType":"address"},{"name":"outputToken","type":"address","indexed":true,"internalType":"address"},{"name":"inputAmount","type":"uint256","indexed":false,"internalType":"uint256"},{"name":"outputAmount","type":"uint256","indexed":false,"internalType":"uint256"},{"name":"time","type":"uint256","indexed":false,"internalType":"uint256"}],"anonymous":false},{"type":"event","name":"Unpaused","inputs":[{"name":"account","type":"address","indexed":false,"internalType":"address"}],"anonymous":false}],"bytecode":{"object":"0x608060405234801561001057600080fd5b50612ba5806100206000396000f3fe6080604052600436106100c65760003560e01c80638456cb591161007f578063c06e1ae211610059578063c06e1ae2146101ee578063c4d66de81461020e578063d153b60c1461022e578063f2fde38b1461024e57600080fd5b80638456cb59146101875780638da5cb5b1461019c578063b5ed298a146101ce57600080fd5b8063372d4c55146100d2578063377bd3e5146100e75780633f4ba83a146101075780634b4441861461011c5780635c975abb1461014f578063715018a61461017257600080fd5b366100cd57005b600080fd5b6100e56100e03660046128fa565b61026e565b005b3480156100f357600080fd5b506100e5610102366004612879565b610706565b34801561011357600080fd5b506100e5610bdd565b34801561012857600080fd5b5061013c61013736600461292c565b610bef565b6040519081526020015b60405180910390f35b34801561015b57600080fd5b50609e5460ff166040519015158152602001610146565b34801561017e57600080fd5b506100e561103c565b34801561019357600080fd5b506100e561104e565b3480156101a857600080fd5b506039546001600160a01b03165b6040516001600160a01b039091168152602001610146565b3480156101da57600080fd5b506100e56101e9366004612838565b61105e565b3480156101fa57600080fd5b5060d0546101b6906001600160a01b031681565b34801561021a57600080fd5b506100e5610229366004612838565b6110ae565b34801561023a57600080fd5b50606b546101b6906001600160a01b031681565b34801561025a57600080fd5b506100e5610269366004612838565b6111e3565b60d0546040805163fbfa77cf60e01b815290516000926001600160a01b03169163fbfa77cf916004808301926020929190829003018186803b1580156102b357600080fd5b505afa1580156102c7573d6000803e3d6000fd5b505050506040513d601f19601f820116820180604052508101906102eb919061285c565b9050600060d060009054906101000a90046001600160a01b03166001600160a01b0316633fc8cef36040518163ffffffff1660e01b815260040160206040518083038186803b15801561033d57600080fd5b505afa158015610351573d6000803e3d6000fd5b505050506040513d601f19601f82011682018060405250810190610375919061285c565b9050600060d060009054906101000a90046001600160a01b03166001600160a01b031663b3f006746040518163ffffffff1660e01b815260040160206040518083038186803b1580156103c757600080fd5b505afa1580156103db573d6000803e3d6000fd5b505050506040513d601f19601f820116820180604052508101906103ff919061285c565b9050600060d060009054906101000a90046001600160a01b03166001600160a01b031663978bbdb96040518163ffffffff1660e01b815260040160206040518083038186803b15801561045157600080fd5b505afa158015610465573d6000803e3d6000fd5b505050506040513d601f19601f820116820180604052508101906104899190612963565b60ff169050600061271061049d8388612acc565b6104a79190612aaa565b905060006104b58288612a92565b90508034101561050c5760405162461bcd60e51b815260206004820152601a60248201527f6c6f776572207468616e20726571756972656420616d6f756e7400000000000060448201526064015b60405180910390fd5b846001600160a01b031663d0e30db0826040518263ffffffff1660e01b81526004016000604051808303818588803b15801561054757600080fd5b505af115801561055b573d6000803e3d6000fd5b505060405163a9059cbb60e01b81526001600160a01b038881166004830152602482018790528916935063a9059cbb92506044019050602060405180830381600087803b1580156105ab57600080fd5b505af11580156105bf573d6000803e3d6000fd5b505050506040513d601f19601f820116820180604052508101906105e391906128bb565b5060d054604080516329fea19960e11b815290516000926001600160a01b0316916353fd4332916004808301926020929190829003018186803b15801561062957600080fd5b505afa15801561063d573d6000803e3d6000fd5b505050506040513d601f19601f820116820180604052508101906106619190612913565b9050600060d060009054906101000a90046001600160a01b03166001600160a01b031663a8509fd86040518163ffffffff1660e01b815260040160206040518083038186803b1580156106b357600080fd5b505afa1580156106c7573d6000803e3d6000fd5b505050506040513d601f19601f820116820180604052508101906106eb9190612913565b90506106fb878a848b8d8661130b565b505050505050505050565b60d05460408051633fc8cef360e01b815290516000926001600160a01b031691633fc8cef3916004808301926020929190829003018186803b15801561074b57600080fd5b505afa15801561075f573d6000803e3d6000fd5b505050506040513d601f19601f82011682018060405250810190610783919061285c565b9050600060d060009054906101000a90046001600160a01b03166001600160a01b031663fbfa77cf6040518163ffffffff1660e01b815260040160206040518083038186803b1580156107d557600080fd5b505afa1580156107e9573d6000803e3d6000fd5b505050506040513d601f19601f8201168201806040525081019061080d919061285c565b9050600060d060009054906101000a90046001600160a01b03166001600160a01b03166353fd43326040518163ffffffff1660e01b815260040160206040518083038186803b15801561085f57600080fd5b505afa158015610873573d6000803e3d6000fd5b505050506040513d601f19601f820116820180604052508101906108979190612913565b9050600060d060009054906101000a90046001600160a01b03166001600160a01b031663978bbdb96040518163ffffffff1660e01b815260040160206040518083038186803b1580156108e957600080fd5b505afa1580156108fd573d6000803e3d6000fd5b505050506040513d601f19601f820116820180604052508101906109219190612963565b60ff16905060006127106109358389612acc565b61093f9190612aaa565b9050600060d060009054906101000a90046001600160a01b03166001600160a01b031663a8509fd86040518163ffffffff1660e01b815260040160206040518083038186803b15801561099157600080fd5b505afa1580156109a5573d6000803e3d6000fd5b505050506040513d601f19601f820116820180604052508101906109c99190612913565b90506001600160a01b0389166323b872dd33306109e6868d612a92565b6040516001600160e01b031960e086901b1681526001600160a01b0393841660048201529290911660248301526044820152606401602060405180830381600087803b158015610a3557600080fd5b505af1158015610a49573d6000803e3d6000fd5b505050506040513d601f19601f82011682018060405250810190610a6d91906128bb565b506000610a868a88610a7f868d612a92565b308c61168e565b9050600060d060009054906101000a90046001600160a01b03166001600160a01b031663b3f006746040518163ffffffff1660e01b815260040160206040518083038186803b158015610ad857600080fd5b505afa158015610aec573d6000803e3d6000fd5b505050506040513d601f19601f82011682018060405250810190610b10919061285c565b90506000612710610b218785612acc565b610b2b9190612aaa565b90506000610b398285612aeb565b60405163a9059cbb60e01b81526001600160a01b03858116600483015260248201859052919250908b169063a9059cbb90604401602060405180830381600087803b158015610b8757600080fd5b505af1158015610b9b573d6000803e3d6000fd5b505050506040513d601f19601f82011682018060405250810190610bbf91906128bb565b50610bce8d8d8a8c858a61130b565b50505050505050505050505050565b610be56117bd565b610bed611817565b565b60008060d060009054906101000a90046001600160a01b03166001600160a01b031663fbfa77cf6040518163ffffffff1660e01b815260040160206040518083038186803b158015610c4057600080fd5b505afa158015610c54573d6000803e3d6000fd5b505050506040513d601f19601f82011682018060405250810190610c78919061285c565b9050600060d060009054906101000a90046001600160a01b03166001600160a01b03166353fd43326040518163ffffffff1660e01b815260040160206040518083038186803b158015610cca57600080fd5b505afa158015610cde573d6000803e3d6000fd5b505050506040513d601f19601f82011682018060405250810190610d029190612913565b9050600060d060009054906101000a90046001600160a01b03166001600160a01b031663978bbdb96040518163ffffffff1660e01b815260040160206040518083038186803b158015610d5457600080fd5b505afa158015610d68573d6000803e3d6000fd5b505050506040513d601f19601f82011682018060405250810190610d8c9190612963565b60ff169050600060d060009054906101000a90046001600160a01b03166001600160a01b031663b3f006746040518163ffffffff1660e01b815260040160206040518083038186803b158015610de157600080fd5b505afa158015610df5573d6000803e3d6000fd5b505050506040513d601f19601f82011682018060405250810190610e19919061285c565b9050600060d060009054906101000a90046001600160a01b03166001600160a01b031663e7d015f26040518163ffffffff1660e01b815260040160206040518083038186803b158015610e6b57600080fd5b505afa158015610e7f573d6000803e3d6000fd5b505050506040513d601f19601f82011682018060405250810190610ea3919061285c565b90506000816001600160a01b03166318160ddd6040518163ffffffff1660e01b815260040160206040518083038186803b158015610ee057600080fd5b505afa158015610ef4573d6000803e3d6000fd5b505050506040513d601f19601f82011682018060405250810190610f189190612913565b610f2a8b670de0b6b3a7640000612acc565b610f349190612aaa565b604051632770a7eb60e21b8152336004820152602481018c90529091506001600160a01b03831690639dc29fac90604401600060405180830381600087803b158015610f7f57600080fd5b505af1158015610f93573d6000803e3d6000fd5b50505050600061102d60d060009054906101000a90046001600160a01b03166001600160a01b03166353fd43326040518163ffffffff1660e01b815260040160206040518083038186803b158015610fea57600080fd5b505afa158015610ffe573d6000803e3d6000fd5b505050506040513d601f19601f820116820180604052508101906110229190612913565b88848d8d8a8a611869565b9b9a5050505050505050505050565b6110446117bd565b610bed600061191f565b6110566117bd565b610bed611971565b6110666117bd565b6001600160a01b03811661108c5760405162461bcd60e51b815260040161050390612986565b606b80546001600160a01b0319166001600160a01b0392909216919091179055565b600654610100900460ff16158080156110ce5750600654600160ff909116105b806110e85750303b1580156110e8575060065460ff166001145b61114b5760405162461bcd60e51b815260206004820152602e60248201527f496e697469616c697a61626c653a20636f6e747261637420697320616c72656160448201526d191e481a5b9a5d1a585b1a5e995960921b6064820152608401610503565b6006805460ff19166001179055801561116e576006805461ff0019166101001790555b6111766119ae565b61117e6119dd565b60d080546001600160a01b0319166001600160a01b03841617905580156111df576006805461ff0019169055604051600181527f7f26b83ff96e1f2b6a682f133852f6798a09c465da95921460cefb38474024989060200160405180910390a15b5050565b6001600160a01b0381166112095760405162461bcd60e51b815260040161050390612986565b606b546001600160a01b038281169116146112815760405162461bcd60e51b815260206004820152603260248201527f50726f706f7361626c654f776e61626c653a206e6577206f776e6572206973206044820152713737ba10383937b837b9b2b21037bbb732b960711b6064820152608401610503565b6001600160a01b03811633146112ff5760405162461bcd60e51b815260206004820152603a60248201527f50726f706f7361626c654f776e61626c653a20746869732063616c6c206d757360448201527f74206265206d61646520627920746865206e6577206f776e65720000000000006064820152608401610503565b6113088161191f565b50565b60d05460408051633fc8cef360e01b815290516000926001600160a01b031691633fc8cef3916004808301926020929190829003018186803b15801561135057600080fd5b505afa158015611364573d6000803e3d6000fd5b505050506040513d601f19601f82011682018060405250810190611388919061285c565b905060005b858110156116275760d05460405163264cae9360e21b8152600481018390526000916001600160a01b031690639932ba4c9060240160206040518083038186803b1580156113da57600080fd5b505afa1580156113ee573d6000803e3d6000fd5b505050506040513d601f19601f82011682018060405250810190611412919061285c565b60d054604051630be5271360e01b81526001600160a01b03808416600483015292935060009290911690630be527139060240160206040518083038186803b15801561145d57600080fd5b505afa158015611471573d6000803e3d6000fd5b505050506040513d601f19601f820116820180604052508101906114959190612913565b60d054604051633259966560e01b81526001600160a01b0385811660048301529293506000929091169063325996659060240160206040518083038186803b1580156114e057600080fd5b505afa1580156114f4573d6000803e3d6000fd5b505050506040513d601f19601f8201168201806040525081019061151891906128dd565b9050846001600160a01b0316836001600160a01b0316146115635761155d858468056bc75e2d6310000061154c868c612acc565b6115569190612aaa565b8b8561168e565b50611611565b6001600160a01b03851663a9059cbb8968056bc75e2d63100000611587868c612acc565b6115919190612aaa565b6040516001600160e01b031960e085901b1681526001600160a01b0390921660048301526024820152604401602060405180830381600087803b1580156115d757600080fd5b505af11580156115eb573d6000803e3d6000fd5b505050506040513d601f19601f8201168201806040525081019061160f91906128bb565b505b505050808061161f90612b02565b91505061138d565b5060006116348484611a0c565b6040805189815260208101839052428183015290519192506001600160a01b038a169133917f4fee1c514ee0e252e3a0babfa8b5030fb89be7ea2b38df9a7fbbf788e54f3d91919081900360600190a35050505050505050565b60008060d060009054906101000a90046001600160a01b03166001600160a01b031663b631e80b6040518163ffffffff1660e01b815260040160206040518083038186803b1580156116df57600080fd5b505afa1580156116f3573d6000803e3d6000fd5b505050506040513d601f19601f82011682018060405250810190611717919061285c565b9050600060d060009054906101000a90046001600160a01b03166001600160a01b031663744fbc7a6040518163ffffffff1660e01b815260040160206040518083038186803b15801561176957600080fd5b505afa15801561177d573d6000803e3d6000fd5b505050506040513d601f19601f820116820180604052508101906117a1919061285c565b90506117b28282868b8b8b8b611ca4565b505095945050505050565b6039546001600160a01b03163314610bed5760405162461bcd60e51b815260206004820181905260248201527f4f776e61626c653a2063616c6c6572206973206e6f7420746865206f776e65726044820152606401610503565b61181f611cd9565b609e805460ff191690557f5db9ee0a495bf2e6ff9c91a7834c1ba4fdd244a5e8aa4e537bd38aeae4b073aa335b6040516001600160a01b03909116815260200160405180910390a1565b60008060d060009054906101000a90046001600160a01b03166001600160a01b031663e7d015f26040518163ffffffff1660e01b815260040160206040518083038186803b1580156118ba57600080fd5b505afa1580156118ce573d6000803e3d6000fd5b505050506040513d601f19601f820116820180604052508101906118f2919061285c565b90506000611901888b8b611d22565b9050611911888289898989612092565b9a9950505050505050505050565b603980546001600160a01b038381166001600160a01b0319831681179093556040519116919082907f8be0079c531659141344cd1fd0a4f28419497f9722a3daafe3b4186f6b6457e090600090a35050565b611979612452565b609e805460ff191660011790557f62e78cea01bee320cd4e420270b5ea74000d11b0c9f74754ebdbfc544b05a25861184c3390565b600654610100900460ff166119d55760405162461bcd60e51b8152600401610503906129d6565b610bed612498565b600654610100900460ff16611a045760405162461bcd60e51b8152600401610503906129d6565b610bed6124c8565b60008060d060009054906101000a90046001600160a01b03166001600160a01b031663e7d015f26040518163ffffffff1660e01b815260040160206040518083038186803b158015611a5d57600080fd5b505afa158015611a71573d6000803e3d6000fd5b505050506040513d601f19601f82011682018060405250810190611a95919061285c565b90506000816001600160a01b03166318160ddd6040518163ffffffff1660e01b815260040160206040518083038186803b158015611ad257600080fd5b505afa158015611ae6573d6000803e3d6000fd5b505050506040513d601f19601f82011682018060405250810190611b0a9190612913565b1115611b9e578284826001600160a01b03166318160ddd6040518163ffffffff1660e01b815260040160206040518083038186803b158015611b4b57600080fd5b505afa158015611b5f573d6000803e3d6000fd5b505050506040513d601f19601f82011682018060405250810190611b839190612913565b611b8d9190612acc565b611b979190612aaa565b9150611c3d565b60d05460408051630791b4b160e31b815290516000926001600160a01b031691633c8da588916004808301926020929190829003018186803b158015611be357600080fd5b505afa158015611bf7573d6000803e3d6000fd5b505050506040513d601f19601f82011682018060405250810190611c1b9190612913565b9050662386f26fc10000611c2f8287612acc565b611c399190612aaa565b9250505b6040516340c10f1960e01b8152336004820152602481018390526001600160a01b038216906340c10f1990604401600060405180830381600087803b158015611c8557600080fd5b505af1158015611c99573d6000803e3d6000fd5b505050505092915050565b62ffffff851615611cc357611cbd8786868686866124fb565b50611cd0565b611cd086858585856126ce565b50505050505050565b609e5460ff16610bed5760405162461bcd60e51b815260206004820152601460248201527314185d5cd8589b194e881b9bdd081c185d5cd95960621b6044820152606401610503565b60008060d060009054906101000a90046001600160a01b03166001600160a01b0316633fc8cef36040518163ffffffff1660e01b815260040160206040518083038186803b158015611d7357600080fd5b505afa158015611d87573d6000803e3d6000fd5b505050506040513d601f19601f82011682018060405250810190611dab919061285c565b905060005b848110156120895760d05460405163264cae9360e21b8152600481018390526000916001600160a01b031690639932ba4c9060240160206040518083038186803b158015611dfd57600080fd5b505afa158015611e11573d6000803e3d6000fd5b505050506040513d601f19601f82011682018060405250810190611e35919061285c565b60d054604051633259966560e01b81526001600160a01b0380841660048301529293506000929091169063325996659060240160206040518083038186803b158015611e8057600080fd5b505afa158015611e94573d6000803e3d6000fd5b505050506040513d601f19601f82011682018060405250810190611eb891906128dd565b6040516370a0823160e01b81526001600160a01b038881166004830152919250600091670de0b6b3a764000091908516906370a082319060240160206040518083038186803b158015611f0a57600080fd5b505afa158015611f1e573d6000803e3d6000fd5b505050506040513d601f19601f82011682018060405250810190611f429190612913565b611f4c908b612acc565b611f569190612aaa565b9050846001600160a01b0316836001600160a01b031614611ffc57604051631c20fadd60e01b81526001600160a01b03848116600483015230602483015260448201839052881690631c20fadd90606401600060405180830381600087803b158015611fc157600080fd5b505af1158015611fd5573d6000803e3d6000fd5b505050506000611fe8848784308761168e565b9050611ff48188612a92565b965050612073565b604051631c20fadd60e01b81526001600160a01b03868116600483015230602483015260448201839052881690631c20fadd90606401600060405180830381600087803b15801561204c57600080fd5b505af1158015612060573d6000803e3d6000fd5b5050505080866120709190612a92565b95505b505050808061208190612b02565b915050611db0565b50509392505050565b60008060d060009054906101000a90046001600160a01b03166001600160a01b0316633fc8cef36040518163ffffffff1660e01b815260040160206040518083038186803b1580156120e357600080fd5b505afa1580156120f7573d6000803e3d6000fd5b505050506040513d601f19601f8201168201806040525081019061211b919061285c565b9050600061271061212c868a612acc565b6121369190612aaa565b9050816001600160a01b0316876001600160a01b03161415612353576001600160a01b038216632e1a7d4d61216b838b612aeb565b6040518263ffffffff1660e01b815260040161218991815260200190565b600060405180830381600087803b1580156121a357600080fd5b505af11580156121b7573d6000803e3d6000fd5b505060405163a9059cbb60e01b81526001600160a01b038781166004830152602482018590528516925063a9059cbb9150604401602060405180830381600087803b15801561220557600080fd5b505af1158015612219573d6000803e3d6000fd5b505050506040513d601f19601f8201168201806040525081019061223d91906128bb565b5060003361224b838b612aeb565b604051600081818185875af1925050503d8060008114612287576040519150601f19603f3d011682016040523d82523d6000602084013e61228c565b606091505b50509050806122e95760405162461bcd60e51b815260206004820152602360248201527f7472616e73666572206574682066656520746f207468652075736572206661696044820152621b195960ea1b6064820152608401610503565b6001600160a01b038816337f4f808f68134f8b72b842a276c2b37b03415d4992c65a94fcee50d33201915b998c612320868e612aeb565b604080519283526020830191909152429082015260600160405180910390a3612349828a612aeb565b9350505050612448565b60405163a9059cbb60e01b81526001600160a01b0385811660048301526024820183905283169063a9059cbb90604401602060405180830381600087803b15801561239d57600080fd5b505af11580156123b1573d6000803e3d6000fd5b505050506040513d601f19601f820116820180604052508101906123d591906128bb565b5060006123ee83896123e7858d612aeb565b338b61168e565b604080518c815260208101839052428183015290519192506001600160a01b038a169133917f4f808f68134f8b72b842a276c2b37b03415d4992c65a94fcee50d33201915b99919081900360600190a39250612448915050565b9695505050505050565b609e5460ff1615610bed5760405162461bcd60e51b815260206004820152601060248201526f14185d5cd8589b194e881c185d5cd95960821b6044820152606401610503565b600654610100900460ff166124bf5760405162461bcd60e51b8152600401610503906129d6565b610bed3361191f565b600654610100900460ff166124ef5760405162461bcd60e51b8152600401610503906129d6565b609e805460ff19169055565b60405163095ea7b360e01b81526001600160a01b038781166004830152602482018490526000919086169063095ea7b390604401602060405180830381600087803b15801561254957600080fd5b505af115801561255d573d6000803e3d6000fd5b505050506040513d601f19601f8201168201806040525081019061258191906128bb565b506000604051806101000160405280876001600160a01b03168152602001866001600160a01b031681526020018862ffffff168152602001846001600160a01b031681526020014261012c6125d69190612a92565b8152602080820187905260006040808401829052606093840191909152805163414bf38960e01b815284516001600160a01b03908116600483015292850151831660248201529084015162ffffff16604482015291830151811660648301526080830151608483015260a083015160a483015260c083015160c483015260e0830151811660e48301529192509089169063414bf3899061010401602060405180830381600087803b15801561268a57600080fd5b505af115801561269e573d6000803e3d6000fd5b505050506040513d601f19601f820116820180604052508101906126c29190612913565b98975050505050505050565b604080516002808252606082018352600092602083019080368337019050509050848160008151811061270357612703612b33565b60200260200101906001600160a01b031690816001600160a01b031681525050838160018151811061273757612737612b33565b6001600160a01b03928316602091820292909201015260405163095ea7b360e01b81528782166004820152602481018590529086169063095ea7b390604401602060405180830381600087803b15801561279057600080fd5b505af11580156127a4573d6000803e3d6000fd5b505050506040513d601f19601f820116820180604052508101906127c891906128bb565b50604051635c11d79560e01b81526001600160a01b03871690635c11d795906127fe908690600090869088904290600401612a21565b600060405180830381600087803b15801561281857600080fd5b505af115801561282c573d6000803e3d6000fd5b50505050505050505050565b60006020828403121561284a57600080fd5b813561285581612b49565b9392505050565b60006020828403121561286e57600080fd5b815161285581612b49565b60008060006060848603121561288e57600080fd5b833561289981612b49565b92506020840135915060408401356128b081612b5e565b809150509250925092565b6000602082840312156128cd57600080fd5b8151801515811461285557600080fd5b6000602082840312156128ef57600080fd5b815161285581612b5e565b60006020828403121561290c57600080fd5b5035919050565b60006020828403121561292557600080fd5b5051919050565b60008060006060848603121561294157600080fd5b83359250602084013561295381612b49565b915060408401356128b081612b5e565b60006020828403121561297557600080fd5b815160ff8116811461285557600080fd5b60208082526030908201527f50726f706f7361626c654f776e61626c653a206e6577206f776e65722069732060408201526f746865207a65726f206164647265737360801b606082015260800190565b6020808252602b908201527f496e697469616c697a61626c653a20636f6e7472616374206973206e6f74206960408201526a6e697469616c697a696e6760a81b606082015260800190565b600060a082018783526020878185015260a0604085015281875180845260c086019150828901935060005b81811015612a715784516001600160a01b031683529383019391830191600101612a4c565b50506001600160a01b03969096166060850152505050608001529392505050565b60008219821115612aa557612aa5612b1d565b500190565b600082612ac757634e487b7160e01b600052601260045260246000fd5b500490565b6000816000190483118215151615612ae657612ae6612b1d565b500290565b600082821015612afd57612afd612b1d565b500390565b6000600019821415612b1657612b16612b1d565b5060010190565b634e487b7160e01b600052601160045260246000fd5b634e487b7160e01b600052603260045260246000fd5b6001600160a01b038116811461130857600080fd5b62ffffff8116811461130857600080fdfea2646970667358221220ec5c46788ccf7672ee44182eb56df4fae524775b82cc86fdeb6ecc6dcacfa9bc64736f6c63430008070033","linkReferences":{}},"methodIdentifiers":{"factoryStorage()":"c06e1ae2","initialize(address)":"c4d66de8","issuanceIndexTokens(address,uint256,uint24)":"377bd3e5","issuanceIndexTokensWithEth(uint256)":"372d4c55","owner()":"8da5cb5b","pause()":"8456cb59","paused()":"5c975abb","proposeOwner(address)":"b5ed298a","proposedOwner()":"d153b60c","redemption(uint256,address,uint24)":"4b444186","renounceOwnership()":"715018a6","transferOwnership(address)":"f2fde38b","unpause()":"3f4ba83a"},"id":2}