{
  "abi": [
    {
      "inputs": [],
      "name": "T",
      "type": "error"
    },
    {
      "anonymous": false,
      "inputs": [
        {
          "indexed": true,
          "internalType": "bytes32",
          "name": "id",
          "type": "bytes32"
        }
      ],
      "name": "ChainlinkCancelled",
      "type": "event"
    },
    {
      "anonymous": false,
      "inputs": [
        {
          "indexed": true,
          "internalType": "bytes32",
          "name": "id",
          "type": "bytes32"
        }
      ],
      "name": "ChainlinkFulfilled",
      "type": "event"
    },
    {
      "anonymous": false,
      "inputs": [
        {
          "indexed": true,
          "internalType": "bytes32",
          "name": "id",
          "type": "bytes32"
        }
      ],
      "name": "ChainlinkRequested",
      "type": "event"
    },
    {
      "anonymous": false,
      "inputs": [
        {
          "indexed": true,
          "internalType": "uint256",
          "name": "feeRatePerDayScaled",
          "type": "uint256"
        }
      ],
      "name": "FeeRateSet",
      "type": "event"
    },
    {
      "anonymous": false,
      "inputs": [
        {
          "indexed": true,
          "internalType": "address",
          "name": "feeReceiver",
          "type": "address"
        }
      ],
      "name": "FeeReceiverSet",
      "type": "event"
    },
    {
      "anonymous": false,
      "inputs": [
        {
          "indexed": false,
          "internalType": "uint8",
          "name": "version",
          "type": "uint8"
        }
      ],
      "name": "Initialized",
      "type": "event"
    },
    {
      "anonymous": false,
      "inputs": [
        {
          "indexed": true,
          "internalType": "address",
          "name": "user",
          "type": "address"
        },
        {
          "indexed": true,
          "internalType": "address",
          "name": "inputToken",
          "type": "address"
        },
        {
          "indexed": false,
          "internalType": "uint256",
          "name": "inputAmount",
          "type": "uint256"
        },
        {
          "indexed": false,
          "internalType": "uint256",
          "name": "outputAmount",
          "type": "uint256"
        },
        {
          "indexed": false,
          "internalType": "uint256",
          "name": "time",
          "type": "uint256"
        }
      ],
      "name": "Issuanced",
      "type": "event"
    },
    {
      "anonymous": false,
      "inputs": [
        {
          "indexed": true,
          "internalType": "address",
          "name": "methodologist",
          "type": "address"
        }
      ],
      "name": "MethodologistSet",
      "type": "event"
    },
    {
      "anonymous": false,
      "inputs": [
        {
          "indexed": false,
          "internalType": "string",
          "name": "methodology",
          "type": "string"
        }
      ],
      "name": "MethodologySet",
      "type": "event"
    },
    {
      "anonymous": false,
      "inputs": [
        {
          "indexed": false,
          "internalType": "address",
          "name": "feeReceiver",
          "type": "address"
        },
        {
          "indexed": false,
          "internalType": "uint256",
          "name": "timestamp",
          "type": "uint256"
        },
        {
          "indexed": false,
          "internalType": "uint256",
          "name": "totalSupply",
          "type": "uint256"
        },
        {
          "indexed": false,
          "internalType": "uint256",
          "name": "amount",
          "type": "uint256"
        }
      ],
      "name": "MintFeeToReceiver",
      "type": "event"
    },
    {
      "anonymous": false,
      "inputs": [
        {
          "indexed": true,
          "internalType": "address",
          "name": "minter",
          "type": "address"
        }
      ],
      "name": "MinterSet",
      "type": "event"
    },
    {
      "anonymous": false,
      "inputs": [
        {
          "indexed": true,
          "internalType": "address",
          "name": "previousOwner",
          "type": "address"
        },
        {
          "indexed": true,
          "internalType": "address",
          "name": "newOwner",
          "type": "address"
        }
      ],
      "name": "OwnershipTransferred",
      "type": "event"
    },
    {
      "anonymous": false,
      "inputs": [
        {
          "indexed": false,
          "internalType": "address",
          "name": "account",
          "type": "address"
        }
      ],
      "name": "Paused",
      "type": "event"
    },
    {
      "anonymous": false,
      "inputs": [
        {
          "indexed": true,
          "internalType": "address",
          "name": "user",
          "type": "address"
        },
        {
          "indexed": true,
          "internalType": "address",
          "name": "outputToken",
          "type": "address"
        },
        {
          "indexed": false,
          "internalType": "uint256",
          "name": "inputAmount",
          "type": "uint256"
        },
        {
          "indexed": false,
          "internalType": "uint256",
          "name": "outputAmount",
          "type": "uint256"
        },
        {
          "indexed": false,
          "internalType": "uint256",
          "name": "time",
          "type": "uint256"
        }
      ],
      "name": "Redemption",
      "type": "event"
    },
    {
      "anonymous": false,
      "inputs": [
        {
          "indexed": false,
          "internalType": "uint256",
          "name": "supplyCeiling",
          "type": "uint256"
        }
      ],
      "name": "SupplyCeilingSet",
      "type": "event"
    },
    {
      "anonymous": false,
      "inputs": [
        {
          "indexed": true,
          "internalType": "address",
          "name": "account",
          "type": "address"
        },
        {
          "indexed": false,
          "internalType": "bool",
          "name": "isRestricted",
          "type": "bool"
        }
      ],
      "name": "ToggledRestricted",
      "type": "event"
    },
    {
      "anonymous": false,
      "inputs": [
        {
          "indexed": false,
          "internalType": "address",
          "name": "account",
          "type": "address"
        }
      ],
      "name": "Unpaused",
      "type": "event"
    },
    {
      "inputs": [
        {
          "internalType": "string",
          "name": "a",
          "type": "string"
        },
        {
          "internalType": "string",
          "name": "b",
          "type": "string"
        }
      ],
      "name": "concatenation",
      "outputs": [
        {
          "internalType": "string",
          "name": "",
          "type": "string"
        }
      ],
      "stateMutability": "pure",
      "type": "function"
    },
    {
      "inputs": [
        {
          "internalType": "uint256",
          "name": "",
          "type": "uint256"
        }
      ],
      "name": "currentList",
      "outputs": [
        {
          "internalType": "address",
          "name": "",
          "type": "address"
        }
      ],
      "stateMutability": "view",
      "type": "function"
    },
    {
      "inputs": [
        {
          "internalType": "address",
          "name": "tokenIn",
          "type": "address"
        },
        {
          "internalType": "address",
          "name": "tokenOut",
          "type": "address"
        },
        {
          "internalType": "uint128",
          "name": "amountIn",
          "type": "uint128"
        },
        {
          "internalType": "uint32",
          "name": "secondsAgo",
          "type": "uint32"
        }
      ],
      "name": "estimateAmountOut",
      "outputs": [
        {
          "internalType": "uint256",
          "name": "amountOut",
          "type": "uint256"
        }
      ],
      "stateMutability": "view",
      "type": "function"
    },
    {
      "inputs": [],
      "name": "externalJobId",
      "outputs": [
        {
          "internalType": "bytes32",
          "name": "",
          "type": "bytes32"
        }
      ],
      "stateMutability": "view",
      "type": "function"
    },
    {
      "inputs": [],
      "name": "factoryV2",
      "outputs": [
        {
          "internalType": "contract IUniswapV2Factory",
          "name": "",
          "type": "address"
        }
      ],
      "stateMutability": "view",
      "type": "function"
    },
    {
      "inputs": [],
      "name": "factoryV3",
      "outputs": [
        {
          "internalType": "contract IUniswapV3Factory",
          "name": "",
          "type": "address"
        }
      ],
      "stateMutability": "view",
      "type": "function"
    },
    {
      "inputs": [],
      "name": "fee",
      "outputs": [
        {
          "internalType": "uint256",
          "name": "",
          "type": "uint256"
        }
      ],
      "stateMutability": "view",
      "type": "function"
    },
    {
      "inputs": [],
      "name": "feeRate",
      "outputs": [
        {
          "internalType": "uint8",
          "name": "",
          "type": "uint8"
        }
      ],
      "stateMutability": "view",
      "type": "function"
    },
    {
      "inputs": [],
      "name": "feeRatePerDayScaled",
      "outputs": [
        {
          "internalType": "uint256",
          "name": "",
          "type": "uint256"
        }
      ],
      "stateMutability": "view",
      "type": "function"
    },
    {
      "inputs": [],
      "name": "feeReceiver",
      "outputs": [
        {
          "internalType": "address",
          "name": "",
          "type": "address"
        }
      ],
      "stateMutability": "view",
      "type": "function"
    },
    {
      "inputs": [],
      "name": "feeTimestamp",
      "outputs": [
        {
          "internalType": "uint256",
          "name": "",
          "type": "uint256"
        }
      ],
      "stateMutability": "view",
      "type": "function"
    },
    {
      "inputs": [
        {
          "internalType": "bytes32",
          "name": "requestId",
          "type": "bytes32"
        },
        {
          "internalType": "address[]",
          "name": "_tokens",
          "type": "address[]"
        },
        {
          "internalType": "uint256[]",
          "name": "_marketShares",
          "type": "uint256[]"
        },
        {
          "internalType": "uint256[]",
          "name": "_swapVersions",
          "type": "uint256[]"
        }
      ],
      "name": "fulfillAssetsData",
      "outputs": [],
      "stateMutability": "nonpayable",
      "type": "function"
    },
    {
      "inputs": [
        {
          "internalType": "address",
          "name": "tokenIn",
          "type": "address"
        },
        {
          "internalType": "address",
          "name": "tokenOut",
          "type": "address"
        },
        {
          "internalType": "uint256",
          "name": "amountIn",
          "type": "uint256"
        },
        {
          "internalType": "uint256",
          "name": "_swapVersion",
          "type": "uint256"
        }
      ],
      "name": "getAmountOut",
      "outputs": [
        {
          "internalType": "uint256",
          "name": "finalAmountOut",
          "type": "uint256"
        }
      ],
      "stateMutability": "view",
      "type": "function"
    },
    {
      "inputs": [
        {
          "internalType": "address",
          "name": "tokenIn",
          "type": "address"
        },
        {
          "internalType": "address",
          "name": "tokenOut",
          "type": "address"
        },
        {
          "internalType": "uint256",
          "name": "amountIn",
          "type": "uint256"
        },
        {
          "internalType": "uint256",
          "name": "_swapVersion",
          "type": "uint256"
        }
      ],
      "name": "getExactAmountOut",
      "outputs": [
        {
          "internalType": "uint256",
          "name": "finalAmountOut",
          "type": "uint256"
        }
      ],
      "stateMutability": "nonpayable",
      "type": "function"
    },
    {
      "inputs": [
        {
          "internalType": "address",
          "name": "tokenIn",
          "type": "address"
        },
        {
          "internalType": "address",
          "name": "tokenOut",
          "type": "address"
        },
        {
          "internalType": "uint256",
          "name": "amountIn",
          "type": "uint256"
        }
      ],
      "name": "getExactAmountOut2",
      "outputs": [
        {
          "internalType": "uint256",
          "name": "finalAmountOut",
          "type": "uint256"
        }
      ],
      "stateMutability": "nonpayable",
      "type": "function"
    },
    {
      "inputs": [
        {
          "internalType": "uint256",
          "name": "_amountIn",
          "type": "uint256"
        },
        {
          "internalType": "address",
          "name": "_tokenIn",
          "type": "address"
        },
        {
          "internalType": "uint256",
          "name": "_swapVersion",
          "type": "uint256"
        }
      ],
      "name": "getIssuanceAmountOut",
      "outputs": [
        {
          "internalType": "uint256",
          "name": "",
          "type": "uint256"
        }
      ],
      "stateMutability": "view",
      "type": "function"
    },
    {
      "inputs": [
        {
          "internalType": "uint256",
          "name": "_amountIn",
          "type": "uint256"
        },
        {
          "internalType": "address",
          "name": "_tokenIn",
          "type": "address"
        },
        {
          "internalType": "uint256",
          "name": "_swapVersion",
          "type": "uint256"
        }
      ],
      "name": "getIssuanceAmountOut2",
      "outputs": [
        {
          "internalType": "uint256",
          "name": "",
          "type": "uint256"
        }
      ],
      "stateMutability": "nonpayable",
      "type": "function"
    },
    {
      "inputs": [],
      "name": "getPortfolioBalance",
      "outputs": [
        {
          "internalType": "uint256",
          "name": "",
          "type": "uint256"
        }
      ],
      "stateMutability": "view",
      "type": "function"
    },
    {
      "inputs": [
        {
          "internalType": "uint256",
          "name": "_amountIn",
          "type": "uint256"
        },
        {
          "internalType": "address",
          "name": "_tokenOut",
          "type": "address"
        },
        {
          "internalType": "uint256",
          "name": "_swapVersion",
          "type": "uint256"
        }
      ],
      "name": "getRedemptionAmountOut",
      "outputs": [
        {
          "internalType": "uint256",
          "name": "",
          "type": "uint256"
        }
      ],
      "stateMutability": "view",
      "type": "function"
    },
    {
      "inputs": [
        {
          "internalType": "uint256",
          "name": "_amountIn",
          "type": "uint256"
        },
        {
          "internalType": "address",
          "name": "_tokenOut",
          "type": "address"
        },
        {
          "internalType": "uint256",
          "name": "_swapVersion",
          "type": "uint256"
        }
      ],
      "name": "getRedemptionAmountOut2",
      "outputs": [
        {
          "internalType": "uint256",
          "name": "",
          "type": "uint256"
        }
      ],
      "stateMutability": "nonpayable",
      "type": "function"
    },
    {
      "inputs": [],
      "name": "indexToken",
      "outputs": [
        {
          "internalType": "contract IndexToken",
          "name": "",
          "type": "address"
        }
      ],
      "stateMutability": "view",
      "type": "function"
    },
    {
      "inputs": [
        {
          "internalType": "address payable",
          "name": "_token",
          "type": "address"
        },
        {
          "internalType": "address",
          "name": "_chainlinkToken",
          "type": "address"
        },
        {
          "internalType": "address",
          "name": "_oracleAddress",
          "type": "address"
        },
        {
          "internalType": "bytes32",
          "name": "_externalJobId",
          "type": "bytes32"
        },
        {
          "internalType": "address",
          "name": "_toUsdPriceFeed",
          "type": "address"
        },
        {
          "internalType": "address",
          "name": "_weth",
          "type": "address"
        },
        {
          "internalType": "address",
          "name": "_quoter",
          "type": "address"
        },
        {
          "internalType": "address",
          "name": "_swapRouterV3",
          "type": "address"
        },
        {
          "internalType": "address",
          "name": "_factoryV3",
          "type": "address"
        },
        {
          "internalType": "address",
          "name": "_swapRouterV2",
          "type": "address"
        },
        {
          "internalType": "address",
          "name": "_factoryV2",
          "type": "address"
        }
      ],
      "name": "initialize",
      "outputs": [],
      "stateMutability": "nonpayable",
      "type": "function"
    },
    {
      "inputs": [
        {
          "internalType": "address",
          "name": "",
          "type": "address"
        }
      ],
      "name": "isRestricted",
      "outputs": [
        {
          "internalType": "bool",
          "name": "",
          "type": "bool"
        }
      ],
      "stateMutability": "view",
      "type": "function"
    },
    {
      "inputs": [
        {
          "internalType": "address",
          "name": "_tokenIn",
          "type": "address"
        },
        {
          "internalType": "uint256",
          "name": "_amountIn",
          "type": "uint256"
        },
        {
          "internalType": "uint256",
          "name": "_tokenInSwapVersion",
          "type": "uint256"
        }
      ],
      "name": "issuanceIndexTokens",
      "outputs": [],
      "stateMutability": "nonpayable",
      "type": "function"
    },
    {
      "inputs": [
        {
          "internalType": "uint256",
          "name": "_inputAmount",
          "type": "uint256"
        }
      ],
      "name": "issuanceIndexTokensWithEth",
      "outputs": [],
      "stateMutability": "payable",
      "type": "function"
    },
    {
      "inputs": [],
      "name": "lastUpdateTime",
      "outputs": [
        {
          "internalType": "uint256",
          "name": "",
          "type": "uint256"
        }
      ],
      "stateMutability": "view",
      "type": "function"
    },
    {
      "inputs": [],
      "name": "latestFeeUpdate",
      "outputs": [
        {
          "internalType": "uint256",
          "name": "",
          "type": "uint256"
        }
      ],
      "stateMutability": "view",
      "type": "function"
    },
    {
      "inputs": [],
      "name": "methodologist",
      "outputs": [
        {
          "internalType": "address",
          "name": "",
          "type": "address"
        }
      ],
      "stateMutability": "view",
      "type": "function"
    },
    {
      "inputs": [],
      "name": "methodology",
      "outputs": [
        {
          "internalType": "string",
          "name": "",
          "type": "string"
        }
      ],
      "stateMutability": "view",
      "type": "function"
    },
    {
      "inputs": [],
      "name": "minter",
      "outputs": [
        {
          "internalType": "address",
          "name": "",
          "type": "address"
        }
      ],
      "stateMutability": "view",
      "type": "function"
    },
    {
      "inputs": [
        {
          "internalType": "address[]",
          "name": "_tokens",
          "type": "address[]"
        },
        {
          "internalType": "uint256[]",
          "name": "_marketShares",
          "type": "uint256[]"
        },
        {
          "internalType": "uint256[]",
          "name": "_swapVersions",
          "type": "uint256[]"
        }
      ],
      "name": "mockFillAssetsList",
      "outputs": [],
      "stateMutability": "nonpayable",
      "type": "function"
    },
    {
      "inputs": [
        {
          "internalType": "uint256",
          "name": "",
          "type": "uint256"
        }
      ],
      "name": "oracleList",
      "outputs": [
        {
          "internalType": "address",
          "name": "",
          "type": "address"
        }
      ],
      "stateMutability": "view",
      "type": "function"
    },
    {
      "inputs": [],
      "name": "oraclePayment",
      "outputs": [
        {
          "internalType": "uint256",
          "name": "",
          "type": "uint256"
        }
      ],
      "stateMutability": "view",
      "type": "function"
    },
    {
      "inputs": [],
      "name": "owner",
      "outputs": [
        {
          "internalType": "address",
          "name": "",
          "type": "address"
        }
      ],
      "stateMutability": "view",
      "type": "function"
    },
    {
      "inputs": [],
      "name": "pause",
      "outputs": [],
      "stateMutability": "nonpayable",
      "type": "function"
    },
    {
      "inputs": [],
      "name": "paused",
      "outputs": [
        {
          "internalType": "bool",
          "name": "",
          "type": "bool"
        }
      ],
      "stateMutability": "view",
      "type": "function"
    },
    {
      "inputs": [],
      "name": "priceInWei",
      "outputs": [
        {
          "internalType": "uint256",
          "name": "",
          "type": "uint256"
        }
      ],
      "stateMutability": "view",
      "type": "function"
    },
    {
      "inputs": [
        {
          "internalType": "address",
          "name": "_proposedOwner",
          "type": "address"
        }
      ],
      "name": "proposeOwner",
      "outputs": [],
      "stateMutability": "nonpayable",
      "type": "function"
    },
    {
      "inputs": [],
      "name": "proposedOwner",
      "outputs": [
        {
          "internalType": "address",
          "name": "",
          "type": "address"
        }
      ],
      "stateMutability": "view",
      "type": "function"
    },
    {
      "inputs": [],
      "name": "quoter",
      "outputs": [
        {
          "internalType": "contract IQuoter",
          "name": "",
          "type": "address"
        }
      ],
      "stateMutability": "view",
      "type": "function"
    },
    {
      "inputs": [],
      "name": "reIndexAndReweight",
      "outputs": [],
      "stateMutability": "nonpayable",
      "type": "function"
    },
    {
      "inputs": [
        {
          "internalType": "uint256",
          "name": "amountIn",
          "type": "uint256"
        },
        {
          "internalType": "address",
          "name": "_tokenOut",
          "type": "address"
        },
        {
          "internalType": "uint256",
          "name": "_tokenOutSwapVersion",
          "type": "uint256"
        }
      ],
      "name": "redemption",
      "outputs": [
        {
          "internalType": "uint256",
          "name": "",
          "type": "uint256"
        }
      ],
      "stateMutability": "nonpayable",
      "type": "function"
    },
    {
      "inputs": [],
      "name": "renounceOwnership",
      "outputs": [],
      "stateMutability": "nonpayable",
      "type": "function"
    },
    {
      "inputs": [],
      "name": "requestAssetsData",
      "outputs": [
        {
          "internalType": "bytes32",
          "name": "",
          "type": "bytes32"
        }
      ],
      "stateMutability": "nonpayable",
      "type": "function"
    },
    {
      "inputs": [
        {
          "internalType": "uint8",
          "name": "_newFee",
          "type": "uint8"
        }
      ],
      "name": "setFeeRate",
      "outputs": [],
      "stateMutability": "nonpayable",
      "type": "function"
    },
    {
      "inputs": [
        {
          "internalType": "address",
          "name": "_toUsdPricefeed",
          "type": "address"
        }
      ],
      "name": "setPriceFeed",
      "outputs": [],
      "stateMutability": "nonpayable",
      "type": "function"
    },
    {
      "inputs": [
        {
          "internalType": "string",
          "name": "_beforeAddress",
          "type": "string"
        },
        {
          "internalType": "string",
          "name": "_afterAddress",
          "type": "string"
        }
      ],
      "name": "setUrl",
      "outputs": [],
      "stateMutability": "nonpayable",
      "type": "function"
    },
    {
      "inputs": [],
      "name": "supplyCeiling",
      "outputs": [
        {
          "internalType": "uint256",
          "name": "",
          "type": "uint256"
        }
      ],
      "stateMutability": "view",
      "type": "function"
    },
    {
      "inputs": [],
      "name": "swapRouterV2",
      "outputs": [
        {
          "internalType": "contract IUniswapV2Router02",
          "name": "",
          "type": "address"
        }
      ],
      "stateMutability": "view",
      "type": "function"
    },
    {
      "inputs": [],
      "name": "swapRouterV3",
      "outputs": [
        {
          "internalType": "contract ISwapRouter",
          "name": "",
          "type": "address"
        }
      ],
      "stateMutability": "view",
      "type": "function"
    },
    {
      "inputs": [],
      "name": "toUsdPriceFeed",
      "outputs": [
        {
          "internalType": "contract AggregatorV3Interface",
          "name": "",
          "type": "address"
        }
      ],
      "stateMutability": "view",
      "type": "function"
    },
    {
      "inputs": [
        {
          "internalType": "address",
          "name": "",
          "type": "address"
        }
      ],
      "name": "tokenCurrentListIndex",
      "outputs": [
        {
          "internalType": "uint256",
          "name": "",
          "type": "uint256"
        }
      ],
      "stateMutability": "view",
      "type": "function"
    },
    {
      "inputs": [
        {
          "internalType": "address",
          "name": "",
          "type": "address"
        }
      ],
      "name": "tokenCurrentMarketShare",
      "outputs": [
        {
          "internalType": "uint256",
          "name": "",
          "type": "uint256"
        }
      ],
      "stateMutability": "view",
      "type": "function"
    },
    {
      "inputs": [
        {
          "internalType": "address",
          "name": "",
          "type": "address"
        }
      ],
      "name": "tokenOracleListIndex",
      "outputs": [
        {
          "internalType": "uint256",
          "name": "",
          "type": "uint256"
        }
      ],
      "stateMutability": "view",
      "type": "function"
    },
    {
      "inputs": [
        {
          "internalType": "address",
          "name": "",
          "type": "address"
        }
      ],
      "name": "tokenOracleMarketShare",
      "outputs": [
        {
          "internalType": "uint256",
          "name": "",
          "type": "uint256"
        }
      ],
      "stateMutability": "view",
      "type": "function"
    },
    {
      "inputs": [
        {
          "internalType": "address",
          "name": "",
          "type": "address"
        }
      ],
      "name": "tokenSwapVersion",
      "outputs": [
        {
          "internalType": "uint256",
          "name": "",
          "type": "uint256"
        }
      ],
      "stateMutability": "view",
      "type": "function"
    },
    {
      "inputs": [],
      "name": "totalCurrentList",
      "outputs": [
        {
          "internalType": "uint256",
          "name": "",
          "type": "uint256"
        }
      ],
      "stateMutability": "view",
      "type": "function"
    },
    {
      "inputs": [],
      "name": "totalOracleList",
      "outputs": [
        {
          "internalType": "uint256",
          "name": "",
          "type": "uint256"
        }
      ],
      "stateMutability": "view",
      "type": "function"
    },
    {
      "inputs": [
        {
          "internalType": "address",
          "name": "newOwner",
          "type": "address"
        }
      ],
      "name": "transferOwnership",
      "outputs": [],
      "stateMutability": "nonpayable",
      "type": "function"
    },
    {
      "inputs": [],
      "name": "unpause",
      "outputs": [],
      "stateMutability": "nonpayable",
      "type": "function"
    },
    {
      "inputs": [],
      "name": "weth",
      "outputs": [
        {
          "internalType": "contract IWETH",
          "name": "",
          "type": "address"
        }
      ],
      "stateMutability": "view",
      "type": "function"
    },
    {
      "stateMutability": "payable",
      "type": "receive"
    }
  ],
  "bytecode": {
    "object": "0x608060405234801561001057600080fd5b50615f0280620000216000396000f3fe6080604052600436106103a65760003560e01c8063744fbc7a116101e7578063b3951b671161010d578063c8b76e70116100a0578063ddca3f431161006f578063ddca3f4314610ad8578063e267078a14610aee578063e7d015f214610b0e578063f2fde38b14610b2e57600080fd5b8063c8b76e7014610a55578063c8f33c9114610a75578063d153b60c14610a8b578063d90bc21114610aab57600080fd5b8063bf938db8116100dc578063bf938db8146109cf578063c01bc982146109ef578063c6bbd5a714610a1f578063c8599ded14610a3f57600080fd5b8063b3951b671461094f578063b3f006741461096f578063b5ed298a1461098f578063b631e80b146109af57600080fd5b80639932ba4c11610185578063a73e1cbf11610154578063a73e1cbf146108e4578063a8509fd814610904578063a8b54bd414610919578063abdd5f3f1461092f57600080fd5b80639932ba4c146108645780639eeb1d501461089a5780639f8e67bf146108af578063a2ab905d146108cf57600080fd5b80638c88c10c116101c15780638c88c10c146107c05780638da5cb5b146107ed578063914f0cc61461080b578063978bbdb91461083857600080fd5b8063744fbc7a146107765780637ca58c55146107965780638456cb59146107ab57600080fd5b806336aab86c116102cc5780635177942a1161026a578063686f917511610239578063686f91751461070157806368e0d4e114610721578063715018a614610741578063724e78da1461075657600080fd5b80635177942a1461068757806353fd4332146106a75780635c975abb146106bd57806363973fda146106e157600080fd5b80633f4ba83a116102a65780633f4ba83a146106055780633fc8cef31461061a578063465a4c941461063a5780634b3e0b801461065a57600080fd5b806336aab86c146105bb578063372d4c55146105dd5780633c8da588146105f057600080fd5b8063156a5da111610344578063239aad0d11610313578063239aad0d146105395780632b52684d1461056f5780632b9522e0146105855780632fecd589146105a557600080fd5b8063156a5da1146104c3578063184a732f146104e35780631d5f45f5146104f95780631ff015631461051957600080fd5b80630be52713116103805780630be52713146104335780630c02e130146104605780630e3293571461047657806313cb1f83146104a357600080fd5b8063011ced5f146103b257806302e04015146103db57806307546172146103fb57600080fd5b366103ad57005b600080fd5b3480156103be57600080fd5b506103c860d35481565b6040519081526020015b60405180910390f35b3480156103e757600080fd5b506103c86103f636600461565a565b610b4e565b34801561040757600080fd5b5060d85461041b906001600160a01b031681565b6040516001600160a01b0390911681526020016103d2565b34801561043f57600080fd5b506103c861044e3660046150ef565b60e86020526000908152604090205481565b34801561046c57600080fd5b506103c860df5481565b34801561048257600080fd5b506104966104913660046155cf565b610c71565b6040516103d29190615878565b3480156104af57600080fd5b506103c86104be3660046152b2565b610c9e565b3480156104cf57600080fd5b506103c86104de3660046152b2565b610df2565b3480156104ef57600080fd5b506103c860d55481565b34801561050557600080fd5b5060ec5461041b906001600160a01b031681565b34801561052557600080fd5b506103c861053436600461565a565b610fd7565b34801561054557600080fd5b5061041b610554366004615628565b60e4602052600090815260409020546001600160a01b031681565b34801561057b57600080fd5b506103c860da5481565b34801561059157600080fd5b506103c86105a036600461565a565b611205565b3480156105b157600080fd5b506103c860d45481565b3480156105c757600080fd5b506105db6105d636600461553e565b6117ce565b005b6105db6105eb366004615628565b611b14565b3480156105fc57600080fd5b506103c8611fde565b34801561061157600080fd5b506105db612103565b34801561062657600080fd5b5060ef5461041b906001600160a01b031681565b34801561064657600080fd5b506105db610655366004615129565b612115565b34801561066657600080fd5b506103c86106753660046150ef565b60e96020526000908152604090205481565b34801561069357600080fd5b506105db6106a2366004615681565b61239b565b3480156106b357600080fd5b506103c860e35481565b3480156106c957600080fd5b50609e5460ff165b60405190151581526020016103d2565b3480156106ed57600080fd5b5060e05461041b906001600160a01b031681565b34801561070d57600080fd5b506103c861071c366004615271565b6124db565b34801561072d57600080fd5b5060ee5461041b906001600160a01b031681565b34801561074d57600080fd5b506105db6126b3565b34801561076257600080fd5b506105db6107713660046150ef565b6126c5565b34801561078257600080fd5b5060ed5461041b906001600160a01b031681565b3480156107a257600080fd5b506103c861275c565b3480156107b757600080fd5b506105db6129f7565b3480156107cc57600080fd5b506103c86107db3660046150ef565b60e66020526000908152604090205481565b3480156107f957600080fd5b506039546001600160a01b031661041b565b34801561081757600080fd5b506103c86108263660046150ef565b60e76020526000908152604090205481565b34801561084457600080fd5b5060d2546108529060ff1681565b60405160ff90911681526020016103d2565b34801561087057600080fd5b5061041b61087f366004615628565b60e5602052600090815260409020546001600160a01b031681565b3480156108a657600080fd5b50610496612a07565b3480156108bb57600080fd5b5060d75461041b906001600160a01b031681565b3480156108db57600080fd5b506105db612a95565b3480156108f057600080fd5b506105db6108ff3660046155cf565b612cee565b34801561091057600080fd5b506103c8612d22565b34801561092557600080fd5b506103c860de5481565b34801561093b57600080fd5b506105db61094a3660046152f8565b612e1d565b34801561095b57600080fd5b506103c861096a36600461565a565b613239565b34801561097b57600080fd5b5060d65461041b906001600160a01b031681565b34801561099b57600080fd5b506105db6109aa3660046150ef565b613428565b3480156109bb57600080fd5b5060eb5461041b906001600160a01b031681565b3480156109db57600080fd5b506103c86109ea366004615200565b613478565b3480156109fb57600080fd5b506106d1610a0a3660046150ef565b60db6020526000908152604090205460ff1681565b348015610a2b57600080fd5b5060f05461041b906001600160a01b031681565b348015610a4b57600080fd5b506103c860e25481565b348015610a6157600080fd5b506103c8610a7036600461565a565b613531565b348015610a8157600080fd5b506103c860e15481565b348015610a9757600080fd5b50606b5461041b906001600160a01b031681565b348015610ab757600080fd5b506103c8610ac63660046150ef565b60ea6020526000908152604090205481565b348015610ae457600080fd5b506103c860d15481565b348015610afa57600080fd5b506105db610b0936600461532d565b613637565b348015610b1a57600080fd5b5060d05461041b906001600160a01b031681565b348015610b3a57600080fd5b506105db610b493660046150ef565b6138c7565b600080610b59612d22565b9050600060d060009054906101000a90046001600160a01b03166001600160a01b03166318160ddd6040518163ffffffff1660e01b815260040160206040518083038186803b158015610bab57600080fd5b505afa158015610bbf573d6000803e3d6000fd5b505050506040513d601f19601f82011682018060405250810190610be39190615641565b610bf587670de0b6b3a7640000615c51565b610bff9190615a8e565b90506000670de0b6b3a7640000610c168484615c51565b610c209190615a8e565b60ef549091506001600160a01b0387811691161415610c43579250610c6a915050565b60ef54600090610c5e906001600160a01b0316888489610c9e565b9450610c6a9350505050565b9392505050565b60608282604051602001610c86929190615770565b60405160208183030381529060405290505b92915050565b6000808315610de7578260031415610cc457610cbd8686866001613478565b9050610de7565b6040805160028082526060820183526000926020830190803683370190505090508681600081518110610cf957610cf9615e24565b60200260200101906001600160a01b031690816001600160a01b0316815250508581600181518110610d2d57610d2d615e24565b6001600160a01b03928316602091820292909201015260ed5460405163d06ca61f60e01b8152600092919091169063d06ca61f90610d71908990869060040161596a565b60006040518083038186803b158015610d8957600080fd5b505afa158015610d9d573d6000803e3d6000fd5b505050506040513d6000823e601f3d908101601f19168201604052610dc59190810190615485565b905080600181518110610dda57610dda615e24565b6020026020010151925050505b90505b949350505050565b60008160031415610ea95760f05460405163f7729d4360e01b81526001600160a01b0387811660048301528681166024830152610bb860448301526064820186905260006084830181905292169063f7729d439060a401602060405180830381600087803b158015610e6357600080fd5b505af1925050508015610e93575060408051601f3d908101601f19168201909252610e9091810190615641565b60015b610e9f57506000610ea2565b90505b9050610dea565b6040805160028082526060820183526000926020830190803683370190505090508581600081518110610ede57610ede615e24565b60200260200101906001600160a01b031690816001600160a01b0316815250508481600181518110610f1257610f12615e24565b6001600160a01b03928316602091820292909201015260ed5460405163d06ca61f60e01b8152600092919091169063d06ca61f90610f56908890869060040161596a565b60006040518083038186803b158015610f6e57600080fd5b505afa925050508015610fa357506040513d6000823e601f3d908101601f19168201604052610fa09190810190615485565b60015b610faf57506000610fce565b80600181518110610fc257610fc2615e24565b60200260200101519150505b9150610dea9050565b60008060d060009054906101000a90046001600160a01b03166001600160a01b03166318160ddd6040518163ffffffff1660e01b815260040160206040518083038186803b15801561102857600080fd5b505afa15801561103c573d6000803e3d6000fd5b505050506040513d601f19601f820116820180604052508101906110609190615641565b61107286670de0b6b3a7640000615c51565b61107c9190615a8e565b90506000805b60e35481101561119957600081815260e560205260408082205460d05491516370a0823160e01b81526001600160a01b039283166004820152670de0b6b3a764000092909116906370a082319060240160206040518083038186803b1580156110ea57600080fd5b505afa1580156110fe573d6000803e3d6000fd5b505050506040513d601f19601f820116820180604052508101906111229190615641565b61112c9086615c51565b6111369190615a8e565b600083815260e5602090815260408083205460ef546001600160a01b0391821680865260ea90945291842054949550929361117693909116908590610df2565b90506111828185615a12565b93505050808061119190615da7565b915050611082565b5060d254600090612710906111b19060ff1684615c51565b6111bb9190615a8e565b90506111c78183615ce8565b60ef549092506001600160a01b03878116911614156111ea57509150610c6a9050565b60ef54600090610c5e906001600160a01b0316888589610df2565b60008060d060009054906101000a90046001600160a01b03166001600160a01b03166318160ddd6040518163ffffffff1660e01b815260040160206040518083038186803b15801561125657600080fd5b505afa15801561126a573d6000803e3d6000fd5b505050506040513d601f19601f8201168201806040525081019061128e9190615641565b6112a086670de0b6b3a7640000615c51565b6112aa9190615a8e565b60d054604051632770a7eb60e21b8152336004820152602481018890529192506001600160a01b031690639dc29fac90604401600060405180830381600087803b1580156112f757600080fd5b505af115801561130b573d6000803e3d6000fd5b5060009250829150505b60e35481101561142e57600081815260e560205260408082205460d05491516370a0823160e01b81526001600160a01b039283166004820152670de0b6b3a764000092909116906370a082319060240160206040518083038186803b15801561137d57600080fd5b505afa158015611391573d6000803e3d6000fd5b505050506040513d601f19601f820116820180604052508101906113b59190615641565b6113bf9086615c51565b6113c99190615a8e565b600083815260e5602090815260408083205460ef546001600160a01b0391821680865260ea90945291842054949550929361140b9390911690859030906139ef565b90506114178185615a12565b93505050808061142690615da7565b915050611315565b5060d254600090612710906114469060ff1684615c51565b6114509190615a8e565b60ef549091506001600160a01b038781169116141561166b5760ef54604051632e1a7d4d60e01b8152600481018490526001600160a01b0390911690632e1a7d4d90602401600060405180830381600087803b1580156114af57600080fd5b505af11580156114c3573d6000803e3d6000fd5b5050505060006114db6039546001600160a01b031690565b6001600160a01b03168260405160006040518083038185875af1925050503d8060008114611525576040519150601f19603f3d011682016040523d82523d6000602084013e61152a565b606091505b50509050806115545760405162461bcd60e51b815260040161154b9061588b565b60405180910390fd5b6000336115618486615ce8565b604051600081818185875af1925050503d806000811461159d576040519150601f19603f3d011682016040523d82523d6000602084013e6115a2565b606091505b50509050806115ff5760405162461bcd60e51b815260206004820152602360248201527f7472616e73666572206574682066656520746f207468652075736572206661696044820152621b195960ea1b606482015260840161154b565b6001600160a01b038816337f4f808f68134f8b72b842a276c2b37b03415d4992c65a94fcee50d33201915b998b6116368789615ce8565b604080519283526020830191909152429082015260600160405180910390a361165f8385615ce8565b95505050505050610c6a565b60ef54604051632e1a7d4d60e01b8152600481018390526001600160a01b0390911690632e1a7d4d90602401600060405180830381600087803b1580156116b157600080fd5b505af11580156116c5573d6000803e3d6000fd5b5050505060006116dd6039546001600160a01b031690565b6001600160a01b03168260405160006040518083038185875af1925050503d8060008114611727576040519150601f19603f3d011682016040523d82523d6000602084013e61172c565b606091505b505090508061174d5760405162461bcd60e51b815260040161154b9061588b565b60ef54600090611772906001600160a01b03168961176b8688615ce8565b338b613ac7565b604080518b815260208101839052428183015290519192506001600160a01b038a169133917f4f808f68134f8b72b842a276c2b37b03415d4992c65a94fcee50d33201915b99919081900360600190a39450610c6a9350505050565b60008481526005602052604090205484906001600160a01b031633146118475760405162461bcd60e51b815260206004820152602860248201527f536f75726365206d75737420626520746865206f7261636c65206f6620746865604482015267081c995c5d595cdd60c21b606482015260840161154b565b60008181526005602052604080822080546001600160a01b03191690555182917f7cc135e0cebb02c3480ae5d74d377283180a2601f8f644edf7987b009316c63a91a283838360005b8351811015611af3578381815181106118ab576118ab615e24565b602002602001015160e4600083815260200190815260200160002060006101000a8154816001600160a01b0302191690836001600160a01b031602179055508060e6600086848151811061190157611901615e24565b60200260200101516001600160a01b03166001600160a01b031681526020019081526020016000208190555082818151811061193f5761193f615e24565b602002602001015160e9600086848151811061195d5761195d615e24565b60200260200101516001600160a01b03166001600160a01b031681526020019081526020016000208190555081818151811061199b5761199b615e24565b602002602001015160ea60008684815181106119b9576119b9615e24565b60200260200101516001600160a01b03166001600160a01b031681526020019081526020016000208190555060e35460001415611ae157838181518110611a0257611a02615e24565b602002602001015160e5600083815260200190815260200160002060006101000a8154816001600160a01b0302191690836001600160a01b03160217905550828181518110611a5357611a53615e24565b602002602001015160e86000868481518110611a7157611a71615e24565b60200260200101516001600160a01b03166001600160a01b03168152602001908152602001600020819055508060e76000868481518110611ab457611ab4615e24565b60200260200101516001600160a01b03166001600160a01b03168152602001908152602001600020819055505b80611aeb81615da7565b915050611890565b50825160e25560e354611b0657825160e3555b50504260e155505050505050565b60d25460009061271090611b2b9060ff1684615c51565b611b359190615a8e565b90506000611b438284615a12565b905080341015611b955760405162461bcd60e51b815260206004820152601a60248201527f6c6f776572207468616e20726571756972656420616d6f756e74000000000000604482015260640161154b565b6000611ba96039546001600160a01b031690565b6001600160a01b031660d15460405160006040518083038185875af1925050503d8060008114611bf5576040519150601f19603f3d011682016040523d82523d6000602084013e611bfa565b606091505b5050905080611c1b5760405162461bcd60e51b815260040161154b9061588b565b60ef60009054906101000a90046001600160a01b03166001600160a01b031663d0e30db0856040518263ffffffff1660e01b81526004016000604051808303818588803b158015611c6b57600080fd5b505af1158015611c7f573d6000803e3d6000fd5b505060ef5460d05460405163a9059cbb60e01b81526001600160a01b039182166004820152602481018a90529116935063a9059cbb92506044019050602060405180830381600087803b158015611cd557600080fd5b505af1158015611ce9573d6000803e3d6000fd5b505050506040513d601f19601f82011682018060405250810190611d0d919061551c565b506000611d18612d22565b90508460005b60e354811015611dc15760ef54600082815260e560209081526040808320546001600160a01b0390811680855260e8909352922054611dae93929092169168056bc75e2d6310000090611d719087615c51565b611d7b9190615a8e565b60d054600086815260e560209081526040808320546001600160a01b03908116845260ea909252909120549116906139ef565b5080611db981615da7565b915050611d1e565b5060008060d060009054906101000a90046001600160a01b03166001600160a01b03166318160ddd6040518163ffffffff1660e01b815260040160206040518083038186803b158015611e1357600080fd5b505afa158015611e27573d6000803e3d6000fd5b505050506040513d601f19601f82011682018060405250810190611e4b9190615641565b1115611ef457828260d060009054906101000a90046001600160a01b03166001600160a01b03166318160ddd6040518163ffffffff1660e01b815260040160206040518083038186803b158015611ea157600080fd5b505afa158015611eb5573d6000803e3d6000fd5b505050506040513d601f19601f82011682018060405250810190611ed99190615641565b611ee39190615c51565b611eed9190615a8e565b9050611f20565b6000611efe611fde565b9050662386f26fc10000611f128285615c51565b611f1c9190615a8e565b9150505b60d0546040516340c10f1960e01b8152336004820152602481018390526001600160a01b03909116906340c10f1990604401600060405180830381600087803b158015611f6c57600080fd5b505af1158015611f80573d6000803e3d6000fd5b505060ef54604080518b815260208101869052428183015290516001600160a01b0390921693503392507f4fee1c514ee0e252e3a0babfa8b5030fb89be7ea2b38df9a7fbbf788e54f3d91919081900360600190a350505050505050565b60008060e060009054906101000a90046001600160a01b03166001600160a01b031663feaf968c6040518163ffffffff1660e01b815260040160a06040518083038186803b15801561202f57600080fd5b505afa158015612043573d6000803e3d6000fd5b505050506040513d601f19601f82011682018060405250810190612067919061569e565b505050915050600060e060009054906101000a90046001600160a01b03166001600160a01b031663313ce5676040518163ffffffff1660e01b815260040160206040518083038186803b1580156120bd57600080fd5b505afa1580156120d1573d6000803e3d6000fd5b505050506040513d601f19601f820116820180604052508101906120f591906156ee565b9050610c6a82826012613ddf565b61210b613e1f565b612113613e79565b565b600654610100900460ff16158080156121355750600654600160ff909116105b8061214f5750303b15801561214f575060065460ff166001145b6121b25760405162461bcd60e51b815260206004820152602e60248201527f496e697469616c697a61626c653a20636f6e747261637420697320616c72656160448201526d191e481a5b9a5d1a585b1a5e995960921b606482015260840161154b565b6006805460ff1916600117905580156121d5576006805461ff0019166101001790555b6121dd613ecb565b6121e5613efa565b60d080546001600160a01b038e166001600160a01b03199091161790556122298b600280546001600160a01b039092166001600160a01b0319909216919091179055565b600380546001600160a01b0319166001600160a01b038c1617905560de899055600a61225e670de0b6b3a76400006001615c51565b6122689190615a8e565b60df5560e080546001600160a01b03199081166001600160a01b038b81169190911790925560ef805482168a841617905560f08054821689841617905560eb8054821688841617905560ec8054821687841617905560ed8054821686841617905560ee805490911691841691909117905560d28054600a60ff199091161790554260d3556040805160608101909152602a808252615e75602083013980516123189160dc91602090910190614e3e565b506040518060600160405280602e8152602001615e9f602e913980516123469160dd91602090910190614e3e565b50801561238d576006805461ff0019169055604051600181527f7f26b83ff96e1f2b6a682f133852f6798a09c465da95921460cefb38474024989060200160405180910390a15b505050505050505050505050565b6123a3613e1f565b600060d354426123b39190615ce8565b9050600c603c6123c38184615a8e565b6123cd9190615a8e565b116124405760405162461bcd60e51b815260206004820152603960248201527f596f752073686f756c642077616974206174206c6561737420313220686f757260448201527f7320616674657220746865206c61746573742075706461746500000000000000606482015260840161154b565b60648260ff1611158015612458575060018260ff1610155b6124c05760405162461bcd60e51b815260206004820152603360248201527f546865206e65774665652073686f756c64206265206265747765656e203120616044820152726e64203130302028302e303125202d2031252960681b606482015260840161154b565b5060d2805460ff191660ff929092169190911790554260d355565b60f05460405163f7729d4360e01b81526001600160a01b0385811660048301528481166024830152610bb860448301526064820184905260006084830181905292839291169063f7729d439060a401602060405180830381600087803b15801561254457600080fd5b505af1925050508015612574575060408051601f3d908101601f1916820190925261257191810190615641565b60015b61258057506000612583565b90505b60408051600280825260608201835260009260208301908036833701905050905085816000815181106125b8576125b8615e24565b60200260200101906001600160a01b031690816001600160a01b03168152505084816001815181106125ec576125ec615e24565b6001600160a01b03928316602091820292909201015260ed5460405163d06ca61f60e01b8152600092919091169063d06ca61f90612630908890869060040161596a565b60006040518083038186803b15801561264857600080fd5b505afa92505050801561267d57506040513d6000823e601f3d908101601f1916820160405261267a9190810190615485565b60015b612689575060006126a8565b8060018151811061269c5761269c615e24565b60200260200101519150505b509095945050505050565b6126bb613e1f565b6121136000613f29565b6126cd613e1f565b6001600160a01b03811661273a5760405162461bcd60e51b815260206004820152602e60248201527f49434f3a205072696365206665656420616464726573732063616e6e6f74206260448201526d65207a65726f206164647265737360901b606482015260840161154b565b60e080546001600160a01b0319166001600160a01b0392909216919091179055565b60008061287d60dc805461276f90615d72565b80601f016020809104026020016040519081016040528092919081815260200182805461279b90615d72565b80156127e85780601f106127bd576101008083540402835291602001916127e8565b820191906000526020600020905b8154815290600101906020018083116127cb57829003601f168201915b505050505060dd80546127fa90615d72565b80601f016020809104026020016040519081016040528092919081815260200182805461282690615d72565b80156128735780601f1061284857610100808354040283529160200191612873565b820191906000526020600020905b81548152906001019060200180831161285657829003601f168201915b5050505050610c71565b9050600061289560de54306336aab86c60e01b613f7b565b60408051808201909152600381526219d95d60ea1b60208201529091506128be90829084613f97565b61291660405180604001604052806005815260200164706174683160d81b8152506040518060400160405280600e81526020016d726573756c74732c746f6b656e7360901b81525083613f979092919063ffffffff16565b612974604051806040016040528060058152602001643830ba341960d91b81525060405180604001604052806014815260200173726573756c74732c6d61726b657453686172657360601b81525083613f979092919063ffffffff16565b6129d260405180604001604052806005815260200164706174683360d81b81525060405180604001604052806014815260200173726573756c74732c7377617056657273696f6e7360601b81525083613f979092919063ffffffff16565b6129f06129e76003546001600160a01b031690565b8260df54613fb5565b9250505090565b6129ff613e1f565b612113614048565b60d98054612a1490615d72565b80601f0160208091040260200160405190810160405280929190818152602001828054612a4090615d72565b8015612a8d5780601f10612a6257610100808354040283529160200191612a8d565b820191906000526020600020905b815481529060010190602001808311612a7057829003601f168201915b505050505081565b612a9d613e1f565b60005b60e354811015612b5757600081815260e56020526040908190205460ef5460d05492516370a0823160e01b81526001600160a01b039384166004820152612b4493928316929091169082906370a082319060240160206040518083038186803b158015612b0c57600080fd5b505afa158015612b20573d6000803e3d6000fd5b505050506040513d601f19601f82011682018060405250810190611d7b9190615641565b5080612b4f81615da7565b915050612aa0565b5060ef5460d0546040516370a0823160e01b81526001600160a01b03918216600482015260009291909116906370a082319060240160206040518083038186803b158015612ba457600080fd5b505afa158015612bb8573d6000803e3d6000fd5b505050506040513d601f19601f82011682018060405250810190612bdc9190615641565b905060005b60e254811015612ce45760ef54600082815260e460209081526040808320546001600160a01b0390811680855260e9909352922054612c7193929092169168056bc75e2d6310000090612c349087615c51565b612c3e9190615a8e565b60d054600086815260e460209081526040808320546001600160a01b03908116845260ea909252909120549116906139ef565b50600081815260e460209081526040808320805460e5845282852080546001600160a01b0319166001600160a01b0392831617905581548116855260e984528285205460e8855283862055905416835260e682528083205460e79092529091205580612cdc81615da7565b915050612be1565b505060e25460e355565b612cf6613e1f565b8151612d099060dc906020850190614e3e565b508051612d1d9060dd906020840190614e3e565b505050565b60008060005b60e354811015612e1757600081815260e560205260408082205460ef5460d05492516370a0823160e01b81526001600160a01b039384166004820152612df593928316929091169082906370a082319060240160206040518083038186803b158015612d9357600080fd5b505afa158015612da7573d6000803e3d6000fd5b505050506040513d601f19601f82011682018060405250810190612dcb9190615641565b600086815260e560209081526040808320546001600160a01b0316835260ea909152902054610c9e565b9050612e018184615a12565b9250508080612e0f90615da7565b915050612d28565b50919050565b60d25460009061271090612e349060ff1685615c51565b612e3e9190615a8e565b90506000612e4c8285615a12565b90506000612e58612d22565b60d0546040516323b872dd60e01b81523360048201526001600160a01b039182166024820152604481018890529192508716906323b872dd90606401602060405180830381600087803b158015612eae57600080fd5b505af1158015612ec2573d6000803e3d6000fd5b505050506040513d601f19601f82011682018060405250810190612ee6919061551c565b50856001600160a01b03166323b872dd33612f096039546001600160a01b031690565b6040516001600160e01b031960e085901b1681526001600160a01b0392831660048201529116602482015260448101869052606401602060405180830381600087803b158015612f5857600080fd5b505af1158015612f6c573d6000803e3d6000fd5b505050506040513d601f19601f82011682018060405250810190612f90919061551c565b5060ef5460d054600091612fb59189916001600160a01b03908116918a9116896139ef565b905060005b60e3548110156130205760ef54600082815260e560209081526040808320546001600160a01b0390811680855260e890935292205461300d93929092169168056bc75e2d6310000090611d719087615c51565b508061301881615da7565b915050612fba565b5060008060d060009054906101000a90046001600160a01b03166001600160a01b03166318160ddd6040518163ffffffff1660e01b815260040160206040518083038186803b15801561307257600080fd5b505afa158015613086573d6000803e3d6000fd5b505050506040513d601f19601f820116820180604052508101906130aa9190615641565b111561315357828260d060009054906101000a90046001600160a01b03166001600160a01b03166318160ddd6040518163ffffffff1660e01b815260040160206040518083038186803b15801561310057600080fd5b505afa158015613114573d6000803e3d6000fd5b505050506040513d601f19601f820116820180604052508101906131389190615641565b6131429190615c51565b61314c9190615a8e565b905061317f565b600061315d611fde565b9050662386f26fc100006131718285615c51565b61317b9190615a8e565b9150505b60d0546040516340c10f1960e01b8152336004820152602481018390526001600160a01b03909116906340c10f1990604401600060405180830381600087803b1580156131cb57600080fd5b505af11580156131df573d6000803e3d6000fd5b5050604080518a815260208101859052428183015290516001600160a01b038c1693503392507f4fee1c514ee0e252e3a0babfa8b5030fb89be7ea2b38df9a7fbbf788e54f3d919181900360600190a35050505050505050565b60ef546000906001600160a01b038481169116141561331957600061325c612d22565b9050600060d060009054906101000a90046001600160a01b03166001600160a01b03166318160ddd6040518163ffffffff1660e01b815260040160206040518083038186803b1580156132ae57600080fd5b505afa1580156132c2573d6000803e3d6000fd5b505050506040513d601f19601f820116820180604052508101906132e69190615641565b90506000811561330c57826132fb8884615c51565b6133059190615a8e565b905061330f565b50855b9250610c6a915050565b60ef546000906133359085906001600160a01b03168786610c9e565b90506000613341612d22565b9050600060d060009054906101000a90046001600160a01b03166001600160a01b03166318160ddd6040518163ffffffff1660e01b815260040160206040518083038186803b15801561339357600080fd5b505afa1580156133a7573d6000803e3d6000fd5b505050506040513d601f19601f820116820180604052508101906133cb9190615641565b9050600081156133f157826133e08584615c51565b6133ea9190615a8e565b905061341d565b60006133fb611fde565b9050662386f26fc1000061340f8287615c51565b6134199190615a8e565b9150505b9350610c6a92505050565b613430613e1f565b6001600160a01b0381166134565760405162461bcd60e51b815260040161154b906158cf565b606b80546001600160a01b0319166001600160a01b0392909216919091179055565b60ec54604051630b4c774160e11b81526001600160a01b0386811660048301528581166024830152610bb860448301526000928392911690631698ee829060640160206040518083038186803b1580156134d157600080fd5b505afa1580156134e5573d6000803e3d6000fd5b505050506040513d601f19601f82011682018060405250810190613509919061510c565b905060006135178285614085565b509050613526818689896142db565b979650505050505050565b60ef546000906001600160a01b038481169116141561361b576000613554612d22565b9050600060d060009054906101000a90046001600160a01b03166001600160a01b03166318160ddd6040518163ffffffff1660e01b815260040160206040518083038186803b1580156135a657600080fd5b505afa1580156135ba573d6000803e3d6000fd5b505050506040513d601f19601f820116820180604052508101906135de9190615641565b9050600081156135f357826132fb8884615c51565b60006135fd611fde565b9050662386f26fc10000613611828a615c51565b610c5e9190615a8e565b60ef546000906133359085906001600160a01b03168786610df2565b61363f613e1f565b82828260005b83518110156138a85783818151811061366057613660615e24565b602002602001015160e4600083815260200190815260200160002060006101000a8154816001600160a01b0302191690836001600160a01b031602179055508060e660008684815181106136b6576136b6615e24565b60200260200101516001600160a01b03166001600160a01b03168152602001908152602001600020819055508281815181106136f4576136f4615e24565b602002602001015160e9600086848151811061371257613712615e24565b60200260200101516001600160a01b03166001600160a01b031681526020019081526020016000208190555081818151811061375057613750615e24565b602002602001015160ea600086848151811061376e5761376e615e24565b60200260200101516001600160a01b03166001600160a01b031681526020019081526020016000208190555060e35460001415613896578381815181106137b7576137b7615e24565b602002602001015160e5600083815260200190815260200160002060006101000a8154816001600160a01b0302191690836001600160a01b0316021790555082818151811061380857613808615e24565b602002602001015160e8600086848151811061382657613826615e24565b60200260200101516001600160a01b03166001600160a01b03168152602001908152602001600020819055508060e7600086848151811061386957613869615e24565b60200260200101516001600160a01b03166001600160a01b03168152602001908152602001600020819055505b806138a081615da7565b915050613645565b50825160e25560e3546138bb57825160e3555b50504260e15550505050565b6001600160a01b0381166138ed5760405162461bcd60e51b815260040161154b906158cf565b606b546001600160a01b038281169116146139655760405162461bcd60e51b815260206004820152603260248201527f50726f706f7361626c654f776e61626c653a206e6577206f776e6572206973206044820152713737ba10383937b837b9b2b21037bbb732b960711b606482015260840161154b565b6001600160a01b03811633146139e35760405162461bcd60e51b815260206004820152603a60248201527f50726f706f7361626c654f776e61626c653a20746869732063616c6c206d757360448201527f74206265206d61646520627920746865206e6577206f776e6572000000000000606482015260840161154b565b6139ec81613f29565b50565b6000806139fe87878786610c9e565b905060008115613aa85760d0546040516305f370ed60e41b81526001600160a01b038a8116600483015289811660248301526044820189905287811660648301526084820187905290911690635f370ed09060a401602060405180830381600087803b158015613a6d57600080fd5b505af1158015613a81573d6000803e3d6000fd5b505050506040513d601f19601f82011682018060405250810190613aa59190615641565b90505b8360031415613aba579150613abe9050565b5090505b95945050505050565b60008160031415613c6c5760eb5460405163095ea7b360e01b81526001600160a01b039182166004820152602481018690529087169063095ea7b390604401602060405180830381600087803b158015613b2057600080fd5b505af1158015613b34573d6000803e3d6000fd5b505050506040513d601f19601f82011682018060405250810190613b58919061551c565b5060408051610100810182526001600160a01b03888116825287811660208301908152610bb883850190815287831660608501908152426080860190815260a086018b8152600060c0880181815260e0890182815260eb549a5163414bf38960e01b81528a518a166004820152975189166024890152955162ffffff166044880152935187166064870152915160848601525160a4850152905160c48401529051831660e483015292939091169063414bf3899061010401602060405180830381600087803b158015613c2a57600080fd5b505af1158015613c3e573d6000803e3d6000fd5b505050506040513d601f19601f82011682018060405250810190613c629190615641565b9250613abe915050565b6040805160028082526060820183526000926020830190803683370190505090508681600081518110613ca157613ca1615e24565b60200260200101906001600160a01b031690816001600160a01b0316815250508581600181518110613cd557613cd5615e24565b6001600160a01b03928316602091820292909201015260ed5460405163095ea7b360e01b81529082166004820152602481018790529088169063095ea7b390604401602060405180830381600087803b158015613d3157600080fd5b505af1158015613d45573d6000803e3d6000fd5b505050506040513d601f19601f82011682018060405250810190613d69919061551c565b5060ed54604051635c11d79560e01b81526001600160a01b0390911690635c11d79590613da390889060009086908a904290600401615983565b600060405180830381600087803b158015613dbd57600080fd5b505af1158015613dd1573d6000803e3d6000fd5b505050506000915050613abe565b60008260ff168260ff161115613e1557613df98383615cff565b613e0490600a615af1565b613e0e9085615b9d565b9050610c6a565b613df98284615cff565b6039546001600160a01b031633146121135760405162461bcd60e51b815260206004820181905260248201527f4f776e61626c653a2063616c6c6572206973206e6f7420746865206f776e6572604482015260640161154b565b613e816143e5565b609e805460ff191690557f5db9ee0a495bf2e6ff9c91a7834c1ba4fdd244a5e8aa4e537bd38aeae4b073aa335b6040516001600160a01b03909116815260200160405180910390a1565b600654610100900460ff16613ef25760405162461bcd60e51b815260040161154b9061591f565b61211361442e565b600654610100900460ff16613f215760405162461bcd60e51b815260040161154b9061591f565b61211361445e565b603980546001600160a01b038381166001600160a01b0319831681179093556040519116919082907f8be0079c531659141344cd1fd0a4f28419497f9722a3daafe3b4186f6b6457e090600090a35050565b613f83614ec2565b613f8b614ec2565b613abe81868686614491565b6080830151613fa690836144ce565b6080830151612d1d90826144ce565b600454600090613fc6816001615a12565b600455835160408086015160808701515191516000936320214ca360e11b93613ffe9386938493923092918a9160019160240161579f565b60408051601f198184030181529190526020810180516001600160e01b03166001600160e01b031990931692909217909152905061403e868386846144e5565b9695505050505050565b614050614652565b609e805460ff191660011790557f62e78cea01bee320cd4e420270b5ea74000d11b0c9f74754ebdbfc544b05a258613eae3390565b60008063ffffffff83166140c05760405162461bcd60e51b8152602060048201526002602482015261042560f41b604482015260640161154b565b60408051600280825260608201835260009260208301908036833701905050905083816000815181106140f5576140f5615e24565b602002602001019063ffffffff16908163ffffffff168152505060008160018151811061412457614124615e24565b602002602001019063ffffffff16908163ffffffff1681525050600080866001600160a01b031663883bdbfd846040518263ffffffff1660e01b815260040161416d919061582e565b60006040518083038186803b15801561418557600080fd5b505afa158015614199573d6000803e3d6000fd5b505050506040513d6000823e601f3d908101601f191682016040526141c191908101906153b4565b915091506000826000815181106141da576141da615e24565b6020026020010151836001815181106141f5576141f5615e24565b60200260200101516142079190615c70565b905060008260008151811061421e5761421e615e24565b60200260200101518360018151811061423957614239615e24565b602002602001015161424b9190615cc0565b905061425d63ffffffff891683615a2a565b965060008260060b128015614283575061427d63ffffffff891683615dc2565b60060b15155b15614296578661429281615d4e565b9750505b60006142af6001600160a01b0363ffffffff8b16615c22565b90506142cc640100000000600160c01b03602084901b1682615a68565b96505050505050509250929050565b6000806142e786614698565b90506001600160801b036001600160a01b0382161161436d5760006143156001600160a01b03831680615c51565b9050836001600160a01b0316856001600160a01b03161061434d57614348600160c01b876001600160801b0316836149b8565b614365565b61436581876001600160801b0316600160c01b6149b8565b9250506143dc565b600061438c6001600160a01b03831680680100000000000000006149b8565b9050836001600160a01b0316856001600160a01b0316106143c4576143bf600160801b876001600160801b0316836149b8565b613526565b61352681876001600160801b0316600160801b6149b8565b50949350505050565b609e5460ff166121135760405162461bcd60e51b815260206004820152601460248201527314185d5cd8589b194e881b9bdd081c185d5cd95960621b604482015260640161154b565b600654610100900460ff166144555760405162461bcd60e51b815260040161154b9061591f565b61211333613f29565b600654610100900460ff166144855760405162461bcd60e51b815260040161154b9061591f565b609e805460ff19169055565b614499614ec2565b6144a98560800151610100614a6b565b50509183526001600160a01b031660208301526001600160e01b031916604082015290565b6144db8260038351614ad0565b612d1d8282614bdd565b6040516bffffffffffffffffffffffff193060601b1660208201526034810184905260009060540160408051808303601f1901815282825280516020918201206000818152600590925291812080546001600160a01b0319166001600160a01b038a1617905590925082917fb5e6e01e79f91267dc17b4e6314d5d4d03593d2ceee0fbb452b750bd70ea5af99190a2600254604051630200057560e51b81526001600160a01b0390911690634000aea0906145a890889087908790600401615807565b602060405180830381600087803b1580156145c257600080fd5b505af11580156145d6573d6000803e3d6000fd5b505050506040513d601f19601f820116820180604052508101906145fa919061551c565b610dea5760405162461bcd60e51b815260206004820152602360248201527f756e61626c6520746f207472616e73666572416e6443616c6c20746f206f7261604482015262636c6560e81b606482015260840161154b565b609e5460ff16156121135760405162461bcd60e51b815260206004820152601060248201526f14185d5cd8589b194e881c185d5cd95960821b604482015260640161154b565b60008060008360020b126146af578260020b6146b7565b8260020b6000035b9050620d89e88111156146dd576040516315e4079d60e11b815260040160405180910390fd5b6000600182166146f157600160801b614703565b6ffffcb933bd6fad37aa2d162d1a5940015b70ffffffffffffffffffffffffffffffffff1690506002821615614737576ffff97272373d413259a46990580e213a0260801c5b6004821615614756576ffff2e50f5f656932ef12357cf3c7fdcc0260801c5b6008821615614775576fffe5caca7e10e4e61c3624eaa0941cd00260801c5b6010821615614794576fffcb9843d60f6159c9db58835c9266440260801c5b60208216156147b3576fff973b41fa98c081472e6896dfb254c00260801c5b60408216156147d2576fff2ea16466c96a3843ec78b326b528610260801c5b60808216156147f1576ffe5dee046a99a2a811c461f1969c30530260801c5b610100821615614811576ffcbe86c7900a88aedcffc83b479aa3a40260801c5b610200821615614831576ff987a7253ac413176f2b074cf7815e540260801c5b610400821615614851576ff3392b0822b70005940c7a398e4b70f30260801c5b610800821615614871576fe7159475a2c29b7443b29c7fa6e889d90260801c5b611000821615614891576fd097f3bdfd2022b8845ad8f792aa58250260801c5b6120008216156148b1576fa9f746462d870fdf8a65dc1f90e061e50260801c5b6140008216156148d1576f70d869a156d2a1b890bb3df62baf32f70260801c5b6180008216156148f1576f31be135f97d08fd981231505542fcfa60260801c5b62010000821615614912576f09aa508b5b7a84e1c677de54f3e99bc90260801c5b62020000821615614932576e5d6af8dedb81196699c329225ee6040260801c5b62040000821615614951576d2216e584f5fa1ea926041bedfe980260801c5b6208000082161561496e576b048a170391f7dc42444e8fa20260801c5b60008460020b131561498f57806000198161498b5761498b615e0e565b0490505b6401000000008106156149a35760016149a6565b60005b60ff16602082901c0192505050919050565b6000808060001985870985870292508281108382030391505080600014156149f257600084116149e757600080fd5b508290049050610c6a565b8084116149fe57600080fd5b6000848688096000868103871696879004966002600389028118808a02820302808a02820302808a02820302808a02820302808a02820302808a02909103029181900381900460010186841190950394909402919094039290920491909117919091029150509392505050565b604080518082019091526060815260006020820152614a8b602083615de4565b15614ab357614a9b602083615de4565b614aa6906020615ce8565b614ab09083615a12565b91505b506020828101829052604080518085526000815290920101905290565b6017816001600160401b031611614afa57614af48360e0600585901b168317614c04565b50505050565b60ff816001600160401b031611614b3657614b20836018611fe0600586901b1617614c04565b50614af4836001600160401b0383166001614c29565b61ffff816001600160401b031611614b7357614b5d836019611fe0600586901b1617614c04565b50614af4836001600160401b0383166002614c29565b63ffffffff816001600160401b031611614bb257614b9c83601a611fe0600586901b1617614c04565b50614af4836001600160401b0383166004614c29565b614bc783601b611fe0600586901b1617614c04565b50614af4836001600160401b0383166008614c29565b604080518082019091526060815260006020820152610c6a83846000015151848551614c4f565b604080518082019091526060815260006020820152610c6a8384600001515184614d39565b604080518082019091526060815260006020820152610dea848560000151518585614d95565b6040805180820190915260608152600060208201528251821115614c7257600080fd5b6020850151614c818386615a12565b1115614cb457614cb485614ca487602001518786614c9f9190615a12565b614e16565b614caf906002615c51565b614e27565b600080865180518760208301019350808887011115614cd35787860182525b505050602084015b60208410614d135780518252614cf2602083615a12565b9150614cff602082615a12565b9050614d0c602085615ce8565b9350614cdb565b51815160001960208690036101000a019081169019919091161790525083949350505050565b60408051808201909152606081526000602082015283602001518310614d6e57614d6e8485602001516002614caf9190615c51565b835180516020858301018481535080851415614d8b576001810182525b5093949350505050565b6040805180820190915260608152600060208201526020850151614db98584615a12565b1115614dcd57614dcd85614ca48685615a12565b60006001614ddd84610100615ae5565b614de79190615ce8565b9050855183868201018583198251161781525080518487011115614e0b5783860181525b509495945050505050565b600081831115612e17575081610c98565b8151614e338383614a6b565b50614af48382614bdd565b828054614e4a90615d72565b90600052602060002090601f016020900481019282614e6c5760008555614eb2565b82601f10614e8557805160ff1916838001178555614eb2565b82800160010185558215614eb2579182015b82811115614eb2578251825591602001919060010190614e97565b50614ebe929150614efd565b5090565b6040805160a0810182526000808252602080830182905282840182905260608084018390528451808601909552845283015290608082015290565b5b80821115614ebe5760008155600101614efe565b8035614f1d81615e50565b919050565b600082601f830112614f3357600080fd5b81356020614f48614f43836159ef565b6159bf565b80838252828201915082860187848660051b8901011115614f6857600080fd5b60005b85811015614f90578135614f7e81615e50565b84529284019290840190600101614f6b565b5090979650505050505050565b600082601f830112614fae57600080fd5b81516020614fbe614f43836159ef565b80838252828201915082860187848660051b8901011115614fde57600080fd5b60005b85811015614f90578151614ff481615e50565b84529284019290840190600101614fe1565b600082601f83011261501757600080fd5b81356020615027614f43836159ef565b80838252828201915082860187848660051b890101111561504757600080fd5b60005b85811015614f905781358452928401929084019060010161504a565b600082601f83011261507757600080fd5b81356001600160401b0381111561509057615090615e3a565b6150a3601f8201601f19166020016159bf565b8181528460208386010111156150b857600080fd5b816020850160208301376000918101602001919091529392505050565b805169ffffffffffffffffffff81168114614f1d57600080fd5b60006020828403121561510157600080fd5b8135610c6a81615e50565b60006020828403121561511e57600080fd5b8151610c6a81615e50565b60008060008060008060008060008060006101608c8e03121561514b57600080fd5b8b3561515681615e50565b9a5060208c013561516681615e50565b995060408c013561517681615e50565b985060608c0135975060808c013561518d81615e50565b965060a08c013561519d81615e50565b955060c08c01356151ad81615e50565b945060e08c01356151bd81615e50565b93506101008c01356151ce81615e50565b92506101208c01356151df81615e50565b91506151ee6101408d01614f12565b90509295989b509295989b9093969950565b6000806000806080858703121561521657600080fd5b843561522181615e50565b9350602085013561523181615e50565b925060408501356001600160801b038116811461524d57600080fd5b9150606085013563ffffffff8116811461526657600080fd5b939692955090935050565b60008060006060848603121561528657600080fd5b833561529181615e50565b925060208401356152a181615e50565b929592945050506040919091013590565b600080600080608085870312156152c857600080fd5b84356152d381615e50565b935060208501356152e381615e50565b93969395505050506040820135916060013590565b60008060006060848603121561530d57600080fd5b833561531881615e50565b95602085013595506040909401359392505050565b60008060006060848603121561534257600080fd5b83356001600160401b038082111561535957600080fd5b61536587838801614f22565b9450602086013591508082111561537b57600080fd5b61538787838801615006565b9350604086013591508082111561539d57600080fd5b506153aa86828701615006565b9150509250925092565b600080604083850312156153c757600080fd5b82516001600160401b03808211156153de57600080fd5b818501915085601f8301126153f257600080fd5b81516020615402614f43836159ef565b8083825282820191508286018a848660051b890101111561542257600080fd5b600096505b848710156154545780518060060b811461544057600080fd5b835260019690960195918301918301615427565b509188015191965090935050508082111561546e57600080fd5b5061547b85828601614f9d565b9150509250929050565b6000602080838503121561549857600080fd5b82516001600160401b038111156154ae57600080fd5b8301601f810185136154bf57600080fd5b80516154cd614f43826159ef565b80828252848201915084840188868560051b87010111156154ed57600080fd5b600094505b838510156155105780518352600194909401939185019185016154f2565b50979650505050505050565b60006020828403121561552e57600080fd5b81518015158114610c6a57600080fd5b6000806000806080858703121561555457600080fd5b8435935060208501356001600160401b038082111561557257600080fd5b61557e88838901614f22565b9450604087013591508082111561559457600080fd5b6155a088838901615006565b935060608701359150808211156155b657600080fd5b506155c387828801615006565b91505092959194509250565b600080604083850312156155e257600080fd5b82356001600160401b03808211156155f957600080fd5b61560586838701615066565b9350602085013591508082111561561b57600080fd5b5061547b85828601615066565b60006020828403121561563a57600080fd5b5035919050565b60006020828403121561565357600080fd5b5051919050565b60008060006060848603121561566f57600080fd5b8335925060208401356152a181615e50565b60006020828403121561569357600080fd5b8135610c6a81615e65565b600080600080600060a086880312156156b657600080fd5b6156bf866150d5565b94506020860151935060408601519250606086015191506156e2608087016150d5565b90509295509295909350565b60006020828403121561570057600080fd5b8151610c6a81615e65565b600081518084526020808501945080840160005b83811015614e0b5781516001600160a01b03168752958201959082019060010161571f565b6000815180845261575c816020860160208601615d22565b601f01601f19169290920160200192915050565b60008351615782818460208801615d22565b835190830190615796818360208801615d22565b01949350505050565b6001600160a01b0389811682526020820189905260408201889052861660608201526001600160e01b03198516608082015260a0810184905260c0810183905261010060e082018190526000906157f883820185615744565b9b9a5050505050505050505050565b60018060a01b0384168152826020820152606060408201526000613abe6060830184615744565b6020808252825182820181905260009190848201906040850190845b8181101561586c57835163ffffffff168352928401929184019160010161584a565b50909695505050505050565b602081526000610c6a6020830184615744565b60208082526024908201527f7472616e73666572206574682066656520746f20746865206f776e65722066616040820152631a5b195960e21b606082015260800190565b60208082526030908201527f50726f706f7361626c654f776e61626c653a206e6577206f776e65722069732060408201526f746865207a65726f206164647265737360801b606082015260800190565b6020808252602b908201527f496e697469616c697a61626c653a20636f6e7472616374206973206e6f74206960408201526a6e697469616c697a696e6760a81b606082015260800190565b828152604060208201526000610dea604083018461570b565b85815284602082015260a0604082015260006159a260a083018661570b565b6001600160a01b0394909416606083015250608001529392505050565b604051601f8201601f191681016001600160401b03811182821017156159e7576159e7615e3a565b604052919050565b60006001600160401b03821115615a0857615a08615e3a565b5060051b60200190565b60008219821115615a2557615a25615df8565b500190565b60008160060b8360060b80615a4157615a41615e0e565b667fffffffffffff19821460001982141615615a5f57615a5f615df8565b90059392505050565b60006001600160c01b0383811680615a8257615a82615e0e565b92169190910492915050565b600082615a9d57615a9d615e0e565b500490565b600181815b80851115615add578160001904821115615ac357615ac3615df8565b80851615615ad057918102915b93841c9390800290615aa7565b509250929050565b6000610c6a8383615afc565b6000610c6a60ff8416835b600082615b0b57506001610c98565b81615b1857506000610c98565b8160018114615b2e5760028114615b3857615b54565b6001915050610c98565b60ff841115615b4957615b49615df8565b50506001821b610c98565b5060208310610133831016604e8410600b8410161715615b77575081810a610c98565b615b818383615aa2565b8060001904821115615b9557615b95615df8565b029392505050565b60006001600160ff1b0381841382841380821686840486111615615bc357615bc3615df8565b600160ff1b6000871282811687830589121615615be257615be2615df8565b60008712925087820587128484161615615bfe57615bfe615df8565b87850587128184161615615c1457615c14615df8565b505050929093029392505050565b60006001600160c01b0382811684821681151582840482111615615c4857615c48615df8565b02949350505050565b6000816000190483118215151615615c6b57615c6b615df8565b500290565b60008160060b8360060b6000811281667fffffffffffff1901831281151615615c9b57615c9b615df8565b81667fffffffffffff018313811615615cb657615cb6615df8565b5090039392505050565b60006001600160a01b0383811690831681811015615ce057615ce0615df8565b039392505050565b600082821015615cfa57615cfa615df8565b500390565b600060ff821660ff841680821015615d1957615d19615df8565b90039392505050565b60005b83811015615d3d578181015183820152602001615d25565b83811115614af45750506000910152565b60008160020b627fffff19811415615d6857615d68615df8565b6000190192915050565b600181811c90821680615d8657607f821691505b60208210811415612e1757634e487b7160e01b600052602260045260246000fd5b6000600019821415615dbb57615dbb615df8565b5060010190565b60008260060b80615dd557615dd5615e0e565b808360060b0791505092915050565b600082615df357615df3615e0e565b500690565b634e487b7160e01b600052601160045260246000fd5b634e487b7160e01b600052601260045260246000fd5b634e487b7160e01b600052603260045260246000fd5b634e487b7160e01b600052604160045260246000fd5b6001600160a01b03811681146139ec57600080fd5b60ff811681146139ec57600080fdfe68747470733a2f2f6170702e6e65786c6162732e696f2f6170692f616c6c46756e64696e6752617465733f6d756c7469706c7946756e633d31382674696d65734e656746756e643d74727565266172726179733d74727565a264697066735822122060f22fb39184b6b253ea872452f7d5085a4c992f62247f1962fcaecb3d6f415a64736f6c63430008070033",
    "linkReferences": {}
  },
  "methodIdentifiers": {
    "concatenation(string,string)": "0e329357",
    "currentList(uint256)": "9932ba4c",
    "estimateAmountOut(address,address,uint128,uint32)": "bf938db8",
    "externalJobId()": "a8b54bd4",
    "factoryV2()": "68e0d4e1",
    "factoryV3()": "1d5f45f5",
    "fee()": "ddca3f43",
    "feeRate()": "978bbdb9",
    "feeRatePerDayScaled()": "2fecd589",
    "feeReceiver()": "b3f00674",
    "feeTimestamp()": "184a732f",
    "fulfillAssetsData(bytes32,address[],uint256[],uint256[])": "36aab86c",
    "getAmountOut(address,address,uint256,uint256)": "13cb1f83",
    "getExactAmountOut(address,address,uint256,uint256)": "156a5da1",
    "getExactAmountOut2(address,address,uint256)": "686f9175",
    "getIssuanceAmountOut(uint256,address,uint256)": "b3951b67",
    "getIssuanceAmountOut2(uint256,address,uint256)": "c8b76e70",
    "getPortfolioBalance()": "a8509fd8",
    "getRedemptionAmountOut(uint256,address,uint256)": "02e04015",
    "getRedemptionAmountOut2(uint256,address,uint256)": "1ff01563",
    "indexToken()": "e7d015f2",
    "initialize(address,address,address,bytes32,address,address,address,address,address,address,address)": "465a4c94",
    "isRestricted(address)": "c01bc982",
    "issuanceIndexTokens(address,uint256,uint256)": "abdd5f3f",
    "issuanceIndexTokensWithEth(uint256)": "372d4c55",
    "lastUpdateTime()": "c8f33c91",
    "latestFeeUpdate()": "011ced5f",
    "methodologist()": "9f8e67bf",
    "methodology()": "9eeb1d50",
    "minter()": "07546172",
    "mockFillAssetsList(address[],uint256[],uint256[])": "e267078a",
    "oracleList(uint256)": "239aad0d",
    "oraclePayment()": "0c02e130",
    "owner()": "8da5cb5b",
    "pause()": "8456cb59",
    "paused()": "5c975abb",
    "priceInWei()": "3c8da588",
    "proposeOwner(address)": "b5ed298a",
    "proposedOwner()": "d153b60c",
    "quoter()": "c6bbd5a7",
    "reIndexAndReweight()": "a2ab905d",
    "redemption(uint256,address,uint256)": "2b9522e0",
    "renounceOwnership()": "715018a6",
    "requestAssetsData()": "7ca58c55",
    "setFeeRate(uint8)": "5177942a",
    "setPriceFeed(address)": "724e78da",
    "setUrl(string,string)": "a73e1cbf",
    "supplyCeiling()": "2b52684d",
    "swapRouterV2()": "744fbc7a",
    "swapRouterV3()": "b631e80b",
    "toUsdPriceFeed()": "63973fda",
    "tokenCurrentListIndex(address)": "914f0cc6",
    "tokenCurrentMarketShare(address)": "0be52713",
    "tokenOracleListIndex(address)": "8c88c10c",
    "tokenOracleMarketShare(address)": "4b3e0b80",
    "tokenSwapVersion(address)": "d90bc211",
    "totalCurrentList()": "53fd4332",
    "totalOracleList()": "c8599ded",
    "transferOwnership(address)": "f2fde38b",
    "unpause()": "3f4ba83a",
    "weth()": "3fc8cef3"
  },
  "id": 2
}