{"abi":[{"type":"receive","stateMutability":"payable"},{"type":"function","name":"concatenation","inputs":[{"name":"a","type":"string","internalType":"string"},{"name":"b","type":"string","internalType":"string"}],"outputs":[{"name":"","type":"string","internalType":"string"}],"stateMutability":"pure"},{"type":"function","name":"currentList","inputs":[{"name":"","type":"uint256","internalType":"uint256"}],"outputs":[{"name":"","type":"address","internalType":"address"}],"stateMutability":"view"},{"type":"function","name":"estimateAmountOut","inputs":[{"name":"tokenIn","type":"address","internalType":"address"},{"name":"tokenOut","type":"address","internalType":"address"},{"name":"amountIn","type":"uint128","internalType":"uint128"}],"outputs":[{"name":"amountOut","type":"uint256","internalType":"uint256"}],"stateMutability":"view"},{"type":"function","name":"externalJobId","inputs":[],"outputs":[{"name":"","type":"bytes32","internalType":"bytes32"}],"stateMutability":"view"},{"type":"function","name":"factoryV2","inputs":[],"outputs":[{"name":"","type":"address","internalType":"contract IUniswapV2Factory"}],"stateMutability":"view"},{"type":"function","name":"factoryV3","inputs":[],"outputs":[{"name":"","type":"address","internalType":"contract IUniswapV3Factory"}],"stateMutability":"view"},{"type":"function","name":"fee","inputs":[],"outputs":[{"name":"","type":"uint256","internalType":"uint256"}],"stateMutability":"view"},{"type":"function","name":"feeRate","inputs":[],"outputs":[{"name":"","type":"uint8","internalType":"uint8"}],"stateMutability":"view"},{"type":"function","name":"feeRatePerDayScaled","inputs":[],"outputs":[{"name":"","type":"uint256","internalType":"uint256"}],"stateMutability":"view"},{"type":"function","name":"feeReceiver","inputs":[],"outputs":[{"name":"","type":"address","internalType":"address"}],"stateMutability":"view"},{"type":"function","name":"feeTimestamp","inputs":[],"outputs":[{"name":"","type":"uint256","internalType":"uint256"}],"stateMutability":"view"},{"type":"function","name":"fulfillAssetsData","inputs":[{"name":"requestId","type":"bytes32","internalType":"bytes32"},{"name":"_tokens","type":"address[]","internalType":"address[]"},{"name":"_marketShares","type":"uint256[]","internalType":"uint256[]"},{"name":"_swapVersions","type":"uint256[]","internalType":"uint256[]"}],"outputs":[],"stateMutability":"nonpayable"},{"type":"function","name":"getAmountOut","inputs":[{"name":"tokenIn","type":"address","internalType":"address"},{"name":"tokenOut","type":"address","internalType":"address"},{"name":"amountIn","type":"uint256","internalType":"uint256"},{"name":"_swapVersion","type":"uint256","internalType":"uint256"}],"outputs":[{"name":"finalAmountOut","type":"uint256","internalType":"uint256"}],"stateMutability":"view"},{"type":"function","name":"getExactAmountOut","inputs":[{"name":"tokenIn","type":"address","internalType":"address"},{"name":"tokenOut","type":"address","internalType":"address"},{"name":"amountIn","type":"uint256","internalType":"uint256"},{"name":"_swapVersion","type":"uint256","internalType":"uint256"}],"outputs":[{"name":"finalAmountOut","type":"uint256","internalType":"uint256"}],"stateMutability":"nonpayable"},{"type":"function","name":"getExactAmountOut2","inputs":[{"name":"tokenIn","type":"address","internalType":"address"},{"name":"tokenOut","type":"address","internalType":"address"},{"name":"amountIn","type":"uint256","internalType":"uint256"}],"outputs":[{"name":"finalAmountOut","type":"uint256","internalType":"uint256"}],"stateMutability":"nonpayable"},{"type":"function","name":"getIssuanceAmountOut","inputs":[{"name":"_amountIn","type":"uint256","internalType":"uint256"},{"name":"_tokenIn","type":"address","internalType":"address"},{"name":"_swapVersion","type":"uint256","internalType":"uint256"}],"outputs":[{"name":"","type":"uint256","internalType":"uint256"}],"stateMutability":"view"},{"type":"function","name":"getIssuanceAmountOut2","inputs":[{"name":"_amountIn","type":"uint256","internalType":"uint256"},{"name":"_tokenIn","type":"address","internalType":"address"},{"name":"_swapVersion","type":"uint256","internalType":"uint256"}],"outputs":[{"name":"","type":"uint256","internalType":"uint256"}],"stateMutability":"nonpayable"},{"type":"function","name":"getPortfolioBalance","inputs":[],"outputs":[{"name":"","type":"uint256","internalType":"uint256"}],"stateMutability":"view"},{"type":"function","name":"getRedemptionAmountOut","inputs":[{"name":"_amountIn","type":"uint256","internalType":"uint256"},{"name":"_tokenOut","type":"address","internalType":"address"},{"name":"_swapVersion","type":"uint256","internalType":"uint256"}],"outputs":[{"name":"","type":"uint256","internalType":"uint256"}],"stateMutability":"view"},{"type":"function","name":"getRedemptionAmountOut2","inputs":[{"name":"_amountIn","type":"uint256","internalType":"uint256"},{"name":"_tokenOut","type":"address","internalType":"address"},{"name":"_swapVersion","type":"uint256","internalType":"uint256"}],"outputs":[{"name":"","type":"uint256","internalType":"uint256"}],"stateMutability":"nonpayable"},{"type":"function","name":"indexToken","inputs":[],"outputs":[{"name":"","type":"address","internalType":"contract IndexToken"}],"stateMutability":"view"},{"type":"function","name":"initialize","inputs":[{"name":"_token","type":"address","internalType":"address payable"},{"name":"_chainlinkToken","type":"address","internalType":"address"},{"name":"_oracleAddress","type":"address","internalType":"address"},{"name":"_externalJobId","type":"bytes32","internalType":"bytes32"},{"name":"_toUsdPriceFeed","type":"address","internalType":"address"},{"name":"_weth","type":"address","internalType":"address"},{"name":"_quoter","type":"address","internalType":"address"},{"name":"_swapRouterV3","type":"address","internalType":"address"},{"name":"_factoryV3","type":"address","internalType":"address"},{"name":"_swapRouterV2","type":"address","internalType":"address"},{"name":"_factoryV2","type":"address","internalType":"address"}],"outputs":[],"stateMutability":"nonpayable"},{"type":"function","name":"isRestricted","inputs":[{"name":"","type":"address","internalType":"address"}],"outputs":[{"name":"","type":"bool","internalType":"bool"}],"stateMutability":"view"},{"type":"function","name":"issuanceIndexTokens","inputs":[{"name":"_tokenIn","type":"address","internalType":"address"},{"name":"_amountIn","type":"uint256","internalType":"uint256"},{"name":"_tokenInSwapVersion","type":"uint256","internalType":"uint256"}],"outputs":[],"stateMutability":"nonpayable"},{"type":"function","name":"issuanceIndexTokensWithEth","inputs":[{"name":"_inputAmount","type":"uint256","internalType":"uint256"}],"outputs":[],"stateMutability":"payable"},{"type":"function","name":"lastUpdateTime","inputs":[],"outputs":[{"name":"","type":"uint256","internalType":"uint256"}],"stateMutability":"view"},{"type":"function","name":"latestFeeUpdate","inputs":[],"outputs":[{"name":"","type":"uint256","internalType":"uint256"}],"stateMutability":"view"},{"type":"function","name":"methodologist","inputs":[],"outputs":[{"name":"","type":"address","internalType":"address"}],"stateMutability":"view"},{"type":"function","name":"methodology","inputs":[],"outputs":[{"name":"","type":"string","internalType":"string"}],"stateMutability":"view"},{"type":"function","name":"minter","inputs":[],"outputs":[{"name":"","type":"address","internalType":"address"}],"stateMutability":"view"},{"type":"function","name":"mockFillAssetsList","inputs":[{"name":"_tokens","type":"address[]","internalType":"address[]"},{"name":"_marketShares","type":"uint256[]","internalType":"uint256[]"},{"name":"_swapVersions","type":"uint256[]","internalType":"uint256[]"}],"outputs":[],"stateMutability":"nonpayable"},{"type":"function","name":"oracleList","inputs":[{"name":"","type":"uint256","internalType":"uint256"}],"outputs":[{"name":"","type":"address","internalType":"address"}],"stateMutability":"view"},{"type":"function","name":"oraclePayment","inputs":[],"outputs":[{"name":"","type":"uint256","internalType":"uint256"}],"stateMutability":"view"},{"type":"function","name":"owner","inputs":[],"outputs":[{"name":"","type":"address","internalType":"address"}],"stateMutability":"view"},{"type":"function","name":"pause","inputs":[],"outputs":[],"stateMutability":"nonpayable"},{"type":"function","name":"paused","inputs":[],"outputs":[{"name":"","type":"bool","internalType":"bool"}],"stateMutability":"view"},{"type":"function","name":"priceInWei","inputs":[],"outputs":[{"name":"","type":"uint256","internalType":"uint256"}],"stateMutability":"view"},{"type":"function","name":"proposeOwner","inputs":[{"name":"_proposedOwner","type":"address","internalType":"address"}],"outputs":[],"stateMutability":"nonpayable"},{"type":"function","name":"proposedOwner","inputs":[],"outputs":[{"name":"","type":"address","internalType":"address"}],"stateMutability":"view"},{"type":"function","name":"quoter","inputs":[],"outputs":[{"name":"","type":"address","internalType":"contract IQuoter"}],"stateMutability":"view"},{"type":"function","name":"reIndexAndReweight","inputs":[],"outputs":[],"stateMutability":"nonpayable"},{"type":"function","name":"redemption","inputs":[{"name":"amountIn","type":"uint256","internalType":"uint256"},{"name":"_tokenOut","type":"address","internalType":"address"},{"name":"_tokenOutSwapVersion","type":"uint256","internalType":"uint256"}],"outputs":[{"name":"","type":"uint256","internalType":"uint256"}],"stateMutability":"nonpayable"},{"type":"function","name":"renounceOwnership","inputs":[],"outputs":[],"stateMutability":"nonpayable"},{"type":"function","name":"requestAssetsData","inputs":[],"outputs":[{"name":"","type":"bytes32","internalType":"bytes32"}],"stateMutability":"nonpayable"},{"type":"function","name":"setFeeRate","inputs":[{"name":"_newFee","type":"uint8","internalType":"uint8"}],"outputs":[],"stateMutability":"nonpayable"},{"type":"function","name":"setFeeReceiver","inputs":[{"name":"_feeReceiver","type":"address","internalType":"address"}],"outputs":[],"stateMutability":"nonpayable"},{"type":"function","name":"setPriceFeed","inputs":[{"name":"_toUsdPricefeed","type":"address","internalType":"address"}],"outputs":[],"stateMutability":"nonpayable"},{"type":"function","name":"setUrl","inputs":[{"name":"_beforeAddress","type":"string","internalType":"string"},{"name":"_afterAddress","type":"string","internalType":"string"}],"outputs":[],"stateMutability":"nonpayable"},{"type":"function","name":"supplyCeiling","inputs":[],"outputs":[{"name":"","type":"uint256","internalType":"uint256"}],"stateMutability":"view"},{"type":"function","name":"swapRouterV2","inputs":[],"outputs":[{"name":"","type":"address","internalType":"contract IUniswapV2Router02"}],"stateMutability":"view"},{"type":"function","name":"swapRouterV3","inputs":[],"outputs":[{"name":"","type":"address","internalType":"contract ISwapRouter"}],"stateMutability":"view"},{"type":"function","name":"toUsdPriceFeed","inputs":[],"outputs":[{"name":"","type":"address","internalType":"contract AggregatorV3Interface"}],"stateMutability":"view"},{"type":"function","name":"tokenCurrentListIndex","inputs":[{"name":"","type":"address","internalType":"address"}],"outputs":[{"name":"","type":"uint256","internalType":"uint256"}],"stateMutability":"view"},{"type":"function","name":"tokenCurrentMarketShare","inputs":[{"name":"","type":"address","internalType":"address"}],"outputs":[{"name":"","type":"uint256","internalType":"uint256"}],"stateMutability":"view"},{"type":"function","name":"tokenOracleListIndex","inputs":[{"name":"","type":"address","internalType":"address"}],"outputs":[{"name":"","type":"uint256","internalType":"uint256"}],"stateMutability":"view"},{"type":"function","name":"tokenOracleMarketShare","inputs":[{"name":"","type":"address","internalType":"address"}],"outputs":[{"name":"","type":"uint256","internalType":"uint256"}],"stateMutability":"view"},{"type":"function","name":"tokenSwapVersion","inputs":[{"name":"","type":"address","internalType":"address"}],"outputs":[{"name":"","type":"uint256","internalType":"uint256"}],"stateMutability":"view"},{"type":"function","name":"totalCurrentList","inputs":[],"outputs":[{"name":"","type":"uint256","internalType":"uint256"}],"stateMutability":"view"},{"type":"function","name":"totalOracleList","inputs":[],"outputs":[{"name":"","type":"uint256","internalType":"uint256"}],"stateMutability":"view"},{"type":"function","name":"transferOwnership","inputs":[{"name":"newOwner","type":"address","internalType":"address"}],"outputs":[],"stateMutability":"nonpayable"},{"type":"function","name":"unpause","inputs":[],"outputs":[],"stateMutability":"nonpayable"},{"type":"function","name":"weth","inputs":[],"outputs":[{"name":"","type":"address","internalType":"contract IWETH"}],"stateMutability":"view"},{"type":"event","name":"ChainlinkCancelled","inputs":[{"name":"id","type":"bytes32","indexed":true,"internalType":"bytes32"}],"anonymous":false},{"type":"event","name":"ChainlinkFulfilled","inputs":[{"name":"id","type":"bytes32","indexed":true,"internalType":"bytes32"}],"anonymous":false},{"type":"event","name":"ChainlinkRequested","inputs":[{"name":"id","type":"bytes32","indexed":true,"internalType":"bytes32"}],"anonymous":false},{"type":"event","name":"FeeRateSet","inputs":[{"name":"feeRatePerDayScaled","type":"uint256","indexed":true,"internalType":"uint256"}],"anonymous":false},{"type":"event","name":"FeeReceiverSet","inputs":[{"name":"feeReceiver","type":"address","indexed":true,"internalType":"address"}],"anonymous":false},{"type":"event","name":"Initialized","inputs":[{"name":"version","type":"uint8","indexed":false,"internalType":"uint8"}],"anonymous":false},{"type":"event","name":"Issuanced","inputs":[{"name":"user","type":"address","indexed":true,"internalType":"address"},{"name":"inputToken","type":"address","indexed":true,"internalType":"address"},{"name":"inputAmount","type":"uint256","indexed":false,"internalType":"uint256"},{"name":"outputAmount","type":"uint256","indexed":false,"internalType":"uint256"},{"name":"time","type":"uint256","indexed":false,"internalType":"uint256"}],"anonymous":false},{"type":"event","name":"MethodologistSet","inputs":[{"name":"methodologist","type":"address","indexed":true,"internalType":"address"}],"anonymous":false},{"type":"event","name":"MethodologySet","inputs":[{"name":"methodology","type":"string","indexed":false,"internalType":"string"}],"anonymous":false},{"type":"event","name":"MintFeeToReceiver","inputs":[{"name":"feeReceiver","type":"address","indexed":false,"internalType":"address"},{"name":"timestamp","type":"uint256","indexed":false,"internalType":"uint256"},{"name":"totalSupply","type":"uint256","indexed":false,"internalType":"uint256"},{"name":"amount","type":"uint256","indexed":false,"internalType":"uint256"}],"anonymous":false},{"type":"event","name":"MinterSet","inputs":[{"name":"minter","type":"address","indexed":true,"internalType":"address"}],"anonymous":false},{"type":"event","name":"OwnershipTransferred","inputs":[{"name":"previousOwner","type":"address","indexed":true,"internalType":"address"},{"name":"newOwner","type":"address","indexed":true,"internalType":"address"}],"anonymous":false},{"type":"event","name":"Paused","inputs":[{"name":"account","type":"address","indexed":false,"internalType":"address"}],"anonymous":false},{"type":"event","name":"Redemption","inputs":[{"name":"user","type":"address","indexed":true,"internalType":"address"},{"name":"outputToken","type":"address","indexed":true,"internalType":"address"},{"name":"inputAmount","type":"uint256","indexed":false,"internalType":"uint256"},{"name":"outputAmount","type":"uint256","indexed":false,"internalType":"uint256"},{"name":"time","type":"uint256","indexed":false,"internalType":"uint256"}],"anonymous":false},{"type":"event","name":"SupplyCeilingSet","inputs":[{"name":"supplyCeiling","type":"uint256","indexed":false,"internalType":"uint256"}],"anonymous":false},{"type":"event","name":"ToggledRestricted","inputs":[{"name":"account","type":"address","indexed":true,"internalType":"address"},{"name":"isRestricted","type":"bool","indexed":false,"internalType":"bool"}],"anonymous":false},{"type":"event","name":"Unpaused","inputs":[{"name":"account","type":"address","indexed":false,"internalType":"address"}],"anonymous":false},{"type":"error","name":"T","inputs":[]}],"bytecode":{"object":"0x608060405234801561001057600080fd5b50615e1d80620000216000396000f3fe6080604052600436106103b15760003560e01c8063744fbc7a116101e7578063b3951b671161010d578063c8f33c91116100a0578063e267078a1161006f578063e267078a14610af9578063e7d015f214610b19578063efdcd97414610b39578063f2fde38b14610b5957600080fd5b8063c8f33c9114610a80578063d153b60c14610a96578063d90bc21114610ab6578063ddca3f4314610ae357600080fd5b8063c01bc982116100dc578063c01bc982146109fa578063c6bbd5a714610a2a578063c8599ded14610a4a578063c8b76e7014610a6057600080fd5b8063b3951b671461097a578063b3f006741461099a578063b5ed298a146109ba578063b631e80b146109da57600080fd5b80639932ba4c11610185578063a73e1cbf11610154578063a73e1cbf1461090f578063a8509fd81461092f578063a8b54bd414610944578063abdd5f3f1461095a57600080fd5b80639932ba4c1461088f5780639eeb1d50146108c55780639f8e67bf146108da578063a2ab905d146108fa57600080fd5b80638c88c10c116101c15780638c88c10c146107eb5780638da5cb5b14610818578063914f0cc614610836578063978bbdb91461086357600080fd5b8063744fbc7a146107a15780637ca58c55146107c15780638456cb59146107d657600080fd5b80632fecd589116102d75780635177942a1161026a578063686f917511610239578063686f91751461072c57806368e0d4e11461074c578063715018a61461076c578063724e78da1461078157600080fd5b80635177942a146106b257806353fd4332146106d25780635c975abb146106e857806363973fda1461070c57600080fd5b80633f4ba83a116102a65780633f4ba83a146106305780633fc8cef314610645578063465a4c94146106655780634b3e0b801461068557600080fd5b80632fecd589146105d057806336aab86c146105e6578063372d4c55146106085780633c8da5881461061b57600080fd5b806313cb1f831161034f5780631ff015631161031e5780631ff0156314610544578063239aad0d146105645780632b52684d1461059a5780632b9522e0146105b057600080fd5b806313cb1f83146104ce578063156a5da1146104ee578063184a732f1461050e5780631d5f45f51461052457600080fd5b8063075461721161038b57806307546172146104265780630be527131461045e5780630c02e1301461048b5780630e329357146104a157600080fd5b8063011ced5f146103bd57806302e04015146103e65780630456f9c81461040657600080fd5b366103b857005b600080fd5b3480156103c957600080fd5b506103d360d35481565b6040519081526020015b60405180910390f35b3480156103f257600080fd5b506103d361040136600461573b565b610b79565b34801561041257600080fd5b506103d3610421366004615335565b610c9c565b34801561043257600080fd5b5060d854610446906001600160a01b031681565b6040516001600160a01b0390911681526020016103dd565b34801561046a57600080fd5b506103d3610479366004615224565b60e86020526000908152604090205481565b34801561049757600080fd5b506103d360df5481565b3480156104ad57600080fd5b506104c16104bc366004615612565b610d52565b6040516103dd9190615928565b3480156104da57600080fd5b506103d36104e93660046153cd565b610d7f565b3480156104fa57600080fd5b506103d36105093660046153cd565b610ecd565b34801561051a57600080fd5b506103d360d55481565b34801561053057600080fd5b5060ec54610446906001600160a01b031681565b34801561055057600080fd5b506103d361055f36600461573b565b6110b1565b34801561057057600080fd5b5061044661057f366004615709565b60e4602052600090815260409020546001600160a01b031681565b3480156105a657600080fd5b506103d360da5481565b3480156105bc57600080fd5b506103d36105cb36600461573b565b61135f565b3480156105dc57600080fd5b506103d360d45481565b3480156105f257600080fd5b50610606610601366004615581565b611976565b005b610606610616366004615709565b611cbc565b34801561062757600080fd5b506103d36121ac565b34801561063c57600080fd5b506106066122d1565b34801561065157600080fd5b5060ef54610446906001600160a01b031681565b34801561067157600080fd5b5061060661068036600461525e565b6122e3565b34801561069157600080fd5b506103d36106a0366004615224565b60e96020526000908152604090205481565b3480156106be57600080fd5b506106066106cd366004615762565b61257b565b3480156106de57600080fd5b506103d360e35481565b3480156106f457600080fd5b50609e5460ff165b60405190151581526020016103dd565b34801561071857600080fd5b5060e054610446906001600160a01b031681565b34801561073857600080fd5b506103d361074736600461538c565b6126bb565b34801561075857600080fd5b5060ee54610446906001600160a01b031681565b34801561077857600080fd5b50610606612893565b34801561078d57600080fd5b5061060661079c366004615224565b6128a5565b3480156107ad57600080fd5b5060ed54610446906001600160a01b031681565b3480156107cd57600080fd5b506103d361293c565b3480156107e257600080fd5b50610606612bd7565b3480156107f757600080fd5b506103d3610806366004615224565b60e66020526000908152604090205481565b34801561082457600080fd5b506039546001600160a01b0316610446565b34801561084257600080fd5b506103d3610851366004615224565b60e76020526000908152604090205481565b34801561086f57600080fd5b5060d25461087d9060ff1681565b60405160ff90911681526020016103dd565b34801561089b57600080fd5b506104466108aa366004615709565b60e5602052600090815260409020546001600160a01b031681565b3480156108d157600080fd5b506104c1612be7565b3480156108e657600080fd5b5060d754610446906001600160a01b031681565b34801561090657600080fd5b50610606612c75565b34801561091b57600080fd5b5061060661092a366004615612565b612f18565b34801561093b57600080fd5b506103d3612f4c565b34801561095057600080fd5b506103d360de5481565b34801561096657600080fd5b50610606610975366004615413565b613109565b34801561098657600080fd5b506103d361099536600461573b565b6135f7565b3480156109a657600080fd5b5060d654610446906001600160a01b031681565b3480156109c657600080fd5b506106066109d5366004615224565b6137e6565b3480156109e657600080fd5b5060eb54610446906001600160a01b031681565b348015610a0657600080fd5b506106fc610a15366004615224565b60db6020526000908152604090205460ff1681565b348015610a3657600080fd5b5060f054610446906001600160a01b031681565b348015610a5657600080fd5b506103d360e25481565b348015610a6c57600080fd5b506103d3610a7b36600461573b565b613836565b348015610a8c57600080fd5b506103d360e15481565b348015610aa257600080fd5b50606b54610446906001600160a01b031681565b348015610ac257600080fd5b506103d3610ad1366004615224565b60ea6020526000908152604090205481565b348015610aef57600080fd5b506103d360d15481565b348015610b0557600080fd5b50610606610b14366004615448565b61393c565b348015610b2557600080fd5b5060d054610446906001600160a01b031681565b348015610b4557600080fd5b50610606610b54366004615224565b613bcc565b348015610b6557600080fd5b50610606610b74366004615224565b613c1e565b600080610b84612f4c565b9050600060d060009054906101000a90046001600160a01b03166001600160a01b03166318160ddd6040518163ffffffff1660e01b815260040160206040518083038186803b158015610bd657600080fd5b505afa158015610bea573d6000803e3d6000fd5b505050506040513d601f19601f82011682018060405250810190610c0e9190615722565b610c2087670de0b6b3a7640000615c2a565b610c2a9190615a96565b90506000670de0b6b3a7640000610c418484615c2a565b610c4b9190615a96565b60ef549091506001600160a01b0387811691161415610c6e579250610c95915050565b60ef54600090610c89906001600160a01b0316888489610d7f565b9450610c959350505050565b9392505050565b60ec54604051630b4c774160e11b81526001600160a01b0385811660048301528481166024830152610bb860448301526000928392911690631698ee829060640160206040518083038186803b158015610cf557600080fd5b505afa158015610d09573d6000803e3d6000fd5b505050506040513d601f19601f82011682018060405250810190610d2d9190615241565b90506000610d3a82613d46565b9050610d4881858888613dc8565b9695505050505050565b60608282604051602001610d67929190615851565b60405160208183030381529060405290505b92915050565b60008215610ec5578160031415610da257610d9b858585610c9c565b9050610ec5565b6040805160028082526060820183526000926020830190803683370190505090508581600081518110610dd757610dd7615d3f565b60200260200101906001600160a01b031690816001600160a01b0316815250508481600181518110610e0b57610e0b615d3f565b6001600160a01b03928316602091820292909201015260ed5460405163d06ca61f60e01b8152600092919091169063d06ca61f90610e4f90889086906004016159d6565b60006040518083038186803b158015610e6757600080fd5b505afa158015610e7b573d6000803e3d6000fd5b505050506040513d6000823e601f3d908101601f19168201604052610ea391908101906154cf565b905080600181518110610eb857610eb8615d3f565b6020026020010151925050505b949350505050565b60008160031415610f835760f05460405163f7729d4360e01b81526001600160a01b0387811660048301528681166024830152610bb860448301526064820186905260006084830181905292169063f7729d439060a401602060405180830381600087803b158015610f3e57600080fd5b505af1925050508015610f6e575060408051601f3d908101601f19168201909252610f6b91810190615722565b60015b610f7a57506000610d9b565b90509050610ec5565b6040805160028082526060820183526000926020830190803683370190505090508581600081518110610fb857610fb8615d3f565b60200260200101906001600160a01b031690816001600160a01b0316815250508481600181518110610fec57610fec615d3f565b6001600160a01b03928316602091820292909201015260ed5460405163d06ca61f60e01b8152600092919091169063d06ca61f9061103090889086906004016159d6565b60006040518083038186803b15801561104857600080fd5b505afa92505050801561107d57506040513d6000823e601f3d908101601f1916820160405261107a91908101906154cf565b60015b611089575060006110a8565b8060018151811061109c5761109c615d3f565b60200260200101519150505b9150610ec59050565b60008060d060009054906101000a90046001600160a01b03166001600160a01b03166318160ddd6040518163ffffffff1660e01b815260040160206040518083038186803b15801561110257600080fd5b505afa158015611116573d6000803e3d6000fd5b505050506040513d601f19601f8201168201806040525081019061113a9190615722565b61114c86670de0b6b3a7640000615c2a565b6111569190615a96565b90506000805b60e3548110156113555760ef54600082815260e560205260409020546001600160a01b0390811691161461128957600081815260e560205260408082205460d05491516370a0823160e01b81526001600160a01b039283166004820152670de0b6b3a764000092909116906370a082319060240160206040518083038186803b1580156111e857600080fd5b505afa1580156111fc573d6000803e3d6000fd5b505050506040513d601f19601f820116820180604052508101906112209190615722565b61122a9086615c2a565b6112349190615a96565b600083815260e5602090815260408083205460ef546001600160a01b0391821680865260ea90945291842054949550929361127493909116908590610ecd565b90506112808185615a7e565b93505050611343565b600081815260e560205260408082205460d05491516370a0823160e01b81526001600160a01b039283166004820152670de0b6b3a764000092909116906370a082319060240160206040518083038186803b1580156112e757600080fd5b505afa1580156112fb573d6000803e3d6000fd5b505050506040513d601f19601f8201168201806040525081019061131f9190615722565b6113299086615c2a565b6113339190615a96565b905061133f8184615a7e565b9250505b8061134d81615ce4565b91505061115c565b5095945050505050565b60008060d060009054906101000a90046001600160a01b03166001600160a01b03166318160ddd6040518163ffffffff1660e01b815260040160206040518083038186803b1580156113b057600080fd5b505afa1580156113c4573d6000803e3d6000fd5b505050506040513d601f19601f820116820180604052508101906113e89190615722565b6113fa86670de0b6b3a7640000615c2a565b6114049190615a96565b60d054604051632770a7eb60e21b81529192506001600160a01b031690639dc29fac906114379033908990600401615880565b600060405180830381600087803b15801561145157600080fd5b505af1158015611465573d6000803e3d6000fd5b5060009250829150505b60e35481101561162257600081815260e560205260408082205460d05491516370a0823160e01b81526001600160a01b039283166004820152670de0b6b3a764000092909116906370a082319060240160206040518083038186803b1580156114d757600080fd5b505afa1580156114eb573d6000803e3d6000fd5b505050506040513d601f19601f8201168201806040525081019061150f9190615722565b6115199086615c2a565b6115239190615a96565b60ef54600084815260e560205260409020549192506001600160a01b0391821691161461159c57600082815260e5602090815260408083205460ef546001600160a01b0391821680865260ea9094529184205461158893929091169085903090613ed6565b90506115948185615a7e565b93505061160f565b60d0546040516377524af960e01b81526001600160a01b03909116906377524af9906115ce9030908590600401615880565b600060405180830381600087803b1580156115e857600080fd5b505af11580156115fc573d6000803e3d6000fd5b50505050808361160c9190615a7e565b92505b508061161a81615ce4565b91505061146f565b5060d2546000906127109061163a9060ff1684615c2a565b6116449190615a96565b60ef549091506001600160a01b038781169116141561186d5760ef546001600160a01b0316632e1a7d4d6116788385615c49565b6040518263ffffffff1660e01b815260040161169691815260200190565b600060405180830381600087803b1580156116b057600080fd5b505af11580156116c4573d6000803e3d6000fd5b505060ef5460d65460405163a9059cbb60e01b81526001600160a01b03928316945063a9059cbb93506116ff92909116908590600401615880565b602060405180830381600087803b15801561171957600080fd5b505af115801561172d573d6000803e3d6000fd5b505050506040513d601f19601f820116820180604052508101906117519190615566565b5060003361175f8385615c49565b604051600081818185875af1925050503d806000811461179b576040519150601f19603f3d011682016040523d82523d6000602084013e6117a0565b606091505b50509050806118025760405162461bcd60e51b815260206004820152602360248201527f7472616e73666572206574682066656520746f207468652075736572206661696044820152621b195960ea1b60648201526084015b60405180910390fd5b6001600160a01b038716337f4f808f68134f8b72b842a276c2b37b03415d4992c65a94fcee50d33201915b998a6118398688615c49565b604080519283526020830191909152429082015260600160405180910390a36118628284615c49565b945050505050610c95565b60ef5460d65460405163a9059cbb60e01b81526001600160a01b039283169263a9059cbb926118a3929116908590600401615880565b602060405180830381600087803b1580156118bd57600080fd5b505af11580156118d1573d6000803e3d6000fd5b505050506040513d601f19601f820116820180604052508101906118f59190615566565b5060ef5460009061191b906001600160a01b0316886119148587615c49565b338a613fae565b604080518a815260208101839052428183015290519192506001600160a01b0389169133917f4f808f68134f8b72b842a276c2b37b03415d4992c65a94fcee50d33201915b99919081900360600190a39350610c9592505050565b60008481526005602052604090205484906001600160a01b031633146119ef5760405162461bcd60e51b815260206004820152602860248201527f536f75726365206d75737420626520746865206f7261636c65206f6620746865604482015267081c995c5d595cdd60c21b60648201526084016117f9565b60008181526005602052604080822080546001600160a01b03191690555182917f7cc135e0cebb02c3480ae5d74d377283180a2601f8f644edf7987b009316c63a91a283838360005b8351811015611c9b57838181518110611a5357611a53615d3f565b602002602001015160e4600083815260200190815260200160002060006101000a8154816001600160a01b0302191690836001600160a01b031602179055508060e66000868481518110611aa957611aa9615d3f565b60200260200101516001600160a01b03166001600160a01b0316815260200190815260200160002081905550828181518110611ae757611ae7615d3f565b602002602001015160e96000868481518110611b0557611b05615d3f565b60200260200101516001600160a01b03166001600160a01b0316815260200190815260200160002081905550818181518110611b4357611b43615d3f565b602002602001015160ea6000868481518110611b6157611b61615d3f565b60200260200101516001600160a01b03166001600160a01b031681526020019081526020016000208190555060e35460001415611c8957838181518110611baa57611baa615d3f565b602002602001015160e5600083815260200190815260200160002060006101000a8154816001600160a01b0302191690836001600160a01b03160217905550828181518110611bfb57611bfb615d3f565b602002602001015160e86000868481518110611c1957611c19615d3f565b60200260200101516001600160a01b03166001600160a01b03168152602001908152602001600020819055508060e76000868481518110611c5c57611c5c615d3f565b60200260200101516001600160a01b03166001600160a01b03168152602001908152602001600020819055505b80611c9381615ce4565b915050611a38565b50825160e25560e354611cae57825160e3555b50504260e155505050505050565b60d25460009061271090611cd39060ff1684615c2a565b611cdd9190615a96565b90506000611ceb8284615a7e565b905080341015611d3d5760405162461bcd60e51b815260206004820152601a60248201527f6c6f776572207468616e20726571756972656420616d6f756e7400000000000060448201526064016117f9565b60ef60009054906101000a90046001600160a01b03166001600160a01b031663d0e30db0826040518263ffffffff1660e01b81526004016000604051808303818588803b158015611d8d57600080fd5b505af1158015611da1573d6000803e3d6000fd5b505060ef5460d65460405163a9059cbb60e01b81526001600160a01b03928316955063a9059cbb9450611ddc93509116908690600401615880565b602060405180830381600087803b158015611df657600080fd5b505af1158015611e0a573d6000803e3d6000fd5b505050506040513d601f19601f82011682018060405250810190611e2e9190615566565b5060ef5460d05460405163a9059cbb60e01b81526001600160a01b039283169263a9059cbb92611e65929116908790600401615880565b602060405180830381600087803b158015611e7f57600080fd5b505af1158015611e93573d6000803e3d6000fd5b505050506040513d601f19601f82011682018060405250810190611eb79190615566565b506000611ec2612f4c565b90508360005b60e354811015611f905760ef54600082815260e560205260409020546001600160a01b03908116911614611f7e5760ef54600082815260e560209081526040808320546001600160a01b0390811680855260e8909352922054611f7c93929092169168056bc75e2d6310000090611f3f9087615c2a565b611f499190615a96565b60d054600086815260e560209081526040808320546001600160a01b03908116845260ea90925290912054911690613ed6565b505b80611f8881615ce4565b915050611ec8565b5060008060d060009054906101000a90046001600160a01b03166001600160a01b03166318160ddd6040518163ffffffff1660e01b815260040160206040518083038186803b158015611fe257600080fd5b505afa158015611ff6573d6000803e3d6000fd5b505050506040513d601f19601f8201168201806040525081019061201a9190615722565b11156120c357828260d060009054906101000a90046001600160a01b03166001600160a01b03166318160ddd6040518163ffffffff1660e01b815260040160206040518083038186803b15801561207057600080fd5b505afa158015612084573d6000803e3d6000fd5b505050506040513d601f19601f820116820180604052508101906120a89190615722565b6120b29190615c2a565b6120bc9190615a96565b90506120ef565b60006120cd6121ac565b9050662386f26fc100006120e18285615c2a565b6120eb9190615a96565b9150505b60d0546040516340c10f1960e01b81526001600160a01b03909116906340c10f19906121219033908590600401615880565b600060405180830381600087803b15801561213b57600080fd5b505af115801561214f573d6000803e3d6000fd5b505060ef54604080518a815260208101869052428183015290516001600160a01b0390921693503392507f4fee1c514ee0e252e3a0babfa8b5030fb89be7ea2b38df9a7fbbf788e54f3d91919081900360600190a3505050505050565b60008060e060009054906101000a90046001600160a01b03166001600160a01b031663feaf968c6040518163ffffffff1660e01b815260040160a06040518083038186803b1580156121fd57600080fd5b505afa158015612211573d6000803e3d6000fd5b505050506040513d601f19601f82011682018060405250810190612235919061577f565b505050915050600060e060009054906101000a90046001600160a01b03166001600160a01b031663313ce5676040518163ffffffff1660e01b815260040160206040518083038186803b15801561228b57600080fd5b505afa15801561229f573d6000803e3d6000fd5b505050506040513d601f19601f820116820180604052508101906122c391906157cf565b9050610c95828260126142c5565b6122d9614305565b6122e161435f565b565b600654610100900460ff16158080156123035750600654600160ff909116105b8061231d5750303b15801561231d575060065460ff166001145b6123805760405162461bcd60e51b815260206004820152602e60248201527f496e697469616c697a61626c653a20636f6e747261637420697320616c72656160448201526d191e481a5b9a5d1a585b1a5e995960921b60648201526084016117f9565b6006805460ff1916600117905580156123a3576006805461ff0019166101001790555b6123ab6143b1565b6123b36143e0565b60d080546001600160a01b038e166001600160a01b03199091161790556123f78b600280546001600160a01b039092166001600160a01b0319909216919091179055565b600380546001600160a01b0319166001600160a01b038c1617905560de899055600a61242c670de0b6b3a76400006001615c2a565b6124369190615a96565b60df5560e080546001600160a01b03199081166001600160a01b038b81169190911790925560ef805482168a841617905560f08054821689841617905560eb8054821688841617905560ec8054821687841617905560ed8054821686841617905560ee805490911691841691909117905560d28054600a60ff199091161790554260d3556040805160608101909152602a808252615d90602083013980516124e69160dc91602090910190614fba565b506040518060600160405280602e8152602001615dba602e913980516125149160dd91602090910190614fba565b5060d680546001600160a01b03191633179055801561256d576006805461ff0019169055604051600181527f7f26b83ff96e1f2b6a682f133852f6798a09c465da95921460cefb38474024989060200160405180910390a15b505050505050505050505050565b612583614305565b600060d354426125939190615c49565b9050600c603c6125a38184615a96565b6125ad9190615a96565b116126205760405162461bcd60e51b815260206004820152603960248201527f596f752073686f756c642077616974206174206c6561737420313220686f757260448201527f7320616674657220746865206c6174657374207570646174650000000000000060648201526084016117f9565b60648260ff1611158015612638575060018260ff1610155b6126a05760405162461bcd60e51b815260206004820152603360248201527f546865206e65774665652073686f756c64206265206265747765656e203120616044820152726e64203130302028302e303125202d2031252960681b60648201526084016117f9565b5060d2805460ff191660ff929092169190911790554260d355565b60f05460405163f7729d4360e01b81526001600160a01b0385811660048301528481166024830152610bb860448301526064820184905260006084830181905292839291169063f7729d439060a401602060405180830381600087803b15801561272457600080fd5b505af1925050508015612754575060408051601f3d908101601f1916820190925261275191810190615722565b60015b61276057506000612763565b90505b604080516002808252606082018352600092602083019080368337019050509050858160008151811061279857612798615d3f565b60200260200101906001600160a01b031690816001600160a01b03168152505084816001815181106127cc576127cc615d3f565b6001600160a01b03928316602091820292909201015260ed5460405163d06ca61f60e01b8152600092919091169063d06ca61f9061281090889086906004016159d6565b60006040518083038186803b15801561282857600080fd5b505afa92505050801561285d57506040513d6000823e601f3d908101601f1916820160405261285a91908101906154cf565b60015b61286957506000612888565b8060018151811061287c5761287c615d3f565b60200260200101519150505b509095945050505050565b61289b614305565b6122e1600061440f565b6128ad614305565b6001600160a01b03811661291a5760405162461bcd60e51b815260206004820152602e60248201527f49434f3a205072696365206665656420616464726573732063616e6e6f74206260448201526d65207a65726f206164647265737360901b60648201526084016117f9565b60e080546001600160a01b0319166001600160a01b0392909216919091179055565b600080612a5d60dc805461294f90615caf565b80601f016020809104026020016040519081016040528092919081815260200182805461297b90615caf565b80156129c85780601f1061299d576101008083540402835291602001916129c8565b820191906000526020600020905b8154815290600101906020018083116129ab57829003601f168201915b505050505060dd80546129da90615caf565b80601f0160208091040260200160405190810160405280929190818152602001828054612a0690615caf565b8015612a535780601f10612a2857610100808354040283529160200191612a53565b820191906000526020600020905b815481529060010190602001808311612a3657829003601f168201915b5050505050610d52565b90506000612a7560de54306336aab86c60e01b614461565b60408051808201909152600381526219d95d60ea1b6020820152909150612a9e9082908461447d565b612af660405180604001604052806005815260200164706174683160d81b8152506040518060400160405280600e81526020016d726573756c74732c746f6b656e7360901b8152508361447d9092919063ffffffff16565b612b54604051806040016040528060058152602001643830ba341960d91b81525060405180604001604052806014815260200173726573756c74732c6d61726b657453686172657360601b8152508361447d9092919063ffffffff16565b612bb260405180604001604052806005815260200164706174683360d81b81525060405180604001604052806014815260200173726573756c74732c7377617056657273696f6e7360601b8152508361447d9092919063ffffffff16565b612bd0612bc76003546001600160a01b031690565b8260df5461449b565b9250505090565b612bdf614305565b6122e1614524565b60d98054612bf490615caf565b80601f0160208091040260200160405190810160405280929190818152602001828054612c2090615caf565b8015612c6d5780601f10612c4257610100808354040283529160200191612c6d565b820191906000526020600020905b815481529060010190602001808311612c5057829003601f168201915b505050505081565b612c7d614305565b60005b60e354811015612d5c5760ef54600082815260e560205260409020546001600160a01b03908116911614612d4a57600081815260e56020526040908190205460ef5460d05492516370a0823160e01b81526001600160a01b039384166004820152612d4893928316929091169082906370a082319060240160206040518083038186803b158015612d1057600080fd5b505afa158015612d24573d6000803e3d6000fd5b505050506040513d601f19601f82011682018060405250810190611f499190615722565b505b80612d5481615ce4565b915050612c80565b5060ef5460d0546040516370a0823160e01b81526001600160a01b03918216600482015260009291909116906370a082319060240160206040518083038186803b158015612da957600080fd5b505afa158015612dbd573d6000803e3d6000fd5b505050506040513d601f19601f82011682018060405250810190612de19190615722565b905060005b60e254811015612f0e5760ef54600082815260e560205260409020546001600160a01b03908116911614612e9c5760ef54600082815260e460209081526040808320546001600160a01b0390811680855260e9909352922054612e9a93929092169168056bc75e2d6310000090612e5d9087615c2a565b612e679190615a96565b60d054600086815260e460209081526040808320546001600160a01b03908116845260ea90925290912054911690613ed6565b505b600081815260e460209081526040808320805460e5845282852080546001600160a01b0319166001600160a01b0392831617905581548116855260e984528285205460e8855283862055905416835260e682528083205460e79092529091205580612f0681615ce4565b915050612de6565b505060e25460e355565b612f20614305565b8151612f339060dc906020850190614fba565b508051612f479060dd906020840190614fba565b505050565b60008060005b60e3548110156131035760ef54600082815260e560205260409020546001600160a01b039081169116141561301e57600081815260e56020526040908190205460d05491516370a0823160e01b81526001600160a01b0392831660048201529116906370a082319060240160206040518083038186803b158015612fd557600080fd5b505afa158015612fe9573d6000803e3d6000fd5b505050506040513d601f19601f8201168201806040525081019061300d9190615722565b6130179083615a7e565b91506130f1565b600081815260e560205260408082205460ef5460d05492516370a0823160e01b81526001600160a01b0393841660048201526130e193928316929091169082906370a082319060240160206040518083038186803b15801561307f57600080fd5b505afa158015613093573d6000803e3d6000fd5b505050506040513d601f19601f820116820180604052508101906130b79190615722565b600086815260e560209081526040808320546001600160a01b0316835260ea909152902054610d7f565b90506130ed8184615a7e565b9250505b806130fb81615ce4565b915050612f52565b50919050565b60d254600090612710906131209060ff1685615c2a565b61312a9190615a96565b90506000613136612f4c565b60d0549091506001600160a01b03808716916323b872dd9133911661315b8689615a7e565b6040516001600160e01b031960e086901b1681526001600160a01b0393841660048201529290911660248301526044820152606401602060405180830381600087803b1580156131aa57600080fd5b505af11580156131be573d6000803e3d6000fd5b505050506040513d601f19601f820116820180604052508101906131e29190615566565b5060ef546000906132099087906001600160a01b03166132028689615a7e565b3088613ed6565b60d254909150600090612710906132239060ff1684615c2a565b61322d9190615a96565b9050600061323b8284615c49565b60ef5460d05460405163a9059cbb60e01b81529293506001600160a01b039182169263a9059cbb926132739216908590600401615880565b602060405180830381600087803b15801561328d57600080fd5b505af11580156132a1573d6000803e3d6000fd5b505050506040513d601f19601f820116820180604052508101906132c59190615566565b5060ef5460d65460405163a9059cbb60e01b81526001600160a01b039283169263a9059cbb926132fc929116908690600401615880565b602060405180830381600087803b15801561331657600080fd5b505af115801561332a573d6000803e3d6000fd5b505050506040513d601f19601f8201168201806040525081019061334e9190615566565b5060005b60e3548110156133dd5760ef54600082815260e560205260409020546001600160a01b039081169116146133cb5760ef54600082815260e560209081526040808320546001600160a01b0390811680855260e89093529220546133c993929092169168056bc75e2d6310000090611f3f9087615c2a565b505b806133d581615ce4565b915050613352565b5060008060d060009054906101000a90046001600160a01b03166001600160a01b03166318160ddd6040518163ffffffff1660e01b815260040160206040518083038186803b15801561342f57600080fd5b505afa158015613443573d6000803e3d6000fd5b505050506040513d601f19601f820116820180604052508101906134679190615722565b111561351057848260d060009054906101000a90046001600160a01b03166001600160a01b03166318160ddd6040518163ffffffff1660e01b815260040160206040518083038186803b1580156134bd57600080fd5b505afa1580156134d1573d6000803e3d6000fd5b505050506040513d601f19601f820116820180604052508101906134f59190615722565b6134ff9190615c2a565b6135099190615a96565b905061353c565b600061351a6121ac565b9050662386f26fc1000061352e8285615c2a565b6135389190615a96565b9150505b60d0546040516340c10f1960e01b81526001600160a01b03909116906340c10f199061356e9033908590600401615880565b600060405180830381600087803b15801561358857600080fd5b505af115801561359c573d6000803e3d6000fd5b5050604080518b815260208101859052428183015290516001600160a01b038d1693503392507f4fee1c514ee0e252e3a0babfa8b5030fb89be7ea2b38df9a7fbbf788e54f3d919181900360600190a3505050505050505050565b60ef546000906001600160a01b03848116911614156136d757600061361a612f4c565b9050600060d060009054906101000a90046001600160a01b03166001600160a01b03166318160ddd6040518163ffffffff1660e01b815260040160206040518083038186803b15801561366c57600080fd5b505afa158015613680573d6000803e3d6000fd5b505050506040513d601f19601f820116820180604052508101906136a49190615722565b9050600081156136ca57826136b98884615c2a565b6136c39190615a96565b90506136cd565b50855b9250610c95915050565b60ef546000906136f39085906001600160a01b03168786610d7f565b905060006136ff612f4c565b9050600060d060009054906101000a90046001600160a01b03166001600160a01b03166318160ddd6040518163ffffffff1660e01b815260040160206040518083038186803b15801561375157600080fd5b505afa158015613765573d6000803e3d6000fd5b505050506040513d601f19601f820116820180604052508101906137899190615722565b9050600081156137af578261379e8584615c2a565b6137a89190615a96565b90506137db565b60006137b96121ac565b9050662386f26fc100006137cd8287615c2a565b6137d79190615a96565b9150505b9350610c9592505050565b6137ee614305565b6001600160a01b0381166138145760405162461bcd60e51b81526004016117f99061593b565b606b80546001600160a01b0319166001600160a01b0392909216919091179055565b60ef546000906001600160a01b0384811691161415613920576000613859612f4c565b9050600060d060009054906101000a90046001600160a01b03166001600160a01b03166318160ddd6040518163ffffffff1660e01b815260040160206040518083038186803b1580156138ab57600080fd5b505afa1580156138bf573d6000803e3d6000fd5b505050506040513d601f19601f820116820180604052508101906138e39190615722565b9050600081156138f857826136b98884615c2a565b60006139026121ac565b9050662386f26fc10000613916828a615c2a565b610c899190615a96565b60ef546000906136f39085906001600160a01b03168786610ecd565b613944614305565b82828260005b8351811015613bad5783818151811061396557613965615d3f565b602002602001015160e4600083815260200190815260200160002060006101000a8154816001600160a01b0302191690836001600160a01b031602179055508060e660008684815181106139bb576139bb615d3f565b60200260200101516001600160a01b03166001600160a01b03168152602001908152602001600020819055508281815181106139f9576139f9615d3f565b602002602001015160e96000868481518110613a1757613a17615d3f565b60200260200101516001600160a01b03166001600160a01b0316815260200190815260200160002081905550818181518110613a5557613a55615d3f565b602002602001015160ea6000868481518110613a7357613a73615d3f565b60200260200101516001600160a01b03166001600160a01b031681526020019081526020016000208190555060e35460001415613b9b57838181518110613abc57613abc615d3f565b602002602001015160e5600083815260200190815260200160002060006101000a8154816001600160a01b0302191690836001600160a01b03160217905550828181518110613b0d57613b0d615d3f565b602002602001015160e86000868481518110613b2b57613b2b615d3f565b60200260200101516001600160a01b03166001600160a01b03168152602001908152602001600020819055508060e76000868481518110613b6e57613b6e615d3f565b60200260200101516001600160a01b03166001600160a01b03168152602001908152602001600020819055505b80613ba581615ce4565b91505061394a565b50825160e25560e354613bc057825160e3555b50504260e15550505050565b613bd4614305565b60d680546001600160a01b0319166001600160a01b0383169081179091556040517fbdf37c276f641820b141429d245add2552b4118c0866e5a78638e3de5ef18d9d90600090a250565b6001600160a01b038116613c445760405162461bcd60e51b81526004016117f99061593b565b606b546001600160a01b03828116911614613cbc5760405162461bcd60e51b815260206004820152603260248201527f50726f706f7361626c654f776e61626c653a206e6577206f776e6572206973206044820152713737ba10383937b837b9b2b21037bbb732b960711b60648201526084016117f9565b6001600160a01b0381163314613d3a5760405162461bcd60e51b815260206004820152603a60248201527f50726f706f7361626c654f776e61626c653a20746869732063616c6c206d757360448201527f74206265206d61646520627920746865206e6577206f776e657200000000000060648201526084016117f9565b613d438161440f565b50565b600080826001600160a01b0316633850c7bd6040518163ffffffff1660e01b815260040160e06040518083038186803b158015613d8257600080fd5b505afa158015613d96573d6000803e3d6000fd5b505050506040513d601f19601f82011682018060405250810190613dba9190615675565b509398975050505050505050565b600080613dd486614561565b90506001600160801b036001600160a01b03821611613e5a576000613e026001600160a01b03831680615c2a565b9050836001600160a01b0316856001600160a01b031610613e3a57613e35600160c01b876001600160801b031683614881565b613e52565b613e5281876001600160801b0316600160c01b614881565b925050613ecd565b6000613e796001600160a01b0383168068010000000000000000614881565b9050836001600160a01b0316856001600160a01b031610613eb157613eac600160801b876001600160801b031683614881565b613ec9565b613ec981876001600160801b0316600160801b614881565b9250505b50949350505050565b600080613ee587878786610d7f565b905060008115613f8f5760d0546040516305f370ed60e41b81526001600160a01b038a8116600483015289811660248301526044820189905287811660648301526084820187905290911690635f370ed09060a401602060405180830381600087803b158015613f5457600080fd5b505af1158015613f68573d6000803e3d6000fd5b505050506040513d601f19601f82011682018060405250810190613f8c9190615722565b90505b8360031415613fa1579150613fa59050565b5090505b95945050505050565b600081600314156141535760eb5460405163095ea7b360e01b81526001600160a01b038881169263095ea7b392613fed92909116908890600401615880565b602060405180830381600087803b15801561400757600080fd5b505af115801561401b573d6000803e3d6000fd5b505050506040513d601f19601f8201168201806040525081019061403f9190615566565b5060408051610100810182526001600160a01b03888116825287811660208301908152610bb883850190815287831660608501908152426080860190815260a086018b8152600060c0880181815260e0890182815260eb549a5163414bf38960e01b81528a518a166004820152975189166024890152955162ffffff166044880152935187166064870152915160848601525160a4850152905160c48401529051831660e483015292939091169063414bf3899061010401602060405180830381600087803b15801561411157600080fd5b505af1158015614125573d6000803e3d6000fd5b505050506040513d601f19601f820116820180604052508101906141499190615722565b9250613fa5915050565b604080516002808252606082018352600092602083019080368337019050509050868160008151811061418857614188615d3f565b60200260200101906001600160a01b031690816001600160a01b03168152505085816001815181106141bc576141bc615d3f565b6001600160a01b03928316602091820292909201015260ed5460405163095ea7b360e01b81528983169263095ea7b3926141fd929116908990600401615880565b602060405180830381600087803b15801561421757600080fd5b505af115801561422b573d6000803e3d6000fd5b505050506040513d601f19601f8201168201806040525081019061424f9190615566565b5060ed54604051635c11d79560e01b81526001600160a01b0390911690635c11d7959061428990889060009086908a9042906004016159ef565b600060405180830381600087803b1580156142a357600080fd5b505af11580156142b7573d6000803e3d6000fd5b505050506000915050613fa5565b60008260ff168260ff1611156142fb576142df8383615c60565b6142ea90600a615af9565b6142f49085615ba5565b9050610c95565b6142df8284615c60565b6039546001600160a01b031633146122e15760405162461bcd60e51b815260206004820181905260248201527f4f776e61626c653a2063616c6c6572206973206e6f7420746865206f776e657260448201526064016117f9565b614367614934565b609e805460ff191690557f5db9ee0a495bf2e6ff9c91a7834c1ba4fdd244a5e8aa4e537bd38aeae4b073aa335b6040516001600160a01b03909116815260200160405180910390a1565b600654610100900460ff166143d85760405162461bcd60e51b81526004016117f99061598b565b6122e161497d565b600654610100900460ff166144075760405162461bcd60e51b81526004016117f99061598b565b6122e16149ad565b603980546001600160a01b038381166001600160a01b0319831681179093556040519116919082907f8be0079c531659141344cd1fd0a4f28419497f9722a3daafe3b4186f6b6457e090600090a35050565b61446961503e565b61447161503e565b613fa5818686866149e0565b608083015161448c9083614a1d565b6080830151612f479082614a1d565b6004546000906144ac816001615a7e565b600455835160408086015160808701515191516000936320214ca360e11b936144e49386938493923092918a91600191602401615899565b60408051601f198184030181529190526020810180516001600160e01b03166001600160e01b0319909316929092179091529050610d4886838684614a34565b61452c614ba1565b609e805460ff191660011790557f62e78cea01bee320cd4e420270b5ea74000d11b0c9f74754ebdbfc544b05a2586143943390565b60008060008360020b12614578578260020b614580565b8260020b6000035b9050620d89e88111156145a6576040516315e4079d60e11b815260040160405180910390fd5b6000600182166145ba57600160801b6145cc565b6ffffcb933bd6fad37aa2d162d1a5940015b70ffffffffffffffffffffffffffffffffff1690506002821615614600576ffff97272373d413259a46990580e213a0260801c5b600482161561461f576ffff2e50f5f656932ef12357cf3c7fdcc0260801c5b600882161561463e576fffe5caca7e10e4e61c3624eaa0941cd00260801c5b601082161561465d576fffcb9843d60f6159c9db58835c9266440260801c5b602082161561467c576fff973b41fa98c081472e6896dfb254c00260801c5b604082161561469b576fff2ea16466c96a3843ec78b326b528610260801c5b60808216156146ba576ffe5dee046a99a2a811c461f1969c30530260801c5b6101008216156146da576ffcbe86c7900a88aedcffc83b479aa3a40260801c5b6102008216156146fa576ff987a7253ac413176f2b074cf7815e540260801c5b61040082161561471a576ff3392b0822b70005940c7a398e4b70f30260801c5b61080082161561473a576fe7159475a2c29b7443b29c7fa6e889d90260801c5b61100082161561475a576fd097f3bdfd2022b8845ad8f792aa58250260801c5b61200082161561477a576fa9f746462d870fdf8a65dc1f90e061e50260801c5b61400082161561479a576f70d869a156d2a1b890bb3df62baf32f70260801c5b6180008216156147ba576f31be135f97d08fd981231505542fcfa60260801c5b620100008216156147db576f09aa508b5b7a84e1c677de54f3e99bc90260801c5b620200008216156147fb576e5d6af8dedb81196699c329225ee6040260801c5b6204000082161561481a576d2216e584f5fa1ea926041bedfe980260801c5b62080000821615614837576b048a170391f7dc42444e8fa20260801c5b60008460020b131561485857806000198161485457614854615d29565b0490505b64010000000081061561486c57600161486f565b60005b60ff16602082901c0192505050919050565b6000808060001985870985870292508281108382030391505080600014156148bb57600084116148b057600080fd5b508290049050610c95565b8084116148c757600080fd5b6000848688096000868103871696879004966002600389028118808a02820302808a02820302808a02820302808a02820302808a02820302808a02909103029181900381900460010186841190950394909402919094039290920491909117919091029150509392505050565b609e5460ff166122e15760405162461bcd60e51b815260206004820152601460248201527314185d5cd8589b194e881b9bdd081c185d5cd95960621b60448201526064016117f9565b600654610100900460ff166149a45760405162461bcd60e51b81526004016117f99061598b565b6122e13361440f565b600654610100900460ff166149d45760405162461bcd60e51b81526004016117f99061598b565b609e805460ff19169055565b6149e861503e565b6149f88560800151610100614be7565b50509183526001600160a01b031660208301526001600160e01b031916604082015290565b614a2a8260038351614c4c565b612f478282614d59565b6040516bffffffffffffffffffffffff193060601b1660208201526034810184905260009060540160408051808303601f1901815282825280516020918201206000818152600590925291812080546001600160a01b0319166001600160a01b038a1617905590925082917fb5e6e01e79f91267dc17b4e6314d5d4d03593d2ceee0fbb452b750bd70ea5af99190a2600254604051630200057560e51b81526001600160a01b0390911690634000aea090614af790889087908790600401615901565b602060405180830381600087803b158015614b1157600080fd5b505af1158015614b25573d6000803e3d6000fd5b505050506040513d601f19601f82011682018060405250810190614b499190615566565b610ec55760405162461bcd60e51b815260206004820152602360248201527f756e61626c6520746f207472616e73666572416e6443616c6c20746f206f7261604482015262636c6560e81b60648201526084016117f9565b609e5460ff16156122e15760405162461bcd60e51b815260206004820152601060248201526f14185d5cd8589b194e881c185d5cd95960821b60448201526064016117f9565b604080518082019091526060815260006020820152614c07602083615cff565b15614c2f57614c17602083615cff565b614c22906020615c49565b614c2c9083615a7e565b91505b506020828101829052604080518085526000815290920101905290565b6017816001600160401b031611614c7657614c708360e0600585901b168317614d80565b50505050565b60ff816001600160401b031611614cb257614c9c836018611fe0600586901b1617614d80565b50614c70836001600160401b0383166001614da5565b61ffff816001600160401b031611614cef57614cd9836019611fe0600586901b1617614d80565b50614c70836001600160401b0383166002614da5565b63ffffffff816001600160401b031611614d2e57614d1883601a611fe0600586901b1617614d80565b50614c70836001600160401b0383166004614da5565b614d4383601b611fe0600586901b1617614d80565b50614c70836001600160401b0383166008614da5565b604080518082019091526060815260006020820152610c9583846000015151848551614dcb565b604080518082019091526060815260006020820152610c958384600001515184614eb5565b604080518082019091526060815260006020820152610ec5848560000151518585614f11565b6040805180820190915260608152600060208201528251821115614dee57600080fd5b6020850151614dfd8386615a7e565b1115614e3057614e3085614e2087602001518786614e1b9190615a7e565b614f92565b614e2b906002615c2a565b614fa3565b600080865180518760208301019350808887011115614e4f5787860182525b505050602084015b60208410614e8f5780518252614e6e602083615a7e565b9150614e7b602082615a7e565b9050614e88602085615c49565b9350614e57565b51815160001960208690036101000a019081169019919091161790525083949350505050565b60408051808201909152606081526000602082015283602001518310614eea57614eea8485602001516002614e2b9190615c2a565b835180516020858301018481535080851415614f07576001810182525b5093949350505050565b6040805180820190915260608152600060208201526020850151614f358584615a7e565b1115614f4957614f4985614e208685615a7e565b60006001614f5984610100615aed565b614f639190615c49565b9050855183868201018583198251161781525080518487011115614f875783860181525b509495945050505050565b600081831115613103575081610d79565b8151614faf8383614be7565b50614c708382614d59565b828054614fc690615caf565b90600052602060002090601f016020900481019282614fe8576000855561502e565b82601f1061500157805160ff191683800117855561502e565b8280016001018555821561502e579182015b8281111561502e578251825591602001919060010190615013565b5061503a929150615079565b5090565b6040805160a0810182526000808252602080830182905282840182905260608084018390528451808601909552845283015290608082015290565b5b8082111561503a576000815560010161507a565b803561509981615d6b565b919050565b600082601f8301126150af57600080fd5b813560206150c46150bf83615a5b565b615a2b565b80838252828201915082860187848660051b89010111156150e457600080fd5b60005b8581101561510c5781356150fa81615d6b565b845292840192908401906001016150e7565b5090979650505050505050565b600082601f83011261512a57600080fd5b8135602061513a6150bf83615a5b565b80838252828201915082860187848660051b890101111561515a57600080fd5b60005b8581101561510c5781358452928401929084019060010161515d565b8051801515811461509957600080fd5b600082601f83011261519a57600080fd5b81356001600160401b038111156151b3576151b3615d55565b6151c6601f8201601f1916602001615a2b565b8181528460208386010111156151db57600080fd5b816020850160208301376000918101602001919091529392505050565b805161ffff8116811461509957600080fd5b805169ffffffffffffffffffff8116811461509957600080fd5b60006020828403121561523657600080fd5b8135610c9581615d6b565b60006020828403121561525357600080fd5b8151610c9581615d6b565b60008060008060008060008060008060006101608c8e03121561528057600080fd5b8b3561528b81615d6b565b9a5060208c013561529b81615d6b565b995060408c01356152ab81615d6b565b985060608c0135975060808c01356152c281615d6b565b965060a08c01356152d281615d6b565b955060c08c01356152e281615d6b565b945060e08c01356152f281615d6b565b93506101008c013561530381615d6b565b92506101208c013561531481615d6b565b91506153236101408d0161508e565b90509295989b509295989b9093969950565b60008060006060848603121561534a57600080fd5b833561535581615d6b565b9250602084013561536581615d6b565b915060408401356001600160801b038116811461538157600080fd5b809150509250925092565b6000806000606084860312156153a157600080fd5b83356153ac81615d6b565b925060208401356153bc81615d6b565b929592945050506040919091013590565b600080600080608085870312156153e357600080fd5b84356153ee81615d6b565b935060208501356153fe81615d6b565b93969395505050506040820135916060013590565b60008060006060848603121561542857600080fd5b833561543381615d6b565b95602085013595506040909401359392505050565b60008060006060848603121561545d57600080fd5b83356001600160401b038082111561547457600080fd5b6154808783880161509e565b9450602086013591508082111561549657600080fd5b6154a287838801615119565b935060408601359150808211156154b857600080fd5b506154c586828701615119565b9150509250925092565b600060208083850312156154e257600080fd5b82516001600160401b038111156154f857600080fd5b8301601f8101851361550957600080fd5b80516155176150bf82615a5b565b80828252848201915084840188868560051b870101111561553757600080fd5b600094505b8385101561555a57805183526001949094019391850191850161553c565b50979650505050505050565b60006020828403121561557857600080fd5b610c9582615179565b6000806000806080858703121561559757600080fd5b8435935060208501356001600160401b03808211156155b557600080fd5b6155c18883890161509e565b945060408701359150808211156155d757600080fd5b6155e388838901615119565b935060608701359150808211156155f957600080fd5b5061560687828801615119565b91505092959194509250565b6000806040838503121561562557600080fd5b82356001600160401b038082111561563c57600080fd5b61564886838701615189565b9350602085013591508082111561565e57600080fd5b5061566b85828601615189565b9150509250929050565b600080600080600080600060e0888a03121561569057600080fd5b875161569b81615d6b565b8097505060208801518060020b81146156b357600080fd5b95506156c1604089016151f8565b94506156cf606089016151f8565b93506156dd608089016151f8565b925060a08801516156ed81615d80565b91506156fb60c08901615179565b905092959891949750929550565b60006020828403121561571b57600080fd5b5035919050565b60006020828403121561573457600080fd5b5051919050565b60008060006060848603121561575057600080fd5b8335925060208401356153bc81615d6b565b60006020828403121561577457600080fd5b8135610c9581615d80565b600080600080600060a0868803121561579757600080fd5b6157a08661520a565b94506020860151935060408601519250606086015191506157c36080870161520a565b90509295509295909350565b6000602082840312156157e157600080fd5b8151610c9581615d80565b600081518084526020808501945080840160005b83811015614f875781516001600160a01b031687529582019590820190600101615800565b6000815180845261583d816020860160208601615c83565b601f01601f19169290920160200192915050565b60008351615863818460208801615c83565b835190830190615877818360208801615c83565b01949350505050565b6001600160a01b03929092168252602082015260400190565b6001600160a01b0389811682526020820189905260408201889052861660608201526001600160e01b03198516608082015260a0810184905260c0810183905261010060e082018190526000906158f283820185615825565b9b9a5050505050505050505050565b60018060a01b0384168152826020820152606060408201526000613fa56060830184615825565b602081526000610c956020830184615825565b60208082526030908201527f50726f706f7361626c654f776e61626c653a206e6577206f776e65722069732060408201526f746865207a65726f206164647265737360801b606082015260800190565b6020808252602b908201527f496e697469616c697a61626c653a20636f6e7472616374206973206e6f74206960408201526a6e697469616c697a696e6760a81b606082015260800190565b828152604060208201526000610ec560408301846157ec565b85815284602082015260a060408201526000615a0e60a08301866157ec565b6001600160a01b0394909416606083015250608001529392505050565b604051601f8201601f191681016001600160401b0381118282101715615a5357615a53615d55565b604052919050565b60006001600160401b03821115615a7457615a74615d55565b5060051b60200190565b60008219821115615a9157615a91615d13565b500190565b600082615aa557615aa5615d29565b500490565b600181815b80851115615ae5578160001904821115615acb57615acb615d13565b80851615615ad857918102915b93841c9390800290615aaf565b509250929050565b6000610c958383615b04565b6000610c9560ff8416835b600082615b1357506001610d79565b81615b2057506000610d79565b8160018114615b365760028114615b4057615b5c565b6001915050610d79565b60ff841115615b5157615b51615d13565b50506001821b610d79565b5060208310610133831016604e8410600b8410161715615b7f575081810a610d79565b615b898383615aaa565b8060001904821115615b9d57615b9d615d13565b029392505050565b60006001600160ff1b0381841382841380821686840486111615615bcb57615bcb615d13565b600160ff1b6000871282811687830589121615615bea57615bea615d13565b60008712925087820587128484161615615c0657615c06615d13565b87850587128184161615615c1c57615c1c615d13565b505050929093029392505050565b6000816000190483118215151615615c4457615c44615d13565b500290565b600082821015615c5b57615c5b615d13565b500390565b600060ff821660ff841680821015615c7a57615c7a615d13565b90039392505050565b60005b83811015615c9e578181015183820152602001615c86565b83811115614c705750506000910152565b600181811c90821680615cc357607f821691505b6020821081141561310357634e487b7160e01b600052602260045260246000fd5b6000600019821415615cf857615cf8615d13565b5060010190565b600082615d0e57615d0e615d29565b500690565b634e487b7160e01b600052601160045260246000fd5b634e487b7160e01b600052601260045260246000fd5b634e487b7160e01b600052603260045260246000fd5b634e487b7160e01b600052604160045260246000fd5b6001600160a01b0381168114613d4357600080fd5b60ff81168114613d4357600080fdfe68747470733a2f2f6170702e6e65786c6162732e696f2f6170692f616c6c46756e64696e6752617465733f6d756c7469706c7946756e633d31382674696d65734e656746756e643d74727565266172726179733d74727565a26469706673582212206266769287c6adc91657f62561ccab0ec7f126f487a0710e3315ce51233d651d64736f6c63430008070033","linkReferences":{}},"methodIdentifiers":{"concatenation(string,string)":"0e329357","currentList(uint256)":"9932ba4c","estimateAmountOut(address,address,uint128)":"0456f9c8","externalJobId()":"a8b54bd4","factoryV2()":"68e0d4e1","factoryV3()":"1d5f45f5","fee()":"ddca3f43","feeRate()":"978bbdb9","feeRatePerDayScaled()":"2fecd589","feeReceiver()":"b3f00674","feeTimestamp()":"184a732f","fulfillAssetsData(bytes32,address[],uint256[],uint256[])":"36aab86c","getAmountOut(address,address,uint256,uint256)":"13cb1f83","getExactAmountOut(address,address,uint256,uint256)":"156a5da1","getExactAmountOut2(address,address,uint256)":"686f9175","getIssuanceAmountOut(uint256,address,uint256)":"b3951b67","getIssuanceAmountOut2(uint256,address,uint256)":"c8b76e70","getPortfolioBalance()":"a8509fd8","getRedemptionAmountOut(uint256,address,uint256)":"02e04015","getRedemptionAmountOut2(uint256,address,uint256)":"1ff01563","indexToken()":"e7d015f2","initialize(address,address,address,bytes32,address,address,address,address,address,address,address)":"465a4c94","isRestricted(address)":"c01bc982","issuanceIndexTokens(address,uint256,uint256)":"abdd5f3f","issuanceIndexTokensWithEth(uint256)":"372d4c55","lastUpdateTime()":"c8f33c91","latestFeeUpdate()":"011ced5f","methodologist()":"9f8e67bf","methodology()":"9eeb1d50","minter()":"07546172","mockFillAssetsList(address[],uint256[],uint256[])":"e267078a","oracleList(uint256)":"239aad0d","oraclePayment()":"0c02e130","owner()":"8da5cb5b","pause()":"8456cb59","paused()":"5c975abb","priceInWei()":"3c8da588","proposeOwner(address)":"b5ed298a","proposedOwner()":"d153b60c","quoter()":"c6bbd5a7","reIndexAndReweight()":"a2ab905d","redemption(uint256,address,uint256)":"2b9522e0","renounceOwnership()":"715018a6","requestAssetsData()":"7ca58c55","setFeeRate(uint8)":"5177942a","setFeeReceiver(address)":"efdcd974","setPriceFeed(address)":"724e78da","setUrl(string,string)":"a73e1cbf","supplyCeiling()":"2b52684d","swapRouterV2()":"744fbc7a","swapRouterV3()":"b631e80b","toUsdPriceFeed()":"63973fda","tokenCurrentListIndex(address)":"914f0cc6","tokenCurrentMarketShare(address)":"0be52713","tokenOracleListIndex(address)":"8c88c10c","tokenOracleMarketShare(address)":"4b3e0b80","tokenSwapVersion(address)":"d90bc211","totalCurrentList()":"53fd4332","totalOracleList()":"c8599ded","transferOwnership(address)":"f2fde38b","unpause()":"3f4ba83a","weth()":"3fc8cef3"},"id":1}