{
  "abi": [
    {
      "inputs": [],
      "name": "T",
      "type": "error"
    },
    {
      "anonymous": false,
      "inputs": [
        {
          "indexed": true,
          "internalType": "bytes32",
          "name": "id",
          "type": "bytes32"
        }
      ],
      "name": "ChainlinkCancelled",
      "type": "event"
    },
    {
      "anonymous": false,
      "inputs": [
        {
          "indexed": true,
          "internalType": "bytes32",
          "name": "id",
          "type": "bytes32"
        }
      ],
      "name": "ChainlinkFulfilled",
      "type": "event"
    },
    {
      "anonymous": false,
      "inputs": [
        {
          "indexed": true,
          "internalType": "bytes32",
          "name": "id",
          "type": "bytes32"
        }
      ],
      "name": "ChainlinkRequested",
      "type": "event"
    },
    {
      "anonymous": false,
      "inputs": [
        {
          "indexed": true,
          "internalType": "uint256",
          "name": "feeRatePerDayScaled",
          "type": "uint256"
        }
      ],
      "name": "FeeRateSet",
      "type": "event"
    },
    {
      "anonymous": false,
      "inputs": [
        {
          "indexed": true,
          "internalType": "address",
          "name": "feeReceiver",
          "type": "address"
        }
      ],
      "name": "FeeReceiverSet",
      "type": "event"
    },
    {
      "anonymous": false,
      "inputs": [
        {
          "indexed": false,
          "internalType": "uint8",
          "name": "version",
          "type": "uint8"
        }
      ],
      "name": "Initialized",
      "type": "event"
    },
    {
      "anonymous": false,
      "inputs": [
        {
          "indexed": true,
          "internalType": "address",
          "name": "methodologist",
          "type": "address"
        }
      ],
      "name": "MethodologistSet",
      "type": "event"
    },
    {
      "anonymous": false,
      "inputs": [
        {
          "indexed": false,
          "internalType": "string",
          "name": "methodology",
          "type": "string"
        }
      ],
      "name": "MethodologySet",
      "type": "event"
    },
    {
      "anonymous": false,
      "inputs": [
        {
          "indexed": false,
          "internalType": "address",
          "name": "feeReceiver",
          "type": "address"
        },
        {
          "indexed": false,
          "internalType": "uint256",
          "name": "timestamp",
          "type": "uint256"
        },
        {
          "indexed": false,
          "internalType": "uint256",
          "name": "totalSupply",
          "type": "uint256"
        },
        {
          "indexed": false,
          "internalType": "uint256",
          "name": "amount",
          "type": "uint256"
        }
      ],
      "name": "MintFeeToReceiver",
      "type": "event"
    },
    {
      "anonymous": false,
      "inputs": [
        {
          "indexed": true,
          "internalType": "address",
          "name": "minter",
          "type": "address"
        }
      ],
      "name": "MinterSet",
      "type": "event"
    },
    {
      "anonymous": false,
      "inputs": [
        {
          "indexed": true,
          "internalType": "address",
          "name": "previousOwner",
          "type": "address"
        },
        {
          "indexed": true,
          "internalType": "address",
          "name": "newOwner",
          "type": "address"
        }
      ],
      "name": "OwnershipTransferred",
      "type": "event"
    },
    {
      "anonymous": false,
      "inputs": [
        {
          "indexed": false,
          "internalType": "address",
          "name": "account",
          "type": "address"
        }
      ],
      "name": "Paused",
      "type": "event"
    },
    {
      "anonymous": false,
      "inputs": [
        {
          "indexed": false,
          "internalType": "uint256",
          "name": "supplyCeiling",
          "type": "uint256"
        }
      ],
      "name": "SupplyCeilingSet",
      "type": "event"
    },
    {
      "anonymous": false,
      "inputs": [
        {
          "indexed": true,
          "internalType": "address",
          "name": "account",
          "type": "address"
        },
        {
          "indexed": false,
          "internalType": "bool",
          "name": "isRestricted",
          "type": "bool"
        }
      ],
      "name": "ToggledRestricted",
      "type": "event"
    },
    {
      "anonymous": false,
      "inputs": [
        {
          "indexed": false,
          "internalType": "address",
          "name": "account",
          "type": "address"
        }
      ],
      "name": "Unpaused",
      "type": "event"
    },
    {
      "inputs": [],
      "name": "BONE",
      "outputs": [
        {
          "internalType": "address",
          "name": "",
          "type": "address"
        }
      ],
      "stateMutability": "view",
      "type": "function"
    },
    {
      "inputs": [],
      "name": "BabyDoge",
      "outputs": [
        {
          "internalType": "address",
          "name": "",
          "type": "address"
        }
      ],
      "stateMutability": "view",
      "type": "function"
    },
    {
      "inputs": [],
      "name": "ELON",
      "outputs": [
        {
          "internalType": "address",
          "name": "",
          "type": "address"
        }
      ],
      "stateMutability": "view",
      "type": "function"
    },
    {
      "inputs": [],
      "name": "FLOKI",
      "outputs": [
        {
          "internalType": "address",
          "name": "",
          "type": "address"
        }
      ],
      "stateMutability": "view",
      "type": "function"
    },
    {
      "inputs": [],
      "name": "HarryPotterObamaSonic10Inu",
      "outputs": [
        {
          "internalType": "address",
          "name": "",
          "type": "address"
        }
      ],
      "stateMutability": "view",
      "type": "function"
    },
    {
      "inputs": [],
      "name": "LEASH",
      "outputs": [
        {
          "internalType": "address",
          "name": "",
          "type": "address"
        }
      ],
      "stateMutability": "view",
      "type": "function"
    },
    {
      "inputs": [],
      "name": "MEME",
      "outputs": [
        {
          "internalType": "address",
          "name": "",
          "type": "address"
        }
      ],
      "stateMutability": "view",
      "type": "function"
    },
    {
      "inputs": [],
      "name": "PEPE",
      "outputs": [
        {
          "internalType": "address",
          "name": "",
          "type": "address"
        }
      ],
      "stateMutability": "view",
      "type": "function"
    },
    {
      "inputs": [],
      "name": "QUOTER",
      "outputs": [
        {
          "internalType": "address",
          "name": "",
          "type": "address"
        }
      ],
      "stateMutability": "view",
      "type": "function"
    },
    {
      "inputs": [],
      "name": "SHIB",
      "outputs": [
        {
          "internalType": "address",
          "name": "",
          "type": "address"
        }
      ],
      "stateMutability": "view",
      "type": "function"
    },
    {
      "inputs": [],
      "name": "WETH9",
      "outputs": [
        {
          "internalType": "address",
          "name": "",
          "type": "address"
        }
      ],
      "stateMutability": "view",
      "type": "function"
    },
    {
      "inputs": [],
      "name": "WSM",
      "outputs": [
        {
          "internalType": "address",
          "name": "",
          "type": "address"
        }
      ],
      "stateMutability": "view",
      "type": "function"
    },
    {
      "inputs": [
        {
          "internalType": "uint256",
          "name": "",
          "type": "uint256"
        }
      ],
      "name": "assetList",
      "outputs": [
        {
          "internalType": "address",
          "name": "",
          "type": "address"
        }
      ],
      "stateMutability": "view",
      "type": "function"
    },
    {
      "inputs": [
        {
          "internalType": "string",
          "name": "a",
          "type": "string"
        },
        {
          "internalType": "string",
          "name": "b",
          "type": "string"
        }
      ],
      "name": "concatenation",
      "outputs": [
        {
          "internalType": "string",
          "name": "",
          "type": "string"
        }
      ],
      "stateMutability": "pure",
      "type": "function"
    },
    {
      "inputs": [
        {
          "internalType": "uint256",
          "name": "",
          "type": "uint256"
        }
      ],
      "name": "currentList",
      "outputs": [
        {
          "internalType": "address",
          "name": "",
          "type": "address"
        }
      ],
      "stateMutability": "view",
      "type": "function"
    },
    {
      "inputs": [
        {
          "internalType": "address",
          "name": "tokenIn",
          "type": "address"
        },
        {
          "internalType": "address",
          "name": "tokenOut",
          "type": "address"
        },
        {
          "internalType": "uint128",
          "name": "amountIn",
          "type": "uint128"
        },
        {
          "internalType": "uint32",
          "name": "secondsAgo",
          "type": "uint32"
        }
      ],
      "name": "estimateAmountOut",
      "outputs": [
        {
          "internalType": "uint256",
          "name": "amountOut",
          "type": "uint256"
        }
      ],
      "stateMutability": "view",
      "type": "function"
    },
    {
      "inputs": [],
      "name": "externalJobId",
      "outputs": [
        {
          "internalType": "bytes32",
          "name": "",
          "type": "bytes32"
        }
      ],
      "stateMutability": "view",
      "type": "function"
    },
    {
      "inputs": [],
      "name": "factoryV2",
      "outputs": [
        {
          "internalType": "contract IUniswapV2Factory",
          "name": "",
          "type": "address"
        }
      ],
      "stateMutability": "view",
      "type": "function"
    },
    {
      "inputs": [],
      "name": "factoryV3",
      "outputs": [
        {
          "internalType": "contract IUniswapV3Factory",
          "name": "",
          "type": "address"
        }
      ],
      "stateMutability": "view",
      "type": "function"
    },
    {
      "inputs": [],
      "name": "fee",
      "outputs": [
        {
          "internalType": "uint256",
          "name": "",
          "type": "uint256"
        }
      ],
      "stateMutability": "view",
      "type": "function"
    },
    {
      "inputs": [],
      "name": "feeRatePerDayScaled",
      "outputs": [
        {
          "internalType": "uint256",
          "name": "",
          "type": "uint256"
        }
      ],
      "stateMutability": "view",
      "type": "function"
    },
    {
      "inputs": [],
      "name": "feeReceiver",
      "outputs": [
        {
          "internalType": "address",
          "name": "",
          "type": "address"
        }
      ],
      "stateMutability": "view",
      "type": "function"
    },
    {
      "inputs": [],
      "name": "feeTimestamp",
      "outputs": [
        {
          "internalType": "uint256",
          "name": "",
          "type": "uint256"
        }
      ],
      "stateMutability": "view",
      "type": "function"
    },
    {
      "inputs": [
        {
          "internalType": "bytes32",
          "name": "requestId",
          "type": "bytes32"
        },
        {
          "internalType": "address[]",
          "name": "_tokens",
          "type": "address[]"
        },
        {
          "internalType": "uint256[]",
          "name": "_marketShares",
          "type": "uint256[]"
        },
        {
          "internalType": "uint256[]",
          "name": "_swapVersions",
          "type": "uint256[]"
        }
      ],
      "name": "fulfillFundingRate",
      "outputs": [],
      "stateMutability": "nonpayable",
      "type": "function"
    },
    {
      "inputs": [
        {
          "internalType": "address",
          "name": "tokenIn",
          "type": "address"
        },
        {
          "internalType": "address",
          "name": "tokenOut",
          "type": "address"
        },
        {
          "internalType": "uint256",
          "name": "amountIn",
          "type": "uint256"
        },
        {
          "internalType": "uint256",
          "name": "_swapVersion",
          "type": "uint256"
        }
      ],
      "name": "getAmountOut",
      "outputs": [
        {
          "internalType": "uint256",
          "name": "finalAmountOut",
          "type": "uint256"
        }
      ],
      "stateMutability": "nonpayable",
      "type": "function"
    },
    {
      "inputs": [],
      "name": "getAmounts",
      "outputs": [
        {
          "internalType": "uint256",
          "name": "",
          "type": "uint256"
        },
        {
          "internalType": "uint256",
          "name": "",
          "type": "uint256"
        }
      ],
      "stateMutability": "nonpayable",
      "type": "function"
    },
    {
      "inputs": [],
      "name": "getPool",
      "outputs": [
        {
          "internalType": "address",
          "name": "",
          "type": "address"
        },
        {
          "internalType": "address",
          "name": "",
          "type": "address"
        }
      ],
      "stateMutability": "nonpayable",
      "type": "function"
    },
    {
      "inputs": [],
      "name": "getPortfolioBalance",
      "outputs": [
        {
          "internalType": "uint256",
          "name": "",
          "type": "uint256"
        }
      ],
      "stateMutability": "nonpayable",
      "type": "function"
    },
    {
      "inputs": [],
      "name": "indexToken",
      "outputs": [
        {
          "internalType": "contract IndexToken",
          "name": "",
          "type": "address"
        }
      ],
      "stateMutability": "view",
      "type": "function"
    },
    {
      "inputs": [
        {
          "internalType": "address payable",
          "name": "_token",
          "type": "address"
        },
        {
          "internalType": "address",
          "name": "_nft",
          "type": "address"
        },
        {
          "internalType": "address",
          "name": "_chainlinkToken",
          "type": "address"
        },
        {
          "internalType": "address",
          "name": "_oracleAddress",
          "type": "address"
        },
        {
          "internalType": "bytes32",
          "name": "_externalJobId",
          "type": "bytes32"
        }
      ],
      "name": "initialize",
      "outputs": [],
      "stateMutability": "nonpayable",
      "type": "function"
    },
    {
      "inputs": [
        {
          "internalType": "address",
          "name": "",
          "type": "address"
        }
      ],
      "name": "isRestricted",
      "outputs": [
        {
          "internalType": "bool",
          "name": "",
          "type": "bool"
        }
      ],
      "stateMutability": "view",
      "type": "function"
    },
    {
      "inputs": [
        {
          "internalType": "address",
          "name": "tokenIn",
          "type": "address"
        },
        {
          "internalType": "uint256",
          "name": "amountIn",
          "type": "uint256"
        }
      ],
      "name": "issuanceIndexTokens",
      "outputs": [],
      "stateMutability": "nonpayable",
      "type": "function"
    },
    {
      "inputs": [],
      "name": "issuanceIndexTokensWithEth",
      "outputs": [],
      "stateMutability": "payable",
      "type": "function"
    },
    {
      "inputs": [],
      "name": "lastUpdateTime",
      "outputs": [
        {
          "internalType": "uint256",
          "name": "",
          "type": "uint256"
        }
      ],
      "stateMutability": "view",
      "type": "function"
    },
    {
      "inputs": [],
      "name": "methodologist",
      "outputs": [
        {
          "internalType": "address",
          "name": "",
          "type": "address"
        }
      ],
      "stateMutability": "view",
      "type": "function"
    },
    {
      "inputs": [],
      "name": "methodology",
      "outputs": [
        {
          "internalType": "string",
          "name": "",
          "type": "string"
        }
      ],
      "stateMutability": "view",
      "type": "function"
    },
    {
      "inputs": [],
      "name": "minter",
      "outputs": [
        {
          "internalType": "address",
          "name": "",
          "type": "address"
        }
      ],
      "stateMutability": "view",
      "type": "function"
    },
    {
      "inputs": [],
      "name": "nft",
      "outputs": [
        {
          "internalType": "contract RequestNFT",
          "name": "",
          "type": "address"
        }
      ],
      "stateMutability": "view",
      "type": "function"
    },
    {
      "inputs": [
        {
          "internalType": "uint256",
          "name": "",
          "type": "uint256"
        }
      ],
      "name": "oracleList",
      "outputs": [
        {
          "internalType": "address",
          "name": "",
          "type": "address"
        }
      ],
      "stateMutability": "view",
      "type": "function"
    },
    {
      "inputs": [],
      "name": "oraclePayment",
      "outputs": [
        {
          "internalType": "uint256",
          "name": "",
          "type": "uint256"
        }
      ],
      "stateMutability": "view",
      "type": "function"
    },
    {
      "inputs": [],
      "name": "owner",
      "outputs": [
        {
          "internalType": "address",
          "name": "",
          "type": "address"
        }
      ],
      "stateMutability": "view",
      "type": "function"
    },
    {
      "inputs": [],
      "name": "pause",
      "outputs": [],
      "stateMutability": "nonpayable",
      "type": "function"
    },
    {
      "inputs": [],
      "name": "paused",
      "outputs": [
        {
          "internalType": "bool",
          "name": "",
          "type": "bool"
        }
      ],
      "stateMutability": "view",
      "type": "function"
    },
    {
      "inputs": [
        {
          "internalType": "address",
          "name": "_proposedOwner",
          "type": "address"
        }
      ],
      "name": "proposeOwner",
      "outputs": [],
      "stateMutability": "nonpayable",
      "type": "function"
    },
    {
      "inputs": [],
      "name": "proposedOwner",
      "outputs": [
        {
          "internalType": "address",
          "name": "",
          "type": "address"
        }
      ],
      "stateMutability": "view",
      "type": "function"
    },
    {
      "inputs": [],
      "name": "quoter",
      "outputs": [
        {
          "internalType": "contract IQuoter",
          "name": "",
          "type": "address"
        }
      ],
      "stateMutability": "view",
      "type": "function"
    },
    {
      "inputs": [
        {
          "internalType": "uint256",
          "name": "amountIn",
          "type": "uint256"
        }
      ],
      "name": "redemption",
      "outputs": [],
      "stateMutability": "nonpayable",
      "type": "function"
    },
    {
      "inputs": [],
      "name": "renounceOwnership",
      "outputs": [],
      "stateMutability": "nonpayable",
      "type": "function"
    },
    {
      "inputs": [],
      "name": "requestFundingRate",
      "outputs": [
        {
          "internalType": "bytes32",
          "name": "",
          "type": "bytes32"
        }
      ],
      "stateMutability": "nonpayable",
      "type": "function"
    },
    {
      "inputs": [],
      "name": "sswap",
      "outputs": [],
      "stateMutability": "payable",
      "type": "function"
    },
    {
      "inputs": [],
      "name": "supplyCeiling",
      "outputs": [
        {
          "internalType": "uint256",
          "name": "",
          "type": "uint256"
        }
      ],
      "stateMutability": "view",
      "type": "function"
    },
    {
      "inputs": [],
      "name": "swapGas",
      "outputs": [],
      "stateMutability": "payable",
      "type": "function"
    },
    {
      "inputs": [],
      "name": "swapGas1",
      "outputs": [],
      "stateMutability": "payable",
      "type": "function"
    },
    {
      "inputs": [],
      "name": "swapRouterV2",
      "outputs": [
        {
          "internalType": "contract IUniswapV2Router02",
          "name": "",
          "type": "address"
        }
      ],
      "stateMutability": "view",
      "type": "function"
    },
    {
      "inputs": [],
      "name": "swapRouterV3",
      "outputs": [
        {
          "internalType": "contract ISwapRouter",
          "name": "",
          "type": "address"
        }
      ],
      "stateMutability": "view",
      "type": "function"
    },
    {
      "inputs": [
        {
          "internalType": "address",
          "name": "",
          "type": "address"
        }
      ],
      "name": "tokenMarketShare",
      "outputs": [
        {
          "internalType": "uint256",
          "name": "",
          "type": "uint256"
        }
      ],
      "stateMutability": "view",
      "type": "function"
    },
    {
      "inputs": [
        {
          "internalType": "address",
          "name": "",
          "type": "address"
        }
      ],
      "name": "tokenSwapVersion",
      "outputs": [
        {
          "internalType": "uint256",
          "name": "",
          "type": "uint256"
        }
      ],
      "stateMutability": "view",
      "type": "function"
    },
    {
      "inputs": [],
      "name": "totalCurrentList",
      "outputs": [
        {
          "internalType": "uint256",
          "name": "",
          "type": "uint256"
        }
      ],
      "stateMutability": "view",
      "type": "function"
    },
    {
      "inputs": [],
      "name": "totalOracleList",
      "outputs": [
        {
          "internalType": "uint256",
          "name": "",
          "type": "uint256"
        }
      ],
      "stateMutability": "view",
      "type": "function"
    },
    {
      "inputs": [
        {
          "internalType": "address",
          "name": "newOwner",
          "type": "address"
        }
      ],
      "name": "transferOwnership",
      "outputs": [],
      "stateMutability": "nonpayable",
      "type": "function"
    },
    {
      "inputs": [],
      "name": "unpause",
      "outputs": [],
      "stateMutability": "nonpayable",
      "type": "function"
    },
    {
      "inputs": [],
      "name": "weth",
      "outputs": [
        {
          "internalType": "contract IWETH",
          "name": "",
          "type": "address"
        }
      ],
      "stateMutability": "view",
      "type": "function"
    },
    {
      "stateMutability": "payable",
      "type": "receive"
    }
  ],
  "bytecode": {
    "object": "0x600160045560db80546001600160a01b0319167395ad61b0a150d79219dcf64e1e6cc01f0b64c4ce9081179091556101c06040526080908152736982508145454ce325ddbe47a25d4ec3d231193360a05273cf0c122c6b73ff809c693db761e7baebe62b6a2e60c05273b131f4a55907b10d1f0a50d8ab8fa09ec342cd7460e05273ac57de9c1a09fec648e93eb98875b212db0d460b61010052739813037ee2218799597d83d4a5b6f3b6778218d9610120527372e4f9f808c49a2a61de9c5896298920dc4eeea96101405273761d38e5ddf6ccf6cf7c55759d5210750b5d60f36101605273b62e45c3df611dce236a6ddc7a493d79f9dfadef610180527327c70cd1946795b66be9d954418546998b5466346101a052620001269060dc90600a620001e5565b506040518060600160405280602a8152602001620052fe602a91398051620001579160dd916020909101906200024f565b506040518060600160405280602e815260200162005328602e91398051620001889160de916020909101906200024f565b5060e880546001600160a01b031990811673c02aaa39b223fe8d0a0e5c4f27ead9083c756cc21790915560e9805490911673b27308f9f90d607463bb33ea1bebb41c27ce5ab6179055348015620001de57600080fd5b5062000320565b8280548282559060005260206000209081019282156200023d579160200282015b828111156200023d57825182546001600160a01b0319166001600160a01b0390911617825560209092019160019091019062000206565b506200024b929150620002cc565b5090565b8280546200025d90620002e3565b90600052602060002090601f0160209004810192826200028157600085556200023d565b82601f106200029c57805160ff19168380011785556200023d565b828001600101855582156200023d579182015b828111156200023d578251825591602001919060010190620002af565b5b808211156200024b5760008155600101620002cd565b600181811c90821680620002f857607f821691505b602082108114156200031a57634e487b7160e01b600052602260045260246000fd5b50919050565b614fce80620003306000396000f3fe6080604052600436106103b15760003560e01c80637c10041a116101e7578063b631e80b1161010d578063d1a72ed6116100a0578063e4fbaecb1161006f578063e4fbaecb14610b09578063e7d015f214610b31578063f2fde38b14610b51578063fcaae87b14610b7157600080fd5b8063d1a72ed614610a7e578063d90bc21114610aa6578063ddca3f4314610ad3578063e24b85e714610ae957600080fd5b8063c6bbd5a7116100dc578063c6bbd5a714610a12578063c8599ded14610a32578063c8f33c9114610a48578063d153b60c14610a5e57600080fd5b8063b631e80b14610978578063bf938db81461099a578063c01bc982146109ba578063c36596a6146109ea57600080fd5b80639f8e67bf11610185578063ad39e5fd11610154578063ad39e5fd146108f0578063b3f0067414610918578063b51db0e814610938578063b5ed298a1461095857600080fd5b80639f8e67bf14610885578063a0b4b301146108a5578063a8509fd8146108c5578063a8b54bd4146108da57600080fd5b80638da5cb5b116101c15780638da5cb5b146107f45780638dae88c2146108125780639932ba4c1461083a5780639eeb1d501461087057600080fd5b80637c10041a146107b75780638456cb59146107bf5780638be78847146107d457600080fd5b80632f9f8c13116102d75780634a1dc0921161026a5780635c975abb116102395780635c975abb1461072e57806368e0d4e114610752578063715018a61461077a578063744fbc7a1461078f57600080fd5b80634a1dc092146106ae5780634aa4a4fc146106ce57806353fd4332146106f05780635725a9771461070657600080fd5b80633f4ba83a116102a65780633f4ba83a146106445780633fc8cef3146106595780634309e5df1461067957806347ccca021461068e57600080fd5b80632f9f8c13146105b45780632fab7aea146105dc5780632fecd589146106045780633d370b4e1461061a57600080fd5b8063184a732f1161034f578063239aad0d1161031e578063239aad0d14610520578063297a3e57146105565780632b52684d146105765780632e7b09481461058c57600080fd5b8063184a732f146104d257806319b1f86a146104e85780631d5f45f5146104f0578063209db5301461051857600080fd5b80630e3293571161038b5780630e329357146104535780630fb405b71461048057806312740eb5146104a857806313cb1f83146104b257600080fd5b8063026b1d5f146103bd57806307546172146103f75780630c02e1301461042f57600080fd5b366103b857005b600080fd5b3480156103c957600080fd5b506103d2610b9e565b604080516001600160a01b039384168152929091166020830152015b60405180910390f35b34801561040357600080fd5b5060d754610417906001600160a01b031681565b6040516001600160a01b0390911681526020016103ee565b34801561043b57600080fd5b5061044560e05481565b6040519081526020016103ee565b34801561045f57600080fd5b5061047361046e366004614806565b610d06565b6040516103ee9190614a17565b34801561048c57600080fd5b506104177372e4f9f808c49a2a61de9c5896298920dc4eeea981565b6104b0610d33565b005b3480156104be57600080fd5b506104456104cd366004614512565b611589565b3480156104de57600080fd5b5061044560d45481565b6104b06116ed565b3480156104fc57600080fd5b50610417731f98431c8ad98523631ae4a59f267346ea31f98481565b6104b06119a8565b34801561052c57600080fd5b5061041761053b36600461485f565b60e4602052600090815260409020546001600160a01b031681565b34801561056257600080fd5b506104b061057136600461443d565b611b84565b34801561058257600080fd5b5061044560d95481565b34801561059857600080fd5b5061041773b131f4a55907b10d1f0a50d8ab8fa09ec342cd7481565b3480156105c057600080fd5b5061041773cf0c122c6b73ff809c693db761e7baebe62b6a2e81565b3480156105e857600080fd5b5061041773761d38e5ddf6ccf6cf7c55759d5210750b5d60f381565b34801561061057600080fd5b5061044560d35481565b34801561062657600080fd5b5061062f611d2d565b604080519283526020830191909152016103ee565b34801561065057600080fd5b506104b0611f64565b34801561066557600080fd5b5060e854610417906001600160a01b031681565b34801561068557600080fd5b50610445611f76565b34801561069a57600080fd5b5060d154610417906001600160a01b031681565b3480156106ba57600080fd5b506104b06106c936600461485f565b612211565b3480156106da57600080fd5b50610417600080516020614f5983398151915281565b3480156106fc57600080fd5b5061044560e35481565b34801561071257600080fd5b5061041773b62e45c3df611dce236a6ddc7a493d79f9dfadef81565b34801561073a57600080fd5b50609e5460ff165b60405190151581526020016103ee565b34801561075e57600080fd5b50610417735c69bee701ef814a2b6a3edd4b1652cb9cc5aa6f81565b34801561078657600080fd5b506104b0612536565b34801561079b57600080fd5b50610417737a250d5630b4cf539739df2c5dacb4c659f2488d81565b6104b0612548565b3480156107cb57600080fd5b506104b06125ee565b3480156107e057600080fd5b506104b06107ef366004614558565b6125fe565b34801561080057600080fd5b506039546001600160a01b0316610417565b34801561081e57600080fd5b5061041773b27308f9f90d607463bb33ea1bebb41c27ce5ab681565b34801561084657600080fd5b5061041761085536600461485f565b60e5602052600090815260409020546001600160a01b031681565b34801561087c57600080fd5b506104736128e6565b34801561089157600080fd5b5060d654610417906001600160a01b031681565b3480156108b157600080fd5b506104176108c036600461485f565b612974565b3480156108d157600080fd5b5061044561299e565b3480156108e657600080fd5b5061044560df5481565b3480156108fc57600080fd5b506104177327c70cd1946795b66be9d954418546998b54663481565b34801561092457600080fd5b5060d554610417906001600160a01b031681565b34801561094457600080fd5b506104b061095336600461470e565b612a9b565b34801561096457600080fd5b506104b0610973366004614403565b612cff565b34801561098457600080fd5b50610417600080516020614f7983398151915281565b3480156109a657600080fd5b506104456109b53660046144a1565b612d4f565b3480156109c657600080fd5b506107426109d5366004614403565b60da6020526000908152604090205460ff1681565b3480156109f657600080fd5b50610417739813037ee2218799597d83d4a5b6f3b6778218d981565b348015610a1e57600080fd5b5060e954610417906001600160a01b031681565b348015610a3e57600080fd5b5061044560e25481565b348015610a5457600080fd5b5061044560e15481565b348015610a6a57600080fd5b50606b54610417906001600160a01b031681565b348015610a8a57600080fd5b5061041773ac57de9c1a09fec648e93eb98875b212db0d460b81565b348015610ab257600080fd5b50610445610ac1366004614403565b60e76020526000908152604090205481565b348015610adf57600080fd5b5061044560d25481565b348015610af557600080fd5b5060db54610417906001600160a01b031681565b348015610b1557600080fd5b50610417736982508145454ce325ddbe47a25d4ec3d231193381565b348015610b3d57600080fd5b5060d054610417906001600160a01b031681565b348015610b5d57600080fd5b506104b0610b6c366004614403565b612e17565b348015610b7d57600080fd5b50610445610b8c366004614403565b60e66020526000908152604090205481565b60db54604051630b4c774160e11b8152600080516020614f5983398151915260048201526001600160a01b039091166024820152610bb8604482015260009081908190731f98431c8ad98523631ae4a59f267346ea31f98490631698ee829060640160206040518083038186803b158015610c1857600080fd5b505afa158015610c2c573d6000803e3d6000fd5b505050506040513d601f19601f82011682018060405250810190610c509190614420565b60db5460405163e6a4390560e01b8152600080516020614f5983398151915260048201526001600160a01b039091166024820152909150600090735c69bee701ef814a2b6a3edd4b1652cb9cc5aa6f9063e6a4390590604401602060405180830381600087803b158015610cc357600080fd5b505af1158015610cd7573d6000803e3d6000fd5b505050506040513d601f19601f82011682018060405250810190610cfb9190614420565b919491935090915050565b60608282604051602001610d1b9291906148f6565b60405160208183030381529060405290505b92915050565b60db54600090610d5e90600080516020614f59833981519152906001600160a01b0316346001612d4f565b60db54909150610d8990600080516020614f59833981519152906001600160a01b0316346001612d4f565b60db54909150610db490600080516020614f59833981519152906001600160a01b0316346001612d4f565b60db54909150610ddf90600080516020614f59833981519152906001600160a01b0316346001612d4f565b60db54909150610e0a90600080516020614f59833981519152906001600160a01b0316346001612d4f565b60db54909150610e3590600080516020614f59833981519152906001600160a01b0316346001612d4f565b60db54909150610e6090600080516020614f59833981519152906001600160a01b0316346001612d4f565b60db54909150610e8b90600080516020614f59833981519152906001600160a01b0316346001612d4f565b60db54909150610eb690600080516020614f59833981519152906001600160a01b0316346001612d4f565b60db54909150610ee190600080516020614f59833981519152906001600160a01b0316346001612d4f565b905060e860009054906101000a90046001600160a01b03166001600160a01b031663d0e30db0346040518263ffffffff1660e01b81526004016000604051808303818588803b158015610f3357600080fd5b505af1158015610f47573d6000803e3d6000fd5b505060e85460405163095ea7b360e01b8152600080516020614f7983398151915260048201523460248201526001600160a01b03909116935063095ea7b392506044019050602060405180830381600087803b158015610fa657600080fd5b505af1158015610fba573d6000803e3d6000fd5b505050506040513d601f19601f82011682018060405250810190610fde91906146ec565b506040805161010081018252600080516020614f59833981519152815260db546001600160a01b03166020820152610bb89181019190915230606082015242608082015260009060a08101611034600a34614c39565b81526000602082018190526040918201819052905163414bf38960e01b815291925090600080516020614f798339815191529063414bf3899061107b908590600401614ac5565b602060405180830381600087803b15801561109557600080fd5b505af11580156110a9573d6000803e3d6000fd5b505050506040513d601f19601f820116820180604052508101906110cd9190614878565b60405163414bf38960e01b8152909150600080516020614f798339815191529063414bf38990611101908590600401614ac5565b602060405180830381600087803b15801561111b57600080fd5b505af115801561112f573d6000803e3d6000fd5b505050506040513d601f19601f820116820180604052508101906111539190614878565b60405163414bf38960e01b8152909150600080516020614f798339815191529063414bf38990611187908590600401614ac5565b602060405180830381600087803b1580156111a157600080fd5b505af11580156111b5573d6000803e3d6000fd5b505050506040513d601f19601f820116820180604052508101906111d99190614878565b60405163414bf38960e01b8152909150600080516020614f798339815191529063414bf3899061120d908590600401614ac5565b602060405180830381600087803b15801561122757600080fd5b505af115801561123b573d6000803e3d6000fd5b505050506040513d601f19601f8201168201806040525081019061125f9190614878565b60405163414bf38960e01b8152909150600080516020614f798339815191529063414bf38990611293908590600401614ac5565b602060405180830381600087803b1580156112ad57600080fd5b505af11580156112c1573d6000803e3d6000fd5b505050506040513d601f19601f820116820180604052508101906112e59190614878565b60405163414bf38960e01b8152909150600080516020614f798339815191529063414bf38990611319908590600401614ac5565b602060405180830381600087803b15801561133357600080fd5b505af1158015611347573d6000803e3d6000fd5b505050506040513d601f19601f8201168201806040525081019061136b9190614878565b60405163414bf38960e01b8152909150600080516020614f798339815191529063414bf3899061139f908590600401614ac5565b602060405180830381600087803b1580156113b957600080fd5b505af11580156113cd573d6000803e3d6000fd5b505050506040513d601f19601f820116820180604052508101906113f19190614878565b60405163414bf38960e01b8152909150600080516020614f798339815191529063414bf38990611425908590600401614ac5565b602060405180830381600087803b15801561143f57600080fd5b505af1158015611453573d6000803e3d6000fd5b505050506040513d601f19601f820116820180604052508101906114779190614878565b60405163414bf38960e01b8152909150600080516020614f798339815191529063414bf389906114ab908590600401614ac5565b602060405180830381600087803b1580156114c557600080fd5b505af11580156114d9573d6000803e3d6000fd5b505050506040513d601f19601f820116820180604052508101906114fd9190614878565b60405163414bf38960e01b8152909150600080516020614f798339815191529063414bf38990611531908590600401614ac5565b602060405180830381600087803b15801561154b57600080fd5b505af115801561155f573d6000803e3d6000fd5b505050506040513d601f19601f820116820180604052508101906115839190614878565b50505050565b60008083156116e25782600314156115af576115a88686866001612d4f565b90506116e2565b60408051600280825260608201835260009260208301908036833701905050905086816000815181106115e4576115e4614f17565b60200260200101906001600160a01b031690816001600160a01b031681525050858160018151811061161857611618614f17565b6001600160a01b039092166020928302919091019091015260405163d06ca61f60e01b8152600090737a250d5630b4cf539739df2c5dacb4c659f2488d9063d06ca61f9061166c90899086906004016149fe565b60006040518083038186803b15801561168457600080fd5b505afa158015611698573d6000803e3d6000fd5b505050506040513d6000823e601f3d908101601f191682016040526116c09190810190614655565b9050806001815181106116d5576116d5614f17565b6020026020010151925050505b90505b949350505050565b60e860009054906101000a90046001600160a01b03166001600160a01b031663d0e30db0346040518263ffffffff1660e01b81526004016000604051808303818588803b15801561173d57600080fd5b505af1158015611751573d6000803e3d6000fd5b5050505050600061176061299e565b90503460005b60e35481101561180957600081815260e560209081526040808320546001600160a01b031680845260e6909252909120546117f691600080516020614f598339815191529168056bc75e2d63100000906117c09087614d67565b6117ca9190614c39565b600085815260e560209081526040808320546001600160a01b0316835260e79091529020543090612f3c565b508061180181614e9a565b915050611766565b5060008060d060009054906101000a90046001600160a01b03166001600160a01b03166318160ddd6040518163ffffffff1660e01b815260040160206040518083038186803b15801561185b57600080fd5b505afa15801561186f573d6000803e3d6000fd5b505050506040513d601f19601f820116820180604052508101906118939190614878565b111561193c57828260d060009054906101000a90046001600160a01b03166001600160a01b03166318160ddd6040518163ffffffff1660e01b815260040160206040518083038186803b1580156118e957600080fd5b505afa1580156118fd573d6000803e3d6000fd5b505050506040513d601f19601f820116820180604052508101906119219190614878565b61192b9190614d67565b6119359190614c39565b905061193f565b50805b60d0546040516340c10f1960e01b8152336004820152602481018390526001600160a01b03909116906340c10f1990604401600060405180830381600087803b15801561198b57600080fd5b505af115801561199f573d6000803e3d6000fd5b50505050505050565b60e860009054906101000a90046001600160a01b03166001600160a01b031663d0e30db0346040518263ffffffff1660e01b81526004016000604051808303818588803b1580156119f857600080fd5b505af1158015611a0c573d6000803e3d6000fd5b505060e85460405163095ea7b360e01b8152600080516020614f7983398151915260048201523460248201526001600160a01b03909116935063095ea7b392506044019050602060405180830381600087803b158015611a6b57600080fd5b505af1158015611a7f573d6000803e3d6000fd5b505050506040513d601f19601f82011682018060405250810190611aa391906146ec565b506040805161010081018252600080516020614f59833981519152815260db546001600160a01b03166020820152610bb8818301523060608201524260808201523460a0820152600060c0820181905260e08201819052915163414bf38960e01b8152909190600080516020614f798339815191529063414bf38990611b2d908590600401614ac5565b602060405180830381600087803b158015611b4757600080fd5b505af1158015611b5b573d6000803e3d6000fd5b505050506040513d601f19601f82011682018060405250810190611b7f9190614878565b505050565b600654610100900460ff1615808015611ba45750600654600160ff909116105b80611bbe5750303b158015611bbe575060065460ff166001145b611c265760405162461bcd60e51b815260206004820152602e60248201527f496e697469616c697a61626c653a20636f6e747261637420697320616c72656160448201526d191e481a5b9a5d1a585b1a5e995960921b60648201526084015b60405180910390fd5b6006805460ff191660011790558015611c49576006805461ff0019166101001790555b611c5161325a565b611c59613289565b60d080546001600160a01b0388166001600160a01b0319909116179055611c9d84600280546001600160a01b039092166001600160a01b0319909216919091179055565b600380546001600160a01b0319166001600160a01b03851617905560df829055600a611cd2670de0b6b3a76400006001614d67565b611cdc9190614c39565b60e0558015611d25576006805461ff0019169055604051600181527f7f26b83ff96e1f2b6a682f133852f6798a09c465da95921460cefb38474024989060200160405180910390a15b505050505050565b60e95460405163f7729d4360e01b8152600080516020614f5983398151915260048201527327c70cd1946795b66be9d954418546998b5466346024820152610bb86044820152670de0b6b3a7640000606482015260006084820181905291829182916001600160a01b03169063f7729d439060a401602060405180830381600087803b158015611dbc57600080fd5b505af1925050508015611dec575060408051601f3d908101601f19168201909252611de991810190614878565b60015b611df857506000611dfb565b90505b604080516002808252606082018352600092602083019080368337019050509050600080516020614f5983398151915281600081518110611e3e57611e3e614f17565b60200260200101906001600160a01b031690816001600160a01b0316815250507327c70cd1946795b66be9d954418546998b54663481600181518110611e8657611e86614f17565b6001600160a01b039092166020928302919091019091015260405163d06ca61f60e01b8152600090737a250d5630b4cf539739df2c5dacb4c659f2488d9063d06ca61f90611ee290670de0b6b3a76400009086906004016149fe565b60006040518083038186803b158015611efa57600080fd5b505afa925050508015611f2f57506040513d6000823e601f3d908101601f19168201604052611f2c9190810190614655565b60015b611f3b57506000610cfb565b80600181518110611f4e57611f4e614f17565b6020026020010151915050919491935090915050565b611f6c6132b8565b611f74613312565b565b60008061209760dd8054611f8990614e65565b80601f0160208091040260200160405190810160405280929190818152602001828054611fb590614e65565b80156120025780601f10611fd757610100808354040283529160200191612002565b820191906000526020600020905b815481529060010190602001808311611fe557829003601f168201915b505050505060de805461201490614e65565b80601f016020809104026020016040519081016040528092919081815260200182805461204090614e65565b801561208d5780601f106120625761010080835404028352916020019161208d565b820191906000526020600020905b81548152906001019060200180831161207057829003601f168201915b5050505050610d06565b905060006120af60df543063b51db0e860e01b613364565b60408051808201909152600381526219d95d60ea1b60208201529091506120d89082908461338b565b61213060405180604001604052806005815260200164706174683160d81b8152506040518060400160405280600e81526020016d726573756c74732c746f6b656e7360901b8152508361338b9092919063ffffffff16565b61218e604051806040016040528060058152602001643830ba341960d91b81525060405180604001604052806014815260200173726573756c74732c6d61726b657453686172657360601b8152508361338b9092919063ffffffff16565b6121ec60405180604001604052806005815260200164706174683360d81b81525060405180604001604052806014815260200173726573756c74732c7377617056657273696f6e7360601b8152508361338b9092919063ffffffff16565b61220a6122016003546001600160a01b031690565b8260e0546133a9565b9250505090565b600061221b61299e565b9050600060d060009054906101000a90046001600160a01b03166001600160a01b03166318160ddd6040518163ffffffff1660e01b815260040160206040518083038186803b15801561226d57600080fd5b505afa158015612281573d6000803e3d6000fd5b505050506040513d601f19601f820116820180604052508101906122a59190614878565b6122b784670de0b6b3a7640000614d67565b6122c19190614c39565b60d054604051632770a7eb60e21b8152336004820152602481018690529192506001600160a01b031690639dc29fac90604401600060405180830381600087803b15801561230e57600080fd5b505af1158015612322573d6000803e3d6000fd5b5050505060005b60e35481101561243257600081815260e560205260408082205490516370a0823160e01b8152306004820152670de0b6b3a7640000916001600160a01b0316906370a082319060240160206040518083038186803b15801561238a57600080fd5b505afa15801561239e573d6000803e3d6000fd5b505050506040513d601f19601f820116820180604052508101906123c29190614878565b6123cc9085614d67565b6123d69190614c39565b600083815260e560209081526040808320546001600160a01b031680845260e79092529091205491925061241d91600080516020614f598339815191529084903090612f3c565b5050808061242a90614e9a565b915050612329565b5060e8546040516370a0823160e01b81523060048201526001600160a01b039091169063a9059cbb90339083906370a082319060240160206040518083038186803b15801561248057600080fd5b505afa158015612494573d6000803e3d6000fd5b505050506040513d601f19601f820116820180604052508101906124b89190614878565b6040516001600160e01b031960e085901b1681526001600160a01b0390921660048301526024820152604401602060405180830381600087803b1580156124fe57600080fd5b505af1158015612512573d6000803e3d6000fd5b505050506040513d601f19601f8201168201806040525081019061158391906146ec565b61253e6132b8565b611f74600061343c565b60e860009054906101000a90046001600160a01b03166001600160a01b031663d0e30db0346040518263ffffffff1660e01b81526004016000604051808303818588803b15801561259857600080fd5b505af11580156125ac573d6000803e3d6000fd5b505060db546001600160a01b0316600081815260e760205260409020546125eb9450600080516020614f59833981519152935090915034903090612f3c565b50565b6125f66132b8565b611f7461348e565b6040516323b872dd60e01b8152336004820152306024820152604481018290526001600160a01b038316906323b872dd90606401602060405180830381600087803b15801561264c57600080fd5b505af1158015612660573d6000803e3d6000fd5b505050506040513d601f19601f8201168201806040525081019061268491906146ec565b50600061268f61299e565b905060006126d384600080516020614f59833981519152853060e760008a6001600160a01b03166001600160a01b0316815260200190815260200160002054612f3c565b905060005b60e35481101561274557600081815260e560209081526040808320546001600160a01b031680845260e69092529091205461273291600080516020614f598339815191529168056bc75e2d63100000906117c09087614d67565b508061273d81614e9a565b9150506126d8565b5060008060d060009054906101000a90046001600160a01b03166001600160a01b03166318160ddd6040518163ffffffff1660e01b815260040160206040518083038186803b15801561279757600080fd5b505afa1580156127ab573d6000803e3d6000fd5b505050506040513d601f19601f820116820180604052508101906127cf9190614878565b111561287857828260d060009054906101000a90046001600160a01b03166001600160a01b03166318160ddd6040518163ffffffff1660e01b815260040160206040518083038186803b15801561282557600080fd5b505afa158015612839573d6000803e3d6000fd5b505050506040513d601f19601f8201168201806040525081019061285d9190614878565b6128679190614d67565b6128719190614c39565b905061287b565b50805b60d0546040516340c10f1960e01b8152336004820152602481018390526001600160a01b03909116906340c10f1990604401600060405180830381600087803b1580156128c757600080fd5b505af11580156128db573d6000803e3d6000fd5b505050505050505050565b60d880546128f390614e65565b80601f016020809104026020016040519081016040528092919081815260200182805461291f90614e65565b801561296c5780601f106129415761010080835404028352916020019161296c565b820191906000526020600020905b81548152906001019060200180831161294f57829003601f168201915b505050505081565b60dc818154811061298457600080fd5b6000918252602090912001546001600160a01b0316905081565b60008060005b60e354811015612a9557600081815260e560205260408082205490516370a0823160e01b8152306004820152612a73916001600160a01b031690600080516020614f598339815191529082906370a082319060240160206040518083038186803b158015612a1157600080fd5b505afa158015612a25573d6000803e3d6000fd5b505050506040513d601f19601f82011682018060405250810190612a499190614878565b600086815260e560209081526040808320546001600160a01b0316835260e7909152902054611589565b9050612a7f8184614bbd565b9250508080612a8d90614e9a565b9150506129a4565b50919050565b60008481526005602052604090205484906001600160a01b03163314612b145760405162461bcd60e51b815260206004820152602860248201527f536f75726365206d75737420626520746865206f7261636c65206f6620746865604482015267081c995c5d595cdd60c21b6064820152608401611c1d565b60008181526005602052604080822080546001600160a01b03191690555182917f7cc135e0cebb02c3480ae5d74d377283180a2601f8f644edf7987b009316c63a91a283838360005b8351811015612cde57838181518110612b7857612b78614f17565b602002602001015160e4600083815260200190815260200160002060006101000a8154816001600160a01b0302191690836001600160a01b03160217905550828181518110612bc957612bc9614f17565b602002602001015160e66000868481518110612be757612be7614f17565b60200260200101516001600160a01b03166001600160a01b0316815260200190815260200160002081905550818181518110612c2557612c25614f17565b602002602001015160e76000868481518110612c4357612c43614f17565b60200260200101516001600160a01b03166001600160a01b031681526020019081526020016000208190555060e35460001415612ccc57838181518110612c8c57612c8c614f17565b602002602001015160e5600083815260200190815260200160002060006101000a8154816001600160a01b0302191690836001600160a01b031602179055505b80612cd681614e9a565b915050612b5d565b50825160e25560e354612cf157825160e3555b50504260e155505050505050565b612d076132b8565b6001600160a01b038116612d2d5760405162461bcd60e51b8152600401611c1d90614a2a565b606b80546001600160a01b0319166001600160a01b0392909216919091179055565b604051630b4c774160e11b81526001600160a01b03808616600483015284166024820152610bb860448201526000908190731f98431c8ad98523631ae4a59f267346ea31f98490631698ee829060640160206040518083038186803b158015612db757600080fd5b505afa158015612dcb573d6000803e3d6000fd5b505050506040513d601f19601f82011682018060405250810190612def9190614420565b90506000612dfd82856134cb565b509050612e0c81868989613721565b979650505050505050565b6001600160a01b038116612e3d5760405162461bcd60e51b8152600401611c1d90614a2a565b606b546001600160a01b03828116911614612eb55760405162461bcd60e51b815260206004820152603260248201527f50726f706f7361626c654f776e61626c653a206e6577206f776e6572206973206044820152713737ba10383937b837b9b2b21037bbb732b960711b6064820152608401611c1d565b6001600160a01b0381163314612f335760405162461bcd60e51b815260206004820152603a60248201527f50726f706f7361626c654f776e61626c653a20746869732063616c6c206d757360448201527f74206265206d61646520627920746865206e6577206f776e65720000000000006064820152608401611c1d565b6125eb8161343c565b600080612f4b87878786611589565b9050801561324f5782600314156130c65760405163095ea7b360e01b8152600080516020614f798339815191526004820152602481018690526001600160a01b0388169063095ea7b390604401602060405180830381600087803b158015612fb257600080fd5b505af1158015612fc6573d6000803e3d6000fd5b505050506040513d601f19601f82011682018060405250810190612fea91906146ec565b5060408051610100810182526001600160a01b03808a1682528881166020830152610bb8828401528616606082015242608082015260a08101879052600060c0820181905260e08201819052915163414bf38960e01b8152909190600080516020614f798339815191529063414bf38990613069908590600401614ac5565b602060405180830381600087803b15801561308357600080fd5b505af1158015613097573d6000803e3d6000fd5b505050506040513d601f19601f820116820180604052508101906130bb9190614878565b935061325192505050565b60408051600280825260608201835260009260208301908036833701905050905087816000815181106130fb576130fb614f17565b60200260200101906001600160a01b031690816001600160a01b031681525050868160018151811061312f5761312f614f17565b6001600160a01b03928316602091820292909201015260405163095ea7b360e01b8152737a250d5630b4cf539739df2c5dacb4c659f2488d6004820152602481018890529089169063095ea7b390604401602060405180830381600087803b15801561319a57600080fd5b505af11580156131ae573d6000803e3d6000fd5b505050506040513d601f19601f820116820180604052508101906131d291906146ec565b50604051635c11d79560e01b8152737a250d5630b4cf539739df2c5dacb4c659f2488d90635c11d7959061321390899060009086908b904290600401614b2e565b600060405180830381600087803b15801561322d57600080fd5b505af1158015613241573d6000803e3d6000fd5b505050508192505050613251565b505b95945050505050565b600654610100900460ff166132815760405162461bcd60e51b8152600401611c1d90614a7a565b611f7461382b565b600654610100900460ff166132b05760405162461bcd60e51b8152600401611c1d90614a7a565b611f7461385b565b6039546001600160a01b03163314611f745760405162461bcd60e51b815260206004820181905260248201527f4f776e61626c653a2063616c6c6572206973206e6f7420746865206f776e65726044820152606401611c1d565b61331a61388e565b609e805460ff191690557f5db9ee0a495bf2e6ff9c91a7834c1ba4fdd244a5e8aa4e537bd38aeae4b073aa335b6040516001600160a01b03909116815260200160405180910390a1565b61336c61427e565b61337461427e565b613380818686866138d7565b9150505b9392505050565b608083015161339a9083613914565b6080830151611b7f9082613914565b6004546000906133ba816001614bbd565b600455835160408086015160808701515191516000936320214ca360e11b936133f29386938493923092918a91600191602401614925565b60408051601f198184030181529190526020810180516001600160e01b03166001600160e01b03199093169290921790915290506134328683868461392b565b9695505050505050565b603980546001600160a01b038381166001600160a01b0319831681179093556040519116919082907f8be0079c531659141344cd1fd0a4f28419497f9722a3daafe3b4186f6b6457e090600090a35050565b613496613a98565b609e805460ff191660011790557f62e78cea01bee320cd4e420270b5ea74000d11b0c9f74754ebdbfc544b05a2586133473390565b60008063ffffffff83166135065760405162461bcd60e51b8152602060048201526002602482015261042560f41b6044820152606401611c1d565b604080516002808252606082018352600092602083019080368337019050509050838160008151811061353b5761353b614f17565b602002602001019063ffffffff16908163ffffffff168152505060008160018151811061356a5761356a614f17565b602002602001019063ffffffff16908163ffffffff1681525050600080866001600160a01b031663883bdbfd846040518263ffffffff1660e01b81526004016135b391906149b4565b60006040518083038186803b1580156135cb57600080fd5b505afa1580156135df573d6000803e3d6000fd5b505050506040513d6000823e601f3d908101601f191682016040526136079190810190614584565b9150915060008260008151811061362057613620614f17565b60200260200101518360018151811061363b5761363b614f17565b602002602001015161364d9190614d86565b905060008260008151811061366457613664614f17565b60200260200101518360018151811061367f5761367f614f17565b60200260200101516136919190614dd6565b90506136a363ffffffff891683614bd5565b965060008260060b1280156136c957506136c363ffffffff891683614eb5565b60060b15155b156136dc57866136d881614e41565b9750505b60006136f56001600160a01b0363ffffffff8b16614d38565b9050613712640100000000600160c01b03602084901b1682614c13565b96505050505050509250929050565b60008061372d86613ade565b90506001600160801b036001600160a01b038216116137b357600061375b6001600160a01b03831680614d67565b9050836001600160a01b0316856001600160a01b0316106137935761378e600160c01b876001600160801b031683613dfe565b6137ab565b6137ab81876001600160801b0316600160c01b613dfe565b925050613822565b60006137d26001600160a01b0383168068010000000000000000613dfe565b9050836001600160a01b0316856001600160a01b03161061380a57613805600160801b876001600160801b031683613dfe565b612e0c565b612e0c81876001600160801b0316600160801b613dfe565b50949350505050565b600654610100900460ff166138525760405162461bcd60e51b8152600401611c1d90614a7a565b611f743361343c565b600654610100900460ff166138825760405162461bcd60e51b8152600401611c1d90614a7a565b609e805460ff19169055565b609e5460ff16611f745760405162461bcd60e51b815260206004820152601460248201527314185d5cd8589b194e881b9bdd081c185d5cd95960621b6044820152606401611c1d565b6138df61427e565b6138ef8560800151610100613eb1565b50509183526001600160a01b031660208301526001600160e01b031916604082015290565b6139218260038351613f16565b611b7f828261401d565b6040516bffffffffffffffffffffffff193060601b1660208201526034810184905260009060540160408051808303601f1901815282825280516020918201206000818152600590925291812080546001600160a01b0319166001600160a01b038a1617905590925082917fb5e6e01e79f91267dc17b4e6314d5d4d03593d2ceee0fbb452b750bd70ea5af99190a2600254604051630200057560e51b81526001600160a01b0390911690634000aea0906139ee9088908790879060040161498d565b602060405180830381600087803b158015613a0857600080fd5b505af1158015613a1c573d6000803e3d6000fd5b505050506040513d601f19601f82011682018060405250810190613a4091906146ec565b6116e55760405162461bcd60e51b815260206004820152602360248201527f756e61626c6520746f207472616e73666572416e6443616c6c20746f206f7261604482015262636c6560e81b6064820152608401611c1d565b609e5460ff1615611f745760405162461bcd60e51b815260206004820152601060248201526f14185d5cd8589b194e881c185d5cd95960821b6044820152606401611c1d565b60008060008360020b12613af5578260020b613afd565b8260020b6000035b9050620d89e8811115613b23576040516315e4079d60e11b815260040160405180910390fd5b600060018216613b3757600160801b613b49565b6ffffcb933bd6fad37aa2d162d1a5940015b70ffffffffffffffffffffffffffffffffff1690506002821615613b7d576ffff97272373d413259a46990580e213a0260801c5b6004821615613b9c576ffff2e50f5f656932ef12357cf3c7fdcc0260801c5b6008821615613bbb576fffe5caca7e10e4e61c3624eaa0941cd00260801c5b6010821615613bda576fffcb9843d60f6159c9db58835c9266440260801c5b6020821615613bf9576fff973b41fa98c081472e6896dfb254c00260801c5b6040821615613c18576fff2ea16466c96a3843ec78b326b528610260801c5b6080821615613c37576ffe5dee046a99a2a811c461f1969c30530260801c5b610100821615613c57576ffcbe86c7900a88aedcffc83b479aa3a40260801c5b610200821615613c77576ff987a7253ac413176f2b074cf7815e540260801c5b610400821615613c97576ff3392b0822b70005940c7a398e4b70f30260801c5b610800821615613cb7576fe7159475a2c29b7443b29c7fa6e889d90260801c5b611000821615613cd7576fd097f3bdfd2022b8845ad8f792aa58250260801c5b612000821615613cf7576fa9f746462d870fdf8a65dc1f90e061e50260801c5b614000821615613d17576f70d869a156d2a1b890bb3df62baf32f70260801c5b618000821615613d37576f31be135f97d08fd981231505542fcfa60260801c5b62010000821615613d58576f09aa508b5b7a84e1c677de54f3e99bc90260801c5b62020000821615613d78576e5d6af8dedb81196699c329225ee6040260801c5b62040000821615613d97576d2216e584f5fa1ea926041bedfe980260801c5b62080000821615613db4576b048a170391f7dc42444e8fa20260801c5b60008460020b1315613dd5578060001981613dd157613dd1614f01565b0490505b640100000000810615613de9576001613dec565b60005b60ff16602082901c0192505050919050565b600080806000198587098587029250828110838203039150508060001415613e385760008411613e2d57600080fd5b508290049050613384565b808411613e4457600080fd5b6000848688096000868103871696879004966002600389028118808a02820302808a02820302808a02820302808a02820302808a02820302808a02909103029181900381900460010186841190950394909402919094039290920491909117919091029150509392505050565b604080518082019091526060815260006020820152613ed1602083614ed7565b15613ef957613ee1602083614ed7565b613eec906020614dfe565b613ef69083614bbd565b91505b506020828101829052604080518085526000815290920101905290565b6017816001600160401b031611613f3a576115838360e0600585901b168317614044565b60ff816001600160401b031611613f7657613f60836018611fe0600586901b1617614044565b50611583836001600160401b0383166001614069565b61ffff816001600160401b031611613fb357613f9d836019611fe0600586901b1617614044565b50611583836001600160401b0383166002614069565b63ffffffff816001600160401b031611613ff257613fdc83601a611fe0600586901b1617614044565b50611583836001600160401b0383166004614069565b61400783601b611fe0600586901b1617614044565b50611583836001600160401b0383166008614069565b6040805180820190915260608152600060208201526133848384600001515184855161408f565b6040805180820190915260608152600060208201526133848384600001515184614179565b6040805180820190915260608152600060208201526116e58485600001515185856141d5565b60408051808201909152606081526000602082015282518211156140b257600080fd5b60208501516140c18386614bbd565b11156140f4576140f4856140e4876020015187866140df9190614bbd565b614256565b6140ef906002614d67565b614267565b6000808651805187602083010193508088870111156141135787860182525b505050602084015b602084106141535780518252614132602083614bbd565b915061413f602082614bbd565b905061414c602085614dfe565b935061411b565b51815160001960208690036101000a019081169019919091161790525083949350505050565b604080518082019091526060815260006020820152836020015183106141ae576141ae84856020015160026140ef9190614d67565b8351805160208583010184815350808514156141cb576001810182525b5093949350505050565b60408051808201909152606081526000602082015260208501516141f98584614bbd565b111561420d5761420d856140e48685614bbd565b6000600161421d84610100614c90565b6142279190614dfe565b905085518386820101858319825116178152508051848701111561424b5783860181525b509495945050505050565b600081831115612a95575081610d2d565b81516142738383613eb1565b50611583838261401d565b6040805160a0810182526000808252602080830182905282840182905260608084018390528451808601909552845283015290608082015290565b600082601f8301126142ca57600080fd5b815160206142df6142da83614b9a565b614b6a565b80838252828201915082860187848660051b89010111156142ff57600080fd5b60005b8581101561432757815161431581614f43565b84529284019290840190600101614302565b5090979650505050505050565b600082601f83011261434557600080fd5b813560206143556142da83614b9a565b80838252828201915082860187848660051b890101111561437557600080fd5b60005b8581101561432757813584529284019290840190600101614378565b600082601f8301126143a557600080fd5b81356001600160401b038111156143be576143be614f2d565b6143d1601f8201601f1916602001614b6a565b8181528460208386010111156143e657600080fd5b816020850160208301376000918101602001919091529392505050565b60006020828403121561441557600080fd5b813561338481614f43565b60006020828403121561443257600080fd5b815161338481614f43565b600080600080600060a0868803121561445557600080fd5b853561446081614f43565b9450602086013561447081614f43565b9350604086013561448081614f43565b9250606086013561449081614f43565b949793965091946080013592915050565b600080600080608085870312156144b757600080fd5b84356144c281614f43565b935060208501356144d281614f43565b925060408501356001600160801b03811681146144ee57600080fd5b9150606085013563ffffffff8116811461450757600080fd5b939692955090935050565b6000806000806080858703121561452857600080fd5b843561453381614f43565b9350602085013561454381614f43565b93969395505050506040820135916060013590565b6000806040838503121561456b57600080fd5b823561457681614f43565b946020939093013593505050565b6000806040838503121561459757600080fd5b82516001600160401b03808211156145ae57600080fd5b818501915085601f8301126145c257600080fd5b815160206145d26142da83614b9a565b8083825282820191508286018a848660051b89010111156145f257600080fd5b600096505b848710156146245780518060060b811461461057600080fd5b8352600196909601959183019183016145f7565b509188015191965090935050508082111561463e57600080fd5b5061464b858286016142b9565b9150509250929050565b6000602080838503121561466857600080fd5b82516001600160401b0381111561467e57600080fd5b8301601f8101851361468f57600080fd5b805161469d6142da82614b9a565b80828252848201915084840188868560051b87010111156146bd57600080fd5b600094505b838510156146e05780518352600194909401939185019185016146c2565b50979650505050505050565b6000602082840312156146fe57600080fd5b8151801515811461338457600080fd5b6000806000806080858703121561472457600080fd5b843593506020808601356001600160401b038082111561474357600080fd5b818801915088601f83011261475757600080fd5b81356147656142da82614b9a565b8082825285820191508585018c878560051b880101111561478557600080fd5b600095505b838610156147b157803561479d81614f43565b83526001959095019491860191860161478a565b509750505060408801359250808311156147ca57600080fd5b6147d689848a01614334565b945060608801359250808311156147ec57600080fd5b50506147fa87828801614334565b91505092959194509250565b6000806040838503121561481957600080fd5b82356001600160401b038082111561483057600080fd5b61483c86838701614394565b9350602085013591508082111561485257600080fd5b5061464b85828601614394565b60006020828403121561487157600080fd5b5035919050565b60006020828403121561488a57600080fd5b5051919050565b600081518084526020808501945080840160005b8381101561424b5781516001600160a01b0316875295820195908201906001016148a5565b600081518084526148e2816020860160208601614e15565b601f01601f19169290920160200192915050565b60008351614908818460208801614e15565b83519083019061491c818360208801614e15565b01949350505050565b6001600160a01b0389811682526020820189905260408201889052861660608201526001600160e01b03198516608082015260a0810184905260c0810183905261010060e0820181905260009061497e838201856148ca565b9b9a5050505050505050505050565b60018060a01b038416815282602082015260606040820152600061325160608301846148ca565b6020808252825182820181905260009190848201906040850190845b818110156149f257835163ffffffff16835292840192918401916001016149d0565b50909695505050505050565b8281526040602082015260006116e56040830184614891565b60208152600061338460208301846148ca565b60208082526030908201527f50726f706f7361626c654f776e61626c653a206e6577206f776e65722069732060408201526f746865207a65726f206164647265737360801b606082015260800190565b6020808252602b908201527f496e697469616c697a61626c653a20636f6e7472616374206973206e6f74206960408201526a6e697469616c697a696e6760a81b606082015260800190565b81516001600160a01b03908116825260208084015182169083015260408084015162ffffff16908301526060808401518216908301526080808401519083015260a0838101519083015260c0808401519083015260e09283015116918101919091526101000190565b85815284602082015260a060408201526000614b4d60a0830186614891565b6001600160a01b0394909416606083015250608001529392505050565b604051601f8201601f191681016001600160401b0381118282101715614b9257614b92614f2d565b604052919050565b60006001600160401b03821115614bb357614bb3614f2d565b5060051b60200190565b60008219821115614bd057614bd0614eeb565b500190565b60008160060b8360060b80614bec57614bec614f01565b667fffffffffffff19821460001982141615614c0a57614c0a614eeb565b90059392505050565b60006001600160c01b0383811680614c2d57614c2d614f01565b92169190910492915050565b600082614c4857614c48614f01565b500490565b600181815b80851115614c88578160001904821115614c6e57614c6e614eeb565b80851615614c7b57918102915b93841c9390800290614c52565b509250929050565b60006133848383600082614ca657506001610d2d565b81614cb357506000610d2d565b8160018114614cc95760028114614cd357614cef565b6001915050610d2d565b60ff841115614ce457614ce4614eeb565b50506001821b610d2d565b5060208310610133831016604e8410600b8410161715614d12575081810a610d2d565b614d1c8383614c4d565b8060001904821115614d3057614d30614eeb565b029392505050565b60006001600160c01b0382811684821681151582840482111615614d5e57614d5e614eeb565b02949350505050565b6000816000190483118215151615614d8157614d81614eeb565b500290565b60008160060b8360060b6000811281667fffffffffffff1901831281151615614db157614db1614eeb565b81667fffffffffffff018313811615614dcc57614dcc614eeb565b5090039392505050565b60006001600160a01b0383811690831681811015614df657614df6614eeb565b039392505050565b600082821015614e1057614e10614eeb565b500390565b60005b83811015614e30578181015183820152602001614e18565b838111156115835750506000910152565b60008160020b627fffff19811415614e5b57614e5b614eeb565b6000190192915050565b600181811c90821680614e7957607f821691505b60208210811415612a9557634e487b7160e01b600052602260045260246000fd5b6000600019821415614eae57614eae614eeb565b5060010190565b60008260060b80614ec857614ec8614f01565b808360060b0791505092915050565b600082614ee657614ee6614f01565b500690565b634e487b7160e01b600052601160045260246000fd5b634e487b7160e01b600052601260045260246000fd5b634e487b7160e01b600052603260045260246000fd5b634e487b7160e01b600052604160045260246000fd5b6001600160a01b03811681146125eb57600080fdfe000000000000000000000000c02aaa39b223fe8d0a0e5c4f27ead9083c756cc2000000000000000000000000e592427a0aece92de3edee1f18e0157c05861564a26469706673582212206b175b0154a129d022b21a4de4d65ffb6e7005c4a26173865ce5e5b4699afe0564736f6c6343000807003368747470733a2f2f6170702e6e65786c6162732e696f2f6170692f616c6c46756e64696e6752617465733f6d756c7469706c7946756e633d31382674696d65734e656746756e643d74727565266172726179733d74727565",
    "linkReferences": {}
  },
  "methodIdentifiers": {
    "BONE()": "c36596a6",
    "BabyDoge()": "d1a72ed6",
    "ELON()": "2fab7aea",
    "FLOKI()": "2f9f8c13",
    "HarryPotterObamaSonic10Inu()": "0fb405b7",
    "LEASH()": "ad39e5fd",
    "MEME()": "2e7b0948",
    "PEPE()": "e4fbaecb",
    "QUOTER()": "8dae88c2",
    "SHIB()": "e24b85e7",
    "WETH9()": "4aa4a4fc",
    "WSM()": "5725a977",
    "assetList(uint256)": "a0b4b301",
    "concatenation(string,string)": "0e329357",
    "currentList(uint256)": "9932ba4c",
    "estimateAmountOut(address,address,uint128,uint32)": "bf938db8",
    "externalJobId()": "a8b54bd4",
    "factoryV2()": "68e0d4e1",
    "factoryV3()": "1d5f45f5",
    "fee()": "ddca3f43",
    "feeRatePerDayScaled()": "2fecd589",
    "feeReceiver()": "b3f00674",
    "feeTimestamp()": "184a732f",
    "fulfillFundingRate(bytes32,address[],uint256[],uint256[])": "b51db0e8",
    "getAmountOut(address,address,uint256,uint256)": "13cb1f83",
    "getAmounts()": "3d370b4e",
    "getPool()": "026b1d5f",
    "getPortfolioBalance()": "a8509fd8",
    "indexToken()": "e7d015f2",
    "initialize(address,address,address,address,bytes32)": "297a3e57",
    "isRestricted(address)": "c01bc982",
    "issuanceIndexTokens(address,uint256)": "8be78847",
    "issuanceIndexTokensWithEth()": "19b1f86a",
    "lastUpdateTime()": "c8f33c91",
    "methodologist()": "9f8e67bf",
    "methodology()": "9eeb1d50",
    "minter()": "07546172",
    "nft()": "47ccca02",
    "oracleList(uint256)": "239aad0d",
    "oraclePayment()": "0c02e130",
    "owner()": "8da5cb5b",
    "pause()": "8456cb59",
    "paused()": "5c975abb",
    "proposeOwner(address)": "b5ed298a",
    "proposedOwner()": "d153b60c",
    "quoter()": "c6bbd5a7",
    "redemption(uint256)": "4a1dc092",
    "renounceOwnership()": "715018a6",
    "requestFundingRate()": "4309e5df",
    "sswap()": "7c10041a",
    "supplyCeiling()": "2b52684d",
    "swapGas()": "209db530",
    "swapGas1()": "12740eb5",
    "swapRouterV2()": "744fbc7a",
    "swapRouterV3()": "b631e80b",
    "tokenMarketShare(address)": "fcaae87b",
    "tokenSwapVersion(address)": "d90bc211",
    "totalCurrentList()": "53fd4332",
    "totalOracleList()": "c8599ded",
    "transferOwnership(address)": "f2fde38b",
    "unpause()": "3f4ba83a",
    "weth()": "3fc8cef3"
  },
  "id": 0
}