{"abi":[{"type":"function","name":"initialize","inputs":[{"name":"_operator","type":"address","internalType":"address"}],"outputs":[],"stateMutability":"nonpayable"},{"type":"function","name":"isOperator","inputs":[{"name":"","type":"address","internalType":"address"}],"outputs":[{"name":"","type":"bool","internalType":"bool"}],"stateMutability":"view"},{"type":"function","name":"owner","inputs":[],"outputs":[{"name":"","type":"address","internalType":"address"}],"stateMutability":"view"},{"type":"function","name":"renounceOwnership","inputs":[],"outputs":[],"stateMutability":"nonpayable"},{"type":"function","name":"setOperator","inputs":[{"name":"_operator","type":"address","internalType":"address"},{"name":"_status","type":"bool","internalType":"bool"}],"outputs":[],"stateMutability":"nonpayable"},{"type":"function","name":"transferOwnership","inputs":[{"name":"newOwner","type":"address","internalType":"address"}],"outputs":[],"stateMutability":"nonpayable"},{"type":"function","name":"withdrawFunds","inputs":[{"name":"_token","type":"address","internalType":"address"},{"name":"_to","type":"address","internalType":"address"},{"name":"_amount","type":"uint256","internalType":"uint256"}],"outputs":[],"stateMutability":"nonpayable"},{"type":"event","name":"FundsWithdrawn","inputs":[{"name":"token","type":"address","indexed":false,"internalType":"address"},{"name":"to","type":"address","indexed":false,"internalType":"address"},{"name":"amount","type":"uint256","indexed":false,"internalType":"uint256"}],"anonymous":false},{"type":"event","name":"Initialized","inputs":[{"name":"version","type":"uint8","indexed":false,"internalType":"uint8"}],"anonymous":false},{"type":"event","name":"OwnershipTransferred","inputs":[{"name":"previousOwner","type":"address","indexed":true,"internalType":"address"},{"name":"newOwner","type":"address","indexed":true,"internalType":"address"}],"anonymous":false}],"bytecode":{"object":"0x6080604052348015600f57600080fd5b506109868061001f6000396000f3fe608060405234801561001057600080fd5b506004361061007d5760003560e01c8063715018a61161005b578063715018a6146100e25780638da5cb5b146100ea578063c4d66de814610105578063f2fde38b1461011857600080fd5b80631c20fadd14610082578063558a7297146100975780636d70f7ae146100aa575b600080fd5b6100956100903660046107d2565b61012b565b005b6100956100a536600461081c565b6101ff565b6100cd6100b8366004610853565b60656020526000908152604090205460ff1681565b60405190151581526020015b60405180910390f35b610095610232565b6033546040516001600160a01b0390911681526020016100d9565b610095610113366004610853565b610246565b610095610126366004610853565b61037b565b3360009081526065602052604090205460ff1661019b5760405162461bcd60e51b815260206004820152602360248201527f4e65785661756c743a2063616c6c6572206973206e6f7420616e206f706572616044820152623a37b960e91b60648201526084015b60405180910390fd5b604080516001600160a01b038086168252841660208201529081018290527fa92ff919b850e4909ab2261d907ef955f11bc1716733a6cbece38d163a69af8a9060600160405180910390a16101fa6001600160a01b03841683836103f4565b505050565b610207610446565b6001600160a01b03919091166000908152606560205260409020805460ff1916911515919091179055565b61023a610446565b61024460006104a0565b565b600054610100900460ff16158080156102665750600054600160ff909116105b806102805750303b158015610280575060005460ff166001145b6102e35760405162461bcd60e51b815260206004820152602e60248201527f496e697469616c697a61626c653a20636f6e747261637420697320616c72656160448201526d191e481a5b9a5d1a585b1a5e995960921b6064820152608401610192565b6000805460ff191660011790558015610306576000805461ff0019166101001790555b61030e6104f2565b6001600160a01b0382166000908152606560205260409020805460ff191660011790558015610377576000805461ff0019169055604051600181527f7f26b83ff96e1f2b6a682f133852f6798a09c465da95921460cefb38474024989060200160405180910390a15b5050565b610383610446565b6001600160a01b0381166103e85760405162461bcd60e51b815260206004820152602660248201527f4f776e61626c653a206e6577206f776e657220697320746865207a65726f206160448201526564647265737360d01b6064820152608401610192565b6103f1816104a0565b50565b604080516001600160a01b038416602482015260448082018490528251808303909101815260649091019091526020810180516001600160e01b031663a9059cbb60e01b1790526101fa908490610521565b6033546001600160a01b031633146102445760405162461bcd60e51b815260206004820181905260248201527f4f776e61626c653a2063616c6c6572206973206e6f7420746865206f776e65726044820152606401610192565b603380546001600160a01b038381166001600160a01b0319831681179093556040519116919082907f8be0079c531659141344cd1fd0a4f28419497f9722a3daafe3b4186f6b6457e090600090a35050565b600054610100900460ff166105195760405162461bcd60e51b815260040161019290610875565b6102446105f6565b6000610576826040518060400160405280602081526020017f5361666545524332303a206c6f772d6c6576656c2063616c6c206661696c6564815250856001600160a01b03166106269092919063ffffffff16565b905080516000148061059757508080602001905181019061059791906108c0565b6101fa5760405162461bcd60e51b815260206004820152602a60248201527f5361666545524332303a204552433230206f7065726174696f6e20646964206e6044820152691bdd081cdd58d8d9595960b21b6064820152608401610192565b600054610100900460ff1661061d5760405162461bcd60e51b815260040161019290610875565b610244336104a0565b6060610635848460008561063d565b949350505050565b60608247101561069e5760405162461bcd60e51b815260206004820152602660248201527f416464726573733a20696e73756666696369656e742062616c616e636520666f6044820152651c8818d85b1b60d21b6064820152608401610192565b600080866001600160a01b031685876040516106ba9190610901565b60006040518083038185875af1925050503d80600081146106f7576040519150601f19603f3d011682016040523d82523d6000602084013e6106fc565b606091505b509150915061070d87838387610718565b979650505050505050565b60608315610787578251600003610780576001600160a01b0385163b6107805760405162461bcd60e51b815260206004820152601d60248201527f416464726573733a2063616c6c20746f206e6f6e2d636f6e74726163740000006044820152606401610192565b5081610635565b610635838381511561079c5781518083602001fd5b8060405162461bcd60e51b8152600401610192919061091d565b80356001600160a01b03811681146107cd57600080fd5b919050565b6000806000606084860312156107e757600080fd5b6107f0846107b6565b92506107fe602085016107b6565b9150604084013590509250925092565b80151581146103f157600080fd5b6000806040838503121561082f57600080fd5b610838836107b6565b915060208301356108488161080e565b809150509250929050565b60006020828403121561086557600080fd5b61086e826107b6565b9392505050565b6020808252602b908201527f496e697469616c697a61626c653a20636f6e7472616374206973206e6f74206960408201526a6e697469616c697a696e6760a81b606082015260800190565b6000602082840312156108d257600080fd5b815161086e8161080e565b60005b838110156108f85781810151838201526020016108e0565b50506000910152565b600082516109138184602087016108dd565b9190910192915050565b602081526000825180602084015261093c8160408501602087016108dd565b601f01601f1916919091016040019291505056fea26469706673582212208e2dc54ff7b38371ade15909dbe4f0fb67c5634ade906aa179aaa40641ad819964736f6c634300081a0033","linkReferences":{}},"methodIdentifiers":{"initialize(address)":"c4d66de8","isOperator(address)":"6d70f7ae","owner()":"8da5cb5b","renounceOwnership()":"715018a6","setOperator(address,bool)":"558a7297","transferOwnership(address)":"f2fde38b","withdrawFunds(address,address,uint256)":"1c20fadd"},"id":4}