{"abi":[{"type":"constructor","inputs":[{"name":"_treasury","type":"address","internalType":"address"},{"name":"_owner","type":"address","internalType":"address"}],"stateMutability":"nonpayable"},{"type":"function","name":"allowance","inputs":[{"name":"owner","type":"address","internalType":"address"},{"name":"spender","type":"address","internalType":"address"}],"outputs":[{"name":"","type":"uint256","internalType":"uint256"}],"stateMutability":"view"},{"type":"function","name":"approve","inputs":[{"name":"spender","type":"address","internalType":"address"},{"name":"amount","type":"uint256","internalType":"uint256"}],"outputs":[{"name":"","type":"bool","internalType":"bool"}],"stateMutability":"nonpayable"},{"type":"function","name":"balanceOf","inputs":[{"name":"account","type":"address","internalType":"address"}],"outputs":[{"name":"","type":"uint256","internalType":"uint256"}],"stateMutability":"view"},{"type":"function","name":"decimals","inputs":[],"outputs":[{"name":"","type":"uint8","internalType":"uint8"}],"stateMutability":"view"},{"type":"function","name":"decreaseAllowance","inputs":[{"name":"spender","type":"address","internalType":"address"},{"name":"subtractedValue","type":"uint256","internalType":"uint256"}],"outputs":[{"name":"","type":"bool","internalType":"bool"}],"stateMutability":"nonpayable"},{"type":"function","name":"increaseAllowance","inputs":[{"name":"spender","type":"address","internalType":"address"},{"name":"addedValue","type":"uint256","internalType":"uint256"}],"outputs":[{"name":"","type":"bool","internalType":"bool"}],"stateMutability":"nonpayable"},{"type":"function","name":"name","inputs":[],"outputs":[{"name":"","type":"string","internalType":"string"}],"stateMutability":"view"},{"type":"function","name":"owner","inputs":[],"outputs":[{"name":"","type":"address","internalType":"address"}],"stateMutability":"view"},{"type":"function","name":"symbol","inputs":[],"outputs":[{"name":"","type":"string","internalType":"string"}],"stateMutability":"view"},{"type":"function","name":"taxEnabled","inputs":[],"outputs":[{"name":"","type":"bool","internalType":"bool"}],"stateMutability":"view"},{"type":"function","name":"toggleTax","inputs":[{"name":"_taxEnabled","type":"bool","internalType":"bool"}],"outputs":[],"stateMutability":"nonpayable"},{"type":"function","name":"totalSupply","inputs":[],"outputs":[{"name":"","type":"uint256","internalType":"uint256"}],"stateMutability":"view"},{"type":"function","name":"transfer","inputs":[{"name":"recipient","type":"address","internalType":"address"},{"name":"amount","type":"uint256","internalType":"uint256"}],"outputs":[{"name":"","type":"bool","internalType":"bool"}],"stateMutability":"nonpayable"},{"type":"function","name":"transferFrom","inputs":[{"name":"from","type":"address","internalType":"address"},{"name":"to","type":"address","internalType":"address"},{"name":"amount","type":"uint256","internalType":"uint256"}],"outputs":[{"name":"","type":"bool","internalType":"bool"}],"stateMutability":"nonpayable"},{"type":"function","name":"treasury","inputs":[],"outputs":[{"name":"","type":"address","internalType":"address"}],"stateMutability":"view"},{"type":"event","name":"Approval","inputs":[{"name":"owner","type":"address","indexed":true,"internalType":"address"},{"name":"spender","type":"address","indexed":true,"internalType":"address"},{"name":"value","type":"uint256","indexed":false,"internalType":"uint256"}],"anonymous":false},{"type":"event","name":"Transfer","inputs":[{"name":"from","type":"address","indexed":true,"internalType":"address"},{"name":"to","type":"address","indexed":true,"internalType":"address"},{"name":"value","type":"uint256","indexed":false,"internalType":"uint256"}],"anonymous":false}],"bytecode":{"object":"0x608060405234801561001057600080fd5b50604051610e6b380380610e6b83398101604081905261002f916101de565b6040518060400160405280600b81526020016a27b63cb6b834bc21b7b4b760a91b8152506040518060400160405280600381526020016209e98b60eb1b815250816003908161007e91906102af565b50600461008b82826102af565b505060068054600580546001600160a01b038781166001600160a01b031992909216919091179091556001600160a81b031990911690841617600160a01b179055506100da33620249f06100fa565b6005546100f3906001600160a01b0316620557306100fa565b5050610394565b6001600160a01b0382166101545760405162461bcd60e51b815260206004820152601f60248201527f45524332303a206d696e7420746f20746865207a65726f206164647265737300604482015260640160405180910390fd5b8060026000828254610166919061036d565b90915550506001600160a01b038216600081815260208181526040808320805486019055518481527fddf252ad1be2c89b69c2b068fc378daa952ba7f163c4a11628f55a4df523b3ef910160405180910390a35050565b505050565b80516001600160a01b03811681146101d957600080fd5b919050565b600080604083850312156101f157600080fd5b6101fa836101c2565b9150610208602084016101c2565b90509250929050565b634e487b7160e01b600052604160045260246000fd5b600181811c9082168061023b57607f821691505b60208210810361025b57634e487b7160e01b600052602260045260246000fd5b50919050565b601f8211156101bd57806000526020600020601f840160051c810160208510156102885750805b601f840160051c820191505b818110156102a85760008155600101610294565b5050505050565b81516001600160401b038111156102c8576102c8610211565b6102dc816102d68454610227565b84610261565b6020601f82116001811461031057600083156102f85750848201515b600019600385901b1c1916600184901b1784556102a8565b600084815260208120601f198516915b828110156103405787850151825560209485019460019092019101610320565b508482101561035e5786840151600019600387901b60f8161c191681555b50505050600190811b01905550565b8082018082111561038e57634e487b7160e01b600052601160045260246000fd5b92915050565b610ac8806103a36000396000f3fe608060405234801561001057600080fd5b50600436106100f55760003560e01c806361d027b31161009757806395d89b411161006657806395d89b4114610212578063a457c2d71461021a578063a9059cbb1461022d578063dd62ed3e1461024057600080fd5b806361d027b31461019757806370a08231146101c2578063870bd30b146101eb5780638da5cb5b146101ff57600080fd5b806323b872dd116100d357806323b872dd1461014d578063313ce56714610160578063395093511461016f5780633cfd52111461018257600080fd5b806306fdde03146100fa578063095ea7b31461011857806318160ddd1461013b575b600080fd5b610102610253565b60405161010f91906108d4565b60405180910390f35b61012b61012636600461093e565b6102e5565b604051901515815260200161010f565b6002545b60405190815260200161010f565b61012b61015b366004610968565b6102ff565b6040516012815260200161010f565b61012b61017d36600461093e565b610323565b6101956101903660046109a5565b610345565b005b6005546101aa906001600160a01b031681565b6040516001600160a01b03909116815260200161010f565b61013f6101d03660046109ce565b6001600160a01b031660009081526020819052604090205490565b60065461012b90600160a01b900460ff1681565b6006546101aa906001600160a01b031681565b6101026103c2565b61012b61022836600461093e565b6103d1565b61012b61023b36600461093e565b61044c565b61013f61024e3660046109e9565b610567565b60606003805461026290610a1c565b80601f016020809104026020016040519081016040528092919081815260200182805461028e90610a1c565b80156102db5780601f106102b0576101008083540402835291602001916102db565b820191906000526020600020905b8154815290600101906020018083116102be57829003601f168201915b5050505050905090565b6000336102f3818585610592565b60019150505b92915050565b60003361030d8582856106b6565b610318858585610730565b506001949350505050565b6000336102f38185856103368383610567565b6103409190610a6c565b610592565b6006546001600160a01b031633146103a45760405162461bcd60e51b815260206004820152601d60248201527f4f6e6c79206f776e65722063616e2073657420746178456e61626c656400000060448201526064015b60405180910390fd5b60068054911515600160a01b0260ff60a01b19909216919091179055565b60606004805461026290610a1c565b600033816103df8286610567565b90508381101561043f5760405162461bcd60e51b815260206004820152602560248201527f45524332303a2064656372656173656420616c6c6f77616e63652062656c6f77604482015264207a65726f60d81b606482015260840161039b565b6103188286868403610592565b60006001600160a01b0383166104a45760405162461bcd60e51b815260206004820181905260248201527f526563697069656e7420616464726573732063616e6e6f74206265207a65726f604482015260640161039b565b600082116105065760405162461bcd60e51b815260206004820152602960248201527f5472616e7366657220616d6f756e74206d7573742062652067726561746572206044820152687468616e207a65726f60b81b606482015260840161039b565b600654600160a01b900460ff161561055457600260006105268285610a7f565b905061053e336005546001600160a01b031684610730565b610549338683610730565b6001925050506102f9565b61055f338484610730565b5060016102f9565b6001600160a01b03918216600090815260016020908152604080832093909416825291909152205490565b6001600160a01b0383166105f45760405162461bcd60e51b8152602060048201526024808201527f45524332303a20617070726f76652066726f6d20746865207a65726f206164646044820152637265737360e01b606482015260840161039b565b6001600160a01b0382166106555760405162461bcd60e51b815260206004820152602260248201527f45524332303a20617070726f766520746f20746865207a65726f206164647265604482015261737360f01b606482015260840161039b565b6001600160a01b0383811660008181526001602090815260408083209487168084529482529182902085905590518481527f8c5be1e5ebec7d5bd14f71427d1e84f3dd0314c0f7b2291e5b200ac8c7c3b925910160405180910390a3505050565b60006106c28484610567565b9050600019811461072a578181101561071d5760405162461bcd60e51b815260206004820152601d60248201527f45524332303a20696e73756666696369656e7420616c6c6f77616e6365000000604482015260640161039b565b61072a8484848403610592565b50505050565b6001600160a01b0383166107945760405162461bcd60e51b815260206004820152602560248201527f45524332303a207472616e736665722066726f6d20746865207a65726f206164604482015264647265737360d81b606482015260840161039b565b6001600160a01b0382166107f65760405162461bcd60e51b815260206004820152602360248201527f45524332303a207472616e7366657220746f20746865207a65726f206164647260448201526265737360e81b606482015260840161039b565b6001600160a01b0383166000908152602081905260409020548181101561086e5760405162461bcd60e51b815260206004820152602660248201527f45524332303a207472616e7366657220616d6f756e7420657863656564732062604482015265616c616e636560d01b606482015260840161039b565b6001600160a01b03848116600081815260208181526040808320878703905593871680835291849020805487019055925185815290927fddf252ad1be2c89b69c2b068fc378daa952ba7f163c4a11628f55a4df523b3ef910160405180910390a361072a565b602081526000825180602084015260005b8181101561090257602081860181015160408684010152016108e5565b506000604082850101526040601f19601f83011684010191505092915050565b80356001600160a01b038116811461093957600080fd5b919050565b6000806040838503121561095157600080fd5b61095a83610922565b946020939093013593505050565b60008060006060848603121561097d57600080fd5b61098684610922565b925061099460208501610922565b929592945050506040919091013590565b6000602082840312156109b757600080fd5b813580151581146109c757600080fd5b9392505050565b6000602082840312156109e057600080fd5b6109c782610922565b600080604083850312156109fc57600080fd5b610a0583610922565b9150610a1360208401610922565b90509250929050565b600181811c90821680610a3057607f821691505b602082108103610a5057634e487b7160e01b600052602260045260246000fd5b50919050565b634e487b7160e01b600052601160045260246000fd5b808201808211156102f9576102f9610a56565b818103818111156102f9576102f9610a5656fea2646970667358221220742e934d11cce5a2dfd366077869ddcddb9b7c388106b56d7813df58e88ada8c64736f6c634300081a0033","linkReferences":{}},"methodIdentifiers":{"allowance(address,address)":"dd62ed3e","approve(address,uint256)":"095ea7b3","balanceOf(address)":"70a08231","decimals()":"313ce567","decreaseAllowance(address,uint256)":"a457c2d7","increaseAllowance(address,uint256)":"39509351","name()":"06fdde03","owner()":"8da5cb5b","symbol()":"95d89b41","taxEnabled()":"870bd30b","toggleTax(bool)":"3cfd5211","totalSupply()":"18160ddd","transfer(address,uint256)":"a9059cbb","transferFrom(address,address,uint256)":"23b872dd","treasury()":"61d027b3"},"id":0}