{"abi":[{"type":"constructor","inputs":[{"name":"_treasury","type":"address","internalType":"address"},{"name":"_owner","type":"address","internalType":"address"}],"stateMutability":"nonpayable"},{"type":"function","name":"allowance","inputs":[{"name":"owner","type":"address","internalType":"address"},{"name":"spender","type":"address","internalType":"address"}],"outputs":[{"name":"","type":"uint256","internalType":"uint256"}],"stateMutability":"view"},{"type":"function","name":"approve","inputs":[{"name":"spender","type":"address","internalType":"address"},{"name":"amount","type":"uint256","internalType":"uint256"}],"outputs":[{"name":"","type":"bool","internalType":"bool"}],"stateMutability":"nonpayable"},{"type":"function","name":"balanceOf","inputs":[{"name":"account","type":"address","internalType":"address"}],"outputs":[{"name":"","type":"uint256","internalType":"uint256"}],"stateMutability":"view"},{"type":"function","name":"decimals","inputs":[],"outputs":[{"name":"","type":"uint8","internalType":"uint8"}],"stateMutability":"view"},{"type":"function","name":"decreaseAllowance","inputs":[{"name":"spender","type":"address","internalType":"address"},{"name":"subtractedValue","type":"uint256","internalType":"uint256"}],"outputs":[{"name":"","type":"bool","internalType":"bool"}],"stateMutability":"nonpayable"},{"type":"function","name":"increaseAllowance","inputs":[{"name":"spender","type":"address","internalType":"address"},{"name":"addedValue","type":"uint256","internalType":"uint256"}],"outputs":[{"name":"","type":"bool","internalType":"bool"}],"stateMutability":"nonpayable"},{"type":"function","name":"name","inputs":[],"outputs":[{"name":"","type":"string","internalType":"string"}],"stateMutability":"view"},{"type":"function","name":"owner","inputs":[],"outputs":[{"name":"","type":"address","internalType":"address"}],"stateMutability":"view"},{"type":"function","name":"symbol","inputs":[],"outputs":[{"name":"","type":"string","internalType":"string"}],"stateMutability":"view"},{"type":"function","name":"taxEnabled","inputs":[],"outputs":[{"name":"","type":"bool","internalType":"bool"}],"stateMutability":"view"},{"type":"function","name":"toggleTax","inputs":[{"name":"_taxEnabled","type":"bool","internalType":"bool"}],"outputs":[],"stateMutability":"nonpayable"},{"type":"function","name":"totalSupply","inputs":[],"outputs":[{"name":"","type":"uint256","internalType":"uint256"}],"stateMutability":"view"},{"type":"function","name":"transfer","inputs":[{"name":"recipient","type":"address","internalType":"address"},{"name":"amount","type":"uint256","internalType":"uint256"}],"outputs":[{"name":"","type":"bool","internalType":"bool"}],"stateMutability":"nonpayable"},{"type":"function","name":"transferFrom","inputs":[{"name":"from","type":"address","internalType":"address"},{"name":"to","type":"address","internalType":"address"},{"name":"amount","type":"uint256","internalType":"uint256"}],"outputs":[{"name":"","type":"bool","internalType":"bool"}],"stateMutability":"nonpayable"},{"type":"function","name":"treasury","inputs":[],"outputs":[{"name":"","type":"address","internalType":"address"}],"stateMutability":"view"},{"type":"event","name":"Approval","inputs":[{"name":"owner","type":"address","indexed":true,"internalType":"address"},{"name":"spender","type":"address","indexed":true,"internalType":"address"},{"name":"value","type":"uint256","indexed":false,"internalType":"uint256"}],"anonymous":false},{"type":"event","name":"Transfer","inputs":[{"name":"from","type":"address","indexed":true,"internalType":"address"},{"name":"to","type":"address","indexed":true,"internalType":"address"},{"name":"value","type":"uint256","indexed":false,"internalType":"uint256"}],"anonymous":false}],"bytecode":{"object":"0x608060405234801561001057600080fd5b50604051611d8e380380611d8e8339818101604052810190610032919061037b565b6040518060400160405280600b81526020017f4f6c796d706978436f696e0000000000000000000000000000000000000000008152506040518060400160405280600381526020017f4f4c58000000000000000000000000000000000000000000000000000000000081525081600390816100ad919061060b565b5080600490816100bd919061060b565b50505080600660006101000a81548173ffffffffffffffffffffffffffffffffffffffff021916908373ffffffffffffffffffffffffffffffffffffffff16021790555081600560006101000a81548173ffffffffffffffffffffffffffffffffffffffff021916908373ffffffffffffffffffffffffffffffffffffffff1602179055506001600660146101000a81548160ff02191690831515021790555061017033620249f06101ac60201b60201c565b6101a5600560009054906101000a900473ffffffffffffffffffffffffffffffffffffffff16620557306101ac60201b60201c565b50506107e7565b600073ffffffffffffffffffffffffffffffffffffffff168273ffffffffffffffffffffffffffffffffffffffff160361021b576040517f08c379a00000000000000000000000000000000000000000000000000000000081526004016102129061073a565b60405180910390fd5b61022d6000838361030e60201b60201c565b806002600082825461023f9190610789565b92505081905550806000808473ffffffffffffffffffffffffffffffffffffffff1673ffffffffffffffffffffffffffffffffffffffff168152602001908152602001600020600082825401925050819055508173ffffffffffffffffffffffffffffffffffffffff16600073ffffffffffffffffffffffffffffffffffffffff167fddf252ad1be2c89b69c2b068fc378daa952ba7f163c4a11628f55a4df523b3ef836040516102f091906107cc565b60405180910390a361030a6000838361031360201b60201c565b5050565b505050565b505050565b600080fd5b600073ffffffffffffffffffffffffffffffffffffffff82169050919050565b60006103488261031d565b9050919050565b6103588161033d565b811461036357600080fd5b50565b6000815190506103758161034f565b92915050565b6000806040838503121561039257610391610318565b5b60006103a085828601610366565b92505060206103b185828601610366565b9150509250929050565b600081519050919050565b7f4e487b7100000000000000000000000000000000000000000000000000000000600052604160045260246000fd5b7f4e487b7100000000000000000000000000000000000000000000000000000000600052602260045260246000fd5b6000600282049050600182168061043c57607f821691505b60208210810361044f5761044e6103f5565b5b50919050565b60008190508160005260206000209050919050565b60006020601f8301049050919050565b600082821b905092915050565b6000600883026104b77fffffffffffffffffffffffffffffffffffffffffffffffffffffffffffffffff8261047a565b6104c1868361047a565b95508019841693508086168417925050509392505050565b6000819050919050565b6000819050919050565b60006105086105036104fe846104d9565b6104e3565b6104d9565b9050919050565b6000819050919050565b610522836104ed565b61053661052e8261050f565b848454610487565b825550505050565b600090565b61054b61053e565b610556818484610519565b505050565b5b8181101561057a5761056f600082610543565b60018101905061055c565b5050565b601f8211156105bf5761059081610455565b6105998461046a565b810160208510156105a8578190505b6105bc6105b48561046a565b83018261055b565b50505b505050565b600082821c905092915050565b60006105e2600019846008026105c4565b1980831691505092915050565b60006105fb83836105d1565b9150826002028217905092915050565b610614826103bb565b67ffffffffffffffff81111561062d5761062c6103c6565b5b6106378254610424565b61064282828561057e565b600060209050601f8311600181146106755760008415610663578287015190505b61066d85826105ef565b8655506106d5565b601f19841661068386610455565b60005b828110156106ab57848901518255600182019150602085019450602081019050610686565b868310156106c857848901516106c4601f8916826105d1565b8355505b6001600288020188555050505b505050505050565b600082825260208201905092915050565b7f45524332303a206d696e7420746f20746865207a65726f206164647265737300600082015250565b6000610724601f836106dd565b915061072f826106ee565b602082019050919050565b6000602082019050818103600083015261075381610717565b9050919050565b7f4e487b7100000000000000000000000000000000000000000000000000000000600052601160045260246000fd5b6000610794826104d9565b915061079f836104d9565b92508282019050808211156107b7576107b661075a565b5b92915050565b6107c6816104d9565b82525050565b60006020820190506107e160008301846107bd565b92915050565b611598806107f66000396000f3fe608060405234801561001057600080fd5b50600436106100f55760003560e01c806361d027b31161009757806395d89b411161006657806395d89b411461028a578063a457c2d7146102a8578063a9059cbb146102d8578063dd62ed3e14610308576100f5565b806361d027b31461020057806370a082311461021e578063870bd30b1461024e5780638da5cb5b1461026c576100f5565b806323b872dd116100d357806323b872dd14610166578063313ce5671461019657806339509351146101b45780633cfd5211146101e4576100f5565b806306fdde03146100fa578063095ea7b31461011857806318160ddd14610148575b600080fd5b610102610338565b60405161010f9190610d52565b60405180910390f35b610132600480360381019061012d9190610e0d565b6103ca565b60405161013f9190610e68565b60405180910390f35b6101506103ed565b60405161015d9190610e92565b60405180910390f35b610180600480360381019061017b9190610ead565b6103f7565b60405161018d9190610e68565b60405180910390f35b61019e610426565b6040516101ab9190610f1c565b60405180910390f35b6101ce60048036038101906101c99190610e0d565b61042f565b6040516101db9190610e68565b60405180910390f35b6101fe60048036038101906101f99190610f63565b610466565b005b610208610513565b6040516102159190610f9f565b60405180910390f35b61023860048036038101906102339190610fba565b610539565b6040516102459190610e92565b60405180910390f35b610256610581565b6040516102639190610e68565b60405180910390f35b610274610594565b6040516102819190610f9f565b60405180910390f35b6102926105ba565b60405161029f9190610d52565b60405180910390f35b6102c260048036038101906102bd9190610e0d565b61064c565b6040516102cf9190610e68565b60405180910390f35b6102f260048036038101906102ed9190610e0d565b6106c3565b6040516102ff9190610e68565b60405180910390f35b610322600480360381019061031d9190610fe7565b61075e565b60405161032f9190610e92565b60405180910390f35b60606003805461034790611056565b80601f016020809104026020016040519081016040528092919081815260200182805461037390611056565b80156103c05780601f10610395576101008083540402835291602001916103c0565b820191906000526020600020905b8154815290600101906020018083116103a357829003601f168201915b5050505050905090565b6000806103d56107e5565b90506103e28185856107ed565b600191505092915050565b6000600254905090565b6000806104026107e5565b905061040f8582856109b6565b61041a858585610a42565b60019150509392505050565b60006012905090565b60008061043a6107e5565b905061045b81858561044c858961075e565b61045691906110b6565b6107ed565b600191505092915050565b600660009054906101000a900473ffffffffffffffffffffffffffffffffffffffff1673ffffffffffffffffffffffffffffffffffffffff163373ffffffffffffffffffffffffffffffffffffffff16146104f6576040517f08c379a00000000000000000000000000000000000000000000000000000000081526004016104ed90611136565b60405180910390fd5b80600660146101000a81548160ff02191690831515021790555050565b600560009054906101000a900473ffffffffffffffffffffffffffffffffffffffff1681565b60008060008373ffffffffffffffffffffffffffffffffffffffff1673ffffffffffffffffffffffffffffffffffffffff168152602001908152602001600020549050919050565b600660149054906101000a900460ff1681565b600660009054906101000a900473ffffffffffffffffffffffffffffffffffffffff1681565b6060600480546105c990611056565b80601f01602080910402602001604051908101604052809291908181526020018280546105f590611056565b80156106425780601f1061061757610100808354040283529160200191610642565b820191906000526020600020905b81548152906001019060200180831161062557829003601f168201915b5050505050905090565b6000806106576107e5565b90506000610665828661075e565b9050838110156106aa576040517f08c379a00000000000000000000000000000000000000000000000000000000081526004016106a1906111c8565b60405180910390fd5b6106b782868684036107ed565b60019250505092915050565b6000600660149054906101000a900460ff161561074157600060029050600081846106ee91906111e8565b90506107246106fb6107e5565b600560009054906101000a900473ffffffffffffffffffffffffffffffffffffffff1684610a42565b61073661072f6107e5565b8683610a42565b600192505050610758565b61075361074c6107e5565b8484610a42565b600190505b92915050565b6000600160008473ffffffffffffffffffffffffffffffffffffffff1673ffffffffffffffffffffffffffffffffffffffff16815260200190815260200160002060008373ffffffffffffffffffffffffffffffffffffffff1673ffffffffffffffffffffffffffffffffffffffff16815260200190815260200160002054905092915050565b600033905090565b600073ffffffffffffffffffffffffffffffffffffffff168373ffffffffffffffffffffffffffffffffffffffff160361085c576040517f08c379a00000000000000000000000000000000000000000000000000000000081526004016108539061128e565b60405180910390fd5b600073ffffffffffffffffffffffffffffffffffffffff168273ffffffffffffffffffffffffffffffffffffffff16036108cb576040517f08c379a00000000000000000000000000000000000000000000000000000000081526004016108c290611320565b60405180910390fd5b80600160008573ffffffffffffffffffffffffffffffffffffffff1673ffffffffffffffffffffffffffffffffffffffff16815260200190815260200160002060008473ffffffffffffffffffffffffffffffffffffffff1673ffffffffffffffffffffffffffffffffffffffff168152602001908152602001600020819055508173ffffffffffffffffffffffffffffffffffffffff168373ffffffffffffffffffffffffffffffffffffffff167f8c5be1e5ebec7d5bd14f71427d1e84f3dd0314c0f7b2291e5b200ac8c7c3b925836040516109a99190610e92565b60405180910390a3505050565b60006109c2848461075e565b90507fffffffffffffffffffffffffffffffffffffffffffffffffffffffffffffffff8114610a3c5781811015610a2e576040517f08c379a0000000000000000000000000000000000000000000000000000000008152600401610a259061138c565b60405180910390fd5b610a3b84848484036107ed565b5b50505050565b600073ffffffffffffffffffffffffffffffffffffffff168373ffffffffffffffffffffffffffffffffffffffff1603610ab1576040517f08c379a0000000000000000000000000000000000000000000000000000000008152600401610aa89061141e565b60405180910390fd5b600073ffffffffffffffffffffffffffffffffffffffff168273ffffffffffffffffffffffffffffffffffffffff1603610b20576040517f08c379a0000000000000000000000000000000000000000000000000000000008152600401610b17906114b0565b60405180910390fd5b610b2b838383610cb8565b60008060008573ffffffffffffffffffffffffffffffffffffffff1673ffffffffffffffffffffffffffffffffffffffff16815260200190815260200160002054905081811015610bb1576040517f08c379a0000000000000000000000000000000000000000000000000000000008152600401610ba890611542565b60405180910390fd5b8181036000808673ffffffffffffffffffffffffffffffffffffffff1673ffffffffffffffffffffffffffffffffffffffff16815260200190815260200160002081905550816000808573ffffffffffffffffffffffffffffffffffffffff1673ffffffffffffffffffffffffffffffffffffffff168152602001908152602001600020600082825401925050819055508273ffffffffffffffffffffffffffffffffffffffff168473ffffffffffffffffffffffffffffffffffffffff167fddf252ad1be2c89b69c2b068fc378daa952ba7f163c4a11628f55a4df523b3ef84604051610c9f9190610e92565b60405180910390a3610cb2848484610cbd565b50505050565b505050565b505050565b600081519050919050565b600082825260208201905092915050565b60005b83811015610cfc578082015181840152602081019050610ce1565b60008484015250505050565b6000601f19601f8301169050919050565b6000610d2482610cc2565b610d2e8185610ccd565b9350610d3e818560208601610cde565b610d4781610d08565b840191505092915050565b60006020820190508181036000830152610d6c8184610d19565b905092915050565b600080fd5b600073ffffffffffffffffffffffffffffffffffffffff82169050919050565b6000610da482610d79565b9050919050565b610db481610d99565b8114610dbf57600080fd5b50565b600081359050610dd181610dab565b92915050565b6000819050919050565b610dea81610dd7565b8114610df557600080fd5b50565b600081359050610e0781610de1565b92915050565b60008060408385031215610e2457610e23610d74565b5b6000610e3285828601610dc2565b9250506020610e4385828601610df8565b9150509250929050565b60008115159050919050565b610e6281610e4d565b82525050565b6000602082019050610e7d6000830184610e59565b92915050565b610e8c81610dd7565b82525050565b6000602082019050610ea76000830184610e83565b92915050565b600080600060608486031215610ec657610ec5610d74565b5b6000610ed486828701610dc2565b9350506020610ee586828701610dc2565b9250506040610ef686828701610df8565b9150509250925092565b600060ff82169050919050565b610f1681610f00565b82525050565b6000602082019050610f316000830184610f0d565b92915050565b610f4081610e4d565b8114610f4b57600080fd5b50565b600081359050610f5d81610f37565b92915050565b600060208284031215610f7957610f78610d74565b5b6000610f8784828501610f4e565b91505092915050565b610f9981610d99565b82525050565b6000602082019050610fb46000830184610f90565b92915050565b600060208284031215610fd057610fcf610d74565b5b6000610fde84828501610dc2565b91505092915050565b60008060408385031215610ffe57610ffd610d74565b5b600061100c85828601610dc2565b925050602061101d85828601610dc2565b9150509250929050565b7f4e487b7100000000000000000000000000000000000000000000000000000000600052602260045260246000fd5b6000600282049050600182168061106e57607f821691505b60208210810361108157611080611027565b5b50919050565b7f4e487b7100000000000000000000000000000000000000000000000000000000600052601160045260246000fd5b60006110c182610dd7565b91506110cc83610dd7565b92508282019050808211156110e4576110e3611087565b5b92915050565b7f4f6e6c79206f776e65722063616e2073657420746178456e61626c6564000000600082015250565b6000611120601d83610ccd565b915061112b826110ea565b602082019050919050565b6000602082019050818103600083015261114f81611113565b9050919050565b7f45524332303a2064656372656173656420616c6c6f77616e63652062656c6f7760008201527f207a65726f000000000000000000000000000000000000000000000000000000602082015250565b60006111b2602583610ccd565b91506111bd82611156565b604082019050919050565b600060208201905081810360008301526111e1816111a5565b9050919050565b60006111f382610dd7565b91506111fe83610dd7565b925082820390508181111561121657611215611087565b5b92915050565b7f45524332303a20617070726f76652066726f6d20746865207a65726f2061646460008201527f7265737300000000000000000000000000000000000000000000000000000000602082015250565b6000611278602483610ccd565b91506112838261121c565b604082019050919050565b600060208201905081810360008301526112a78161126b565b9050919050565b7f45524332303a20617070726f766520746f20746865207a65726f20616464726560008201527f7373000000000000000000000000000000000000000000000000000000000000602082015250565b600061130a602283610ccd565b9150611315826112ae565b604082019050919050565b60006020820190508181036000830152611339816112fd565b9050919050565b7f45524332303a20696e73756666696369656e7420616c6c6f77616e6365000000600082015250565b6000611376601d83610ccd565b915061138182611340565b602082019050919050565b600060208201905081810360008301526113a581611369565b9050919050565b7f45524332303a207472616e736665722066726f6d20746865207a65726f20616460008201527f6472657373000000000000000000000000000000000000000000000000000000602082015250565b6000611408602583610ccd565b9150611413826113ac565b604082019050919050565b60006020820190508181036000830152611437816113fb565b9050919050565b7f45524332303a207472616e7366657220746f20746865207a65726f206164647260008201527f6573730000000000000000000000000000000000000000000000000000000000602082015250565b600061149a602383610ccd565b91506114a58261143e565b604082019050919050565b600060208201905081810360008301526114c98161148d565b9050919050565b7f45524332303a207472616e7366657220616d6f756e742065786365656473206260008201527f616c616e63650000000000000000000000000000000000000000000000000000602082015250565b600061152c602683610ccd565b9150611537826114d0565b604082019050919050565b6000602082019050818103600083015261155b8161151f565b905091905056fea2646970667358221220d9e7f02dcbcf6254f9441171e40a317cff04b43bd56b86d6d58bbac8c696c12264736f6c634300081a0033","linkReferences":{}},"methodIdentifiers":{"allowance(address,address)":"dd62ed3e","approve(address,uint256)":"095ea7b3","balanceOf(address)":"70a08231","decimals()":"313ce567","decreaseAllowance(address,uint256)":"a457c2d7","increaseAllowance(address,uint256)":"39509351","name()":"06fdde03","owner()":"8da5cb5b","symbol()":"95d89b41","taxEnabled()":"870bd30b","toggleTax(bool)":"3cfd5211","totalSupply()":"18160ddd","transfer(address,uint256)":"a9059cbb","transferFrom(address,address,uint256)":"23b872dd","treasury()":"61d027b3"},"id":22}