{"abi":[{"type":"function","name":"concatenation","inputs":[{"name":"a","type":"string","internalType":"string"},{"name":"b","type":"string","internalType":"string"}],"outputs":[{"name":"","type":"string","internalType":"string"}],"stateMutability":"pure"},{"type":"function","name":"currentList","inputs":[{"name":"","type":"uint256","internalType":"uint256"}],"outputs":[{"name":"","type":"address","internalType":"address"}],"stateMutability":"view"},{"type":"function","name":"estimateAmountOut","inputs":[{"name":"tokenIn","type":"address","internalType":"address"},{"name":"tokenOut","type":"address","internalType":"address"},{"name":"amountIn","type":"uint128","internalType":"uint128"},{"name":"swapFee","type":"uint24","internalType":"uint24"}],"outputs":[{"name":"amountOut","type":"uint256","internalType":"uint256"}],"stateMutability":"view"},{"type":"function","name":"externalJobId","inputs":[],"outputs":[{"name":"","type":"bytes32","internalType":"bytes32"}],"stateMutability":"view"},{"type":"function","name":"factoryAddress","inputs":[],"outputs":[{"name":"","type":"address","internalType":"address"}],"stateMutability":"view"},{"type":"function","name":"factoryBalancerAddress","inputs":[],"outputs":[{"name":"","type":"address","internalType":"address"}],"stateMutability":"view"},{"type":"function","name":"factoryV2","inputs":[],"outputs":[{"name":"","type":"address","internalType":"contract IUniswapV2Factory"}],"stateMutability":"view"},{"type":"function","name":"factoryV3","inputs":[],"outputs":[{"name":"","type":"address","internalType":"contract IUniswapV3Factory"}],"stateMutability":"view"},{"type":"function","name":"fee","inputs":[],"outputs":[{"name":"","type":"uint256","internalType":"uint256"}],"stateMutability":"view"},{"type":"function","name":"feeRate","inputs":[],"outputs":[{"name":"","type":"uint8","internalType":"uint8"}],"stateMutability":"view"},{"type":"function","name":"feeReceiver","inputs":[],"outputs":[{"name":"","type":"address","internalType":"address"}],"stateMutability":"view"},{"type":"function","name":"fulfillAssetsData","inputs":[{"name":"requestId","type":"bytes32","internalType":"bytes32"},{"name":"_tokens","type":"address[]","internalType":"address[]"},{"name":"_marketShares","type":"uint256[]","internalType":"uint256[]"},{"name":"_swapFees","type":"uint24[]","internalType":"uint24[]"}],"outputs":[],"stateMutability":"nonpayable"},{"type":"function","name":"getAmountOut","inputs":[{"name":"tokenIn","type":"address","internalType":"address"},{"name":"tokenOut","type":"address","internalType":"address"},{"name":"amountIn","type":"uint256","internalType":"uint256"},{"name":"_swapFee","type":"uint24","internalType":"uint24"}],"outputs":[{"name":"finalAmountOut","type":"uint256","internalType":"uint256"}],"stateMutability":"view"},{"type":"function","name":"getPortfolioBalance","inputs":[],"outputs":[{"name":"","type":"uint256","internalType":"uint256"}],"stateMutability":"view"},{"type":"function","name":"indexToken","inputs":[],"outputs":[{"name":"","type":"address","internalType":"contract IndexToken"}],"stateMutability":"view"},{"type":"function","name":"initialize","inputs":[{"name":"_token","type":"address","internalType":"address payable"},{"name":"_chainlinkToken","type":"address","internalType":"address"},{"name":"_oracleAddress","type":"address","internalType":"address"},{"name":"_externalJobId","type":"bytes32","internalType":"bytes32"},{"name":"_toUsdPriceFeed","type":"address","internalType":"address"},{"name":"_weth","type":"address","internalType":"address"},{"name":"_quoter","type":"address","internalType":"address"},{"name":"_swapRouterV3","type":"address","internalType":"address"},{"name":"_factoryV3","type":"address","internalType":"address"},{"name":"_swapRouterV2","type":"address","internalType":"address"},{"name":"_factoryV2","type":"address","internalType":"address"}],"outputs":[],"stateMutability":"nonpayable"},{"type":"function","name":"lastUpdateTime","inputs":[],"outputs":[{"name":"","type":"uint256","internalType":"uint256"}],"stateMutability":"view"},{"type":"function","name":"latestFeeUpdate","inputs":[],"outputs":[{"name":"","type":"uint256","internalType":"uint256"}],"stateMutability":"view"},{"type":"function","name":"mockFillAssetsList","inputs":[{"name":"_tokens","type":"address[]","internalType":"address[]"},{"name":"_marketShares","type":"uint256[]","internalType":"uint256[]"},{"name":"_swapFees","type":"uint24[]","internalType":"uint24[]"}],"outputs":[],"stateMutability":"nonpayable"},{"type":"function","name":"oracleList","inputs":[{"name":"","type":"uint256","internalType":"uint256"}],"outputs":[{"name":"","type":"address","internalType":"address"}],"stateMutability":"view"},{"type":"function","name":"oraclePayment","inputs":[],"outputs":[{"name":"","type":"uint256","internalType":"uint256"}],"stateMutability":"view"},{"type":"function","name":"owner","inputs":[],"outputs":[{"name":"","type":"address","internalType":"address"}],"stateMutability":"view"},{"type":"function","name":"paused","inputs":[],"outputs":[{"name":"","type":"bool","internalType":"bool"}],"stateMutability":"view"},{"type":"function","name":"priceInWei","inputs":[],"outputs":[{"name":"","type":"uint256","internalType":"uint256"}],"stateMutability":"view"},{"type":"function","name":"priceOracle","inputs":[],"outputs":[{"name":"","type":"address","internalType":"address"}],"stateMutability":"view"},{"type":"function","name":"proposeOwner","inputs":[{"name":"_proposedOwner","type":"address","internalType":"address"}],"outputs":[],"stateMutability":"nonpayable"},{"type":"function","name":"proposedOwner","inputs":[],"outputs":[{"name":"","type":"address","internalType":"address"}],"stateMutability":"view"},{"type":"function","name":"quoter","inputs":[],"outputs":[{"name":"","type":"address","internalType":"contract IQuoter"}],"stateMutability":"view"},{"type":"function","name":"renounceOwnership","inputs":[],"outputs":[],"stateMutability":"nonpayable"},{"type":"function","name":"requestAssetsData","inputs":[],"outputs":[{"name":"","type":"bytes32","internalType":"bytes32"}],"stateMutability":"nonpayable"},{"type":"function","name":"setFactory","inputs":[{"name":"_factoryAddress","type":"address","internalType":"address"}],"outputs":[],"stateMutability":"nonpayable"},{"type":"function","name":"setFactoryBalancer","inputs":[{"name":"_factoryBalancerAddress","type":"address","internalType":"address"}],"outputs":[],"stateMutability":"nonpayable"},{"type":"function","name":"setFeeRate","inputs":[{"name":"_newFee","type":"uint8","internalType":"uint8"}],"outputs":[],"stateMutability":"nonpayable"},{"type":"function","name":"setFeeReceiver","inputs":[{"name":"_feeReceiver","type":"address","internalType":"address"}],"outputs":[],"stateMutability":"nonpayable"},{"type":"function","name":"setPriceFeed","inputs":[{"name":"_toUsdPricefeed","type":"address","internalType":"address"}],"outputs":[],"stateMutability":"nonpayable"},{"type":"function","name":"setPriceOracle","inputs":[{"name":"_priceOracle","type":"address","internalType":"address"}],"outputs":[],"stateMutability":"nonpayable"},{"type":"function","name":"setUrl","inputs":[{"name":"_beforeAddress","type":"string","internalType":"string"},{"name":"_afterAddress","type":"string","internalType":"string"}],"outputs":[],"stateMutability":"nonpayable"},{"type":"function","name":"setVault","inputs":[{"name":"_vaultAddress","type":"address","internalType":"address"}],"outputs":[],"stateMutability":"nonpayable"},{"type":"function","name":"swapRouterV2","inputs":[],"outputs":[{"name":"","type":"address","internalType":"contract IUniswapV2Router02"}],"stateMutability":"view"},{"type":"function","name":"swapRouterV3","inputs":[],"outputs":[{"name":"","type":"address","internalType":"contract ISwapRouter"}],"stateMutability":"view"},{"type":"function","name":"toUsdPriceFeed","inputs":[],"outputs":[{"name":"","type":"address","internalType":"contract AggregatorV3Interface"}],"stateMutability":"view"},{"type":"function","name":"tokenCurrentListIndex","inputs":[{"name":"","type":"address","internalType":"address"}],"outputs":[{"name":"","type":"uint256","internalType":"uint256"}],"stateMutability":"view"},{"type":"function","name":"tokenCurrentMarketShare","inputs":[{"name":"","type":"address","internalType":"address"}],"outputs":[{"name":"","type":"uint256","internalType":"uint256"}],"stateMutability":"view"},{"type":"function","name":"tokenOracleListIndex","inputs":[{"name":"","type":"address","internalType":"address"}],"outputs":[{"name":"","type":"uint256","internalType":"uint256"}],"stateMutability":"view"},{"type":"function","name":"tokenOracleMarketShare","inputs":[{"name":"","type":"address","internalType":"address"}],"outputs":[{"name":"","type":"uint256","internalType":"uint256"}],"stateMutability":"view"},{"type":"function","name":"tokenSwapFee","inputs":[{"name":"","type":"address","internalType":"address"}],"outputs":[{"name":"","type":"uint24","internalType":"uint24"}],"stateMutability":"view"},{"type":"function","name":"totalCurrentList","inputs":[],"outputs":[{"name":"","type":"uint256","internalType":"uint256"}],"stateMutability":"view"},{"type":"function","name":"totalOracleList","inputs":[],"outputs":[{"name":"","type":"uint256","internalType":"uint256"}],"stateMutability":"view"},{"type":"function","name":"transferOwnership","inputs":[{"name":"newOwner","type":"address","internalType":"address"}],"outputs":[],"stateMutability":"nonpayable"},{"type":"function","name":"updateCurrentList","inputs":[],"outputs":[],"stateMutability":"nonpayable"},{"type":"function","name":"vault","inputs":[],"outputs":[{"name":"","type":"address","internalType":"contract Vault"}],"stateMutability":"view"},{"type":"function","name":"weth","inputs":[],"outputs":[{"name":"","type":"address","internalType":"contract IWETH"}],"stateMutability":"view"},{"type":"event","name":"ChainlinkCancelled","inputs":[{"name":"id","type":"bytes32","indexed":true,"internalType":"bytes32"}],"anonymous":false},{"type":"event","name":"ChainlinkFulfilled","inputs":[{"name":"id","type":"bytes32","indexed":true,"internalType":"bytes32"}],"anonymous":false},{"type":"event","name":"ChainlinkRequested","inputs":[{"name":"id","type":"bytes32","indexed":true,"internalType":"bytes32"}],"anonymous":false},{"type":"event","name":"FeeReceiverSet","inputs":[{"name":"feeReceiver","type":"address","indexed":true,"internalType":"address"}],"anonymous":false},{"type":"event","name":"Initialized","inputs":[{"name":"version","type":"uint8","indexed":false,"internalType":"uint8"}],"anonymous":false},{"type":"event","name":"OwnershipTransferred","inputs":[{"name":"previousOwner","type":"address","indexed":true,"internalType":"address"},{"name":"newOwner","type":"address","indexed":true,"internalType":"address"}],"anonymous":false},{"type":"event","name":"Paused","inputs":[{"name":"account","type":"address","indexed":false,"internalType":"address"}],"anonymous":false},{"type":"event","name":"Unpaused","inputs":[{"name":"account","type":"address","indexed":false,"internalType":"address"}],"anonymous":false}],"bytecode":{"object":"0x608060405234801561001057600080fd5b50613317806100206000396000f3fe608060405234801561001057600080fd5b506004361061030c5760003560e01c80638c88c10c1161019d578063c6bbd5a7116100e9578063dd811ac9116100a2578063ee7bd3e21161007c578063ee7bd3e2146106f1578063efdcd97414610704578063f2fde38b14610717578063fbfa77cf1461072a57600080fd5b8063dd811ac9146106c2578063ddca3f43146106d5578063e7d015f2146106de57600080fd5b8063c6bbd5a714610664578063c8599ded14610677578063c8f33c9114610680578063cb4d4e0914610689578063d153b60c1461069c578063d5fbea63146106af57600080fd5b8063a73e1cbf11610156578063af2bcb4711610130578063af2bcb4714610618578063b3f006741461062b578063b5ed298a1461063e578063b631e80b1461065157600080fd5b8063a73e1cbf146105f4578063a8509fd814610607578063a8b54bd41461060f57600080fd5b80638c88c10c146105485780638da5cb5b14610568578063914f0cc614610579578063966dae0e14610599578063978bbdb9146105ac5780639932ba4c146105cb57600080fd5b8063530e784f1161025c57806368e0d4e111610215578063744fbc7a116101ef578063744fbc7a146105125780637ca58c5514610525578063897b8dc51461052d5780638baa6bf11461054057600080fd5b806368e0d4e1146104e4578063715018a6146104f7578063724e78da146104ff57600080fd5b8063530e784f1461047957806353fd43321461048c5780635bb47808146104955780635c975abb146104a857806363973fda146104be5780636817031b146104d157600080fd5b80632630c12f116102c95780633fc8cef3116102a35780633fc8cef31461041e578063465a4c94146104315780634b3e0b80146104465780635177942a1461046657600080fd5b80632630c12f146103ca57806332599665146103dd5780633c8da5881461041657600080fd5b8063011ced5f146103115780630be527131461032d5780630c02e1301461034d5780630e329357146103565780631d5f45f514610376578063239aad0d146103a1575b600080fd5b61031a60d25481565b6040519081526020015b60405180910390f35b61031a61033b3660046128b3565b60e16020526000908152604090205481565b61031a60d85481565b610369610364366004612c24565b61073d565b6040516103249190612e2d565b60e754610389906001600160a01b031681565b6040516001600160a01b039091168152602001610324565b6103896103af366004612c87565b60dd602052600090815260409020546001600160a01b031681565b60d654610389906001600160a01b031681565b6104026103eb3660046128b3565b60e36020526000908152604090205462ffffff1681565b60405162ffffff9091168152602001610324565b61031a61076a565b60ea54610389906001600160a01b031681565b61044461043f3660046128d0565b610896565b005b61031a6104543660046128b3565b60e26020526000908152604090205481565b610444610474366004612cb9565b610b33565b6104446104873660046128b3565b610c73565b61031a60dc5481565b6104446104a33660046128b3565b610d07565b609d5460ff166040519015158152602001610324565b60d954610389906001600160a01b031681565b6104446104df3660046128b3565b610d31565b60e954610389906001600160a01b031681565b610444610d5b565b61044461050d3660046128b3565b610d6f565b60e854610389906001600160a01b031681565b61031a610e06565b61044461053b366004612b93565b61109d565b61044461146d565b61031a6105563660046128b3565b60df6020526000908152604090205481565b6038546001600160a01b0316610389565b61031a6105873660046128b3565b60e06020526000908152604090205481565b60e454610389906001600160a01b031681565b60d1546105b99060ff1681565b60405160ff9091168152602001610324565b6103896105d9366004612c87565b60de602052600090815260409020546001600160a01b031681565b610444610602366004612c24565b61154c565b61031a611580565b61031a60d75481565b610444610626366004612a53565b611742565b60d354610389906001600160a01b031681565b61044461064c3660046128b3565b6119ea565b60e654610389906001600160a01b031681565b60eb54610389906001600160a01b031681565b61031a60db5481565b61031a60da5481565b60e554610389906001600160a01b031681565b606a54610389906001600160a01b031681565b6104446106bd3660046128b3565b611a3a565b61031a6106d0366004612a0d565b611a64565b61031a60d05481565b60cf54610389906001600160a01b031681565b61031a6106ff3660046129a7565b611bb5565b6104446107123660046128b3565b611c6c565b6104446107253660046128b3565b611cbe565b60ec54610389906001600160a01b031681565b60608282604051602001610752929190612d6f565b60405160208183030381529060405290505b92915050565b60008060d960009054906101000a90046001600160a01b03166001600160a01b031663feaf968c6040518163ffffffff1660e01b815260040160a06040518083038186803b1580156107bb57600080fd5b505afa1580156107cf573d6000803e3d6000fd5b505050506040513d601f19601f820116820180604052508101906107f39190612cd6565b505050915050600060d960009054906101000a90046001600160a01b03166001600160a01b031663313ce5676040518163ffffffff1660e01b815260040160206040518083038186803b15801561084957600080fd5b505afa15801561085d573d6000803e3d6000fd5b505050506040513d601f19601f820116820180604052508101906108819190612d26565b905061088f82826012611de3565b9392505050565b600054610100900460ff16158080156108b65750600054600160ff909116105b806108d05750303b1580156108d0575060005460ff166001145b6109385760405162461bcd60e51b815260206004820152602e60248201527f496e697469616c697a61626c653a20636f6e747261637420697320616c72656160448201526d191e481a5b9a5d1a585b1a5e995960921b60648201526084015b60405180910390fd5b6000805460ff19166001179055801561095b576000805461ff0019166101001790555b610963611e23565b61096b611e52565b60cf80546001600160a01b038e166001600160a01b03199091161790556109af8b600280546001600160a01b039092166001600160a01b0319909216919091179055565b600380546001600160a01b0319166001600160a01b038c1617905560d7899055600a6109e4670de0b6b3a76400006001613124565b6109ee9190612f90565b60d85560d980546001600160a01b03199081166001600160a01b038b81169190911790925560ea805482168a841617905560eb8054821689841617905560e68054821688841617905560e78054821687841617905560e88054821686841617905560e9805490911691841691909117905560d18054600a60ff199091161790554260d2556040805160608101909152602a80825261328a60208301398051610a9e9160d4916020909101906125f1565b506040518060600160405280602e81526020016132b4602e91398051610acc9160d5916020909101906125f1565b5060d380546001600160a01b031916331790558015610b25576000805461ff0019169055604051600181527f7f26b83ff96e1f2b6a682f133852f6798a09c465da95921460cefb38474024989060200160405180910390a15b505050505050505050505050565b610b3b611e81565b600060d25442610b4b9190613143565b9050600c603c610b5b8184612f90565b610b659190612f90565b11610bd85760405162461bcd60e51b815260206004820152603960248201527f596f752073686f756c642077616974206174206c6561737420313220686f757260448201527f7320616674657220746865206c61746573742075706461746500000000000000606482015260840161092f565b60648260ff1611158015610bf0575060018260ff1610155b610c585760405162461bcd60e51b815260206004820152603360248201527f546865206e65774665652073686f756c64206265206265747765656e203120616044820152726e64203130302028302e303125202d2031252960681b606482015260840161092f565b5060d1805460ff191660ff929092169190911790554260d255565b610c7b611e81565b6001600160a01b038116610ce55760405162461bcd60e51b815260206004820152602b60248201527f5072696365206f7261636c6520616464726573732063616e6e6f74206265207a60448201526a65726f206164647265737360a81b606482015260840161092f565b60d680546001600160a01b0319166001600160a01b0392909216919091179055565b610d0f611e81565b60e480546001600160a01b0319166001600160a01b0392909216919091179055565b610d39611e81565b60ec80546001600160a01b0319166001600160a01b0392909216919091179055565b610d63611e81565b610d6d6000611edb565b565b610d77611e81565b6001600160a01b038116610de45760405162461bcd60e51b815260206004820152602e60248201527f49434f3a205072696365206665656420616464726573732063616e6e6f74206260448201526d65207a65726f206164647265737360901b606482015260840161092f565b60d980546001600160a01b0319166001600160a01b0392909216919091179055565b600080610f2760d48054610e19906131a9565b80601f0160208091040260200160405190810160405280929190818152602001828054610e45906131a9565b8015610e925780601f10610e6757610100808354040283529160200191610e92565b820191906000526020600020905b815481529060010190602001808311610e7557829003601f168201915b505050505060d58054610ea4906131a9565b80601f0160208091040260200160405190810160405280929190818152602001828054610ed0906131a9565b8015610f1d5780601f10610ef257610100808354040283529160200191610f1d565b820191906000526020600020905b815481529060010190602001808311610f0057829003601f168201915b505050505061073d565b90506000610f3f60d7543063897b8dc560e01b611f2d565b60408051808201909152600381526219d95d60ea1b6020820152909150610f6890829084611f49565b610fc060405180604001604052806005815260200164706174683160d81b8152506040518060400160405280600e81526020016d726573756c74732c746f6b656e7360901b81525083611f499092919063ffffffff16565b61101e604051806040016040528060058152602001643830ba341960d91b81525060405180604001604052806014815260200173726573756c74732c6d61726b657453686172657360601b81525083611f499092919063ffffffff16565b61107860405180604001604052806005815260200164706174683360d81b8152506040518060400160405280601081526020016f726573756c74732c737761704665657360801b81525083611f499092919063ffffffff16565b61109661108d6003546001600160a01b031690565b8260d854611f67565b9250505090565b60008481526005602052604090205484906001600160a01b031633146111165760405162461bcd60e51b815260206004820152602860248201527f536f75726365206d75737420626520746865206f7261636c65206f6620746865604482015267081c995c5d595cdd60c21b606482015260840161092f565b60008181526005602052604080822080546001600160a01b03191690555182917f7cc135e0cebb02c3480ae5d74d377283180a2601f8f644edf7987b009316c63a91a28251845114801561116b575081518351145b6111cb5760405162461bcd60e51b815260206004820152602b60248201527f546865206c656e677468206f6620746865206172726179732073686f756c642060448201526a6265207468652073616d6560a81b606482015260840161092f565b83838360005b835181101561144c578381815181106111ec576111ec613239565b602002602001015160dd600083815260200190815260200160002060006101000a8154816001600160a01b0302191690836001600160a01b031602179055508060df600086848151811061124257611242613239565b60200260200101516001600160a01b03166001600160a01b031681526020019081526020016000208190555082818151811061128057611280613239565b602002602001015160e2600086848151811061129e5761129e613239565b60200260200101516001600160a01b03166001600160a01b03168152602001908152602001600020819055508181815181106112dc576112dc613239565b602002602001015160e360008684815181106112fa576112fa613239565b60200260200101516001600160a01b03166001600160a01b0316815260200190815260200160002060006101000a81548162ffffff021916908362ffffff16021790555060dc546000141561143a5783818151811061135b5761135b613239565b602002602001015160de600083815260200190815260200160002060006101000a8154816001600160a01b0302191690836001600160a01b031602179055508281815181106113ac576113ac613239565b602002602001015160e160008684815181106113ca576113ca613239565b60200260200101516001600160a01b03166001600160a01b03168152602001908152602001600020819055508060e0600086848151811061140d5761140d613239565b60200260200101516001600160a01b03166001600160a01b03168152602001908152602001600020819055505b80611444816131de565b9150506111d1565b50825160db5560dc5461145f57825160dc555b50504260da55505050505050565b60e4546001600160a01b0316331480611490575060e5546001600160a01b031633145b6114dc5760405162461bcd60e51b815260206004820181905260248201527f43616c6c6572206973206e6f74206120666163746f727920636f6e7472616374604482015260640161092f565b60db5460dc5560005b60db5481101561154957600081815260dd602090815260408083205460de835281842080546001600160a01b0319166001600160a01b039092169182179055835260e282528083205460e19092529091205580611541816131de565b9150506114e5565b50565b611554611e81565b81516115679060d49060208501906125f1565b50805161157b9060d59060208401906125f1565b505050565b60008060005b60dc5481101561173c5760ea54600082815260de60205260409020546001600160a01b039081169116141561165257600081815260de6020526040908190205460cf5491516370a0823160e01b81526001600160a01b0392831660048201529116906370a082319060240160206040518083038186803b15801561160957600080fd5b505afa15801561161d573d6000803e3d6000fd5b505050506040513d601f19601f820116820180604052508101906116419190612ca0565b61164b9083612f78565b915061172a565b600081815260de60205260408082205460ea5460cf5492516370a0823160e01b81526001600160a01b03938416600482015261171a93928316929091169082906370a082319060240160206040518083038186803b1580156116b357600080fd5b505afa1580156116c7573d6000803e3d6000fd5b505050506040513d601f19601f820116820180604052508101906116eb9190612ca0565b600086815260de60209081526040808320546001600160a01b0316835260e390915290205462ffffff16611a64565b90506117268184612f78565b9250505b80611734816131de565b915050611586565b50919050565b61174a611e81565b82828260005b83518110156119cb5783818151811061176b5761176b613239565b602002602001015160dd600083815260200190815260200160002060006101000a8154816001600160a01b0302191690836001600160a01b031602179055508060df60008684815181106117c1576117c1613239565b60200260200101516001600160a01b03166001600160a01b03168152602001908152602001600020819055508281815181106117ff576117ff613239565b602002602001015160e2600086848151811061181d5761181d613239565b60200260200101516001600160a01b03166001600160a01b031681526020019081526020016000208190555081818151811061185b5761185b613239565b602002602001015160e3600086848151811061187957611879613239565b60200260200101516001600160a01b03166001600160a01b0316815260200190815260200160002060006101000a81548162ffffff021916908362ffffff16021790555060dc54600014156119b9578381815181106118da576118da613239565b602002602001015160de600083815260200190815260200160002060006101000a8154816001600160a01b0302191690836001600160a01b0316021790555082818151811061192b5761192b613239565b602002602001015160e1600086848151811061194957611949613239565b60200260200101516001600160a01b03166001600160a01b03168152602001908152602001600020819055508060e0600086848151811061198c5761198c613239565b60200260200101516001600160a01b03166001600160a01b03168152602001908152602001600020819055505b806119c3816131de565b915050611750565b50825160db5560dc546119de57825160dc555b50504260da5550505050565b6119f2611e81565b6001600160a01b038116611a185760405162461bcd60e51b815260040161092f90612e40565b606a80546001600160a01b0319166001600160a01b0392909216919091179055565b611a42611e81565b60e580546001600160a01b0319166001600160a01b0392909216919091179055565b60008215611bad5762ffffff821615611a8a57611a8385858585611bb5565b9050611bad565b6040805160028082526060820183526000926020830190803683370190505090508581600081518110611abf57611abf613239565b60200260200101906001600160a01b031690816001600160a01b0316815250508481600181518110611af357611af3613239565b6001600160a01b03928316602091820292909201015260e85460405163d06ca61f60e01b8152600092919091169063d06ca61f90611b379088908690600401612edb565b60006040518083038186803b158015611b4f57600080fd5b505afa158015611b63573d6000803e3d6000fd5b505050506040513d6000823e601f3d908101601f19168201604052611b8b9190810190612ada565b905080600181518110611ba057611ba0613239565b6020026020010151925050505b949350505050565b60d65460e75460405163bb5705b360e01b81526001600160a01b039182166004820152868216602482015285821660448201526001600160801b038516606482015262ffffff84166084820152600092919091169063bb5705b39060a40160206040518083038186803b158015611c2b57600080fd5b505afa158015611c3f573d6000803e3d6000fd5b505050506040513d601f19601f82011682018060405250810190611c639190612ca0565b95945050505050565b611c74611e81565b60d380546001600160a01b0319166001600160a01b0383169081179091556040517fbdf37c276f641820b141429d245add2552b4118c0866e5a78638e3de5ef18d9d90600090a250565b6001600160a01b038116611ce45760405162461bcd60e51b815260040161092f90612e40565b606a546001600160a01b03828116911614611d5c5760405162461bcd60e51b815260206004820152603260248201527f50726f706f7361626c654f776e61626c653a206e6577206f776e6572206973206044820152713737ba10383937b837b9b2b21037bbb732b960711b606482015260840161092f565b6001600160a01b0381163314611dda5760405162461bcd60e51b815260206004820152603a60248201527f50726f706f7361626c654f776e61626c653a20746869732063616c6c206d757360448201527f74206265206d61646520627920746865206e6577206f776e6572000000000000606482015260840161092f565b61154981611edb565b60008260ff168260ff161115611e1957611dfd838361315a565b611e0890600a612ff3565b611e12908561309f565b905061088f565b611dfd828461315a565b600054610100900460ff16611e4a5760405162461bcd60e51b815260040161092f90612e90565b610d6d611ffa565b600054610100900460ff16611e795760405162461bcd60e51b815260040161092f90612e90565b610d6d61202a565b6038546001600160a01b03163314610d6d5760405162461bcd60e51b815260206004820181905260248201527f4f776e61626c653a2063616c6c6572206973206e6f7420746865206f776e6572604482015260640161092f565b603880546001600160a01b038381166001600160a01b0319831681179093556040519116919082907f8be0079c531659141344cd1fd0a4f28419497f9722a3daafe3b4186f6b6457e090600090a35050565b611f35612675565b611f3d612675565b611c638186868661205d565b6080830151611f58908361209a565b608083015161157b908261209a565b600454600090611f78816001612f78565b600455835160408086015160808701515191516000936320214ca360e11b93611fb09386938493923092918a91600191602401612d9e565b60408051601f198184030181529190526020810180516001600160e01b03166001600160e01b0319909316929092179091529050611ff0868386846120b1565b9695505050505050565b600054610100900460ff166120215760405162461bcd60e51b815260040161092f90612e90565b610d6d33611edb565b600054610100900460ff166120515760405162461bcd60e51b815260040161092f90612e90565b609d805460ff19169055565b612065612675565b612075856080015161010061221e565b50509183526001600160a01b031660208301526001600160e01b031916604082015290565b6120a78260038351612283565b61157b8282612390565b6040516bffffffffffffffffffffffff193060601b1660208201526034810184905260009060540160408051808303601f1901815282825280516020918201206000818152600590925291812080546001600160a01b0319166001600160a01b038a1617905590925082917fb5e6e01e79f91267dc17b4e6314d5d4d03593d2ceee0fbb452b750bd70ea5af99190a2600254604051630200057560e51b81526001600160a01b0390911690634000aea09061217490889087908790600401612e06565b602060405180830381600087803b15801561218e57600080fd5b505af11580156121a2573d6000803e3d6000fd5b505050506040513d601f19601f820116820180604052508101906121c69190612b71565b611bad5760405162461bcd60e51b815260206004820152602360248201527f756e61626c6520746f207472616e73666572416e6443616c6c20746f206f7261604482015262636c6560e81b606482015260840161092f565b60408051808201909152606081526000602082015261223e6020836131f9565b156122665761224e6020836131f9565b612259906020613143565b6122639083612f78565b91505b506020828101829052604080518085526000815290920101905290565b6017816001600160401b0316116122ad576122a78360e0600585901b1683176123b7565b50505050565b60ff816001600160401b0316116122e9576122d3836018611fe0600586901b16176123b7565b506122a7836001600160401b03831660016123dc565b61ffff816001600160401b03161161232657612310836019611fe0600586901b16176123b7565b506122a7836001600160401b03831660026123dc565b63ffffffff816001600160401b0316116123655761234f83601a611fe0600586901b16176123b7565b506122a7836001600160401b03831660046123dc565b61237a83601b611fe0600586901b16176123b7565b506122a7836001600160401b03831660086123dc565b60408051808201909152606081526000602082015261088f83846000015151848551612402565b60408051808201909152606081526000602082015261088f83846000015151846124ec565b604080518082019091526060815260006020820152611bad848560000151518585612548565b604080518082019091526060815260006020820152825182111561242557600080fd5b60208501516124348386612f78565b11156124675761246785612457876020015187866124529190612f78565b6125c9565b612462906002613124565b6125da565b6000808651805187602083010193508088870111156124865787860182525b505050602084015b602084106124c657805182526124a5602083612f78565b91506124b2602082612f78565b90506124bf602085613143565b935061248e565b51815160001960208690036101000a019081169019919091161790525083949350505050565b604080518082019091526060815260006020820152836020015183106125215761252184856020015160026124629190613124565b83518051602085830101848153508085141561253e576001810182525b5093949350505050565b604080518082019091526060815260006020820152602085015161256c8584612f78565b111561258057612580856124578685612f78565b6000600161259084610100612fe7565b61259a9190613143565b90508551838682010185831982511617815250805184870111156125be5783860181525b509495945050505050565b60008183111561173c575081610764565b81516125e6838361221e565b506122a78382612390565b8280546125fd906131a9565b90600052602060002090601f01602090048101928261261f5760008555612665565b82601f1061263857805160ff1916838001178555612665565b82800160010185558215612665579182015b8281111561266557825182559160200191906001019061264a565b506126719291506126b0565b5090565b6040805160a0810182526000808252602080830182905282840182905260608084018390528451808601909552845283015290608082015290565b5b8082111561267157600081556001016126b1565b80356126d081613265565b919050565b600082601f8301126126e657600080fd5b813560206126fb6126f683612f55565b612f25565b80838252828201915082860187848660051b890101111561271b57600080fd5b60005b8581101561274357813561273181613265565b8452928401929084019060010161271e565b5090979650505050505050565b600082601f83011261276157600080fd5b813560206127716126f683612f55565b80838252828201915082860187848660051b890101111561279157600080fd5b60005b85811015612743576127a582612886565b84529284019290840190600101612794565b600082601f8301126127c857600080fd5b813560206127d86126f683612f55565b80838252828201915082860187848660051b89010111156127f857600080fd5b60005b85811015612743578135845292840192908401906001016127fb565b600082601f83011261282857600080fd5b81356001600160401b038111156128415761284161324f565b612854601f8201601f1916602001612f25565b81815284602083860101111561286957600080fd5b816020850160208301376000918101602001919091529392505050565b803562ffffff811681146126d057600080fd5b805169ffffffffffffffffffff811681146126d057600080fd5b6000602082840312156128c557600080fd5b813561088f81613265565b60008060008060008060008060008060006101608c8e0312156128f257600080fd5b8b356128fd81613265565b9a5060208c013561290d81613265565b995060408c013561291d81613265565b985060608c0135975060808c013561293481613265565b965060a08c013561294481613265565b955060c08c013561295481613265565b945060e08c013561296481613265565b93506101008c013561297581613265565b92506101208c013561298681613265565b91506129956101408d016126c5565b90509295989b509295989b9093969950565b600080600080608085870312156129bd57600080fd5b84356129c881613265565b935060208501356129d881613265565b925060408501356001600160801b03811681146129f457600080fd5b9150612a0260608601612886565b905092959194509250565b60008060008060808587031215612a2357600080fd5b8435612a2e81613265565b93506020850135612a3e81613265565b925060408501359150612a0260608601612886565b600080600060608486031215612a6857600080fd5b83356001600160401b0380821115612a7f57600080fd5b612a8b878388016126d5565b94506020860135915080821115612aa157600080fd5b612aad878388016127b7565b93506040860135915080821115612ac357600080fd5b50612ad086828701612750565b9150509250925092565b60006020808385031215612aed57600080fd5b82516001600160401b03811115612b0357600080fd5b8301601f81018513612b1457600080fd5b8051612b226126f682612f55565b80828252848201915084840188868560051b8701011115612b4257600080fd5b600094505b83851015612b65578051835260019490940193918501918501612b47565b50979650505050505050565b600060208284031215612b8357600080fd5b8151801515811461088f57600080fd5b60008060008060808587031215612ba957600080fd5b8435935060208501356001600160401b0380821115612bc757600080fd5b612bd3888389016126d5565b94506040870135915080821115612be957600080fd5b612bf5888389016127b7565b93506060870135915080821115612c0b57600080fd5b50612c1887828801612750565b91505092959194509250565b60008060408385031215612c3757600080fd5b82356001600160401b0380821115612c4e57600080fd5b612c5a86838701612817565b93506020850135915080821115612c7057600080fd5b50612c7d85828601612817565b9150509250929050565b600060208284031215612c9957600080fd5b5035919050565b600060208284031215612cb257600080fd5b5051919050565b600060208284031215612ccb57600080fd5b813561088f8161327a565b600080600080600060a08688031215612cee57600080fd5b612cf786612899565b9450602086015193506040860151925060608601519150612d1a60808701612899565b90509295509295909350565b600060208284031215612d3857600080fd5b815161088f8161327a565b60008151808452612d5b81602086016020860161317d565b601f01601f19169290920160200192915050565b60008351612d8181846020880161317d565b835190830190612d9581836020880161317d565b01949350505050565b6001600160a01b0389811682526020820189905260408201889052861660608201526001600160e01b03198516608082015260a0810184905260c0810183905261010060e08201819052600090612df783820185612d43565b9b9a5050505050505050505050565b60018060a01b0384168152826020820152606060408201526000611c636060830184612d43565b60208152600061088f6020830184612d43565b60208082526030908201527f50726f706f7361626c654f776e61626c653a206e6577206f776e65722069732060408201526f746865207a65726f206164647265737360801b606082015260800190565b6020808252602b908201527f496e697469616c697a61626c653a20636f6e7472616374206973206e6f74206960408201526a6e697469616c697a696e6760a81b606082015260800190565b6000604082018483526020604081850152818551808452606086019150828701935060005b818110156127435784516001600160a01b031683529383019391830191600101612f00565b604051601f8201601f191681016001600160401b0381118282101715612f4d57612f4d61324f565b604052919050565b60006001600160401b03821115612f6e57612f6e61324f565b5060051b60200190565b60008219821115612f8b57612f8b61320d565b500190565b600082612f9f57612f9f613223565b500490565b600181815b80851115612fdf578160001904821115612fc557612fc561320d565b80851615612fd257918102915b93841c9390800290612fa9565b509250929050565b600061088f8383612ffe565b600061088f60ff8416835b60008261300d57506001610764565b8161301a57506000610764565b8160018114613030576002811461303a57613056565b6001915050610764565b60ff84111561304b5761304b61320d565b50506001821b610764565b5060208310610133831016604e8410600b8410161715613079575081810a610764565b6130838383612fa4565b80600019048211156130975761309761320d565b029392505050565b60006001600160ff1b03818413828413808216868404861116156130c5576130c561320d565b600160ff1b60008712828116878305891216156130e4576130e461320d565b600087129250878205871284841616156131005761310061320d565b878505871281841616156131165761311661320d565b505050929093029392505050565b600081600019048311821515161561313e5761313e61320d565b500290565b6000828210156131555761315561320d565b500390565b600060ff821660ff8416808210156131745761317461320d565b90039392505050565b60005b83811015613198578181015183820152602001613180565b838111156122a75750506000910152565b600181811c908216806131bd57607f821691505b6020821081141561173c57634e487b7160e01b600052602260045260246000fd5b60006000198214156131f2576131f261320d565b5060010190565b60008261320857613208613223565b500690565b634e487b7160e01b600052601160045260246000fd5b634e487b7160e01b600052601260045260246000fd5b634e487b7160e01b600052603260045260246000fd5b634e487b7160e01b600052604160045260246000fd5b6001600160a01b038116811461154957600080fd5b60ff8116811461154957600080fdfe68747470733a2f2f6170702e6e65786c6162732e696f2f6170692f616c6c46756e64696e6752617465733f6d756c7469706c7946756e633d31382674696d65734e656746756e643d74727565266172726179733d74727565a2646970667358221220513ca1801fd2f15eb257e89d0bf8ae8dd49facdcedee4ac8e112ba47ee857e9664736f6c63430008070033","linkReferences":{}},"methodIdentifiers":{"concatenation(string,string)":"0e329357","currentList(uint256)":"9932ba4c","estimateAmountOut(address,address,uint128,uint24)":"ee7bd3e2","externalJobId()":"a8b54bd4","factoryAddress()":"966dae0e","factoryBalancerAddress()":"cb4d4e09","factoryV2()":"68e0d4e1","factoryV3()":"1d5f45f5","fee()":"ddca3f43","feeRate()":"978bbdb9","feeReceiver()":"b3f00674","fulfillAssetsData(bytes32,address[],uint256[],uint24[])":"897b8dc5","getAmountOut(address,address,uint256,uint24)":"dd811ac9","getPortfolioBalance()":"a8509fd8","indexToken()":"e7d015f2","initialize(address,address,address,bytes32,address,address,address,address,address,address,address)":"465a4c94","lastUpdateTime()":"c8f33c91","latestFeeUpdate()":"011ced5f","mockFillAssetsList(address[],uint256[],uint24[])":"af2bcb47","oracleList(uint256)":"239aad0d","oraclePayment()":"0c02e130","owner()":"8da5cb5b","paused()":"5c975abb","priceInWei()":"3c8da588","priceOracle()":"2630c12f","proposeOwner(address)":"b5ed298a","proposedOwner()":"d153b60c","quoter()":"c6bbd5a7","renounceOwnership()":"715018a6","requestAssetsData()":"7ca58c55","setFactory(address)":"5bb47808","setFactoryBalancer(address)":"d5fbea63","setFeeRate(uint8)":"5177942a","setFeeReceiver(address)":"efdcd974","setPriceFeed(address)":"724e78da","setPriceOracle(address)":"530e784f","setUrl(string,string)":"a73e1cbf","setVault(address)":"6817031b","swapRouterV2()":"744fbc7a","swapRouterV3()":"b631e80b","toUsdPriceFeed()":"63973fda","tokenCurrentListIndex(address)":"914f0cc6","tokenCurrentMarketShare(address)":"0be52713","tokenOracleListIndex(address)":"8c88c10c","tokenOracleMarketShare(address)":"4b3e0b80","tokenSwapFee(address)":"32599665","totalCurrentList()":"53fd4332","totalOracleList()":"c8599ded","transferOwnership(address)":"f2fde38b","updateCurrentList()":"8baa6bf1","vault()":"fbfa77cf","weth()":"3fc8cef3"},"id":4}