{"abi":[{"type":"receive","stateMutability":"payable"},{"type":"function","name":"concatenation","inputs":[{"name":"a","type":"string","internalType":"string"},{"name":"b","type":"string","internalType":"string"}],"outputs":[{"name":"","type":"string","internalType":"string"}],"stateMutability":"pure"},{"type":"function","name":"currentList","inputs":[{"name":"","type":"uint256","internalType":"uint256"}],"outputs":[{"name":"","type":"address","internalType":"address"}],"stateMutability":"view"},{"type":"function","name":"estimateAmountOut","inputs":[{"name":"tokenIn","type":"address","internalType":"address"},{"name":"tokenOut","type":"address","internalType":"address"},{"name":"amountIn","type":"uint128","internalType":"uint128"},{"name":"swapFee","type":"uint24","internalType":"uint24"}],"outputs":[{"name":"amountOut","type":"uint256","internalType":"uint256"}],"stateMutability":"view"},{"type":"function","name":"externalJobId","inputs":[],"outputs":[{"name":"","type":"bytes32","internalType":"bytes32"}],"stateMutability":"view"},{"type":"function","name":"factoryAddress","inputs":[],"outputs":[{"name":"","type":"address","internalType":"address"}],"stateMutability":"view"},{"type":"function","name":"factoryBalancerAddress","inputs":[],"outputs":[{"name":"","type":"address","internalType":"address"}],"stateMutability":"view"},{"type":"function","name":"factoryV2","inputs":[],"outputs":[{"name":"","type":"address","internalType":"contract IUniswapV2Factory"}],"stateMutability":"view"},{"type":"function","name":"factoryV3","inputs":[],"outputs":[{"name":"","type":"address","internalType":"contract IUniswapV3Factory"}],"stateMutability":"view"},{"type":"function","name":"fee","inputs":[],"outputs":[{"name":"","type":"uint256","internalType":"uint256"}],"stateMutability":"view"},{"type":"function","name":"feeRate","inputs":[],"outputs":[{"name":"","type":"uint8","internalType":"uint8"}],"stateMutability":"view"},{"type":"function","name":"feeReceiver","inputs":[],"outputs":[{"name":"","type":"address","internalType":"address"}],"stateMutability":"view"},{"type":"function","name":"fulfillAssetsData","inputs":[{"name":"requestId","type":"bytes32","internalType":"bytes32"},{"name":"_tokens","type":"address[]","internalType":"address[]"},{"name":"_marketShares","type":"uint256[]","internalType":"uint256[]"},{"name":"_swapFees","type":"uint24[]","internalType":"uint24[]"}],"outputs":[],"stateMutability":"nonpayable"},{"type":"function","name":"getAmountOut","inputs":[{"name":"tokenIn","type":"address","internalType":"address"},{"name":"tokenOut","type":"address","internalType":"address"},{"name":"amountIn","type":"uint256","internalType":"uint256"},{"name":"_swapFee","type":"uint24","internalType":"uint24"}],"outputs":[{"name":"finalAmountOut","type":"uint256","internalType":"uint256"}],"stateMutability":"view"},{"type":"function","name":"getPortfolioBalance","inputs":[],"outputs":[{"name":"","type":"uint256","internalType":"uint256"}],"stateMutability":"view"},{"type":"function","name":"indexToken","inputs":[],"outputs":[{"name":"","type":"address","internalType":"contract IndexToken"}],"stateMutability":"view"},{"type":"function","name":"initialize","inputs":[{"name":"_token","type":"address","internalType":"address payable"},{"name":"_chainlinkToken","type":"address","internalType":"address"},{"name":"_oracleAddress","type":"address","internalType":"address"},{"name":"_externalJobId","type":"bytes32","internalType":"bytes32"},{"name":"_toUsdPriceFeed","type":"address","internalType":"address"},{"name":"_weth","type":"address","internalType":"address"},{"name":"_quoter","type":"address","internalType":"address"},{"name":"_swapRouterV3","type":"address","internalType":"address"},{"name":"_factoryV3","type":"address","internalType":"address"},{"name":"_swapRouterV2","type":"address","internalType":"address"},{"name":"_factoryV2","type":"address","internalType":"address"}],"outputs":[],"stateMutability":"nonpayable"},{"type":"function","name":"lastUpdateTime","inputs":[],"outputs":[{"name":"","type":"uint256","internalType":"uint256"}],"stateMutability":"view"},{"type":"function","name":"latestFeeUpdate","inputs":[],"outputs":[{"name":"","type":"uint256","internalType":"uint256"}],"stateMutability":"view"},{"type":"function","name":"mockFillAssetsList","inputs":[{"name":"_tokens","type":"address[]","internalType":"address[]"},{"name":"_marketShares","type":"uint256[]","internalType":"uint256[]"},{"name":"_swapFees","type":"uint24[]","internalType":"uint24[]"}],"outputs":[],"stateMutability":"nonpayable"},{"type":"function","name":"oracleList","inputs":[{"name":"","type":"uint256","internalType":"uint256"}],"outputs":[{"name":"","type":"address","internalType":"address"}],"stateMutability":"view"},{"type":"function","name":"oraclePayment","inputs":[],"outputs":[{"name":"","type":"uint256","internalType":"uint256"}],"stateMutability":"view"},{"type":"function","name":"owner","inputs":[],"outputs":[{"name":"","type":"address","internalType":"address"}],"stateMutability":"view"},{"type":"function","name":"paused","inputs":[],"outputs":[{"name":"","type":"bool","internalType":"bool"}],"stateMutability":"view"},{"type":"function","name":"priceInWei","inputs":[],"outputs":[{"name":"","type":"uint256","internalType":"uint256"}],"stateMutability":"view"},{"type":"function","name":"priceOracle","inputs":[],"outputs":[{"name":"","type":"address","internalType":"address"}],"stateMutability":"view"},{"type":"function","name":"proposeOwner","inputs":[{"name":"_proposedOwner","type":"address","internalType":"address"}],"outputs":[],"stateMutability":"nonpayable"},{"type":"function","name":"proposedOwner","inputs":[],"outputs":[{"name":"","type":"address","internalType":"address"}],"stateMutability":"view"},{"type":"function","name":"quoter","inputs":[],"outputs":[{"name":"","type":"address","internalType":"contract IQuoter"}],"stateMutability":"view"},{"type":"function","name":"renounceOwnership","inputs":[],"outputs":[],"stateMutability":"nonpayable"},{"type":"function","name":"requestAssetsData","inputs":[],"outputs":[{"name":"","type":"bytes32","internalType":"bytes32"}],"stateMutability":"nonpayable"},{"type":"function","name":"setFactory","inputs":[{"name":"_factoryAddress","type":"address","internalType":"address"}],"outputs":[],"stateMutability":"nonpayable"},{"type":"function","name":"setFactoryBalancer","inputs":[{"name":"_factoryBalancerAddress","type":"address","internalType":"address"}],"outputs":[],"stateMutability":"nonpayable"},{"type":"function","name":"setFeeRate","inputs":[{"name":"_newFee","type":"uint8","internalType":"uint8"}],"outputs":[],"stateMutability":"nonpayable"},{"type":"function","name":"setFeeReceiver","inputs":[{"name":"_feeReceiver","type":"address","internalType":"address"}],"outputs":[],"stateMutability":"nonpayable"},{"type":"function","name":"setPriceFeed","inputs":[{"name":"_toUsdPricefeed","type":"address","internalType":"address"}],"outputs":[],"stateMutability":"nonpayable"},{"type":"function","name":"setPriceOracle","inputs":[{"name":"_priceOracle","type":"address","internalType":"address"}],"outputs":[],"stateMutability":"nonpayable"},{"type":"function","name":"setUrl","inputs":[{"name":"_beforeAddress","type":"string","internalType":"string"},{"name":"_afterAddress","type":"string","internalType":"string"}],"outputs":[],"stateMutability":"nonpayable"},{"type":"function","name":"setVault","inputs":[{"name":"_vaultAddress","type":"address","internalType":"address"}],"outputs":[],"stateMutability":"nonpayable"},{"type":"function","name":"swapRouterV2","inputs":[],"outputs":[{"name":"","type":"address","internalType":"contract IUniswapV2Router02"}],"stateMutability":"view"},{"type":"function","name":"swapRouterV3","inputs":[],"outputs":[{"name":"","type":"address","internalType":"contract ISwapRouter"}],"stateMutability":"view"},{"type":"function","name":"toUsdPriceFeed","inputs":[],"outputs":[{"name":"","type":"address","internalType":"contract AggregatorV3Interface"}],"stateMutability":"view"},{"type":"function","name":"tokenCurrentListIndex","inputs":[{"name":"","type":"address","internalType":"address"}],"outputs":[{"name":"","type":"uint256","internalType":"uint256"}],"stateMutability":"view"},{"type":"function","name":"tokenCurrentMarketShare","inputs":[{"name":"","type":"address","internalType":"address"}],"outputs":[{"name":"","type":"uint256","internalType":"uint256"}],"stateMutability":"view"},{"type":"function","name":"tokenOracleListIndex","inputs":[{"name":"","type":"address","internalType":"address"}],"outputs":[{"name":"","type":"uint256","internalType":"uint256"}],"stateMutability":"view"},{"type":"function","name":"tokenOracleMarketShare","inputs":[{"name":"","type":"address","internalType":"address"}],"outputs":[{"name":"","type":"uint256","internalType":"uint256"}],"stateMutability":"view"},{"type":"function","name":"tokenSwapFee","inputs":[{"name":"","type":"address","internalType":"address"}],"outputs":[{"name":"","type":"uint24","internalType":"uint24"}],"stateMutability":"view"},{"type":"function","name":"totalCurrentList","inputs":[],"outputs":[{"name":"","type":"uint256","internalType":"uint256"}],"stateMutability":"view"},{"type":"function","name":"totalOracleList","inputs":[],"outputs":[{"name":"","type":"uint256","internalType":"uint256"}],"stateMutability":"view"},{"type":"function","name":"transferOwnership","inputs":[{"name":"newOwner","type":"address","internalType":"address"}],"outputs":[],"stateMutability":"nonpayable"},{"type":"function","name":"updateCurrentList","inputs":[],"outputs":[],"stateMutability":"nonpayable"},{"type":"function","name":"vault","inputs":[],"outputs":[{"name":"","type":"address","internalType":"contract Vault"}],"stateMutability":"view"},{"type":"function","name":"weth","inputs":[],"outputs":[{"name":"","type":"address","internalType":"contract IWETH"}],"stateMutability":"view"},{"type":"event","name":"ChainlinkCancelled","inputs":[{"name":"id","type":"bytes32","indexed":true,"internalType":"bytes32"}],"anonymous":false},{"type":"event","name":"ChainlinkFulfilled","inputs":[{"name":"id","type":"bytes32","indexed":true,"internalType":"bytes32"}],"anonymous":false},{"type":"event","name":"ChainlinkRequested","inputs":[{"name":"id","type":"bytes32","indexed":true,"internalType":"bytes32"}],"anonymous":false},{"type":"event","name":"FeeReceiverSet","inputs":[{"name":"feeReceiver","type":"address","indexed":true,"internalType":"address"}],"anonymous":false},{"type":"event","name":"Initialized","inputs":[{"name":"version","type":"uint8","indexed":false,"internalType":"uint8"}],"anonymous":false},{"type":"event","name":"OwnershipTransferred","inputs":[{"name":"previousOwner","type":"address","indexed":true,"internalType":"address"},{"name":"newOwner","type":"address","indexed":true,"internalType":"address"}],"anonymous":false},{"type":"event","name":"Paused","inputs":[{"name":"account","type":"address","indexed":false,"internalType":"address"}],"anonymous":false},{"type":"event","name":"Unpaused","inputs":[{"name":"account","type":"address","indexed":false,"internalType":"address"}],"anonymous":false}],"bytecode":{"object":"0x608060405234801561001057600080fd5b50613547806100206000396000f3fe6080604052600436106103035760003560e01c80638c88c10c11610190578063c6bbd5a7116100dc578063dd811ac911610095578063ee7bd3e21161006f578063ee7bd3e21461095f578063efdcd9741461097f578063f2fde38b1461099f578063fbfa77cf146109bf57600080fd5b8063dd811ac914610909578063ddca3f4314610929578063e7d015f21461093f57600080fd5b8063c6bbd5a71461085d578063c8599ded1461087d578063c8f33c9114610893578063cb4d4e09146108a9578063d153b60c146108c9578063d5fbea63146108e957600080fd5b8063a73e1cbf11610149578063af2bcb4711610123578063af2bcb47146107dd578063b3f00674146107fd578063b5ed298a1461081d578063b631e80b1461083d57600080fd5b8063a73e1cbf14610792578063a8509fd8146107b2578063a8b54bd4146107c757600080fd5b80638c88c10c146106985780638da5cb5b146106c5578063914f0cc6146106e3578063966dae0e14610710578063978bbdb9146107305780639932ba4c1461075c57600080fd5b8063530e784f1161024f57806368e0d4e111610208578063744fbc7a116101e2578063744fbc7a1461062e5780637ca58c551461064e578063897b8dc5146106635780638baa6bf11461068357600080fd5b806368e0d4e1146105d9578063715018a6146105f9578063724e78da1461060e57600080fd5b8063530e784f1461052057806353fd4332146105405780635bb47808146105565780635c975abb1461057657806363973fda146105995780636817031b146105b957600080fd5b80632630c12f116102bc5780633fc8cef3116102965780633fc8cef314610491578063465a4c94146104b15780634b3e0b80146104d35780635177942a1461050057600080fd5b80632630c12f1461041657806332599665146104365780633c8da5881461047c57600080fd5b8063011ced5f1461030f5780630be52713146103385780630c02e130146103655780630e3293571461037b5780631d5f45f5146103a8578063239aad0d146103e057600080fd5b3661030a57005b600080fd5b34801561031b57600080fd5b5061032560d25481565b6040519081526020015b60405180910390f35b34801561034457600080fd5b50610325610353366004612ae3565b60e16020526000908152604090205481565b34801561037157600080fd5b5061032560d85481565b34801561038757600080fd5b5061039b610396366004612e54565b6109df565b60405161032f919061305d565b3480156103b457600080fd5b5060e7546103c8906001600160a01b031681565b6040516001600160a01b03909116815260200161032f565b3480156103ec57600080fd5b506103c86103fb366004612eb7565b60dd602052600090815260409020546001600160a01b031681565b34801561042257600080fd5b5060d6546103c8906001600160a01b031681565b34801561044257600080fd5b50610468610451366004612ae3565b60e36020526000908152604090205462ffffff1681565b60405162ffffff909116815260200161032f565b34801561048857600080fd5b50610325610a0c565b34801561049d57600080fd5b5060ea546103c8906001600160a01b031681565b3480156104bd57600080fd5b506104d16104cc366004612b00565b610b38565b005b3480156104df57600080fd5b506103256104ee366004612ae3565b60e26020526000908152604090205481565b34801561050c57600080fd5b506104d161051b366004612ee9565b610dd5565b34801561052c57600080fd5b506104d161053b366004612ae3565b610f15565b34801561054c57600080fd5b5061032560dc5481565b34801561056257600080fd5b506104d1610571366004612ae3565b610fa9565b34801561058257600080fd5b50609d5460ff16604051901515815260200161032f565b3480156105a557600080fd5b5060d9546103c8906001600160a01b031681565b3480156105c557600080fd5b506104d16105d4366004612ae3565b610fd3565b3480156105e557600080fd5b5060e9546103c8906001600160a01b031681565b34801561060557600080fd5b506104d1610ffd565b34801561061a57600080fd5b506104d1610629366004612ae3565b611011565b34801561063a57600080fd5b5060e8546103c8906001600160a01b031681565b34801561065a57600080fd5b506103256110a8565b34801561066f57600080fd5b506104d161067e366004612dc3565b61133f565b34801561068f57600080fd5b506104d161169d565b3480156106a457600080fd5b506103256106b3366004612ae3565b60df6020526000908152604090205481565b3480156106d157600080fd5b506038546001600160a01b03166103c8565b3480156106ef57600080fd5b506103256106fe366004612ae3565b60e06020526000908152604090205481565b34801561071c57600080fd5b5060e4546103c8906001600160a01b031681565b34801561073c57600080fd5b5060d15461074a9060ff1681565b60405160ff909116815260200161032f565b34801561076857600080fd5b506103c8610777366004612eb7565b60de602052600090815260409020546001600160a01b031681565b34801561079e57600080fd5b506104d16107ad366004612e54565b61177c565b3480156107be57600080fd5b506103256117b0565b3480156107d357600080fd5b5061032560d75481565b3480156107e957600080fd5b506104d16107f8366004612c83565b611972565b34801561080957600080fd5b5060d3546103c8906001600160a01b031681565b34801561082957600080fd5b506104d1610838366004612ae3565b611c1a565b34801561084957600080fd5b5060e6546103c8906001600160a01b031681565b34801561086957600080fd5b5060eb546103c8906001600160a01b031681565b34801561088957600080fd5b5061032560db5481565b34801561089f57600080fd5b5061032560da5481565b3480156108b557600080fd5b5060e5546103c8906001600160a01b031681565b3480156108d557600080fd5b50606a546103c8906001600160a01b031681565b3480156108f557600080fd5b506104d1610904366004612ae3565b611c6a565b34801561091557600080fd5b50610325610924366004612c3d565b611c94565b34801561093557600080fd5b5061032560d05481565b34801561094b57600080fd5b5060cf546103c8906001600160a01b031681565b34801561096b57600080fd5b5061032561097a366004612bd7565b611de5565b34801561098b57600080fd5b506104d161099a366004612ae3565b611e9c565b3480156109ab57600080fd5b506104d16109ba366004612ae3565b611eee565b3480156109cb57600080fd5b5060ec546103c8906001600160a01b031681565b606082826040516020016109f4929190612f9f565b60405160208183030381529060405290505b92915050565b60008060d960009054906101000a90046001600160a01b03166001600160a01b031663feaf968c6040518163ffffffff1660e01b815260040160a06040518083038186803b158015610a5d57600080fd5b505afa158015610a71573d6000803e3d6000fd5b505050506040513d601f19601f82011682018060405250810190610a959190612f06565b505050915050600060d960009054906101000a90046001600160a01b03166001600160a01b031663313ce5676040518163ffffffff1660e01b815260040160206040518083038186803b158015610aeb57600080fd5b505afa158015610aff573d6000803e3d6000fd5b505050506040513d601f19601f82011682018060405250810190610b239190612f56565b9050610b3182826012612013565b9392505050565b600054610100900460ff1615808015610b585750600054600160ff909116105b80610b725750303b158015610b72575060005460ff166001145b610bda5760405162461bcd60e51b815260206004820152602e60248201527f496e697469616c697a61626c653a20636f6e747261637420697320616c72656160448201526d191e481a5b9a5d1a585b1a5e995960921b60648201526084015b60405180910390fd5b6000805460ff191660011790558015610bfd576000805461ff0019166101001790555b610c05612053565b610c0d612082565b60cf80546001600160a01b038e166001600160a01b0319909116179055610c518b600280546001600160a01b039092166001600160a01b0319909216919091179055565b600380546001600160a01b0319166001600160a01b038c1617905560d7899055600a610c86670de0b6b3a76400006001613354565b610c9091906131c0565b60d85560d980546001600160a01b03199081166001600160a01b038b81169190911790925560ea805482168a841617905560eb8054821689841617905560e68054821688841617905560e78054821687841617905560e88054821686841617905560e9805490911691841691909117905560d18054600a60ff199091161790554260d2556040805160608101909152602a8082526134ba60208301398051610d409160d491602090910190612821565b506040518060600160405280602e81526020016134e4602e91398051610d6e9160d591602090910190612821565b5060d380546001600160a01b031916331790558015610dc7576000805461ff0019169055604051600181527f7f26b83ff96e1f2b6a682f133852f6798a09c465da95921460cefb38474024989060200160405180910390a15b505050505050505050505050565b610ddd6120b1565b600060d25442610ded9190613373565b9050600c603c610dfd81846131c0565b610e0791906131c0565b11610e7a5760405162461bcd60e51b815260206004820152603960248201527f596f752073686f756c642077616974206174206c6561737420313220686f757260448201527f7320616674657220746865206c617465737420757064617465000000000000006064820152608401610bd1565b60648260ff1611158015610e92575060018260ff1610155b610efa5760405162461bcd60e51b815260206004820152603360248201527f546865206e65774665652073686f756c64206265206265747765656e203120616044820152726e64203130302028302e303125202d2031252960681b6064820152608401610bd1565b5060d1805460ff191660ff929092169190911790554260d255565b610f1d6120b1565b6001600160a01b038116610f875760405162461bcd60e51b815260206004820152602b60248201527f5072696365206f7261636c6520616464726573732063616e6e6f74206265207a60448201526a65726f206164647265737360a81b6064820152608401610bd1565b60d680546001600160a01b0319166001600160a01b0392909216919091179055565b610fb16120b1565b60e480546001600160a01b0319166001600160a01b0392909216919091179055565b610fdb6120b1565b60ec80546001600160a01b0319166001600160a01b0392909216919091179055565b6110056120b1565b61100f600061210b565b565b6110196120b1565b6001600160a01b0381166110865760405162461bcd60e51b815260206004820152602e60248201527f49434f3a205072696365206665656420616464726573732063616e6e6f74206260448201526d65207a65726f206164647265737360901b6064820152608401610bd1565b60d980546001600160a01b0319166001600160a01b0392909216919091179055565b6000806111c960d480546110bb906133d9565b80601f01602080910402602001604051908101604052809291908181526020018280546110e7906133d9565b80156111345780601f1061110957610100808354040283529160200191611134565b820191906000526020600020905b81548152906001019060200180831161111757829003601f168201915b505050505060d58054611146906133d9565b80601f0160208091040260200160405190810160405280929190818152602001828054611172906133d9565b80156111bf5780601f10611194576101008083540402835291602001916111bf565b820191906000526020600020905b8154815290600101906020018083116111a257829003601f168201915b50505050506109df565b905060006111e160d7543063897b8dc560e01b61215d565b60408051808201909152600381526219d95d60ea1b602082015290915061120a90829084612179565b61126260405180604001604052806005815260200164706174683160d81b8152506040518060400160405280600e81526020016d726573756c74732c746f6b656e7360901b815250836121799092919063ffffffff16565b6112c0604051806040016040528060058152602001643830ba341960d91b81525060405180604001604052806014815260200173726573756c74732c6d61726b657453686172657360601b815250836121799092919063ffffffff16565b61131a60405180604001604052806005815260200164706174683360d81b8152506040518060400160405280601081526020016f726573756c74732c737761704665657360801b815250836121799092919063ffffffff16565b61133861132f6003546001600160a01b031690565b8260d854612197565b9250505090565b60008481526005602052604090205484906001600160a01b031633146113b85760405162461bcd60e51b815260206004820152602860248201527f536f75726365206d75737420626520746865206f7261636c65206f6620746865604482015267081c995c5d595cdd60c21b6064820152608401610bd1565b60008181526005602052604080822080546001600160a01b03191690555182917f7cc135e0cebb02c3480ae5d74d377283180a2601f8f644edf7987b009316c63a91a283838360005b835181101561167c5783818151811061141c5761141c613469565b602002602001015160dd600083815260200190815260200160002060006101000a8154816001600160a01b0302191690836001600160a01b031602179055508060df600086848151811061147257611472613469565b60200260200101516001600160a01b03166001600160a01b03168152602001908152602001600020819055508281815181106114b0576114b0613469565b602002602001015160e260008684815181106114ce576114ce613469565b60200260200101516001600160a01b03166001600160a01b031681526020019081526020016000208190555081818151811061150c5761150c613469565b602002602001015160e3600086848151811061152a5761152a613469565b60200260200101516001600160a01b03166001600160a01b0316815260200190815260200160002060006101000a81548162ffffff021916908362ffffff16021790555060dc546000141561166a5783818151811061158b5761158b613469565b602002602001015160de600083815260200190815260200160002060006101000a8154816001600160a01b0302191690836001600160a01b031602179055508281815181106115dc576115dc613469565b602002602001015160e160008684815181106115fa576115fa613469565b60200260200101516001600160a01b03166001600160a01b03168152602001908152602001600020819055508060e0600086848151811061163d5761163d613469565b60200260200101516001600160a01b03166001600160a01b03168152602001908152602001600020819055505b806116748161340e565b915050611401565b50825160db5560dc5461168f57825160dc555b50504260da55505050505050565b60e4546001600160a01b03163314806116c0575060e5546001600160a01b031633145b61170c5760405162461bcd60e51b815260206004820181905260248201527f43616c6c6572206973206e6f74206120666163746f727920636f6e74726163746044820152606401610bd1565b60db5460dc5560005b60db5481101561177957600081815260dd602090815260408083205460de835281842080546001600160a01b0319166001600160a01b039092169182179055835260e282528083205460e190925290912055806117718161340e565b915050611715565b50565b6117846120b1565b81516117979060d4906020850190612821565b5080516117ab9060d5906020840190612821565b505050565b60008060005b60dc5481101561196c5760ea54600082815260de60205260409020546001600160a01b039081169116141561188257600081815260de6020526040908190205460cf5491516370a0823160e01b81526001600160a01b0392831660048201529116906370a082319060240160206040518083038186803b15801561183957600080fd5b505afa15801561184d573d6000803e3d6000fd5b505050506040513d601f19601f820116820180604052508101906118719190612ed0565b61187b90836131a8565b915061195a565b600081815260de60205260408082205460ea5460cf5492516370a0823160e01b81526001600160a01b03938416600482015261194a93928316929091169082906370a082319060240160206040518083038186803b1580156118e357600080fd5b505afa1580156118f7573d6000803e3d6000fd5b505050506040513d601f19601f8201168201806040525081019061191b9190612ed0565b600086815260de60209081526040808320546001600160a01b0316835260e390915290205462ffffff16611c94565b905061195681846131a8565b9250505b806119648161340e565b9150506117b6565b50919050565b61197a6120b1565b82828260005b8351811015611bfb5783818151811061199b5761199b613469565b602002602001015160dd600083815260200190815260200160002060006101000a8154816001600160a01b0302191690836001600160a01b031602179055508060df60008684815181106119f1576119f1613469565b60200260200101516001600160a01b03166001600160a01b0316815260200190815260200160002081905550828181518110611a2f57611a2f613469565b602002602001015160e26000868481518110611a4d57611a4d613469565b60200260200101516001600160a01b03166001600160a01b0316815260200190815260200160002081905550818181518110611a8b57611a8b613469565b602002602001015160e36000868481518110611aa957611aa9613469565b60200260200101516001600160a01b03166001600160a01b0316815260200190815260200160002060006101000a81548162ffffff021916908362ffffff16021790555060dc5460001415611be957838181518110611b0a57611b0a613469565b602002602001015160de600083815260200190815260200160002060006101000a8154816001600160a01b0302191690836001600160a01b03160217905550828181518110611b5b57611b5b613469565b602002602001015160e16000868481518110611b7957611b79613469565b60200260200101516001600160a01b03166001600160a01b03168152602001908152602001600020819055508060e06000868481518110611bbc57611bbc613469565b60200260200101516001600160a01b03166001600160a01b03168152602001908152602001600020819055505b80611bf38161340e565b915050611980565b50825160db5560dc54611c0e57825160dc555b50504260da5550505050565b611c226120b1565b6001600160a01b038116611c485760405162461bcd60e51b8152600401610bd190613070565b606a80546001600160a01b0319166001600160a01b0392909216919091179055565b611c726120b1565b60e580546001600160a01b0319166001600160a01b0392909216919091179055565b60008215611ddd5762ffffff821615611cba57611cb385858585611de5565b9050611ddd565b6040805160028082526060820183526000926020830190803683370190505090508581600081518110611cef57611cef613469565b60200260200101906001600160a01b031690816001600160a01b0316815250508481600181518110611d2357611d23613469565b6001600160a01b03928316602091820292909201015260e85460405163d06ca61f60e01b8152600092919091169063d06ca61f90611d67908890869060040161310b565b60006040518083038186803b158015611d7f57600080fd5b505afa158015611d93573d6000803e3d6000fd5b505050506040513d6000823e601f3d908101601f19168201604052611dbb9190810190612d0a565b905080600181518110611dd057611dd0613469565b6020026020010151925050505b949350505050565b60d65460e75460405163bb5705b360e01b81526001600160a01b039182166004820152868216602482015285821660448201526001600160801b038516606482015262ffffff84166084820152600092919091169063bb5705b39060a40160206040518083038186803b158015611e5b57600080fd5b505afa158015611e6f573d6000803e3d6000fd5b505050506040513d601f19601f82011682018060405250810190611e939190612ed0565b95945050505050565b611ea46120b1565b60d380546001600160a01b0319166001600160a01b0383169081179091556040517fbdf37c276f641820b141429d245add2552b4118c0866e5a78638e3de5ef18d9d90600090a250565b6001600160a01b038116611f145760405162461bcd60e51b8152600401610bd190613070565b606a546001600160a01b03828116911614611f8c5760405162461bcd60e51b815260206004820152603260248201527f50726f706f7361626c654f776e61626c653a206e6577206f776e6572206973206044820152713737ba10383937b837b9b2b21037bbb732b960711b6064820152608401610bd1565b6001600160a01b038116331461200a5760405162461bcd60e51b815260206004820152603a60248201527f50726f706f7361626c654f776e61626c653a20746869732063616c6c206d757360448201527f74206265206d61646520627920746865206e6577206f776e65720000000000006064820152608401610bd1565b6117798161210b565b60008260ff168260ff1611156120495761202d838361338a565b61203890600a613223565b61204290856132cf565b9050610b31565b61202d828461338a565b600054610100900460ff1661207a5760405162461bcd60e51b8152600401610bd1906130c0565b61100f61222a565b600054610100900460ff166120a95760405162461bcd60e51b8152600401610bd1906130c0565b61100f61225a565b6038546001600160a01b0316331461100f5760405162461bcd60e51b815260206004820181905260248201527f4f776e61626c653a2063616c6c6572206973206e6f7420746865206f776e65726044820152606401610bd1565b603880546001600160a01b038381166001600160a01b0319831681179093556040519116919082907f8be0079c531659141344cd1fd0a4f28419497f9722a3daafe3b4186f6b6457e090600090a35050565b6121656128a5565b61216d6128a5565b611e938186868661228d565b608083015161218890836122ca565b60808301516117ab90826122ca565b6004546000906121a88160016131a8565b600455835160408086015160808701515191516000936320214ca360e11b936121e09386938493923092918a91600191602401612fce565b60408051601f198184030181529190526020810180516001600160e01b03166001600160e01b0319909316929092179091529050612220868386846122e1565b9695505050505050565b600054610100900460ff166122515760405162461bcd60e51b8152600401610bd1906130c0565b61100f3361210b565b600054610100900460ff166122815760405162461bcd60e51b8152600401610bd1906130c0565b609d805460ff19169055565b6122956128a5565b6122a5856080015161010061244e565b50509183526001600160a01b031660208301526001600160e01b031916604082015290565b6122d782600383516124b3565b6117ab82826125c0565b6040516bffffffffffffffffffffffff193060601b1660208201526034810184905260009060540160408051808303601f1901815282825280516020918201206000818152600590925291812080546001600160a01b0319166001600160a01b038a1617905590925082917fb5e6e01e79f91267dc17b4e6314d5d4d03593d2ceee0fbb452b750bd70ea5af99190a2600254604051630200057560e51b81526001600160a01b0390911690634000aea0906123a490889087908790600401613036565b602060405180830381600087803b1580156123be57600080fd5b505af11580156123d2573d6000803e3d6000fd5b505050506040513d601f19601f820116820180604052508101906123f69190612da1565b611ddd5760405162461bcd60e51b815260206004820152602360248201527f756e61626c6520746f207472616e73666572416e6443616c6c20746f206f7261604482015262636c6560e81b6064820152608401610bd1565b60408051808201909152606081526000602082015261246e602083613429565b156124965761247e602083613429565b612489906020613373565b61249390836131a8565b91505b506020828101829052604080518085526000815290920101905290565b6017816001600160401b0316116124dd576124d78360e0600585901b1683176125e7565b50505050565b60ff816001600160401b03161161251957612503836018611fe0600586901b16176125e7565b506124d7836001600160401b038316600161260c565b61ffff816001600160401b03161161255657612540836019611fe0600586901b16176125e7565b506124d7836001600160401b038316600261260c565b63ffffffff816001600160401b0316116125955761257f83601a611fe0600586901b16176125e7565b506124d7836001600160401b038316600461260c565b6125aa83601b611fe0600586901b16176125e7565b506124d7836001600160401b038316600861260c565b604080518082019091526060815260006020820152610b3183846000015151848551612632565b604080518082019091526060815260006020820152610b31838460000151518461271c565b604080518082019091526060815260006020820152611ddd848560000151518585612778565b604080518082019091526060815260006020820152825182111561265557600080fd5b602085015161266483866131a8565b111561269757612697856126878760200151878661268291906131a8565b6127f9565b612692906002613354565b61280a565b6000808651805187602083010193508088870111156126b65787860182525b505050602084015b602084106126f657805182526126d56020836131a8565b91506126e26020826131a8565b90506126ef602085613373565b93506126be565b51815160001960208690036101000a019081169019919091161790525083949350505050565b604080518082019091526060815260006020820152836020015183106127515761275184856020015160026126929190613354565b83518051602085830101848153508085141561276e576001810182525b5093949350505050565b604080518082019091526060815260006020820152602085015161279c85846131a8565b11156127b0576127b08561268786856131a8565b600060016127c084610100613217565b6127ca9190613373565b90508551838682010185831982511617815250805184870111156127ee5783860181525b509495945050505050565b60008183111561196c575081610a06565b8151612816838361244e565b506124d783826125c0565b82805461282d906133d9565b90600052602060002090601f01602090048101928261284f5760008555612895565b82601f1061286857805160ff1916838001178555612895565b82800160010185558215612895579182015b8281111561289557825182559160200191906001019061287a565b506128a19291506128e0565b5090565b6040805160a0810182526000808252602080830182905282840182905260608084018390528451808601909552845283015290608082015290565b5b808211156128a157600081556001016128e1565b803561290081613495565b919050565b600082601f83011261291657600080fd5b8135602061292b61292683613185565b613155565b80838252828201915082860187848660051b890101111561294b57600080fd5b60005b8581101561297357813561296181613495565b8452928401929084019060010161294e565b5090979650505050505050565b600082601f83011261299157600080fd5b813560206129a161292683613185565b80838252828201915082860187848660051b89010111156129c157600080fd5b60005b85811015612973576129d582612ab6565b845292840192908401906001016129c4565b600082601f8301126129f857600080fd5b81356020612a0861292683613185565b80838252828201915082860187848660051b8901011115612a2857600080fd5b60005b8581101561297357813584529284019290840190600101612a2b565b600082601f830112612a5857600080fd5b81356001600160401b03811115612a7157612a7161347f565b612a84601f8201601f1916602001613155565b818152846020838601011115612a9957600080fd5b816020850160208301376000918101602001919091529392505050565b803562ffffff8116811461290057600080fd5b805169ffffffffffffffffffff8116811461290057600080fd5b600060208284031215612af557600080fd5b8135610b3181613495565b60008060008060008060008060008060006101608c8e031215612b2257600080fd5b8b35612b2d81613495565b9a5060208c0135612b3d81613495565b995060408c0135612b4d81613495565b985060608c0135975060808c0135612b6481613495565b965060a08c0135612b7481613495565b955060c08c0135612b8481613495565b945060e08c0135612b9481613495565b93506101008c0135612ba581613495565b92506101208c0135612bb681613495565b9150612bc56101408d016128f5565b90509295989b509295989b9093969950565b60008060008060808587031215612bed57600080fd5b8435612bf881613495565b93506020850135612c0881613495565b925060408501356001600160801b0381168114612c2457600080fd5b9150612c3260608601612ab6565b905092959194509250565b60008060008060808587031215612c5357600080fd5b8435612c5e81613495565b93506020850135612c6e81613495565b925060408501359150612c3260608601612ab6565b600080600060608486031215612c9857600080fd5b83356001600160401b0380821115612caf57600080fd5b612cbb87838801612905565b94506020860135915080821115612cd157600080fd5b612cdd878388016129e7565b93506040860135915080821115612cf357600080fd5b50612d0086828701612980565b9150509250925092565b60006020808385031215612d1d57600080fd5b82516001600160401b03811115612d3357600080fd5b8301601f81018513612d4457600080fd5b8051612d5261292682613185565b80828252848201915084840188868560051b8701011115612d7257600080fd5b600094505b83851015612d95578051835260019490940193918501918501612d77565b50979650505050505050565b600060208284031215612db357600080fd5b81518015158114610b3157600080fd5b60008060008060808587031215612dd957600080fd5b8435935060208501356001600160401b0380821115612df757600080fd5b612e0388838901612905565b94506040870135915080821115612e1957600080fd5b612e25888389016129e7565b93506060870135915080821115612e3b57600080fd5b50612e4887828801612980565b91505092959194509250565b60008060408385031215612e6757600080fd5b82356001600160401b0380821115612e7e57600080fd5b612e8a86838701612a47565b93506020850135915080821115612ea057600080fd5b50612ead85828601612a47565b9150509250929050565b600060208284031215612ec957600080fd5b5035919050565b600060208284031215612ee257600080fd5b5051919050565b600060208284031215612efb57600080fd5b8135610b31816134aa565b600080600080600060a08688031215612f1e57600080fd5b612f2786612ac9565b9450602086015193506040860151925060608601519150612f4a60808701612ac9565b90509295509295909350565b600060208284031215612f6857600080fd5b8151610b31816134aa565b60008151808452612f8b8160208601602086016133ad565b601f01601f19169290920160200192915050565b60008351612fb18184602088016133ad565b835190830190612fc58183602088016133ad565b01949350505050565b6001600160a01b0389811682526020820189905260408201889052861660608201526001600160e01b03198516608082015260a0810184905260c0810183905261010060e0820181905260009061302783820185612f73565b9b9a5050505050505050505050565b60018060a01b0384168152826020820152606060408201526000611e936060830184612f73565b602081526000610b316020830184612f73565b60208082526030908201527f50726f706f7361626c654f776e61626c653a206e6577206f776e65722069732060408201526f746865207a65726f206164647265737360801b606082015260800190565b6020808252602b908201527f496e697469616c697a61626c653a20636f6e7472616374206973206e6f74206960408201526a6e697469616c697a696e6760a81b606082015260800190565b6000604082018483526020604081850152818551808452606086019150828701935060005b818110156129735784516001600160a01b031683529383019391830191600101613130565b604051601f8201601f191681016001600160401b038111828210171561317d5761317d61347f565b604052919050565b60006001600160401b0382111561319e5761319e61347f565b5060051b60200190565b600082198211156131bb576131bb61343d565b500190565b6000826131cf576131cf613453565b500490565b600181815b8085111561320f5781600019048211156131f5576131f561343d565b8085161561320257918102915b93841c93908002906131d9565b509250929050565b6000610b31838361322e565b6000610b3160ff8416835b60008261323d57506001610a06565b8161324a57506000610a06565b8160018114613260576002811461326a57613286565b6001915050610a06565b60ff84111561327b5761327b61343d565b50506001821b610a06565b5060208310610133831016604e8410600b84101617156132a9575081810a610a06565b6132b383836131d4565b80600019048211156132c7576132c761343d565b029392505050565b60006001600160ff1b03818413828413808216868404861116156132f5576132f561343d565b600160ff1b60008712828116878305891216156133145761331461343d565b600087129250878205871284841616156133305761333061343d565b878505871281841616156133465761334661343d565b505050929093029392505050565b600081600019048311821515161561336e5761336e61343d565b500290565b6000828210156133855761338561343d565b500390565b600060ff821660ff8416808210156133a4576133a461343d565b90039392505050565b60005b838110156133c85781810151838201526020016133b0565b838111156124d75750506000910152565b600181811c908216806133ed57607f821691505b6020821081141561196c57634e487b7160e01b600052602260045260246000fd5b60006000198214156134225761342261343d565b5060010190565b60008261343857613438613453565b500690565b634e487b7160e01b600052601160045260246000fd5b634e487b7160e01b600052601260045260246000fd5b634e487b7160e01b600052603260045260246000fd5b634e487b7160e01b600052604160045260246000fd5b6001600160a01b038116811461177957600080fd5b60ff8116811461177957600080fdfe68747470733a2f2f6170702e6e65786c6162732e696f2f6170692f616c6c46756e64696e6752617465733f6d756c7469706c7946756e633d31382674696d65734e656746756e643d74727565266172726179733d74727565a264697066735822122070e66bd7191aa19accf370299b5968ea9b3856f439dcac738ac25e5f5e02353364736f6c63430008070033","linkReferences":{}},"methodIdentifiers":{"concatenation(string,string)":"0e329357","currentList(uint256)":"9932ba4c","estimateAmountOut(address,address,uint128,uint24)":"ee7bd3e2","externalJobId()":"a8b54bd4","factoryAddress()":"966dae0e","factoryBalancerAddress()":"cb4d4e09","factoryV2()":"68e0d4e1","factoryV3()":"1d5f45f5","fee()":"ddca3f43","feeRate()":"978bbdb9","feeReceiver()":"b3f00674","fulfillAssetsData(bytes32,address[],uint256[],uint24[])":"897b8dc5","getAmountOut(address,address,uint256,uint24)":"dd811ac9","getPortfolioBalance()":"a8509fd8","indexToken()":"e7d015f2","initialize(address,address,address,bytes32,address,address,address,address,address,address,address)":"465a4c94","lastUpdateTime()":"c8f33c91","latestFeeUpdate()":"011ced5f","mockFillAssetsList(address[],uint256[],uint24[])":"af2bcb47","oracleList(uint256)":"239aad0d","oraclePayment()":"0c02e130","owner()":"8da5cb5b","paused()":"5c975abb","priceInWei()":"3c8da588","priceOracle()":"2630c12f","proposeOwner(address)":"b5ed298a","proposedOwner()":"d153b60c","quoter()":"c6bbd5a7","renounceOwnership()":"715018a6","requestAssetsData()":"7ca58c55","setFactory(address)":"5bb47808","setFactoryBalancer(address)":"d5fbea63","setFeeRate(uint8)":"5177942a","setFeeReceiver(address)":"efdcd974","setPriceFeed(address)":"724e78da","setPriceOracle(address)":"530e784f","setUrl(string,string)":"a73e1cbf","setVault(address)":"6817031b","swapRouterV2()":"744fbc7a","swapRouterV3()":"b631e80b","toUsdPriceFeed()":"63973fda","tokenCurrentListIndex(address)":"914f0cc6","tokenCurrentMarketShare(address)":"0be52713","tokenOracleListIndex(address)":"8c88c10c","tokenOracleMarketShare(address)":"4b3e0b80","tokenSwapFee(address)":"32599665","totalCurrentList()":"53fd4332","totalOracleList()":"c8599ded","transferOwnership(address)":"f2fde38b","updateCurrentList()":"8baa6bf1","vault()":"fbfa77cf","weth()":"3fc8cef3"},"id":4}