{"abi":[{"type":"function","name":"concatenation","inputs":[{"name":"a","type":"string","internalType":"string"},{"name":"b","type":"string","internalType":"string"}],"outputs":[{"name":"","type":"string","internalType":"string"}],"stateMutability":"pure"},{"type":"function","name":"currentList","inputs":[{"name":"","type":"uint256","internalType":"uint256"}],"outputs":[{"name":"","type":"address","internalType":"address"}],"stateMutability":"view"},{"type":"function","name":"estimateAmountOut","inputs":[{"name":"tokenIn","type":"address","internalType":"address"},{"name":"tokenOut","type":"address","internalType":"address"},{"name":"amountIn","type":"uint128","internalType":"uint128"},{"name":"swapFee","type":"uint24","internalType":"uint24"}],"outputs":[{"name":"amountOut","type":"uint256","internalType":"uint256"}],"stateMutability":"view"},{"type":"function","name":"externalJobId","inputs":[],"outputs":[{"name":"","type":"bytes32","internalType":"bytes32"}],"stateMutability":"view"},{"type":"function","name":"factoryAddress","inputs":[],"outputs":[{"name":"","type":"address","internalType":"address"}],"stateMutability":"view"},{"type":"function","name":"factoryBalancerAddress","inputs":[],"outputs":[{"name":"","type":"address","internalType":"address"}],"stateMutability":"view"},{"type":"function","name":"factoryV2","inputs":[],"outputs":[{"name":"","type":"address","internalType":"contract IUniswapV2Factory"}],"stateMutability":"view"},{"type":"function","name":"factoryV3","inputs":[],"outputs":[{"name":"","type":"address","internalType":"contract IUniswapV3Factory"}],"stateMutability":"view"},{"type":"function","name":"fee","inputs":[],"outputs":[{"name":"","type":"uint256","internalType":"uint256"}],"stateMutability":"view"},{"type":"function","name":"feeRate","inputs":[],"outputs":[{"name":"","type":"uint8","internalType":"uint8"}],"stateMutability":"view"},{"type":"function","name":"feeReceiver","inputs":[],"outputs":[{"name":"","type":"address","internalType":"address"}],"stateMutability":"view"},{"type":"function","name":"fulfillAssetsData","inputs":[{"name":"requestId","type":"bytes32","internalType":"bytes32"},{"name":"_tokens","type":"address[]","internalType":"address[]"},{"name":"_marketShares","type":"uint256[]","internalType":"uint256[]"},{"name":"_swapFees","type":"uint24[]","internalType":"uint24[]"}],"outputs":[],"stateMutability":"nonpayable"},{"type":"function","name":"getAmountOut","inputs":[{"name":"tokenIn","type":"address","internalType":"address"},{"name":"tokenOut","type":"address","internalType":"address"},{"name":"amountIn","type":"uint256","internalType":"uint256"},{"name":"_swapFee","type":"uint24","internalType":"uint24"}],"outputs":[{"name":"finalAmountOut","type":"uint256","internalType":"uint256"}],"stateMutability":"view"},{"type":"function","name":"getPortfolioBalance","inputs":[],"outputs":[{"name":"","type":"uint256","internalType":"uint256"}],"stateMutability":"view"},{"type":"function","name":"getPortfolioBalance2","inputs":[{"name":"token","type":"address","internalType":"address"}],"outputs":[{"name":"","type":"address","internalType":"address"}],"stateMutability":"view"},{"type":"function","name":"indexToken","inputs":[],"outputs":[{"name":"","type":"address","internalType":"contract IndexToken"}],"stateMutability":"view"},{"type":"function","name":"initialize","inputs":[{"name":"_token","type":"address","internalType":"address payable"},{"name":"_chainlinkToken","type":"address","internalType":"address"},{"name":"_oracleAddress","type":"address","internalType":"address"},{"name":"_externalJobId","type":"bytes32","internalType":"bytes32"},{"name":"_toUsdPriceFeed","type":"address","internalType":"address"},{"name":"_weth","type":"address","internalType":"address"},{"name":"_quoter","type":"address","internalType":"address"},{"name":"_swapRouterV3","type":"address","internalType":"address"},{"name":"_factoryV3","type":"address","internalType":"address"},{"name":"_swapRouterV2","type":"address","internalType":"address"},{"name":"_factoryV2","type":"address","internalType":"address"}],"outputs":[],"stateMutability":"nonpayable"},{"type":"function","name":"lastUpdateTime","inputs":[],"outputs":[{"name":"","type":"uint256","internalType":"uint256"}],"stateMutability":"view"},{"type":"function","name":"latestFeeUpdate","inputs":[],"outputs":[{"name":"","type":"uint256","internalType":"uint256"}],"stateMutability":"view"},{"type":"function","name":"mockFillAssetsList","inputs":[{"name":"_tokens","type":"address[]","internalType":"address[]"},{"name":"_marketShares","type":"uint256[]","internalType":"uint256[]"},{"name":"_swapFees","type":"uint24[]","internalType":"uint24[]"}],"outputs":[],"stateMutability":"nonpayable"},{"type":"function","name":"oracleList","inputs":[{"name":"","type":"uint256","internalType":"uint256"}],"outputs":[{"name":"","type":"address","internalType":"address"}],"stateMutability":"view"},{"type":"function","name":"oraclePayment","inputs":[],"outputs":[{"name":"","type":"uint256","internalType":"uint256"}],"stateMutability":"view"},{"type":"function","name":"owner","inputs":[],"outputs":[{"name":"","type":"address","internalType":"address"}],"stateMutability":"view"},{"type":"function","name":"paused","inputs":[],"outputs":[{"name":"","type":"bool","internalType":"bool"}],"stateMutability":"view"},{"type":"function","name":"priceInWei","inputs":[],"outputs":[{"name":"","type":"uint256","internalType":"uint256"}],"stateMutability":"view"},{"type":"function","name":"priceOracle","inputs":[],"outputs":[{"name":"","type":"address","internalType":"address"}],"stateMutability":"view"},{"type":"function","name":"proposeOwner","inputs":[{"name":"_proposedOwner","type":"address","internalType":"address"}],"outputs":[],"stateMutability":"nonpayable"},{"type":"function","name":"proposedOwner","inputs":[],"outputs":[{"name":"","type":"address","internalType":"address"}],"stateMutability":"view"},{"type":"function","name":"quoter","inputs":[],"outputs":[{"name":"","type":"address","internalType":"contract IQuoter"}],"stateMutability":"view"},{"type":"function","name":"renounceOwnership","inputs":[],"outputs":[],"stateMutability":"nonpayable"},{"type":"function","name":"requestAssetsData","inputs":[],"outputs":[{"name":"","type":"bytes32","internalType":"bytes32"}],"stateMutability":"nonpayable"},{"type":"function","name":"setFactory","inputs":[{"name":"_factoryAddress","type":"address","internalType":"address"}],"outputs":[],"stateMutability":"nonpayable"},{"type":"function","name":"setFactoryBalancer","inputs":[{"name":"_factoryBalancerAddress","type":"address","internalType":"address"}],"outputs":[],"stateMutability":"nonpayable"},{"type":"function","name":"setFeeRate","inputs":[{"name":"_newFee","type":"uint8","internalType":"uint8"}],"outputs":[],"stateMutability":"nonpayable"},{"type":"function","name":"setFeeReceiver","inputs":[{"name":"_feeReceiver","type":"address","internalType":"address"}],"outputs":[],"stateMutability":"nonpayable"},{"type":"function","name":"setPriceFeed","inputs":[{"name":"_toUsdPricefeed","type":"address","internalType":"address"}],"outputs":[],"stateMutability":"nonpayable"},{"type":"function","name":"setPriceOracle","inputs":[{"name":"_priceOracle","type":"address","internalType":"address"}],"outputs":[],"stateMutability":"nonpayable"},{"type":"function","name":"setUrl","inputs":[{"name":"_beforeAddress","type":"string","internalType":"string"},{"name":"_afterAddress","type":"string","internalType":"string"}],"outputs":[],"stateMutability":"nonpayable"},{"type":"function","name":"setVault","inputs":[{"name":"_vaultAddress","type":"address","internalType":"address"}],"outputs":[],"stateMutability":"nonpayable"},{"type":"function","name":"swapRouterV2","inputs":[],"outputs":[{"name":"","type":"address","internalType":"contract IUniswapV2Router02"}],"stateMutability":"view"},{"type":"function","name":"swapRouterV3","inputs":[],"outputs":[{"name":"","type":"address","internalType":"contract ISwapRouter"}],"stateMutability":"view"},{"type":"function","name":"toUsdPriceFeed","inputs":[],"outputs":[{"name":"","type":"address","internalType":"contract AggregatorV3Interface"}],"stateMutability":"view"},{"type":"function","name":"tokenCurrentListIndex","inputs":[{"name":"","type":"address","internalType":"address"}],"outputs":[{"name":"","type":"uint256","internalType":"uint256"}],"stateMutability":"view"},{"type":"function","name":"tokenCurrentMarketShare","inputs":[{"name":"","type":"address","internalType":"address"}],"outputs":[{"name":"","type":"uint256","internalType":"uint256"}],"stateMutability":"view"},{"type":"function","name":"tokenOracleListIndex","inputs":[{"name":"","type":"address","internalType":"address"}],"outputs":[{"name":"","type":"uint256","internalType":"uint256"}],"stateMutability":"view"},{"type":"function","name":"tokenOracleMarketShare","inputs":[{"name":"","type":"address","internalType":"address"}],"outputs":[{"name":"","type":"uint256","internalType":"uint256"}],"stateMutability":"view"},{"type":"function","name":"tokenSwapFee","inputs":[{"name":"","type":"address","internalType":"address"}],"outputs":[{"name":"","type":"uint24","internalType":"uint24"}],"stateMutability":"view"},{"type":"function","name":"totalCurrentList","inputs":[],"outputs":[{"name":"","type":"uint256","internalType":"uint256"}],"stateMutability":"view"},{"type":"function","name":"totalOracleList","inputs":[],"outputs":[{"name":"","type":"uint256","internalType":"uint256"}],"stateMutability":"view"},{"type":"function","name":"transferOwnership","inputs":[{"name":"newOwner","type":"address","internalType":"address"}],"outputs":[],"stateMutability":"nonpayable"},{"type":"function","name":"updateCurrentList","inputs":[],"outputs":[],"stateMutability":"nonpayable"},{"type":"function","name":"vault","inputs":[],"outputs":[{"name":"","type":"address","internalType":"contract Vault"}],"stateMutability":"view"},{"type":"function","name":"weth","inputs":[],"outputs":[{"name":"","type":"address","internalType":"contract IWETH"}],"stateMutability":"view"},{"type":"event","name":"ChainlinkCancelled","inputs":[{"name":"id","type":"bytes32","indexed":true,"internalType":"bytes32"}],"anonymous":false},{"type":"event","name":"ChainlinkFulfilled","inputs":[{"name":"id","type":"bytes32","indexed":true,"internalType":"bytes32"}],"anonymous":false},{"type":"event","name":"ChainlinkRequested","inputs":[{"name":"id","type":"bytes32","indexed":true,"internalType":"bytes32"}],"anonymous":false},{"type":"event","name":"FeeReceiverSet","inputs":[{"name":"feeReceiver","type":"address","indexed":true,"internalType":"address"}],"anonymous":false},{"type":"event","name":"Initialized","inputs":[{"name":"version","type":"uint8","indexed":false,"internalType":"uint8"}],"anonymous":false},{"type":"event","name":"OwnershipTransferred","inputs":[{"name":"previousOwner","type":"address","indexed":true,"internalType":"address"},{"name":"newOwner","type":"address","indexed":true,"internalType":"address"}],"anonymous":false},{"type":"event","name":"Paused","inputs":[{"name":"account","type":"address","indexed":false,"internalType":"address"}],"anonymous":false},{"type":"event","name":"Unpaused","inputs":[{"name":"account","type":"address","indexed":false,"internalType":"address"}],"anonymous":false}],"bytecode":{"object":"0x608060405234801561001057600080fd5b5061341a806100206000396000f3fe608060405234801561001057600080fd5b50600436106103275760003560e01c80638c88c10c116101b8578063c6bbd5a711610104578063ddca3f43116100a2578063ee7bd3e21161007c578063ee7bd3e21461071f578063efdcd97414610732578063f2fde38b14610745578063fbfa77cf1461075857600080fd5b8063ddca3f43146106f0578063e1301745146106f9578063e7d015f21461070c57600080fd5b8063cb4d4e09116100de578063cb4d4e09146106a4578063d153b60c146106b7578063d5fbea63146106ca578063dd811ac9146106dd57600080fd5b8063c6bbd5a71461067f578063c8599ded14610692578063c8f33c911461069b57600080fd5b8063a73e1cbf11610171578063af2bcb471161014b578063af2bcb4714610633578063b3f0067414610646578063b5ed298a14610659578063b631e80b1461066c57600080fd5b8063a73e1cbf1461060f578063a8509fd814610622578063a8b54bd41461062a57600080fd5b80638c88c10c146105635780638da5cb5b14610583578063914f0cc614610594578063966dae0e146105b4578063978bbdb9146105c75780639932ba4c146105e657600080fd5b8063530e784f1161027757806368e0d4e111610230578063744fbc7a1161020a578063744fbc7a1461052d5780637ca58c5514610540578063897b8dc5146105485780638baa6bf11461055b57600080fd5b806368e0d4e1146104ff578063715018a614610512578063724e78da1461051a57600080fd5b8063530e784f1461049457806353fd4332146104a75780635bb47808146104b05780635c975abb146104c357806363973fda146104d95780636817031b146104ec57600080fd5b80632630c12f116102e45780633fc8cef3116102be5780633fc8cef314610439578063465a4c941461044c5780634b3e0b80146104615780635177942a1461048157600080fd5b80632630c12f146103e557806332599665146103f85780633c8da5881461043157600080fd5b8063011ced5f1461032c5780630be52713146103485780630c02e130146103685780630e329357146103715780631d5f45f514610391578063239aad0d146103bc575b600080fd5b61033560d25481565b6040519081526020015b60405180910390f35b610335610356366004612976565b60e16020526000908152604090205481565b61033560d85481565b61038461037f366004612ce7565b61076b565b60405161033f9190612f30565b60e7546103a4906001600160a01b031681565b6040516001600160a01b03909116815260200161033f565b6103a46103ca366004612d4a565b60dd602052600090815260409020546001600160a01b031681565b60d6546103a4906001600160a01b031681565b61041d610406366004612976565b60e36020526000908152604090205462ffffff1681565b60405162ffffff909116815260200161033f565b610335610798565b60ea546103a4906001600160a01b031681565b61045f61045a366004612993565b6108c4565b005b61033561046f366004612976565b60e26020526000908152604090205481565b61045f61048f366004612d7c565b610b61565b61045f6104a2366004612976565b610ca1565b61033560dc5481565b61045f6104be366004612976565b610d35565b609d5460ff16604051901515815260200161033f565b60d9546103a4906001600160a01b031681565b61045f6104fa366004612976565b610d5f565b60e9546103a4906001600160a01b031681565b61045f610d89565b61045f610528366004612976565b610d9d565b60e8546103a4906001600160a01b031681565b610335610e34565b61045f610556366004612c56565b6110cb565b61045f61149b565b610335610571366004612976565b60df6020526000908152604090205481565b6038546001600160a01b03166103a4565b6103356105a2366004612976565b60e06020526000908152604090205481565b60e4546103a4906001600160a01b031681565b60d1546105d49060ff1681565b60405160ff909116815260200161033f565b6103a46105f4366004612d4a565b60de602052600090815260409020546001600160a01b031681565b61045f61061d366004612ce7565b61157a565b6103356115ae565b61033560d75481565b61045f610641366004612b16565b611770565b60d3546103a4906001600160a01b031681565b61045f610667366004612976565b611a18565b60e6546103a4906001600160a01b031681565b60eb546103a4906001600160a01b031681565b61033560db5481565b61033560da5481565b60e5546103a4906001600160a01b031681565b606a546103a4906001600160a01b031681565b61045f6106d8366004612976565b611a68565b6103356106eb366004612ad0565b611a92565b61033560d05481565b6103a4610707366004612976565b611be3565b60cf546103a4906001600160a01b031681565b61033561072d366004612a6a565b611c96565b61045f610740366004612976565b611d2f565b61045f610753366004612976565b611d81565b60ec546103a4906001600160a01b031681565b60608282604051602001610780929190612e32565b60405160208183030381529060405290505b92915050565b60008060d960009054906101000a90046001600160a01b03166001600160a01b031663feaf968c6040518163ffffffff1660e01b815260040160a06040518083038186803b1580156107e957600080fd5b505afa1580156107fd573d6000803e3d6000fd5b505050506040513d601f19601f820116820180604052508101906108219190612d99565b505050915050600060d960009054906101000a90046001600160a01b03166001600160a01b031663313ce5676040518163ffffffff1660e01b815260040160206040518083038186803b15801561087757600080fd5b505afa15801561088b573d6000803e3d6000fd5b505050506040513d601f19601f820116820180604052508101906108af9190612de9565b90506108bd82826012611ea6565b9392505050565b600054610100900460ff16158080156108e45750600054600160ff909116105b806108fe5750303b1580156108fe575060005460ff166001145b6109665760405162461bcd60e51b815260206004820152602e60248201527f496e697469616c697a61626c653a20636f6e747261637420697320616c72656160448201526d191e481a5b9a5d1a585b1a5e995960921b60648201526084015b60405180910390fd5b6000805460ff191660011790558015610989576000805461ff0019166101001790555b610991611ee6565b610999611f15565b60cf80546001600160a01b038e166001600160a01b03199091161790556109dd8b600280546001600160a01b039092166001600160a01b0319909216919091179055565b600380546001600160a01b0319166001600160a01b038c1617905560d7899055600a610a12670de0b6b3a76400006001613227565b610a1c9190613093565b60d85560d980546001600160a01b03199081166001600160a01b038b81169190911790925560ea805482168a841617905560eb8054821689841617905560e68054821688841617905560e78054821687841617905560e88054821686841617905560e9805490911691841691909117905560d18054600a60ff199091161790554260d2556040805160608101909152602a80825261338d60208301398051610acc9160d4916020909101906126b4565b506040518060600160405280602e81526020016133b7602e91398051610afa9160d5916020909101906126b4565b5060d380546001600160a01b031916331790558015610b53576000805461ff0019169055604051600181527f7f26b83ff96e1f2b6a682f133852f6798a09c465da95921460cefb38474024989060200160405180910390a15b505050505050505050505050565b610b69611f44565b600060d25442610b799190613246565b9050600c603c610b898184613093565b610b939190613093565b11610c065760405162461bcd60e51b815260206004820152603960248201527f596f752073686f756c642077616974206174206c6561737420313220686f757260448201527f7320616674657220746865206c61746573742075706461746500000000000000606482015260840161095d565b60648260ff1611158015610c1e575060018260ff1610155b610c865760405162461bcd60e51b815260206004820152603360248201527f546865206e65774665652073686f756c64206265206265747765656e203120616044820152726e64203130302028302e303125202d2031252960681b606482015260840161095d565b5060d1805460ff191660ff929092169190911790554260d255565b610ca9611f44565b6001600160a01b038116610d135760405162461bcd60e51b815260206004820152602b60248201527f5072696365206f7261636c6520616464726573732063616e6e6f74206265207a60448201526a65726f206164647265737360a81b606482015260840161095d565b60d680546001600160a01b0319166001600160a01b0392909216919091179055565b610d3d611f44565b60e480546001600160a01b0319166001600160a01b0392909216919091179055565b610d67611f44565b60ec80546001600160a01b0319166001600160a01b0392909216919091179055565b610d91611f44565b610d9b6000611f9e565b565b610da5611f44565b6001600160a01b038116610e125760405162461bcd60e51b815260206004820152602e60248201527f49434f3a205072696365206665656420616464726573732063616e6e6f74206260448201526d65207a65726f206164647265737360901b606482015260840161095d565b60d980546001600160a01b0319166001600160a01b0392909216919091179055565b600080610f5560d48054610e47906132ac565b80601f0160208091040260200160405190810160405280929190818152602001828054610e73906132ac565b8015610ec05780601f10610e9557610100808354040283529160200191610ec0565b820191906000526020600020905b815481529060010190602001808311610ea357829003601f168201915b505050505060d58054610ed2906132ac565b80601f0160208091040260200160405190810160405280929190818152602001828054610efe906132ac565b8015610f4b5780601f10610f2057610100808354040283529160200191610f4b565b820191906000526020600020905b815481529060010190602001808311610f2e57829003601f168201915b505050505061076b565b90506000610f6d60d7543063897b8dc560e01b611ff0565b60408051808201909152600381526219d95d60ea1b6020820152909150610f969082908461200c565b610fee60405180604001604052806005815260200164706174683160d81b8152506040518060400160405280600e81526020016d726573756c74732c746f6b656e7360901b8152508361200c9092919063ffffffff16565b61104c604051806040016040528060058152602001643830ba341960d91b81525060405180604001604052806014815260200173726573756c74732c6d61726b657453686172657360601b8152508361200c9092919063ffffffff16565b6110a660405180604001604052806005815260200164706174683360d81b8152506040518060400160405280601081526020016f726573756c74732c737761704665657360801b8152508361200c9092919063ffffffff16565b6110c46110bb6003546001600160a01b031690565b8260d85461202a565b9250505090565b60008481526005602052604090205484906001600160a01b031633146111445760405162461bcd60e51b815260206004820152602860248201527f536f75726365206d75737420626520746865206f7261636c65206f6620746865604482015267081c995c5d595cdd60c21b606482015260840161095d565b60008181526005602052604080822080546001600160a01b03191690555182917f7cc135e0cebb02c3480ae5d74d377283180a2601f8f644edf7987b009316c63a91a282518451148015611199575081518351145b6111f95760405162461bcd60e51b815260206004820152602b60248201527f546865206c656e677468206f6620746865206172726179732073686f756c642060448201526a6265207468652073616d6560a81b606482015260840161095d565b83838360005b835181101561147a5783818151811061121a5761121a61333c565b602002602001015160dd600083815260200190815260200160002060006101000a8154816001600160a01b0302191690836001600160a01b031602179055508060df60008684815181106112705761127061333c565b60200260200101516001600160a01b03166001600160a01b03168152602001908152602001600020819055508281815181106112ae576112ae61333c565b602002602001015160e260008684815181106112cc576112cc61333c565b60200260200101516001600160a01b03166001600160a01b031681526020019081526020016000208190555081818151811061130a5761130a61333c565b602002602001015160e360008684815181106113285761132861333c565b60200260200101516001600160a01b03166001600160a01b0316815260200190815260200160002060006101000a81548162ffffff021916908362ffffff16021790555060dc5460001415611468578381815181106113895761138961333c565b602002602001015160de600083815260200190815260200160002060006101000a8154816001600160a01b0302191690836001600160a01b031602179055508281815181106113da576113da61333c565b602002602001015160e160008684815181106113f8576113f861333c565b60200260200101516001600160a01b03166001600160a01b03168152602001908152602001600020819055508060e0600086848151811061143b5761143b61333c565b60200260200101516001600160a01b03166001600160a01b03168152602001908152602001600020819055505b80611472816132e1565b9150506111ff565b50825160db5560dc5461148d57825160dc555b50504260da55505050505050565b60e4546001600160a01b03163314806114be575060e5546001600160a01b031633145b61150a5760405162461bcd60e51b815260206004820181905260248201527f43616c6c6572206973206e6f74206120666163746f727920636f6e7472616374604482015260640161095d565b60db5460dc5560005b60db5481101561157757600081815260dd602090815260408083205460de835281842080546001600160a01b0319166001600160a01b039092169182179055835260e282528083205460e1909252909120558061156f816132e1565b915050611513565b50565b611582611f44565b81516115959060d49060208501906126b4565b5080516115a99060d59060208401906126b4565b505050565b60008060005b60dc5481101561176a5760ea54600082815260de60205260409020546001600160a01b039081169116141561168057600081815260de6020526040908190205460ec5491516370a0823160e01b81526001600160a01b0392831660048201529116906370a082319060240160206040518083038186803b15801561163757600080fd5b505afa15801561164b573d6000803e3d6000fd5b505050506040513d601f19601f8201168201806040525081019061166f9190612d63565b611679908361307b565b9150611758565b600081815260de60205260408082205460ea5460ec5492516370a0823160e01b81526001600160a01b03938416600482015261174893928316929091169082906370a082319060240160206040518083038186803b1580156116e157600080fd5b505afa1580156116f5573d6000803e3d6000fd5b505050506040513d601f19601f820116820180604052508101906117199190612d63565b600086815260de60209081526040808320546001600160a01b0316835260e390915290205462ffffff16611a92565b9050611754818461307b565b9250505b80611762816132e1565b9150506115b4565b50919050565b611778611f44565b82828260005b83518110156119f9578381815181106117995761179961333c565b602002602001015160dd600083815260200190815260200160002060006101000a8154816001600160a01b0302191690836001600160a01b031602179055508060df60008684815181106117ef576117ef61333c565b60200260200101516001600160a01b03166001600160a01b031681526020019081526020016000208190555082818151811061182d5761182d61333c565b602002602001015160e2600086848151811061184b5761184b61333c565b60200260200101516001600160a01b03166001600160a01b03168152602001908152602001600020819055508181815181106118895761188961333c565b602002602001015160e360008684815181106118a7576118a761333c565b60200260200101516001600160a01b03166001600160a01b0316815260200190815260200160002060006101000a81548162ffffff021916908362ffffff16021790555060dc54600014156119e7578381815181106119085761190861333c565b602002602001015160de600083815260200190815260200160002060006101000a8154816001600160a01b0302191690836001600160a01b031602179055508281815181106119595761195961333c565b602002602001015160e160008684815181106119775761197761333c565b60200260200101516001600160a01b03166001600160a01b03168152602001908152602001600020819055508060e060008684815181106119ba576119ba61333c565b60200260200101516001600160a01b03166001600160a01b03168152602001908152602001600020819055505b806119f1816132e1565b91505061177e565b50825160db5560dc54611a0c57825160dc555b50504260da5550505050565b611a20611f44565b6001600160a01b038116611a465760405162461bcd60e51b815260040161095d90612f43565b606a80546001600160a01b0319166001600160a01b0392909216919091179055565b611a70611f44565b60e580546001600160a01b0319166001600160a01b0392909216919091179055565b60008215611bdb5762ffffff821615611ab857611ab185858585611c96565b9050611bdb565b6040805160028082526060820183526000926020830190803683370190505090508581600081518110611aed57611aed61333c565b60200260200101906001600160a01b031690816001600160a01b0316815250508481600181518110611b2157611b2161333c565b6001600160a01b03928316602091820292909201015260e85460405163d06ca61f60e01b8152600092919091169063d06ca61f90611b659088908690600401612fde565b60006040518083038186803b158015611b7d57600080fd5b505afa158015611b91573d6000803e3d6000fd5b505050506040513d6000823e601f3d908101601f19168201604052611bb99190810190612b9d565b905080600181518110611bce57611bce61333c565b6020026020010151925050505b949350505050565b60d65460e75460ea5460405163bb5705b360e01b815260009384936001600160a01b039182169363bb5705b393611c32939283169289921690670de0b6b3a764000090610bb890600401612e61565b60206040518083038186803b158015611c4a57600080fd5b505afa158015611c5e573d6000803e3d6000fd5b505050506040513d601f19601f82011682018060405250810190611c829190612d63565b505060d6546001600160a01b031692915050565b60d65460e75460405163bb5705b360e01b81526000926001600160a01b039081169263bb5705b392611cd692909116908990899089908990600401612e61565b60206040518083038186803b158015611cee57600080fd5b505afa158015611d02573d6000803e3d6000fd5b505050506040513d601f19601f82011682018060405250810190611d269190612d63565b95945050505050565b611d37611f44565b60d380546001600160a01b0319166001600160a01b0383169081179091556040517fbdf37c276f641820b141429d245add2552b4118c0866e5a78638e3de5ef18d9d90600090a250565b6001600160a01b038116611da75760405162461bcd60e51b815260040161095d90612f43565b606a546001600160a01b03828116911614611e1f5760405162461bcd60e51b815260206004820152603260248201527f50726f706f7361626c654f776e61626c653a206e6577206f776e6572206973206044820152713737ba10383937b837b9b2b21037bbb732b960711b606482015260840161095d565b6001600160a01b0381163314611e9d5760405162461bcd60e51b815260206004820152603a60248201527f50726f706f7361626c654f776e61626c653a20746869732063616c6c206d757360448201527f74206265206d61646520627920746865206e6577206f776e6572000000000000606482015260840161095d565b61157781611f9e565b60008260ff168260ff161115611edc57611ec0838361325d565b611ecb90600a6130f6565b611ed590856131a2565b90506108bd565b611ec0828461325d565b600054610100900460ff16611f0d5760405162461bcd60e51b815260040161095d90612f93565b610d9b6120bd565b600054610100900460ff16611f3c5760405162461bcd60e51b815260040161095d90612f93565b610d9b6120ed565b6038546001600160a01b03163314610d9b5760405162461bcd60e51b815260206004820181905260248201527f4f776e61626c653a2063616c6c6572206973206e6f7420746865206f776e6572604482015260640161095d565b603880546001600160a01b038381166001600160a01b0319831681179093556040519116919082907f8be0079c531659141344cd1fd0a4f28419497f9722a3daafe3b4186f6b6457e090600090a35050565b611ff8612738565b612000612738565b611d2681868686612120565b608083015161201b908361215d565b60808301516115a9908261215d565b60045460009061203b81600161307b565b600455835160408086015160808701515191516000936320214ca360e11b936120739386938493923092918a91600191602401612ea1565b60408051601f198184030181529190526020810180516001600160e01b03166001600160e01b03199093169290921790915290506120b386838684612174565b9695505050505050565b600054610100900460ff166120e45760405162461bcd60e51b815260040161095d90612f93565b610d9b33611f9e565b600054610100900460ff166121145760405162461bcd60e51b815260040161095d90612f93565b609d805460ff19169055565b612128612738565b61213885608001516101006122e1565b50509183526001600160a01b031660208301526001600160e01b031916604082015290565b61216a8260038351612346565b6115a98282612453565b6040516bffffffffffffffffffffffff193060601b1660208201526034810184905260009060540160408051808303601f1901815282825280516020918201206000818152600590925291812080546001600160a01b0319166001600160a01b038a1617905590925082917fb5e6e01e79f91267dc17b4e6314d5d4d03593d2ceee0fbb452b750bd70ea5af99190a2600254604051630200057560e51b81526001600160a01b0390911690634000aea09061223790889087908790600401612f09565b602060405180830381600087803b15801561225157600080fd5b505af1158015612265573d6000803e3d6000fd5b505050506040513d601f19601f820116820180604052508101906122899190612c34565b611bdb5760405162461bcd60e51b815260206004820152602360248201527f756e61626c6520746f207472616e73666572416e6443616c6c20746f206f7261604482015262636c6560e81b606482015260840161095d565b6040805180820190915260608152600060208201526123016020836132fc565b15612329576123116020836132fc565b61231c906020613246565b612326908361307b565b91505b506020828101829052604080518085526000815290920101905290565b6017816001600160401b0316116123705761236a8360e0600585901b16831761247a565b50505050565b60ff816001600160401b0316116123ac57612396836018611fe0600586901b161761247a565b5061236a836001600160401b038316600161249f565b61ffff816001600160401b0316116123e9576123d3836019611fe0600586901b161761247a565b5061236a836001600160401b038316600261249f565b63ffffffff816001600160401b0316116124285761241283601a611fe0600586901b161761247a565b5061236a836001600160401b038316600461249f565b61243d83601b611fe0600586901b161761247a565b5061236a836001600160401b038316600861249f565b6040805180820190915260608152600060208201526108bd838460000151518485516124c5565b6040805180820190915260608152600060208201526108bd83846000015151846125af565b604080518082019091526060815260006020820152611bdb84856000015151858561260b565b60408051808201909152606081526000602082015282518211156124e857600080fd5b60208501516124f7838661307b565b111561252a5761252a8561251a87602001518786612515919061307b565b61268c565b612525906002613227565b61269d565b6000808651805187602083010193508088870111156125495787860182525b505050602084015b60208410612589578051825261256860208361307b565b915061257560208261307b565b9050612582602085613246565b9350612551565b51815160001960208690036101000a019081169019919091161790525083949350505050565b604080518082019091526060815260006020820152836020015183106125e4576125e484856020015160026125259190613227565b835180516020858301018481535080851415612601576001810182525b5093949350505050565b604080518082019091526060815260006020820152602085015161262f858461307b565b1115612643576126438561251a868561307b565b60006001612653846101006130ea565b61265d9190613246565b90508551838682010185831982511617815250805184870111156126815783860181525b509495945050505050565b60008183111561176a575081610792565b81516126a983836122e1565b5061236a8382612453565b8280546126c0906132ac565b90600052602060002090601f0160209004810192826126e25760008555612728565b82601f106126fb57805160ff1916838001178555612728565b82800160010185558215612728579182015b8281111561272857825182559160200191906001019061270d565b50612734929150612773565b5090565b6040805160a0810182526000808252602080830182905282840182905260608084018390528451808601909552845283015290608082015290565b5b808211156127345760008155600101612774565b803561279381613368565b919050565b600082601f8301126127a957600080fd5b813560206127be6127b983613058565b613028565b80838252828201915082860187848660051b89010111156127de57600080fd5b60005b858110156128065781356127f481613368565b845292840192908401906001016127e1565b5090979650505050505050565b600082601f83011261282457600080fd5b813560206128346127b983613058565b80838252828201915082860187848660051b890101111561285457600080fd5b60005b858110156128065761286882612949565b84529284019290840190600101612857565b600082601f83011261288b57600080fd5b8135602061289b6127b983613058565b80838252828201915082860187848660051b89010111156128bb57600080fd5b60005b85811015612806578135845292840192908401906001016128be565b600082601f8301126128eb57600080fd5b81356001600160401b0381111561290457612904613352565b612917601f8201601f1916602001613028565b81815284602083860101111561292c57600080fd5b816020850160208301376000918101602001919091529392505050565b803562ffffff8116811461279357600080fd5b805169ffffffffffffffffffff8116811461279357600080fd5b60006020828403121561298857600080fd5b81356108bd81613368565b60008060008060008060008060008060006101608c8e0312156129b557600080fd5b8b356129c081613368565b9a5060208c01356129d081613368565b995060408c01356129e081613368565b985060608c0135975060808c01356129f781613368565b965060a08c0135612a0781613368565b955060c08c0135612a1781613368565b945060e08c0135612a2781613368565b93506101008c0135612a3881613368565b92506101208c0135612a4981613368565b9150612a586101408d01612788565b90509295989b509295989b9093969950565b60008060008060808587031215612a8057600080fd5b8435612a8b81613368565b93506020850135612a9b81613368565b925060408501356001600160801b0381168114612ab757600080fd5b9150612ac560608601612949565b905092959194509250565b60008060008060808587031215612ae657600080fd5b8435612af181613368565b93506020850135612b0181613368565b925060408501359150612ac560608601612949565b600080600060608486031215612b2b57600080fd5b83356001600160401b0380821115612b4257600080fd5b612b4e87838801612798565b94506020860135915080821115612b6457600080fd5b612b708783880161287a565b93506040860135915080821115612b8657600080fd5b50612b9386828701612813565b9150509250925092565b60006020808385031215612bb057600080fd5b82516001600160401b03811115612bc657600080fd5b8301601f81018513612bd757600080fd5b8051612be56127b982613058565b80828252848201915084840188868560051b8701011115612c0557600080fd5b600094505b83851015612c28578051835260019490940193918501918501612c0a565b50979650505050505050565b600060208284031215612c4657600080fd5b815180151581146108bd57600080fd5b60008060008060808587031215612c6c57600080fd5b8435935060208501356001600160401b0380821115612c8a57600080fd5b612c9688838901612798565b94506040870135915080821115612cac57600080fd5b612cb88883890161287a565b93506060870135915080821115612cce57600080fd5b50612cdb87828801612813565b91505092959194509250565b60008060408385031215612cfa57600080fd5b82356001600160401b0380821115612d1157600080fd5b612d1d868387016128da565b93506020850135915080821115612d3357600080fd5b50612d40858286016128da565b9150509250929050565b600060208284031215612d5c57600080fd5b5035919050565b600060208284031215612d7557600080fd5b5051919050565b600060208284031215612d8e57600080fd5b81356108bd8161337d565b600080600080600060a08688031215612db157600080fd5b612dba8661295c565b9450602086015193506040860151925060608601519150612ddd6080870161295c565b90509295509295909350565b600060208284031215612dfb57600080fd5b81516108bd8161337d565b60008151808452612e1e816020860160208601613280565b601f01601f19169290920160200192915050565b60008351612e44818460208801613280565b835190830190612e58818360208801613280565b01949350505050565b6001600160a01b03958616815293851660208501529190931660408301526001600160801b03909216606082015262ffffff909116608082015260a00190565b6001600160a01b0389811682526020820189905260408201889052861660608201526001600160e01b03198516608082015260a0810184905260c0810183905261010060e08201819052600090612efa83820185612e06565b9b9a5050505050505050505050565b60018060a01b0384168152826020820152606060408201526000611d266060830184612e06565b6020815260006108bd6020830184612e06565b60208082526030908201527f50726f706f7361626c654f776e61626c653a206e6577206f776e65722069732060408201526f746865207a65726f206164647265737360801b606082015260800190565b6020808252602b908201527f496e697469616c697a61626c653a20636f6e7472616374206973206e6f74206960408201526a6e697469616c697a696e6760a81b606082015260800190565b6000604082018483526020604081850152818551808452606086019150828701935060005b818110156128065784516001600160a01b031683529383019391830191600101613003565b604051601f8201601f191681016001600160401b038111828210171561305057613050613352565b604052919050565b60006001600160401b0382111561307157613071613352565b5060051b60200190565b6000821982111561308e5761308e613310565b500190565b6000826130a2576130a2613326565b500490565b600181815b808511156130e25781600019048211156130c8576130c8613310565b808516156130d557918102915b93841c93908002906130ac565b509250929050565b60006108bd8383613101565b60006108bd60ff8416835b60008261311057506001610792565b8161311d57506000610792565b8160018114613133576002811461313d57613159565b6001915050610792565b60ff84111561314e5761314e613310565b50506001821b610792565b5060208310610133831016604e8410600b841016171561317c575081810a610792565b61318683836130a7565b806000190482111561319a5761319a613310565b029392505050565b60006001600160ff1b03818413828413808216868404861116156131c8576131c8613310565b600160ff1b60008712828116878305891216156131e7576131e7613310565b6000871292508782058712848416161561320357613203613310565b8785058712818416161561321957613219613310565b505050929093029392505050565b600081600019048311821515161561324157613241613310565b500290565b60008282101561325857613258613310565b500390565b600060ff821660ff84168082101561327757613277613310565b90039392505050565b60005b8381101561329b578181015183820152602001613283565b8381111561236a5750506000910152565b600181811c908216806132c057607f821691505b6020821081141561176a57634e487b7160e01b600052602260045260246000fd5b60006000198214156132f5576132f5613310565b5060010190565b60008261330b5761330b613326565b500690565b634e487b7160e01b600052601160045260246000fd5b634e487b7160e01b600052601260045260246000fd5b634e487b7160e01b600052603260045260246000fd5b634e487b7160e01b600052604160045260246000fd5b6001600160a01b038116811461157757600080fd5b60ff8116811461157757600080fdfe68747470733a2f2f6170702e6e65786c6162732e696f2f6170692f616c6c46756e64696e6752617465733f6d756c7469706c7946756e633d31382674696d65734e656746756e643d74727565266172726179733d74727565a2646970667358221220fe1fdd49a6083a3a46b001df59a49e325ea48fe0d5b08a2100026ad2dada061964736f6c63430008070033","linkReferences":{}},"methodIdentifiers":{"concatenation(string,string)":"0e329357","currentList(uint256)":"9932ba4c","estimateAmountOut(address,address,uint128,uint24)":"ee7bd3e2","externalJobId()":"a8b54bd4","factoryAddress()":"966dae0e","factoryBalancerAddress()":"cb4d4e09","factoryV2()":"68e0d4e1","factoryV3()":"1d5f45f5","fee()":"ddca3f43","feeRate()":"978bbdb9","feeReceiver()":"b3f00674","fulfillAssetsData(bytes32,address[],uint256[],uint24[])":"897b8dc5","getAmountOut(address,address,uint256,uint24)":"dd811ac9","getPortfolioBalance()":"a8509fd8","getPortfolioBalance2(address)":"e1301745","indexToken()":"e7d015f2","initialize(address,address,address,bytes32,address,address,address,address,address,address,address)":"465a4c94","lastUpdateTime()":"c8f33c91","latestFeeUpdate()":"011ced5f","mockFillAssetsList(address[],uint256[],uint24[])":"af2bcb47","oracleList(uint256)":"239aad0d","oraclePayment()":"0c02e130","owner()":"8da5cb5b","paused()":"5c975abb","priceInWei()":"3c8da588","priceOracle()":"2630c12f","proposeOwner(address)":"b5ed298a","proposedOwner()":"d153b60c","quoter()":"c6bbd5a7","renounceOwnership()":"715018a6","requestAssetsData()":"7ca58c55","setFactory(address)":"5bb47808","setFactoryBalancer(address)":"d5fbea63","setFeeRate(uint8)":"5177942a","setFeeReceiver(address)":"efdcd974","setPriceFeed(address)":"724e78da","setPriceOracle(address)":"530e784f","setUrl(string,string)":"a73e1cbf","setVault(address)":"6817031b","swapRouterV2()":"744fbc7a","swapRouterV3()":"b631e80b","toUsdPriceFeed()":"63973fda","tokenCurrentListIndex(address)":"914f0cc6","tokenCurrentMarketShare(address)":"0be52713","tokenOracleListIndex(address)":"8c88c10c","tokenOracleMarketShare(address)":"4b3e0b80","tokenSwapFee(address)":"32599665","totalCurrentList()":"53fd4332","totalOracleList()":"c8599ded","transferOwnership(address)":"f2fde38b","updateCurrentList()":"8baa6bf1","vault()":"fbfa77cf","weth()":"3fc8cef3"},"id":4}