{"abi":[{"type":"function","name":"concatenation","inputs":[{"name":"a","type":"string","internalType":"string"},{"name":"b","type":"string","internalType":"string"}],"outputs":[{"name":"","type":"string","internalType":"string"}],"stateMutability":"pure"},{"type":"function","name":"currentList","inputs":[{"name":"","type":"uint256","internalType":"uint256"}],"outputs":[{"name":"","type":"address","internalType":"address"}],"stateMutability":"view"},{"type":"function","name":"estimateAmountOut","inputs":[{"name":"tokenIn","type":"address","internalType":"address"},{"name":"tokenOut","type":"address","internalType":"address"},{"name":"amountIn","type":"uint128","internalType":"uint128"},{"name":"swapFee","type":"uint24","internalType":"uint24"}],"outputs":[{"name":"amountOut","type":"uint256","internalType":"uint256"}],"stateMutability":"view"},{"type":"function","name":"externalJobId","inputs":[],"outputs":[{"name":"","type":"bytes32","internalType":"bytes32"}],"stateMutability":"view"},{"type":"function","name":"factoryAddress","inputs":[],"outputs":[{"name":"","type":"address","internalType":"address"}],"stateMutability":"view"},{"type":"function","name":"factoryBalancerAddress","inputs":[],"outputs":[{"name":"","type":"address","internalType":"address"}],"stateMutability":"view"},{"type":"function","name":"factoryV2","inputs":[],"outputs":[{"name":"","type":"address","internalType":"contract IUniswapV2Factory"}],"stateMutability":"view"},{"type":"function","name":"factoryV3","inputs":[],"outputs":[{"name":"","type":"address","internalType":"contract IUniswapV3Factory"}],"stateMutability":"view"},{"type":"function","name":"fee","inputs":[],"outputs":[{"name":"","type":"uint256","internalType":"uint256"}],"stateMutability":"view"},{"type":"function","name":"feeRate","inputs":[],"outputs":[{"name":"","type":"uint8","internalType":"uint8"}],"stateMutability":"view"},{"type":"function","name":"feeReceiver","inputs":[],"outputs":[{"name":"","type":"address","internalType":"address"}],"stateMutability":"view"},{"type":"function","name":"fulfillAssetsData","inputs":[{"name":"requestId","type":"bytes32","internalType":"bytes32"},{"name":"_tokens","type":"address[]","internalType":"address[]"},{"name":"_marketShares","type":"uint256[]","internalType":"uint256[]"},{"name":"_swapFees","type":"uint24[]","internalType":"uint24[]"}],"outputs":[],"stateMutability":"nonpayable"},{"type":"function","name":"getAmountOut","inputs":[{"name":"tokenIn","type":"address","internalType":"address"},{"name":"tokenOut","type":"address","internalType":"address"},{"name":"amountIn","type":"uint256","internalType":"uint256"},{"name":"_swapFee","type":"uint24","internalType":"uint24"}],"outputs":[{"name":"finalAmountOut","type":"uint256","internalType":"uint256"}],"stateMutability":"view"},{"type":"function","name":"getPendingRequest","inputs":[{"name":"requestId","type":"bytes32","internalType":"bytes32"}],"outputs":[{"name":"","type":"address","internalType":"address"}],"stateMutability":"view"},{"type":"function","name":"getPortfolioBalance","inputs":[],"outputs":[{"name":"","type":"uint256","internalType":"uint256"}],"stateMutability":"view"},{"type":"function","name":"indexToken","inputs":[],"outputs":[{"name":"","type":"address","internalType":"contract IndexToken"}],"stateMutability":"view"},{"type":"function","name":"initialize","inputs":[{"name":"_token","type":"address","internalType":"address payable"},{"name":"_chainlinkToken","type":"address","internalType":"address"},{"name":"_oracleAddress","type":"address","internalType":"address"},{"name":"_externalJobId","type":"bytes32","internalType":"bytes32"},{"name":"_toUsdPriceFeed","type":"address","internalType":"address"},{"name":"_weth","type":"address","internalType":"address"},{"name":"_quoter","type":"address","internalType":"address"},{"name":"_swapRouterV3","type":"address","internalType":"address"},{"name":"_factoryV3","type":"address","internalType":"address"},{"name":"_swapRouterV2","type":"address","internalType":"address"},{"name":"_factoryV2","type":"address","internalType":"address"}],"outputs":[],"stateMutability":"nonpayable"},{"type":"function","name":"lastUpdateTime","inputs":[],"outputs":[{"name":"","type":"uint256","internalType":"uint256"}],"stateMutability":"view"},{"type":"function","name":"latestFeeUpdate","inputs":[],"outputs":[{"name":"","type":"uint256","internalType":"uint256"}],"stateMutability":"view"},{"type":"function","name":"mockFillAssetsList","inputs":[{"name":"_tokens","type":"address[]","internalType":"address[]"},{"name":"_marketShares","type":"uint256[]","internalType":"uint256[]"},{"name":"_swapFees","type":"uint24[]","internalType":"uint24[]"}],"outputs":[],"stateMutability":"nonpayable"},{"type":"function","name":"oracleList","inputs":[{"name":"","type":"uint256","internalType":"uint256"}],"outputs":[{"name":"","type":"address","internalType":"address"}],"stateMutability":"view"},{"type":"function","name":"oraclePayment","inputs":[],"outputs":[{"name":"","type":"uint256","internalType":"uint256"}],"stateMutability":"view"},{"type":"function","name":"owner","inputs":[],"outputs":[{"name":"","type":"address","internalType":"address"}],"stateMutability":"view"},{"type":"function","name":"paused","inputs":[],"outputs":[{"name":"","type":"bool","internalType":"bool"}],"stateMutability":"view"},{"type":"function","name":"priceInWei","inputs":[],"outputs":[{"name":"","type":"uint256","internalType":"uint256"}],"stateMutability":"view"},{"type":"function","name":"priceOracle","inputs":[],"outputs":[{"name":"","type":"address","internalType":"address"}],"stateMutability":"view"},{"type":"function","name":"proposeOwner","inputs":[{"name":"_proposedOwner","type":"address","internalType":"address"}],"outputs":[],"stateMutability":"nonpayable"},{"type":"function","name":"proposedOwner","inputs":[],"outputs":[{"name":"","type":"address","internalType":"address"}],"stateMutability":"view"},{"type":"function","name":"quoter","inputs":[],"outputs":[{"name":"","type":"address","internalType":"contract IQuoter"}],"stateMutability":"view"},{"type":"function","name":"renounceOwnership","inputs":[],"outputs":[],"stateMutability":"nonpayable"},{"type":"function","name":"requestAssetsData","inputs":[],"outputs":[{"name":"","type":"bytes32","internalType":"bytes32"}],"stateMutability":"nonpayable"},{"type":"function","name":"setFactory","inputs":[{"name":"_factoryAddress","type":"address","internalType":"address"}],"outputs":[],"stateMutability":"nonpayable"},{"type":"function","name":"setFactoryBalancer","inputs":[{"name":"_factoryBalancerAddress","type":"address","internalType":"address"}],"outputs":[],"stateMutability":"nonpayable"},{"type":"function","name":"setFeeRate","inputs":[{"name":"_newFee","type":"uint8","internalType":"uint8"}],"outputs":[],"stateMutability":"nonpayable"},{"type":"function","name":"setFeeReceiver","inputs":[{"name":"_feeReceiver","type":"address","internalType":"address"}],"outputs":[],"stateMutability":"nonpayable"},{"type":"function","name":"setPriceFeed","inputs":[{"name":"_toUsdPricefeed","type":"address","internalType":"address"}],"outputs":[],"stateMutability":"nonpayable"},{"type":"function","name":"setPriceOracle","inputs":[{"name":"_priceOracle","type":"address","internalType":"address"}],"outputs":[],"stateMutability":"nonpayable"},{"type":"function","name":"setUrl","inputs":[{"name":"_beforeAddress","type":"string","internalType":"string"},{"name":"_afterAddress","type":"string","internalType":"string"}],"outputs":[],"stateMutability":"nonpayable"},{"type":"function","name":"setVault","inputs":[{"name":"_vaultAddress","type":"address","internalType":"address"}],"outputs":[],"stateMutability":"nonpayable"},{"type":"function","name":"swapRouterV2","inputs":[],"outputs":[{"name":"","type":"address","internalType":"contract IUniswapV2Router02"}],"stateMutability":"view"},{"type":"function","name":"swapRouterV3","inputs":[],"outputs":[{"name":"","type":"address","internalType":"contract ISwapRouter"}],"stateMutability":"view"},{"type":"function","name":"toUsdPriceFeed","inputs":[],"outputs":[{"name":"","type":"address","internalType":"contract AggregatorV3Interface"}],"stateMutability":"view"},{"type":"function","name":"tokenCurrentListIndex","inputs":[{"name":"","type":"address","internalType":"address"}],"outputs":[{"name":"","type":"uint256","internalType":"uint256"}],"stateMutability":"view"},{"type":"function","name":"tokenCurrentMarketShare","inputs":[{"name":"","type":"address","internalType":"address"}],"outputs":[{"name":"","type":"uint256","internalType":"uint256"}],"stateMutability":"view"},{"type":"function","name":"tokenOracleListIndex","inputs":[{"name":"","type":"address","internalType":"address"}],"outputs":[{"name":"","type":"uint256","internalType":"uint256"}],"stateMutability":"view"},{"type":"function","name":"tokenOracleMarketShare","inputs":[{"name":"","type":"address","internalType":"address"}],"outputs":[{"name":"","type":"uint256","internalType":"uint256"}],"stateMutability":"view"},{"type":"function","name":"tokenSwapFee","inputs":[{"name":"","type":"address","internalType":"address"}],"outputs":[{"name":"","type":"uint24","internalType":"uint24"}],"stateMutability":"view"},{"type":"function","name":"totalCurrentList","inputs":[],"outputs":[{"name":"","type":"uint256","internalType":"uint256"}],"stateMutability":"view"},{"type":"function","name":"totalOracleList","inputs":[],"outputs":[{"name":"","type":"uint256","internalType":"uint256"}],"stateMutability":"view"},{"type":"function","name":"transferOwnership","inputs":[{"name":"newOwner","type":"address","internalType":"address"}],"outputs":[],"stateMutability":"nonpayable"},{"type":"function","name":"updateCurrentList","inputs":[],"outputs":[],"stateMutability":"nonpayable"},{"type":"function","name":"vault","inputs":[],"outputs":[{"name":"","type":"address","internalType":"contract Vault"}],"stateMutability":"view"},{"type":"function","name":"weth","inputs":[],"outputs":[{"name":"","type":"address","internalType":"contract IWETH"}],"stateMutability":"view"},{"type":"event","name":"ChainlinkCancelled","inputs":[{"name":"id","type":"bytes32","indexed":true,"internalType":"bytes32"}],"anonymous":false},{"type":"event","name":"ChainlinkFulfilled","inputs":[{"name":"id","type":"bytes32","indexed":true,"internalType":"bytes32"}],"anonymous":false},{"type":"event","name":"ChainlinkRequested","inputs":[{"name":"id","type":"bytes32","indexed":true,"internalType":"bytes32"}],"anonymous":false},{"type":"event","name":"FeeReceiverSet","inputs":[{"name":"feeReceiver","type":"address","indexed":true,"internalType":"address"}],"anonymous":false},{"type":"event","name":"Initialized","inputs":[{"name":"version","type":"uint8","indexed":false,"internalType":"uint8"}],"anonymous":false},{"type":"event","name":"OwnershipTransferred","inputs":[{"name":"previousOwner","type":"address","indexed":true,"internalType":"address"},{"name":"newOwner","type":"address","indexed":true,"internalType":"address"}],"anonymous":false},{"type":"event","name":"Paused","inputs":[{"name":"account","type":"address","indexed":false,"internalType":"address"}],"anonymous":false},{"type":"event","name":"Unpaused","inputs":[{"name":"account","type":"address","indexed":false,"internalType":"address"}],"anonymous":false}],"bytecode":{"object":"0x608060405234801561001057600080fd5b50615d3980620000216000396000f3fe608060405234801561001057600080fd5b50600436106103275760003560e01c80638baa6bf1116101b8578063b631e80b11610104578063dd811ac9116100a2578063ee7bd3e21161007c578063ee7bd3e214610960578063efdcd97414610990578063f2fde38b146109ac578063fbfa77cf146109c857610327565b8063dd811ac9146108f4578063ddca3f4314610924578063e7d015f21461094257610327565b8063c8f33c91116100de578063c8f33c911461087e578063cb4d4e091461089c578063d153b60c146108ba578063d5fbea63146108d857610327565b8063b631e80b14610824578063c6bbd5a714610842578063c8599ded1461086057610327565b80639932ba4c11610171578063a8b54bd41161014b578063a8b54bd4146107b0578063af2bcb47146107ce578063b3f00674146107ea578063b5ed298a1461080857610327565b80639932ba4c14610746578063a73e1cbf14610776578063a8509fd81461079257610327565b80638baa6bf1146106825780638c88c10c1461068c5780638da5cb5b146106bc578063914f0cc6146106da578063966dae0e1461070a578063978bbdb91461072857610327565b8063530e784f1161027757806368e0d4e111610230578063744fbc7a1161020a578063744fbc7a146105fa5780637ca58c551461061857806388b12d5514610636578063897b8dc51461066657610327565b806368e0d4e1146105b6578063715018a6146105d4578063724e78da146105de57610327565b8063530e784f1461050857806353fd4332146105245780635bb47808146105425780635c975abb1461055e57806363973fda1461057c5780636817031b1461059a57610327565b80632630c12f116102e45780633fc8cef3116102be5780633fc8cef314610482578063465a4c94146104a05780634b3e0b80146104bc5780635177942a146104ec57610327565b80632630c12f1461041657806332599665146104345780633c8da5881461046457610327565b8063011ced5f1461032c5780630be527131461034a5780630c02e1301461037a5780630e329357146103985780631d5f45f5146103c8578063239aad0d146103e6575b600080fd5b6103346109e6565b6040516103419190614d99565b60405180910390f35b610364600480360381019061035f9190613eee565b6109ec565b6040516103719190614d99565b60405180910390f35b610382610a04565b60405161038f9190614d99565b60405180910390f35b6103b260048036038101906103ad91906142e2565b610a0a565b6040516103bf9190614b9c565b60405180910390f35b6103d0610a36565b6040516103dd9190614b15565b60405180910390f35b61040060048036038101906103fb919061435a565b610a5c565b60405161040d9190614927565b60405180910390f35b61041e610a8f565b60405161042b9190614927565b60405180910390f35b61044e60048036038101906104499190613eee565b610ab5565b60405161045b9190614d7e565b60405180910390f35b61046c610ad7565b6040516104799190614d99565b60405180910390f35b61048a610c3a565b6040516104979190614b30565b60405180910390f35b6104ba60048036038101906104b59190613f1b565b610c60565b005b6104d660048036038101906104d19190613eee565b6110bb565b6040516104e39190614d99565b60405180910390f35b610506600480360381019061050191906143b4565b6110d3565b005b610522600480360381019061051d9190613eee565b6111c4565b005b61052c611280565b6040516105399190614d99565b60405180910390f35b61055c60048036038101906105579190613eee565b611286565b005b6105666112d2565b6040516105739190614a58565b60405180910390f35b6105846112e9565b6040516105919190614a8e565b60405180910390f35b6105b460048036038101906105af9190613eee565b61130f565b005b6105be61135b565b6040516105cb9190614adf565b60405180910390f35b6105dc611381565b005b6105f860048036038101906105f39190613eee565b611395565b005b610602611451565b60405161060f9190614afa565b60405180910390f35b610620611477565b60405161062d9190614a73565b60405180910390f35b610650600480360381019061064b91906141fa565b611794565b60405161065d9190614927565b60405180910390f35b610680600480360381019061067b9190614227565b6117d1565b005b61068a611ca3565b005b6106a660048036038101906106a19190613eee565b611ec5565b6040516106b39190614d99565b60405180910390f35b6106c4611edd565b6040516106d19190614927565b60405180910390f35b6106f460048036038101906106ef9190613eee565b611f07565b6040516107019190614d99565b60405180910390f35b610712611f1f565b60405161071f9190614927565b60405180910390f35b610730611f45565b60405161073d9190614de4565b60405180910390f35b610760600480360381019061075b919061435a565b611f58565b60405161076d9190614927565b60405180910390f35b610790600480360381019061078b91906142e2565b611f8b565b005b61079a611fc5565b6040516107a79190614d99565b60405180910390f35b6107b861233c565b6040516107c59190614a73565b60405180910390f35b6107e860048036038101906107e391906140dd565b612342565b005b6107f26126c4565b6040516107ff9190614927565b60405180910390f35b610822600480360381019061081d9190613eee565b6126ea565b005b61082c6127a6565b6040516108399190614ac4565b60405180910390f35b61084a6127cc565b6040516108579190614aa9565b60405180910390f35b6108686127f2565b6040516108759190614d99565b60405180910390f35b6108866127f8565b6040516108939190614d99565b60405180910390f35b6108a46127fe565b6040516108b19190614927565b60405180910390f35b6108c2612824565b6040516108cf9190614927565b60405180910390f35b6108f260048036038101906108ed9190613eee565b61284a565b005b61090e60048036038101906109099190614076565b612896565b60405161091b9190614d99565b60405180910390f35b61092c612a8d565b6040516109399190614d99565b60405180910390f35b61094a612a93565b6040516109579190614b4b565b60405180910390f35b61097a6004803603810190610975919061400f565b612ab9565b6040516109879190614d99565b60405180910390f35b6109aa60048036038101906109a59190613eee565b612b9a565b005b6109c660048036038101906109c19190613eee565b612c29565b005b6109d0612da3565b6040516109dd9190614b66565b60405180910390f35b60d25481565b60e16020528060005260406000206000915090505481565b60d85481565b60608282604051602001610a1f9291906148d7565b604051602081830303815290604052905092915050565b60e760009054906101000a900473ffffffffffffffffffffffffffffffffffffffff1681565b60dd6020528060005260406000206000915054906101000a900473ffffffffffffffffffffffffffffffffffffffff1681565b60d660009054906101000a900473ffffffffffffffffffffffffffffffffffffffff1681565b60e36020528060005260406000206000915054906101000a900462ffffff1681565b60008060d960009054906101000a900473ffffffffffffffffffffffffffffffffffffffff1673ffffffffffffffffffffffffffffffffffffffff1663feaf968c6040518163ffffffff1660e01b815260040160a06040518083038186803b158015610b4257600080fd5b505afa158015610b56573d6000803e3d6000fd5b505050506040513d601f19601f82011682018060405250810190610b7a91906143e1565b505050915050600060d960009054906101000a900473ffffffffffffffffffffffffffffffffffffffff1673ffffffffffffffffffffffffffffffffffffffff1663313ce5676040518163ffffffff1660e01b815260040160206040518083038186803b158015610bea57600080fd5b505afa158015610bfe573d6000803e3d6000fd5b505050506040513d601f19601f82011682018060405250810190610c22919061445c565b9050610c3082826012612dc9565b9150819250505090565b60ea60009054906101000a900473ffffffffffffffffffffffffffffffffffffffff1681565b60008060019054906101000a900460ff16159050808015610c915750600160008054906101000a900460ff1660ff16105b80610cbe5750610ca030612e30565b158015610cbd5750600160008054906101000a900460ff1660ff16145b5b610cfd576040517f08c379a0000000000000000000000000000000000000000000000000000000008152600401610cf490614c5e565b60405180910390fd5b60016000806101000a81548160ff021916908360ff1602179055508015610d3a576001600060016101000a81548160ff0219169083151502179055505b610d42612e53565b610d4a612eac565b8b60cf60006101000a81548173ffffffffffffffffffffffffffffffffffffffff021916908373ffffffffffffffffffffffffffffffffffffffff160217905550610d948b612f05565b610d9d8a612f49565b8860d781905550600a670de0b6b3a76400006001610dbb91906152af565b610dc59190614fab565b60d8819055508760d960006101000a81548173ffffffffffffffffffffffffffffffffffffffff021916908373ffffffffffffffffffffffffffffffffffffffff1602179055508660ea60006101000a81548173ffffffffffffffffffffffffffffffffffffffff021916908373ffffffffffffffffffffffffffffffffffffffff1602179055508560eb60006101000a81548173ffffffffffffffffffffffffffffffffffffffff021916908373ffffffffffffffffffffffffffffffffffffffff1602179055508460e660006101000a81548173ffffffffffffffffffffffffffffffffffffffff021916908373ffffffffffffffffffffffffffffffffffffffff1602179055508360e760006101000a81548173ffffffffffffffffffffffffffffffffffffffff021916908373ffffffffffffffffffffffffffffffffffffffff1602179055508260e860006101000a81548173ffffffffffffffffffffffffffffffffffffffff021916908373ffffffffffffffffffffffffffffffffffffffff1602179055508160e960006101000a81548173ffffffffffffffffffffffffffffffffffffffff021916908373ffffffffffffffffffffffffffffffffffffffff160217905550600a60d160006101000a81548160ff021916908360ff1602179055504260d2819055506040518060600160405280602a8152602001615cac602a913960d49080519060200190610fe39291906139e0565b506040518060600160405280602e8152602001615cd6602e913960d590805190602001906110129291906139e0565b503360d360006101000a81548173ffffffffffffffffffffffffffffffffffffffff021916908373ffffffffffffffffffffffffffffffffffffffff16021790555080156110ad5760008060016101000a81548160ff0219169083151502179055507f7f26b83ff96e1f2b6a682f133852f6798a09c465da95921460cefb384740249860016040516110a49190614b81565b60405180910390a15b505050505050505050505050565b60e26020528060005260406000206000915090505481565b6110db612f8d565b600060d254426110eb9190615309565b9050600c603c80836110fd9190614fab565b6111079190614fab565b11611147576040517f08c379a000000000000000000000000000000000000000000000000000000000815260040161113e90614d5e565b60405180910390fd5b60648260ff161115801561115f575060018260ff1610155b61119e576040517f08c379a000000000000000000000000000000000000000000000000000000000815260040161119590614bbe565b60405180910390fd5b8160d160006101000a81548160ff021916908360ff1602179055504260d2819055505050565b6111cc612f8d565b600073ffffffffffffffffffffffffffffffffffffffff168173ffffffffffffffffffffffffffffffffffffffff16141561123c576040517f08c379a000000000000000000000000000000000000000000000000000000000815260040161123390614cde565b60405180910390fd5b8060d660006101000a81548173ffffffffffffffffffffffffffffffffffffffff021916908373ffffffffffffffffffffffffffffffffffffffff16021790555050565b60dc5481565b61128e612f8d565b8060e460006101000a81548173ffffffffffffffffffffffffffffffffffffffff021916908373ffffffffffffffffffffffffffffffffffffffff16021790555050565b6000609d60009054906101000a900460ff16905090565b60d960009054906101000a900473ffffffffffffffffffffffffffffffffffffffff1681565b611317612f8d565b8060ec60006101000a81548173ffffffffffffffffffffffffffffffffffffffff021916908373ffffffffffffffffffffffffffffffffffffffff16021790555050565b60e960009054906101000a900473ffffffffffffffffffffffffffffffffffffffff1681565b611389612f8d565b611393600061300b565b565b61139d612f8d565b600073ffffffffffffffffffffffffffffffffffffffff168173ffffffffffffffffffffffffffffffffffffffff16141561140d576040517f08c379a000000000000000000000000000000000000000000000000000000000815260040161140490614cbe565b60405180910390fd5b8060d960006101000a81548173ffffffffffffffffffffffffffffffffffffffff021916908373ffffffffffffffffffffffffffffffffffffffff16021790555050565b60e860009054906101000a900473ffffffffffffffffffffffffffffffffffffffff1681565b60008061159860d4805461148a90615585565b80601f01602080910402602001604051908101604052809291908181526020018280546114b690615585565b80156115035780601f106114d857610100808354040283529160200191611503565b820191906000526020600020905b8154815290600101906020018083116114e657829003601f168201915b505050505060d5805461151590615585565b80601f016020809104026020016040519081016040528092919081815260200182805461154190615585565b801561158e5780601f106115635761010080835404028352916020019161158e565b820191906000526020600020905b81548152906001019060200180831161157157829003601f168201915b5050505050610a0a565b905060006115b060d7543063897b8dc560e01b6130d1565b90506115fc6040518060400160405280600381526020017f676574000000000000000000000000000000000000000000000000000000000081525083836131029092919063ffffffff16565b61167b6040518060400160405280600581526020017f70617468310000000000000000000000000000000000000000000000000000008152506040518060400160405280600e81526020017f726573756c74732c746f6b656e73000000000000000000000000000000000000815250836131029092919063ffffffff16565b6116fa6040518060400160405280600581526020017f70617468320000000000000000000000000000000000000000000000000000008152506040518060400160405280601481526020017f726573756c74732c6d61726b6574536861726573000000000000000000000000815250836131029092919063ffffffff16565b6117796040518060400160405280600581526020017f70617468330000000000000000000000000000000000000000000000000000008152506040518060400160405280601081526020017f726573756c74732c737761704665657300000000000000000000000000000000815250836131029092919063ffffffff16565b61178d611784613135565b8260d85461315f565b9250505090565b60006005600083815260200190815260200160002060009054906101000a900473ffffffffffffffffffffffffffffffffffffffff169050919050565b836005600082815260200190815260200160002060009054906101000a900473ffffffffffffffffffffffffffffffffffffffff1673ffffffffffffffffffffffffffffffffffffffff163373ffffffffffffffffffffffffffffffffffffffff1614611873576040517f08c379a000000000000000000000000000000000000000000000000000000000815260040161186a90614cfe565b60405180910390fd5b6005600082815260200190815260200160002060006101000a81549073ffffffffffffffffffffffffffffffffffffffff0219169055807f7cc135e0cebb02c3480ae5d74d377283180a2601f8f644edf7987b009316c63a60405160405180910390a2825184511480156118e8575081518351145b611927576040517f08c379a000000000000000000000000000000000000000000000000000000000815260040161191e90614d3e565b60405180910390fd5b60008490506000849050600084905060005b8351811015611c75578381815181106119555761195461571d565b5b602002602001015160dd600083815260200190815260200160002060006101000a81548173ffffffffffffffffffffffffffffffffffffffff021916908373ffffffffffffffffffffffffffffffffffffffff1602179055508060df60008684815181106119c6576119c561571d565b5b602002602001015173ffffffffffffffffffffffffffffffffffffffff1673ffffffffffffffffffffffffffffffffffffffff16815260200190815260200160002081905550828181518110611a1f57611a1e61571d565b5b602002602001015160e26000868481518110611a3e57611a3d61571d565b5b602002602001015173ffffffffffffffffffffffffffffffffffffffff1673ffffffffffffffffffffffffffffffffffffffff16815260200190815260200160002081905550818181518110611a9757611a9661571d565b5b602002602001015160e36000868481518110611ab657611ab561571d565b5b602002602001015173ffffffffffffffffffffffffffffffffffffffff1673ffffffffffffffffffffffffffffffffffffffff16815260200190815260200160002060006101000a81548162ffffff021916908362ffffff160217905550600060dc541415611c6257838181518110611b3257611b3161571d565b5b602002602001015160de600083815260200190815260200160002060006101000a81548173ffffffffffffffffffffffffffffffffffffffff021916908373ffffffffffffffffffffffffffffffffffffffff160217905550828181518110611b9e57611b9d61571d565b5b602002602001015160e16000868481518110611bbd57611bbc61571d565b5b602002602001015173ffffffffffffffffffffffffffffffffffffffff1673ffffffffffffffffffffffffffffffffffffffff168152602001908152602001600020819055508060e06000868481518110611c1b57611c1a61571d565b5b602002602001015173ffffffffffffffffffffffffffffffffffffffff1673ffffffffffffffffffffffffffffffffffffffff168152602001908152602001600020819055505b8080611c6d906155e8565b915050611939565b50825160db81905550600060dc541415611c9257825160dc819055505b4260da819055505050505050505050565b60e460009054906101000a900473ffffffffffffffffffffffffffffffffffffffff1673ffffffffffffffffffffffffffffffffffffffff163373ffffffffffffffffffffffffffffffffffffffff161480611d4c575060e560009054906101000a900473ffffffffffffffffffffffffffffffffffffffff1673ffffffffffffffffffffffffffffffffffffffff163373ffffffffffffffffffffffffffffffffffffffff16145b611d8b576040517f08c379a0000000000000000000000000000000000000000000000000000000008152600401611d8290614bde565b60405180910390fd5b60db5460dc8190555060005b60db54811015611ec257600060dd600083815260200190815260200160002060009054906101000a900473ffffffffffffffffffffffffffffffffffffffff1690508060de600084815260200190815260200160002060006101000a81548173ffffffffffffffffffffffffffffffffffffffff021916908373ffffffffffffffffffffffffffffffffffffffff16021790555060e260008273ffffffffffffffffffffffffffffffffffffffff1673ffffffffffffffffffffffffffffffffffffffff1681526020019081526020016000205460e160008373ffffffffffffffffffffffffffffffffffffffff1673ffffffffffffffffffffffffffffffffffffffff16815260200190815260200160002081905550508080611eba906155e8565b915050611d97565b50565b60df6020528060005260406000206000915090505481565b6000603860009054906101000a900473ffffffffffffffffffffffffffffffffffffffff16905090565b60e06020528060005260406000206000915090505481565b60e460009054906101000a900473ffffffffffffffffffffffffffffffffffffffff1681565b60d160009054906101000a900460ff1681565b60de6020528060005260406000206000915054906101000a900473ffffffffffffffffffffffffffffffffffffffff1681565b611f93612f8d565b8160d49080519060200190611fa99291906139e0565b508060d59080519060200190611fc09291906139e0565b505050565b60008060005b60dc548110156123345760ea60009054906101000a900473ffffffffffffffffffffffffffffffffffffffff1673ffffffffffffffffffffffffffffffffffffffff1660de600083815260200190815260200160002060009054906101000a900473ffffffffffffffffffffffffffffffffffffffff1673ffffffffffffffffffffffffffffffffffffffff16141561214e5760de600082815260200190815260200160002060009054906101000a900473ffffffffffffffffffffffffffffffffffffffff1673ffffffffffffffffffffffffffffffffffffffff166370a0823160cf60009054906101000a900473ffffffffffffffffffffffffffffffffffffffff166040518263ffffffff1660e01b81526004016120ec9190614927565b60206040518083038186803b15801561210457600080fd5b505afa158015612118573d6000803e3d6000fd5b505050506040513d601f19601f8201168201806040525081019061213c9190614387565b826121479190614f55565b9150612321565b600061230f60de600084815260200190815260200160002060009054906101000a900473ffffffffffffffffffffffffffffffffffffffff1660ea60009054906101000a900473ffffffffffffffffffffffffffffffffffffffff1660de600086815260200190815260200160002060009054906101000a900473ffffffffffffffffffffffffffffffffffffffff1673ffffffffffffffffffffffffffffffffffffffff166370a0823160cf60009054906101000a900473ffffffffffffffffffffffffffffffffffffffff166040518263ffffffff1660e01b81526004016122389190614927565b60206040518083038186803b15801561225057600080fd5b505afa158015612264573d6000803e3d6000fd5b505050506040513d601f19601f820116820180604052508101906122889190614387565b60e3600060de600089815260200190815260200160002060009054906101000a900473ffffffffffffffffffffffffffffffffffffffff1673ffffffffffffffffffffffffffffffffffffffff1673ffffffffffffffffffffffffffffffffffffffff16815260200190815260200160002060009054906101000a900462ffffff16612896565b9050808361231d9190614f55565b9250505b808061232c906155e8565b915050611fcb565b508091505090565b60d75481565b61234a612f8d565b60008390506000839050600083905060005b8351811015612698578381815181106123785761237761571d565b5b602002602001015160dd600083815260200190815260200160002060006101000a81548173ffffffffffffffffffffffffffffffffffffffff021916908373ffffffffffffffffffffffffffffffffffffffff1602179055508060df60008684815181106123e9576123e861571d565b5b602002602001015173ffffffffffffffffffffffffffffffffffffffff1673ffffffffffffffffffffffffffffffffffffffff168152602001908152602001600020819055508281815181106124425761244161571d565b5b602002602001015160e260008684815181106124615761246061571d565b5b602002602001015173ffffffffffffffffffffffffffffffffffffffff1673ffffffffffffffffffffffffffffffffffffffff168152602001908152602001600020819055508181815181106124ba576124b961571d565b5b602002602001015160e360008684815181106124d9576124d861571d565b5b602002602001015173ffffffffffffffffffffffffffffffffffffffff1673ffffffffffffffffffffffffffffffffffffffff16815260200190815260200160002060006101000a81548162ffffff021916908362ffffff160217905550600060dc541415612685578381815181106125555761255461571d565b5b602002602001015160de600083815260200190815260200160002060006101000a81548173ffffffffffffffffffffffffffffffffffffffff021916908373ffffffffffffffffffffffffffffffffffffffff1602179055508281815181106125c1576125c061571d565b5b602002602001015160e160008684815181106125e0576125df61571d565b5b602002602001015173ffffffffffffffffffffffffffffffffffffffff1673ffffffffffffffffffffffffffffffffffffffff168152602001908152602001600020819055508060e0600086848151811061263e5761263d61571d565b5b602002602001015173ffffffffffffffffffffffffffffffffffffffff1673ffffffffffffffffffffffffffffffffffffffff168152602001908152602001600020819055505b8080612690906155e8565b91505061235c565b50825160db81905550600060dc5414156126b557825160dc819055505b4260da81905550505050505050565b60d360009054906101000a900473ffffffffffffffffffffffffffffffffffffffff1681565b6126f2612f8d565b600073ffffffffffffffffffffffffffffffffffffffff168173ffffffffffffffffffffffffffffffffffffffff161415612762576040517f08c379a000000000000000000000000000000000000000000000000000000000815260040161275990614c9e565b60405180910390fd5b80606a60006101000a81548173ffffffffffffffffffffffffffffffffffffffff021916908373ffffffffffffffffffffffffffffffffffffffff16021790555050565b60e660009054906101000a900473ffffffffffffffffffffffffffffffffffffffff1681565b60eb60009054906101000a900473ffffffffffffffffffffffffffffffffffffffff1681565b60db5481565b60da5481565b60e560009054906101000a900473ffffffffffffffffffffffffffffffffffffffff1681565b606a60009054906101000a900473ffffffffffffffffffffffffffffffffffffffff1681565b612852612f8d565b8060e560006101000a81548173ffffffffffffffffffffffffffffffffffffffff021916908373ffffffffffffffffffffffffffffffffffffffff16021790555050565b600080831115612a855760008262ffffff1611156128c1576128ba85858585612ab9565b9050612a84565b6000600267ffffffffffffffff8111156128de576128dd61574c565b5b60405190808252806020026020018201604052801561290c5781602001602082028036833780820191505090505b50905085816000815181106129245761292361571d565b5b602002602001019073ffffffffffffffffffffffffffffffffffffffff16908173ffffffffffffffffffffffffffffffffffffffff168152505084816001815181106129735761297261571d565b5b602002602001019073ffffffffffffffffffffffffffffffffffffffff16908173ffffffffffffffffffffffffffffffffffffffff1681525050600060e860009054906101000a900473ffffffffffffffffffffffffffffffffffffffff1673ffffffffffffffffffffffffffffffffffffffff1663d06ca61f86846040518363ffffffff1660e01b8152600401612a0c929190614db4565b60006040518083038186803b158015612a2457600080fd5b505afa158015612a38573d6000803e3d6000fd5b505050506040513d6000823e3d601f19601f82011682018060405250810190612a619190614184565b905080600181518110612a7757612a7661571d565b5b6020026020010151925050505b5b949350505050565b60d05481565b60cf60009054906101000a900473ffffffffffffffffffffffffffffffffffffffff1681565b600060d660009054906101000a900473ffffffffffffffffffffffffffffffffffffffff1673ffffffffffffffffffffffffffffffffffffffff1663bb5705b360e760009054906101000a900473ffffffffffffffffffffffffffffffffffffffff16878787876040518663ffffffff1660e01b8152600401612b40959493929190614942565b60206040518083038186803b158015612b5857600080fd5b505afa158015612b6c573d6000803e3d6000fd5b505050506040513d601f19601f82011682018060405250810190612b909190614387565b9050949350505050565b612ba2612f8d565b8060d360006101000a81548173ffffffffffffffffffffffffffffffffffffffff021916908373ffffffffffffffffffffffffffffffffffffffff1602179055508073ffffffffffffffffffffffffffffffffffffffff167fbdf37c276f641820b141429d245add2552b4118c0866e5a78638e3de5ef18d9d60405160405180910390a250565b600073ffffffffffffffffffffffffffffffffffffffff168173ffffffffffffffffffffffffffffffffffffffff161415612c99576040517f08c379a0000000000000000000000000000000000000000000000000000000008152600401612c9090614c9e565b60405180910390fd5b606a60009054906101000a900473ffffffffffffffffffffffffffffffffffffffff1673ffffffffffffffffffffffffffffffffffffffff168173ffffffffffffffffffffffffffffffffffffffff1614612d29576040517f08c379a0000000000000000000000000000000000000000000000000000000008152600401612d2090614c1e565b60405180910390fd5b3373ffffffffffffffffffffffffffffffffffffffff168173ffffffffffffffffffffffffffffffffffffffff1614612d97576040517f08c379a0000000000000000000000000000000000000000000000000000000008152600401612d8e90614c3e565b60405180910390fd5b612da08161300b565b50565b60ec60009054906101000a900473ffffffffffffffffffffffffffffffffffffffff1681565b60008260ff168260ff161115612e03578282612de5919061533d565b600a612df1919061507a565b84612dfc9190615198565b9050612e29565b8183612e0f919061533d565b600a612e1b919061507a565b84612e269190615198565b90505b9392505050565b6000808273ffffffffffffffffffffffffffffffffffffffff163b119050919050565b600060019054906101000a900460ff16612ea2576040517f08c379a0000000000000000000000000000000000000000000000000000000008152600401612e9990614d1e565b60405180910390fd5b612eaa61322b565b565b600060019054906101000a900460ff16612efb576040517f08c379a0000000000000000000000000000000000000000000000000000000008152600401612ef290614d1e565b60405180910390fd5b612f0361328c565b565b80600260006101000a81548173ffffffffffffffffffffffffffffffffffffffff021916908373ffffffffffffffffffffffffffffffffffffffff16021790555050565b80600360006101000a81548173ffffffffffffffffffffffffffffffffffffffff021916908373ffffffffffffffffffffffffffffffffffffffff16021790555050565b612f956132f8565b73ffffffffffffffffffffffffffffffffffffffff16612fb3611edd565b73ffffffffffffffffffffffffffffffffffffffff1614613009576040517f08c379a000000000000000000000000000000000000000000000000000000000815260040161300090614c7e565b60405180910390fd5b565b6000603860009054906101000a900473ffffffffffffffffffffffffffffffffffffffff16905081603860006101000a81548173ffffffffffffffffffffffffffffffffffffffff021916908373ffffffffffffffffffffffffffffffffffffffff1602179055508173ffffffffffffffffffffffffffffffffffffffff168173ffffffffffffffffffffffffffffffffffffffff167f8be0079c531659141344cd1fd0a4f28419497f9722a3daafe3b4186f6b6457e060405160405180910390a35050565b6130d9613a66565b6130e1613a66565b6130f885858584613300909392919063ffffffff16565b9150509392505050565b6131198284608001516133b090919063ffffffff16565b6131308184608001516133b090919063ffffffff16565b505050565b6000600360009054906101000a900473ffffffffffffffffffffffffffffffffffffffff16905090565b60008060045490506001816131749190614f55565b6004819055506000634042994660e01b60008087600001513089604001518760018c60800151600001516040516024016131b5989796959493929190614995565b604051602081830303815290604052907bffffffffffffffffffffffffffffffffffffffffffffffffffffffff19166020820180517bffffffffffffffffffffffffffffffffffffffffffffffffffffffff83818316178352505050509050613220868386846133d5565b925050509392505050565b600060019054906101000a900460ff1661327a576040517f08c379a000000000000000000000000000000000000000000000000000000000815260040161327190614d1e565b60405180910390fd5b61328a6132856132f8565b61300b565b565b600060019054906101000a900460ff166132db576040517f08c379a00000000000000000000000000000000000000000000000000000000081526004016132d290614d1e565b60405180910390fd5b6000609d60006101000a81548160ff021916908315150217905550565b600033905090565b613308613a66565b6133188560800151610100613579565b508385600001818152505082856020019073ffffffffffffffffffffffffffffffffffffffff16908173ffffffffffffffffffffffffffffffffffffffff16815250508185604001907bffffffffffffffffffffffffffffffffffffffffffffffffffffffff191690817bffffffffffffffffffffffffffffffffffffffffffffffffffffffff191681525050849050949350505050565b6133bd82600383516135e3565b6133d0818361376890919063ffffffff16565b505050565b600030846040516020016133ea9291906148fb565b604051602081830303815290604052805190602001209050846005600083815260200190815260200160002060006101000a81548173ffffffffffffffffffffffffffffffffffffffff021916908373ffffffffffffffffffffffffffffffffffffffff160217905550807fb5e6e01e79f91267dc17b4e6314d5d4d03593d2ceee0fbb452b750bd70ea5af960405160405180910390a2600260009054906101000a900473ffffffffffffffffffffffffffffffffffffffff1673ffffffffffffffffffffffffffffffffffffffff16634000aea08685856040518463ffffffff1660e01b81526004016134e093929190614a1a565b602060405180830381600087803b1580156134fa57600080fd5b505af115801561350e573d6000803e3d6000fd5b505050506040513d601f19601f8201168201806040525081019061353291906141cd565b613571576040517f08c379a000000000000000000000000000000000000000000000000000000000815260040161356890614bfe565b60405180910390fd5b949350505050565b613581613ad3565b6000602083613590919061565f565b146135bc576020826135a2919061565f565b60206135ae9190615309565b826135b99190614f55565b91505b81836020018181525050604051808452600081528281016020016040525082905092915050565b60178167ffffffffffffffff161161361a576136148160058460ff16901b60ff16178461378a90919063ffffffff16565b50613763565b60ff8167ffffffffffffffff161161367057613649601860058460ff16901b178461378a90919063ffffffff16565b5061366a8167ffffffffffffffff166001856137aa9092919063ffffffff16565b50613762565b61ffff8167ffffffffffffffff16116136c7576136a0601960058460ff16901b178461378a90919063ffffffff16565b506136c18167ffffffffffffffff166002856137aa9092919063ffffffff16565b50613761565b63ffffffff8167ffffffffffffffff1611613720576136f9601a60058460ff16901b178461378a90919063ffffffff16565b5061371a8167ffffffffffffffff166004856137aa9092919063ffffffff16565b50613760565b61373d601b60058460ff16901b178461378a90919063ffffffff16565b5061375e8167ffffffffffffffff166008856137aa9092919063ffffffff16565b505b5b5b5b505050565b613770613ad3565b613782838460000151518485516137cc565b905092915050565b613792613ad3565b6137a283846000015151846138bb565b905092915050565b6137b2613ad3565b6137c3848560000151518585613912565b90509392505050565b6137d4613ad3565b82518211156137e257600080fd5b846020015182856137f39190614f55565b111561382857613827856002613818886020015188876138139190614f55565b6139a0565b61382291906152af565b6139bc565b5b6000808651805187602083010193508088870111156138475787860182525b60208701925050505b6020841061388e57805182526020826138699190614f55565b91506020816138789190614f55565b90506020846138879190615309565b9350613850565b60006001856020036101000a03905080198251168184511681811785525050508692505050949350505050565b6138c3613ad3565b836020015183106138e9576138e884600286602001516138e391906152af565b6139bc565b5b8351805160208583010184815381861415613905576001820183525b5050508390509392505050565b61391a613ad3565b8460200151848361392b9190614f55565b11156139535761395285600286856139439190614f55565b61394d91906152af565b6139bc565b5b6000600183610100613965919061502f565b61396f9190615309565b905085518386820101858319825116178152815185880111156139925784870182525b505085915050949350505050565b6000818311156139b2578290506139b6565b8190505b92915050565b6000826000015190506139cf8383613579565b506139da8382613768565b50505050565b8280546139ec90615585565b90600052602060002090601f016020900481019282613a0e5760008555613a55565b82601f10613a2757805160ff1916838001178555613a55565b82800160010185558215613a55579182015b82811115613a54578251825591602001919060010190613a39565b5b509050613a629190613aed565b5090565b6040518060a0016040528060008019168152602001600073ffffffffffffffffffffffffffffffffffffffff16815260200160007bffffffffffffffffffffffffffffffffffffffffffffffffffffffff1916815260200160008152602001613acd613ad3565b81525090565b604051806040016040528060608152602001600081525090565b5b80821115613b06576000816000905550600101613aee565b5090565b6000613b1d613b1884614e24565b614dff565b90508083825260208201905082856020860282011115613b4057613b3f615780565b5b60005b85811015613b705781613b568882613d0c565b845260208401935060208301925050600181019050613b43565b5050509392505050565b6000613b8d613b8884614e50565b614dff565b90508083825260208201905082856020860282011115613bb057613baf615780565b5b60005b85811015613be05781613bc68882613e70565b845260208401935060208301925050600181019050613bb3565b5050509392505050565b6000613bfd613bf884614e7c565b614dff565b90508083825260208201905082856020860282011115613c2057613c1f615780565b5b60005b85811015613c505781613c368882613e85565b845260208401935060208301925050600181019050613c23565b5050509392505050565b6000613c6d613c6884614e7c565b614dff565b90508083825260208201905082856020860282011115613c9057613c8f615780565b5b60005b85811015613cc05781613ca68882613e9a565b845260208401935060208301925050600181019050613c93565b5050509392505050565b6000613cdd613cd884614ea8565b614dff565b905082815260208101848484011115613cf957613cf8615785565b5b613d04848285615543565b509392505050565b600081359050613d1b81615bc5565b92915050565b600081359050613d3081615bdc565b92915050565b600082601f830112613d4b57613d4a61577b565b5b8135613d5b848260208601613b0a565b91505092915050565b600082601f830112613d7957613d7861577b565b5b8135613d89848260208601613b7a565b91505092915050565b600082601f830112613da757613da661577b565b5b8135613db7848260208601613bea565b91505092915050565b600082601f830112613dd557613dd461577b565b5b8151613de5848260208601613c5a565b91505092915050565b600081519050613dfd81615bf3565b92915050565b600081359050613e1281615c0a565b92915050565b600081519050613e2781615c21565b92915050565b600082601f830112613e4257613e4161577b565b5b8135613e52848260208601613cca565b91505092915050565b600081359050613e6a81615c38565b92915050565b600081359050613e7f81615c4f565b92915050565b600081359050613e9481615c66565b92915050565b600081519050613ea981615c66565b92915050565b600081359050613ebe81615c7d565b92915050565b600081519050613ed381615c94565b92915050565b600081519050613ee881615c7d565b92915050565b600060208284031215613f0457613f0361578f565b5b6000613f1284828501613d0c565b91505092915050565b60008060008060008060008060008060006101608c8e031215613f4157613f4061578f565b5b6000613f4f8e828f01613d21565b9b50506020613f608e828f01613d0c565b9a50506040613f718e828f01613d0c565b9950506060613f828e828f01613e03565b9850506080613f938e828f01613d0c565b97505060a0613fa48e828f01613d0c565b96505060c0613fb58e828f01613d0c565b95505060e0613fc68e828f01613d0c565b945050610100613fd88e828f01613d0c565b935050610120613fea8e828f01613d0c565b925050610140613ffc8e828f01613d0c565b9150509295989b509295989b9093969950565b600080600080608085870312156140295761402861578f565b5b600061403787828801613d0c565b945050602061404887828801613d0c565b935050604061405987828801613e5b565b925050606061406a87828801613e70565b91505092959194509250565b600080600080608085870312156140905761408f61578f565b5b600061409e87828801613d0c565b94505060206140af87828801613d0c565b93505060406140c087828801613e85565b92505060606140d187828801613e70565b91505092959194509250565b6000806000606084860312156140f6576140f561578f565b5b600084013567ffffffffffffffff8111156141145761411361578a565b5b61412086828701613d36565b935050602084013567ffffffffffffffff8111156141415761414061578a565b5b61414d86828701613d92565b925050604084013567ffffffffffffffff81111561416e5761416d61578a565b5b61417a86828701613d64565b9150509250925092565b60006020828403121561419a5761419961578f565b5b600082015167ffffffffffffffff8111156141b8576141b761578a565b5b6141c484828501613dc0565b91505092915050565b6000602082840312156141e3576141e261578f565b5b60006141f184828501613dee565b91505092915050565b6000602082840312156142105761420f61578f565b5b600061421e84828501613e03565b91505092915050565b600080600080608085870312156142415761424061578f565b5b600061424f87828801613e03565b945050602085013567ffffffffffffffff8111156142705761426f61578a565b5b61427c87828801613d36565b935050604085013567ffffffffffffffff81111561429d5761429c61578a565b5b6142a987828801613d92565b925050606085013567ffffffffffffffff8111156142ca576142c961578a565b5b6142d687828801613d64565b91505092959194509250565b600080604083850312156142f9576142f861578f565b5b600083013567ffffffffffffffff8111156143175761431661578a565b5b61432385828601613e2d565b925050602083013567ffffffffffffffff8111156143445761434361578a565b5b61435085828601613e2d565b9150509250929050565b6000602082840312156143705761436f61578f565b5b600061437e84828501613e85565b91505092915050565b60006020828403121561439d5761439c61578f565b5b60006143ab84828501613e9a565b91505092915050565b6000602082840312156143ca576143c961578f565b5b60006143d884828501613eaf565b91505092915050565b600080600080600060a086880312156143fd576143fc61578f565b5b600061440b88828901613ec4565b955050602061441c88828901613e18565b945050604061442d88828901613e9a565b935050606061443e88828901613e9a565b925050608061444f88828901613ec4565b9150509295509295909350565b6000602082840312156144725761447161578f565b5b600061448084828501613ed9565b91505092915050565b600061449583836144a1565b60208301905092915050565b6144aa81615371565b82525050565b6144b981615371565b82525050565b60006144ca82614ee9565b6144d48185614f17565b93506144df83614ed9565b8060005b838110156145105781516144f78882614489565b975061450283614f0a565b9250506001810190506144e3565b5085935050505092915050565b61452681615395565b82525050565b614535816153a1565b82525050565b614544816153ab565b82525050565b600061455582614ef4565b61455f8185614f28565b935061456f818560208601615552565b61457881615794565b840191505092915050565b600061458e82614ef4565b6145988185614f39565b93506145a8818560208601615552565b80840191505092915050565b6145bd81615459565b82525050565b6145d46145cf8261546b565b615631565b82525050565b6145e38161547d565b82525050565b6145f28161548f565b82525050565b614601816154a1565b82525050565b614610816154b3565b82525050565b61461f816154c5565b82525050565b61462e816154d7565b82525050565b61463d816154e9565b82525050565b61464c816154fb565b82525050565b61465b8161550d565b82525050565b600061466c82614eff565b6146768185614f44565b9350614686818560208601615552565b61468f81615794565b840191505092915050565b60006146a7603383614f44565b91506146b2826157bf565b604082019050919050565b60006146ca602083614f44565b91506146d58261580e565b602082019050919050565b60006146ed602383614f44565b91506146f882615837565b604082019050919050565b6000614710603283614f44565b915061471b82615886565b604082019050919050565b6000614733603a83614f44565b915061473e826158d5565b604082019050919050565b6000614756602e83614f44565b915061476182615924565b604082019050919050565b6000614779602083614f44565b915061478482615973565b602082019050919050565b600061479c603083614f44565b91506147a78261599c565b604082019050919050565b60006147bf602e83614f44565b91506147ca826159eb565b604082019050919050565b60006147e2602b83614f44565b91506147ed82615a3a565b604082019050919050565b6000614805602883614f44565b915061481082615a89565b604082019050919050565b6000614828602b83614f44565b915061483382615ad8565b604082019050919050565b600061484b602b83614f44565b915061485682615b27565b604082019050919050565b600061486e603983614f44565b915061487982615b76565b604082019050919050565b61488d816153e1565b82525050565b61489c8161541d565b82525050565b6148ab8161542c565b82525050565b6148c26148bd8261542c565b615655565b82525050565b6148d181615436565b82525050565b60006148e38285614583565b91506148ef8284614583565b91508190509392505050565b600061490782856145c3565b60148201915061491782846148b1565b6020820191508190509392505050565b600060208201905061493c60008301846144b0565b92915050565b600060a08201905061495760008301886144b0565b61496460208301876144b0565b61497160408301866144b0565b61497e6060830185614884565b61498b6080830184614893565b9695505050505050565b6000610100820190506149ab600083018b6144b0565b6149b8602083018a6148a2565b6149c5604083018961452c565b6149d260608301886144b0565b6149df608083018761453b565b6149ec60a08301866148a2565b6149f960c08301856148a2565b81810360e0830152614a0b818461454a565b90509998505050505050505050565b6000606082019050614a2f60008301866144b0565b614a3c60208301856148a2565b8181036040830152614a4e818461454a565b9050949350505050565b6000602082019050614a6d600083018461451d565b92915050565b6000602082019050614a88600083018461452c565b92915050565b6000602082019050614aa360008301846145b4565b92915050565b6000602082019050614abe60008301846145da565b92915050565b6000602082019050614ad960008301846145e9565b92915050565b6000602082019050614af460008301846145f8565b92915050565b6000602082019050614b0f6000830184614607565b92915050565b6000602082019050614b2a6000830184614616565b92915050565b6000602082019050614b456000830184614625565b92915050565b6000602082019050614b606000830184614634565b92915050565b6000602082019050614b7b6000830184614643565b92915050565b6000602082019050614b966000830184614652565b92915050565b60006020820190508181036000830152614bb68184614661565b905092915050565b60006020820190508181036000830152614bd78161469a565b9050919050565b60006020820190508181036000830152614bf7816146bd565b9050919050565b60006020820190508181036000830152614c17816146e0565b9050919050565b60006020820190508181036000830152614c3781614703565b9050919050565b60006020820190508181036000830152614c5781614726565b9050919050565b60006020820190508181036000830152614c7781614749565b9050919050565b60006020820190508181036000830152614c978161476c565b9050919050565b60006020820190508181036000830152614cb78161478f565b9050919050565b60006020820190508181036000830152614cd7816147b2565b9050919050565b60006020820190508181036000830152614cf7816147d5565b9050919050565b60006020820190508181036000830152614d17816147f8565b9050919050565b60006020820190508181036000830152614d378161481b565b9050919050565b60006020820190508181036000830152614d578161483e565b9050919050565b60006020820190508181036000830152614d7781614861565b9050919050565b6000602082019050614d936000830184614893565b92915050565b6000602082019050614dae60008301846148a2565b92915050565b6000604082019050614dc960008301856148a2565b8181036020830152614ddb81846144bf565b90509392505050565b6000602082019050614df960008301846148c8565b92915050565b6000614e09614e1a565b9050614e1582826155b7565b919050565b6000604051905090565b600067ffffffffffffffff821115614e3f57614e3e61574c565b5b602082029050602081019050919050565b600067ffffffffffffffff821115614e6b57614e6a61574c565b5b602082029050602081019050919050565b600067ffffffffffffffff821115614e9757614e9661574c565b5b602082029050602081019050919050565b600067ffffffffffffffff821115614ec357614ec261574c565b5b614ecc82615794565b9050602081019050919050565b6000819050602082019050919050565b600081519050919050565b600081519050919050565b600081519050919050565b6000602082019050919050565b600082825260208201905092915050565b600082825260208201905092915050565b600081905092915050565b600082825260208201905092915050565b6000614f608261542c565b9150614f6b8361542c565b9250827fffffffffffffffffffffffffffffffffffffffffffffffffffffffffffffffff03821115614fa057614f9f615690565b5b828201905092915050565b6000614fb68261542c565b9150614fc18361542c565b925082614fd157614fd06156bf565b5b828204905092915050565b6000808291508390505b60018511156150265780860481111561500257615001615690565b5b60018516156150115780820291505b808102905061501f856157b2565b9450614fe6565b94509492505050565b600061503a8261542c565b91506150458361542c565b92506150727fffffffffffffffffffffffffffffffffffffffffffffffffffffffffffffffff84846150c5565b905092915050565b60006150858261542c565b915061509083615436565b92506150bd7fffffffffffffffffffffffffffffffffffffffffffffffffffffffffffffffff84846150c5565b905092915050565b6000826150d55760019050615191565b816150e35760009050615191565b81600181146150f9576002811461510357615132565b6001915050615191565b60ff84111561511557615114615690565b5b8360020a91508482111561512c5761512b615690565b5b50615191565b5060208310610133831016604e8410600b84101617156151675782820a90508381111561516257615161615690565b5b615191565b6151748484846001614fdc565b9250905081840481111561518b5761518a615690565b5b81810290505b9392505050565b60006151a3826153d7565b91506151ae836153d7565b9250827f7fffffffffffffffffffffffffffffffffffffffffffffffffffffffffffffff04821160008413600084131616156151ed576151ec615690565b5b817f8000000000000000000000000000000000000000000000000000000000000000058312600084126000841316161561522a57615229615690565b5b827f8000000000000000000000000000000000000000000000000000000000000000058212600084136000841216161561526757615266615690565b5b827f7fffffffffffffffffffffffffffffffffffffffffffffffffffffffffffffff05821260008412600084121616156152a4576152a3615690565b5b828202905092915050565b60006152ba8261542c565b91506152c58361542c565b9250817fffffffffffffffffffffffffffffffffffffffffffffffffffffffffffffffff04831182151516156152fe576152fd615690565b5b828202905092915050565b60006153148261542c565b915061531f8361542c565b92508282101561533257615331615690565b5b828203905092915050565b600061534882615436565b915061535383615436565b92508282101561536657615365615690565b5b828203905092915050565b600061537c826153fd565b9050919050565b600061538e826153fd565b9050919050565b60008115159050919050565b6000819050919050565b60007fffffffff0000000000000000000000000000000000000000000000000000000082169050919050565b6000819050919050565b60006fffffffffffffffffffffffffffffffff82169050919050565b600073ffffffffffffffffffffffffffffffffffffffff82169050919050565b600062ffffff82169050919050565b6000819050919050565b600060ff82169050919050565b600069ffffffffffffffffffff82169050919050565b60006154648261551f565b9050919050565b60006154768261551f565b9050919050565b60006154888261551f565b9050919050565b600061549a8261551f565b9050919050565b60006154ac8261551f565b9050919050565b60006154be8261551f565b9050919050565b60006154d08261551f565b9050919050565b60006154e28261551f565b9050919050565b60006154f48261551f565b9050919050565b60006155068261551f565b9050919050565b600061551882615436565b9050919050565b600061552a82615531565b9050919050565b600061553c826153fd565b9050919050565b82818337600083830152505050565b60005b83811015615570578082015181840152602081019050615555565b8381111561557f576000848401525b50505050565b6000600282049050600182168061559d57607f821691505b602082108114156155b1576155b06156ee565b5b50919050565b6155c082615794565b810181811067ffffffffffffffff821117156155df576155de61574c565b5b80604052505050565b60006155f38261542c565b91507fffffffffffffffffffffffffffffffffffffffffffffffffffffffffffffffff82141561562657615625615690565b5b600182019050919050565b600061563c82615643565b9050919050565b600061564e826157a5565b9050919050565b6000819050919050565b600061566a8261542c565b91506156758361542c565b925082615685576156846156bf565b5b828206905092915050565b7f4e487b7100000000000000000000000000000000000000000000000000000000600052601160045260246000fd5b7f4e487b7100000000000000000000000000000000000000000000000000000000600052601260045260246000fd5b7f4e487b7100000000000000000000000000000000000000000000000000000000600052602260045260246000fd5b7f4e487b7100000000000000000000000000000000000000000000000000000000600052603260045260246000fd5b7f4e487b7100000000000000000000000000000000000000000000000000000000600052604160045260246000fd5b600080fd5b600080fd5b600080fd5b600080fd5b600080fd5b6000601f19601f8301169050919050565b60008160601b9050919050565b60008160011c9050919050565b7f546865206e65774665652073686f756c64206265206265747765656e2031206160008201527f6e64203130302028302e303125202d2031252900000000000000000000000000602082015250565b7f43616c6c6572206973206e6f74206120666163746f727920636f6e7472616374600082015250565b7f756e61626c6520746f207472616e73666572416e6443616c6c20746f206f726160008201527f636c650000000000000000000000000000000000000000000000000000000000602082015250565b7f50726f706f7361626c654f776e61626c653a206e6577206f776e65722069732060008201527f6e6f742070726f706f736564206f776e65720000000000000000000000000000602082015250565b7f50726f706f7361626c654f776e61626c653a20746869732063616c6c206d757360008201527f74206265206d61646520627920746865206e6577206f776e6572000000000000602082015250565b7f496e697469616c697a61626c653a20636f6e747261637420697320616c72656160008201527f647920696e697469616c697a6564000000000000000000000000000000000000602082015250565b7f4f776e61626c653a2063616c6c6572206973206e6f7420746865206f776e6572600082015250565b7f50726f706f7361626c654f776e61626c653a206e6577206f776e65722069732060008201527f746865207a65726f206164647265737300000000000000000000000000000000602082015250565b7f49434f3a205072696365206665656420616464726573732063616e6e6f74206260008201527f65207a65726f2061646472657373000000000000000000000000000000000000602082015250565b7f5072696365206f7261636c6520616464726573732063616e6e6f74206265207a60008201527f65726f2061646472657373000000000000000000000000000000000000000000602082015250565b7f536f75726365206d75737420626520746865206f7261636c65206f662074686560008201527f2072657175657374000000000000000000000000000000000000000000000000602082015250565b7f496e697469616c697a61626c653a20636f6e7472616374206973206e6f74206960008201527f6e697469616c697a696e67000000000000000000000000000000000000000000602082015250565b7f546865206c656e677468206f6620746865206172726179732073686f756c642060008201527f6265207468652073616d65000000000000000000000000000000000000000000602082015250565b7f596f752073686f756c642077616974206174206c6561737420313220686f757260008201527f7320616674657220746865206c61746573742075706461746500000000000000602082015250565b615bce81615371565b8114615bd957600080fd5b50565b615be581615383565b8114615bf057600080fd5b50565b615bfc81615395565b8114615c0757600080fd5b50565b615c13816153a1565b8114615c1e57600080fd5b50565b615c2a816153d7565b8114615c3557600080fd5b50565b615c41816153e1565b8114615c4c57600080fd5b50565b615c588161541d565b8114615c6357600080fd5b50565b615c6f8161542c565b8114615c7a57600080fd5b50565b615c8681615436565b8114615c9157600080fd5b50565b615c9d81615443565b8114615ca857600080fd5b5056fe68747470733a2f2f6170702e6e65786c6162732e696f2f6170692f616c6c46756e64696e6752617465733f6d756c7469706c7946756e633d31382674696d65734e656746756e643d74727565266172726179733d74727565a2646970667358221220a97c76404f6cb50f7ff924d40a79c3e498d29fdf08fb78ac20c5e2e8efdeda6364736f6c63430008070033","linkReferences":{}},"methodIdentifiers":{"concatenation(string,string)":"0e329357","currentList(uint256)":"9932ba4c","estimateAmountOut(address,address,uint128,uint24)":"ee7bd3e2","externalJobId()":"a8b54bd4","factoryAddress()":"966dae0e","factoryBalancerAddress()":"cb4d4e09","factoryV2()":"68e0d4e1","factoryV3()":"1d5f45f5","fee()":"ddca3f43","feeRate()":"978bbdb9","feeReceiver()":"b3f00674","fulfillAssetsData(bytes32,address[],uint256[],uint24[])":"897b8dc5","getAmountOut(address,address,uint256,uint24)":"dd811ac9","getPendingRequest(bytes32)":"88b12d55","getPortfolioBalance()":"a8509fd8","indexToken()":"e7d015f2","initialize(address,address,address,bytes32,address,address,address,address,address,address,address)":"465a4c94","lastUpdateTime()":"c8f33c91","latestFeeUpdate()":"011ced5f","mockFillAssetsList(address[],uint256[],uint24[])":"af2bcb47","oracleList(uint256)":"239aad0d","oraclePayment()":"0c02e130","owner()":"8da5cb5b","paused()":"5c975abb","priceInWei()":"3c8da588","priceOracle()":"2630c12f","proposeOwner(address)":"b5ed298a","proposedOwner()":"d153b60c","quoter()":"c6bbd5a7","renounceOwnership()":"715018a6","requestAssetsData()":"7ca58c55","setFactory(address)":"5bb47808","setFactoryBalancer(address)":"d5fbea63","setFeeRate(uint8)":"5177942a","setFeeReceiver(address)":"efdcd974","setPriceFeed(address)":"724e78da","setPriceOracle(address)":"530e784f","setUrl(string,string)":"a73e1cbf","setVault(address)":"6817031b","swapRouterV2()":"744fbc7a","swapRouterV3()":"b631e80b","toUsdPriceFeed()":"63973fda","tokenCurrentListIndex(address)":"914f0cc6","tokenCurrentMarketShare(address)":"0be52713","tokenOracleListIndex(address)":"8c88c10c","tokenOracleMarketShare(address)":"4b3e0b80","tokenSwapFee(address)":"32599665","totalCurrentList()":"53fd4332","totalOracleList()":"c8599ded","transferOwnership(address)":"f2fde38b","updateCurrentList()":"8baa6bf1","vault()":"fbfa77cf","weth()":"3fc8cef3"},"id":4}