{"abi":[{"type":"function","name":"concatenation","inputs":[{"name":"a","type":"string","internalType":"string"},{"name":"b","type":"string","internalType":"string"}],"outputs":[{"name":"","type":"string","internalType":"string"}],"stateMutability":"pure"},{"type":"function","name":"currentList","inputs":[{"name":"","type":"uint256","internalType":"uint256"}],"outputs":[{"name":"","type":"address","internalType":"address"}],"stateMutability":"view"},{"type":"function","name":"estimateAmountOut","inputs":[{"name":"tokenIn","type":"address","internalType":"address"},{"name":"tokenOut","type":"address","internalType":"address"},{"name":"amountIn","type":"uint128","internalType":"uint128"},{"name":"swapFee","type":"uint24","internalType":"uint24"}],"outputs":[{"name":"amountOut","type":"uint256","internalType":"uint256"}],"stateMutability":"view"},{"type":"function","name":"externalJobId","inputs":[],"outputs":[{"name":"","type":"bytes32","internalType":"bytes32"}],"stateMutability":"view"},{"type":"function","name":"factoryAddress","inputs":[],"outputs":[{"name":"","type":"address","internalType":"address"}],"stateMutability":"view"},{"type":"function","name":"factoryBalancerAddress","inputs":[],"outputs":[{"name":"","type":"address","internalType":"address"}],"stateMutability":"view"},{"type":"function","name":"factoryV2","inputs":[],"outputs":[{"name":"","type":"address","internalType":"contract IUniswapV2Factory"}],"stateMutability":"view"},{"type":"function","name":"factoryV3","inputs":[],"outputs":[{"name":"","type":"address","internalType":"contract IUniswapV3Factory"}],"stateMutability":"view"},{"type":"function","name":"fee","inputs":[],"outputs":[{"name":"","type":"uint256","internalType":"uint256"}],"stateMutability":"view"},{"type":"function","name":"feeRate","inputs":[],"outputs":[{"name":"","type":"uint8","internalType":"uint8"}],"stateMutability":"view"},{"type":"function","name":"feeReceiver","inputs":[],"outputs":[{"name":"","type":"address","internalType":"address"}],"stateMutability":"view"},{"type":"function","name":"fulfillAssetsData","inputs":[{"name":"requestId","type":"bytes32","internalType":"bytes32"},{"name":"_tokens","type":"address[]","internalType":"address[]"},{"name":"_marketShares","type":"uint256[]","internalType":"uint256[]"},{"name":"_swapFees","type":"uint24[]","internalType":"uint24[]"}],"outputs":[],"stateMutability":"nonpayable"},{"type":"function","name":"getAmountOut","inputs":[{"name":"tokenIn","type":"address","internalType":"address"},{"name":"tokenOut","type":"address","internalType":"address"},{"name":"amountIn","type":"uint256","internalType":"uint256"},{"name":"_swapFee","type":"uint24","internalType":"uint24"}],"outputs":[{"name":"finalAmountOut","type":"uint256","internalType":"uint256"}],"stateMutability":"view"},{"type":"function","name":"getPendingRequest","inputs":[{"name":"requestId","type":"bytes32","internalType":"bytes32"}],"outputs":[{"name":"","type":"address","internalType":"address"}],"stateMutability":"view"},{"type":"function","name":"getPortfolioBalance","inputs":[],"outputs":[{"name":"","type":"uint256","internalType":"uint256"}],"stateMutability":"view"},{"type":"function","name":"getPortfolioBalance2","inputs":[{"name":"token","type":"address","internalType":"address"}],"outputs":[{"name":"","type":"address","internalType":"address"}],"stateMutability":"view"},{"type":"function","name":"indexToken","inputs":[],"outputs":[{"name":"","type":"address","internalType":"contract IndexToken"}],"stateMutability":"view"},{"type":"function","name":"initialize","inputs":[{"name":"_token","type":"address","internalType":"address payable"},{"name":"_chainlinkToken","type":"address","internalType":"address"},{"name":"_oracleAddress","type":"address","internalType":"address"},{"name":"_externalJobId","type":"bytes32","internalType":"bytes32"},{"name":"_toUsdPriceFeed","type":"address","internalType":"address"},{"name":"_weth","type":"address","internalType":"address"},{"name":"_quoter","type":"address","internalType":"address"},{"name":"_swapRouterV3","type":"address","internalType":"address"},{"name":"_factoryV3","type":"address","internalType":"address"},{"name":"_swapRouterV2","type":"address","internalType":"address"},{"name":"_factoryV2","type":"address","internalType":"address"}],"outputs":[],"stateMutability":"nonpayable"},{"type":"function","name":"lastUpdateTime","inputs":[],"outputs":[{"name":"","type":"uint256","internalType":"uint256"}],"stateMutability":"view"},{"type":"function","name":"latestFeeUpdate","inputs":[],"outputs":[{"name":"","type":"uint256","internalType":"uint256"}],"stateMutability":"view"},{"type":"function","name":"mockFillAssetsList","inputs":[{"name":"_tokens","type":"address[]","internalType":"address[]"},{"name":"_marketShares","type":"uint256[]","internalType":"uint256[]"},{"name":"_swapFees","type":"uint24[]","internalType":"uint24[]"}],"outputs":[],"stateMutability":"nonpayable"},{"type":"function","name":"oracleList","inputs":[{"name":"","type":"uint256","internalType":"uint256"}],"outputs":[{"name":"","type":"address","internalType":"address"}],"stateMutability":"view"},{"type":"function","name":"oraclePayment","inputs":[],"outputs":[{"name":"","type":"uint256","internalType":"uint256"}],"stateMutability":"view"},{"type":"function","name":"owner","inputs":[],"outputs":[{"name":"","type":"address","internalType":"address"}],"stateMutability":"view"},{"type":"function","name":"paused","inputs":[],"outputs":[{"name":"","type":"bool","internalType":"bool"}],"stateMutability":"view"},{"type":"function","name":"priceInWei","inputs":[],"outputs":[{"name":"","type":"uint256","internalType":"uint256"}],"stateMutability":"view"},{"type":"function","name":"priceOracle","inputs":[],"outputs":[{"name":"","type":"address","internalType":"address"}],"stateMutability":"view"},{"type":"function","name":"proposeOwner","inputs":[{"name":"_proposedOwner","type":"address","internalType":"address"}],"outputs":[],"stateMutability":"nonpayable"},{"type":"function","name":"proposedOwner","inputs":[],"outputs":[{"name":"","type":"address","internalType":"address"}],"stateMutability":"view"},{"type":"function","name":"quoter","inputs":[],"outputs":[{"name":"","type":"address","internalType":"contract IQuoter"}],"stateMutability":"view"},{"type":"function","name":"renounceOwnership","inputs":[],"outputs":[],"stateMutability":"nonpayable"},{"type":"function","name":"requestAssetsData","inputs":[],"outputs":[{"name":"","type":"bytes32","internalType":"bytes32"}],"stateMutability":"nonpayable"},{"type":"function","name":"setFactory","inputs":[{"name":"_factoryAddress","type":"address","internalType":"address"}],"outputs":[],"stateMutability":"nonpayable"},{"type":"function","name":"setFactoryBalancer","inputs":[{"name":"_factoryBalancerAddress","type":"address","internalType":"address"}],"outputs":[],"stateMutability":"nonpayable"},{"type":"function","name":"setFeeRate","inputs":[{"name":"_newFee","type":"uint8","internalType":"uint8"}],"outputs":[],"stateMutability":"nonpayable"},{"type":"function","name":"setFeeReceiver","inputs":[{"name":"_feeReceiver","type":"address","internalType":"address"}],"outputs":[],"stateMutability":"nonpayable"},{"type":"function","name":"setPriceFeed","inputs":[{"name":"_toUsdPricefeed","type":"address","internalType":"address"}],"outputs":[],"stateMutability":"nonpayable"},{"type":"function","name":"setPriceOracle","inputs":[{"name":"_priceOracle","type":"address","internalType":"address"}],"outputs":[],"stateMutability":"nonpayable"},{"type":"function","name":"setUrl","inputs":[{"name":"_beforeAddress","type":"string","internalType":"string"},{"name":"_afterAddress","type":"string","internalType":"string"}],"outputs":[],"stateMutability":"nonpayable"},{"type":"function","name":"setVault","inputs":[{"name":"_vaultAddress","type":"address","internalType":"address"}],"outputs":[],"stateMutability":"nonpayable"},{"type":"function","name":"swapRouterV2","inputs":[],"outputs":[{"name":"","type":"address","internalType":"contract IUniswapV2Router02"}],"stateMutability":"view"},{"type":"function","name":"swapRouterV3","inputs":[],"outputs":[{"name":"","type":"address","internalType":"contract ISwapRouter"}],"stateMutability":"view"},{"type":"function","name":"toUsdPriceFeed","inputs":[],"outputs":[{"name":"","type":"address","internalType":"contract AggregatorV3Interface"}],"stateMutability":"view"},{"type":"function","name":"tokenCurrentListIndex","inputs":[{"name":"","type":"address","internalType":"address"}],"outputs":[{"name":"","type":"uint256","internalType":"uint256"}],"stateMutability":"view"},{"type":"function","name":"tokenCurrentMarketShare","inputs":[{"name":"","type":"address","internalType":"address"}],"outputs":[{"name":"","type":"uint256","internalType":"uint256"}],"stateMutability":"view"},{"type":"function","name":"tokenOracleListIndex","inputs":[{"name":"","type":"address","internalType":"address"}],"outputs":[{"name":"","type":"uint256","internalType":"uint256"}],"stateMutability":"view"},{"type":"function","name":"tokenOracleMarketShare","inputs":[{"name":"","type":"address","internalType":"address"}],"outputs":[{"name":"","type":"uint256","internalType":"uint256"}],"stateMutability":"view"},{"type":"function","name":"tokenSwapFee","inputs":[{"name":"","type":"address","internalType":"address"}],"outputs":[{"name":"","type":"uint24","internalType":"uint24"}],"stateMutability":"view"},{"type":"function","name":"totalCurrentList","inputs":[],"outputs":[{"name":"","type":"uint256","internalType":"uint256"}],"stateMutability":"view"},{"type":"function","name":"totalOracleList","inputs":[],"outputs":[{"name":"","type":"uint256","internalType":"uint256"}],"stateMutability":"view"},{"type":"function","name":"transferOwnership","inputs":[{"name":"newOwner","type":"address","internalType":"address"}],"outputs":[],"stateMutability":"nonpayable"},{"type":"function","name":"updateCurrentList","inputs":[],"outputs":[],"stateMutability":"nonpayable"},{"type":"function","name":"vault","inputs":[],"outputs":[{"name":"","type":"address","internalType":"contract Vault"}],"stateMutability":"view"},{"type":"function","name":"weth","inputs":[],"outputs":[{"name":"","type":"address","internalType":"contract IWETH"}],"stateMutability":"view"},{"type":"event","name":"ChainlinkCancelled","inputs":[{"name":"id","type":"bytes32","indexed":true,"internalType":"bytes32"}],"anonymous":false},{"type":"event","name":"ChainlinkFulfilled","inputs":[{"name":"id","type":"bytes32","indexed":true,"internalType":"bytes32"}],"anonymous":false},{"type":"event","name":"ChainlinkRequested","inputs":[{"name":"id","type":"bytes32","indexed":true,"internalType":"bytes32"}],"anonymous":false},{"type":"event","name":"FeeReceiverSet","inputs":[{"name":"feeReceiver","type":"address","indexed":true,"internalType":"address"}],"anonymous":false},{"type":"event","name":"Initialized","inputs":[{"name":"version","type":"uint8","indexed":false,"internalType":"uint8"}],"anonymous":false},{"type":"event","name":"OwnershipTransferred","inputs":[{"name":"previousOwner","type":"address","indexed":true,"internalType":"address"},{"name":"newOwner","type":"address","indexed":true,"internalType":"address"}],"anonymous":false},{"type":"event","name":"Paused","inputs":[{"name":"account","type":"address","indexed":false,"internalType":"address"}],"anonymous":false},{"type":"event","name":"Unpaused","inputs":[{"name":"account","type":"address","indexed":false,"internalType":"address"}],"anonymous":false}],"bytecode":{"object":"0x608060405234801561001057600080fd5b5061345e806100206000396000f3fe608060405234801561001057600080fd5b50600436106103425760003560e01c80638c88c10c116101b8578063c6bbd5a711610104578063ddca3f43116100a2578063ee7bd3e21161007c578063ee7bd3e214610763578063efdcd97414610776578063f2fde38b14610789578063fbfa77cf1461079c57600080fd5b8063ddca3f4314610734578063e13017451461073d578063e7d015f21461075057600080fd5b8063cb4d4e09116100de578063cb4d4e09146106e8578063d153b60c146106fb578063d5fbea631461070e578063dd811ac91461072157600080fd5b8063c6bbd5a7146106c3578063c8599ded146106d6578063c8f33c91146106df57600080fd5b8063a73e1cbf11610171578063af2bcb471161014b578063af2bcb4714610677578063b3f006741461068a578063b5ed298a1461069d578063b631e80b146106b057600080fd5b8063a73e1cbf14610653578063a8509fd814610666578063a8b54bd41461066e57600080fd5b80638c88c10c146105a75780638da5cb5b146105c7578063914f0cc6146105d8578063966dae0e146105f8578063978bbdb91461060b5780639932ba4c1461062a57600080fd5b8063530e784f11610292578063715018a6116102305780637ca58c551161020a5780637ca58c551461055b57806388b12d5514610563578063897b8dc51461058c5780638baa6bf11461059f57600080fd5b8063715018a61461052d578063724e78da14610535578063744fbc7a1461054857600080fd5b80635c975abb1161026c5780635c975abb146104de57806363973fda146104f45780636817031b1461050757806368e0d4e11461051a57600080fd5b8063530e784f146104af57806353fd4332146104c25780635bb47808146104cb57600080fd5b80632630c12f116102ff5780633fc8cef3116102d95780633fc8cef314610454578063465a4c94146104675780634b3e0b801461047c5780635177942a1461049c57600080fd5b80632630c12f1461040057806332599665146104135780633c8da5881461044c57600080fd5b8063011ced5f146103475780630be52713146103635780630c02e130146103835780630e3293571461038c5780631d5f45f5146103ac578063239aad0d146103d7575b600080fd5b61035060d25481565b6040519081526020015b60405180910390f35b6103506103713660046129ba565b60e16020526000908152604090205481565b61035060d85481565b61039f61039a366004612d44565b6107af565b60405161035a9190612f74565b60e7546103bf906001600160a01b031681565b6040516001600160a01b03909116815260200161035a565b6103bf6103e5366004612c9a565b60dd602052600090815260409020546001600160a01b031681565b60d6546103bf906001600160a01b031681565b6104386104213660046129ba565b60e36020526000908152604090205462ffffff1681565b60405162ffffff909116815260200161035a565b6103506107dc565b60ea546103bf906001600160a01b031681565b61047a6104753660046129d7565b610908565b005b61035061048a3660046129ba565b60e26020526000908152604090205481565b61047a6104aa366004612dc0565b610ba5565b61047a6104bd3660046129ba565b610ce5565b61035060dc5481565b61047a6104d93660046129ba565b610d79565b609d5460ff16604051901515815260200161035a565b60d9546103bf906001600160a01b031681565b61047a6105153660046129ba565b610da3565b60e9546103bf906001600160a01b031681565b61047a610dcd565b61047a6105433660046129ba565b610de1565b60e8546103bf906001600160a01b031681565b610350610e78565b6103bf610571366004612c9a565b6000908152600560205260409020546001600160a01b031690565b61047a61059a366004612cb3565b61110f565b61047a6114df565b6103506105b53660046129ba565b60df6020526000908152604090205481565b6038546001600160a01b03166103bf565b6103506105e63660046129ba565b60e06020526000908152604090205481565b60e4546103bf906001600160a01b031681565b60d1546106189060ff1681565b60405160ff909116815260200161035a565b6103bf610638366004612c9a565b60de602052600090815260409020546001600160a01b031681565b61047a610661366004612d44565b6115be565b6103506115f2565b61035060d75481565b61047a610685366004612b5a565b6117b4565b60d3546103bf906001600160a01b031681565b61047a6106ab3660046129ba565b611a5c565b60e6546103bf906001600160a01b031681565b60eb546103bf906001600160a01b031681565b61035060db5481565b61035060da5481565b60e5546103bf906001600160a01b031681565b606a546103bf906001600160a01b031681565b61047a61071c3660046129ba565b611aac565b61035061072f366004612b14565b611ad6565b61035060d05481565b6103bf61074b3660046129ba565b611c27565b60cf546103bf906001600160a01b031681565b610350610771366004612aae565b611cda565b61047a6107843660046129ba565b611d73565b61047a6107973660046129ba565b611dc5565b60ec546103bf906001600160a01b031681565b606082826040516020016107c4929190612e76565b60405160208183030381529060405290505b92915050565b60008060d960009054906101000a90046001600160a01b03166001600160a01b031663feaf968c6040518163ffffffff1660e01b815260040160a06040518083038186803b15801561082d57600080fd5b505afa158015610841573d6000803e3d6000fd5b505050506040513d601f19601f820116820180604052508101906108659190612ddd565b505050915050600060d960009054906101000a90046001600160a01b03166001600160a01b031663313ce5676040518163ffffffff1660e01b815260040160206040518083038186803b1580156108bb57600080fd5b505afa1580156108cf573d6000803e3d6000fd5b505050506040513d601f19601f820116820180604052508101906108f39190612e2d565b905061090182826012611eea565b9392505050565b600054610100900460ff16158080156109285750600054600160ff909116105b806109425750303b158015610942575060005460ff166001145b6109aa5760405162461bcd60e51b815260206004820152602e60248201527f496e697469616c697a61626c653a20636f6e747261637420697320616c72656160448201526d191e481a5b9a5d1a585b1a5e995960921b60648201526084015b60405180910390fd5b6000805460ff1916600117905580156109cd576000805461ff0019166101001790555b6109d5611f2a565b6109dd611f59565b60cf80546001600160a01b038e166001600160a01b0319909116179055610a218b600280546001600160a01b039092166001600160a01b0319909216919091179055565b600380546001600160a01b0319166001600160a01b038c1617905560d7899055600a610a56670de0b6b3a7640000600161326b565b610a6091906130d7565b60d85560d980546001600160a01b03199081166001600160a01b038b81169190911790925560ea805482168a841617905560eb8054821689841617905560e68054821688841617905560e78054821687841617905560e88054821686841617905560e9805490911691841691909117905560d18054600a60ff199091161790554260d2556040805160608101909152602a8082526133d160208301398051610b109160d4916020909101906126f8565b506040518060600160405280602e81526020016133fb602e91398051610b3e9160d5916020909101906126f8565b5060d380546001600160a01b031916331790558015610b97576000805461ff0019169055604051600181527f7f26b83ff96e1f2b6a682f133852f6798a09c465da95921460cefb38474024989060200160405180910390a15b505050505050505050505050565b610bad611f88565b600060d25442610bbd919061328a565b9050600c603c610bcd81846130d7565b610bd791906130d7565b11610c4a5760405162461bcd60e51b815260206004820152603960248201527f596f752073686f756c642077616974206174206c6561737420313220686f757260448201527f7320616674657220746865206c6174657374207570646174650000000000000060648201526084016109a1565b60648260ff1611158015610c62575060018260ff1610155b610cca5760405162461bcd60e51b815260206004820152603360248201527f546865206e65774665652073686f756c64206265206265747765656e203120616044820152726e64203130302028302e303125202d2031252960681b60648201526084016109a1565b5060d1805460ff191660ff929092169190911790554260d255565b610ced611f88565b6001600160a01b038116610d575760405162461bcd60e51b815260206004820152602b60248201527f5072696365206f7261636c6520616464726573732063616e6e6f74206265207a60448201526a65726f206164647265737360a81b60648201526084016109a1565b60d680546001600160a01b0319166001600160a01b0392909216919091179055565b610d81611f88565b60e480546001600160a01b0319166001600160a01b0392909216919091179055565b610dab611f88565b60ec80546001600160a01b0319166001600160a01b0392909216919091179055565b610dd5611f88565b610ddf6000611fe2565b565b610de9611f88565b6001600160a01b038116610e565760405162461bcd60e51b815260206004820152602e60248201527f49434f3a205072696365206665656420616464726573732063616e6e6f74206260448201526d65207a65726f206164647265737360901b60648201526084016109a1565b60d980546001600160a01b0319166001600160a01b0392909216919091179055565b600080610f9960d48054610e8b906132f0565b80601f0160208091040260200160405190810160405280929190818152602001828054610eb7906132f0565b8015610f045780601f10610ed957610100808354040283529160200191610f04565b820191906000526020600020905b815481529060010190602001808311610ee757829003601f168201915b505050505060d58054610f16906132f0565b80601f0160208091040260200160405190810160405280929190818152602001828054610f42906132f0565b8015610f8f5780601f10610f6457610100808354040283529160200191610f8f565b820191906000526020600020905b815481529060010190602001808311610f7257829003601f168201915b50505050506107af565b90506000610fb160d7543063897b8dc560e01b612034565b60408051808201909152600381526219d95d60ea1b6020820152909150610fda90829084612050565b61103260405180604001604052806005815260200164706174683160d81b8152506040518060400160405280600e81526020016d726573756c74732c746f6b656e7360901b815250836120509092919063ffffffff16565b611090604051806040016040528060058152602001643830ba341960d91b81525060405180604001604052806014815260200173726573756c74732c6d61726b657453686172657360601b815250836120509092919063ffffffff16565b6110ea60405180604001604052806005815260200164706174683360d81b8152506040518060400160405280601081526020016f726573756c74732c737761704665657360801b815250836120509092919063ffffffff16565b6111086110ff6003546001600160a01b031690565b8260d85461206e565b9250505090565b60008481526005602052604090205484906001600160a01b031633146111885760405162461bcd60e51b815260206004820152602860248201527f536f75726365206d75737420626520746865206f7261636c65206f6620746865604482015267081c995c5d595cdd60c21b60648201526084016109a1565b60008181526005602052604080822080546001600160a01b03191690555182917f7cc135e0cebb02c3480ae5d74d377283180a2601f8f644edf7987b009316c63a91a2825184511480156111dd575081518351145b61123d5760405162461bcd60e51b815260206004820152602b60248201527f546865206c656e677468206f6620746865206172726179732073686f756c642060448201526a6265207468652073616d6560a81b60648201526084016109a1565b83838360005b83518110156114be5783818151811061125e5761125e613380565b602002602001015160dd600083815260200190815260200160002060006101000a8154816001600160a01b0302191690836001600160a01b031602179055508060df60008684815181106112b4576112b4613380565b60200260200101516001600160a01b03166001600160a01b03168152602001908152602001600020819055508281815181106112f2576112f2613380565b602002602001015160e2600086848151811061131057611310613380565b60200260200101516001600160a01b03166001600160a01b031681526020019081526020016000208190555081818151811061134e5761134e613380565b602002602001015160e3600086848151811061136c5761136c613380565b60200260200101516001600160a01b03166001600160a01b0316815260200190815260200160002060006101000a81548162ffffff021916908362ffffff16021790555060dc54600014156114ac578381815181106113cd576113cd613380565b602002602001015160de600083815260200190815260200160002060006101000a8154816001600160a01b0302191690836001600160a01b0316021790555082818151811061141e5761141e613380565b602002602001015160e1600086848151811061143c5761143c613380565b60200260200101516001600160a01b03166001600160a01b03168152602001908152602001600020819055508060e0600086848151811061147f5761147f613380565b60200260200101516001600160a01b03166001600160a01b03168152602001908152602001600020819055505b806114b681613325565b915050611243565b50825160db5560dc546114d157825160dc555b50504260da55505050505050565b60e4546001600160a01b0316331480611502575060e5546001600160a01b031633145b61154e5760405162461bcd60e51b815260206004820181905260248201527f43616c6c6572206973206e6f74206120666163746f727920636f6e747261637460448201526064016109a1565b60db5460dc5560005b60db548110156115bb57600081815260dd602090815260408083205460de835281842080546001600160a01b0319166001600160a01b039092169182179055835260e282528083205460e190925290912055806115b381613325565b915050611557565b50565b6115c6611f88565b81516115d99060d49060208501906126f8565b5080516115ed9060d59060208401906126f8565b505050565b60008060005b60dc548110156117ae5760ea54600082815260de60205260409020546001600160a01b03908116911614156116c457600081815260de6020526040908190205460ec5491516370a0823160e01b81526001600160a01b0392831660048201529116906370a082319060240160206040518083038186803b15801561167b57600080fd5b505afa15801561168f573d6000803e3d6000fd5b505050506040513d601f19601f820116820180604052508101906116b39190612da7565b6116bd90836130bf565b915061179c565b600081815260de60205260408082205460ea5460ec5492516370a0823160e01b81526001600160a01b03938416600482015261178c93928316929091169082906370a082319060240160206040518083038186803b15801561172557600080fd5b505afa158015611739573d6000803e3d6000fd5b505050506040513d601f19601f8201168201806040525081019061175d9190612da7565b600086815260de60209081526040808320546001600160a01b0316835260e390915290205462ffffff16611ad6565b905061179881846130bf565b9250505b806117a681613325565b9150506115f8565b50919050565b6117bc611f88565b82828260005b8351811015611a3d578381815181106117dd576117dd613380565b602002602001015160dd600083815260200190815260200160002060006101000a8154816001600160a01b0302191690836001600160a01b031602179055508060df600086848151811061183357611833613380565b60200260200101516001600160a01b03166001600160a01b031681526020019081526020016000208190555082818151811061187157611871613380565b602002602001015160e2600086848151811061188f5761188f613380565b60200260200101516001600160a01b03166001600160a01b03168152602001908152602001600020819055508181815181106118cd576118cd613380565b602002602001015160e360008684815181106118eb576118eb613380565b60200260200101516001600160a01b03166001600160a01b0316815260200190815260200160002060006101000a81548162ffffff021916908362ffffff16021790555060dc5460001415611a2b5783818151811061194c5761194c613380565b602002602001015160de600083815260200190815260200160002060006101000a8154816001600160a01b0302191690836001600160a01b0316021790555082818151811061199d5761199d613380565b602002602001015160e160008684815181106119bb576119bb613380565b60200260200101516001600160a01b03166001600160a01b03168152602001908152602001600020819055508060e060008684815181106119fe576119fe613380565b60200260200101516001600160a01b03166001600160a01b03168152602001908152602001600020819055505b80611a3581613325565b9150506117c2565b50825160db5560dc54611a5057825160dc555b50504260da5550505050565b611a64611f88565b6001600160a01b038116611a8a5760405162461bcd60e51b81526004016109a190612f87565b606a80546001600160a01b0319166001600160a01b0392909216919091179055565b611ab4611f88565b60e580546001600160a01b0319166001600160a01b0392909216919091179055565b60008215611c1f5762ffffff821615611afc57611af585858585611cda565b9050611c1f565b6040805160028082526060820183526000926020830190803683370190505090508581600081518110611b3157611b31613380565b60200260200101906001600160a01b031690816001600160a01b0316815250508481600181518110611b6557611b65613380565b6001600160a01b03928316602091820292909201015260e85460405163d06ca61f60e01b8152600092919091169063d06ca61f90611ba99088908690600401613022565b60006040518083038186803b158015611bc157600080fd5b505afa158015611bd5573d6000803e3d6000fd5b505050506040513d6000823e601f3d908101601f19168201604052611bfd9190810190612be1565b905080600181518110611c1257611c12613380565b6020026020010151925050505b949350505050565b60d65460e75460ea5460405163bb5705b360e01b815260009384936001600160a01b039182169363bb5705b393611c76939283169289921690670de0b6b3a764000090610bb890600401612ea5565b60206040518083038186803b158015611c8e57600080fd5b505afa158015611ca2573d6000803e3d6000fd5b505050506040513d601f19601f82011682018060405250810190611cc69190612da7565b505060d6546001600160a01b031692915050565b60d65460e75460405163bb5705b360e01b81526000926001600160a01b039081169263bb5705b392611d1a92909116908990899089908990600401612ea5565b60206040518083038186803b158015611d3257600080fd5b505afa158015611d46573d6000803e3d6000fd5b505050506040513d601f19601f82011682018060405250810190611d6a9190612da7565b95945050505050565b611d7b611f88565b60d380546001600160a01b0319166001600160a01b0383169081179091556040517fbdf37c276f641820b141429d245add2552b4118c0866e5a78638e3de5ef18d9d90600090a250565b6001600160a01b038116611deb5760405162461bcd60e51b81526004016109a190612f87565b606a546001600160a01b03828116911614611e635760405162461bcd60e51b815260206004820152603260248201527f50726f706f7361626c654f776e61626c653a206e6577206f776e6572206973206044820152713737ba10383937b837b9b2b21037bbb732b960711b60648201526084016109a1565b6001600160a01b0381163314611ee15760405162461bcd60e51b815260206004820152603a60248201527f50726f706f7361626c654f776e61626c653a20746869732063616c6c206d757360448201527f74206265206d61646520627920746865206e6577206f776e657200000000000060648201526084016109a1565b6115bb81611fe2565b60008260ff168260ff161115611f2057611f0483836132a1565b611f0f90600a61313a565b611f1990856131e6565b9050610901565b611f0482846132a1565b600054610100900460ff16611f515760405162461bcd60e51b81526004016109a190612fd7565b610ddf612101565b600054610100900460ff16611f805760405162461bcd60e51b81526004016109a190612fd7565b610ddf612131565b6038546001600160a01b03163314610ddf5760405162461bcd60e51b815260206004820181905260248201527f4f776e61626c653a2063616c6c6572206973206e6f7420746865206f776e657260448201526064016109a1565b603880546001600160a01b038381166001600160a01b0319831681179093556040519116919082907f8be0079c531659141344cd1fd0a4f28419497f9722a3daafe3b4186f6b6457e090600090a35050565b61203c61277c565b61204461277c565b611d6a81868686612164565b608083015161205f90836121a1565b60808301516115ed90826121a1565b60045460009061207f8160016130bf565b600455835160408086015160808701515191516000936320214ca360e11b936120b79386938493923092918a91600191602401612ee5565b60408051601f198184030181529190526020810180516001600160e01b03166001600160e01b03199093169290921790915290506120f7868386846121b8565b9695505050505050565b600054610100900460ff166121285760405162461bcd60e51b81526004016109a190612fd7565b610ddf33611fe2565b600054610100900460ff166121585760405162461bcd60e51b81526004016109a190612fd7565b609d805460ff19169055565b61216c61277c565b61217c8560800151610100612325565b50509183526001600160a01b031660208301526001600160e01b031916604082015290565b6121ae826003835161238a565b6115ed8282612497565b6040516bffffffffffffffffffffffff193060601b1660208201526034810184905260009060540160408051808303601f1901815282825280516020918201206000818152600590925291812080546001600160a01b0319166001600160a01b038a1617905590925082917fb5e6e01e79f91267dc17b4e6314d5d4d03593d2ceee0fbb452b750bd70ea5af99190a2600254604051630200057560e51b81526001600160a01b0390911690634000aea09061227b90889087908790600401612f4d565b602060405180830381600087803b15801561229557600080fd5b505af11580156122a9573d6000803e3d6000fd5b505050506040513d601f19601f820116820180604052508101906122cd9190612c78565b611c1f5760405162461bcd60e51b815260206004820152602360248201527f756e61626c6520746f207472616e73666572416e6443616c6c20746f206f7261604482015262636c6560e81b60648201526084016109a1565b604080518082019091526060815260006020820152612345602083613340565b1561236d57612355602083613340565b61236090602061328a565b61236a90836130bf565b91505b506020828101829052604080518085526000815290920101905290565b6017816001600160401b0316116123b4576123ae8360e0600585901b1683176124be565b50505050565b60ff816001600160401b0316116123f0576123da836018611fe0600586901b16176124be565b506123ae836001600160401b03831660016124e3565b61ffff816001600160401b03161161242d57612417836019611fe0600586901b16176124be565b506123ae836001600160401b03831660026124e3565b63ffffffff816001600160401b03161161246c5761245683601a611fe0600586901b16176124be565b506123ae836001600160401b03831660046124e3565b61248183601b611fe0600586901b16176124be565b506123ae836001600160401b03831660086124e3565b60408051808201909152606081526000602082015261090183846000015151848551612509565b60408051808201909152606081526000602082015261090183846000015151846125f3565b604080518082019091526060815260006020820152611c1f84856000015151858561264f565b604080518082019091526060815260006020820152825182111561252c57600080fd5b602085015161253b83866130bf565b111561256e5761256e8561255e8760200151878661255991906130bf565b6126d0565b61256990600261326b565b6126e1565b60008086518051876020830101935080888701111561258d5787860182525b505050602084015b602084106125cd57805182526125ac6020836130bf565b91506125b96020826130bf565b90506125c660208561328a565b9350612595565b51815160001960208690036101000a019081169019919091161790525083949350505050565b60408051808201909152606081526000602082015283602001518310612628576126288485602001516002612569919061326b565b835180516020858301018481535080851415612645576001810182525b5093949350505050565b604080518082019091526060815260006020820152602085015161267385846130bf565b1115612687576126878561255e86856130bf565b600060016126978461010061312e565b6126a1919061328a565b90508551838682010185831982511617815250805184870111156126c55783860181525b509495945050505050565b6000818311156117ae5750816107d6565b81516126ed8383612325565b506123ae8382612497565b828054612704906132f0565b90600052602060002090601f016020900481019282612726576000855561276c565b82601f1061273f57805160ff191683800117855561276c565b8280016001018555821561276c579182015b8281111561276c578251825591602001919060010190612751565b506127789291506127b7565b5090565b6040805160a0810182526000808252602080830182905282840182905260608084018390528451808601909552845283015290608082015290565b5b8082111561277857600081556001016127b8565b80356127d7816133ac565b919050565b600082601f8301126127ed57600080fd5b813560206128026127fd8361309c565b61306c565b80838252828201915082860187848660051b890101111561282257600080fd5b60005b8581101561284a578135612838816133ac565b84529284019290840190600101612825565b5090979650505050505050565b600082601f83011261286857600080fd5b813560206128786127fd8361309c565b80838252828201915082860187848660051b890101111561289857600080fd5b60005b8581101561284a576128ac8261298d565b8452928401929084019060010161289b565b600082601f8301126128cf57600080fd5b813560206128df6127fd8361309c565b80838252828201915082860187848660051b89010111156128ff57600080fd5b60005b8581101561284a57813584529284019290840190600101612902565b600082601f83011261292f57600080fd5b81356001600160401b0381111561294857612948613396565b61295b601f8201601f191660200161306c565b81815284602083860101111561297057600080fd5b816020850160208301376000918101602001919091529392505050565b803562ffffff811681146127d757600080fd5b805169ffffffffffffffffffff811681146127d757600080fd5b6000602082840312156129cc57600080fd5b8135610901816133ac565b60008060008060008060008060008060006101608c8e0312156129f957600080fd5b8b35612a04816133ac565b9a5060208c0135612a14816133ac565b995060408c0135612a24816133ac565b985060608c0135975060808c0135612a3b816133ac565b965060a08c0135612a4b816133ac565b955060c08c0135612a5b816133ac565b945060e08c0135612a6b816133ac565b93506101008c0135612a7c816133ac565b92506101208c0135612a8d816133ac565b9150612a9c6101408d016127cc565b90509295989b509295989b9093969950565b60008060008060808587031215612ac457600080fd5b8435612acf816133ac565b93506020850135612adf816133ac565b925060408501356001600160801b0381168114612afb57600080fd5b9150612b096060860161298d565b905092959194509250565b60008060008060808587031215612b2a57600080fd5b8435612b35816133ac565b93506020850135612b45816133ac565b925060408501359150612b096060860161298d565b600080600060608486031215612b6f57600080fd5b83356001600160401b0380821115612b8657600080fd5b612b92878388016127dc565b94506020860135915080821115612ba857600080fd5b612bb4878388016128be565b93506040860135915080821115612bca57600080fd5b50612bd786828701612857565b9150509250925092565b60006020808385031215612bf457600080fd5b82516001600160401b03811115612c0a57600080fd5b8301601f81018513612c1b57600080fd5b8051612c296127fd8261309c565b80828252848201915084840188868560051b8701011115612c4957600080fd5b600094505b83851015612c6c578051835260019490940193918501918501612c4e565b50979650505050505050565b600060208284031215612c8a57600080fd5b8151801515811461090157600080fd5b600060208284031215612cac57600080fd5b5035919050565b60008060008060808587031215612cc957600080fd5b8435935060208501356001600160401b0380821115612ce757600080fd5b612cf3888389016127dc565b94506040870135915080821115612d0957600080fd5b612d15888389016128be565b93506060870135915080821115612d2b57600080fd5b50612d3887828801612857565b91505092959194509250565b60008060408385031215612d5757600080fd5b82356001600160401b0380821115612d6e57600080fd5b612d7a8683870161291e565b93506020850135915080821115612d9057600080fd5b50612d9d8582860161291e565b9150509250929050565b600060208284031215612db957600080fd5b5051919050565b600060208284031215612dd257600080fd5b8135610901816133c1565b600080600080600060a08688031215612df557600080fd5b612dfe866129a0565b9450602086015193506040860151925060608601519150612e21608087016129a0565b90509295509295909350565b600060208284031215612e3f57600080fd5b8151610901816133c1565b60008151808452612e628160208601602086016132c4565b601f01601f19169290920160200192915050565b60008351612e888184602088016132c4565b835190830190612e9c8183602088016132c4565b01949350505050565b6001600160a01b03958616815293851660208501529190931660408301526001600160801b03909216606082015262ffffff909116608082015260a00190565b6001600160a01b0389811682526020820189905260408201889052861660608201526001600160e01b03198516608082015260a0810184905260c0810183905261010060e08201819052600090612f3e83820185612e4a565b9b9a5050505050505050505050565b60018060a01b0384168152826020820152606060408201526000611d6a6060830184612e4a565b6020815260006109016020830184612e4a565b60208082526030908201527f50726f706f7361626c654f776e61626c653a206e6577206f776e65722069732060408201526f746865207a65726f206164647265737360801b606082015260800190565b6020808252602b908201527f496e697469616c697a61626c653a20636f6e7472616374206973206e6f74206960408201526a6e697469616c697a696e6760a81b606082015260800190565b6000604082018483526020604081850152818551808452606086019150828701935060005b8181101561284a5784516001600160a01b031683529383019391830191600101613047565b604051601f8201601f191681016001600160401b038111828210171561309457613094613396565b604052919050565b60006001600160401b038211156130b5576130b5613396565b5060051b60200190565b600082198211156130d2576130d2613354565b500190565b6000826130e6576130e661336a565b500490565b600181815b8085111561312657816000190482111561310c5761310c613354565b8085161561311957918102915b93841c93908002906130f0565b509250929050565b60006109018383613145565b600061090160ff8416835b600082613154575060016107d6565b81613161575060006107d6565b816001811461317757600281146131815761319d565b60019150506107d6565b60ff84111561319257613192613354565b50506001821b6107d6565b5060208310610133831016604e8410600b84101617156131c0575081810a6107d6565b6131ca83836130eb565b80600019048211156131de576131de613354565b029392505050565b60006001600160ff1b038184138284138082168684048611161561320c5761320c613354565b600160ff1b600087128281168783058912161561322b5761322b613354565b6000871292508782058712848416161561324757613247613354565b8785058712818416161561325d5761325d613354565b505050929093029392505050565b600081600019048311821515161561328557613285613354565b500290565b60008282101561329c5761329c613354565b500390565b600060ff821660ff8416808210156132bb576132bb613354565b90039392505050565b60005b838110156132df5781810151838201526020016132c7565b838111156123ae5750506000910152565b600181811c9082168061330457607f821691505b602082108114156117ae57634e487b7160e01b600052602260045260246000fd5b600060001982141561333957613339613354565b5060010190565b60008261334f5761334f61336a565b500690565b634e487b7160e01b600052601160045260246000fd5b634e487b7160e01b600052601260045260246000fd5b634e487b7160e01b600052603260045260246000fd5b634e487b7160e01b600052604160045260246000fd5b6001600160a01b03811681146115bb57600080fd5b60ff811681146115bb57600080fdfe68747470733a2f2f6170702e6e65786c6162732e696f2f6170692f616c6c46756e64696e6752617465733f6d756c7469706c7946756e633d31382674696d65734e656746756e643d74727565266172726179733d74727565a26469706673582212206f72d03685db88b479554e7b3fdfb25ea49385c378df73d34a65f15ed444291a64736f6c63430008070033","linkReferences":{}},"methodIdentifiers":{"concatenation(string,string)":"0e329357","currentList(uint256)":"9932ba4c","estimateAmountOut(address,address,uint128,uint24)":"ee7bd3e2","externalJobId()":"a8b54bd4","factoryAddress()":"966dae0e","factoryBalancerAddress()":"cb4d4e09","factoryV2()":"68e0d4e1","factoryV3()":"1d5f45f5","fee()":"ddca3f43","feeRate()":"978bbdb9","feeReceiver()":"b3f00674","fulfillAssetsData(bytes32,address[],uint256[],uint24[])":"897b8dc5","getAmountOut(address,address,uint256,uint24)":"dd811ac9","getPendingRequest(bytes32)":"88b12d55","getPortfolioBalance()":"a8509fd8","getPortfolioBalance2(address)":"e1301745","indexToken()":"e7d015f2","initialize(address,address,address,bytes32,address,address,address,address,address,address,address)":"465a4c94","lastUpdateTime()":"c8f33c91","latestFeeUpdate()":"011ced5f","mockFillAssetsList(address[],uint256[],uint24[])":"af2bcb47","oracleList(uint256)":"239aad0d","oraclePayment()":"0c02e130","owner()":"8da5cb5b","paused()":"5c975abb","priceInWei()":"3c8da588","priceOracle()":"2630c12f","proposeOwner(address)":"b5ed298a","proposedOwner()":"d153b60c","quoter()":"c6bbd5a7","renounceOwnership()":"715018a6","requestAssetsData()":"7ca58c55","setFactory(address)":"5bb47808","setFactoryBalancer(address)":"d5fbea63","setFeeRate(uint8)":"5177942a","setFeeReceiver(address)":"efdcd974","setPriceFeed(address)":"724e78da","setPriceOracle(address)":"530e784f","setUrl(string,string)":"a73e1cbf","setVault(address)":"6817031b","swapRouterV2()":"744fbc7a","swapRouterV3()":"b631e80b","toUsdPriceFeed()":"63973fda","tokenCurrentListIndex(address)":"914f0cc6","tokenCurrentMarketShare(address)":"0be52713","tokenOracleListIndex(address)":"8c88c10c","tokenOracleMarketShare(address)":"4b3e0b80","tokenSwapFee(address)":"32599665","totalCurrentList()":"53fd4332","totalOracleList()":"c8599ded","transferOwnership(address)":"f2fde38b","updateCurrentList()":"8baa6bf1","vault()":"fbfa77cf","weth()":"3fc8cef3"},"id":4}