{"abi":[{"type":"function","name":"concatenation","inputs":[{"name":"a","type":"string","internalType":"string"},{"name":"b","type":"string","internalType":"string"}],"outputs":[{"name":"","type":"string","internalType":"string"}],"stateMutability":"pure"},{"type":"function","name":"currentList","inputs":[{"name":"","type":"uint256","internalType":"uint256"}],"outputs":[{"name":"","type":"address","internalType":"address"}],"stateMutability":"view"},{"type":"function","name":"estimateAmountOut","inputs":[{"name":"tokenIn","type":"address","internalType":"address"},{"name":"tokenOut","type":"address","internalType":"address"},{"name":"amountIn","type":"uint128","internalType":"uint128"},{"name":"swapFee","type":"uint24","internalType":"uint24"}],"outputs":[{"name":"amountOut","type":"uint256","internalType":"uint256"}],"stateMutability":"view"},{"type":"function","name":"externalJobId","inputs":[],"outputs":[{"name":"","type":"bytes32","internalType":"bytes32"}],"stateMutability":"view"},{"type":"function","name":"factoryAddress","inputs":[],"outputs":[{"name":"","type":"address","internalType":"address"}],"stateMutability":"view"},{"type":"function","name":"factoryBalancerAddress","inputs":[],"outputs":[{"name":"","type":"address","internalType":"address"}],"stateMutability":"view"},{"type":"function","name":"factoryV2","inputs":[],"outputs":[{"name":"","type":"address","internalType":"contract IUniswapV2Factory"}],"stateMutability":"view"},{"type":"function","name":"factoryV3","inputs":[],"outputs":[{"name":"","type":"address","internalType":"contract IUniswapV3Factory"}],"stateMutability":"view"},{"type":"function","name":"fee","inputs":[],"outputs":[{"name":"","type":"uint256","internalType":"uint256"}],"stateMutability":"view"},{"type":"function","name":"feeRate","inputs":[],"outputs":[{"name":"","type":"uint8","internalType":"uint8"}],"stateMutability":"view"},{"type":"function","name":"feeReceiver","inputs":[],"outputs":[{"name":"","type":"address","internalType":"address"}],"stateMutability":"view"},{"type":"function","name":"fulfillAssetsData","inputs":[{"name":"requestId","type":"bytes32","internalType":"bytes32"},{"name":"_tokens","type":"address[]","internalType":"address[]"},{"name":"_marketShares","type":"uint256[]","internalType":"uint256[]"},{"name":"_swapFees","type":"uint24[]","internalType":"uint24[]"}],"outputs":[],"stateMutability":"nonpayable"},{"type":"function","name":"getAmountOut","inputs":[{"name":"tokenIn","type":"address","internalType":"address"},{"name":"tokenOut","type":"address","internalType":"address"},{"name":"amountIn","type":"uint256","internalType":"uint256"},{"name":"_swapFee","type":"uint24","internalType":"uint24"}],"outputs":[{"name":"finalAmountOut","type":"uint256","internalType":"uint256"}],"stateMutability":"view"},{"type":"function","name":"getPendingRequest","inputs":[{"name":"requestId","type":"bytes32","internalType":"bytes32"}],"outputs":[{"name":"","type":"address","internalType":"address"}],"stateMutability":"view"},{"type":"function","name":"getPortfolioBalance","inputs":[],"outputs":[{"name":"","type":"uint256","internalType":"uint256"}],"stateMutability":"view"},{"type":"function","name":"getPortfolioBalance2","inputs":[{"name":"token","type":"address","internalType":"address"}],"outputs":[{"name":"","type":"address","internalType":"address"}],"stateMutability":"view"},{"type":"function","name":"indexToken","inputs":[],"outputs":[{"name":"","type":"address","internalType":"contract IndexToken"}],"stateMutability":"view"},{"type":"function","name":"initialize","inputs":[{"name":"_token","type":"address","internalType":"address payable"},{"name":"_chainlinkToken","type":"address","internalType":"address"},{"name":"_oracleAddress","type":"address","internalType":"address"},{"name":"_externalJobId","type":"bytes32","internalType":"bytes32"},{"name":"_toUsdPriceFeed","type":"address","internalType":"address"},{"name":"_weth","type":"address","internalType":"address"},{"name":"_quoter","type":"address","internalType":"address"},{"name":"_swapRouterV3","type":"address","internalType":"address"},{"name":"_factoryV3","type":"address","internalType":"address"},{"name":"_swapRouterV2","type":"address","internalType":"address"},{"name":"_factoryV2","type":"address","internalType":"address"}],"outputs":[],"stateMutability":"nonpayable"},{"type":"function","name":"lastUpdateTime","inputs":[],"outputs":[{"name":"","type":"uint256","internalType":"uint256"}],"stateMutability":"view"},{"type":"function","name":"latestFeeUpdate","inputs":[],"outputs":[{"name":"","type":"uint256","internalType":"uint256"}],"stateMutability":"view"},{"type":"function","name":"mockFillAssetsList","inputs":[{"name":"_tokens","type":"address[]","internalType":"address[]"},{"name":"_marketShares","type":"uint256[]","internalType":"uint256[]"},{"name":"_swapFees","type":"uint24[]","internalType":"uint24[]"}],"outputs":[],"stateMutability":"nonpayable"},{"type":"function","name":"oracleList","inputs":[{"name":"","type":"uint256","internalType":"uint256"}],"outputs":[{"name":"","type":"address","internalType":"address"}],"stateMutability":"view"},{"type":"function","name":"oraclePayment","inputs":[],"outputs":[{"name":"","type":"uint256","internalType":"uint256"}],"stateMutability":"view"},{"type":"function","name":"owner","inputs":[],"outputs":[{"name":"","type":"address","internalType":"address"}],"stateMutability":"view"},{"type":"function","name":"paused","inputs":[],"outputs":[{"name":"","type":"bool","internalType":"bool"}],"stateMutability":"view"},{"type":"function","name":"priceInWei","inputs":[],"outputs":[{"name":"","type":"uint256","internalType":"uint256"}],"stateMutability":"view"},{"type":"function","name":"priceOracle","inputs":[],"outputs":[{"name":"","type":"address","internalType":"address"}],"stateMutability":"view"},{"type":"function","name":"proposeOwner","inputs":[{"name":"_proposedOwner","type":"address","internalType":"address"}],"outputs":[],"stateMutability":"nonpayable"},{"type":"function","name":"proposedOwner","inputs":[],"outputs":[{"name":"","type":"address","internalType":"address"}],"stateMutability":"view"},{"type":"function","name":"quoter","inputs":[],"outputs":[{"name":"","type":"address","internalType":"contract IQuoter"}],"stateMutability":"view"},{"type":"function","name":"renounceOwnership","inputs":[],"outputs":[],"stateMutability":"nonpayable"},{"type":"function","name":"requestAssetsData","inputs":[],"outputs":[{"name":"","type":"bytes32","internalType":"bytes32"}],"stateMutability":"nonpayable"},{"type":"function","name":"setFactory","inputs":[{"name":"_factoryAddress","type":"address","internalType":"address"}],"outputs":[],"stateMutability":"nonpayable"},{"type":"function","name":"setFactoryBalancer","inputs":[{"name":"_factoryBalancerAddress","type":"address","internalType":"address"}],"outputs":[],"stateMutability":"nonpayable"},{"type":"function","name":"setFeeRate","inputs":[{"name":"_newFee","type":"uint8","internalType":"uint8"}],"outputs":[],"stateMutability":"nonpayable"},{"type":"function","name":"setFeeReceiver","inputs":[{"name":"_feeReceiver","type":"address","internalType":"address"}],"outputs":[],"stateMutability":"nonpayable"},{"type":"function","name":"setPriceFeed","inputs":[{"name":"_toUsdPricefeed","type":"address","internalType":"address"}],"outputs":[],"stateMutability":"nonpayable"},{"type":"function","name":"setPriceOracle","inputs":[{"name":"_priceOracle","type":"address","internalType":"address"}],"outputs":[],"stateMutability":"nonpayable"},{"type":"function","name":"setUrl","inputs":[{"name":"_beforeAddress","type":"string","internalType":"string"},{"name":"_afterAddress","type":"string","internalType":"string"}],"outputs":[],"stateMutability":"nonpayable"},{"type":"function","name":"setVault","inputs":[{"name":"_vaultAddress","type":"address","internalType":"address"}],"outputs":[],"stateMutability":"nonpayable"},{"type":"function","name":"swapRouterV2","inputs":[],"outputs":[{"name":"","type":"address","internalType":"contract IUniswapV2Router02"}],"stateMutability":"view"},{"type":"function","name":"swapRouterV3","inputs":[],"outputs":[{"name":"","type":"address","internalType":"contract ISwapRouter"}],"stateMutability":"view"},{"type":"function","name":"toUsdPriceFeed","inputs":[],"outputs":[{"name":"","type":"address","internalType":"contract AggregatorV3Interface"}],"stateMutability":"view"},{"type":"function","name":"tokenCurrentListIndex","inputs":[{"name":"","type":"address","internalType":"address"}],"outputs":[{"name":"","type":"uint256","internalType":"uint256"}],"stateMutability":"view"},{"type":"function","name":"tokenCurrentMarketShare","inputs":[{"name":"","type":"address","internalType":"address"}],"outputs":[{"name":"","type":"uint256","internalType":"uint256"}],"stateMutability":"view"},{"type":"function","name":"tokenOracleListIndex","inputs":[{"name":"","type":"address","internalType":"address"}],"outputs":[{"name":"","type":"uint256","internalType":"uint256"}],"stateMutability":"view"},{"type":"function","name":"tokenOracleMarketShare","inputs":[{"name":"","type":"address","internalType":"address"}],"outputs":[{"name":"","type":"uint256","internalType":"uint256"}],"stateMutability":"view"},{"type":"function","name":"tokenSwapFee","inputs":[{"name":"","type":"address","internalType":"address"}],"outputs":[{"name":"","type":"uint24","internalType":"uint24"}],"stateMutability":"view"},{"type":"function","name":"totalCurrentList","inputs":[],"outputs":[{"name":"","type":"uint256","internalType":"uint256"}],"stateMutability":"view"},{"type":"function","name":"totalOracleList","inputs":[],"outputs":[{"name":"","type":"uint256","internalType":"uint256"}],"stateMutability":"view"},{"type":"function","name":"transferOwnership","inputs":[{"name":"newOwner","type":"address","internalType":"address"}],"outputs":[],"stateMutability":"nonpayable"},{"type":"function","name":"updateCurrentList","inputs":[],"outputs":[],"stateMutability":"nonpayable"},{"type":"function","name":"vault","inputs":[],"outputs":[{"name":"","type":"address","internalType":"contract Vault"}],"stateMutability":"view"},{"type":"function","name":"weth","inputs":[],"outputs":[{"name":"","type":"address","internalType":"contract IWETH"}],"stateMutability":"view"},{"type":"event","name":"ChainlinkCancelled","inputs":[{"name":"id","type":"bytes32","indexed":true,"internalType":"bytes32"}],"anonymous":false},{"type":"event","name":"ChainlinkFulfilled","inputs":[{"name":"id","type":"bytes32","indexed":true,"internalType":"bytes32"}],"anonymous":false},{"type":"event","name":"ChainlinkRequested","inputs":[{"name":"id","type":"bytes32","indexed":true,"internalType":"bytes32"}],"anonymous":false},{"type":"event","name":"FeeReceiverSet","inputs":[{"name":"feeReceiver","type":"address","indexed":true,"internalType":"address"}],"anonymous":false},{"type":"event","name":"Initialized","inputs":[{"name":"version","type":"uint8","indexed":false,"internalType":"uint8"}],"anonymous":false},{"type":"event","name":"OwnershipTransferred","inputs":[{"name":"previousOwner","type":"address","indexed":true,"internalType":"address"},{"name":"newOwner","type":"address","indexed":true,"internalType":"address"}],"anonymous":false},{"type":"event","name":"Paused","inputs":[{"name":"account","type":"address","indexed":false,"internalType":"address"}],"anonymous":false},{"type":"event","name":"Unpaused","inputs":[{"name":"account","type":"address","indexed":false,"internalType":"address"}],"anonymous":false}],"bytecode":{"object":"0x608060405234801561001057600080fd5b50615f4a80620000216000396000f3fe608060405234801561001057600080fd5b50600436106103425760003560e01c80638c88c10c116101b8578063c6bbd5a711610104578063ddca3f43116100a2578063ee7bd3e21161007c578063ee7bd3e2146109ab578063efdcd974146109db578063f2fde38b146109f7578063fbfa77cf14610a1357610342565b8063ddca3f431461093f578063e13017451461095d578063e7d015f21461098d57610342565b8063cb4d4e09116100de578063cb4d4e09146108b7578063d153b60c146108d5578063d5fbea63146108f3578063dd811ac91461090f57610342565b8063c6bbd5a71461085d578063c8599ded1461087b578063c8f33c911461089957610342565b8063a73e1cbf11610171578063af2bcb471161014b578063af2bcb47146107e9578063b3f0067414610805578063b5ed298a14610823578063b631e80b1461083f57610342565b8063a73e1cbf14610791578063a8509fd8146107ad578063a8b54bd4146107cb57610342565b80638c88c10c146106a75780638da5cb5b146106d7578063914f0cc6146106f5578063966dae0e14610725578063978bbdb9146107435780639932ba4c1461076157610342565b8063530e784f11610292578063715018a6116102305780637ca58c551161020a5780637ca58c551461063357806388b12d5514610651578063897b8dc5146106815780638baa6bf11461069d57610342565b8063715018a6146105ef578063724e78da146105f9578063744fbc7a1461061557610342565b80635c975abb1161026c5780635c975abb1461057957806363973fda146105975780636817031b146105b557806368e0d4e1146105d157610342565b8063530e784f1461052357806353fd43321461053f5780635bb478081461055d57610342565b80632630c12f116102ff5780633fc8cef3116102d95780633fc8cef31461049d578063465a4c94146104bb5780634b3e0b80146104d75780635177942a1461050757610342565b80632630c12f14610431578063325996651461044f5780633c8da5881461047f57610342565b8063011ced5f146103475780630be52713146103655780630c02e130146103955780630e329357146103b35780631d5f45f5146103e3578063239aad0d14610401575b600080fd5b61034f610a31565b60405161035c9190614f86565b60405180910390f35b61037f600480360381019061037a919061406a565b610a37565b60405161038c9190614f86565b60405180910390f35b61039d610a4f565b6040516103aa9190614f86565b60405180910390f35b6103cd60048036038101906103c8919061445e565b610a55565b6040516103da9190614d89565b60405180910390f35b6103eb610a81565b6040516103f89190614d02565b60405180910390f35b61041b600480360381019061041691906144d6565b610aa7565b6040516104289190614ac1565b60405180910390f35b610439610ada565b6040516104469190614ac1565b60405180910390f35b6104696004803603810190610464919061406a565b610b00565b6040516104769190614f6b565b60405180910390f35b610487610b22565b6040516104949190614f86565b60405180910390f35b6104a5610c85565b6040516104b29190614d1d565b60405180910390f35b6104d560048036038101906104d09190614097565b610cab565b005b6104f160048036038101906104ec919061406a565b611106565b6040516104fe9190614f86565b60405180910390f35b610521600480360381019061051c9190614530565b61111e565b005b61053d6004803603810190610538919061406a565b61120f565b005b6105476112cb565b6040516105549190614f86565b60405180910390f35b6105776004803603810190610572919061406a565b6112d1565b005b61058161131d565b60405161058e9190614c45565b60405180910390f35b61059f611334565b6040516105ac9190614c7b565b60405180910390f35b6105cf60048036038101906105ca919061406a565b61135a565b005b6105d96113a6565b6040516105e69190614ccc565b60405180910390f35b6105f76113cc565b005b610613600480360381019061060e919061406a565b6113e0565b005b61061d61149c565b60405161062a9190614ce7565b60405180910390f35b61063b6114c2565b6040516106489190614c60565b60405180910390f35b61066b60048036038101906106669190614376565b6117df565b6040516106789190614ac1565b60405180910390f35b61069b600480360381019061069691906143a3565b61181c565b005b6106a5611cee565b005b6106c160048036038101906106bc919061406a565b611f10565b6040516106ce9190614f86565b60405180910390f35b6106df611f28565b6040516106ec9190614ac1565b60405180910390f35b61070f600480360381019061070a919061406a565b611f52565b60405161071c9190614f86565b60405180910390f35b61072d611f6a565b60405161073a9190614ac1565b60405180910390f35b61074b611f90565b6040516107589190614fd1565b60405180910390f35b61077b600480360381019061077691906144d6565b611fa3565b6040516107889190614ac1565b60405180910390f35b6107ab60048036038101906107a6919061445e565b611fd6565b005b6107b5612010565b6040516107c29190614f86565b60405180910390f35b6107d3612387565b6040516107e09190614c60565b60405180910390f35b61080360048036038101906107fe9190614259565b61238d565b005b61080d61270f565b60405161081a9190614ac1565b60405180910390f35b61083d6004803603810190610838919061406a565b612735565b005b6108476127f1565b6040516108549190614cb1565b60405180910390f35b610865612817565b6040516108729190614c96565b60405180910390f35b61088361283d565b6040516108909190614f86565b60405180910390f35b6108a1612843565b6040516108ae9190614f86565b60405180910390f35b6108bf612849565b6040516108cc9190614ac1565b60405180910390f35b6108dd61286f565b6040516108ea9190614ac1565b60405180910390f35b61090d6004803603810190610908919061406a565b612895565b005b610929600480360381019061092491906141f2565b6128e1565b6040516109369190614f86565b60405180910390f35b610947612ad8565b6040516109549190614f86565b60405180910390f35b6109776004803603810190610972919061406a565b612ade565b6040516109849190614ac1565b60405180910390f35b610995612c0f565b6040516109a29190614d38565b60405180910390f35b6109c560048036038101906109c0919061418b565b612c35565b6040516109d29190614f86565b60405180910390f35b6109f560048036038101906109f0919061406a565b612d16565b005b610a116004803603810190610a0c919061406a565b612da5565b005b610a1b612f1f565b604051610a289190614d53565b60405180910390f35b60d25481565b60e16020528060005260406000206000915090505481565b60d85481565b60608282604051602001610a6a929190614a71565b604051602081830303815290604052905092915050565b60e760009054906101000a900473ffffffffffffffffffffffffffffffffffffffff1681565b60dd6020528060005260406000206000915054906101000a900473ffffffffffffffffffffffffffffffffffffffff1681565b60d660009054906101000a900473ffffffffffffffffffffffffffffffffffffffff1681565b60e36020528060005260406000206000915054906101000a900462ffffff1681565b60008060d960009054906101000a900473ffffffffffffffffffffffffffffffffffffffff1673ffffffffffffffffffffffffffffffffffffffff1663feaf968c6040518163ffffffff1660e01b815260040160a06040518083038186803b158015610b8d57600080fd5b505afa158015610ba1573d6000803e3d6000fd5b505050506040513d601f19601f82011682018060405250810190610bc5919061455d565b505050915050600060d960009054906101000a900473ffffffffffffffffffffffffffffffffffffffff1673ffffffffffffffffffffffffffffffffffffffff1663313ce5676040518163ffffffff1660e01b815260040160206040518083038186803b158015610c3557600080fd5b505afa158015610c49573d6000803e3d6000fd5b505050506040513d601f19601f82011682018060405250810190610c6d91906145d8565b9050610c7b82826012612f45565b9150819250505090565b60ea60009054906101000a900473ffffffffffffffffffffffffffffffffffffffff1681565b60008060019054906101000a900460ff16159050808015610cdc5750600160008054906101000a900460ff1660ff16105b80610d095750610ceb30612fac565b158015610d085750600160008054906101000a900460ff1660ff16145b5b610d48576040517f08c379a0000000000000000000000000000000000000000000000000000000008152600401610d3f90614e4b565b60405180910390fd5b60016000806101000a81548160ff021916908360ff1602179055508015610d85576001600060016101000a81548160ff0219169083151502179055505b610d8d612fcf565b610d95613028565b8b60cf60006101000a81548173ffffffffffffffffffffffffffffffffffffffff021916908373ffffffffffffffffffffffffffffffffffffffff160217905550610ddf8b613081565b610de88a6130c5565b8860d781905550600a670de0b6b3a76400006001610e06919061549c565b610e109190615198565b60d8819055508760d960006101000a81548173ffffffffffffffffffffffffffffffffffffffff021916908373ffffffffffffffffffffffffffffffffffffffff1602179055508660ea60006101000a81548173ffffffffffffffffffffffffffffffffffffffff021916908373ffffffffffffffffffffffffffffffffffffffff1602179055508560eb60006101000a81548173ffffffffffffffffffffffffffffffffffffffff021916908373ffffffffffffffffffffffffffffffffffffffff1602179055508460e660006101000a81548173ffffffffffffffffffffffffffffffffffffffff021916908373ffffffffffffffffffffffffffffffffffffffff1602179055508360e760006101000a81548173ffffffffffffffffffffffffffffffffffffffff021916908373ffffffffffffffffffffffffffffffffffffffff1602179055508260e860006101000a81548173ffffffffffffffffffffffffffffffffffffffff021916908373ffffffffffffffffffffffffffffffffffffffff1602179055508160e960006101000a81548173ffffffffffffffffffffffffffffffffffffffff021916908373ffffffffffffffffffffffffffffffffffffffff160217905550600a60d160006101000a81548160ff021916908360ff1602179055504260d2819055506040518060600160405280602a8152602001615ebd602a913960d4908051906020019061102e929190613b5c565b506040518060600160405280602e8152602001615ee7602e913960d5908051906020019061105d929190613b5c565b503360d360006101000a81548173ffffffffffffffffffffffffffffffffffffffff021916908373ffffffffffffffffffffffffffffffffffffffff16021790555080156110f85760008060016101000a81548160ff0219169083151502179055507f7f26b83ff96e1f2b6a682f133852f6798a09c465da95921460cefb384740249860016040516110ef9190614d6e565b60405180910390a15b505050505050505050505050565b60e26020528060005260406000206000915090505481565b611126613109565b600060d2544261113691906154f6565b9050600c603c80836111489190615198565b6111529190615198565b11611192576040517f08c379a000000000000000000000000000000000000000000000000000000000815260040161118990614f4b565b60405180910390fd5b60648260ff16111580156111aa575060018260ff1610155b6111e9576040517f08c379a00000000000000000000000000000000000000000000000000000000081526004016111e090614dab565b60405180910390fd5b8160d160006101000a81548160ff021916908360ff1602179055504260d2819055505050565b611217613109565b600073ffffffffffffffffffffffffffffffffffffffff168173ffffffffffffffffffffffffffffffffffffffff161415611287576040517f08c379a000000000000000000000000000000000000000000000000000000000815260040161127e90614ecb565b60405180910390fd5b8060d660006101000a81548173ffffffffffffffffffffffffffffffffffffffff021916908373ffffffffffffffffffffffffffffffffffffffff16021790555050565b60dc5481565b6112d9613109565b8060e460006101000a81548173ffffffffffffffffffffffffffffffffffffffff021916908373ffffffffffffffffffffffffffffffffffffffff16021790555050565b6000609d60009054906101000a900460ff16905090565b60d960009054906101000a900473ffffffffffffffffffffffffffffffffffffffff1681565b611362613109565b8060ec60006101000a81548173ffffffffffffffffffffffffffffffffffffffff021916908373ffffffffffffffffffffffffffffffffffffffff16021790555050565b60e960009054906101000a900473ffffffffffffffffffffffffffffffffffffffff1681565b6113d4613109565b6113de6000613187565b565b6113e8613109565b600073ffffffffffffffffffffffffffffffffffffffff168173ffffffffffffffffffffffffffffffffffffffff161415611458576040517f08c379a000000000000000000000000000000000000000000000000000000000815260040161144f90614eab565b60405180910390fd5b8060d960006101000a81548173ffffffffffffffffffffffffffffffffffffffff021916908373ffffffffffffffffffffffffffffffffffffffff16021790555050565b60e860009054906101000a900473ffffffffffffffffffffffffffffffffffffffff1681565b6000806115e360d480546114d590615796565b80601f016020809104026020016040519081016040528092919081815260200182805461150190615796565b801561154e5780601f106115235761010080835404028352916020019161154e565b820191906000526020600020905b81548152906001019060200180831161153157829003601f168201915b505050505060d5805461156090615796565b80601f016020809104026020016040519081016040528092919081815260200182805461158c90615796565b80156115d95780601f106115ae576101008083540402835291602001916115d9565b820191906000526020600020905b8154815290600101906020018083116115bc57829003601f168201915b5050505050610a55565b905060006115fb60d7543063897b8dc560e01b61324d565b90506116476040518060400160405280600381526020017f6765740000000000000000000000000000000000000000000000000000000000815250838361327e9092919063ffffffff16565b6116c66040518060400160405280600581526020017f70617468310000000000000000000000000000000000000000000000000000008152506040518060400160405280600e81526020017f726573756c74732c746f6b656e730000000000000000000000000000000000008152508361327e9092919063ffffffff16565b6117456040518060400160405280600581526020017f70617468320000000000000000000000000000000000000000000000000000008152506040518060400160405280601481526020017f726573756c74732c6d61726b65745368617265730000000000000000000000008152508361327e9092919063ffffffff16565b6117c46040518060400160405280600581526020017f70617468330000000000000000000000000000000000000000000000000000008152506040518060400160405280601081526020017f726573756c74732c7377617046656573000000000000000000000000000000008152508361327e9092919063ffffffff16565b6117d86117cf6132b1565b8260d8546132db565b9250505090565b60006005600083815260200190815260200160002060009054906101000a900473ffffffffffffffffffffffffffffffffffffffff169050919050565b836005600082815260200190815260200160002060009054906101000a900473ffffffffffffffffffffffffffffffffffffffff1673ffffffffffffffffffffffffffffffffffffffff163373ffffffffffffffffffffffffffffffffffffffff16146118be576040517f08c379a00000000000000000000000000000000000000000000000000000000081526004016118b590614eeb565b60405180910390fd5b6005600082815260200190815260200160002060006101000a81549073ffffffffffffffffffffffffffffffffffffffff0219169055807f7cc135e0cebb02c3480ae5d74d377283180a2601f8f644edf7987b009316c63a60405160405180910390a282518451148015611933575081518351145b611972576040517f08c379a000000000000000000000000000000000000000000000000000000000815260040161196990614f2b565b60405180910390fd5b60008490506000849050600084905060005b8351811015611cc0578381815181106119a05761199f61592e565b5b602002602001015160dd600083815260200190815260200160002060006101000a81548173ffffffffffffffffffffffffffffffffffffffff021916908373ffffffffffffffffffffffffffffffffffffffff1602179055508060df6000868481518110611a1157611a1061592e565b5b602002602001015173ffffffffffffffffffffffffffffffffffffffff1673ffffffffffffffffffffffffffffffffffffffff16815260200190815260200160002081905550828181518110611a6a57611a6961592e565b5b602002602001015160e26000868481518110611a8957611a8861592e565b5b602002602001015173ffffffffffffffffffffffffffffffffffffffff1673ffffffffffffffffffffffffffffffffffffffff16815260200190815260200160002081905550818181518110611ae257611ae161592e565b5b602002602001015160e36000868481518110611b0157611b0061592e565b5b602002602001015173ffffffffffffffffffffffffffffffffffffffff1673ffffffffffffffffffffffffffffffffffffffff16815260200190815260200160002060006101000a81548162ffffff021916908362ffffff160217905550600060dc541415611cad57838181518110611b7d57611b7c61592e565b5b602002602001015160de600083815260200190815260200160002060006101000a81548173ffffffffffffffffffffffffffffffffffffffff021916908373ffffffffffffffffffffffffffffffffffffffff160217905550828181518110611be957611be861592e565b5b602002602001015160e16000868481518110611c0857611c0761592e565b5b602002602001015173ffffffffffffffffffffffffffffffffffffffff1673ffffffffffffffffffffffffffffffffffffffff168152602001908152602001600020819055508060e06000868481518110611c6657611c6561592e565b5b602002602001015173ffffffffffffffffffffffffffffffffffffffff1673ffffffffffffffffffffffffffffffffffffffff168152602001908152602001600020819055505b8080611cb8906157f9565b915050611984565b50825160db81905550600060dc541415611cdd57825160dc819055505b4260da819055505050505050505050565b60e460009054906101000a900473ffffffffffffffffffffffffffffffffffffffff1673ffffffffffffffffffffffffffffffffffffffff163373ffffffffffffffffffffffffffffffffffffffff161480611d97575060e560009054906101000a900473ffffffffffffffffffffffffffffffffffffffff1673ffffffffffffffffffffffffffffffffffffffff163373ffffffffffffffffffffffffffffffffffffffff16145b611dd6576040517f08c379a0000000000000000000000000000000000000000000000000000000008152600401611dcd90614dcb565b60405180910390fd5b60db5460dc8190555060005b60db54811015611f0d57600060dd600083815260200190815260200160002060009054906101000a900473ffffffffffffffffffffffffffffffffffffffff1690508060de600084815260200190815260200160002060006101000a81548173ffffffffffffffffffffffffffffffffffffffff021916908373ffffffffffffffffffffffffffffffffffffffff16021790555060e260008273ffffffffffffffffffffffffffffffffffffffff1673ffffffffffffffffffffffffffffffffffffffff1681526020019081526020016000205460e160008373ffffffffffffffffffffffffffffffffffffffff1673ffffffffffffffffffffffffffffffffffffffff16815260200190815260200160002081905550508080611f05906157f9565b915050611de2565b50565b60df6020528060005260406000206000915090505481565b6000603860009054906101000a900473ffffffffffffffffffffffffffffffffffffffff16905090565b60e06020528060005260406000206000915090505481565b60e460009054906101000a900473ffffffffffffffffffffffffffffffffffffffff1681565b60d160009054906101000a900460ff1681565b60de6020528060005260406000206000915054906101000a900473ffffffffffffffffffffffffffffffffffffffff1681565b611fde613109565b8160d49080519060200190611ff4929190613b5c565b508060d5908051906020019061200b929190613b5c565b505050565b60008060005b60dc5481101561237f5760ea60009054906101000a900473ffffffffffffffffffffffffffffffffffffffff1673ffffffffffffffffffffffffffffffffffffffff1660de600083815260200190815260200160002060009054906101000a900473ffffffffffffffffffffffffffffffffffffffff1673ffffffffffffffffffffffffffffffffffffffff1614156121995760de600082815260200190815260200160002060009054906101000a900473ffffffffffffffffffffffffffffffffffffffff1673ffffffffffffffffffffffffffffffffffffffff166370a0823160ec60009054906101000a900473ffffffffffffffffffffffffffffffffffffffff166040518263ffffffff1660e01b81526004016121379190614ac1565b60206040518083038186803b15801561214f57600080fd5b505afa158015612163573d6000803e3d6000fd5b505050506040513d601f19601f820116820180604052508101906121879190614503565b826121929190615142565b915061236c565b600061235a60de600084815260200190815260200160002060009054906101000a900473ffffffffffffffffffffffffffffffffffffffff1660ea60009054906101000a900473ffffffffffffffffffffffffffffffffffffffff1660de600086815260200190815260200160002060009054906101000a900473ffffffffffffffffffffffffffffffffffffffff1673ffffffffffffffffffffffffffffffffffffffff166370a0823160ec60009054906101000a900473ffffffffffffffffffffffffffffffffffffffff166040518263ffffffff1660e01b81526004016122839190614ac1565b60206040518083038186803b15801561229b57600080fd5b505afa1580156122af573d6000803e3d6000fd5b505050506040513d601f19601f820116820180604052508101906122d39190614503565b60e3600060de600089815260200190815260200160002060009054906101000a900473ffffffffffffffffffffffffffffffffffffffff1673ffffffffffffffffffffffffffffffffffffffff1673ffffffffffffffffffffffffffffffffffffffff16815260200190815260200160002060009054906101000a900462ffffff166128e1565b905080836123689190615142565b9250505b8080612377906157f9565b915050612016565b508091505090565b60d75481565b612395613109565b60008390506000839050600083905060005b83518110156126e3578381815181106123c3576123c261592e565b5b602002602001015160dd600083815260200190815260200160002060006101000a81548173ffffffffffffffffffffffffffffffffffffffff021916908373ffffffffffffffffffffffffffffffffffffffff1602179055508060df60008684815181106124345761243361592e565b5b602002602001015173ffffffffffffffffffffffffffffffffffffffff1673ffffffffffffffffffffffffffffffffffffffff1681526020019081526020016000208190555082818151811061248d5761248c61592e565b5b602002602001015160e260008684815181106124ac576124ab61592e565b5b602002602001015173ffffffffffffffffffffffffffffffffffffffff1673ffffffffffffffffffffffffffffffffffffffff168152602001908152602001600020819055508181815181106125055761250461592e565b5b602002602001015160e360008684815181106125245761252361592e565b5b602002602001015173ffffffffffffffffffffffffffffffffffffffff1673ffffffffffffffffffffffffffffffffffffffff16815260200190815260200160002060006101000a81548162ffffff021916908362ffffff160217905550600060dc5414156126d0578381815181106125a05761259f61592e565b5b602002602001015160de600083815260200190815260200160002060006101000a81548173ffffffffffffffffffffffffffffffffffffffff021916908373ffffffffffffffffffffffffffffffffffffffff16021790555082818151811061260c5761260b61592e565b5b602002602001015160e1600086848151811061262b5761262a61592e565b5b602002602001015173ffffffffffffffffffffffffffffffffffffffff1673ffffffffffffffffffffffffffffffffffffffff168152602001908152602001600020819055508060e060008684815181106126895761268861592e565b5b602002602001015173ffffffffffffffffffffffffffffffffffffffff1673ffffffffffffffffffffffffffffffffffffffff168152602001908152602001600020819055505b80806126db906157f9565b9150506123a7565b50825160db81905550600060dc54141561270057825160dc819055505b4260da81905550505050505050565b60d360009054906101000a900473ffffffffffffffffffffffffffffffffffffffff1681565b61273d613109565b600073ffffffffffffffffffffffffffffffffffffffff168173ffffffffffffffffffffffffffffffffffffffff1614156127ad576040517f08c379a00000000000000000000000000000000000000000000000000000000081526004016127a490614e8b565b60405180910390fd5b80606a60006101000a81548173ffffffffffffffffffffffffffffffffffffffff021916908373ffffffffffffffffffffffffffffffffffffffff16021790555050565b60e660009054906101000a900473ffffffffffffffffffffffffffffffffffffffff1681565b60eb60009054906101000a900473ffffffffffffffffffffffffffffffffffffffff1681565b60db5481565b60da5481565b60e560009054906101000a900473ffffffffffffffffffffffffffffffffffffffff1681565b606a60009054906101000a900473ffffffffffffffffffffffffffffffffffffffff1681565b61289d613109565b8060e560006101000a81548173ffffffffffffffffffffffffffffffffffffffff021916908373ffffffffffffffffffffffffffffffffffffffff16021790555050565b600080831115612ad05760008262ffffff16111561290c5761290585858585612c35565b9050612acf565b6000600267ffffffffffffffff8111156129295761292861595d565b5b6040519080825280602002602001820160405280156129575781602001602082028036833780820191505090505b509050858160008151811061296f5761296e61592e565b5b602002602001019073ffffffffffffffffffffffffffffffffffffffff16908173ffffffffffffffffffffffffffffffffffffffff168152505084816001815181106129be576129bd61592e565b5b602002602001019073ffffffffffffffffffffffffffffffffffffffff16908173ffffffffffffffffffffffffffffffffffffffff1681525050600060e860009054906101000a900473ffffffffffffffffffffffffffffffffffffffff1673ffffffffffffffffffffffffffffffffffffffff1663d06ca61f86846040518363ffffffff1660e01b8152600401612a57929190614fa1565b60006040518083038186803b158015612a6f57600080fd5b505afa158015612a83573d6000803e3d6000fd5b505050506040513d6000823e3d601f19601f82011682018060405250810190612aac9190614300565b905080600181518110612ac257612ac161592e565b5b6020026020010151925050505b5b949350505050565b60d05481565b60008060d660009054906101000a900473ffffffffffffffffffffffffffffffffffffffff1673ffffffffffffffffffffffffffffffffffffffff1663bb5705b360e760009054906101000a900473ffffffffffffffffffffffffffffffffffffffff168560ea60009054906101000a900473ffffffffffffffffffffffffffffffffffffffff16670de0b6b3a7640000610bb86040518663ffffffff1660e01b8152600401612b92959493929190614adc565b60206040518083038186803b158015612baa57600080fd5b505afa158015612bbe573d6000803e3d6000fd5b505050506040513d601f19601f82011682018060405250810190612be29190614503565b905060d660009054906101000a900473ffffffffffffffffffffffffffffffffffffffff16915050919050565b60cf60009054906101000a900473ffffffffffffffffffffffffffffffffffffffff1681565b600060d660009054906101000a900473ffffffffffffffffffffffffffffffffffffffff1673ffffffffffffffffffffffffffffffffffffffff1663bb5705b360e760009054906101000a900473ffffffffffffffffffffffffffffffffffffffff16878787876040518663ffffffff1660e01b8152600401612cbc959493929190614b2f565b60206040518083038186803b158015612cd457600080fd5b505afa158015612ce8573d6000803e3d6000fd5b505050506040513d601f19601f82011682018060405250810190612d0c9190614503565b9050949350505050565b612d1e613109565b8060d360006101000a81548173ffffffffffffffffffffffffffffffffffffffff021916908373ffffffffffffffffffffffffffffffffffffffff1602179055508073ffffffffffffffffffffffffffffffffffffffff167fbdf37c276f641820b141429d245add2552b4118c0866e5a78638e3de5ef18d9d60405160405180910390a250565b600073ffffffffffffffffffffffffffffffffffffffff168173ffffffffffffffffffffffffffffffffffffffff161415612e15576040517f08c379a0000000000000000000000000000000000000000000000000000000008152600401612e0c90614e8b565b60405180910390fd5b606a60009054906101000a900473ffffffffffffffffffffffffffffffffffffffff1673ffffffffffffffffffffffffffffffffffffffff168173ffffffffffffffffffffffffffffffffffffffff1614612ea5576040517f08c379a0000000000000000000000000000000000000000000000000000000008152600401612e9c90614e0b565b60405180910390fd5b3373ffffffffffffffffffffffffffffffffffffffff168173ffffffffffffffffffffffffffffffffffffffff1614612f13576040517f08c379a0000000000000000000000000000000000000000000000000000000008152600401612f0a90614e2b565b60405180910390fd5b612f1c81613187565b50565b60ec60009054906101000a900473ffffffffffffffffffffffffffffffffffffffff1681565b60008260ff168260ff161115612f7f578282612f61919061552a565b600a612f6d9190615267565b84612f789190615385565b9050612fa5565b8183612f8b919061552a565b600a612f979190615267565b84612fa29190615385565b90505b9392505050565b6000808273ffffffffffffffffffffffffffffffffffffffff163b119050919050565b600060019054906101000a900460ff1661301e576040517f08c379a000000000000000000000000000000000000000000000000000000000815260040161301590614f0b565b60405180910390fd5b6130266133a7565b565b600060019054906101000a900460ff16613077576040517f08c379a000000000000000000000000000000000000000000000000000000000815260040161306e90614f0b565b60405180910390fd5b61307f613408565b565b80600260006101000a81548173ffffffffffffffffffffffffffffffffffffffff021916908373ffffffffffffffffffffffffffffffffffffffff16021790555050565b80600360006101000a81548173ffffffffffffffffffffffffffffffffffffffff021916908373ffffffffffffffffffffffffffffffffffffffff16021790555050565b613111613474565b73ffffffffffffffffffffffffffffffffffffffff1661312f611f28565b73ffffffffffffffffffffffffffffffffffffffff1614613185576040517f08c379a000000000000000000000000000000000000000000000000000000000815260040161317c90614e6b565b60405180910390fd5b565b6000603860009054906101000a900473ffffffffffffffffffffffffffffffffffffffff16905081603860006101000a81548173ffffffffffffffffffffffffffffffffffffffff021916908373ffffffffffffffffffffffffffffffffffffffff1602179055508173ffffffffffffffffffffffffffffffffffffffff168173ffffffffffffffffffffffffffffffffffffffff167f8be0079c531659141344cd1fd0a4f28419497f9722a3daafe3b4186f6b6457e060405160405180910390a35050565b613255613be2565b61325d613be2565b6132748585858461347c909392919063ffffffff16565b9150509392505050565b61329582846080015161352c90919063ffffffff16565b6132ac81846080015161352c90919063ffffffff16565b505050565b6000600360009054906101000a900473ffffffffffffffffffffffffffffffffffffffff16905090565b60008060045490506001816132f09190615142565b6004819055506000634042994660e01b60008087600001513089604001518760018c6080015160000151604051602401613331989796959493929190614b82565b604051602081830303815290604052907bffffffffffffffffffffffffffffffffffffffffffffffffffffffff19166020820180517bffffffffffffffffffffffffffffffffffffffffffffffffffffffff8381831617835250505050905061339c86838684613551565b925050509392505050565b600060019054906101000a900460ff166133f6576040517f08c379a00000000000000000000000000000000000000000000000000000000081526004016133ed90614f0b565b60405180910390fd5b613406613401613474565b613187565b565b600060019054906101000a900460ff16613457576040517f08c379a000000000000000000000000000000000000000000000000000000000815260040161344e90614f0b565b60405180910390fd5b6000609d60006101000a81548160ff021916908315150217905550565b600033905090565b613484613be2565b61349485608001516101006136f5565b508385600001818152505082856020019073ffffffffffffffffffffffffffffffffffffffff16908173ffffffffffffffffffffffffffffffffffffffff16815250508185604001907bffffffffffffffffffffffffffffffffffffffffffffffffffffffff191690817bffffffffffffffffffffffffffffffffffffffffffffffffffffffff191681525050849050949350505050565b613539826003835161375f565b61354c81836138e490919063ffffffff16565b505050565b60003084604051602001613566929190614a95565b604051602081830303815290604052805190602001209050846005600083815260200190815260200160002060006101000a81548173ffffffffffffffffffffffffffffffffffffffff021916908373ffffffffffffffffffffffffffffffffffffffff160217905550807fb5e6e01e79f91267dc17b4e6314d5d4d03593d2ceee0fbb452b750bd70ea5af960405160405180910390a2600260009054906101000a900473ffffffffffffffffffffffffffffffffffffffff1673ffffffffffffffffffffffffffffffffffffffff16634000aea08685856040518463ffffffff1660e01b815260040161365c93929190614c07565b602060405180830381600087803b15801561367657600080fd5b505af115801561368a573d6000803e3d6000fd5b505050506040513d601f19601f820116820180604052508101906136ae9190614349565b6136ed576040517f08c379a00000000000000000000000000000000000000000000000000000000081526004016136e490614deb565b60405180910390fd5b949350505050565b6136fd613c4f565b600060208361370c9190615870565b146137385760208261371e9190615870565b602061372a91906154f6565b826137359190615142565b91505b81836020018181525050604051808452600081528281016020016040525082905092915050565b60178167ffffffffffffffff1611613796576137908160058460ff16901b60ff16178461390690919063ffffffff16565b506138df565b60ff8167ffffffffffffffff16116137ec576137c5601860058460ff16901b178461390690919063ffffffff16565b506137e68167ffffffffffffffff166001856139269092919063ffffffff16565b506138de565b61ffff8167ffffffffffffffff16116138435761381c601960058460ff16901b178461390690919063ffffffff16565b5061383d8167ffffffffffffffff166002856139269092919063ffffffff16565b506138dd565b63ffffffff8167ffffffffffffffff161161389c57613875601a60058460ff16901b178461390690919063ffffffff16565b506138968167ffffffffffffffff166004856139269092919063ffffffff16565b506138dc565b6138b9601b60058460ff16901b178461390690919063ffffffff16565b506138da8167ffffffffffffffff166008856139269092919063ffffffff16565b505b5b5b5b505050565b6138ec613c4f565b6138fe83846000015151848551613948565b905092915050565b61390e613c4f565b61391e8384600001515184613a37565b905092915050565b61392e613c4f565b61393f848560000151518585613a8e565b90509392505050565b613950613c4f565b825182111561395e57600080fd5b8460200151828561396f9190615142565b11156139a4576139a38560026139948860200151888761398f9190615142565b613b1c565b61399e919061549c565b613b38565b5b6000808651805187602083010193508088870111156139c35787860182525b60208701925050505b60208410613a0a57805182526020826139e59190615142565b91506020816139f49190615142565b9050602084613a0391906154f6565b93506139cc565b60006001856020036101000a03905080198251168184511681811785525050508692505050949350505050565b613a3f613c4f565b83602001518310613a6557613a648460028660200151613a5f919061549c565b613b38565b5b8351805160208583010184815381861415613a81576001820183525b5050508390509392505050565b613a96613c4f565b84602001518483613aa79190615142565b1115613acf57613ace8560028685613abf9190615142565b613ac9919061549c565b613b38565b5b6000600183610100613ae1919061521c565b613aeb91906154f6565b90508551838682010185831982511617815281518588011115613b0e5784870182525b505085915050949350505050565b600081831115613b2e57829050613b32565b8190505b92915050565b600082600001519050613b4b83836136f5565b50613b5683826138e4565b50505050565b828054613b6890615796565b90600052602060002090601f016020900481019282613b8a5760008555613bd1565b82601f10613ba357805160ff1916838001178555613bd1565b82800160010185558215613bd1579182015b82811115613bd0578251825591602001919060010190613bb5565b5b509050613bde9190613c69565b5090565b6040518060a0016040528060008019168152602001600073ffffffffffffffffffffffffffffffffffffffff16815260200160007bffffffffffffffffffffffffffffffffffffffffffffffffffffffff1916815260200160008152602001613c49613c4f565b81525090565b604051806040016040528060608152602001600081525090565b5b80821115613c82576000816000905550600101613c6a565b5090565b6000613c99613c9484615011565b614fec565b90508083825260208201905082856020860282011115613cbc57613cbb615991565b5b60005b85811015613cec5781613cd28882613e88565b845260208401935060208301925050600181019050613cbf565b5050509392505050565b6000613d09613d048461503d565b614fec565b90508083825260208201905082856020860282011115613d2c57613d2b615991565b5b60005b85811015613d5c5781613d428882613fec565b845260208401935060208301925050600181019050613d2f565b5050509392505050565b6000613d79613d7484615069565b614fec565b90508083825260208201905082856020860282011115613d9c57613d9b615991565b5b60005b85811015613dcc5781613db28882614001565b845260208401935060208301925050600181019050613d9f565b5050509392505050565b6000613de9613de484615069565b614fec565b90508083825260208201905082856020860282011115613e0c57613e0b615991565b5b60005b85811015613e3c5781613e228882614016565b845260208401935060208301925050600181019050613e0f565b5050509392505050565b6000613e59613e5484615095565b614fec565b905082815260208101848484011115613e7557613e74615996565b5b613e80848285615754565b509392505050565b600081359050613e9781615dd6565b92915050565b600081359050613eac81615ded565b92915050565b600082601f830112613ec757613ec661598c565b5b8135613ed7848260208601613c86565b91505092915050565b600082601f830112613ef557613ef461598c565b5b8135613f05848260208601613cf6565b91505092915050565b600082601f830112613f2357613f2261598c565b5b8135613f33848260208601613d66565b91505092915050565b600082601f830112613f5157613f5061598c565b5b8151613f61848260208601613dd6565b91505092915050565b600081519050613f7981615e04565b92915050565b600081359050613f8e81615e1b565b92915050565b600081519050613fa381615e32565b92915050565b600082601f830112613fbe57613fbd61598c565b5b8135613fce848260208601613e46565b91505092915050565b600081359050613fe681615e49565b92915050565b600081359050613ffb81615e60565b92915050565b60008135905061401081615e77565b92915050565b60008151905061402581615e77565b92915050565b60008135905061403a81615e8e565b92915050565b60008151905061404f81615ea5565b92915050565b60008151905061406481615e8e565b92915050565b6000602082840312156140805761407f6159a0565b5b600061408e84828501613e88565b91505092915050565b60008060008060008060008060008060006101608c8e0312156140bd576140bc6159a0565b5b60006140cb8e828f01613e9d565b9b505060206140dc8e828f01613e88565b9a505060406140ed8e828f01613e88565b99505060606140fe8e828f01613f7f565b985050608061410f8e828f01613e88565b97505060a06141208e828f01613e88565b96505060c06141318e828f01613e88565b95505060e06141428e828f01613e88565b9450506101006141548e828f01613e88565b9350506101206141668e828f01613e88565b9250506101406141788e828f01613e88565b9150509295989b509295989b9093969950565b600080600080608085870312156141a5576141a46159a0565b5b60006141b387828801613e88565b94505060206141c487828801613e88565b93505060406141d587828801613fd7565b92505060606141e687828801613fec565b91505092959194509250565b6000806000806080858703121561420c5761420b6159a0565b5b600061421a87828801613e88565b945050602061422b87828801613e88565b935050604061423c87828801614001565b925050606061424d87828801613fec565b91505092959194509250565b600080600060608486031215614272576142716159a0565b5b600084013567ffffffffffffffff8111156142905761428f61599b565b5b61429c86828701613eb2565b935050602084013567ffffffffffffffff8111156142bd576142bc61599b565b5b6142c986828701613f0e565b925050604084013567ffffffffffffffff8111156142ea576142e961599b565b5b6142f686828701613ee0565b9150509250925092565b600060208284031215614316576143156159a0565b5b600082015167ffffffffffffffff8111156143345761433361599b565b5b61434084828501613f3c565b91505092915050565b60006020828403121561435f5761435e6159a0565b5b600061436d84828501613f6a565b91505092915050565b60006020828403121561438c5761438b6159a0565b5b600061439a84828501613f7f565b91505092915050565b600080600080608085870312156143bd576143bc6159a0565b5b60006143cb87828801613f7f565b945050602085013567ffffffffffffffff8111156143ec576143eb61599b565b5b6143f887828801613eb2565b935050604085013567ffffffffffffffff8111156144195761441861599b565b5b61442587828801613f0e565b925050606085013567ffffffffffffffff8111156144465761444561599b565b5b61445287828801613ee0565b91505092959194509250565b60008060408385031215614475576144746159a0565b5b600083013567ffffffffffffffff8111156144935761449261599b565b5b61449f85828601613fa9565b925050602083013567ffffffffffffffff8111156144c0576144bf61599b565b5b6144cc85828601613fa9565b9150509250929050565b6000602082840312156144ec576144eb6159a0565b5b60006144fa84828501614001565b91505092915050565b600060208284031215614519576145186159a0565b5b600061452784828501614016565b91505092915050565b600060208284031215614546576145456159a0565b5b60006145548482850161402b565b91505092915050565b600080600080600060a08688031215614579576145786159a0565b5b600061458788828901614040565b955050602061459888828901613f94565b94505060406145a988828901614016565b93505060606145ba88828901614016565b92505060806145cb88828901614040565b9150509295509295909350565b6000602082840312156145ee576145ed6159a0565b5b60006145fc84828501614055565b91505092915050565b6000614611838361461d565b60208301905092915050565b6146268161555e565b82525050565b6146358161555e565b82525050565b6000614646826150d6565b6146508185615104565b935061465b836150c6565b8060005b8381101561468c5781516146738882614605565b975061467e836150f7565b92505060018101905061465f565b5085935050505092915050565b6146a281615582565b82525050565b6146b18161558e565b82525050565b6146c081615598565b82525050565b60006146d1826150e1565b6146db8185615115565b93506146eb818560208601615763565b6146f4816159a5565b840191505092915050565b600061470a826150e1565b6147148185615126565b9350614724818560208601615763565b80840191505092915050565b61473981615646565b82525050565b61475061474b82615658565b615842565b82525050565b61475f8161566a565b82525050565b61476e8161567c565b82525050565b61477d8161568e565b82525050565b61478c816156a0565b82525050565b61479b816156b2565b82525050565b6147aa816156c4565b82525050565b6147b9816156d6565b82525050565b6147c8816156e8565b82525050565b6147d7816156fa565b82525050565b6147e68161570c565b82525050565b6147f58161571e565b82525050565b6000614806826150ec565b6148108185615131565b9350614820818560208601615763565b614829816159a5565b840191505092915050565b6000614841603383615131565b915061484c826159d0565b604082019050919050565b6000614864602083615131565b915061486f82615a1f565b602082019050919050565b6000614887602383615131565b915061489282615a48565b604082019050919050565b60006148aa603283615131565b91506148b582615a97565b604082019050919050565b60006148cd603a83615131565b91506148d882615ae6565b604082019050919050565b60006148f0602e83615131565b91506148fb82615b35565b604082019050919050565b6000614913602083615131565b915061491e82615b84565b602082019050919050565b6000614936603083615131565b915061494182615bad565b604082019050919050565b6000614959602e83615131565b915061496482615bfc565b604082019050919050565b600061497c602b83615131565b915061498782615c4b565b604082019050919050565b600061499f602883615131565b91506149aa82615c9a565b604082019050919050565b60006149c2602b83615131565b91506149cd82615ce9565b604082019050919050565b60006149e5602b83615131565b91506149f082615d38565b604082019050919050565b6000614a08603983615131565b9150614a1382615d87565b604082019050919050565b614a27816155ce565b82525050565b614a368161560a565b82525050565b614a4581615619565b82525050565b614a5c614a5782615619565b615866565b82525050565b614a6b81615623565b82525050565b6000614a7d82856146ff565b9150614a8982846146ff565b91508190509392505050565b6000614aa1828561473f565b601482019150614ab18284614a4b565b6020820191508190509392505050565b6000602082019050614ad6600083018461462c565b92915050565b600060a082019050614af1600083018861462c565b614afe602083018761462c565b614b0b604083018661462c565b614b1860608301856147ce565b614b2560808301846147ec565b9695505050505050565b600060a082019050614b44600083018861462c565b614b51602083018761462c565b614b5e604083018661462c565b614b6b6060830185614a1e565b614b786080830184614a2d565b9695505050505050565b600061010082019050614b98600083018b61462c565b614ba5602083018a614a3c565b614bb260408301896146a8565b614bbf606083018861462c565b614bcc60808301876146b7565b614bd960a0830186614a3c565b614be660c0830185614a3c565b81810360e0830152614bf881846146c6565b90509998505050505050505050565b6000606082019050614c1c600083018661462c565b614c296020830185614a3c565b8181036040830152614c3b81846146c6565b9050949350505050565b6000602082019050614c5a6000830184614699565b92915050565b6000602082019050614c7560008301846146a8565b92915050565b6000602082019050614c906000830184614730565b92915050565b6000602082019050614cab6000830184614756565b92915050565b6000602082019050614cc66000830184614765565b92915050565b6000602082019050614ce16000830184614774565b92915050565b6000602082019050614cfc6000830184614783565b92915050565b6000602082019050614d176000830184614792565b92915050565b6000602082019050614d3260008301846147a1565b92915050565b6000602082019050614d4d60008301846147b0565b92915050565b6000602082019050614d6860008301846147bf565b92915050565b6000602082019050614d8360008301846147dd565b92915050565b60006020820190508181036000830152614da381846147fb565b905092915050565b60006020820190508181036000830152614dc481614834565b9050919050565b60006020820190508181036000830152614de481614857565b9050919050565b60006020820190508181036000830152614e048161487a565b9050919050565b60006020820190508181036000830152614e248161489d565b9050919050565b60006020820190508181036000830152614e44816148c0565b9050919050565b60006020820190508181036000830152614e64816148e3565b9050919050565b60006020820190508181036000830152614e8481614906565b9050919050565b60006020820190508181036000830152614ea481614929565b9050919050565b60006020820190508181036000830152614ec48161494c565b9050919050565b60006020820190508181036000830152614ee48161496f565b9050919050565b60006020820190508181036000830152614f0481614992565b9050919050565b60006020820190508181036000830152614f24816149b5565b9050919050565b60006020820190508181036000830152614f44816149d8565b9050919050565b60006020820190508181036000830152614f64816149fb565b9050919050565b6000602082019050614f806000830184614a2d565b92915050565b6000602082019050614f9b6000830184614a3c565b92915050565b6000604082019050614fb66000830185614a3c565b8181036020830152614fc8818461463b565b90509392505050565b6000602082019050614fe66000830184614a62565b92915050565b6000614ff6615007565b905061500282826157c8565b919050565b6000604051905090565b600067ffffffffffffffff82111561502c5761502b61595d565b5b602082029050602081019050919050565b600067ffffffffffffffff8211156150585761505761595d565b5b602082029050602081019050919050565b600067ffffffffffffffff8211156150845761508361595d565b5b602082029050602081019050919050565b600067ffffffffffffffff8211156150b0576150af61595d565b5b6150b9826159a5565b9050602081019050919050565b6000819050602082019050919050565b600081519050919050565b600081519050919050565b600081519050919050565b6000602082019050919050565b600082825260208201905092915050565b600082825260208201905092915050565b600081905092915050565b600082825260208201905092915050565b600061514d82615619565b915061515883615619565b9250827fffffffffffffffffffffffffffffffffffffffffffffffffffffffffffffffff0382111561518d5761518c6158a1565b5b828201905092915050565b60006151a382615619565b91506151ae83615619565b9250826151be576151bd6158d0565b5b828204905092915050565b6000808291508390505b6001851115615213578086048111156151ef576151ee6158a1565b5b60018516156151fe5780820291505b808102905061520c856159c3565b94506151d3565b94509492505050565b600061522782615619565b915061523283615619565b925061525f7fffffffffffffffffffffffffffffffffffffffffffffffffffffffffffffffff84846152b2565b905092915050565b600061527282615619565b915061527d83615623565b92506152aa7fffffffffffffffffffffffffffffffffffffffffffffffffffffffffffffffff84846152b2565b905092915050565b6000826152c2576001905061537e565b816152d0576000905061537e565b81600181146152e657600281146152f05761531f565b600191505061537e565b60ff841115615302576153016158a1565b5b8360020a915084821115615319576153186158a1565b5b5061537e565b5060208310610133831016604e8410600b84101617156153545782820a90508381111561534f5761534e6158a1565b5b61537e565b61536184848460016151c9565b92509050818404811115615378576153776158a1565b5b81810290505b9392505050565b6000615390826155c4565b915061539b836155c4565b9250827f7fffffffffffffffffffffffffffffffffffffffffffffffffffffffffffffff04821160008413600084131616156153da576153d96158a1565b5b817f80000000000000000000000000000000000000000000000000000000000000000583126000841260008413161615615417576154166158a1565b5b827f80000000000000000000000000000000000000000000000000000000000000000582126000841360008412161615615454576154536158a1565b5b827f7fffffffffffffffffffffffffffffffffffffffffffffffffffffffffffffff0582126000841260008412161615615491576154906158a1565b5b828202905092915050565b60006154a782615619565b91506154b283615619565b9250817fffffffffffffffffffffffffffffffffffffffffffffffffffffffffffffffff04831182151516156154eb576154ea6158a1565b5b828202905092915050565b600061550182615619565b915061550c83615619565b92508282101561551f5761551e6158a1565b5b828203905092915050565b600061553582615623565b915061554083615623565b925082821015615553576155526158a1565b5b828203905092915050565b6000615569826155ea565b9050919050565b600061557b826155ea565b9050919050565b60008115159050919050565b6000819050919050565b60007fffffffff0000000000000000000000000000000000000000000000000000000082169050919050565b6000819050919050565b60006fffffffffffffffffffffffffffffffff82169050919050565b600073ffffffffffffffffffffffffffffffffffffffff82169050919050565b600062ffffff82169050919050565b6000819050919050565b600060ff82169050919050565b600069ffffffffffffffffffff82169050919050565b600061565182615730565b9050919050565b600061566382615730565b9050919050565b600061567582615730565b9050919050565b600061568782615730565b9050919050565b600061569982615730565b9050919050565b60006156ab82615730565b9050919050565b60006156bd82615730565b9050919050565b60006156cf82615730565b9050919050565b60006156e182615730565b9050919050565b60006156f382615730565b9050919050565b6000615705826155ce565b9050919050565b600061571782615623565b9050919050565b60006157298261560a565b9050919050565b600061573b82615742565b9050919050565b600061574d826155ea565b9050919050565b82818337600083830152505050565b60005b83811015615781578082015181840152602081019050615766565b83811115615790576000848401525b50505050565b600060028204905060018216806157ae57607f821691505b602082108114156157c2576157c16158ff565b5b50919050565b6157d1826159a5565b810181811067ffffffffffffffff821117156157f0576157ef61595d565b5b80604052505050565b600061580482615619565b91507fffffffffffffffffffffffffffffffffffffffffffffffffffffffffffffffff821415615837576158366158a1565b5b600182019050919050565b600061584d82615854565b9050919050565b600061585f826159b6565b9050919050565b6000819050919050565b600061587b82615619565b915061588683615619565b925082615896576158956158d0565b5b828206905092915050565b7f4e487b7100000000000000000000000000000000000000000000000000000000600052601160045260246000fd5b7f4e487b7100000000000000000000000000000000000000000000000000000000600052601260045260246000fd5b7f4e487b7100000000000000000000000000000000000000000000000000000000600052602260045260246000fd5b7f4e487b7100000000000000000000000000000000000000000000000000000000600052603260045260246000fd5b7f4e487b7100000000000000000000000000000000000000000000000000000000600052604160045260246000fd5b600080fd5b600080fd5b600080fd5b600080fd5b600080fd5b6000601f19601f8301169050919050565b60008160601b9050919050565b60008160011c9050919050565b7f546865206e65774665652073686f756c64206265206265747765656e2031206160008201527f6e64203130302028302e303125202d2031252900000000000000000000000000602082015250565b7f43616c6c6572206973206e6f74206120666163746f727920636f6e7472616374600082015250565b7f756e61626c6520746f207472616e73666572416e6443616c6c20746f206f726160008201527f636c650000000000000000000000000000000000000000000000000000000000602082015250565b7f50726f706f7361626c654f776e61626c653a206e6577206f776e65722069732060008201527f6e6f742070726f706f736564206f776e65720000000000000000000000000000602082015250565b7f50726f706f7361626c654f776e61626c653a20746869732063616c6c206d757360008201527f74206265206d61646520627920746865206e6577206f776e6572000000000000602082015250565b7f496e697469616c697a61626c653a20636f6e747261637420697320616c72656160008201527f647920696e697469616c697a6564000000000000000000000000000000000000602082015250565b7f4f776e61626c653a2063616c6c6572206973206e6f7420746865206f776e6572600082015250565b7f50726f706f7361626c654f776e61626c653a206e6577206f776e65722069732060008201527f746865207a65726f206164647265737300000000000000000000000000000000602082015250565b7f49434f3a205072696365206665656420616464726573732063616e6e6f74206260008201527f65207a65726f2061646472657373000000000000000000000000000000000000602082015250565b7f5072696365206f7261636c6520616464726573732063616e6e6f74206265207a60008201527f65726f2061646472657373000000000000000000000000000000000000000000602082015250565b7f536f75726365206d75737420626520746865206f7261636c65206f662074686560008201527f2072657175657374000000000000000000000000000000000000000000000000602082015250565b7f496e697469616c697a61626c653a20636f6e7472616374206973206e6f74206960008201527f6e697469616c697a696e67000000000000000000000000000000000000000000602082015250565b7f546865206c656e677468206f6620746865206172726179732073686f756c642060008201527f6265207468652073616d65000000000000000000000000000000000000000000602082015250565b7f596f752073686f756c642077616974206174206c6561737420313220686f757260008201527f7320616674657220746865206c61746573742075706461746500000000000000602082015250565b615ddf8161555e565b8114615dea57600080fd5b50565b615df681615570565b8114615e0157600080fd5b50565b615e0d81615582565b8114615e1857600080fd5b50565b615e248161558e565b8114615e2f57600080fd5b50565b615e3b816155c4565b8114615e4657600080fd5b50565b615e52816155ce565b8114615e5d57600080fd5b50565b615e698161560a565b8114615e7457600080fd5b50565b615e8081615619565b8114615e8b57600080fd5b50565b615e9781615623565b8114615ea257600080fd5b50565b615eae81615630565b8114615eb957600080fd5b5056fe68747470733a2f2f6170702e6e65786c6162732e696f2f6170692f616c6c46756e64696e6752617465733f6d756c7469706c7946756e633d31382674696d65734e656746756e643d74727565266172726179733d74727565a26469706673582212203dd0ad66e1342dc78e879505319b70fd23f52eba2284dfcae78b60e59da8579064736f6c63430008070033","linkReferences":{}},"methodIdentifiers":{"concatenation(string,string)":"0e329357","currentList(uint256)":"9932ba4c","estimateAmountOut(address,address,uint128,uint24)":"ee7bd3e2","externalJobId()":"a8b54bd4","factoryAddress()":"966dae0e","factoryBalancerAddress()":"cb4d4e09","factoryV2()":"68e0d4e1","factoryV3()":"1d5f45f5","fee()":"ddca3f43","feeRate()":"978bbdb9","feeReceiver()":"b3f00674","fulfillAssetsData(bytes32,address[],uint256[],uint24[])":"897b8dc5","getAmountOut(address,address,uint256,uint24)":"dd811ac9","getPendingRequest(bytes32)":"88b12d55","getPortfolioBalance()":"a8509fd8","getPortfolioBalance2(address)":"e1301745","indexToken()":"e7d015f2","initialize(address,address,address,bytes32,address,address,address,address,address,address,address)":"465a4c94","lastUpdateTime()":"c8f33c91","latestFeeUpdate()":"011ced5f","mockFillAssetsList(address[],uint256[],uint24[])":"af2bcb47","oracleList(uint256)":"239aad0d","oraclePayment()":"0c02e130","owner()":"8da5cb5b","paused()":"5c975abb","priceInWei()":"3c8da588","priceOracle()":"2630c12f","proposeOwner(address)":"b5ed298a","proposedOwner()":"d153b60c","quoter()":"c6bbd5a7","renounceOwnership()":"715018a6","requestAssetsData()":"7ca58c55","setFactory(address)":"5bb47808","setFactoryBalancer(address)":"d5fbea63","setFeeRate(uint8)":"5177942a","setFeeReceiver(address)":"efdcd974","setPriceFeed(address)":"724e78da","setPriceOracle(address)":"530e784f","setUrl(string,string)":"a73e1cbf","setVault(address)":"6817031b","swapRouterV2()":"744fbc7a","swapRouterV3()":"b631e80b","toUsdPriceFeed()":"63973fda","tokenCurrentListIndex(address)":"914f0cc6","tokenCurrentMarketShare(address)":"0be52713","tokenOracleListIndex(address)":"8c88c10c","tokenOracleMarketShare(address)":"4b3e0b80","tokenSwapFee(address)":"32599665","totalCurrentList()":"53fd4332","totalOracleList()":"c8599ded","transferOwnership(address)":"f2fde38b","updateCurrentList()":"8baa6bf1","vault()":"fbfa77cf","weth()":"3fc8cef3"},"id":4}