{"abi":[{"type":"constructor","inputs":[{"name":"_wethAddress","type":"address","internalType":"address"},{"name":"_swapRouterAddress","type":"address","internalType":"address"}],"stateMutability":"nonpayable"},{"type":"function","name":"swapExactInputSingle","inputs":[{"name":"_tokenIn","type":"address","internalType":"address"},{"name":"amountIn","type":"uint256","internalType":"uint256"},{"name":"_tokenOut","type":"address","internalType":"address"}],"outputs":[{"name":"amountOut","type":"uint256","internalType":"uint256"}],"stateMutability":"nonpayable"},{"type":"function","name":"swapExactInputSingleFromETH","inputs":[{"name":"amountIn","type":"uint256","internalType":"uint256"},{"name":"_tokenOut","type":"address","internalType":"address"}],"outputs":[{"name":"amountOut","type":"uint256","internalType":"uint256"}],"stateMutability":"payable"},{"type":"function","name":"swapExactInputSingleToETH","inputs":[{"name":"amountIn","type":"uint256","internalType":"uint256"},{"name":"_tokenIn","type":"address","internalType":"address"}],"outputs":[{"name":"amountOut","type":"uint256","internalType":"uint256"}],"stateMutability":"nonpayable"},{"type":"function","name":"swapRouter","inputs":[],"outputs":[{"name":"","type":"address","internalType":"contract ISwapRouter"}],"stateMutability":"view"},{"type":"function","name":"swapRouterAddress","inputs":[],"outputs":[{"name":"","type":"address","internalType":"address"}],"stateMutability":"view"},{"type":"function","name":"wethAddress","inputs":[],"outputs":[{"name":"","type":"address","internalType":"address"}],"stateMutability":"view"}],"bytecode":{"object":"0x6080604052348015600f57600080fd5b506040516109bc3803806109bc833981016040819052602c916084565b600180546001600160a01b039384166001600160a01b031991821617909155600080549290931691811682179092556002805490921617905560b2565b80516001600160a01b0381168114607f57600080fd5b919050565b60008060408385031215609657600080fd5b609d836069565b915060a9602084016069565b90509250929050565b6108fb806100c16000396000f3fe6080604052600436106100555760003560e01c80630c7a992e1461005a5780634f0e0ef31461008d5780635054a0d3146100c557806390fcdb36146100d8578063c31c9c07146100f8578063dbafffa714610118575b600080fd5b34801561006657600080fd5b5061007a61007536600461076f565b610138565b6040519081526020015b60405180910390f35b34801561009957600080fd5b506001546100ad906001600160a01b031681565b6040516001600160a01b039091168152602001610084565b61007a6100d33660046107ab565b610219565b3480156100e457600080fd5b506000546100ad906001600160a01b031681565b34801561010457600080fd5b506002546100ad906001600160a01b031681565b34801561012457600080fd5b5061007a6101333660046107ab565b61035f565b600061014684333086610549565b60025461015e9085906001600160a01b031685610653565b60408051610100810182526001600160a01b0380871682528481166020830152610bb88284015233606083015242608083015260a08201869052600060c0830181905260e0830152600254925163414bf38960e01b81529192169063414bf389906101cd9084906004016107d7565b6020604051808303816000875af11580156101ec573d6000803e3d6000fd5b505050506040513d601f19601f820116820180604052508101906102109190610854565b95945050505050565b6000600160009054906101000a90046001600160a01b03166001600160a01b031663d0e30db0346040518263ffffffff1660e01b81526004016000604051808303818588803b15801561026b57600080fd5b505af115801561027f573d6000803e3d6000fd5b50506001546002546102a294506001600160a01b03918216935016905085610653565b60408051610100810182526001546001600160a01b0390811682528481166020830152610bb88284015233606083015242608083015260a08201869052600060c0830181905260e0830152600254925163414bf38960e01b81529192169063414bf389906103149084906004016107d7565b6020604051808303816000875af1158015610333573d6000803e3d6000fd5b505050506040513d601f19601f820116820180604052508101906103579190610854565b949350505050565b600061036d82333086610549565b6002546103859083906001600160a01b031685610653565b60408051610100810182526001600160a01b03808516825260015481166020830152610bb88284015230606083015242608083015260a08201869052600060c0830181905260e0830152600254925163414bf38960e01b81529192169063414bf389906103f69084906004016107d7565b6020604051808303816000875af1158015610415573d6000803e3d6000fd5b505050506040513d601f19601f820116820180604052508101906104399190610854565b600154604051632e1a7d4d60e01b8152600481018390529193506001600160a01b031690632e1a7d4d90602401600060405180830381600087803b15801561048057600080fd5b505af1158015610494573d6000803e3d6000fd5b50506040516000925033915084908381818185875af1925050503d80600081146104da576040519150601f19603f3d011682016040523d82523d6000602084013e6104df565b606091505b50509050806105415760405162461bcd60e51b8152602060048201526024808201527f7472616e736665722065746820746f20746865207265717565737465722066616044820152631a5b195960e21b60648201526084015b60405180910390fd5b505092915050565b604080516001600160a01b0385811660248301528481166044830152606480830185905283518084039091018152608490920183526020820180516001600160e01b03166323b872dd60e01b17905291516000928392908816916105ad919061086d565b6000604051808303816000865af19150503d80600081146105ea576040519150601f19603f3d011682016040523d82523d6000602084013e6105ef565b606091505b5091509150818015610619575080511580610619575080806020019051810190610619919061089c565b61064b5760405162461bcd60e51b815260206004820152600360248201526229aa2360e91b6044820152606401610538565b505050505050565b604080516001600160a01b038481166024830152604480830185905283518084039091018152606490920183526020820180516001600160e01b031663095ea7b360e01b17905291516000928392908716916106af919061086d565b6000604051808303816000865af19150503d80600081146106ec576040519150601f19603f3d011682016040523d82523d6000602084013e6106f1565b606091505b509150915081801561071b57508051158061071b57508080602001905181019061071b919061089c565b61074c5760405162461bcd60e51b8152602060048201526002602482015261534160f01b6044820152606401610538565b5050505050565b80356001600160a01b038116811461076a57600080fd5b919050565b60008060006060848603121561078457600080fd5b61078d84610753565b9250602084013591506107a260408501610753565b90509250925092565b600080604083850312156107be57600080fd5b823591506107ce60208401610753565b90509250929050565b60006101008201905060018060a01b0380845116835280602085015116602084015262ffffff6040850151166040840152806060850151166060840152506080830151608083015260a083015160a083015260c083015160c083015260e083015161084d60e08401826001600160a01b03169052565b5092915050565b60006020828403121561086657600080fd5b5051919050565b6000825160005b8181101561088e5760208186018101518583015201610874565b506000920191825250919050565b6000602082840312156108ae57600080fd5b815180151581146108be57600080fd5b939250505056fea2646970667358221220f76c696fcddbe6a13caea817fed90b236b380dd9c97c45ab16249a97a2e9744964736f6c63430008190033","linkReferences":{}},"methodIdentifiers":{"swapExactInputSingle(address,uint256,address)":"0c7a992e","swapExactInputSingleFromETH(uint256,address)":"5054a0d3","swapExactInputSingleToETH(uint256,address)":"dbafffa7","swapRouter()":"c31c9c07","swapRouterAddress()":"90fcdb36","wethAddress()":"4f0e0ef3"},"id":1}