{"abi":[{"type":"constructor","inputs":[{"name":"_wethAddress","type":"address","internalType":"address"},{"name":"_swapRouterAddress","type":"address","internalType":"address"}],"stateMutability":"nonpayable"},{"type":"function","name":"swapExactInputSingle","inputs":[{"name":"_tokenIn","type":"address","internalType":"address"},{"name":"amountIn","type":"uint256","internalType":"uint256"},{"name":"_tokenOut","type":"address","internalType":"address"}],"outputs":[{"name":"amountOut","type":"uint256","internalType":"uint256"}],"stateMutability":"nonpayable"},{"type":"function","name":"swapExactInputSingleFromETH","inputs":[{"name":"amountIn","type":"uint256","internalType":"uint256"},{"name":"_tokenOut","type":"address","internalType":"address"}],"outputs":[{"name":"amountOut","type":"uint256","internalType":"uint256"}],"stateMutability":"payable"},{"type":"function","name":"swapExactInputSingleToETH","inputs":[{"name":"amountIn","type":"uint256","internalType":"uint256"},{"name":"_tokenIn","type":"address","internalType":"address"}],"outputs":[{"name":"amountOut","type":"uint256","internalType":"uint256"}],"stateMutability":"nonpayable"},{"type":"function","name":"swapRouter","inputs":[],"outputs":[{"name":"","type":"address","internalType":"contract ISwapRouter"}],"stateMutability":"view"},{"type":"function","name":"swapRouterAddress","inputs":[],"outputs":[{"name":"","type":"address","internalType":"address"}],"stateMutability":"view"},{"type":"function","name":"wethAddress","inputs":[],"outputs":[{"name":"","type":"address","internalType":"address"}],"stateMutability":"view"}],"bytecode":{"object":"0x608060405234801561001057600080fd5b506040516113883803806113888339818101604052810190610032919061017e565b81600160006101000a81548173ffffffffffffffffffffffffffffffffffffffff021916908373ffffffffffffffffffffffffffffffffffffffff160217905550806000806101000a81548173ffffffffffffffffffffffffffffffffffffffff021916908373ffffffffffffffffffffffffffffffffffffffff16021790555060008054906101000a900473ffffffffffffffffffffffffffffffffffffffff16600260006101000a81548173ffffffffffffffffffffffffffffffffffffffff021916908373ffffffffffffffffffffffffffffffffffffffff16021790555050506101be565b600080fd5b600073ffffffffffffffffffffffffffffffffffffffff82169050919050565b600061014b82610120565b9050919050565b61015b81610140565b811461016657600080fd5b50565b60008151905061017881610152565b92915050565b600080604083850312156101955761019461011b565b5b60006101a385828601610169565b92505060206101b485828601610169565b9150509250929050565b6111bb806101cd6000396000f3fe6080604052600436106100555760003560e01c80630c7a992e1461005a5780634f0e0ef3146100975780635054a0d3146100c257806390fcdb36146100f2578063c31c9c071461011d578063dbafffa714610148575b600080fd5b34801561006657600080fd5b50610081600480360381019061007c9190610bd6565b610185565b60405161008e9190610c38565b60405180910390f35b3480156100a357600080fd5b506100ac610307565b6040516100b99190610c62565b60405180910390f35b6100dc60048036038101906100d79190610c7d565b61032d565b6040516100e99190610c38565b60405180910390f35b3480156100fe57600080fd5b50610107610569565b6040516101149190610c62565b60405180910390f35b34801561012957600080fd5b5061013261058d565b60405161013f9190610d1c565b60405180910390f35b34801561015457600080fd5b5061016f600480360381019061016a9190610c7d565b6105b3565b60405161017c9190610c38565b60405180910390f35b600061019384333086610890565b6101c084600260009054906101000a900473ffffffffffffffffffffffffffffffffffffffff16856109e8565b60006040518061010001604052808673ffffffffffffffffffffffffffffffffffffffff1681526020018473ffffffffffffffffffffffffffffffffffffffff168152602001610bb862ffffff1681526020013373ffffffffffffffffffffffffffffffffffffffff16815260200142815260200185815260200160008152602001600073ffffffffffffffffffffffffffffffffffffffff168152509050600260009054906101000a900473ffffffffffffffffffffffffffffffffffffffff1673ffffffffffffffffffffffffffffffffffffffff1663414bf389826040518263ffffffff1660e01b81526004016102ba9190610e24565b6020604051808303816000875af11580156102d9573d6000803e3d6000fd5b505050506040513d601f19601f820116820180604052508101906102fd9190610e55565b9150509392505050565b600160009054906101000a900473ffffffffffffffffffffffffffffffffffffffff1681565b6000600160009054906101000a900473ffffffffffffffffffffffffffffffffffffffff1673ffffffffffffffffffffffffffffffffffffffff1663d0e30db0346040518263ffffffff1660e01b81526004016000604051808303818588803b15801561039957600080fd5b505af11580156103ad573d6000803e3d6000fd5b5050505050610401600160009054906101000a900473ffffffffffffffffffffffffffffffffffffffff16600260009054906101000a900473ffffffffffffffffffffffffffffffffffffffff16856109e8565b6000604051806101000160405280600160009054906101000a900473ffffffffffffffffffffffffffffffffffffffff1673ffffffffffffffffffffffffffffffffffffffff1681526020018473ffffffffffffffffffffffffffffffffffffffff168152602001610bb862ffffff1681526020013373ffffffffffffffffffffffffffffffffffffffff16815260200142815260200185815260200160008152602001600073ffffffffffffffffffffffffffffffffffffffff168152509050600260009054906101000a900473ffffffffffffffffffffffffffffffffffffffff1673ffffffffffffffffffffffffffffffffffffffff1663414bf389826040518263ffffffff1660e01b815260040161051d9190610e24565b6020604051808303816000875af115801561053c573d6000803e3d6000fd5b505050506040513d601f19601f820116820180604052508101906105609190610e55565b91505092915050565b60008054906101000a900473ffffffffffffffffffffffffffffffffffffffff1681565b600260009054906101000a900473ffffffffffffffffffffffffffffffffffffffff1681565b60006105c182333086610890565b6105ee82600260009054906101000a900473ffffffffffffffffffffffffffffffffffffffff16856109e8565b60006040518061010001604052808473ffffffffffffffffffffffffffffffffffffffff168152602001600160009054906101000a900473ffffffffffffffffffffffffffffffffffffffff1673ffffffffffffffffffffffffffffffffffffffff168152602001610bb862ffffff1681526020013073ffffffffffffffffffffffffffffffffffffffff16815260200142815260200185815260200160008152602001600073ffffffffffffffffffffffffffffffffffffffff168152509050600260009054906101000a900473ffffffffffffffffffffffffffffffffffffffff1673ffffffffffffffffffffffffffffffffffffffff1663414bf389826040518263ffffffff1660e01b815260040161070a9190610e24565b6020604051808303816000875af1158015610729573d6000803e3d6000fd5b505050506040513d601f19601f8201168201806040525081019061074d9190610e55565b9150600160009054906101000a900473ffffffffffffffffffffffffffffffffffffffff1673ffffffffffffffffffffffffffffffffffffffff16632e1a7d4d836040518263ffffffff1660e01b81526004016107aa9190610c38565b600060405180830381600087803b1580156107c457600080fd5b505af11580156107d8573d6000803e3d6000fd5b5050505060003373ffffffffffffffffffffffffffffffffffffffff168360405161080290610eb3565b60006040518083038185875af1925050503d806000811461083f576040519150601f19603f3d011682016040523d82523d6000602084013e610844565b606091505b5050905080610888576040517f08c379a000000000000000000000000000000000000000000000000000000000815260040161087f90610f4b565b60405180910390fd5b505092915050565b6000808573ffffffffffffffffffffffffffffffffffffffff166323b872dd60e01b8686866040516024016108c793929190610f6b565b604051602081830303815290604052907bffffffffffffffffffffffffffffffffffffffffffffffffffffffff19166020820180517bffffffffffffffffffffffffffffffffffffffffffffffffffffffff83818316178352505050506040516109319190611008565b6000604051808303816000865af19150503d806000811461096e576040519150601f19603f3d011682016040523d82523d6000602084013e610973565b606091505b50915091508180156109a157506000815114806109a057508080602001905181019061099f9190611057565b5b5b6109e0576040517f08c379a00000000000000000000000000000000000000000000000000000000081526004016109d7906110d0565b60405180910390fd5b505050505050565b6000808473ffffffffffffffffffffffffffffffffffffffff1663095ea7b360e01b8585604051602401610a1d9291906110f0565b604051602081830303815290604052907bffffffffffffffffffffffffffffffffffffffffffffffffffffffff19166020820180517bffffffffffffffffffffffffffffffffffffffffffffffffffffffff8381831617835250505050604051610a879190611008565b6000604051808303816000865af19150503d8060008114610ac4576040519150601f19603f3d011682016040523d82523d6000602084013e610ac9565b606091505b5091509150818015610af75750600081511480610af6575080806020019051810190610af59190611057565b5b5b610b36576040517f08c379a0000000000000000000000000000000000000000000000000000000008152600401610b2d90611165565b60405180910390fd5b5050505050565b600080fd5b600073ffffffffffffffffffffffffffffffffffffffff82169050919050565b6000610b6d82610b42565b9050919050565b610b7d81610b62565b8114610b8857600080fd5b50565b600081359050610b9a81610b74565b92915050565b6000819050919050565b610bb381610ba0565b8114610bbe57600080fd5b50565b600081359050610bd081610baa565b92915050565b600080600060608486031215610bef57610bee610b3d565b5b6000610bfd86828701610b8b565b9350506020610c0e86828701610bc1565b9250506040610c1f86828701610b8b565b9150509250925092565b610c3281610ba0565b82525050565b6000602082019050610c4d6000830184610c29565b92915050565b610c5c81610b62565b82525050565b6000602082019050610c776000830184610c53565b92915050565b60008060408385031215610c9457610c93610b3d565b5b6000610ca285828601610bc1565b9250506020610cb385828601610b8b565b9150509250929050565b6000819050919050565b6000610ce2610cdd610cd884610b42565b610cbd565b610b42565b9050919050565b6000610cf482610cc7565b9050919050565b6000610d0682610ce9565b9050919050565b610d1681610cfb565b82525050565b6000602082019050610d316000830184610d0d565b92915050565b610d4081610b62565b82525050565b600062ffffff82169050919050565b610d5e81610d46565b82525050565b610d6d81610ba0565b82525050565b610d7c81610b42565b82525050565b61010082016000820151610d996000850182610d37565b506020820151610dac6020850182610d37565b506040820151610dbf6040850182610d55565b506060820151610dd26060850182610d37565b506080820151610de56080850182610d64565b5060a0820151610df860a0850182610d64565b5060c0820151610e0b60c0850182610d64565b5060e0820151610e1e60e0850182610d73565b50505050565b600061010082019050610e3a6000830184610d82565b92915050565b600081519050610e4f81610baa565b92915050565b600060208284031215610e6b57610e6a610b3d565b5b6000610e7984828501610e40565b91505092915050565b600081905092915050565b50565b6000610e9d600083610e82565b9150610ea882610e8d565b600082019050919050565b6000610ebe82610e90565b9150819050919050565b600082825260208201905092915050565b7f7472616e736665722065746820746f207468652072657175657374657220666160008201527f696c656400000000000000000000000000000000000000000000000000000000602082015250565b6000610f35602483610ec8565b9150610f4082610ed9565b604082019050919050565b60006020820190508181036000830152610f6481610f28565b9050919050565b6000606082019050610f806000830186610c53565b610f8d6020830185610c53565b610f9a6040830184610c29565b949350505050565b600081519050919050565b60005b83811015610fcb578082015181840152602081019050610fb0565b60008484015250505050565b6000610fe282610fa2565b610fec8185610e82565b9350610ffc818560208601610fad565b80840191505092915050565b60006110148284610fd7565b915081905092915050565b60008115159050919050565b6110348161101f565b811461103f57600080fd5b50565b6000815190506110518161102b565b92915050565b60006020828403121561106d5761106c610b3d565b5b600061107b84828501611042565b91505092915050565b7f5354460000000000000000000000000000000000000000000000000000000000600082015250565b60006110ba600383610ec8565b91506110c582611084565b602082019050919050565b600060208201905081810360008301526110e9816110ad565b9050919050565b60006040820190506111056000830185610c53565b6111126020830184610c29565b9392505050565b7f5341000000000000000000000000000000000000000000000000000000000000600082015250565b600061114f600283610ec8565b915061115a82611119565b602082019050919050565b6000602082019050818103600083015261117e81611142565b905091905056fea264697066735822122068e41cdc1b7728654f838d5befb06479c857cf320017a8406b4595ae4fe212fa64736f6c634300081a0033","linkReferences":{}},"methodIdentifiers":{"swapExactInputSingle(address,uint256,address)":"0c7a992e","swapExactInputSingleFromETH(uint256,address)":"5054a0d3","swapExactInputSingleToETH(uint256,address)":"dbafffa7","swapRouter()":"c31c9c07","swapRouterAddress()":"90fcdb36","wethAddress()":"4f0e0ef3"},"id":33}