{
  "abi": [
    {
      "inputs": [],
      "name": "routerByteCode",
      "outputs": [
        {
          "internalType": "bytes",
          "name": "",
          "type": "bytes"
        }
      ],
      "stateMutability": "view",
      "type": "function"
    }
  ],
  "bytecode": {
    "object": "0x615f00604052615e4e60808181529061033b60a03960009061002190826100d3565b5034801561002e57600080fd5b50610192565b634e487b7160e01b600052604160045260246000fd5b600181811c9082168061005e57607f821691505b60208210810361007e57634e487b7160e01b600052602260045260246000fd5b50919050565b601f8211156100ce57600081815260208120601f850160051c810160208610156100ab5750805b601f850160051c820191505b818110156100ca578281556001016100b7565b5050505b505050565b81516001600160401b038111156100ec576100ec610034565b610100816100fa845461004a565b84610084565b602080601f831160018114610135576000841561011d5750858301515b600019600386901b1c1916600185901b1785556100ca565b600085815260208120601f198616915b8281101561016457888601518255948401946001909101908401610145565b50858210156101825787850151600019600388901b60f8161c191681555b5050505050600190811b01905550565b61019a806101a16000396000f3fe608060405234801561001057600080fd5b506004361061002b5760003560e01c806345faaa3414610030575b600080fd5b61003861004e565b60405161004591906100dc565b60405180910390f35b6000805461005b9061012a565b80601f01602080910402602001604051908101604052809291908181526020018280546100879061012a565b80156100d45780601f106100a9576101008083540402835291602001916100d4565b820191906000526020600020905b8154815290600101906020018083116100b757829003601f168201915b505050505081565b600060208083528351808285015260005b81811015610109578581018301518582016040015282016100ed565b506000604082860101526040601f19601f8301168501019250505092915050565b600181811c9082168061013e57607f821691505b60208210810361015e57634e487b7160e01b600052602260045260246000fd5b5091905056fea2646970667358221220bb53a16f2f75a3971469eca84d64900386f4df81350d102bf8b21acf8eafa6c464736f6c6343000811003330783630383036303430353236303034333631303631303131323537363030303335363065303163383036336330346238643539313136313030613535373830363364663261623562623131363130303734353738303633663238633034393831313631303035393537383036336632386330343938313436313032663535373830363366333939356336373134363130333038353738303633666134363165333331343631303331623537363130316264353635623830363364663261623562623134363130326366353738303633653065313839613031343631303265323537363130316264353635623830363363303462386435393134363130323831353738303633633265333134306131343631303239343537383036336334356130313535313436313032613735373830363364623365323139383134363130326263353736313031626435363562383036333461613461346663313136313030653135373830363334616134613466633134363130323139353738303633396232633061333731343631303233623537383036336134613738663063313436313032346535373830363361633936353064383134363130323631353736313031626435363562383036333132323130653861313436313031633235373830363334313462663338393134363130316361353738303633343635396134393431343631303166333537383036333439343034623763313436313032303635373631303162643536356233363631303162643537333337336666666666666666666666666666666666666666666666666666666666666666666666666666666637663030303030303030303030303030303030303030303030303030303030303030303030303030303030303030303030303030303030303030303030303030303031363134363130316262353736303430383035313766303863333739613030303030303030303030303030303030303030303030303030303030303030303030303030303030303030303030303030303030303030303831353236303230363030343832303135323630303936303234383230313532376634653666373432303537343535343438333930303030303030303030303030303030303030303030303030303030303030303030303030303030303030303030363034343832303135323930353139303831393030333630363430313930666435623030356236303030383066643562363130316262363130333362353635623631303164643631303164383336363030343631323966383536356236313033346435363562363034303531363130316561393139303631326466313536356236303430353138303931303339306633356236313031626236313032303133363630303436313237373635363562363130346266353635623631303162623631303231343336363030343631326166663536356236313035376635363562333438303135363130323235353736303030383066643562353036313032326536313037343535363562363034303531363130316561393139303631326333373536356236313031626236313032343933363630303436313262326535363562363130373639353635623631303162623631303235633336363030343631323737363536356236313039383135363562363130323734363130323666333636303034363132376436353635623631306135363536356236303430353136313031656139313930363132636161353635623631303164643631303238663336363030343631323934643536356236313062623035363562363130316262363130326132333636303034363132373736353635623631306430663536356233343830313536313032623335373630303038306664356235303631303232653631306463343536356236313031646436313032636133363630303436313239663835363562363130646538353635623631303162623631303264643336363030343631323664373536356236313066373835363562363130316262363130326630333636303034363132373138353635623631313039353536356236313031646436313033303333363630303436313261313435363562363131316662353635623631303162623631303331363336363030343631323737363536356236313133326635363562333438303135363130333237353736303030383066643562353036313031626236313033333633363630303436313238363835363562363131336337353635623437313536313033346235373631303334623333343736313135306535363562353635623630303038313630383030313335383036313033356436313136356335363562313131353631303363613537363034303830353137663038633337396130303030303030303030303030303030303030303030303030303030303030303030303030303030303030303030303030303030303030303038313532363032303630303438323031353236303133363032343832303135323766353437323631366537333631363337343639366636653230373436663666323036663663363430303030303030303030303030303030303030303030303030303630343438323031353239303531393038313930303336303634303139306664356236313034373036306130383430313335363130336532363038303836303136303630383730313631323662343536356236313033663336313031303038373031363065303838303136313236623435363562363034303830353138303832303139303931353238303631303430623630323038613031386136313236623435363562363130343162363036303862303136303430386330313631326164633536356236313034326236303430386330313630323038643031363132366234353635623630343035313630323030313631303433643933393239313930363132626331353635623630343035313630323038313833303330333831353239303630343035323831353236303230303133333733666666666666666666666666666666666666666666666666666666666666666666666666666666663136383135323530363131363630353635623931353038323630633030313335383231303135363130346239353736303430353137663038633337396130303030303030303030303030303030303030303030303030303030303030303030303030303030303030303030303030303030303030303038313532363030343031363130346230393036313264373235363562363034303531383039313033393066643562353039313930353035363562363034303830353137663866636261663063303030303030303030303030303030303030303030303030303030303030303030303030303030303030303030303030303030303030303038313532333336303034383230313532333036303234383230313532363034343831303138373930353236303634383130313836393035323630303136303834383230313532363066663835313636306134383230313532363063343831303138343930353236306534383130313833393035323930353137336666666666666666666666666666666666666666666666666666666666666666666666666666666638383136393136333866636261663063393136313031303438303833303139323630303039323931393038323930303330313831383338373830336231353830313536313035356635373630303038306664356235303561663131353830313536313035373335373364363030303830336533643630303066643562353035303530353035303530353035303530353035363562363030303766303030303030303030303030303030303030303030303030303030303030303030303030303030303030303030303030303030303030303030303030303030303733666666666666666666666666666666666666666666666666666666666666666666666666666666663136363337306130383233313330363034303531383236336666666666666666313636306530316238313532363030343031383038323733666666666666666666666666666666666666666666666666666666666666666666666666666666663136383135323630323030313931353035303630323036303430353138303833303338313836383033623135383031353631303630383537363030303830666435623530356166613135383031353631303631633537336436303030383033653364363030306664356235303530353035303630343035313364363032303831313031353631303633323537363030303830666435623530353139303530383238313130313536313036613535373630343038303531376630386333373961303030303030303030303030303030303030303030303030303030303030303030303030303030303030303030303030303030303030303030383135323630323036303034383230313532363031323630323438323031353237663439366537333735363636363639363336393635366537343230353734353534343833393030303030303030303030303030303030303030303030303030303036303434383230313532393035313930383139303033363036343031393066643562383031353631303734303537376630303030303030303030303030303030303030303030303030303030303030303030303030303030303030303030303030303030303030303030303030303030373366666666666666666666666666666666666666666666666666666666666666666666666666666666313636333265316137643464383236303430353138323633666666666666666631363630653031623831353236303034303138303832383135323630323030313931353035303630303036303430353138303833303338313630303038373830336231353830313536313037316535373630303038306664356235303561663131353830313536313037333235373364363030303830336533643630303066643562353035303530353036313037343038323832363131353065353635623530353035303536356237663030303030303030303030303030303030303030303030303030303030303030303030303030303030303030303030303030303030303030303030303030303038313536356236303030383231313830313536313037376135373530363036343832313131353562363130373833353736303030383066643562363030303766303030303030303030303030303030303030303030303030303030303030303030303030303030303030303030303030303030303030303030303030303030303733666666666666666666666666666666666666666666666666666666666666666666666666666666663136363337306130383233313330363034303531383236336666666666666666313636306530316238313532363030343031383038323733666666666666666666666666666666666666666666666666666666666666666666666666666666663136383135323630323030313931353035303630323036303430353138303833303338313836383033623135383031353631303830633537363030303830666435623530356166613135383031353631303832303537336436303030383033653364363030306664356235303530353035303630343035313364363032303831313031353631303833363537363030303830666435623530353139303530383438313130313536313038613935373630343038303531376630386333373961303030303030303030303030303030303030303030303030303030303030303030303030303030303030303030303030303030303030303030383135323630323036303034383230313532363031323630323438323031353237663439366537333735363636363639363336393635366537343230353734353534343833393030303030303030303030303030303030303030303030303030303036303434383230313532393035313930383139303033363036343031393066643562383031353631303937613537376630303030303030303030303030303030303030303030303030303030303030303030303030303030303030303030303030303030303030303030303030303030373366666666666666666666666666666666666666666666666666666666666666666666666666666666313636333265316137643464383236303430353138323633666666666666666631363630653031623831353236303034303138303832383135323630323030313931353035303630303036303430353138303833303338313630303038373830336231353830313536313039323235373630303038306664356235303561663131353830313536313039333635373364363030303830336533643630303066643562353035303530353036303030363132373130363130393532383538343631313765363930393139303633666666666666666631363536356238313631303935393537666535623034393035303830313536313039366335373631303936633833383236313135306535363562363130393738383538323834303336313135306535363562353035623530353035303530353035363562363034303830353137666464363265643365303030303030303030303030303030303030303030303030303030303030303030303030303030303030303030303030303030303030303038313532333336303034383230313532333036303234383230313532393035313766666666666666666666666666666666666666666666666666666666666666666666666666666666666666666666666666666666666666666666666666666666663931373366666666666666666666666666666666666666666666666666666666666666666666666666666666383931363931363364643632656433653931363034343830383230313932363032303932393039313930383239303033303138313836383033623135383031353631306131363537363030303830666435623530356166613135383031353631306132613537336436303030383033653364363030306664356235303530353035303630343035313364363032303831313031353631306134303537363030303830666435623530353131303135363130393738353736313039373838363836383638363836383636313034626635363562363036303831363766666666666666666666666666666666383131313830313536313061366635373630303038306664356235303630343035313930383038323532383036303230303236303230303138323031363034303532383031353631306161333537383136303230303135623630363038313532363032303031393036303031393030333930383136313061386535373930353035623530393035303630303035623832383131303135363130626139353736303030383033303836383638353831383131303631306163313537666535623930353036303230303238313031393036313061643339313930363132646661353635623630343035313631306165313932393139303631326332373536356236303030363034303531383038333033383138353561663439313530353033643830363030303831313436313062316335373630343035313931353036303166313936303366336430313136383230313630343035323364383235323364363030303630323038343031336536313062323135363562363036303931353035623530393135303931353038313631306238373537363034343831353131303135363130623361353736303030383066643562363030343831303139303530383038303630323030313930353138313031393036313062353439313930363132386533353635623630343035313766303863333739613030303030303030303030303030303030303030303030303030303030303030303030303030303030303030303030303030303030303030303831353236303034303136313034623039313930363132643238353635623830383438343831353138313130363130623934353766653562363032303930383130323931393039313031303135323530353036303031303136313061613935363562353039323931353035303536356236303030383136303430303135313830363130626330363131363563353635623131313536313063326435373630343038303531376630386333373961303030303030303030303030303030303030303030303030303030303030303030303030303030303030303030303030303030303030303030383135323630323036303034383230313532363031333630323438323031353237663534373236313665373336313633373436393666366532303734366636663230366636633634303030303030303030303030303030303030303030303030303036303434383230313532393035313930383139303033363036343031393066643562333335623630303036313063336538353630303030313531363131383130353635623930353036313063393738353630363030313531383236313063353735373836363032303031353136313063353935363562333035623630303036303430353138303630343030313630343035323830363130633733386236303030303135313631313831633536356238313532363032303031383737336666666666666666666666666666666666666666666666666666666666666666666666666666666631363831353235303631313636303536356236303630383630313532383031353631306362373537383435313330393235303631306362303930363131383262353635623835353236313063633435363562383436303630303135313933353035303631306363613536356235303631306332663536356238333630383030313531383331303135363130643038353736303430353137663038633337396130303030303030303030303030303030303030303030303030303030303030303030303030303030303030303030303030303030303030303038313532363030343031363130346230393036313264373235363562353035303931393035303536356236303430383035313766646436326564336530303030303030303030303030303030303030303030303030303030303030303030303030303030303030303030303030303030303030303831353233333630303438323031353233303630323438323031353239303531383639313733666666666666666666666666666666666666666666666666666666666666666666666666666666663839313639313633646436326564336539313630343438303832303139323630323039323930393139303832393030333031383138363830336231353830313536313064383435373630303038306664356235303561666131353830313536313064393835373364363030303830336533643630303066643562353035303530353036303430353133643630323038313130313536313064616535373630303038306664356235303531313031353631303937383537363130393738383638363836383638363836363131333266353635623766303030303030303030303030303030303030303030303030303030303030303030303030303030303030303030303030303030303030303030303030303030303831353635623630303038313630383030313335383036313064663836313136356335363562313131353631306536353537363034303830353137663038633337396130303030303030303030303030303030303030303030303030303030303030303030303030303030303030303030303030303030303030303038313532363032303630303438323031353236303133363032343832303135323766353437323631366537333631363337343639366636653230373436663666323036663663363430303030303030303030303030303030303030303030303030303630343438323031353239303531393038313930303336303634303139306664356236313066306536306130383430313335363130653764363038303836303136303630383730313631323662343536356236313065386536313031303038373031363065303838303136313236623435363562363034303531383036303430303136303430353238303838363032303031363032303831303139303631306561633931393036313236623435363562363130656263363036303862303136303430386330313631326164633536356236313065633936303230386330313863363132366234353635623630343035313630323030313631306564623933393239313930363132626331353635623630343035313630323038313833303330333831353239303630343035323831353236303230303133333733666666666666666666666666666666666666666666666666666666666666666666666666666666663136383135323530363131383630353635623931353038323630633030313335383231313135363130663465353736303430353137663038633337396130303030303030303030303030303030303030303030303030303030303030303030303030303030303030303030303030303030303030303038313532363030343031363130346230393036313264336235363562353037666666666666666666666666666666666666666666666666666666666666666666666666666666666666666666666666666666666666666666666666666666666636303030353539313930353035363562363030303833373366666666666666666666666666666666666666666666666666666666666666666666666666666666313636333730613038323331333036303430353138323633666666666666666631363630653031623831353236303034303138303832373366666666666666666666666666666666666666666666666666666666666666666666666666666666313638313532363032303031393135303530363032303630343035313830383330333831383638303362313538303135363130666531353736303030383066643562353035616661313538303135363130666635353733643630303038303365336436303030666435623530353035303530363034303531336436303230383131303135363131303062353736303030383066643562353035313930353038323831313031353631313037653537363034303830353137663038633337396130303030303030303030303030303030303030303030303030303030303030303030303030303030303030303030303030303030303030303038313532363032303630303438323031353236303132363032343832303135323766343936653733373536363636363936333639363536653734323037343666366236353665303030303030303030303030303030303030303030303030303030303630343438323031353239303531393038313930303336303634303139306664356238303135363131303866353736313130386638343833383336313161316335363562353035303530353035363562363030303832313138303135363131306136353735303630363438323131313535623631313061663537363030303830666435623630303038353733666666666666666666666666666666666666666666666666666666666666666666666666666666663136363337306130383233313330363034303531383236336666666666666666313636306530316238313532363030343031383038323733666666666666666666666666666666666666666666666666666666666666666666666666666666663136383135323630323030313931353035303630323036303430353138303833303338313836383033623135383031353631313131383537363030303830666435623530356166613135383031353631313132633537336436303030383033653364363030306664356235303530353035303630343035313364363032303831313031353631313134323537363030303830666435623530353139303530383438313130313536313131623535373630343038303531376630386333373961303030303030303030303030303030303030303030303030303030303030303030303030303030303030303030303030303030303030303030383135323630323036303034383230313532363031323630323438323031353237663439366537333735363636363639363336393635366537343230373436663662363536653030303030303030303030303030303030303030303030303030303036303434383230313532393035313930383139303033363036343031393066643562383031353631303937383537363030303631323731303631313163613833383636313137653635363562383136313131643135376665356230343930353038303135363131316535353736313131653538373834383336313161316335363562363131316632383738363833383530333631316131633536356235303530353035303530353035303536356236303030383136303430303133353830363131323062363131363563353635623131313536313132373835373630343038303531376630386333373961303030303030303030303030303030303030303030303030303030303030303030303030303030303030303030303030303030303030303030383135323630323036303034383230313532363031333630323438323031353237663534373236313665373336313633373436393666366532303734366636663230366636633634303030303030303030303030303030303030303030303030303036303434383230313532393035313930383139303033363036343031393066643562363131326562363036303834303133353631313239303630343038363031363032303837303136313236623435363562363034303830353138303832303139303931353236303030393038303631313261383839383036313264666135363562383038303630316630313630323038303931303430323630323030313630343035313930383130313630343035323830393339323931393038313831353236303230303138333833383038323834333736303030393230313931393039313532353035303530393038323532353033333630323039303931303135323631313836303536356235303630303035343931353038323630383030313335383231313135363130663465353736303430353137663038633337396130303030303030303030303030303030303030303030303030303030303030303030303030303030303030303030303030303030303030303038313532363030343031363130346230393036313264336235363562363034303830353137666435303561636366303030303030303030303030303030303030303030303030303030303030303030303030303030303030303030303030303030303030303038313532333336303034383230313532333036303234383230313532363034343831303138373930353236303634383130313836393035323630666638353136363038343832303135323630613438313031383439303532363063343831303138333930353239303531373366666666666666666666666666666666666666666666666666666666666666666666666666666666383831363931363364353035616363663931363065343830383330313932363030303932393139303832393030333031383138333837383033623135383031353631303535663537363030303830666435623630303038343133383036313133643635373530363030303833313335623631313364663537363030303830666435623630303036313133656438323834303138343631326134633536356239303530363030303830363030303631313430313834363030303031353136313162663135363562393235303932353039323530363131343333376630303030303030303030303030303030303030303030303030303030303030303030303030303030303030303030303030303030303030303030303030303030383438343834363131633232353635623530363030303830363030303861313336313134373435373834373366666666666666666666666666666666666666666666666666666666666666666666666666666666313638343733666666666666666666666666666666666666666666666666666666666666666666666666666666663136313038393631313461353536356238333733666666666666666666666666666666666666666666666666666666666666666666666666666666663136383537336666666666666666666666666666666666666666666666666666666666666666666666666666666631363130386135623931353039313530383131353631313463343537363131346266383538373630323030313531333338343631316334313536356236313035373335363562383535313631313463663930363131383130353635623135363131346634353738353531363131346466393036313138326235363562383635323631313465653831333336303030383936313138363035363562353036313035373335363562383036303030383139303535353038333934353036313035373338353837363032303031353133333834363131633431353635623630343038303531363030303830383235323630323038323031393039323532373366666666666666666666666666666666666666666666666666666666666666666666666666666666383431363930383339303630343035313830383238303531393036303230303139303830383338333562363032303833313036313135383535373830353138323532376666666666666666666666666666666666666666666666666666666666666666666666666666666666666666666666666666666666666666666666666666666530393039323031393136303230393138323031393130313631313534383536356236303031383336303230303336313031303030613033383031393832353131363831383435313136383038323137383535323530353035303530353035303930353030313931353035303630303036303430353138303833303338313835383735616631393235303530353033643830363030303831313436313135653735373630343035313931353036303166313936303366336430313136383230313630343035323364383235323364363030303630323038343031336536313135656335363562363036303931353035623530353039303530383036313037343035373630343038303531376630386333373961303030303030303030303030303030303030303030303030303030303030303030303030303030303030303030303030303030303030303030383135323630323036303034383230313532363030333630323438323031353237663533353434353030303030303030303030303030303030303030303030303030303030303030303030303030303030303030303030303030303030303030303036303434383230313532393035313930383139303033363036343031393066643562343239303536356236303030373366666666666666666666666666666666666666666666666666666666666666666666666666666666383431363631313638313537333039333530356236303030383036303030363131363933383536303030303135313631316266313536356239313934353039323530393035303733666666666666666666666666666666666666666666666666666666666666666666666666666666663830383331363930383431363130363030303830363131366334383638363836363131653166353635623733666666666666666666666666666666666666666666666666666666666666666666666666666666663136363331323861636230383862383536313136656138663631316535643536356237336666666666666666666666666666666666666666666666666666666666666666666666666666666638653136313536313137306335373864363131373332353635623837363131373262353737336666666438393633656664316663366135303634383834393564393531643532363339383864323536313137333235363562363430313030303237366134356238643630343035313630323030313631313734333931393036313264613935363562363034303531363032303831383330333033383135323930363034303532363034303531383636336666666666666666313636306530316238313532363030343031363131373732393539343933393239313930363132633538353635623630343038303531383038333033383136303030383738303362313538303135363131373862353736303030383066643562353035616631313538303135363131373966353733643630303038303365336436303030666435623530353035303530363034303531336436303166313936303166383230313136383230313830363034303532353038313031393036313137633339313930363132383435353635623931353039313530383236313137643235373831363131376434353635623830356236303030303339623961353035303530353035303530353035303530353035303536356236303030383231353830363131383031353735303530383138313032383138333832383136313137666535376665356230343134356236313138306135373630303038306664356239323931353035303536356238303531363034323131313535623931393035303536356236303630363131383061383236303030363032623631316538663536356238303531363036303930363131383061393038333930363031373930376666666666666666666666666666666666666666666666666666666666666666666666666666666666666666666666666666666666666666666666666666666539303136313165386635363562363030303733666666666666666666666666666666666666666666666666666666666666666666666666666666663834313636313138383135373330393335303562363030303830363030303631313839333835363030303031353136313162663135363562393139343530393235303930353037336666666666666666666666666666666666666666666666666666666666666666666666666666666638303834313639303833313631303630303038303631313863343835383738363631316531663536356237336666666666666666666666666666666666666666666666666666666666666666666666666666666631363633313238616362303838623835363131386561386636313165356435363562363030303033373366666666666666666666666666666666666666666666666666666666666666666666666666666666386531363135363131393066353738643631313933353536356238373631313932653537373366666664383936336566643166633661353036343838343935643935316435323633393838643235363131393335353635623634303130303032373661343562386436303430353136303230303136313139343639313930363132646139353635623630343035313630323038313833303330333831353239303630343035323630343035313836363366666666666666663136363065303162383135323630303430313631313937353935393439333932393139303631326335383536356236303430383035313830383330333831363030303837383033623135383031353631313938653537363030303830666435623530356166313135383031353631313961323537336436303030383033653364363030306664356235303530353035303630343035313364363031663139363031663832303131363832303138303630343035323530383130313930363131396336393139303631323834353536356239313530393135303630303038333631313964623537383138333630303030333631313965313536356238323832363030303033356239303938353039303530373366666666666666666666666666666666666666666666666666666666666666666666666666666666386131363631316130643537386238313134363131613064353736303030383066643562353035303530353035303530353039343933353035303530353035363562363034303830353137336666666666666666666666666666666666666666666666666666666666666666666666666666666638343831313636303234383330313532363034343830383330313835393035323833353138303834303339303931303138313532363036343930393230313833353236303230383230313830353137626666666666666666666666666666666666666666666666666666666666666666666666666666666666666666666666666666666666666666313637666139303539636262303030303030303030303030303030303030303030303030303030303030303030303030303030303030303030303030303030303030303031373831353239323531383235313630303039343835393439333839313639333932393138323931393038303833383335623630323038333130363131616631353738303531383235323766666666666666666666666666666666666666666666666666666666666666666666666666666666666666666666666666666666666666666666666666666665303930393230313931363032303931383230313931303136313161623435363562363030313833363032303033363130313030306130333830313938323531313638313834353131363830383231373835353235303530353035303530353039303530303139313530353036303030363034303531383038333033383136303030383635616631393135303530336438303630303038313134363131623533353736303430353139313530363031663139363033663364303131363832303136303430353233643832353233643630303036303230383430313365363131623538353635623630363039313530356235303931353039313530383138303135363131623836353735303830353131353830363131623836353735303830383036303230303139303531363032303831313031353631316238333537363030303830666435623530353135623631303937613537363034303830353137663038633337396130303030303030303030303030303030303030303030303030303030303030303030303030303030303030303030303030303030303030303038313532363032303630303438323031353236303032363032343832303135323766353335343030303030303030303030303030303030303030303030303030303030303030303030303030303030303030303030303030303030303030303030303630343438323031353239303531393038313930303336303634303139306664356236303030383038303631316266663834383236313230373635363562393235303631316330633834363031343631323137363536356239303530363131633139383436303137363132303736353635623931353039313933393039323530353635623630303036313163333838353631316333333836383638363631323236363536356236313232653335363562393539343530353035303530353035363562376630303030303030303030303030303030303030303030303030303030303030303030303030303030303030303030303030303030303030303030303030303030373366666666666666666666666666666666666666666666666666666666666666666666666666666666313638343733666666666666666666666666666666666666666666666666666666666666666666666666666666663136313438303135363131633963353735303830343731303135356231353631316465353537376630303030303030303030303030303030303030303030303030303030303030303030303030303030303030303030303030303030303030303030303030303030373366666666666666666666666666666666666666666666666666666666666666666666666666666666313636336430653330646230383236303430353138323633666666666666666631363630653031623831353236303034303136303030363034303531383038333033383138353838383033623135383031353631316430393537363030303830666435623530356166313135383031353631316431643537336436303030383033653364363030306664356235303530353035303530376630303030303030303030303030303030303030303030303030303030303030303030303030303030303030303030303030303030303030303030303030303030373366666666666666666666666666666666666666666666666666666666666666666666666666666666313636336139303539636262383338333630343035313833363366666666666666663136363065303162383135323630303430313830383337336666666666666666666666666666666666666666666666666666666666666666666666666666666631363831353236303230303138323831353236303230303139323530353035303630323036303430353138303833303338313630303038373830336231353830313536313164623335373630303038306664356235303561663131353830313536313164633735373364363030303830336533643630303066643562353035303530353036303430353133643630323038313130313536313164646435373630303038306664356235303631313038663930353035363562373366666666666666666666666666666666666666666666666666666666666666666666666666666666383331363330313431353631316531333537363131653065383438333833363131613163353635623631313038663536356236313130386638343834383438343631323331333536356236303030363131653535376630303030303030303030303030303030303030303030303030303030303030303030303030303030303030303030303030303030303030303030303030303030363131653530383638363836363132323636353635623631323466303536356239343933353035303530353035363562363030303766383030303030303030303030303030303030303030303030303030303030303030303030303030303030303030303030303030303030303030303030303030303832313036313165386235373630303038306664356235303930353635623630363038313832363031663031313031353631316630333537363034303830353137663038633337396130303030303030303030303030303030303030303030303030303030303030303030303030303030303030303030303030303030303030303038313532363032303630303438323031353236303065363032343832303135323766373336633639363336353566366637363635373236363663366637373030303030303030303030303030303030303030303030303030303030303030303030303630343438323031353239303531393038313930303336303634303139306664356238323832383430313130313536313166373435373630343038303531376630386333373961303030303030303030303030303030303030303030303030303030303030303030303030303030303030303030303030303030303030303030383135323630323036303034383230313532363030653630323438323031353237663733366336393633363535663666373636353732363636633666373730303030303030303030303030303030303030303030303030303030303030303030303036303434383230313532393035313930383139303033363036343031393066643562383138333031383435313130313536313166653635373630343038303531376630386333373961303030303030303030303030303030303030303030303030303030303030303030303030303030303030303030303030303030303030303030383135323630323036303034383230313532363031313630323438323031353237663733366336393633363535663666373537343466363634323666373536653634373330303030303030303030303030303030303030303030303030303030303036303434383230313532393035313930383139303033363036343031393066643562363036303832313538303135363132303035353736303430353139313530363030303832353236303230383230313630343035323631323036643536356236303430353139313530363031663834313638303135363032303032383138343031303138353831303138373833313536303230303238343862303130313031356238313833313031353631323033653537383035313833353236303230393238333031393230313631323032363536356235303530383538343532363031663031376666666666666666666666666666666666666666666666666666666666666666666666666666666666666666666666666666666666666666666666666666666530313636303430353235303562353039343933353035303530353035363562363030303831383236303134303131303135363132306561353736303430383035313766303863333739613030303030303030303030303030303030303030303030303030303030303030303030303030303030303030303030303030303030303030303831353236303230363030343832303135323630313236303234383230313532376637343666343136343634373236353733373335663666373636353732363636633666373730303030303030303030303030303030303030303030303030303030363034343832303135323930353139303831393030333630363430313930666435623831363031343031383335313130313536313231356435373630343038303531376630386333373961303030303030303030303030303030303030303030303030303030303030303030303030303030303030303030303030303030303030303030383135323630323036303034383230313532363031353630323438323031353237663734366634313634363437323635373337333566366637353734346636363432366637353665363437333030303030303030303030303030303030303030303036303434383230313532393035313930383139303033363036343031393066643562353030313630323030313531366330313030303030303030303030303030303030303030303030303930303439303536356236303030383138323630303330313130313536313231656135373630343038303531376630386333373961303030303030303030303030303030303030303030303030303030303030303030303030303030303030303030303030303030303030303030383135323630323036303034383230313532363031313630323438323031353237663734366635353639366537343332333435663666373636353732363636633666373730303030303030303030303030303030303030303030303030303030303036303434383230313532393035313930383139303033363036343031393066643562383136303033303138333531313031353631323235643537363034303830353137663038633337396130303030303030303030303030303030303030303030303030303030303030303030303030303030303030303030303030303030303030303038313532363032303630303438323031353236303134363032343832303135323766373436663535363936653734333233343566366637353734346636363432366637353665363437333030303030303030303030303030303030303030303030303630343438323031353239303531393038313930303336303634303139306664356235303031363030333031353139303536356236313232366536313236323635363562383237336666666666666666666666666666666666666666666666666666666666666666666666666666666631363834373366666666666666666666666666666666666666666666666666666666666666666666666666666666313631313135363132326136353739313932393135623530363034303830353136303630383130313832353237336666666666666666666666666666666666666666666666666666666666666666666666666666666639343835313638313532393239303933313636303230383330313532363266666666666631363931383130313931393039313532393035363562363030303631323265663833383336313234663035363562393035303333373366666666666666666666666666666666666666666666666666666666666666666666666666666666383231363134363131383061353736303030383066643562363034303830353137336666666666666666666666666666666666666666666666666666666666666666666666666666666638353831313636303234383330313532383438313136363034343833303135323630363438303833303138353930353238333531383038343033393039313031383135323630383439303932303138333532363032303832303138303531376266666666666666666666666666666666666666666666666666666666666666666666666666666666666666666666666666666666666666663136376632336238373264643030303030303030303030303030303030303030303030303030303030303030303030303030303030303030303030303030303030303030313738313532393235313832353136303030393438353934393338613136393339323931383239313930383038333833356236303230383331303631323366303537383035313832353237666666666666666666666666666666666666666666666666666666666666666666666666666666666666666666666666666666666666666666666666666666653039303932303139313630323039313832303139313031363132336233353635623630303138333630323030333631303130303061303338303139383235313136383138343531313638303832313738353532353035303530353035303530393035303031393135303530363030303630343035313830383330333831363030303836356166313931353035303364383036303030383131343631323435323537363034303531393135303630316631393630336633643031313638323031363034303532336438323532336436303030363032303834303133653631323435373536356236303630393135303562353039313530393135303831383031353631323438353537353038303531313538303631323438353537353038303830363032303031393035313630323038313130313536313234383235373630303038306664356235303531356236313039373835373630343038303531376630386333373961303030303030303030303030303030303030303030303030303030303030303030303030303030303030303030303030303030303030303030383135323630323036303034383230313532363030333630323438323031353237663533353434363030303030303030303030303030303030303030303030303030303030303030303030303030303030303030303030303030303030303030303036303434383230313532393035313930383139303033363036343031393066643562363030303831363032303031353137336666666666666666666666666666666666666666666666666666666666666666666666666666666631363832363030303031353137336666666666666666666666666666666666666666666666666666666666666666666666666666666631363130363132353332353736303030383066643562353038303531363032303830383330313531363034303933383430313531383435313733666666666666666666666666666666666666666666666666666666666666666666666666666666663934383531363831383530313532393339303931313638333835303135323632666666666666313636303630383038343031393139303931353238333531383038343033383230313831353236303830383430313835353238303531393038333031323037666666303030303030303030303030303030303030303030303030303030303030303030303030303030303030303030303030303030303030303030303030303036306130383530313532393439303162376666666666666666666666666666666666666666666666666666666666666666666666666666666666303030303030303030303030303030303030303030303030313636306131383330313532363062353832303139333930393335323766653334663139396231396232623466343766363834343236313964353535353237643234346637386133323937656138393332356638343366383762386235343630643538303833303139313930393135323832353138303833303339303931303138313532363066353930393130313930393135323830353139313031323039303536356236303430383035313630363038313031383235323630303038303832353236303230383230313831393035323931383130313931393039313532393035363562383033353631313831373831363132656634353635623630303038323630316638333031313236313236363135373830383166643562383133353631323637343631323636663832363132653838353635623631326536343536356238313831353238343630323038333836303130313131313536313236383835373832383366643562383136303230383530313630323038333031333739303831303136303230303139313930393135323932393135303530353635623630303036313031303038323834303331323135363130346239353738303831666435623630303036303230383238343033313231353631323663353537383038316664356238313335363132366430383136313265663435363562393339323530353035303536356236303030383036303030363036303834383630333132313536313236656235373831383266643562383333353631323666363831363132656634353635623932353036303230383430313335393135303630343038343031333536313237306438313631326566343536356238303931353035303932353039323530393235363562363030303830363030303830363030303630613038363838303331323135363132373266353738303831666435623835333536313237336138313631326566343536356239343530363032303836303133353933353036303430383630313335363132373531383136313265663435363562393235303630363038363031333539313530363038303836303133353631323736383831363132656634353635623830393135303530393239353530393239353930393335303536356236303030383036303030383036303030383036306330383738393033313231353631323738653537383038316664356238363335363132373939383136313265663435363562393535303630323038373031333539343530363034303837303133353933353036303630383730313335363066663831313638313134363132376263353738313832666435623935393839343937353039323935363038303831303133353934363061303930393130313335393335303931353035303536356236303030383036303230383338353033313231353631323765383537383138326664356238323335363766666666666666666666666666666666383038323131313536313237666635373833383466643562383138353031393135303835363031663833303131323631323831323537383338346664356238313335383138313131313536313238323035373834383566643562383636303230383038333032383530313031313131353631323833333537383438356664356236303230393239303932303139363931393535303930393335303530353035303536356236303030383036303430383338353033313231353631323835373537383138326664356235303530383035313630323039303931303135313930393239303931353035363562363030303830363030303830363036303835383730333132313536313238376435373831383266643562383433353933353036303230383530313335393235303630343038353031333536376666666666666666666666666666666638303832313131353631323861323537383338346664356238313837303139313530383736303166383330313132363132386235353738333834666435623831333538313831313131353631323863333537383438356664356238383630323038323835303130313131313536313238643435373834383566643562393539383934393735303530363032303031393435303530353035363562363030303630323038323834303331323135363132386634353738303831666435623831353136376666666666666666666666666666666638313131313536313239306135373831383266643562383230313630316638313031383431333631323931613537383138326664356238303531363132393238363132363666383236313265383835363562383138313532383536303230383338353031303131313135363132393363353738333834666435623631316333383832363032303833303136303230383630313631326563383536356236303030363032303832383430333132313536313239356535373830383166643562383133353637666666666666666666666666666666663830383231313135363132393735353738323833666435623930383330313930363061303832383630333132313536313239383835373832383366643562363034303531363061303831303138313831313038333832313131373135363132393964353766653562363034303532383233353832383131313135363132396165353738343835666435623631323962613837383238363031363132363531353635623832353235303631323963393630323038343031363132363436353635623630323038323031353236303430383330313335363034303832303135323630363038333031333536303630383230313532363038303833303133353630383038323031353238303933353035303530353039323931353035303536356236303030363130313030383238343033313231353631326130613537383038316664356236313236643038333833363132366132353635623630303036303230383238343033313231353631326132353537383038316664356238313335363766666666666666666666666666666666383131313135363132613362353738313832666435623832303136306130383138353033313231353631323664303537383138326664356236303030363032303832383430333132313536313261356435373830383166643562383133353637666666666666666666666666666666663830383231313135363132613734353738323833666435623930383330313930363034303832383630333132313536313261383735373832383366643562363034303531363034303831303138313831313038333832313131373135363132613963353766653562363034303532383233353832383131313135363132616164353738343835666435623631326162393837383238363031363132363531353635623832353235303630323038333031333539323530363132616363383336313265663435363562363032303831303139323930393235323530393339323530353035303536356236303030363032303832383430333132313536313261656435373830383166643562383133353632666666666666383131363831313436313236643035373831383266643562363030303830363034303833383530333132313536313262313135373831383266643562383233353931353036303230383330313335363132623233383136313265663435363562383039313530353039323530393239303530353635623630303038303630303038303630383038353837303331323135363132623433353738313832666435623834333539333530363032303835303133353631326235353831363132656634353635623932353036303430383530313335393135303630363038353031333536313262366338313631326566343536356239333936393239353530393039333530353035363562363030303831353138303834353236313262386638313630323038363031363032303836303136313265633835363562363031663031376666666666666666666666666666666666666666666666666666666666666666666666666666666666666666666666666666666666666666666666666666666530313639323930393230313630323030313932393135303530353635623630363039333834316237666666666666666666666666666666666666666666666666666666666666666666666666666666666630303030303030303030303030303030303030303030303039303831313638323532363065383933393039333162376666666666666630303030303030303030303030303030303030303030303030303030303030303030303030303030303030303030303030303030303030303030313636303134383230313532393231623136363031373832303135323630326230313930353635623630303038323834383333373931303139303831353239313930353035363562373366666666666666666666666666666666666666666666666666666666666666666666666666666666393139303931313638313532363032303031393035363562363030303733666666666666666666666666666666666666666666666666666666666666666666666666666666663830383831363833353238363135313536303230383430313532383536303430383430313532383038353136363036303834303135323530363061303630383038333031353236313263396636306130383330313834363132623737353635623937393635303530353035303530353035303536356236303030363032303830383330313831383435323830383535313830383335323630343038363031393135303630343038343832303238373031303139323530383338373031383535623832383131303135363132643162353737666666666666666666666666666666666666666666666666666666666666666666666666666666666666666666666666666666666666666666666666666666633038383836303330313834353236313264303938353833353136313262373735363562393435303932383530313932393038353031393036303031303136313263636635363562353039323937393635303530353035303530353035303536356236303030363032303832353236313236643036303230383330313834363132623737353635623630323038303832353236303132393038323031353237663534366636663230366437353633363832303732363537313735363537333734363536343030303030303030303030303030303030303030303030303030303036303430383230313532363036303031393035363562363032303830383235323630313339303832303135323766353436663666323036633639373437343663363532303732363536333635363937363635363430303030303030303030303030303030303030303030303030303630343038323031353236303630303139303536356236303030363032303832353238323531363034303630323038343031353236313264633536303630383430313832363132623737353635623930353037336666666666666666666666666666666666666666666666666666666666666666666666666666666636303230383530313531313636303430383430313532383039313530353039323931353035303536356239303831353236303230303139303536356236303030383038333335376666666666666666666666666666666666666666666666666666666666666666666666666666666666666666666666666666666666666666666666666666666531383433363033303138313132363132653265353738323833666435623833303138303335393135303637666666666666666666666666666666663832313131353631326534383537383238336664356236303230303139313530333638313930303338323133313536313265356435373630303038306664356239323530393239303530353635623630343035313831383130313637666666666666666666666666666666663831313138323832313031373135363132653830353766653562363034303532393139303530353635623630303036376666666666666666666666666666666638323131313536313265396335376665356235303630316630313766666666666666666666666666666666666666666666666666666666666666666666666666666666666666666666666666666666666666666666666666666665303136363032303031393035363562363030303562383338313130313536313265653335373831383130313531383338323031353236303230303136313265636235363562383338313131313536313130386635373530353036303030393130313532353635623733666666666666666666666666666666666666666666666666666666666666666666666666666666663831313638313134363132663136353736303030383066643562353035366665613136343733366636633633343330303037303630303061",
    "linkReferences": {}
  },
  "methodIdentifiers": {
    "routerByteCode()": "45faaa34"
  },
  "id": 7
}