{"abi":[{"type":"constructor","inputs":[],"stateMutability":"nonpayable"},{"type":"function","name":"allowance","inputs":[{"name":"owner","type":"address","internalType":"address"},{"name":"spender","type":"address","internalType":"address"}],"outputs":[{"name":"","type":"uint256","internalType":"uint256"}],"stateMutability":"view"},{"type":"function","name":"approve","inputs":[{"name":"spender","type":"address","internalType":"address"},{"name":"amount","type":"uint256","internalType":"uint256"}],"outputs":[{"name":"","type":"bool","internalType":"bool"}],"stateMutability":"nonpayable"},{"type":"function","name":"balanceOf","inputs":[{"name":"account","type":"address","internalType":"address"}],"outputs":[{"name":"","type":"uint256","internalType":"uint256"}],"stateMutability":"view"},{"type":"function","name":"decimals","inputs":[],"outputs":[{"name":"","type":"uint8","internalType":"uint8"}],"stateMutability":"view"},{"type":"function","name":"decreaseAllowance","inputs":[{"name":"spender","type":"address","internalType":"address"},{"name":"subtractedValue","type":"uint256","internalType":"uint256"}],"outputs":[{"name":"","type":"bool","internalType":"bool"}],"stateMutability":"nonpayable"},{"type":"function","name":"decreaseApproval","inputs":[{"name":"spender","type":"address","internalType":"address"},{"name":"subtractedValue","type":"uint256","internalType":"uint256"}],"outputs":[{"name":"","type":"bool","internalType":"bool"}],"stateMutability":"nonpayable"},{"type":"function","name":"increaseAllowance","inputs":[{"name":"spender","type":"address","internalType":"address"},{"name":"addedValue","type":"uint256","internalType":"uint256"}],"outputs":[{"name":"","type":"bool","internalType":"bool"}],"stateMutability":"nonpayable"},{"type":"function","name":"increaseApproval","inputs":[{"name":"spender","type":"address","internalType":"address"},{"name":"addedValue","type":"uint256","internalType":"uint256"}],"outputs":[{"name":"","type":"bool","internalType":"bool"}],"stateMutability":"nonpayable"},{"type":"function","name":"name","inputs":[],"outputs":[{"name":"","type":"string","internalType":"string"}],"stateMutability":"view"},{"type":"function","name":"symbol","inputs":[],"outputs":[{"name":"","type":"string","internalType":"string"}],"stateMutability":"view"},{"type":"function","name":"totalSupply","inputs":[],"outputs":[{"name":"","type":"uint256","internalType":"uint256"}],"stateMutability":"view"},{"type":"function","name":"transfer","inputs":[{"name":"to","type":"address","internalType":"address"},{"name":"amount","type":"uint256","internalType":"uint256"}],"outputs":[{"name":"","type":"bool","internalType":"bool"}],"stateMutability":"nonpayable"},{"type":"function","name":"transferAndCall","inputs":[{"name":"_to","type":"address","internalType":"address"},{"name":"_value","type":"uint256","internalType":"uint256"},{"name":"_data","type":"bytes","internalType":"bytes"}],"outputs":[{"name":"success","type":"bool","internalType":"bool"}],"stateMutability":"nonpayable"},{"type":"function","name":"transferFrom","inputs":[{"name":"from","type":"address","internalType":"address"},{"name":"to","type":"address","internalType":"address"},{"name":"amount","type":"uint256","internalType":"uint256"}],"outputs":[{"name":"","type":"bool","internalType":"bool"}],"stateMutability":"nonpayable"},{"type":"event","name":"Approval","inputs":[{"name":"owner","type":"address","indexed":true,"internalType":"address"},{"name":"spender","type":"address","indexed":true,"internalType":"address"},{"name":"value","type":"uint256","indexed":false,"internalType":"uint256"}],"anonymous":false},{"type":"event","name":"Transfer","inputs":[{"name":"from","type":"address","indexed":true,"internalType":"address"},{"name":"to","type":"address","indexed":true,"internalType":"address"},{"name":"value","type":"uint256","indexed":false,"internalType":"uint256"},{"name":"data","type":"bytes","indexed":false,"internalType":"bytes"}],"anonymous":false},{"type":"event","name":"Transfer","inputs":[{"name":"from","type":"address","indexed":true,"internalType":"address"},{"name":"to","type":"address","indexed":true,"internalType":"address"},{"name":"value","type":"uint256","indexed":false,"internalType":"uint256"}],"anonymous":false}],"bytecode":{"object":"0x608060405234801561001057600080fd5b506040518060400160405280600f81526020016e21b430b4b72634b735902a37b5b2b760891b815250604051806040016040528060048152602001634c494e4b60e01b81525081600390816100659190610203565b5060046100728282610203565b5061007e915050610083565b6102e9565b610099336b033b2e3c9fd0803ce800000061009b565b565b6001600160a01b0382166100f55760405162461bcd60e51b815260206004820152601f60248201527f45524332303a206d696e7420746f20746865207a65726f206164647265737300604482015260640160405180910390fd5b806002600082825461010791906102c2565b90915550506001600160a01b038216600081815260208181526040808320805486019055518481527fddf252ad1be2c89b69c2b068fc378daa952ba7f163c4a11628f55a4df523b3ef910160405180910390a35050565b505050565b634e487b7160e01b600052604160045260246000fd5b600181811c9082168061018d57607f821691505b6020821081036101ad57634e487b7160e01b600052602260045260246000fd5b50919050565b601f82111561015e576000816000526020600020601f850160051c810160208610156101dc5750805b601f850160051c820191505b818110156101fb578281556001016101e8565b505050505050565b81516001600160401b0381111561021c5761021c610163565b6102308161022a8454610179565b846101b3565b602080601f831160018114610265576000841561024d5750858301515b600019600386901b1c1916600185901b1785556101fb565b600085815260208120601f198616915b8281101561029457888601518255948401946001909101908401610275565b50858210156102b25787850151600019600388901b60f8161c191681555b5050505050600190811b01905550565b808201808211156102e357634e487b7160e01b600052601160045260246000fd5b92915050565b610bbd806102f86000396000f3fe608060405234801561001057600080fd5b50600436106100ea5760003560e01c8063661884631161008c578063a457c2d711610066578063a457c2d7146101ce578063a9059cbb146101e1578063d73dd623146101f4578063dd62ed3e1461020757600080fd5b8063661884631461018a57806370a082311461019d57806395d89b41146101c657600080fd5b806323b872dd116100c857806323b872dd14610142578063313ce5671461015557806339509351146101645780634000aea01461017757600080fd5b806306fdde03146100ef578063095ea7b31461010d57806318160ddd14610130575b600080fd5b6100f761021a565b60405161010491906108c3565b60405180910390f35b61012061011b3660046108f2565b6102ac565b6040519015158152602001610104565b6002545b604051908152602001610104565b61012061015036600461091c565b6102c6565b60405160128152602001610104565b6101206101723660046108f2565b6102ea565b61012061018536600461096e565b61030c565b6101206101983660046108f2565b610382565b6101346101ab366004610a39565b6001600160a01b031660009081526020819052604090205490565b6100f7610395565b6101206101dc3660046108f2565b6103a4565b6101206101ef3660046108f2565b610424565b6101206102023660046108f2565b610432565b610134610215366004610a54565b61043e565b60606003805461022990610a87565b80601f016020809104026020016040519081016040528092919081815260200182805461025590610a87565b80156102a25780601f10610277576101008083540402835291602001916102a2565b820191906000526020600020905b81548152906001019060200180831161028557829003601f168201915b5050505050905090565b6000336102ba818585610469565b60019150505b92915050565b6000336102d48582856104a3565b6102df858585610517565b506001949350505050565b6000336102ba8185856102fd838361043e565b6103079190610ac1565b610469565b60006103188484610424565b50836001600160a01b0316336001600160a01b03167fe19260aff97b920c7df27010903aeb9c8d2be5d310a2c67824cf3f15396e4c16858560405161035e929190610ae2565b60405180910390a3833b156103785761037884848461054b565b5060019392505050565b600061038e83836103a4565b9392505050565b60606004805461022990610a87565b600033816103b2828661043e565b9050838110156104175760405162461bcd60e51b815260206004820152602560248201527f45524332303a2064656372656173656420616c6c6f77616e63652062656c6f77604482015264207a65726f60d81b60648201526084015b60405180910390fd5b6102df8286868403610469565b6000336102ba818585610517565b600061038e83836102ea565b6001600160a01b03918216600090815260016020908152604080832093909416825291909152205490565b81306001600160a01b038216036104925760405162461bcd60e51b815260040161040e90610b03565b61049d8484846105b5565b50505050565b60006104af848461043e565b9050600019811461049d578181101561050a5760405162461bcd60e51b815260206004820152601d60248201527f45524332303a20696e73756666696369656e7420616c6c6f77616e6365000000604482015260640161040e565b61049d8484848403610469565b81306001600160a01b038216036105405760405162461bcd60e51b815260040161040e90610b03565b61049d8484846106d9565b604051635260769b60e11b815283906001600160a01b0382169063a4c0ed369061057d90339087908790600401610b57565b600060405180830381600087803b15801561059757600080fd5b505af11580156105ab573d6000803e3d6000fd5b5050505050505050565b6001600160a01b0383166106175760405162461bcd60e51b8152602060048201526024808201527f45524332303a20617070726f76652066726f6d20746865207a65726f206164646044820152637265737360e01b606482015260840161040e565b6001600160a01b0382166106785760405162461bcd60e51b815260206004820152602260248201527f45524332303a20617070726f766520746f20746865207a65726f206164647265604482015261737360f01b606482015260840161040e565b6001600160a01b0383811660008181526001602090815260408083209487168084529482529182902085905590518481527f8c5be1e5ebec7d5bd14f71427d1e84f3dd0314c0f7b2291e5b200ac8c7c3b925910160405180910390a3505050565b6001600160a01b03831661073d5760405162461bcd60e51b815260206004820152602560248201527f45524332303a207472616e736665722066726f6d20746865207a65726f206164604482015264647265737360d81b606482015260840161040e565b6001600160a01b03821661079f5760405162461bcd60e51b815260206004820152602360248201527f45524332303a207472616e7366657220746f20746865207a65726f206164647260448201526265737360e81b606482015260840161040e565b6001600160a01b038316600090815260208190526040902054818110156108175760405162461bcd60e51b815260206004820152602660248201527f45524332303a207472616e7366657220616d6f756e7420657863656564732062604482015265616c616e636560d01b606482015260840161040e565b6001600160a01b03848116600081815260208181526040808320878703905593871680835291849020805487019055925185815290927fddf252ad1be2c89b69c2b068fc378daa952ba7f163c4a11628f55a4df523b3ef910160405180910390a361049d565b6000815180845260005b818110156108a357602081850181015186830182015201610887565b506000602082860101526020601f19601f83011685010191505092915050565b60208152600061038e602083018461087d565b80356001600160a01b03811681146108ed57600080fd5b919050565b6000806040838503121561090557600080fd5b61090e836108d6565b946020939093013593505050565b60008060006060848603121561093157600080fd5b61093a846108d6565b9250610948602085016108d6565b9150604084013590509250925092565b634e487b7160e01b600052604160045260246000fd5b60008060006060848603121561098357600080fd5b61098c846108d6565b925060208401359150604084013567ffffffffffffffff808211156109b057600080fd5b818601915086601f8301126109c457600080fd5b8135818111156109d6576109d6610958565b604051601f8201601f19908116603f011681019083821181831017156109fe576109fe610958565b81604052828152896020848701011115610a1757600080fd5b8260208601602083013760006020848301015280955050505050509250925092565b600060208284031215610a4b57600080fd5b61038e826108d6565b60008060408385031215610a6757600080fd5b610a70836108d6565b9150610a7e602084016108d6565b90509250929050565b600181811c90821680610a9b57607f821691505b602082108103610abb57634e487b7160e01b600052602260045260246000fd5b50919050565b808201808211156102c057634e487b7160e01b600052601160045260246000fd5b828152604060208201526000610afb604083018461087d565b949350505050565b60208082526034908201527f4c696e6b546f6b656e3a207472616e736665722f617070726f766520746f207460408201527368697320636f6e7472616374206164647265737360601b606082015260800190565b60018060a01b0384168152826020820152606060408201526000610b7e606083018461087d565b9594505050505056fea2646970667358221220ca58727dd9343c9ec52893f59ac498e0f7dc684d70eab7647c994f21adabb8fe64736f6c63430008190033","linkReferences":{}},"methodIdentifiers":{"allowance(address,address)":"dd62ed3e","approve(address,uint256)":"095ea7b3","balanceOf(address)":"70a08231","decimals()":"313ce567","decreaseAllowance(address,uint256)":"a457c2d7","decreaseApproval(address,uint256)":"66188463","increaseAllowance(address,uint256)":"39509351","increaseApproval(address,uint256)":"d73dd623","name()":"06fdde03","symbol()":"95d89b41","totalSupply()":"18160ddd","transfer(address,uint256)":"a9059cbb","transferAndCall(address,uint256,bytes)":"4000aea0","transferFrom(address,address,uint256)":"23b872dd"},"id":18}