{
  "abi": [
    {
      "inputs": [],
      "name": "factoryByteCode",
      "outputs": [
        {
          "internalType": "bytes",
          "name": "",
          "type": "bytes"
        }
      ],
      "stateMutability": "view",
      "type": "function"
    }
  ],
  "bytecode": {
    "object": "0x61c06060405261bfb06080818152906102c060a03980516100289160009160209091019061003b565b5034801561003557600080fd5b5061010f565b828054610047906100d4565b90600052602060002090601f01602090048101928261006957600085556100af565b82601f1061008257805160ff19168380011785556100af565b828001600101855582156100af579182015b828111156100af578251825591602001919060010190610094565b506100bb9291506100bf565b5090565b5b808211156100bb57600081556001016100c0565b600181811c908216806100e857607f821691505b6020821081141561010957634e487b7160e01b600052602260045260246000fd5b50919050565b6101a28061011e6000396000f3fe608060405234801561001057600080fd5b506004361061002b5760003560e01c806370eb258a14610030575b600080fd5b61003861004e565b60405161004591906100dc565b60405180910390f35b6000805461005b90610131565b80601f016020809104026020016040519081016040528092919081815260200182805461008790610131565b80156100d45780601f106100a9576101008083540402835291602001916100d4565b820191906000526020600020905b8154815290600101906020018083116100b757829003601f168201915b505050505081565b600060208083528351808285015260005b81811015610109578581018301518582016040015282016100ed565b8181111561011b576000604083870101525b50601f01601f1916929092016040019392505050565b600181811c9082168061014557607f821691505b6020821081141561016657634e487b7160e01b600052602260045260246000fd5b5091905056fea26469706673582212202c2c21fdffeb70d1fdbcd387e0f6447ed43889c91ef1bf1aaad10ff91a3bd8c764736f6c6343000807003330783630383036303430353233343830313536313030313035373630303038306664356235303630303433363130363130303764353736303030333536306530316338303633383930333537333031313631303035623537383036333839303335373330313436313031336235373830363338613763313935663134363130313835353738303633386461356362356231343631303162303537383036336131363731323935313436313031623835373631303037643536356238303633313361663430333531343631303038323537383036333136393865653832313436313030616135373830363332326166636363623134363130313032353735623630303038306664356236313030613836303034383033363033363032303831313031353631303039383537363030303830666435623530333536303031363030313630613031623033313636313031663435363562303035623631303065363630303438303336303336303630383131303135363130306330353736303030383066643562353038303335363030313630303136306130316230333930383131363931363032303831303133353930393131363930363034303031333536326666666666663136363130323637353635623630343038303531363030313630303136306130316230333930393231363832353235313930383139303033363032303031393066333562363130313234363030343830333630333630323038313130313536313031313835373630303038306664356235303335363266666666666631363631303239333536356236303430383035313630303239323930393230623832353235313930383139303033363032303031393066333562363130313433363130326138353635623630343038303531363030313630303136306130316230333936383731363831353239343836313636303230383630313532393239303934313638333833303135323632666666666666313636303630383330313532363030323932393039323062363038303832303135323930353139303831393030333630613030313930663335623631303061383630303438303336303336303430383131303135363130313962353736303030383066643562353036326666666666663831333531363930363032303031333536303032306236313032646535363562363130306536363130336131353635623631303065363630303438303336303336303630383131303135363130316365353736303030383066643562353038303335363030313630303136306130316230333930383131363931363032303831303133353930393131363930363034303031333536326666666666663136363130336230353635623630303335343630303136303031363061303162303331363333313436313032306235373630303038306664356236303033353436303430353136303031363030313630613031623033383038343136393231363930376662353332303733623338633833313435653365353133353337376130386266396161623535626330666437633131373963643466623939356432613531353963393036303030393061333630303338303534363030313630303136306130316230333139313636303031363030313630613031623033393239303932313639313930393131373930353535363562363030353630323039303831353236303030393338343532363034303830383532303832353239323834353238323834323039303532383235323930323035343630303136303031363061303162303331363831353635623630303436303230353236303030393038313532363034303930323035343630303230623831353635623630303035343630303135343630303238303534363030313630303136306130316230333933383431363933393238333136393238313136393136326666666666663630303136306130316238333034313639313630303136306238316239303034393030623835353635623630303335343630303136303031363061303162303331363333313436313032663535373630303038306664356236323066343234303832363266666666666631363130363130333039353736303030383066643562363030303831363030323062313338303135363130333230353735303631343030303831363030323062313235623631303332393537363030303830666435623632666666666666383231363630303039303831353236303034363032303532363034303930323035343630303239303831306239303062313536313033346635373630303038306664356236326666666666663832383131363630303038313831353236303034363032303532363034303830383232303830353436326666666666663139313636303032383739303062393538363136313739303535353137666336366133666466303732333263646431383566656263633635373964343038633234316234376165326639393037643834626536353531343165656165636339313930613335303530353635623630303335343630303136303031363061303162303331363831353635623630303036313033626136313035343635363562383236303031363030313630613031623033313638343630303136303031363061303162303331363134313536313033643935373630303038306664356236303030383038343630303136303031363061303162303331363836363030313630303136306130316230333136313036313033666335373834383636313033666635363562383538353562393039323530393035303630303136303031363061303162303338323136363130343137353736303030383066643562363266666666666638343136363030303930383135323630303436303230353236303430393032303534363030323930383130623930383139303062363130343365353736303030383066643562363030313630303136306130316230333833383131363630303039303831353236303035363032303930383135323630343038303833323038363835313638343532383235323830383332303632666666666666386131363834353239303931353239303230353431363135363130343764353736303030383066643562363130343861333038343834383838353631303537643536356236303031363030313630613031623033383038353136363030303831383135323630303536303230383138313532363034303830383432303839383731363830383635323930383335323831383532303632666666666666386531363830383735323930383435323832383632303830353439383861313636303031363030313630613031623033313939393861313638313137393039313535383238373532393438343532383238363230383738373532383435323832383632303831383735323834353239343832393032303830353439303937313638343137393039363535383035313630303238393930306238313532393138323031393239303932353238313531393539393530393139343766373833636361316330343132646430643639356537383435363863393664613265396332326666393839333537613265386231643962326234653662373131383932383139303033393039313031393061343530353035303933393235303530353035363562333036303031363030313630613031623033376630303030303030303030303030303030303030303030303030303030303030303030303030303030303030303030303030303030303030303030303030303030313631343631303537623537363030303830666435623536356236303430383035313630613038313031383235323630303136303031363061303162303338373831313638303833353238373832313636303230383038353031383239303532393238383136383438363031383139303532363266666666666638383831313636303630383038383031383239303532363030323861383130623630383039393861303138313930353236303030383035343630303136303031363061303162303331393930383131363930393931373831353536303031383035343861313638393137393035353832353439303938313638363137376666666666666666666666666666666666666630303030303066666666666666666666666666666666666666666666666666666666666666666666666666666666313636303031363061303162383530323137376666666666666666666666666630303030303066666666666666666666666666666666666666666666666666666666666666666666666666666666666666666666313636303031363062383162393138333062393039353136303239333930393331373930393235353837353138303837303139343930393435323833383830313932393039323532383238313031393139303931353238353531383038333033393039313031383135323933303139333834393035323832353139323930393130313931393039313230393039313631303638363930363130366635353635623831393036303430353138303931303339303630303066353930353038303135383031353631303661363537336436303030383033653364363030306664356235303630303038303534363030313630303136306130316230333139393038313136393039313535363030313830353439303931313639303535363030323830353437666666666666666666666666663030303030303030303030303030303030303030303030303030303030303030303030303030303030303030303030303030303031363930353539363935353035303530353035303530353635623631353863383830363130373033383333393031393035366665363130313630363034303532333438303135363230303030313235373630303038306664356235303330363036303162363038303532363034303830353136333038393033353733363065343162383135323930353136303030393133333931363338393033353733303931363030343830383230313932363061303932393039313930383239303033303138313836383033623135383031353632303030303536353736303030383066643562353035616661313538303135363230303030366235373364363030303830336533643630303066643562353035303530353036303430353133643630613038313130313536323030303038323537363030303830666435623530383035313630323038303833303135313630343038343031353136303630383038363031353136303830393039363031353136306538393638373162363030313630303136306538316230333139313636313031303035323931383131623630303136303031363036303162303331393930383131363630653035323932383131623833313636306330353239333930393331623136363061303532363030323832383130623930306239303932316236313031323035323931353036323030303066373930383239303632303030313066383131623632303032623834313739303163353635623630383031623630303136303031363038303162303331393136363130313430353235303632303030313764353635623630303038303832363030323831393030623632306438396537313938313632303030313235353766653562303530323930353036303030383336303032383139303062363230643839653838313632303030313364353766653562303530323930353036303030383436303032306238333833303336303032306238313632303030313535353766653562303536303031303139303530383036326666666666663136363030313630303136303830316230333830313638313632303030313733353766653562303439353934353035303530353035303536356236303830353136303630316336306130353136303630316336306330353136303630316336306530353136303630316336313031303035313630653831633631303132303531363065383163363130313430353136303830316336313536376536323030303234613630303033393830363131666565353238303631346235663532383036313462393635323530383036313063303035323830363132386664353238303631346263613532383036313462666335323530383036313063656635323830363131396362353238303631316130323532383036313239343535323530383036313131633735323830363131613835353238303631316566343532383036313234343435323830363132393231353238303631336536623532353038303631303864323532383036313132663535323830363131613534353238303631316538653532383036313233626535323830363133643232353235303830363132303762353238303631323237643532383036313238643935323530383036313262666235323530363135363765363030306633666536303830363034303532333438303135363130303130353736303030383066643562353036303034333631303631303161653537363030303335363065303163383036333730636637353461313136313030656535373830363363343561303135353131363130303937353738303633646463613366343331313631303037313537383036336464636133663433313436313038303035373830363366333035383339393134363130383230353738303633663330646261393331343631303832383537383036336636333737333164313436313038616135373631303161653536356238303633633435613031353531343631303764313537383036336430633933613763313436313037643935373830363364323132323061373134363130376638353736313031616535363562383036333838336264626664313136313030633835373830363338383362646266643134363130363333353738303633613334313233613731343631303733633537383036336133383830376632313436313037373635373631303161653536356238303633373063663735346131343631303563363537383036333832303661346431313436313035636535373830363338356236363732393134363130356636353736313031616535363562383036333338353063376264313136313031356235373830363334393065366362633131363130313335353738303633343930653663626331343631303437303537383036333466316562336438313436313034666335373830363335313465613462663134363130353464353738303633353333396332393631343631303561363537363130316165353635623830363333383530633762643134363130333562353738303633336338613764386431343631303362343537383036333436313431333139313436313034353635373631303161653536356238303633316164386230336231313631303138633537383036333161643862303362313436313032616135373830363332353263303964373134363130326531353738303633333231343866363731343631303333383537363130316165353635623830363330646665313638313134363130316233353738303633313238616362303831343631303164373537383036333161363836353032313436313032383635373562363030303830666435623631303162623631303864303536356236303430383035313630303136303031363061303162303339303932313638323532353139303831393030333630323030313930663335623631303236643630303438303336303336306130383131303135363130316564353736303030383066643562363030313630303136306130316230333832333538313136393236303230383130313335313531353932363034303832303133353932363036303833303133353136393139303831303139303630613038313031363038303832303133353634303130303030303030303831313131353631303232653537363030303830666435623832303138333630323038323031313131353631303234303537363030303830666435623830333539303630323030313931383436303031383330323834303131313634303130303030303030303833313131373135363130323632353736303030383066643562353039303932353039303530363130386634353635623630343038303531393238333532363032303833303139313930393135323830353139313832393030333031393066333562363130323865363131346164353635623630343038303531363030313630303136303830316230333930393231363832353235313930383139303033363032303031393066333562363130326232363131346263353635623630343035313830383336303031363030313630383031623033313638313532363032303031383236303031363030313630383031623033313638313532363032303031393235303530353036303430353138303931303339306633356236313032666536303034383033363033363032303831313031353631303266373537363030303830666435623530333536313134643635363562363034303830353136336666666666666666393039353136383535323630303639333930393330623630323038353031353236303031363030313630613031623033393039313136383338333031353231353135363036303833303135323531393038313930303336303830303139306633356236313033353936303034383033363033363032303831313031353631303334653537363030303830666435623530333536316666666631363631313531633536356230303562363130333633363131363136353635623630343038303531363030313630303136306130316230333930393831363838353236303032393639303936306236303230383830313532363166666666393438353136383738373031353239323834313636303630383730313532393231363630383038353031353236306666393039313136363061303834303135323135313536306330383330313532353139303831393030333630653030313930663335623631303236643630303438303336303336306130383131303135363130336361353736303030383066643562363030313630303136306130316230333832333531363931363032303831303133353630303239303831306239323630343038333031333539303931306239313630303136303031363038303162303336303630383230313335313639313831303139303630613038313031363038303832303133353634303130303030303030303831313131353631303431373537363030303830666435623832303138333630323038323031313131353631303432393537363030303830666435623830333539303630323030313931383436303031383330323834303131313634303130303030303030303833313131373135363130343462353736303030383066643562353039303932353039303530363131363636353635623631303435653631313932323536356236303430383035313931383235323531393038313930303336303230303139306633356236313033353936303034383033363033363038303831313031353631303438363537363030303830666435623630303136303031363061303162303338323335313639313630323038313031333539313630343038323031333539313930383130313930363038303831303136303630383230313335363430313030303030303030383131313135363130346264353736303030383066643562383230313833363032303832303131313135363130346366353736303030383066643562383033353930363032303031393138343630303138333032383430313131363430313030303030303030383331313137313536313034663135373630303038306664356235303930393235303930353036313139323835363562363130326232363030343830333630333630613038313130313536313035313235373630303038306664356235303630303136303031363061303162303338313335313639303630323038313031333536303032393038313062393136303430383130313335393039313062393036303031363030313630383031623033363036303832303133353831313639313630383030313335313636313164383335363562363130353661363030343830333630333630323038313130313536313035363335373630303038306664356235303335363131663964353635623630343038303531363030313630303136303830316230333936383731363831353236303230383130313935393039353532383438313031393339303933353239303834313636303630383430313532393039323136363038303832303135323930353139303831393030333630613030313930663335623631303435653630303438303336303336303230383131303135363130356263353736303030383066643562353033353630303130623631316664613536356236313032386536313166656335363562363130333539363030343830333630333630343038313130313536313035653435373630303038306664356235303630666638313335383131363931363032303031333531363631323031303536356236313032623236303034383033363033363036303831313031353631303630633537363030303830666435623530363030313630303136306130316230333831333531363930363030313630303136303830316230333630323038323031333538313136393136303430303133353136363132323066353635623631303661333630303438303336303336303230383131303135363130363439353736303030383066643562383130313930363032303831303138313335363430313030303030303030383131313135363130363634353736303030383066643562383230313833363032303832303131313135363130363736353736303030383066643562383033353930363032303031393138343630323038333032383430313131363430313030303030303030383331313137313536313036393835373630303038306664356235303930393235303930353036313234646335363562363034303531383038303630323030313830363032303031383338313033383335323835383138313531383135323630323030313931353038303531393036303230303139303630323030323830383338333630303035623833383131303135363130366537353738313831303135313833383230313532363032303031363130366366353635623530353035303530393035303031383338313033383235323834383138313531383135323630323030313931353038303531393036303230303139303630323030323830383338333630303035623833383131303135363130373236353738313831303135313833383230313532363032303031363130373065353635623530353035303530393035303031393435303530353035303530363034303531383039313033393066333562363130323664363030343830333630333630363038313130313536313037353235373630303038306664356235303830333536303032393038313062393136303230383130313335393039313062393036303430303133353630303136303031363038303162303331363631323536393536356236313037613036303034383033363033363034303831313031353631303738633537363030303830666435623530383033353630303239303831306239313630323030313335393030623631323665303536356236303430383035313630303639343930393430623834353236303031363030313630613031623033393039323136363032303834303135323633666666666666666631363832383230313532353139303831393030333630363030313930663335623631303162623631323864373536356236313037653136313238666235363562363034303830353136303032393239303932306238323532353139303831393030333630323030313930663335623631303162623631323931663536356236313038303836313239343335363562363034303830353136326666666666663930393231363832353235313930383139303033363032303031393066333562363130343565363132393637353635623631303834383630303438303336303336303230383131303135363130383365353736303030383066643562353033353630303230623631323936643536356236303430383035313630303136303031363038303162303339303939313638393532363030663937393039373062363032303839303135323837383730313935393039353532363036303837303139333930393335323630303639313930393130623630383038363031353236303031363030313630613031623033313636306130383530313532363366666666666666663136363063303834303135323135313536306530383330313532353139303831393030333631303130303031393066333562363130333539363030343830333630333630323038313130313536313038633035373630303038306664356235303335363030313630303136306130316230333136363132396462353635623766303030303030303030303030303030303030303030303030303030303030303030303030303030303030303030303030303030303030303030303030303030303831353635623630303038303631303866663631326266303536356238353631303933363537363034303830353136323436316263643630653531623831353236303230363030343832303135323630303236303234383230313532363134313533363066303162363034343832303135323930353139303831393030333630363430313930666435623630343038303531363065303831303138323532363030303534363030313630303136306130316230333831313638323532363030313630613031623831303436303032393038313062383130623930306236303230383330313532363166666666363030313630623831623832303438313136393338333031393339303933353236303031363063383162383130343833313636303630383330313532363030313630643831623831303439303932313636303830383230313532363066663630303136306538316238333034383131363630613038333031353236303031363066303162393039323034393039313136313531353630633038323031383139303532363130396566353736303430383035313632343631626364363065353162383135323630323036303034383230313532363030333630323438323031353236323463346634623630653831623630343438323031353239303531393038313930303336303634303139306664356238373631306133613537383036303030303135313630303136303031363061303162303331363836363030313630303136306130316230333136313138303135363130613335353735303733666666643839363365666431666336613530363438383439356439353164353236333938386432363630303136303031363061303162303338373136313035623631306136633536356238303630303030313531363030313630303136306130316230333136383636303031363030313630613031623033313631303830313536313061366335373530363430313030303237366133363030313630303136306130316230333837313631313562363130616133353736303430383035313632343631626364363065353162383135323630323036303034383230313532363030333630323438323031353236323134643431333630656131623630343438323031353239303531393038313930303336303634303139306664356236303030383035343630666636306630316231393136383135353630343038303531363063303831303139303931353238303861363130616432353736303034383436306130303135313630666631363930316336313061653535363562363031303834363061303031353136306666313638313631306165333537666535623036356236306666313638313532363030343534363030313630303136303830316230333136363032303832303135323630343030313631306230363631326332373536356236336666666666666666313638313532363032303031363030303630303630623831353236303230303136303030363030313630303136306130316230333136383135323630323030313630303031353135383135323530393035303630303038303839313339303530363030303630343035313830363065303031363034303532383038623831353236303230303136303030383135323630323030313835363030303031353136303031363030313630613031623033313638313532363032303031383536303230303135313630303230623831353236303230303138633631306238323537363030323534363130623836353635623630303135343562383135323630323030313630303036303031363030313630383031623033313638313532363032303031383436303230303135313630303136303031363038303162303331363831353235303930353035623830353131353830313539303631306264353537353038383630303136303031363061303162303331363831363034303031353136303031363030313630613031623033313631343135356231353631306639663537363130626532363135363065353635623630343038323031353136303031363030313630613031623033313638313532363036303832303135313631306332353930363030363930376630303030303030303030303030303030303030303030303030303030303030303030303030303030303030303030303030303030303030303030303030303030386636313263326235363562313531353630343038333031353236303032393038313062383130623630323038333031383139303532363230643839653731393931306231323135363130633536353736323064383965373139363032303832303135323631306337353536356236303230383130313531363230643839653836303032393139303931306231333135363130633735353736323064383965383630323038323031353235623631306338323831363032303031353136313264366435363562363030313630303136306130316230333136363036303832303135323630343038323031353136313064313339303864363130636263353738623630303136303031363061303162303331363833363036303031353136303031363030313630613031623033313631313631306364363536356238623630303136303031363061303162303331363833363036303031353136303031363030313630613031623033313631303562363130636534353738323630363030313531363130636536353635623862356236306330383530313531383535313766303030303030303030303030303030303030303030303030303030303030303030303030303030303030303030303030303030303030303030303030303030303631333039663536356236306330383530313532363061303834303135323630383038333031353236303031363030313630613031623033313636303430383330313532383231353631306437353537363130643439383136306330303135313832363038303031353130313631333239313536356238323531303338323532363061303831303135313631306436623930363130643630393036313332393135363562363032303834303135313930363133326137353635623630323038333031353236313064623035363562363130643832383136306130303135313631333239313536356238323531303138323532363063303831303135313630383038323031353136313064616139313631306439663931303136313332393135363562363032303834303135313930363133326333353635623630323038333031353235623833353136306666313631353631306466363537363030303834363030303031353136306666313638323630633030313531383136313064643035376665356236306330383430313830353139323930393130343931383239303033393035323630613038343031383035313930393130313630303136303031363038303162303331363930353235303562363063303832303135313630303136303031363038303162303331363135363130653335353736313065323938313630633030313531363030313630383031623834363063303031353136303031363030313630383031623033313636313332643935363562363038303833303138303531393039313031393035323562383036303630303135313630303136303031363061303162303331363832363034303031353136303031363030313630613031623033313631343135363130663565353738303630343030313531313536313066333535373833363061303031353136313065626635373631306539643834363034303031353136303030383736303230303135313838363034303031353138383630323030313531386136303630303135313630303836313333383939303936393539343933393239313930363366666666666666663136353635623630303136303031363061303162303331363630383038363031353236303036393038313062393030623630363038353031353236303031363061303835303135323562363030303631306630623832363032303031353138653631306564363537363030313534363130656463353635623834363038303031353135623866363130656562353738353630383030313531363130656566353635623630303235343562363038303839303135313630363038613031353136303430386230313531363030353935393439333932393139303631333531633536356239303530386331353631306631373537363030303033356236313066323538333630633030313531383236313335656635363562363030313630303136303830316230333136363063303834303135323530356238623631306634343537383036303230303135313631306634643536356236303031383136303230303135313033356236303032393038313062393030623630363038333031353236313066393935363562383036303030303135313630303136303031363061303162303331363832363034303031353136303031363030313630613031623033313631343631306639393537363130663863383236303430303135313631333661353536356236303032393038313062393030623630363038333031353235623530363130626166353635623833363032303031353136303032306238313630363030313531363030323062313436313130376135373630303038303631306665643836363034303031353138363630343030313531383836303230303135313838363032303031353138613630363030313531386236303830303135313630303836313339643139303936393539343933393239313930363366666666666666663136353635623630343038353031353136303630383630313531363030303830353436316666666636306338316231393136363030313630633831623631666666663935383631363032313736316666666636306238316231393136363030313630623831623935393039343136393439303934303239323930393231373632666666666666363061303162313931363630303136306130316236326666666666663630303239343930393430623933393039333136393239303932303239313930393131373733666666666666666666666666666666666666666666666666666666666666666666666666666666663139313636303031363030313630613031623033393039313136313739303535353036313130616339303530353635623630343038313031353136303030383035343733666666666666666666666666666666666666666666666666666666666666666666666666666666663139313636303031363030313630613031623033393039323136393139303931313739303535356238303630633030313531363030313630303136303830316230333136383336303230303135313630303136303031363038303162303331363134363131306632353736306330383130313531363030343830353436303031363030313630383031623033313931363630303136303031363038303162303339303932313639313930393131373930353535623861313536313131343235373630383038313031353136303031353536306130383130313531363030313630303136303830316230333136313536313131336435373630613038313031353136303033383035343630303136303031363038303162303331393831313636303031363030313630383031623033393138323136393039333031313639313930393131373930353535623631313138383536356236303830383130313531363030323535363061303831303135313630303136303031363038303162303331363135363131313838353736306130383130313531363030333830353436303031363030313630383031623033383038323136363030313630383031623932383339303034383231363930393430313136303239313930393131373930353535623831313531353862313531353134363131316131353736303230383130313531383135313862303336313131616535363562383036303030303135313861303338313630323030313531356239303936353039343530386131353631313265373537363030303835313231353631313166303537363131316630376630303030303030303030303030303030303030303030303030303030303030303030303030303030303030303030303030303030303030303030303030303030386438373630303030333631336238363536356236303030363131316661363133636434353635623930353033333630303136303031363061303162303331363633666134363165333338383838386338633630343035313835363366666666666666663136363065303162383135323630303430313830383538313532363032303031383438313532363032303031383036303230303138323831303338323532383438343832383138313532363032303031393235303830383238343337363030303831383430313532363031663139363031663832303131363930353038303833303139323530353035303935353035303530353035303530363030303630343035313830383330333831363030303837383033623135383031353631313237653537363030303830666435623530356166313135383031353631313239323537336436303030383033653364363030306664356235303530353035303631313239653631336364343536356236313132613838323839363133653064353635623131313536313132653135373630343038303531363234363162636436306535316238313532363032303630303438323031353236303033363032343832303135323632343934393431363065383162363034343832303135323930353139303831393030333630363430313930666435623530363131343131353635623630303038363132313536313133316535373631313331653766303030303030303030303030303030303030303030303030303030303030303030303030303030303030303030303030303030303030303030303030303030303864383836303030303336313362383635363562363030303631313332383631336531643536356239303530333336303031363030313630613031623033313636336661343631653333383838383863386336303430353138353633666666666666666631363630653031623831353236303034303138303835383135323630323030313834383135323630323030313830363032303031383238313033383235323834383438323831383135323630323030313932353038303832383433373630303038313834303135323630316631393630316638323031313639303530383038333031393235303530353039353530353035303530353035303630303036303430353138303833303338313630303038373830336231353830313536313133616335373630303038306664356235303561663131353830313536313133633035373364363030303830336533643630303066643562353035303530353036313133636336313365316435363562363131336436383238383631336530643536356231313135363131343066353736303430383035313632343631626364363065353162383135323630323036303034383230313532363030333630323438323031353236323439343934313630653831623630343438323031353239303531393038313930303336303634303139306664356235303562363034303830383230313531363063303833303135313630363038303835303135313834353138623831353236303230383130313862393035323630303136303031363061303162303339343835313638313837303135323630303136303031363038303162303339303933313639313833303139313930393135323630303230623630383038323031353239313531393038653136393133333931376663343230373966393461363335306437653632333566323931373439323466393238636332616338313865623634666564383030346531313566626363613637393138313930303336306130303139306133353035303630303038303534363066663630663031623139313636303031363066303162313739303535353039313938393039373530393535303530353035303530353035363562363030343534363030313630303136303830316230333136383135363562363030333534363030313630303136303830316230333830383231363931363030313630383031623930303431363832353635623630303838313631666666663831313036313134653735373630303038306664356230313534363366666666666666663831313639313530363430313030303030303030383130343630303630623930363030313630353831623831303436303031363030313630613031623033313639303630303136306638316239303034363066663136383435363562363030303534363030313630663031623930303436306666313636313135363035373630343038303531363234363162636436306535316238313532363032303630303438323031353236303033363032343832303135323632346334663462363065383162363034343832303135323930353139303831393030333630363430313930666435623630303038303534363066663630663031623139313639303535363131353735363132626630353635623630303038303534363030313630643831623930303436316666666631363930363131353931363030383833383536313365623535363562363030303830353436316666666638303834313636303031363064383162383130323631666666663630643831623139393039333136393239303932313739303932353539313932353038333136313436313135666535373630343038303531363166666666383038353136383235323833313636303230383230313532383135313766616334396535313866393061333538663635326534343030313634663035613564386637653335653737343732373962633361393364626635383465313235613932393138313930303339303931303139306131356235303530363030303830353436306666363066303162313931363630303136306630316231373930353535303536356236303030353436303031363030313630613031623033383131363930363030313630613031623831303436303032306239303631666666663630303136306238316238323034383131363931363030313630633831623831303438323136393136303031363064383162383230343136393036306666363030313630653831623832303438313136393136303031363066303162393030343136383735363562363030303830353438313930363030313630663031623930303436306666313636313136616435373630343038303531363234363162636436306535316238313532363032303630303438323031353236303033363032343832303135323632346334663462363065383162363034343832303135323930353139303831393030333630363430313930666435623630303038303534363066663630663031623139313639303535363030313630303136303830316230333835313636313136636435373630303038306664356236303030383036313137316236303430353138303630383030313630343035323830386336303031363030313630613031623033313638313532363032303031386236303032306238313532363032303031386136303032306238313532363032303031363131373131386136303031363030313630383031623033313636313366353835363562363030663062393035323631336636393536356239323530393235303530383139333530383039323530363030303830363030303836313131353631313733643537363131373361363133636434353635623931353035623834313536313137346535373631313734623631336531643536356239303530356233333630303136303031363061303162303331363633643334383739393738373837386238623630343035313835363366666666666666663136363065303162383135323630303430313830383538313532363032303031383438313532363032303031383036303230303138323831303338323532383438343832383138313532363032303031393235303830383238343337363030303831383430313532363031663139363031663832303131363930353038303833303139323530353035303935353035303530353035303530363030303630343035313830383330333831363030303837383033623135383031353631313764303537363030303830666435623530356166313135383031353631313765343537336436303030383033653364363030306664356235303530353035303630303038363131313536313138336235373631313766393631336364343536356236313138303338333838363133653064353635623131313536313138336235373630343038303531363234363162636436306535316238313532363032303630303438323031353236303032363032343832303135323631303464333630663431623630343438323031353239303531393038313930303336303634303139306664356238343135363131383862353736313138343936313365316435363562363131383533383238373631336530643536356231313135363131383862353736303430383035313632343631626364363065353162383135323630323036303034383230313532363030323630323438323031353236313464333136306630316236303434383230313532393035313930383139303033363036343031393066643562383936303032306238623630303230623864363030313630303136306130316230333136376637613533303830626134313431353862653765633639623938376235666237643037646565313031666538353438386630383533616531363233396430626465333338643862386236303430353138303835363030313630303136306130316230333136383135323630323030313834363030313630303136303830316230333136383135323630323030313833383135323630323030313832383135323630323030313934353035303530353035303630343035313830393130333930613435303530363030303830353436306666363066303162313931363630303136306630316231373930353535303931393839303937353039353530353035303530353035303536356236303032353438313536356236303030353436303031363066303162393030343630666631363631313936633537363034303830353136323436316263643630653531623831353236303230363030343832303135323630303336303234383230313532363234633466346236306538316236303434383230313532393035313930383139303033363036343031393066643562363030303830353436306666363066303162313931363930353536313139383136313262663035363562363030343534363030313630303136303830316230333136383036313139633335373630343038303531363234363162636436306535316238313532363032303630303438323031353236303031363032343832303135323630313336306661316236303434383230313532393035313930383139303033363036343031393066643562363030303631313966383836376630303030303030303030303030303030303030303030303030303030303030303030303030303030303030303030303030303030303030303030303030303030363266666666666631363632306634323430363134316139353635623930353036303030363131613266383637663030303030303030303030303030303030303030303030303030303030303030303030303030303030303030303030303030303030303030303030303030303036326666666666663136363230663432343036313431613935363562393035303630303036313161336236313363643435363562393035303630303036313161343736313365316435363562393035303838313536313161376135373631316137613766303030303030303030303030303030303030303030303030303030303030303030303030303030303030303030303030303030303030303030303030303030303862386236313362383635363562383731353631316161623537363131616162376630303030303030303030303030303030303030303030303030303030303030303030303030303030303030303030303030303030303030303030303030303030386238613631336238363536356233333630303136303031363061303162303331363633653963626166623038353835386138613630343035313835363366666666666666663136363065303162383135323630303430313830383538313532363032303031383438313532363032303031383036303230303138323831303338323532383438343832383138313532363032303031393235303830383238343337363030303831383430313532363031663139363031663832303131363930353038303833303139323530353035303935353035303530353035303530363030303630343035313830383330333831363030303837383033623135383031353631316232643537363030303830666435623530356166313135383031353631316234313537336436303030383033653364363030306664356235303530353035303630303036313162346636313363643435363562393035303630303036313162356236313365316435363562393035303831363131623638383538383631336530643536356231313135363131626130353736303430383035313632343631626364363065353162383135323630323036303034383230313532363030323630323438323031353236313034363336306634316236303434383230313532393035313930383139303033363036343031393066643562383036313162616238343837363133653064353635623131313536313162653335373630343038303531363234363162636436306535316238313532363032303630303438323031353236303032363032343832303135323631343633313630663031623630343438323031353239303531393038313930303336303634303139306664356238333832303338333832303338313135363131633732353736303030383035343630303136306538316239303034363030663136393038313135363131633136353738313630666631363834383136313163313035376665356230343631316331393536356236303030356239303530363030313630303136303830316230333831313631353631316334633537363030333830353436303031363030313630383031623033383038323136383430313136363030313630303136303830316230333139393039313136313739303535356236313163363638313835303336303031363038303162386436303031363030313630383031623033313636313332643935363562363030313830353439303931303139303535353035303562383031353631316366643537363030303830353436303031363065383162393030343630303431633630306631363930383131353631316361323537383136306666313638333831363131633963353766653562303436313163613535363562363030303562393035303630303136303031363038303162303338313136313536313163643735373630303338303534363030313630303136303830316230333630303136303830316238303833303438323136383530313832313630323931313631373930353535623631316366313831383430333630303136303830316238643630303136303031363038303162303331363631333264393536356236303032383035343930393130313930353535303530356238643630303136303031363061303162303331363333363030313630303136306130316230333136376662646264623731643738363033373662613532623235613530323862656561323335383133363461343035323266366263666238366262316632646361363333386638663836383636303430353138303835383135323630323030313834383135323630323030313833383135323630323030313832383135323630323030313934353035303530353035303630343035313830393130333930613335303530363030303830353436306666363066303162313931363630303136306630316231373930353535303530353035303530353035303530353035303530353035363562363030303830353438313930363030313630663031623930303436306666313636313164636135373630343038303531363234363162636436306535316238313532363032303630303438323031353236303033363032343832303135323632346334663462363065383162363034343832303135323930353139303831393030333630363430313930666435623630303038303534363066663630663031623139313638313535363131646534363030373333383938393631343165333536356236303033383130313534393039313530363030313630303136303830316230333930383131363930383631363131363131653035353738343631316531343536356236303033383130313534363030313630303136303830316230333136356236303033383230313534393039333530363030313630303136303830316230333630303136303830316239303931303438313136393038353136313136313165336335373833363131653532353635623630303338313031353436303031363038303162393030343630303136303031363038303162303331363562393135303630303136303031363038303162303338333136313536313165623735373630303338313031383035343630303136303031363038303162303331393831313636303031363030313630383031623033393138323136383639303033383231363137393039313535363131656237393037663030303030303030303030303030303030303030303030303030303030303030303030303030303030303030303030303030303030303030303030303030303039303861393038363136363133623836353635623630303136303031363038303162303338323136313536313166316435373630303338313031383035343630303136303031363038303162303336303031363038303162383038333034383231363836393030333832313630323931383131363931393039313137393039313535363131663164393037663030303030303030303030303030303030303030303030303030303030303030303030303030303030303030303030303030303030303030303030303030303039303861393038353136363133623836353635623630343038303531363030313630303136306130316230333861313638313532363030313630303136303830316230333830383631363630323038333031353238343136383138333031353239303531363030323838383130623932393038613930306239313333393137663730393335333338653639373735343536613835646465663232366333393566623636386236336661303131356635663230363130623338386536636139633039313930383139303033363036303031393061343530363030303830353436306666363066303162313931363630303136306630316231373930353539303936393039353530393335303530353035303536356236303037363032303532363030303930383135323630343039303230383035343630303138323031353436303032383330313534363030333930393330313534363030313630303136303830316230333932383331363933393139323831383131363931363030313630383031623930303431363835353635623630303636303230353236303030393038313532363034303930323035343831353635623766303030303030303030303030303030303030303030303030303030303030303030303030303030303030303030303030303030303030303030303030303030303831353635623630303035343630303136306630316239303034363066663136363132303534353736303430383035313632343631626364363065353162383135323630323036303034383230313532363030333630323438323031353236323463346634623630653831623630343438323031353239303531393038313930303336303634303139306664356236303030383035343630666636306630316231393136393035353630343038303531363338646135636235623630653031623831353239303531363030313630303136306130316230333766303030303030303030303030303030303030303030303030303030303030303030303030303030303030303030303030303030303030303030303030303030303136393136333864613563623562393136303034383038333031393236303230393239313930383239303033303138313836383033623135383031353631323063313537363030303830666435623530356166613135383031353631323064353537336436303030383033653364363030306664356235303530353035303630343035313364363032303831313031353631323065623537363030303830666435623530353136303031363030313630613031623033313633333134363132313031353736303030383066643562363066663832313631353830363132313234353735303630303438323630666631363130313538303135363132313234353735303630306138323630666631363131313535623830313536313231346535373530363066663831313631353830363132313465353735303630303438313630666631363130313538303135363132313465353735303630306138313630666631363131313535623631323135373537363030303830666435623630303038303534363130666630363030343834393031623136383430313630666639303831313636303031363065383162393038313032376666666666303066666666666666666666666666666666666666666666666666666666666666666666666666666666666666666666666666666666666666666666383431363137393039333535393139303034313637663937336438643932626232393966346166366365343962353261386164623835616534366239663231346334633466633036616337373430313233376231333336303130383236303430383035313630666639333930393230363833313638323532363030663630303438363930316331363630323038333031353238363833313638323832303135323931383531363630363038323031353239303531393038313930303336303830303139306131353035303630303038303534363066663630663031623139313636303031363066303162313739303535353035363562363030303830353438313930363030313630663031623930303436306666313636313232353635373630343038303531363234363162636436306535316238313532363032303630303438323031353236303033363032343832303135323632346334663462363065383162363034343832303135323930353139303831393030333630363430313930666435623630303038303534363066663630663031623139313639303535363034303830353136333864613563623562363065303162383135323930353136303031363030313630613031623033376630303030303030303030303030303030303030303030303030303030303030303030303030303030303030303030303030303030303030303030303030303030313639313633386461356362356239313630303438303833303139323630323039323931393038323930303330313831383638303362313538303135363132326333353736303030383066643562353035616661313538303135363132326437353733643630303038303365336436303030666435623530353035303530363034303531336436303230383131303135363132326564353736303030383066643562353035313630303136303031363061303162303331363333313436313233303335373630303038306664356236303033353436303031363030313630383031623033393038313136393038353136313136313233316635373833363132333263353635623630303335343630303136303031363038303162303331363562363030333534393039323530363030313630303136303830316230333630303136303830316239303931303438313136393038343136313136313233353235373832363132333636353635623630303335343630303136303830316239303034363030313630303136303830316230333136356239303530363030313630303136303830316230333832313631353631323365373537363030333534363030313630303136303830316230333833383131363931313631343135363132333935353736303030313939303931303139303562363030333830353436303031363030313630383031623033313938313136363030313630303136303830316230333931383231363835393030333832313631373930393135353631323365373930376630303030303030303030303030303030303030303030303030303030303030303030303030303030303030303030303030303030303030303030303030303030393038373930383531363631336238363536356236303031363030313630383031623033383131363135363132343664353736303033353436303031363030313630383031623033383238313136363030313630383031623930393230343136313431353631323431383537363030303139303135623630303338303534363030313630303136303830316230333630303136303830316238303833303438323136383539303033383231363032393138313136393139303931313739303931353536313234366439303766303030303030303030303030303030303030303030303030303030303030303030303030303030303030303030303030303030303030303030303030303030303930383739303834313636313362383635363562363034303830353136303031363030313630383031623033383038353136383235323833313636303230383230313532383135313630303136303031363061303162303338383136393233333932376635393662353733393036323138643334313138353062323661366234333764366334353232666462343364326432333836323633663836643530623862313531393239303831393030333930393130313930613336303030383035343630666636306630316231393136363030313630663031623137393035353930393439303933353039313530353035363562363036303830363132346537363132626630353635623631323535653631323466323631326332373536356238353835383038303630323030323630323030313630343035313930383130313630343035323830393339323931393038313831353236303230303138333833363032303032383038323834333736303030393230313832393035323530353436303034353436303038393639353934353036303031363061303162383230343630303230623933353036316666666636303031363062383162383330343831313639333530363030313630303136303830316230333930393131363931363030313630633831623930303431363631343234373536356239313530393135303932353039323930353035363562363030303830353438313930363030313630663031623930303436306666313636313235623035373630343038303531363234363162636436306535316238313532363032303630303438323031353236303033363032343832303135323632346334663462363065383162363034343832303135323930353139303831393030333630363430313930666435623630303038303534363066663630663031623139313638313535363034303830353136303830383130313832353233333831353236303032383838313062363032303833303135323837393030623931383130313931393039313532383139303831393036313236303939303630363038313031363132356663363030313630303136303830316230333861313636313366353835363562363030303033363030663062393035323631336636393536356239323530393235303932353038313630303030333934353038303630303030333933353036303030383531313830363132363261353735303630303038343131356231353631323636393537363030333833303138303534363030313630303136303830316230333830383231363830383930313832313636303031363038303162393338343930303438333136383930313930393231363930393230323930393131373630303136303031363038303162303331393136313739303535356236303430383035313630303136303031363038303162303338383136383135323630323038313031383739303532383038323031383639303532393035313630303238393831306239323930386239303062393133333931376630633339366364393839613339663434353962356661316165643661396138646364626334353930386163666436376530323863643536386461393839383263393139303831393030333630363030313930613435303530363030303830353436306666363066303162313931363630303136306630316231373930353535303930393439303933353039313530353035363562363030303830363030303631323665643631326266303536356236313236663738353835363134336131353635623630303238353831306238313062363030303930383135323630303536303230353236303430383038323230383738343062393039333062383235323831323036303033383330313534363030363831393030623933363730313030303030303030303030303030383230343630303136303031363061303162303331363932383439323630303136306438316238313034363366666666666666663136393238343932393039313630303136306638316239303034363066663136383036313237356635373630303038306664356236303033383230313534363030363831393030623938353036373031303030303030303030303030303038313034363030313630303136306130316230333136393635303630303136306438316238313034363366666666666666663136393435303630303136306638316239303034363066663136383036313237613435373630303038306664356235303530363034303830353136306530383130313832353236303030353436303031363030313630613031623033383131363832353236303031363061303162383130343630303239303831306238313062383130623630323038343031383139303532363166666666363030313630623831623834303438313136393538353031393539303935353236303031363063383162383330343835313636303630383530313532363030313630643831623833303439303934313636303830383430313532363066663630303136306538316238333034383131363630613038353031353236303031363066303162393039323034393039313136313531353630633038333031353239303933353038653831306239313930306231323135393035303631323834643537353039333930393430333936353039303033393335303930303339303530363132386430353635623861363030323062383136303230303135313630303230623132313536313238633135373630303036313238363936313263323735363562363032303833303135313630343038343031353136303034353436303630383630313531393339343530363030303933383439333631323839663933363030383933383839333837393339323931363030313630303136303830316230333136393036313333383935363562396139303033393839303938303339623530353039343930393630333932393039323033393635303930393130333033393235303631323864303931353035303536356235303934393039333033393635303033393335303930303339303530356239323530393235303932353635623766303030303030303030303030303030303030303030303030303030303030303030303030303030303030303030303030303030303030303030303030303030303831353635623766303030303030303030303030303030303030303030303030303030303030303030303030303030303030303030303030303030303030303030303030303030303831353635623766303030303030303030303030303030303030303030303030303030303030303030303030303030303030303030303030303030303030303030303030303030303831353635623766303030303030303030303030303030303030303030303030303030303030303030303030303030303030303030303030303030303030303030303030303030303831353635623630303135343831353635623630303536303230353236303030393038313532363034303930323038303534363030313832303135343630303238333031353436303033393039333031353436303031363030313630383031623033383331363933363030313630383031623930393330343630306630623932393036303036383139303062393036373031303030303030303030303030303038313034363030313630303136306130316230333136393036303031363064383162383130343633666666666666666631363930363030313630663831623930303436306666313638383536356236303030353436303031363030313630613031623033313631353631326131653537363034303830353136323436316263643630653531623831353236303230363030343832303135323630303236303234383230313532363134313439363066303162363034343832303135323930353139303831393030333630363430313930666435623630303036313261323938323631333661353536356239303530363030303830363132613431363132613339363132633237353635623630303839303631343436613536356236303430383035313630653038313031383235323630303136303031363061303162303338383136383038323532363030323838383130623630323038303835303138323930353236303030383538373031383139303532363166666666383938313136363036303838303138313930353239303839313636303830383830313831393035323630613038383031383339303532363030313630633039303938303139373930393735323831353436303031363066303162373366666666666666666666666666666666666666666666666666666666666666666666666666666666313939303931313638373137363266666666666636306130316231393136363030313630613031623632666666666666393738373930306239373930393731363936393039363032393539303935313737666666666666666666666630303030303030306666666666666666666666666666666666666666666666666666666666666666666666666666666666666666666631363630303136306338316239303931303231373631666666663630643831623139313636303031363064383162393039363032393539303935313737666666303030306666666666666666666666666666666666666666666666666666666666666666666666666666666666666666666666666666666666666666666631363932393039323137393039333535383335313931383235323831303139313930393135323831353139333935353039313933353037663938363336303336636236366139633139613337343335656663316539303134323139303231346538616265623832316264626133663239393064643463393539323931383239303033303139306131353035303530353035363562363030303830383236303032383139303062363230643839653731393831363132623939353766653562303530323930353036303030383336303032383139303062363230643839653838313631326262303537666535623035303239303530363030303834363030323062383338333033363030323062383136313262633735376665356230353630303130313930353038303632666666666666313636303031363030313630383031623033383031363831363132626534353766653562303439333530353035303530356239313930353035363562333036303031363030313630613031623033376630303030303030303030303030303030303030303030303030303030303030303030303030303030303030303030303030303030303030303030303030303030313631343631326332353537363030303830666435623536356234323930353635623630303038303630303038343630303230623836363030323062383136313263336635376665356230353930353036303030383636303032306231323830313536313263363635373530383436303032306238363630303230623831363132633566353766653562303736303032306231353135356231353631326337303537363030303139303135623833313536313263653535373630303038303631326338323833363134346236353635623630303138323831306238313062363030303930383135323630323038643930353236303430393032303534363066663833313639313930393131623830303136303030313930313930383131363830313531353937353039323934353039303932353039303835363132636337353738383833363066663136383630333032363132636461353635623838363132636431383236313434633835363562383430333630666631363836303330323562393635303530353035303530363132643633353635623630303038303631326366343833363030313031363134346236353635623931353039313530363030303630303138323630666631363630303139303162303331393930353036303030383138623630303038363630303130623630303130623831353236303230303139303831353236303230303136303030323035343136393035303830363030303134313539353530383536313264343635373838383336306666303336306666313638363630303130313031303236313264356335363562383838333631326435313833363134353638353635623033363066663136383636303031303130313032356239363530353035303530353035623530393435303934393235303530353035363562363030303830363030303833363030323062313236313264383435373832363030323062363132643863353635623832363030323062363030303033356239303530363230643839653838313131313536313264636135373630343038303531363234363162636436306535316238313532363032303630303438323031353236303031363032343832303135323630313536306661316236303434383230313532393035313930383139303033363036343031393066643562363030303630303138323136363132646465353736303031363038303162363132646630353635623666666666636239333362643666616433376161326431363264316135393430303135623730666666666666666666666666666666666666666666666666666666666666666666663136393035303630303238323136313536313265323435373666666666393732373233373364343133323539613436393930353830653231336130323630383031633562363030343832313631353631326534333537366666666632653530663566363536393332656631323335376366336337666463633032363038303163356236303038383231363135363132653632353736666666653563616361376531306534653631633336323465616130393431636430303236303830316335623630313038323136313536313265383135373666666663623938343364363066363135396339646235383833356339323636343430323630383031633562363032303832313631353631326561303537366666663937336234316661393863303831343732653638393664666232353463303032363038303163356236303430383231363135363132656266353736666666326561313634363663393661333834336563373862333236623532383631303236303830316335623630383038323136313536313265646535373666666535646565303436613939613261383131633436316631393639633330353330323630383031633562363130313030383231363135363132656665353736666663626538366337393030613838616564636666633833623437396161336134303236303830316335623631303230303832313631353631326631653537366666393837613732353361633431333137366632623037346366373831356535343032363038303163356236313034303038323136313536313266336535373666663333393262303832326237303030353934306337613339386534623730663330323630383031633562363130383030383231363135363132663565353736666537313539343735613263323962373434336232396337666136653838396439303236303830316335623631313030303832313631353631326637653537366664303937663362646664323032326238383435616438663739326161353832353032363038303163356236313230303038323136313536313266396535373666613966373436343632643837306664663861363564633166393065303631653530323630383031633562363134303030383231363135363132666265353736663730643836396131353664326131623839306262336466363262616633326637303236303830316335623631383030303832313631353631326664653537366633316265313335663937643038666439383132333135303535343266636661363032363038303163356236323031303030303832313631353631326666663537366630396161353038623562376138346531633637376465353466336539396263393032363038303163356236323032303030303832313631353631333031663537366535643661663864656462383131393636393963333239323235656536303430323630383031633562363230343030303038323136313536313330336535373664323231366535383466356661316561393236303431626564666539383032363038303163356236323038303030303832313631353631333035623537366230343861313730333931663764633432343434653866613230323630383031633562363030303834363030323062313331353631333037363537383036303030313938313631333037323537666535623034393035303562363430313030303030303030383130363135363133303861353736303031363133303864353635623630303035623630666631363630323038323930316330313932353035303530393139303530353635623630303038303830383036303031363030313630613031623033383038393136393038613136313031353831383731323830313539303631333132343537363030303631333064383839383936323066343234303033363266666666666631363632306634323430363133326439353635623930353038323631333066313537363133306563386338633863363030313631343635323536356236313330666535363562363133306665386238643863363030313631343663643536356239353530383538313130363133313066353738613936353036313331316535363562363133313162386338623833383636313437386135363562393635303562353036313331366535363562383136313331336235373631333133363862386238623630303036313436636435363562363133313438353635623631333134383861386338623630303036313436353235363562393335303833383836303030303331303631333135633537383939353530363133313665353635623631333136623862386138613630303030333835363134376436353635623935353035623630303136303031363061303162303338613831313639303837313631343832313536313331643135373830383031353631333138643537353038313562363133316133353736313331396538373864386336303031363134366364353635623631333161353536356238353562393535303830383031353631333162323537353038313135356236313331633835373631333163333837386438633630303036313436353235363562363133316361353635623834356239343530363133323162353635623830383031353631333164623537353038313562363133316631353736313331656338633838386336303031363134363532353635623631333166333536356238353562393535303830383031353631333230303537353038313135356236313332313635373631333231313863383838633630303036313436636435363562363133323138353635623834356239343530356238313135383031353631333232623537353038383630303030333835313135623135363133323337353738383630303030333934353035623831383031353631333235363537353038613630303136303031363061303162303331363837363030313630303136306130316230333136313431353562313536313332363535373835383930333933353036313332383235363562363133323766383638393632666666666666313638613632306634323430303336326666666666663136363134316139353635623933353035623530353035303935353039353530393535303935393135303530353635623630303036303031363066663162383231303631333261333537363030303830666435623530393035363562383038323033383238313133313536303030383331323135313436313332626435373630303038306664356239323931353035303536356238313831303138323831313231353630303038333132313531343631333262643537363030303830666435623630303038303830363030303139383538373039383638363032393235303832383131303930383339303033303339303530383036313333306635373630303038343131363133333034353736303030383066643562353038323930303439303530363133333832353635623830383431313631333331623537363030303830666435623630303038343836383830393630303038363831303338373136393638373930303439363630303236303033383930323831313838303861303238323033303238303861303238323033303238303861303238323033303238303861303238323033303238303861303238323033303238303861303239303931303330323931383139303033383139303034363030313031383638343131393039353033393439303934303239313930393430333932393039323034393139303931313739313930393130323931353035303562393339323530353035303536356236303030383036336666666666666666383731363631333433303537363030303839383636316666666631363631666666663831313036313333616135376665356236303430383035313630383038313031383235323931393039323031353436336666666666666666383038323136383038343532363430313030303030303030383330343630303639303831306238313062393030623630323038353031353236303031363035383162383330343630303136303031363061303162303331363934383430313934393039343532363030313630663831623930393130343630666631363135313536303630383330313532393039323530386131363134363133343163353736313334313938313861383938383631343832323536356239303530356238303630323030313531383136303430303135313932353039323530353036313335313035363562383638383033363030303830363133343435386338633835386338633863386336313438643235363562393135303931353038313630303030313531363366666666666666663136383336336666666666666666313631343135363133343737353738313630323030313531383236303430303135313934353039343530353035303530363133353130353635623830353136336666666666666666383438313136393131363134313536313334396635373830363032303031353138313630343030313531393435303934353035303530353036313335313035363562383135313831353136303230383038353031353139303834303135313931383339303033393238363033393136336666666666666666383038343136393239303835313639313033363030363062383136313334636435376665356230353032383436303230303135313031383236336666666666666666313638323633666666666666666631363836363034303031353138363630343030313531303336303031363030313630613031623033313630323831363133346666353766653562303438353630343030313531303139363530393635303530353035303530353035623937353039373935353035303530353035303530353635623630303239353836306238363062363030303930383135323630323039373930393735323630343039303936323036303031383130313830353439303935303339303934353539333833303138303534393039323033393039313535363030333832303138303534363366666666666666663630303136306438316236303031363030313630613031623033363730313030303030303030303030303030383038353034383231363930393630333136393039343032376666666666666666666666303030303030303030303030303030303030303030303030303030303030303030303030303030306666666666666666666666666666393039323136393139303931313736303036383138313062393039363033393039353062363666666666666666666666666666663136363666666666666666666666666666663139393039353136393439303934313738323831303438353136393039353033393039333136303236336666666666666666363064383162313939303933313639323930393231373930353535343630303136303830316239303034363030663062393035363562363030303830383236303066306231323135363133363534353738323630303136303031363038303162303331363832363030303033383430333931353038313630303136303031363038303162303331363130363133363466353736303430383035313632343631626364363065353162383135323630323036303034383230313532363030323630323438323031353236313463353336306630316236303434383230313532393035313930383139303033363036343031393066643562363133326264353635623832363030313630303136303830316230333136383238343031393135303831363030313630303136303830316230333136313031353631333262643537363034303830353136323436316263643630653531623831353236303230363030343832303135323630303236303234383230313532363134633431363066303162363034343832303135323930353139303831393030333630363430313930666435623630303036343031303030323736613336303031363030313630613031623033383331363130383031353930363133366531353735303733666666643839363365666431666336613530363438383439356439353164353236333938386432363630303136303031363061303162303338333136313035623631333731363537363034303830353136323436316263643630653531623831353236303230363030343832303135323630303136303234383230313532363032393630663931623630343438323031353239303531393038313930303336303634303139306664356237376666666666666666666666666666666666666666666666666666666666666666666666666666666630303030303030303630323038333930316231363630303136303031363038303162303338313131363030373162383138313163363766666666666666666666666666666666383131313630303631623930383131633633666666666666666638313131363030353162393038313163363166666666383131313630303431623930383131633630666638313131363030333930383131623931383231633630306638313131363030323162393038313163393138323131363030313930383131623932383331633937393038383131393631373930393431373930393231373137393039313137313731373630383038313130363133376237353736303766383130333833393031633931353036313337633135363562383036303766303338333930316239313530356239303830303236303766383138313163363066663833383131633931393039313163383030323830383331633831383331633163383030323830383431633831383431633163383030323830383531633831383531633163383030323830383631633831383631633163383030323830383731633831383731633163383030323830383831633831383831633163383030323830383931633831383931633163383030323830386131633831386131633163383030323830386231633831386231633163383030323830386331633831386331633163383030323830386431633831386431633163383030323830386531633963383139303163396339303963316338303032396338643930316339653964363037663139386630313630343031623630633039313930393131633637383030303030303030303030303030303136313736306331396239303962316336373430303030303030303030303030303031363961393039613137363063323939393039393163363732303030303030303030303030303030313639383930393831373630633339373930393731633637313030303030303030303030303030303136393639303936313736306334393539303935316336373038303030303030303030303030303031363934393039343137363063353933393039333163363730343030303030303030303030303030313639323930393231373630633639313930393131633637303230303030303030303030303030303136313736306337393139303931316336373031303030303030303030303030303031363137363063383931393039313163363638303030303030303030303030303136313736306339393139303931316336363430303030303030303030303030313631373630636139313930393131633636323030303030303030303030303031363137363063623931393039313163363631303030303030303030303030303136313736306363393139303931316336363038303030303030303030303030313631373630636439313930393131633636303430303030303030303030303031363137363933363237613330316437313035353737346338353831303236663032386636343831616237663034356135616630313261313964303033616139313938313031363038303930383131643930366664623264663039653831393539613831343535653236303739396130363332663833303139303164363030323831383130623930383339303062313436313339633235373838363030313630303136306130316230333136363133396136383236313264366435363562363030313630303136306130316230333136313131353631333962623537383136313339626435363562383035623631333963343536356238313562393939383530353035303530353035303530353035303536356236303030383036303030383938393631666666663136363166666666383131303631333965373537666535623630343038303531363038303831303138323532393139303932303135343633666666666666666638303832313638303834353236343031303030303030303038333034363030363930383130623831306239303062363032303835303135323630303136303538316238333034363030313630303136306130316230333136393438343031393439303934353236303031363066383162393039313034363066663136313531353630363038333031353239303932353038393136313431353631336135373537383838353932353039323530353036313335313035363562383436316666666631363834363166666666313631313830313536313361373835373530363030313835303336316666666631363839363166666666313631343562313536313361383535373833393135303631336138393536356238343931353035623831363166666666313638393630303130313631666666663136383136313361396435376665356230363932353036313361616338313839383938393631343832323536356238613834363166666666313636316666666638313130363133616264353766653562383235313931303138303534363032303834303135313630343038353031353136303630393039353031353131353135363030313630663831623032376566666666666666666666666666666666666666666666666666666666666666666666666666666666666666666666666666666666666666666666666666663630303136303031363061303162303339303936313636303031363035383162303237666666303030303030303030303030303030303030303030303030303030303030303030303030303030306666666666666666666666666666666666666666666636303036393339303933306236366666666666666666666666666666313636343031303030303030303030323661666666666666666666666666666630303030303030303139363366666666666666663930393731363633666666666666666631393930393531363934393039343137393539303935313639323930393231373136393239303932313739323930393231363137393035353530393735303937393535303530353035303530353035363562363034303830353136303031363030313630613031623033383438313136363032343833303135323630343438303833303138353930353238333531383038343033393039313031383135323630363439303932303138333532363032303832303138303531363030313630303136306530316230333136363361393035396362623630653031623137383135323932353138323531363030303934383539343933383931363933393239313832393139303830383338333562363032303833313036313363303235373830353138323532363031663139393039323031393136303230393138323031393130313631336265333536356236303031383336303230303336313031303030613033383031393832353131363831383435313136383038323137383535323530353035303530353035303930353030313931353035303630303036303430353138303833303338313630303038363561663139313530353033643830363030303831313436313363363435373630343035313931353036303166313936303366336430313136383230313630343035323364383235323364363030303630323038343031336536313363363935363562363036303931353035623530393135303931353038313830313536313363393735373530383035313135383036313363393735373530383038303630323030313930353136303230383131303135363133633934353736303030383066643562353035313562363133636364353736303430383035313632343631626364363065353162383135323630323036303034383230313532363030323630323438323031353236313261323336306631316236303434383230313532393035313930383139303033363036343031393066643562353035303530353035303536356236303430383035313330363032343830383330313931393039313532383235313830383330333930393130313831353236303434393039313031383235323630323038313031383035313630303136303031363065303162303331363633373061303832333136306530316231373831353239313531383135313630303039333834393338343933363030313630303136306130316230333766303030303030303030303030303030303030303030303030303030303030303030303030303030303030303030303030303030303030303030303030303030303136393339313932393039313832393139303830383338333562363032303833313036313364366435373830353138323532363031663139393039323031393136303230393138323031393130313631336434653536356236303031383336303230303336313031303030613033383031393832353131363831383435313136383038323137383535323530353035303530353035303930353030313931353035303630303036303430353138303833303338313835356166613931353035303364383036303030383131343631336463643537363034303531393135303630316631393630336633643031313638323031363034303532336438323532336436303030363032303834303133653631336464323536356236303630393135303562353039313530393135303831383031353631336465363537353036303230383135313130313535623631336465663537363030303830666435623830383036303230303139303531363032303831313031353631336530343537363030303830666435623530353139323530353035303930353635623830383230313832383131303135363133326264353736303030383066643562363034303830353133303630323438303833303139313930393135323832353138303833303339303931303138313532363034343930393130313832353236303230383130313830353136303031363030313630653031623033313636333730613038323331363065303162313738313532393135313831353136303030393338343933383439333630303136303031363061303162303337663030303030303030303030303030303030303030303030303030303030303030303030303030303030303030303030303030303030303030303030303030303031363933393139323930393138323931393038303833383336303230383331303631336436643537383035313832353236303166313939303932303139313630323039313832303139313031363133643465353635623630303038303833363166666666313631313631336566333537363034303830353136323436316263643630653531623831353236303230363030343832303135323630303136303234383230313532363034393630663831623630343438323031353239303531393038313930303336303634303139306664356238323631666666663136383236316666666631363131363133663039353735303831363133333832353635623832356238323631666666663136383136316666666631363130313536313366346635373630303138353832363166666666313636316666666638313130363133663265353766653562303138303534363366666666666666663139313636336666666666666666393239303932313639313930393131373930353536303031303136313366306235363562353039303933393235303530353035363562383036303066383139303062383131343631326265623537363030303830666435623630303038303630303036313366373636313262663035363562363133663838383436303230303135313835363034303031353136313433613135363562363034303830353136306530383130313832353236303030353436303031363030313630613031623033383131363832353236303031363061303162383130343630303239303831306238313062393030623630323038303834303138323930353236316666666636303031363062383162383430343831313638353837303135323630303136306338316238343034383131363630363038303837303139313930393135323630303136306438316238353034393039313136363038303836303135323630666636303031363065383162383530343831313636306130383730313532363030313630663031623930393430343930393331363135313536306330383530313532383835313930383930313531393438393031353139323839303135313933393436313430326339343931393339303932393039313930363134616366353635623933353038343630363030313531363030663062363030303134363134316131353738343630323030313531363030323062383136303230303135313630303230623132313536313430383135373631343037613631343036333836363032303031353136313264366435363562363134303730383736303430303135313631326436643536356238373630363030313531363134633834353635623932353036313431613135363562383436303430303135313630303230623831363032303031353136303032306231323135363134313737353736303034353436303430383230313531363030313630303136303830316230333930393131363930363134306433393036313430623736313263323735363562363032303835303135313630363038363031353136303830383730313531363030383934393339323931383739313631333964313536356236303030383035343631666666663630633831623139313636303031363063383162363166666666393338343136303231373631666666663630623831623139313636303031363062383162393339303932313639323930393230323137393035353831353136303430383730313531363134313233393139303631343131393930363132643664353635623838363036303031353136313463383435363562393335303631343134313631343133353837363032303031353136313264366435363562383335313630363038393031353136313463633835363562393235303631343135313831383736303630303135313631333565663536356236303034383035343630303136303031363038303162303331393136363030313630303136303830316230333932393039323136393139303931313739303535353036313431613135363562363134313965363134313837383636303230303135313631326436643536356236313431393438373630343030313531363132643664353635623837363036303031353136313463633835363562393135303562353039313933393039323530353635623630303036313431623638343834383436313332643935363562393035303630303038323830363134316332353766653562383438363039313131353631333338323537363030303139383131303631343164393537363030303830666435623630303130313933393235303530353035363562363034303830353136303630393439303934316236626666666666666666666666666666666666666666666666663139313636303230383038363031393139303931353236303032393338343062363065383930383131623630333438373031353239323930393330623930393131623630333738343031353238303531383038343033363031613031383135323630336139303933303138313532383235313932383230313932393039323230363030303930383135323932393035323930323039303536356236303630383036303030383336316666666631363131363134323837353736303430383035313632343631626364363065353162383135323630323036303034383230313532363030313630323438323031353236303439363066383162363034343832303135323930353139303831393030333630363430313930666435623836353136376666666666666666666666666666666638313131383031353631343239663537363030303830666435623530363034303531393038303832353238303630323030323630323030313832303136303430353238303135363134326339353738313630323030313630323038323032383033363833333730313930353035623530393135303836353136376666666666666666666666666666666638313131383031353631343265343537363030303830666435623530363034303531393038303832353238303630323030323630323030313832303136303430353238303135363134333065353738313630323030313630323038323032383033363833333730313930353035623530393035303630303035623837353138313130313536313433393435373631343333663861386138613834383135313831313036313433326535376665356236303230303236303230303130313531386138613861386136313333383935363562383438333831353138313130363134333462353766653562363032303032363032303031303138343834383135313831313036313433356535376665356236303230303236303230303130313832363030313630303136306130316230333136363030313630303136306130316230333136383135323530383236303036306236303036306238313532353035303530383038303630303130313931353035303631343331343536356235303937353039373935353035303530353035303530353635623830363030323062383236303032306231323631343365313537363034303830353136323436316263643630653531623831353236303230363030343832303135323630303336303234383230313532363235343463353536306538316236303434383230313532393035313930383139303033363036343031393066643562363230643839653731393630303238333930306231323135363134343234353736303430383035313632343631626364363065353162383135323630323036303034383230313532363030333630323438323031353236323534346334643630653831623630343438323031353239303531393038313930303336303634303139306664356236323064383965383630303238323930306231333135363134343636353736303430383035313632343631626364363065353162383135323630323036303034383230313532363030333630323438323031353236323534353534643630653831623630343438323031353239303531393038313930303336303634303139306664356235303530353635623630343038303531363038303831303138323532363366666666666666663932383331363830383235323630303036303230383330313831393035323932383230313932393039323532363030313630363039303931303138313930353238333534363366666666666666663139313639303931313739303931313636303031363066383162313739303931353539303831393035363562363030323062363030383831393031643931363130313030393039313037393035363562363030303830383231313631343464363537363030303830666435623630303136303830316238323130363134346539353736303830393138323163393130313562363830313030303030303030303030303030303038323130363134353031353736303430393138323163393130313562363430313030303030303030383231303631343531353537363032303931383231633931303135623632303130303030383231303631343532373537363031303931383231633931303135623631303130303832313036313435333835373630303839313832316339313031356236303130383231303631343534383537363030343931383231633931303135623630303438323130363134353538353736303032393138323163393130313562363030323832313036313262656235373630303130313931393035303536356236303030383038323131363134353736353736303030383066643562353036306666363030313630303136303830316230333832313631353631343539313537363037663139303136313435393935363562363038303832393031633931353035623637666666666666666666666666666666663832313631353631343562323537363033663139303136313435626135363562363034303832393031633931353035623633666666666666666638323136313536313435636635373630316631393031363134356437353635623630323038323930316339313530356236316666666638323136313536313435656135373630306631393031363134356632353635623630313038323930316339313530356236306666383231363135363134363034353736303037313930313631343630633536356236303038383239303163393135303562363030663832313631353631343631653537363030333139303136313436323635363562363030343832393031633931353035623630303338323136313536313436333835373630303131393031363134363430353635623630303238323930316339313530356236303031383231363135363132626562353736303030313930313931393035303536356236303030383336303031363030313630613031623033313638353630303136303031363061303162303331363131313536313436373235373932393339323562383136313436396635373631343639613833363030313630303136303830316230333136383638363033363030313630303136306130316230333136363030313630363031623631333264393536356236313436633235363562363134366332383336303031363030313630383031623033313638363836303336303031363030313630613031623033313636303031363036303162363134316139353635623930353035623934393335303530353035303536356236303030383336303031363030313630613031623033313638353630303136303031363061303162303331363131313536313436656435373932393339323562376266666666666666666666666666666666666666666666666666666666666666663030303030303030303030303030303030303030303030303630363038343930316231363630303136303031363061303162303338363836303338313136393038373136363134373239353736303030383066643562383336313437353935373836363030313630303136306130316230333136363134373463383338333839363030313630303136306130316230333136363133326439353635623831363134373533353766653562303436313437376635363562363134373766363134373730383338333839363030313630303136306130316230333136363134316139353635623838363030313630303136306130316230333136363134636637353635623937393635303530353035303530353035303536356236303030383038353630303136303031363061303162303331363131363134376131353736303030383066643562363030303834363030313630303136303830316230333136313136313437623735373630303038306664356238313631343763393537363134363961383538353835363030313631346430323536356236313436633238353835383536303031363134646533353635623630303038303835363030313630303136306130316230333136313136313437656435373630303038306664356236303030383436303031363030313630383031623033313631313631343830333537363030303830666435623831363134383135353736313436396138353835383536303030363134646533353635623631343663323835383538353630303036313464303235363562363134383261363135363461353635623630303038353630303030313531383530333930353036303430353138303630383030313630343035323830383636336666666666666666313638313532363032303031383236336666666666666666313638363630303230623032383836303230303135313031363030363062383135323630323030313630303038353630303136303031363038303162303331363131363134383765353736303031363134383830353635623834356236303031363030313630383031623033313637336666666666666666303030303030303030303030303030303030303030303030303030303030303036303830383539303162313638313631343861623537666535623034383836303430303135313031363030313630303136306130316230333136383135323630323030313630303131353135383135323530393135303530393439333530353035303530353635623631343864613631353634613536356236313438653236313536346135363562383838353631666666663136363166666666383131303631343866333537666535623630343038303531363038303831303138323532393139303932303135343633666666666666666638313136383038333532363430313030303030303030383230343630303639303831306238313062393030623630323038343031353236303031363035383162383230343630303136303031363061303162303331363933383330313933393039333532363030313630663831623930303436306666313631353135363036303832303135323932353036313439353839303839393038393631346564383536356231353631343939303537383636336666666666666666313638323630303030313531363366666666666666663136313431353631343937613537363133353130353635623831363134393837383338393839383836313438323235363562393135303931353036313335313035363562383838333631666666663136383636303031303136316666666631363831363134396135353766653562303636316666666631363631666666663831313036313439623535376665356236303430383035313630383038313031383235323932393039313031353436336666666666666666383131363833353236343031303030303030303038313034363030363930383130623831306239303062363032303834303135323630303136303031363061303162303336303031363035383162383230343136393138333031393139303931353236306666363030313630663831623930393130343136313531353630363038323031383139303532393039323530363134613663353736303430383035313630383038313031383235323861353436336666666666666666383131363832353236343031303030303030303038313034363030363930383130623831306239303062363032303833303135323630303136303538316238313034363030313630303136306130316230333136393238323031393239303932353236303031363066383162393039313034363066663136313531353630363038323031353239313530356236313461376238383833363030303031353138393631346564383536356236313461623235373630343038303531363234363162636436306535316238313532363032303630303438323031353236303033363032343832303135323632313364333131363065613162363034343832303135323930353139303831393030333630363430313930666435623631346162663839383938393838383736313466396235363562393135303931353039373530393739353530353035303530353035303536356236303030363134616465363030373837383738373631343165333536356236303031353436303032353439313932353039303630303038303630306638373930306231353631346332343537363030303631346166663631326332373536356236303030383035343630303435343932393335303930393138323931363134623439393136303038393138363931383539313630303136306130316238313034363030323062393136316666666636303031363062383162383330343831313639323630303136303031363038303162303339303932313639313630303136306338316239303034313636313333383935363562393039323530393035303631346238333630303538643862386438623862383738393862363030303766303030303030303030303030303030303030303030303030303030303030303030303030303030303030303030303030303030303030303030303030303030303631353133623536356239343530363134626261363030353863386238643862386238373839386236303031376630303030303030303030303030303030303030303030303030303030303030303030303030303030303030303030303030303030303030303030303030303030363135313362353635623933353038343135363134626565353736313462656536303036386437663030303030303030303030303030303030303030303030303030303030303030303030303030303030303030303030303030303030303030303030303030303036313533323535363562383331353631346332303537363134633230363030363863376630303030303030303030303030303030303030303030303030303030303030303030303030303030303030303030303030303030303030303030303030303030363135333235353635623530353035303562363030303830363134633336363030353863386338623861386136313533386235363562393039323530393035303631346334373837386138343834363135343337353635623630303038393630306630623132313536313463373535373833313536313463363435373631346336343630303538633631353563633536356238323135363134633735353736313463373536303035386236313535636335363562353035303530353035303530393539343530353035303530353035363562363030303830383236303066306231323631346361613537363134636135363134636130383538353835363030313631343663643536356236313332393135363562363134366335353635623631346362643631346361303835383538353630303030333630303036313436636435363562363030303033393439333530353035303530353635623630303038303832363030663062313236313463653435373631346361353631346361303835383538353630303136313436353235363562363134636264363134636130383538353835363030303033363030303631343635323536356238303832303439313036313531353031393035363562363030303831313536313464373535373630303036303031363030313630613031623033383431313135363134643338353736313464333338343630303136303630316238373630303136303031363038303162303331363631333264393536356236313464353035363562363030313630303136303830316230333835313636303630383539303162383136313464346535376665356230343562393035303631346436643631346436383630303136303031363061303162303338383136383336313365306435363562363135356638353635623931353035303631343663353536356236303030363030313630303136306130316230333834313131353631346461333537363134643965383436303031363036303162383736303031363030313630383031623033313636313431613935363562363134646261353635623631346462613630363038353930316236303031363030313630383031623033383731363631346366373536356239303530383038363630303136303031363061303162303331363131363134646431353736303030383066643562363030313630303136306130316230333836313630333930353036313436633535363562363030303832363134646631353735303833363134366335353635623762666666666666666666666666666666666666666666666666666666666666666630303030303030303030303030303030303030303030303036303630383539303162313638323135363134653931353736303031363030313630613031623033383631363834383130323930383538323831363134653331353766653562303431343135363134653632353738313831303138323831313036313465363035373631346535363833383936303031363030313630613031623033313638333631343161393536356239333530353035303530363134366335353635623530356236313465383838323631346538333837386136303031363030313630613031623033313638363831363134653763353766653562303439303631336530643536356236313463663735363562393235303530353036313436633535363562363030313630303136306130316230333836313638343831303239303835383238313631346561383537666535623034313438303135363134656235353735303830383231313562363134656265353736303030383066643562383038323033363134653536363134643638383436303031363030313630613031623033386231363834363134316139353635623630303038333633666666666666666631363833363366666666666666663136313131353830313536313466303235373530383336336666666666666666313638323633666666666666666631363131313535623135363134663165353738313633666666666666666631363833363366666666666666663136313131353930353036313333383235363562363030303834363366666666666666663136383436336666666666666666313631313631346634363537383336336666666666666666313636343031303030303030303030313631346634653536356238333633666666666666666631363562363466666666666666666666313639303530363030303835363366666666666666663136383436336666666666666666313631313631346637663537383336336666666666666666313636343031303030303030303030313631346638373536356238333633666666666666666631363562363466666666666666666666313639303931313131353935393435303530353035303530353635623631346661333631353634613536356236313466616236313536346135363562363030303833363166666666313638353630303130313631666666663136383136313466633135376665356230363631666666663136393035303630303036303031383536316666666631363833303130333930353036303030356235303630303238313833303130343839363166666666383731363832383136313466656535376665356230363631666666663831313036313466666135376665356236303430383035313630383038313031383235323932393039313031353436336666666666666666383131363833353236343031303030303030303038313034363030363930383130623831306239303062363032303834303135323630303136303031363061303162303336303031363035383162383230343136393138333031393139303931353236306666363030313630663831623930393130343136313531353630363038323031383139303532393039353530363135303635353738303630303130313932353036313466643935363562383938363631666666663136383236303031303138313631353037363537666535623036363166666666383131303631353038323537666535623630343038303531363038303831303138323532393239303931303135343633666666666666666638313136383335323634303130303030303030303831303436303036393038313062383130623930306236303230383430313532363030313630303136306130316230333630303136303538316238323034313639313833303139313930393135323630666636303031363066383162393039313034313631353135363036303832303135323835353139303934353036303030393036313530656439303862393038623631346564383536356239303530383038303135363135313036353735303631353130363861386138373630303030313531363134656438353635623135363135313131353735303631353132653536356238303631353132313537363030313832303339323530363135313238353635623831363030313031393335303562353036313466643935363562353035303530393535303935393335303530353035303536356236303032386138313062393030623630303039303831353236303230386339303532363034303831323038303534363030313630303136303830316230333136383236313531363638323864363133356566353635623930353038343630303136303031363038303162303331363831363030313630303136303830316230333136313131353631353162343537363034303830353136323436316263643630653531623831353236303230363030343832303135323630303236303234383230313532363134633466363066303162363034343832303135323930353139303831393030333630363430313930666435623630303136303031363038303162303338323831313631353930383231363135383131343135393435303135363135323861353738633630303230623865363030323062313336313532356135373630303138333031386239303535363030323833303138613930353536303033383330313830353437666666666666666666666630303030303030303030303030303030303030303030303030303030303030303030303030303030666666666666666666666666666631363637303130303030303030303030303030303630303136303031363061303162303338633136303231373636666666666666666666666666666631393136363666666666666666666666666666663630303638623930306231363137363366666666666666663630643831623139313636303031363064383162363366666666666666663861313630323137393035353562363030333833303138303534376566666666666666666666666666666666666666666666666666666666666666666666666666666666666666666666666666666666666666666666666666663136363030313630663831623137393035353562383235343630303136303031363038303162303331393136363030313630303136303830316230333832313631373833353538353631353264333537383235343631353263653930363135326339393036303031363038303162393030343630306639303831306238313062393038663930306236313332633335363562363133663538353635623631353266343536356238323534363135326634393036313532633939303630303136303830316239303034363030663930383130623831306239303866393030623631333261373536356238333534363030663931393039313062363030313630303136303830316230333930383131363630303136303830316230323931313631373930393235353530393039633962353035303530353035303530353035303530353035303530353635623830363030323062383236303032306238313631353333343537666535623037363030323062313536313533343235373630303038306664356236303030383036313533356438333630303230623835363030323062383136313533353735376665356230353631343462363536356236303031393138323062383230623630303039303831353236303230393739303937353236303430393039363230383035343630666639303937313639313930393131623930393531383930393435353530353035303530353635623630303238353831306238303832306236303030393038313532363032303839393035323630343038303832323038383835306238353062383335323930383232303931393338343933393139323931383439313832393139303861393030623132363135336431353735303530363030313832303135343630303238333031353436313533653435363562383336303031303135343838303339313530383336303032303135343837303339303530356236303030383038623630303230623862363030323062313231353631353430363537353035303630303138333031353436303032383430313534363135343139353635623834363030313031353438613033393135303834363030323031353438393033393035303562393239303938303339373930393730333962393639303935303339343930393430333938353039333936353035303530353035303530353035363562363034303830353136306130383130313832353238353534363030313630303136303830316230333930383131363832353236303031383730313534363032303833303135323630303238373031353439323832303139323930393235323630303338363031353438303833313636303630383330313532363030313630383031623930303439303931313636303830383230313532363030303630306638353930306236313534643635373831353136303031363030313630383031623033313636313534636535373630343038303531363234363162636436306535316238313532363032303630303438323031353236303032363032343832303135323631303465353630663431623630343438323031353239303531393038313930303336303634303139306664356235303830353136313534653535363562383135313631353465323930383636313335656635363562393035303562363030303631353530393833363032303031353138363033383436303030303135313630303136303031363038303162303331363630303136303830316236313332643935363562393035303630303036313535326638343630343030313531383630333835363030303031353136303031363030313630383031623033313636303031363038303162363133326439353635623930353038363630306630623630303031343631353535363537383735343630303136303031363038303162303331393136363030313630303136303830316230333834313631373838353535623630303138383031383639303535363030323838303138353930353536303031363030313630383031623033383231363135313538303631353538343537353036303030383136303031363030313630383031623033313631313562313536313535633235373630303338383031383035343630303136303031363038303162303331393831313636303031363030313630383031623033393138323136383530313832313631373830383231363630303136303830316239313832393030343833313638353031393039323136303231373930353535623530353035303530353035303530353035363562363030323930383130623831306236303030393038313532363032303932393039323532363034303832323038323831353536303031383130313833393035353930383130313832393035353630303330313535353635623830363030313630303136306130316230333831313638313134363132626562353736303030383066643562363034303830353136306530383130313832353236303030383038323532363032303832303138313930353239313831303138323930353236303630383130313832393035323630383038313031383239303532363061303831303138323930353236306330383130313931393039313532393035363562363034303830353136303830383130313832353236303030383038323532363032303832303138313930353239313831303138323930353236303630383130313931393039313532393035366665613136343733366636633633343330303037303630303061613136343733366636633633343330303037303630303061",
    "linkReferences": {}
  },
  "methodIdentifiers": {
    "factoryByteCode()": "70eb258a"
  },
  "id": 24
}