{
  "abi": [
    {
      "inputs": [],
      "name": "positionManagerByteCode",
      "outputs": [
        {
          "internalType": "bytes",
          "name": "",
          "type": "bytes"
        }
      ],
      "stateMutability": "view",
      "type": "function"
    }
  ],
  "bytecode": {
    "object": "0x61bf4060405261be8260808181529061033b60a03960009061002190826100d3565b5034801561002e57600080fd5b50610192565b634e487b7160e01b600052604160045260246000fd5b600181811c9082168061005e57607f821691505b60208210810361007e57634e487b7160e01b600052602260045260246000fd5b50919050565b601f8211156100ce57600081815260208120601f850160051c810160208610156100ab5750805b601f850160051c820191505b818110156100ca578281556001016100b7565b5050505b505050565b81516001600160401b038111156100ec576100ec610034565b610100816100fa845461004a565b84610084565b602080601f831160018114610135576000841561011d5750858301515b600019600386901b1c1916600185901b1785556100ca565b600085815260208120601f198616915b8281101561016457888601518255948401946001909101908401610145565b50858210156101825787850151600019600388901b60f8161c191681555b5050505050600190811b01905550565b61019a806101a16000396000f3fe608060405234801561001057600080fd5b506004361061002b5760003560e01c80631c317bea14610030575b600080fd5b61003861004e565b60405161004591906100dc565b60405180910390f35b6000805461005b9061012a565b80601f01602080910402602001604051908101604052809291908181526020018280546100879061012a565b80156100d45780601f106100a9576101008083540402835291602001916100d4565b820191906000526020600020905b8154815290600101906020018083116100b757829003601f168201915b505050505081565b600060208083528351808285015260005b81811015610109578581018301518582016040015282016100ed565b506000604082860101526040601f19601f8301168501019250505092915050565b600181811c9082168061013e57607f821691505b60208210810361015e57634e487b7160e01b600052602260045260246000fd5b5091905056fea2646970667358221220988e28141b7a90557d97c9f72de6900036491c75292711f4b66a0c57942a7de864736f6c634300081100333078363038303630343035323630303433363130363130323839353736303030333536306530316338303633363335323231316531313631303135333537383036336163393635306438313136313030636235373830363364333438373939373131363130303766353738303633653938356539633531313631303036343537383036336539383565396335313436313036663535373830363366333939356336373134363130373135353738303633666336663738363531343631303732383537363130333064353635623830363364333438373939373134363130366332353738303633646632616235626231343631303665323537363130333064353635623830363363326533313430613131363130306230353738303633633265333134306131343631303637613537383036336334356130313535313436313036386435373830363363383762353664643134363130366132353736313033306435363562383036336163393635306438313436313036336135373830363362383864346664653134363130363561353736313033306435363562383036333838333136343536313136313031323235373830363339396662616238383131363130313037353738303633393966626162383831343631303563663537383036336132326362343635313436313036303735373830363361346137386630633134363130363237353736313033306435363562383036333838333136343536313436313035393735373830363339356438396234313134363130356261353736313033306435363562383036333633353232313165313436313035326635373830363336633033363065623134363130353466353738303633373061303832333131343631303536343537383036333761633266663762313436313035383435373631303330643536356238303633323362383732646431313631303230313537383036333432393636633638313136313031623535373830363334393430346237633131363130313961353738303633343934303462376331343631303465373537383036333461613461346663313436313034666135373830363334663663636365373134363130353066353736313033306435363562383036333432393636633638313436313034633135373830363334363539613439343134363130346434353736313033306435363562383036333330616466383166313136313031653635373830363333306164663831663134363130343737353738303633333634346535313531343631303438633537383036333432383432653065313436313034613135373631303330643536356238303633323362383732646431343631303433373537383036333266373435633539313436313034353735373631303330643536356238303633306334396363626531313631303235383537383036333133656164353632313136313032336435373830363331336561643536323134363130336530353738303633313831363064646431343631303366333537383036333231396635643137313436313034313535373631303330643536356238303633306334396363626531343631303362373537383036333132323130653861313436313033643835373631303330643536356238303633303166666339613731343631303331323537383036333036666464653033313436313033343835373830363330383138313266633134363130333661353738303633303935656137623331343631303339373537363130333064353635623336363130333064353733333630303136303031363061303162303337663030303030303030303030303030303030303030303030303030303030303030303030303030303030303030303030303030303030303030303030303030303031363134363130333062353736303430383035313632343631626364363065353162383135323630323036303034383230313532363030393630323438323031353237663465366637343230353734353534343833393030303030303030303030303030303030303030303030303030303030303030303030303030303030303030303036303434383230313532393035313930383139303033363036343031393066643562303035623630303038306664356233343830313536313033316535373630303038306664356235303631303333323631303332643336363030343631353361363536356236313037336235363562363034303531363130333366393139303631353931653536356236303430353138303931303339306633356233343830313536313033353435373630303038306664356235303631303335643631303737363536356236303430353136313033336639313930363135393731353635623334383031353631303337363537363030303830666435623530363130333861363130333835333636303034363135366238353635623631303830633536356236303430353136313033336639313930363135376532353635623334383031353631303361333537363030303830666435623530363130333062363130336232333636303034363135323730353635623631303836383536356236313033636136313033633533363630303436313534383335363562363130393365353635623630343035313631303333663932393139303631356234323536356236313033306236313064616135363562363130333861363130336565333636303034363135313033353635623631306462633536356233343830313536313033666635373630303038306664356235303631303430383631313063393536356236303430353136313033336639313930363135393239353635623631303432383631303432333336363030343631353439343536356236313130646135363562363034303531363130333366393339323931393036313561666435363562333438303135363130343433353736303030383066643562353036313033306236313034353233363630303436313531356335363562363131343133353635623334383031353631303436333537363030303830666435623530363130343038363130343732333636303034363135323730353635623631313436613536356233343830313536313034383335373630303038306664356235303631303430383631313439353536356233343830313536313034393835373630303038306664356235303631303430383631313462393536356233343830313536313034616435373630303038306664356235303631303330623631303462633336363030343631353135633536356236313135373735363562363130333062363130346366333636303034363135366238353635623631313539323536356236313033306236313034653233363630303436313532646335363562363131363631353635623631303330623631303466353336363030343631353664303536356236313137313435363562333438303135363130353036353736303030383066643562353036313033386136313138393435363562333438303135363130353162353736303030383066643562353036313034303836313035326133363630303436313536623835363562363131386238353635623334383031353631303533623537363030303830666435623530363130333861363130353461333636303034363135366238353635623631313863653536356233343830313536313035356235373630303038306664356235303631303335643631313866363536356233343830313536313035373035373630303038306664356235303631303430383631303537663336363030343631353061663536356236313138666235363562363130333062363130353932333636303034363135326463353635623631313936333536356236313035616136313035613533363630303436313535353035363562363131653066353635623630343035313631303333663934393339323931393036313562316535363562333438303135363130356336353736303030383066643562353036313033356436313233373035363562333438303135363130356462353736303030383066643562353036313035656636313035656133363630303436313536623835363562363132336431353635623630343035313631303333663963396239613939393839373936393539343933393239313930363135623530353635623334383031353631303631333537363030303830666435623530363130333062363130363232333636303034363135323433353635623631323630303536356236313033306236313036333533363630303436313532646335363562363132373233353635623631303634643631303634383336363030343631353333373536356236313237643535363562363034303531363130333366393139303631353861303536356233343830313536313036363635373630303038306664356235303631303330623631303637353336363030343631353139633536356236313239313535363562363130333062363130363838333636303034363135326463353635623631323937333536356233343830313536313036393935373630303038306664356235303631303338613631326131623536356233343830313536313036616535373630303038306664356235303631303335643631303662643336363030343631353662383536356236313261336635363562333438303135363130366365353736303030383066643562353036313033306236313036646433363630303436313537313735363562363132623065353635623631303330623631303666303336363030343631353239623536356236313262386335363562333438303135363130373031353736303030383066643562353036313033333236313037313033363630303436313530636235363562363132633666353635623631303330623631303732333336363030343631353264633536356236313263396435363562363130336361363130373336333636303034363135343663353635623631326432383536356237666666666666666666303030303030303030303030303030303030303030303030303030303030303030303030303030303030303030303030303030303030303038313136363030303930383135323630323038313930353236303430393032303534363066663136356239313930353035363562363030363830353436303430383035313630323036303166363030323630303031393631303130303630303138383136313530323031393039353136393439303934303439333834303138313930303438313032383230313831303139303932353238323831353236303630393339303932393039313833303138323832383031353631303830323537383036303166313036313037643735373631303130303830383335343034303238333532393136303230303139313631303830323536356238323031393139303630303035323630323036303030323039303562383135343831353239303630303130313930363032303031383038333131363130376535353738323930303336303166313638323031393135623530353035303530353039303530393035363562363030303631303831373832363133323436353635623631303833633537363034303531363234363162636436306535316238313532363030343031363130383333393036313539626235363562363034303531383039313033393066643562353036303030393038313532363030633630323035323630343039303230353436633031303030303030303030303030303030303030303030303030393030343630303136303031363061303162303331363930353635623630303036313038373338323631313863653536356239303530383036303031363030313630613031623033313638333630303136303031363061303162303331363134313536313038633635373630343035313632343631626364363065353162383135323630303430313830383036303230303138323831303338323532363032313831353236303230303138303631356565323630323139313339363034303031393135303530363034303531383039313033393066643562383036303031363030313630613031623033313636313038643836313332353335363562363030313630303136306130316230333136313438303631303866343537353036313038663438313631303731303631333235333536356236313039326635373630343035313632343631626364363065353162383135323630303430313830383036303230303138323831303338323532363033383831353236303230303138303631356530633630333839313339363034303031393135303530363034303531383039313033393066643562363130393339383338333631333235373536356235303530353035363562363030303830383233353631303934643333383236313332646235363562363130393639353736303430353136323436316263643630653531623831353236303034303136313038333339303631353938343536356238333630383030313335383036313039373736313333373735363562313131353631303963613537363034303830353136323436316263643630653531623831353236303230363030343832303135323630313336303234383230313532376635343732363136653733363136333734363936663665323037343666366632303666366336343030303030303030303030303030303030303030303030303030363034343832303135323930353139303831393030333630363430313930666435623630303036313039646336303430383730313630323038383031363135353632353635623630303136303031363038303162303331363131363130396566353736303030383066643562383433353630303039303831353236303063363032303930383135323630343039313832393032303630303138313031353439303932363030313630383031623930393130343630303136303031363038303162303331363931363130613261393138393031393038393031363135353632353635623630303136303031363038303162303331363831363030313630303136303830316230333136313031353631306134383537363030303830666435623630303138323831303135343639666666666666666666666666666666666666666631363630303039303831353236303062363032303930383135323630343038303833323038313531363036303831303138333532383135343630303136303031363061303162303339303831313638323532393139303935303135343930383131363932383530313932393039323532363030313630613031623930393130343632666666666666313639303833303135323631306163633766303030303030303030303030303030303030303030303030303030303030303030303030303030303030303030303030303030303030303030303030303030303833363133333762353635623630303138353031353439303931353036303031363030313630613031623033383231363930363361333431323361373930366130313030303030303030303030303030303030303030383130343630303239303831306239313630303136303638316239303034393030623631306231323630343038653031363032303866303136313535363235363562363034303531383436336666666666666666313636306530316238313532363030343031363130623330393339323931393036313539346235363562363034303830353138303833303338313630303038373830336231353830313536313062343935373630303038306664356235303561663131353830313536313062356435373364363030303830336533643630303066643562353035303530353036303430353133643630316631393630316638323031313638323031383036303430353235303831303139303631306238313931393036313536663435363562393039383530393635303630343038393031333538383130383031353930363130623965353735303838363036303031333538373130313535623631306262613537363034303531363234363162636436306535316238313532363030343031363130383333393036313561313835363562363030313834303135343630303039303631306265613930333039303661303130303030303030303030303030303030303030303831303436303032393038313062393136303031363036383162393030343930306236313334373735363562393035303630303038303833363030313630303136306130316230333136363335313465613462663834363034303531383236336666666666666666313636306530316238313532363030343031363130633162393139303631353932393536356236306130363034303531383038333033383138363830336231353830313536313063333335373630303038306664356235303561666131353830313536313063343735373364363030303830336533643630303066643562353035303530353036303430353133643630316631393630316638323031313638323031383036303430353235303831303139303631306336623931393036313535616335363562353035303932353039323530353036313063393038373630303230313534383330333837363030313630303136303830316230333136363030313630383031623631333464313536356236303034383830313830353436666666666666666666666666666666666666666666666666666666666666666666313938313136393238653031363030313630303136303830316230333931383231363031383131363932393039323137393035353630303338383031353436313063646139313930383330333930383831363630303136303830316236313334643135363562363030343838303138303534363030313630303136303830316230333830383231363933386530313630303136303830316239323833393030343832313630313136303239313930393131373930353536303032383730313832393035353630303338373031383139303535363130643230363034303864303136303230386530313631353536323536356238363033383736303031303136303130363130313030306138313534383136303031363030313630383031623033303231393136393038333630303136303031363038303162303331363032313739303535353038623630303030313335376632366636613034386565393133386632633063653236366633323263623939323238653864363139616532626666333063363766386463663964323337376234386436303230303136303230383130313930363130643833393139303631353536323536356238643864363034303531363130643934393339323931393036313561666435363562363034303531383039313033393061323530353035303530353035303530353035303931353039313536356234373135363130646261353736313064626133333437363133353830353635623536356236303030383336303031363030313630613031623033313638353630303136303031363061303162303331363130363130646463353736303030383066643562376630303030303030303030303030303030303030303030303030303030303030303030303030303030303030303030303030303030303030303030303030303030363030313630303136306130316230333136363331363938656538323836383638363630343035313834363366666666666666663136363065303162383135323630303430313830383436303031363030313630613031623033313638313532363032303031383336303031363030313630613031623033313638313532363032303031383236326666666666663136383135323630323030313933353035303530353036303230363034303531383038333033383138363830336231353830313536313065363735373630303038306664356235303561666131353830313536313065376235373364363030303830336533643630303066643562353035303530353036303430353133643630323038313130313536313065393135373630303038306664356235303531393035303630303136303031363061303162303338313136363130666530353737663030303030303030303030303030303030303030303030303030303030303030303030303030303030303030303030303030303030303030303030303030303036303031363030313630613031623033313636336131363731323935383638363836363034303531383436336666666666666666313636306530316238313532363030343031383038343630303136303031363061303162303331363831353236303230303138333630303136303031363061303162303331363831353236303230303138323632666666666666313638313532363032303031393335303530353035303630323036303430353138303833303338313630303038373830336231353830313536313066333035373630303038306664356235303561663131353830313536313066343435373364363030303830336533643630303066643562353035303530353036303430353133643630323038313130313536313066356135373630303038306664356235303531363034303830353137666636333737333164303030303030303030303030303030303030303030303030303030303030303030303030303030303030303030303030303030303030303038313532363030313630303136306130316230333835383131363630303438333031353239313531393239333530393038333136393136336636333737333164393136303234383038323031393236303030393239303931393038323930303330313831383338373830336231353830313536313066633335373630303038306664356235303561663131353830313536313066643735373364363030303830336533643630303066643562353035303530353036313130633135363562363030303831363030313630303136306130316230333136363333383530633762643630343035313831363366666666666666663136363065303162383135323630303430313630653036303430353138303833303338313836383033623135383031353631313031623537363030303830666435623530356166613135383031353631313032663537336436303030383033653364363030306664356235303530353035303630343035313364363065303831313031353631313034353537363030303830666435623530353139303530363030313630303136306130316230333831313636313130626635373831363030313630303136306130316230333136363366363337373331643834363034303531383236336666666666666666313636306530316238313532363030343031383038323630303136303031363061303162303331363831353236303230303139313530353036303030363034303531383038333033383136303030383738303362313538303135363131306136353736303030383066643562353035616631313538303135363131306261353733643630303038303365336436303030666435623530353035303530356235303562393439333530353035303530353635623630303036313130643536303032363133363839353635623930353039303536356236303030383036303030383336306130303133353830363131306564363133333737353635623131313536313131343035373630343038303531363234363162636436306535316238313532363032303630303438323031353236303133363032343832303135323766353437323631366537333631363337343639366636653230373436663666323036663663363430303030303030303030303030303030303030303030303030303630343438323031353239303531393038313930303336303634303139306664356238343335363030303930383135323630306336303230393038313532363034303830383332303630303138303832303135343639666666666666666666666666666666666666666638313136383635323630306238353532383338363230383435313630363038303832303138373532383235343630303136303031363061303162303339303831313638333532393239303934303135343830383331363832383930313930383135323632666666666666363030313630613031623930393230343832313638333839303139303831353238383531363130313430383130313861353238343531383631363831353239313531393039343136383138613031353239323531313638323837303135323330383238353031353236613031303030303030303030303030303030303030303038333034363030323930383130623831306236303830383038353031393139303931353236303031363036383162393039343034383130623930306236306130383330313532393538633031333536306330383230313532393338623031333536306530383530313532393038613031333536313031303038343031353238393031333536313031323038333031353239323930363131323263393036313336393435363562363030313837303135343933396135303931393835303936353039313530363030303930363131323636393033303930366130313030303030303030303030303030303030303030383130343630303239303831306239313630303136303638316239303034393030623631333437373536356239303530363030303830383336303031363030313630613031623033313636333531346561346266383436303430353138323633666666666666666631363630653031623831353236303034303136313132393739313930363135393239353635623630613036303430353138303833303338313836383033623135383031353631313261663537363030303830666435623530356166613135383031353631313263333537336436303030383033653364363030306664356235303530353035303630343035313364363031663139363031663832303131363832303138303630343035323530383130313930363131326537393139303631353561633536356235303530393235303932353035303631313332333836363030323031353438333033383736303031303136303130393035343930363130313030306139303034363030313630303136303830316230333136363030313630303136303830316230333136363030313630383031623631333464313536356236303034383730313830353436303031363030313630383031623033383038323136393039333031383331363666666666666666666666666666666666666666666666666666666666666666666631393930393131363137393035353630303338373031353436303031383830313534363131333733393239313834303339313630303136303830316239313832393030343136393036313334643135363562363030343837303138303534363030313630303136303830316230333630303136303830316238303833303438323136393039343031383131363834303239313831313639313930393131373930393135353630303238383031383439303535363030333838303138333930353536303031383830313830353438333831303438333136386530313833313639303933303239323930393131363931393039313137393035353630343035313862333539303766333036373034386265656533316232356232663136383166383864616338333863386262613336616632356266623262376366373437336135383437653335663930363131336664393038643930386439303864393036313561666435363562363034303531383039313033393061323530353035303530353035303530393139333930393235303536356236313134323436313134316536313332353335363562383236313332646235363562363131343566353736303430353136323436316263643630653531623831353236303034303138303830363032303031383238313033383235323630333138313532363032303031383036313566303336303331393133393630343030313931353035303630343035313830393130333930666435623631303933393833383338333631333863663536356236303031363030313630613031623033383231363630303039303831353236303031363032303532363034303831323036313134386339303833363133613162353635623930353035623932393135303530353635623766343965636633333365356238633935633430666461666339356331616431333665383931346138666235356539646338626230316561613833613264663961643831353635623630303037663862373363336336396262386665336435313265636334636637353963633739323339663762313739623066666163616139613735643532326233393430306637663030303030303030303030303030303030303030303030303030303030303030303030303030303030303030303030303030303030303030303030303030303037663030303030303030303030303030303030303030303030303030303030303030303030303030303030303030303030303030303030303030303030303030303036313135323636313361323735363562333036303430353136303230303138303836383135323630323030313835383135323630323030313834383135323630323030313833383135323630323030313832363030313630303136306130316230333136383135323630323030313935353035303530353035303530363034303531363032303831383330333033383135323930363034303532383035313930363032303031323039303530393035363562363130393339383338333833363034303531383036303230303136303430353238303630303038313532353036313239313535363562383036313135396433333832363133326462353635623631313562393537363034303531363234363162636436306535316238313532363030343031363130383333393036313539383435363562363030303832383135323630306336303230353236303430393032303630303138313031353436303031363038303162393030343630303136303031363038303162303331363135383031353631313566343537353036303034383130313534363030313630303136303830316230333136313535623830313536313136313235373530363030343831303135343630303136303830316239303034363030313630303136303830316230333136313535623631313632653537363034303531363234363162636436306535316238313532363030343031363130383333393036313561383635363562363030303833383135323630306336303230353236303430383132303831383135353630303138313031383239303535363030323831303138323930353536303033383130313832393035353630303430313535363130393339383336313361326235363562363034303830353137663866636261663063303030303030303030303030303030303030303030303030303030303030303030303030303030303030303030303030303030303030303038313532333336303034383230313532333036303234383230313532363034343831303138373930353236303634383130313836393035323630303136303834383230313532363066663835313636306134383230313532363063343831303138343930353236306534383130313833393035323930353136303031363030313630613031623033383831363931363338666362616630633931363130313034383038333031393236303030393239313930383239303033303138313833383738303362313538303135363131366634353736303030383066643562353035616631313538303135363131373038353733643630303038303365336436303030666435623530353035303530353035303530353035303530353635623630303037663030303030303030303030303030303030303030303030303030303030303030303030303030303030303030303030303030303030303030303030303030303036303031363030313630613031623033313636333730613038323331333036303430353138323633666666666666666631363630653031623831353236303034303138303832363030313630303136306130316230333136383135323630323030313931353035303630323036303430353138303833303338313836383033623135383031353631313738333537363030303830666435623530356166613135383031353631313739373537336436303030383033653364363030306664356235303530353035303630343035313364363032303831313031353631313761643537363030303830666435623530353139303530383238313130313536313138303635373630343038303531363234363162636436306535316238313532363032303630303438323031353236303132363032343832303135323766343936653733373536363636363936333639363536653734323035373435353434383339303030303030303030303030303030303030303030303030303030303630343438323031353239303531393038313930303336303634303139306664356238303135363130393339353737663030303030303030303030303030303030303030303030303030303030303030303030303030303030303030303030303030303030303030303030303030303036303031363030313630613031623033313636333265316137643464383236303430353138323633666666666666666631363630653031623831353236303034303138303832383135323630323030313931353035303630303036303430353138303833303338313630303038373830336231353830313536313138373235373630303038306664356235303561663131353830313536313138383635373364363030303830336533643630303066643562353035303530353036313039333938323832363133353830353635623766303030303030303030303030303030303030303030303030303030303030303030303030303030303030303030303030303030303030303030303030303030303831353635623630303038303631313863363630303238343631336166383536356235303933393235303530353035363562363030303631313438663832363034303531383036303630303136303430353238303630323938313532363032303031363135653665363032393931333936303032393139303631336231363536356236303630393035363562363030303630303136303031363061303162303338323136363131393432353736303430353136323436316263643630653531623831353236303034303138303830363032303031383238313033383235323630326138313532363032303031383036313565343436303261393133393630343030313931353035303630343035313830393130333930666435623630303136303031363061303162303338323136363030303930383135323630303136303230353236303430393032303631313438663930363133363839353635623833363131393663363133333737353635623131313536313139626635373630343038303531363234363162636436306535316238313532363032303630303438323031353236303065363032343832303135323766353036353732366436393734323036353738373036393732363536343030303030303030303030303030303030303030303030303030303030303030303030303630343438323031353239303531393038313930303336303634303139306664356236303030363131396339363131346239353635623766343965636633333365356238633935633430666461666339356331616431333665383931346138666235356539646338626230316561613833613264663961643838383836313139663538313631336232333536356236303430383035313630323038303832303139363930393635323630303136303031363061303162303339303934313638343832303135323630363038343031393239303932353236303830383330313532363061303830383330313861393035323831353138303834303339303931303138313532363063303833303138323532383035313930383430313230376631393031303030303030303030303030303030303030303030303030303030303030303030303030303030303030303030303030303030303030303030303030363065303834303135323630653238333031393439303934353236313031303238303833303139343930393435323830353138303833303339303934303138343532363130313232393039313031393035323831353139313031323039303530363030303631316139383837363131386365353635623930353038303630303136303031363061303162303331363838363030313630303136306130316230333136313431353631316165623537363034303531363234363162636436306535316238313532363030343031383038303630323030313832383130333832353236303237383135323630323030313830363135643666363032373931333936303430303139313530353036303430353138303931303339306664356236313161663438313631336236323536356231353631316363663537363034303830353136303230383038323031383739303532383138333031383639303532376666663030303030303030303030303030303030303030303030303030303030303030303030303030303030303030303030303030303030303030303030303030363066383839393031623136363036303833303135323832353136303431383138343033303138313532363036313833303138303835353237663136323662613765303030303030303030303030303030303030303030303030303030303030303030303030303030303030303030303030303030303030303039303532363036353833303138363831353236303835383430313934383535323831353136306135383530313532383135313630303136303031363061303162303338373136393536333136323662613765393538393935393139323630633539303931303139313835303139303830383338333630303035623833383131303135363131626265353738313831303135313833383230313532363032303031363131626136353635623530353035303530393035303930383130313930363031663136383031353631316265623537383038323033383035313630303138333630323030333631303130303061303331393136383135323630323030313931353035623530393335303530353035303630323036303430353138303833303338313836383033623135383031353631316330393537363030303830666435623530356166613135383031353631316331643537336436303030383033653364363030306664356235303530353035303630343035313364363032303831313031353631316333333537363030303830666435623530353137666666666666666666303030303030303030303030303030303030303030303030303030303030303030303030303030303030303030303030303030303030303031363766313632366261376530303030303030303030303030303030303030303030303030303030303030303030303030303030303030303030303030303030303030303134363131636361353736303430383035313632343631626364363065353162383135323630323036303034383230313532363030633630323438323031353237663535366536313735373436383666373236393761363536343030303030303030303030303030303030303030303030303030303030303030303030303030303036303434383230313532393035313930383139303033363036343031393066643562363131646662353635623630303036303031383338373837383736303430353136303030383135323630323030313630343035323630343035313830383538313532363032303031383436306666313638313532363032303031383338313532363032303031383238313532363032303031393435303530353035303530363032303630343035313630323038313033393038303834303339303835356166613135383031353631316432623537336436303030383033653364363030306664356235303530363034303531363031663139303135313931353035303630303136303031363061303162303338313136363131643933353736303430383035313632343631626364363065353162383135323630323036303034383230313532363031313630323438323031353237663439366537363631366336393634323037333639363736653631373437353732363530303030303030303030303030303030303030303030303030303030303036303434383230313532393035313930383139303033363036343031393066643562383136303031363030313630613031623033313638313630303136303031363061303162303331363134363131646639353736303430383035313632343631626364363065353162383135323630323036303034383230313532363030633630323438323031353237663535366536313735373436383666373236393761363536343030303030303030303030303030303030303030303030303030303030303030303030303030303036303434383230313532393035313930383139303033363036343031393066643562353035623631316530353838383836313332353735363562353035303530353035303530353035303536356236303030383036303030383038343631303134303031333538303631316532343631333337373536356231313135363131653737353736303430383035313632343631626364363065353162383135323630323036303034383230313532363031333630323438323031353237663534373236313665373336313633373436393666366532303734366636663230366636633634303030303030303030303030303030303030303030303030303036303434383230313532393035313930383139303033363036343031393066643562363034303830353136313031343038313031393039313532363030303930363131663433393038303631316539383630323038623031386236313530616635363562363030313630303136306130316230333136383135323630323030313839363032303031363032303831303139303631316562393931393036313530616635363562363030313630303136306130316230333136383135323630323030313631316564373630363038623031363034303863303136313536396535363562363266666666666631363831353233303630323038323031353236303430303136313165663736303830386230313630363038633031363135336536353635623630303230623831353236303230303136313166306636306130386230313630383038633031363135336536353635623630303230623831353236303230303138393630613030313335383135323630323030313839363063303031333538313532363032303031383936306530303133353831353236303230303138393631303130303031333538313532353036313336393435363562393239373530393039353530393335303930353036313166623736313166363236313031343038393031363130313230386130313631353061663536356236303064383035343766666666666666666666666666666666666666666630303030303030303030303030303030303030303030303030303030303030303030303030303030303030303831313636303031373566666666666666666666666666666666666666666666666666666666666666666666666666666666666666663932383331363930383130313930393231363137393039313535393735303837363133623638353635623630303036313166653233303631316663643630383038623031363036303863303136313533653635363562363131666464363061303863303136303830386430313631353365363536356236313334373735363562393035303630303038303833363030313630303136306130316230333136363335313465613462663834363034303531383236336666666666666666313636306530316238313532363030343031363132303133393139303631353932393536356236306130363034303531383038333033383138363830336231353830313536313230326235373630303038306664356235303561666131353830313536313230336635373364363030303830336533643630303066643562353035303530353036303430353133643630316631393630316638323031313638323031383036303430353235303831303139303631323036333931393036313535616335363562353035303932353039323530353036303030363132306463383536303430353138303630363030313630343035323830386536303030303136303230383130313930363132303865393139303631353061663536356236303031363030313630613031623033313638313532363032303031386536303230303136303230383130313930363132306166393139303631353061663536356236303031363030313630613031623033313638313532363032303031386536303430303136303230383130313930363132306430393139303631353639653536356236326666666666663136393035323631336339363536356239303530363034303531383036313031343030313630343035323830363030303662666666666666666666666666666666666666666666666666313638313532363032303031363030303630303136303031363061303162303331363831353236303230303138323639666666666666666666666666666666666666666631363831353236303230303138633630363030313630323038313031393036313231333439313930363135336536353635623630303230623831353236303230303136313231346336306130386530313630383038663031363135336536353635623630303230623831353236303230303138613630303136303031363038303162303331363831353236303230303138343831353236303230303138333831353236303230303136303030363030313630303136303830316230333136383135323630323030313630303036303031363030313630383031623033313638313532353036303063363030303863383135323630323030313930383135323630323030313630303032303630303038323031353138313630303030313630303036313031303030613831353438313662666666666666666666666666666666666666666666666666303231393136393038333662666666666666666666666666666666666666666666666666313630323137393035353530363032303832303135313831363030303031363030633631303130303061383135343831363030313630303136306130316230333032313931363930383336303031363030313630613031623033313630323137393035353530363034303832303135313831363030313031363030303631303130303061383135343831363966666666666666666666666666666666666666663032313931363930383336396666666666666666666666666666666666666666313630323137393035353530363036303832303135313831363030313031363030613631303130303061383135343831363266666666666630323139313639303833363030323062363266666666666631363032313739303535353036303830383230313531383136303031303136303064363130313030306138313534383136326666666666663032313931363930383336303032306236326666666666663136303231373930353535303630613038323031353138313630303130313630313036313031303030613831353438313630303136303031363038303162303330323139313639303833363030313630303136303830316230333136303231373930353535303630633038323031353138313630303230313535363065303832303135313831363030333031353536313031303038323031353138313630303430313630303036313031303030613831353438313630303136303031363038303162303330323139313639303833363030313630303136303830316230333136303231373930353535303631303132303832303135313831363030343031363031303631303130303061383135343831363030313630303136303830316230333032313931363930383336303031363030313630383031623033313630323137393035353530393035303530383937663330363730343862656565333162323562326631363831663838646163383338633862626133366166323562666232623763663734373361353834376533356638613861386136303430353136313233356239333932393139303631356166643536356236303430353138303931303339306132353035303530353035303530393139333530393139333536356236303037383035343630343038303531363032303630316636303032363030303139363130313030363030313838313631353032303139303935313639343930393430343933383430313831393030343831303238323031383130313930393235323832383135323630363039333930393239303931383330313832383238303135363130383032353738303630316631303631303764373537363130313030383038333534303430323833353239313630323030313931363130383032353635623630303038313831353236303063363032303930383135323630343038303833323038313531363130313430383130313833353238313534366266666666666666666666666666666666666666666666666638313136383235323630303136303031363061303162303336633031303030303030303030303030303030303030303030303030393039313034313639333831303139333930393335323630303138313031353436396666666666666666666666666666666666666666383131363932383430313833393035323661303130303030303030303030303030303030303030303831303436303032393038313062383130623831306236303630383630313532363030313630363831623832303438313062383130623831306236303830383630313532363030313630303136303830316230333630303136303830316239323833393030343831313636306130383730313532393038333031353436306330383630313532363030333833303135343630653038363031353236303034393039323031353438303833313636313031303038363031353230343136363130313230383330313532383239313832393138323931383239313832393138323931383239313832393138323931383239313832393139303631323464613537363034303531363234363162636436306535316238313532363030343031363130383333393036313561346635363562363030303630306236303030383336303430303135313639666666666666666666666666666666666666666631363639666666666666666666666666666666666666666631363831353236303230303139303831353236303230303136303030323036303430353138303630363030313630343035323930383136303030383230313630303039303534393036313031303030613930303436303031363030313630613031623033313636303031363030313630613031623033313636303031363030313630613031623033313638313532363032303031363030313832303136303030393035343930363130313030306139303034363030313630303136306130316230333136363030313630303136306130316230333136363030313630303136306130316230333136383135323630323030313630303138323031363031343930353439303631303130303061393030343632666666666666313636326666666666663136363266666666666631363831353235303530393035303831363030303031353138323630323030313531383236303030303135313833363032303031353138343630343030313531383636303630303135313837363038303031353138383630613030313531383936306330303135313861363065303031353138623631303130303031353138633631303132303031353139643530396435303964353039643530396435303964353039643530396435303964353039643530396435303964353035303530393139333935393739393962353039313933393539373939396235363562363132363038363133323533353635623630303136303031363061303162303331363832363030313630303136306130316230333136313431353631323636653537363034303830353136323436316263643630653531623831353236303230363030343832303135323630313936303234383230313532376634353532343333373332333133613230363137303730373236663736363532303734366632303633363136633663363537323030303030303030303030303030363034343832303135323930353139303831393030333630363430313930666435623830363030353630303036313236376236313332353335363562363030313630303136306130316230333930383131363832353236303230383038333031393339303933353236303430393138323031363030303930383132303931383731363830383235323931393039333532393132303830353437666666666666666666666666666666666666666666666666666666666666666666666666666666666666666666666666666666666666666666666666666666303031363932313531353932393039323137393039313535363132366464363133323533353635623630303136303031363061303162303331363766313733303765616233396162363130376538383939383435616433643539626439363533663230306632323039323034383963613262353933373639366333313833363034303531383038323135313538313532363032303031393135303530363034303531383039313033393061333530353035363562363034303830353137666464363265643365303030303030303030303030303030303030303030303030303030303030303030303030303030303030303030303030303030303030303038313532333336303034383230313532333036303234383230313532393035313630303031393931363030313630303136306130316230333839313639313633646436326564336539313630343438303832303139323630323039323930393139303832393030333031383138363830336231353830313536313237386435373630303038306664356235303561666131353830313536313237613135373364363030303830336533643630303066643562353035303530353036303430353133643630323038313130313536313237623735373630303038306664356235303531313031353631323763643537363132376364383638363836383638363836363131363631353635623530353035303530353035303536356236303630383136376666666666666666666666666666666638313131383031353631323765653537363030303830666435623530363034303531393038303832353238303630323030323630323030313832303136303430353238303135363132383232353738313630323030313562363036303831353236303230303139303630303139303033393038313631323830643537393035303562353039303530363030303562383238313130313536313239306535373630303038303330383638363835383138313130363132383430353766653562393035303630323030323831303139303631323835323931393036313562656635363562363034303531363132383630393239313930363135376432353635623630303036303430353138303833303338313835356166343931353035303364383036303030383131343631323839623537363034303531393135303630316631393630336633643031313638323031363034303532336438323532336436303030363032303834303133653631323861303536356236303630393135303562353039313530393135303831363132386563353736303434383135313130313536313238623935373630303038306664356236303034383130313930353038303830363032303031393035313831303139303631323864333931393036313534303235363562363034303531363234363162636436306535316238313532363030343031363130383333393139303631353937313536356238303834383438313531383131303631323866393537666535623630323039303831303239313930393130313031353235303530363030313031363132383238353635623530393239313530353035363562363132393236363132393230363133323533353635623833363133326462353635623631323936313537363034303531363234363162636436306535316238313532363030343031383038303630323030313832383130333832353236303331383135323630323030313830363135663033363033313931333936303430303139313530353036303430353138303931303339306664356236313239366438343834383438343631336465363536356235303530353035303536356236303430383035313766646436326564336530303030303030303030303030303030303030303030303030303030303030303030303030303030303030303030303030303030303030303831353233333630303438323031353233303630323438323031353239303531383639313630303136303031363061303162303338393136393136336464363265643365393136303434383038323031393236303230393239303931393038323930303330313831383638303362313538303135363132396462353736303030383066643562353035616661313538303135363132396566353733643630303038303365336436303030666435623530353035303530363034303531336436303230383131303135363132613035353736303030383066643562353035313130313536313237636435373631323763643836383638363836383638363631326339643536356237663030303030303030303030303030303030303030303030303030303030303030303030303030303030303030303030303030303030303030303030303030303038313536356236303630363132613461383236313332343635363562363132613533353736303030383066643562363034303531376665396463363337353030303030303030303030303030303030303030303030303030303030303030303030303030303030303030303030303030303030303030383135323630303136303031363061303162303337663030303030303030303030303030303030303030303030303030303030303030303030303030303030303030303030303030303030303030303030303030303031363930363365396463363337353930363132616261393033303930383639303630303430313631353933323536356236303030363034303531383038333033383138363830336231353830313536313261643235373630303038306664356235303561666131353830313536313261653635373364363030303830336533643630303066643562353035303530353036303430353133643630303038323365363031663364393038313031363031663139313638323031363034303532363131343866393139303831303139303631353430323536356236303030363132623163383238343031383436313534613535363562393035303631326234633766303030303030303030303030303030303030303030303030303030303030303030303030303030303030303030303030303030303030303030303030303030303832363030303031353136313365333835363562353038343135363132623637353738303531353136303230383230313531363132623637393139303333383836313365356235363562383331353631326238353537363132623835383136303030303135313630323030313531383236303230303135313333383736313365356235363562353035303530353035303536356236303030383336303031363030313630613031623033313636333730613038323331333036303430353138323633666666666666666631363630653031623831353236303034303138303832363030313630303136306130316230333136383135323630323030313931353035303630323036303430353138303833303338313836383033623135383031353631326264623537363030303830666435623530356166613135383031353631326265663537336436303030383033653364363030306664356235303530353035303630343035313364363032303831313031353631326330353537363030303830666435623530353139303530383238313130313536313263356535373630343038303531363234363162636436306535316238313532363032303630303438323031353236303132363032343832303135323766343936653733373536363636363936333639363536653734323037343666366236353665303030303030303030303030303030303030303030303030303030303630343438323031353239303531393038313930303336303634303139306664356238303135363132393664353736313239366438343833383336313366656235363562363030313630303136306130316230333931383231363630303039303831353236303035363032303930383135323630343038303833323039333930393431363832353239313930393135323230353436306666313639303536356236303430383035313766643530356163636630303030303030303030303030303030303030303030303030303030303030303030303030303030303030303030303030303030303030303831353233333630303438323031353233303630323438323031353236303434383130313837393035323630363438313031383639303532363066663835313636303834383230313532363061343831303138343930353236306334383130313833393035323930353136303031363030313630613031623033383831363931363364353035616363663931363065343830383330313932363030303932393139303832393030333031383138333837383033623135383031353631313666343537363030303830666435623630303038303832333536313264333733333832363133326462353635623631326435333537363034303531363234363162636436306535316238313532363030343031363130383333393036313539383435363562363030303631326436353630363038363031363034303837303136313535363235363562363030313630303136303830316230333136313138303631326439323537353036303030363132643837363038303836303136303630383730313631353536323536356236303031363030313630383031623033313631313562363132643962353736303030383066643562363030303830363132646165363034303837303136303230383830313631353061663536356236303031363030313630613031623033313631343631326464313537363132646363363034303836303136303230383730313631353061663536356236313264643335363562333035623835333536303030393038313532363030633630323039303831353236303430383038333230363030313830383230313534363966666666666666666666666666666666666666663136383535323630306238343532383238353230383335313630363038313031383535323831353436303031363030313630613031623033393038313136383235323931393039323031353439303831313639343832303139343930393435323630303136306130316239303933303436326666666666663136393138333031393139303931353239323933353039303631326536393766303030303030303030303030303030303030303030303030303030303030303030303030303030303030303030303030303030303030303030303030303030303833363133333762353635623630303438343031353436303031383530313534393139323530363030313630303136303830316230333830383231363932363030313630383031623932383339303034383231363932393030343136313536313330383635373630303138353031353436303430353137666133343132336137303030303030303030303030303030303030303030303030303030303030303030303030303030303030303030303030303030303030303038313532363030313630303136306130316230333835313639313633613334313233613739313631326630303931366130313030303030303030303030303030303030303030383130343630303239303831306239323630303136303638316239303932303439303062393036303030393036303034303136313539346235363562363034303830353138303833303338313630303038373830336231353830313536313266313935373630303038306664356235303561663131353830313536313266326435373364363030303830336533643630303066643562353035303530353036303430353133643630316631393630316638323031313638323031383036303430353235303831303139303631326635313931393036313536663435363562353035303630303138353031353436303030393038313930363030313630303136306130316230333836313639303633353134656134626639303631326639363930333039303661303130303030303030303030303030303030303030303831303436303032393038313062393136303031363036383162393030343930306236313334373735363562363034303531383236336666666666666666313636306530316238313532363030343031363132666232393139303631353932393536356236306130363034303531383038333033383138363830336231353830313536313266636135373630303038306664356235303561666131353830313536313266646535373364363030303830336533643630303066643562353035303530353036303430353133643630316631393630316638323031313638323031383036303430353235303831303139303631333030323931393036313535616335363562353035303932353039323530353036313330336538373630303230313534383330333838363030313031363031303930353439303631303130303061393030343630303136303031363038303162303331363630303136303031363038303162303331363630303136303830316236313334643135363562383430313933353036313330373738373630303330313534383230333838363030313031363031303930353439303631303130303061393030343630303136303031363038303162303331363630303136303031363038303162303331363630303136303830316236313334643135363562363030323838303139323930393235353630303338373031353530313562363030303830363030313630303136303830316230333834313636313330613336303630386530313630343038663031363135353632353635623630303136303031363038303162303331363131363133306336353736313330633136303630386430313630343038653031363135353632353635623631333063383536356238333562383336303031363030313630383031623033313638643630363030313630323038313031393036313330653539313930363135353632353635623630303136303031363038303162303331363131363133313038353736313331303336303830386530313630363038663031363135353632353635623631333130613536356238333562363030313839303135343630343035313766346631656233643830303030303030303030303030303030303030303030303030303030303030303030303030303030303030303030303030303030303030303831353239323934353039303932353036303031363030313630613031623033383731363931363334663165623364383931363133313764393138633931366130313030303030303030303030303030303030303030383130343630303239303831306239323630303136303638316239303932303439303062393038383930383839303630303430313631353833393536356236303430383035313830383330333831363030303837383033623135383031353631333139363537363030303830666435623530356166313135383031353631333161613537336436303030383033653364363030306664356235303530353035303630343035313364363031663139363031663832303131363832303138303630343035323530383130313930363133316365393139303631353537653536356236303034383930313830353436666666666666666666666666666666666666666666666666666666666666666666313936303031363030313630383031623033393138323136363030313630383031623837386130333834313630323137313638363839303338323136313739303931353536303430353139323831313639643530313639613530386333353930376634306430656664316135336436306563626634303937316239646166376463393031373863336161646337616162313736353633323733386661386238663031393036313064393439303862393038363930383639303631353837363536356236303030363131343866363030323833363134313762353635623333393035363562363030303831383135323630306336303230353236303430393032303830353436626666666666666666666666666666666666666666666666663136366330313030303030303030303030303030303030303030303030303630303136303031363061303162303338353136393038313032393139303931313739303931353538313930363133326132383236313138636535363562363030313630303136306130316230333136376638633562653165356562656337643562643134663731343237643165383466336464303331346330663762323239316535623230306163386337633362393235363034303531363034303531383039313033393061343530353035363562363030303631333265363832363133323436353635623631333332313537363034303531363234363162636436306535316238313532363030343031383038303630323030313832383130333832353236303263383135323630323030313830363135646530363032633931333936303430303139313530353036303430353138303931303339306664356236303030363133333263383336313138636535363562393035303830363030313630303136306130316230333136383436303031363030313630613031623033313631343830363133333637353735303833363030313630303136306130316230333136363133333563383436313038306335363562363030313630303136306130316230333136313435623830363131306331353735303631313063313831383536313263366635363562343239303536356236303030383136303230303135313630303136303031363061303162303331363832363030303031353136303031363030313630613031623033313631303631333361333537363030303830666435623530383035313630323038303833303135313630343039333834303135313834353136303031363030313630613031623033393438353136383138353031353239333930393131363833383530313532363266666666666631363630363038303834303139313930393135323833353138303834303338323031383135323630383038343031383535323830353139303833303132303766666630303030303030303030303030303030303030303030303030303030303030303030303030303030303030303030303030303030303030303030303030303630613038353031353239343930316236626666666666666666666666666666666666666666666666663139313636306131383330313532363062353832303139333930393335323766653334663139396231396232623466343766363834343236313964353535353237643234346637386133323937656138393332356638343366383762386235343630643538303833303139313930393135323832353138303833303339303931303138313532363066353930393130313930393135323830353139313031323039303536356236303430383035313662666666666666666666666666666666666666666666666666313936303630383639303162313636303230383038333031393139303931353236303032383538313062363065383930383131623630333438353031353239303835393030623930316236303337383330313532383235313630316138313834303330313831353236303361393039323031393039323532383035313931303132303562393339323530353035303536356236303030383038303630303031393835383730393836383630323932353038323831313039303833393030333033393035303830363133353037353736303030383431313631333466633537363030303830666435623530383239303034393035303631333463613536356238303834313136313335313335373630303038306664356236303030383438363838303936303030383638313033383731363936383739303034393636303032363030333839303238313138383038613032383230333032383038613032383230333032383038613032383230333032383038613032383230333032383038613032383230333032383038613032393039313033303239313831393030333831393030343630303130313836383431313930393530333934393039343032393139303934303339323930393230343931393039313137393139303931303239313530353039333932353035303530353635623630343038303531363030303830383235323630323038323031393039323532363030313630303136306130316230333834313639303833393036303430353138303832383035313930363032303031393038303833383335623630323038333130363133356363353738303531383235323630316631393930393230313931363032303931383230313931303136313335616435363562363030313833363032303033363130313030306130333830313938323531313638313834353131363830383231373835353235303530353035303530353039303530303139313530353036303030363034303531383038333033383138353837356166313932353035303530336438303630303038313134363133363265353736303430353139313530363031663139363033663364303131363832303136303430353233643832353233643630303036303230383430313365363133363333353635623630363039313530356235303530393035303830363130393339353736303430383035313632343631626364363065353162383135323630323036303034383230313532363030333630323438323031353237663533353434353030303030303030303030303030303030303030303030303030303030303030303030303030303030303030303030303030303030303030303036303434383230313532393035313930383139303033363036343031393066643562363030303631313438663832363134313837353635623630303038303630303038303630303036303430353138303630363030313630343035323830383736303030303135313630303136303031363061303162303331363831353236303230303138373630323030313531363030313630303136306130316230333136383135323630323030313837363034303031353136326666666666663136383135323530393035303631333730363766303030303030303030303030303030303030303030303030303030303030303030303030303030303030303030303030303030303030303030303030303030303832363133333762353635623931353036303030383236303031363030313630613031623033313636333338353063376264363034303531383136336666666666666666313636306530316238313532363030343031363065303630343035313830383330333831383638303362313538303135363133373433353736303030383066643562353035616661313538303135363133373537353733643630303038303365336436303030666435623530353035303530363034303531336436303166313936303166383230313136383230313830363034303532353038313031393036313337376239313930363135363064353635623530353035303530353035303930353036303030363133373932383836303830303135313631343138623536356239303530363030303631333761333839363061303031353136313431386235363562393035303631333762613833383338333863363063303031353138643630653030313531363134346439353635623937353035303530353038313630303136303031363061303162303331363633336338613764386438373630363030313531383836303830303135313839363061303031353138393630343035313830363034303031363034303532383038383831353236303230303133333630303136303031363061303162303331363831353235303630343035313630323030313631333830633931393036313561626435363562363034303531363032303831383330333033383135323930363034303532363034303531383636336666666666666666313636306530316238313532363030343031363133383362393539343933393239313930363135376636353635623630343038303531383038333033383136303030383738303362313538303135363133383534353736303030383066643562353035616631313538303135363133383638353733643630303038303365336436303030666435623530353035303530363034303531336436303166313936303166383230313136383230313830363034303532353038313031393036313338386339313930363135366634353635623631303130303838303135313931393535303933353038343130383031353930363133386162353735303835363130313230303135313833313031353562363133386337353736303430353136323436316263643630653531623831353236303034303136313038333339303631356131383536356235303931393335303931393335363562383236303031363030313630613031623033313636313338653238323631313863653536356236303031363030313630613031623033313631343631333932373537363034303531363234363162636436306535316238313532363030343031383038303630323030313832383130333832353236303239383135323630323030313830363135656239363032393931333936303430303139313530353036303430353138303931303339306664356236303031363030313630613031623033383231363631333936633537363034303531363234363162636436306535316238313532363030343031383038303630323030313832383130333832353236303234383135323630323030313830363135643936363032343931333936303430303139313530353036303430353138303931303339306664356236313339373738333833383336313039333935363562363133393832363030303832363133323537353635623630303136303031363061303162303338333136363030303930383135323630303136303230353236303430393032303631333961343930383236313435396435363562353036303031363030313630613031623033383231363630303039303831353236303031363032303532363034303930323036313339633739303832363134356139353635623530363133396434363030323832383436313435623535363562353038303832363030313630303136306130316230333136383436303031363030313630613031623033313637666464663235326164316265326338396236396332623036386663333738646161393532626137663136336334613131363238663535613464663532336233656636303430353136303430353138303931303339306134353035303530353635623630303036313134386338333833363134356362353635623436393035363562363030303631336133363832363131386365353635623930353036313361343438313630303038343631303933393536356236313361346636303030383336313332353735363562363030303832383135323630303836303230353236303430393032303534363030323630303031393631303130303630303138343136313530323031393039313136303431353631336138643537363030303832383135323630303836303230353236303430383132303631336138643931363135303166353635623630303136303031363061303162303338313136363030303930383135323630303136303230353236303430393032303631336161663930383336313435396435363562353036313361626236303032383336313436326635363562353036303430353138323930363030303930363030313630303136306130316230333834313639303766646466323532616431626532633839623639633262303638666333373864616139353262613766313633633461313136323866353561346466353233623365663930383339306134353035303536356236303030383038303830363133623037383638363631343633623536356239303934353039323530353035303562393235303932393035303536356236303030363131306331383438343834363134366236353635623630303039303831353236303063363032303532363034303930323038303534366266666666666666666666666666666666666666666666666631393831313636303031366266666666666666666666666666666666666666666666666639323833313639303831303139303932313631373930393135353930353635623362313531353930353635623630303136303031363061303162303338323136363133626333353736303430383035313632343631626364363065353162383135323630323036303034383230313831393035323630323438323031353237663435353234333337333233313361323036643639366537343230373436663230373436383635323037613635373236663230363136343634373236353733373336303434383230313532393035313930383139303033363036343031393066643562363133626363383136313332343635363562313536313363316535373630343038303531363234363162636436306535316238313532363032303630303438323031353236303163363032343832303135323766343535323433333733323331336132303734366636623635366532303631366337323635363136343739323036643639366537343635363430303030303030303630343438323031353239303531393038313930303336303634303139306664356236313363326136303030383338333631303933393536356236303031363030313630613031623033383231363630303039303831353236303031363032303532363034303930323036313363346339303832363134356139353635623530363133633539363030323832383436313435623535363562353036303430353138313930363030313630303136306130316230333834313639303630303039303766646466323532616431626532633839623639633262303638666333373864616139353262613766313633633461313136323866353561346466353233623365663930383239306134353035303536356236303031363030313630613031623033383231363630303039303831353236303061363032303532363034303930323035343639666666666666666666666666666666666666666631363830363131343866353735303630306438303534363030313639666666666666666666666666666666666666666637363031303030303030303030303030303030303030303030303030303030303030303030303030303030303030303038303834303438323136383338313031393039323136303237356666666666666666666666666666666666666666666666666666666666666666666666666666666666666666393039333136393239303932313739303932353536303031363030313630613031623033383038353136363030303930383135323630306136303230393038313532363034303830383332303830353437666666666666666666666666666666666666666666666666666666666666666666666666666666666666666666303030303030303030303030303030303030303031363836313739303535383438333532363030623832353239313832393032303836353138313534393038353136376666666666666666666666666666666666666666666666666630303030303030303030303030303030303030303030303030303030303030303030303030303030393138323136313738323535393138373031353139353031383035343932383730313531363266666666666631363630303136306130316230323766666666666666666666666666666666666666303030303030666666666666666666666666666666666666666666666666666666666666666666666666666666663936393039343136393239303931313639313930393131373933393039333136313739303931353539323931353035303536356236313364663138343834383436313338636635363562363133646664383438343834383436313437383035363562363132393664353736303430353136323436316263643630653531623831353236303034303138303830363032303031383238313033383235323630333238313532363032303031383036313564336436303332393133393630343030313931353035303630343035313830393130333930666435623630303036313365343438333833363133333762353635623930353033333630303136303031363061303162303338323136313436313134386635373630303038306664356237663030303030303030303030303030303030303030303030303030303030303030303030303030303030303030303030303030303030303030303030303030303036303031363030313630613031623033313638343630303136303031363061303162303331363134383031353631336539633537353038303437313031353562313536313366626535373766303030303030303030303030303030303030303030303030303030303030303030303030303030303030303030303030303030303030303030303030303030303630303136303031363061303162303331363633643065333064623038323630343035313832363366666666666666663136363065303162383135323630303430313630303036303430353138303833303338313835383838303362313538303135363133656663353736303030383066643562353035616631313538303135363133663130353733643630303038303365336436303030666435623530353035303530353037663030303030303030303030303030303030303030303030303030303030303030303030303030303030303030303030303030303030303030303030303030303036303031363030313630613031623033313636336139303539636262383338333630343035313833363366666666666666663136363065303162383135323630303430313830383336303031363030313630613031623033313638313532363032303031383238313532363032303031393235303530353036303230363034303531383038333033383136303030383738303362313538303135363133663863353736303030383066643562353035616631313538303135363133666130353733643630303038303365336436303030666435623530353035303530363034303531336436303230383131303135363133666236353736303030383066643562353036313239366439303530353635623630303136303031363061303162303338333136333031343135363133666466353736313366646138343833383336313366656235363562363132393664353635623631323936643834383438343834363134393563353635623630343038303531363030313630303136306130316230333834383131363630323438333031353236303434383038333031383539303532383335313830383430333930393130313831353236303634393039323031383335323630323038323031383035313762666666666666666666666666666666666666666666666666666666666666666666666666666666666666666666666666666666666666666631363766613930353963626230303030303030303030303030303030303030303030303030303030303030303030303030303030303030303030303030303030303030303137383135323932353138323531363030303934383539343933383931363933393239313832393139303830383338333562363032303833313036313430393535373830353138323532363031663139393039323031393136303230393138323031393130313631343037363536356236303031383336303230303336313031303030613033383031393832353131363831383435313136383038323137383535323530353035303530353035303930353030313931353035303630303036303430353138303833303338313630303038363561663139313530353033643830363030303831313436313430663735373630343035313931353036303166313936303366336430313136383230313630343035323364383235323364363030303630323038343031336536313430666335363562363036303931353035623530393135303931353038313830313536313431326135373530383035313135383036313431326135373530383038303630323030313930353136303230383131303135363134313237353736303030383066643562353035313562363132623835353736303430383035313632343631626364363065353162383135323630323036303034383230313532363030323630323438323031353237663533353430303030303030303030303030303030303030303030303030303030303030303030303030303030303030303030303030303030303030303030303036303434383230313532393035313930383139303033363036343031393066643562363030303631313438633833383336313461663435363562353439303536356236303030383036303030383336303032306231323631343161323537383236303032306236313431616135363562383236303032306236303030303335623930353036323064383965383831313131353631343230343537363034303830353136323436316263643630653531623831353236303230363030343832303135323630303136303234383230313532376635343030303030303030303030303030303030303030303030303030303030303030303030303030303030303030303030303030303030303030303030303030363034343832303135323930353139303831393030333630363430313930666435623630303036303031383231363631343231383537363030313630383031623631343232613536356236666666666362393333626436666164333761613264313632643161353934303031356237306666666666666666666666666666666666666666666666666666666666666666666631363930353036303032383231363135363134323565353736666666663937323732333733643431333235396134363939303538306532313361303236303830316335623630303438323136313536313432376435373666666666326535306635663635363933326566313233353763663363376664636330323630383031633562363030383832313631353631343239633537366666666535636163613765313065346536316333363234656161303934316364303032363038303163356236303130383231363135363134326262353736666666636239383433643630663631353963396462353838333563393236363434303236303830316335623630323038323136313536313432646135373666666639373362343166613938633038313437326536383936646662323534633030323630383031633562363034303832313631353631343266393537366666663265613136343636633936613338343365633738623332366235323836313032363038303163356236303830383231363135363134333138353736666665356465653034366139396132613831316334363166313936396333303533303236303830316335623631303130303832313631353631343333383537366666636265383663373930306138386165646366666338336234373961613361343032363038303163356236313032303038323136313536313433353835373666663938376137323533616334313331373666326230373463663738313565353430323630383031633562363130343030383231363135363134333738353736666633333932623038323262373030303539343063376133393865346237306633303236303830316335623631303830303832313631353631343339383537366665373135393437356132633239623734343362323963376661366538383964393032363038303163356236313130303038323136313536313433623835373666643039376633626466643230323262383834356164386637393261613538323530323630383031633562363132303030383231363135363134336438353736666139663734363436326438373066646638613635646331663930653036316535303236303830316335623631343030303832313631353631343366383537366637306438363961313536643261316238393062623364663632626166333266373032363038303163356236313830303038323136313536313434313835373666333162653133356639376430386664393831323331353035353432666366613630323630383031633562363230313030303038323136313536313434333935373666303961613530386235623761383465316336373764653534663365393962633930323630383031633562363230323030303038323136313536313434353935373665356436616638646564623831313936363939633332393232356565363034303236303830316335623632303430303030383231363135363134343738353736643232313665353834663566613165613932363034316265646665393830323630383031633562363230383030303038323136313536313434393535373662303438613137303339316637646334323434346538666132303236303830316335623630303038343630303230623133313536313434623035373830363030303139383136313434616335376665356230343930353035623634303130303030303030303831303631353631343463343537363030313631343463373536356236303030356236306666313636303230383239303163303139323530353035303931393035303536356236303030383336303031363030313630613031623033313638353630303136303031363061303162303331363131313536313434663935373932393339323562383436303031363030313630613031623033313638363630303136303031363061303162303331363131363134353234353736313435316438353835383536313462306335363562393035303631343539343536356238333630303136303031363061303162303331363836363030313630303136306130316230333136313031353631343538363537363030303631343534623837383638363631346230633536356239303530363030303631343535613837383938363631346237383536356239303530383036303031363030313630383031623033313638323630303136303031363038303162303331363130363134353762353738303631343537643536356238313562393235303530353036313435393435363562363134353931383538353834363134623738353635623930353035623935393435303530353035303530353635623630303036313134386338333833363134626265353635623630303036313134386338333833363134633834353635623630303036313130633138343834363030313630303136306130316230333835313636313463636535363562383135343630303039303832313036313436306435373630343035313632343631626364363065353162383135323630303430313830383036303230303138323831303338323532363032323831353236303230303138303631356431623630323239313339363034303031393135303530363034303531383039313033393066643562383236303030303138323831353438313130363134363163353766653562393036303030353236303230363030303230303135343930353039323931353035303536356236303030363131343863383338333631346436353536356238313534363030303930383139303833313036313436376635373630343035313632343631626364363065353162383135323630303430313830383036303230303138323831303338323532363032323831353236303230303138303631356539373630323239313339363034303031393135303530363034303531383039313033393066643562363030303834363030303031383438313534383131303631343639303537666535623930363030303532363032303630303032303930363030323032303139303530383036303030303135343831363030313031353439323530393235303530393235303932393035303536356236303030383238313532363030313834303136303230353236303430383132303534383238313631343735313537363034303531363234363162636436306535316238313532363030343031383038303630323030313832383130333832353238333831383135313831353236303230303139313530383035313930363032303031393038303833383336303030356238333831313031353631343731363537383138313031353138333832303135323630323030313631343666653536356235303530353035303930353039303831303139303630316631363830313536313437343335373830383230333830353136303031383336303230303336313031303030613033313931363831353236303230303139313530356235303932353035303530363034303531383039313033393066643562353038343630303030313630303138323033383135343831313036313437363435376665356239303630303035323630323036303030323039303630303230323031363030313031353439313530353039333932353035303530353635623630303036313437393438343630303136303031363061303162303331363631336236323536356236313437613035373530363030313631313063313536356236303030363134386631376631353062376130323030303030303030303030303030303030303030303030303030303030303030303030303030303030303030303030303030303030303030363134376365363133323533353635623838383738373630343035313630323430313830383536303031363030313630613031623033313638313532363032303031383436303031363030313630613031623033313638313532363032303031383338313532363032303031383036303230303138323831303338323532383338313831353138313532363032303031393135303830353139303630323030313930383038333833363030303562383338313130313536313438333535373831383130313531383338323031353236303230303136313438316435363562353035303530353039303530393038313031393036303166313638303135363134383632353738303832303338303531363030313833363032303033363130313030306130333139313638313532363032303031393135303562353039353530353035303530353035303630343035313630323038313833303330333831353239303630343035323930376266666666666666666666666666666666666666666666666666666666666666666666666666666666666666666666666666666666666666663139313636303230383230313830353137626666666666666666666666666666666666666666666666666666666666666666666666666666666666666666666666666666666666666666383338313833313631373833353235303530353035303630343035313830363036303031363034303532383036303332383135323630323030313631356433643630333239313339363030313630303136306130316230333838313639313930363134653339353635623930353036303030383138303630323030313930353136303230383131303135363134393061353736303030383066643562353035313766666666666666666630303030303030303030303030303030303030303030303030303030303030303030303030303030303030303030303030303030303030303136376631353062376130323030303030303030303030303030303030303030303030303030303030303030303030303030303030303030303030303030303030303030313439323530353035303934393335303530353035303536356236303430383035313630303136303031363061303162303338353831313636303234383330313532383438313136363034343833303135323630363438303833303138353930353238333531383038343033393039313031383135323630383439303932303138333532363032303832303138303531376266666666666666666666666666666666666666666666666666666666666666666666666666666666666666666666666666666666666666663136376632336238373264643030303030303030303030303030303030303030303030303030303030303030303030303030303030303030303030303030303030303030313738313532393235313832353136303030393438353934393338613136393339323931383239313930383038333833356236303230383331303631346130653537383035313832353236303166313939303932303139313630323039313832303139313031363134396566353635623630303138333630323030333631303130303061303338303139383235313136383138343531313638303832313738353532353035303530353035303530393035303031393135303530363030303630343035313830383330333831363030303836356166313931353035303364383036303030383131343631346137303537363034303531393135303630316631393630336633643031313638323031363034303532336438323532336436303030363032303834303133653631346137353536356236303630393135303562353039313530393135303831383031353631346161333537353038303531313538303631346161333537353038303830363032303031393035313630323038313130313536313461613035373630303038306664356235303531356236313237636435373630343038303531363234363162636436306535316238313532363032303630303438323031353236303033363032343832303135323766353335343436303030303030303030303030303030303030303030303030303030303030303030303030303030303030303030303030303030303030303030303630343438323031353239303531393038313930303336303634303139306664356236303030393038313532363030313931393039313031363032303532363034303930323035343135313539303536356236303030383236303031363030313630613031623033313638343630303136303031363061303162303331363131313536313462326335373931393239313562363030303631346235383835363030313630303136306130316230333136383536303031363030313630613031623033313636633031303030303030303030303030303030303030303030303030363133346431353635623930353036313435393436313462373338343833383838383033363030313630303136306130316230333136363133346431353635623631346534383536356236303030383236303031363030313630613031623033313638343630303136303031363061303162303331363131313536313462393835373931393239313562363131306331363134623733383336633031303030303030303030303030303030303030303030303030383738373033363030313630303136306130316230333136363133346431353635623630303038313831353236303031383330313630323035323630343038313230353438303135363134633761353738333534363030303139383038333031393139303831303139303630303039303837393038333930383131303631346266313537666535623930363030303532363032303630303032303031353439303530383038373630303030313834383135343831313036313463306535376665356236303030393138323532363032303830383332303930393130313932393039323535383238313532363030313839383130313930393235323630343039303230393038343031393035353836353438373930383036313463336535376665356236303031393030333831383139303630303035323630323036303030323030313630303039303535393035353836363030313031363030303837383135323630323030313930383135323630323030313630303032303630303039303535363030313934353035303530353035303631313438663536356236303030393135303530363131343866353635623630303036313463393038333833363134616634353635623631346363363537353038313534363030313831383130313834353536303030383438313532363032303830383232303930393330313834393035353834353438343832353238323836303139303933353236303430393032303931393039313535363131343866353635623530363030303631313438663536356236303030383238313532363030313834303136303230353236303430383132303534383036313464333335373530353036303430383035313830383230313832353238333831353236303230383038323031383438313532383635343630303138313831303138393535363030303839383135323834383132303935353136303032393039333032393039353031393138323535393135313930383230313535383635343836383435323831383830313930393235323932393039313230353536313334636135363562383238353630303030313630303138333033383135343831313036313464343635376665356239303630303035323630323036303030323039303630303230323031363030313031383139303535353036303030393135303530363133346361353635623630303038313831353236303031383330313630323035323630343038313230353438303135363134633761353738333534363030303139383038333031393139303831303139303630303039303837393038333930383131303631346439383537666535623930363030303532363032303630303032303930363030323032303139303530383038373630303030313834383135343831313036313464623835376665356236303030393138323532363032303830383332303834353436303032393039333032303139313832353536303031393338343031353439313834303139313930393135353833353438323532383938333031393035323630343039303230393038343031393035353836353438373930383036313464663735376665356236303030383238313532363032303830383232303630303236303030313939303934303139333834303230313832383135353630303139303831303138333930353539323930393335353838383135323839383230313930393235323630343038323230393139303931353539343530363131343866393335303530353035303536356236303630363131306331383438343630303038353631346535653536356238303630303136303031363038303162303338313136383131343631303737313537363030303830666435623630363038323437313031353631346539663537363034303531363234363162636436306535316238313532363030343031383038303630323030313832383130333832353236303236383135323630323030313830363135646261363032363931333936303430303139313530353036303430353138303931303339306664356236313465613838353631336236323536356236313465663935373630343038303531363234363162636436306535316238313532363032303630303438323031353236303164363032343832303135323766343136343634373236353733373333613230363336313663366332303734366632303665366636653264363336663665373437323631363337343030303030303630343438323031353239303531393038313930303336303634303139306664356236303030383038363630303136303031363061303162303331363835383736303430353138303832383035313930363032303031393038303833383335623630323038333130363134663337353738303531383235323630316631393930393230313931363032303931383230313931303136313466313835363562363030313833363032303033363130313030306130333830313938323531313638313834353131363830383231373835353235303530353035303530353039303530303139313530353036303030363034303531383038333033383138353837356166313932353035303530336438303630303038313134363134663939353736303430353139313530363031663139363033663364303131363832303136303430353233643832353233643630303036303230383430313365363134663965353635623630363039313530356235303931353039313530363134666165383238323836363134666239353635623937393635303530353035303530353035303536356236303630383331353631346663383537353038313631333463613536356238323531313536313466643835373832353138303834363032303031666435623630343035313632343631626364363065353162383135323630323036303034383230313831383135323834353136303234383430313532383435313835393339313932383339323630343430313931393038353031393038303833383336303030383331353631343731363537383138313031353138333832303135323630323030313631343666653536356235303830353436303031383136303031313631353631303130303032303331363630303239303034363030303832353538303630316631303631353034353537353036313530363335363562363031663031363032303930303439303630303035323630323036303030323039303831303139303631353036333931393036313530363635363562353035363562356238303832313131353631353037623537363030303831353536303031303136313530363735363562353039303536356238303335363130373731383136313563633435363562383035313631666666663831313638313134363130373731353736303030383066643562383033353632666666666666383131363831313436313037373135373630303038306664356236303030363032303832383430333132313536313530633035373830383166643562383133353631333463613831363135636334353635623630303038303630343038333835303331323135363135306464353738303831666435623832333536313530653838313631356363343536356239313530363032303833303133353631353066383831363135636334353635623830393135303530393235303932393035303536356236303030383036303030383036303830383538373033313231353631353131383537383138326664356238343335363135313233383136313563633435363562393335303630323038353031333536313531333338313631356363343536356239323530363135313431363034303836303136313530396335363562393135303630363038353031333536313531353138313631356363343536356239333936393239353530393039333530353035363562363030303830363030303630363038343836303331323135363135313730353738303831666435623833333536313531376238313631356363343536356239323530363032303834303133353631353138623831363135636334353635623932393539323934353035303530363034303931393039313031333539303536356236303030383036303030383036303830383538373033313231353631353162313537383138326664356238343335363135316263383136313563633435363562393335303630323038353031333536313531636338313631356363343536356239323530363034303835303133353931353036303630383530313335363766666666666666666666666666666666383131313135363135316565353738313832666435623835303136303166383130313837313336313531666535373831383266643562383033353631353231313631353230633832363135633736353635623631356335323536356238313831353238383630323038333835303130313131313536313532323535373833383466643562383136303230383430313630323038333031333739303831303136303230303139323930393235323530393239353931393435303932353035363562363030303830363034303833383530333132313536313532353535373831383266643562383233353631353236303831363135636334353635623931353036303230383330313335363135306638383136313563643935363562363030303830363034303833383530333132313536313532383235373831383266643562383233353631353238643831363135636334353635623934363032303933393039333031333539333530353035303536356236303030383036303030363036303834383630333132313536313532616635373830383166643562383333353631353262613831363135636334353635623932353036303230383430313335393135303630343038343031333536313532643138313631356363343536356238303931353035303932353039323530393235363562363030303830363030303830363030303830363063303837383930333132313536313532663435373833383466643562383633353631353266663831363135636334353635623935353036303230383730313335393435303630343038373031333539333530363036303837303133353631353331643831363135643062353635623935393839343937353039323935363038303831303133353934363061303930393130313335393335303931353035303536356236303030383036303230383338353033313231353631353334393537383138326664356238323335363766666666666666666666666666666666383038323131313536313533363035373833383466643562383138353031393135303835363031663833303131323631353337333537383338346664356238313335383138313131313536313533383135373834383566643562383636303230383038333032383530313031313131353631353339343537383438356664356236303230393239303932303139363931393535303930393335303530353035303536356236303030363032303832383430333132313536313533623735373830383166643562383133353766666666666666666630303030303030303030303030303030303030303030303030303030303030303030303030303030303030303030303030303030303030303831313638313134363133346361353738313832666435623630303036303230383238343033313231353631353366373537383038316664356238313335363133346361383136313563653735363562363030303630323038323834303331323135363135343133353738303831666435623831353136376666666666666666666666666666666638313131313536313534323935373831383266643562383230313630316638313031383431333631353433393537383138326664356238303531363135343437363135323063383236313563373635363562383138313532383536303230383338353031303131313135363135343562353738333834666435623631343539343832363032303833303136303230383630313631356339383536356236303030363038303832383430333132313536313534376435373830383166643562353039313930353035363562363030303630613038323834303331323135363135343764353738303831666435623630303036306330383238343033313231353631353437643537383038316664356236303030383138333033363038303831313231353631353462373537383138326664356236303430353136303430383130313637666666666666666666666666666666663832383231303831383331313137313536313534643535376665356238313630343035323630363038343132313536313534653635373834383566643562363061303833303139333530383138343130383138353131313731353631353466613537666535623530383236303430353238343335393235303631353530633833363135636334353635623931383235323630323038343031333539313631353531653833363135636334353635623832363036303833303135323631353533303630343038363031363135303963353635623630383038333031353238313532363135353433363036303835303136313530376635363562363032303832303135323934393335303530353035303536356236303030363130313630383238343033313231353631353437643537383038316664356236303030363032303832383430333132313536313535373335373830383166643562383133353631333463613831363135636636353635623630303038303630343038333835303331323135363135353930353738313832666435623832353136313535396238313631356366363536356236303230383430313531393039323530363135306638383136313563663635363562363030303830363030303830363030303630613038363838303331323135363135356333353738323833666435623835353136313535636538313631356366363536356238303935353035303630323038363031353139333530363034303836303135313932353036303630383630313531363135356565383136313563663635363562363038303837303135313930393235303631353566663831363135636636353635623830393135303530393239353530393239353930393335303536356236303030383036303030383036303030383036303030363065303838386130333132313536313536323735373834383566643562383735313631353633323831363135636334353635623630323038393031353139303937353036313536343338313631356365373536356239353530363135363531363034303839303136313530386135363562393435303631353635663630363038393031363135303861353635623933353036313536366436303830383930313631353038613536356239323530363061303838303135313631353637643831363135643062353635623630633038393031353139303932353036313536386538313631356364393536356238303931353035303932393539383931393439373530393239353530353635623630303036303230383238343033313231353631353661663537383038316664356236313134386338323631353039633536356236303030363032303832383430333132313536313536633935373830383166643562353033353931393035303536356236303030383036303430383338353033313231353631353665323537383138326664356238323335393135303630323038333031333536313530663838313631356363343536356236303030383036303430383338353033313231353631353730363537383138326664356235303530383035313630323039303931303135313930393239303931353035363562363030303830363030303830363036303835383730333132313536313537326335373831383266643562383433353933353036303230383530313335393235303630343038353031333536376666666666666666666666666666666638303832313131353631353735313537383338346664356238313837303139313530383736303166383330313132363135373634353738333834666435623831333538313831313131353631353737323537383438356664356238383630323038323835303130313131313536313537383335373834383566643562393539383934393735303530363032303031393435303530353035363562363030303831353138303834353236313537616138313630323038363031363032303836303136313563393835363562363031663031363031663139313639323930393230313630323030313932393135303530353635623630303230623930353235363562363030313630303136303830316230333136393035323536356236303030383238343833333739313031393038313532393139303530353635623630303136303031363061303162303339313930393131363831353236303230303139303536356236303030363030313630303136306130316230333837313638323532383536303032306236303230383330313532383436303032306236303430383330313532363030313630303136303830316230333834313636303630383330313532363061303630383038333031353236313466616536306130383330313834363135373932353635623630303136303031363061303162303339353930393531363835353236303032393338343062363032303836303135323931393039323062363034303834303135323630303136303031363038303162303339313832313636303630383430313532313636303830383230313532363061303031393035363562363030313630303136306130316230333933393039333136383335323630303136303031363038303162303339313832313636303230383430313532313636303430383230313532363036303031393035363562363030303630323038303833303138313834353238303835353138303833353236303430383630313931353036303430383438323032383730313031393235303833383730313835356238323831313031353631353931313537376666666666666666666666666666666666666666666666666666666666666666666666666666666666666666666666666666666666666666666666666666666330383838363033303138343532363135386666383538333531363135373932353635623934353039323835303139323930383530313930363030313031363135386335353635623530393239373936353035303530353035303530353035363562393031353135383135323630323030313930353635623930383135323630323030313930353635623630303136303031363061303162303339323930393231363832353236303230383230313532363034303031393035363562363030323933383430623831353239313930393230623630323038323031353236303031363030313630383031623033393039313136363034303832303135323630363030313930353635623630303036303230383235323631313438633630323038333031383436313537393235363562363032303830383235323630306339303832303135323766346536663734323036313730373037323666373636353634303030303030303030303030303030303030303030303030303030303030303030303030303030303630343038323031353236303630303139303536356236303230383038323532363032633930383230313532376634353532343333373332333133613230363137303730373236663736363536343230373137353635373237393230363636663732323036653666366536353738363034303832303135323766363937333734363536653734323037343666366236353665303030303030303030303030303030303030303030303030303030303030303030303030303030303630363038323031353236303830303139303536356236303230383038323532363031343930383230313532376635303732363936333635323037333663363937303730363136373635323036333638363536333662303030303030303030303030303030303030303030303030363034303832303135323630363030313930353635623630323038303832353236303130393038323031353237663439366537363631366336393634323037343666366236353665323034393434303030303030303030303030303030303030303030303030303030303030303036303430383230313532363036303031393035363562363032303830383235323630306239303832303135323766346536663734323036333663363536313732363536343030303030303030303030303030303030303030303030303030303030303030303030303030303030303630343038323031353236303630303139303536356238313531383035313630303136303031363061303162303339303831313638333532363032303830383330313531383231363831383530313532363034303932383330313531363266666666666631363932383430313932393039323532393230313531393039313136363036303832303135323630383030313930353635623630303136303031363038303162303339333930393331363833353236303230383330313931393039313532363034303832303135323630363030313930353635623933383435323630303136303031363038303162303339323930393231363630323038343031353236303430383330313532363036303832303135323630383030313930353635623931383235323630323038323031353236303430303139303536356236626666666666666666666666666666666666666666666666663864313638313532363030313630303136306130316230333863383131363630323038333031353238623831313636303430383330313532386131363630363038323031353236326666666666663839313636303830383230313532363030323838393030623630613038323031353236313031383038313031363135626137363063303833303138393631353762653536356236313562623436306530383330313838363135376335353635623835363130313030383330313532383436313031323038333031353236313562643036313031343038333031383536313537633535363562363135626465363130313630383330313834363135376335353635623964396335303530353035303530353035303530353035303530353035303536356236303030383038333335376666666666666666666666666666666666666666666666666666666666666666666666666666666666666666666666666666666666666666666666666666666531383433363033303138313132363135633233353738323833666435623833303138303335393135303637666666666666666666666666666666663832313131353631356333643537383238336664356236303230303139313530333638313930303338323133313536313362306635373630303038306664356236303430353138313831303136376666666666666666666666666666666638313131383238323130313731353631356336653537666535623630343035323931393035303536356236303030363766666666666666666666666666666666383231313135363135633861353766653562353036303166303136303166313931363630323030313930353635623630303035623833383131303135363135636233353738313831303135313833383230313532363032303031363135633962353635623833383131313135363132393664353735303530363030303931303135323536356236303031363030313630613031623033383131363831313436313530363335373630303038306664356238303135313538313134363135303633353736303030383066643562383036303032306238313134363135303633353736303030383066643562363030313630303136303830316230333831313638313134363135303633353736303030383066643562363066663831313638313134363135303633353736303030383066646665343536653735366436353732363136323663363535333635373433613230363936653634363537383230366637353734323036663636323036323666373536653634373334353532343333373332333133613230373437323631366537333636363537323230373436663230366536663665323034353532343333373332333135323635363336353639373636353732323036393664373036633635366436353665373436353732343535323433333733323331353036353732366436393734336132303631373037303732366637363631366332303734366632303633373537323732363536653734323036663737366536353732343535323433333733323331336132303734373236313665373336363635373232303734366632303734363836353230376136353732366632303631363436343732363537333733343136343634373236353733373333613230363936653733373536363636363936333639363536653734323036323631366336313665363336353230363636663732323036333631366336633435353234333337333233313361323036663730363537323631373436663732323037313735363537323739323036363666373232303665366636653635373836393733373436353665373432303734366636623635366534353532343333373332333133613230363137303730373236663736363532303633363136633663363537323230363937333230366536663734323036663737366536353732323036653666373232303631373037303732366637363635363432303636366637323230363136633663343535323433333733323331336132303632363136633631366536333635323037313735363537323739323036363666373232303734363836353230376136353732366632303631363436343732363537333733343535323433333733323331336132303666373736653635373232303731373536353732373932303636366637323230366536663665363537383639373337343635366537343230373436663662363536653435366537353664363537323631363236633635346436313730336132303639366536343635373832303666373537343230366636363230363236663735366536343733343535323433333733323331336132303734373236313665373336363635373232303666363632303734366636623635366532303734363836313734323036393733323036653666373432303666373736653435353234333337333233313361323036313730373037323666373636313663323037343666323036333735373237323635366537343230366637373665363537323435353234333337333233313361323037343732363136653733363636353732323036333631366336633635373232303639373332303665366637343230366637373665363537323230366536663732323036313730373037323666373636353634613136343733366636633633343330303037303630303061",
    "linkReferences": {}
  },
  "methodIdentifiers": {
    "positionManagerByteCode()": "1c317bea"
  },
  "id": 6
}