{"abi":[{"type":"receive","stateMutability":"payable"},{"type":"function","name":"estimateAmountOut","inputs":[{"name":"tokenIn","type":"address","internalType":"address"},{"name":"tokenOut","type":"address","internalType":"address"},{"name":"amountIn","type":"uint128","internalType":"uint128"}],"outputs":[{"name":"amountOut","type":"uint256","internalType":"uint256"}],"stateMutability":"view"},{"type":"function","name":"factoryV2","inputs":[],"outputs":[{"name":"","type":"address","internalType":"contract IUniswapV2Factory"}],"stateMutability":"view"},{"type":"function","name":"factoryV3","inputs":[],"outputs":[{"name":"","type":"address","internalType":"contract IUniswapV3Factory"}],"stateMutability":"view"},{"type":"function","name":"getAmountOut","inputs":[{"name":"tokenIn","type":"address","internalType":"address"},{"name":"tokenOut","type":"address","internalType":"address"},{"name":"amountIn","type":"uint256","internalType":"uint256"},{"name":"_swapVersion","type":"uint256","internalType":"uint256"}],"outputs":[{"name":"finalAmountOut","type":"uint256","internalType":"uint256"}],"stateMutability":"view"},{"type":"function","name":"getExactAmountOut","inputs":[{"name":"tokenIn","type":"address","internalType":"address"},{"name":"tokenOut","type":"address","internalType":"address"},{"name":"amountIn","type":"uint256","internalType":"uint256"},{"name":"_swapVersion","type":"uint256","internalType":"uint256"}],"outputs":[{"name":"finalAmountOut","type":"uint256","internalType":"uint256"}],"stateMutability":"nonpayable"},{"type":"function","name":"getExactAmountOut2","inputs":[{"name":"tokenIn","type":"address","internalType":"address"},{"name":"tokenOut","type":"address","internalType":"address"},{"name":"amountIn","type":"uint256","internalType":"uint256"}],"outputs":[{"name":"finalAmountOut","type":"uint256","internalType":"uint256"}],"stateMutability":"nonpayable"},{"type":"function","name":"initialize","inputs":[{"name":"_toUsdPriceFeed","type":"address","internalType":"address"},{"name":"_weth","type":"address","internalType":"address"},{"name":"_quoter","type":"address","internalType":"address"},{"name":"_swapRouterV3","type":"address","internalType":"address"},{"name":"_factoryV3","type":"address","internalType":"address"},{"name":"_swapRouterV2","type":"address","internalType":"address"},{"name":"_factoryV2","type":"address","internalType":"address"}],"outputs":[],"stateMutability":"nonpayable"},{"type":"function","name":"owner","inputs":[],"outputs":[{"name":"","type":"address","internalType":"address"}],"stateMutability":"view"},{"type":"function","name":"paused","inputs":[],"outputs":[{"name":"","type":"bool","internalType":"bool"}],"stateMutability":"view"},{"type":"function","name":"priceInWei","inputs":[],"outputs":[{"name":"","type":"uint256","internalType":"uint256"}],"stateMutability":"view"},{"type":"function","name":"proposeOwner","inputs":[{"name":"_proposedOwner","type":"address","internalType":"address"}],"outputs":[],"stateMutability":"nonpayable"},{"type":"function","name":"proposedOwner","inputs":[],"outputs":[{"name":"","type":"address","internalType":"address"}],"stateMutability":"view"},{"type":"function","name":"quoter","inputs":[],"outputs":[{"name":"","type":"address","internalType":"contract IQuoter"}],"stateMutability":"view"},{"type":"function","name":"renounceOwnership","inputs":[],"outputs":[],"stateMutability":"nonpayable"},{"type":"function","name":"setPriceFeed","inputs":[{"name":"_toUsdPricefeed","type":"address","internalType":"address"}],"outputs":[],"stateMutability":"nonpayable"},{"type":"function","name":"swapRouterV2","inputs":[],"outputs":[{"name":"","type":"address","internalType":"contract IUniswapV2Router02"}],"stateMutability":"view"},{"type":"function","name":"swapRouterV3","inputs":[],"outputs":[{"name":"","type":"address","internalType":"contract ISwapRouter"}],"stateMutability":"view"},{"type":"function","name":"toUsdPriceFeed","inputs":[],"outputs":[{"name":"","type":"address","internalType":"contract AggregatorV3Interface"}],"stateMutability":"view"},{"type":"function","name":"transferOwnership","inputs":[{"name":"newOwner","type":"address","internalType":"address"}],"outputs":[],"stateMutability":"nonpayable"},{"type":"function","name":"weth","inputs":[],"outputs":[{"name":"","type":"address","internalType":"contract IWETH"}],"stateMutability":"view"},{"type":"event","name":"Initialized","inputs":[{"name":"version","type":"uint8","indexed":false,"internalType":"uint8"}],"anonymous":false},{"type":"event","name":"OwnershipTransferred","inputs":[{"name":"previousOwner","type":"address","indexed":true,"internalType":"address"},{"name":"newOwner","type":"address","indexed":true,"internalType":"address"}],"anonymous":false},{"type":"event","name":"Paused","inputs":[{"name":"account","type":"address","indexed":false,"internalType":"address"}],"anonymous":false},{"type":"event","name":"Unpaused","inputs":[{"name":"account","type":"address","indexed":false,"internalType":"address"}],"anonymous":false},{"type":"error","name":"T","inputs":[]}],"bytecode":{"object":"0x608060405234801561001057600080fd5b50611c89806100206000396000f3fe6080604052600436106101235760003560e01c806368e0d4e1116100a0578063b5ed298a11610064578063b5ed298a14610327578063b631e80b14610347578063c6bbd5a714610367578063d153b60c14610387578063f2fde38b146103a757600080fd5b806368e0d4e114610294578063715018a6146102b4578063724e78da146102c9578063744fbc7a146102e95780638da5cb5b1461030957600080fd5b80633c8da588116100e75780633c8da588146101fc5780633fc8cef3146102115780635c975abb1461023157806363973fda14610254578063686f91751461027457600080fd5b80630456f9c81461012f57806313cb1f8314610162578063156a5da1146101825780631d5f45f5146101a257806335876476146101da57600080fd5b3661012a57005b600080fd5b34801561013b57600080fd5b5061014f61014a36600461168b565b6103c7565b6040519081526020015b60405180910390f35b34801561016e57600080fd5b5061014f61017d366004611723565b61047d565b34801561018e57600080fd5b5061014f61019d366004611723565b6105cb565b3480156101ae57600080fd5b5060cc546101c2906001600160a01b031681565b6040516001600160a01b039091168152602001610159565b3480156101e657600080fd5b506101fa6101f53660046115f5565b6107af565b005b34801561020857600080fd5b5061014f610942565b34801561021d57600080fd5b5060cf546101c2906001600160a01b031681565b34801561023d57600080fd5b5060985460ff166040519015158152602001610159565b34801561026057600080fd5b5060ca546101c2906001600160a01b031681565b34801561028057600080fd5b5061014f61028f3660046116e2565b610a6e565b3480156102a057600080fd5b5060ce546101c2906001600160a01b031681565b3480156102c057600080fd5b506101fa610c46565b3480156102d557600080fd5b506101fa6102e43660046115bb565b610c5a565b3480156102f557600080fd5b5060cd546101c2906001600160a01b031681565b34801561031557600080fd5b506033546001600160a01b03166101c2565b34801561033357600080fd5b506101fa6103423660046115bb565b610cf1565b34801561035357600080fd5b5060cb546101c2906001600160a01b031681565b34801561037357600080fd5b5060d0546101c2906001600160a01b031681565b34801561039357600080fd5b506065546101c2906001600160a01b031681565b3480156103b357600080fd5b506101fa6103c23660046115bb565b610d41565b60cc54604051630b4c774160e11b81526001600160a01b0385811660048301528481166024830152610bb860448301526000928392911690631698ee829060640160206040518083038186803b15801561042057600080fd5b505afa158015610434573d6000803e3d6000fd5b505050506040513d601f19601f8201168201806040525081019061045891906115d8565b9050600061046582610e69565b905061047381858888610eeb565b9695505050505050565b600082156105c35781600314156104a0576104998585856103c7565b90506105c3565b60408051600280825260608201835260009260208301908036833701905050905085816000815181106104d5576104d5611c12565b60200260200101906001600160a01b031690816001600160a01b031681525050848160018151811061050957610509611c12565b6001600160a01b03928316602091820292909201015260cd5460405163d06ca61f60e01b8152600092919091169063d06ca61f9061054d90889086906004016119d8565b60006040518083038186803b15801561056557600080fd5b505afa158015610579573d6000803e3d6000fd5b505050506040513d6000823e601f3d908101601f191682016040526105a19190810190611769565b9050806001815181106105b6576105b6611c12565b6020026020010151925050505b949350505050565b600081600314156106815760d05460405163f7729d4360e01b81526001600160a01b0387811660048301528681166024830152610bb860448301526064820186905260006084830181905292169063f7729d439060a401602060405180830381600087803b15801561063c57600080fd5b505af192505050801561066c575060408051601f3d908101601f19168201909252610669918101906118b9565b60015b61067857506000610499565b905090506105c3565b60408051600280825260608201835260009260208301908036833701905050905085816000815181106106b6576106b6611c12565b60200260200101906001600160a01b031690816001600160a01b03168152505084816001815181106106ea576106ea611c12565b6001600160a01b03928316602091820292909201015260cd5460405163d06ca61f60e01b8152600092919091169063d06ca61f9061072e90889086906004016119d8565b60006040518083038186803b15801561074657600080fd5b505afa92505050801561077b57506040513d6000823e601f3d908101601f191682016040526107789190810190611769565b60015b610787575060006107a6565b8060018151811061079a5761079a611c12565b60200260200101519150505b91506105c39050565b600054610100900460ff16158080156107cf5750600054600160ff909116105b806107e95750303b1580156107e9575060005460ff166001145b6108515760405162461bcd60e51b815260206004820152602e60248201527f496e697469616c697a61626c653a20636f6e747261637420697320616c72656160448201526d191e481a5b9a5d1a585b1a5e995960921b60648201526084015b60405180910390fd5b6000805460ff191660011790558015610874576000805461ff0019166101001790555b61087c610ff9565b610884611028565b60ca80546001600160a01b03199081166001600160a01b038b81169190911790925560cf805482168a841617905560d08054821689841617905560cb8054821688841617905560cc8054821687841617905560cd8054821686841617905560ce80549091169184169190911790558015610938576000805461ff0019169055604051600181527f7f26b83ff96e1f2b6a682f133852f6798a09c465da95921460cefb38474024989060200160405180910390a15b5050505050505050565b60008060ca60009054906101000a90046001600160a01b03166001600160a01b031663feaf968c6040518163ffffffff1660e01b815260040160a06040518083038186803b15801561099357600080fd5b505afa1580156109a7573d6000803e3d6000fd5b505050506040513d601f19601f820116820180604052508101906109cb91906118d2565b505050915050600060ca60009054906101000a90046001600160a01b03166001600160a01b031663313ce5676040518163ffffffff1660e01b815260040160206040518083038186803b158015610a2157600080fd5b505afa158015610a35573d6000803e3d6000fd5b505050506040513d601f19601f82011682018060405250810190610a599190611922565b9050610a6782826012611057565b9392505050565b60d05460405163f7729d4360e01b81526001600160a01b0385811660048301528481166024830152610bb860448301526064820184905260006084830181905292839291169063f7729d439060a401602060405180830381600087803b158015610ad757600080fd5b505af1925050508015610b07575060408051601f3d908101601f19168201909252610b04918101906118b9565b60015b610b1357506000610b16565b90505b6040805160028082526060820183526000926020830190803683370190505090508581600081518110610b4b57610b4b611c12565b60200260200101906001600160a01b031690816001600160a01b0316815250508481600181518110610b7f57610b7f611c12565b6001600160a01b03928316602091820292909201015260cd5460405163d06ca61f60e01b8152600092919091169063d06ca61f90610bc390889086906004016119d8565b60006040518083038186803b158015610bdb57600080fd5b505afa925050508015610c1057506040513d6000823e601f3d908101601f19168201604052610c0d9190810190611769565b60015b610c1c57506000610c3b565b80600181518110610c2f57610c2f611c12565b60200260200101519150505b509095945050505050565b610c4e611097565b610c5860006110f1565b565b610c62611097565b6001600160a01b038116610ccf5760405162461bcd60e51b815260206004820152602e60248201527f49434f3a205072696365206665656420616464726573732063616e6e6f74206260448201526d65207a65726f206164647265737360901b6064820152608401610848565b60ca80546001600160a01b0319166001600160a01b0392909216919091179055565b610cf9611097565b6001600160a01b038116610d1f5760405162461bcd60e51b81526004016108489061193d565b606580546001600160a01b0319166001600160a01b0392909216919091179055565b6001600160a01b038116610d675760405162461bcd60e51b81526004016108489061193d565b6065546001600160a01b03828116911614610ddf5760405162461bcd60e51b815260206004820152603260248201527f50726f706f7361626c654f776e61626c653a206e6577206f776e6572206973206044820152713737ba10383937b837b9b2b21037bbb732b960711b6064820152608401610848565b6001600160a01b0381163314610e5d5760405162461bcd60e51b815260206004820152603a60248201527f50726f706f7361626c654f776e61626c653a20746869732063616c6c206d757360448201527f74206265206d61646520627920746865206e6577206f776e65720000000000006064820152608401610848565b610e66816110f1565b50565b600080826001600160a01b0316633850c7bd6040518163ffffffff1660e01b815260040160e06040518083038186803b158015610ea557600080fd5b505afa158015610eb9573d6000803e3d6000fd5b505050506040513d601f19601f82011682018060405250810190610edd919061182e565b509398975050505050505050565b600080610ef786611143565b90506001600160801b036001600160a01b03821611610f7d576000610f256001600160a01b03831680611ba4565b9050836001600160a01b0316856001600160a01b031610610f5d57610f58600160c01b876001600160801b031683611463565b610f75565b610f7581876001600160801b0316600160c01b611463565b925050610ff0565b6000610f9c6001600160a01b0383168068010000000000000000611463565b9050836001600160a01b0316856001600160a01b031610610fd457610fcf600160801b876001600160801b031683611463565b610fec565b610fec81876001600160801b0316600160801b611463565b9250505b50949350505050565b600054610100900460ff166110205760405162461bcd60e51b81526004016108489061198d565b610c58611516565b600054610100900460ff1661104f5760405162461bcd60e51b81526004016108489061198d565b610c58611546565b60008260ff168260ff16111561108d576110718383611bc3565b61107c90600a611a72565b6110869085611b1f565b9050610a67565b6110718284611bc3565b6033546001600160a01b03163314610c585760405162461bcd60e51b815260206004820181905260248201527f4f776e61626c653a2063616c6c6572206973206e6f7420746865206f776e65726044820152606401610848565b603380546001600160a01b038381166001600160a01b0319831681179093556040519116919082907f8be0079c531659141344cd1fd0a4f28419497f9722a3daafe3b4186f6b6457e090600090a35050565b60008060008360020b1261115a578260020b611162565b8260020b6000035b9050620d89e8811115611188576040516315e4079d60e11b815260040160405180910390fd5b60006001821661119c57600160801b6111ae565b6ffffcb933bd6fad37aa2d162d1a5940015b70ffffffffffffffffffffffffffffffffff16905060028216156111e2576ffff97272373d413259a46990580e213a0260801c5b6004821615611201576ffff2e50f5f656932ef12357cf3c7fdcc0260801c5b6008821615611220576fffe5caca7e10e4e61c3624eaa0941cd00260801c5b601082161561123f576fffcb9843d60f6159c9db58835c9266440260801c5b602082161561125e576fff973b41fa98c081472e6896dfb254c00260801c5b604082161561127d576fff2ea16466c96a3843ec78b326b528610260801c5b608082161561129c576ffe5dee046a99a2a811c461f1969c30530260801c5b6101008216156112bc576ffcbe86c7900a88aedcffc83b479aa3a40260801c5b6102008216156112dc576ff987a7253ac413176f2b074cf7815e540260801c5b6104008216156112fc576ff3392b0822b70005940c7a398e4b70f30260801c5b61080082161561131c576fe7159475a2c29b7443b29c7fa6e889d90260801c5b61100082161561133c576fd097f3bdfd2022b8845ad8f792aa58250260801c5b61200082161561135c576fa9f746462d870fdf8a65dc1f90e061e50260801c5b61400082161561137c576f70d869a156d2a1b890bb3df62baf32f70260801c5b61800082161561139c576f31be135f97d08fd981231505542fcfa60260801c5b620100008216156113bd576f09aa508b5b7a84e1c677de54f3e99bc90260801c5b620200008216156113dd576e5d6af8dedb81196699c329225ee6040260801c5b620400008216156113fc576d2216e584f5fa1ea926041bedfe980260801c5b62080000821615611419576b048a170391f7dc42444e8fa20260801c5b60008460020b131561143a57806000198161143657611436611bfc565b0490505b64010000000081061561144e576001611451565b60005b60ff16602082901c0192505050919050565b60008080600019858709858702925082811083820303915050806000141561149d576000841161149257600080fd5b508290049050610a67565b8084116114a957600080fd5b6000848688096000868103871696879004966002600389028118808a02820302808a02820302808a02820302808a02820302808a02820302808a02909103029181900381900460010186841190950394909402919094039290920491909117919091029150509392505050565b600054610100900460ff1661153d5760405162461bcd60e51b81526004016108489061198d565b610c58336110f1565b600054610100900460ff1661156d5760405162461bcd60e51b81526004016108489061198d565b6098805460ff19169055565b805161ffff8116811461158b57600080fd5b919050565b805169ffffffffffffffffffff8116811461158b57600080fd5b805160ff8116811461158b57600080fd5b6000602082840312156115cd57600080fd5b8135610a6781611c3e565b6000602082840312156115ea57600080fd5b8151610a6781611c3e565b600080600080600080600060e0888a03121561161057600080fd5b873561161b81611c3e565b9650602088013561162b81611c3e565b9550604088013561163b81611c3e565b9450606088013561164b81611c3e565b9350608088013561165b81611c3e565b925060a088013561166b81611c3e565b915060c088013561167b81611c3e565b8091505092959891949750929550565b6000806000606084860312156116a057600080fd5b83356116ab81611c3e565b925060208401356116bb81611c3e565b915060408401356001600160801b03811681146116d757600080fd5b809150509250925092565b6000806000606084860312156116f757600080fd5b833561170281611c3e565b9250602084013561171281611c3e565b929592945050506040919091013590565b6000806000806080858703121561173957600080fd5b843561174481611c3e565b9350602085013561175481611c3e565b93969395505050506040820135916060013590565b6000602080838503121561177c57600080fd5b825167ffffffffffffffff8082111561179457600080fd5b818501915085601f8301126117a857600080fd5b8151818111156117ba576117ba611c28565b8060051b604051601f19603f830116810181811085821117156117df576117df611c28565b604052828152858101935084860182860187018a10156117fe57600080fd5b600095505b83861015611821578051855260019590950194938601938601611803565b5098975050505050505050565b600080600080600080600060e0888a03121561184957600080fd5b875161185481611c3e565b8097505060208801518060020b811461186c57600080fd5b955061187a60408901611579565b945061188860608901611579565b935061189660808901611579565b92506118a460a089016115aa565b915060c0880151801515811461167b57600080fd5b6000602082840312156118cb57600080fd5b5051919050565b600080600080600060a086880312156118ea57600080fd5b6118f386611590565b945060208601519350604086015192506060860151915061191660808701611590565b90509295509295909350565b60006020828403121561193457600080fd5b610a67826115aa565b60208082526030908201527f50726f706f7361626c654f776e61626c653a206e6577206f776e65722069732060408201526f746865207a65726f206164647265737360801b606082015260800190565b6020808252602b908201527f496e697469616c697a61626c653a20636f6e7472616374206973206e6f74206960408201526a6e697469616c697a696e6760a81b606082015260800190565b6000604082018483526020604081850152818551808452606086019150828701935060005b81811015611a225784516001600160a01b0316835293830193918301916001016119fd565b5090979650505050505050565b600181815b80851115611a6a578160001904821115611a5057611a50611be6565b80851615611a5d57918102915b93841c9390800290611a34565b509250929050565b6000610a6760ff841683600082611a8b57506001611b19565b81611a9857506000611b19565b8160018114611aae5760028114611ab857611ad4565b6001915050611b19565b60ff841115611ac957611ac9611be6565b50506001821b611b19565b5060208310610133831016604e8410600b8410161715611af7575081810a611b19565b611b018383611a2f565b8060001904821115611b1557611b15611be6565b0290505b92915050565b60006001600160ff1b0381841382841380821686840486111615611b4557611b45611be6565b600160ff1b6000871282811687830589121615611b6457611b64611be6565b60008712925087820587128484161615611b8057611b80611be6565b87850587128184161615611b9657611b96611be6565b505050929093029392505050565b6000816000190483118215151615611bbe57611bbe611be6565b500290565b600060ff821660ff841680821015611bdd57611bdd611be6565b90039392505050565b634e487b7160e01b600052601160045260246000fd5b634e487b7160e01b600052601260045260246000fd5b634e487b7160e01b600052603260045260246000fd5b634e487b7160e01b600052604160045260246000fd5b6001600160a01b0381168114610e6657600080fdfea2646970667358221220341d8a94bf1204cea567c28a2e084d4a250023834ac7de166133d85f0f0a6f5164736f6c63430008070033","linkReferences":{}},"methodIdentifiers":{"estimateAmountOut(address,address,uint128)":"0456f9c8","factoryV2()":"68e0d4e1","factoryV3()":"1d5f45f5","getAmountOut(address,address,uint256,uint256)":"13cb1f83","getExactAmountOut(address,address,uint256,uint256)":"156a5da1","getExactAmountOut2(address,address,uint256)":"686f9175","initialize(address,address,address,address,address,address,address)":"35876476","owner()":"8da5cb5b","paused()":"5c975abb","priceInWei()":"3c8da588","proposeOwner(address)":"b5ed298a","proposedOwner()":"d153b60c","quoter()":"c6bbd5a7","renounceOwnership()":"715018a6","setPriceFeed(address)":"724e78da","swapRouterV2()":"744fbc7a","swapRouterV3()":"b631e80b","toUsdPriceFeed()":"63973fda","transferOwnership(address)":"f2fde38b","weth()":"3fc8cef3"},"id":0}