{"abi":[{"type":"function","name":"priceOracleByteCode","inputs":[],"outputs":[{"name":"","type":"bytes","internalType":"bytes"}],"stateMutability":"view"}],"bytecode":{"object":"0x60806040526040518061072001604052806106eb81526020016103896106eb913960009080519060200190610035929190610048565b5034801561004257600080fd5b5061014c565b828054610054906100eb565b90600052602060002090601f01602090048101928261007657600085556100bd565b82601f1061008f57805160ff19168380011785556100bd565b828001600101855582156100bd579182015b828111156100bc5782518255916020019190600101906100a1565b5b5090506100ca91906100ce565b5090565b5b808211156100e75760008160009055506001016100cf565b5090565b6000600282049050600182168061010357607f821691505b602082108114156101175761011661011d565b5b50919050565b7f4e487b7100000000000000000000000000000000000000000000000000000000600052602260045260246000fd5b61022e8061015b6000396000f3fe608060405234801561001057600080fd5b506004361061002b5760003560e01c8063e4ce6f6114610030575b600080fd5b61003861004e565b6040516100459190610115565b60405180910390f35b6000805461005b90610186565b80601f016020809104026020016040519081016040528092919081815260200182805461008790610186565b80156100d45780601f106100a9576101008083540402835291602001916100d4565b820191906000526020600020905b8154815290600101906020018083116100b757829003601f168201915b505050505081565b60006100e782610137565b6100f18185610142565b9350610101818560208601610153565b61010a816101e7565b840191505092915050565b6000602082019050818103600083015261012f81846100dc565b905092915050565b600081519050919050565b600082825260208201905092915050565b60005b83811015610171578082015181840152602081019050610156565b83811115610180576000848401525b50505050565b6000600282049050600182168061019e57607f821691505b602082108114156101b2576101b16101b8565b5b50919050565b7f4e487b7100000000000000000000000000000000000000000000000000000000600052602260045260246000fd5b6000601f19601f830116905091905056fea264697066735822122086de35bd016d1c3dce71873c6157b741beb6fa8d98bb23de455cb57aa1f50f8464736f6c63430008070033608060405234801561001057600080fd5b506106cb806100206000396000f3fe608060405234801561001057600080fd5b506004361061002b5760003560e01c8063bb5705b314610030575b600080fd5b610081600480360360a081101561004657600080fd5b5080356001600160a01b039081169160208101358216916040820135169060608101356001600160801b0316906080013562ffffff16610093565b60408051918252519081900360200190f35b600080866001600160a01b0316631698ee828787866040518463ffffffff1660e01b815260040180846001600160a01b03168152602001836001600160a01b031681526020018262ffffff168152602001935050505060206040518083038186803b15801561010157600080fd5b505afa158015610115573d6000803e3d6000fd5b505050506040513d602081101561012b57600080fd5b505160408051633850c7bd60e01b815290519192506000916001600160a01b03841691633850c7bd9160048083019260e0929190829003018186803b15801561017357600080fd5b505afa158015610187573d6000803e3d6000fd5b505050506040513d60e081101561019d57600080fd5b506020015190506101b0818689896101bc565b98975050505050505050565b6000806101c8866102b3565b90506001600160801b036001600160a01b03821611610237576001600160a01b038082168002908481169086161061021757610212600160c01b876001600160801b0316836105e5565b61022f565b61022f81876001600160801b0316600160c01b6105e5565b9250506102aa565b60006102566001600160a01b03831680680100000000000000006105e5565b9050836001600160a01b0316856001600160a01b03161061028e57610289600160801b876001600160801b0316836105e5565b6102a6565b6102a681876001600160801b0316600160801b6105e5565b9250505b50949350505050565b60008060008360020b126102ca578260020b6102d2565b8260020b6000035b9050620d89e8811115610310576040805162461bcd60e51b81526020600482015260016024820152601560fa1b604482015290519081900360640190fd5b60006001821661032457600160801b610336565b6ffffcb933bd6fad37aa2d162d1a5940015b70ffffffffffffffffffffffffffffffffff169050600282161561036a576ffff97272373d413259a46990580e213a0260801c5b6004821615610389576ffff2e50f5f656932ef12357cf3c7fdcc0260801c5b60088216156103a8576fffe5caca7e10e4e61c3624eaa0941cd00260801c5b60108216156103c7576fffcb9843d60f6159c9db58835c9266440260801c5b60208216156103e6576fff973b41fa98c081472e6896dfb254c00260801c5b6040821615610405576fff2ea16466c96a3843ec78b326b528610260801c5b6080821615610424576ffe5dee046a99a2a811c461f1969c30530260801c5b610100821615610444576ffcbe86c7900a88aedcffc83b479aa3a40260801c5b610200821615610464576ff987a7253ac413176f2b074cf7815e540260801c5b610400821615610484576ff3392b0822b70005940c7a398e4b70f30260801c5b6108008216156104a4576fe7159475a2c29b7443b29c7fa6e889d90260801c5b6110008216156104c4576fd097f3bdfd2022b8845ad8f792aa58250260801c5b6120008216156104e4576fa9f746462d870fdf8a65dc1f90e061e50260801c5b614000821615610504576f70d869a156d2a1b890bb3df62baf32f70260801c5b618000821615610524576f31be135f97d08fd981231505542fcfa60260801c5b62010000821615610545576f09aa508b5b7a84e1c677de54f3e99bc90260801c5b62020000821615610565576e5d6af8dedb81196699c329225ee6040260801c5b62040000821615610584576d2216e584f5fa1ea926041bedfe980260801c5b620800008216156105a1576b048a170391f7dc42444e8fa20260801c5b60008460020b13156105bc5780600019816105b857fe5b0490505b6401000000008106156105d05760016105d3565b60005b60ff16602082901c0192505050919050565b600080806000198587098686029250828110908390030390508061061b576000841161061057600080fd5b50829004905061068e565b80841161062757600080fd5b6000848688096000868103871696879004966002600389028118808a02820302808a02820302808a02820302808a02820302808a02820302808a02909103029181900381900460010186841190950394909402919094039290920491909117919091029150505b939250505056fea2646970667358221220dd503f1d0bf4dd7fd80b31e21eb4fc34eb6175e106c86aec1e85527dfd7878b864736f6c63430007060033","linkReferences":{}},"methodIdentifiers":{"priceOracleByteCode()":"e4ce6f61"},"id":23}