{"abi":[{"type":"constructor","inputs":[{"name":"_name","type":"string","internalType":"string"},{"name":"_symbol","type":"string","internalType":"string"},{"name":"_minter","type":"address","internalType":"address"}],"stateMutability":"nonpayable"},{"type":"function","name":"addBurnRequestNFT","inputs":[{"name":"_indexName","type":"string","internalType":"string"},{"name":"_userAddress","type":"address","internalType":"address"},{"name":"_amount","type":"uint256","internalType":"uint256"}],"outputs":[],"stateMutability":"nonpayable"},{"type":"function","name":"addMintRequestNFT","inputs":[{"name":"_indexName","type":"string","internalType":"string"},{"name":"_userAddress","type":"address","internalType":"address"},{"name":"_amount","type":"uint256","internalType":"uint256"}],"outputs":[],"stateMutability":"nonpayable"},{"type":"function","name":"approve","inputs":[{"name":"to","type":"address","internalType":"address"},{"name":"tokenId","type":"uint256","internalType":"uint256"}],"outputs":[],"stateMutability":"nonpayable"},{"type":"function","name":"balanceOf","inputs":[{"name":"owner","type":"address","internalType":"address"}],"outputs":[{"name":"","type":"uint256","internalType":"uint256"}],"stateMutability":"view"},{"type":"function","name":"baseUrl","inputs":[],"outputs":[{"name":"","type":"string","internalType":"string"}],"stateMutability":"view"},{"type":"function","name":"exampleURL","inputs":[],"outputs":[{"name":"","type":"string","internalType":"string"}],"stateMutability":"view"},{"type":"function","name":"generateURI","inputs":[{"name":"_indexName","type":"string","internalType":"string"},{"name":"_requestType","type":"string","internalType":"string"},{"name":"amount","type":"uint256","internalType":"uint256"},{"name":"_timestamp","type":"uint256","internalType":"uint256"}],"outputs":[{"name":"","type":"string","internalType":"string"}],"stateMutability":"view"},{"type":"function","name":"getApproved","inputs":[{"name":"tokenId","type":"uint256","internalType":"uint256"}],"outputs":[{"name":"","type":"address","internalType":"address"}],"stateMutability":"view"},{"type":"function","name":"isApprovedForAll","inputs":[{"name":"owner","type":"address","internalType":"address"},{"name":"operator","type":"address","internalType":"address"}],"outputs":[{"name":"","type":"bool","internalType":"bool"}],"stateMutability":"view"},{"type":"function","name":"minter","inputs":[],"outputs":[{"name":"","type":"address","internalType":"address"}],"stateMutability":"view"},{"type":"function","name":"name","inputs":[],"outputs":[{"name":"","type":"string","internalType":"string"}],"stateMutability":"view"},{"type":"function","name":"owner","inputs":[],"outputs":[{"name":"","type":"address","internalType":"address"}],"stateMutability":"view"},{"type":"function","name":"ownerOf","inputs":[{"name":"tokenId","type":"uint256","internalType":"uint256"}],"outputs":[{"name":"","type":"address","internalType":"address"}],"stateMutability":"view"},{"type":"function","name":"renounceOwnership","inputs":[],"outputs":[],"stateMutability":"nonpayable"},{"type":"function","name":"safeTransferFrom","inputs":[{"name":"from","type":"address","internalType":"address"},{"name":"to","type":"address","internalType":"address"},{"name":"tokenId","type":"uint256","internalType":"uint256"}],"outputs":[],"stateMutability":"nonpayable"},{"type":"function","name":"safeTransferFrom","inputs":[{"name":"from","type":"address","internalType":"address"},{"name":"to","type":"address","internalType":"address"},{"name":"tokenId","type":"uint256","internalType":"uint256"},{"name":"data","type":"bytes","internalType":"bytes"}],"outputs":[],"stateMutability":"nonpayable"},{"type":"function","name":"setApprovalForAll","inputs":[{"name":"operator","type":"address","internalType":"address"},{"name":"approved","type":"bool","internalType":"bool"}],"outputs":[],"stateMutability":"nonpayable"},{"type":"function","name":"setMinter","inputs":[{"name":"_minter","type":"address","internalType":"address"}],"outputs":[],"stateMutability":"nonpayable"},{"type":"function","name":"supportsInterface","inputs":[{"name":"interfaceId","type":"bytes4","internalType":"bytes4"}],"outputs":[{"name":"","type":"bool","internalType":"bool"}],"stateMutability":"view"},{"type":"function","name":"symbol","inputs":[],"outputs":[{"name":"","type":"string","internalType":"string"}],"stateMutability":"view"},{"type":"function","name":"tokenURI","inputs":[{"name":"tokenId","type":"uint256","internalType":"uint256"}],"outputs":[{"name":"","type":"string","internalType":"string"}],"stateMutability":"view"},{"type":"function","name":"totalSupply","inputs":[],"outputs":[{"name":"","type":"uint256","internalType":"uint256"}],"stateMutability":"view"},{"type":"function","name":"transferFrom","inputs":[{"name":"from","type":"address","internalType":"address"},{"name":"to","type":"address","internalType":"address"},{"name":"tokenId","type":"uint256","internalType":"uint256"}],"outputs":[],"stateMutability":"nonpayable"},{"type":"function","name":"transferOwnership","inputs":[{"name":"newOwner","type":"address","internalType":"address"}],"outputs":[],"stateMutability":"nonpayable"},{"type":"event","name":"AddBurnRequestNFT","inputs":[{"name":"_userAddress","type":"address","indexed":true,"internalType":"address"},{"name":"_amount","type":"uint256","indexed":false,"internalType":"uint256"},{"name":"_time","type":"uint256","indexed":false,"internalType":"uint256"}],"anonymous":false},{"type":"event","name":"AddMintRequestNFT","inputs":[{"name":"_userAddress","type":"address","indexed":true,"internalType":"address"},{"name":"_amount","type":"uint256","indexed":false,"internalType":"uint256"},{"name":"_time","type":"uint256","indexed":false,"internalType":"uint256"}],"anonymous":false},{"type":"event","name":"Approval","inputs":[{"name":"owner","type":"address","indexed":true,"internalType":"address"},{"name":"approved","type":"address","indexed":true,"internalType":"address"},{"name":"tokenId","type":"uint256","indexed":true,"internalType":"uint256"}],"anonymous":false},{"type":"event","name":"ApprovalForAll","inputs":[{"name":"owner","type":"address","indexed":true,"internalType":"address"},{"name":"operator","type":"address","indexed":true,"internalType":"address"},{"name":"approved","type":"bool","indexed":false,"internalType":"bool"}],"anonymous":false},{"type":"event","name":"BatchMetadataUpdate","inputs":[{"name":"_fromTokenId","type":"uint256","indexed":false,"internalType":"uint256"},{"name":"_toTokenId","type":"uint256","indexed":false,"internalType":"uint256"}],"anonymous":false},{"type":"event","name":"MetadataUpdate","inputs":[{"name":"_tokenId","type":"uint256","indexed":false,"internalType":"uint256"}],"anonymous":false},{"type":"event","name":"MinterSet","inputs":[{"name":"minter","type":"address","indexed":true,"internalType":"address"}],"anonymous":false},{"type":"event","name":"OwnershipTransferred","inputs":[{"name":"previousOwner","type":"address","indexed":true,"internalType":"address"},{"name":"newOwner","type":"address","indexed":true,"internalType":"address"}],"anonymous":false},{"type":"event","name":"Transfer","inputs":[{"name":"from","type":"address","indexed":true,"internalType":"address"},{"name":"to","type":"address","indexed":true,"internalType":"address"},{"name":"tokenId","type":"uint256","indexed":true,"internalType":"uint256"}],"anonymous":false}],"bytecode":{"object":"0x610100604052605c6080818152906125f360a039600a9061002090826101cb565b5060405180606001604052806033815260200161264f60339139600b9061004790826101cb565b5034801561005457600080fd5b5060405161268238038061268283398101604081905261007391610332565b8282600061008183826101cb565b50600161008e82826101cb565b5050506100a76100a26100d460201b60201c565b6100d8565b6001600855600980546001600160a01b0319166001600160a01b0392909216919091179055506103b79050565b3390565b600780546001600160a01b038381166001600160a01b0319831681179093556040519116919082907f8be0079c531659141344cd1fd0a4f28419497f9722a3daafe3b4186f6b6457e090600090a35050565b634e487b7160e01b600052604160045260246000fd5b600181811c9082168061015457607f821691505b60208210810361017457634e487b7160e01b600052602260045260246000fd5b50919050565b601f8211156101c6576000816000526020600020601f850160051c810160208610156101a35750805b601f850160051c820191505b818110156101c2578281556001016101af565b5050505b505050565b81516001600160401b038111156101e4576101e461012a565b6101f8816101f28454610140565b8461017a565b602080601f83116001811461022d57600084156102155750858301515b600019600386901b1c1916600185901b1785556101c2565b600085815260208120601f198616915b8281101561025c5788860151825594840194600190910190840161023d565b508582101561027a5787850151600019600388901b60f8161c191681555b5050505050600190811b01905550565b600082601f83011261029b57600080fd5b81516001600160401b03808211156102b5576102b561012a565b604051601f8301601f19908116603f011681019082821181831017156102dd576102dd61012a565b81604052838152602092508660208588010111156102fa57600080fd5b600091505b8382101561031c57858201830151818301840152908201906102ff565b6000602085830101528094505050505092915050565b60008060006060848603121561034757600080fd5b83516001600160401b038082111561035e57600080fd5b61036a8783880161028a565b9450602086015191508082111561038057600080fd5b5061038d8682870161028a565b604086015190935090506001600160a01b03811681146103ac57600080fd5b809150509250925092565b61222d806103c66000396000f3fe608060405234801561001057600080fd5b50600436106101585760003560e01c80636352211e116100c3578063b88d4fde1161007c578063b88d4fde146102b5578063c87b56dd146102c8578063d7c63ed1146102db578063e985e9c5146102ee578063f2fde38b14610301578063fca3b5aa1461031457600080fd5b80636352211e1461025b57806370a082311461026e578063715018a6146102815780638da5cb5b1461028957806395d89b411461029a578063a22cb465146102a257600080fd5b80630ab3862c116101155780630ab3862c1461020057806318160ddd1461020857806323b872dd1461021a57806342842e0e1461022d57806359a4326d146102405780635bcabf041461025357600080fd5b806301ffc9a71461015d57806304d131af1461018557806306fdde03146101a557806307546172146101ad578063081812fc146101d8578063095ea7b3146101eb575b600080fd5b61017061016b3660046118b2565b610327565b60405190151581526020015b60405180910390f35b61019861019336600461197b565b610352565b60405161017c9190611a3f565b61019861039e565b6009546101c0906001600160a01b031681565b6040516001600160a01b03909116815260200161017c565b6101c06101e6366004611a52565b610430565b6101fe6101f9366004611a87565b610457565b005b610198610571565b6008545b60405190815260200161017c565b6101fe610228366004611ab1565b6105ff565b6101fe61023b366004611ab1565b610630565b6101fe61024e366004611aed565b61064b565b6101986106ee565b6101c0610269366004611a52565b6106fb565b61020c61027c366004611b34565b61075b565b6101fe6107e1565b6007546001600160a01b03166101c0565b6101986107f5565b6101fe6102b0366004611b4f565b610804565b6101fe6102c3366004611b8b565b610813565b6101986102d6366004611a52565b61084b565b6101fe6102e9366004611aed565b610953565b6101706102fc366004611c07565b6109eb565b6101fe61030f366004611b34565b610a19565b6101fe610322366004611b34565b610a92565b60006001600160e01b03198216632483248360e11b148061034c575061034c82610af7565b92915050565b6060600061035f83610b47565b9050600b8561036d86610b78565b8389604051602001610383959493929190611c90565b6040516020818303038152906040529150505b949350505050565b6060600080546103ad90611c3a565b80601f01602080910402602001604051908101604052809291908181526020018280546103d990611c3a565b80156104265780601f106103fb57610100808354040283529160200191610426565b820191906000526020600020905b81548152906001019060200180831161040957829003601f168201915b5050505050905090565b600061043b82610c7a565b506000908152600460205260409020546001600160a01b031690565b6000610462826106fb565b9050806001600160a01b0316836001600160a01b0316036104d45760405162461bcd60e51b815260206004820152602160248201527f4552433732313a20617070726f76616c20746f2063757272656e74206f776e656044820152603960f91b60648201526084015b60405180910390fd5b336001600160a01b03821614806104f057506104f081336109eb565b6105625760405162461bcd60e51b815260206004820152603d60248201527f4552433732313a20617070726f76652063616c6c6572206973206e6f7420746f60448201527f6b656e206f776e6572206f7220617070726f76656420666f7220616c6c00000060648201526084016104cb565b61056c8383610cd9565b505050565b600a805461057e90611c3a565b80601f01602080910402602001604051908101604052809291908181526020018280546105aa90611c3a565b80156105f75780601f106105cc576101008083540402835291602001916105f7565b820191906000526020600020905b8154815290600101906020018083116105da57829003601f168201915b505050505081565b6106093382610d47565b6106255760405162461bcd60e51b81526004016104cb90611d7f565b61056c838383610da5565b61056c83838360405180602001604052806000815250610813565b6008546106588382610f09565b6000610682858442604051806040016040528060048152602001631b5a5b9d60e21b815250611094565b905061068e82826110de565b6008805490600061069e83611de2565b9091555050604080518481524260208201526001600160a01b038616917f30c393af19b002c6f3a5996edbabe590b412465e30d645c919bd796293421b5191015b60405180910390a25050505050565b600b805461057e90611c3a565b6000818152600260205260408120546001600160a01b03168061034c5760405162461bcd60e51b8152602060048201526018602482015277115490cdcc8c4e881a5b9d985b1a59081d1bdad95b88125160421b60448201526064016104cb565b60006001600160a01b0382166107c55760405162461bcd60e51b815260206004820152602960248201527f4552433732313a2061646472657373207a65726f206973206e6f7420612076616044820152683634b21037bbb732b960b91b60648201526084016104cb565b506001600160a01b031660009081526003602052604090205490565b6107e96111a9565b6107f36000611203565b565b6060600180546103ad90611c3a565b61080f338383611255565b5050565b61081d3383610d47565b6108395760405162461bcd60e51b81526004016104cb90611d7f565b61084584848484611323565b50505050565b606061085682610c7a565b6000828152600660205260408120805461086f90611c3a565b80601f016020809104026020016040519081016040528092919081815260200182805461089b90611c3a565b80156108e85780601f106108bd576101008083540402835291602001916108e8565b820191906000526020600020905b8154815290600101906020018083116108cb57829003601f168201915b50505050509050600061090660408051602081019091526000815290565b90508051600003610918575092915050565b81511561094a578082604051602001610932929190611dfb565b60405160208183030381529060405292505050919050565b61039684611356565b6008546109608382610f09565b600061098a85844260405180604001604052806004815260200163313ab93760e11b815250611094565b905061099682826110de565b600880549060006109a683611de2565b9091555050604080518481524260208201526001600160a01b038616917f8e800cce4e0bf26af71bb210013fa090bbf827f69265dfd34b59544b9f52a57a91016106df565b6001600160a01b03918216600090815260056020908152604080832093909416825291909152205460ff1690565b610a216111a9565b6001600160a01b038116610a865760405162461bcd60e51b815260206004820152602660248201527f4f776e61626c653a206e6577206f776e657220697320746865207a65726f206160448201526564647265737360d01b60648201526084016104cb565b610a8f81611203565b50565b610a9a6111a9565b6001600160a01b038116610aad57600080fd5b600980546001600160a01b0319166001600160a01b0383169081179091556040517f726b590ef91a8c76ad05bbe91a57ef84605276528f49cd47d787f558a4e755b690600090a250565b60006001600160e01b031982166380ac58cd60e01b1480610b2857506001600160e01b03198216635b5e139f60e01b145b8061034c57506301ffc9a760e01b6001600160e01b031983161461034c565b6060610b52826113ca565b604051602001610b629190611e2a565b6040516020818303038152906040529050919050565b606081600003610b9f5750506040805180820190915260018152600360fc1b602082015290565b8160005b8115610bc95780610bb381611de2565b9150610bc29050600a83611e5c565b9150610ba3565b60008167ffffffffffffffff811115610be457610be46118cf565b6040519080825280601f01601f191660200182016040528015610c0e576020820181803683370190505b5090505b84156103965781610c2281611e70565b9250610c319050600a86611e87565b610c3c906030611e9b565b60f81b818381518110610c5157610c51611eae565b60200101906001600160f81b031916908160001a905350610c73600a86611e5c565b9450610c12565b6000818152600260205260409020546001600160a01b0316610a8f5760405162461bcd60e51b8152602060048201526018602482015277115490cdcc8c4e881a5b9d985b1a59081d1bdad95b88125160421b60448201526064016104cb565b600081815260046020526040902080546001600160a01b0319166001600160a01b0384169081179091558190610d0e826106fb565b6001600160a01b03167f8c5be1e5ebec7d5bd14f71427d1e84f3dd0314c0f7b2291e5b200ac8c7c3b92560405160405180910390a45050565b600080610d53836106fb565b9050806001600160a01b0316846001600160a01b03161480610d7a5750610d7a81856109eb565b806103965750836001600160a01b0316610d9384610430565b6001600160a01b031614949350505050565b826001600160a01b0316610db8826106fb565b6001600160a01b031614610dde5760405162461bcd60e51b81526004016104cb90611ec4565b6001600160a01b038216610e405760405162461bcd60e51b8152602060048201526024808201527f4552433732313a207472616e7366657220746f20746865207a65726f206164646044820152637265737360e01b60648201526084016104cb565b826001600160a01b0316610e53826106fb565b6001600160a01b031614610e795760405162461bcd60e51b81526004016104cb90611ec4565b600081815260046020908152604080832080546001600160a01b03199081169091556001600160a01b0387811680865260038552838620805460001901905590871680865283862080546001019055868652600290945282852080549092168417909155905184937fddf252ad1be2c89b69c2b068fc378daa952ba7f163c4a11628f55a4df523b3ef91a4505050565b6001600160a01b038216610f5f5760405162461bcd60e51b815260206004820181905260248201527f4552433732313a206d696e7420746f20746865207a65726f206164647265737360448201526064016104cb565b6000818152600260205260409020546001600160a01b031615610fc45760405162461bcd60e51b815260206004820152601c60248201527f4552433732313a20746f6b656e20616c7265616479206d696e7465640000000060448201526064016104cb565b6000818152600260205260409020546001600160a01b0316156110295760405162461bcd60e51b815260206004820152601c60248201527f4552433732313a20746f6b656e20616c7265616479206d696e7465640000000060448201526064016104cb565b6001600160a01b038216600081815260036020908152604080832080546001019055848352600290915280822080546001600160a01b0319168417905551839291907fddf252ad1be2c89b69c2b068fc378daa952ba7f163c4a11628f55a4df523b3ef908290a45050565b606060006110a486848787610352565b90506110ce816040516020016110ba9190611f09565b6040516020818303038152906040526114cc565b6040516020016103839190611f9f565b6000828152600260205260409020546001600160a01b03166111595760405162461bcd60e51b815260206004820152602e60248201527f45524337323155524953746f726167653a2055524920736574206f66206e6f6e60448201526d32bc34b9ba32b73a103a37b5b2b760911b60648201526084016104cb565b60008281526006602052604090206111718282612034565b506040518281527ff8e1a15aba9398e019f0b49df1a4fde98ee17ae345cb5f6b5e2c27f5033e8ce79060200160405180910390a15050565b6007546001600160a01b031633146107f35760405162461bcd60e51b815260206004820181905260248201527f4f776e61626c653a2063616c6c6572206973206e6f7420746865206f776e657260448201526064016104cb565b600780546001600160a01b038381166001600160a01b0319831681179093556040519116919082907f8be0079c531659141344cd1fd0a4f28419497f9722a3daafe3b4186f6b6457e090600090a35050565b816001600160a01b0316836001600160a01b0316036112b65760405162461bcd60e51b815260206004820152601960248201527f4552433732313a20617070726f766520746f2063616c6c65720000000000000060448201526064016104cb565b6001600160a01b03838116600081815260056020908152604080832094871680845294825291829020805460ff191686151590811790915591519182527f17307eab39ab6107e8899845ad3d59bd9653f200f220920489ca2b5937696c31910160405180910390a3505050565b61132e848484610da5565b61133a84848484611633565b6108455760405162461bcd60e51b81526004016104cb906120f4565b606061136182610c7a565b600061137860408051602081019091526000815290565b9050600081511161139857604051806020016040528060008152506113c3565b806113a284611731565b6040516020016113b3929190611dfb565b6040516020818303038152906040525b9392505050565b6060816000036113f15750506040805180820190915260018152600360fc1b602082015290565b8160005b811561141b578061140581611de2565b91506114149050600a83611e5c565b91506113f5565b60008167ffffffffffffffff811115611436576114366118cf565b6040519080825280601f01601f191660200182016040528015611460576020820181803683370190505b5090505b8415610396578161147481611e70565b92506114839050600a86611e87565b61148e906030611e9b565b60f81b8183815181106114a3576114a3611eae565b60200101906001600160f81b031916908160001a9053506114c5600a86611e5c565b9450611464565b606081516000036114eb57505060408051602081019091526000815290565b60006040518060600160405280604081526020016121b8604091399050600060038451600261151a9190611e9b565b6115249190611e5c565b61152f906004612146565b9050600061153e826020611e9b565b67ffffffffffffffff811115611556576115566118cf565b6040519080825280601f01601f191660200182016040528015611580576020820181803683370190505b509050818152600183018586518101602084015b818310156115ee5760039283018051603f601282901c811687015160f890811b8552600c83901c8216880151811b6001860152600683901c8216880151811b60028601529116860151901b93820193909352600401611594565b600389510660018114611608576002811461161957611625565b613d3d60f01b600119830152611625565b603d60f81b6000198301525b509398975050505050505050565b60006001600160a01b0384163b1561172957604051630a85bd0160e11b81526001600160a01b0385169063150b7a029061167790339089908890889060040161215d565b6020604051808303816000875af19250505080156116b2575060408051601f3d908101601f191682019092526116af9181019061219a565b60015b61170f573d8080156116e0576040519150601f19603f3d011682016040523d82523d6000602084013e6116e5565b606091505b5080516000036117075760405162461bcd60e51b81526004016104cb906120f4565b805181602001fd5b6001600160e01b031916630a85bd0160e11b149050610396565b506001610396565b6060600061173e836117c4565b600101905060008167ffffffffffffffff81111561175e5761175e6118cf565b6040519080825280601f01601f191660200182016040528015611788576020820181803683370190505b5090508181016020015b600019016f181899199a1a9b1b9c1cb0b131b232b360811b600a86061a8153600a850494508461179257509392505050565b60008072184f03e93ff9f4daa797ed6e38ed64bf6a1f0160401b83106118035772184f03e93ff9f4daa797ed6e38ed64bf6a1f0160401b830492506040015b6d04ee2d6d415b85acef8100000000831061182f576d04ee2d6d415b85acef8100000000830492506020015b662386f26fc10000831061184d57662386f26fc10000830492506010015b6305f5e1008310611865576305f5e100830492506008015b612710831061187957612710830492506004015b6064831061188b576064830492506002015b600a831061034c5760010192915050565b6001600160e01b031981168114610a8f57600080fd5b6000602082840312156118c457600080fd5b81356113c38161189c565b634e487b7160e01b600052604160045260246000fd5b600067ffffffffffffffff80841115611900576119006118cf565b604051601f8501601f19908116603f01168101908282118183101715611928576119286118cf565b8160405280935085815286868601111561194157600080fd5b858560208301376000602087830101525050509392505050565b600082601f83011261196c57600080fd5b6113c3838335602085016118e5565b6000806000806080858703121561199157600080fd5b843567ffffffffffffffff808211156119a957600080fd5b6119b58883890161195b565b955060208701359150808211156119cb57600080fd5b506119d88782880161195b565b949794965050505060408301359260600135919050565b60005b83811015611a0a5781810151838201526020016119f2565b50506000910152565b60008151808452611a2b8160208601602086016119ef565b601f01601f19169290920160200192915050565b6020815260006113c36020830184611a13565b600060208284031215611a6457600080fd5b5035919050565b80356001600160a01b0381168114611a8257600080fd5b919050565b60008060408385031215611a9a57600080fd5b611aa383611a6b565b946020939093013593505050565b600080600060608486031215611ac657600080fd5b611acf84611a6b565b9250611add60208501611a6b565b9150604084013590509250925092565b600080600060608486031215611b0257600080fd5b833567ffffffffffffffff811115611b1957600080fd5b611b258682870161195b565b935050611add60208501611a6b565b600060208284031215611b4657600080fd5b6113c382611a6b565b60008060408385031215611b6257600080fd5b611b6b83611a6b565b915060208301358015158114611b8057600080fd5b809150509250929050565b60008060008060808587031215611ba157600080fd5b611baa85611a6b565b9350611bb860208601611a6b565b925060408501359150606085013567ffffffffffffffff811115611bdb57600080fd5b8501601f81018713611bec57600080fd5b611bfb878235602084016118e5565b91505092959194509250565b60008060408385031215611c1a57600080fd5b611c2383611a6b565b9150611c3160208401611a6b565b90509250929050565b600181811c90821680611c4e57607f821691505b602082108103611c6e57634e487b7160e01b600052602260045260246000fd5b50919050565b60008151611c868185602086016119ef565b9290920192915050565b6000808754611c9e81611c3a565b60018281168015611cb65760018114611ccb57611cfa565b60ff1984168752821515830287019450611cfa565b8b60005260208060002060005b85811015611cf15781548a820152908401908201611cd8565b50505082870194505b505050508651611d0e818360208b016119ef565b611d72611d6c611d55611d4f611d3d611d378688016726616d6f756e743d60c01b815260080190565b8c611c74565b652674696d653d60d01b815260060190565b89611c74565b6a26696e6465784e616d653d60a81b8152600b0190565b86611c74565b9998505050505050505050565b6020808252602d908201527f4552433732313a2063616c6c6572206973206e6f7420746f6b656e206f776e6560408201526c1c881bdc88185c1c1c9bdd9959609a1b606082015260800190565b634e487b7160e01b600052601160045260246000fd5b600060018201611df457611df4611dcc565b5060010190565b60008351611e0d8184602088016119ef565b835190830190611e218183602088016119ef565b01949350505050565b60008251611e3c8184602087016119ef565b9190910192915050565b634e487b7160e01b600052601260045260246000fd5b600082611e6b57611e6b611e46565b500490565b600081611e7f57611e7f611dcc565b506000190190565b600082611e9657611e96611e46565b500690565b8082018082111561034c5761034c611dcc565b634e487b7160e01b600052603260045260246000fd5b60208082526025908201527f4552433732313a207472616e736665722066726f6d20696e636f72726563742060408201526437bbb732b960d91b606082015260800190565b7f7b226e616d65223a2244796e616d6963204e4654222c2022646573637269707481527f696f6e223a2244796e616d6963204e46542054657374222c200000000000000060208201526801134b6b0b3b2911d160bd1b60398201526000601160f91b8060428401528351611f848160438601602088016119ef565b604393019283015250607d60f81b6044820152604501919050565b7f646174613a6170706c69636174696f6e2f6a736f6e3b6261736536342c000000815260008251611fd781601d8501602087016119ef565b91909101601d0192915050565b601f82111561056c576000816000526020600020601f850160051c8101602086101561200d5750805b601f850160051c820191505b8181101561202c57828155600101612019565b505050505050565b815167ffffffffffffffff81111561204e5761204e6118cf565b6120628161205c8454611c3a565b84611fe4565b602080601f831160018114612097576000841561207f5750858301515b600019600386901b1c1916600185901b17855561202c565b600085815260208120601f198616915b828110156120c6578886015182559484019460019091019084016120a7565b50858210156120e45787850151600019600388901b60f8161c191681555b5050505050600190811b01905550565b60208082526032908201527f4552433732313a207472616e7366657220746f206e6f6e20455243373231526560408201527131b2b4bb32b91034b6b83632b6b2b73a32b960711b606082015260800190565b808202811582820484141761034c5761034c611dcc565b6001600160a01b038581168252841660208201526040810183905260806060820181905260009061219090830184611a13565b9695505050505050565b6000602082840312156121ac57600080fd5b81516113c38161189c56fe4142434445464748494a4b4c4d4e4f505152535455565758595a6162636465666768696a6b6c6d6e6f707172737475767778797a303132333435363738392b2fa2646970667358221220e03e248105a01112d0dbcff9a47f45a6ad9cc9031915818641e329888a470b6464736f6c6343000819003368747470733a2f2f646170702d73706f742d696e6465782e76657263656c2e6170702f6170692f6765744e46543f747970653d6d696e7426616d6f756e743d31303030303030303030303030303030302674696d653d33353335333568747470733a2f2f646170702d73706f742d696e6465782e76657263656c2e6170702f6170692f6765744e46543f747970653d","linkReferences":{}},"methodIdentifiers":{"addBurnRequestNFT(string,address,uint256)":"d7c63ed1","addMintRequestNFT(string,address,uint256)":"59a4326d","approve(address,uint256)":"095ea7b3","balanceOf(address)":"70a08231","baseUrl()":"5bcabf04","exampleURL()":"0ab3862c","generateURI(string,string,uint256,uint256)":"04d131af","getApproved(uint256)":"081812fc","isApprovedForAll(address,address)":"e985e9c5","minter()":"07546172","name()":"06fdde03","owner()":"8da5cb5b","ownerOf(uint256)":"6352211e","renounceOwnership()":"715018a6","safeTransferFrom(address,address,uint256)":"42842e0e","safeTransferFrom(address,address,uint256,bytes)":"b88d4fde","setApprovalForAll(address,bool)":"a22cb465","setMinter(address)":"fca3b5aa","supportsInterface(bytes4)":"01ffc9a7","symbol()":"95d89b41","tokenURI(uint256)":"c87b56dd","totalSupply()":"18160ddd","transferFrom(address,address,uint256)":"23b872dd","transferOwnership(address)":"f2fde38b"},"id":27}